{
  "address": "0x39984D58957c57fD712D08e9274B99855b1bE625",
  "abi": [
    {
      "inputs": [],
      "stateMutability": "nonpayable",
      "type": "constructor"
    },
    {
      "inputs": [],
      "name": "ECDSAInvalidSignature",
      "type": "error"
    },
    {
      "inputs": [
        {
          "internalType": "uint256",
          "name": "length",
          "type": "uint256"
        }
      ],
      "name": "ECDSAInvalidSignatureLength",
      "type": "error"
    },
    {
      "inputs": [
        {
          "internalType": "bytes32",
          "name": "s",
          "type": "bytes32"
        }
      ],
      "name": "ECDSAInvalidSignatureS",
      "type": "error"
    },
    {
      "inputs": [
        {
          "internalType": "address",
          "name": "spender",
          "type": "address"
        },
        {
          "internalType": "uint256",
          "name": "allowance",
          "type": "uint256"
        },
        {
          "internalType": "uint256",
          "name": "needed",
          "type": "uint256"
        }
      ],
      "name": "ERC20InsufficientAllowance",
      "type": "error"
    },
    {
      "inputs": [
        {
          "internalType": "address",
          "name": "sender",
          "type": "address"
        },
        {
          "internalType": "uint256",
          "name": "balance",
          "type": "uint256"
        },
        {
          "internalType": "uint256",
          "name": "needed",
          "type": "uint256"
        }
      ],
      "name": "ERC20InsufficientBalance",
      "type": "error"
    },
    {
      "inputs": [
        {
          "internalType": "address",
          "name": "approver",
          "type": "address"
        }
      ],
      "name": "ERC20InvalidApprover",
      "type": "error"
    },
    {
      "inputs": [
        {
          "internalType": "address",
          "name": "receiver",
          "type": "address"
        }
      ],
      "name": "ERC20InvalidReceiver",
      "type": "error"
    },
    {
      "inputs": [
        {
          "internalType": "address",
          "name": "sender",
          "type": "address"
        }
      ],
      "name": "ERC20InvalidSender",
      "type": "error"
    },
    {
      "inputs": [
        {
          "internalType": "address",
          "name": "spender",
          "type": "address"
        }
      ],
      "name": "ERC20InvalidSpender",
      "type": "error"
    },
    {
      "inputs": [
        {
          "internalType": "uint256",
          "name": "deadline",
          "type": "uint256"
        }
      ],
      "name": "ERC2612ExpiredSignature",
      "type": "error"
    },
    {
      "inputs": [
        {
          "internalType": "address",
          "name": "signer",
          "type": "address"
        },
        {
          "internalType": "address",
          "name": "owner",
          "type": "address"
        }
      ],
      "name": "ERC2612InvalidSigner",
      "type": "error"
    },
    {
      "inputs": [
        {
          "internalType": "address",
          "name": "account",
          "type": "address"
        },
        {
          "internalType": "uint256",
          "name": "currentNonce",
          "type": "uint256"
        }
      ],
      "name": "InvalidAccountNonce",
      "type": "error"
    },
    {
      "inputs": [],
      "name": "InvalidInitialization",
      "type": "error"
    },
    {
      "inputs": [],
      "name": "NotInitializing",
      "type": "error"
    },
    {
      "anonymous": false,
      "inputs": [
        {
          "indexed": true,
          "internalType": "address",
          "name": "owner",
          "type": "address"
        },
        {
          "indexed": true,
          "internalType": "address",
          "name": "spender",
          "type": "address"
        },
        {
          "indexed": false,
          "internalType": "uint256",
          "name": "value",
          "type": "uint256"
        }
      ],
      "name": "Approval",
      "type": "event"
    },
    {
      "anonymous": false,
      "inputs": [],
      "name": "EIP712DomainChanged",
      "type": "event"
    },
    {
      "anonymous": false,
      "inputs": [
        {
          "indexed": false,
          "internalType": "uint64",
          "name": "version",
          "type": "uint64"
        }
      ],
      "name": "Initialized",
      "type": "event"
    },
    {
      "anonymous": false,
      "inputs": [
        {
          "indexed": true,
          "internalType": "address",
          "name": "from",
          "type": "address"
        },
        {
          "indexed": true,
          "internalType": "address",
          "name": "to",
          "type": "address"
        },
        {
          "indexed": false,
          "internalType": "uint256",
          "name": "value",
          "type": "uint256"
        }
      ],
      "name": "Transfer",
      "type": "event"
    },
    {
      "inputs": [],
      "name": "DOMAIN_SEPARATOR",
      "outputs": [
        {
          "internalType": "bytes32",
          "name": "",
          "type": "bytes32"
        }
      ],
      "stateMutability": "view",
      "type": "function"
    },
    {
      "inputs": [],
      "name": "ERC1155",
      "outputs": [
        {
          "internalType": "address",
          "name": "",
          "type": "address"
        }
      ],
      "stateMutability": "view",
      "type": "function"
    },
    {
      "inputs": [],
      "name": "ERC1155_ID",
      "outputs": [
        {
          "internalType": "uint256",
          "name": "",
          "type": "uint256"
        }
      ],
      "stateMutability": "view",
      "type": "function"
    },
    {
      "inputs": [
        {
          "internalType": "address",
          "name": "owner",
          "type": "address"
        },
        {
          "internalType": "address",
          "name": "spender",
          "type": "address"
        }
      ],
      "name": "allowance",
      "outputs": [
        {
          "internalType": "uint256",
          "name": "",
          "type": "uint256"
        }
      ],
      "stateMutability": "view",
      "type": "function"
    },
    {
      "inputs": [
        {
          "internalType": "address",
          "name": "spender",
          "type": "address"
        },
        {
          "internalType": "uint256",
          "name": "value",
          "type": "uint256"
        }
      ],
      "name": "approve",
      "outputs": [
        {
          "internalType": "bool",
          "name": "",
          "type": "bool"
        }
      ],
      "stateMutability": "nonpayable",
      "type": "function"
    },
    {
      "inputs": [
        {
          "internalType": "address",
          "name": "account",
          "type": "address"
        }
      ],
      "name": "balanceOf",
      "outputs": [
        {
          "internalType": "uint256",
          "name": "",
          "type": "uint256"
        }
      ],
      "stateMutability": "view",
      "type": "function"
    },
    {
      "inputs": [],
      "name": "decimals",
      "outputs": [
        {
          "internalType": "uint8",
          "name": "",
          "type": "uint8"
        }
      ],
      "stateMutability": "view",
      "type": "function"
    },
    {
      "inputs": [],
      "name": "eip712Domain",
      "outputs": [
        {
          "internalType": "bytes1",
          "name": "fields",
          "type": "bytes1"
        },
        {
          "internalType": "string",
          "name": "name",
          "type": "string"
        },
        {
          "internalType": "string",
          "name": "version",
          "type": "string"
        },
        {
          "internalType": "uint256",
          "name": "chainId",
          "type": "uint256"
        },
        {
          "internalType": "address",
          "name": "verifyingContract",
          "type": "address"
        },
        {
          "internalType": "bytes32",
          "name": "salt",
          "type": "bytes32"
        },
        {
          "internalType": "uint256[]",
          "name": "extensions",
          "type": "uint256[]"
        }
      ],
      "stateMutability": "view",
      "type": "function"
    },
    {
      "inputs": [
        {
          "internalType": "uint256",
          "name": "id_",
          "type": "uint256"
        },
        {
          "internalType": "address",
          "name": "gETH_",
          "type": "address"
        },
        {
          "internalType": "bytes",
          "name": "data",
          "type": "bytes"
        }
      ],
      "name": "initialize",
      "outputs": [],
      "stateMutability": "nonpayable",
      "type": "function"
    },
    {
      "inputs": [],
      "name": "name",
      "outputs": [
        {
          "internalType": "string",
          "name": "",
          "type": "string"
        }
      ],
      "stateMutability": "view",
      "type": "function"
    },
    {
      "inputs": [
        {
          "internalType": "address",
          "name": "owner",
          "type": "address"
        }
      ],
      "name": "nonces",
      "outputs": [
        {
          "internalType": "uint256",
          "name": "",
          "type": "uint256"
        }
      ],
      "stateMutability": "view",
      "type": "function"
    },
    {
      "inputs": [
        {
          "internalType": "address",
          "name": "owner",
          "type": "address"
        },
        {
          "internalType": "address",
          "name": "spender",
          "type": "address"
        },
        {
          "internalType": "uint256",
          "name": "value",
          "type": "uint256"
        },
        {
          "internalType": "uint256",
          "name": "deadline",
          "type": "uint256"
        },
        {
          "internalType": "uint8",
          "name": "v",
          "type": "uint8"
        },
        {
          "internalType": "bytes32",
          "name": "r",
          "type": "bytes32"
        },
        {
          "internalType": "bytes32",
          "name": "s",
          "type": "bytes32"
        }
      ],
      "name": "permit",
      "outputs": [],
      "stateMutability": "nonpayable",
      "type": "function"
    },
    {
      "inputs": [],
      "name": "pricePerShare",
      "outputs": [
        {
          "internalType": "uint256",
          "name": "",
          "type": "uint256"
        }
      ],
      "stateMutability": "view",
      "type": "function"
    },
    {
      "inputs": [],
      "name": "symbol",
      "outputs": [
        {
          "internalType": "string",
          "name": "",
          "type": "string"
        }
      ],
      "stateMutability": "view",
      "type": "function"
    },
    {
      "inputs": [],
      "name": "totalSupply",
      "outputs": [
        {
          "internalType": "uint256",
          "name": "",
          "type": "uint256"
        }
      ],
      "stateMutability": "view",
      "type": "function"
    },
    {
      "inputs": [
        {
          "internalType": "address",
          "name": "to",
          "type": "address"
        },
        {
          "internalType": "uint256",
          "name": "value",
          "type": "uint256"
        }
      ],
      "name": "transfer",
      "outputs": [
        {
          "internalType": "bool",
          "name": "",
          "type": "bool"
        }
      ],
      "stateMutability": "nonpayable",
      "type": "function"
    },
    {
      "inputs": [
        {
          "internalType": "address",
          "name": "from",
          "type": "address"
        },
        {
          "internalType": "address",
          "name": "to",
          "type": "address"
        },
        {
          "internalType": "uint256",
          "name": "value",
          "type": "uint256"
        }
      ],
      "name": "transferFrom",
      "outputs": [
        {
          "internalType": "bool",
          "name": "",
          "type": "bool"
        }
      ],
      "stateMutability": "nonpayable",
      "type": "function"
    }
  ],
  "transactionHash": "0x41135d7a3e0ee459d27dfed7f61d8593e947fa7a3ce819aa8a9f6531e1e1694b",
  "args": [],
  "numDeployments": 1,
  "solcInputHash": "983f26216548ae9c38be8d3a1167f02e",
  "bytecode": "0x608060405234801561001057600080fd5b50610019610026565b610021610026565b6100d8565b7ff0c57e16840df040f15088dc2f81fe391c3923bec73e23a9662efc9c229c6a00805468010000000000000000900460ff16156100765760405163f92ee8a960e01b815260040160405180910390fd5b80546001600160401b03908116146100d55780546001600160401b0319166001600160401b0390811782556040519081527fc7f505b2f371ae2175ee4913f4499e1f2633a7b5936321eed1cdaeb6115181d29060200160405180910390a15b50565b6119f1806100e76000396000f3fe608060405234801561001057600080fd5b506004361061010b5760003560e01c806370a08231116100a257806399530b061161007157806399530b061461023b578063a9059cbb14610243578063d505accf14610256578063dd62ed3e1461026b578063e209b6461461027e57600080fd5b806370a08231146101f25780637ecebe001461020557806384b0196e1461021857806395d89b411461023357600080fd5b80632d255471116100de5780632d2554711461017a578063313ce567146101b45780633644e515146101c35780635c2f8aa0146101cb57600080fd5b806306fdde0314610110578063095ea7b31461012e57806318160ddd1461015157806323b872dd14610167575b600080fd5b610118610291565b60405161012591906114db565b60405180910390f35b61014161013c366004611511565b610354565b6040519015158152602001610125565b61015961036e565b604051908152602001610125565b61014161017536600461153b565b61048c565b7f033cdebea869703c4621de9e95304f18ae23301f1ffc0c9d2917741e54db2503546040516001600160a01b039091168152602001610125565b60405160128152602001610125565b6101596104b0565b7f033cdebea869703c4621de9e95304f18ae23301f1ffc0c9d2917741e54db250454610159565b610159610200366004611577565b6104bf565b610159610213366004611577565b6105e4565b610220610621565b6040516101259796959493929190611592565b6101186106d2565b6101596106f7565b610141610251366004611511565b610782565b610269610264366004611628565b610790565b005b61015961027936600461169b565b6108e9565b61026961028c3660046116ce565b610921565b7f033cdebea869703c4621de9e95304f18ae23301f1ffc0c9d2917741e54db2501805460609160008051602061197c833981519152916102d090611755565b80601f01602080910402602001604051908101604052809291908181526020018280546102fc90611755565b80156103495780601f1061031e57610100808354040283529160200191610349565b820191906000526020600020905b81548152906001019060200180831161032c57829003601f168201915b505050505091505090565b600033610362818585610b2d565b60019150505b92915050565b60008060008051602061197c833981519152600481810154600383015460405163f759cc3b60e01b815292830182905292935091670de0b6b3a7640000916001600160a01b039091169063f759cc3b90602401602060405180830381865afa1580156103de573d6000803e3d6000fd5b505050506040513d601f19601f82011682018060405250810190610402919061178f565b600384015460405163bd85b03960e01b8152600481018590526001600160a01b039091169063bd85b03990602401602060405180830381865afa15801561044d573d6000803e3d6000fd5b505050506040513d601f19601f82011682018060405250810190610471919061178f565b61047b91906117be565b61048591906117d5565b9250505090565b60003361049a858285610b3f565b6104a5858585610ba5565b506001949350505050565b60006104ba610c04565b905090565b60008060008051602061197c833981519152600481810154600383015460405163f759cc3b60e01b815292830182905292935091670de0b6b3a7640000916001600160a01b039091169063f759cc3b90602401602060405180830381865afa15801561052f573d6000803e3d6000fd5b505050506040513d601f19601f82011682018060405250810190610553919061178f565b6003840154604051627eeac760e11b81526001600160a01b038881166004830152602482018690529091169062fdd58e90604401602060405180830381865afa1580156105a4573d6000803e3d6000fd5b505050506040513d601f19601f820116820180604052508101906105c8919061178f565b6105d291906117be565b6105dc91906117d5565b949350505050565b6001600160a01b03811660009081527f5ab42ced628888259c08ac98db1eb0cf702fc1501344311d8b100cd1bfe4bb006020526040812054610368565b6000606080828080838160008051602061199c833981519152805490915015801561064e57506001810154155b6106975760405162461bcd60e51b81526020600482015260156024820152741152540dcc4c8e88155b9a5b9a5d1a585b1a5e9959605a1b60448201526064015b60405180910390fd5b61069f610c0e565b6106a7610c26565b60408051600080825260208201909252600f60f81b9c939b5091995046985030975095509350915050565b6060600060008051602061197c8339815191525b90508060020180546102d090611755565b60008060008051602061197c833981519152600381015460048083015460405163f759cc3b60e01b8152918201529192506001600160a01b03169063f759cc3b90602401602060405180830381865afa158015610758573d6000803e3d6000fd5b505050506040513d601f19601f8201168201806040525081019061077c919061178f565b91505090565b600033610362818585610ba5565b834211156107b45760405163313c898160e11b81526004810185905260240161068e565b60007f6e71edae12b1b97f4d1f60370fef10105fa2faae0126114a169c64845d6126c98888886108208c6001600160a01b031660009081527f5ab42ced628888259c08ac98db1eb0cf702fc1501344311d8b100cd1bfe4bb006020526040902080546001810190915590565b6040805160208101969096526001600160a01b0394851690860152929091166060840152608083015260a082015260c0810186905260e001604051602081830303815290604052805190602001209050600061087b82610c65565b9050600061088b82878787610c92565b9050896001600160a01b0316816001600160a01b0316146108d2576040516325c0072360e11b81526001600160a01b0380831660048301528b16602482015260440161068e565b6108dd8a8a8a610b2d565b50505050505050505050565b6001600160a01b03918216600090815260008051602061197c8339815191526020908152604080832093909416825291909152205490565b7ff0c57e16840df040f15088dc2f81fe391c3923bec73e23a9662efc9c229c6a008054600160401b810460ff16159067ffffffffffffffff166000811580156109675750825b905060008267ffffffffffffffff1660011480156109845750303b155b905081158015610992575080155b156109b05760405163f92ee8a960e01b815260040160405180910390fd5b845467ffffffffffffffff1916600117855583156109da57845460ff60401b1916600160401b1785555b6000610a1e88888080601f0160208091040260200160405190810160405280939291908181526020018383808284376000920182905250925060209150610cc09050565b610a279061180d565b60001c9050610adb8a8a610a758b8b8080601f01602080910402602001604051908101604052809392919081815260200183838082843760009201919091525060209250889150610cc09050565b610ad68c8c8080601f016020809104026020016040519081016040528093929190818152602001838380828437600092019190915250610abc925089915060209050611831565b610ac7886020611831565b610ad1908f611844565b610cc0565b610dcd565b508315610b2257845460ff60401b19168555604051600181527fc7f505b2f371ae2175ee4913f4499e1f2633a7b5936321eed1cdaeb6115181d29060200160405180910390a15b505050505050505050565b610b3a8383836001610e0c565b505050565b6000610b4b84846108e9565b90506000198114610b9f5781811015610b9057604051637dc7a0d960e11b81526001600160a01b0384166004820152602481018290526044810183905260640161068e565b610b9f84848484036000610e0c565b50505050565b6001600160a01b038316610bcf57604051634b637e8f60e11b81526000600482015260240161068e565b6001600160a01b038216610bf95760405163ec442f0560e01b81526000600482015260240161068e565b610b3a838383610ef0565b60006104ba6110b6565b6060600060008051602061199c8339815191526106e6565b7fa16a46d94261c7517cc8ff89f61c0ce93598e3c849801011dee649a6a557d103805460609160008051602061199c833981519152916102d090611755565b6000610368610c72610c04565b8360405161190160f01b8152600281019290925260228201526042902090565b600080600080610ca48888888861112a565b925092509250610cb482826111f9565b50909695505050505050565b606081610cce81601f611831565b1015610d0d5760405162461bcd60e51b815260206004820152600e60248201526d736c6963655f6f766572666c6f7760901b604482015260640161068e565b610d178284611831565b84511015610d5b5760405162461bcd60e51b8152602060048201526011602482015270736c6963655f6f75744f66426f756e647360781b604482015260640161068e565b606082158015610d7a5760405191506000825260208201604052610dc4565b6040519150601f8416801560200281840101858101878315602002848b0101015b81831015610db3578051835260209283019201610d9b565b5050858452601f01601f1916604052505b50949350505050565b610dd56112b6565b610df882604051806040016040528060018152602001603160f81b815250611301565b610e0484848484611362565b610b9f6113df565b60008051602061197c8339815191526001600160a01b038516610e455760405163e602df0560e01b81526000600482015260240161068e565b6001600160a01b038416610e6f57604051634a1406b160e11b81526000600482015260240161068e565b6001600160a01b038086166000908152602083815260408083209388168352929052208390558115610ee957836001600160a01b0316856001600160a01b03167f8c5be1e5ebec7d5bd14f71427d1e84f3dd0314c0f7b2291e5b200ac8c7c3b92585604051610ee091815260200190565b60405180910390a35b5050505050565b60008051602061197c8339815191526000610f0a856104bf565b905082811015610f465760405163391434e360e21b81526001600160a01b0386166004820152602481018290526044810184905260640161068e565b600482810154600384015460405163f759cc3b60e01b815292830182905290916000916001600160a01b03169063f759cc3b90602401602060405180830381865afa158015610f99573d6000803e3d6000fd5b505050506040513d601f19601f82011682018060405250810190610fbd919061178f565b610fcf670de0b6b3a7640000876117be565b610fd991906117d5565b6003850154604051637921219560e11b81526001600160a01b038a811660048301528981166024830152604482018690526064820184905260a06084830152600060a483015292935091169063f242432a9060c401600060405180830381600087803b15801561104857600080fd5b505af115801561105c573d6000803e3d6000fd5b50505050856001600160a01b0316876001600160a01b03167fddf252ad1be2c89b69c2b068fc378daa952ba7f163c4a11628f55a4df523b3ef876040516110a591815260200190565b60405180910390a350505050505050565b60007f8b73c3c69bb8fe3d512ecc4cf759cc79239f7b179b0ffacaa9a75d522b39400f6110e16113e7565b6110e9611451565b60408051602081019490945283019190915260608201524660808201523060a082015260c00160405160208183030381529060405280519060200120905090565b600080807f7fffffffffffffffffffffffffffffff5d576e7357a4501ddfe92f46681b20a084111561116557506000915060039050826111ef565b604080516000808252602082018084528a905260ff891692820192909252606081018790526080810186905260019060a0016020604051602081039080840390855afa1580156111b9573d6000803e3d6000fd5b5050604051601f1901519150506001600160a01b0381166111e5575060009250600191508290506111ef565b9250600091508190505b9450945094915050565b600082600381111561120d5761120d611857565b03611216575050565b600182600381111561122a5761122a611857565b036112485760405163f645eedf60e01b815260040160405180910390fd5b600282600381111561125c5761125c611857565b0361127d5760405163fce698f760e01b81526004810182905260240161068e565b600382600381111561129157611291611857565b036112b2576040516335e2f38360e21b81526004810182905260240161068e565b5050565b7ff0c57e16840df040f15088dc2f81fe391c3923bec73e23a9662efc9c229c6a0054600160401b900460ff166112ff57604051631afcd79f60e31b815260040160405180910390fd5b565b6113096112b6565b60008051602061199c8339815191527fa16a46d94261c7517cc8ff89f61c0ce93598e3c849801011dee649a6a557d10261134384826118bb565b506003810161135283826118bb565b5060008082556001909101555050565b61136a6112b6565b60008051602061197c8339815191527f033cdebea869703c4621de9e95304f18ae23301f1ffc0c9d2917741e54db25016113a484826118bb565b50600281016113b383826118bb565b506003810180546001600160a01b0319166001600160a01b039590951694909417909355505060040155565b6112ff6112b6565b600060008051602061199c83398151915281611401610c0e565b80519091501561141957805160209091012092915050565b81548015611428579392505050565b7fc5d2460186f7233c927e7db2dcc703c0e500b653ca82273b7bfad8045d85a470935050505090565b600060008051602061199c8339815191528161146b610c26565b80519091501561148357805160209091012092915050565b60018201548015611428579392505050565b6000815180845260005b818110156114bb5760208185018101518683018201520161149f565b506000602082860101526020601f19601f83011685010191505092915050565b6020815260006114ee6020830184611495565b9392505050565b80356001600160a01b038116811461150c57600080fd5b919050565b6000806040838503121561152457600080fd5b61152d836114f5565b946020939093013593505050565b60008060006060848603121561155057600080fd5b611559846114f5565b9250611567602085016114f5565b9150604084013590509250925092565b60006020828403121561158957600080fd5b6114ee826114f5565b60ff60f81b881681526000602060e0818401526115b260e084018a611495565b83810360408501526115c4818a611495565b606085018990526001600160a01b038816608086015260a0850187905284810360c0860152855180825283870192509083019060005b81811015611616578351835292840192918401916001016115fa565b50909c9b505050505050505050505050565b600080600080600080600060e0888a03121561164357600080fd5b61164c886114f5565b965061165a602089016114f5565b95506040880135945060608801359350608088013560ff8116811461167e57600080fd5b9699959850939692959460a0840135945060c09093013592915050565b600080604083850312156116ae57600080fd5b6116b7836114f5565b91506116c5602084016114f5565b90509250929050565b600080600080606085870312156116e457600080fd5b843593506116f4602086016114f5565b9250604085013567ffffffffffffffff8082111561171157600080fd5b818701915087601f83011261172557600080fd5b81358181111561173457600080fd5b88602082850101111561174657600080fd5b95989497505060200194505050565b600181811c9082168061176957607f821691505b60208210810361178957634e487b7160e01b600052602260045260246000fd5b50919050565b6000602082840312156117a157600080fd5b5051919050565b634e487b7160e01b600052601160045260246000fd5b8082028115828204841417610368576103686117a8565b6000826117f257634e487b7160e01b600052601260045260246000fd5b500490565b634e487b7160e01b600052604160045260246000fd5b805160208083015191908110156117895760001960209190910360031b1b16919050565b80820180821115610368576103686117a8565b81810381811115610368576103686117a8565b634e487b7160e01b600052602160045260246000fd5b601f821115610b3a57600081815260208120601f850160051c810160208610156118945750805b601f850160051c820191505b818110156118b3578281556001016118a0565b505050505050565b815167ffffffffffffffff8111156118d5576118d56117f7565b6118e9816118e38454611755565b8461186d565b602080601f83116001811461191e57600084156119065750858301515b600019600386901b1c1916600185901b1785556118b3565b600085815260208120601f198616915b8281101561194d5788860151825594840194600190910190840161192e565b508582101561196b5787850151600019600388901b60f8161c191681555b5050505050600190811b0190555056fe033cdebea869703c4621de9e95304f18ae23301f1ffc0c9d2917741e54db2500a16a46d94261c7517cc8ff89f61c0ce93598e3c849801011dee649a6a557d100a26469706673582212206ccc131d4c8e4644c8e6f30b0a0b270f97ab86f1398675885681bd496aaaf06064736f6c63430008140033",
  "devdoc": {
    "details": "differences between ERC20RebasePermitMiddleware and Openzeppelin's implementation of ERC20PermitUpgradable is: -> using ERC20Middleware instead of ERC20Upgradeable -> added initializeImplementation of the ERC-20 Permit extension allowing approvals to be made via signatures, as defined in https://eips.ethereum.org/EIPS/eip-2612[ERC-2612]. Adds the {permit} method, which can be used to change an account's ERC-20 allowance (see {IERC20-allowance}) by presenting a message signed by the account. By not relying on `{IERC20-approve}`, the token holder account doesn't need to send a transaction, and thus is not required to hold Ether at all.",
    "errors": {
      "ECDSAInvalidSignature()": [
        {
          "details": "The signature derives the `address(0)`."
        }
      ],
      "ECDSAInvalidSignatureLength(uint256)": [
        {
          "details": "The signature has an invalid length."
        }
      ],
      "ECDSAInvalidSignatureS(bytes32)": [
        {
          "details": "The signature has an S value that is in the upper half order."
        }
      ],
      "ERC20InsufficientAllowance(address,uint256,uint256)": [
        {
          "details": "Indicates a failure with the `spender`s `allowance`. Used in transfers.",
          "params": {
            "allowance": "Amount of tokens a `spender` is allowed to operate with.",
            "needed": "Minimum amount required to perform a transfer.",
            "spender": "Address that may be allowed to operate on tokens without being their owner."
          }
        }
      ],
      "ERC20InsufficientBalance(address,uint256,uint256)": [
        {
          "details": "Indicates an error related to the current `balance` of a `sender`. Used in transfers.",
          "params": {
            "balance": "Current balance for the interacting account.",
            "needed": "Minimum amount required to perform a transfer.",
            "sender": "Address whose tokens are being transferred."
          }
        }
      ],
      "ERC20InvalidApprover(address)": [
        {
          "details": "Indicates a failure with the `approver` of a token to be approved. Used in approvals.",
          "params": {
            "approver": "Address initiating an approval operation."
          }
        }
      ],
      "ERC20InvalidReceiver(address)": [
        {
          "details": "Indicates a failure with the token `receiver`. Used in transfers.",
          "params": {
            "receiver": "Address to which tokens are being transferred."
          }
        }
      ],
      "ERC20InvalidSender(address)": [
        {
          "details": "Indicates a failure with the token `sender`. Used in transfers.",
          "params": {
            "sender": "Address whose tokens are being transferred."
          }
        }
      ],
      "ERC20InvalidSpender(address)": [
        {
          "details": "Indicates a failure with the `spender` to be approved. Used in approvals.",
          "params": {
            "spender": "Address that may be allowed to operate on tokens without being their owner."
          }
        }
      ],
      "ERC2612ExpiredSignature(uint256)": [
        {
          "details": "Permit deadline has expired."
        }
      ],
      "ERC2612InvalidSigner(address,address)": [
        {
          "details": "Mismatched signature."
        }
      ],
      "InvalidAccountNonce(address,uint256)": [
        {
          "details": "The nonce used for an `account` is not the expected current nonce."
        }
      ],
      "InvalidInitialization()": [
        {
          "details": "The contract is already initialized."
        }
      ],
      "NotInitializing()": [
        {
          "details": "The contract is not initializing."
        }
      ]
    },
    "events": {
      "Approval(address,address,uint256)": {
        "details": "Emitted when the allowance of a `spender` for an `owner` is set by a call to {approve}. `value` is the new allowance."
      },
      "EIP712DomainChanged()": {
        "details": "MAY be emitted to signal that the domain could have changed."
      },
      "Initialized(uint64)": {
        "details": "Triggered when the contract has been initialized or reinitialized."
      },
      "Transfer(address,address,uint256)": {
        "details": "Emitted when `value` tokens are moved from one account (`from`) to another (`to`). Note that `value` may be zero."
      }
    },
    "kind": "dev",
    "methods": {
      "DOMAIN_SEPARATOR()": {
        "details": "Returns the domain separator used in the encoding of the signature for {permit}, as defined by {EIP712}."
      },
      "allowance(address,address)": {
        "details": "Returns the remaining number of tokens that `spender` will be allowed to spend on behalf of `owner` through {transferFrom}. This is zero by default. This value changes when {approve} or {transferFrom} are called."
      },
      "approve(address,uint256)": {
        "details": "Sets a `value` amount of tokens as the allowance of `spender` over the caller's tokens. Returns a boolean value indicating whether the operation succeeded. IMPORTANT: Beware that changing an allowance with this method brings the risk that someone may use both the old and the new allowance by unfortunate transaction ordering. One possible solution to mitigate this race condition is to first reduce the spender's allowance to 0 and set the desired value afterwards: https://github.com/ethereum/EIPs/issues/20#issuecomment-263524729 Emits an {Approval} event."
      },
      "balanceOf(address)": {
        "details": "Returns the value of tokens owned by `account`."
      },
      "constructor": {
        "custom:oz-upgrades-unsafe-allow": "constructor"
      },
      "decimals()": {
        "details": "Returns the decimals places of the token."
      },
      "eip712Domain()": {
        "details": "See {IERC-5267}."
      },
      "initialize(uint256,address,bytes)": {
        "details": "Sets the values for {name} and {symbol}."
      },
      "name()": {
        "details": "Returns the name of the token."
      },
      "nonces(address)": {
        "details": "Returns the current nonce for `owner`. This value must be included whenever a signature is generated for {permit}. Every successful call to {permit} increases ``owner``'s nonce by one. This prevents a signature from being used multiple times."
      },
      "permit(address,address,uint256,uint256,uint8,bytes32,bytes32)": {
        "details": "Sets `value` as the allowance of `spender` over ``owner``'s tokens, given ``owner``'s signed approval. IMPORTANT: The same issues {IERC20-approve} has related to transaction ordering also apply here. Emits an {Approval} event. Requirements: - `spender` cannot be the zero address. - `deadline` must be a timestamp in the future. - `v`, `r` and `s` must be a valid `secp256k1` signature from `owner` over the EIP712-formatted function arguments. - the signature must use ``owner``'s current nonce (see {nonces}). For more information on the signature format, see the https://eips.ethereum.org/EIPS/eip-2612#specification[relevant EIP section]. CAUTION: See Security Considerations above."
      },
      "symbol()": {
        "details": "Returns the symbol of the token."
      },
      "totalSupply()": {
        "details": "Returns the value of tokens in existence."
      },
      "transfer(address,uint256)": {
        "details": "Moves a `value` amount of tokens from the caller's account to `to`. Returns a boolean value indicating whether the operation succeeded. Emits a {Transfer} event."
      },
      "transferFrom(address,address,uint256)": {
        "details": "Moves a `value` amount of tokens from `from` to `to` using the allowance mechanism. `value` is then deducted from the caller's allowance. Returns a boolean value indicating whether the operation succeeded. Emits a {Transfer} event."
      }
    },
    "version": 1
  },
  "userdoc": {
    "kind": "user",
    "methods": {},
    "version": 1
  },
  "storageLayout": {
    "storage": [],
    "types": null
  }
}