{
  "address": "0xA20947854aA75ec6C0C195C59327D9d3df2128C4",
  "abi": [
    {
      "inputs": [],
      "stateMutability": "nonpayable",
      "type": "constructor"
    },
    {
      "inputs": [
        {
          "internalType": "address",
          "name": "spender",
          "type": "address"
        },
        {
          "internalType": "uint256",
          "name": "allowance",
          "type": "uint256"
        },
        {
          "internalType": "uint256",
          "name": "needed",
          "type": "uint256"
        }
      ],
      "name": "ERC20InsufficientAllowance",
      "type": "error"
    },
    {
      "inputs": [
        {
          "internalType": "address",
          "name": "sender",
          "type": "address"
        },
        {
          "internalType": "uint256",
          "name": "balance",
          "type": "uint256"
        },
        {
          "internalType": "uint256",
          "name": "needed",
          "type": "uint256"
        }
      ],
      "name": "ERC20InsufficientBalance",
      "type": "error"
    },
    {
      "inputs": [
        {
          "internalType": "address",
          "name": "approver",
          "type": "address"
        }
      ],
      "name": "ERC20InvalidApprover",
      "type": "error"
    },
    {
      "inputs": [
        {
          "internalType": "address",
          "name": "receiver",
          "type": "address"
        }
      ],
      "name": "ERC20InvalidReceiver",
      "type": "error"
    },
    {
      "inputs": [
        {
          "internalType": "address",
          "name": "sender",
          "type": "address"
        }
      ],
      "name": "ERC20InvalidSender",
      "type": "error"
    },
    {
      "inputs": [
        {
          "internalType": "address",
          "name": "spender",
          "type": "address"
        }
      ],
      "name": "ERC20InvalidSpender",
      "type": "error"
    },
    {
      "inputs": [],
      "name": "InvalidInitialization",
      "type": "error"
    },
    {
      "inputs": [],
      "name": "NotInitializing",
      "type": "error"
    },
    {
      "anonymous": false,
      "inputs": [
        {
          "indexed": true,
          "internalType": "address",
          "name": "owner",
          "type": "address"
        },
        {
          "indexed": true,
          "internalType": "address",
          "name": "spender",
          "type": "address"
        },
        {
          "indexed": false,
          "internalType": "uint256",
          "name": "value",
          "type": "uint256"
        }
      ],
      "name": "Approval",
      "type": "event"
    },
    {
      "anonymous": false,
      "inputs": [
        {
          "indexed": false,
          "internalType": "uint64",
          "name": "version",
          "type": "uint64"
        }
      ],
      "name": "Initialized",
      "type": "event"
    },
    {
      "anonymous": false,
      "inputs": [
        {
          "indexed": true,
          "internalType": "address",
          "name": "from",
          "type": "address"
        },
        {
          "indexed": true,
          "internalType": "address",
          "name": "to",
          "type": "address"
        },
        {
          "indexed": false,
          "internalType": "uint256",
          "name": "value",
          "type": "uint256"
        }
      ],
      "name": "Transfer",
      "type": "event"
    },
    {
      "inputs": [],
      "name": "ERC1155",
      "outputs": [
        {
          "internalType": "address",
          "name": "",
          "type": "address"
        }
      ],
      "stateMutability": "view",
      "type": "function"
    },
    {
      "inputs": [],
      "name": "ERC1155_ID",
      "outputs": [
        {
          "internalType": "uint256",
          "name": "",
          "type": "uint256"
        }
      ],
      "stateMutability": "view",
      "type": "function"
    },
    {
      "inputs": [
        {
          "internalType": "address",
          "name": "owner",
          "type": "address"
        },
        {
          "internalType": "address",
          "name": "spender",
          "type": "address"
        }
      ],
      "name": "allowance",
      "outputs": [
        {
          "internalType": "uint256",
          "name": "",
          "type": "uint256"
        }
      ],
      "stateMutability": "view",
      "type": "function"
    },
    {
      "inputs": [
        {
          "internalType": "address",
          "name": "spender",
          "type": "address"
        },
        {
          "internalType": "uint256",
          "name": "value",
          "type": "uint256"
        }
      ],
      "name": "approve",
      "outputs": [
        {
          "internalType": "bool",
          "name": "",
          "type": "bool"
        }
      ],
      "stateMutability": "nonpayable",
      "type": "function"
    },
    {
      "inputs": [
        {
          "internalType": "address",
          "name": "account",
          "type": "address"
        }
      ],
      "name": "balanceOf",
      "outputs": [
        {
          "internalType": "uint256",
          "name": "",
          "type": "uint256"
        }
      ],
      "stateMutability": "view",
      "type": "function"
    },
    {
      "inputs": [],
      "name": "decimals",
      "outputs": [
        {
          "internalType": "uint8",
          "name": "",
          "type": "uint8"
        }
      ],
      "stateMutability": "view",
      "type": "function"
    },
    {
      "inputs": [
        {
          "internalType": "uint256",
          "name": "id_",
          "type": "uint256"
        },
        {
          "internalType": "address",
          "name": "gETH_",
          "type": "address"
        },
        {
          "internalType": "bytes",
          "name": "data",
          "type": "bytes"
        }
      ],
      "name": "initialize",
      "outputs": [],
      "stateMutability": "nonpayable",
      "type": "function"
    },
    {
      "inputs": [],
      "name": "name",
      "outputs": [
        {
          "internalType": "string",
          "name": "",
          "type": "string"
        }
      ],
      "stateMutability": "view",
      "type": "function"
    },
    {
      "inputs": [],
      "name": "pricePerShare",
      "outputs": [
        {
          "internalType": "uint256",
          "name": "",
          "type": "uint256"
        }
      ],
      "stateMutability": "view",
      "type": "function"
    },
    {
      "inputs": [],
      "name": "symbol",
      "outputs": [
        {
          "internalType": "string",
          "name": "",
          "type": "string"
        }
      ],
      "stateMutability": "view",
      "type": "function"
    },
    {
      "inputs": [],
      "name": "totalSupply",
      "outputs": [
        {
          "internalType": "uint256",
          "name": "",
          "type": "uint256"
        }
      ],
      "stateMutability": "view",
      "type": "function"
    },
    {
      "inputs": [
        {
          "internalType": "address",
          "name": "to",
          "type": "address"
        },
        {
          "internalType": "uint256",
          "name": "value",
          "type": "uint256"
        }
      ],
      "name": "transfer",
      "outputs": [
        {
          "internalType": "bool",
          "name": "",
          "type": "bool"
        }
      ],
      "stateMutability": "nonpayable",
      "type": "function"
    },
    {
      "inputs": [
        {
          "internalType": "address",
          "name": "from",
          "type": "address"
        },
        {
          "internalType": "address",
          "name": "to",
          "type": "address"
        },
        {
          "internalType": "uint256",
          "name": "value",
          "type": "uint256"
        }
      ],
      "name": "transferFrom",
      "outputs": [
        {
          "internalType": "bool",
          "name": "",
          "type": "bool"
        }
      ],
      "stateMutability": "nonpayable",
      "type": "function"
    }
  ],
  "transactionHash": "0x91d4a4830b1b45e2e284ad8bd8fd4f0fe556d02583740a5c06a39b9932e35e1a",
  "args": [],
  "numDeployments": 1,
  "solcInputHash": "cfc92d910e56f99740a6d4737a3b72cb",
  "bytecode": "0x608060405234801561001057600080fd5b5061001961001e565b6100d0565b7ff0c57e16840df040f15088dc2f81fe391c3923bec73e23a9662efc9c229c6a00805468010000000000000000900460ff161561006e5760405163f92ee8a960e01b815260040160405180910390fd5b80546001600160401b03908116146100cd5780546001600160401b0319166001600160401b0390811782556040519081527fc7f505b2f371ae2175ee4913f4499e1f2633a7b5936321eed1cdaeb6115181d29060200160405180910390a15b50565b611014806100df6000396000f3fe608060405234801561001057600080fd5b50600436106100cf5760003560e01c80635c2f8aa01161008c57806399530b061161006657806399530b06146101a5578063a9059cbb146101ad578063dd62ed3e146101c0578063e209b646146101d357600080fd5b80635c2f8aa01461017557806370a082311461018a57806395d89b411461019d57600080fd5b806306fdde03146100d4578063095ea7b3146100f257806318160ddd1461011557806323b872dd1461012b5780632d2554711461013e578063313ce56714610166575b600080fd5b6100dc6101e8565b6040516100e99190610c02565b60405180910390f35b610105610100366004610c6c565b6102ab565b60405190151581526020016100e9565b61011d6102c5565b6040519081526020016100e9565b610105610139366004610c96565b61036a565b600080516020610f7f833981519152546040516001600160a01b0390911681526020016100e9565b604051601281526020016100e9565b600080516020610f9f8339815191525461011d565b61011d610198366004610cd2565b61038e565b6100dc61043e565b61011d61047d565b6101056101bb366004610c6c565b6104df565b61011d6101ce366004610ced565b6104ed565b6101e66101e1366004610d20565b610525565b005b7fe22aaba88ea2d91ae86fe1c55e46fee2f572fef0a3fd6d1010f5764e3170a3018054606091600080516020610fbf8339815191529161022790610da7565b80601f016020809104026020016040519081016040528092919081815260200182805461025390610da7565b80156102a05780601f10610275576101008083540402835291602001916102a0565b820191906000526020600020905b81548152906001019060200180831161028357829003601f168201915b505050505091505090565b6000336102b9818585610731565b60019150505b92915050565b600080516020610f7f83398151915254600080516020610f9f8339815191525460405163bd85b03960e01b81526004810191909152600091600080516020610fbf833981519152916001600160a01b039091169063bd85b039906024015b602060405180830381865afa158015610340573d6000803e3d6000fd5b505050506040513d601f19601f820116820180604052508101906103649190610de1565b91505090565b600033610378858285610743565b6103838585856107ae565b506001949350505050565b600080516020610f7f83398151915254600080516020610f9f8339815191525460408051627eeac760e11b81526001600160a01b03858116600483015260248201939093529051600093600080516020610fbf83398151915293169162fdd58e9160448083019260209291908290030181865afa158015610413573d6000803e3d6000fd5b505050506040513d601f19601f820116820180604052508101906104379190610de1565b9392505050565b7fe22aaba88ea2d91ae86fe1c55e46fee2f572fef0a3fd6d1010f5764e3170a3028054606091600080516020610fbf8339815191529161022790610da7565b600080516020610f7f83398151915254600080516020610f9f8339815191525460405163f759cc3b60e01b81526004810191909152600091600080516020610fbf833981519152916001600160a01b039091169063f759cc3b90602401610323565b6000336102b98185856107ae565b6001600160a01b039182166000908152600080516020610fbf8339815191526020908152604080832093909416825291909152205490565b7ff0c57e16840df040f15088dc2f81fe391c3923bec73e23a9662efc9c229c6a008054600160401b810460ff16159067ffffffffffffffff1660008115801561056b5750825b905060008267ffffffffffffffff1660011480156105885750303b155b905081158015610596575080155b156105b45760405163f92ee8a960e01b815260040160405180910390fd5b845467ffffffffffffffff1916600117855583156105de57845460ff60401b1916600160401b1785555b600061062288888080601f016020809104026020016040519081016040528093929190818152602001838380828437600092018290525092506020915061080d9050565b61062b90610dfa565b60001c90506106df8a8a6106798b8b8080601f0160208091040260200160405190810160405280939291908181526020018383808284376000920191909152506020925088915061080d9050565b6106da8c8c8080601f0160208091040260200160405190810160405280939291908181526020018383808284376000920191909152506106c0925089915060209050610e34565b6106cb886020610e34565b6106d5908f610e47565b61080d565b61091a565b50831561072657845460ff60401b19168555604051600181527fc7f505b2f371ae2175ee4913f4499e1f2633a7b5936321eed1cdaeb6115181d29060200160405180910390a15b505050505050505050565b61073e838383600161092e565b505050565b600061074f84846104ed565b905060001981146107a8578181101561079957604051637dc7a0d960e11b81526001600160a01b038416600482015260248101829052604481018390526064015b60405180910390fd5b6107a88484848403600061092e565b50505050565b6001600160a01b0383166107d857604051634b637e8f60e11b815260006004820152602401610790565b6001600160a01b0382166108025760405163ec442f0560e01b815260006004820152602401610790565b61073e838383610a12565b60608161081b81601f610e34565b101561085a5760405162461bcd60e51b815260206004820152600e60248201526d736c6963655f6f766572666c6f7760901b6044820152606401610790565b6108648284610e34565b845110156108a85760405162461bcd60e51b8152602060048201526011602482015270736c6963655f6f75744f66426f756e647360781b6044820152606401610790565b6060821580156108c75760405191506000825260208201604052610911565b6040519150601f8416801560200281840101858101878315602002848b0101015b818310156109005780518352602092830192016108e8565b5050858452601f01601f1916604052505b50949350505050565b610922610b3a565b6107a884848484610b85565b600080516020610fbf8339815191526001600160a01b0385166109675760405163e602df0560e01b815260006004820152602401610790565b6001600160a01b03841661099157604051634a1406b160e11b815260006004820152602401610790565b6001600160a01b038086166000908152602083815260408083209388168352929052208390558115610a0b57836001600160a01b0316856001600160a01b03167f8c5be1e5ebec7d5bd14f71427d1e84f3dd0314c0f7b2291e5b200ac8c7c3b92585604051610a0291815260200190565b60405180910390a35b5050505050565b600080516020610fbf8339815191526000610a2c8561038e565b905082811015610a685760405163391434e360e21b81526001600160a01b03861660048201526024810182905260448101849052606401610790565b6003820154600480840154604051637921219560e11b81526001600160a01b0389811693820193909352878316602482015260448101919091526064810186905260a06084820152600060a482015291169063f242432a9060c401600060405180830381600087803b158015610add57600080fd5b505af1158015610af1573d6000803e3d6000fd5b50505050836001600160a01b0316856001600160a01b03167fddf252ad1be2c89b69c2b068fc378daa952ba7f163c4a11628f55a4df523b3ef85604051610a0291815260200190565b7ff0c57e16840df040f15088dc2f81fe391c3923bec73e23a9662efc9c229c6a0054600160401b900460ff16610b8357604051631afcd79f60e31b815260040160405180910390fd5b565b610b8d610b3a565b600080516020610fbf8339815191527fe22aaba88ea2d91ae86fe1c55e46fee2f572fef0a3fd6d1010f5764e3170a301610bc78482610ebe565b5060028101610bd68382610ebe565b506003810180546001600160a01b0319166001600160a01b039590951694909417909355505060040155565b600060208083528351808285015260005b81811015610c2f57858101830151858201604001528201610c13565b506000604082860101526040601f19601f8301168501019250505092915050565b80356001600160a01b0381168114610c6757600080fd5b919050565b60008060408385031215610c7f57600080fd5b610c8883610c50565b946020939093013593505050565b600080600060608486031215610cab57600080fd5b610cb484610c50565b9250610cc260208501610c50565b9150604084013590509250925092565b600060208284031215610ce457600080fd5b61043782610c50565b60008060408385031215610d0057600080fd5b610d0983610c50565b9150610d1760208401610c50565b90509250929050565b60008060008060608587031215610d3657600080fd5b84359350610d4660208601610c50565b9250604085013567ffffffffffffffff80821115610d6357600080fd5b818701915087601f830112610d7757600080fd5b813581811115610d8657600080fd5b886020828501011115610d9857600080fd5b95989497505060200194505050565b600181811c90821680610dbb57607f821691505b602082108103610ddb57634e487b7160e01b600052602260045260246000fd5b50919050565b600060208284031215610df357600080fd5b5051919050565b80516020808301519190811015610ddb5760001960209190910360031b1b16919050565b634e487b7160e01b600052601160045260246000fd5b808201808211156102bf576102bf610e1e565b818103818111156102bf576102bf610e1e565b634e487b7160e01b600052604160045260246000fd5b601f82111561073e57600081815260208120601f850160051c81016020861015610e975750805b601f850160051c820191505b81811015610eb657828155600101610ea3565b505050505050565b815167ffffffffffffffff811115610ed857610ed8610e5a565b610eec81610ee68454610da7565b84610e70565b602080601f831160018114610f215760008415610f095750858301515b600019600386901b1c1916600185901b178555610eb6565b600085815260208120601f198616915b82811015610f5057888601518255948401946001909101908401610f31565b5085821015610f6e5787850151600019600388901b60f8161c191681555b5050505050600190811b0190555056fee22aaba88ea2d91ae86fe1c55e46fee2f572fef0a3fd6d1010f5764e3170a303e22aaba88ea2d91ae86fe1c55e46fee2f572fef0a3fd6d1010f5764e3170a304e22aaba88ea2d91ae86fe1c55e46fee2f572fef0a3fd6d1010f5764e3170a300a2646970667358221220c6b6c57cb494e98af83a73b776dcbbd0bc3d012bbcc3b280b4b72a45537fd0a264736f6c63430008140033",
  "devdoc": {
    "details": "This contract should only be used for user interaction when ERC1155 is not an option.As a known bug, not all Transfer events are logged here. Please listen the underlying ERC1155 for the correct data.ref: https://github.com/OpenZeppelin/openzeppelin-contracts-upgradeable/blob/4ca003c9635d2c16756cf8c9db6760e2d3653dee/contracts/token/ERC20/ERC20Upgradeable.sol#L1differences between ERC20Middleware and Openzeppelin's implementation of ERC20Upgradeable is: -> ERC20Middleware uses gETH contract for balances and totalsupply info. -> unique id of ERC1155 is used -> there is no _mint, _burn. -> differences can be observed at totalSupply, balanceOf, _update. diffchecker: https://www.diffchecker.com/20q5E9GA/decimals is 18 onlyif erc1155.denominator = 1e18",
    "errors": {
      "ERC20InsufficientAllowance(address,uint256,uint256)": [
        {
          "details": "Indicates a failure with the `spender`s `allowance`. Used in transfers.",
          "params": {
            "allowance": "Amount of tokens a `spender` is allowed to operate with.",
            "needed": "Minimum amount required to perform a transfer.",
            "spender": "Address that may be allowed to operate on tokens without being their owner."
          }
        }
      ],
      "ERC20InsufficientBalance(address,uint256,uint256)": [
        {
          "details": "Indicates an error related to the current `balance` of a `sender`. Used in transfers.",
          "params": {
            "balance": "Current balance for the interacting account.",
            "needed": "Minimum amount required to perform a transfer.",
            "sender": "Address whose tokens are being transferred."
          }
        }
      ],
      "ERC20InvalidApprover(address)": [
        {
          "details": "Indicates a failure with the `approver` of a token to be approved. Used in approvals.",
          "params": {
            "approver": "Address initiating an approval operation."
          }
        }
      ],
      "ERC20InvalidReceiver(address)": [
        {
          "details": "Indicates a failure with the token `receiver`. Used in transfers.",
          "params": {
            "receiver": "Address to which tokens are being transferred."
          }
        }
      ],
      "ERC20InvalidSender(address)": [
        {
          "details": "Indicates a failure with the token `sender`. Used in transfers.",
          "params": {
            "sender": "Address whose tokens are being transferred."
          }
        }
      ],
      "ERC20InvalidSpender(address)": [
        {
          "details": "Indicates a failure with the `spender` to be approved. Used in approvals.",
          "params": {
            "spender": "Address that may be allowed to operate on tokens without being their owner."
          }
        }
      ],
      "InvalidInitialization()": [
        {
          "details": "The contract is already initialized."
        }
      ],
      "NotInitializing()": [
        {
          "details": "The contract is not initializing."
        }
      ]
    },
    "events": {
      "Approval(address,address,uint256)": {
        "details": "Emitted when the allowance of a `spender` for an `owner` is set by a call to {approve}. `value` is the new allowance."
      },
      "Initialized(uint64)": {
        "details": "Triggered when the contract has been initialized or reinitialized."
      },
      "Transfer(address,address,uint256)": {
        "details": "Emitted when `value` tokens are moved from one account (`from`) to another (`to`). Note that `value` may be zero."
      }
    },
    "kind": "dev",
    "methods": {
      "allowance(address,address)": {
        "details": "Returns the remaining number of tokens that `spender` will be allowed to spend on behalf of `owner` through {transferFrom}. This is zero by default. This value changes when {approve} or {transferFrom} are called."
      },
      "approve(address,uint256)": {
        "details": "Sets a `value` amount of tokens as the allowance of `spender` over the caller's tokens. Returns a boolean value indicating whether the operation succeeded. IMPORTANT: Beware that changing an allowance with this method brings the risk that someone may use both the old and the new allowance by unfortunate transaction ordering. One possible solution to mitigate this race condition is to first reduce the spender's allowance to 0 and set the desired value afterwards: https://github.com/ethereum/EIPs/issues/20#issuecomment-263524729 Emits an {Approval} event."
      },
      "balanceOf(address)": {
        "details": "Returns the value of tokens owned by `account`."
      },
      "constructor": {
        "custom:oz-upgrades-unsafe-allow": "constructor"
      },
      "decimals()": {
        "details": "Returns the decimals places of the token."
      },
      "name()": {
        "details": "Returns the name of the token."
      },
      "symbol()": {
        "details": "Returns the symbol of the token."
      },
      "totalSupply()": {
        "details": "Returns the value of tokens in existence."
      },
      "transfer(address,uint256)": {
        "details": "Moves a `value` amount of tokens from the caller's account to `to`. Returns a boolean value indicating whether the operation succeeded. Emits a {Transfer} event."
      },
      "transferFrom(address,address,uint256)": {
        "details": "Moves a `value` amount of tokens from `from` to `to` using the allowance mechanism. `value` is then deducted from the caller's allowance. Returns a boolean value indicating whether the operation succeeded. Emits a {Transfer} event."
      }
    },
    "version": 1
  },
  "userdoc": {
    "kind": "user",
    "methods": {},
    "notice": "A virtual ERC20 implementation to move underlying ERC1155 tokens.",
    "version": 1
  },
  "storageLayout": {
    "storage": [],
    "types": null
  }
}