{
  "address": "0x4C49FC86F3fC418216b2B44C8bEA16437219bA78",
  "abi": [
    {
      "inputs": [
        {
          "internalType": "string",
          "name": "_name",
          "type": "string"
        },
        {
          "internalType": "string",
          "name": "_symbol",
          "type": "string"
        },
        {
          "internalType": "string",
          "name": "_uri",
          "type": "string"
        }
      ],
      "stateMutability": "nonpayable",
      "type": "constructor"
    },
    {
      "inputs": [],
      "name": "AccessControlBadConfirmation",
      "type": "error"
    },
    {
      "inputs": [
        {
          "internalType": "address",
          "name": "account",
          "type": "address"
        },
        {
          "internalType": "bytes32",
          "name": "neededRole",
          "type": "bytes32"
        }
      ],
      "name": "AccessControlUnauthorizedAccount",
      "type": "error"
    },
    {
      "inputs": [
        {
          "internalType": "address",
          "name": "sender",
          "type": "address"
        },
        {
          "internalType": "uint256",
          "name": "balance",
          "type": "uint256"
        },
        {
          "internalType": "uint256",
          "name": "needed",
          "type": "uint256"
        },
        {
          "internalType": "uint256",
          "name": "tokenId",
          "type": "uint256"
        }
      ],
      "name": "ERC1155InsufficientBalance",
      "type": "error"
    },
    {
      "inputs": [
        {
          "internalType": "address",
          "name": "approver",
          "type": "address"
        }
      ],
      "name": "ERC1155InvalidApprover",
      "type": "error"
    },
    {
      "inputs": [
        {
          "internalType": "uint256",
          "name": "idsLength",
          "type": "uint256"
        },
        {
          "internalType": "uint256",
          "name": "valuesLength",
          "type": "uint256"
        }
      ],
      "name": "ERC1155InvalidArrayLength",
      "type": "error"
    },
    {
      "inputs": [
        {
          "internalType": "address",
          "name": "operator",
          "type": "address"
        }
      ],
      "name": "ERC1155InvalidOperator",
      "type": "error"
    },
    {
      "inputs": [
        {
          "internalType": "address",
          "name": "receiver",
          "type": "address"
        }
      ],
      "name": "ERC1155InvalidReceiver",
      "type": "error"
    },
    {
      "inputs": [
        {
          "internalType": "address",
          "name": "sender",
          "type": "address"
        }
      ],
      "name": "ERC1155InvalidSender",
      "type": "error"
    },
    {
      "inputs": [
        {
          "internalType": "address",
          "name": "operator",
          "type": "address"
        },
        {
          "internalType": "address",
          "name": "owner",
          "type": "address"
        }
      ],
      "name": "ERC1155MissingApprovalForAll",
      "type": "error"
    },
    {
      "inputs": [],
      "name": "EnforcedPause",
      "type": "error"
    },
    {
      "inputs": [],
      "name": "ExpectedPause",
      "type": "error"
    },
    {
      "inputs": [
        {
          "internalType": "address",
          "name": "middleware",
          "type": "address"
        }
      ],
      "name": "gETHInvalidMiddleware",
      "type": "error"
    },
    {
      "inputs": [],
      "name": "gETHZeroId",
      "type": "error"
    },
    {
      "anonymous": false,
      "inputs": [
        {
          "indexed": true,
          "internalType": "address",
          "name": "account",
          "type": "address"
        },
        {
          "indexed": true,
          "internalType": "address",
          "name": "operator",
          "type": "address"
        },
        {
          "indexed": false,
          "internalType": "bool",
          "name": "approved",
          "type": "bool"
        }
      ],
      "name": "ApprovalForAll",
      "type": "event"
    },
    {
      "anonymous": false,
      "inputs": [
        {
          "indexed": false,
          "internalType": "address",
          "name": "avoider",
          "type": "address"
        },
        {
          "indexed": false,
          "internalType": "uint256",
          "name": "id",
          "type": "uint256"
        },
        {
          "indexed": false,
          "internalType": "bool",
          "name": "isAvoid",
          "type": "bool"
        }
      ],
      "name": "Avoider",
      "type": "event"
    },
    {
      "anonymous": false,
      "inputs": [
        {
          "indexed": false,
          "internalType": "uint256",
          "name": "id",
          "type": "uint256"
        },
        {
          "indexed": false,
          "internalType": "address",
          "name": "middleware",
          "type": "address"
        },
        {
          "indexed": false,
          "internalType": "bool",
          "name": "isSet",
          "type": "bool"
        }
      ],
      "name": "MiddlewareSet",
      "type": "event"
    },
    {
      "anonymous": false,
      "inputs": [
        {
          "indexed": false,
          "internalType": "address",
          "name": "account",
          "type": "address"
        }
      ],
      "name": "Paused",
      "type": "event"
    },
    {
      "anonymous": false,
      "inputs": [
        {
          "indexed": false,
          "internalType": "uint256",
          "name": "id",
          "type": "uint256"
        },
        {
          "indexed": false,
          "internalType": "uint256",
          "name": "pricePerShare",
          "type": "uint256"
        },
        {
          "indexed": false,
          "internalType": "uint256",
          "name": "updateTimestamp",
          "type": "uint256"
        }
      ],
      "name": "PriceUpdated",
      "type": "event"
    },
    {
      "anonymous": false,
      "inputs": [
        {
          "indexed": true,
          "internalType": "bytes32",
          "name": "role",
          "type": "bytes32"
        },
        {
          "indexed": true,
          "internalType": "bytes32",
          "name": "previousAdminRole",
          "type": "bytes32"
        },
        {
          "indexed": true,
          "internalType": "bytes32",
          "name": "newAdminRole",
          "type": "bytes32"
        }
      ],
      "name": "RoleAdminChanged",
      "type": "event"
    },
    {
      "anonymous": false,
      "inputs": [
        {
          "indexed": true,
          "internalType": "bytes32",
          "name": "role",
          "type": "bytes32"
        },
        {
          "indexed": true,
          "internalType": "address",
          "name": "account",
          "type": "address"
        },
        {
          "indexed": true,
          "internalType": "address",
          "name": "sender",
          "type": "address"
        }
      ],
      "name": "RoleGranted",
      "type": "event"
    },
    {
      "anonymous": false,
      "inputs": [
        {
          "indexed": true,
          "internalType": "bytes32",
          "name": "role",
          "type": "bytes32"
        },
        {
          "indexed": true,
          "internalType": "address",
          "name": "account",
          "type": "address"
        },
        {
          "indexed": true,
          "internalType": "address",
          "name": "sender",
          "type": "address"
        }
      ],
      "name": "RoleRevoked",
      "type": "event"
    },
    {
      "anonymous": false,
      "inputs": [
        {
          "indexed": true,
          "internalType": "address",
          "name": "operator",
          "type": "address"
        },
        {
          "indexed": true,
          "internalType": "address",
          "name": "from",
          "type": "address"
        },
        {
          "indexed": true,
          "internalType": "address",
          "name": "to",
          "type": "address"
        },
        {
          "indexed": false,
          "internalType": "uint256[]",
          "name": "ids",
          "type": "uint256[]"
        },
        {
          "indexed": false,
          "internalType": "uint256[]",
          "name": "values",
          "type": "uint256[]"
        }
      ],
      "name": "TransferBatch",
      "type": "event"
    },
    {
      "anonymous": false,
      "inputs": [
        {
          "indexed": true,
          "internalType": "address",
          "name": "operator",
          "type": "address"
        },
        {
          "indexed": true,
          "internalType": "address",
          "name": "from",
          "type": "address"
        },
        {
          "indexed": true,
          "internalType": "address",
          "name": "to",
          "type": "address"
        },
        {
          "indexed": false,
          "internalType": "uint256",
          "name": "id",
          "type": "uint256"
        },
        {
          "indexed": false,
          "internalType": "uint256",
          "name": "value",
          "type": "uint256"
        }
      ],
      "name": "TransferSingle",
      "type": "event"
    },
    {
      "anonymous": false,
      "inputs": [
        {
          "indexed": false,
          "internalType": "string",
          "name": "value",
          "type": "string"
        },
        {
          "indexed": true,
          "internalType": "uint256",
          "name": "id",
          "type": "uint256"
        }
      ],
      "name": "URI",
      "type": "event"
    },
    {
      "anonymous": false,
      "inputs": [
        {
          "indexed": false,
          "internalType": "address",
          "name": "account",
          "type": "address"
        }
      ],
      "name": "Unpaused",
      "type": "event"
    },
    {
      "inputs": [],
      "name": "DEFAULT_ADMIN_ROLE",
      "outputs": [
        {
          "internalType": "bytes32",
          "name": "",
          "type": "bytes32"
        }
      ],
      "stateMutability": "view",
      "type": "function"
    },
    {
      "inputs": [],
      "name": "MIDDLEWARE_MANAGER_ROLE",
      "outputs": [
        {
          "internalType": "bytes32",
          "name": "",
          "type": "bytes32"
        }
      ],
      "stateMutability": "view",
      "type": "function"
    },
    {
      "inputs": [],
      "name": "MINTER_ROLE",
      "outputs": [
        {
          "internalType": "bytes32",
          "name": "",
          "type": "bytes32"
        }
      ],
      "stateMutability": "view",
      "type": "function"
    },
    {
      "inputs": [],
      "name": "ORACLE_ROLE",
      "outputs": [
        {
          "internalType": "bytes32",
          "name": "",
          "type": "bytes32"
        }
      ],
      "stateMutability": "view",
      "type": "function"
    },
    {
      "inputs": [],
      "name": "PAUSER_ROLE",
      "outputs": [
        {
          "internalType": "bytes32",
          "name": "",
          "type": "bytes32"
        }
      ],
      "stateMutability": "view",
      "type": "function"
    },
    {
      "inputs": [],
      "name": "URI_SETTER_ROLE",
      "outputs": [
        {
          "internalType": "bytes32",
          "name": "",
          "type": "bytes32"
        }
      ],
      "stateMutability": "view",
      "type": "function"
    },
    {
      "inputs": [
        {
          "internalType": "uint256",
          "name": "id",
          "type": "uint256"
        },
        {
          "internalType": "bool",
          "name": "isAvoid",
          "type": "bool"
        }
      ],
      "name": "avoidMiddlewares",
      "outputs": [],
      "stateMutability": "nonpayable",
      "type": "function"
    },
    {
      "inputs": [
        {
          "internalType": "address",
          "name": "account",
          "type": "address"
        },
        {
          "internalType": "uint256",
          "name": "id",
          "type": "uint256"
        }
      ],
      "name": "balanceOf",
      "outputs": [
        {
          "internalType": "uint256",
          "name": "",
          "type": "uint256"
        }
      ],
      "stateMutability": "view",
      "type": "function"
    },
    {
      "inputs": [
        {
          "internalType": "address[]",
          "name": "accounts",
          "type": "address[]"
        },
        {
          "internalType": "uint256[]",
          "name": "ids",
          "type": "uint256[]"
        }
      ],
      "name": "balanceOfBatch",
      "outputs": [
        {
          "internalType": "uint256[]",
          "name": "",
          "type": "uint256[]"
        }
      ],
      "stateMutability": "view",
      "type": "function"
    },
    {
      "inputs": [
        {
          "internalType": "address",
          "name": "account",
          "type": "address"
        },
        {
          "internalType": "uint256",
          "name": "id",
          "type": "uint256"
        },
        {
          "internalType": "uint256",
          "name": "value",
          "type": "uint256"
        }
      ],
      "name": "burn",
      "outputs": [],
      "stateMutability": "nonpayable",
      "type": "function"
    },
    {
      "inputs": [
        {
          "internalType": "address",
          "name": "account",
          "type": "address"
        },
        {
          "internalType": "uint256[]",
          "name": "ids",
          "type": "uint256[]"
        },
        {
          "internalType": "uint256[]",
          "name": "values",
          "type": "uint256[]"
        }
      ],
      "name": "burnBatch",
      "outputs": [],
      "stateMutability": "nonpayable",
      "type": "function"
    },
    {
      "inputs": [],
      "name": "denominator",
      "outputs": [
        {
          "internalType": "uint256",
          "name": "",
          "type": "uint256"
        }
      ],
      "stateMutability": "view",
      "type": "function"
    },
    {
      "inputs": [
        {
          "internalType": "uint256",
          "name": "id",
          "type": "uint256"
        }
      ],
      "name": "exists",
      "outputs": [
        {
          "internalType": "bool",
          "name": "",
          "type": "bool"
        }
      ],
      "stateMutability": "view",
      "type": "function"
    },
    {
      "inputs": [
        {
          "internalType": "bytes32",
          "name": "role",
          "type": "bytes32"
        }
      ],
      "name": "getRoleAdmin",
      "outputs": [
        {
          "internalType": "bytes32",
          "name": "",
          "type": "bytes32"
        }
      ],
      "stateMutability": "view",
      "type": "function"
    },
    {
      "inputs": [
        {
          "internalType": "bytes32",
          "name": "role",
          "type": "bytes32"
        },
        {
          "internalType": "address",
          "name": "account",
          "type": "address"
        }
      ],
      "name": "grantRole",
      "outputs": [],
      "stateMutability": "nonpayable",
      "type": "function"
    },
    {
      "inputs": [
        {
          "internalType": "bytes32",
          "name": "role",
          "type": "bytes32"
        },
        {
          "internalType": "address",
          "name": "account",
          "type": "address"
        }
      ],
      "name": "hasRole",
      "outputs": [
        {
          "internalType": "bool",
          "name": "",
          "type": "bool"
        }
      ],
      "stateMutability": "view",
      "type": "function"
    },
    {
      "inputs": [
        {
          "internalType": "address",
          "name": "account",
          "type": "address"
        },
        {
          "internalType": "address",
          "name": "operator",
          "type": "address"
        }
      ],
      "name": "isApprovedForAll",
      "outputs": [
        {
          "internalType": "bool",
          "name": "",
          "type": "bool"
        }
      ],
      "stateMutability": "view",
      "type": "function"
    },
    {
      "inputs": [
        {
          "internalType": "address",
          "name": "account",
          "type": "address"
        },
        {
          "internalType": "uint256",
          "name": "id",
          "type": "uint256"
        }
      ],
      "name": "isAvoider",
      "outputs": [
        {
          "internalType": "bool",
          "name": "",
          "type": "bool"
        }
      ],
      "stateMutability": "view",
      "type": "function"
    },
    {
      "inputs": [
        {
          "internalType": "address",
          "name": "middleware",
          "type": "address"
        },
        {
          "internalType": "uint256",
          "name": "id",
          "type": "uint256"
        }
      ],
      "name": "isMiddleware",
      "outputs": [
        {
          "internalType": "bool",
          "name": "",
          "type": "bool"
        }
      ],
      "stateMutability": "view",
      "type": "function"
    },
    {
      "inputs": [
        {
          "internalType": "address",
          "name": "account",
          "type": "address"
        },
        {
          "internalType": "uint256",
          "name": "id",
          "type": "uint256"
        },
        {
          "internalType": "uint256",
          "name": "amount",
          "type": "uint256"
        },
        {
          "internalType": "bytes",
          "name": "data",
          "type": "bytes"
        }
      ],
      "name": "mint",
      "outputs": [],
      "stateMutability": "nonpayable",
      "type": "function"
    },
    {
      "inputs": [
        {
          "internalType": "address",
          "name": "to",
          "type": "address"
        },
        {
          "internalType": "uint256[]",
          "name": "ids",
          "type": "uint256[]"
        },
        {
          "internalType": "uint256[]",
          "name": "amounts",
          "type": "uint256[]"
        },
        {
          "internalType": "bytes",
          "name": "data",
          "type": "bytes"
        }
      ],
      "name": "mintBatch",
      "outputs": [],
      "stateMutability": "nonpayable",
      "type": "function"
    },
    {
      "inputs": [],
      "name": "name",
      "outputs": [
        {
          "internalType": "string",
          "name": "",
          "type": "string"
        }
      ],
      "stateMutability": "view",
      "type": "function"
    },
    {
      "inputs": [],
      "name": "pause",
      "outputs": [],
      "stateMutability": "nonpayable",
      "type": "function"
    },
    {
      "inputs": [],
      "name": "paused",
      "outputs": [
        {
          "internalType": "bool",
          "name": "",
          "type": "bool"
        }
      ],
      "stateMutability": "view",
      "type": "function"
    },
    {
      "inputs": [
        {
          "internalType": "uint256",
          "name": "id",
          "type": "uint256"
        }
      ],
      "name": "pricePerShare",
      "outputs": [
        {
          "internalType": "uint256",
          "name": "",
          "type": "uint256"
        }
      ],
      "stateMutability": "view",
      "type": "function"
    },
    {
      "inputs": [
        {
          "internalType": "uint256",
          "name": "id",
          "type": "uint256"
        }
      ],
      "name": "priceUpdateTimestamp",
      "outputs": [
        {
          "internalType": "uint256",
          "name": "",
          "type": "uint256"
        }
      ],
      "stateMutability": "view",
      "type": "function"
    },
    {
      "inputs": [
        {
          "internalType": "bytes32",
          "name": "role",
          "type": "bytes32"
        },
        {
          "internalType": "address",
          "name": "callerConfirmation",
          "type": "address"
        }
      ],
      "name": "renounceRole",
      "outputs": [],
      "stateMutability": "nonpayable",
      "type": "function"
    },
    {
      "inputs": [
        {
          "internalType": "bytes32",
          "name": "role",
          "type": "bytes32"
        },
        {
          "internalType": "address",
          "name": "account",
          "type": "address"
        }
      ],
      "name": "revokeRole",
      "outputs": [],
      "stateMutability": "nonpayable",
      "type": "function"
    },
    {
      "inputs": [
        {
          "internalType": "address",
          "name": "from",
          "type": "address"
        },
        {
          "internalType": "address",
          "name": "to",
          "type": "address"
        },
        {
          "internalType": "uint256[]",
          "name": "ids",
          "type": "uint256[]"
        },
        {
          "internalType": "uint256[]",
          "name": "values",
          "type": "uint256[]"
        },
        {
          "internalType": "bytes",
          "name": "data",
          "type": "bytes"
        }
      ],
      "name": "safeBatchTransferFrom",
      "outputs": [],
      "stateMutability": "nonpayable",
      "type": "function"
    },
    {
      "inputs": [
        {
          "internalType": "address",
          "name": "from",
          "type": "address"
        },
        {
          "internalType": "address",
          "name": "to",
          "type": "address"
        },
        {
          "internalType": "uint256",
          "name": "id",
          "type": "uint256"
        },
        {
          "internalType": "uint256",
          "name": "value",
          "type": "uint256"
        },
        {
          "internalType": "bytes",
          "name": "data",
          "type": "bytes"
        }
      ],
      "name": "safeTransferFrom",
      "outputs": [],
      "stateMutability": "nonpayable",
      "type": "function"
    },
    {
      "inputs": [
        {
          "internalType": "address",
          "name": "operator",
          "type": "address"
        },
        {
          "internalType": "bool",
          "name": "approved",
          "type": "bool"
        }
      ],
      "name": "setApprovalForAll",
      "outputs": [],
      "stateMutability": "nonpayable",
      "type": "function"
    },
    {
      "inputs": [
        {
          "internalType": "address",
          "name": "middleware",
          "type": "address"
        },
        {
          "internalType": "uint256",
          "name": "id",
          "type": "uint256"
        },
        {
          "internalType": "bool",
          "name": "isSet",
          "type": "bool"
        }
      ],
      "name": "setMiddleware",
      "outputs": [],
      "stateMutability": "nonpayable",
      "type": "function"
    },
    {
      "inputs": [
        {
          "internalType": "uint256",
          "name": "price",
          "type": "uint256"
        },
        {
          "internalType": "uint256",
          "name": "id",
          "type": "uint256"
        }
      ],
      "name": "setPricePerShare",
      "outputs": [],
      "stateMutability": "nonpayable",
      "type": "function"
    },
    {
      "inputs": [
        {
          "internalType": "string",
          "name": "newuri",
          "type": "string"
        }
      ],
      "name": "setURI",
      "outputs": [],
      "stateMutability": "nonpayable",
      "type": "function"
    },
    {
      "inputs": [
        {
          "internalType": "bytes4",
          "name": "interfaceId",
          "type": "bytes4"
        }
      ],
      "name": "supportsInterface",
      "outputs": [
        {
          "internalType": "bool",
          "name": "",
          "type": "bool"
        }
      ],
      "stateMutability": "view",
      "type": "function"
    },
    {
      "inputs": [],
      "name": "symbol",
      "outputs": [
        {
          "internalType": "string",
          "name": "",
          "type": "string"
        }
      ],
      "stateMutability": "view",
      "type": "function"
    },
    {
      "inputs": [],
      "name": "totalSupply",
      "outputs": [
        {
          "internalType": "uint256",
          "name": "",
          "type": "uint256"
        }
      ],
      "stateMutability": "view",
      "type": "function"
    },
    {
      "inputs": [
        {
          "internalType": "uint256",
          "name": "id",
          "type": "uint256"
        }
      ],
      "name": "totalSupply",
      "outputs": [
        {
          "internalType": "uint256",
          "name": "",
          "type": "uint256"
        }
      ],
      "stateMutability": "view",
      "type": "function"
    },
    {
      "inputs": [
        {
          "internalType": "address",
          "name": "newMiddlewareManager",
          "type": "address"
        }
      ],
      "name": "transferMiddlewareManagerRole",
      "outputs": [],
      "stateMutability": "nonpayable",
      "type": "function"
    },
    {
      "inputs": [
        {
          "internalType": "address",
          "name": "newMinter",
          "type": "address"
        }
      ],
      "name": "transferMinterRole",
      "outputs": [],
      "stateMutability": "nonpayable",
      "type": "function"
    },
    {
      "inputs": [
        {
          "internalType": "address",
          "name": "newOracle",
          "type": "address"
        }
      ],
      "name": "transferOracleRole",
      "outputs": [],
      "stateMutability": "nonpayable",
      "type": "function"
    },
    {
      "inputs": [
        {
          "internalType": "address",
          "name": "newPauser",
          "type": "address"
        }
      ],
      "name": "transferPauserRole",
      "outputs": [],
      "stateMutability": "nonpayable",
      "type": "function"
    },
    {
      "inputs": [
        {
          "internalType": "address",
          "name": "newUriSetter",
          "type": "address"
        }
      ],
      "name": "transferUriSetterRole",
      "outputs": [],
      "stateMutability": "nonpayable",
      "type": "function"
    },
    {
      "inputs": [],
      "name": "unpause",
      "outputs": [],
      "stateMutability": "nonpayable",
      "type": "function"
    },
    {
      "inputs": [
        {
          "internalType": "uint256",
          "name": "",
          "type": "uint256"
        }
      ],
      "name": "uri",
      "outputs": [
        {
          "internalType": "string",
          "name": "",
          "type": "string"
        }
      ],
      "stateMutability": "view",
      "type": "function"
    }
  ],
  "transactionHash": "0xd5c9bd72d875c84d3856577f5eaaf45d18a1089e559aacfda45f2fef58f28a23",
  "args": [
    "Geode Staked Ether",
    "gETH",
    "https://api.geode.fi/geth"
  ],
  "numDeployments": 1,
  "solcInputHash": "61510320e155ddc5271d2656d1a4fd97",
  "bytecode": "0x61014060405260008051602062002cf283398151915260805260008051602062002d1283398151915260a05260008051602062002d3283398151915260c052670de0b6b3a764000060e05260008051602062002d528339815191526101005260008051602062002cd2833981519152610120523480156200007f57600080fd5b5060405162002d7238038062002d72833981016040819052620000a29162000307565b8080620000af816200017d565b506004805460ff19169055620000c76000336200018f565b50620000e360008051602062002cf2833981519152336200018f565b50620000ff60008051602062002d12833981519152336200018f565b506200011b60008051602062002d32833981519152336200018f565b50600790506200012c848262000427565b5060086200013b838262000427565b506200015760008051602062002d52833981519152336200018f565b506200017360008051602062002cd2833981519152336200018f565b50505050620004f3565b60026200018b828262000427565b5050565b60008281526003602090815260408083206001600160a01b038516845290915281205460ff16620002385760008381526003602090815260408083206001600160a01b03861684529091529020805460ff19166001179055620001ef3390565b6001600160a01b0316826001600160a01b0316847f2f8788117e7eff1d82e926ec794901d17c78024a50270940304540a733656f0d60405160405180910390a45060016200023c565b5060005b92915050565b634e487b7160e01b600052604160045260246000fd5b600082601f8301126200026a57600080fd5b81516001600160401b038082111562000287576200028762000242565b604051601f8301601f19908116603f01168101908282118183101715620002b257620002b262000242565b81604052838152602092508683858801011115620002cf57600080fd5b600091505b83821015620002f35785820183015181830184015290820190620002d4565b600093810190920192909252949350505050565b6000806000606084860312156200031d57600080fd5b83516001600160401b03808211156200033557600080fd5b620003438783880162000258565b945060208601519150808211156200035a57600080fd5b620003688783880162000258565b935060408601519150808211156200037f57600080fd5b506200038e8682870162000258565b9150509250925092565b600181811c90821680620003ad57607f821691505b602082108103620003ce57634e487b7160e01b600052602260045260246000fd5b50919050565b601f8211156200042257600081815260208120601f850160051c81016020861015620003fd5750805b601f850160051c820191505b818110156200041e5782815560010162000409565b5050505b505050565b81516001600160401b0381111562000443576200044362000242565b6200045b8162000454845462000398565b84620003d4565b602080601f8311600181146200049357600084156200047a5750858301515b600019600386901b1c1916600185901b1785556200041e565b600085815260208120601f198616915b82811015620004c457888601518255948401946001909101908401620004a3565b5085821015620004e35787850151600019600388901b60f8161c191681555b5050505050600190811b01905550565b60805160a05160c05160e05161010051610120516126f5620005dd60003960008181610321015281816108f101528181610dcc01528181610df90152610e2401526000818161062401528181610c1801528181610f8c01528181610fb90152610fe4015260006105130152600081816105b0015281816108b401528181610d6401528181610e8e01528181610ebb0152610ee60152600081816105ea01528181610ae401528181610d9a01528181610f0d01528181610f3a0152610f65015260008181610499015281816106c101528181610a3101528181610a5e0152610a8901526126f56000f3fe608060405234801561001057600080fd5b506004361061027e5760003560e01c80636b20c4541161015c578063b8bf60f9116100ce578063e63ab1e911610087578063e63ab1e9146105e5578063e985e9c51461060c578063eef37fd51461061f578063f242432a14610646578063f5298aca14610659578063f759cc3b1461066c57600080fd5b8063b8bf60f914610552578063bad383a614610565578063bd85b03914610578578063c7bddb1e14610598578063d5391393146105ab578063d547741f146105d257600080fd5b8063908d67ed11610120578063908d67ed146104d657806391d14854146104f657806395d89b411461050957806396ce079514610511578063a217fddf14610537578063a22cb4651461053f57600080fd5b80636b20c4541461046e578063731133e9146104815780637f345710146104945780638456cb59146104bb5780638801b9b8146104c357600080fd5b8063248a9ca3116101f55780633f4ba83a116101b95780633f4ba83a146103f35780634d280a55146103fb5780634e1273f41461040e5780634f558e791461042e578063512be796146104505780635c975abb1461046357600080fd5b8063248a9ca3146103845780632eb2c2d6146103a75780632f2ff15d146103ba5780633106fde8146103cd57806336568abe146103e057600080fd5b8063072650d211610247578063072650d21461030957806307e2cea51461031c5780630e89341c1461034357806318160ddd146103565780631f7fdffa1461035e57806322af59971461037157600080fd5b8062fdd58e1461028357806301ffc9a7146102a957806302fe5305146102cc5780630492f6e1146102e157806306fdde03146102f4575b600080fd5b610296610291366004611ce6565b61068c565b6040519081526020015b60405180910390f35b6102bc6102b7366004611d26565b6106b4565b60405190151581526020016102a0565b6102df6102da366004611de9565b6106bf565b005b6102df6102ef366004611e4a565b6106f6565b6102fc610765565b6040516102a09190611ebc565b6102bc610317366004611ce6565b6107f3565b6102967f000000000000000000000000000000000000000000000000000000000000000081565b6102fc610351366004611ecf565b61081e565b600654610296565b6102df61036c366004611f97565b6108b2565b6102df61037f366004612030565b6108ef565b610296610392366004611ecf565b60009081526003602052604090206001015490565b6102df6103b5366004612052565b610998565b6102df6103c83660046120fc565b610a04565b6102df6103db36600461211f565b610a2f565b6102df6103ee3660046120fc565b610aaa565b6102df610ae2565b6102bc610409366004611ce6565b610b17565b61042161041c36600461213a565b610b41565b6040516102a09190612235565b6102bc61043c366004611ecf565b600090815260056020526040902054151590565b6102df61045e366004612248565b610c16565b60045460ff166102bc565b6102df61047c366004612284565b610d08565b6102df61048f3660046122f8565b610d62565b6102967f000000000000000000000000000000000000000000000000000000000000000081565b6102df610d98565b6102df6104d136600461211f565b610dca565b6102966104e4366004611ecf565b6000908152600c602052604090205490565b6102bc6105043660046120fc565b610e49565b6102fc610e74565b7f0000000000000000000000000000000000000000000000000000000000000000610296565b610296600081565b6102df61054d36600461234d565b610e81565b6102df61056036600461211f565b610e8c565b6102df61057336600461211f565b610f0b565b610296610586366004611ecf565b60009081526005602052604090205490565b6102df6105a636600461211f565b610f8a565b6102967f000000000000000000000000000000000000000000000000000000000000000081565b6102df6105e03660046120fc565b611009565b6102967f000000000000000000000000000000000000000000000000000000000000000081565b6102bc61061a366004612377565b61102e565b6102967f000000000000000000000000000000000000000000000000000000000000000081565b6102df6106543660046123a1565b61105c565b6102df610667366004612406565b6110db565b61029661067a366004611ecf565b6000908152600b602052604090205490565b6000818152602081815260408083206001600160a01b03861684529091529020545b92915050565b60006106ae82611158565b7f00000000000000000000000000000000000000000000000000000000000000006106e98161117d565b6106f282611187565b5050565b336000818152600a60209081526040808320868452825291829020805460ff19168515159081179091558251848152918201869052918101919091527f78738b8c4717822a58cc752d3b2d657f2d706db6042748d69d2048438ff07e2c906060015b60405180910390a1505050565b6007805461077290612439565b80601f016020809104026020016040519081016040528092919081815260200182805461079e90612439565b80156107eb5780601f106107c0576101008083540402835291602001916107eb565b820191906000526020600020905b8154815290600101906020018083116107ce57829003601f168201915b505050505081565b6001600160a01b03919091166000908152600a60209081526040808320938352929052205460ff1690565b60606002805461082d90612439565b80601f016020809104026020016040519081016040528092919081815260200182805461085990612439565b80156108a65780601f1061087b576101008083540402835291602001916108a6565b820191906000526020600020905b81548152906001019060200180831161088957829003601f168201915b50505050509050919050565b7f00000000000000000000000000000000000000000000000000000000000000006108dc8161117d565b6108e885858585611193565b5050505050565b7f00000000000000000000000000000000000000000000000000000000000000006109198161117d565b8160000361093a5760405163dcef3bd560e01b815260040160405180910390fd5b6000828152600b60209081526040808320869055600c9091529020429055604080518381526020810185905242918101919091527f15819dd2fd9f6418b142e798d08a18d0bf06ea368f4480b7b0d3f75bd966bc4890606001610758565b336001600160a01b03861681148015906109b957506109b7868261102e565b155b156109ef5760405163711bec9160e11b81526001600160a01b038083166004830152871660248201526044015b60405180910390fd5b6109fc86868686866111cb565b505050505050565b600082815260036020526040902060010154610a1f8161117d565b610a29838361122b565b50505050565b7f0000000000000000000000000000000000000000000000000000000000000000610a598161117d565b610a837f00000000000000000000000000000000000000000000000000000000000000008361122b565b506106f27f0000000000000000000000000000000000000000000000000000000000000000335b6001600160a01b0381163314610ad35760405163334bd91960e11b815260040160405180910390fd5b610add82826112bf565b505050565b7f0000000000000000000000000000000000000000000000000000000000000000610b0c8161117d565b610b1461132c565b50565b60009081526009602090815260408083206001600160a01b03949094168352929052205460ff1690565b60608151835114610b725781518351604051635b05999160e01b8152600481019290925260248201526044016109e6565b6000835167ffffffffffffffff811115610b8e57610b8e611d4a565b604051908082528060200260200182016040528015610bb7578160200160208202803683370190505b50905060005b8451811015610c0e57602080820286010151610be19060208084028701015161068c565b828281518110610bf357610bf3612473565b6020908102919091010152610c078161249f565b9050610bbd565b509392505050565b7f0000000000000000000000000000000000000000000000000000000000000000610c408161117d565b6001600160a01b0384161580610c5e57506001600160a01b0384163b155b15610c8757604051630789b04160e41b81526001600160a01b03851660048201526024016109e6565b60008381526009602090815260408083206001600160a01b03881684529091529020805460ff1916831515179055604080518481526001600160a01b0386166020820152831515918101919091527fc3c7dc5ac1b5d811719dbd5be732967d24ed27897351a8a123e526f6b53dc5249060600160405180910390a150505050565b6001600160a01b0383163314801590610d285750610d26833361102e565b155b15610d575760405163711bec9160e11b81523360048201526001600160a01b03841660248201526044016109e6565b610add83838361137e565b7f0000000000000000000000000000000000000000000000000000000000000000610d8c8161117d565b6108e8858585856113c4565b7f0000000000000000000000000000000000000000000000000000000000000000610dc28161117d565b610b14611421565b7f0000000000000000000000000000000000000000000000000000000000000000610df48161117d565b610e1e7f00000000000000000000000000000000000000000000000000000000000000008361122b565b506106f27f000000000000000000000000000000000000000000000000000000000000000033610aaa565b60009182526003602090815260408084206001600160a01b0393909316845291905290205460ff1690565b6008805461077290612439565b6106f233838361145e565b7f0000000000000000000000000000000000000000000000000000000000000000610eb68161117d565b610ee07f00000000000000000000000000000000000000000000000000000000000000008361122b565b506106f27f000000000000000000000000000000000000000000000000000000000000000033610aaa565b7f0000000000000000000000000000000000000000000000000000000000000000610f358161117d565b610f5f7f00000000000000000000000000000000000000000000000000000000000000008361122b565b506106f27f000000000000000000000000000000000000000000000000000000000000000033610aaa565b7f0000000000000000000000000000000000000000000000000000000000000000610fb48161117d565b610fde7f00000000000000000000000000000000000000000000000000000000000000008361122b565b506106f27f000000000000000000000000000000000000000000000000000000000000000033610aaa565b6000828152600360205260409020600101546110248161117d565b610a2983836112bf565b6001600160a01b03918216600090815260016020908152604080832093909416825291909152205460ff1690565b336001600160a01b038616811480159061107d575061107b868261102e565b155b156110ce5761108c8185610b17565b158061109d575061109d86856107f3565b156110ce5760405163711bec9160e11b81526001600160a01b038083166004830152871660248201526044016109e6565b6109fc86868686866114f4565b336001600160a01b03841681148015906110fc57506110fa848261102e565b155b1561114d5761110b8184610b17565b158061111c575061111c84846107f3565b1561114d5760405163711bec9160e11b81526001600160a01b038083166004830152851660248201526044016109e6565b610a29848484611582565b60006001600160e01b03198216637965db0b60e01b14806106ae57506106ae826115ea565b610b14813361163a565b60026106f282826124fe565b6001600160a01b0384166111bd57604051632bfa23e760e11b8152600060048201526024016109e6565b610a29600085858585611673565b6001600160a01b0384166111f557604051632bfa23e760e11b8152600060048201526024016109e6565b6001600160a01b03851661121e57604051626a0d4560e21b8152600060048201526024016109e6565b6108e88585858585611673565b60006112378383610e49565b6112b75760008381526003602090815260408083206001600160a01b03861684529091529020805460ff1916600117905561126f3390565b6001600160a01b0316826001600160a01b0316847f2f8788117e7eff1d82e926ec794901d17c78024a50270940304540a733656f0d60405160405180910390a45060016106ae565b5060006106ae565b60006112cb8383610e49565b156112b75760008381526003602090815260408083206001600160a01b0386168085529252808320805460ff1916905551339286917ff6391f5c32d9c69d2a47ea670b442974b53935d1edc7fd64eb21e047a839171b9190a45060016106ae565b6113346116c6565b6004805460ff191690557f5db9ee0a495bf2e6ff9c91a7834c1ba4fdd244a5e8aa4e537bd38aeae4b073aa335b6040516001600160a01b03909116815260200160405180910390a1565b6001600160a01b0383166113a757604051626a0d4560e21b8152600060048201526024016109e6565b610add836000848460405180602001604052806000815250611673565b6001600160a01b0384166113ee57604051632bfa23e760e11b8152600060048201526024016109e6565b604080516001808252602082018690528183019081526060820185905260808201909252906109fc600087848487611673565b6114296116eb565b6004805460ff191660011790557f62e78cea01bee320cd4e420270b5ea74000d11b0c9f74754ebdbfc544b05a2586113613390565b6001600160a01b0382166114875760405162ced3e160e81b8152600060048201526024016109e6565b6001600160a01b03838116600081815260016020908152604080832094871680845294825291829020805460ff191686151590811790915591519182527f17307eab39ab6107e8899845ad3d59bd9653f200f220920489ca2b5937696c31910160405180910390a3505050565b6001600160a01b03841661151e57604051632bfa23e760e11b8152600060048201526024016109e6565b6001600160a01b03851661154757604051626a0d4560e21b8152600060048201526024016109e6565b604080516001808252602082018690528183019081526060820185905260808201909252906115798787848487611673565b50505050505050565b6001600160a01b0383166115ab57604051626a0d4560e21b8152600060048201526024016109e6565b604080516001808252602082018590528183019081526060820184905260a082019092526000608082018181529192916108e891879185908590611673565b60006001600160e01b03198216636cdb3d1360e11b148061161b57506001600160e01b031982166303a24d0760e21b145b806106ae57506301ffc9a760e01b6001600160e01b03198316146106ae565b6116448282610e49565b6106f25760405163e2517d3f60e01b81526001600160a01b0382166004820152602481018390526044016109e6565b61167f8585858561170f565b6001600160a01b038416156108e857825133906001036116b857602084810151908401516116b183898985858961171b565b50506109fc565b6109fc818787878787611737565b60045460ff166116e957604051638dfc202b60e01b815260040160405180910390fd5b565b60045460ff16156116e95760405163d93c066560e01b815260040160405180910390fd5b610a298484848461185b565b6117258684610b17565b6109fc576109fc8686868686866119b5565b6001600160a01b0384163b156109fc5760405163bc197c8160e01b81526001600160a01b0385169063bc197c819061177b90899089908890889088906004016125be565b6020604051808303816000875af19250505080156117b6575060408051601f3d908101601f191682019092526117b39181019061261c565b60015b61181f573d8080156117e4576040519150601f19603f3d011682016040523d82523d6000602084013e6117e9565b606091505b50805160000361181757604051632bfa23e760e11b81526001600160a01b03861660048201526024016109e6565b805181602001fd5b6001600160e01b0319811663bc197c8160e01b1461157957604051632bfa23e760e11b81526001600160a01b03861660048201526024016109e6565b61186784848484611a9e565b6001600160a01b03841661191a576000805b835181101561190057600083828151811061189657611896612473565b6020026020010151905080600560008785815181106118b7576118b7612473565b6020026020010151815260200190815260200160002060008282546118dc9190612639565b909155506118ec90508184612639565b925050806118f99061249f565b9050611879565b5080600660008282546119139190612639565b9091555050505b6001600160a01b038316610a29576000805b83518110156119a457600083828151811061194957611949612473565b60200260200101519050806005600087858151811061196a5761196a612473565b60200260200101518152602001908152602001600020600082825403925050819055508083019250508061199d9061249f565b905061192c565b506006805491909103905550505050565b6001600160a01b0384163b156109fc5760405163f23a6e6160e01b81526001600160a01b0385169063f23a6e61906119f9908990899088908890889060040161264c565b6020604051808303816000875af1925050508015611a34575060408051601f3d908101601f19168201909252611a319181019061261c565b60015b611a62573d8080156117e4576040519150601f19603f3d011682016040523d82523d6000602084013e6117e9565b6001600160e01b0319811663f23a6e6160e01b1461157957604051632bfa23e760e11b81526001600160a01b03861660048201526024016109e6565b611aa66116eb565b610a29848484848051825114611adc5781518151604051635b05999160e01b8152600481019290925260248201526044016109e6565b3360005b8351811015611beb576020818102858101820151908501909101516001600160a01b03881615611b93576000828152602081815260408083206001600160a01b038c16845290915290205481811015611b6c576040516303dee4c560e01b81526001600160a01b038a1660048201526024810182905260448101839052606481018490526084016109e6565b6000838152602081815260408083206001600160a01b038d16845290915290209082900390555b6001600160a01b03871615611bd8576000828152602081815260408083206001600160a01b038b16845290915281208054839290611bd2908490612639565b90915550505b505080611be49061249f565b9050611ae0565b508251600103611c6c5760208301516000906020840151909150856001600160a01b0316876001600160a01b0316846001600160a01b03167fc3d58168c5ae7397731d063d5bbf3d657854427343f4c083240f7aacaa2d0f628585604051611c5d929190918252602082015260400190565b60405180910390a450506108e8565b836001600160a01b0316856001600160a01b0316826001600160a01b03167f4a39dc06d4c0dbc64b70af90fd698a233a518aa5d07e595d983b8c0526c8f7fb8686604051611cbb929190612691565b60405180910390a45050505050565b80356001600160a01b0381168114611ce157600080fd5b919050565b60008060408385031215611cf957600080fd5b611d0283611cca565b946020939093013593505050565b6001600160e01b031981168114610b1457600080fd5b600060208284031215611d3857600080fd5b8135611d4381611d10565b9392505050565b634e487b7160e01b600052604160045260246000fd5b604051601f8201601f1916810167ffffffffffffffff81118282101715611d8957611d89611d4a565b604052919050565b600067ffffffffffffffff831115611dab57611dab611d4a565b611dbe601f8401601f1916602001611d60565b9050828152838383011115611dd257600080fd5b828260208301376000602084830101529392505050565b600060208284031215611dfb57600080fd5b813567ffffffffffffffff811115611e1257600080fd5b8201601f81018413611e2357600080fd5b611e3284823560208401611d91565b949350505050565b80358015158114611ce157600080fd5b60008060408385031215611e5d57600080fd5b82359150611e6d60208401611e3a565b90509250929050565b6000815180845260005b81811015611e9c57602081850181015186830182015201611e80565b506000602082860101526020601f19601f83011685010191505092915050565b602081526000611d436020830184611e76565b600060208284031215611ee157600080fd5b5035919050565b600067ffffffffffffffff821115611f0257611f02611d4a565b5060051b60200190565b600082601f830112611f1d57600080fd5b81356020611f32611f2d83611ee8565b611d60565b82815260059290921b84018101918181019086841115611f5157600080fd5b8286015b84811015611f6c5780358352918301918301611f55565b509695505050505050565b600082601f830112611f8857600080fd5b611d4383833560208501611d91565b60008060008060808587031215611fad57600080fd5b611fb685611cca565b9350602085013567ffffffffffffffff80821115611fd357600080fd5b611fdf88838901611f0c565b94506040870135915080821115611ff557600080fd5b61200188838901611f0c565b9350606087013591508082111561201757600080fd5b5061202487828801611f77565b91505092959194509250565b6000806040838503121561204357600080fd5b50508035926020909101359150565b600080600080600060a0868803121561206a57600080fd5b61207386611cca565b945061208160208701611cca565b9350604086013567ffffffffffffffff8082111561209e57600080fd5b6120aa89838a01611f0c565b945060608801359150808211156120c057600080fd5b6120cc89838a01611f0c565b935060808801359150808211156120e257600080fd5b506120ef88828901611f77565b9150509295509295909350565b6000806040838503121561210f57600080fd5b82359150611e6d60208401611cca565b60006020828403121561213157600080fd5b611d4382611cca565b6000806040838503121561214d57600080fd5b823567ffffffffffffffff8082111561216557600080fd5b818501915085601f83011261217957600080fd5b81356020612189611f2d83611ee8565b82815260059290921b840181019181810190898411156121a857600080fd5b948201945b838610156121cd576121be86611cca565b825294820194908201906121ad565b965050860135925050808211156121e357600080fd5b506121f085828601611f0c565b9150509250929050565b600081518084526020808501945080840160005b8381101561222a5781518752958201959082019060010161220e565b509495945050505050565b602081526000611d4360208301846121fa565b60008060006060848603121561225d57600080fd5b61226684611cca565b92506020840135915061227b60408501611e3a565b90509250925092565b60008060006060848603121561229957600080fd5b6122a284611cca565b9250602084013567ffffffffffffffff808211156122bf57600080fd5b6122cb87838801611f0c565b935060408601359150808211156122e157600080fd5b506122ee86828701611f0c565b9150509250925092565b6000806000806080858703121561230e57600080fd5b61231785611cca565b93506020850135925060408501359150606085013567ffffffffffffffff81111561234157600080fd5b61202487828801611f77565b6000806040838503121561236057600080fd5b61236983611cca565b9150611e6d60208401611e3a565b6000806040838503121561238a57600080fd5b61239383611cca565b9150611e6d60208401611cca565b600080600080600060a086880312156123b957600080fd5b6123c286611cca565b94506123d060208701611cca565b93506040860135925060608601359150608086013567ffffffffffffffff8111156123fa57600080fd5b6120ef88828901611f77565b60008060006060848603121561241b57600080fd5b61242484611cca565b95602085013595506040909401359392505050565b600181811c9082168061244d57607f821691505b60208210810361246d57634e487b7160e01b600052602260045260246000fd5b50919050565b634e487b7160e01b600052603260045260246000fd5b634e487b7160e01b600052601160045260246000fd5b6000600182016124b1576124b1612489565b5060010190565b601f821115610add57600081815260208120601f850160051c810160208610156124df5750805b601f850160051c820191505b818110156109fc578281556001016124eb565b815167ffffffffffffffff81111561251857612518611d4a565b61252c816125268454612439565b846124b8565b602080601f83116001811461256157600084156125495750858301515b600019600386901b1c1916600185901b1785556109fc565b600085815260208120601f198616915b8281101561259057888601518255948401946001909101908401612571565b50858210156125ae5787850151600019600388901b60f8161c191681555b5050505050600190811b01905550565b6001600160a01b0386811682528516602082015260a0604082018190526000906125ea908301866121fa565b82810360608401526125fc81866121fa565b905082810360808401526126108185611e76565b98975050505050505050565b60006020828403121561262e57600080fd5b8151611d4381611d10565b808201808211156106ae576106ae612489565b6001600160a01b03868116825285166020820152604081018490526060810183905260a06080820181905260009061268690830184611e76565b979650505050505050565b6040815260006126a460408301856121fa565b82810360208401526126b681856121fa565b9594505050505056fea2646970667358221220b208917cdb2656d12bc685f32f18bcb7c2738cecddbe266a9a2ec4aa1c9eecb264736f6c6343000814003368e79a7bf1e0bc45d0a330c573bc367f9cf464fd326078812f301165fbda4ef17804d923f43a17d325d77e781528e0793b2edd9890ab45fc64efd7b4b427744c65d7a28e3265b37a6474929f336521b332c1681b933f6cb9f3376673440d862a9f2df0fed2c77648de5860a4cc508cd0818c85b8b8a1ab4ceeef8d981c8956a6f04f52d1f685586eac22a7ca73ab9ce0c45b77d01934bed334a9ff223be978a1",
  "devdoc": {
    "author": "Ice Bear & Crash Bandicoot",
    "details": "gETH is chain-agnostic, meaning it can be used on any evm chain (given the correct name and symbol).gETH is immutable, it can not be upgraded.gETH is a special ERC1155 contract with additional functionalities: gETHMiddlewares: * Most important functionality gETH provides: * Allowing any other contract to provide additional functionality * around the balance and price data, such as using an ID like ERC20. * This addition effectively result in changes in * safeTransferFrom(), burn(), _doSafeTransferAcceptanceCheck() * functions, reasoning is in the comments. Avoiders: * If one wants to remain unbound from gETHMiddlewares, * it can be done so by calling \"avoidMiddlewares\" function. PricePerShare: * Keeping track of the ratio between the derivative * and the underlaying staked asset, Ether. Denominator: * ERC1155 does not have decimals and it is not wise to use the name convention * but we need to provide some information on how to denominate the balances, price, etc.review ERC1155PausableBurnableSupply, which is generated with Openzeppelin wizard.",
    "errors": {
      "AccessControlBadConfirmation()": [
        {
          "details": "The caller of a function is not the expected one. NOTE: Don't confuse with {AccessControlUnauthorizedAccount}."
        }
      ],
      "AccessControlUnauthorizedAccount(address,bytes32)": [
        {
          "details": "The `account` is missing a role."
        }
      ],
      "ERC1155InsufficientBalance(address,uint256,uint256,uint256)": [
        {
          "details": "Indicates an error related to the current `balance` of a `sender`. Used in transfers.",
          "params": {
            "balance": "Current balance for the interacting account.",
            "needed": "Minimum amount required to perform a transfer.",
            "sender": "Address whose tokens are being transferred.",
            "tokenId": "Identifier number of a token."
          }
        }
      ],
      "ERC1155InvalidApprover(address)": [
        {
          "details": "Indicates a failure with the `approver` of a token to be approved. Used in approvals.",
          "params": {
            "approver": "Address initiating an approval operation."
          }
        }
      ],
      "ERC1155InvalidArrayLength(uint256,uint256)": [
        {
          "details": "Indicates an array length mismatch between ids and values in a safeBatchTransferFrom operation. Used in batch transfers.",
          "params": {
            "idsLength": "Length of the array of token identifiers",
            "valuesLength": "Length of the array of token amounts"
          }
        }
      ],
      "ERC1155InvalidOperator(address)": [
        {
          "details": "Indicates a failure with the `operator` to be approved. Used in approvals.",
          "params": {
            "operator": "Address that may be allowed to operate on tokens without being their owner."
          }
        }
      ],
      "ERC1155InvalidReceiver(address)": [
        {
          "details": "Indicates a failure with the token `receiver`. Used in transfers.",
          "params": {
            "receiver": "Address to which tokens are being transferred."
          }
        }
      ],
      "ERC1155InvalidSender(address)": [
        {
          "details": "Indicates a failure with the token `sender`. Used in transfers.",
          "params": {
            "sender": "Address whose tokens are being transferred."
          }
        }
      ],
      "ERC1155MissingApprovalForAll(address,address)": [
        {
          "details": "Indicates a failure with the `operator`s approval. Used in transfers.",
          "params": {
            "operator": "Address that may be allowed to operate on tokens without being their owner.",
            "owner": "Address of the current owner of a token."
          }
        }
      ],
      "EnforcedPause()": [
        {
          "details": "The operation failed because the contract is paused."
        }
      ],
      "ExpectedPause()": [
        {
          "details": "The operation failed because the contract is not paused."
        }
      ],
      "gETHZeroId()": [
        {
          "custom:section": "** ERRORS **"
        }
      ]
    },
    "events": {
      "ApprovalForAll(address,address,bool)": {
        "details": "Emitted when `account` grants or revokes permission to `operator` to transfer their tokens, according to `approved`."
      },
      "Paused(address)": {
        "details": "Emitted when the pause is triggered by `account`."
      },
      "PriceUpdated(uint256,uint256,uint256)": {
        "custom:section": "** EVENTS **"
      },
      "RoleAdminChanged(bytes32,bytes32,bytes32)": {
        "details": "Emitted when `newAdminRole` is set as ``role``'s admin role, replacing `previousAdminRole` `DEFAULT_ADMIN_ROLE` is the starting admin for all roles, despite {RoleAdminChanged} not being emitted signaling this."
      },
      "RoleGranted(bytes32,address,address)": {
        "details": "Emitted when `account` is granted `role`. `sender` is the account that originated the contract call, an admin role bearer except when using {AccessControl-_setupRole}."
      },
      "RoleRevoked(bytes32,address,address)": {
        "details": "Emitted when `account` is revoked `role`. `sender` is the account that originated the contract call:   - if using `revokeRole`, it is the admin role bearer   - if using `renounceRole`, it is the role bearer (i.e. `account`)"
      },
      "TransferBatch(address,address,address,uint256[],uint256[])": {
        "details": "Equivalent to multiple {TransferSingle} events, where `operator`, `from` and `to` are the same for all transfers."
      },
      "TransferSingle(address,address,address,uint256,uint256)": {
        "details": "Emitted when `value` amount of tokens of type `id` are transferred from `from` to `to` by `operator`."
      },
      "URI(string,uint256)": {
        "details": "Emitted when the URI for token type `id` changes to `value`, if it is a non-programmatic URI. If an {URI} event was emitted for `id`, the standard https://eips.ethereum.org/EIPS/eip-1155#metadata-extensions[guarantees] that `value` will equal the value returned by {IERC1155MetadataURI-uri}."
      },
      "Unpaused(address)": {
        "details": "Emitted when the pause is lifted by `account`."
      }
    },
    "kind": "dev",
    "methods": {
      "avoidMiddlewares(uint256,bool)": {
        "details": "ADDED for gETH*",
        "params": {
          "isAvoid": "true: restrict middlewares, false: allow middlewares"
        }
      },
      "balanceOf(address,uint256)": {
        "details": "See {IERC1155-balanceOf}."
      },
      "balanceOfBatch(address[],uint256[])": {
        "details": "See {IERC1155-balanceOfBatch}. Requirements: - `accounts` and `ids` must have the same length."
      },
      "burn(address,uint256,uint256)": {
        "details": "CHANGED for gETHADDED \"((!(isMiddleware(sender, id))) || (isAvoider(account, id)))\" pass conditionSee ERC1155Burnable burn: https://github.com/OpenZeppelin/openzeppelin-contracts/blob/cffb2f1ddcd87efd68effc92cfd336c5145acabd/contracts/token/ERC1155/extensions/ERC1155Burnable.sol#L13C1-L19C6"
      },
      "constructor": {
        "params": {
          "_name": "chain specific name: Geode Staked Ether, geode Staked Avax etc.",
          "_symbol": "chain specific symbol of the staking derivative: gETH, gGNO, gAVAX, etc.*"
        }
      },
      "denominator()": {
        "details": "ERC1155 does not have a decimals, and it is not wise to use the same nameADDED for gETH"
      },
      "exists(uint256)": {
        "details": "Indicates whether any token exist with a given id, or not."
      },
      "getRoleAdmin(bytes32)": {
        "details": "Returns the admin role that controls `role`. See {grantRole} and {revokeRole}. To change a role's admin, use {_setRoleAdmin}."
      },
      "grantRole(bytes32,address)": {
        "details": "Grants `role` to `account`. If `account` had not been already granted `role`, emits a {RoleGranted} event. Requirements: - the caller must have ``role``'s admin role. May emit a {RoleGranted} event."
      },
      "hasRole(bytes32,address)": {
        "details": "Returns `true` if `account` has been granted `role`."
      },
      "isApprovedForAll(address,address)": {
        "details": "See {IERC1155-isApprovedForAll}."
      },
      "isAvoider(address,uint256)": {
        "details": "ADDED for gETH*",
        "params": {
          "account": "the potential avoider"
        }
      },
      "isMiddleware(address,uint256)": {
        "details": "ADDED for gETH"
      },
      "paused()": {
        "details": "Returns true if the contract is paused, and false otherwise."
      },
      "pricePerShare(uint256)": {
        "details": "ADDED for gETH",
        "returns": {
          "_0": "price of the derivative in terms of underlying token, Ether"
        }
      },
      "priceUpdateTimestamp(uint256)": {
        "details": "ADDED for gETH",
        "returns": {
          "_0": "timestamp of the latest price update for given ID"
        }
      },
      "renounceRole(bytes32,address)": {
        "details": "Revokes `role` from the calling account. Roles are often managed via {grantRole} and {revokeRole}: this function's purpose is to provide a mechanism for accounts to lose their privileges if they are compromised (such as when a trusted device is misplaced). If the calling account had been revoked `role`, emits a {RoleRevoked} event. Requirements: - the caller must be `callerConfirmation`. May emit a {RoleRevoked} event."
      },
      "revokeRole(bytes32,address)": {
        "details": "Revokes `role` from `account`. If `account` had been granted `role`, emits a {RoleRevoked} event. Requirements: - the caller must have ``role``'s admin role. May emit a {RoleRevoked} event."
      },
      "safeBatchTransferFrom(address,address,uint256[],uint256[],bytes)": {
        "details": "See {IERC1155-safeBatchTransferFrom}."
      },
      "safeTransferFrom(address,address,uint256,uint256,bytes)": {
        "details": "CHANGED for gETHADDED \"((!isMiddleware(sender, id)) || isAvoider(from, id))\" pass conditionSee ERC1155 safeTransferFrom: https://github.com/OpenZeppelin/openzeppelin-contracts/blob/cffb2f1ddcd87efd68effc92cfd336c5145acabd/contracts/token/ERC1155/ERC1155.sol#L109C29-L109C29"
      },
      "setApprovalForAll(address,bool)": {
        "details": "See {IERC1155-setApprovalForAll}."
      },
      "setMiddleware(address,uint256,bool)": {
        "details": "ADDED for gETH",
        "params": {
          "isSet": "true: sets as a middleware, false: unsets",
          "middleware": "Address of the contract that will act as a middleware"
        }
      },
      "setPricePerShare(uint256,uint256)": {
        "details": "ADDED for gETH"
      },
      "totalSupply()": {
        "details": "Total value of tokens."
      },
      "totalSupply(uint256)": {
        "details": "Total value of tokens in with a given id."
      },
      "transferMiddlewareManagerRole(address)": {
        "details": "MIDDLEWARE MANAGER is basically a superUser, there can be only 1 at a given time,intended as \"Portal\""
      },
      "transferMinterRole(address)": {
        "details": "MINTER is basically a superUser, there can be only 1 at a given time,intended as \"Portal\""
      },
      "transferOracleRole(address)": {
        "details": "ORACLE is basically a superUser, there can be only 1 at a given time,intended as \"Portal\""
      },
      "transferPauserRole(address)": {
        "details": "PAUSER is basically a superUser, there can be only 1 at a given time,intended as \"Portal\""
      },
      "transferUriSetterRole(address)": {
        "details": "URI_SETTER is basically a superuser, there can be only 1 at a given time,intended as \"Governance/DAO\""
      },
      "uri(uint256)": {
        "details": "See {IERC1155MetadataURI-uri}. This implementation returns the same URI for *all* token types. It relies on the token type ID substitution mechanism https://eips.ethereum.org/EIPS/eip-1155#metadata[defined in the EIP]. Clients calling this function must replace the `\\{id\\}` substring with the actual token type ID."
      }
    },
    "stateVariables": {
      "DENOMINATOR": {
        "custom:section": "** CONSTANTS **"
      },
      "_avoiders": {
        "details": "ADDED for gETH*"
      },
      "_middlewares": {
        "details": "There can be multiple Middlewares for 1 staking pool.ADDED for gETH*"
      },
      "_pricePerShare": {
        "details": "Freshly created IDs should return 1e18 since initally 1 ETH = 1 gETHADDED for gETH*"
      },
      "_priceUpdateTimestamp": {
        "details": "ADDED for gETH*"
      },
      "name": {
        "custom:section": "** VARIABLES **"
      }
    },
    "title": "gETH : Geode Finance Liquid Staking Derivatives",
    "version": 1
  },
  "userdoc": {
    "kind": "user",
    "methods": {
      "avoidMiddlewares(uint256,bool)": {
        "notice": "Restrict any affect of middlewares on the tokens of caller"
      },
      "constructor": {
        "notice": "Sets name, symbol, uri and grants necessary roles."
      },
      "denominator()": {
        "notice": "a centralized denominator for all contract using gETH"
      },
      "isAvoider(address,uint256)": {
        "notice": "Checks if the given address restricts the affect of the middlewares on their gETH"
      },
      "isMiddleware(address,uint256)": {
        "notice": "Check if an address is approved as a middleware for an ID"
      },
      "setMiddleware(address,uint256,bool)": {
        "notice": "Set an address of a contract that will act as a middleware on gETH contract for a specific ID"
      },
      "setPricePerShare(uint256,uint256)": {
        "notice": "Only ORACLE can call this function and set price"
      },
      "transferMiddlewareManagerRole(address)": {
        "notice": "transfers the authorized party for middleware management"
      },
      "transferMinterRole(address)": {
        "notice": "transfers the authorized party for Minting operations related to minting"
      },
      "transferOracleRole(address)": {
        "notice": "transfers the authorized party for Oracle operations related to pricing"
      },
      "transferPauserRole(address)": {
        "notice": "transfers the authorized party for Pausing operations."
      },
      "transferUriSetterRole(address)": {
        "notice": "transfers the authorized party for setting a new uri."
      }
    },
    "version": 1
  },
  "storageLayout": {
    "storage": [
      {
        "astId": 22899,
        "contract": "contracts/gETH.sol:gETH",
        "label": "_balances",
        "offset": 0,
        "slot": "0",
        "type": "t_mapping(t_uint256,t_mapping(t_address,t_uint256))"
      },
      {
        "astId": 22905,
        "contract": "contracts/gETH.sol:gETH",
        "label": "_operatorApprovals",
        "offset": 0,
        "slot": "1",
        "type": "t_mapping(t_address,t_mapping(t_address,t_bool))"
      },
      {
        "astId": 22907,
        "contract": "contracts/gETH.sol:gETH",
        "label": "_uri",
        "offset": 0,
        "slot": "2",
        "type": "t_string_storage"
      },
      {
        "astId": 2441,
        "contract": "contracts/gETH.sol:gETH",
        "label": "_roles",
        "offset": 0,
        "slot": "3",
        "type": "t_mapping(t_bytes32,t_struct(RoleData)2436_storage)"
      },
      {
        "astId": 4373,
        "contract": "contracts/gETH.sol:gETH",
        "label": "_paused",
        "offset": 0,
        "slot": "4",
        "type": "t_bool"
      },
      {
        "astId": 24026,
        "contract": "contracts/gETH.sol:gETH",
        "label": "_totalSupply",
        "offset": 0,
        "slot": "5",
        "type": "t_mapping(t_uint256,t_uint256)"
      },
      {
        "astId": 24028,
        "contract": "contracts/gETH.sol:gETH",
        "label": "_totalSupplyAll",
        "offset": 0,
        "slot": "6",
        "type": "t_uint256"
      },
      {
        "astId": 21723,
        "contract": "contracts/gETH.sol:gETH",
        "label": "name",
        "offset": 0,
        "slot": "7",
        "type": "t_string_storage"
      },
      {
        "astId": 21725,
        "contract": "contracts/gETH.sol:gETH",
        "label": "symbol",
        "offset": 0,
        "slot": "8",
        "type": "t_string_storage"
      },
      {
        "astId": 21732,
        "contract": "contracts/gETH.sol:gETH",
        "label": "_middlewares",
        "offset": 0,
        "slot": "9",
        "type": "t_mapping(t_uint256,t_mapping(t_address,t_bool))"
      },
      {
        "astId": 21739,
        "contract": "contracts/gETH.sol:gETH",
        "label": "_avoiders",
        "offset": 0,
        "slot": "10",
        "type": "t_mapping(t_address,t_mapping(t_uint256,t_bool))"
      },
      {
        "astId": 21744,
        "contract": "contracts/gETH.sol:gETH",
        "label": "_pricePerShare",
        "offset": 0,
        "slot": "11",
        "type": "t_mapping(t_uint256,t_uint256)"
      },
      {
        "astId": 21749,
        "contract": "contracts/gETH.sol:gETH",
        "label": "_priceUpdateTimestamp",
        "offset": 0,
        "slot": "12",
        "type": "t_mapping(t_uint256,t_uint256)"
      }
    ],
    "types": {
      "t_address": {
        "encoding": "inplace",
        "label": "address",
        "numberOfBytes": "20"
      },
      "t_bool": {
        "encoding": "inplace",
        "label": "bool",
        "numberOfBytes": "1"
      },
      "t_bytes32": {
        "encoding": "inplace",
        "label": "bytes32",
        "numberOfBytes": "32"
      },
      "t_mapping(t_address,t_bool)": {
        "encoding": "mapping",
        "key": "t_address",
        "label": "mapping(address => bool)",
        "numberOfBytes": "32",
        "value": "t_bool"
      },
      "t_mapping(t_address,t_mapping(t_address,t_bool))": {
        "encoding": "mapping",
        "key": "t_address",
        "label": "mapping(address => mapping(address => bool))",
        "numberOfBytes": "32",
        "value": "t_mapping(t_address,t_bool)"
      },
      "t_mapping(t_address,t_mapping(t_uint256,t_bool))": {
        "encoding": "mapping",
        "key": "t_address",
        "label": "mapping(address => mapping(uint256 => bool))",
        "numberOfBytes": "32",
        "value": "t_mapping(t_uint256,t_bool)"
      },
      "t_mapping(t_address,t_uint256)": {
        "encoding": "mapping",
        "key": "t_address",
        "label": "mapping(address => uint256)",
        "numberOfBytes": "32",
        "value": "t_uint256"
      },
      "t_mapping(t_bytes32,t_struct(RoleData)2436_storage)": {
        "encoding": "mapping",
        "key": "t_bytes32",
        "label": "mapping(bytes32 => struct AccessControl.RoleData)",
        "numberOfBytes": "32",
        "value": "t_struct(RoleData)2436_storage"
      },
      "t_mapping(t_uint256,t_bool)": {
        "encoding": "mapping",
        "key": "t_uint256",
        "label": "mapping(uint256 => bool)",
        "numberOfBytes": "32",
        "value": "t_bool"
      },
      "t_mapping(t_uint256,t_mapping(t_address,t_bool))": {
        "encoding": "mapping",
        "key": "t_uint256",
        "label": "mapping(uint256 => mapping(address => bool))",
        "numberOfBytes": "32",
        "value": "t_mapping(t_address,t_bool)"
      },
      "t_mapping(t_uint256,t_mapping(t_address,t_uint256))": {
        "encoding": "mapping",
        "key": "t_uint256",
        "label": "mapping(uint256 => mapping(address => uint256))",
        "numberOfBytes": "32",
        "value": "t_mapping(t_address,t_uint256)"
      },
      "t_mapping(t_uint256,t_uint256)": {
        "encoding": "mapping",
        "key": "t_uint256",
        "label": "mapping(uint256 => uint256)",
        "numberOfBytes": "32",
        "value": "t_uint256"
      },
      "t_string_storage": {
        "encoding": "bytes",
        "label": "string",
        "numberOfBytes": "32"
      },
      "t_struct(RoleData)2436_storage": {
        "encoding": "inplace",
        "label": "struct AccessControl.RoleData",
        "members": [
          {
            "astId": 2433,
            "contract": "contracts/gETH.sol:gETH",
            "label": "hasRole",
            "offset": 0,
            "slot": "0",
            "type": "t_mapping(t_address,t_bool)"
          },
          {
            "astId": 2435,
            "contract": "contracts/gETH.sol:gETH",
            "label": "adminRole",
            "offset": 0,
            "slot": "1",
            "type": "t_bytes32"
          }
        ],
        "numberOfBytes": "64"
      },
      "t_uint256": {
        "encoding": "inplace",
        "label": "uint256",
        "numberOfBytes": "32"
      }
    }
  }
}