{
  "address": "0x53898a4f73f6a338605a6cB82f2B7d2E803B30ed",
  "abi": [
    {
      "inputs": [
        {
          "internalType": "address",
          "name": "_gETHPos",
          "type": "address"
        },
        {
          "internalType": "address",
          "name": "_portalPos",
          "type": "address"
        },
        {
          "internalType": "address",
          "name": "_LPTokenRef",
          "type": "address"
        }
      ],
      "stateMutability": "nonpayable",
      "type": "constructor"
    },
    {
      "inputs": [
        {
          "internalType": "address",
          "name": "target",
          "type": "address"
        }
      ],
      "name": "AddressEmptyCode",
      "type": "error"
    },
    {
      "inputs": [],
      "name": "ERC1167FailedCreateClone",
      "type": "error"
    },
    {
      "inputs": [
        {
          "internalType": "address",
          "name": "implementation",
          "type": "address"
        }
      ],
      "name": "ERC1967InvalidImplementation",
      "type": "error"
    },
    {
      "inputs": [],
      "name": "ERC1967NonPayable",
      "type": "error"
    },
    {
      "inputs": [],
      "name": "EnforcedPause",
      "type": "error"
    },
    {
      "inputs": [],
      "name": "ExpectedPause",
      "type": "error"
    },
    {
      "inputs": [],
      "name": "FailedInnerCall",
      "type": "error"
    },
    {
      "inputs": [],
      "name": "InvalidInitialization",
      "type": "error"
    },
    {
      "inputs": [],
      "name": "NotInitializing",
      "type": "error"
    },
    {
      "inputs": [],
      "name": "ReentrancyGuardReentrantCall",
      "type": "error"
    },
    {
      "inputs": [],
      "name": "UUPSUnauthorizedCallContext",
      "type": "error"
    },
    {
      "inputs": [
        {
          "internalType": "bytes32",
          "name": "slot",
          "type": "bytes32"
        }
      ],
      "name": "UUPSUnsupportedProxiableUUID",
      "type": "error"
    },
    {
      "anonymous": false,
      "inputs": [
        {
          "indexed": true,
          "internalType": "address",
          "name": "provider",
          "type": "address"
        },
        {
          "indexed": false,
          "internalType": "uint256[2]",
          "name": "tokenAmounts",
          "type": "uint256[2]"
        },
        {
          "indexed": false,
          "internalType": "uint256[2]",
          "name": "fees",
          "type": "uint256[2]"
        },
        {
          "indexed": false,
          "internalType": "uint256",
          "name": "invariant",
          "type": "uint256"
        },
        {
          "indexed": false,
          "internalType": "uint256",
          "name": "lpTokenSupply",
          "type": "uint256"
        }
      ],
      "name": "AddLiquidity",
      "type": "event"
    },
    {
      "anonymous": false,
      "inputs": [
        {
          "indexed": false,
          "internalType": "uint256",
          "name": "ID",
          "type": "uint256"
        }
      ],
      "name": "Approved",
      "type": "event"
    },
    {
      "anonymous": false,
      "inputs": [
        {
          "indexed": false,
          "internalType": "uint256",
          "name": "version",
          "type": "uint256"
        }
      ],
      "name": "ContractVersionSet",
      "type": "event"
    },
    {
      "anonymous": false,
      "inputs": [
        {
          "indexed": true,
          "internalType": "uint256",
          "name": "ID",
          "type": "uint256"
        },
        {
          "indexed": false,
          "internalType": "address",
          "name": "CONTROLLER",
          "type": "address"
        }
      ],
      "name": "ControllerChanged",
      "type": "event"
    },
    {
      "anonymous": false,
      "inputs": [
        {
          "indexed": false,
          "internalType": "uint64",
          "name": "version",
          "type": "uint64"
        }
      ],
      "name": "Initialized",
      "type": "event"
    },
    {
      "anonymous": false,
      "inputs": [
        {
          "indexed": false,
          "internalType": "uint256",
          "name": "newAdminFee",
          "type": "uint256"
        }
      ],
      "name": "NewAdminFee",
      "type": "event"
    },
    {
      "anonymous": false,
      "inputs": [
        {
          "indexed": false,
          "internalType": "address",
          "name": "senate",
          "type": "address"
        },
        {
          "indexed": false,
          "internalType": "uint256",
          "name": "expiry",
          "type": "uint256"
        }
      ],
      "name": "NewSenate",
      "type": "event"
    },
    {
      "anonymous": false,
      "inputs": [
        {
          "indexed": false,
          "internalType": "uint256",
          "name": "newSwapFee",
          "type": "uint256"
        }
      ],
      "name": "NewSwapFee",
      "type": "event"
    },
    {
      "anonymous": false,
      "inputs": [
        {
          "indexed": false,
          "internalType": "uint256",
          "name": "newWithdrawFee",
          "type": "uint256"
        }
      ],
      "name": "NewWithdrawFee",
      "type": "event"
    },
    {
      "anonymous": false,
      "inputs": [
        {
          "indexed": false,
          "internalType": "address",
          "name": "account",
          "type": "address"
        }
      ],
      "name": "Paused",
      "type": "event"
    },
    {
      "anonymous": false,
      "inputs": [
        {
          "indexed": true,
          "internalType": "uint256",
          "name": "TYPE",
          "type": "uint256"
        },
        {
          "indexed": false,
          "internalType": "uint256",
          "name": "ID",
          "type": "uint256"
        },
        {
          "indexed": false,
          "internalType": "address",
          "name": "CONTROLLER",
          "type": "address"
        },
        {
          "indexed": false,
          "internalType": "uint256",
          "name": "deadline",
          "type": "uint256"
        }
      ],
      "name": "Proposed",
      "type": "event"
    },
    {
      "anonymous": false,
      "inputs": [
        {
          "indexed": false,
          "internalType": "uint256",
          "name": "oldA",
          "type": "uint256"
        },
        {
          "indexed": false,
          "internalType": "uint256",
          "name": "newA",
          "type": "uint256"
        },
        {
          "indexed": false,
          "internalType": "uint256",
          "name": "initialTime",
          "type": "uint256"
        },
        {
          "indexed": false,
          "internalType": "uint256",
          "name": "futureTime",
          "type": "uint256"
        }
      ],
      "name": "RampA",
      "type": "event"
    },
    {
      "anonymous": false,
      "inputs": [
        {
          "indexed": false,
          "internalType": "uint256",
          "name": "oldA",
          "type": "uint256"
        },
        {
          "indexed": false,
          "internalType": "uint256",
          "name": "newA",
          "type": "uint256"
        },
        {
          "indexed": false,
          "internalType": "uint256",
          "name": "initialTime",
          "type": "uint256"
        },
        {
          "indexed": false,
          "internalType": "uint256",
          "name": "futureTime",
          "type": "uint256"
        }
      ],
      "name": "RampA",
      "type": "event"
    },
    {
      "anonymous": false,
      "inputs": [
        {
          "indexed": true,
          "internalType": "address",
          "name": "provider",
          "type": "address"
        },
        {
          "indexed": false,
          "internalType": "uint256[2]",
          "name": "tokenAmounts",
          "type": "uint256[2]"
        },
        {
          "indexed": false,
          "internalType": "uint256",
          "name": "lpTokenSupply",
          "type": "uint256"
        }
      ],
      "name": "RemoveLiquidity",
      "type": "event"
    },
    {
      "anonymous": false,
      "inputs": [
        {
          "indexed": true,
          "internalType": "address",
          "name": "provider",
          "type": "address"
        },
        {
          "indexed": false,
          "internalType": "uint256[2]",
          "name": "tokenAmounts",
          "type": "uint256[2]"
        },
        {
          "indexed": false,
          "internalType": "uint256[2]",
          "name": "fees",
          "type": "uint256[2]"
        },
        {
          "indexed": false,
          "internalType": "uint256",
          "name": "invariant",
          "type": "uint256"
        },
        {
          "indexed": false,
          "internalType": "uint256",
          "name": "lpTokenSupply",
          "type": "uint256"
        }
      ],
      "name": "RemoveLiquidityImbalance",
      "type": "event"
    },
    {
      "anonymous": false,
      "inputs": [
        {
          "indexed": true,
          "internalType": "address",
          "name": "provider",
          "type": "address"
        },
        {
          "indexed": false,
          "internalType": "uint256",
          "name": "lpTokenAmount",
          "type": "uint256"
        },
        {
          "indexed": false,
          "internalType": "uint256",
          "name": "lpTokenSupply",
          "type": "uint256"
        },
        {
          "indexed": false,
          "internalType": "uint256",
          "name": "boughtId",
          "type": "uint256"
        },
        {
          "indexed": false,
          "internalType": "uint256",
          "name": "tokensBought",
          "type": "uint256"
        }
      ],
      "name": "RemoveLiquidityOne",
      "type": "event"
    },
    {
      "anonymous": false,
      "inputs": [
        {
          "indexed": false,
          "internalType": "uint256",
          "name": "currentA",
          "type": "uint256"
        },
        {
          "indexed": false,
          "internalType": "uint256",
          "name": "time",
          "type": "uint256"
        }
      ],
      "name": "StopRampA",
      "type": "event"
    },
    {
      "anonymous": false,
      "inputs": [
        {
          "indexed": false,
          "internalType": "uint256",
          "name": "currentA",
          "type": "uint256"
        },
        {
          "indexed": false,
          "internalType": "uint256",
          "name": "time",
          "type": "uint256"
        }
      ],
      "name": "StopRampA",
      "type": "event"
    },
    {
      "anonymous": false,
      "inputs": [
        {
          "indexed": true,
          "internalType": "address",
          "name": "buyer",
          "type": "address"
        },
        {
          "indexed": false,
          "internalType": "uint256",
          "name": "tokensSold",
          "type": "uint256"
        },
        {
          "indexed": false,
          "internalType": "uint256",
          "name": "tokensBought",
          "type": "uint256"
        },
        {
          "indexed": false,
          "internalType": "uint128",
          "name": "soldId",
          "type": "uint128"
        },
        {
          "indexed": false,
          "internalType": "uint128",
          "name": "boughtId",
          "type": "uint128"
        }
      ],
      "name": "TokenSwap",
      "type": "event"
    },
    {
      "anonymous": false,
      "inputs": [
        {
          "indexed": false,
          "internalType": "address",
          "name": "account",
          "type": "address"
        }
      ],
      "name": "Unpaused",
      "type": "event"
    },
    {
      "anonymous": false,
      "inputs": [
        {
          "indexed": true,
          "internalType": "address",
          "name": "implementation",
          "type": "address"
        }
      ],
      "name": "Upgraded",
      "type": "event"
    },
    {
      "inputs": [],
      "name": "GeodeParams",
      "outputs": [
        {
          "internalType": "address",
          "name": "governance",
          "type": "address"
        },
        {
          "internalType": "address",
          "name": "senate",
          "type": "address"
        },
        {
          "internalType": "address",
          "name": "approvedUpgrade",
          "type": "address"
        },
        {
          "internalType": "uint256",
          "name": "senateExpiry",
          "type": "uint256"
        },
        {
          "internalType": "uint256",
          "name": "packageType",
          "type": "uint256"
        }
      ],
      "stateMutability": "view",
      "type": "function"
    },
    {
      "inputs": [],
      "name": "LiquidityParams",
      "outputs": [
        {
          "internalType": "address",
          "name": "gETH",
          "type": "address"
        },
        {
          "internalType": "address",
          "name": "lpToken",
          "type": "address"
        },
        {
          "internalType": "uint256",
          "name": "pooledTokenId",
          "type": "uint256"
        },
        {
          "internalType": "uint256",
          "name": "initialA",
          "type": "uint256"
        },
        {
          "internalType": "uint256",
          "name": "futureA",
          "type": "uint256"
        },
        {
          "internalType": "uint256",
          "name": "initialATime",
          "type": "uint256"
        },
        {
          "internalType": "uint256",
          "name": "futureATime",
          "type": "uint256"
        },
        {
          "internalType": "uint256",
          "name": "swapFee",
          "type": "uint256"
        },
        {
          "internalType": "uint256",
          "name": "adminFee",
          "type": "uint256"
        }
      ],
      "stateMutability": "view",
      "type": "function"
    },
    {
      "inputs": [],
      "name": "UPGRADE_INTERFACE_VERSION",
      "outputs": [
        {
          "internalType": "string",
          "name": "",
          "type": "string"
        }
      ],
      "stateMutability": "view",
      "type": "function"
    },
    {
      "inputs": [
        {
          "internalType": "uint256[2]",
          "name": "amounts",
          "type": "uint256[2]"
        },
        {
          "internalType": "uint256",
          "name": "minToMint",
          "type": "uint256"
        },
        {
          "internalType": "uint256",
          "name": "deadline",
          "type": "uint256"
        }
      ],
      "name": "addLiquidity",
      "outputs": [
        {
          "internalType": "uint256",
          "name": "",
          "type": "uint256"
        }
      ],
      "stateMutability": "payable",
      "type": "function"
    },
    {
      "inputs": [
        {
          "internalType": "uint256",
          "name": "_type",
          "type": "uint256"
        },
        {
          "internalType": "uint256",
          "name": "_index",
          "type": "uint256"
        }
      ],
      "name": "allIdsByType",
      "outputs": [
        {
          "internalType": "uint256",
          "name": "",
          "type": "uint256"
        }
      ],
      "stateMutability": "view",
      "type": "function"
    },
    {
      "inputs": [
        {
          "internalType": "uint256",
          "name": "_type",
          "type": "uint256"
        }
      ],
      "name": "allIdsByTypeLength",
      "outputs": [
        {
          "internalType": "uint256",
          "name": "",
          "type": "uint256"
        }
      ],
      "stateMutability": "view",
      "type": "function"
    },
    {
      "inputs": [
        {
          "internalType": "uint256",
          "name": "id",
          "type": "uint256"
        }
      ],
      "name": "approveProposal",
      "outputs": [
        {
          "internalType": "address",
          "name": "_controller",
          "type": "address"
        },
        {
          "internalType": "uint256",
          "name": "_type",
          "type": "uint256"
        },
        {
          "internalType": "bytes",
          "name": "_name",
          "type": "bytes"
        }
      ],
      "stateMutability": "nonpayable",
      "type": "function"
    },
    {
      "inputs": [
        {
          "internalType": "uint256",
          "name": "amount",
          "type": "uint256"
        }
      ],
      "name": "calculateRemoveLiquidity",
      "outputs": [
        {
          "internalType": "uint256[2]",
          "name": "",
          "type": "uint256[2]"
        }
      ],
      "stateMutability": "view",
      "type": "function"
    },
    {
      "inputs": [
        {
          "internalType": "uint256",
          "name": "tokenAmount",
          "type": "uint256"
        },
        {
          "internalType": "uint8",
          "name": "tokenIndex",
          "type": "uint8"
        }
      ],
      "name": "calculateRemoveLiquidityOneToken",
      "outputs": [
        {
          "internalType": "uint256",
          "name": "availableTokenAmount",
          "type": "uint256"
        }
      ],
      "stateMutability": "view",
      "type": "function"
    },
    {
      "inputs": [
        {
          "internalType": "uint8",
          "name": "tokenIndexFrom",
          "type": "uint8"
        },
        {
          "internalType": "uint8",
          "name": "tokenIndexTo",
          "type": "uint8"
        },
        {
          "internalType": "uint256",
          "name": "dx",
          "type": "uint256"
        }
      ],
      "name": "calculateSwap",
      "outputs": [
        {
          "internalType": "uint256",
          "name": "",
          "type": "uint256"
        }
      ],
      "stateMutability": "view",
      "type": "function"
    },
    {
      "inputs": [
        {
          "internalType": "uint256[2]",
          "name": "amounts",
          "type": "uint256[2]"
        },
        {
          "internalType": "bool",
          "name": "deposit",
          "type": "bool"
        }
      ],
      "name": "calculateTokenAmount",
      "outputs": [
        {
          "internalType": "uint256",
          "name": "",
          "type": "uint256"
        }
      ],
      "stateMutability": "view",
      "type": "function"
    },
    {
      "inputs": [
        {
          "internalType": "uint256",
          "name": "id",
          "type": "uint256"
        },
        {
          "internalType": "address",
          "name": "newCONTROLLER",
          "type": "address"
        }
      ],
      "name": "changeIdCONTROLLER",
      "outputs": [],
      "stateMutability": "nonpayable",
      "type": "function"
    },
    {
      "inputs": [
        {
          "internalType": "address",
          "name": "_newSenate",
          "type": "address"
        }
      ],
      "name": "changeSenate",
      "outputs": [],
      "stateMutability": "nonpayable",
      "type": "function"
    },
    {
      "inputs": [
        {
          "internalType": "string",
          "name": "_name",
          "type": "string"
        },
        {
          "internalType": "uint256",
          "name": "_type",
          "type": "uint256"
        }
      ],
      "name": "generateId",
      "outputs": [
        {
          "internalType": "uint256",
          "name": "id",
          "type": "uint256"
        }
      ],
      "stateMutability": "pure",
      "type": "function"
    },
    {
      "inputs": [],
      "name": "getA",
      "outputs": [
        {
          "internalType": "uint256",
          "name": "",
          "type": "uint256"
        }
      ],
      "stateMutability": "view",
      "type": "function"
    },
    {
      "inputs": [],
      "name": "getAPrecise",
      "outputs": [
        {
          "internalType": "uint256",
          "name": "",
          "type": "uint256"
        }
      ],
      "stateMutability": "view",
      "type": "function"
    },
    {
      "inputs": [
        {
          "internalType": "uint256",
          "name": "index",
          "type": "uint256"
        }
      ],
      "name": "getAdminBalance",
      "outputs": [
        {
          "internalType": "uint256",
          "name": "",
          "type": "uint256"
        }
      ],
      "stateMutability": "view",
      "type": "function"
    },
    {
      "inputs": [
        {
          "internalType": "uint8",
          "name": "index",
          "type": "uint8"
        }
      ],
      "name": "getBalance",
      "outputs": [
        {
          "internalType": "uint256",
          "name": "",
          "type": "uint256"
        }
      ],
      "stateMutability": "view",
      "type": "function"
    },
    {
      "inputs": [],
      "name": "getContractVersion",
      "outputs": [
        {
          "internalType": "uint256",
          "name": "",
          "type": "uint256"
        }
      ],
      "stateMutability": "view",
      "type": "function"
    },
    {
      "inputs": [],
      "name": "getDebt",
      "outputs": [
        {
          "internalType": "uint256",
          "name": "",
          "type": "uint256"
        }
      ],
      "stateMutability": "view",
      "type": "function"
    },
    {
      "inputs": [],
      "name": "getGovernance",
      "outputs": [
        {
          "internalType": "address",
          "name": "",
          "type": "address"
        }
      ],
      "stateMutability": "view",
      "type": "function"
    },
    {
      "inputs": [
        {
          "internalType": "uint256",
          "name": "_id",
          "type": "uint256"
        },
        {
          "internalType": "bytes32",
          "name": "_param",
          "type": "bytes32"
        }
      ],
      "name": "getKey",
      "outputs": [
        {
          "internalType": "bytes32",
          "name": "key",
          "type": "bytes32"
        }
      ],
      "stateMutability": "pure",
      "type": "function"
    },
    {
      "inputs": [],
      "name": "getPoolId",
      "outputs": [
        {
          "internalType": "uint256",
          "name": "",
          "type": "uint256"
        }
      ],
      "stateMutability": "view",
      "type": "function"
    },
    {
      "inputs": [
        {
          "internalType": "uint256",
          "name": "id",
          "type": "uint256"
        }
      ],
      "name": "getProposal",
      "outputs": [
        {
          "components": [
            {
              "internalType": "address",
              "name": "CONTROLLER",
              "type": "address"
            },
            {
              "internalType": "uint256",
              "name": "TYPE",
              "type": "uint256"
            },
            {
              "internalType": "bytes",
              "name": "NAME",
              "type": "bytes"
            },
            {
              "internalType": "uint256",
              "name": "deadline",
              "type": "uint256"
            }
          ],
          "internalType": "struct Proposal",
          "name": "proposal",
          "type": "tuple"
        }
      ],
      "stateMutability": "view",
      "type": "function"
    },
    {
      "inputs": [],
      "name": "getProposedVersion",
      "outputs": [
        {
          "internalType": "uint256",
          "name": "",
          "type": "uint256"
        }
      ],
      "stateMutability": "view",
      "type": "function"
    },
    {
      "inputs": [],
      "name": "getVirtualPrice",
      "outputs": [
        {
          "internalType": "uint256",
          "name": "",
          "type": "uint256"
        }
      ],
      "stateMutability": "view",
      "type": "function"
    },
    {
      "inputs": [
        {
          "internalType": "uint256",
          "name": "pooledTokenId",
          "type": "uint256"
        },
        {
          "internalType": "address",
          "name": "poolOwner",
          "type": "address"
        },
        {
          "internalType": "bytes",
          "name": "versionName",
          "type": "bytes"
        },
        {
          "internalType": "bytes",
          "name": "data",
          "type": "bytes"
        }
      ],
      "name": "initialize",
      "outputs": [],
      "stateMutability": "nonpayable",
      "type": "function"
    },
    {
      "inputs": [],
      "name": "isolationMode",
      "outputs": [
        {
          "internalType": "bool",
          "name": "",
          "type": "bool"
        }
      ],
      "stateMutability": "view",
      "type": "function"
    },
    {
      "inputs": [
        {
          "internalType": "address",
          "name": "",
          "type": "address"
        },
        {
          "internalType": "address",
          "name": "",
          "type": "address"
        },
        {
          "internalType": "uint256[]",
          "name": "",
          "type": "uint256[]"
        },
        {
          "internalType": "uint256[]",
          "name": "",
          "type": "uint256[]"
        },
        {
          "internalType": "bytes",
          "name": "",
          "type": "bytes"
        }
      ],
      "name": "onERC1155BatchReceived",
      "outputs": [
        {
          "internalType": "bytes4",
          "name": "",
          "type": "bytes4"
        }
      ],
      "stateMutability": "nonpayable",
      "type": "function"
    },
    {
      "inputs": [
        {
          "internalType": "address",
          "name": "",
          "type": "address"
        },
        {
          "internalType": "address",
          "name": "",
          "type": "address"
        },
        {
          "internalType": "uint256",
          "name": "",
          "type": "uint256"
        },
        {
          "internalType": "uint256",
          "name": "",
          "type": "uint256"
        },
        {
          "internalType": "bytes",
          "name": "",
          "type": "bytes"
        }
      ],
      "name": "onERC1155Received",
      "outputs": [
        {
          "internalType": "bytes4",
          "name": "",
          "type": "bytes4"
        }
      ],
      "stateMutability": "nonpayable",
      "type": "function"
    },
    {
      "inputs": [],
      "name": "pause",
      "outputs": [],
      "stateMutability": "nonpayable",
      "type": "function"
    },
    {
      "inputs": [],
      "name": "paused",
      "outputs": [
        {
          "internalType": "bool",
          "name": "",
          "type": "bool"
        }
      ],
      "stateMutability": "view",
      "type": "function"
    },
    {
      "inputs": [
        {
          "internalType": "address",
          "name": "_CONTROLLER",
          "type": "address"
        },
        {
          "internalType": "uint256",
          "name": "_TYPE",
          "type": "uint256"
        },
        {
          "internalType": "bytes",
          "name": "_NAME",
          "type": "bytes"
        },
        {
          "internalType": "uint256",
          "name": "duration",
          "type": "uint256"
        }
      ],
      "name": "propose",
      "outputs": [
        {
          "internalType": "uint256",
          "name": "id",
          "type": "uint256"
        }
      ],
      "stateMutability": "nonpayable",
      "type": "function"
    },
    {
      "inputs": [],
      "name": "proxiableUUID",
      "outputs": [
        {
          "internalType": "bytes32",
          "name": "",
          "type": "bytes32"
        }
      ],
      "stateMutability": "view",
      "type": "function"
    },
    {
      "inputs": [],
      "name": "pullUpgrade",
      "outputs": [],
      "stateMutability": "nonpayable",
      "type": "function"
    },
    {
      "inputs": [
        {
          "internalType": "uint256",
          "name": "futureA",
          "type": "uint256"
        },
        {
          "internalType": "uint256",
          "name": "futureTime",
          "type": "uint256"
        }
      ],
      "name": "rampA",
      "outputs": [],
      "stateMutability": "nonpayable",
      "type": "function"
    },
    {
      "inputs": [
        {
          "internalType": "uint256",
          "name": "id",
          "type": "uint256"
        },
        {
          "internalType": "bytes32",
          "name": "key",
          "type": "bytes32"
        }
      ],
      "name": "readAddress",
      "outputs": [
        {
          "internalType": "address",
          "name": "data",
          "type": "address"
        }
      ],
      "stateMutability": "view",
      "type": "function"
    },
    {
      "inputs": [
        {
          "internalType": "uint256",
          "name": "id",
          "type": "uint256"
        },
        {
          "internalType": "bytes32",
          "name": "key",
          "type": "bytes32"
        },
        {
          "internalType": "uint256",
          "name": "index",
          "type": "uint256"
        }
      ],
      "name": "readAddressArray",
      "outputs": [
        {
          "internalType": "address",
          "name": "data",
          "type": "address"
        }
      ],
      "stateMutability": "view",
      "type": "function"
    },
    {
      "inputs": [
        {
          "internalType": "uint256",
          "name": "id",
          "type": "uint256"
        },
        {
          "internalType": "bytes32",
          "name": "key",
          "type": "bytes32"
        }
      ],
      "name": "readBytes",
      "outputs": [
        {
          "internalType": "bytes",
          "name": "data",
          "type": "bytes"
        }
      ],
      "stateMutability": "view",
      "type": "function"
    },
    {
      "inputs": [
        {
          "internalType": "uint256",
          "name": "id",
          "type": "uint256"
        },
        {
          "internalType": "bytes32",
          "name": "key",
          "type": "bytes32"
        },
        {
          "internalType": "uint256",
          "name": "index",
          "type": "uint256"
        }
      ],
      "name": "readBytesArray",
      "outputs": [
        {
          "internalType": "bytes",
          "name": "data",
          "type": "bytes"
        }
      ],
      "stateMutability": "view",
      "type": "function"
    },
    {
      "inputs": [
        {
          "internalType": "uint256",
          "name": "id",
          "type": "uint256"
        },
        {
          "internalType": "bytes32",
          "name": "key",
          "type": "bytes32"
        }
      ],
      "name": "readUint",
      "outputs": [
        {
          "internalType": "uint256",
          "name": "data",
          "type": "uint256"
        }
      ],
      "stateMutability": "view",
      "type": "function"
    },
    {
      "inputs": [
        {
          "internalType": "uint256",
          "name": "id",
          "type": "uint256"
        },
        {
          "internalType": "bytes32",
          "name": "key",
          "type": "bytes32"
        },
        {
          "internalType": "uint256",
          "name": "index",
          "type": "uint256"
        }
      ],
      "name": "readUintArray",
      "outputs": [
        {
          "internalType": "uint256",
          "name": "data",
          "type": "uint256"
        }
      ],
      "stateMutability": "view",
      "type": "function"
    },
    {
      "inputs": [
        {
          "internalType": "uint256",
          "name": "amount",
          "type": "uint256"
        },
        {
          "internalType": "uint256[2]",
          "name": "minAmounts",
          "type": "uint256[2]"
        },
        {
          "internalType": "uint256",
          "name": "deadline",
          "type": "uint256"
        }
      ],
      "name": "removeLiquidity",
      "outputs": [
        {
          "internalType": "uint256[2]",
          "name": "",
          "type": "uint256[2]"
        }
      ],
      "stateMutability": "nonpayable",
      "type": "function"
    },
    {
      "inputs": [
        {
          "internalType": "uint256[2]",
          "name": "amounts",
          "type": "uint256[2]"
        },
        {
          "internalType": "uint256",
          "name": "maxBurnAmount",
          "type": "uint256"
        },
        {
          "internalType": "uint256",
          "name": "deadline",
          "type": "uint256"
        }
      ],
      "name": "removeLiquidityImbalance",
      "outputs": [
        {
          "internalType": "uint256",
          "name": "",
          "type": "uint256"
        }
      ],
      "stateMutability": "nonpayable",
      "type": "function"
    },
    {
      "inputs": [
        {
          "internalType": "uint256",
          "name": "tokenAmount",
          "type": "uint256"
        },
        {
          "internalType": "uint8",
          "name": "tokenIndex",
          "type": "uint8"
        },
        {
          "internalType": "uint256",
          "name": "minAmount",
          "type": "uint256"
        },
        {
          "internalType": "uint256",
          "name": "deadline",
          "type": "uint256"
        }
      ],
      "name": "removeLiquidityOneToken",
      "outputs": [
        {
          "internalType": "uint256",
          "name": "",
          "type": "uint256"
        }
      ],
      "stateMutability": "nonpayable",
      "type": "function"
    },
    {
      "inputs": [
        {
          "internalType": "address",
          "name": "_newSenate",
          "type": "address"
        }
      ],
      "name": "rescueSenate",
      "outputs": [],
      "stateMutability": "nonpayable",
      "type": "function"
    },
    {
      "inputs": [
        {
          "internalType": "uint256",
          "name": "newAdminFee",
          "type": "uint256"
        }
      ],
      "name": "setAdminFee",
      "outputs": [],
      "stateMutability": "nonpayable",
      "type": "function"
    },
    {
      "inputs": [
        {
          "internalType": "uint256",
          "name": "newSwapFee",
          "type": "uint256"
        }
      ],
      "name": "setSwapFee",
      "outputs": [],
      "stateMutability": "nonpayable",
      "type": "function"
    },
    {
      "inputs": [],
      "name": "stopRampA",
      "outputs": [],
      "stateMutability": "nonpayable",
      "type": "function"
    },
    {
      "inputs": [
        {
          "internalType": "bytes4",
          "name": "interfaceId",
          "type": "bytes4"
        }
      ],
      "name": "supportsInterface",
      "outputs": [
        {
          "internalType": "bool",
          "name": "",
          "type": "bool"
        }
      ],
      "stateMutability": "view",
      "type": "function"
    },
    {
      "inputs": [
        {
          "internalType": "uint8",
          "name": "tokenIndexFrom",
          "type": "uint8"
        },
        {
          "internalType": "uint8",
          "name": "tokenIndexTo",
          "type": "uint8"
        },
        {
          "internalType": "uint256",
          "name": "dx",
          "type": "uint256"
        },
        {
          "internalType": "uint256",
          "name": "minDy",
          "type": "uint256"
        },
        {
          "internalType": "uint256",
          "name": "deadline",
          "type": "uint256"
        }
      ],
      "name": "swap",
      "outputs": [
        {
          "internalType": "uint256",
          "name": "",
          "type": "uint256"
        }
      ],
      "stateMutability": "payable",
      "type": "function"
    },
    {
      "inputs": [],
      "name": "unpause",
      "outputs": [],
      "stateMutability": "nonpayable",
      "type": "function"
    },
    {
      "inputs": [
        {
          "internalType": "address",
          "name": "newImplementation",
          "type": "address"
        },
        {
          "internalType": "bytes",
          "name": "data",
          "type": "bytes"
        }
      ],
      "name": "upgradeToAndCall",
      "outputs": [],
      "stateMutability": "payable",
      "type": "function"
    },
    {
      "inputs": [
        {
          "internalType": "address",
          "name": "receiver",
          "type": "address"
        }
      ],
      "name": "withdrawAdminFees",
      "outputs": [],
      "stateMutability": "nonpayable",
      "type": "function"
    },
    {
      "stateMutability": "payable",
      "type": "receive"
    }
  ],
  "transactionHash": "0x0613e6eb6d72f290ed0a27de99e027429df4db810bfdd2ede98a44ff1b079cba",
  "args": [
    "0x4C49FC86F3fC418216b2B44C8bEA16437219bA78",
    "0x5280b0EC68aE2524a137Bba0A8B95020ff98899d",
    "0x655a91fE4db66AcDF8bd3358D2f556b3b0f6499B"
  ],
  "numDeployments": 1,
  "solcInputHash": "61510320e155ddc5271d2656d1a4fd97",
  "bytecode": "0x610100604052306080523480156200001657600080fd5b506040516200473b3803806200473b833981016040819052620000399162000242565b6001600160a01b038316620000955760405162461bcd60e51b815260206004820152601c60248201527f4c50503a5f67455448506f732063616e206e6f74206265207a65726f0000000060448201526064015b60405180910390fd5b6001600160a01b038216620000ed5760405162461bcd60e51b815260206004820152601e60248201527f4c50503a5f706f7274616c506f732063616e206e6f74206265207a65726f000060448201526064016200008c565b6001600160a01b038116620001455760405162461bcd60e51b815260206004820152601f60248201527f4c50503a5f4c50546f6b656e5265662063616e206e6f74206265207a65726f0060448201526064016200008c565b6001600160a01b0380841660a05282811660c052811660e0526200016862000171565b5050506200028c565b7ff0c57e16840df040f15088dc2f81fe391c3923bec73e23a9662efc9c229c6a00805468010000000000000000900460ff1615620001c25760405163f92ee8a960e01b815260040160405180910390fd5b80546001600160401b0390811614620002225780546001600160401b0319166001600160401b0390811782556040519081527fc7f505b2f371ae2175ee4913f4499e1f2633a7b5936321eed1cdaeb6115181d29060200160405180910390a15b50565b80516001600160a01b03811681146200023d57600080fd5b919050565b6000806000606084860312156200025857600080fd5b620002638462000225565b9250620002736020850162000225565b9150620002836040850162000225565b90509250925092565b60805160a05160c05160e051614467620002d4600039600061288c015260006128390152600061286b015260008181612191015281816121ba01526123d301526144676000f3fe6080604052600436106103395760003560e01c80638beb60b6116101ab578063c4db7fa0116100f7578063e25aa5fa11610095578063e768887e1161006f578063e768887e146109fe578063ef0a712f14610a1e578063f23a6e6114610a3e578063f2fad2b614610a6a57600080fd5b8063e25aa5fa146109a9578063e3a12480146109be578063e72b1d6d146109de57600080fd5b8063d4fd01ce116100d1578063d4fd01ce146108d8578063d6f0df621461093c578063dab840c714610969578063e02a52081461098957600080fd5b8063c4db7fa014610881578063c7f758a814610896578063d46300fd146108c357600080fd5b8063ad3cb1cc11610164578063aec988631161013e578063aec98863146107e7578063b0630715146107fc578063bc197c811461081c578063bfc65c9b1461086157600080fd5b8063ad3cb1cc14610748578063ad4ac4c414610779578063ad8655cb146107c757600080fd5b80638beb60b61461068657806391695586146106a657806398951b56146106b95780639934b281146106e857806399ac48ba14610708578063a95b089f1461072857600080fd5b806352d1902d116102855780636d07e404116102235780637e0ccbff116101fd5780637e0ccbff146106275780638456cb59146106475780638650c0721461065c5780638aa104351461067157600080fd5b80636d07e404146105c557806372267954146105e5578063745653de1461061257600080fd5b8063593d132c1161025f578063593d132c146105265780635a34bb15146105465780635c975abb146105665780635d9e085d1461058b57600080fd5b806352d1902d146104d15780635329512b146104e657806356a72dbf1461050657600080fd5b806334e19907116102f25780633e3a1560116102cc5780633e3a1560146104765780633f4ba83a1461049657806346eda749146104ab5780634f1ef286146104be57600080fd5b806334e199071461041f57806338fff2d0146104415780633b8ba8621461045657600080fd5b806301ffc9a7146103455780630ba819591461037a57806314a6bf0f1461039d5780631da71591146103b2578063289b3c0d146103d2578063342a87a1146103ff57600080fd5b3661034057005b600080fd5b34801561035157600080fd5b5061036561036036600461370b565b610a8a565b60405190151581526020015b60405180910390f35b34801561038657600080fd5b5061038f610ac1565b604051908152602001610371565b3480156103a957600080fd5b5061038f610add565b3480156103be57600080fd5b5061038f6103cd366004613735565b610b60565b3480156103de57600080fd5b506103e7610b73565b6040516001600160a01b039091168152602001610371565b34801561040b57600080fd5b5061038f61041a366004613768565b610b8e565b34801561042b57600080fd5b5061043f61043a366004613794565b610c28565b005b34801561044d57600080fd5b5061038f610cdb565b34801561046257600080fd5b5061038f61047136600461380a565b610cee565b34801561048257600080fd5b5061038f61049136600461386d565b610d99565b3480156104a257600080fd5b5061043f610e7f565b61038f6104b93660046138b9565b610ebc565b61043f6104cc3660046139b0565b610f93565b3480156104dd57600080fd5b5061038f610fb2565b3480156104f257600080fd5b506103e76105013660046139ff565b610fcf565b34801561051257600080fd5b5061038f610521366004613735565b610ff5565b34801561053257600080fd5b5061043f610541366004613735565b611011565b34801561055257600080fd5b5061038f610561366004613a2b565b611058565b34801561057257600080fd5b506000805160206143f28339815191525460ff16610365565b34801561059757600080fd5b5061038f6105a6366004613794565b60009081526000805160206143b2833981519152602052604090205490565b3480156105d157600080fd5b5061043f6105e0366004613a76565b61108f565b3480156105f157600080fd5b50610605610600366004613735565b61111a565b6040516103719190613af6565b34801561061e57600080fd5b5061038f611136565b34801561063357600080fd5b5061038f610642366004613b17565b61118d565b34801561065357600080fd5b5061043f6111d6565b34801561066857600080fd5b50610365611211565b34801561067d57600080fd5b5061038f61139c565b34801561069257600080fd5b5061043f6106a1366004613794565b6113b1565b61038f6106b4366004613b44565b61142c565b3480156106c557600080fd5b506106d96106d4366004613794565b61151a565b60405161037193929190613b91565b3480156106f457600080fd5b5061043f610703366004613bb8565b6115ea565b34801561071457600080fd5b506103e7610723366004613735565b611702565b34801561073457600080fd5b5061038f610743366004613c43565b61171e565b34801561075457600080fd5b50610605604051806040016040528060058152602001640352e302e360dc1b81525081565b34801561078557600080fd5b5061078e6117b8565b604080516001600160a01b039687168152948616602086015292909416918301919091526060820152608081019190915260a001610371565b3480156107d357600080fd5b5061043f6107e2366004613c7f565b6117ff565b3480156107f357600080fd5b5061043f611853565b34801561080857600080fd5b5061043f610817366004613c7f565b611a73565b34801561082857600080fd5b50610848610837366004613d10565b63bc197c8160e01b95945050505050565b6040516001600160e01b03199091168152602001610371565b34801561086d57600080fd5b5061038f61087c3660046138b9565b611af6565b34801561088d57600080fd5b5061043f611b71565b3480156108a257600080fd5b506108b66108b1366004613794565b611bb4565b6040516103719190613dbd565b3480156108cf57600080fd5b5061038f611c74565b3480156108e457600080fd5b506108ed611c8a565b604080516001600160a01b039a8b1681529990981660208a0152968801959095526060870193909352608086019190915260a085015260c084015260e083015261010082015261012001610371565b34801561094857600080fd5b5061095c610957366004613e0b565b611d14565b6040516103719190613e41565b34801561097557600080fd5b5061043f610984366004613c7f565b611dcd565b34801561099557600080fd5b5061038f6109a4366004613735565b611e21565b3480156109b557600080fd5b5061038f611e64565b3480156109ca57600080fd5b5061038f6109d9366004613e72565b611eaa565b3480156109ea57600080fd5b5061038f6109f93660046139ff565b611ed8565b348015610a0a57600080fd5b50610605610a193660046139ff565b611ef5565b348015610a2a57600080fd5b5061038f610a39366004613794565b611f12565b348015610a4a57600080fd5b50610848610a59366004613e8d565b63f23a6e6160e01b95945050505050565b348015610a7657600080fd5b5061095c610a85366004613794565b611f9b565b60006001600160e01b03198216630271189760e51b1480610abb57506301ffc9a760e01b6001600160e01b03198316145b92915050565b600080610acc61202a565b9050610ad78161204e565b91505090565b600080610ae861202a565b6040516320487f3760e21b81526004810182905290915073648633aC0bA2Bfc29eDe0C47a5Dce3C02F611a2F90638121fcdc906024015b602060405180830381865af4158015610b3c573d6000803e3d6000fd5b505050506040513d601f19601f82011682018060405250810190610ad79190613ef5565b6000610b6c8383612059565b9392505050565b600080610b7e612085565b546001600160a01b031692915050565b600080610b9961202a565b60405162a834bf60e41b8152600481018290526024810186905260ff8516604482015290915073648633aC0bA2Bfc29eDe0C47a5Dce3C02F611a2F90630a834bf0906064015b602060405180830381865af4158015610bfc573d6000803e3d6000fd5b505050506040513d601f19601f82011682018060405250810190610c209190613ef5565b949350505050565b610c30612085565b600101546001600160a01b03163314610c645760405162461bcd60e51b8152600401610c5b90613f0e565b60405180910390fd5b610c6c61202a565b60405163201c5a7d60e01b815260048101919091526024810182905273648633aC0bA2Bfc29eDe0C47a5Dce3C02F611a2F9063201c5a7d906044015b60006040518083038186803b158015610cc057600080fd5b505af4158015610cd4573d6000803e3d6000fd5b5050505050565b6000610ce561202a565b60020154905090565b600080610cf9612085565b6040516318ffae5d60e21b815290915073EDC21cd663b77Dd21299638732A747d703553114906363feb97490610d4d9084906000805160206143b2833981519152908c908c908c908c908c90600401613f65565b602060405180830381865af4158015610d6a573d6000803e3d6000fd5b505050506040513d601f19601f82011682018060405250810190610d8e9190613ef5565b979650505050505050565b6000610da36120a9565b610dab6120e1565b8180421115610dcc5760405162461bcd60e51b8152600401610c5b90613fad565b6000610dd661202a565b604051630fc067cb60e11b8152600481018290526024810189905260ff881660448201526064810187905290915073648633aC0bA2Bfc29eDe0C47a5Dce3C02F611a2F90631f80cf9690608401602060405180830381865af4158015610e40573d6000803e3d6000fd5b505050506040513d601f19601f82011682018060405250810190610e649190613ef5565b92505050610c20600160008051602061441283398151915255565b610e87612085565b600101546001600160a01b03163314610eb25760405162461bcd60e51b8152600401610c5b90613f0e565b610eba612126565b565b6000610ec66120a9565b610ece6120e1565b8180421115610eef5760405162461bcd60e51b8152600401610c5b90613fad565b6000610ef961202a565b6040516326ed844360e11b815290915073648633aC0bA2Bfc29eDe0C47a5Dce3C02F611a2F90634ddb088690610f379084908a908a90600401613fda565b602060405180830381865af4158015610f54573d6000803e3d6000fd5b505050506040513d601f19601f82011682018060405250810190610f789190613ef5565b92505050610b6c600160008051602061441283398151915255565b610f9b612186565b610fa482612214565b610fae8282612306565b5050565b6000610fbc6123c8565b506000805160206143d283398151915290565b60006000805160206143b2833981519152610fec81868686612411565b95945050505050565b60006000805160206143b2833981519152610c2081858561244f565b611019612085565b600101546001600160a01b031633146110445760405162461bcd60e51b8152600401610c5b90613f0e565b610fae828261105161202a565b9190612479565b600083838360405160200161106f93929190613ff7565b60408051601f198184030181529190528051602090910120949350505050565b6040516330b2175760e11b81526000805160206143b28339815191526004820152602481018390526001600160a01b038216604482015273EDC21cd663b77Dd21299638732A747d703553114906361642eae906064015b60006040518083038186803b1580156110fe57600080fd5b505af4158015611112573d6000803e3d6000fd5b505050505050565b60606000805160206143b2833981519152610c208185856126f3565b600080611141612085565b8054600480830154604051630eca989d60e11b8152918201529192506001600160a01b031690631d95313a90602401602060405180830381865afa158015610b3c573d6000803e3d6000fd5b60008061119861202a565b604051635587fcc560e01b815290915073648633aC0bA2Bfc29eDe0C47a5Dce3C02F611a2F90635587fcc590610bdf9084908890889060040161401b565b6111de612085565b600101546001600160a01b031633146112095760405162461bcd60e51b8152600401610c5b90613f0e565b610eba6127a5565b600061122c6000805160206143f28339815191525460ff1690565b156112375750600190565b6000611241612085565b8054600480830154604051630eca989d60e11b8152918201529192506001600160a01b031690631d95313a90602401602060405180830381865afa15801561128d573d6000803e3d6000fd5b505050506040513d601f19601f820116820180604052508101906112b19190613ef5565b8160050154146112c357600191505090565b6112cb6127ee565b60028201546001600160a01b039081169116146112ea57600191505090565b600181015481546001600160a01b0391821691166399ac48ba61130b610cdb565b6040516001600160e01b031960e084901b16815260048101919091526921a7a72a2927a62622a960b11b6024820152604401602060405180830381865afa15801561135a573d6000803e3d6000fd5b505050506040513d601f19601f8201168201806040525081019061137e919061403a565b6001600160a01b03161461139457600191505090565b600091505090565b6000806113a7612085565b6005015492915050565b6113b9612085565b600101546001600160a01b031633146113e45760405162461bcd60e51b8152600401610c5b90613f0e565b6113ec61202a565b604051632395e8cb60e01b815260048101919091526024810182905273648633aC0bA2Bfc29eDe0C47a5Dce3C02F611a2F90632395e8cb90604401610ca8565b60006114366120a9565b61143e6120e1565b818042111561145f5760405162461bcd60e51b8152600401610c5b90613fad565b600061146961202a565b6040516309f9fc1360e01b81526004810182905260ff808b16602483015289166044820152606481018890526084810187905290915073648633aC0bA2Bfc29eDe0C47a5Dce3C02F611a2F906309f9fc139060a401602060405180830381865af41580156114db573d6000803e3d6000fd5b505050506040513d601f19601f820116820180604052508101906114ff9190613ef5565b92505050610fec600160008051602061441283398151915255565b60008060606000611529612085565b905073EDC21cd663b77Dd21299638732A747d703553114636dc129ae826000805160206143b28339815191526040516001600160e01b031960e085901b1681526004810192909252602482015260448101889052606401600060405180830381865af415801561159d573d6000803e3d6000fd5b505050506040513d6000823e601f3d908101601f191682016040526115c5919081019061409c565b6004840154929650909450925083036115e2576115e2848661280a565b509193909250565b7ff0c57e16840df040f15088dc2f81fe391c3923bec73e23a9662efc9c229c6a008054600160401b810460ff1615906001600160401b031660008115801561162f5750825b90506000826001600160401b0316600114801561164b5750303b155b905081158015611659575080155b156116775760405163f92ee8a960e01b815260040160405180910390fd5b845467ffffffffffffffff1916600117855583156116a157845460ff60401b1916600160401b1785555b6116af8b8b8b8b8b8b61282c565b83156116f557845460ff60401b19168555604051600181527fc7f505b2f371ae2175ee4913f4499e1f2633a7b5936321eed1cdaeb6115181d29060200160405180910390a15b5050505050505050505050565b60006000805160206143b2833981519152610c2081858561290f565b60008061172961202a565b604051631b569c9760e01b81526004810182905260ff8088166024830152861660448201526064810185905290915073648633aC0bA2Bfc29eDe0C47a5Dce3C02F611a2F90631b569c9790608401602060405180830381865af4158015611794573d6000803e3d6000fd5b505050506040513d601f19601f82011682018060405250810190610fec9190613ef5565b6000806000806000806117c9612085565b80546001820154600283015460038401546004909401546001600160a01b039384169b9284169a50921697509195509350915050565b6000611809612085565b6040516361ac0f7160e11b8152600481018290526001600160a01b038416602482015290915073EDC21cd663b77Dd21299638732A747d7035531149063c3581ee2906044016110e6565b61185b612085565b600101546001600160a01b031633146118865760405162461bcd60e51b8152600401610c5b90613f0e565b6000611890612085565b805460408051634328603960e11b815290519293506001600160a01b03909116918291638650c0729160048083019260209291908290030181865afa1580156118dd573d6000803e3d6000fd5b505050506040513d601f19601f8201168201806040525081019061190191906140f5565b156119475760405162461bcd60e51b81526020600482015260166024820152751314140e941bdc9d185b081a5cc81a5cdbdb185d195960521b6044820152606401610c5b565b600482810154604051630eca989d60e11b8152918201526001600160a01b03821690631d95313a90602401602060405180830381865afa15801561198f573d6000803e3d6000fd5b505050506040513d601f19601f820116820180604052508101906119b39190613ef5565b8260050154036119f75760405162461bcd60e51b815260206004820152600f60248201526e4c50503a6e6f20757067726164657360881b6044820152606401610c5b565b60048281015460405163e3099e0960e01b8152918201526000906001600160a01b0383169063e3099e09906024016020604051808303816000875af1158015611a44573d6000803e3d6000fd5b505050506040513d601f19601f82011682018060405250810190611a689190613ef5565b90506111128161151a565b611a7b612085565b600101546001600160a01b03163314611aa65760405162461bcd60e51b8152600401610c5b90613f0e565b611aae61202a565b604051633d1ff01560e01b815260048101919091526001600160a01b038216602482015273648633aC0bA2Bfc29eDe0C47a5Dce3C02F611a2F90633d1ff01590604401610ca8565b6000611b006120a9565b611b086120e1565b8180421115611b295760405162461bcd60e51b8152600401610c5b90613fad565b6000611b3361202a565b60405163ee18375560e01b815290915073648633aC0bA2Bfc29eDe0C47a5Dce3C02F611a2F9063ee18375590610f379084908a908a90600401613fda565b611b79612085565b600101546001600160a01b03163314611ba45760405162461bcd60e51b8152600401610c5b90613f0e565b610eba611baf61202a565b612943565b611be8604051806080016040528060006001600160a01b031681526020016000815260200160608152602001600081525090565b6000611bf2612085565b6040516337a3804160e11b8152600481018290526024810185905290915073EDC21cd663b77Dd21299638732A747d70355311490636f47008290604401600060405180830381865af4158015611c4c573d6000803e3d6000fd5b505050506040513d6000823e601f3d908101601f19168201604052610b6c9190810190614112565b600080611c7f61202a565b9050610ad781612a04565b600080600080600080600080600080611ca161202a565b90508060000160009054906101000a90046001600160a01b031699508060010160009054906101000a90046001600160a01b031698508060020154975080600301549650806004015495508060050154945080600601549350806007015492508060080154915050909192939495969798565b611d1c6136ed565b611d246120a9565b8180421115611d455760405162461bcd60e51b8152600401610c5b90613fad565b6000611d4f61202a565b604051631c894ec960e01b815290915073648633aC0bA2Bfc29eDe0C47a5Dce3C02F611a2F90631c894ec990611d8d9084908a908a906004016141be565b6040805180830381865af4158015611da9573d6000803e3d6000fd5b505050506040513d601f19601f82011682018060405250810190610f7891906141db565b6000611dd7612085565b6040516307c0451b60e11b8152600481018290526001600160a01b038416602482015290915073EDC21cd663b77Dd21299638732A747d70355311490630f808a36906044016110e6565b60008281526000805160206143b2833981519152602081905260408220805484908110611e5057611e5061425a565b906000526020600020015491505092915050565b600080611e6f61202a565b604051632cca48e160e01b81526004810182905290915073648633aC0bA2Bfc29eDe0C47a5Dce3C02F611a2F90632cca48e190602401610b1f565b600080611eb561202a565b9050806009018360ff1660028110611ecf57611ecf61425a565b01549392505050565b60006000805160206143b2833981519152610fec81868686612a1b565b60606000805160206143b2833981519152610fec81868686612a4a565b600080611f1d61202a565b60405163d5bc0b7b60e01b8152600481018290526024810185905290915073648633aC0bA2Bfc29eDe0C47a5Dce3C02F611a2F9063d5bc0b7b90604401602060405180830381865af4158015611f77573d6000803e3d6000fd5b505050506040513d601f19601f82011682018060405250810190610b6c9190613ef5565b611fa36136ed565b6000611fad61202a565b604051630f6d2ddf60e21b8152600481018290526024810185905290915073648633aC0bA2Bfc29eDe0C47a5Dce3C02F611a2F90633db4b77c906044016040805180830381865af4158015612006573d6000803e3d6000fd5b505050506040513d601f19601f82011682018060405250810190610b6c91906141db565b7fbf570a7b0f42d13b79178a015638486db13c20a3e56dc93ef0739ba4e0119a0090565b6000610abb82612b01565b604080516020808201949094528082019290925280518083038201815260609092019052805191012090565b7f121584cf2b7b1dee51ceaabc76cdefc72f829ce42dd8cc5282d8e9f009b0420090565b6000805160206144128339815191528054600119016120db57604051633ee5aeb560e01b815260040160405180910390fd5b60029055565b6000805160206143f28339815191525460ff1615610eba5760405163d93c066560e01b815260040160405180910390fd5b600160008051602061441283398151915255565b61212e612bab565b6000805160206143f2833981519152805460ff191681557f5db9ee0a495bf2e6ff9c91a7834c1ba4fdd244a5e8aa4e537bd38aeae4b073aa335b6040516001600160a01b03909116815260200160405180910390a150565b306001600160a01b037f00000000000000000000000000000000000000000000000000000000000000001614806121f657507f00000000000000000000000000000000000000000000000000000000000000006001600160a01b03166121ea6127ee565b6001600160a01b031614155b15610eba5760405163703e46dd60e11b815260040160405180910390fd5b600061221e612085565b905073EDC21cd663b77Dd21299638732A747d70355311463b57e6b0b82846122446127ee565b6040516001600160e01b031960e086901b16815260048101939093526001600160a01b039182166024840152166044820152606401602060405180830381865af4158015612296573d6000803e3d6000fd5b505050506040513d601f19601f820116820180604052508101906122ba91906140f5565b610fae5760405162461bcd60e51b815260206004820152601960248201527f474d3a6e6f7420616c6c6f77656420746f2075706772616465000000000000006044820152606401610c5b565b816001600160a01b03166352d1902d6040518163ffffffff1660e01b8152600401602060405180830381865afa925050508015612360575060408051601f3d908101601f1916820190925261235d91810190613ef5565b60015b61238857604051634c9c8ce360e01b81526001600160a01b0383166004820152602401610c5b565b6000805160206143d283398151915281146123b957604051632a87526960e21b815260048101829052602401610c5b565b6123c38383612bdb565b505050565b306001600160a01b037f00000000000000000000000000000000000000000000000000000000000000001614610eba5760405163703e46dd60e11b815260040160405180910390fd5b600084600301600061242c846124278888612059565b612059565b81526020810191909152604001600020546001600160a01b031695945050505050565b60008360010160006124618585612059565b81526020019081526020016000205490509392505050565b600583015461248b9062015180614286565b4210156124e55760405162461bcd60e51b815260206004820152602260248201527f414c3a57616974203120646179206265666f7265207374617274696e6720726160448201526106d760f41b6064820152608401610c5b565b6124f26212750042614286565b8110156125415760405162461bcd60e51b815260206004820152601960248201527f414c3a496e73756666696369656e742072616d702074696d65000000000000006044820152606401610c5b565b6000821180156125535750620f424082105b6125ab5760405162461bcd60e51b815260206004820152602360248201527f414c3a667574757265415f206d757374206265203e203020616e64203c204d41604482015262585f4160e81b6064820152608401610c5b565b60006125b684612b01565b905060006125c5606485614299565b90508181101561262e57816125db600283614299565b10156126295760405162461bcd60e51b815260206004820152601860248201527f414c3a667574757265415f20697320746f6f20736d616c6c00000000000000006044820152606401610c5b565b612688565b612639600283614299565b8111156126885760405162461bcd60e51b815260206004820152601860248201527f414c3a667574757265415f20697320746f6f206c6172676500000000000000006044820152606401610c5b565b600385018290556004850181905542600586018190556006860184905560408051848152602081018490528082019290925260608201859052517fa2b71ec6df949300b59aab36b55e189697b750119dd349fcfa8c0f779e83c2549181900360800190a15050505050565b60608360020160006127058585612059565b8152602001908152602001600020805461271e906142b0565b80601f016020809104026020016040519081016040528092919081815260200182805461274a906142b0565b80156127975780601f1061276c57610100808354040283529160200191612797565b820191906000526020600020905b81548152906001019060200180831161277a57829003601f168201915b505050505090509392505050565b6127ad6120e1565b6000805160206143f2833981519152805460ff191660011781557f62e78cea01bee320cd4e420270b5ea74000d11b0c9f74754ebdbfc544b05a25833612168565b6000805160206143d2833981519152546001600160a01b031690565b6128238260405180602001604052806000815250610f93565b610fae81612c31565b612834612c75565b6128667f0000000000000000000000000000000000000000000000000000000000000000866000196127258888612cbe565b6129077f00000000000000000000000000000000000000000000000000000000000000007f000000000000000000000000000000000000000000000000000000000000000088603c6127106128c16402540be4006004614299565b6128cb91906142ea565b87878080601f016020809104026020016040519081016040528093929190818152602001838380828437600092019190915250612ce492505050565b611112612d12565b60008360030160006129218585612059565b81526020810191909152604001600020546001600160a01b0316949350505050565b428160060154116129965760405162461bcd60e51b815260206004820152601a60248201527f414c3a52616d7020697320616c72656164792073746f707065640000000000006044820152606401610c5b565b60006129a182612b01565b60038301819055600483018190554260058401819055600684018190556040519192507f46e22fb3709ad289f62ce63d469248536dbc78d82b84a3d7e74ad606dc201938916129f891848252602082015260400190565b60405180910390a15050565b60006064612a1183612b01565b610abb91906142ea565b6000846001016000612a31846124278888612059565b8152602001908152602001600020549050949350505050565b6060846002016000612a60846124278888612059565b81526020019081526020016000208054612a79906142b0565b80601f0160208091040260200160405190810160405280929190818152602001828054612aa5906142b0565b8015612af25780601f10612ac757610100808354040283529160200191612af2565b820191906000526020600020905b815481529060010190602001808311612ad557829003601f168201915b50505050509050949350505050565b600681015460048201546000919042821115610b6c576005840154600385015480831115612b6f57612b33828561430c565b612b3d834261430c565b612b47838661430c565b612b519190614299565b612b5b91906142ea565b612b659082614286565b9695505050505050565b612b79828561430c565b612b83834261430c565b612b8d858461430c565b612b979190614299565b612ba191906142ea565b612b65908261430c565b6000805160206143f28339815191525460ff16610eba57604051638dfc202b60e01b815260040160405180910390fd5b612be482612d1a565b6040516001600160a01b038316907fbc7cd75a20ee27fd9adebab32041f755214dbc6bffa90cc0225b39da2e5c2d3b90600090a2805115612c29576123c38282612d7f565b610fae612dec565b6000612c3b612085565b600581018390556040518381529091507ffddcded6b4f4730c226821172046b48372d3cd963c159701ae1b7c3bcac541bb906020016129f8565b7ff0c57e16840df040f15088dc2f81fe391c3923bec73e23a9662efc9c229c6a0054600160401b900460ff16610eba57604051631afcd79f60e31b815260040160405180910390fd5b612cc6612c75565b612cce612d12565b612cd6612d12565b611112868686868686612e0b565b612cec612c75565b612cf4613198565b612cfc6131a8565b612d04612d12565b6111128686868686866131b8565b610eba612c75565b806001600160a01b03163b600003612d5057604051634c9c8ce360e01b81526001600160a01b0382166004820152602401610c5b565b6000805160206143d283398151915280546001600160a01b0319166001600160a01b0392909216919091179055565b6060600080846001600160a01b031684604051612d9c919061431f565b600060405180830381855af49150503d8060008114612dd7576040519150601f19603f3d011682016040523d82523d6000602084013e612ddc565b606091505b5091509150610fec858383613596565b3415610eba5760405163b398979f60e01b815260040160405180910390fd5b612e13612c75565b6001600160a01b038616612e695760405162461bcd60e51b815260206004820152601d60248201527f474d3a676f7665726e616e63652063616e206e6f74206265207a65726f0000006044820152606401610c5b565b6001600160a01b038516612ebf5760405162461bcd60e51b815260206004820152601960248201527f474d3a73656e6174652063616e206e6f74206265207a65726f000000000000006044820152606401610c5b565b428411612f045760405162461bcd60e51b8152602060048201526013602482015272474d3a6c6f772073656e61746545787069727960681b6044820152606401610c5b565b82600003612f545760405162461bcd60e51b815260206004820152601e60248201527f474d3a7061636b616765547970652063616e206e6f74206265207a65726f00006044820152606401610c5b565b6000819003612fb15760405162461bcd60e51b815260206004820152602360248201527f474d3a696e697456657273696f6e4e616d652063616e206e6f7420626520656d60448201526270747960e81b6064820152608401610c5b565b6000612fbb612085565b8054336001600160a01b031991821681178355600183018054909216179055600381018690556004810185905590506000805160206143b2833981519152600073EDC21cd663b77Dd21299638732A747d7035531146363feb974848461301f6127ee565b8a8a8a620151806040518863ffffffff1660e01b81526004016130489796959493929190613f65565b602060405180830381865af4158015613065573d6000803e3d6000fd5b505050506040513d601f19601f820116820180604052508101906130899190613ef5565b6040516336e094d760e11b815260048101859052602481018490526044810182905290915073EDC21cd663b77Dd21299638732A747d70355311490636dc129ae90606401600060405180830381865af41580156130ea573d6000803e3d6000fd5b505050506040513d6000823e601f3d908101601f19168201604052613112919081019061409c565b50505061316061315b86868080601f01602080910402602001604051908101604052809392919081815260200183838082843760009201919091525050505060048601546135f2565b612c31565b505080546001600160a01b039788166001600160a01b0319918216178255600190910180549690971695169490941790945550505050565b6131a0612c75565b610eba613626565b6131b0612c75565b610eba61362e565b6131c0612c75565b6001600160a01b0386166132205760405162461bcd60e51b815260206004820152602160248201527f4c4d3a5f674554485f706f736974696f6e2063616e206e6f74206265207a65726044820152606f60f81b6064820152608401610c5b565b6001600160a01b0385166132845760405162461bcd60e51b815260206004820152602560248201527f4c4d3a5f6c70546f6b656e5f7265666572616e63652063616e206e6f74206265604482015264207a65726f60d81b6064820152608401610c5b565b836000036132de5760405162461bcd60e51b815260206004820152602160248201527f4c4d3a5f706f6f6c6564546f6b656e49642063616e206e6f74206265207a65726044820152606f60f81b6064820152608401610c5b565b826000036133265760405162461bcd60e51b81526020600482015260156024820152744c4d3a5f412063616e206e6f74206265207a65726f60581b6044820152606401610c5b565b620f424083106133705760405162461bcd60e51b81526020600482015260156024820152744c4d3a5f412065786365656473206d6178696d756d60581b6044820152606401610c5b565b61338060646402540be4006142ea565b82106133ce5760405162461bcd60e51b815260206004820152601b60248201527f4c4d3a5f737761704665652065786365656473206d6178696d756d00000000006044820152606401610c5b565b60006133d98661364f565b604080518082018252601081526f023b2b7b232902628102a37b5b2b71d160851b60208083019190915282518084018452600381526202d4c560ec1b81830152925193945090926001600160a01b03851691634cd88b769161343f91869189910161433b565b604051602081830303815290604052868460405160200161346192919061433b565b6040516020818303038152906040526040518363ffffffff1660e01b815260040161348d92919061436a565b600060405180830381600087803b1580156134a757600080fd5b505af11580156134bb573d6000803e3d6000fd5b5050505060006134c961202a565b80546001600160a01b03808d166001600160a01b031992831617835560018301805491881691909216179055600281018990559050613509606488614299565b6003820155613519606488614299565b600482810191909155600782018790558154604051630492f6e160e01b81529182018a9052600160248301526001600160a01b031690630492f6e190604401600060405180830381600087803b15801561357257600080fd5b505af1158015613586573d6000803e3d6000fd5b5050505050505050505050505050565b6060826135ab576135a6826136c1565b610b6c565b81511580156135c257506001600160a01b0384163b155b156135eb57604051639996b31560e01b81526001600160a01b0385166004820152602401610c5b565b5080610b6c565b6000828260405160200161360792919061438f565b60408051601f1981840301815291905280516020909101209392505050565b612112612c75565b613636612c75565b6000805160206143f2833981519152805460ff19169055565b6000763d602d80600a3d3981f3363d3d373d3d3d363d730000008260601b60e81c176000526e5af43d82803e903d91602b57fd5bf38260781b17602052603760096000f090506001600160a01b0381166136bc576040516330be1a3d60e21b815260040160405180910390fd5b919050565b8051156136d15780518082602001fd5b604051630a12f52160e11b815260040160405180910390fd5b50565b60405180604001604052806002906020820280368337509192915050565b60006020828403121561371d57600080fd5b81356001600160e01b031981168114610b6c57600080fd5b6000806040838503121561374857600080fd5b50508035926020909101359150565b803560ff811681146136bc57600080fd5b6000806040838503121561377b57600080fd5b8235915061378b60208401613757565b90509250929050565b6000602082840312156137a657600080fd5b5035919050565b6001600160a01b03811681146136ea57600080fd5b60008083601f8401126137d457600080fd5b5081356001600160401b038111156137eb57600080fd5b60208301915083602082850101111561380357600080fd5b9250929050565b60008060008060006080868803121561382257600080fd5b853561382d816137ad565b94506020860135935060408601356001600160401b0381111561384f57600080fd5b61385b888289016137c2565b96999598509660600135949350505050565b6000806000806080858703121561388357600080fd5b8435935061389360208601613757565b93969395505050506040820135916060013590565b8060408101831015610abb57600080fd5b6000806000608084860312156138ce57600080fd5b6138d885856138a8565b95604085013595506060909401359392505050565b634e487b7160e01b600052604160045260246000fd5b604051601f8201601f191681016001600160401b038111828210171561392b5761392b6138ed565b604052919050565b60006001600160401b0382111561394c5761394c6138ed565b50601f01601f191660200190565b600082601f83011261396b57600080fd5b813561397e61397982613933565b613903565b81815284602083860101111561399357600080fd5b816020850160208301376000918101602001919091529392505050565b600080604083850312156139c357600080fd5b82356139ce816137ad565b915060208301356001600160401b038111156139e957600080fd5b6139f58582860161395a565b9150509250929050565b600080600060608486031215613a1457600080fd5b505081359360208301359350604090920135919050565b600080600060408486031215613a4057600080fd5b83356001600160401b03811115613a5657600080fd5b613a62868287016137c2565b909790965060209590950135949350505050565b60008060408385031215613a8957600080fd5b823591506020830135613a9b816137ad565b809150509250929050565b60005b83811015613ac1578181015183820152602001613aa9565b50506000910152565b60008151808452613ae2816020860160208601613aa6565b601f01601f19169290920160200192915050565b602081526000610b6c6020830184613aca565b80151581146136ea57600080fd5b60008060608385031215613b2a57600080fd5b613b3484846138a8565b91506040830135613a9b81613b09565b600080600080600060a08688031215613b5c57600080fd5b613b6586613757565b9450613b7360208701613757565b94979496505050506040830135926060810135926080909101359150565b60018060a01b0384168152826020820152606060408201526000610fec6060830184613aca565b60008060008060008060808789031215613bd157600080fd5b863595506020870135613be3816137ad565b945060408701356001600160401b0380821115613bff57600080fd5b613c0b8a838b016137c2565b90965094506060890135915080821115613c2457600080fd5b50613c3189828a016137c2565b979a9699509497509295939492505050565b600080600060608486031215613c5857600080fd5b613c6184613757565b9250613c6f60208501613757565b9150604084013590509250925092565b600060208284031215613c9157600080fd5b8135610b6c816137ad565b600082601f830112613cad57600080fd5b813560206001600160401b03821115613cc857613cc86138ed565b8160051b613cd7828201613903565b9283528481018201928281019087851115613cf157600080fd5b83870192505b84831015610d8e57823582529183019190830190613cf7565b600080600080600060a08688031215613d2857600080fd5b8535613d33816137ad565b94506020860135613d43816137ad565b935060408601356001600160401b0380821115613d5f57600080fd5b613d6b89838a01613c9c565b94506060880135915080821115613d8157600080fd5b613d8d89838a01613c9c565b93506080880135915080821115613da357600080fd5b50613db08882890161395a565b9150509295509295909350565b6020815260018060a01b038251166020820152602082015160408201526000604083015160806060840152613df560a0840182613aca565b9050606084015160808401528091505092915050565b600080600060808486031215613e2057600080fd5b83359250613e3185602086016138a8565b9150606084013590509250925092565b60408101818360005b6002811015613e69578151835260209283019290910190600101613e4a565b50505092915050565b600060208284031215613e8457600080fd5b610b6c82613757565b600080600080600060a08688031215613ea557600080fd5b8535613eb0816137ad565b94506020860135613ec0816137ad565b9350604086013592506060860135915060808601356001600160401b03811115613ee957600080fd5b613db08882890161395a565b600060208284031215613f0757600080fd5b5051919050565b6020808252601490820152732628281d39b2b73232b9102727aa1037bbb732b960611b604082015260600190565b81835281816020850137506000828201602090810191909152601f909101601f19169091010190565b87815286602082015260018060a01b038616604082015284606082015260c060808201526000613f9960c083018587613f3c565b90508260a083015298975050505050505050565b60208082526013908201527213134e911958591b1a5b99481b9bdd081b595d606a1b604082015260600190565b838152608081016040846020840137826060830152949350505050565b60408152600061400b604083018587613f3c565b9050826020830152949350505050565b8381526080810160408460208401378215156060830152949350505050565b60006020828403121561404c57600080fd5b8151610b6c816137ad565b600082601f83011261406857600080fd5b815161407661397982613933565b81815284602083860101111561408b57600080fd5b610c20826020830160208701613aa6565b6000806000606084860312156140b157600080fd5b83516140bc816137ad565b6020850151604086015191945092506001600160401b038111156140df57600080fd5b6140eb86828701614057565b9150509250925092565b60006020828403121561410757600080fd5b8151610b6c81613b09565b60006020828403121561412457600080fd5b81516001600160401b038082111561413b57600080fd5b908301906080828603121561414f57600080fd5b60405160808101818110838211171561416a5761416a6138ed565b6040528251614178816137ad565b81526020838101519082015260408301518281111561419657600080fd5b6141a287828601614057565b6040830152506060830151606082015280935050505092915050565b838152602081018390526080810160408381840137949350505050565b6000604082840312156141ed57600080fd5b82601f8301126141fc57600080fd5b604051604081018181106001600160401b038211171561421e5761421e6138ed565b806040525080604084018581111561423557600080fd5b845b8181101561424f578051835260209283019201614237565b509195945050505050565b634e487b7160e01b600052603260045260246000fd5b634e487b7160e01b600052601160045260246000fd5b80820180821115610abb57610abb614270565b8082028115828204841417610abb57610abb614270565b600181811c908216806142c457607f821691505b6020821081036142e457634e487b7160e01b600052602260045260246000fd5b50919050565b60008261430757634e487b7160e01b600052601260045260246000fd5b500490565b81810381811115610abb57610abb614270565b60008251614331818460208701613aa6565b9190910192915050565b6000835161434d818460208801613aa6565b835190830190614361818360208801613aa6565b01949350505050565b60408152600061437d6040830185613aca565b8281036020840152610fec8185613aca565b6040815260006143a26040830185613aca565b9050826020830152939250505056fea3ee0f890fa2a50cc11476f86783721ec49c3aba88b83a957fe08235f6485c00360894a13ba1a3210667c828492db98dca3e2076cc3735a920a3ca505d382bbccd5ed15c6e187e77e9aee88184c21f4f2182ab5827cb3b7e07fbedcd63f033009b779b17422d0df92223018b32b4d1fa46e071723d6817e2486d003becc55f00a264697066735822122042cd8c27c5792c7dc02a739ffaf6593fe54fbc198119094e13e0959fbd73fb6c64736f6c63430008140033",
  "deployedBytecode": "0x6080604052600436106103395760003560e01c80638beb60b6116101ab578063c4db7fa0116100f7578063e25aa5fa11610095578063e768887e1161006f578063e768887e146109fe578063ef0a712f14610a1e578063f23a6e6114610a3e578063f2fad2b614610a6a57600080fd5b8063e25aa5fa146109a9578063e3a12480146109be578063e72b1d6d146109de57600080fd5b8063d4fd01ce116100d1578063d4fd01ce146108d8578063d6f0df621461093c578063dab840c714610969578063e02a52081461098957600080fd5b8063c4db7fa014610881578063c7f758a814610896578063d46300fd146108c357600080fd5b8063ad3cb1cc11610164578063aec988631161013e578063aec98863146107e7578063b0630715146107fc578063bc197c811461081c578063bfc65c9b1461086157600080fd5b8063ad3cb1cc14610748578063ad4ac4c414610779578063ad8655cb146107c757600080fd5b80638beb60b61461068657806391695586146106a657806398951b56146106b95780639934b281146106e857806399ac48ba14610708578063a95b089f1461072857600080fd5b806352d1902d116102855780636d07e404116102235780637e0ccbff116101fd5780637e0ccbff146106275780638456cb59146106475780638650c0721461065c5780638aa104351461067157600080fd5b80636d07e404146105c557806372267954146105e5578063745653de1461061257600080fd5b8063593d132c1161025f578063593d132c146105265780635a34bb15146105465780635c975abb146105665780635d9e085d1461058b57600080fd5b806352d1902d146104d15780635329512b146104e657806356a72dbf1461050657600080fd5b806334e19907116102f25780633e3a1560116102cc5780633e3a1560146104765780633f4ba83a1461049657806346eda749146104ab5780634f1ef286146104be57600080fd5b806334e199071461041f57806338fff2d0146104415780633b8ba8621461045657600080fd5b806301ffc9a7146103455780630ba819591461037a57806314a6bf0f1461039d5780631da71591146103b2578063289b3c0d146103d2578063342a87a1146103ff57600080fd5b3661034057005b600080fd5b34801561035157600080fd5b5061036561036036600461370b565b610a8a565b60405190151581526020015b60405180910390f35b34801561038657600080fd5b5061038f610ac1565b604051908152602001610371565b3480156103a957600080fd5b5061038f610add565b3480156103be57600080fd5b5061038f6103cd366004613735565b610b60565b3480156103de57600080fd5b506103e7610b73565b6040516001600160a01b039091168152602001610371565b34801561040b57600080fd5b5061038f61041a366004613768565b610b8e565b34801561042b57600080fd5b5061043f61043a366004613794565b610c28565b005b34801561044d57600080fd5b5061038f610cdb565b34801561046257600080fd5b5061038f61047136600461380a565b610cee565b34801561048257600080fd5b5061038f61049136600461386d565b610d99565b3480156104a257600080fd5b5061043f610e7f565b61038f6104b93660046138b9565b610ebc565b61043f6104cc3660046139b0565b610f93565b3480156104dd57600080fd5b5061038f610fb2565b3480156104f257600080fd5b506103e76105013660046139ff565b610fcf565b34801561051257600080fd5b5061038f610521366004613735565b610ff5565b34801561053257600080fd5b5061043f610541366004613735565b611011565b34801561055257600080fd5b5061038f610561366004613a2b565b611058565b34801561057257600080fd5b506000805160206143f28339815191525460ff16610365565b34801561059757600080fd5b5061038f6105a6366004613794565b60009081526000805160206143b2833981519152602052604090205490565b3480156105d157600080fd5b5061043f6105e0366004613a76565b61108f565b3480156105f157600080fd5b50610605610600366004613735565b61111a565b6040516103719190613af6565b34801561061e57600080fd5b5061038f611136565b34801561063357600080fd5b5061038f610642366004613b17565b61118d565b34801561065357600080fd5b5061043f6111d6565b34801561066857600080fd5b50610365611211565b34801561067d57600080fd5b5061038f61139c565b34801561069257600080fd5b5061043f6106a1366004613794565b6113b1565b61038f6106b4366004613b44565b61142c565b3480156106c557600080fd5b506106d96106d4366004613794565b61151a565b60405161037193929190613b91565b3480156106f457600080fd5b5061043f610703366004613bb8565b6115ea565b34801561071457600080fd5b506103e7610723366004613735565b611702565b34801561073457600080fd5b5061038f610743366004613c43565b61171e565b34801561075457600080fd5b50610605604051806040016040528060058152602001640352e302e360dc1b81525081565b34801561078557600080fd5b5061078e6117b8565b604080516001600160a01b039687168152948616602086015292909416918301919091526060820152608081019190915260a001610371565b3480156107d357600080fd5b5061043f6107e2366004613c7f565b6117ff565b3480156107f357600080fd5b5061043f611853565b34801561080857600080fd5b5061043f610817366004613c7f565b611a73565b34801561082857600080fd5b50610848610837366004613d10565b63bc197c8160e01b95945050505050565b6040516001600160e01b03199091168152602001610371565b34801561086d57600080fd5b5061038f61087c3660046138b9565b611af6565b34801561088d57600080fd5b5061043f611b71565b3480156108a257600080fd5b506108b66108b1366004613794565b611bb4565b6040516103719190613dbd565b3480156108cf57600080fd5b5061038f611c74565b3480156108e457600080fd5b506108ed611c8a565b604080516001600160a01b039a8b1681529990981660208a0152968801959095526060870193909352608086019190915260a085015260c084015260e083015261010082015261012001610371565b34801561094857600080fd5b5061095c610957366004613e0b565b611d14565b6040516103719190613e41565b34801561097557600080fd5b5061043f610984366004613c7f565b611dcd565b34801561099557600080fd5b5061038f6109a4366004613735565b611e21565b3480156109b557600080fd5b5061038f611e64565b3480156109ca57600080fd5b5061038f6109d9366004613e72565b611eaa565b3480156109ea57600080fd5b5061038f6109f93660046139ff565b611ed8565b348015610a0a57600080fd5b50610605610a193660046139ff565b611ef5565b348015610a2a57600080fd5b5061038f610a39366004613794565b611f12565b348015610a4a57600080fd5b50610848610a59366004613e8d565b63f23a6e6160e01b95945050505050565b348015610a7657600080fd5b5061095c610a85366004613794565b611f9b565b60006001600160e01b03198216630271189760e51b1480610abb57506301ffc9a760e01b6001600160e01b03198316145b92915050565b600080610acc61202a565b9050610ad78161204e565b91505090565b600080610ae861202a565b6040516320487f3760e21b81526004810182905290915073__$a20667b2b08306ab755223556dc0492b72$__90638121fcdc906024015b602060405180830381865af4158015610b3c573d6000803e3d6000fd5b505050506040513d601f19601f82011682018060405250810190610ad79190613ef5565b6000610b6c8383612059565b9392505050565b600080610b7e612085565b546001600160a01b031692915050565b600080610b9961202a565b60405162a834bf60e41b8152600481018290526024810186905260ff8516604482015290915073__$a20667b2b08306ab755223556dc0492b72$__90630a834bf0906064015b602060405180830381865af4158015610bfc573d6000803e3d6000fd5b505050506040513d601f19601f82011682018060405250810190610c209190613ef5565b949350505050565b610c30612085565b600101546001600160a01b03163314610c645760405162461bcd60e51b8152600401610c5b90613f0e565b60405180910390fd5b610c6c61202a565b60405163201c5a7d60e01b815260048101919091526024810182905273__$a20667b2b08306ab755223556dc0492b72$__9063201c5a7d906044015b60006040518083038186803b158015610cc057600080fd5b505af4158015610cd4573d6000803e3d6000fd5b5050505050565b6000610ce561202a565b60020154905090565b600080610cf9612085565b6040516318ffae5d60e21b815290915073__$dabd46e1bb7f0d62843614b2ceac53b60c$__906363feb97490610d4d9084906000805160206143b2833981519152908c908c908c908c908c90600401613f65565b602060405180830381865af4158015610d6a573d6000803e3d6000fd5b505050506040513d601f19601f82011682018060405250810190610d8e9190613ef5565b979650505050505050565b6000610da36120a9565b610dab6120e1565b8180421115610dcc5760405162461bcd60e51b8152600401610c5b90613fad565b6000610dd661202a565b604051630fc067cb60e11b8152600481018290526024810189905260ff881660448201526064810187905290915073__$a20667b2b08306ab755223556dc0492b72$__90631f80cf9690608401602060405180830381865af4158015610e40573d6000803e3d6000fd5b505050506040513d601f19601f82011682018060405250810190610e649190613ef5565b92505050610c20600160008051602061441283398151915255565b610e87612085565b600101546001600160a01b03163314610eb25760405162461bcd60e51b8152600401610c5b90613f0e565b610eba612126565b565b6000610ec66120a9565b610ece6120e1565b8180421115610eef5760405162461bcd60e51b8152600401610c5b90613fad565b6000610ef961202a565b6040516326ed844360e11b815290915073__$a20667b2b08306ab755223556dc0492b72$__90634ddb088690610f379084908a908a90600401613fda565b602060405180830381865af4158015610f54573d6000803e3d6000fd5b505050506040513d601f19601f82011682018060405250810190610f789190613ef5565b92505050610b6c600160008051602061441283398151915255565b610f9b612186565b610fa482612214565b610fae8282612306565b5050565b6000610fbc6123c8565b506000805160206143d283398151915290565b60006000805160206143b2833981519152610fec81868686612411565b95945050505050565b60006000805160206143b2833981519152610c2081858561244f565b611019612085565b600101546001600160a01b031633146110445760405162461bcd60e51b8152600401610c5b90613f0e565b610fae828261105161202a565b9190612479565b600083838360405160200161106f93929190613ff7565b60408051601f198184030181529190528051602090910120949350505050565b6040516330b2175760e11b81526000805160206143b28339815191526004820152602481018390526001600160a01b038216604482015273__$dabd46e1bb7f0d62843614b2ceac53b60c$__906361642eae906064015b60006040518083038186803b1580156110fe57600080fd5b505af4158015611112573d6000803e3d6000fd5b505050505050565b60606000805160206143b2833981519152610c208185856126f3565b600080611141612085565b8054600480830154604051630eca989d60e11b8152918201529192506001600160a01b031690631d95313a90602401602060405180830381865afa158015610b3c573d6000803e3d6000fd5b60008061119861202a565b604051635587fcc560e01b815290915073__$a20667b2b08306ab755223556dc0492b72$__90635587fcc590610bdf9084908890889060040161401b565b6111de612085565b600101546001600160a01b031633146112095760405162461bcd60e51b8152600401610c5b90613f0e565b610eba6127a5565b600061122c6000805160206143f28339815191525460ff1690565b156112375750600190565b6000611241612085565b8054600480830154604051630eca989d60e11b8152918201529192506001600160a01b031690631d95313a90602401602060405180830381865afa15801561128d573d6000803e3d6000fd5b505050506040513d601f19601f820116820180604052508101906112b19190613ef5565b8160050154146112c357600191505090565b6112cb6127ee565b60028201546001600160a01b039081169116146112ea57600191505090565b600181015481546001600160a01b0391821691166399ac48ba61130b610cdb565b6040516001600160e01b031960e084901b16815260048101919091526921a7a72a2927a62622a960b11b6024820152604401602060405180830381865afa15801561135a573d6000803e3d6000fd5b505050506040513d601f19601f8201168201806040525081019061137e919061403a565b6001600160a01b03161461139457600191505090565b600091505090565b6000806113a7612085565b6005015492915050565b6113b9612085565b600101546001600160a01b031633146113e45760405162461bcd60e51b8152600401610c5b90613f0e565b6113ec61202a565b604051632395e8cb60e01b815260048101919091526024810182905273__$a20667b2b08306ab755223556dc0492b72$__90632395e8cb90604401610ca8565b60006114366120a9565b61143e6120e1565b818042111561145f5760405162461bcd60e51b8152600401610c5b90613fad565b600061146961202a565b6040516309f9fc1360e01b81526004810182905260ff808b16602483015289166044820152606481018890526084810187905290915073__$a20667b2b08306ab755223556dc0492b72$__906309f9fc139060a401602060405180830381865af41580156114db573d6000803e3d6000fd5b505050506040513d601f19601f820116820180604052508101906114ff9190613ef5565b92505050610fec600160008051602061441283398151915255565b60008060606000611529612085565b905073__$dabd46e1bb7f0d62843614b2ceac53b60c$__636dc129ae826000805160206143b28339815191526040516001600160e01b031960e085901b1681526004810192909252602482015260448101889052606401600060405180830381865af415801561159d573d6000803e3d6000fd5b505050506040513d6000823e601f3d908101601f191682016040526115c5919081019061409c565b6004840154929650909450925083036115e2576115e2848661280a565b509193909250565b7ff0c57e16840df040f15088dc2f81fe391c3923bec73e23a9662efc9c229c6a008054600160401b810460ff1615906001600160401b031660008115801561162f5750825b90506000826001600160401b0316600114801561164b5750303b155b905081158015611659575080155b156116775760405163f92ee8a960e01b815260040160405180910390fd5b845467ffffffffffffffff1916600117855583156116a157845460ff60401b1916600160401b1785555b6116af8b8b8b8b8b8b61282c565b83156116f557845460ff60401b19168555604051600181527fc7f505b2f371ae2175ee4913f4499e1f2633a7b5936321eed1cdaeb6115181d29060200160405180910390a15b5050505050505050505050565b60006000805160206143b2833981519152610c2081858561290f565b60008061172961202a565b604051631b569c9760e01b81526004810182905260ff8088166024830152861660448201526064810185905290915073__$a20667b2b08306ab755223556dc0492b72$__90631b569c9790608401602060405180830381865af4158015611794573d6000803e3d6000fd5b505050506040513d601f19601f82011682018060405250810190610fec9190613ef5565b6000806000806000806117c9612085565b80546001820154600283015460038401546004909401546001600160a01b039384169b9284169a50921697509195509350915050565b6000611809612085565b6040516361ac0f7160e11b8152600481018290526001600160a01b038416602482015290915073__$dabd46e1bb7f0d62843614b2ceac53b60c$__9063c3581ee2906044016110e6565b61185b612085565b600101546001600160a01b031633146118865760405162461bcd60e51b8152600401610c5b90613f0e565b6000611890612085565b805460408051634328603960e11b815290519293506001600160a01b03909116918291638650c0729160048083019260209291908290030181865afa1580156118dd573d6000803e3d6000fd5b505050506040513d601f19601f8201168201806040525081019061190191906140f5565b156119475760405162461bcd60e51b81526020600482015260166024820152751314140e941bdc9d185b081a5cc81a5cdbdb185d195960521b6044820152606401610c5b565b600482810154604051630eca989d60e11b8152918201526001600160a01b03821690631d95313a90602401602060405180830381865afa15801561198f573d6000803e3d6000fd5b505050506040513d601f19601f820116820180604052508101906119b39190613ef5565b8260050154036119f75760405162461bcd60e51b815260206004820152600f60248201526e4c50503a6e6f20757067726164657360881b6044820152606401610c5b565b60048281015460405163e3099e0960e01b8152918201526000906001600160a01b0383169063e3099e09906024016020604051808303816000875af1158015611a44573d6000803e3d6000fd5b505050506040513d601f19601f82011682018060405250810190611a689190613ef5565b90506111128161151a565b611a7b612085565b600101546001600160a01b03163314611aa65760405162461bcd60e51b8152600401610c5b90613f0e565b611aae61202a565b604051633d1ff01560e01b815260048101919091526001600160a01b038216602482015273__$a20667b2b08306ab755223556dc0492b72$__90633d1ff01590604401610ca8565b6000611b006120a9565b611b086120e1565b8180421115611b295760405162461bcd60e51b8152600401610c5b90613fad565b6000611b3361202a565b60405163ee18375560e01b815290915073__$a20667b2b08306ab755223556dc0492b72$__9063ee18375590610f379084908a908a90600401613fda565b611b79612085565b600101546001600160a01b03163314611ba45760405162461bcd60e51b8152600401610c5b90613f0e565b610eba611baf61202a565b612943565b611be8604051806080016040528060006001600160a01b031681526020016000815260200160608152602001600081525090565b6000611bf2612085565b6040516337a3804160e11b8152600481018290526024810185905290915073__$dabd46e1bb7f0d62843614b2ceac53b60c$__90636f47008290604401600060405180830381865af4158015611c4c573d6000803e3d6000fd5b505050506040513d6000823e601f3d908101601f19168201604052610b6c9190810190614112565b600080611c7f61202a565b9050610ad781612a04565b600080600080600080600080600080611ca161202a565b90508060000160009054906101000a90046001600160a01b031699508060010160009054906101000a90046001600160a01b031698508060020154975080600301549650806004015495508060050154945080600601549350806007015492508060080154915050909192939495969798565b611d1c6136ed565b611d246120a9565b8180421115611d455760405162461bcd60e51b8152600401610c5b90613fad565b6000611d4f61202a565b604051631c894ec960e01b815290915073__$a20667b2b08306ab755223556dc0492b72$__90631c894ec990611d8d9084908a908a906004016141be565b6040805180830381865af4158015611da9573d6000803e3d6000fd5b505050506040513d601f19601f82011682018060405250810190610f7891906141db565b6000611dd7612085565b6040516307c0451b60e11b8152600481018290526001600160a01b038416602482015290915073__$dabd46e1bb7f0d62843614b2ceac53b60c$__90630f808a36906044016110e6565b60008281526000805160206143b2833981519152602081905260408220805484908110611e5057611e5061425a565b906000526020600020015491505092915050565b600080611e6f61202a565b604051632cca48e160e01b81526004810182905290915073__$a20667b2b08306ab755223556dc0492b72$__90632cca48e190602401610b1f565b600080611eb561202a565b9050806009018360ff1660028110611ecf57611ecf61425a565b01549392505050565b60006000805160206143b2833981519152610fec81868686612a1b565b60606000805160206143b2833981519152610fec81868686612a4a565b600080611f1d61202a565b60405163d5bc0b7b60e01b8152600481018290526024810185905290915073__$a20667b2b08306ab755223556dc0492b72$__9063d5bc0b7b90604401602060405180830381865af4158015611f77573d6000803e3d6000fd5b505050506040513d601f19601f82011682018060405250810190610b6c9190613ef5565b611fa36136ed565b6000611fad61202a565b604051630f6d2ddf60e21b8152600481018290526024810185905290915073__$a20667b2b08306ab755223556dc0492b72$__90633db4b77c906044016040805180830381865af4158015612006573d6000803e3d6000fd5b505050506040513d601f19601f82011682018060405250810190610b6c91906141db565b7fbf570a7b0f42d13b79178a015638486db13c20a3e56dc93ef0739ba4e0119a0090565b6000610abb82612b01565b604080516020808201949094528082019290925280518083038201815260609092019052805191012090565b7f121584cf2b7b1dee51ceaabc76cdefc72f829ce42dd8cc5282d8e9f009b0420090565b6000805160206144128339815191528054600119016120db57604051633ee5aeb560e01b815260040160405180910390fd5b60029055565b6000805160206143f28339815191525460ff1615610eba5760405163d93c066560e01b815260040160405180910390fd5b600160008051602061441283398151915255565b61212e612bab565b6000805160206143f2833981519152805460ff191681557f5db9ee0a495bf2e6ff9c91a7834c1ba4fdd244a5e8aa4e537bd38aeae4b073aa335b6040516001600160a01b03909116815260200160405180910390a150565b306001600160a01b037f00000000000000000000000000000000000000000000000000000000000000001614806121f657507f00000000000000000000000000000000000000000000000000000000000000006001600160a01b03166121ea6127ee565b6001600160a01b031614155b15610eba5760405163703e46dd60e11b815260040160405180910390fd5b600061221e612085565b905073__$dabd46e1bb7f0d62843614b2ceac53b60c$__63b57e6b0b82846122446127ee565b6040516001600160e01b031960e086901b16815260048101939093526001600160a01b039182166024840152166044820152606401602060405180830381865af4158015612296573d6000803e3d6000fd5b505050506040513d601f19601f820116820180604052508101906122ba91906140f5565b610fae5760405162461bcd60e51b815260206004820152601960248201527f474d3a6e6f7420616c6c6f77656420746f2075706772616465000000000000006044820152606401610c5b565b816001600160a01b03166352d1902d6040518163ffffffff1660e01b8152600401602060405180830381865afa925050508015612360575060408051601f3d908101601f1916820190925261235d91810190613ef5565b60015b61238857604051634c9c8ce360e01b81526001600160a01b0383166004820152602401610c5b565b6000805160206143d283398151915281146123b957604051632a87526960e21b815260048101829052602401610c5b565b6123c38383612bdb565b505050565b306001600160a01b037f00000000000000000000000000000000000000000000000000000000000000001614610eba5760405163703e46dd60e11b815260040160405180910390fd5b600084600301600061242c846124278888612059565b612059565b81526020810191909152604001600020546001600160a01b031695945050505050565b60008360010160006124618585612059565b81526020019081526020016000205490509392505050565b600583015461248b9062015180614286565b4210156124e55760405162461bcd60e51b815260206004820152602260248201527f414c3a57616974203120646179206265666f7265207374617274696e6720726160448201526106d760f41b6064820152608401610c5b565b6124f26212750042614286565b8110156125415760405162461bcd60e51b815260206004820152601960248201527f414c3a496e73756666696369656e742072616d702074696d65000000000000006044820152606401610c5b565b6000821180156125535750620f424082105b6125ab5760405162461bcd60e51b815260206004820152602360248201527f414c3a667574757265415f206d757374206265203e203020616e64203c204d41604482015262585f4160e81b6064820152608401610c5b565b60006125b684612b01565b905060006125c5606485614299565b90508181101561262e57816125db600283614299565b10156126295760405162461bcd60e51b815260206004820152601860248201527f414c3a667574757265415f20697320746f6f20736d616c6c00000000000000006044820152606401610c5b565b612688565b612639600283614299565b8111156126885760405162461bcd60e51b815260206004820152601860248201527f414c3a667574757265415f20697320746f6f206c6172676500000000000000006044820152606401610c5b565b600385018290556004850181905542600586018190556006860184905560408051848152602081018490528082019290925260608201859052517fa2b71ec6df949300b59aab36b55e189697b750119dd349fcfa8c0f779e83c2549181900360800190a15050505050565b60608360020160006127058585612059565b8152602001908152602001600020805461271e906142b0565b80601f016020809104026020016040519081016040528092919081815260200182805461274a906142b0565b80156127975780601f1061276c57610100808354040283529160200191612797565b820191906000526020600020905b81548152906001019060200180831161277a57829003601f168201915b505050505090509392505050565b6127ad6120e1565b6000805160206143f2833981519152805460ff191660011781557f62e78cea01bee320cd4e420270b5ea74000d11b0c9f74754ebdbfc544b05a25833612168565b6000805160206143d2833981519152546001600160a01b031690565b6128238260405180602001604052806000815250610f93565b610fae81612c31565b612834612c75565b6128667f0000000000000000000000000000000000000000000000000000000000000000866000196127258888612cbe565b6129077f00000000000000000000000000000000000000000000000000000000000000007f000000000000000000000000000000000000000000000000000000000000000088603c6127106128c16402540be4006004614299565b6128cb91906142ea565b87878080601f016020809104026020016040519081016040528093929190818152602001838380828437600092019190915250612ce492505050565b611112612d12565b60008360030160006129218585612059565b81526020810191909152604001600020546001600160a01b0316949350505050565b428160060154116129965760405162461bcd60e51b815260206004820152601a60248201527f414c3a52616d7020697320616c72656164792073746f707065640000000000006044820152606401610c5b565b60006129a182612b01565b60038301819055600483018190554260058401819055600684018190556040519192507f46e22fb3709ad289f62ce63d469248536dbc78d82b84a3d7e74ad606dc201938916129f891848252602082015260400190565b60405180910390a15050565b60006064612a1183612b01565b610abb91906142ea565b6000846001016000612a31846124278888612059565b8152602001908152602001600020549050949350505050565b6060846002016000612a60846124278888612059565b81526020019081526020016000208054612a79906142b0565b80601f0160208091040260200160405190810160405280929190818152602001828054612aa5906142b0565b8015612af25780601f10612ac757610100808354040283529160200191612af2565b820191906000526020600020905b815481529060010190602001808311612ad557829003601f168201915b50505050509050949350505050565b600681015460048201546000919042821115610b6c576005840154600385015480831115612b6f57612b33828561430c565b612b3d834261430c565b612b47838661430c565b612b519190614299565b612b5b91906142ea565b612b659082614286565b9695505050505050565b612b79828561430c565b612b83834261430c565b612b8d858461430c565b612b979190614299565b612ba191906142ea565b612b65908261430c565b6000805160206143f28339815191525460ff16610eba57604051638dfc202b60e01b815260040160405180910390fd5b612be482612d1a565b6040516001600160a01b038316907fbc7cd75a20ee27fd9adebab32041f755214dbc6bffa90cc0225b39da2e5c2d3b90600090a2805115612c29576123c38282612d7f565b610fae612dec565b6000612c3b612085565b600581018390556040518381529091507ffddcded6b4f4730c226821172046b48372d3cd963c159701ae1b7c3bcac541bb906020016129f8565b7ff0c57e16840df040f15088dc2f81fe391c3923bec73e23a9662efc9c229c6a0054600160401b900460ff16610eba57604051631afcd79f60e31b815260040160405180910390fd5b612cc6612c75565b612cce612d12565b612cd6612d12565b611112868686868686612e0b565b612cec612c75565b612cf4613198565b612cfc6131a8565b612d04612d12565b6111128686868686866131b8565b610eba612c75565b806001600160a01b03163b600003612d5057604051634c9c8ce360e01b81526001600160a01b0382166004820152602401610c5b565b6000805160206143d283398151915280546001600160a01b0319166001600160a01b0392909216919091179055565b6060600080846001600160a01b031684604051612d9c919061431f565b600060405180830381855af49150503d8060008114612dd7576040519150601f19603f3d011682016040523d82523d6000602084013e612ddc565b606091505b5091509150610fec858383613596565b3415610eba5760405163b398979f60e01b815260040160405180910390fd5b612e13612c75565b6001600160a01b038616612e695760405162461bcd60e51b815260206004820152601d60248201527f474d3a676f7665726e616e63652063616e206e6f74206265207a65726f0000006044820152606401610c5b565b6001600160a01b038516612ebf5760405162461bcd60e51b815260206004820152601960248201527f474d3a73656e6174652063616e206e6f74206265207a65726f000000000000006044820152606401610c5b565b428411612f045760405162461bcd60e51b8152602060048201526013602482015272474d3a6c6f772073656e61746545787069727960681b6044820152606401610c5b565b82600003612f545760405162461bcd60e51b815260206004820152601e60248201527f474d3a7061636b616765547970652063616e206e6f74206265207a65726f00006044820152606401610c5b565b6000819003612fb15760405162461bcd60e51b815260206004820152602360248201527f474d3a696e697456657273696f6e4e616d652063616e206e6f7420626520656d60448201526270747960e81b6064820152608401610c5b565b6000612fbb612085565b8054336001600160a01b031991821681178355600183018054909216179055600381018690556004810185905590506000805160206143b2833981519152600073__$dabd46e1bb7f0d62843614b2ceac53b60c$__6363feb974848461301f6127ee565b8a8a8a620151806040518863ffffffff1660e01b81526004016130489796959493929190613f65565b602060405180830381865af4158015613065573d6000803e3d6000fd5b505050506040513d601f19601f820116820180604052508101906130899190613ef5565b6040516336e094d760e11b815260048101859052602481018490526044810182905290915073__$dabd46e1bb7f0d62843614b2ceac53b60c$__90636dc129ae90606401600060405180830381865af41580156130ea573d6000803e3d6000fd5b505050506040513d6000823e601f3d908101601f19168201604052613112919081019061409c565b50505061316061315b86868080601f01602080910402602001604051908101604052809392919081815260200183838082843760009201919091525050505060048601546135f2565b612c31565b505080546001600160a01b039788166001600160a01b0319918216178255600190910180549690971695169490941790945550505050565b6131a0612c75565b610eba613626565b6131b0612c75565b610eba61362e565b6131c0612c75565b6001600160a01b0386166132205760405162461bcd60e51b815260206004820152602160248201527f4c4d3a5f674554485f706f736974696f6e2063616e206e6f74206265207a65726044820152606f60f81b6064820152608401610c5b565b6001600160a01b0385166132845760405162461bcd60e51b815260206004820152602560248201527f4c4d3a5f6c70546f6b656e5f7265666572616e63652063616e206e6f74206265604482015264207a65726f60d81b6064820152608401610c5b565b836000036132de5760405162461bcd60e51b815260206004820152602160248201527f4c4d3a5f706f6f6c6564546f6b656e49642063616e206e6f74206265207a65726044820152606f60f81b6064820152608401610c5b565b826000036133265760405162461bcd60e51b81526020600482015260156024820152744c4d3a5f412063616e206e6f74206265207a65726f60581b6044820152606401610c5b565b620f424083106133705760405162461bcd60e51b81526020600482015260156024820152744c4d3a5f412065786365656473206d6178696d756d60581b6044820152606401610c5b565b61338060646402540be4006142ea565b82106133ce5760405162461bcd60e51b815260206004820152601b60248201527f4c4d3a5f737761704665652065786365656473206d6178696d756d00000000006044820152606401610c5b565b60006133d98661364f565b604080518082018252601081526f023b2b7b232902628102a37b5b2b71d160851b60208083019190915282518084018452600381526202d4c560ec1b81830152925193945090926001600160a01b03851691634cd88b769161343f91869189910161433b565b604051602081830303815290604052868460405160200161346192919061433b565b6040516020818303038152906040526040518363ffffffff1660e01b815260040161348d92919061436a565b600060405180830381600087803b1580156134a757600080fd5b505af11580156134bb573d6000803e3d6000fd5b5050505060006134c961202a565b80546001600160a01b03808d166001600160a01b031992831617835560018301805491881691909216179055600281018990559050613509606488614299565b6003820155613519606488614299565b600482810191909155600782018790558154604051630492f6e160e01b81529182018a9052600160248301526001600160a01b031690630492f6e190604401600060405180830381600087803b15801561357257600080fd5b505af1158015613586573d6000803e3d6000fd5b5050505050505050505050505050565b6060826135ab576135a6826136c1565b610b6c565b81511580156135c257506001600160a01b0384163b155b156135eb57604051639996b31560e01b81526001600160a01b0385166004820152602401610c5b565b5080610b6c565b6000828260405160200161360792919061438f565b60408051601f1981840301815291905280516020909101209392505050565b612112612c75565b613636612c75565b6000805160206143f2833981519152805460ff19169055565b6000763d602d80600a3d3981f3363d3d373d3d3d363d730000008260601b60e81c176000526e5af43d82803e903d91602b57fd5bf38260781b17602052603760096000f090506001600160a01b0381166136bc576040516330be1a3d60e21b815260040160405180910390fd5b919050565b8051156136d15780518082602001fd5b604051630a12f52160e11b815260040160405180910390fd5b50565b60405180604001604052806002906020820280368337509192915050565b60006020828403121561371d57600080fd5b81356001600160e01b031981168114610b6c57600080fd5b6000806040838503121561374857600080fd5b50508035926020909101359150565b803560ff811681146136bc57600080fd5b6000806040838503121561377b57600080fd5b8235915061378b60208401613757565b90509250929050565b6000602082840312156137a657600080fd5b5035919050565b6001600160a01b03811681146136ea57600080fd5b60008083601f8401126137d457600080fd5b5081356001600160401b038111156137eb57600080fd5b60208301915083602082850101111561380357600080fd5b9250929050565b60008060008060006080868803121561382257600080fd5b853561382d816137ad565b94506020860135935060408601356001600160401b0381111561384f57600080fd5b61385b888289016137c2565b96999598509660600135949350505050565b6000806000806080858703121561388357600080fd5b8435935061389360208601613757565b93969395505050506040820135916060013590565b8060408101831015610abb57600080fd5b6000806000608084860312156138ce57600080fd5b6138d885856138a8565b95604085013595506060909401359392505050565b634e487b7160e01b600052604160045260246000fd5b604051601f8201601f191681016001600160401b038111828210171561392b5761392b6138ed565b604052919050565b60006001600160401b0382111561394c5761394c6138ed565b50601f01601f191660200190565b600082601f83011261396b57600080fd5b813561397e61397982613933565b613903565b81815284602083860101111561399357600080fd5b816020850160208301376000918101602001919091529392505050565b600080604083850312156139c357600080fd5b82356139ce816137ad565b915060208301356001600160401b038111156139e957600080fd5b6139f58582860161395a565b9150509250929050565b600080600060608486031215613a1457600080fd5b505081359360208301359350604090920135919050565b600080600060408486031215613a4057600080fd5b83356001600160401b03811115613a5657600080fd5b613a62868287016137c2565b909790965060209590950135949350505050565b60008060408385031215613a8957600080fd5b823591506020830135613a9b816137ad565b809150509250929050565b60005b83811015613ac1578181015183820152602001613aa9565b50506000910152565b60008151808452613ae2816020860160208601613aa6565b601f01601f19169290920160200192915050565b602081526000610b6c6020830184613aca565b80151581146136ea57600080fd5b60008060608385031215613b2a57600080fd5b613b3484846138a8565b91506040830135613a9b81613b09565b600080600080600060a08688031215613b5c57600080fd5b613b6586613757565b9450613b7360208701613757565b94979496505050506040830135926060810135926080909101359150565b60018060a01b0384168152826020820152606060408201526000610fec6060830184613aca565b60008060008060008060808789031215613bd157600080fd5b863595506020870135613be3816137ad565b945060408701356001600160401b0380821115613bff57600080fd5b613c0b8a838b016137c2565b90965094506060890135915080821115613c2457600080fd5b50613c3189828a016137c2565b979a9699509497509295939492505050565b600080600060608486031215613c5857600080fd5b613c6184613757565b9250613c6f60208501613757565b9150604084013590509250925092565b600060208284031215613c9157600080fd5b8135610b6c816137ad565b600082601f830112613cad57600080fd5b813560206001600160401b03821115613cc857613cc86138ed565b8160051b613cd7828201613903565b9283528481018201928281019087851115613cf157600080fd5b83870192505b84831015610d8e57823582529183019190830190613cf7565b600080600080600060a08688031215613d2857600080fd5b8535613d33816137ad565b94506020860135613d43816137ad565b935060408601356001600160401b0380821115613d5f57600080fd5b613d6b89838a01613c9c565b94506060880135915080821115613d8157600080fd5b613d8d89838a01613c9c565b93506080880135915080821115613da357600080fd5b50613db08882890161395a565b9150509295509295909350565b6020815260018060a01b038251166020820152602082015160408201526000604083015160806060840152613df560a0840182613aca565b9050606084015160808401528091505092915050565b600080600060808486031215613e2057600080fd5b83359250613e3185602086016138a8565b9150606084013590509250925092565b60408101818360005b6002811015613e69578151835260209283019290910190600101613e4a565b50505092915050565b600060208284031215613e8457600080fd5b610b6c82613757565b600080600080600060a08688031215613ea557600080fd5b8535613eb0816137ad565b94506020860135613ec0816137ad565b9350604086013592506060860135915060808601356001600160401b03811115613ee957600080fd5b613db08882890161395a565b600060208284031215613f0757600080fd5b5051919050565b6020808252601490820152732628281d39b2b73232b9102727aa1037bbb732b960611b604082015260600190565b81835281816020850137506000828201602090810191909152601f909101601f19169091010190565b87815286602082015260018060a01b038616604082015284606082015260c060808201526000613f9960c083018587613f3c565b90508260a083015298975050505050505050565b60208082526013908201527213134e911958591b1a5b99481b9bdd081b595d606a1b604082015260600190565b838152608081016040846020840137826060830152949350505050565b60408152600061400b604083018587613f3c565b9050826020830152949350505050565b8381526080810160408460208401378215156060830152949350505050565b60006020828403121561404c57600080fd5b8151610b6c816137ad565b600082601f83011261406857600080fd5b815161407661397982613933565b81815284602083860101111561408b57600080fd5b610c20826020830160208701613aa6565b6000806000606084860312156140b157600080fd5b83516140bc816137ad565b6020850151604086015191945092506001600160401b038111156140df57600080fd5b6140eb86828701614057565b9150509250925092565b60006020828403121561410757600080fd5b8151610b6c81613b09565b60006020828403121561412457600080fd5b81516001600160401b038082111561413b57600080fd5b908301906080828603121561414f57600080fd5b60405160808101818110838211171561416a5761416a6138ed565b6040528251614178816137ad565b81526020838101519082015260408301518281111561419657600080fd5b6141a287828601614057565b6040830152506060830151606082015280935050505092915050565b838152602081018390526080810160408381840137949350505050565b6000604082840312156141ed57600080fd5b82601f8301126141fc57600080fd5b604051604081018181106001600160401b038211171561421e5761421e6138ed565b806040525080604084018581111561423557600080fd5b845b8181101561424f578051835260209283019201614237565b509195945050505050565b634e487b7160e01b600052603260045260246000fd5b634e487b7160e01b600052601160045260246000fd5b80820180821115610abb57610abb614270565b8082028115828204841417610abb57610abb614270565b600181811c908216806142c457607f821691505b6020821081036142e457634e487b7160e01b600052602260045260246000fd5b50919050565b60008261430757634e487b7160e01b600052601260045260246000fd5b500490565b81810381811115610abb57610abb614270565b60008251614331818460208701613aa6565b9190910192915050565b6000835161434d818460208801613aa6565b835190830190614361818360208801613aa6565b01949350505050565b60408152600061437d6040830185613aca565b8281036020840152610fec8185613aca565b6040815260006143a26040830185613aca565b9050826020830152939250505056fea3ee0f890fa2a50cc11476f86783721ec49c3aba88b83a957fe08235f6485c00360894a13ba1a3210667c828492db98dca3e2076cc3735a920a3ca505d382bbccd5ed15c6e187e77e9aee88184c21f4f2182ab5827cb3b7e07fbedcd63f033009b779b17422d0df92223018b32b4d1fa46e071723d6817e2486d003becc55f00a264697066735822122042cd8c27c5792c7dc02a739ffaf6593fe54fbc198119094e13e0959fbd73fb6c64736f6c63430008140033",
  "libraries": {
    "GeodeModuleLib": "0xEDC21cd663b77Dd21299638732A747d703553114",
    "LiquidityModuleLib": "0x648633aC0bA2Bfc29eDe0C47a5Dce3C02F611a2F"
  },
  "devdoc": {
    "author": "Ice Bear & Crash Bandicoot",
    "details": "TYPE: PACKAGE_LIQUIDITY_POOLUtilizing IGeodePackage interface, meaning initialize function takes 3 parameters: * * poolOwner: will be assigned as the senate of the package * * pooledTokenId: used internally on LM and LML. * * data: referances 1 parameter: name. Used to generate lpTokenName and lpTokenSymbol for __LM_init.review: LM for StableSwap implementation. Also note: * initial and future A coefficients are set as 60 (LM) * trade fee set to 4 bips (LM) * owner fee is set to 0 (LM) * senate expiry is not effective (GM)review: GM for The Limited Upgradability through Dual Governance: * Governance is the Portal, package version controller. * Senate is the Staking Pool Owner.",
    "errors": {
      "AddressEmptyCode(address)": [
        {
          "details": "There's no code at `target` (it is not a contract)."
        }
      ],
      "ERC1167FailedCreateClone()": [
        {
          "details": "A clone instance deployment failed."
        }
      ],
      "ERC1967InvalidImplementation(address)": [
        {
          "details": "The `implementation` of the proxy is invalid."
        }
      ],
      "ERC1967NonPayable()": [
        {
          "details": "An upgrade function sees `msg.value > 0` that may be lost."
        }
      ],
      "EnforcedPause()": [
        {
          "details": "The operation failed because the contract is paused."
        }
      ],
      "ExpectedPause()": [
        {
          "details": "The operation failed because the contract is not paused."
        }
      ],
      "FailedInnerCall()": [
        {
          "details": "A call to an address target failed. The target may have reverted."
        }
      ],
      "InvalidInitialization()": [
        {
          "details": "The contract is already initialized."
        }
      ],
      "NotInitializing()": [
        {
          "details": "The contract is not initializing."
        }
      ],
      "ReentrancyGuardReentrantCall()": [
        {
          "details": "Unauthorized reentrant call."
        }
      ],
      "UUPSUnauthorizedCallContext()": [
        {
          "details": "The call is from an unauthorized context."
        }
      ],
      "UUPSUnsupportedProxiableUUID(bytes32)": [
        {
          "details": "The storage `slot` is unsupported as a UUID."
        }
      ]
    },
    "events": {
      "ContractVersionSet(uint256)": {
        "custom:section": "** EVENTS **"
      },
      "Initialized(uint64)": {
        "details": "Triggered when the contract has been initialized or reinitialized."
      },
      "Paused(address)": {
        "details": "Emitted when the pause is triggered by `account`."
      },
      "TokenSwap(address,uint256,uint256,uint128,uint128)": {
        "custom:section": "** EVENTS **"
      },
      "Unpaused(address)": {
        "details": "Emitted when the pause is lifted by `account`."
      },
      "Upgraded(address)": {
        "details": "Emitted when the implementation is upgraded."
      }
    },
    "kind": "dev",
    "methods": {
      "GeodeParams()": {
        "custom:section": "** GETTER FUNCTIONS **",
        "custom:visibility": "-> view-external"
      },
      "LiquidityParams()": {
        "custom:section": "** GETTER FUNCTIONS **",
        "custom:visibility": "-> view-external"
      },
      "addLiquidity(uint256[2],uint256,uint256)": {
        "params": {
          "amounts": "the amounts of each token to add, in their native precision",
          "deadline": "latest timestamp to accept this transaction",
          "minToMint": "the minimum LP tokens adding this amount of liquidity should mint, otherwise revert. Handy for front-running mitigation"
        },
        "returns": {
          "_0": "amount of LP token user minted and received"
        }
      },
      "allIdsByType(uint256,uint256)": {
        "details": "useful for outside reach, shouldn't be used within contracts as a referance",
        "returns": {
          "_0": "allIdsByType is an array of IDs of the given TYPE from Datastore, returns a specific index"
        }
      },
      "approveProposal(uint256)": {
        "details": "handles PACKAGE_TYPE proposals by upgrading the contract immediately.onlySenate is checked inside GML.approveProposal"
      },
      "calculateRemoveLiquidity(uint256)": {
        "params": {
          "amount": "the amount of LP tokens that would be burned on withdrawal"
        },
        "returns": {
          "_0": "array of token balances that the user will receive"
        }
      },
      "calculateRemoveLiquidityOneToken(uint256,uint8)": {
        "params": {
          "tokenAmount": "the amount of LP token to burn",
          "tokenIndex": "index of which token will be withdrawn"
        },
        "returns": {
          "availableTokenAmount": "calculated amount of underlying token available to withdraw"
        }
      },
      "calculateSwap(uint8,uint8,uint256)": {
        "params": {
          "dx": "the amount of tokens the user wants to sell. If the token charges a fee on transfers, use the amount that gets transferred after the fee.",
          "tokenIndexFrom": "the token the user wants to sell",
          "tokenIndexTo": "the token the user wants to buy"
        },
        "returns": {
          "_0": "amount of tokens the user will receive"
        }
      },
      "calculateTokenAmount(uint256[2],bool)": {
        "details": "This shouldn't be used outside frontends for user estimates.",
        "params": {
          "amounts": "an array of token amounts to deposit or withdrawal, corresponding to pooledTokens. The amount should be in each pooled token's native precision. If a token charges a fee on transfers, use the amount that gets transferred after the fee.",
          "deposit": "whether this is a deposit or a withdrawal"
        },
        "returns": {
          "_0": "token amount the user will receive"
        }
      },
      "changeIdCONTROLLER(uint256,address)": {
        "custom:subsection": "** ONLY CONTROLLER **"
      },
      "constructor": {
        "custom:oz-upgrades-unsafe-allow": "constructor"
      },
      "generateId(string,uint256)": {
        "details": "id is generated by keccak(name, type)"
      },
      "getA()": {
        "details": "See the StableSwap paper for details",
        "returns": {
          "_0": "A parameter"
        }
      },
      "getAPrecise()": {
        "details": "See the StableSwap paper for details",
        "returns": {
          "_0": "A parameter in its raw precision form"
        }
      },
      "getAdminBalance(uint256)": {
        "params": {
          "index": "Index of the pooled token"
        },
        "returns": {
          "_0": "admin's token balance in the token's precision"
        }
      },
      "getBalance(uint8)": {
        "params": {
          "index": "the index of the token"
        },
        "returns": {
          "_0": "current balance of the pooled token at given index with token's native precision"
        }
      },
      "getDebt()": {
        "details": "result might change when price is in.",
        "returns": {
          "_0": "debt the half of the D StableSwap invariant when debt is needed to be payed."
        }
      },
      "getProposedVersion()": {
        "details": "GeodeModule override"
      },
      "getVirtualPrice()": {
        "returns": {
          "_0": "the virtual override price"
        }
      },
      "initialize(uint256,address,bytes,bytes)": {
        "params": {
          "data": "only poolName is required from Portal"
        }
      },
      "isolationMode()": {
        "custom:visibility": "-> view",
        "details": "GeodeModule override"
      },
      "paused()": {
        "details": "Returns true if the contract is paused, and false otherwise."
      },
      "propose(address,uint256,bytes,uint256)": {
        "custom:subsection": "** ONLY GOVERNANCE **"
      },
      "proxiableUUID()": {
        "details": "Implementation of the ERC1822 {proxiableUUID} function. This returns the storage slot used by the implementation. It is used to validate the implementation's compatibility when performing an upgrade. IMPORTANT: A proxy pointing at a proxiable contract should not be considered proxiable itself, because this risks bricking a proxy that upgrades to it, by delegating to itself until out of gas. Thus it is critical that this function revert if invoked through a proxy. This is guaranteed by the `notDelegated` modifier."
      },
      "pullUpgrade()": {
        "details": "IGeodePackage override"
      },
      "readUintArray(uint256,bytes32,uint256)": {
        "custom:section": "** ARRAY GETTER FUNCTIONS **",
        "custom:visibility": "-> view-external"
      },
      "removeLiquidity(uint256,uint256[2],uint256)": {
        "details": "Liquidity can always be removed, even when the pool is paused.",
        "params": {
          "amount": "the amount of LP tokens to burn",
          "deadline": "latest timestamp to accept this transaction",
          "minAmounts": "the minimum amounts of each token in the pool        acceptable for this burn. Useful as a front-running mitigation"
        },
        "returns": {
          "_0": "amounts of tokens user received"
        }
      },
      "removeLiquidityImbalance(uint256[2],uint256,uint256)": {
        "params": {
          "amounts": "how much of each token to withdraw",
          "deadline": "latest timestamp to accept this transaction",
          "maxBurnAmount": "the max LP token provider is willing to pay to remove liquidity. Useful as a front-running mitigation."
        },
        "returns": {
          "_0": "amount of LP tokens burned"
        }
      },
      "removeLiquidityOneToken(uint256,uint8,uint256,uint256)": {
        "params": {
          "deadline": "latest timestamp to accept this transaction",
          "minAmount": "the minimum amount to withdraw, otherwise revert",
          "tokenAmount": "the amount of the token you want to receive",
          "tokenIndex": "the index of the token you want to receive"
        },
        "returns": {
          "_0": "amount of chosen token user received"
        }
      },
      "setSwapFee(uint256)": {
        "custom:subsection": "** LIQUIDITY POOL **",
        "details": "LM override"
      },
      "supportsInterface(bytes4)": {
        "details": "See {IERC165-supportsInterface}."
      },
      "swap(uint8,uint8,uint256,uint256,uint256)": {
        "params": {
          "deadline": "latest timestamp to accept this transaction",
          "dx": "the amount of tokens the user wants to swap from",
          "minDy": "the min amount the user would like to receive, or revert.",
          "tokenIndexFrom": "the token the user wants to swap from",
          "tokenIndexTo": "the token the user wants to swap to"
        }
      },
      "upgradeToAndCall(address,bytes)": {
        "custom:oz-upgrades-unsafe-allow-reachable": "delegatecall",
        "details": "Upgrade the implementation of the proxy to `newImplementation`, and subsequently execute the function call encoded in `data`. Calls {_authorizeUpgrade}. Emits an {Upgraded} event."
      }
    },
    "title": "LPP: Liquidity Pool Package: Geode Module + Liquidity Module",
    "version": 1
  },
  "userdoc": {
    "kind": "user",
    "methods": {
      "addLiquidity(uint256[2],uint256,uint256)": {
        "notice": "Add liquidity to the pool with the given amounts of tokens"
      },
      "calculateRemoveLiquidity(uint256)": {
        "notice": "A simple method to calculate amount of each underlying tokens that is returned upon burning given amount of LP tokens"
      },
      "calculateRemoveLiquidityOneToken(uint256,uint8)": {
        "notice": "Calculate the amount of underlying token available to withdraw when withdrawing via only single token"
      },
      "calculateSwap(uint8,uint8,uint256)": {
        "notice": "Calculate amount of tokens you receive on swap"
      },
      "calculateTokenAmount(uint256[2],bool)": {
        "notice": "A simple method to calculate prices from deposits or withdrawals, excluding fees but including slippage. This is helpful as an input into the various \"min\" parameters on calls to fight front-running"
      },
      "generateId(string,uint256)": {
        "notice": "useful function for string inputs - returns same with the DSML.generateId"
      },
      "getA()": {
        "notice": "Return A, the amplification coefficient * n * (n - 1)"
      },
      "getAPrecise()": {
        "notice": "Return A in its raw precision form"
      },
      "getAdminBalance(uint256)": {
        "notice": "Reads the accumulated amount of admin fees of the token with given index"
      },
      "getBalance(uint8)": {
        "notice": "Return current balance of the pooled token at given index"
      },
      "getDebt()": {
        "notice": "Debt, The amount of buyback for stable pricing (1=1)."
      },
      "getKey(uint256,bytes32)": {
        "notice": "useful view function for string inputs - returns same with the DSML.generateId"
      },
      "getPoolId()": {
        "notice": "get the gETH ID of the corresponding staking pool"
      },
      "getVirtualPrice()": {
        "notice": "Get the virtual override price, to help calculate profit"
      },
      "pause()": {
        "notice": "pausing the contract activates the isolationMode"
      },
      "removeLiquidity(uint256,uint256[2],uint256)": {
        "notice": "Burn LP tokens to remove liquidity from the pool."
      },
      "removeLiquidityImbalance(uint256[2],uint256,uint256)": {
        "notice": "Remove liquidity from the pool, weighted differently than the pool's current balances."
      },
      "removeLiquidityOneToken(uint256,uint8,uint256,uint256)": {
        "notice": "Remove liquidity from the pool all in one token."
      },
      "swap(uint8,uint8,uint256,uint256,uint256)": {
        "notice": "Swap two tokens using this pool"
      },
      "unpause()": {
        "notice": "unpausing the contract deactivates the isolationMode"
      }
    },
    "notice": "LPP is a package that provides a liquidity pool for a staking pool created through Portal.",
    "version": 1
  },
  "storageLayout": {
    "storage": [],
    "types": null
  }
}