{
  "address": "0xBba7134FF9FA0F760992b869cA1D1c2b32663289",
  "abi": [
    {
      "inputs": [],
      "stateMutability": "nonpayable",
      "type": "constructor"
    },
    {
      "inputs": [
        {
          "internalType": "address",
          "name": "target",
          "type": "address"
        }
      ],
      "name": "AddressEmptyCode",
      "type": "error"
    },
    {
      "inputs": [
        {
          "internalType": "address",
          "name": "implementation",
          "type": "address"
        }
      ],
      "name": "ERC1967InvalidImplementation",
      "type": "error"
    },
    {
      "inputs": [],
      "name": "ERC1967NonPayable",
      "type": "error"
    },
    {
      "inputs": [],
      "name": "EnforcedPause",
      "type": "error"
    },
    {
      "inputs": [],
      "name": "ExpectedPause",
      "type": "error"
    },
    {
      "inputs": [],
      "name": "FailedInnerCall",
      "type": "error"
    },
    {
      "inputs": [],
      "name": "InvalidInitialization",
      "type": "error"
    },
    {
      "inputs": [],
      "name": "NotInitializing",
      "type": "error"
    },
    {
      "inputs": [],
      "name": "ReentrancyGuardReentrantCall",
      "type": "error"
    },
    {
      "inputs": [],
      "name": "UUPSUnauthorizedCallContext",
      "type": "error"
    },
    {
      "inputs": [
        {
          "internalType": "bytes32",
          "name": "slot",
          "type": "bytes32"
        }
      ],
      "name": "UUPSUnsupportedProxiableUUID",
      "type": "error"
    },
    {
      "anonymous": false,
      "inputs": [
        {
          "indexed": false,
          "internalType": "bytes",
          "name": "pubkey",
          "type": "bytes"
        }
      ],
      "name": "Alienated",
      "type": "event"
    },
    {
      "anonymous": false,
      "inputs": [
        {
          "indexed": false,
          "internalType": "uint256",
          "name": "ID",
          "type": "uint256"
        }
      ],
      "name": "Approved",
      "type": "event"
    },
    {
      "anonymous": false,
      "inputs": [
        {
          "indexed": false,
          "internalType": "uint256",
          "name": "entryDelay",
          "type": "uint256"
        },
        {
          "indexed": false,
          "internalType": "uint256",
          "name": "exitDelay",
          "type": "uint256"
        }
      ],
      "name": "BeaconDelaySet",
      "type": "event"
    },
    {
      "anonymous": false,
      "inputs": [
        {
          "indexed": false,
          "internalType": "uint256",
          "name": "version",
          "type": "uint256"
        }
      ],
      "name": "ContractVersionSet",
      "type": "event"
    },
    {
      "anonymous": false,
      "inputs": [
        {
          "indexed": true,
          "internalType": "uint256",
          "name": "ID",
          "type": "uint256"
        },
        {
          "indexed": false,
          "internalType": "address",
          "name": "CONTROLLER",
          "type": "address"
        }
      ],
      "name": "ControllerChanged",
      "type": "event"
    },
    {
      "anonymous": false,
      "inputs": [
        {
          "indexed": false,
          "internalType": "uint256",
          "name": "poolId",
          "type": "uint256"
        },
        {
          "indexed": true,
          "internalType": "uint256",
          "name": "operatorId",
          "type": "uint256"
        },
        {
          "indexed": false,
          "internalType": "uint256",
          "name": "allowance",
          "type": "uint256"
        }
      ],
      "name": "Delegation",
      "type": "event"
    },
    {
      "anonymous": false,
      "inputs": [
        {
          "indexed": true,
          "internalType": "uint256",
          "name": "poolId",
          "type": "uint256"
        },
        {
          "indexed": false,
          "internalType": "uint256",
          "name": "boughtgETH",
          "type": "uint256"
        },
        {
          "indexed": false,
          "internalType": "uint256",
          "name": "mintedgETH",
          "type": "uint256"
        }
      ],
      "name": "Deposit",
      "type": "event"
    },
    {
      "anonymous": false,
      "inputs": [
        {
          "indexed": false,
          "internalType": "uint256",
          "name": "poolId",
          "type": "uint256"
        },
        {
          "indexed": true,
          "internalType": "uint256",
          "name": "operatorId",
          "type": "uint256"
        },
        {
          "indexed": false,
          "internalType": "uint256",
          "name": "threshold",
          "type": "uint256"
        }
      ],
      "name": "FallbackOperator",
      "type": "event"
    },
    {
      "anonymous": false,
      "inputs": [
        {
          "indexed": true,
          "internalType": "uint256",
          "name": "id",
          "type": "uint256"
        },
        {
          "indexed": false,
          "internalType": "uint256",
          "name": "fee",
          "type": "uint256"
        },
        {
          "indexed": false,
          "internalType": "uint256",
          "name": "effectiveAfter",
          "type": "uint256"
        }
      ],
      "name": "FeeSwitched",
      "type": "event"
    },
    {
      "anonymous": false,
      "inputs": [
        {
          "indexed": true,
          "internalType": "uint256",
          "name": "id",
          "type": "uint256"
        },
        {
          "indexed": false,
          "internalType": "bytes",
          "name": "proofs",
          "type": "bytes"
        }
      ],
      "name": "FeeTheft",
      "type": "event"
    },
    {
      "anonymous": false,
      "inputs": [
        {
          "indexed": false,
          "internalType": "uint256",
          "name": "id",
          "type": "uint256"
        },
        {
          "indexed": true,
          "internalType": "uint256",
          "name": "TYPE",
          "type": "uint256"
        }
      ],
      "name": "IdInitiated",
      "type": "event"
    },
    {
      "anonymous": false,
      "inputs": [
        {
          "indexed": false,
          "internalType": "uint256",
          "name": "_type",
          "type": "uint256"
        },
        {
          "indexed": false,
          "internalType": "uint256",
          "name": "fee",
          "type": "uint256"
        }
      ],
      "name": "InfrastructureFeeSet",
      "type": "event"
    },
    {
      "anonymous": false,
      "inputs": [
        {
          "indexed": false,
          "internalType": "uint64",
          "name": "version",
          "type": "uint64"
        }
      ],
      "name": "Initialized",
      "type": "event"
    },
    {
      "anonymous": false,
      "inputs": [
        {
          "indexed": false,
          "internalType": "uint256",
          "name": "initiationDeposit",
          "type": "uint256"
        }
      ],
      "name": "InitiationDepositSet",
      "type": "event"
    },
    {
      "anonymous": false,
      "inputs": [
        {
          "indexed": true,
          "internalType": "uint256",
          "name": "id",
          "type": "uint256"
        },
        {
          "indexed": false,
          "internalType": "address",
          "name": "newMaintainer",
          "type": "address"
        }
      ],
      "name": "MaintainerChanged",
      "type": "event"
    },
    {
      "anonymous": false,
      "inputs": [
        {
          "indexed": false,
          "internalType": "uint256",
          "name": "poolId",
          "type": "uint256"
        },
        {
          "indexed": false,
          "internalType": "uint256",
          "name": "version",
          "type": "uint256"
        }
      ],
      "name": "MiddlewareDeployed",
      "type": "event"
    },
    {
      "anonymous": false,
      "inputs": [
        {
          "indexed": false,
          "internalType": "address",
          "name": "senate",
          "type": "address"
        },
        {
          "indexed": false,
          "internalType": "uint256",
          "name": "expiry",
          "type": "uint256"
        }
      ],
      "name": "NewSenate",
      "type": "event"
    },
    {
      "anonymous": false,
      "inputs": [
        {
          "indexed": false,
          "internalType": "bytes32",
          "name": "priceMerkleRoot",
          "type": "bytes32"
        },
        {
          "indexed": false,
          "internalType": "bytes32",
          "name": "balanceMerkleRoot",
          "type": "bytes32"
        },
        {
          "indexed": false,
          "internalType": "uint256",
          "name": "monopolyThreshold",
          "type": "uint256"
        }
      ],
      "name": "OracleReported",
      "type": "event"
    },
    {
      "anonymous": false,
      "inputs": [
        {
          "indexed": false,
          "internalType": "uint256",
          "name": "poolId",
          "type": "uint256"
        },
        {
          "indexed": false,
          "internalType": "uint256",
          "name": "packageType",
          "type": "uint256"
        },
        {
          "indexed": false,
          "internalType": "address",
          "name": "instance",
          "type": "address"
        }
      ],
      "name": "PackageDeployed",
      "type": "event"
    },
    {
      "anonymous": false,
      "inputs": [
        {
          "indexed": false,
          "internalType": "address",
          "name": "account",
          "type": "address"
        }
      ],
      "name": "Paused",
      "type": "event"
    },
    {
      "anonymous": false,
      "inputs": [
        {
          "indexed": true,
          "internalType": "uint256",
          "name": "operatorId",
          "type": "uint256"
        },
        {
          "indexed": false,
          "internalType": "bytes",
          "name": "proof",
          "type": "bytes"
        },
        {
          "indexed": false,
          "internalType": "uint256",
          "name": "releaseTimestamp",
          "type": "uint256"
        }
      ],
      "name": "Prisoned",
      "type": "event"
    },
    {
      "anonymous": false,
      "inputs": [
        {
          "indexed": true,
          "internalType": "uint256",
          "name": "TYPE",
          "type": "uint256"
        },
        {
          "indexed": false,
          "internalType": "uint256",
          "name": "ID",
          "type": "uint256"
        },
        {
          "indexed": false,
          "internalType": "address",
          "name": "CONTROLLER",
          "type": "address"
        },
        {
          "indexed": false,
          "internalType": "uint256",
          "name": "deadline",
          "type": "uint256"
        }
      ],
      "name": "Proposed",
      "type": "event"
    },
    {
      "anonymous": false,
      "inputs": [
        {
          "indexed": false,
          "internalType": "uint256",
          "name": "operatorId",
          "type": "uint256"
        }
      ],
      "name": "Released",
      "type": "event"
    },
    {
      "anonymous": false,
      "inputs": [
        {
          "indexed": false,
          "internalType": "bytes[]",
          "name": "pubkeys",
          "type": "bytes[]"
        }
      ],
      "name": "Stake",
      "type": "event"
    },
    {
      "anonymous": false,
      "inputs": [
        {
          "indexed": false,
          "internalType": "uint256",
          "name": "poolId",
          "type": "uint256"
        },
        {
          "indexed": false,
          "internalType": "uint256",
          "name": "operatorId",
          "type": "uint256"
        },
        {
          "indexed": false,
          "internalType": "bytes[]",
          "name": "pubkeys",
          "type": "bytes[]"
        }
      ],
      "name": "StakeProposal",
      "type": "event"
    },
    {
      "anonymous": false,
      "inputs": [
        {
          "indexed": false,
          "internalType": "address",
          "name": "account",
          "type": "address"
        }
      ],
      "name": "Unpaused",
      "type": "event"
    },
    {
      "anonymous": false,
      "inputs": [
        {
          "indexed": true,
          "internalType": "address",
          "name": "implementation",
          "type": "address"
        }
      ],
      "name": "Upgraded",
      "type": "event"
    },
    {
      "anonymous": false,
      "inputs": [
        {
          "indexed": true,
          "internalType": "uint256",
          "name": "operatorId",
          "type": "uint256"
        },
        {
          "indexed": false,
          "internalType": "uint256",
          "name": "period",
          "type": "uint256"
        },
        {
          "indexed": false,
          "internalType": "uint256",
          "name": "effectiveAfter",
          "type": "uint256"
        }
      ],
      "name": "ValidatorPeriodSwitched",
      "type": "event"
    },
    {
      "anonymous": false,
      "inputs": [
        {
          "indexed": false,
          "internalType": "uint256",
          "name": "validatorVerificationIndex",
          "type": "uint256"
        }
      ],
      "name": "VerificationIndexUpdated",
      "type": "event"
    },
    {
      "anonymous": false,
      "inputs": [
        {
          "indexed": false,
          "internalType": "uint256",
          "name": "id",
          "type": "uint256"
        },
        {
          "indexed": false,
          "internalType": "bool",
          "name": "isPrivate",
          "type": "bool"
        }
      ],
      "name": "VisibilitySet",
      "type": "event"
    },
    {
      "anonymous": false,
      "inputs": [
        {
          "indexed": true,
          "internalType": "uint256",
          "name": "poolId",
          "type": "uint256"
        },
        {
          "indexed": false,
          "internalType": "uint256",
          "name": "amount",
          "type": "uint256"
        }
      ],
      "name": "YieldDistributed",
      "type": "event"
    },
    {
      "anonymous": false,
      "inputs": [
        {
          "indexed": true,
          "internalType": "uint256",
          "name": "poolId",
          "type": "uint256"
        },
        {
          "indexed": false,
          "internalType": "address",
          "name": "yieldReceiver",
          "type": "address"
        }
      ],
      "name": "YieldReceiverSet",
      "type": "event"
    },
    {
      "inputs": [],
      "name": "GeodeParams",
      "outputs": [
        {
          "internalType": "address",
          "name": "governance",
          "type": "address"
        },
        {
          "internalType": "address",
          "name": "senate",
          "type": "address"
        },
        {
          "internalType": "address",
          "name": "approvedUpgrade",
          "type": "address"
        },
        {
          "internalType": "uint256",
          "name": "senateExpiry",
          "type": "uint256"
        },
        {
          "internalType": "uint256",
          "name": "packageType",
          "type": "uint256"
        }
      ],
      "stateMutability": "view",
      "type": "function"
    },
    {
      "inputs": [],
      "name": "StakeParams",
      "outputs": [
        {
          "internalType": "address",
          "name": "gETH",
          "type": "address"
        },
        {
          "internalType": "address",
          "name": "oraclePosition",
          "type": "address"
        },
        {
          "internalType": "uint256",
          "name": "validatorsIndex",
          "type": "uint256"
        },
        {
          "internalType": "uint256",
          "name": "verificationIndex",
          "type": "uint256"
        },
        {
          "internalType": "uint256",
          "name": "monopolyThreshold",
          "type": "uint256"
        },
        {
          "internalType": "uint256",
          "name": "beaconDelayEntry",
          "type": "uint256"
        },
        {
          "internalType": "uint256",
          "name": "beaconDelayExit",
          "type": "uint256"
        },
        {
          "internalType": "uint256",
          "name": "initiationDeposit",
          "type": "uint256"
        },
        {
          "internalType": "uint256",
          "name": "oracleUpdateTimestamp",
          "type": "uint256"
        },
        {
          "internalType": "uint256",
          "name": "dailyPriceIncreaseLimit",
          "type": "uint256"
        },
        {
          "internalType": "uint256",
          "name": "dailyPriceDecreaseLimit",
          "type": "uint256"
        }
      ],
      "stateMutability": "view",
      "type": "function"
    },
    {
      "inputs": [],
      "name": "UPGRADE_INTERFACE_VERSION",
      "outputs": [
        {
          "internalType": "string",
          "name": "",
          "type": "string"
        }
      ],
      "stateMutability": "view",
      "type": "function"
    },
    {
      "inputs": [
        {
          "internalType": "uint256",
          "name": "_type",
          "type": "uint256"
        },
        {
          "internalType": "uint256",
          "name": "_index",
          "type": "uint256"
        }
      ],
      "name": "allIdsByType",
      "outputs": [
        {
          "internalType": "uint256",
          "name": "",
          "type": "uint256"
        }
      ],
      "stateMutability": "view",
      "type": "function"
    },
    {
      "inputs": [
        {
          "internalType": "uint256",
          "name": "_type",
          "type": "uint256"
        }
      ],
      "name": "allIdsByTypeLength",
      "outputs": [
        {
          "internalType": "uint256",
          "name": "",
          "type": "uint256"
        }
      ],
      "stateMutability": "view",
      "type": "function"
    },
    {
      "inputs": [
        {
          "internalType": "uint256",
          "name": "id",
          "type": "uint256"
        }
      ],
      "name": "approveProposal",
      "outputs": [
        {
          "internalType": "address",
          "name": "_controller",
          "type": "address"
        },
        {
          "internalType": "uint256",
          "name": "_type",
          "type": "uint256"
        },
        {
          "internalType": "bytes",
          "name": "_name",
          "type": "bytes"
        }
      ],
      "stateMutability": "nonpayable",
      "type": "function"
    },
    {
      "inputs": [
        {
          "internalType": "bytes",
          "name": "pk",
          "type": "bytes"
        },
        {
          "internalType": "uint256",
          "name": "beaconBalance",
          "type": "uint256"
        },
        {
          "internalType": "uint256",
          "name": "withdrawnBalance",
          "type": "uint256"
        },
        {
          "internalType": "bytes32[]",
          "name": "balanceProof",
          "type": "bytes32[]"
        }
      ],
      "name": "blameExit",
      "outputs": [],
      "stateMutability": "nonpayable",
      "type": "function"
    },
    {
      "inputs": [
        {
          "internalType": "bytes",
          "name": "pk",
          "type": "bytes"
        }
      ],
      "name": "blameProposal",
      "outputs": [],
      "stateMutability": "nonpayable",
      "type": "function"
    },
    {
      "inputs": [
        {
          "internalType": "bytes",
          "name": "pubkey",
          "type": "bytes"
        }
      ],
      "name": "canStake",
      "outputs": [
        {
          "internalType": "bool",
          "name": "",
          "type": "bool"
        }
      ],
      "stateMutability": "view",
      "type": "function"
    },
    {
      "inputs": [
        {
          "internalType": "uint256",
          "name": "id",
          "type": "uint256"
        },
        {
          "internalType": "address",
          "name": "newCONTROLLER",
          "type": "address"
        }
      ],
      "name": "changeIdCONTROLLER",
      "outputs": [],
      "stateMutability": "nonpayable",
      "type": "function"
    },
    {
      "inputs": [
        {
          "internalType": "uint256",
          "name": "id",
          "type": "uint256"
        },
        {
          "internalType": "address",
          "name": "newMaintainer",
          "type": "address"
        }
      ],
      "name": "changeMaintainer",
      "outputs": [],
      "stateMutability": "nonpayable",
      "type": "function"
    },
    {
      "inputs": [
        {
          "internalType": "address",
          "name": "_newSenate",
          "type": "address"
        }
      ],
      "name": "changeSenate",
      "outputs": [],
      "stateMutability": "nonpayable",
      "type": "function"
    },
    {
      "inputs": [
        {
          "internalType": "uint256",
          "name": "id",
          "type": "uint256"
        },
        {
          "internalType": "uint256",
          "name": "value",
          "type": "uint256"
        }
      ],
      "name": "decreaseWalletBalance",
      "outputs": [
        {
          "internalType": "bool",
          "name": "",
          "type": "bool"
        }
      ],
      "stateMutability": "nonpayable",
      "type": "function"
    },
    {
      "inputs": [
        {
          "internalType": "uint256",
          "name": "poolId",
          "type": "uint256"
        },
        {
          "internalType": "uint256[]",
          "name": "operatorIds",
          "type": "uint256[]"
        },
        {
          "internalType": "uint256[]",
          "name": "allowances",
          "type": "uint256[]"
        }
      ],
      "name": "delegate",
      "outputs": [],
      "stateMutability": "nonpayable",
      "type": "function"
    },
    {
      "inputs": [
        {
          "internalType": "uint256",
          "name": "poolId",
          "type": "uint256"
        }
      ],
      "name": "deployLiquidityPackage",
      "outputs": [],
      "stateMutability": "nonpayable",
      "type": "function"
    },
    {
      "inputs": [
        {
          "internalType": "uint256",
          "name": "poolId",
          "type": "uint256"
        },
        {
          "internalType": "uint256",
          "name": "price",
          "type": "uint256"
        },
        {
          "internalType": "bytes32[]",
          "name": "priceProof",
          "type": "bytes32[]"
        },
        {
          "internalType": "uint256",
          "name": "mingETH",
          "type": "uint256"
        },
        {
          "internalType": "uint256",
          "name": "deadline",
          "type": "uint256"
        },
        {
          "internalType": "address",
          "name": "receiver",
          "type": "address"
        }
      ],
      "name": "deposit",
      "outputs": [
        {
          "internalType": "uint256",
          "name": "boughtgETH",
          "type": "uint256"
        },
        {
          "internalType": "uint256",
          "name": "mintedgETH",
          "type": "uint256"
        }
      ],
      "stateMutability": "payable",
      "type": "function"
    },
    {
      "inputs": [
        {
          "internalType": "uint256",
          "name": "poolId",
          "type": "uint256"
        },
        {
          "internalType": "bytes",
          "name": "pk",
          "type": "bytes"
        }
      ],
      "name": "finalizeExit",
      "outputs": [],
      "stateMutability": "nonpayable",
      "type": "function"
    },
    {
      "inputs": [
        {
          "internalType": "string",
          "name": "_name",
          "type": "string"
        },
        {
          "internalType": "uint256",
          "name": "_type",
          "type": "uint256"
        }
      ],
      "name": "generateId",
      "outputs": [
        {
          "internalType": "uint256",
          "name": "id",
          "type": "uint256"
        }
      ],
      "stateMutability": "pure",
      "type": "function"
    },
    {
      "inputs": [],
      "name": "getBalancesMerkleRoot",
      "outputs": [
        {
          "internalType": "bytes32",
          "name": "",
          "type": "bytes32"
        }
      ],
      "stateMutability": "view",
      "type": "function"
    },
    {
      "inputs": [],
      "name": "getContractVersion",
      "outputs": [
        {
          "internalType": "uint256",
          "name": "",
          "type": "uint256"
        }
      ],
      "stateMutability": "view",
      "type": "function"
    },
    {
      "inputs": [],
      "name": "getGovernance",
      "outputs": [
        {
          "internalType": "address",
          "name": "",
          "type": "address"
        }
      ],
      "stateMutability": "view",
      "type": "function"
    },
    {
      "inputs": [
        {
          "internalType": "uint256",
          "name": "_type",
          "type": "uint256"
        }
      ],
      "name": "getInfrastructureFee",
      "outputs": [
        {
          "internalType": "uint256",
          "name": "",
          "type": "uint256"
        }
      ],
      "stateMutability": "view",
      "type": "function"
    },
    {
      "inputs": [
        {
          "internalType": "uint256",
          "name": "_id",
          "type": "uint256"
        },
        {
          "internalType": "bytes32",
          "name": "_param",
          "type": "bytes32"
        }
      ],
      "name": "getKey",
      "outputs": [
        {
          "internalType": "bytes32",
          "name": "key",
          "type": "bytes32"
        }
      ],
      "stateMutability": "pure",
      "type": "function"
    },
    {
      "inputs": [
        {
          "internalType": "uint256",
          "name": "id",
          "type": "uint256"
        }
      ],
      "name": "getMaintenanceFee",
      "outputs": [
        {
          "internalType": "uint256",
          "name": "",
          "type": "uint256"
        }
      ],
      "stateMutability": "view",
      "type": "function"
    },
    {
      "inputs": [
        {
          "internalType": "uint256",
          "name": "_type",
          "type": "uint256"
        }
      ],
      "name": "getPackageVersion",
      "outputs": [
        {
          "internalType": "uint256",
          "name": "",
          "type": "uint256"
        }
      ],
      "stateMutability": "view",
      "type": "function"
    },
    {
      "inputs": [],
      "name": "getPriceMerkleRoot",
      "outputs": [
        {
          "internalType": "bytes32",
          "name": "",
          "type": "bytes32"
        }
      ],
      "stateMutability": "view",
      "type": "function"
    },
    {
      "inputs": [
        {
          "internalType": "uint256",
          "name": "id",
          "type": "uint256"
        }
      ],
      "name": "getProposal",
      "outputs": [
        {
          "components": [
            {
              "internalType": "address",
              "name": "CONTROLLER",
              "type": "address"
            },
            {
              "internalType": "uint256",
              "name": "TYPE",
              "type": "uint256"
            },
            {
              "internalType": "bytes",
              "name": "NAME",
              "type": "bytes"
            },
            {
              "internalType": "uint256",
              "name": "deadline",
              "type": "uint256"
            }
          ],
          "internalType": "struct Proposal",
          "name": "proposal",
          "type": "tuple"
        }
      ],
      "stateMutability": "view",
      "type": "function"
    },
    {
      "inputs": [
        {
          "internalType": "bytes",
          "name": "pubkey",
          "type": "bytes"
        }
      ],
      "name": "getValidator",
      "outputs": [
        {
          "components": [
            {
              "internalType": "uint64",
              "name": "state",
              "type": "uint64"
            },
            {
              "internalType": "uint64",
              "name": "index",
              "type": "uint64"
            },
            {
              "internalType": "uint64",
              "name": "createdAt",
              "type": "uint64"
            },
            {
              "internalType": "uint64",
              "name": "period",
              "type": "uint64"
            },
            {
              "internalType": "uint256",
              "name": "poolId",
              "type": "uint256"
            },
            {
              "internalType": "uint256",
              "name": "operatorId",
              "type": "uint256"
            },
            {
              "internalType": "uint256",
              "name": "poolFee",
              "type": "uint256"
            },
            {
              "internalType": "uint256",
              "name": "operatorFee",
              "type": "uint256"
            },
            {
              "internalType": "uint256",
              "name": "infrastructureFee",
              "type": "uint256"
            },
            {
              "internalType": "bytes",
              "name": "signature31",
              "type": "bytes"
            }
          ],
          "internalType": "struct Validator",
          "name": "",
          "type": "tuple"
        }
      ],
      "stateMutability": "view",
      "type": "function"
    },
    {
      "inputs": [
        {
          "internalType": "uint256",
          "name": "id",
          "type": "uint256"
        }
      ],
      "name": "getValidatorPeriod",
      "outputs": [
        {
          "internalType": "uint256",
          "name": "",
          "type": "uint256"
        }
      ],
      "stateMutability": "view",
      "type": "function"
    },
    {
      "inputs": [
        {
          "internalType": "uint256",
          "name": "id",
          "type": "uint256"
        }
      ],
      "name": "increaseWalletBalance",
      "outputs": [
        {
          "internalType": "bool",
          "name": "",
          "type": "bool"
        }
      ],
      "stateMutability": "payable",
      "type": "function"
    },
    {
      "inputs": [
        {
          "internalType": "address",
          "name": "_governance",
          "type": "address"
        },
        {
          "internalType": "address",
          "name": "_senate",
          "type": "address"
        },
        {
          "internalType": "address",
          "name": "_gETH",
          "type": "address"
        },
        {
          "internalType": "address",
          "name": "_oracle_position",
          "type": "address"
        },
        {
          "internalType": "bytes",
          "name": "versionName",
          "type": "bytes"
        }
      ],
      "name": "initialize",
      "outputs": [],
      "stateMutability": "nonpayable",
      "type": "function"
    },
    {
      "inputs": [
        {
          "internalType": "uint256",
          "name": "id",
          "type": "uint256"
        },
        {
          "internalType": "uint256",
          "name": "fee",
          "type": "uint256"
        },
        {
          "internalType": "uint256",
          "name": "validatorPeriod",
          "type": "uint256"
        },
        {
          "internalType": "address",
          "name": "maintainer",
          "type": "address"
        }
      ],
      "name": "initiateOperator",
      "outputs": [],
      "stateMutability": "payable",
      "type": "function"
    },
    {
      "inputs": [
        {
          "internalType": "uint256",
          "name": "fee",
          "type": "uint256"
        },
        {
          "internalType": "uint256",
          "name": "middlewareVersion",
          "type": "uint256"
        },
        {
          "internalType": "address",
          "name": "maintainer",
          "type": "address"
        },
        {
          "internalType": "bytes",
          "name": "NAME",
          "type": "bytes"
        },
        {
          "internalType": "bytes",
          "name": "middleware_data",
          "type": "bytes"
        },
        {
          "internalType": "bool[3]",
          "name": "config",
          "type": "bool[3]"
        }
      ],
      "name": "initiatePool",
      "outputs": [
        {
          "internalType": "uint256",
          "name": "poolId",
          "type": "uint256"
        }
      ],
      "stateMutability": "payable",
      "type": "function"
    },
    {
      "inputs": [
        {
          "internalType": "uint256",
          "name": "_type",
          "type": "uint256"
        },
        {
          "internalType": "uint256",
          "name": "_version",
          "type": "uint256"
        }
      ],
      "name": "isMiddleware",
      "outputs": [
        {
          "internalType": "bool",
          "name": "",
          "type": "bool"
        }
      ],
      "stateMutability": "view",
      "type": "function"
    },
    {
      "inputs": [
        {
          "internalType": "uint256",
          "name": "poolId",
          "type": "uint256"
        }
      ],
      "name": "isMintingAllowed",
      "outputs": [
        {
          "internalType": "bool",
          "name": "",
          "type": "bool"
        }
      ],
      "stateMutability": "view",
      "type": "function"
    },
    {
      "inputs": [
        {
          "internalType": "uint256",
          "name": "poolId",
          "type": "uint256"
        }
      ],
      "name": "isPriceValid",
      "outputs": [
        {
          "internalType": "bool",
          "name": "",
          "type": "bool"
        }
      ],
      "stateMutability": "view",
      "type": "function"
    },
    {
      "inputs": [
        {
          "internalType": "uint256",
          "name": "operatorId",
          "type": "uint256"
        }
      ],
      "name": "isPrisoned",
      "outputs": [
        {
          "internalType": "bool",
          "name": "",
          "type": "bool"
        }
      ],
      "stateMutability": "view",
      "type": "function"
    },
    {
      "inputs": [
        {
          "internalType": "uint256",
          "name": "poolId",
          "type": "uint256"
        }
      ],
      "name": "isPrivatePool",
      "outputs": [
        {
          "internalType": "bool",
          "name": "",
          "type": "bool"
        }
      ],
      "stateMutability": "view",
      "type": "function"
    },
    {
      "inputs": [
        {
          "internalType": "uint256",
          "name": "poolId",
          "type": "uint256"
        },
        {
          "internalType": "address",
          "name": "staker",
          "type": "address"
        }
      ],
      "name": "isWhitelisted",
      "outputs": [
        {
          "internalType": "bool",
          "name": "",
          "type": "bool"
        }
      ],
      "stateMutability": "view",
      "type": "function"
    },
    {
      "inputs": [],
      "name": "isolationMode",
      "outputs": [
        {
          "internalType": "bool",
          "name": "",
          "type": "bool"
        }
      ],
      "stateMutability": "view",
      "type": "function"
    },
    {
      "inputs": [
        {
          "internalType": "address",
          "name": "",
          "type": "address"
        },
        {
          "internalType": "address",
          "name": "",
          "type": "address"
        },
        {
          "internalType": "uint256[]",
          "name": "",
          "type": "uint256[]"
        },
        {
          "internalType": "uint256[]",
          "name": "",
          "type": "uint256[]"
        },
        {
          "internalType": "bytes",
          "name": "",
          "type": "bytes"
        }
      ],
      "name": "onERC1155BatchReceived",
      "outputs": [
        {
          "internalType": "bytes4",
          "name": "",
          "type": "bytes4"
        }
      ],
      "stateMutability": "nonpayable",
      "type": "function"
    },
    {
      "inputs": [
        {
          "internalType": "address",
          "name": "",
          "type": "address"
        },
        {
          "internalType": "address",
          "name": "",
          "type": "address"
        },
        {
          "internalType": "uint256",
          "name": "",
          "type": "uint256"
        },
        {
          "internalType": "uint256",
          "name": "",
          "type": "uint256"
        },
        {
          "internalType": "bytes",
          "name": "",
          "type": "bytes"
        }
      ],
      "name": "onERC1155Received",
      "outputs": [
        {
          "internalType": "bytes4",
          "name": "",
          "type": "bytes4"
        }
      ],
      "stateMutability": "nonpayable",
      "type": "function"
    },
    {
      "inputs": [
        {
          "internalType": "uint256",
          "name": "poolId",
          "type": "uint256"
        },
        {
          "internalType": "uint256",
          "name": "operatorId",
          "type": "uint256"
        }
      ],
      "name": "operatorAllowance",
      "outputs": [
        {
          "internalType": "uint256",
          "name": "",
          "type": "uint256"
        }
      ],
      "stateMutability": "view",
      "type": "function"
    },
    {
      "inputs": [],
      "name": "pause",
      "outputs": [],
      "stateMutability": "nonpayable",
      "type": "function"
    },
    {
      "inputs": [],
      "name": "paused",
      "outputs": [
        {
          "internalType": "bool",
          "name": "",
          "type": "bool"
        }
      ],
      "stateMutability": "view",
      "type": "function"
    },
    {
      "inputs": [],
      "name": "pausegETH",
      "outputs": [],
      "stateMutability": "nonpayable",
      "type": "function"
    },
    {
      "inputs": [
        {
          "internalType": "uint256",
          "name": "poolId",
          "type": "uint256"
        },
        {
          "internalType": "uint256",
          "name": "price",
          "type": "uint256"
        },
        {
          "internalType": "bytes32[]",
          "name": "priceProof",
          "type": "bytes32[]"
        }
      ],
      "name": "priceSync",
      "outputs": [],
      "stateMutability": "nonpayable",
      "type": "function"
    },
    {
      "inputs": [
        {
          "internalType": "uint256[]",
          "name": "poolIds",
          "type": "uint256[]"
        },
        {
          "internalType": "uint256[]",
          "name": "prices",
          "type": "uint256[]"
        },
        {
          "internalType": "bytes32[][]",
          "name": "priceProofs",
          "type": "bytes32[][]"
        }
      ],
      "name": "priceSyncBatch",
      "outputs": [],
      "stateMutability": "nonpayable",
      "type": "function"
    },
    {
      "inputs": [
        {
          "internalType": "address",
          "name": "_CONTROLLER",
          "type": "address"
        },
        {
          "internalType": "uint256",
          "name": "_TYPE",
          "type": "uint256"
        },
        {
          "internalType": "bytes",
          "name": "_NAME",
          "type": "bytes"
        },
        {
          "internalType": "uint256",
          "name": "duration",
          "type": "uint256"
        }
      ],
      "name": "propose",
      "outputs": [
        {
          "internalType": "uint256",
          "name": "id",
          "type": "uint256"
        }
      ],
      "stateMutability": "nonpayable",
      "type": "function"
    },
    {
      "inputs": [
        {
          "internalType": "uint256",
          "name": "poolId",
          "type": "uint256"
        },
        {
          "internalType": "uint256",
          "name": "operatorId",
          "type": "uint256"
        },
        {
          "internalType": "bytes[]",
          "name": "pubkeys",
          "type": "bytes[]"
        },
        {
          "internalType": "bytes[]",
          "name": "signatures1",
          "type": "bytes[]"
        },
        {
          "internalType": "bytes[]",
          "name": "signatures31",
          "type": "bytes[]"
        }
      ],
      "name": "proposeStake",
      "outputs": [],
      "stateMutability": "nonpayable",
      "type": "function"
    },
    {
      "inputs": [],
      "name": "proxiableUUID",
      "outputs": [
        {
          "internalType": "bytes32",
          "name": "",
          "type": "bytes32"
        }
      ],
      "stateMutability": "view",
      "type": "function"
    },
    {
      "inputs": [
        {
          "internalType": "uint256",
          "name": "packageType",
          "type": "uint256"
        }
      ],
      "name": "pushUpgrade",
      "outputs": [
        {
          "internalType": "uint256",
          "name": "id",
          "type": "uint256"
        }
      ],
      "stateMutability": "nonpayable",
      "type": "function"
    },
    {
      "inputs": [
        {
          "internalType": "uint256",
          "name": "id",
          "type": "uint256"
        },
        {
          "internalType": "bytes32",
          "name": "key",
          "type": "bytes32"
        }
      ],
      "name": "readAddress",
      "outputs": [
        {
          "internalType": "address",
          "name": "data",
          "type": "address"
        }
      ],
      "stateMutability": "view",
      "type": "function"
    },
    {
      "inputs": [
        {
          "internalType": "uint256",
          "name": "id",
          "type": "uint256"
        },
        {
          "internalType": "bytes32",
          "name": "key",
          "type": "bytes32"
        },
        {
          "internalType": "uint256",
          "name": "index",
          "type": "uint256"
        }
      ],
      "name": "readAddressArray",
      "outputs": [
        {
          "internalType": "address",
          "name": "data",
          "type": "address"
        }
      ],
      "stateMutability": "view",
      "type": "function"
    },
    {
      "inputs": [
        {
          "internalType": "uint256",
          "name": "id",
          "type": "uint256"
        },
        {
          "internalType": "bytes32",
          "name": "key",
          "type": "bytes32"
        }
      ],
      "name": "readBytes",
      "outputs": [
        {
          "internalType": "bytes",
          "name": "data",
          "type": "bytes"
        }
      ],
      "stateMutability": "view",
      "type": "function"
    },
    {
      "inputs": [
        {
          "internalType": "uint256",
          "name": "id",
          "type": "uint256"
        },
        {
          "internalType": "bytes32",
          "name": "key",
          "type": "bytes32"
        },
        {
          "internalType": "uint256",
          "name": "index",
          "type": "uint256"
        }
      ],
      "name": "readBytesArray",
      "outputs": [
        {
          "internalType": "bytes",
          "name": "data",
          "type": "bytes"
        }
      ],
      "stateMutability": "view",
      "type": "function"
    },
    {
      "inputs": [
        {
          "internalType": "uint256",
          "name": "id",
          "type": "uint256"
        },
        {
          "internalType": "bytes32",
          "name": "key",
          "type": "bytes32"
        }
      ],
      "name": "readUint",
      "outputs": [
        {
          "internalType": "uint256",
          "name": "data",
          "type": "uint256"
        }
      ],
      "stateMutability": "view",
      "type": "function"
    },
    {
      "inputs": [
        {
          "internalType": "uint256",
          "name": "id",
          "type": "uint256"
        },
        {
          "internalType": "bytes32",
          "name": "key",
          "type": "bytes32"
        },
        {
          "internalType": "uint256",
          "name": "index",
          "type": "uint256"
        }
      ],
      "name": "readUintArray",
      "outputs": [
        {
          "internalType": "uint256",
          "name": "data",
          "type": "uint256"
        }
      ],
      "stateMutability": "view",
      "type": "function"
    },
    {
      "inputs": [
        {
          "internalType": "uint256[]",
          "name": "feeThefts",
          "type": "uint256[]"
        },
        {
          "internalType": "bytes[]",
          "name": "proofs",
          "type": "bytes[]"
        }
      ],
      "name": "regulateOperators",
      "outputs": [],
      "stateMutability": "nonpayable",
      "type": "function"
    },
    {
      "inputs": [
        {
          "internalType": "uint256",
          "name": "operatorId",
          "type": "uint256"
        }
      ],
      "name": "releasePrisoned",
      "outputs": [],
      "stateMutability": "nonpayable",
      "type": "function"
    },
    {
      "inputs": [
        {
          "internalType": "bytes32",
          "name": "priceMerkleRoot",
          "type": "bytes32"
        },
        {
          "internalType": "bytes32",
          "name": "balanceMerkleRoot",
          "type": "bytes32"
        },
        {
          "internalType": "uint256",
          "name": "allValidatorsCount",
          "type": "uint256"
        }
      ],
      "name": "reportBeacon",
      "outputs": [],
      "stateMutability": "nonpayable",
      "type": "function"
    },
    {
      "inputs": [
        {
          "internalType": "uint256",
          "name": "poolId",
          "type": "uint256"
        },
        {
          "internalType": "bytes",
          "name": "pk",
          "type": "bytes"
        }
      ],
      "name": "requestExit",
      "outputs": [
        {
          "internalType": "bool",
          "name": "",
          "type": "bool"
        }
      ],
      "stateMutability": "nonpayable",
      "type": "function"
    },
    {
      "inputs": [
        {
          "internalType": "address",
          "name": "_newSenate",
          "type": "address"
        }
      ],
      "name": "rescueSenate",
      "outputs": [],
      "stateMutability": "nonpayable",
      "type": "function"
    },
    {
      "inputs": [
        {
          "internalType": "uint256",
          "name": "entry",
          "type": "uint256"
        },
        {
          "internalType": "uint256",
          "name": "exit",
          "type": "uint256"
        }
      ],
      "name": "setBeaconDelays",
      "outputs": [],
      "stateMutability": "nonpayable",
      "type": "function"
    },
    {
      "inputs": [
        {
          "internalType": "uint256",
          "name": "poolId",
          "type": "uint256"
        },
        {
          "internalType": "uint256",
          "name": "operatorId",
          "type": "uint256"
        },
        {
          "internalType": "uint256",
          "name": "fallbackThreshold",
          "type": "uint256"
        }
      ],
      "name": "setFallbackOperator",
      "outputs": [],
      "stateMutability": "nonpayable",
      "type": "function"
    },
    {
      "inputs": [
        {
          "internalType": "uint256",
          "name": "_type",
          "type": "uint256"
        },
        {
          "internalType": "uint256",
          "name": "fee",
          "type": "uint256"
        }
      ],
      "name": "setInfrastructureFee",
      "outputs": [],
      "stateMutability": "nonpayable",
      "type": "function"
    },
    {
      "inputs": [
        {
          "internalType": "uint256",
          "name": "newInitiationDeposit",
          "type": "uint256"
        }
      ],
      "name": "setInitiationDeposit",
      "outputs": [],
      "stateMutability": "nonpayable",
      "type": "function"
    },
    {
      "inputs": [
        {
          "internalType": "uint256",
          "name": "poolId",
          "type": "uint256"
        },
        {
          "internalType": "bool",
          "name": "makePrivate",
          "type": "bool"
        }
      ],
      "name": "setPoolVisibility",
      "outputs": [],
      "stateMutability": "nonpayable",
      "type": "function"
    },
    {
      "inputs": [
        {
          "internalType": "uint256",
          "name": "poolId",
          "type": "uint256"
        },
        {
          "internalType": "address",
          "name": "whitelist",
          "type": "address"
        }
      ],
      "name": "setWhitelist",
      "outputs": [],
      "stateMutability": "nonpayable",
      "type": "function"
    },
    {
      "inputs": [
        {
          "internalType": "uint256",
          "name": "poolId",
          "type": "uint256"
        },
        {
          "internalType": "address",
          "name": "yieldReceiver",
          "type": "address"
        }
      ],
      "name": "setYieldReceiver",
      "outputs": [],
      "stateMutability": "nonpayable",
      "type": "function"
    },
    {
      "inputs": [
        {
          "internalType": "uint256",
          "name": "operatorId",
          "type": "uint256"
        },
        {
          "internalType": "bytes[]",
          "name": "pubkeys",
          "type": "bytes[]"
        }
      ],
      "name": "stake",
      "outputs": [],
      "stateMutability": "nonpayable",
      "type": "function"
    },
    {
      "inputs": [
        {
          "internalType": "bytes4",
          "name": "interfaceId",
          "type": "bytes4"
        }
      ],
      "name": "supportsInterface",
      "outputs": [
        {
          "internalType": "bool",
          "name": "",
          "type": "bool"
        }
      ],
      "stateMutability": "view",
      "type": "function"
    },
    {
      "inputs": [
        {
          "internalType": "uint256",
          "name": "id",
          "type": "uint256"
        },
        {
          "internalType": "uint256",
          "name": "newFee",
          "type": "uint256"
        }
      ],
      "name": "switchMaintenanceFee",
      "outputs": [],
      "stateMutability": "nonpayable",
      "type": "function"
    },
    {
      "inputs": [
        {
          "internalType": "uint256",
          "name": "operatorId",
          "type": "uint256"
        },
        {
          "internalType": "uint256",
          "name": "newPeriod",
          "type": "uint256"
        }
      ],
      "name": "switchValidatorPeriod",
      "outputs": [],
      "stateMutability": "nonpayable",
      "type": "function"
    },
    {
      "inputs": [],
      "name": "unpause",
      "outputs": [],
      "stateMutability": "nonpayable",
      "type": "function"
    },
    {
      "inputs": [],
      "name": "unpausegETH",
      "outputs": [],
      "stateMutability": "nonpayable",
      "type": "function"
    },
    {
      "inputs": [
        {
          "internalType": "uint256",
          "name": "validatorVerificationIndex",
          "type": "uint256"
        },
        {
          "internalType": "bytes[]",
          "name": "alienatedPubkeys",
          "type": "bytes[]"
        }
      ],
      "name": "updateVerificationIndex",
      "outputs": [],
      "stateMutability": "nonpayable",
      "type": "function"
    },
    {
      "inputs": [
        {
          "internalType": "address",
          "name": "newImplementation",
          "type": "address"
        },
        {
          "internalType": "bytes",
          "name": "data",
          "type": "bytes"
        }
      ],
      "name": "upgradeToAndCall",
      "outputs": [],
      "stateMutability": "payable",
      "type": "function"
    },
    {
      "stateMutability": "payable",
      "type": "receive"
    }
  ],
  "transactionHash": "0x932b87e0fbacd39292efba8a114227182bcd57abd3e79558dce2ac1091aed1a7",
  "args": [],
  "numDeployments": 1,
  "solcInputHash": "9f37d23c7f369dde887557e5b9b00ccf",
  "bytecode": "0x60a0604052306080523480156200001557600080fd5b506200002062000026565b620000da565b7ff0c57e16840df040f15088dc2f81fe391c3923bec73e23a9662efc9c229c6a00805468010000000000000000900460ff1615620000775760405163f92ee8a960e01b815260040160405180910390fd5b80546001600160401b0390811614620000d75780546001600160401b0319166001600160401b0390811782556040519081527fc7f505b2f371ae2175ee4913f4499e1f2633a7b5936321eed1cdaeb6115181d29060200160405180910390a15b50565b608051615340620001046000396000818161307d015281816130a601526132ba01526153406000f3fe6080604052600436106104615760003560e01c8063722679541161023f578063b784c7bb11610139578063dd272bf4116100b6578063e3099e091161007a578063e3099e0914610e22578063e72b1d6d14610e42578063e768887e14610e62578063eec29cfc14610e82578063f23a6e6114610ea257600080fd5b8063dd272bf414610d8d578063de22bc7214610dad578063df1ff92914610dcd578063e02a520814610ded578063e05ec0a314610e0d57600080fd5b8063d5357a1a116100fd578063d5357a1a14610cfa578063d6a93ba914610d0d578063d6ab4d3214610d2d578063d89da28614610d4d578063dab840c714610d6d57600080fd5b8063b784c7bb14610c35578063bc197c8114610c55578063c7f758a814610c9a578063cb337b4e14610cc7578063cdaba27414610ce757600080fd5b806398951b56116101c7578063ad4ac4c41161018b578063ad4ac4c414610b5a578063ad8655cb14610ba8578063af6561ef14610bc8578063b29498b914610be8578063b4891bfd14610c0857600080fd5b806398951b5614610a9a57806399ac48ba14610ac957806399ca83c614610ae9578063a270fece14610b09578063ad3cb1cc14610b2957600080fd5b80637e1ece9f1161020e5780637e1ece9f146109c85780638456cb59146109e85780638650c072146109fd5780638aa1043514610a12578063964ff29c14610a2757600080fd5b80637226795414610946578063736ed2e3146109735780637456533c146109935780637d22c35c146109a857600080fd5b80633b8ba8621161035b5780635329512b116102d85780635c975abb1161029c5780635c975abb146108a15780635d9e085d146108c657806366caab6f146108e6578063697684cc146109065780636d07e4041461092657600080fd5b80635329512b1461080157806356a72dbf14610821578063571ac56f146108415780635a34bb15146108615780635b50fea61461088157600080fd5b80634a9364171161031f5780634a936417146107795780634f1ef286146107995780634f62d616146107ac578063524cb25b146107cc57806352d1902d146107ec57600080fd5b80633b8ba862146106dc5780633bc961d6146106fc5780633c6a05ef1461071c5780633c9e438c1461073c5780633f4ba83a1461076457600080fd5b80631da71591116103e95780632ca60e12116103ad5780632ca60e1214610652578063303c01c114610672578063341b3c001461069257806335782386146106a757806335b12f37146106c757600080fd5b80631da71591146105a557806326eef2c0146105c557806327cd2aa4146105e5578063289b3c0d1461060557806328d7d72a1461063257600080fd5b80630aea8f4d116104305780630aea8f4d14610505578063100f72b614610525578063113743cb146105455780631b6f23d0146105655780631d95313a1461058557600080fd5b806301ffc9a71461046d578063041bc623146104a2578063060028ea146104b75780630ab4bc91146104d757600080fd5b3661046857005b600080fd5b34801561047957600080fd5b5061048d610488366004613ecd565b610ece565b60405190151581526020015b60405180910390f35b6104b56104b0366004613f0c565b610f05565b005b3480156104c357600080fd5b5061048d6104d2366004613f4d565b610fc7565b3480156104e357600080fd5b506104f76104f2366004613f66565b611058565b604051908152602001610499565b34801561051157600080fd5b506104f7610520366004613f4d565b611103565b34801561053157600080fd5b5061048d610540366004613f4d565b61118f565b34801561055157600080fd5b506104b5610560366004613fd3565b6111ef565b34801561057157600080fd5b506104b561058036600461408d565b61128e565b34801561059157600080fd5b506104f76105a0366004613f4d565b611313565b3480156105b157600080fd5b506104f76105c0366004613f66565b611333565b3480156105d157600080fd5b506104b56105e03660046140bd565b61133f565b3480156105f157600080fd5b5061048d610600366004613f4d565b6113cf565b34801561061157600080fd5b5061061a61145b565b6040516001600160a01b039091168152602001610499565b34801561063e57600080fd5b506104b561064d366004614108565b611476565b34801561065e57600080fd5b506104b561066d366004613f4d565b6114fd565b34801561067e57600080fd5b506104b561068d3660046141c2565b611564565b34801561069e57600080fd5b506104b5611613565b3480156106b357600080fd5b506104b56106c2366004613f66565b6116ac565b3480156106d357600080fd5b506104f7611708565b3480156106e857600080fd5b506104f76106f7366004614200565b61171d565b34801561070857600080fd5b506104b5610717366004614263565b6117c0565b34801561072857600080fd5b506104b5610737366004613f4d565b61184d565b61074f61074a3660046142a4565b6118d4565b60408051928352602083019190915201610499565b34801561077057600080fd5b506104b5611abb565b34801561078557600080fd5b506104b5610794366004614321565b611af5565b6104b56107a7366004614471565b611c0d565b3480156107b857600080fd5b506104b56107c73660046144c0565b611c2c565b3480156107d857600080fd5b506104b56107e73660046144c0565b611c90565b3480156107f857600080fd5b506104f7611cba565b34801561080d57600080fd5b5061061a61081c3660046144e5565b611cd7565b34801561082d57600080fd5b506104f761083c366004613f66565b611cf9565b34801561084d57600080fd5b506104b561085c3660046144e5565b611d11565b34801561086d57600080fd5b506104f761087c366004614511565b611d74565b34801561088d57600080fd5b506104b561089c36600461455c565b611dab565b3480156108ad57600080fd5b506000805160206152cb8339815191525460ff1661048d565b3480156108d257600080fd5b506104f76108e1366004613f4d565b611e37565b3480156108f257600080fd5b5061048d610901366004613f66565b611e54565b34801561091257600080fd5b5061048d6109213660046141c2565b611e82565b34801561093257600080fd5b506104b56109413660046144c0565b611f41565b34801561095257600080fd5b50610966610961366004613f66565b611f63565b6040516104999190614633565b34801561097f57600080fd5b506104b561098e3660046140bd565b611f7c565b34801561099f57600080fd5b506104f7611fb3565b3480156109b457600080fd5b5061048d6109c33660046144c0565b611fc8565b3480156109d457600080fd5b506104b56109e3366004614646565b612026565b3480156109f457600080fd5b506104b5612082565b348015610a0957600080fd5b5061048d6120ba565b348015610a1e57600080fd5b506104f7612117565b348015610a3357600080fd5b50610a3c61212c565b604080516001600160a01b039c8d1681529b909a1660208c0152988a01979097526060890195909552608088019390935260a087019190915260c086015260e085015261010084015261012083015261014082015261016001610499565b348015610aa657600080fd5b50610aba610ab5366004613f4d565b6121c9565b60405161049993929190614698565b348015610ad557600080fd5b5061061a610ae4366004613f66565b61226b565b348015610af557600080fd5b506104b5610b04366004613f66565b612283565b348015610b1557600080fd5b5061048d610b24366004613f66565b612302565b348015610b3557600080fd5b50610966604051806040016040528060058152602001640352e302e360dc1b81525081565b348015610b6657600080fd5b50610b6f6123b5565b604080516001600160a01b039687168152948616602086015292909416918301919091526060820152608081019190915260a001610499565b348015610bb457600080fd5b506104b5610bc33660046146bf565b6123fc565b348015610bd457600080fd5b506104b5610be33660046146dc565b612450565b348015610bf457600080fd5b506104b5610c03366004613f4d565b6124ac565b348015610c1457600080fd5b50610c28610c23366004614263565b612552565b604051610499919061473b565b348015610c4157600080fd5b506104b5610c50366004613f66565b612716565b348015610c6157600080fd5b50610c81610c70366004614868565b63bc197c8160e01b95945050505050565b6040516001600160e01b03199091168152602001610499565b348015610ca657600080fd5b50610cba610cb5366004613f4d565b612740565b6040516104999190614915565b348015610cd357600080fd5b5061048d610ce2366004613f4d565b612800565b61048d610cf5366004613f4d565b612824565b6104f7610d08366004614963565b6128de565b348015610d1957600080fd5b506104f7610d28366004613f4d565b612993565b348015610d3957600080fd5b506104b5610d48366004614a11565b6129b3565b348015610d5957600080fd5b506104b5610d683660046144c0565b612a13565b348015610d7957600080fd5b506104b5610d883660046146bf565b612a35565b348015610d9957600080fd5b5061048d610da8366004614263565b612a89565b348015610db957600080fd5b506104f7610dc8366004613f4d565b612b12565b348015610dd957600080fd5b506104b5610de83660046144e5565b612b36565b348015610df957600080fd5b506104f7610e08366004613f66565b612b98565b348015610e1957600080fd5b506104b5612bdb565b348015610e2e57600080fd5b506104f7610e3d366004613f4d565b612c57565b348015610e4e57600080fd5b506104f7610e5d3660046144e5565b612df2565b348015610e6e57600080fd5b50610966610e7d3660046144e5565b612e0b565b348015610e8e57600080fd5b506104b5610e9d366004613f66565b612e25565b348015610eae57600080fd5b50610c81610ebd366004614a74565b63f23a6e6160e01b95945050505050565b60006001600160e01b03198216630271189760e51b1480610eff57506301ffc9a760e01b6001600160e01b03198316145b92915050565b610f0d612ea4565b610f15612edc565b7347a58A25133D28af6f11F37Aa25858fD4B32beb96325d41ea5610f37612f0d565b6040516001600160e01b031960e084901b16815260048101919091526024810187905260448101869052606481018590526001600160a01b038416608482015260a40160006040518083038186803b158015610f9257600080fd5b505af4158015610fa6573d6000803e3d6000fd5b50505050610fc160016000805160206152eb83398151915255565b50505050565b600080610fd2612f45565b6040516303318d7b60e01b81526004810182905260248101859052909150738125CE47C7E9fb415D1972096b7a31A0ECfDf31d906303318d7b906044015b602060405180830381865af415801561102d573d6000803e3d6000fd5b505050506040513d601f19601f820116820180604052508101906110519190614adc565b9392505050565b600080611063612f45565b9050738125CE47C7E9fb415D1972096b7a31A0ECfDf31d638463610282611088612f0d565b6040516001600160e01b031960e085901b168152600481019290925260248201526044810187905260648101869052608401602060405180830381865af41580156110d7573d6000803e3d6000fd5b505050506040513d601f19601f820116820180604052508101906110fb9190614af9565b949350505050565b6000738125CE47C7E9fb415D1972096b7a31A0ECfDf31d6392e0c36f611127612f0d565b846040518363ffffffff1660e01b815260040161114e929190918252602082015260400190565b602060405180830381865af415801561116b573d6000803e3d6000fd5b505050506040513d601f19601f82011682018060405250810190610eff9190614af9565b60008061119a612f45565b9050738125CE47C7E9fb415D1972096b7a31A0ECfDf31d63626f6c79826111bf612f0d565b6040516001600160e01b031960e085901b1681526004810192909252602482015260448101869052606401611010565b6111f7612edc565b6000611201612f45565b9050738125CE47C7E9fb415D1972096b7a31A0ECfDf31d63add729db82611226612f0d565b8c8c8c8c8c8c8c8c6040518b63ffffffff1660e01b81526004016112539a99989796959493929190614bcc565b60006040518083038186803b15801561126b57600080fd5b505af415801561127f573d6000803e3d6000fd5b50505050505050505050505050565b738125CE47C7E9fb415D1972096b7a31A0ECfDf31d633d363e596112b0612f0d565b6040516001600160e01b031960e084901b16815260048101919091526024810185905283151560448201526064015b60006040518083038186803b1580156112f757600080fd5b505af415801561130b573d6000803e3d6000fd5b505050505050565b60008061131e612f45565b6000938452600e016020525050604090205490565b60006110518383612f69565b611347612edc565b6000611351612f45565b90507339D4b3ab14457De93319a96A4Aef6267Ea78c999633352002f82611376612f0d565b8787876040518663ffffffff1660e01b8152600401611399959493929190614c31565b60006040518083038186803b1580156113b157600080fd5b505af41580156113c5573d6000803e3d6000fd5b5050505050505050565b6000738125CE47C7E9fb415D1972096b7a31A0ECfDf31d635a24b9396113f3612f0d565b846040518363ffffffff1660e01b815260040161141a929190918252602082015260400190565b602060405180830381865af4158015611437573d6000803e3d6000fd5b505050506040513d601f19601f82011682018060405250810190610eff9190614adc565b600080611466612f95565b546001600160a01b031692915050565b61147e612edc565b738125CE47C7E9fb415D1972096b7a31A0ECfDf31d637274f52b6114a0612f0d565b87878787876040518763ffffffff1660e01b81526004016114c696959493929190614c89565b60006040518083038186803b1580156114de57600080fd5b505af41580156114f2573d6000803e3d6000fd5b505050505050505050565b611505612edc565b600061150f612f45565b90507347a58A25133D28af6f11F37Aa25858fD4B32beb9634451e22a82611534612f0d565b6040516001600160e01b031960e085901b16815260048101929092526024820152604481018590526064016112df565b61156c612ea4565b611574612edc565b600061157e612f45565b9050738125CE47C7E9fb415D1972096b7a31A0ECfDf31d6317c4bb1c826115a3612f0d565b8787876040518663ffffffff1660e01b81526004016115c6959493929190614cc9565b60006040518083038186803b1580156115de57600080fd5b505af41580156115f2573d6000803e3d6000fd5b505050505061160e60016000805160206152eb83398151915255565b505050565b61161b612f95565b546001600160a01b0316331461164c5760405162461bcd60e51b815260040161164390614cef565b60405180910390fd5b611654612f45565b5460408051638456cb5960e01b815290516001600160a01b0390921691638456cb599160048082019260009290919082900301818387803b15801561169857600080fd5b505af1158015610fc1573d6000803e3d6000fd5b6116b4612edc565b738125CE47C7E9fb415D1972096b7a31A0ECfDf31d6383c6b8e56116d6612f0d565b6040516001600160e01b031960e084901b168152600481019190915260248101859052604481018490526064016112df565b600080611713612f45565b600c015492915050565b600080611728612f95565b905073dAD5aDccb670DadDF333630054F50F77877f624e6363feb9748261174d612f0d565b8a8a8a8a8a6040518863ffffffff1660e01b81526004016117749796959493929190614d26565b602060405180830381865af4158015611791573d6000803e3d6000fd5b505050506040513d601f19601f820116820180604052508101906117b59190614af9565b979650505050505050565b6117c8612edc565b60006117d2612f45565b90507339D4b3ab14457De93319a96A4Aef6267Ea78c99963a8499573826117f7612f0d565b86866040518563ffffffff1660e01b81526004016118189493929190614d6e565b60006040518083038186803b15801561183057600080fd5b505af4158015611844573d6000803e3d6000fd5b50505050505050565b611855612f95565b546001600160a01b0316331461187d5760405162461bcd60e51b815260040161164390614cef565b61189d816672656c6561736560c81b42611895612f0d565b929190612fb9565b6040518181527ffb81f9b30d73d830c3544b34d827c08142579ee75710b490bab0b3995468c565906020015b60405180910390a150565b6000806118df612ea4565b6118e7612edc565b60006118f1612f45565b905060006118fd612f0d565b6040516303318d7b60e01b815260048101849052602481018d9052909150738125CE47C7E9fb415D1972096b7a31A0ECfDf31d906303318d7b90604401602060405180830381865af4158015611957573d6000803e3d6000fd5b505050506040513d601f19601f8201168201806040525081019061197b9190614adc565b6119f357817339D4b3ab14457De93319a96A4Aef6267Ea78c99963e3391a1f9091838e8e8e8e6040518763ffffffff1660e01b81526004016119c296959493929190614d98565b60006040518083038186803b1580156119da57600080fd5b505af41580156119ee573d6000803e3d6000fd5b505050505b738125CE47C7E9fb415D1972096b7a31A0ECfDf31d63ef5daee083611a16612f0d565b6040516001600160e01b031960e085901b16815260048101929092526024820152604481018e9052606481018a9052608481018990526001600160a01b03881660a482015260c4016040805180830381865af4158015611a7a573d6000803e3d6000fd5b505050506040513d601f19601f82011682018060405250810190611a9e9190614dd0565b9094509250611aaf9150612f319050565b97509795505050505050565b611ac3612f95565b546001600160a01b03163314611aeb5760405162461bcd60e51b815260040161164390614cef565b611af3612fe1565b565b7ff0c57e16840df040f15088dc2f81fe391c3923bec73e23a9662efc9c229c6a008054600160401b810460ff1615906001600160401b0316600081158015611b3a5750825b90506000826001600160401b03166001148015611b565750303b155b905081158015611b64575080155b15611b825760405163f92ee8a960e01b815260040160405180910390fd5b845467ffffffffffffffff191660011785558315611bac57845460ff60401b1916600160401b1785555b611bba8b8b8b8b8b8b61303b565b8315611c0057845460ff60401b19168555604051600181527fc7f505b2f371ae2175ee4913f4499e1f2633a7b5936321eed1cdaeb6115181d29060200160405180910390a15b5050505050505050505050565b611c15613072565b611c1e82613100565b611c2882826131f2565b5050565b611c34612edc565b738125CE47C7E9fb415D1972096b7a31A0ECfDf31d637e4a66ef611c56612f0d565b6040516001600160e01b031960e084901b1681526004810191909152602481018590526001600160a01b03841660448201526064016112df565b611c98612edc565b738125CE47C7E9fb415D1972096b7a31A0ECfDf31d634da2bf29611c56612f0d565b6000611cc46132af565b506000805160206152ab83398151915290565b600080611ce2612f0d565b9050611cf0818686866132f8565b95945050505050565b600080611d04612f0d565b90506110fb818585613336565b611d19612edc565b738125CE47C7E9fb415D1972096b7a31A0ECfDf31d63b998dc09611d3b612f0d565b6040516001600160e01b031960e084901b1681526004810191909152602481018690526044810185905260648101849052608401611818565b6000838383604051602001611d8b93929190614df4565b60408051601f198184030181529190528051602090910120949350505050565b611db3612edc565b6000611dbd612f45565b90507339D4b3ab14457De93319a96A4Aef6267Ea78c999630bbc72be82611de2612f0d565b8a8a8a8a8a8a6040518963ffffffff1660e01b8152600401611e0b989796959493929190614e18565b60006040518083038186803b158015611e2357600080fd5b505af4158015611c00573d6000803e3d6000fd5b600080611e42612f0d565b60009384526020525050604090205490565b600080611e5f612f45565b6000948552600f0160209081526040808620948652939052505090205460ff1690565b6000611e8c612ea4565b611e94612edc565b6000611e9e612f45565b9050738125CE47C7E9fb415D1972096b7a31A0ECfDf31d63c1aa33c982611ec3612f0d565b8888886040518663ffffffff1660e01b8152600401611ee6959493929190614cc9565b602060405180830381865af4158015611f03573d6000803e3d6000fd5b505050506040513d601f19601f82011682018060405250810190611f279190614adc565b91505061105160016000805160206152eb83398151915255565b73dAD5aDccb670DadDF333630054F50F77877f624e6361642eae611c56612f0d565b60606000611f6f612f0d565b90506110fb818585613360565b611f84612edc565b6000611f8e612f45565b9050738125CE47C7E9fb415D1972096b7a31A0ECfDf31d63d5af43ba82611376612f0d565b600080611fbe612f45565b600b015492915050565b6000738125CE47C7E9fb415D1972096b7a31A0ECfDf31d63ffcba52e611fec612f0d565b6040516001600160e01b031960e084901b1681526004810191909152602481018690526001600160a01b0385166044820152606401611010565b61202e612edc565b6000612038612f45565b90507339D4b3ab14457De93319a96A4Aef6267Ea78c99963e3391a1f8261205d612f0d565b888888886040518763ffffffff1660e01b81526004016114c696959493929190614d98565b61208a612f95565b546001600160a01b031633146120b25760405162461bcd60e51b815260040161164390614cef565b611af3613412565b6000806120c5612f95565b90506120e06000805160206152cb8339815191525460ff1690565b8061210357506120ee61345b565b60028201546001600160a01b03908116911614155b806121115750806003015442115b91505090565b600080612122612f95565b6005015492915050565b600080600080600080600080600080600080612146612f45565b90508060000160009054906101000a90046001600160a01b03169b508060010160009054906101000a90046001600160a01b03169a50806002015499508060030154985080600401549750806005015496508060060154955080600701549450806008015493508060090154925080600a0154915050909192939495969798999a565b60008060606121d784613477565b91945092509050612710821180156121f05750614e1f82105b1561221657836121fe612f45565b6000848152600e919091016020526040902055612264565b614e2082118015612228575061752f82105b15612264576001612237612f45565b6000848152600f91909101602090815260408083208884529091529020805460ff19169115159190911790555b9193909250565b600080612276612f0d565b90506110fb818585613540565b61228b612f95565b546001600160a01b031633146122b35760405162461bcd60e51b815260040161164390614cef565b6122bb612f45565b60405163e844165360e01b815260048101919091526024810183905260448101829052738125CE47C7E9fb415D1972096b7a31A0ECfDf31d9063e8441653906064016112df565b600061230c612ea4565b738125CE47C7E9fb415D1972096b7a31A0ECfDf31d6384bb212c61232e612f0d565b6040516001600160e01b031960e084901b16815260048101919091526024810186905260448101859052606401602060405180830381865af4158015612378573d6000803e3d6000fd5b505050506040513d601f19601f8201168201806040525081019061239c9190614adc565b9050610eff60016000805160206152eb83398151915255565b6000806000806000806123c6612f95565b80546001820154600283015460038401546004909401546001600160a01b039384169b9284169a50921697509195509350915050565b6000612406612f95565b6040516361ac0f7160e11b8152600481018290526001600160a01b038416602482015290915073dAD5aDccb670DadDF333630054F50F77877f624e9063c3581ee2906044016112df565b612458612edc565b6000612462612f45565b90507339D4b3ab14457De93319a96A4Aef6267Ea78c99963d2da84c982612487612f0d565b888888886040518763ffffffff1660e01b81526004016114c696959493929190614eef565b6124b4612f95565b546001600160a01b031633146124dc5760405162461bcd60e51b815260040161164390614cef565b6124e4612f45565b60405163dfc133c560e01b81526004810191909152602481018290527347a58A25133D28af6f11F37Aa25858fD4B32beb99063dfc133c59060440160006040518083038186803b15801561253757600080fd5b505af415801561254b573d6000803e3d6000fd5b5050505050565b6125cc60405180610140016040528060006001600160401b0316815260200160006001600160401b0316815260200160006001600160401b0316815260200160006001600160401b031681526020016000815260200160008152602001600081526020016000815260200160008152602001606081525090565b60006125d6612f45565b905080600d0184846040516125ec929190614f22565b9081526040805191829003602090810183206101408401835280546001600160401b038082168652600160401b8204811693860193909352600160801b8104831693850193909352600160c01b90920416606083015260018101546080830152600281015460a0830152600381015460c0830152600481015460e083015260058101546101008301526006810180546101208401919061268b90614f32565b80601f01602080910402602001604051908101604052809291908181526020018280546126b790614f32565b80156127045780601f106126d957610100808354040283529160200191612704565b820191906000526020600020905b8154815290600101906020018083116126e757829003601f168201915b50505050508152505091505092915050565b61271e612edc565b738125CE47C7E9fb415D1972096b7a31A0ECfDf31d63e2e96bde6116d6612f0d565b612774604051806080016040528060006001600160a01b031681526020016000815260200160608152602001600081525090565b600061277e612f95565b6040516337a3804160e11b8152600481018290526024810185905290915073dAD5aDccb670DadDF333630054F50F77877f624e90636f47008290604401600060405180830381865af41580156127d8573d6000803e3d6000fd5b505050506040513d6000823e601f3d908101601f191682016040526110519190810190614fb1565b6000738125CE47C7E9fb415D1972096b7a31A0ECfDf31d631372531e6113f3612f0d565b600061282e612ea4565b612836612edc565b738125CE47C7E9fb415D1972096b7a31A0ECfDf31d639f300014612858612f0d565b846040518363ffffffff1660e01b815260040161287f929190918252602082015260400190565b602060405180830381865af415801561289c573d6000803e3d6000fd5b505050506040513d601f19601f820116820180604052508101906128c09190614adc565b90506128d960016000805160206152eb83398151915255565b919050565b60006128e8612edc565b60006128f2612f45565b90507347a58A25133D28af6f11F37Aa25858fD4B32beb963fdccde5382612917612f0d565b8d8d8d8d8d8d8d8d6040518b63ffffffff1660e01b81526004016129449a9998979695949392919061505d565b602060405180830381865af4158015612961573d6000803e3d6000fd5b505050506040513d601f19601f820116820180604052508101906129859190614af9565b9a9950505050505050505050565b60008061299e612f45565b60009384526010016020525050604090205490565b6129bb612edc565b60006129c5612f45565b90507339D4b3ab14457De93319a96A4Aef6267Ea78c99963ab0534bb826129ea612f0d565b8a8a8a8a8a8a6040518963ffffffff1660e01b8152600401611e0b9897969594939291906150f5565b738125CE47C7E9fb415D1972096b7a31A0ECfDf31d6353d5aaa7611c56612f0d565b6000612a3f612f95565b6040516307c0451b60e11b8152600481018290526001600160a01b038416602482015290915073dAD5aDccb670DadDF333630054F50F77877f624e90630f808a36906044016112df565b600080612a94612f45565b60405162f852a960e71b8152909150738125CE47C7E9fb415D1972096b7a31A0ECfDf31d90637c29548090612ad190849088908890600401615143565b602060405180830381865af4158015612aee573d6000803e3d6000fd5b505050506040513d601f19601f820116820180604052508101906110fb9190614adc565b6000738125CE47C7E9fb415D1972096b7a31A0ECfDf31d633b19e3c6611127612f0d565b612b3e612edc565b6000612b48612f45565b60405163182f4f4960e01b8152600481018290526024810186905260448101859052606481018490529091507339D4b3ab14457De93319a96A4Aef6267Ea78c9999063182f4f4990608401611399565b600080612ba3612f0d565b600085815260208290526040902080549192509084908110612bc757612bc761515d565b906000526020600020015491505092915050565b612be3612f95565b546001600160a01b03163314612c0b5760405162461bcd60e51b815260040161164390614cef565b612c13612f45565b5460408051631fa5d41d60e11b815290516001600160a01b0390921691633f4ba83a9160048082019260009290919082900301818387803b15801561169857600080fd5b6000612c61612ea4565b612c69612edc565b61271082118015612c7b5750614e1f82105b612cc75760405162461bcd60e51b815260206004820152601b60248201527f504f5254414c3a696e76616c6964207061636b616765207479706500000000006044820152606401611643565b6000612cd1612f45565b6000848152600e9190910160205260408120549150612cee612f0d565b905033633b8ba862612d0e83856921a7a72a2927a62622a960b11b613540565b86612d218587634e414d4560e01b613360565b6224ea006040518563ffffffff1660e01b8152600401612d449493929190615173565b6020604051808303816000875af1158015612d63573d6000803e3d6000fd5b505050506040513d601f19601f82011682018060405250810190612d879190614af9565b925060008311612dd95760405162461bcd60e51b815260206004820152601a60248201527f504f5254414c3a63616e6e6f74207075736820757067726164650000000000006044820152606401611643565b50506128d960016000805160206152eb83398151915255565b600080612dfd612f0d565b9050611cf081868686613574565b60606000612e17612f0d565b9050611cf0818686866135a3565b612e2d612f95565b546001600160a01b03163314612e555760405162461bcd60e51b815260040161164390614cef565b612e5d612f45565b604051634b35132160e01b815260048101919091526024810183905260448101829052738125CE47C7E9fb415D1972096b7a31A0ECfDf31d90634b351321906064016112df565b6000805160206152eb833981519152805460011901612ed657604051633ee5aeb560e01b815260040160405180910390fd5b60029055565b6000805160206152cb8339815191525460ff1615611af35760405163d93c066560e01b815260040160405180910390fd5b7fa3ee0f890fa2a50cc11476f86783721ec49c3aba88b83a957fe08235f6485c0090565b60016000805160206152eb83398151915255565b7f642b1534be65022221e9e6919fcbcd097fefb6d9d9b7897cee77332e470da70090565b604080516020808201949094528082019290925280518083038201815260609092019052805191012090565b7f121584cf2b7b1dee51ceaabc76cdefc72f829ce42dd8cc5282d8e9f009b0420090565b80846001016000612fca8686612f69565b815260208101919091526040016000205550505050565b612fe961365a565b6000805160206152cb833981519152805460ff191681557f5db9ee0a495bf2e6ff9c91a7834c1ba4fdd244a5e8aa4e537bd38aeae4b073aa335b6040516001600160a01b0390911681526020016118c9565b61304361368a565b61306086866130566301e13380426151c7565b61271186866136d3565b61306a84846136f9565b61130b61372b565b306001600160a01b037f00000000000000000000000000000000000000000000000000000000000000001614806130e257507f00000000000000000000000000000000000000000000000000000000000000006001600160a01b03166130d661345b565b6001600160a01b031614155b15611af35760405163703e46dd60e11b815260040160405180910390fd5b600061310a612f95565b905073dAD5aDccb670DadDF333630054F50F77877f624e63b57e6b0b828461313061345b565b6040516001600160e01b031960e086901b16815260048101939093526001600160a01b039182166024840152166044820152606401602060405180830381865af4158015613182573d6000803e3d6000fd5b505050506040513d601f19601f820116820180604052508101906131a69190614adc565b611c285760405162461bcd60e51b815260206004820152601960248201527f474d3a6e6f7420616c6c6f77656420746f2075706772616465000000000000006044820152606401611643565b816001600160a01b03166352d1902d6040518163ffffffff1660e01b8152600401602060405180830381865afa92505050801561324c575060408051601f3d908101601f1916820190925261324991810190614af9565b60015b61327457604051634c9c8ce360e01b81526001600160a01b0383166004820152602401611643565b6000805160206152ab83398151915281146132a557604051632a87526960e21b815260048101829052602401611643565b61160e8383613733565b306001600160a01b037f00000000000000000000000000000000000000000000000000000000000000001614611af35760405163703e46dd60e11b815260040160405180910390fd5b60008460030160006133138461330e8888612f69565b612f69565b81526020810191909152604001600020546001600160a01b031695945050505050565b60008360010160006133488585612f69565b81526020019081526020016000205490509392505050565b60608360020160006133728585612f69565b8152602001908152602001600020805461338b90614f32565b80601f01602080910402602001604051908101604052809291908181526020018280546133b790614f32565b80156134045780601f106133d957610100808354040283529160200191613404565b820191906000526020600020905b8154815290600101906020018083116133e757829003601f168201915b505050505090509392505050565b61341a612edc565b6000805160206152cb833981519152805460ff191660011781557f62e78cea01bee320cd4e420270b5ea74000d11b0c9f74754ebdbfc544b05a25833613023565b6000805160206152ab833981519152546001600160a01b031690565b60008060606000613486612f95565b905073dAD5aDccb670DadDF333630054F50F77877f624e636dc129ae826134ab612f0d565b6040516001600160e01b031960e085901b1681526004810192909252602482015260448101889052606401600060405180830381865af41580156134f3573d6000803e3d6000fd5b505050506040513d6000823e601f3d908101601f1916820160405261351b91908101906151da565b600484015492965090945092508303613538576135388486613789565b509193909250565b60008360030160006135528585612f69565b81526020810191909152604001600020546001600160a01b0316949350505050565b600084600101600061358a8461330e8888612f69565b8152602001908152602001600020549050949350505050565b60608460020160006135b98461330e8888612f69565b815260200190815260200160002080546135d290614f32565b80601f01602080910402602001604051908101604052809291908181526020018280546135fe90614f32565b801561364b5780601f106136205761010080835404028352916020019161364b565b820191906000526020600020905b81548152906001019060200180831161362e57829003601f168201915b50505050509050949350505050565b6000805160206152cb8339815191525460ff16611af357604051638dfc202b60e01b815260040160405180910390fd5b7ff0c57e16840df040f15088dc2f81fe391c3923bec73e23a9662efc9c229c6a0054600160401b900460ff16611af357604051631afcd79f60e31b815260040160405180910390fd5b6136db61368a565b6136e361372b565b6136eb61372b565b61130b8686868686866137ab565b61370161368a565b613709613b34565b613711613b44565b61371961372b565b61372161372b565b611c288282613b54565b611af361368a565b61373c82613cac565b6040516001600160a01b038316907fbc7cd75a20ee27fd9adebab32041f755214dbc6bffa90cc0225b39da2e5c2d3b90600090a28051156137815761160e8282613d11565b611c28613d7e565b6137a28260405180602001604052806000815250611c0d565b611c2881613d9d565b6137b361368a565b6001600160a01b0386166138095760405162461bcd60e51b815260206004820152601c60248201527f474d3a676f7665726e616e63652063616e6e6f74206265207a65726f000000006044820152606401611643565b6001600160a01b03851661385f5760405162461bcd60e51b815260206004820152601860248201527f474d3a73656e6174652063616e6e6f74206265207a65726f00000000000000006044820152606401611643565b4284116138a45760405162461bcd60e51b8152602060048201526013602482015272474d3a6c6f772073656e61746545787069727960681b6044820152606401611643565b826000036138f45760405162461bcd60e51b815260206004820152601d60248201527f474d3a7061636b616765547970652063616e6e6f74206265207a65726f0000006044820152606401611643565b60008190036139505760405162461bcd60e51b815260206004820152602260248201527f474d3a696e697456657273696f6e4e616d652063616e6e6f7420626520656d70604482015261747960f01b6064820152608401611643565b600061395a612f95565b8054336001600160a01b031991821681178355600183018054909216179055600381018690556004810185905590506000613993612f0d565b9050600073dAD5aDccb670DadDF333630054F50F77877f624e6363feb97484846139bb61345b565b8a8a8a620151806040518863ffffffff1660e01b81526004016139e49796959493929190614d26565b602060405180830381865af4158015613a01573d6000803e3d6000fd5b505050506040513d601f19601f82011682018060405250810190613a259190614af9565b6040516336e094d760e11b815260048101859052602481018490526044810182905290915073dAD5aDccb670DadDF333630054F50F77877f624e90636dc129ae90606401600060405180830381865af4158015613a86573d6000803e3d6000fd5b505050506040513d6000823e601f3d908101601f19168201604052613aae91908101906151da565b505050613afc613af786868080601f0160208091040260200160405190810160405280939291908181526020018383808284376000920191909152505050506004860154613de8565b613d9d565b505080546001600160a01b039788166001600160a01b0319918216178255600190910180549690971695169490941790945550505050565b613b3c61368a565b611af3613e1c565b613b4c61368a565b611af3613e24565b613b5c61368a565b6001600160a01b038216613bb25760405162461bcd60e51b815260206004820152601e60248201527f534d3a674554482063616e6e6f74206265207a65726f206164647265737300006044820152606401611643565b6001600160a01b038116613c085760405162461bcd60e51b815260206004820181905260248201527f534d3a6f7261636c652063616e6e6f74206265207a65726f20616464726573736044820152606401611643565b6000613c12612f45565b80546001600160a01b038086166001600160a01b031992831617835560018301805491861691909216179055621275006005820181905560068201556801bc16d674ec800000600780830191909155909150606490613c77906402540be40090615233565b613c81919061524a565b60098201556064613c986402540be4006007615233565b613ca2919061524a565b600a909101555050565b806001600160a01b03163b600003613ce257604051634c9c8ce360e01b81526001600160a01b0382166004820152602401611643565b6000805160206152ab83398151915280546001600160a01b0319166001600160a01b0392909216919091179055565b6060600080846001600160a01b031684604051613d2e919061526c565b600060405180830381855af49150503d8060008114613d69576040519150601f19603f3d011682016040523d82523d6000602084013e613d6e565b606091505b5091509150611cf0858383613e45565b3415611af35760405163b398979f60e01b815260040160405180910390fd5b6000613da7612f95565b600581018390556040518381529091507ffddcded6b4f4730c226821172046b48372d3cd963c159701ae1b7c3bcac541bb9060200160405180910390a15050565b60008282604051602001613dfd929190615288565b60408051601f1981840301815291905280516020909101209392505050565b612f3161368a565b613e2c61368a565b6000805160206152cb833981519152805460ff19169055565b606082613e5a57613e5582613ea1565b611051565b8151158015613e7157506001600160a01b0384163b155b15613e9a57604051639996b31560e01b81526001600160a01b0385166004820152602401611643565b5080611051565b805115613eb15780518082602001fd5b604051630a12f52160e11b815260040160405180910390fd5b50565b600060208284031215613edf57600080fd5b81356001600160e01b03198116811461105157600080fd5b6001600160a01b0381168114613eca57600080fd5b60008060008060808587031215613f2257600080fd5b8435935060208501359250604085013591506060850135613f4281613ef7565b939692955090935050565b600060208284031215613f5f57600080fd5b5035919050565b60008060408385031215613f7957600080fd5b50508035926020909101359150565b60008083601f840112613f9a57600080fd5b5081356001600160401b03811115613fb157600080fd5b6020830191508360208260051b8501011115613fcc57600080fd5b9250929050565b60008060008060008060008060a0898b031215613fef57600080fd5b883597506020890135965060408901356001600160401b038082111561401457600080fd5b6140208c838d01613f88565b909850965060608b013591508082111561403957600080fd5b6140458c838d01613f88565b909650945060808b013591508082111561405e57600080fd5b5061406b8b828c01613f88565b999c989b5096995094979396929594505050565b8015158114613eca57600080fd5b600080604083850312156140a057600080fd5b8235915060208301356140b28161407f565b809150509250929050565b6000806000604084860312156140d257600080fd5b8335925060208401356001600160401b038111156140ef57600080fd5b6140fb86828701613f88565b9497909650939450505050565b60008060008060006060868803121561412057600080fd5b8535945060208601356001600160401b038082111561413e57600080fd5b61414a89838a01613f88565b9096509450604088013591508082111561416357600080fd5b5061417088828901613f88565b969995985093965092949392505050565b60008083601f84011261419357600080fd5b5081356001600160401b038111156141aa57600080fd5b602083019150836020828501011115613fcc57600080fd5b6000806000604084860312156141d757600080fd5b8335925060208401356001600160401b038111156141f457600080fd5b6140fb86828701614181565b60008060008060006080868803121561421857600080fd5b853561422381613ef7565b94506020860135935060408601356001600160401b0381111561424557600080fd5b61425188828901614181565b96999598509660600135949350505050565b6000806020838503121561427657600080fd5b82356001600160401b0381111561428c57600080fd5b61429885828601614181565b90969095509350505050565b600080600080600080600060c0888a0312156142bf57600080fd5b873596506020880135955060408801356001600160401b038111156142e357600080fd5b6142ef8a828b01613f88565b909650945050606088013592506080880135915060a088013561431181613ef7565b8091505092959891949750929550565b60008060008060008060a0878903121561433a57600080fd5b863561434581613ef7565b9550602087013561435581613ef7565b9450604087013561436581613ef7565b9350606087013561437581613ef7565b925060808701356001600160401b0381111561439057600080fd5b61439c89828a01614181565b979a9699509497509295939492505050565b634e487b7160e01b600052604160045260246000fd5b604051601f8201601f191681016001600160401b03811182821017156143ec576143ec6143ae565b604052919050565b60006001600160401b0382111561440d5761440d6143ae565b50601f01601f191660200190565b600082601f83011261442c57600080fd5b813561443f61443a826143f4565b6143c4565b81815284602083860101111561445457600080fd5b816020850160208301376000918101602001919091529392505050565b6000806040838503121561448457600080fd5b823561448f81613ef7565b915060208301356001600160401b038111156144aa57600080fd5b6144b68582860161441b565b9150509250929050565b600080604083850312156144d357600080fd5b8235915060208301356140b281613ef7565b6000806000606084860312156144fa57600080fd5b505081359360208301359350604090920135919050565b60008060006040848603121561452657600080fd5b83356001600160401b0381111561453c57600080fd5b61454886828701614181565b909790965060209590950135949350505050565b6000806000806000806060878903121561457557600080fd5b86356001600160401b038082111561458c57600080fd5b6145988a838b01613f88565b909850965060208901359150808211156145b157600080fd5b6145bd8a838b01613f88565b909650945060408901359150808211156145d657600080fd5b5061439c89828a01613f88565b60005b838110156145fe5781810151838201526020016145e6565b50506000910152565b6000815180845261461f8160208601602086016145e3565b601f01601f19169290920160200192915050565b6020815260006110516020830184614607565b6000806000806060858703121561465c57600080fd5b843593506020850135925060408501356001600160401b0381111561468057600080fd5b61468c87828801613f88565b95989497509550505050565b60018060a01b0384168152826020820152606060408201526000611cf06060830184614607565b6000602082840312156146d157600080fd5b813561105181613ef7565b600080600080604085870312156146f257600080fd5b84356001600160401b038082111561470957600080fd5b61471588838901613f88565b9096509450602087013591508082111561472e57600080fd5b5061468c87828801613f88565b602081526147556020820183516001600160401b03169052565b6000602083015161477160408401826001600160401b03169052565b5060408301516001600160401b03811660608401525060608301516001600160401b038116608084015250608083015160a083015260a083015160c083015260c083015160e083015260e08301516101008181850152808501519150506101208181850152808501519150506101408081850152506110fb610160840182614607565b600082601f83011261480557600080fd5b813560206001600160401b03821115614820576148206143ae565b8160051b61482f8282016143c4565b928352848101820192828101908785111561484957600080fd5b83870192505b848310156117b55782358252918301919083019061484f565b600080600080600060a0868803121561488057600080fd5b853561488b81613ef7565b9450602086013561489b81613ef7565b935060408601356001600160401b03808211156148b757600080fd5b6148c389838a016147f4565b945060608801359150808211156148d957600080fd5b6148e589838a016147f4565b935060808801359150808211156148fb57600080fd5b506149088882890161441b565b9150509295509295909350565b6020815260018060a01b03825116602082015260208201516040820152600060408301516080606084015261494d60a0840182614607565b9050606084015160808401528091505092915050565b600080600080600080600080610100808a8c03121561498157600080fd5b8935985060208a0135975060408a013561499a81613ef7565b965060608a01356001600160401b03808211156149b657600080fd5b6149c28d838e01614181565b909850965060808c01359150808211156149db57600080fd5b506149e88c828d01614181565b9095509350508981018b10156149fd57600080fd5b5060a0890190509295985092959890939650565b60008060008060008060808789031215614a2a57600080fd5b86356001600160401b0380821115614a4157600080fd5b614a4d8a838b01614181565b9098509650602089013595506040890135945060608901359150808211156145d657600080fd5b600080600080600060a08688031215614a8c57600080fd5b8535614a9781613ef7565b94506020860135614aa781613ef7565b9350604086013592506060860135915060808601356001600160401b03811115614ad057600080fd5b6149088882890161441b565b600060208284031215614aee57600080fd5b81516110518161407f565b600060208284031215614b0b57600080fd5b5051919050565b81835281816020850137506000828201602090810191909152601f909101601f19169091010190565b81835260006020808501808196508560051b810191508460005b87811015614bbf5782840389528135601e19883603018112614b7657600080fd5b870185810190356001600160401b03811115614b9157600080fd5b803603821315614ba057600080fd5b614bab868284614b12565b9a87019a9550505090840190600101614b55565b5091979650505050505050565b8a815289602082015288604082015287606082015260e060808201526000614bf860e08301888a614b3b565b82810360a0840152614c0b818789614b3b565b905082810360c0840152614c20818587614b3b565b9d9c50505050505050505050505050565b8581528460208201528360408201526080606082015260006117b5608083018486614b3b565b81835260006001600160fb1b03831115614c7057600080fd5b8260051b80836020870137939093016020019392505050565b868152856020820152608060408201526000614ca9608083018688614c57565b8281036060840152614cbc818587614c57565b9998505050505050505050565b8581528460208201528360408201526080606082015260006117b5608083018486614b12565b6020808252601c908201527f504f5254414c3a73656e646572206e6f7420676f7665726e616e636500000000604082015260600190565b87815286602082015260018060a01b038616604082015284606082015260c060808201526000614d5a60c083018587614b12565b90508260a083015298975050505050505050565b848152836020820152606060408201526000614d8e606083018486614b12565b9695505050505050565b86815285602082015284604082015283606082015260a060808201526000614dc460a083018486614c57565b98975050505050505050565b60008060408385031215614de357600080fd5b505080516020909101519092909150565b604081526000614e08604083018587614b12565b9050826020830152949350505050565b88815260006020898184015260a06040840152614e3960a08401898b614c57565b8381036060850152614e4c81888a614c57565b84810360808601528581529050818101600586811b830184018860005b89811015614eda57858303601f190185528135368c9003601e19018112614e8f57600080fd5b8b0187810190356001600160401b03811115614eaa57600080fd5b80861b3603821315614ebb57600080fd5b614ec6858284614c57565b968901969450505090860190600101614e69565b50909f9e505050505050505050505050505050565b868152856020820152608060408201526000614f0f608083018688614c57565b8281036060840152614cbc818587614b3b565b8183823760009101908152919050565b600181811c90821680614f4657607f821691505b602082108103614f6657634e487b7160e01b600052602260045260246000fd5b50919050565b600082601f830112614f7d57600080fd5b8151614f8b61443a826143f4565b818152846020838601011115614fa057600080fd5b6110fb8260208301602087016145e3565b600060208284031215614fc357600080fd5b81516001600160401b0380821115614fda57600080fd5b9083019060808286031215614fee57600080fd5b604051608081018181108382111715615009576150096143ae565b604052825161501781613ef7565b81526020838101519082015260408301518281111561503557600080fd5b61504187828601614f6c565b6040830152506060830151606082015280935050505092915050565b60006101408c835260208c818501528b60408501528a606085015260018060a01b038a1660808501528160a0850152615099828501898b614b12565b915083820360c08501526150ae828789614b12565b925060e0840191508460005b60038110156150e25781356150ce8161407f565b1515845292820192908201906001016150ba565b505050509b9a5050505050505050505050565b88815287602082015260c06040820152600061511560c08301888a614b12565b86606084015285608084015282810360a0840152615134818587614c57565b9b9a5050505050505050505050565b838152604060208201526000611cf0604083018486614b12565b634e487b7160e01b600052603260045260246000fd5b60018060a01b038516815283602082015260806040820152600061519a6080830185614607565b905063ffffffff8316606083015295945050505050565b634e487b7160e01b600052601160045260246000fd5b80820180821115610eff57610eff6151b1565b6000806000606084860312156151ef57600080fd5b83516151fa81613ef7565b6020850151604086015191945092506001600160401b0381111561521d57600080fd5b61522986828701614f6c565b9150509250925092565b8082028115828204841417610eff57610eff6151b1565b60008261526757634e487b7160e01b600052601260045260246000fd5b500490565b6000825161527e8184602087016145e3565b9190910192915050565b60408152600061529b6040830185614607565b9050826020830152939250505056fe360894a13ba1a3210667c828492db98dca3e2076cc3735a920a3ca505d382bbccd5ed15c6e187e77e9aee88184c21f4f2182ab5827cb3b7e07fbedcd63f033009b779b17422d0df92223018b32b4d1fa46e071723d6817e2486d003becc55f00a2646970667358221220339cf9795e093b97621d6fe2ca8d48ec2e9a4bed56372acf908c2b7fe013af9764736f6c63430008140033",
  "deployedBytecode": "0x6080604052600436106104615760003560e01c8063722679541161023f578063b784c7bb11610139578063dd272bf4116100b6578063e3099e091161007a578063e3099e0914610e22578063e72b1d6d14610e42578063e768887e14610e62578063eec29cfc14610e82578063f23a6e6114610ea257600080fd5b8063dd272bf414610d8d578063de22bc7214610dad578063df1ff92914610dcd578063e02a520814610ded578063e05ec0a314610e0d57600080fd5b8063d5357a1a116100fd578063d5357a1a14610cfa578063d6a93ba914610d0d578063d6ab4d3214610d2d578063d89da28614610d4d578063dab840c714610d6d57600080fd5b8063b784c7bb14610c35578063bc197c8114610c55578063c7f758a814610c9a578063cb337b4e14610cc7578063cdaba27414610ce757600080fd5b806398951b56116101c7578063ad4ac4c41161018b578063ad4ac4c414610b5a578063ad8655cb14610ba8578063af6561ef14610bc8578063b29498b914610be8578063b4891bfd14610c0857600080fd5b806398951b5614610a9a57806399ac48ba14610ac957806399ca83c614610ae9578063a270fece14610b09578063ad3cb1cc14610b2957600080fd5b80637e1ece9f1161020e5780637e1ece9f146109c85780638456cb59146109e85780638650c072146109fd5780638aa1043514610a12578063964ff29c14610a2757600080fd5b80637226795414610946578063736ed2e3146109735780637456533c146109935780637d22c35c146109a857600080fd5b80633b8ba8621161035b5780635329512b116102d85780635c975abb1161029c5780635c975abb146108a15780635d9e085d146108c657806366caab6f146108e6578063697684cc146109065780636d07e4041461092657600080fd5b80635329512b1461080157806356a72dbf14610821578063571ac56f146108415780635a34bb15146108615780635b50fea61461088157600080fd5b80634a9364171161031f5780634a936417146107795780634f1ef286146107995780634f62d616146107ac578063524cb25b146107cc57806352d1902d146107ec57600080fd5b80633b8ba862146106dc5780633bc961d6146106fc5780633c6a05ef1461071c5780633c9e438c1461073c5780633f4ba83a1461076457600080fd5b80631da71591116103e95780632ca60e12116103ad5780632ca60e1214610652578063303c01c114610672578063341b3c001461069257806335782386146106a757806335b12f37146106c757600080fd5b80631da71591146105a557806326eef2c0146105c557806327cd2aa4146105e5578063289b3c0d1461060557806328d7d72a1461063257600080fd5b80630aea8f4d116104305780630aea8f4d14610505578063100f72b614610525578063113743cb146105455780631b6f23d0146105655780631d95313a1461058557600080fd5b806301ffc9a71461046d578063041bc623146104a2578063060028ea146104b75780630ab4bc91146104d757600080fd5b3661046857005b600080fd5b34801561047957600080fd5b5061048d610488366004613ecd565b610ece565b60405190151581526020015b60405180910390f35b6104b56104b0366004613f0c565b610f05565b005b3480156104c357600080fd5b5061048d6104d2366004613f4d565b610fc7565b3480156104e357600080fd5b506104f76104f2366004613f66565b611058565b604051908152602001610499565b34801561051157600080fd5b506104f7610520366004613f4d565b611103565b34801561053157600080fd5b5061048d610540366004613f4d565b61118f565b34801561055157600080fd5b506104b5610560366004613fd3565b6111ef565b34801561057157600080fd5b506104b561058036600461408d565b61128e565b34801561059157600080fd5b506104f76105a0366004613f4d565b611313565b3480156105b157600080fd5b506104f76105c0366004613f66565b611333565b3480156105d157600080fd5b506104b56105e03660046140bd565b61133f565b3480156105f157600080fd5b5061048d610600366004613f4d565b6113cf565b34801561061157600080fd5b5061061a61145b565b6040516001600160a01b039091168152602001610499565b34801561063e57600080fd5b506104b561064d366004614108565b611476565b34801561065e57600080fd5b506104b561066d366004613f4d565b6114fd565b34801561067e57600080fd5b506104b561068d3660046141c2565b611564565b34801561069e57600080fd5b506104b5611613565b3480156106b357600080fd5b506104b56106c2366004613f66565b6116ac565b3480156106d357600080fd5b506104f7611708565b3480156106e857600080fd5b506104f76106f7366004614200565b61171d565b34801561070857600080fd5b506104b5610717366004614263565b6117c0565b34801561072857600080fd5b506104b5610737366004613f4d565b61184d565b61074f61074a3660046142a4565b6118d4565b60408051928352602083019190915201610499565b34801561077057600080fd5b506104b5611abb565b34801561078557600080fd5b506104b5610794366004614321565b611af5565b6104b56107a7366004614471565b611c0d565b3480156107b857600080fd5b506104b56107c73660046144c0565b611c2c565b3480156107d857600080fd5b506104b56107e73660046144c0565b611c90565b3480156107f857600080fd5b506104f7611cba565b34801561080d57600080fd5b5061061a61081c3660046144e5565b611cd7565b34801561082d57600080fd5b506104f761083c366004613f66565b611cf9565b34801561084d57600080fd5b506104b561085c3660046144e5565b611d11565b34801561086d57600080fd5b506104f761087c366004614511565b611d74565b34801561088d57600080fd5b506104b561089c36600461455c565b611dab565b3480156108ad57600080fd5b506000805160206152cb8339815191525460ff1661048d565b3480156108d257600080fd5b506104f76108e1366004613f4d565b611e37565b3480156108f257600080fd5b5061048d610901366004613f66565b611e54565b34801561091257600080fd5b5061048d6109213660046141c2565b611e82565b34801561093257600080fd5b506104b56109413660046144c0565b611f41565b34801561095257600080fd5b50610966610961366004613f66565b611f63565b6040516104999190614633565b34801561097f57600080fd5b506104b561098e3660046140bd565b611f7c565b34801561099f57600080fd5b506104f7611fb3565b3480156109b457600080fd5b5061048d6109c33660046144c0565b611fc8565b3480156109d457600080fd5b506104b56109e3366004614646565b612026565b3480156109f457600080fd5b506104b5612082565b348015610a0957600080fd5b5061048d6120ba565b348015610a1e57600080fd5b506104f7612117565b348015610a3357600080fd5b50610a3c61212c565b604080516001600160a01b039c8d1681529b909a1660208c0152988a01979097526060890195909552608088019390935260a087019190915260c086015260e085015261010084015261012083015261014082015261016001610499565b348015610aa657600080fd5b50610aba610ab5366004613f4d565b6121c9565b60405161049993929190614698565b348015610ad557600080fd5b5061061a610ae4366004613f66565b61226b565b348015610af557600080fd5b506104b5610b04366004613f66565b612283565b348015610b1557600080fd5b5061048d610b24366004613f66565b612302565b348015610b3557600080fd5b50610966604051806040016040528060058152602001640352e302e360dc1b81525081565b348015610b6657600080fd5b50610b6f6123b5565b604080516001600160a01b039687168152948616602086015292909416918301919091526060820152608081019190915260a001610499565b348015610bb457600080fd5b506104b5610bc33660046146bf565b6123fc565b348015610bd457600080fd5b506104b5610be33660046146dc565b612450565b348015610bf457600080fd5b506104b5610c03366004613f4d565b6124ac565b348015610c1457600080fd5b50610c28610c23366004614263565b612552565b604051610499919061473b565b348015610c4157600080fd5b506104b5610c50366004613f66565b612716565b348015610c6157600080fd5b50610c81610c70366004614868565b63bc197c8160e01b95945050505050565b6040516001600160e01b03199091168152602001610499565b348015610ca657600080fd5b50610cba610cb5366004613f4d565b612740565b6040516104999190614915565b348015610cd357600080fd5b5061048d610ce2366004613f4d565b612800565b61048d610cf5366004613f4d565b612824565b6104f7610d08366004614963565b6128de565b348015610d1957600080fd5b506104f7610d28366004613f4d565b612993565b348015610d3957600080fd5b506104b5610d48366004614a11565b6129b3565b348015610d5957600080fd5b506104b5610d683660046144c0565b612a13565b348015610d7957600080fd5b506104b5610d883660046146bf565b612a35565b348015610d9957600080fd5b5061048d610da8366004614263565b612a89565b348015610db957600080fd5b506104f7610dc8366004613f4d565b612b12565b348015610dd957600080fd5b506104b5610de83660046144e5565b612b36565b348015610df957600080fd5b506104f7610e08366004613f66565b612b98565b348015610e1957600080fd5b506104b5612bdb565b348015610e2e57600080fd5b506104f7610e3d366004613f4d565b612c57565b348015610e4e57600080fd5b506104f7610e5d3660046144e5565b612df2565b348015610e6e57600080fd5b50610966610e7d3660046144e5565b612e0b565b348015610e8e57600080fd5b506104b5610e9d366004613f66565b612e25565b348015610eae57600080fd5b50610c81610ebd366004614a74565b63f23a6e6160e01b95945050505050565b60006001600160e01b03198216630271189760e51b1480610eff57506301ffc9a760e01b6001600160e01b03198316145b92915050565b610f0d612ea4565b610f15612edc565b73__$ead56f386be1b131e7042da855c3834b47$__6325d41ea5610f37612f0d565b6040516001600160e01b031960e084901b16815260048101919091526024810187905260448101869052606481018590526001600160a01b038416608482015260a40160006040518083038186803b158015610f9257600080fd5b505af4158015610fa6573d6000803e3d6000fd5b50505050610fc160016000805160206152eb83398151915255565b50505050565b600080610fd2612f45565b6040516303318d7b60e01b8152600481018290526024810185905290915073__$c6d91ac6527b4f29f5b2ff90afd2bb0508$__906303318d7b906044015b602060405180830381865af415801561102d573d6000803e3d6000fd5b505050506040513d601f19601f820116820180604052508101906110519190614adc565b9392505050565b600080611063612f45565b905073__$c6d91ac6527b4f29f5b2ff90afd2bb0508$__638463610282611088612f0d565b6040516001600160e01b031960e085901b168152600481019290925260248201526044810187905260648101869052608401602060405180830381865af41580156110d7573d6000803e3d6000fd5b505050506040513d601f19601f820116820180604052508101906110fb9190614af9565b949350505050565b600073__$c6d91ac6527b4f29f5b2ff90afd2bb0508$__6392e0c36f611127612f0d565b846040518363ffffffff1660e01b815260040161114e929190918252602082015260400190565b602060405180830381865af415801561116b573d6000803e3d6000fd5b505050506040513d601f19601f82011682018060405250810190610eff9190614af9565b60008061119a612f45565b905073__$c6d91ac6527b4f29f5b2ff90afd2bb0508$__63626f6c79826111bf612f0d565b6040516001600160e01b031960e085901b1681526004810192909252602482015260448101869052606401611010565b6111f7612edc565b6000611201612f45565b905073__$c6d91ac6527b4f29f5b2ff90afd2bb0508$__63add729db82611226612f0d565b8c8c8c8c8c8c8c8c6040518b63ffffffff1660e01b81526004016112539a99989796959493929190614bcc565b60006040518083038186803b15801561126b57600080fd5b505af415801561127f573d6000803e3d6000fd5b50505050505050505050505050565b73__$c6d91ac6527b4f29f5b2ff90afd2bb0508$__633d363e596112b0612f0d565b6040516001600160e01b031960e084901b16815260048101919091526024810185905283151560448201526064015b60006040518083038186803b1580156112f757600080fd5b505af415801561130b573d6000803e3d6000fd5b505050505050565b60008061131e612f45565b6000938452600e016020525050604090205490565b60006110518383612f69565b611347612edc565b6000611351612f45565b905073__$141349dbd6fc2728c585535e71cecc4adb$__633352002f82611376612f0d565b8787876040518663ffffffff1660e01b8152600401611399959493929190614c31565b60006040518083038186803b1580156113b157600080fd5b505af41580156113c5573d6000803e3d6000fd5b5050505050505050565b600073__$c6d91ac6527b4f29f5b2ff90afd2bb0508$__635a24b9396113f3612f0d565b846040518363ffffffff1660e01b815260040161141a929190918252602082015260400190565b602060405180830381865af4158015611437573d6000803e3d6000fd5b505050506040513d601f19601f82011682018060405250810190610eff9190614adc565b600080611466612f95565b546001600160a01b031692915050565b61147e612edc565b73__$c6d91ac6527b4f29f5b2ff90afd2bb0508$__637274f52b6114a0612f0d565b87878787876040518763ffffffff1660e01b81526004016114c696959493929190614c89565b60006040518083038186803b1580156114de57600080fd5b505af41580156114f2573d6000803e3d6000fd5b505050505050505050565b611505612edc565b600061150f612f45565b905073__$ead56f386be1b131e7042da855c3834b47$__634451e22a82611534612f0d565b6040516001600160e01b031960e085901b16815260048101929092526024820152604481018590526064016112df565b61156c612ea4565b611574612edc565b600061157e612f45565b905073__$c6d91ac6527b4f29f5b2ff90afd2bb0508$__6317c4bb1c826115a3612f0d565b8787876040518663ffffffff1660e01b81526004016115c6959493929190614cc9565b60006040518083038186803b1580156115de57600080fd5b505af41580156115f2573d6000803e3d6000fd5b505050505061160e60016000805160206152eb83398151915255565b505050565b61161b612f95565b546001600160a01b0316331461164c5760405162461bcd60e51b815260040161164390614cef565b60405180910390fd5b611654612f45565b5460408051638456cb5960e01b815290516001600160a01b0390921691638456cb599160048082019260009290919082900301818387803b15801561169857600080fd5b505af1158015610fc1573d6000803e3d6000fd5b6116b4612edc565b73__$c6d91ac6527b4f29f5b2ff90afd2bb0508$__6383c6b8e56116d6612f0d565b6040516001600160e01b031960e084901b168152600481019190915260248101859052604481018490526064016112df565b600080611713612f45565b600c015492915050565b600080611728612f95565b905073__$dabd46e1bb7f0d62843614b2ceac53b60c$__6363feb9748261174d612f0d565b8a8a8a8a8a6040518863ffffffff1660e01b81526004016117749796959493929190614d26565b602060405180830381865af4158015611791573d6000803e3d6000fd5b505050506040513d601f19601f820116820180604052508101906117b59190614af9565b979650505050505050565b6117c8612edc565b60006117d2612f45565b905073__$141349dbd6fc2728c585535e71cecc4adb$__63a8499573826117f7612f0d565b86866040518563ffffffff1660e01b81526004016118189493929190614d6e565b60006040518083038186803b15801561183057600080fd5b505af4158015611844573d6000803e3d6000fd5b50505050505050565b611855612f95565b546001600160a01b0316331461187d5760405162461bcd60e51b815260040161164390614cef565b61189d816672656c6561736560c81b42611895612f0d565b929190612fb9565b6040518181527ffb81f9b30d73d830c3544b34d827c08142579ee75710b490bab0b3995468c565906020015b60405180910390a150565b6000806118df612ea4565b6118e7612edc565b60006118f1612f45565b905060006118fd612f0d565b6040516303318d7b60e01b815260048101849052602481018d905290915073__$c6d91ac6527b4f29f5b2ff90afd2bb0508$__906303318d7b90604401602060405180830381865af4158015611957573d6000803e3d6000fd5b505050506040513d601f19601f8201168201806040525081019061197b9190614adc565b6119f3578173__$141349dbd6fc2728c585535e71cecc4adb$__63e3391a1f9091838e8e8e8e6040518763ffffffff1660e01b81526004016119c296959493929190614d98565b60006040518083038186803b1580156119da57600080fd5b505af41580156119ee573d6000803e3d6000fd5b505050505b73__$c6d91ac6527b4f29f5b2ff90afd2bb0508$__63ef5daee083611a16612f0d565b6040516001600160e01b031960e085901b16815260048101929092526024820152604481018e9052606481018a9052608481018990526001600160a01b03881660a482015260c4016040805180830381865af4158015611a7a573d6000803e3d6000fd5b505050506040513d601f19601f82011682018060405250810190611a9e9190614dd0565b9094509250611aaf9150612f319050565b97509795505050505050565b611ac3612f95565b546001600160a01b03163314611aeb5760405162461bcd60e51b815260040161164390614cef565b611af3612fe1565b565b7ff0c57e16840df040f15088dc2f81fe391c3923bec73e23a9662efc9c229c6a008054600160401b810460ff1615906001600160401b0316600081158015611b3a5750825b90506000826001600160401b03166001148015611b565750303b155b905081158015611b64575080155b15611b825760405163f92ee8a960e01b815260040160405180910390fd5b845467ffffffffffffffff191660011785558315611bac57845460ff60401b1916600160401b1785555b611bba8b8b8b8b8b8b61303b565b8315611c0057845460ff60401b19168555604051600181527fc7f505b2f371ae2175ee4913f4499e1f2633a7b5936321eed1cdaeb6115181d29060200160405180910390a15b5050505050505050505050565b611c15613072565b611c1e82613100565b611c2882826131f2565b5050565b611c34612edc565b73__$c6d91ac6527b4f29f5b2ff90afd2bb0508$__637e4a66ef611c56612f0d565b6040516001600160e01b031960e084901b1681526004810191909152602481018590526001600160a01b03841660448201526064016112df565b611c98612edc565b73__$c6d91ac6527b4f29f5b2ff90afd2bb0508$__634da2bf29611c56612f0d565b6000611cc46132af565b506000805160206152ab83398151915290565b600080611ce2612f0d565b9050611cf0818686866132f8565b95945050505050565b600080611d04612f0d565b90506110fb818585613336565b611d19612edc565b73__$c6d91ac6527b4f29f5b2ff90afd2bb0508$__63b998dc09611d3b612f0d565b6040516001600160e01b031960e084901b1681526004810191909152602481018690526044810185905260648101849052608401611818565b6000838383604051602001611d8b93929190614df4565b60408051601f198184030181529190528051602090910120949350505050565b611db3612edc565b6000611dbd612f45565b905073__$141349dbd6fc2728c585535e71cecc4adb$__630bbc72be82611de2612f0d565b8a8a8a8a8a8a6040518963ffffffff1660e01b8152600401611e0b989796959493929190614e18565b60006040518083038186803b158015611e2357600080fd5b505af4158015611c00573d6000803e3d6000fd5b600080611e42612f0d565b60009384526020525050604090205490565b600080611e5f612f45565b6000948552600f0160209081526040808620948652939052505090205460ff1690565b6000611e8c612ea4565b611e94612edc565b6000611e9e612f45565b905073__$c6d91ac6527b4f29f5b2ff90afd2bb0508$__63c1aa33c982611ec3612f0d565b8888886040518663ffffffff1660e01b8152600401611ee6959493929190614cc9565b602060405180830381865af4158015611f03573d6000803e3d6000fd5b505050506040513d601f19601f82011682018060405250810190611f279190614adc565b91505061105160016000805160206152eb83398151915255565b73__$dabd46e1bb7f0d62843614b2ceac53b60c$__6361642eae611c56612f0d565b60606000611f6f612f0d565b90506110fb818585613360565b611f84612edc565b6000611f8e612f45565b905073__$c6d91ac6527b4f29f5b2ff90afd2bb0508$__63d5af43ba82611376612f0d565b600080611fbe612f45565b600b015492915050565b600073__$c6d91ac6527b4f29f5b2ff90afd2bb0508$__63ffcba52e611fec612f0d565b6040516001600160e01b031960e084901b1681526004810191909152602481018690526001600160a01b0385166044820152606401611010565b61202e612edc565b6000612038612f45565b905073__$141349dbd6fc2728c585535e71cecc4adb$__63e3391a1f8261205d612f0d565b888888886040518763ffffffff1660e01b81526004016114c696959493929190614d98565b61208a612f95565b546001600160a01b031633146120b25760405162461bcd60e51b815260040161164390614cef565b611af3613412565b6000806120c5612f95565b90506120e06000805160206152cb8339815191525460ff1690565b8061210357506120ee61345b565b60028201546001600160a01b03908116911614155b806121115750806003015442115b91505090565b600080612122612f95565b6005015492915050565b600080600080600080600080600080600080612146612f45565b90508060000160009054906101000a90046001600160a01b03169b508060010160009054906101000a90046001600160a01b03169a50806002015499508060030154985080600401549750806005015496508060060154955080600701549450806008015493508060090154925080600a0154915050909192939495969798999a565b60008060606121d784613477565b91945092509050612710821180156121f05750614e1f82105b1561221657836121fe612f45565b6000848152600e919091016020526040902055612264565b614e2082118015612228575061752f82105b15612264576001612237612f45565b6000848152600f91909101602090815260408083208884529091529020805460ff19169115159190911790555b9193909250565b600080612276612f0d565b90506110fb818585613540565b61228b612f95565b546001600160a01b031633146122b35760405162461bcd60e51b815260040161164390614cef565b6122bb612f45565b60405163e844165360e01b81526004810191909152602481018390526044810182905273__$c6d91ac6527b4f29f5b2ff90afd2bb0508$__9063e8441653906064016112df565b600061230c612ea4565b73__$c6d91ac6527b4f29f5b2ff90afd2bb0508$__6384bb212c61232e612f0d565b6040516001600160e01b031960e084901b16815260048101919091526024810186905260448101859052606401602060405180830381865af4158015612378573d6000803e3d6000fd5b505050506040513d601f19601f8201168201806040525081019061239c9190614adc565b9050610eff60016000805160206152eb83398151915255565b6000806000806000806123c6612f95565b80546001820154600283015460038401546004909401546001600160a01b039384169b9284169a50921697509195509350915050565b6000612406612f95565b6040516361ac0f7160e11b8152600481018290526001600160a01b038416602482015290915073__$dabd46e1bb7f0d62843614b2ceac53b60c$__9063c3581ee2906044016112df565b612458612edc565b6000612462612f45565b905073__$141349dbd6fc2728c585535e71cecc4adb$__63d2da84c982612487612f0d565b888888886040518763ffffffff1660e01b81526004016114c696959493929190614eef565b6124b4612f95565b546001600160a01b031633146124dc5760405162461bcd60e51b815260040161164390614cef565b6124e4612f45565b60405163dfc133c560e01b815260048101919091526024810182905273__$ead56f386be1b131e7042da855c3834b47$__9063dfc133c59060440160006040518083038186803b15801561253757600080fd5b505af415801561254b573d6000803e3d6000fd5b5050505050565b6125cc60405180610140016040528060006001600160401b0316815260200160006001600160401b0316815260200160006001600160401b0316815260200160006001600160401b031681526020016000815260200160008152602001600081526020016000815260200160008152602001606081525090565b60006125d6612f45565b905080600d0184846040516125ec929190614f22565b9081526040805191829003602090810183206101408401835280546001600160401b038082168652600160401b8204811693860193909352600160801b8104831693850193909352600160c01b90920416606083015260018101546080830152600281015460a0830152600381015460c0830152600481015460e083015260058101546101008301526006810180546101208401919061268b90614f32565b80601f01602080910402602001604051908101604052809291908181526020018280546126b790614f32565b80156127045780601f106126d957610100808354040283529160200191612704565b820191906000526020600020905b8154815290600101906020018083116126e757829003601f168201915b50505050508152505091505092915050565b61271e612edc565b73__$c6d91ac6527b4f29f5b2ff90afd2bb0508$__63e2e96bde6116d6612f0d565b612774604051806080016040528060006001600160a01b031681526020016000815260200160608152602001600081525090565b600061277e612f95565b6040516337a3804160e11b8152600481018290526024810185905290915073__$dabd46e1bb7f0d62843614b2ceac53b60c$__90636f47008290604401600060405180830381865af41580156127d8573d6000803e3d6000fd5b505050506040513d6000823e601f3d908101601f191682016040526110519190810190614fb1565b600073__$c6d91ac6527b4f29f5b2ff90afd2bb0508$__631372531e6113f3612f0d565b600061282e612ea4565b612836612edc565b73__$c6d91ac6527b4f29f5b2ff90afd2bb0508$__639f300014612858612f0d565b846040518363ffffffff1660e01b815260040161287f929190918252602082015260400190565b602060405180830381865af415801561289c573d6000803e3d6000fd5b505050506040513d601f19601f820116820180604052508101906128c09190614adc565b90506128d960016000805160206152eb83398151915255565b919050565b60006128e8612edc565b60006128f2612f45565b905073__$ead56f386be1b131e7042da855c3834b47$__63fdccde5382612917612f0d565b8d8d8d8d8d8d8d8d6040518b63ffffffff1660e01b81526004016129449a9998979695949392919061505d565b602060405180830381865af4158015612961573d6000803e3d6000fd5b505050506040513d601f19601f820116820180604052508101906129859190614af9565b9a9950505050505050505050565b60008061299e612f45565b60009384526010016020525050604090205490565b6129bb612edc565b60006129c5612f45565b905073__$141349dbd6fc2728c585535e71cecc4adb$__63ab0534bb826129ea612f0d565b8a8a8a8a8a8a6040518963ffffffff1660e01b8152600401611e0b9897969594939291906150f5565b73__$c6d91ac6527b4f29f5b2ff90afd2bb0508$__6353d5aaa7611c56612f0d565b6000612a3f612f95565b6040516307c0451b60e11b8152600481018290526001600160a01b038416602482015290915073__$dabd46e1bb7f0d62843614b2ceac53b60c$__90630f808a36906044016112df565b600080612a94612f45565b60405162f852a960e71b815290915073__$c6d91ac6527b4f29f5b2ff90afd2bb0508$__90637c29548090612ad190849088908890600401615143565b602060405180830381865af4158015612aee573d6000803e3d6000fd5b505050506040513d601f19601f820116820180604052508101906110fb9190614adc565b600073__$c6d91ac6527b4f29f5b2ff90afd2bb0508$__633b19e3c6611127612f0d565b612b3e612edc565b6000612b48612f45565b60405163182f4f4960e01b81526004810182905260248101869052604481018590526064810184905290915073__$141349dbd6fc2728c585535e71cecc4adb$__9063182f4f4990608401611399565b600080612ba3612f0d565b600085815260208290526040902080549192509084908110612bc757612bc761515d565b906000526020600020015491505092915050565b612be3612f95565b546001600160a01b03163314612c0b5760405162461bcd60e51b815260040161164390614cef565b612c13612f45565b5460408051631fa5d41d60e11b815290516001600160a01b0390921691633f4ba83a9160048082019260009290919082900301818387803b15801561169857600080fd5b6000612c61612ea4565b612c69612edc565b61271082118015612c7b5750614e1f82105b612cc75760405162461bcd60e51b815260206004820152601b60248201527f504f5254414c3a696e76616c6964207061636b616765207479706500000000006044820152606401611643565b6000612cd1612f45565b6000848152600e9190910160205260408120549150612cee612f0d565b905033633b8ba862612d0e83856921a7a72a2927a62622a960b11b613540565b86612d218587634e414d4560e01b613360565b6224ea006040518563ffffffff1660e01b8152600401612d449493929190615173565b6020604051808303816000875af1158015612d63573d6000803e3d6000fd5b505050506040513d601f19601f82011682018060405250810190612d879190614af9565b925060008311612dd95760405162461bcd60e51b815260206004820152601a60248201527f504f5254414c3a63616e6e6f74207075736820757067726164650000000000006044820152606401611643565b50506128d960016000805160206152eb83398151915255565b600080612dfd612f0d565b9050611cf081868686613574565b60606000612e17612f0d565b9050611cf0818686866135a3565b612e2d612f95565b546001600160a01b03163314612e555760405162461bcd60e51b815260040161164390614cef565b612e5d612f45565b604051634b35132160e01b81526004810191909152602481018390526044810182905273__$c6d91ac6527b4f29f5b2ff90afd2bb0508$__90634b351321906064016112df565b6000805160206152eb833981519152805460011901612ed657604051633ee5aeb560e01b815260040160405180910390fd5b60029055565b6000805160206152cb8339815191525460ff1615611af35760405163d93c066560e01b815260040160405180910390fd5b7fa3ee0f890fa2a50cc11476f86783721ec49c3aba88b83a957fe08235f6485c0090565b60016000805160206152eb83398151915255565b7f642b1534be65022221e9e6919fcbcd097fefb6d9d9b7897cee77332e470da70090565b604080516020808201949094528082019290925280518083038201815260609092019052805191012090565b7f121584cf2b7b1dee51ceaabc76cdefc72f829ce42dd8cc5282d8e9f009b0420090565b80846001016000612fca8686612f69565b815260208101919091526040016000205550505050565b612fe961365a565b6000805160206152cb833981519152805460ff191681557f5db9ee0a495bf2e6ff9c91a7834c1ba4fdd244a5e8aa4e537bd38aeae4b073aa335b6040516001600160a01b0390911681526020016118c9565b61304361368a565b61306086866130566301e13380426151c7565b61271186866136d3565b61306a84846136f9565b61130b61372b565b306001600160a01b037f00000000000000000000000000000000000000000000000000000000000000001614806130e257507f00000000000000000000000000000000000000000000000000000000000000006001600160a01b03166130d661345b565b6001600160a01b031614155b15611af35760405163703e46dd60e11b815260040160405180910390fd5b600061310a612f95565b905073__$dabd46e1bb7f0d62843614b2ceac53b60c$__63b57e6b0b828461313061345b565b6040516001600160e01b031960e086901b16815260048101939093526001600160a01b039182166024840152166044820152606401602060405180830381865af4158015613182573d6000803e3d6000fd5b505050506040513d601f19601f820116820180604052508101906131a69190614adc565b611c285760405162461bcd60e51b815260206004820152601960248201527f474d3a6e6f7420616c6c6f77656420746f2075706772616465000000000000006044820152606401611643565b816001600160a01b03166352d1902d6040518163ffffffff1660e01b8152600401602060405180830381865afa92505050801561324c575060408051601f3d908101601f1916820190925261324991810190614af9565b60015b61327457604051634c9c8ce360e01b81526001600160a01b0383166004820152602401611643565b6000805160206152ab83398151915281146132a557604051632a87526960e21b815260048101829052602401611643565b61160e8383613733565b306001600160a01b037f00000000000000000000000000000000000000000000000000000000000000001614611af35760405163703e46dd60e11b815260040160405180910390fd5b60008460030160006133138461330e8888612f69565b612f69565b81526020810191909152604001600020546001600160a01b031695945050505050565b60008360010160006133488585612f69565b81526020019081526020016000205490509392505050565b60608360020160006133728585612f69565b8152602001908152602001600020805461338b90614f32565b80601f01602080910402602001604051908101604052809291908181526020018280546133b790614f32565b80156134045780601f106133d957610100808354040283529160200191613404565b820191906000526020600020905b8154815290600101906020018083116133e757829003601f168201915b505050505090509392505050565b61341a612edc565b6000805160206152cb833981519152805460ff191660011781557f62e78cea01bee320cd4e420270b5ea74000d11b0c9f74754ebdbfc544b05a25833613023565b6000805160206152ab833981519152546001600160a01b031690565b60008060606000613486612f95565b905073__$dabd46e1bb7f0d62843614b2ceac53b60c$__636dc129ae826134ab612f0d565b6040516001600160e01b031960e085901b1681526004810192909252602482015260448101889052606401600060405180830381865af41580156134f3573d6000803e3d6000fd5b505050506040513d6000823e601f3d908101601f1916820160405261351b91908101906151da565b600484015492965090945092508303613538576135388486613789565b509193909250565b60008360030160006135528585612f69565b81526020810191909152604001600020546001600160a01b0316949350505050565b600084600101600061358a8461330e8888612f69565b8152602001908152602001600020549050949350505050565b60608460020160006135b98461330e8888612f69565b815260200190815260200160002080546135d290614f32565b80601f01602080910402602001604051908101604052809291908181526020018280546135fe90614f32565b801561364b5780601f106136205761010080835404028352916020019161364b565b820191906000526020600020905b81548152906001019060200180831161362e57829003601f168201915b50505050509050949350505050565b6000805160206152cb8339815191525460ff16611af357604051638dfc202b60e01b815260040160405180910390fd5b7ff0c57e16840df040f15088dc2f81fe391c3923bec73e23a9662efc9c229c6a0054600160401b900460ff16611af357604051631afcd79f60e31b815260040160405180910390fd5b6136db61368a565b6136e361372b565b6136eb61372b565b61130b8686868686866137ab565b61370161368a565b613709613b34565b613711613b44565b61371961372b565b61372161372b565b611c288282613b54565b611af361368a565b61373c82613cac565b6040516001600160a01b038316907fbc7cd75a20ee27fd9adebab32041f755214dbc6bffa90cc0225b39da2e5c2d3b90600090a28051156137815761160e8282613d11565b611c28613d7e565b6137a28260405180602001604052806000815250611c0d565b611c2881613d9d565b6137b361368a565b6001600160a01b0386166138095760405162461bcd60e51b815260206004820152601c60248201527f474d3a676f7665726e616e63652063616e6e6f74206265207a65726f000000006044820152606401611643565b6001600160a01b03851661385f5760405162461bcd60e51b815260206004820152601860248201527f474d3a73656e6174652063616e6e6f74206265207a65726f00000000000000006044820152606401611643565b4284116138a45760405162461bcd60e51b8152602060048201526013602482015272474d3a6c6f772073656e61746545787069727960681b6044820152606401611643565b826000036138f45760405162461bcd60e51b815260206004820152601d60248201527f474d3a7061636b616765547970652063616e6e6f74206265207a65726f0000006044820152606401611643565b60008190036139505760405162461bcd60e51b815260206004820152602260248201527f474d3a696e697456657273696f6e4e616d652063616e6e6f7420626520656d70604482015261747960f01b6064820152608401611643565b600061395a612f95565b8054336001600160a01b031991821681178355600183018054909216179055600381018690556004810185905590506000613993612f0d565b9050600073__$dabd46e1bb7f0d62843614b2ceac53b60c$__6363feb97484846139bb61345b565b8a8a8a620151806040518863ffffffff1660e01b81526004016139e49796959493929190614d26565b602060405180830381865af4158015613a01573d6000803e3d6000fd5b505050506040513d601f19601f82011682018060405250810190613a259190614af9565b6040516336e094d760e11b815260048101859052602481018490526044810182905290915073__$dabd46e1bb7f0d62843614b2ceac53b60c$__90636dc129ae90606401600060405180830381865af4158015613a86573d6000803e3d6000fd5b505050506040513d6000823e601f3d908101601f19168201604052613aae91908101906151da565b505050613afc613af786868080601f0160208091040260200160405190810160405280939291908181526020018383808284376000920191909152505050506004860154613de8565b613d9d565b505080546001600160a01b039788166001600160a01b0319918216178255600190910180549690971695169490941790945550505050565b613b3c61368a565b611af3613e1c565b613b4c61368a565b611af3613e24565b613b5c61368a565b6001600160a01b038216613bb25760405162461bcd60e51b815260206004820152601e60248201527f534d3a674554482063616e6e6f74206265207a65726f206164647265737300006044820152606401611643565b6001600160a01b038116613c085760405162461bcd60e51b815260206004820181905260248201527f534d3a6f7261636c652063616e6e6f74206265207a65726f20616464726573736044820152606401611643565b6000613c12612f45565b80546001600160a01b038086166001600160a01b031992831617835560018301805491861691909216179055621275006005820181905560068201556801bc16d674ec800000600780830191909155909150606490613c77906402540be40090615233565b613c81919061524a565b60098201556064613c986402540be4006007615233565b613ca2919061524a565b600a909101555050565b806001600160a01b03163b600003613ce257604051634c9c8ce360e01b81526001600160a01b0382166004820152602401611643565b6000805160206152ab83398151915280546001600160a01b0319166001600160a01b0392909216919091179055565b6060600080846001600160a01b031684604051613d2e919061526c565b600060405180830381855af49150503d8060008114613d69576040519150601f19603f3d011682016040523d82523d6000602084013e613d6e565b606091505b5091509150611cf0858383613e45565b3415611af35760405163b398979f60e01b815260040160405180910390fd5b6000613da7612f95565b600581018390556040518381529091507ffddcded6b4f4730c226821172046b48372d3cd963c159701ae1b7c3bcac541bb9060200160405180910390a15050565b60008282604051602001613dfd929190615288565b60408051601f1981840301815291905280516020909101209392505050565b612f3161368a565b613e2c61368a565b6000805160206152cb833981519152805460ff19169055565b606082613e5a57613e5582613ea1565b611051565b8151158015613e7157506001600160a01b0384163b155b15613e9a57604051639996b31560e01b81526001600160a01b0385166004820152602401611643565b5080611051565b805115613eb15780518082602001fd5b604051630a12f52160e11b815260040160405180910390fd5b50565b600060208284031215613edf57600080fd5b81356001600160e01b03198116811461105157600080fd5b6001600160a01b0381168114613eca57600080fd5b60008060008060808587031215613f2257600080fd5b8435935060208501359250604085013591506060850135613f4281613ef7565b939692955090935050565b600060208284031215613f5f57600080fd5b5035919050565b60008060408385031215613f7957600080fd5b50508035926020909101359150565b60008083601f840112613f9a57600080fd5b5081356001600160401b03811115613fb157600080fd5b6020830191508360208260051b8501011115613fcc57600080fd5b9250929050565b60008060008060008060008060a0898b031215613fef57600080fd5b883597506020890135965060408901356001600160401b038082111561401457600080fd5b6140208c838d01613f88565b909850965060608b013591508082111561403957600080fd5b6140458c838d01613f88565b909650945060808b013591508082111561405e57600080fd5b5061406b8b828c01613f88565b999c989b5096995094979396929594505050565b8015158114613eca57600080fd5b600080604083850312156140a057600080fd5b8235915060208301356140b28161407f565b809150509250929050565b6000806000604084860312156140d257600080fd5b8335925060208401356001600160401b038111156140ef57600080fd5b6140fb86828701613f88565b9497909650939450505050565b60008060008060006060868803121561412057600080fd5b8535945060208601356001600160401b038082111561413e57600080fd5b61414a89838a01613f88565b9096509450604088013591508082111561416357600080fd5b5061417088828901613f88565b969995985093965092949392505050565b60008083601f84011261419357600080fd5b5081356001600160401b038111156141aa57600080fd5b602083019150836020828501011115613fcc57600080fd5b6000806000604084860312156141d757600080fd5b8335925060208401356001600160401b038111156141f457600080fd5b6140fb86828701614181565b60008060008060006080868803121561421857600080fd5b853561422381613ef7565b94506020860135935060408601356001600160401b0381111561424557600080fd5b61425188828901614181565b96999598509660600135949350505050565b6000806020838503121561427657600080fd5b82356001600160401b0381111561428c57600080fd5b61429885828601614181565b90969095509350505050565b600080600080600080600060c0888a0312156142bf57600080fd5b873596506020880135955060408801356001600160401b038111156142e357600080fd5b6142ef8a828b01613f88565b909650945050606088013592506080880135915060a088013561431181613ef7565b8091505092959891949750929550565b60008060008060008060a0878903121561433a57600080fd5b863561434581613ef7565b9550602087013561435581613ef7565b9450604087013561436581613ef7565b9350606087013561437581613ef7565b925060808701356001600160401b0381111561439057600080fd5b61439c89828a01614181565b979a9699509497509295939492505050565b634e487b7160e01b600052604160045260246000fd5b604051601f8201601f191681016001600160401b03811182821017156143ec576143ec6143ae565b604052919050565b60006001600160401b0382111561440d5761440d6143ae565b50601f01601f191660200190565b600082601f83011261442c57600080fd5b813561443f61443a826143f4565b6143c4565b81815284602083860101111561445457600080fd5b816020850160208301376000918101602001919091529392505050565b6000806040838503121561448457600080fd5b823561448f81613ef7565b915060208301356001600160401b038111156144aa57600080fd5b6144b68582860161441b565b9150509250929050565b600080604083850312156144d357600080fd5b8235915060208301356140b281613ef7565b6000806000606084860312156144fa57600080fd5b505081359360208301359350604090920135919050565b60008060006040848603121561452657600080fd5b83356001600160401b0381111561453c57600080fd5b61454886828701614181565b909790965060209590950135949350505050565b6000806000806000806060878903121561457557600080fd5b86356001600160401b038082111561458c57600080fd5b6145988a838b01613f88565b909850965060208901359150808211156145b157600080fd5b6145bd8a838b01613f88565b909650945060408901359150808211156145d657600080fd5b5061439c89828a01613f88565b60005b838110156145fe5781810151838201526020016145e6565b50506000910152565b6000815180845261461f8160208601602086016145e3565b601f01601f19169290920160200192915050565b6020815260006110516020830184614607565b6000806000806060858703121561465c57600080fd5b843593506020850135925060408501356001600160401b0381111561468057600080fd5b61468c87828801613f88565b95989497509550505050565b60018060a01b0384168152826020820152606060408201526000611cf06060830184614607565b6000602082840312156146d157600080fd5b813561105181613ef7565b600080600080604085870312156146f257600080fd5b84356001600160401b038082111561470957600080fd5b61471588838901613f88565b9096509450602087013591508082111561472e57600080fd5b5061468c87828801613f88565b602081526147556020820183516001600160401b03169052565b6000602083015161477160408401826001600160401b03169052565b5060408301516001600160401b03811660608401525060608301516001600160401b038116608084015250608083015160a083015260a083015160c083015260c083015160e083015260e08301516101008181850152808501519150506101208181850152808501519150506101408081850152506110fb610160840182614607565b600082601f83011261480557600080fd5b813560206001600160401b03821115614820576148206143ae565b8160051b61482f8282016143c4565b928352848101820192828101908785111561484957600080fd5b83870192505b848310156117b55782358252918301919083019061484f565b600080600080600060a0868803121561488057600080fd5b853561488b81613ef7565b9450602086013561489b81613ef7565b935060408601356001600160401b03808211156148b757600080fd5b6148c389838a016147f4565b945060608801359150808211156148d957600080fd5b6148e589838a016147f4565b935060808801359150808211156148fb57600080fd5b506149088882890161441b565b9150509295509295909350565b6020815260018060a01b03825116602082015260208201516040820152600060408301516080606084015261494d60a0840182614607565b9050606084015160808401528091505092915050565b600080600080600080600080610100808a8c03121561498157600080fd5b8935985060208a0135975060408a013561499a81613ef7565b965060608a01356001600160401b03808211156149b657600080fd5b6149c28d838e01614181565b909850965060808c01359150808211156149db57600080fd5b506149e88c828d01614181565b9095509350508981018b10156149fd57600080fd5b5060a0890190509295985092959890939650565b60008060008060008060808789031215614a2a57600080fd5b86356001600160401b0380821115614a4157600080fd5b614a4d8a838b01614181565b9098509650602089013595506040890135945060608901359150808211156145d657600080fd5b600080600080600060a08688031215614a8c57600080fd5b8535614a9781613ef7565b94506020860135614aa781613ef7565b9350604086013592506060860135915060808601356001600160401b03811115614ad057600080fd5b6149088882890161441b565b600060208284031215614aee57600080fd5b81516110518161407f565b600060208284031215614b0b57600080fd5b5051919050565b81835281816020850137506000828201602090810191909152601f909101601f19169091010190565b81835260006020808501808196508560051b810191508460005b87811015614bbf5782840389528135601e19883603018112614b7657600080fd5b870185810190356001600160401b03811115614b9157600080fd5b803603821315614ba057600080fd5b614bab868284614b12565b9a87019a9550505090840190600101614b55565b5091979650505050505050565b8a815289602082015288604082015287606082015260e060808201526000614bf860e08301888a614b3b565b82810360a0840152614c0b818789614b3b565b905082810360c0840152614c20818587614b3b565b9d9c50505050505050505050505050565b8581528460208201528360408201526080606082015260006117b5608083018486614b3b565b81835260006001600160fb1b03831115614c7057600080fd5b8260051b80836020870137939093016020019392505050565b868152856020820152608060408201526000614ca9608083018688614c57565b8281036060840152614cbc818587614c57565b9998505050505050505050565b8581528460208201528360408201526080606082015260006117b5608083018486614b12565b6020808252601c908201527f504f5254414c3a73656e646572206e6f7420676f7665726e616e636500000000604082015260600190565b87815286602082015260018060a01b038616604082015284606082015260c060808201526000614d5a60c083018587614b12565b90508260a083015298975050505050505050565b848152836020820152606060408201526000614d8e606083018486614b12565b9695505050505050565b86815285602082015284604082015283606082015260a060808201526000614dc460a083018486614c57565b98975050505050505050565b60008060408385031215614de357600080fd5b505080516020909101519092909150565b604081526000614e08604083018587614b12565b9050826020830152949350505050565b88815260006020898184015260a06040840152614e3960a08401898b614c57565b8381036060850152614e4c81888a614c57565b84810360808601528581529050818101600586811b830184018860005b89811015614eda57858303601f190185528135368c9003601e19018112614e8f57600080fd5b8b0187810190356001600160401b03811115614eaa57600080fd5b80861b3603821315614ebb57600080fd5b614ec6858284614c57565b968901969450505090860190600101614e69565b50909f9e505050505050505050505050505050565b868152856020820152608060408201526000614f0f608083018688614c57565b8281036060840152614cbc818587614b3b565b8183823760009101908152919050565b600181811c90821680614f4657607f821691505b602082108103614f6657634e487b7160e01b600052602260045260246000fd5b50919050565b600082601f830112614f7d57600080fd5b8151614f8b61443a826143f4565b818152846020838601011115614fa057600080fd5b6110fb8260208301602087016145e3565b600060208284031215614fc357600080fd5b81516001600160401b0380821115614fda57600080fd5b9083019060808286031215614fee57600080fd5b604051608081018181108382111715615009576150096143ae565b604052825161501781613ef7565b81526020838101519082015260408301518281111561503557600080fd5b61504187828601614f6c565b6040830152506060830151606082015280935050505092915050565b60006101408c835260208c818501528b60408501528a606085015260018060a01b038a1660808501528160a0850152615099828501898b614b12565b915083820360c08501526150ae828789614b12565b925060e0840191508460005b60038110156150e25781356150ce8161407f565b1515845292820192908201906001016150ba565b505050509b9a5050505050505050505050565b88815287602082015260c06040820152600061511560c08301888a614b12565b86606084015285608084015282810360a0840152615134818587614c57565b9b9a5050505050505050505050565b838152604060208201526000611cf0604083018486614b12565b634e487b7160e01b600052603260045260246000fd5b60018060a01b038516815283602082015260806040820152600061519a6080830185614607565b905063ffffffff8316606083015295945050505050565b634e487b7160e01b600052601160045260246000fd5b80820180821115610eff57610eff6151b1565b6000806000606084860312156151ef57600080fd5b83516151fa81613ef7565b6020850151604086015191945092506001600160401b0381111561521d57600080fd5b61522986828701614f6c565b9150509250925092565b8082028115828204841417610eff57610eff6151b1565b60008261526757634e487b7160e01b600052601260045260246000fd5b500490565b6000825161527e8184602087016145e3565b9190910192915050565b60408152600061529b6040830185614607565b9050826020830152939250505056fe360894a13ba1a3210667c828492db98dca3e2076cc3735a920a3ca505d382bbccd5ed15c6e187e77e9aee88184c21f4f2182ab5827cb3b7e07fbedcd63f033009b779b17422d0df92223018b32b4d1fa46e071723d6817e2486d003becc55f00a2646970667358221220339cf9795e093b97621d6fe2ca8d48ec2e9a4bed56372acf908c2b7fe013af9764736f6c63430008140033",
  "libraries": {
    "GeodeModuleLib": "0xdAD5aDccb670DadDF333630054F50F77877f624e",
    "StakeModuleLib": "0x8125CE47C7E9fb415D1972096b7a31A0ECfDf31d",
    "InitiatorExtensionLib": "0x47a58A25133D28af6f11F37Aa25858fD4B32beb9",
    "OracleExtensionLib": "0x39D4b3ab14457De93319a96A4Aef6267Ea78c999"
  },
  "devdoc": {
    "author": "Ice Bear & Crash Bandicoot",
    "details": "TYPE: PACKAGE_PORTALPortal is a special package that is deployed once. Does not utilize IGeodePackage interface.review: GM for The Limited Upgradability through Dual Governance: * Governance is a governance token. * Senate is a multisig, planned to be a contract that allows pool CONTROLLERs to maintain power. * Senate expiry is effective.review: SM for Staking logic.There are 2 functionalities that are implemented here: * Special Governance functions for Portal: * * Pausing gETH, pausing Portal, releasing prisoned operators,and seting a governance fee. * Push end of the version management logic via pull->push. * * approveProposal changes the package version or allows specified middleware. * * pushUpgrade creates a package type proposal on the package to upgrade the contract, and requires package owner to approve it.authentication: * GeodeModule has OnlyGovernance, OnlySenate and OnlyController checks with modifiers. * StakeModuleLib has \"authenticate()\" function which checks for Maintainers, Controllers, and TYPE. * OracleModuleLib has OnlyOracle checks with a modifier. * Portal has OnlyGovernance checks on : pause, unpause, pausegETH, unpausegETH, setInfrastructureFee, setBeaconDelays, setInitiationDeposit, releasePrisoned.",
    "errors": {
      "AddressEmptyCode(address)": [
        {
          "details": "There's no code at `target` (it is not a contract)."
        }
      ],
      "ERC1967InvalidImplementation(address)": [
        {
          "details": "The `implementation` of the proxy is invalid."
        }
      ],
      "ERC1967NonPayable()": [
        {
          "details": "An upgrade function sees `msg.value > 0` that may be lost."
        }
      ],
      "EnforcedPause()": [
        {
          "details": "The operation failed because the contract is paused."
        }
      ],
      "ExpectedPause()": [
        {
          "details": "The operation failed because the contract is not paused."
        }
      ],
      "FailedInnerCall()": [
        {
          "details": "A call to an address target failed. The target may have reverted."
        }
      ],
      "InvalidInitialization()": [
        {
          "details": "The contract is already initialized."
        }
      ],
      "NotInitializing()": [
        {
          "details": "The contract is not initializing."
        }
      ],
      "ReentrancyGuardReentrantCall()": [
        {
          "details": "Unauthorized reentrant call."
        }
      ],
      "UUPSUnauthorizedCallContext()": [
        {
          "details": "The call is from an unauthorized context."
        }
      ],
      "UUPSUnsupportedProxiableUUID(bytes32)": [
        {
          "details": "The storage `slot` is unsupported as a UUID."
        }
      ]
    },
    "events": {
      "ContractVersionSet(uint256)": {
        "custom:section": "** EVENTS **"
      },
      "IdInitiated(uint256,uint256)": {
        "custom:section": "** EVENTS **"
      },
      "Initialized(uint64)": {
        "details": "Triggered when the contract has been initialized or reinitialized."
      },
      "Paused(address)": {
        "details": "Emitted when the pause is triggered by `account`."
      },
      "Released(uint256)": {
        "custom:section": "** EVENTS **"
      },
      "Unpaused(address)": {
        "details": "Emitted when the pause is lifted by `account`."
      },
      "Upgraded(address)": {
        "details": "Emitted when the implementation is upgraded."
      }
    },
    "kind": "dev",
    "methods": {
      "GeodeParams()": {
        "custom:section": "** GETTER FUNCTIONS **",
        "custom:visibility": "-> view-external"
      },
      "StakeParams()": {
        "custom:section": "** GETTER FUNCTIONS **",
        "custom:visibility": "-> view-external"
      },
      "allIdsByType(uint256,uint256)": {
        "details": "useful for outside reach, shouldn't be used within contracts as a referance",
        "returns": {
          "_0": "allIdsByType is an array of IDs of the given TYPE from Datastore, returns a specific index"
        }
      },
      "approveProposal(uint256)": {
        "details": "OnlySenate is checked inside the GeodeModule"
      },
      "blameProposal(bytes)": {
        "custom:section": "** PRISON **",
        "custom:visibility": "-> external"
      },
      "canStake(bytes)": {
        "custom:visibility": "-> view"
      },
      "changeIdCONTROLLER(uint256,address)": {
        "custom:subsection": "** ONLY CONTROLLER **"
      },
      "changeMaintainer(uint256,address)": {
        "custom:subsection": "** MAINTAINER **"
      },
      "constructor": {
        "custom:oz-upgrades-unsafe-allow": "constructor"
      },
      "delegate(uint256,uint256[],uint256[])": {
        "custom:section": "** DELEGATION **",
        "custom:visibility": "-> external"
      },
      "deployLiquidityPackage(uint256)": {
        "custom:subsection": "** BOUND LIQUIDITY PACKAGE **"
      },
      "deposit(uint256,uint256,bytes32[],uint256,uint256,address)": {
        "custom:section": "** POOLING OPERATIONS **",
        "custom:visibility": "-> external"
      },
      "generateId(string,uint256)": {
        "details": "id is generated by keccak(name, type)"
      },
      "getMaintenanceFee(uint256)": {
        "custom:visibility": "-> view"
      },
      "getValidatorPeriod(uint256)": {
        "custom:visibility": "-> view"
      },
      "increaseWalletBalance(uint256)": {
        "custom:section": "** INTERNAL WALLET **"
      },
      "initiateOperator(uint256,uint256,uint256,address)": {
        "custom:section": "** OPERATOR INITIATOR **",
        "custom:visibility": "-> external"
      },
      "initiatePool(uint256,uint256,address,bytes,bytes,bool[3])": {
        "custom:section": "** STAKING POOL INITIATOR **",
        "custom:visibility": "-> external"
      },
      "isPriceValid(uint256)": {
        "custom:section": "** DEPOSIT GETTERS **",
        "custom:visibility": "-> view-external"
      },
      "isPrisoned(uint256)": {
        "custom:visibility": "-> view"
      },
      "isPrivatePool(uint256)": {
        "custom:visibility": "-> view"
      },
      "isolationMode()": {
        "details": "GeodeModule override",
        "returns": {
          "_0": "isRecovering true if isolationMode is active: * 1. Portal is paused * 2. Portal needs to be upgraded * 3. Senate expired"
        }
      },
      "operatorAllowance(uint256,uint256)": {
        "custom:visibility": "-> view"
      },
      "paused()": {
        "details": "Returns true if the contract is paused, and false otherwise."
      },
      "pausegETH()": {
        "custom:section": "** GOVERNANCE FUNCTIONS **",
        "custom:visibility": "-> external"
      },
      "propose(address,uint256,bytes,uint256)": {
        "custom:subsection": "** ONLY GOVERNANCE **"
      },
      "proposeStake(uint256,uint256,bytes[],bytes[],bytes[])": {
        "custom:section": "** VALIDATOR CREATION **",
        "custom:visibility": "-> external"
      },
      "proxiableUUID()": {
        "details": "Implementation of the ERC1822 {proxiableUUID} function. This returns the storage slot used by the implementation. It is used to validate the implementation's compatibility when performing an upgrade. IMPORTANT: A proxy pointing at a proxiable contract should not be considered proxiable itself, because this risks bricking a proxy that upgrades to it, by delegating to itself until out of gas. Thus it is critical that this function revert if invoked through a proxy. This is guaranteed by the `notDelegated` modifier."
      },
      "readUintArray(uint256,bytes32,uint256)": {
        "custom:section": "** ARRAY GETTER FUNCTIONS **",
        "custom:visibility": "-> view-external"
      },
      "releasePrisoned(uint256)": {
        "details": "in different situations such as a faulty imprisonment or coordinated testing periods * Governance can release the prisonersonlyGovernance SHOULD be checked in Portal"
      },
      "requestExit(uint256,bytes)": {
        "custom:section": "** VALIDATOR EXITS **",
        "custom:visibility": "-> external"
      },
      "setPoolVisibility(uint256,bool)": {
        "custom:subsection": "** POOL VISIBILITY **"
      },
      "setYieldReceiver(uint256,address)": {
        "custom:subsection": "** YIELD SEPARATION **"
      },
      "supportsInterface(bytes4)": {
        "details": "See {IERC165-supportsInterface}."
      },
      "switchMaintenanceFee(uint256,uint256)": {
        "custom:subsection": "** FEE **"
      },
      "switchValidatorPeriod(uint256,uint256)": {
        "custom:section": "** OPERATORS PERIOD **",
        "custom:visibility": "-> external"
      },
      "updateVerificationIndex(uint256,bytes[])": {
        "custom:section": "** ORACLE OPERATIONS **",
        "custom:visibility": "-> external"
      },
      "upgradeToAndCall(address,bytes)": {
        "custom:oz-upgrades-unsafe-allow-reachable": "delegatecall",
        "details": "Upgrade the implementation of the proxy to `newImplementation`, and subsequently execute the function call encoded in `data`. Calls {_authorizeUpgrade}. Emits an {Upgraded} event."
      }
    },
    "title": "Geode Portal: Geode Module + Stake Module",
    "version": 1
  },
  "userdoc": {
    "kind": "user",
    "methods": {
      "approveProposal(uint256)": {
        "notice": "approves a specific proposal"
      },
      "generateId(string,uint256)": {
        "notice": "useful function for string inputs - returns same with the DSML.generateId"
      },
      "getKey(uint256,bytes32)": {
        "notice": "useful view function for string inputs - returns same with the DSML.generateId"
      },
      "isolationMode()": {
        "notice": "Isolation Mode is an external view function signaling other contracts * to isolate themselves from Portal. For example, Withdrawal Package of the pool will not fetch upgrades."
      },
      "releasePrisoned(uint256)": {
        "notice": "releases an imprisoned operator immediately"
      }
    },
    "notice": "Global standard for staking with on chain delegation and customizable staking pools. Management of the state of the protocol governance through dual governance and proposals. Version management and distribution of packages used by the staking pools.",
    "version": 1
  },
  "storageLayout": {
    "storage": [],
    "types": null
  }
}