{
  "address": "0x818D3F510C1512f951c08e8f32B92832C3a46748",
  "abi": [
    {
      "inputs": [
        {
          "internalType": "address",
          "name": "_gETHPos",
          "type": "address"
        },
        {
          "internalType": "address",
          "name": "_portalPos",
          "type": "address"
        }
      ],
      "stateMutability": "nonpayable",
      "type": "constructor"
    },
    {
      "inputs": [
        {
          "internalType": "address",
          "name": "target",
          "type": "address"
        }
      ],
      "name": "AddressEmptyCode",
      "type": "error"
    },
    {
      "inputs": [
        {
          "internalType": "address",
          "name": "implementation",
          "type": "address"
        }
      ],
      "name": "ERC1967InvalidImplementation",
      "type": "error"
    },
    {
      "inputs": [],
      "name": "ERC1967NonPayable",
      "type": "error"
    },
    {
      "inputs": [],
      "name": "EnforcedPause",
      "type": "error"
    },
    {
      "inputs": [],
      "name": "ExpectedPause",
      "type": "error"
    },
    {
      "inputs": [],
      "name": "FailedInnerCall",
      "type": "error"
    },
    {
      "inputs": [],
      "name": "InvalidInitialization",
      "type": "error"
    },
    {
      "inputs": [],
      "name": "NotInitializing",
      "type": "error"
    },
    {
      "inputs": [],
      "name": "ReentrancyGuardReentrantCall",
      "type": "error"
    },
    {
      "inputs": [],
      "name": "UUPSUnauthorizedCallContext",
      "type": "error"
    },
    {
      "inputs": [
        {
          "internalType": "bytes32",
          "name": "slot",
          "type": "bytes32"
        }
      ],
      "name": "UUPSUnsupportedProxiableUUID",
      "type": "error"
    },
    {
      "anonymous": false,
      "inputs": [
        {
          "indexed": false,
          "internalType": "uint256",
          "name": "ID",
          "type": "uint256"
        }
      ],
      "name": "Approved",
      "type": "event"
    },
    {
      "anonymous": false,
      "inputs": [
        {
          "indexed": false,
          "internalType": "uint256",
          "name": "version",
          "type": "uint256"
        }
      ],
      "name": "ContractVersionSet",
      "type": "event"
    },
    {
      "anonymous": false,
      "inputs": [
        {
          "indexed": true,
          "internalType": "uint256",
          "name": "ID",
          "type": "uint256"
        },
        {
          "indexed": false,
          "internalType": "address",
          "name": "CONTROLLER",
          "type": "address"
        }
      ],
      "name": "ControllerChanged",
      "type": "event"
    },
    {
      "anonymous": false,
      "inputs": [
        {
          "indexed": true,
          "internalType": "uint256",
          "name": "index",
          "type": "uint256"
        },
        {
          "indexed": false,
          "internalType": "uint256",
          "name": "claim",
          "type": "uint256"
        }
      ],
      "name": "Dequeue",
      "type": "event"
    },
    {
      "anonymous": false,
      "inputs": [
        {
          "indexed": true,
          "internalType": "uint256",
          "name": "index",
          "type": "uint256"
        },
        {
          "indexed": false,
          "internalType": "address",
          "name": "owner",
          "type": "address"
        }
      ],
      "name": "Enqueue",
      "type": "event"
    },
    {
      "anonymous": false,
      "inputs": [
        {
          "indexed": true,
          "internalType": "uint256",
          "name": "index",
          "type": "uint256"
        },
        {
          "indexed": false,
          "internalType": "uint256",
          "name": "fulfillAmount",
          "type": "uint256"
        },
        {
          "indexed": false,
          "internalType": "uint256",
          "name": "claimableETH",
          "type": "uint256"
        }
      ],
      "name": "Fulfill",
      "type": "event"
    },
    {
      "anonymous": false,
      "inputs": [
        {
          "indexed": false,
          "internalType": "uint64",
          "name": "version",
          "type": "uint64"
        }
      ],
      "name": "Initialized",
      "type": "event"
    },
    {
      "anonymous": false,
      "inputs": [
        {
          "indexed": false,
          "internalType": "uint256",
          "name": "threshold",
          "type": "uint256"
        }
      ],
      "name": "NewExitThreshold",
      "type": "event"
    },
    {
      "anonymous": false,
      "inputs": [
        {
          "indexed": false,
          "internalType": "address",
          "name": "senate",
          "type": "address"
        },
        {
          "indexed": false,
          "internalType": "uint256",
          "name": "expiry",
          "type": "uint256"
        }
      ],
      "name": "NewSenate",
      "type": "event"
    },
    {
      "anonymous": false,
      "inputs": [
        {
          "indexed": false,
          "internalType": "address",
          "name": "account",
          "type": "address"
        }
      ],
      "name": "Paused",
      "type": "event"
    },
    {
      "anonymous": false,
      "inputs": [],
      "name": "Processed",
      "type": "event"
    },
    {
      "anonymous": false,
      "inputs": [
        {
          "indexed": true,
          "internalType": "uint256",
          "name": "TYPE",
          "type": "uint256"
        },
        {
          "indexed": false,
          "internalType": "uint256",
          "name": "ID",
          "type": "uint256"
        },
        {
          "indexed": false,
          "internalType": "address",
          "name": "CONTROLLER",
          "type": "address"
        },
        {
          "indexed": false,
          "internalType": "uint256",
          "name": "deadline",
          "type": "uint256"
        }
      ],
      "name": "Proposed",
      "type": "event"
    },
    {
      "anonymous": false,
      "inputs": [
        {
          "indexed": true,
          "internalType": "uint256",
          "name": "index",
          "type": "uint256"
        },
        {
          "indexed": false,
          "internalType": "address",
          "name": "oldOwner",
          "type": "address"
        },
        {
          "indexed": false,
          "internalType": "address",
          "name": "newOwner",
          "type": "address"
        }
      ],
      "name": "RequestTransfer",
      "type": "event"
    },
    {
      "anonymous": false,
      "inputs": [
        {
          "indexed": false,
          "internalType": "address",
          "name": "account",
          "type": "address"
        }
      ],
      "name": "Unpaused",
      "type": "event"
    },
    {
      "anonymous": false,
      "inputs": [
        {
          "indexed": true,
          "internalType": "address",
          "name": "implementation",
          "type": "address"
        }
      ],
      "name": "Upgraded",
      "type": "event"
    },
    {
      "anonymous": false,
      "inputs": [
        {
          "indexed": true,
          "internalType": "uint256",
          "name": "index",
          "type": "uint256"
        },
        {
          "indexed": true,
          "internalType": "bytes",
          "name": "pubkey",
          "type": "bytes"
        },
        {
          "indexed": false,
          "internalType": "uint256",
          "name": "size",
          "type": "uint256"
        }
      ],
      "name": "Vote",
      "type": "event"
    },
    {
      "inputs": [],
      "name": "GeodeParams",
      "outputs": [
        {
          "internalType": "address",
          "name": "governance",
          "type": "address"
        },
        {
          "internalType": "address",
          "name": "senate",
          "type": "address"
        },
        {
          "internalType": "address",
          "name": "approvedUpgrade",
          "type": "address"
        },
        {
          "internalType": "uint256",
          "name": "senateExpiry",
          "type": "uint256"
        },
        {
          "internalType": "uint256",
          "name": "packageType",
          "type": "uint256"
        }
      ],
      "stateMutability": "view",
      "type": "function"
    },
    {
      "inputs": [],
      "name": "QueueParams",
      "outputs": [
        {
          "internalType": "uint256",
          "name": "requested",
          "type": "uint256"
        },
        {
          "internalType": "uint256",
          "name": "realized",
          "type": "uint256"
        },
        {
          "internalType": "uint256",
          "name": "realizedEtherBalance",
          "type": "uint256"
        },
        {
          "internalType": "uint256",
          "name": "realizedPrice",
          "type": "uint256"
        },
        {
          "internalType": "uint256",
          "name": "fulfilled",
          "type": "uint256"
        },
        {
          "internalType": "uint256",
          "name": "fulfilledEtherBalance",
          "type": "uint256"
        },
        {
          "internalType": "uint256",
          "name": "commonPoll",
          "type": "uint256"
        }
      ],
      "stateMutability": "view",
      "type": "function"
    },
    {
      "inputs": [],
      "name": "UPGRADE_INTERFACE_VERSION",
      "outputs": [
        {
          "internalType": "string",
          "name": "",
          "type": "string"
        }
      ],
      "stateMutability": "view",
      "type": "function"
    },
    {
      "inputs": [],
      "name": "WithdrawalParams",
      "outputs": [
        {
          "internalType": "address",
          "name": "gETH",
          "type": "address"
        },
        {
          "internalType": "address",
          "name": "portal",
          "type": "address"
        },
        {
          "internalType": "uint256",
          "name": "poolId",
          "type": "uint256"
        },
        {
          "internalType": "uint256",
          "name": "exitThreshold",
          "type": "uint256"
        },
        {
          "internalType": "uint256",
          "name": "gatheredInfrastructureFees",
          "type": "uint256"
        }
      ],
      "stateMutability": "view",
      "type": "function"
    },
    {
      "inputs": [
        {
          "internalType": "uint256",
          "name": "_type",
          "type": "uint256"
        },
        {
          "internalType": "uint256",
          "name": "_index",
          "type": "uint256"
        }
      ],
      "name": "allIdsByType",
      "outputs": [
        {
          "internalType": "uint256",
          "name": "",
          "type": "uint256"
        }
      ],
      "stateMutability": "view",
      "type": "function"
    },
    {
      "inputs": [
        {
          "internalType": "uint256",
          "name": "_type",
          "type": "uint256"
        }
      ],
      "name": "allIdsByTypeLength",
      "outputs": [
        {
          "internalType": "uint256",
          "name": "",
          "type": "uint256"
        }
      ],
      "stateMutability": "view",
      "type": "function"
    },
    {
      "inputs": [
        {
          "internalType": "uint256",
          "name": "id",
          "type": "uint256"
        }
      ],
      "name": "approveProposal",
      "outputs": [
        {
          "internalType": "address",
          "name": "_controller",
          "type": "address"
        },
        {
          "internalType": "uint256",
          "name": "_type",
          "type": "uint256"
        },
        {
          "internalType": "bytes",
          "name": "_name",
          "type": "bytes"
        }
      ],
      "stateMutability": "nonpayable",
      "type": "function"
    },
    {
      "inputs": [
        {
          "internalType": "bytes",
          "name": "pubkey",
          "type": "bytes"
        }
      ],
      "name": "canFinalizeExit",
      "outputs": [
        {
          "internalType": "bool",
          "name": "",
          "type": "bool"
        }
      ],
      "stateMutability": "view",
      "type": "function"
    },
    {
      "inputs": [
        {
          "internalType": "uint256",
          "name": "id",
          "type": "uint256"
        },
        {
          "internalType": "address",
          "name": "newCONTROLLER",
          "type": "address"
        }
      ],
      "name": "changeIdCONTROLLER",
      "outputs": [],
      "stateMutability": "nonpayable",
      "type": "function"
    },
    {
      "inputs": [
        {
          "internalType": "address",
          "name": "_newSenate",
          "type": "address"
        }
      ],
      "name": "changeSenate",
      "outputs": [],
      "stateMutability": "nonpayable",
      "type": "function"
    },
    {
      "inputs": [
        {
          "internalType": "address",
          "name": "receiver",
          "type": "address"
        }
      ],
      "name": "claimInfrastructureFees",
      "outputs": [
        {
          "internalType": "bool",
          "name": "success",
          "type": "bool"
        }
      ],
      "stateMutability": "nonpayable",
      "type": "function"
    },
    {
      "inputs": [
        {
          "internalType": "uint256",
          "name": "index",
          "type": "uint256"
        },
        {
          "internalType": "address",
          "name": "receiver",
          "type": "address"
        }
      ],
      "name": "dequeue",
      "outputs": [],
      "stateMutability": "nonpayable",
      "type": "function"
    },
    {
      "inputs": [
        {
          "internalType": "uint256[]",
          "name": "indexes",
          "type": "uint256[]"
        },
        {
          "internalType": "address",
          "name": "receiver",
          "type": "address"
        }
      ],
      "name": "dequeueBatch",
      "outputs": [],
      "stateMutability": "nonpayable",
      "type": "function"
    },
    {
      "inputs": [
        {
          "internalType": "uint256",
          "name": "size",
          "type": "uint256"
        },
        {
          "internalType": "bytes",
          "name": "pubkey",
          "type": "bytes"
        },
        {
          "internalType": "address",
          "name": "owner",
          "type": "address"
        }
      ],
      "name": "enqueue",
      "outputs": [
        {
          "internalType": "uint256",
          "name": "index",
          "type": "uint256"
        }
      ],
      "stateMutability": "nonpayable",
      "type": "function"
    },
    {
      "inputs": [
        {
          "internalType": "uint256[]",
          "name": "sizes",
          "type": "uint256[]"
        },
        {
          "internalType": "bytes[]",
          "name": "pubkeys",
          "type": "bytes[]"
        },
        {
          "internalType": "address",
          "name": "owner",
          "type": "address"
        }
      ],
      "name": "enqueueBatch",
      "outputs": [
        {
          "internalType": "uint256[]",
          "name": "indexes",
          "type": "uint256[]"
        }
      ],
      "stateMutability": "nonpayable",
      "type": "function"
    },
    {
      "inputs": [
        {
          "internalType": "uint256",
          "name": "index",
          "type": "uint256"
        }
      ],
      "name": "fulfill",
      "outputs": [],
      "stateMutability": "nonpayable",
      "type": "function"
    },
    {
      "inputs": [
        {
          "internalType": "uint256[]",
          "name": "indexes",
          "type": "uint256[]"
        }
      ],
      "name": "fulfillBatch",
      "outputs": [],
      "stateMutability": "nonpayable",
      "type": "function"
    },
    {
      "inputs": [
        {
          "internalType": "uint256",
          "name": "index",
          "type": "uint256"
        }
      ],
      "name": "fulfillable",
      "outputs": [
        {
          "internalType": "uint256",
          "name": "",
          "type": "uint256"
        }
      ],
      "stateMutability": "view",
      "type": "function"
    },
    {
      "inputs": [
        {
          "internalType": "string",
          "name": "_name",
          "type": "string"
        },
        {
          "internalType": "uint256",
          "name": "_type",
          "type": "uint256"
        }
      ],
      "name": "generateId",
      "outputs": [
        {
          "internalType": "uint256",
          "name": "id",
          "type": "uint256"
        }
      ],
      "stateMutability": "pure",
      "type": "function"
    },
    {
      "inputs": [],
      "name": "getContractVersion",
      "outputs": [
        {
          "internalType": "uint256",
          "name": "",
          "type": "uint256"
        }
      ],
      "stateMutability": "view",
      "type": "function"
    },
    {
      "inputs": [],
      "name": "getGovernance",
      "outputs": [
        {
          "internalType": "address",
          "name": "",
          "type": "address"
        }
      ],
      "stateMutability": "view",
      "type": "function"
    },
    {
      "inputs": [
        {
          "internalType": "uint256",
          "name": "_id",
          "type": "uint256"
        },
        {
          "internalType": "bytes32",
          "name": "_param",
          "type": "bytes32"
        }
      ],
      "name": "getKey",
      "outputs": [
        {
          "internalType": "bytes32",
          "name": "key",
          "type": "bytes32"
        }
      ],
      "stateMutability": "pure",
      "type": "function"
    },
    {
      "inputs": [],
      "name": "getPoolId",
      "outputs": [
        {
          "internalType": "uint256",
          "name": "",
          "type": "uint256"
        }
      ],
      "stateMutability": "view",
      "type": "function"
    },
    {
      "inputs": [
        {
          "internalType": "uint256",
          "name": "id",
          "type": "uint256"
        }
      ],
      "name": "getProposal",
      "outputs": [
        {
          "components": [
            {
              "internalType": "address",
              "name": "CONTROLLER",
              "type": "address"
            },
            {
              "internalType": "uint256",
              "name": "TYPE",
              "type": "uint256"
            },
            {
              "internalType": "bytes",
              "name": "NAME",
              "type": "bytes"
            },
            {
              "internalType": "uint256",
              "name": "deadline",
              "type": "uint256"
            }
          ],
          "internalType": "struct Proposal",
          "name": "proposal",
          "type": "tuple"
        }
      ],
      "stateMutability": "view",
      "type": "function"
    },
    {
      "inputs": [],
      "name": "getProposedVersion",
      "outputs": [
        {
          "internalType": "uint256",
          "name": "",
          "type": "uint256"
        }
      ],
      "stateMutability": "view",
      "type": "function"
    },
    {
      "inputs": [
        {
          "internalType": "uint256",
          "name": "index",
          "type": "uint256"
        }
      ],
      "name": "getRequest",
      "outputs": [
        {
          "internalType": "address",
          "name": "owner",
          "type": "address"
        },
        {
          "internalType": "uint256",
          "name": "trigger",
          "type": "uint256"
        },
        {
          "internalType": "uint256",
          "name": "size",
          "type": "uint256"
        },
        {
          "internalType": "uint256",
          "name": "fulfilled",
          "type": "uint256"
        },
        {
          "internalType": "uint256",
          "name": "claimableEther",
          "type": "uint256"
        }
      ],
      "stateMutability": "view",
      "type": "function"
    },
    {
      "inputs": [
        {
          "internalType": "bytes",
          "name": "pubkey",
          "type": "bytes"
        }
      ],
      "name": "getValidatorData",
      "outputs": [
        {
          "internalType": "uint256",
          "name": "beaconBalance",
          "type": "uint256"
        },
        {
          "internalType": "uint256",
          "name": "withdrawnBalance",
          "type": "uint256"
        },
        {
          "internalType": "uint256",
          "name": "poll",
          "type": "uint256"
        }
      ],
      "stateMutability": "view",
      "type": "function"
    },
    {
      "inputs": [
        {
          "internalType": "uint256",
          "name": "poolId",
          "type": "uint256"
        },
        {
          "internalType": "address",
          "name": "poolOwner",
          "type": "address"
        },
        {
          "internalType": "bytes",
          "name": "versionName",
          "type": "bytes"
        },
        {
          "internalType": "bytes",
          "name": "data",
          "type": "bytes"
        }
      ],
      "name": "initialize",
      "outputs": [],
      "stateMutability": "nonpayable",
      "type": "function"
    },
    {
      "inputs": [],
      "name": "isolationMode",
      "outputs": [
        {
          "internalType": "bool",
          "name": "",
          "type": "bool"
        }
      ],
      "stateMutability": "view",
      "type": "function"
    },
    {
      "inputs": [
        {
          "internalType": "bytes[]",
          "name": "data",
          "type": "bytes[]"
        }
      ],
      "name": "multicall",
      "outputs": [
        {
          "internalType": "bytes[]",
          "name": "results",
          "type": "bytes[]"
        }
      ],
      "stateMutability": "nonpayable",
      "type": "function"
    },
    {
      "inputs": [
        {
          "internalType": "address",
          "name": "",
          "type": "address"
        },
        {
          "internalType": "address",
          "name": "",
          "type": "address"
        },
        {
          "internalType": "uint256[]",
          "name": "",
          "type": "uint256[]"
        },
        {
          "internalType": "uint256[]",
          "name": "",
          "type": "uint256[]"
        },
        {
          "internalType": "bytes",
          "name": "",
          "type": "bytes"
        }
      ],
      "name": "onERC1155BatchReceived",
      "outputs": [
        {
          "internalType": "bytes4",
          "name": "",
          "type": "bytes4"
        }
      ],
      "stateMutability": "nonpayable",
      "type": "function"
    },
    {
      "inputs": [
        {
          "internalType": "address",
          "name": "",
          "type": "address"
        },
        {
          "internalType": "address",
          "name": "",
          "type": "address"
        },
        {
          "internalType": "uint256",
          "name": "",
          "type": "uint256"
        },
        {
          "internalType": "uint256",
          "name": "",
          "type": "uint256"
        },
        {
          "internalType": "bytes",
          "name": "",
          "type": "bytes"
        }
      ],
      "name": "onERC1155Received",
      "outputs": [
        {
          "internalType": "bytes4",
          "name": "",
          "type": "bytes4"
        }
      ],
      "stateMutability": "nonpayable",
      "type": "function"
    },
    {
      "inputs": [],
      "name": "pause",
      "outputs": [],
      "stateMutability": "nonpayable",
      "type": "function"
    },
    {
      "inputs": [],
      "name": "paused",
      "outputs": [
        {
          "internalType": "bool",
          "name": "",
          "type": "bool"
        }
      ],
      "stateMutability": "view",
      "type": "function"
    },
    {
      "inputs": [
        {
          "internalType": "bytes[]",
          "name": "pubkeys",
          "type": "bytes[]"
        },
        {
          "internalType": "uint256[]",
          "name": "beaconBalances",
          "type": "uint256[]"
        },
        {
          "internalType": "uint256[]",
          "name": "withdrawnBalances",
          "type": "uint256[]"
        },
        {
          "internalType": "bytes32[][]",
          "name": "balanceProofs",
          "type": "bytes32[][]"
        },
        {
          "internalType": "uint256",
          "name": "price",
          "type": "uint256"
        },
        {
          "internalType": "bytes32[]",
          "name": "priceProof",
          "type": "bytes32[]"
        }
      ],
      "name": "processValidators",
      "outputs": [],
      "stateMutability": "nonpayable",
      "type": "function"
    },
    {
      "inputs": [
        {
          "internalType": "address",
          "name": "_CONTROLLER",
          "type": "address"
        },
        {
          "internalType": "uint256",
          "name": "_TYPE",
          "type": "uint256"
        },
        {
          "internalType": "bytes",
          "name": "_NAME",
          "type": "bytes"
        },
        {
          "internalType": "uint256",
          "name": "duration",
          "type": "uint256"
        }
      ],
      "name": "propose",
      "outputs": [
        {
          "internalType": "uint256",
          "name": "id",
          "type": "uint256"
        }
      ],
      "stateMutability": "nonpayable",
      "type": "function"
    },
    {
      "inputs": [],
      "name": "proxiableUUID",
      "outputs": [
        {
          "internalType": "bytes32",
          "name": "",
          "type": "bytes32"
        }
      ],
      "stateMutability": "view",
      "type": "function"
    },
    {
      "inputs": [],
      "name": "pullUpgrade",
      "outputs": [],
      "stateMutability": "nonpayable",
      "type": "function"
    },
    {
      "inputs": [
        {
          "internalType": "uint256",
          "name": "id",
          "type": "uint256"
        },
        {
          "internalType": "bytes32",
          "name": "key",
          "type": "bytes32"
        }
      ],
      "name": "readAddress",
      "outputs": [
        {
          "internalType": "address",
          "name": "data",
          "type": "address"
        }
      ],
      "stateMutability": "view",
      "type": "function"
    },
    {
      "inputs": [
        {
          "internalType": "uint256",
          "name": "id",
          "type": "uint256"
        },
        {
          "internalType": "bytes32",
          "name": "key",
          "type": "bytes32"
        },
        {
          "internalType": "uint256",
          "name": "index",
          "type": "uint256"
        }
      ],
      "name": "readAddressArray",
      "outputs": [
        {
          "internalType": "address",
          "name": "data",
          "type": "address"
        }
      ],
      "stateMutability": "view",
      "type": "function"
    },
    {
      "inputs": [
        {
          "internalType": "uint256",
          "name": "id",
          "type": "uint256"
        },
        {
          "internalType": "bytes32",
          "name": "key",
          "type": "bytes32"
        }
      ],
      "name": "readBytes",
      "outputs": [
        {
          "internalType": "bytes",
          "name": "data",
          "type": "bytes"
        }
      ],
      "stateMutability": "view",
      "type": "function"
    },
    {
      "inputs": [
        {
          "internalType": "uint256",
          "name": "id",
          "type": "uint256"
        },
        {
          "internalType": "bytes32",
          "name": "key",
          "type": "bytes32"
        },
        {
          "internalType": "uint256",
          "name": "index",
          "type": "uint256"
        }
      ],
      "name": "readBytesArray",
      "outputs": [
        {
          "internalType": "bytes",
          "name": "data",
          "type": "bytes"
        }
      ],
      "stateMutability": "view",
      "type": "function"
    },
    {
      "inputs": [
        {
          "internalType": "uint256",
          "name": "id",
          "type": "uint256"
        },
        {
          "internalType": "bytes32",
          "name": "key",
          "type": "bytes32"
        }
      ],
      "name": "readUint",
      "outputs": [
        {
          "internalType": "uint256",
          "name": "data",
          "type": "uint256"
        }
      ],
      "stateMutability": "view",
      "type": "function"
    },
    {
      "inputs": [
        {
          "internalType": "uint256",
          "name": "id",
          "type": "uint256"
        },
        {
          "internalType": "bytes32",
          "name": "key",
          "type": "bytes32"
        },
        {
          "internalType": "uint256",
          "name": "index",
          "type": "uint256"
        }
      ],
      "name": "readUintArray",
      "outputs": [
        {
          "internalType": "uint256",
          "name": "data",
          "type": "uint256"
        }
      ],
      "stateMutability": "view",
      "type": "function"
    },
    {
      "inputs": [
        {
          "internalType": "address",
          "name": "_newSenate",
          "type": "address"
        }
      ],
      "name": "rescueSenate",
      "outputs": [],
      "stateMutability": "nonpayable",
      "type": "function"
    },
    {
      "inputs": [
        {
          "internalType": "uint256",
          "name": "newThreshold",
          "type": "uint256"
        }
      ],
      "name": "setExitThreshold",
      "outputs": [],
      "stateMutability": "nonpayable",
      "type": "function"
    },
    {
      "inputs": [
        {
          "internalType": "bytes4",
          "name": "interfaceId",
          "type": "bytes4"
        }
      ],
      "name": "supportsInterface",
      "outputs": [
        {
          "internalType": "bool",
          "name": "",
          "type": "bool"
        }
      ],
      "stateMutability": "view",
      "type": "function"
    },
    {
      "inputs": [
        {
          "internalType": "uint256",
          "name": "index",
          "type": "uint256"
        },
        {
          "internalType": "address",
          "name": "newOwner",
          "type": "address"
        }
      ],
      "name": "transferRequest",
      "outputs": [],
      "stateMutability": "nonpayable",
      "type": "function"
    },
    {
      "inputs": [],
      "name": "unpause",
      "outputs": [],
      "stateMutability": "nonpayable",
      "type": "function"
    },
    {
      "inputs": [
        {
          "internalType": "address",
          "name": "newImplementation",
          "type": "address"
        },
        {
          "internalType": "bytes",
          "name": "data",
          "type": "bytes"
        }
      ],
      "name": "upgradeToAndCall",
      "outputs": [],
      "stateMutability": "payable",
      "type": "function"
    },
    {
      "inputs": [
        {
          "internalType": "bytes",
          "name": "pubkey",
          "type": "bytes"
        }
      ],
      "name": "validatorThreshold",
      "outputs": [
        {
          "internalType": "uint256",
          "name": "threshold",
          "type": "uint256"
        }
      ],
      "stateMutability": "view",
      "type": "function"
    },
    {
      "stateMutability": "payable",
      "type": "receive"
    }
  ],
  "transactionHash": "0xa9d006c7efada27855104c7ad05eb72befbff60b47e9d73bc1322f6643e27e3a",
  "args": [
    "0xaFE4151bC01770B5D2298555D1cCdaf273bC9D2E",
    "0xcA69bA533810ee94b7649c57eF8aB22EBbE0bbf7"
  ],
  "numDeployments": 1,
  "solcInputHash": "e25e6b0dd11e130b0e651c906c66ce16",
  "bytecode": "0x60e0604052306080523480156200001557600080fd5b506040516200439d3803806200439d8339810160408190526200003891620001e2565b6001600160a01b038216620000945760405162461bcd60e51b815260206004820152601a60248201527f57503a5f67455448506f732063616e6e6f74206265207a65726f00000000000060448201526064015b60405180910390fd5b6001600160a01b038116620000ec5760405162461bcd60e51b815260206004820152601c60248201527f57503a5f706f7274616c506f732063616e6e6f74206265207a65726f0000000060448201526064016200008b565b6001600160a01b0380831660a052811660c0526200010962000111565b50506200021a565b7ff0c57e16840df040f15088dc2f81fe391c3923bec73e23a9662efc9c229c6a00805468010000000000000000900460ff1615620001625760405163f92ee8a960e01b815260040160405180910390fd5b80546001600160401b0390811614620001c25780546001600160401b0319166001600160401b0390811782556040519081527fc7f505b2f371ae2175ee4913f4499e1f2633a7b5936321eed1cdaeb6115181d29060200160405180910390a15b50565b80516001600160a01b0381168114620001dd57600080fd5b919050565b60008060408385031215620001f657600080fd5b6200020183620001c5565b91506200021160208401620001c5565b90509250929050565b60805160a05160c05161413e6200025f60003960008181612635015261268801526000612667015260008181612207015281816122300152612449015261413e6000f3fe6080604052600436106102e85760003560e01c80638650c07211610190578063bf211ed1116100dc578063dca1086111610095578063e72b1d6d1161006f578063e72b1d6d14610a06578063e768887e14610a26578063e78e839714610a46578063f23a6e6114610a6657600080fd5b8063dca10861146109a6578063e02a5208146109c6578063e68e1218146109e657600080fd5b8063bf211ed114610855578063c58343ef1461089d578063c7f758a8146108ef578063d2583aee1461091c578063d99a16c514610966578063dab840c71461098657600080fd5b8063ac144d8b11610149578063ad4ac4c411610123578063ad4ac4c41461078d578063ad8655cb146107db578063aec98863146107fb578063bc197c811461081057600080fd5b8063ac144d8b1461070f578063ac9650d81461072f578063ad3cb1cc1461075c57600080fd5b80638650c072146106565780638794fabc1461066b5780638aa104351461068b57806398951b56146106a05780639934b281146106cf57806399ac48ba146106ef57600080fd5b806356a72dbf1161024f578063722679541161020857806377a3a813116101e257806377a3a813146105c65780637aed42ce146106015780637e5358d1146106215780638456cb591461064157600080fd5b80637226795414610564578063745653de14610591578063753b8807146105a657600080fd5b806356a72dbf146104855780635731bc1d146104a55780635a34bb15146104c55780635c975abb146104e55780635d9e085d1461050a5780636d07e4041461054457600080fd5b8063419754c5116102a1578063419754c5146103d05780634b75642f146103f05780634f1ef286146104105780634f5141e91461042357806352d1902d146104505780635329512b1461046557600080fd5b806301ffc9a7146102f45780631da7159114610329578063289b3c0d1461035757806338fff2d0146103845780633b8ba862146103995780633f4ba83a146103b957600080fd5b366102ef57005b600080fd5b34801561030057600080fd5b5061031461030f366004613072565b610a92565b60405190151581526020015b60405180910390f35b34801561033557600080fd5b5061034961034436600461309c565b610ac9565b604051908152602001610320565b34801561036357600080fd5b5061036c610adc565b6040516001600160a01b039091168152602001610320565b34801561039057600080fd5b50610349610af7565b3480156103a557600080fd5b506103496103b436600461311b565b610b0a565b3480156103c557600080fd5b506103ce610bb5565b005b3480156103dc57600080fd5b506103146103eb36600461317e565b610bfb565b3480156103fc57600080fd5b506103ce61040b36600461319b565b610d41565b6103ce61041e366004613277565b610df0565b34801561042f57600080fd5b5061044361043e36600461330a565b610e0f565b604051610320919061338d565b34801561045c57600080fd5b50610349610ea4565b34801561047157600080fd5b5061036c6104803660046133d1565b610ec1565b34801561049157600080fd5b506103496104a036600461309c565b610ee7565b3480156104b157600080fd5b506103ce6104c03660046133fd565b610f0b565b3480156104d157600080fd5b506103496104e0366004613453565b610f8b565b3480156104f157600080fd5b506000805160206140e98339815191525460ff16610314565b34801561051657600080fd5b5061034961052536600461319b565b60009081526000805160206140a9833981519152602052604090205490565b34801561055057600080fd5b506103ce61055f36600461349e565b610fc2565b34801561057057600080fd5b5061058461057f36600461309c565b61101d565b604051610320919061351e565b34801561059d57600080fd5b50610349611039565b3480156105b257600080fd5b506103ce6105c136600461319b565b6110ba565b3480156105d257600080fd5b506105e66105e1366004613531565b611106565b60408051938452602084019290925290820152606001610320565b34801561060d57600080fd5b5061031461061c366004613531565b611192565b34801561062d57600080fd5b5061034961063c36600461319b565b61121c565b34801561064d57600080fd5b506103ce6112bc565b34801561066257600080fd5b506103146112f7565b34801561067757600080fd5b506103ce610686366004613572565b611482565b34801561069757600080fd5b506103496115fb565b3480156106ac57600080fd5b506106c06106bb36600461319b565b611610565b6040516103209392919061366e565b3480156106db57600080fd5b506103ce6106ea366004613695565b6116e0565b3480156106fb57600080fd5b5061036c61070a36600461309c565b6117f6565b34801561071b57600080fd5b5061034961072a366004613720565b611812565b34801561073b57600080fd5b5061074f61074a36600461377e565b6118aa565b60405161032091906137b3565b34801561076857600080fd5b50610584604051806040016040528060058152602001640352e302e360dc1b81525081565b34801561079957600080fd5b506107a2611993565b604080516001600160a01b039687168152948616602086015292909416918301919091526060820152608081019190915260a001610320565b3480156107e757600080fd5b506103ce6107f636600461317e565b6119da565b34801561080757600080fd5b506103ce611a2e565b34801561081c57600080fd5b5061083c61082b36600461389e565b63bc197c8160e01b95945050505050565b6040516001600160e01b03199091168152602001610320565b34801561086157600080fd5b5061086a611c4c565b604080516001600160a01b039687168152959094166020860152928401919091526060830152608082015260a001610320565b3480156108a957600080fd5b506108bd6108b836600461319b565b611c92565b604080516001600160a01b0390961686526020860194909452928401919091526060830152608082015260a001610320565b3480156108fb57600080fd5b5061090f61090a36600461319b565b611d88565b604051610320919061394b565b34801561092857600080fd5b50610931611e48565b604080519788526020880196909652948601939093526060850191909152608084015260a083015260c082015260e001610320565b34801561097257600080fd5b506103ce61098136600461349e565b611e96565b34801561099257600080fd5b506103ce6109a136600461317e565b611f22565b3480156109b257600080fd5b506103ce6109c136600461377e565b611f76565b3480156109d257600080fd5b506103496109e136600461309c565b611fbe565b3480156109f257600080fd5b50610349610a01366004613531565b612001565b348015610a1257600080fd5b50610349610a213660046133d1565b612093565b348015610a3257600080fd5b50610584610a413660046133d1565b6120b0565b348015610a5257600080fd5b506103ce610a6136600461349e565b6120cd565b348015610a7257600080fd5b5061083c610a81366004613999565b63f23a6e6160e01b95945050505050565b60006001600160e01b03198216630271189760e51b1480610ac357506301ffc9a760e01b6001600160e01b03198316145b92915050565b6000610ad58383612128565b9392505050565b600080610ae7612154565b546001600160a01b031692915050565b6000610b01612178565b60020154905090565b600080610b15612154565b6040516318ffae5d60e21b81529091507387828ff83A8B257D544c06fe64B6838DD2Fb0ED1906363feb97490610b699084906000805160206140a9833981519152908c908c908c908c908c90600401613a2a565b602060405180830381865af4158015610b86573d6000803e3d6000fd5b505050506040513d601f19601f82011682018060405250810190610baa9190613a72565b979650505050505050565b610bbd612154565b600101546001600160a01b03163314610bf15760405162461bcd60e51b8152600401610be890613a8b565b60405180910390fd5b610bf961219c565b565b6000610c05612154565b546040805163289b3c0d60e01b815290516001600160a01b039092169163289b3c0d916004808201926020929091908290030181865afa158015610c4d573d6000803e3d6000fd5b505050506040513d601f19601f82011682018060405250810190610c719190613ab8565b6001600160a01b0316336001600160a01b031614610c8e57600080fd5b6000610c98612178565b6004810154604051919250906001600160a01b038516908290600081818185875af1925050503d8060008114610cea576040519150601f19603f3d011682016040523d82523d6000602084013e610cef565b606091505b50508093505082610d3a5760405162461bcd60e51b81526020600482015260156024820152740aea0748cc2d2d8cac840e8de40e6cadcc8408aa89605b1b6044820152606401610be8565b5050919050565b610d49612154565b600101546001600160a01b03163314610d745760405162461bcd60e51b8152600401610be890613a8b565b6000610d7e612178565b6040516357babf8b60e01b81526004810182905260248101849052909150737224F427fA92CE4FD8d0058C354634217438b34c906357babf8b906044015b60006040518083038186803b158015610dd457600080fd5b505af4158015610de8573d6000803e3d6000fd5b505050505050565b610df86121fc565b610e018261228a565b610e0b828261237c565b5050565b60606000610e1b612178565b604051630b4d65a760e41b8152909150737224F427fA92CE4FD8d0058C354634217438b34c9063b4d65a7090610e5f9084908b908b908b908b908b90600401613b98565b600060405180830381865af4158015610e7c573d6000803e3d6000fd5b505050506040513d6000823e601f3d908101601f19168201604052610baa9190810190613be1565b6000610eae61243e565b506000805160206140c983398151915290565b60006000805160206140a9833981519152610ede81868686612487565b95945050505050565b60006000805160206140a9833981519152610f038185856124c5565b949350505050565b6000610f15612178565b604051633da28bc160e11b8152909150737224F427fA92CE4FD8d0058C354634217438b34c90637b45178290610f55908490889088908890600401613c66565b60006040518083038186803b158015610f6d57600080fd5b505af4158015610f81573d6000803e3d6000fd5b5050505050505050565b6000838383604051602001610fa293929190613c99565b60408051601f198184030181529190528051602090910120949350505050565b6040516330b2175760e11b81526000805160206140a98339815191526004820152602481018390526001600160a01b03821660448201527387828ff83A8B257D544c06fe64B6838DD2Fb0ED1906361642eae90606401610dbc565b60606000805160206140a9833981519152610f038185856124ef565b600080611044612154565b8054600480830154604051630eca989d60e11b8152918201529192506001600160a01b031690631d95313a90602401602060405180830381865afa158015611090573d6000803e3d6000fd5b505050506040513d601f19601f820116820180604052508101906110b49190613a72565b91505090565b60006110c4612178565b6040516311aeabff60e31b81526004810182905260248101849052909150737224F427fA92CE4FD8d0058C354634217438b34c90638d755ff890604401610dbc565b600080600080611114612178565b905080600d01868660405161112a929190613cbd565b908152604051908190036020018120549450600d82019061114e9088908890613cbd565b908152602001604051809103902060010154925080600d018686604051611176929190613cbd565b9081526020016040518091039020600201549150509250925092565b60008061119d612178565b6040516345bece4760e11b8152909150737224F427fA92CE4FD8d0058C354634217438b34c90638b7d9c8e906111db90849088908890600401613ccd565b602060405180830381865af41580156111f8573d6000803e3d6000fd5b505050506040513d601f19601f82011682018060405250810190610f039190613ce7565b600080611227612178565b6006810154600982015460405163928b8e4d60e01b8152600481018490526024810187905260448101929092526064820152909150737224F427fA92CE4FD8d0058C354634217438b34c9063928b8e4d90608401602060405180830381865af4158015611298573d6000803e3d6000fd5b505050506040513d601f19601f82011682018060405250810190610ad59190613a72565b6112c4612154565b600101546001600160a01b031633146112ef5760405162461bcd60e51b8152600401610be890613a8b565b610bf96125a1565b60006113126000805160206140e98339815191525460ff1690565b1561131d5750600190565b6000611327612154565b8054600480830154604051630eca989d60e11b8152918201529192506001600160a01b031690631d95313a90602401602060405180830381865afa158015611373573d6000803e3d6000fd5b505050506040513d601f19601f820116820180604052508101906113979190613a72565b8160050154146113a957600191505090565b6113b16125ea565b60028201546001600160a01b039081169116146113d057600191505090565b600181015481546001600160a01b0391821691166399ac48ba6113f1610af7565b6040516001600160e01b031960e084901b16815260048101919091526921a7a72a2927a62622a960b11b6024820152604401602060405180830381865afa158015611440573d6000803e3d6000fd5b505050506040513d601f19601f820116820180604052508101906114649190613ab8565b6001600160a01b03161461147a57600191505090565b600091505090565b600061148c612178565b60018101546002820154604051630300147560e11b815260048101919091529192506001600160a01b03169063060028ea90602401602060405180830381865afa1580156114de573d6000803e3d6000fd5b505050506040513d601f19601f820116820180604052508101906115029190613ce7565b6115745760018101546002820154604051637e1ece9f60e01b81526001600160a01b0390921691637e1ece9f9161154191889088908890600401613d09565b600060405180830381600087803b15801561155b57600080fd5b505af115801561156f573d6000803e3d6000fd5b505050505b80737224F427fA92CE4FD8d0058C354634217438b34c6311c9522c90918e8e8e8e8e8e8e8e6040518a63ffffffff1660e01b81526004016115bd99989796959493929190613d29565b60006040518083038186803b1580156115d557600080fd5b505af41580156115e9573d6000803e3d6000fd5b50505050505050505050505050505050565b600080611606612154565b6005015492915050565b6000806060600061161f612154565b90507387828ff83A8B257D544c06fe64B6838DD2Fb0ED1636dc129ae826000805160206140a98339815191526040516001600160e01b031960e085901b1681526004810192909252602482015260448101889052606401600060405180830381865af4158015611693573d6000803e3d6000fd5b505050506040513d6000823e601f3d908101601f191682016040526116bb9190810190613e57565b6004840154929650909450925083036116d8576116d88486612606565b509193909250565b7ff0c57e16840df040f15088dc2f81fe391c3923bec73e23a9662efc9c229c6a008054600160401b810460ff1615906001600160401b03166000811580156117255750825b90506000826001600160401b031660011480156117415750303b155b90508115801561174f575080155b1561176d5760405163f92ee8a960e01b815260040160405180910390fd5b845467ffffffffffffffff19166001178555831561179757845460ff60401b1916600160401b1785555b6117a38b8b8b8b612628565b83156117e957845460ff60401b19168555604051600181527fc7f505b2f371ae2175ee4913f4499e1f2633a7b5936321eed1cdaeb6115181d29060200160405180910390a15b5050505050505050505050565b60006000805160206140a9833981519152610f038185856126bb565b60008061181d612178565b60405163020ec69760e61b8152909150737224F427fA92CE4FD8d0058C354634217438b34c906383b1a5c09061185f9084908a908a908a908a90600401613eb0565b602060405180830381865af415801561187c573d6000803e3d6000fd5b505050506040513d601f19601f820116820180604052508101906118a09190613a72565b9695505050505050565b6060816001600160401b038111156118c4576118c46131b4565b6040519080825280602002602001820160405280156118f757816020015b60608152602001906001900390816118e25790505b50905060005b8281101561198c576119673085858481811061191b5761191b613eea565b905060200281019061192d9190613f00565b8080601f0160208091040260200160405190810160405280939291908181526020018383808284376000920191909152506126ef92505050565b82828151811061197957611979613eea565b60209081029190910101526001016118fd565b5092915050565b6000806000806000806119a4612154565b80546001820154600283015460038401546004909401546001600160a01b039384169b9284169a50921697509195509350915050565b60006119e4612154565b6040516361ac0f7160e11b8152600481018290526001600160a01b03841660248201529091507387828ff83A8B257D544c06fe64B6838DD2Fb0ED19063c3581ee290604401610dbc565b611a36612154565b600101546001600160a01b03163314611a615760405162461bcd60e51b8152600401610be890613a8b565b6000611a6b612154565b805460408051634328603960e11b815290519293506001600160a01b03909116918291638650c0729160048083019260209291908290030181865afa158015611ab8573d6000803e3d6000fd5b505050506040513d601f19601f82011682018060405250810190611adc9190613ce7565b15611b215760405162461bcd60e51b815260206004820152601560248201527415d40e941bdc9d185b081a5cc81a5cdbdb185d1959605a1b6044820152606401610be8565b600482810154604051630eca989d60e11b8152918201526001600160a01b03821690631d95313a90602401602060405180830381865afa158015611b69573d6000803e3d6000fd5b505050506040513d601f19601f82011682018060405250810190611b8d9190613a72565b826005015403611bd05760405162461bcd60e51b815260206004820152600e60248201526d57503a6e6f20757067726164657360901b6044820152606401610be8565b60048281015460405163e3099e0960e01b8152918201526000906001600160a01b0383169063e3099e09906024016020604051808303816000875af1158015611c1d573d6000803e3d6000fd5b505050506040513d601f19601f82011682018060405250810190611c419190613a72565b9050610de881611610565b600080600080600080611c5d612178565b80546001820154600283015460038401546004909401546001600160a01b039384169b92909316995097509195509350915050565b600080600080600080611ca3612178565b905080600c018781548110611cba57611cba613eea565b6000918252602090912060059091020154600c820180546001600160a01b0390921697509088908110611cef57611cef613eea565b906000526020600020906005020160010154945080600c018781548110611d1857611d18613eea565b906000526020600020906005020160020154935080600c018781548110611d4157611d41613eea565b906000526020600020906005020160030154925080600c018781548110611d6a57611d6a613eea565b90600052602060002090600502016004015491505091939590929450565b611dbc604051806080016040528060006001600160a01b031681526020016000815260200160608152602001600081525090565b6000611dc6612154565b6040516337a3804160e11b815260048101829052602481018590529091507387828ff83A8B257D544c06fe64B6838DD2Fb0ED190636f47008290604401600060405180830381865af4158015611e20573d6000803e3d6000fd5b505050506040513d6000823e601f3d908101601f19168201604052610ad59190810190613f46565b600080600080600080600080611e5c612178565b60058101546006820154600783015460088401546009850154600a860154600b90960154949e939d50919b50995097509195509350915050565b6000611ea0612178565b604051630222d4bb60e11b815260048101829052602481018590526001600160a01b0384166044820152909150737224F427fA92CE4FD8d0058C354634217438b34c90630445a976906064015b60006040518083038186803b158015611f0557600080fd5b505af4158015611f19573d6000803e3d6000fd5b50505050505050565b6000611f2c612154565b6040516307c0451b60e11b8152600481018290526001600160a01b03841660248201529091507387828ff83A8B257D544c06fe64B6838DD2Fb0ED190630f808a3690604401610dbc565b6000611f80612178565b604051634699d87760e11b8152909150737224F427fA92CE4FD8d0058C354634217438b34c90638d33b0ee90611eed90849087908790600401613ff2565b60008281526000805160206140a9833981519152602081905260408220805484908110611fed57611fed613eea565b906000526020600020015491505092915050565b60008061200c612178565b604051631420eb4b60e21b8152909150737224F427fA92CE4FD8d0058C354634217438b34c90635083ad2c9061204a90849088908890600401613ccd565b6040805180830381865af4158015612066573d6000803e3d6000fd5b505050506040513d601f19601f8201168201806040525081019061208a919061400c565b50949350505050565b60006000805160206140a9833981519152610ede8186868661275c565b60606000805160206140a9833981519152610ede8186868661278b565b60006120d7612178565b6040516393c8c5e960e01b815260048101829052602481018590526001600160a01b0384166044820152909150737224F427fA92CE4FD8d0058C354634217438b34c906393c8c5e990606401611eed565b604080516020808201949094528082019290925280518083038201815260609092019052805191012090565b7f121584cf2b7b1dee51ceaabc76cdefc72f829ce42dd8cc5282d8e9f009b0420090565b7f50605cc6f5170f0cdbb610edd2214831ea96f61cd1eba92cf58939f65736af0090565b6121a4612842565b6000805160206140e9833981519152805460ff191681557f5db9ee0a495bf2e6ff9c91a7834c1ba4fdd244a5e8aa4e537bd38aeae4b073aa335b6040516001600160a01b03909116815260200160405180910390a150565b306001600160a01b037f000000000000000000000000000000000000000000000000000000000000000016148061226c57507f00000000000000000000000000000000000000000000000000000000000000006001600160a01b03166122606125ea565b6001600160a01b031614155b15610bf95760405163703e46dd60e11b815260040160405180910390fd5b6000612294612154565b90507387828ff83A8B257D544c06fe64B6838DD2Fb0ED163b57e6b0b82846122ba6125ea565b6040516001600160e01b031960e086901b16815260048101939093526001600160a01b039182166024840152166044820152606401602060405180830381865af415801561230c573d6000803e3d6000fd5b505050506040513d601f19601f820116820180604052508101906123309190613ce7565b610e0b5760405162461bcd60e51b815260206004820152601960248201527f474d3a6e6f7420616c6c6f77656420746f2075706772616465000000000000006044820152606401610be8565b816001600160a01b03166352d1902d6040518163ffffffff1660e01b8152600401602060405180830381865afa9250505080156123d6575060408051601f3d908101601f191682019092526123d391810190613a72565b60015b6123fe57604051634c9c8ce360e01b81526001600160a01b0383166004820152602401610be8565b6000805160206140c9833981519152811461242f57604051632a87526960e21b815260048101829052602401610be8565b6124398383612872565b505050565b306001600160a01b037f00000000000000000000000000000000000000000000000000000000000000001614610bf95760405163703e46dd60e11b815260040160405180910390fd5b60008460030160006124a28461249d8888612128565b612128565b81526020810191909152604001600020546001600160a01b031695945050505050565b60008360010160006124d78585612128565b81526020019081526020016000205490509392505050565b60608360020160006125018585612128565b8152602001908152602001600020805461251a90614030565b80601f016020809104026020016040519081016040528092919081815260200182805461254690614030565b80156125935780601f1061256857610100808354040283529160200191612593565b820191906000526020600020905b81548152906001019060200180831161257657829003601f168201915b505050505090509392505050565b6125a96128c8565b6000805160206140e9833981519152805460ff191660011781557f62e78cea01bee320cd4e420270b5ea74000d11b0c9f74754ebdbfc544b05a258336121de565b6000805160206140c9833981519152546001600160a01b031690565b61261f8260405180602001604052806000815250610df0565b610e0b816128f9565b612630612944565b6126627f00000000000000000000000000000000000000000000000000000000000000008460001961271b868661298d565b6126ad7f00000000000000000000000000000000000000000000000000000000000000007f0000000000000000000000000000000000000000000000000000000000000000866129b3565b6126b56129de565b50505050565b60008360030160006126cd8585612128565b81526020810191909152604001600020546001600160a01b0316949350505050565b6060600080846001600160a01b03168460405161270c919061406a565b600060405180830381855af49150503d8060008114612747576040519150601f19603f3d011682016040523d82523d6000602084013e61274c565b606091505b5091509150610ede8583836129e6565b60008460010160006127728461249d8888612128565b8152602001908152602001600020549050949350505050565b60608460020160006127a18461249d8888612128565b815260200190815260200160002080546127ba90614030565b80601f01602080910402602001604051908101604052809291908181526020018280546127e690614030565b80156128335780601f1061280857610100808354040283529160200191612833565b820191906000526020600020905b81548152906001019060200180831161281657829003601f168201915b50505050509050949350505050565b6000805160206140e98339815191525460ff16610bf957604051638dfc202b60e01b815260040160405180910390fd5b61287b82612a3b565b6040516001600160a01b038316907fbc7cd75a20ee27fd9adebab32041f755214dbc6bffa90cc0225b39da2e5c2d3b90600090a28051156128c05761243982826126ef565b610e0b612aa0565b6000805160206140e98339815191525460ff1615610bf95760405163d93c066560e01b815260040160405180910390fd5b6000612903612154565b600581018390556040518381529091507ffddcded6b4f4730c226821172046b48372d3cd963c159701ae1b7c3bcac541bb9060200160405180910390a15050565b7ff0c57e16840df040f15088dc2f81fe391c3923bec73e23a9662efc9c229c6a0054600160401b900460ff16610bf957604051631afcd79f60e31b815260040160405180910390fd5b612995612944565b61299d6129de565b6129a56129de565b610de8868686868686612abf565b6129bb612944565b6129c3612e4b565b6129cb612e5b565b6129d36129de565b612439838383612e6b565b610bf9612944565b6060826129fb576129f682612fc3565b610ad5565b8151158015612a1257506001600160a01b0384163b155b1561198c57604051639996b31560e01b81526001600160a01b0385166004820152602401610be8565b806001600160a01b03163b600003612a7157604051634c9c8ce360e01b81526001600160a01b0382166004820152602401610be8565b6000805160206140c983398151915280546001600160a01b0319166001600160a01b0392909216919091179055565b3415610bf95760405163b398979f60e01b815260040160405180910390fd5b612ac7612944565b6001600160a01b038616612b1d5760405162461bcd60e51b815260206004820152601c60248201527f474d3a676f7665726e616e63652063616e6e6f74206265207a65726f000000006044820152606401610be8565b6001600160a01b038516612b735760405162461bcd60e51b815260206004820152601860248201527f474d3a73656e6174652063616e6e6f74206265207a65726f00000000000000006044820152606401610be8565b428411612bb85760405162461bcd60e51b8152602060048201526013602482015272474d3a6c6f772073656e61746545787069727960681b6044820152606401610be8565b82600003612c085760405162461bcd60e51b815260206004820152601d60248201527f474d3a7061636b616765547970652063616e6e6f74206265207a65726f0000006044820152606401610be8565b6000819003612c645760405162461bcd60e51b815260206004820152602260248201527f474d3a696e697456657273696f6e4e616d652063616e6e6f7420626520656d70604482015261747960f01b6064820152608401610be8565b6000612c6e612154565b8054336001600160a01b031991821681178355600183018054909216179055600381018690556004810185905590506000805160206140a983398151915260007387828ff83A8B257D544c06fe64B6838DD2Fb0ED16363feb9748484612cd26125ea565b8a8a8a620151806040518863ffffffff1660e01b8152600401612cfb9796959493929190613a2a565b602060405180830381865af4158015612d18573d6000803e3d6000fd5b505050506040513d601f19601f82011682018060405250810190612d3c9190613a72565b6040516336e094d760e11b81526004810185905260248101849052604481018290529091507387828ff83A8B257D544c06fe64B6838DD2Fb0ED190636dc129ae90606401600060405180830381865af4158015612d9d573d6000803e3d6000fd5b505050506040513d6000823e601f3d908101601f19168201604052612dc59190810190613e57565b505050612e13612e0e86868080601f0160208091040260200160405190810160405280939291908181526020018383808284376000920191909152505050506004860154612fef565b6128f9565b505080546001600160a01b039788166001600160a01b0319918216178255600190910180549690971695169490941790945550505050565b612e53612944565b610bf9613023565b612e63612944565b610bf9613051565b612e73612944565b6001600160a01b038316612ec95760405162461bcd60e51b815260206004820152601e60248201527f574d3a674554482063616e6e6f74206265207a65726f206164647265737300006044820152606401610be8565b6001600160a01b038216612f1f5760405162461bcd60e51b815260206004820181905260248201527f574d3a706f7274616c2063616e6e6f74206265207a65726f20616464726573736044820152606401610be8565b6000612f29612178565b80546001600160a01b03199081166001600160a01b038781169182178455600180850180549094169188169190911790925560028301859055640165a0bc006003840155604051630492f6e160e01b8152600481018690526024810192909252919250630492f6e190604401600060405180830381600087803b158015612faf57600080fd5b505af1158015610f81573d6000803e3d6000fd5b805115612fd35780518082602001fd5b604051630a12f52160e11b815260040160405180910390fd5b50565b60008282604051602001613004929190614086565b60408051601f1981840301815291905280516020909101209392505050565b61302b612944565b60017f9b779b17422d0df92223018b32b4d1fa46e071723d6817e2486d003becc55f0055565b613059612944565b6000805160206140e9833981519152805460ff19169055565b60006020828403121561308457600080fd5b81356001600160e01b031981168114610ad557600080fd5b600080604083850312156130af57600080fd5b50508035926020909101359150565b6001600160a01b0381168114612fec57600080fd5b60008083601f8401126130e557600080fd5b5081356001600160401b038111156130fc57600080fd5b60208301915083602082850101111561311457600080fd5b9250929050565b60008060008060006080868803121561313357600080fd5b853561313e816130be565b94506020860135935060408601356001600160401b0381111561316057600080fd5b61316c888289016130d3565b96999598509660600135949350505050565b60006020828403121561319057600080fd5b8135610ad5816130be565b6000602082840312156131ad57600080fd5b5035919050565b634e487b7160e01b600052604160045260246000fd5b604051601f8201601f191681016001600160401b03811182821017156131f2576131f26131b4565b604052919050565b60006001600160401b03821115613213576132136131b4565b50601f01601f191660200190565b600082601f83011261323257600080fd5b8135613245613240826131fa565b6131ca565b81815284602083860101111561325a57600080fd5b816020850160208301376000918101602001919091529392505050565b6000806040838503121561328a57600080fd5b8235613295816130be565b915060208301356001600160401b038111156132b057600080fd5b6132bc85828601613221565b9150509250929050565b60008083601f8401126132d857600080fd5b5081356001600160401b038111156132ef57600080fd5b6020830191508360208260051b850101111561311457600080fd5b60008060008060006060868803121561332257600080fd5b85356001600160401b038082111561333957600080fd5b61334589838a016132c6565b9097509550602088013591508082111561335e57600080fd5b5061336b888289016132c6565b909450925050604086013561337f816130be565b809150509295509295909350565b6020808252825182820181905260009190848201906040850190845b818110156133c5578351835292840192918401916001016133a9565b50909695505050505050565b6000806000606084860312156133e657600080fd5b505081359360208301359350604090920135919050565b60008060006040848603121561341257600080fd5b83356001600160401b0381111561342857600080fd5b613434868287016132c6565b9094509250506020840135613448816130be565b809150509250925092565b60008060006040848603121561346857600080fd5b83356001600160401b0381111561347e57600080fd5b61348a868287016130d3565b909790965060209590950135949350505050565b600080604083850312156134b157600080fd5b8235915060208301356134c3816130be565b809150509250929050565b60005b838110156134e95781810151838201526020016134d1565b50506000910152565b6000815180845261350a8160208601602086016134ce565b601f01601f19169290920160200192915050565b602081526000610ad560208301846134f2565b6000806020838503121561354457600080fd5b82356001600160401b0381111561355a57600080fd5b613566858286016130d3565b90969095509350505050565b600080600080600080600080600080600060c08c8e03121561359357600080fd5b6001600160401b03808d3511156135a957600080fd5b6135b68e8e358f016132c6565b909c509a5060208d01358110156135cc57600080fd5b6135dc8e60208f01358f016132c6565b909a50985060408d01358110156135f257600080fd5b6136028e60408f01358f016132c6565b909850965060608d013581101561361857600080fd5b6136288e60608f01358f016132c6565b909650945060808d0135935060a08d013581101561364557600080fd5b506136568d60a08e01358e016132c6565b81935080925050509295989b509295989b9093969950565b60018060a01b0384168152826020820152606060408201526000610ede60608301846134f2565b600080600080600080608087890312156136ae57600080fd5b8635955060208701356136c0816130be565b945060408701356001600160401b03808211156136dc57600080fd5b6136e88a838b016130d3565b9096509450606089013591508082111561370157600080fd5b5061370e89828a016130d3565b979a9699509497509295939492505050565b6000806000806060858703121561373657600080fd5b8435935060208501356001600160401b0381111561375357600080fd5b61375f878288016130d3565b9094509250506040850135613773816130be565b939692955090935050565b6000806020838503121561379157600080fd5b82356001600160401b038111156137a757600080fd5b613566858286016132c6565b6000602080830181845280855180835260408601915060408160051b870101925083870160005b8281101561380857603f198886030184526137f68583516134f2565b945092850192908501906001016137da565b5092979650505050505050565b60006001600160401b0382111561382e5761382e6131b4565b5060051b60200190565b600082601f83011261384957600080fd5b8135602061385961324083613815565b82815260059290921b8401810191818101908684111561387857600080fd5b8286015b84811015613893578035835291830191830161387c565b509695505050505050565b600080600080600060a086880312156138b657600080fd5b85356138c1816130be565b945060208601356138d1816130be565b935060408601356001600160401b03808211156138ed57600080fd5b6138f989838a01613838565b9450606088013591508082111561390f57600080fd5b61391b89838a01613838565b9350608088013591508082111561393157600080fd5b5061393e88828901613221565b9150509295509295909350565b6020815260018060a01b03825116602082015260208201516040820152600060408301516080606084015261398360a08401826134f2565b9050606084015160808401528091505092915050565b600080600080600060a086880312156139b157600080fd5b85356139bc816130be565b945060208601356139cc816130be565b9350604086013592506060860135915060808601356001600160401b038111156139f557600080fd5b61393e88828901613221565b81835281816020850137506000828201602090810191909152601f909101601f19169091010190565b87815286602082015260018060a01b038616604082015284606082015260c060808201526000613a5e60c083018587613a01565b90508260a083015298975050505050505050565b600060208284031215613a8457600080fd5b5051919050565b6020808252601390820152722ba81d39b2b73232b9103737ba1037bbb732b960691b604082015260600190565b600060208284031215613aca57600080fd5b8151610ad5816130be565b81835260006001600160fb1b03831115613aee57600080fd5b8260051b80836020870137939093016020019392505050565b81835260006020808501808196508560051b810191508460005b87811015613b8b5782840389528135601e19883603018112613b4257600080fd5b870185810190356001600160401b03811115613b5d57600080fd5b803603821315613b6c57600080fd5b613b77868284613a01565b9a87019a9550505090840190600101613b21565b5091979650505050505050565b868152608060208201526000613bb2608083018789613ad5565b8281036040840152613bc5818688613b07565b91505060018060a01b0383166060830152979650505050505050565b60006020808385031215613bf457600080fd5b82516001600160401b03811115613c0a57600080fd5b8301601f81018513613c1b57600080fd5b8051613c2961324082613815565b81815260059190911b82018301908381019087831115613c4857600080fd5b928401925b82841015610baa57835182529284019290840190613c4d565b848152606060208201526000613c80606083018587613ad5565b905060018060a01b038316604083015295945050505050565b604081526000613cad604083018587613a01565b9050826020830152949350505050565b8183823760009101908152919050565b838152604060208201526000610ede604083018486613a01565b600060208284031215613cf957600080fd5b81518015158114610ad557600080fd5b8481528360208201526060604082015260006118a0606083018486613ad5565b8981526000602060a081840152613d4460a084018b8d613b07565b8381036040850152613d57818a8c613ad5565b90508381036060850152613d6c81888a613ad5565b84810360808601528581529050818101600586811b830184018860005b89811015613dfa57858303601f190185528135368c9003601e19018112613daf57600080fd5b8b0187810190356001600160401b03811115613dca57600080fd5b80861b3603821315613ddb57600080fd5b613de6858284613ad5565b968901969450505090860190600101613d89565b505080955050505050509a9950505050505050505050565b600082601f830112613e2357600080fd5b8151613e31613240826131fa565b818152846020838601011115613e4657600080fd5b610f038260208301602087016134ce565b600080600060608486031215613e6c57600080fd5b8351613e77816130be565b6020850151604086015191945092506001600160401b03811115613e9a57600080fd5b613ea686828701613e12565b9150509250925092565b858152846020820152608060408201526000613ed0608083018587613a01565b905060018060a01b03831660608301529695505050505050565b634e487b7160e01b600052603260045260246000fd5b6000808335601e19843603018112613f1757600080fd5b8301803591506001600160401b03821115613f3157600080fd5b60200191503681900382131561311457600080fd5b600060208284031215613f5857600080fd5b81516001600160401b0380821115613f6f57600080fd5b9083019060808286031215613f8357600080fd5b604051608081018181108382111715613f9e57613f9e6131b4565b6040528251613fac816130be565b815260208381015190820152604083015182811115613fca57600080fd5b613fd687828601613e12565b6040830152506060830151606082015280935050505092915050565b838152604060208201526000610ede604083018486613ad5565b6000806040838503121561401f57600080fd5b505080516020909101519092909150565b600181811c9082168061404457607f821691505b60208210810361406457634e487b7160e01b600052602260045260246000fd5b50919050565b6000825161407c8184602087016134ce565b9190910192915050565b60408152600061409960408301856134f2565b9050826020830152939250505056fea3ee0f890fa2a50cc11476f86783721ec49c3aba88b83a957fe08235f6485c00360894a13ba1a3210667c828492db98dca3e2076cc3735a920a3ca505d382bbccd5ed15c6e187e77e9aee88184c21f4f2182ab5827cb3b7e07fbedcd63f03300a264697066735822122010f211f6cf7ffc7524dec2da4c36b578d0b849a4a992aa8087b8058940a38e7764736f6c63430008140033",
  "deployedBytecode": "0x6080604052600436106102e85760003560e01c80638650c07211610190578063bf211ed1116100dc578063dca1086111610095578063e72b1d6d1161006f578063e72b1d6d14610a06578063e768887e14610a26578063e78e839714610a46578063f23a6e6114610a6657600080fd5b8063dca10861146109a6578063e02a5208146109c6578063e68e1218146109e657600080fd5b8063bf211ed114610855578063c58343ef1461089d578063c7f758a8146108ef578063d2583aee1461091c578063d99a16c514610966578063dab840c71461098657600080fd5b8063ac144d8b11610149578063ad4ac4c411610123578063ad4ac4c41461078d578063ad8655cb146107db578063aec98863146107fb578063bc197c811461081057600080fd5b8063ac144d8b1461070f578063ac9650d81461072f578063ad3cb1cc1461075c57600080fd5b80638650c072146106565780638794fabc1461066b5780638aa104351461068b57806398951b56146106a05780639934b281146106cf57806399ac48ba146106ef57600080fd5b806356a72dbf1161024f578063722679541161020857806377a3a813116101e257806377a3a813146105c65780637aed42ce146106015780637e5358d1146106215780638456cb591461064157600080fd5b80637226795414610564578063745653de14610591578063753b8807146105a657600080fd5b806356a72dbf146104855780635731bc1d146104a55780635a34bb15146104c55780635c975abb146104e55780635d9e085d1461050a5780636d07e4041461054457600080fd5b8063419754c5116102a1578063419754c5146103d05780634b75642f146103f05780634f1ef286146104105780634f5141e91461042357806352d1902d146104505780635329512b1461046557600080fd5b806301ffc9a7146102f45780631da7159114610329578063289b3c0d1461035757806338fff2d0146103845780633b8ba862146103995780633f4ba83a146103b957600080fd5b366102ef57005b600080fd5b34801561030057600080fd5b5061031461030f366004613072565b610a92565b60405190151581526020015b60405180910390f35b34801561033557600080fd5b5061034961034436600461309c565b610ac9565b604051908152602001610320565b34801561036357600080fd5b5061036c610adc565b6040516001600160a01b039091168152602001610320565b34801561039057600080fd5b50610349610af7565b3480156103a557600080fd5b506103496103b436600461311b565b610b0a565b3480156103c557600080fd5b506103ce610bb5565b005b3480156103dc57600080fd5b506103146103eb36600461317e565b610bfb565b3480156103fc57600080fd5b506103ce61040b36600461319b565b610d41565b6103ce61041e366004613277565b610df0565b34801561042f57600080fd5b5061044361043e36600461330a565b610e0f565b604051610320919061338d565b34801561045c57600080fd5b50610349610ea4565b34801561047157600080fd5b5061036c6104803660046133d1565b610ec1565b34801561049157600080fd5b506103496104a036600461309c565b610ee7565b3480156104b157600080fd5b506103ce6104c03660046133fd565b610f0b565b3480156104d157600080fd5b506103496104e0366004613453565b610f8b565b3480156104f157600080fd5b506000805160206140e98339815191525460ff16610314565b34801561051657600080fd5b5061034961052536600461319b565b60009081526000805160206140a9833981519152602052604090205490565b34801561055057600080fd5b506103ce61055f36600461349e565b610fc2565b34801561057057600080fd5b5061058461057f36600461309c565b61101d565b604051610320919061351e565b34801561059d57600080fd5b50610349611039565b3480156105b257600080fd5b506103ce6105c136600461319b565b6110ba565b3480156105d257600080fd5b506105e66105e1366004613531565b611106565b60408051938452602084019290925290820152606001610320565b34801561060d57600080fd5b5061031461061c366004613531565b611192565b34801561062d57600080fd5b5061034961063c36600461319b565b61121c565b34801561064d57600080fd5b506103ce6112bc565b34801561066257600080fd5b506103146112f7565b34801561067757600080fd5b506103ce610686366004613572565b611482565b34801561069757600080fd5b506103496115fb565b3480156106ac57600080fd5b506106c06106bb36600461319b565b611610565b6040516103209392919061366e565b3480156106db57600080fd5b506103ce6106ea366004613695565b6116e0565b3480156106fb57600080fd5b5061036c61070a36600461309c565b6117f6565b34801561071b57600080fd5b5061034961072a366004613720565b611812565b34801561073b57600080fd5b5061074f61074a36600461377e565b6118aa565b60405161032091906137b3565b34801561076857600080fd5b50610584604051806040016040528060058152602001640352e302e360dc1b81525081565b34801561079957600080fd5b506107a2611993565b604080516001600160a01b039687168152948616602086015292909416918301919091526060820152608081019190915260a001610320565b3480156107e757600080fd5b506103ce6107f636600461317e565b6119da565b34801561080757600080fd5b506103ce611a2e565b34801561081c57600080fd5b5061083c61082b36600461389e565b63bc197c8160e01b95945050505050565b6040516001600160e01b03199091168152602001610320565b34801561086157600080fd5b5061086a611c4c565b604080516001600160a01b039687168152959094166020860152928401919091526060830152608082015260a001610320565b3480156108a957600080fd5b506108bd6108b836600461319b565b611c92565b604080516001600160a01b0390961686526020860194909452928401919091526060830152608082015260a001610320565b3480156108fb57600080fd5b5061090f61090a36600461319b565b611d88565b604051610320919061394b565b34801561092857600080fd5b50610931611e48565b604080519788526020880196909652948601939093526060850191909152608084015260a083015260c082015260e001610320565b34801561097257600080fd5b506103ce61098136600461349e565b611e96565b34801561099257600080fd5b506103ce6109a136600461317e565b611f22565b3480156109b257600080fd5b506103ce6109c136600461377e565b611f76565b3480156109d257600080fd5b506103496109e136600461309c565b611fbe565b3480156109f257600080fd5b50610349610a01366004613531565b612001565b348015610a1257600080fd5b50610349610a213660046133d1565b612093565b348015610a3257600080fd5b50610584610a413660046133d1565b6120b0565b348015610a5257600080fd5b506103ce610a6136600461349e565b6120cd565b348015610a7257600080fd5b5061083c610a81366004613999565b63f23a6e6160e01b95945050505050565b60006001600160e01b03198216630271189760e51b1480610ac357506301ffc9a760e01b6001600160e01b03198316145b92915050565b6000610ad58383612128565b9392505050565b600080610ae7612154565b546001600160a01b031692915050565b6000610b01612178565b60020154905090565b600080610b15612154565b6040516318ffae5d60e21b815290915073__$dabd46e1bb7f0d62843614b2ceac53b60c$__906363feb97490610b699084906000805160206140a9833981519152908c908c908c908c908c90600401613a2a565b602060405180830381865af4158015610b86573d6000803e3d6000fd5b505050506040513d601f19601f82011682018060405250810190610baa9190613a72565b979650505050505050565b610bbd612154565b600101546001600160a01b03163314610bf15760405162461bcd60e51b8152600401610be890613a8b565b60405180910390fd5b610bf961219c565b565b6000610c05612154565b546040805163289b3c0d60e01b815290516001600160a01b039092169163289b3c0d916004808201926020929091908290030181865afa158015610c4d573d6000803e3d6000fd5b505050506040513d601f19601f82011682018060405250810190610c719190613ab8565b6001600160a01b0316336001600160a01b031614610c8e57600080fd5b6000610c98612178565b6004810154604051919250906001600160a01b038516908290600081818185875af1925050503d8060008114610cea576040519150601f19603f3d011682016040523d82523d6000602084013e610cef565b606091505b50508093505082610d3a5760405162461bcd60e51b81526020600482015260156024820152740aea0748cc2d2d8cac840e8de40e6cadcc8408aa89605b1b6044820152606401610be8565b5050919050565b610d49612154565b600101546001600160a01b03163314610d745760405162461bcd60e51b8152600401610be890613a8b565b6000610d7e612178565b6040516357babf8b60e01b8152600481018290526024810184905290915073__$9ac600e8e8caf8e716c00e1b9cc2af3047$__906357babf8b906044015b60006040518083038186803b158015610dd457600080fd5b505af4158015610de8573d6000803e3d6000fd5b505050505050565b610df86121fc565b610e018261228a565b610e0b828261237c565b5050565b60606000610e1b612178565b604051630b4d65a760e41b815290915073__$9ac600e8e8caf8e716c00e1b9cc2af3047$__9063b4d65a7090610e5f9084908b908b908b908b908b90600401613b98565b600060405180830381865af4158015610e7c573d6000803e3d6000fd5b505050506040513d6000823e601f3d908101601f19168201604052610baa9190810190613be1565b6000610eae61243e565b506000805160206140c983398151915290565b60006000805160206140a9833981519152610ede81868686612487565b95945050505050565b60006000805160206140a9833981519152610f038185856124c5565b949350505050565b6000610f15612178565b604051633da28bc160e11b815290915073__$9ac600e8e8caf8e716c00e1b9cc2af3047$__90637b45178290610f55908490889088908890600401613c66565b60006040518083038186803b158015610f6d57600080fd5b505af4158015610f81573d6000803e3d6000fd5b5050505050505050565b6000838383604051602001610fa293929190613c99565b60408051601f198184030181529190528051602090910120949350505050565b6040516330b2175760e11b81526000805160206140a98339815191526004820152602481018390526001600160a01b038216604482015273__$dabd46e1bb7f0d62843614b2ceac53b60c$__906361642eae90606401610dbc565b60606000805160206140a9833981519152610f038185856124ef565b600080611044612154565b8054600480830154604051630eca989d60e11b8152918201529192506001600160a01b031690631d95313a90602401602060405180830381865afa158015611090573d6000803e3d6000fd5b505050506040513d601f19601f820116820180604052508101906110b49190613a72565b91505090565b60006110c4612178565b6040516311aeabff60e31b8152600481018290526024810184905290915073__$9ac600e8e8caf8e716c00e1b9cc2af3047$__90638d755ff890604401610dbc565b600080600080611114612178565b905080600d01868660405161112a929190613cbd565b908152604051908190036020018120549450600d82019061114e9088908890613cbd565b908152602001604051809103902060010154925080600d018686604051611176929190613cbd565b9081526020016040518091039020600201549150509250925092565b60008061119d612178565b6040516345bece4760e11b815290915073__$9ac600e8e8caf8e716c00e1b9cc2af3047$__90638b7d9c8e906111db90849088908890600401613ccd565b602060405180830381865af41580156111f8573d6000803e3d6000fd5b505050506040513d601f19601f82011682018060405250810190610f039190613ce7565b600080611227612178565b6006810154600982015460405163928b8e4d60e01b815260048101849052602481018790526044810192909252606482015290915073__$9ac600e8e8caf8e716c00e1b9cc2af3047$__9063928b8e4d90608401602060405180830381865af4158015611298573d6000803e3d6000fd5b505050506040513d601f19601f82011682018060405250810190610ad59190613a72565b6112c4612154565b600101546001600160a01b031633146112ef5760405162461bcd60e51b8152600401610be890613a8b565b610bf96125a1565b60006113126000805160206140e98339815191525460ff1690565b1561131d5750600190565b6000611327612154565b8054600480830154604051630eca989d60e11b8152918201529192506001600160a01b031690631d95313a90602401602060405180830381865afa158015611373573d6000803e3d6000fd5b505050506040513d601f19601f820116820180604052508101906113979190613a72565b8160050154146113a957600191505090565b6113b16125ea565b60028201546001600160a01b039081169116146113d057600191505090565b600181015481546001600160a01b0391821691166399ac48ba6113f1610af7565b6040516001600160e01b031960e084901b16815260048101919091526921a7a72a2927a62622a960b11b6024820152604401602060405180830381865afa158015611440573d6000803e3d6000fd5b505050506040513d601f19601f820116820180604052508101906114649190613ab8565b6001600160a01b03161461147a57600191505090565b600091505090565b600061148c612178565b60018101546002820154604051630300147560e11b815260048101919091529192506001600160a01b03169063060028ea90602401602060405180830381865afa1580156114de573d6000803e3d6000fd5b505050506040513d601f19601f820116820180604052508101906115029190613ce7565b6115745760018101546002820154604051637e1ece9f60e01b81526001600160a01b0390921691637e1ece9f9161154191889088908890600401613d09565b600060405180830381600087803b15801561155b57600080fd5b505af115801561156f573d6000803e3d6000fd5b505050505b8073__$9ac600e8e8caf8e716c00e1b9cc2af3047$__6311c9522c90918e8e8e8e8e8e8e8e6040518a63ffffffff1660e01b81526004016115bd99989796959493929190613d29565b60006040518083038186803b1580156115d557600080fd5b505af41580156115e9573d6000803e3d6000fd5b50505050505050505050505050505050565b600080611606612154565b6005015492915050565b6000806060600061161f612154565b905073__$dabd46e1bb7f0d62843614b2ceac53b60c$__636dc129ae826000805160206140a98339815191526040516001600160e01b031960e085901b1681526004810192909252602482015260448101889052606401600060405180830381865af4158015611693573d6000803e3d6000fd5b505050506040513d6000823e601f3d908101601f191682016040526116bb9190810190613e57565b6004840154929650909450925083036116d8576116d88486612606565b509193909250565b7ff0c57e16840df040f15088dc2f81fe391c3923bec73e23a9662efc9c229c6a008054600160401b810460ff1615906001600160401b03166000811580156117255750825b90506000826001600160401b031660011480156117415750303b155b90508115801561174f575080155b1561176d5760405163f92ee8a960e01b815260040160405180910390fd5b845467ffffffffffffffff19166001178555831561179757845460ff60401b1916600160401b1785555b6117a38b8b8b8b612628565b83156117e957845460ff60401b19168555604051600181527fc7f505b2f371ae2175ee4913f4499e1f2633a7b5936321eed1cdaeb6115181d29060200160405180910390a15b5050505050505050505050565b60006000805160206140a9833981519152610f038185856126bb565b60008061181d612178565b60405163020ec69760e61b815290915073__$9ac600e8e8caf8e716c00e1b9cc2af3047$__906383b1a5c09061185f9084908a908a908a908a90600401613eb0565b602060405180830381865af415801561187c573d6000803e3d6000fd5b505050506040513d601f19601f820116820180604052508101906118a09190613a72565b9695505050505050565b6060816001600160401b038111156118c4576118c46131b4565b6040519080825280602002602001820160405280156118f757816020015b60608152602001906001900390816118e25790505b50905060005b8281101561198c576119673085858481811061191b5761191b613eea565b905060200281019061192d9190613f00565b8080601f0160208091040260200160405190810160405280939291908181526020018383808284376000920191909152506126ef92505050565b82828151811061197957611979613eea565b60209081029190910101526001016118fd565b5092915050565b6000806000806000806119a4612154565b80546001820154600283015460038401546004909401546001600160a01b039384169b9284169a50921697509195509350915050565b60006119e4612154565b6040516361ac0f7160e11b8152600481018290526001600160a01b038416602482015290915073__$dabd46e1bb7f0d62843614b2ceac53b60c$__9063c3581ee290604401610dbc565b611a36612154565b600101546001600160a01b03163314611a615760405162461bcd60e51b8152600401610be890613a8b565b6000611a6b612154565b805460408051634328603960e11b815290519293506001600160a01b03909116918291638650c0729160048083019260209291908290030181865afa158015611ab8573d6000803e3d6000fd5b505050506040513d601f19601f82011682018060405250810190611adc9190613ce7565b15611b215760405162461bcd60e51b815260206004820152601560248201527415d40e941bdc9d185b081a5cc81a5cdbdb185d1959605a1b6044820152606401610be8565b600482810154604051630eca989d60e11b8152918201526001600160a01b03821690631d95313a90602401602060405180830381865afa158015611b69573d6000803e3d6000fd5b505050506040513d601f19601f82011682018060405250810190611b8d9190613a72565b826005015403611bd05760405162461bcd60e51b815260206004820152600e60248201526d57503a6e6f20757067726164657360901b6044820152606401610be8565b60048281015460405163e3099e0960e01b8152918201526000906001600160a01b0383169063e3099e09906024016020604051808303816000875af1158015611c1d573d6000803e3d6000fd5b505050506040513d601f19601f82011682018060405250810190611c419190613a72565b9050610de881611610565b600080600080600080611c5d612178565b80546001820154600283015460038401546004909401546001600160a01b039384169b92909316995097509195509350915050565b600080600080600080611ca3612178565b905080600c018781548110611cba57611cba613eea565b6000918252602090912060059091020154600c820180546001600160a01b0390921697509088908110611cef57611cef613eea565b906000526020600020906005020160010154945080600c018781548110611d1857611d18613eea565b906000526020600020906005020160020154935080600c018781548110611d4157611d41613eea565b906000526020600020906005020160030154925080600c018781548110611d6a57611d6a613eea565b90600052602060002090600502016004015491505091939590929450565b611dbc604051806080016040528060006001600160a01b031681526020016000815260200160608152602001600081525090565b6000611dc6612154565b6040516337a3804160e11b8152600481018290526024810185905290915073__$dabd46e1bb7f0d62843614b2ceac53b60c$__90636f47008290604401600060405180830381865af4158015611e20573d6000803e3d6000fd5b505050506040513d6000823e601f3d908101601f19168201604052610ad59190810190613f46565b600080600080600080600080611e5c612178565b60058101546006820154600783015460088401546009850154600a860154600b90960154949e939d50919b50995097509195509350915050565b6000611ea0612178565b604051630222d4bb60e11b815260048101829052602481018590526001600160a01b038416604482015290915073__$9ac600e8e8caf8e716c00e1b9cc2af3047$__90630445a976906064015b60006040518083038186803b158015611f0557600080fd5b505af4158015611f19573d6000803e3d6000fd5b50505050505050565b6000611f2c612154565b6040516307c0451b60e11b8152600481018290526001600160a01b038416602482015290915073__$dabd46e1bb7f0d62843614b2ceac53b60c$__90630f808a3690604401610dbc565b6000611f80612178565b604051634699d87760e11b815290915073__$9ac600e8e8caf8e716c00e1b9cc2af3047$__90638d33b0ee90611eed90849087908790600401613ff2565b60008281526000805160206140a9833981519152602081905260408220805484908110611fed57611fed613eea565b906000526020600020015491505092915050565b60008061200c612178565b604051631420eb4b60e21b815290915073__$9ac600e8e8caf8e716c00e1b9cc2af3047$__90635083ad2c9061204a90849088908890600401613ccd565b6040805180830381865af4158015612066573d6000803e3d6000fd5b505050506040513d601f19601f8201168201806040525081019061208a919061400c565b50949350505050565b60006000805160206140a9833981519152610ede8186868661275c565b60606000805160206140a9833981519152610ede8186868661278b565b60006120d7612178565b6040516393c8c5e960e01b815260048101829052602481018590526001600160a01b038416604482015290915073__$9ac600e8e8caf8e716c00e1b9cc2af3047$__906393c8c5e990606401611eed565b604080516020808201949094528082019290925280518083038201815260609092019052805191012090565b7f121584cf2b7b1dee51ceaabc76cdefc72f829ce42dd8cc5282d8e9f009b0420090565b7f50605cc6f5170f0cdbb610edd2214831ea96f61cd1eba92cf58939f65736af0090565b6121a4612842565b6000805160206140e9833981519152805460ff191681557f5db9ee0a495bf2e6ff9c91a7834c1ba4fdd244a5e8aa4e537bd38aeae4b073aa335b6040516001600160a01b03909116815260200160405180910390a150565b306001600160a01b037f000000000000000000000000000000000000000000000000000000000000000016148061226c57507f00000000000000000000000000000000000000000000000000000000000000006001600160a01b03166122606125ea565b6001600160a01b031614155b15610bf95760405163703e46dd60e11b815260040160405180910390fd5b6000612294612154565b905073__$dabd46e1bb7f0d62843614b2ceac53b60c$__63b57e6b0b82846122ba6125ea565b6040516001600160e01b031960e086901b16815260048101939093526001600160a01b039182166024840152166044820152606401602060405180830381865af415801561230c573d6000803e3d6000fd5b505050506040513d601f19601f820116820180604052508101906123309190613ce7565b610e0b5760405162461bcd60e51b815260206004820152601960248201527f474d3a6e6f7420616c6c6f77656420746f2075706772616465000000000000006044820152606401610be8565b816001600160a01b03166352d1902d6040518163ffffffff1660e01b8152600401602060405180830381865afa9250505080156123d6575060408051601f3d908101601f191682019092526123d391810190613a72565b60015b6123fe57604051634c9c8ce360e01b81526001600160a01b0383166004820152602401610be8565b6000805160206140c9833981519152811461242f57604051632a87526960e21b815260048101829052602401610be8565b6124398383612872565b505050565b306001600160a01b037f00000000000000000000000000000000000000000000000000000000000000001614610bf95760405163703e46dd60e11b815260040160405180910390fd5b60008460030160006124a28461249d8888612128565b612128565b81526020810191909152604001600020546001600160a01b031695945050505050565b60008360010160006124d78585612128565b81526020019081526020016000205490509392505050565b60608360020160006125018585612128565b8152602001908152602001600020805461251a90614030565b80601f016020809104026020016040519081016040528092919081815260200182805461254690614030565b80156125935780601f1061256857610100808354040283529160200191612593565b820191906000526020600020905b81548152906001019060200180831161257657829003601f168201915b505050505090509392505050565b6125a96128c8565b6000805160206140e9833981519152805460ff191660011781557f62e78cea01bee320cd4e420270b5ea74000d11b0c9f74754ebdbfc544b05a258336121de565b6000805160206140c9833981519152546001600160a01b031690565b61261f8260405180602001604052806000815250610df0565b610e0b816128f9565b612630612944565b6126627f00000000000000000000000000000000000000000000000000000000000000008460001961271b868661298d565b6126ad7f00000000000000000000000000000000000000000000000000000000000000007f0000000000000000000000000000000000000000000000000000000000000000866129b3565b6126b56129de565b50505050565b60008360030160006126cd8585612128565b81526020810191909152604001600020546001600160a01b0316949350505050565b6060600080846001600160a01b03168460405161270c919061406a565b600060405180830381855af49150503d8060008114612747576040519150601f19603f3d011682016040523d82523d6000602084013e61274c565b606091505b5091509150610ede8583836129e6565b60008460010160006127728461249d8888612128565b8152602001908152602001600020549050949350505050565b60608460020160006127a18461249d8888612128565b815260200190815260200160002080546127ba90614030565b80601f01602080910402602001604051908101604052809291908181526020018280546127e690614030565b80156128335780601f1061280857610100808354040283529160200191612833565b820191906000526020600020905b81548152906001019060200180831161281657829003601f168201915b50505050509050949350505050565b6000805160206140e98339815191525460ff16610bf957604051638dfc202b60e01b815260040160405180910390fd5b61287b82612a3b565b6040516001600160a01b038316907fbc7cd75a20ee27fd9adebab32041f755214dbc6bffa90cc0225b39da2e5c2d3b90600090a28051156128c05761243982826126ef565b610e0b612aa0565b6000805160206140e98339815191525460ff1615610bf95760405163d93c066560e01b815260040160405180910390fd5b6000612903612154565b600581018390556040518381529091507ffddcded6b4f4730c226821172046b48372d3cd963c159701ae1b7c3bcac541bb9060200160405180910390a15050565b7ff0c57e16840df040f15088dc2f81fe391c3923bec73e23a9662efc9c229c6a0054600160401b900460ff16610bf957604051631afcd79f60e31b815260040160405180910390fd5b612995612944565b61299d6129de565b6129a56129de565b610de8868686868686612abf565b6129bb612944565b6129c3612e4b565b6129cb612e5b565b6129d36129de565b612439838383612e6b565b610bf9612944565b6060826129fb576129f682612fc3565b610ad5565b8151158015612a1257506001600160a01b0384163b155b1561198c57604051639996b31560e01b81526001600160a01b0385166004820152602401610be8565b806001600160a01b03163b600003612a7157604051634c9c8ce360e01b81526001600160a01b0382166004820152602401610be8565b6000805160206140c983398151915280546001600160a01b0319166001600160a01b0392909216919091179055565b3415610bf95760405163b398979f60e01b815260040160405180910390fd5b612ac7612944565b6001600160a01b038616612b1d5760405162461bcd60e51b815260206004820152601c60248201527f474d3a676f7665726e616e63652063616e6e6f74206265207a65726f000000006044820152606401610be8565b6001600160a01b038516612b735760405162461bcd60e51b815260206004820152601860248201527f474d3a73656e6174652063616e6e6f74206265207a65726f00000000000000006044820152606401610be8565b428411612bb85760405162461bcd60e51b8152602060048201526013602482015272474d3a6c6f772073656e61746545787069727960681b6044820152606401610be8565b82600003612c085760405162461bcd60e51b815260206004820152601d60248201527f474d3a7061636b616765547970652063616e6e6f74206265207a65726f0000006044820152606401610be8565b6000819003612c645760405162461bcd60e51b815260206004820152602260248201527f474d3a696e697456657273696f6e4e616d652063616e6e6f7420626520656d70604482015261747960f01b6064820152608401610be8565b6000612c6e612154565b8054336001600160a01b031991821681178355600183018054909216179055600381018690556004810185905590506000805160206140a9833981519152600073__$dabd46e1bb7f0d62843614b2ceac53b60c$__6363feb9748484612cd26125ea565b8a8a8a620151806040518863ffffffff1660e01b8152600401612cfb9796959493929190613a2a565b602060405180830381865af4158015612d18573d6000803e3d6000fd5b505050506040513d601f19601f82011682018060405250810190612d3c9190613a72565b6040516336e094d760e11b815260048101859052602481018490526044810182905290915073__$dabd46e1bb7f0d62843614b2ceac53b60c$__90636dc129ae90606401600060405180830381865af4158015612d9d573d6000803e3d6000fd5b505050506040513d6000823e601f3d908101601f19168201604052612dc59190810190613e57565b505050612e13612e0e86868080601f0160208091040260200160405190810160405280939291908181526020018383808284376000920191909152505050506004860154612fef565b6128f9565b505080546001600160a01b039788166001600160a01b0319918216178255600190910180549690971695169490941790945550505050565b612e53612944565b610bf9613023565b612e63612944565b610bf9613051565b612e73612944565b6001600160a01b038316612ec95760405162461bcd60e51b815260206004820152601e60248201527f574d3a674554482063616e6e6f74206265207a65726f206164647265737300006044820152606401610be8565b6001600160a01b038216612f1f5760405162461bcd60e51b815260206004820181905260248201527f574d3a706f7274616c2063616e6e6f74206265207a65726f20616464726573736044820152606401610be8565b6000612f29612178565b80546001600160a01b03199081166001600160a01b038781169182178455600180850180549094169188169190911790925560028301859055640165a0bc006003840155604051630492f6e160e01b8152600481018690526024810192909252919250630492f6e190604401600060405180830381600087803b158015612faf57600080fd5b505af1158015610f81573d6000803e3d6000fd5b805115612fd35780518082602001fd5b604051630a12f52160e11b815260040160405180910390fd5b50565b60008282604051602001613004929190614086565b60408051601f1981840301815291905280516020909101209392505050565b61302b612944565b60017f9b779b17422d0df92223018b32b4d1fa46e071723d6817e2486d003becc55f0055565b613059612944565b6000805160206140e9833981519152805460ff19169055565b60006020828403121561308457600080fd5b81356001600160e01b031981168114610ad557600080fd5b600080604083850312156130af57600080fd5b50508035926020909101359150565b6001600160a01b0381168114612fec57600080fd5b60008083601f8401126130e557600080fd5b5081356001600160401b038111156130fc57600080fd5b60208301915083602082850101111561311457600080fd5b9250929050565b60008060008060006080868803121561313357600080fd5b853561313e816130be565b94506020860135935060408601356001600160401b0381111561316057600080fd5b61316c888289016130d3565b96999598509660600135949350505050565b60006020828403121561319057600080fd5b8135610ad5816130be565b6000602082840312156131ad57600080fd5b5035919050565b634e487b7160e01b600052604160045260246000fd5b604051601f8201601f191681016001600160401b03811182821017156131f2576131f26131b4565b604052919050565b60006001600160401b03821115613213576132136131b4565b50601f01601f191660200190565b600082601f83011261323257600080fd5b8135613245613240826131fa565b6131ca565b81815284602083860101111561325a57600080fd5b816020850160208301376000918101602001919091529392505050565b6000806040838503121561328a57600080fd5b8235613295816130be565b915060208301356001600160401b038111156132b057600080fd5b6132bc85828601613221565b9150509250929050565b60008083601f8401126132d857600080fd5b5081356001600160401b038111156132ef57600080fd5b6020830191508360208260051b850101111561311457600080fd5b60008060008060006060868803121561332257600080fd5b85356001600160401b038082111561333957600080fd5b61334589838a016132c6565b9097509550602088013591508082111561335e57600080fd5b5061336b888289016132c6565b909450925050604086013561337f816130be565b809150509295509295909350565b6020808252825182820181905260009190848201906040850190845b818110156133c5578351835292840192918401916001016133a9565b50909695505050505050565b6000806000606084860312156133e657600080fd5b505081359360208301359350604090920135919050565b60008060006040848603121561341257600080fd5b83356001600160401b0381111561342857600080fd5b613434868287016132c6565b9094509250506020840135613448816130be565b809150509250925092565b60008060006040848603121561346857600080fd5b83356001600160401b0381111561347e57600080fd5b61348a868287016130d3565b909790965060209590950135949350505050565b600080604083850312156134b157600080fd5b8235915060208301356134c3816130be565b809150509250929050565b60005b838110156134e95781810151838201526020016134d1565b50506000910152565b6000815180845261350a8160208601602086016134ce565b601f01601f19169290920160200192915050565b602081526000610ad560208301846134f2565b6000806020838503121561354457600080fd5b82356001600160401b0381111561355a57600080fd5b613566858286016130d3565b90969095509350505050565b600080600080600080600080600080600060c08c8e03121561359357600080fd5b6001600160401b03808d3511156135a957600080fd5b6135b68e8e358f016132c6565b909c509a5060208d01358110156135cc57600080fd5b6135dc8e60208f01358f016132c6565b909a50985060408d01358110156135f257600080fd5b6136028e60408f01358f016132c6565b909850965060608d013581101561361857600080fd5b6136288e60608f01358f016132c6565b909650945060808d0135935060a08d013581101561364557600080fd5b506136568d60a08e01358e016132c6565b81935080925050509295989b509295989b9093969950565b60018060a01b0384168152826020820152606060408201526000610ede60608301846134f2565b600080600080600080608087890312156136ae57600080fd5b8635955060208701356136c0816130be565b945060408701356001600160401b03808211156136dc57600080fd5b6136e88a838b016130d3565b9096509450606089013591508082111561370157600080fd5b5061370e89828a016130d3565b979a9699509497509295939492505050565b6000806000806060858703121561373657600080fd5b8435935060208501356001600160401b0381111561375357600080fd5b61375f878288016130d3565b9094509250506040850135613773816130be565b939692955090935050565b6000806020838503121561379157600080fd5b82356001600160401b038111156137a757600080fd5b613566858286016132c6565b6000602080830181845280855180835260408601915060408160051b870101925083870160005b8281101561380857603f198886030184526137f68583516134f2565b945092850192908501906001016137da565b5092979650505050505050565b60006001600160401b0382111561382e5761382e6131b4565b5060051b60200190565b600082601f83011261384957600080fd5b8135602061385961324083613815565b82815260059290921b8401810191818101908684111561387857600080fd5b8286015b84811015613893578035835291830191830161387c565b509695505050505050565b600080600080600060a086880312156138b657600080fd5b85356138c1816130be565b945060208601356138d1816130be565b935060408601356001600160401b03808211156138ed57600080fd5b6138f989838a01613838565b9450606088013591508082111561390f57600080fd5b61391b89838a01613838565b9350608088013591508082111561393157600080fd5b5061393e88828901613221565b9150509295509295909350565b6020815260018060a01b03825116602082015260208201516040820152600060408301516080606084015261398360a08401826134f2565b9050606084015160808401528091505092915050565b600080600080600060a086880312156139b157600080fd5b85356139bc816130be565b945060208601356139cc816130be565b9350604086013592506060860135915060808601356001600160401b038111156139f557600080fd5b61393e88828901613221565b81835281816020850137506000828201602090810191909152601f909101601f19169091010190565b87815286602082015260018060a01b038616604082015284606082015260c060808201526000613a5e60c083018587613a01565b90508260a083015298975050505050505050565b600060208284031215613a8457600080fd5b5051919050565b6020808252601390820152722ba81d39b2b73232b9103737ba1037bbb732b960691b604082015260600190565b600060208284031215613aca57600080fd5b8151610ad5816130be565b81835260006001600160fb1b03831115613aee57600080fd5b8260051b80836020870137939093016020019392505050565b81835260006020808501808196508560051b810191508460005b87811015613b8b5782840389528135601e19883603018112613b4257600080fd5b870185810190356001600160401b03811115613b5d57600080fd5b803603821315613b6c57600080fd5b613b77868284613a01565b9a87019a9550505090840190600101613b21565b5091979650505050505050565b868152608060208201526000613bb2608083018789613ad5565b8281036040840152613bc5818688613b07565b91505060018060a01b0383166060830152979650505050505050565b60006020808385031215613bf457600080fd5b82516001600160401b03811115613c0a57600080fd5b8301601f81018513613c1b57600080fd5b8051613c2961324082613815565b81815260059190911b82018301908381019087831115613c4857600080fd5b928401925b82841015610baa57835182529284019290840190613c4d565b848152606060208201526000613c80606083018587613ad5565b905060018060a01b038316604083015295945050505050565b604081526000613cad604083018587613a01565b9050826020830152949350505050565b8183823760009101908152919050565b838152604060208201526000610ede604083018486613a01565b600060208284031215613cf957600080fd5b81518015158114610ad557600080fd5b8481528360208201526060604082015260006118a0606083018486613ad5565b8981526000602060a081840152613d4460a084018b8d613b07565b8381036040850152613d57818a8c613ad5565b90508381036060850152613d6c81888a613ad5565b84810360808601528581529050818101600586811b830184018860005b89811015613dfa57858303601f190185528135368c9003601e19018112613daf57600080fd5b8b0187810190356001600160401b03811115613dca57600080fd5b80861b3603821315613ddb57600080fd5b613de6858284613ad5565b968901969450505090860190600101613d89565b505080955050505050509a9950505050505050505050565b600082601f830112613e2357600080fd5b8151613e31613240826131fa565b818152846020838601011115613e4657600080fd5b610f038260208301602087016134ce565b600080600060608486031215613e6c57600080fd5b8351613e77816130be565b6020850151604086015191945092506001600160401b03811115613e9a57600080fd5b613ea686828701613e12565b9150509250925092565b858152846020820152608060408201526000613ed0608083018587613a01565b905060018060a01b03831660608301529695505050505050565b634e487b7160e01b600052603260045260246000fd5b6000808335601e19843603018112613f1757600080fd5b8301803591506001600160401b03821115613f3157600080fd5b60200191503681900382131561311457600080fd5b600060208284031215613f5857600080fd5b81516001600160401b0380821115613f6f57600080fd5b9083019060808286031215613f8357600080fd5b604051608081018181108382111715613f9e57613f9e6131b4565b6040528251613fac816130be565b815260208381015190820152604083015182811115613fca57600080fd5b613fd687828601613e12565b6040830152506060830151606082015280935050505092915050565b838152604060208201526000610ede604083018486613ad5565b6000806040838503121561401f57600080fd5b505080516020909101519092909150565b600181811c9082168061404457607f821691505b60208210810361406457634e487b7160e01b600052602260045260246000fd5b50919050565b6000825161407c8184602087016134ce565b9190910192915050565b60408152600061409960408301856134f2565b9050826020830152939250505056fea3ee0f890fa2a50cc11476f86783721ec49c3aba88b83a957fe08235f6485c00360894a13ba1a3210667c828492db98dca3e2076cc3735a920a3ca505d382bbccd5ed15c6e187e77e9aee88184c21f4f2182ab5827cb3b7e07fbedcd63f03300a264697066735822122010f211f6cf7ffc7524dec2da4c36b578d0b849a4a992aa8087b8058940a38e7764736f6c63430008140033",
  "libraries": {
    "GeodeModuleLib": "0x87828ff83A8B257D544c06fe64B6838DD2Fb0ED1",
    "WithdrawalModuleLib": "0x7224F427fA92CE4FD8d0058C354634217438b34c"
  },
  "devdoc": {
    "errors": {
      "AddressEmptyCode(address)": [
        {
          "details": "There's no code at `target` (it is not a contract)."
        }
      ],
      "ERC1967InvalidImplementation(address)": [
        {
          "details": "The `implementation` of the proxy is invalid."
        }
      ],
      "ERC1967NonPayable()": [
        {
          "details": "An upgrade function sees `msg.value > 0` that may be lost."
        }
      ],
      "EnforcedPause()": [
        {
          "details": "The operation failed because the contract is paused."
        }
      ],
      "ExpectedPause()": [
        {
          "details": "The operation failed because the contract is not paused."
        }
      ],
      "FailedInnerCall()": [
        {
          "details": "A call to an address target failed. The target may have reverted."
        }
      ],
      "InvalidInitialization()": [
        {
          "details": "The contract is already initialized."
        }
      ],
      "NotInitializing()": [
        {
          "details": "The contract is not initializing."
        }
      ],
      "ReentrancyGuardReentrantCall()": [
        {
          "details": "Unauthorized reentrant call."
        }
      ],
      "UUPSUnauthorizedCallContext()": [
        {
          "details": "The call is from an unauthorized context."
        }
      ],
      "UUPSUnsupportedProxiableUUID(bytes32)": [
        {
          "details": "The storage `slot` is unsupported as a UUID."
        }
      ]
    },
    "events": {
      "ContractVersionSet(uint256)": {
        "custom:section": "** EVENTS **"
      },
      "Initialized(uint64)": {
        "details": "Triggered when the contract has been initialized or reinitialized."
      },
      "NewExitThreshold(uint256)": {
        "custom:section": "** EVENTS **"
      },
      "Paused(address)": {
        "details": "Emitted when the pause is triggered by `account`."
      },
      "Unpaused(address)": {
        "details": "Emitted when the pause is lifted by `account`."
      },
      "Upgraded(address)": {
        "details": "Emitted when the implementation is upgraded."
      }
    },
    "kind": "dev",
    "methods": {
      "GeodeParams()": {
        "custom:section": "** GETTER FUNCTIONS **",
        "custom:visibility": "-> view-external"
      },
      "WithdrawalParams()": {
        "custom:section": "** GETTER FUNCTIONS **",
        "custom:visibility": "-> view-external"
      },
      "allIdsByType(uint256,uint256)": {
        "details": "useful for outside reach, shouldn't be used within contracts as a referance",
        "returns": {
          "_0": "allIdsByType is an array of IDs of the given TYPE from Datastore, returns a specific index"
        }
      },
      "approveProposal(uint256)": {
        "details": "handles PACKAGE_TYPE proposals by upgrading the contract immediately.onlySenate is checked inside GML.approveProposal"
      },
      "canFinalizeExit(bytes)": {
        "custom:visibility": "-> view"
      },
      "changeIdCONTROLLER(uint256,address)": {
        "custom:subsection": "** ONLY CONTROLLER **"
      },
      "claimInfrastructureFees(address)": {
        "custom:subsection": "** INFRASTRUCTURE FEE **",
        "details": "WM override"
      },
      "constructor": {
        "custom:oz-upgrades-unsafe-allow": "constructor",
        "details": "we don't want to provide these package-specific not-changing parameters accross all instances of the packages. So we will store them in the ref implementation contract of the package, and fetch when needed on initialization."
      },
      "dequeue(uint256,address)": {
        "custom:visibility": "-> external"
      },
      "enqueue(uint256,bytes,address)": {
        "custom:subsection": "** ENQUEUE **",
        "custom:visibility": "-> external"
      },
      "fulfill(uint256)": {
        "custom:visibility": "-> external"
      },
      "fulfillable(uint256)": {
        "custom:visibility": "-> view"
      },
      "generateId(string,uint256)": {
        "details": "id is generated by keccak(name, type)"
      },
      "getProposedVersion()": {
        "details": "GeodeModule override"
      },
      "initialize(uint256,address,bytes,bytes)": {
        "details": "While 'data' parameter is not currently used it is a standarized approach on all * GeodePackages have the same function signature on 'initialize'."
      },
      "isolationMode()": {
        "details": "GeodeModule override"
      },
      "multicall(bytes[])": {
        "custom:oz-upgrades-unsafe-allow-reachable": "delegatecall",
        "details": "Receives and executes a batch of function calls on this contract.This is necessary for the multistep operations done in this contract: * Enqueue, Process, Fulfill, Dequeue.Using 'functionDelegateCall' so it does not cause any issues when using msg.sender etc."
      },
      "paused()": {
        "details": "Returns true if the contract is paused, and false otherwise."
      },
      "processValidators(bytes[],uint256[],uint256[],bytes32[][],uint256,bytes32[])": {
        "custom:section": "** PROCESS BALANCES MERKLE UPDATE **"
      },
      "propose(address,uint256,bytes,uint256)": {
        "custom:subsection": "** ONLY GOVERNANCE **"
      },
      "proxiableUUID()": {
        "details": "Implementation of the ERC1822 {proxiableUUID} function. This returns the storage slot used by the implementation. It is used to validate the implementation's compatibility when performing an upgrade. IMPORTANT: A proxy pointing at a proxiable contract should not be considered proxiable itself, because this risks bricking a proxy that upgrades to it, by delegating to itself until out of gas. Thus it is critical that this function revert if invoked through a proxy. This is guaranteed by the `notDelegated` modifier."
      },
      "pullUpgrade()": {
        "details": "IGeodePackage override"
      },
      "readUintArray(uint256,bytes32,uint256)": {
        "custom:section": "** ARRAY GETTER FUNCTIONS **",
        "custom:visibility": "-> view-external"
      },
      "setExitThreshold(uint256)": {
        "custom:subsection": "** WITHDRAWAL QUEUE **",
        "details": "WM override"
      },
      "supportsInterface(bytes4)": {
        "details": "See {IERC165-supportsInterface}."
      },
      "upgradeToAndCall(address,bytes)": {
        "custom:oz-upgrades-unsafe-allow-reachable": "delegatecall",
        "details": "Upgrade the implementation of the proxy to `newImplementation`, and subsequently execute the function call encoded in `data`. Calls {_authorizeUpgrade}. Emits an {Upgraded} event."
      }
    },
    "version": 1
  },
  "userdoc": {
    "kind": "user",
    "methods": {
      "generateId(string,uint256)": {
        "notice": "useful function for string inputs - returns same with the DSML.generateId"
      },
      "getKey(uint256,bytes32)": {
        "notice": "useful view function for string inputs - returns same with the DSML.generateId"
      },
      "pause()": {
        "notice": "pausing the contract activates the isolationMode"
      },
      "unpause()": {
        "notice": "unpausing the contract deactivates the isolationMode"
      }
    },
    "version": 1
  },
  "storageLayout": {
    "storage": [],
    "types": null
  }
}