{
  "address": "0xD3cc68086fA2Cf2f10c5a53e16a86C869d1AFAfA",
  "abi": [
    {
      "anonymous": false,
      "inputs": [
        {
          "indexed": true,
          "internalType": "address",
          "name": "owner",
          "type": "address"
        },
        {
          "indexed": true,
          "internalType": "address",
          "name": "spender",
          "type": "address"
        },
        {
          "indexed": false,
          "internalType": "uint256",
          "name": "value",
          "type": "uint256"
        }
      ],
      "name": "Approval",
      "type": "event"
    },
    {
      "anonymous": false,
      "inputs": [
        {
          "indexed": true,
          "internalType": "address",
          "name": "from",
          "type": "address"
        },
        {
          "indexed": true,
          "internalType": "address",
          "name": "to",
          "type": "address"
        },
        {
          "indexed": false,
          "internalType": "uint256",
          "name": "value",
          "type": "uint256"
        }
      ],
      "name": "Transfer",
      "type": "event"
    },
    {
      "inputs": [],
      "name": "DOMAIN_SEPARATOR",
      "outputs": [
        {
          "internalType": "bytes32",
          "name": "",
          "type": "bytes32"
        }
      ],
      "stateMutability": "view",
      "type": "function"
    },
    {
      "inputs": [
        {
          "internalType": "address",
          "name": "owner",
          "type": "address"
        },
        {
          "internalType": "address",
          "name": "spender",
          "type": "address"
        }
      ],
      "name": "allowance",
      "outputs": [
        {
          "internalType": "uint256",
          "name": "",
          "type": "uint256"
        }
      ],
      "stateMutability": "view",
      "type": "function"
    },
    {
      "inputs": [
        {
          "internalType": "address",
          "name": "spender",
          "type": "address"
        },
        {
          "internalType": "uint256",
          "name": "amount",
          "type": "uint256"
        }
      ],
      "name": "approve",
      "outputs": [
        {
          "internalType": "bool",
          "name": "",
          "type": "bool"
        }
      ],
      "stateMutability": "nonpayable",
      "type": "function"
    },
    {
      "inputs": [
        {
          "internalType": "address",
          "name": "account",
          "type": "address"
        }
      ],
      "name": "balanceOf",
      "outputs": [
        {
          "internalType": "uint256",
          "name": "",
          "type": "uint256"
        }
      ],
      "stateMutability": "view",
      "type": "function"
    },
    {
      "inputs": [],
      "name": "decimals",
      "outputs": [
        {
          "internalType": "uint8",
          "name": "",
          "type": "uint8"
        }
      ],
      "stateMutability": "view",
      "type": "function"
    },
    {
      "inputs": [
        {
          "internalType": "address",
          "name": "spender",
          "type": "address"
        },
        {
          "internalType": "uint256",
          "name": "subtractedValue",
          "type": "uint256"
        }
      ],
      "name": "decreaseAllowance",
      "outputs": [
        {
          "internalType": "bool",
          "name": "",
          "type": "bool"
        }
      ],
      "stateMutability": "nonpayable",
      "type": "function"
    },
    {
      "inputs": [
        {
          "internalType": "address",
          "name": "spender",
          "type": "address"
        },
        {
          "internalType": "uint256",
          "name": "addedValue",
          "type": "uint256"
        }
      ],
      "name": "increaseAllowance",
      "outputs": [
        {
          "internalType": "bool",
          "name": "",
          "type": "bool"
        }
      ],
      "stateMutability": "nonpayable",
      "type": "function"
    },
    {
      "inputs": [
        {
          "internalType": "uint256",
          "name": "id_",
          "type": "uint256"
        },
        {
          "internalType": "string",
          "name": "name_",
          "type": "string"
        },
        {
          "internalType": "string",
          "name": "symbol_",
          "type": "string"
        },
        {
          "internalType": "address",
          "name": "gETH_1155",
          "type": "address"
        }
      ],
      "name": "initialize",
      "outputs": [],
      "stateMutability": "nonpayable",
      "type": "function"
    },
    {
      "inputs": [],
      "name": "name",
      "outputs": [
        {
          "internalType": "string",
          "name": "",
          "type": "string"
        }
      ],
      "stateMutability": "view",
      "type": "function"
    },
    {
      "inputs": [
        {
          "internalType": "address",
          "name": "owner",
          "type": "address"
        }
      ],
      "name": "nonces",
      "outputs": [
        {
          "internalType": "uint256",
          "name": "",
          "type": "uint256"
        }
      ],
      "stateMutability": "view",
      "type": "function"
    },
    {
      "inputs": [
        {
          "internalType": "address",
          "name": "owner",
          "type": "address"
        },
        {
          "internalType": "address",
          "name": "spender",
          "type": "address"
        },
        {
          "internalType": "uint256",
          "name": "value",
          "type": "uint256"
        },
        {
          "internalType": "uint256",
          "name": "deadline",
          "type": "uint256"
        },
        {
          "internalType": "uint8",
          "name": "v",
          "type": "uint8"
        },
        {
          "internalType": "bytes32",
          "name": "r",
          "type": "bytes32"
        },
        {
          "internalType": "bytes32",
          "name": "s",
          "type": "bytes32"
        }
      ],
      "name": "permit",
      "outputs": [],
      "stateMutability": "nonpayable",
      "type": "function"
    },
    {
      "inputs": [],
      "name": "pricePerShare",
      "outputs": [
        {
          "internalType": "uint256",
          "name": "",
          "type": "uint256"
        }
      ],
      "stateMutability": "view",
      "type": "function"
    },
    {
      "inputs": [],
      "name": "symbol",
      "outputs": [
        {
          "internalType": "string",
          "name": "",
          "type": "string"
        }
      ],
      "stateMutability": "view",
      "type": "function"
    },
    {
      "inputs": [],
      "name": "totalSupply",
      "outputs": [
        {
          "internalType": "uint256",
          "name": "",
          "type": "uint256"
        }
      ],
      "stateMutability": "view",
      "type": "function"
    },
    {
      "inputs": [
        {
          "internalType": "address",
          "name": "to",
          "type": "address"
        },
        {
          "internalType": "uint256",
          "name": "amount",
          "type": "uint256"
        }
      ],
      "name": "transfer",
      "outputs": [
        {
          "internalType": "bool",
          "name": "",
          "type": "bool"
        }
      ],
      "stateMutability": "nonpayable",
      "type": "function"
    },
    {
      "inputs": [
        {
          "internalType": "address",
          "name": "from",
          "type": "address"
        },
        {
          "internalType": "address",
          "name": "to",
          "type": "address"
        },
        {
          "internalType": "uint256",
          "name": "amount",
          "type": "uint256"
        }
      ],
      "name": "transferFrom",
      "outputs": [
        {
          "internalType": "bool",
          "name": "",
          "type": "bool"
        }
      ],
      "stateMutability": "nonpayable",
      "type": "function"
    }
  ],
  "transactionHash": "0xb4aaa3b98674f4a4baeb860abb2185844fc3857d1520c89c6029dbc47b4775c1",
  "args": [],
  "numDeployments": 1,
  "solcInputHash": "272bf9207e57ad6a3c857a71f42aa98e",
  "bytecode": "0x608060405234801561001057600080fd5b5061145e806100206000396000f3fe608060405234801561001057600080fd5b50600436106101005760003560e01c806370a0823111610097578063a457c2d711610066578063a457c2d7146101e4578063a9059cbb146101f7578063d505accf1461020a578063dd62ed3e1461021d57600080fd5b806370a08231146101ae5780637ecebe00146101c157806395d89b41146101d457806399530b06146101dc57600080fd5b8063313ce567116100d3578063313ce5671461016f5780633644e5151461017e57806339509351146101865780636ebd362c1461019957600080fd5b806306fdde0314610105578063095ea7b31461012357806318160ddd1461014657806323b872dd1461015c575b600080fd5b61010d610230565b60405161011a9190611317565b60405180910390f35b61013661013136600461124b565b6102c2565b604051901515815260200161011a565b61014e6102da565b60405190815260200161011a565b61013661016a36600461119c565b610361565b6040516012815260200161011a565b61014e610385565b61013661019436600461124b565b61038f565b6101ac6101a736600461128e565b6103b1565b005b61014e6101bc366004611147565b610483565b61014e6101cf366004611147565b61051f565b61010d61053d565b61014e61054c565b6101366101f236600461124b565b610582565b61013661020536600461124b565b6105fd565b6101ac6102183660046111d8565b61060b565b61014e61022b366004611169565b61076f565b60606034805461023f906113dd565b80601f016020809104026020016040519081016040528092919081815260200182805461026b906113dd565b80156102b85780601f1061028d576101008083540402835291602001916102b8565b820191906000526020600020905b81548152906001019060200180831161029b57829003601f168201915b5050505050905090565b6000336102d081858561079a565b5060019392505050565b60375460365460405163bd85b03960e01b815260048101919091526000916001600160a01b03169063bd85b039906024015b60206040518083038186803b15801561032457600080fd5b505afa158015610338573d6000803e3d6000fd5b505050506040513d601f19601f8201168201806040525081019061035c9190611275565b905090565b60003361036f8582856108be565b61037a858585610938565b506001949350505050565b600061035c610b42565b6000336102d08185856103a2838361076f565b6103ac91906113b7565b61079a565b600054610100900460ff166103cc5760005460ff16156103d0565b303b155b6104385760405162461bcd60e51b815260206004820152602e60248201527f496e697469616c697a61626c653a20636f6e747261637420697320616c72656160448201526d191e481a5b9a5d1a585b1a5e995960921b60648201526084015b60405180910390fd5b600054610100900460ff1615801561045a576000805461ffff19166101011790555b610468878787878787610bbd565b801561047a576000805461ff00191690555b50505050505050565b603754603654604051627eeac760e11b81526000926001600160a01b03169162fdd58e916104c99186916004016001600160a01b03929092168252602082015260400190565b60206040518083038186803b1580156104e157600080fd5b505afa1580156104f5573d6000803e3d6000fd5b505050506040513d601f19601f820116820180604052508101906105199190611275565b92915050565b6001600160a01b038116600090815260996020526040812054610519565b60606035805461023f906113dd565b60375460365460405163f759cc3b60e01b815260048101919091526000916001600160a01b03169063f759cc3b9060240161030c565b60003381610590828661076f565b9050838110156105f05760405162461bcd60e51b815260206004820152602560248201527f45524332303a2064656372656173656420616c6c6f77616e63652062656c6f77604482015264207a65726f60d81b606482015260840161042f565b61037a828686840361079a565b6000336102d0818585610938565b8342111561065b5760405162461bcd60e51b815260206004820152601d60248201527f45524332305065726d69743a206578706972656420646561646c696e65000000604482015260640161042f565b60007f6e71edae12b1b97f4d1f60370fef10105fa2faae0126114a169c64845d6126c988888861068a8c610c52565b6040805160208101969096526001600160a01b0394851690860152929091166060840152608083015260a082015260c0810186905260e00160405160208183030381529060405280519060200120905060006106e582610c7a565b905060006106f582878787610cc8565b9050896001600160a01b0316816001600160a01b0316146107585760405162461bcd60e51b815260206004820152601e60248201527f45524332305065726d69743a20696e76616c6964207369676e61747572650000604482015260640161042f565b6107638a8a8a61079a565b50505050505050505050565b6001600160a01b03918216600090815260336020908152604080832093909416825291909152205490565b6001600160a01b0383166107fc5760405162461bcd60e51b8152602060048201526024808201527f45524332303a20617070726f76652066726f6d20746865207a65726f206164646044820152637265737360e01b606482015260840161042f565b6001600160a01b03821661085d5760405162461bcd60e51b815260206004820152602260248201527f45524332303a20617070726f766520746f20746865207a65726f206164647265604482015261737360f01b606482015260840161042f565b6001600160a01b0383811660008181526033602090815260408083209487168084529482529182902085905590518481527f8c5be1e5ebec7d5bd14f71427d1e84f3dd0314c0f7b2291e5b200ac8c7c3b925910160405180910390a3505050565b60006108ca848461076f565b9050600019811461093257818110156109255760405162461bcd60e51b815260206004820152601d60248201527f45524332303a20696e73756666696369656e7420616c6c6f77616e6365000000604482015260640161042f565b610932848484840361079a565b50505050565b6001600160a01b03831661099c5760405162461bcd60e51b815260206004820152602560248201527f45524332303a207472616e736665722066726f6d20746865207a65726f206164604482015264647265737360d81b606482015260840161042f565b6001600160a01b0382166109fe5760405162461bcd60e51b815260206004820152602360248201527f45524332303a207472616e7366657220746f20746865207a65726f206164647260448201526265737360e81b606482015260840161042f565b6000610a0984610483565b905081811015610a6a5760405162461bcd60e51b815260206004820152602660248201527f45524332303a207472616e7366657220616d6f756e7420657863656564732062604482015265616c616e636560d01b606482015260840161042f565b603754603654604051637921219560e11b81526001600160a01b038781166004830152868116602483015260448201929092526064810185905260a06084820152600060a482015291169063f242432a9060c401600060405180830381600087803b158015610ad857600080fd5b505af1158015610aec573d6000803e3d6000fd5b50505050826001600160a01b0316846001600160a01b03167fddf252ad1be2c89b69c2b068fc378daa952ba7f163c4a11628f55a4df523b3ef84604051610b3591815260200190565b60405180910390a3610932565b600061035c7f8b73c3c69bb8fe3d512ecc4cf759cc79239f7b179b0ffacaa9a75d522b39400f610b7160655490565b6066546040805160208101859052908101839052606081018290524660808201523060a082015260009060c0016040516020818303038152906040528051906020012090509392505050565b600054610100900460ff16610be45760405162461bcd60e51b815260040161042f9061136c565b610bf2868686868686610cf0565b610c4a85858080601f016020809104026020016040519081016040528093929190818152602001838380828437600092019190915250506040805180820190915260018152603160f81b60208201529150610d5d9050565b505050505050565b6001600160a01b03811660009081526099602052604090208054600181018255905b50919050565b6000610519610c87610b42565b8360405161190160f01b6020820152602281018390526042810182905260009060620160405160208183030381529060405280519060200120905092915050565b6000806000610cd987878787610d9e565b91509150610ce681610e8b565b5095945050505050565b600054610100900460ff16610d175760405162461bcd60e51b815260040161042f9061136c565b6036869055610d2860348686611049565b50610d3560358484611049565b50603780546001600160a01b0319166001600160a01b03929092169190911790555050505050565b600054610100900460ff16610d845760405162461bcd60e51b815260040161042f9061136c565b815160209283012081519190920120606591909155606655565b6000807f7fffffffffffffffffffffffffffffff5d576e7357a4501ddfe92f46681b20a0831115610dd55750600090506003610e82565b8460ff16601b14158015610ded57508460ff16601c14155b15610dfe5750600090506004610e82565b6040805160008082526020820180845289905260ff881692820192909252606081018690526080810185905260019060a0016020604051602081039080840390855afa158015610e52573d6000803e3d6000fd5b5050604051601f1901519150506001600160a01b038116610e7b57600060019250925050610e82565b9150600090505b94509492505050565b6000816004811115610e9f57610e9f611412565b1415610ea85750565b6001816004811115610ebc57610ebc611412565b1415610f0a5760405162461bcd60e51b815260206004820152601860248201527f45434453413a20696e76616c6964207369676e61747572650000000000000000604482015260640161042f565b6002816004811115610f1e57610f1e611412565b1415610f6c5760405162461bcd60e51b815260206004820152601f60248201527f45434453413a20696e76616c6964207369676e6174757265206c656e67746800604482015260640161042f565b6003816004811115610f8057610f80611412565b1415610fd95760405162461bcd60e51b815260206004820152602260248201527f45434453413a20696e76616c6964207369676e6174757265202773272076616c604482015261756560f01b606482015260840161042f565b6004816004811115610fed57610fed611412565b14156110465760405162461bcd60e51b815260206004820152602260248201527f45434453413a20696e76616c6964207369676e6174757265202776272076616c604482015261756560f01b606482015260840161042f565b50565b828054611055906113dd565b90600052602060002090601f01602090048101928261107757600085556110bd565b82601f106110905782800160ff198235161785556110bd565b828001600101855582156110bd579182015b828111156110bd5782358255916020019190600101906110a2565b506110c99291506110cd565b5090565b5b808211156110c957600081556001016110ce565b80356001600160a01b03811681146110f957600080fd5b919050565b60008083601f84011261111057600080fd5b50813567ffffffffffffffff81111561112857600080fd5b60208301915083602082850101111561114057600080fd5b9250929050565b60006020828403121561115957600080fd5b611162826110e2565b9392505050565b6000806040838503121561117c57600080fd5b611185836110e2565b9150611193602084016110e2565b90509250929050565b6000806000606084860312156111b157600080fd5b6111ba846110e2565b92506111c8602085016110e2565b9150604084013590509250925092565b600080600080600080600060e0888a0312156111f357600080fd5b6111fc886110e2565b965061120a602089016110e2565b95506040880135945060608801359350608088013560ff8116811461122e57600080fd5b9699959850939692959460a0840135945060c09093013592915050565b6000806040838503121561125e57600080fd5b611267836110e2565b946020939093013593505050565b60006020828403121561128757600080fd5b5051919050565b600080600080600080608087890312156112a757600080fd5b86359550602087013567ffffffffffffffff808211156112c657600080fd5b6112d28a838b016110fe565b909750955060408901359150808211156112eb57600080fd5b506112f889828a016110fe565b909450925061130b9050606088016110e2565b90509295509295509295565b600060208083528351808285015260005b8181101561134457858101830151858201604001528201611328565b81811115611356576000604083870101525b50601f01601f1916929092016040019392505050565b6020808252602b908201527f496e697469616c697a61626c653a20636f6e7472616374206973206e6f74206960408201526a6e697469616c697a696e6760a81b606082015260800190565b600082198211156113d857634e487b7160e01b600052601160045260246000fd5b500190565b600181811c908216806113f157607f821691505b60208210811415610c7457634e487b7160e01b600052602260045260246000fd5b634e487b7160e01b600052602160045260246000fdfea264697066735822122056e66223dfcb469ff491801f57215e218f35a3b8ca298d7eaff16ebf4ad7180f64736f6c63430008070033",
  "devdoc": {
    "custom:storage-size": "51",
    "details": "Implementation of the ERC20 Permit extension allowing approvals to be made via signatures, as defined in https://eips.ethereum.org/EIPS/eip-2612[EIP-2612]. Adds the {permit} method, which can be used to change an account's ERC20 allowance (see {IERC20-allowance}) by presenting a message signed by the account. By not relying on `{IERC20-approve}`, the token holder account doesn't need to send a transaction, and thus is not required to hold Ether at all. _Available since v3.4._",
    "kind": "dev",
    "methods": {
      "DOMAIN_SEPARATOR()": {
        "details": "See {IERC20Permit-DOMAIN_SEPARATOR}."
      },
      "allowance(address,address)": {
        "details": "See {IERC20-allowance}."
      },
      "approve(address,uint256)": {
        "details": "See {IERC20-approve}. NOTE: If `amount` is the maximum `uint256`, the allowance is not updated on `transferFrom`. This is semantically equivalent to an infinite approval. Requirements: - `spender` cannot be the zero address."
      },
      "balanceOf(address)": {
        "details": "See {IERC20-balanceOf}.CHANGED for gETH.See {gETH-balanceOf}."
      },
      "decimals()": {
        "details": "Returns the number of decimals used to get its user representation. For example, if `decimals` equals `2`, a balance of `505` tokens should be displayed to a user as `5.05` (`505 / 10 ** 2`). Tokens usually opt for a value of 18, imitating the relationship between Ether and Wei. This is the value {ERC20} uses, unless this function is overridden; NOTE: This information is only used for _display_ purposes: it in no way affects any of the arithmetic of the contract, including {IERC20-balanceOf} and {IERC20-transfer}."
      },
      "decreaseAllowance(address,uint256)": {
        "details": "Atomically decreases the allowance granted to `spender` by the caller. This is an alternative to {approve} that can be used as a mitigation for problems described in {IERC20-approve}. Emits an {Approval} event indicating the updated allowance. Requirements: - `spender` cannot be the zero address. - `spender` must have allowance for the caller of at least `subtractedValue`."
      },
      "increaseAllowance(address,uint256)": {
        "details": "Atomically increases the allowance granted to `spender` by the caller. This is an alternative to {approve} that can be used as a mitigation for problems described in {IERC20-approve}. Emits an {Approval} event indicating the updated allowance. Requirements: - `spender` cannot be the zero address."
      },
      "initialize(uint256,string,string,address)": {
        "details": "Sets the values for {name} and {symbol}. The default value of {decimals} is 18. To select a different value for {decimals} you should overload it."
      },
      "name()": {
        "details": "Returns the name of the token."
      },
      "nonces(address)": {
        "details": "See {IERC20Permit-nonces}."
      },
      "permit(address,address,uint256,uint256,uint8,bytes32,bytes32)": {
        "details": "See {IERC20Permit-permit}."
      },
      "pricePerShare()": {
        "details": "shows the underlying ETH for 1 staked ether for a given idCHANGED for gETH.See {gETH-pricePerShare}."
      },
      "symbol()": {
        "details": "Returns the symbol of the token, usually a shorter version of the name."
      },
      "totalSupply()": {
        "details": "See {IERC20-totalSupply}.CHANGED for gETH.See {gETH-totalSupply}."
      },
      "transfer(address,uint256)": {
        "details": "See {IERC20-transfer}. Requirements: - `to` cannot be the zero address. - the caller must have a balance of at least `amount`."
      },
      "transferFrom(address,address,uint256)": {
        "details": "See {IERC20-transferFrom}. Emits an {Approval} event indicating the updated allowance. This is not required by the EIP. See the note at the beginning of {ERC20}. NOTE: Does not update the allowance if the current allowance is the maximum `uint256`. Requirements: - `from` and `to` cannot be the zero address. - `from` must have a balance of at least `amount`. - the caller must have allowance for ``from``'s tokens of at least `amount`."
      }
    },
    "stateVariables": {
      "_PERMIT_TYPEHASH_DEPRECATED_SLOT": {
        "custom:oz-renamed-from": "_PERMIT_TYPEHASH",
        "details": "In previous versions `_PERMIT_TYPEHASH` was declared as `immutable`. However, to ensure consistency with the upgradeable transpiler, we will continue to reserve a slot."
      },
      "__gap": {
        "details": "This empty reserved space is put in place to allow future versions to add new variables without shifting down storage in the inheritance chain. See https://docs.openzeppelin.com/contracts/4.x/upgradeable#storage_gaps"
      }
    },
    "version": 1
  },
  "userdoc": {
    "kind": "user",
    "methods": {},
    "version": 1
  },
  "storageLayout": {
    "storage": [
      {
        "astId": 519,
        "contract": "contracts/Portal/gETHInterfaces/ERC20InterfacePermitUpgradable.sol:ERC20InterfacePermitUpgradable",
        "label": "_initialized",
        "offset": 0,
        "slot": "0",
        "type": "t_bool"
      },
      {
        "astId": 522,
        "contract": "contracts/Portal/gETHInterfaces/ERC20InterfacePermitUpgradable.sol:ERC20InterfacePermitUpgradable",
        "label": "_initializing",
        "offset": 1,
        "slot": "0",
        "type": "t_bool"
      },
      {
        "astId": 2158,
        "contract": "contracts/Portal/gETHInterfaces/ERC20InterfacePermitUpgradable.sol:ERC20InterfacePermitUpgradable",
        "label": "__gap",
        "offset": 0,
        "slot": "1",
        "type": "t_array(t_uint256)50_storage"
      },
      {
        "astId": 11607,
        "contract": "contracts/Portal/gETHInterfaces/ERC20InterfacePermitUpgradable.sol:ERC20InterfacePermitUpgradable",
        "label": "_allowances",
        "offset": 0,
        "slot": "51",
        "type": "t_mapping(t_address,t_mapping(t_address,t_uint256))"
      },
      {
        "astId": 11610,
        "contract": "contracts/Portal/gETHInterfaces/ERC20InterfacePermitUpgradable.sol:ERC20InterfacePermitUpgradable",
        "label": "_name",
        "offset": 0,
        "slot": "52",
        "type": "t_string_storage"
      },
      {
        "astId": 11612,
        "contract": "contracts/Portal/gETHInterfaces/ERC20InterfacePermitUpgradable.sol:ERC20InterfacePermitUpgradable",
        "label": "_symbol",
        "offset": 0,
        "slot": "53",
        "type": "t_string_storage"
      },
      {
        "astId": 11614,
        "contract": "contracts/Portal/gETHInterfaces/ERC20InterfacePermitUpgradable.sol:ERC20InterfacePermitUpgradable",
        "label": "_id",
        "offset": 0,
        "slot": "54",
        "type": "t_uint256"
      },
      {
        "astId": 11617,
        "contract": "contracts/Portal/gETHInterfaces/ERC20InterfacePermitUpgradable.sol:ERC20InterfacePermitUpgradable",
        "label": "_ERC1155",
        "offset": 0,
        "slot": "55",
        "type": "t_contract(IgETH)26145"
      },
      {
        "astId": 12100,
        "contract": "contracts/Portal/gETHInterfaces/ERC20InterfacePermitUpgradable.sol:ERC20InterfacePermitUpgradable",
        "label": "__gap",
        "offset": 0,
        "slot": "56",
        "type": "t_array(t_uint256)45_storage"
      },
      {
        "astId": 2912,
        "contract": "contracts/Portal/gETHInterfaces/ERC20InterfacePermitUpgradable.sol:ERC20InterfacePermitUpgradable",
        "label": "_HASHED_NAME",
        "offset": 0,
        "slot": "101",
        "type": "t_bytes32"
      },
      {
        "astId": 2914,
        "contract": "contracts/Portal/gETHInterfaces/ERC20InterfacePermitUpgradable.sol:ERC20InterfacePermitUpgradable",
        "label": "_HASHED_VERSION",
        "offset": 0,
        "slot": "102",
        "type": "t_bytes32"
      },
      {
        "astId": 3052,
        "contract": "contracts/Portal/gETHInterfaces/ERC20InterfacePermitUpgradable.sol:ERC20InterfacePermitUpgradable",
        "label": "__gap",
        "offset": 0,
        "slot": "103",
        "type": "t_array(t_uint256)50_storage"
      },
      {
        "astId": 9380,
        "contract": "contracts/Portal/gETHInterfaces/ERC20InterfacePermitUpgradable.sol:ERC20InterfacePermitUpgradable",
        "label": "_nonces",
        "offset": 0,
        "slot": "153",
        "type": "t_mapping(t_address,t_struct(Counter)2165_storage)"
      },
      {
        "astId": 9388,
        "contract": "contracts/Portal/gETHInterfaces/ERC20InterfacePermitUpgradable.sol:ERC20InterfacePermitUpgradable",
        "label": "_PERMIT_TYPEHASH_DEPRECATED_SLOT",
        "offset": 0,
        "slot": "154",
        "type": "t_bytes32"
      },
      {
        "astId": 9571,
        "contract": "contracts/Portal/gETHInterfaces/ERC20InterfacePermitUpgradable.sol:ERC20InterfacePermitUpgradable",
        "label": "__gap",
        "offset": 0,
        "slot": "155",
        "type": "t_array(t_uint256)49_storage"
      }
    ],
    "types": {
      "t_address": {
        "encoding": "inplace",
        "label": "address",
        "numberOfBytes": "20"
      },
      "t_array(t_uint256)45_storage": {
        "base": "t_uint256",
        "encoding": "inplace",
        "label": "uint256[45]",
        "numberOfBytes": "1440"
      },
      "t_array(t_uint256)49_storage": {
        "base": "t_uint256",
        "encoding": "inplace",
        "label": "uint256[49]",
        "numberOfBytes": "1568"
      },
      "t_array(t_uint256)50_storage": {
        "base": "t_uint256",
        "encoding": "inplace",
        "label": "uint256[50]",
        "numberOfBytes": "1600"
      },
      "t_bool": {
        "encoding": "inplace",
        "label": "bool",
        "numberOfBytes": "1"
      },
      "t_bytes32": {
        "encoding": "inplace",
        "label": "bytes32",
        "numberOfBytes": "32"
      },
      "t_contract(IgETH)26145": {
        "encoding": "inplace",
        "label": "contract IgETH",
        "numberOfBytes": "20"
      },
      "t_mapping(t_address,t_mapping(t_address,t_uint256))": {
        "encoding": "mapping",
        "key": "t_address",
        "label": "mapping(address => mapping(address => uint256))",
        "numberOfBytes": "32",
        "value": "t_mapping(t_address,t_uint256)"
      },
      "t_mapping(t_address,t_struct(Counter)2165_storage)": {
        "encoding": "mapping",
        "key": "t_address",
        "label": "mapping(address => struct CountersUpgradeable.Counter)",
        "numberOfBytes": "32",
        "value": "t_struct(Counter)2165_storage"
      },
      "t_mapping(t_address,t_uint256)": {
        "encoding": "mapping",
        "key": "t_address",
        "label": "mapping(address => uint256)",
        "numberOfBytes": "32",
        "value": "t_uint256"
      },
      "t_string_storage": {
        "encoding": "bytes",
        "label": "string",
        "numberOfBytes": "32"
      },
      "t_struct(Counter)2165_storage": {
        "encoding": "inplace",
        "label": "struct CountersUpgradeable.Counter",
        "members": [
          {
            "astId": 2164,
            "contract": "contracts/Portal/gETHInterfaces/ERC20InterfacePermitUpgradable.sol:ERC20InterfacePermitUpgradable",
            "label": "_value",
            "offset": 0,
            "slot": "0",
            "type": "t_uint256"
          }
        ],
        "numberOfBytes": "32"
      },
      "t_uint256": {
        "encoding": "inplace",
        "label": "uint256",
        "numberOfBytes": "32"
      }
    }
  }
}