{
  "address": "0x185F9E927c0fd14432DD98b5536a3Fa0b93306F0",
  "abi": [
    {
      "inputs": [
        {
          "internalType": "string",
          "name": "uri",
          "type": "string"
        }
      ],
      "stateMutability": "nonpayable",
      "type": "constructor"
    },
    {
      "anonymous": false,
      "inputs": [
        {
          "indexed": true,
          "internalType": "address",
          "name": "account",
          "type": "address"
        },
        {
          "indexed": true,
          "internalType": "address",
          "name": "operator",
          "type": "address"
        },
        {
          "indexed": false,
          "internalType": "bool",
          "name": "approved",
          "type": "bool"
        }
      ],
      "name": "ApprovalForAll",
      "type": "event"
    },
    {
      "anonymous": false,
      "inputs": [
        {
          "indexed": true,
          "internalType": "address",
          "name": "newInterface",
          "type": "address"
        },
        {
          "indexed": false,
          "internalType": "uint256",
          "name": "id",
          "type": "uint256"
        },
        {
          "indexed": false,
          "internalType": "bool",
          "name": "isSet",
          "type": "bool"
        }
      ],
      "name": "InterfaceChanged",
      "type": "event"
    },
    {
      "anonymous": false,
      "inputs": [
        {
          "indexed": true,
          "internalType": "address",
          "name": "avoider",
          "type": "address"
        },
        {
          "indexed": false,
          "internalType": "uint256",
          "name": "id",
          "type": "uint256"
        },
        {
          "indexed": false,
          "internalType": "bool",
          "name": "isAvoid",
          "type": "bool"
        }
      ],
      "name": "InterfacesAvoided",
      "type": "event"
    },
    {
      "anonymous": false,
      "inputs": [
        {
          "indexed": false,
          "internalType": "address",
          "name": "account",
          "type": "address"
        }
      ],
      "name": "Paused",
      "type": "event"
    },
    {
      "anonymous": false,
      "inputs": [
        {
          "indexed": false,
          "internalType": "uint256",
          "name": "id",
          "type": "uint256"
        },
        {
          "indexed": false,
          "internalType": "uint256",
          "name": "pricePerShare",
          "type": "uint256"
        },
        {
          "indexed": false,
          "internalType": "uint256",
          "name": "updateTimestamp",
          "type": "uint256"
        }
      ],
      "name": "PriceUpdated",
      "type": "event"
    },
    {
      "anonymous": false,
      "inputs": [
        {
          "indexed": true,
          "internalType": "bytes32",
          "name": "role",
          "type": "bytes32"
        },
        {
          "indexed": true,
          "internalType": "bytes32",
          "name": "previousAdminRole",
          "type": "bytes32"
        },
        {
          "indexed": true,
          "internalType": "bytes32",
          "name": "newAdminRole",
          "type": "bytes32"
        }
      ],
      "name": "RoleAdminChanged",
      "type": "event"
    },
    {
      "anonymous": false,
      "inputs": [
        {
          "indexed": true,
          "internalType": "bytes32",
          "name": "role",
          "type": "bytes32"
        },
        {
          "indexed": true,
          "internalType": "address",
          "name": "account",
          "type": "address"
        },
        {
          "indexed": true,
          "internalType": "address",
          "name": "sender",
          "type": "address"
        }
      ],
      "name": "RoleGranted",
      "type": "event"
    },
    {
      "anonymous": false,
      "inputs": [
        {
          "indexed": true,
          "internalType": "bytes32",
          "name": "role",
          "type": "bytes32"
        },
        {
          "indexed": true,
          "internalType": "address",
          "name": "account",
          "type": "address"
        },
        {
          "indexed": true,
          "internalType": "address",
          "name": "sender",
          "type": "address"
        }
      ],
      "name": "RoleRevoked",
      "type": "event"
    },
    {
      "anonymous": false,
      "inputs": [
        {
          "indexed": true,
          "internalType": "address",
          "name": "operator",
          "type": "address"
        },
        {
          "indexed": true,
          "internalType": "address",
          "name": "from",
          "type": "address"
        },
        {
          "indexed": true,
          "internalType": "address",
          "name": "to",
          "type": "address"
        },
        {
          "indexed": false,
          "internalType": "uint256[]",
          "name": "ids",
          "type": "uint256[]"
        },
        {
          "indexed": false,
          "internalType": "uint256[]",
          "name": "values",
          "type": "uint256[]"
        }
      ],
      "name": "TransferBatch",
      "type": "event"
    },
    {
      "anonymous": false,
      "inputs": [
        {
          "indexed": true,
          "internalType": "address",
          "name": "operator",
          "type": "address"
        },
        {
          "indexed": true,
          "internalType": "address",
          "name": "from",
          "type": "address"
        },
        {
          "indexed": true,
          "internalType": "address",
          "name": "to",
          "type": "address"
        },
        {
          "indexed": false,
          "internalType": "uint256",
          "name": "id",
          "type": "uint256"
        },
        {
          "indexed": false,
          "internalType": "uint256",
          "name": "value",
          "type": "uint256"
        }
      ],
      "name": "TransferSingle",
      "type": "event"
    },
    {
      "anonymous": false,
      "inputs": [
        {
          "indexed": false,
          "internalType": "string",
          "name": "value",
          "type": "string"
        },
        {
          "indexed": true,
          "internalType": "uint256",
          "name": "id",
          "type": "uint256"
        }
      ],
      "name": "URI",
      "type": "event"
    },
    {
      "anonymous": false,
      "inputs": [
        {
          "indexed": false,
          "internalType": "address",
          "name": "account",
          "type": "address"
        }
      ],
      "name": "Unpaused",
      "type": "event"
    },
    {
      "inputs": [],
      "name": "DEFAULT_ADMIN_ROLE",
      "outputs": [
        {
          "internalType": "bytes32",
          "name": "",
          "type": "bytes32"
        }
      ],
      "stateMutability": "view",
      "type": "function"
    },
    {
      "inputs": [],
      "name": "MINTER_ROLE",
      "outputs": [
        {
          "internalType": "bytes32",
          "name": "",
          "type": "bytes32"
        }
      ],
      "stateMutability": "view",
      "type": "function"
    },
    {
      "inputs": [],
      "name": "ORACLE_ROLE",
      "outputs": [
        {
          "internalType": "bytes32",
          "name": "",
          "type": "bytes32"
        }
      ],
      "stateMutability": "view",
      "type": "function"
    },
    {
      "inputs": [],
      "name": "PAUSER_ROLE",
      "outputs": [
        {
          "internalType": "bytes32",
          "name": "",
          "type": "bytes32"
        }
      ],
      "stateMutability": "view",
      "type": "function"
    },
    {
      "inputs": [
        {
          "internalType": "bool",
          "name": "isAvoid",
          "type": "bool"
        },
        {
          "internalType": "uint256",
          "name": "id",
          "type": "uint256"
        }
      ],
      "name": "avoidInterfaces",
      "outputs": [],
      "stateMutability": "nonpayable",
      "type": "function"
    },
    {
      "inputs": [
        {
          "internalType": "address",
          "name": "account",
          "type": "address"
        },
        {
          "internalType": "uint256",
          "name": "id",
          "type": "uint256"
        }
      ],
      "name": "balanceOf",
      "outputs": [
        {
          "internalType": "uint256",
          "name": "",
          "type": "uint256"
        }
      ],
      "stateMutability": "view",
      "type": "function"
    },
    {
      "inputs": [
        {
          "internalType": "address[]",
          "name": "accounts",
          "type": "address[]"
        },
        {
          "internalType": "uint256[]",
          "name": "ids",
          "type": "uint256[]"
        }
      ],
      "name": "balanceOfBatch",
      "outputs": [
        {
          "internalType": "uint256[]",
          "name": "",
          "type": "uint256[]"
        }
      ],
      "stateMutability": "view",
      "type": "function"
    },
    {
      "inputs": [
        {
          "internalType": "address",
          "name": "account",
          "type": "address"
        },
        {
          "internalType": "uint256",
          "name": "id",
          "type": "uint256"
        },
        {
          "internalType": "uint256",
          "name": "value",
          "type": "uint256"
        }
      ],
      "name": "burn",
      "outputs": [],
      "stateMutability": "nonpayable",
      "type": "function"
    },
    {
      "inputs": [
        {
          "internalType": "address",
          "name": "account",
          "type": "address"
        },
        {
          "internalType": "uint256[]",
          "name": "ids",
          "type": "uint256[]"
        },
        {
          "internalType": "uint256[]",
          "name": "values",
          "type": "uint256[]"
        }
      ],
      "name": "burnBatch",
      "outputs": [],
      "stateMutability": "nonpayable",
      "type": "function"
    },
    {
      "inputs": [],
      "name": "denominator",
      "outputs": [
        {
          "internalType": "uint256",
          "name": "",
          "type": "uint256"
        }
      ],
      "stateMutability": "view",
      "type": "function"
    },
    {
      "inputs": [
        {
          "internalType": "uint256",
          "name": "id",
          "type": "uint256"
        }
      ],
      "name": "exists",
      "outputs": [
        {
          "internalType": "bool",
          "name": "",
          "type": "bool"
        }
      ],
      "stateMutability": "view",
      "type": "function"
    },
    {
      "inputs": [
        {
          "internalType": "bytes32",
          "name": "role",
          "type": "bytes32"
        }
      ],
      "name": "getRoleAdmin",
      "outputs": [
        {
          "internalType": "bytes32",
          "name": "",
          "type": "bytes32"
        }
      ],
      "stateMutability": "view",
      "type": "function"
    },
    {
      "inputs": [
        {
          "internalType": "bytes32",
          "name": "role",
          "type": "bytes32"
        },
        {
          "internalType": "uint256",
          "name": "index",
          "type": "uint256"
        }
      ],
      "name": "getRoleMember",
      "outputs": [
        {
          "internalType": "address",
          "name": "",
          "type": "address"
        }
      ],
      "stateMutability": "view",
      "type": "function"
    },
    {
      "inputs": [
        {
          "internalType": "bytes32",
          "name": "role",
          "type": "bytes32"
        }
      ],
      "name": "getRoleMemberCount",
      "outputs": [
        {
          "internalType": "uint256",
          "name": "",
          "type": "uint256"
        }
      ],
      "stateMutability": "view",
      "type": "function"
    },
    {
      "inputs": [
        {
          "internalType": "bytes32",
          "name": "role",
          "type": "bytes32"
        },
        {
          "internalType": "address",
          "name": "account",
          "type": "address"
        }
      ],
      "name": "grantRole",
      "outputs": [],
      "stateMutability": "nonpayable",
      "type": "function"
    },
    {
      "inputs": [
        {
          "internalType": "bytes32",
          "name": "role",
          "type": "bytes32"
        },
        {
          "internalType": "address",
          "name": "account",
          "type": "address"
        }
      ],
      "name": "hasRole",
      "outputs": [
        {
          "internalType": "bool",
          "name": "",
          "type": "bool"
        }
      ],
      "stateMutability": "view",
      "type": "function"
    },
    {
      "inputs": [
        {
          "internalType": "address",
          "name": "account",
          "type": "address"
        },
        {
          "internalType": "address",
          "name": "operator",
          "type": "address"
        }
      ],
      "name": "isApprovedForAll",
      "outputs": [
        {
          "internalType": "bool",
          "name": "",
          "type": "bool"
        }
      ],
      "stateMutability": "view",
      "type": "function"
    },
    {
      "inputs": [
        {
          "internalType": "address",
          "name": "account",
          "type": "address"
        },
        {
          "internalType": "uint256",
          "name": "id",
          "type": "uint256"
        }
      ],
      "name": "isAvoider",
      "outputs": [
        {
          "internalType": "bool",
          "name": "",
          "type": "bool"
        }
      ],
      "stateMutability": "view",
      "type": "function"
    },
    {
      "inputs": [
        {
          "internalType": "address",
          "name": "_interface",
          "type": "address"
        },
        {
          "internalType": "uint256",
          "name": "id",
          "type": "uint256"
        }
      ],
      "name": "isInterface",
      "outputs": [
        {
          "internalType": "bool",
          "name": "",
          "type": "bool"
        }
      ],
      "stateMutability": "view",
      "type": "function"
    },
    {
      "inputs": [
        {
          "internalType": "address",
          "name": "to",
          "type": "address"
        },
        {
          "internalType": "uint256",
          "name": "id",
          "type": "uint256"
        },
        {
          "internalType": "uint256",
          "name": "amount",
          "type": "uint256"
        },
        {
          "internalType": "bytes",
          "name": "data",
          "type": "bytes"
        }
      ],
      "name": "mint",
      "outputs": [],
      "stateMutability": "nonpayable",
      "type": "function"
    },
    {
      "inputs": [
        {
          "internalType": "address",
          "name": "to",
          "type": "address"
        },
        {
          "internalType": "uint256[]",
          "name": "ids",
          "type": "uint256[]"
        },
        {
          "internalType": "uint256[]",
          "name": "amounts",
          "type": "uint256[]"
        },
        {
          "internalType": "bytes",
          "name": "data",
          "type": "bytes"
        }
      ],
      "name": "mintBatch",
      "outputs": [],
      "stateMutability": "nonpayable",
      "type": "function"
    },
    {
      "inputs": [],
      "name": "name",
      "outputs": [
        {
          "internalType": "string",
          "name": "",
          "type": "string"
        }
      ],
      "stateMutability": "view",
      "type": "function"
    },
    {
      "inputs": [],
      "name": "pause",
      "outputs": [],
      "stateMutability": "nonpayable",
      "type": "function"
    },
    {
      "inputs": [],
      "name": "paused",
      "outputs": [
        {
          "internalType": "bool",
          "name": "",
          "type": "bool"
        }
      ],
      "stateMutability": "view",
      "type": "function"
    },
    {
      "inputs": [
        {
          "internalType": "uint256",
          "name": "id",
          "type": "uint256"
        }
      ],
      "name": "pricePerShare",
      "outputs": [
        {
          "internalType": "uint256",
          "name": "",
          "type": "uint256"
        }
      ],
      "stateMutability": "view",
      "type": "function"
    },
    {
      "inputs": [
        {
          "internalType": "uint256",
          "name": "id",
          "type": "uint256"
        }
      ],
      "name": "priceUpdateTimestamp",
      "outputs": [
        {
          "internalType": "uint256",
          "name": "",
          "type": "uint256"
        }
      ],
      "stateMutability": "view",
      "type": "function"
    },
    {
      "inputs": [
        {
          "internalType": "bytes32",
          "name": "role",
          "type": "bytes32"
        },
        {
          "internalType": "address",
          "name": "account",
          "type": "address"
        }
      ],
      "name": "renounceRole",
      "outputs": [],
      "stateMutability": "nonpayable",
      "type": "function"
    },
    {
      "inputs": [
        {
          "internalType": "bytes32",
          "name": "role",
          "type": "bytes32"
        },
        {
          "internalType": "address",
          "name": "account",
          "type": "address"
        }
      ],
      "name": "revokeRole",
      "outputs": [],
      "stateMutability": "nonpayable",
      "type": "function"
    },
    {
      "inputs": [
        {
          "internalType": "address",
          "name": "from",
          "type": "address"
        },
        {
          "internalType": "address",
          "name": "to",
          "type": "address"
        },
        {
          "internalType": "uint256[]",
          "name": "ids",
          "type": "uint256[]"
        },
        {
          "internalType": "uint256[]",
          "name": "amounts",
          "type": "uint256[]"
        },
        {
          "internalType": "bytes",
          "name": "data",
          "type": "bytes"
        }
      ],
      "name": "safeBatchTransferFrom",
      "outputs": [],
      "stateMutability": "nonpayable",
      "type": "function"
    },
    {
      "inputs": [
        {
          "internalType": "address",
          "name": "from",
          "type": "address"
        },
        {
          "internalType": "address",
          "name": "to",
          "type": "address"
        },
        {
          "internalType": "uint256",
          "name": "id",
          "type": "uint256"
        },
        {
          "internalType": "uint256",
          "name": "amount",
          "type": "uint256"
        },
        {
          "internalType": "bytes",
          "name": "data",
          "type": "bytes"
        }
      ],
      "name": "safeTransferFrom",
      "outputs": [],
      "stateMutability": "nonpayable",
      "type": "function"
    },
    {
      "inputs": [
        {
          "internalType": "address",
          "name": "operator",
          "type": "address"
        },
        {
          "internalType": "bool",
          "name": "approved",
          "type": "bool"
        }
      ],
      "name": "setApprovalForAll",
      "outputs": [],
      "stateMutability": "nonpayable",
      "type": "function"
    },
    {
      "inputs": [
        {
          "internalType": "address",
          "name": "_interface",
          "type": "address"
        },
        {
          "internalType": "uint256",
          "name": "id",
          "type": "uint256"
        },
        {
          "internalType": "bool",
          "name": "isSet",
          "type": "bool"
        }
      ],
      "name": "setInterface",
      "outputs": [],
      "stateMutability": "nonpayable",
      "type": "function"
    },
    {
      "inputs": [
        {
          "internalType": "uint256",
          "name": "price",
          "type": "uint256"
        },
        {
          "internalType": "uint256",
          "name": "id",
          "type": "uint256"
        }
      ],
      "name": "setPricePerShare",
      "outputs": [],
      "stateMutability": "nonpayable",
      "type": "function"
    },
    {
      "inputs": [
        {
          "internalType": "bytes4",
          "name": "interfaceId",
          "type": "bytes4"
        }
      ],
      "name": "supportsInterface",
      "outputs": [
        {
          "internalType": "bool",
          "name": "",
          "type": "bool"
        }
      ],
      "stateMutability": "view",
      "type": "function"
    },
    {
      "inputs": [],
      "name": "symbol",
      "outputs": [
        {
          "internalType": "string",
          "name": "",
          "type": "string"
        }
      ],
      "stateMutability": "view",
      "type": "function"
    },
    {
      "inputs": [
        {
          "internalType": "uint256",
          "name": "id",
          "type": "uint256"
        }
      ],
      "name": "totalSupply",
      "outputs": [
        {
          "internalType": "uint256",
          "name": "",
          "type": "uint256"
        }
      ],
      "stateMutability": "view",
      "type": "function"
    },
    {
      "inputs": [],
      "name": "unpause",
      "outputs": [],
      "stateMutability": "nonpayable",
      "type": "function"
    },
    {
      "inputs": [
        {
          "internalType": "address",
          "name": "Minter",
          "type": "address"
        }
      ],
      "name": "updateMinterRole",
      "outputs": [],
      "stateMutability": "nonpayable",
      "type": "function"
    },
    {
      "inputs": [
        {
          "internalType": "address",
          "name": "Oracle",
          "type": "address"
        }
      ],
      "name": "updateOracleRole",
      "outputs": [],
      "stateMutability": "nonpayable",
      "type": "function"
    },
    {
      "inputs": [
        {
          "internalType": "address",
          "name": "Pauser",
          "type": "address"
        }
      ],
      "name": "updatePauserRole",
      "outputs": [],
      "stateMutability": "nonpayable",
      "type": "function"
    },
    {
      "inputs": [
        {
          "internalType": "uint256",
          "name": "",
          "type": "uint256"
        }
      ],
      "name": "uri",
      "outputs": [
        {
          "internalType": "string",
          "name": "",
          "type": "string"
        }
      ],
      "stateMutability": "view",
      "type": "function"
    }
  ],
  "transactionHash": "0x1f9dda730fab5a3dfa7b8419a37ab2529a12fa27f3d8c9fd38affcccec5acdab",
  "args": [
    "https://api.geode.fi/geth"
  ],
  "numDeployments": 1,
  "solcInputHash": "0fbab820add1fbf0817c674a8422f37e",
  "bytecode": "0x60806040523480156200001157600080fd5b5060405162003847380380620038478339810160408190526200003491620002ff565b80806200004181620000e5565b506005805460ff1916905562000059600033620000fe565b620000857f9f2df0fed2c77648de5860a4cc508cd0818c85b8b8a1ab4ceeef8d981c8956a633620000fe565b620000b17f65d7a28e3265b37a6474929f336521b332c1681b933f6cb9f3376673440d862a33620000fe565b50620000de7f68e79a7bf1e0bc45d0a330c573bc367f9cf464fd326078812f301165fbda4ef133620000fe565b506200042e565b8051620000fa90600490602084019062000259565b5050565b620000fa82826200011b82826200014760201b620011ad1760201c565b60008281526001602090815260409091206200014291839062001231620001e7821b17901c565b505050565b6000828152602081815260408083206001600160a01b038516845290915290205460ff16620000fa576000828152602081815260408083206001600160a01b03851684529091529020805460ff19166001179055620001a33390565b6001600160a01b0316816001600160a01b0316837f2f8788117e7eff1d82e926ec794901d17c78024a50270940304540a733656f0d60405160405180910390a45050565b6000620001fe836001600160a01b03841662000207565b90505b92915050565b6000818152600183016020526040812054620002505750815460018181018455600084815260208082209093018490558454848252828601909352604090209190915562000201565b50600062000201565b8280546200026790620003db565b90600052602060002090601f0160209004810192826200028b5760008555620002d6565b82601f10620002a657805160ff1916838001178555620002d6565b82800160010185558215620002d6579182015b82811115620002d6578251825591602001919060010190620002b9565b50620002e4929150620002e8565b5090565b5b80821115620002e45760008155600101620002e9565b600060208083850312156200031357600080fd5b82516001600160401b03808211156200032b57600080fd5b818501915085601f8301126200034057600080fd5b81518181111562000355576200035562000418565b604051601f8201601f19908116603f0116810190838211818310171562000380576200038062000418565b8160405282815288868487010111156200039957600080fd5b600093505b82841015620003bd57848401860151818501870152928501926200039e565b82841115620003cf5760008684830101525b98975050505050505050565b600181811c90821680620003f057607f821691505b602082108114156200041257634e487b7160e01b600052602260045260246000fd5b50919050565b634e487b7160e01b600052604160045260246000fd5b613409806200043e6000396000f3fe608060405234801561001057600080fd5b50600436106102525760003560e01c80638456cb5911610146578063bd85b039116100c3578063e985e9c511610087578063e985e9c514610584578063f242432a146105c0578063f5298aca146105d3578063f759cc3b146105e6578063f8ae49b414610606578063fcd295e31461061957600080fd5b8063bd85b03914610514578063ca15c87314610534578063d539139314610547578063d547741f1461055c578063e63ab1e91461056f57600080fd5b806396ce07951161010a57806396ce0795146104c557806397e86e90146104d35780639ec0f804146104e6578063a217fddf146104f9578063a22cb4651461050157600080fd5b80638456cb591461043c5780639010d07c14610444578063908d67ed1461046f57806391d148541461048f57806395d89b41146104a257600080fd5b806325d740a2116101d45780634e1273f4116101985780634e1273f4146103c95780634f558e79146103e95780635c975abb1461040b5780636b20c45414610416578063731133e91461042957600080fd5b806325d740a2146103755780632eb2c2d6146103885780632f2ff15d1461039b57806336568abe146103ae5780633f4ba83a146103c157600080fd5b80630b1f736b1161021b5780630b1f736b146103045780630e89341c146103195780631f7fdffa1461032c57806322af59971461033f578063248a9ca31461035257600080fd5b8062fdd58e1461025757806301ffc9a71461027d57806306fdde03146102a0578063072650d2146102dc57806307e2cea5146102ef575b600080fd5b61026a61026536600461299c565b61062c565b6040519081526020015b60405180910390f35b61029061028b366004612bd5565b6106c7565b6040519015158152602001610274565b6102cf6040518060400160405280601081526020016f08ecadec8ca40a6e8c2d6cac8408aa8960831b81525081565b6040516102749190612dcf565b6102906102ea36600461299c565b6106d2565b61026a60008051602061337483398151915281565b610317610312366004612708565b6106fd565b005b6102cf610327366004612b77565b610794565b61031761033a3660046128d9565b610828565b61031761034d366004612bb3565b61086e565b61026a610360366004612b77565b60009081526020819052604090206001015490565b610317610383366004612b5b565b61098e565b610317610396366004612756565b6109f0565b6103176103a9366004612b90565b610a3c565b6103176103bc366004612b90565b610a67565b610317610ae5565b6103dc6103d7366004612a8a565b610b79565b6040516102749190612d8e565b6102906103f7366004612b77565b600090815260066020526040902054151590565b60055460ff16610290565b610317610424366004612865565b610ca3565b610317610437366004612a35565b610ce6565b610317610d26565b610457610452366004612bb3565b610db8565b6040516001600160a01b039091168152602001610274565b61026a61047d366004612b77565b6000908152600a602052604090205490565b61029061049d366004612b90565b610dd7565b6102cf604051806040016040528060048152602001630ce8aa8960e31b81525081565b670de0b6b3a764000061026a565b6103176104e1366004612708565b610e00565b6103176104f43660046129c6565b610e94565b61026a600081565b61031761050f366004612972565b610fb0565b61026a610522366004612b77565b60009081526006602052604090205490565b61026a610542366004612b77565b610fbb565b61026a6000805160206133b483398151915281565b61031761056a366004612b90565b610fd2565b61026a60008051602061339483398151915281565b610290610592366004612723565b6001600160a01b03918216600090815260036020908152604080832093909416825291909152205460ff1690565b6103176105ce366004612800565b610ff8565b6103176105e1366004612a02565b611060565b61026a6105f4366004612b77565b60009081526009602052604090205490565b610317610614366004612708565b6110c6565b61029061062736600461299c565b61115a565b60006001600160a01b03831661069c5760405162461bcd60e51b815260206004820152602a60248201527f455243313135353a2061646472657373207a65726f206973206e6f742061207660448201526930b634b21037bbb732b960b11b60648201526084015b60405180910390fd5b5060008181526002602090815260408083206001600160a01b03861684529091529020545b92915050565b60006106c182611246565b6001600160a01b03919091166000908152600860209081526040808320938352929052205460ff1690565b61071560008051602061339483398151915233610dd7565b6107615760405162461bcd60e51b815260206004820152601b60248201527f674554483a206d7573742068617665205041555345525f524f4c4500000000006044820152606401610693565b61077960008051602061339483398151915233610a67565b61079160008051602061339483398151915282611286565b50565b6060600480546107a3906131dc565b80601f01602080910402602001604051908101604052809291908181526020018280546107cf906131dc565b801561081c5780601f106107f15761010080835404028352916020019161081c565b820191906000526020600020905b8154815290600101906020018083116107ff57829003601f168201915b50505050509050919050565b6108406000805160206133b483398151915233610dd7565b61085c5760405162461bcd60e51b815260040161069390612fad565b61086884848484611290565b50505050565b61088660008051602061337483398151915233610dd7565b6108d25760405162461bcd60e51b815260206004820152601d60248201527f674554483a206d7573742068617665204f5241434c4520746f207365740000006044820152606401610693565b8061092e5760405162461bcd60e51b815260206004820152602660248201527f674554483a20707269636520717565727920666f7220746865207a65726f206160448201526564647265737360d01b6064820152608401610693565b6000818152600960209081526040808320859055600a825291829020429081905582518481529182018590528183015290517f15819dd2fd9f6418b142e798d08a18d0bf06ea368f4480b7b0d3f75bd966bc489181900360600190a15050565b336000818152600860209081526040808320858452825291829020805460ff19168615159081179091558251858152918201527f7ee94177e42e15d5c9d138efc0db52eaa0ae11583aec3b0931217448c502509f910160405180910390a25050565b6001600160a01b038516331480610a0c5750610a0c8533610592565b610a285760405162461bcd60e51b815260040161069390612de2565b610a3585858585856113eb565b5050505050565b600082815260208190526040902060010154610a588133611598565b610a6283836115fc565b505050565b6001600160a01b0381163314610ad75760405162461bcd60e51b815260206004820152602f60248201527f416363657373436f6e74726f6c3a2063616e206f6e6c792072656e6f756e636560448201526e103937b632b9903337b91039b2b63360891b6064820152608401610693565b610ae1828261161e565b5050565b610afd60008051602061339483398151915233610dd7565b610b6f5760405162461bcd60e51b815260206004820152603b60248201527f455243313135355072657365744d696e7465725061757365723a206d7573742060448201527f686176652070617573657220726f6c6520746f20756e706175736500000000006064820152608401610693565b610b77611640565b565b60608151835114610bde5760405162461bcd60e51b815260206004820152602960248201527f455243313135353a206163636f756e747320616e6420696473206c656e677468604482015268040dad2e6dac2e8c6d60bb1b6064820152608401610693565b6000835167ffffffffffffffff811115610bfa57610bfa6132a1565b604051908082528060200260200182016040528015610c23578160200160208202803683370190505b50905060005b8451811015610c9b57610c6e858281518110610c4757610c4761328b565b6020026020010151858381518110610c6157610c6161328b565b602002602001015161062c565b828281518110610c8057610c8061328b565b6020908102919091010152610c9481613244565b9050610c29565b509392505050565b6001600160a01b038316331480610cbf5750610cbf8333610592565b610cdb5760405162461bcd60e51b815260040161069390612de2565b610a628383836116d3565b610cfe6000805160206133b483398151915233610dd7565b610d1a5760405162461bcd60e51b815260040161069390612fad565b61086884848484611872565b610d3e60008051602061339483398151915233610dd7565b610db05760405162461bcd60e51b815260206004820152603960248201527f455243313135355072657365744d696e7465725061757365723a206d7573742060448201527f686176652070617573657220726f6c6520746f207061757365000000000000006064820152608401610693565b610b7761195d565b6000828152600160205260408120610dd090836119d8565b9392505050565b6000918252602082815260408084206001600160a01b0393909316845291905290205460ff1690565b610e186000805160206133b483398151915233610dd7565b610e645760405162461bcd60e51b815260206004820152601b60248201527f674554483a206d7573742068617665204d494e5445525f524f4c4500000000006044820152606401610693565b610e7c6000805160206133b483398151915233610a67565b6107916000805160206133b483398151915282611286565b610eac6000805160206133b483398151915233610dd7565b610ef85760405162461bcd60e51b815260206004820152601b60248201527f674554483a206d7573742068617665204d494e5445525f524f4c4500000000006044820152606401610693565b6001600160a01b0383163b610f5b5760405162461bcd60e51b815260206004820152602360248201527f674554483a205f696e74657266616365206d757374206265206120636f6e74726044820152621858dd60ea1b6064820152608401610693565b610f668383836119e4565b6040805183815282151560208201526001600160a01b038516917f7da91fcb8c7796fb7d8e6b517641dbbe436fff55f5faab2a1c161c7d83bdbc46910160405180910390a2505050565b610ae1338383611a40565b60008181526001602052604081206106c190611b21565b600082815260208190526040902060010154610fee8133611598565b610a62838361161e565b6001600160a01b03851633148061101457506110148533610592565b806110375750611024338461115a565b8015611037575061103585846106d2565b155b6110535760405162461bcd60e51b815260040161069390612ebd565b610a358585858585611b2b565b6001600160a01b03831633148061107c575061107c8333610592565b8061109f575061108c338361115a565b801561109f575061109d83836106d2565b155b6110bb5760405162461bcd60e51b815260040161069390612ebd565b610a62838383611c67565b6110de60008051602061337483398151915233610dd7565b61112a5760405162461bcd60e51b815260206004820152601b60248201527f674554483a206d7573742068617665204f5241434c455f524f4c4500000000006044820152606401610693565b61114260008051602061337483398151915233610a67565b61079160008051602061337483398151915282611286565b60006001600160a01b0383166111825760405162461bcd60e51b815260040161069390613054565b5060009081526007602090815260408083206001600160a01b03949094168352929052205460ff1690565b6111b78282610dd7565b610ae1576000828152602081815260408083206001600160a01b03851684529091529020805460ff191660011790556111ed3390565b6001600160a01b0316816001600160a01b0316837f2f8788117e7eff1d82e926ec794901d17c78024a50270940304540a733656f0d60405160405180910390a45050565b6000610dd0836001600160a01b038416611d83565b60006001600160e01b03198216636cdb3d1360e11b148061127757506001600160e01b031982166303a24d0760e21b145b806106c157506106c182611dd2565b610ae182826115fc565b6001600160a01b0384166112b65760405162461bcd60e51b8152600401610693906130e6565b81518351146112d75760405162461bcd60e51b81526004016106939061309e565b336112e781600087878787611df7565b60005b8451811015611383578381815181106113055761130561328b565b6020026020010151600260008784815181106113235761132361328b565b602002602001015181526020019081526020016000206000886001600160a01b03166001600160a01b03168152602001908152602001600020600082825461136b919061314b565b9091555081905061137b81613244565b9150506112ea565b50846001600160a01b031660006001600160a01b0316826001600160a01b03167f4a39dc06d4c0dbc64b70af90fd698a233a518aa5d07e595d983b8c0526c8f7fb87876040516113d4929190612da1565b60405180910390a4610a3581600087878787611e05565b815183511461140c5760405162461bcd60e51b81526004016106939061309e565b6001600160a01b0384166114325760405162461bcd60e51b815260040161069390612f25565b33611441818787878787611df7565b60005b845181101561152a5760008582815181106114615761146161328b565b60200260200101519050600085838151811061147f5761147f61328b565b60209081029190910181015160008481526002835260408082206001600160a01b038e1683529093529190912054909150818110156114d05760405162461bcd60e51b81526004016106939061300a565b60008381526002602090815260408083206001600160a01b038e8116855292528083208585039055908b1682528120805484929061150f90849061314b565b925050819055505050508061152390613244565b9050611444565b50846001600160a01b0316866001600160a01b0316826001600160a01b03167f4a39dc06d4c0dbc64b70af90fd698a233a518aa5d07e595d983b8c0526c8f7fb878760405161157a929190612da1565b60405180910390a4611590818787878787611e05565b505050505050565b6115a28282610dd7565b610ae1576115ba816001600160a01b03166014611f70565b6115c5836020611f70565b6040516020016115d6929190612c76565b60408051601f198184030181529082905262461bcd60e51b825261069391600401612dcf565b61160682826111ad565b6000828152600160205260409020610a629082611231565b611628828261210c565b6000828152600160205260409020610a629082612171565b60055460ff166116895760405162461bcd60e51b815260206004820152601460248201527314185d5cd8589b194e881b9bdd081c185d5cd95960621b6044820152606401610693565b6005805460ff191690557f5db9ee0a495bf2e6ff9c91a7834c1ba4fdd244a5e8aa4e537bd38aeae4b073aa335b6040516001600160a01b03909116815260200160405180910390a1565b6001600160a01b0383166116f95760405162461bcd60e51b815260040161069390612f6a565b805182511461171a5760405162461bcd60e51b81526004016106939061309e565b600033905061173d81856000868660405180602001604052806000815250611df7565b60005b835181101561180557600084828151811061175d5761175d61328b565b60200260200101519050600084838151811061177b5761177b61328b565b60209081029190910181015160008481526002835260408082206001600160a01b038c1683529093529190912054909150818110156117cc5760405162461bcd60e51b815260040161069390612e79565b60009283526002602090815260408085206001600160a01b038b16865290915290922091039055806117fd81613244565b915050611740565b5060006001600160a01b0316846001600160a01b0316826001600160a01b03167f4a39dc06d4c0dbc64b70af90fd698a233a518aa5d07e595d983b8c0526c8f7fb8686604051611856929190612da1565b60405180910390a4604080516020810190915260009052610868565b6001600160a01b0384166118985760405162461bcd60e51b8152600401610693906130e6565b3360006118a485612186565b905060006118b185612186565b90506118c283600089858589611df7565b60008681526002602090815260408083206001600160a01b038b168452909152812080548792906118f490849061314b565b909155505060408051878152602081018790526001600160a01b03808a1692600092918716917fc3d58168c5ae7397731d063d5bbf3d657854427343f4c083240f7aacaa2d0f62910160405180910390a4611954836000898989896121d1565b50505050505050565b60055460ff16156119a35760405162461bcd60e51b815260206004820152601060248201526f14185d5cd8589b194e881c185d5cd95960821b6044820152606401610693565b6005805460ff191660011790557f62e78cea01bee320cd4e420270b5ea74000d11b0c9f74754ebdbfc544b05a2586116b63390565b6000610dd083836122b0565b6001600160a01b038316611a0a5760405162461bcd60e51b815260040161069390613054565b60009182526007602090815260408084206001600160a01b03959095168452939052919020805460ff1916911515919091179055565b816001600160a01b0316836001600160a01b03161415611ab45760405162461bcd60e51b815260206004820152602960248201527f455243313135353a2073657474696e6720617070726f76616c20737461747573604482015268103337b91039b2b63360b91b6064820152608401610693565b6001600160a01b03838116600081815260036020908152604080832094871680845294825291829020805460ff191686151590811790915591519182527f17307eab39ab6107e8899845ad3d59bd9653f200f220920489ca2b5937696c31910160405180910390a3505050565b60006106c1825490565b6001600160a01b038416611b515760405162461bcd60e51b815260040161069390612f25565b336000611b5d85612186565b90506000611b6a85612186565b9050611b7a838989858589611df7565b60008681526002602090815260408083206001600160a01b038c16845290915290205485811015611bbd5760405162461bcd60e51b81526004016106939061300a565b60008781526002602090815260408083206001600160a01b038d8116855292528083208985039055908a16825281208054889290611bfc90849061314b565b909155505060408051888152602081018890526001600160a01b03808b16928c821692918816917fc3d58168c5ae7397731d063d5bbf3d657854427343f4c083240f7aacaa2d0f62910160405180910390a4611c5c848a8a8a8a8a6121d1565b505050505050505050565b6001600160a01b038316611c8d5760405162461bcd60e51b815260040161069390612f6a565b336000611c9984612186565b90506000611ca684612186565b9050611cc683876000858560405180602001604052806000815250611df7565b60008581526002602090815260408083206001600160a01b038a16845290915290205484811015611d095760405162461bcd60e51b815260040161069390612e79565b60008681526002602090815260408083206001600160a01b038b81168086529184528285208a8703905582518b81529384018a90529092908816917fc3d58168c5ae7397731d063d5bbf3d657854427343f4c083240f7aacaa2d0f62910160405180910390a4604080516020810190915260009052611954565b6000818152600183016020526040812054611dca575081546001818101845560008481526020808220909301849055845484825282860190935260409020919091556106c1565b5060006106c1565b60006001600160e01b03198216635a05180f60e01b14806106c157506106c1826122da565b61159086868686868661230f565b6001600160a01b0384163b156115905760405163bc197c8160e01b81526001600160a01b0385169063bc197c8190611e499089908990889088908890600401612ceb565b602060405180830381600087803b158015611e6357600080fd5b505af1925050508015611e93575060408051601f3d908101601f19168201909252611e9091810190612bf2565b60015b611f4057611e9f6132b7565b806308c379a01415611ed95750611eb46132d3565b80611ebf5750611edb565b8060405162461bcd60e51b81526004016106939190612dcf565b505b60405162461bcd60e51b815260206004820152603460248201527f455243313135353a207472616e7366657220746f206e6f6e20455243313135356044820152732932b1b2b4bb32b91034b6b83632b6b2b73a32b960611b6064820152608401610693565b6001600160e01b0319811663bc197c8160e01b146119545760405162461bcd60e51b815260040161069390612e31565b60606000611f7f836002613163565b611f8a90600261314b565b67ffffffffffffffff811115611fa257611fa26132a1565b6040519080825280601f01601f191660200182016040528015611fcc576020820181803683370190505b509050600360fc1b81600081518110611fe757611fe761328b565b60200101906001600160f81b031916908160001a905350600f60fb1b816001815181106120165761201661328b565b60200101906001600160f81b031916908160001a905350600061203a846002613163565b61204590600161314b565b90505b60018111156120bd576f181899199a1a9b1b9c1cb0b131b232b360811b85600f16601081106120795761207961328b565b1a60f81b82828151811061208f5761208f61328b565b60200101906001600160f81b031916908160001a90535060049490941c936120b6816131c5565b9050612048565b508315610dd05760405162461bcd60e51b815260206004820181905260248201527f537472696e67733a20686578206c656e67746820696e73756666696369656e746044820152606401610693565b6121168282610dd7565b15610ae1576000828152602081815260408083206001600160a01b0385168085529252808320805460ff1916905551339285917ff6391f5c32d9c69d2a47ea670b442974b53935d1edc7fd64eb21e047a839171b9190a45050565b6000610dd0836001600160a01b038416612496565b604080516001808252818301909252606091600091906020808301908036833701905050905082816000815181106121c0576121c061328b565b602090810291909101015292915050565b6001600160a01b0384163b151580156121f157506121ef868461115a565b155b156115905760405163f23a6e6160e01b81526001600160a01b0385169063f23a6e619061222a9089908990889088908890600401612d49565b602060405180830381600087803b15801561224457600080fd5b505af1925050508015612274575060408051601f3d908101601f1916820190925261227191810190612bf2565b60015b61228057611e9f6132b7565b6001600160e01b0319811663f23a6e6160e01b146119545760405162461bcd60e51b815260040161069390612e31565b60008260000182815481106122c7576122c761328b565b9060005260206000200154905092915050565b60006001600160e01b03198216637965db0b60e01b14806106c157506301ffc9a760e01b6001600160e01b03198316146106c1565b61231d868686868686612589565b6001600160a01b0385166123a45760005b83518110156123a2578281815181106123495761234961328b565b6020026020010151600660008684815181106123675761236761328b565b60200260200101518152602001908152602001600020600082825461238c919061314b565b9091555061239b905081613244565b905061232e565b505b6001600160a01b0384166115905760005b83518110156119545760008482815181106123d2576123d261328b565b6020026020010151905060008483815181106123f0576123f061328b565b60200260200101519050600060066000848152602001908152602001600020549050818110156124735760405162461bcd60e51b815260206004820152602860248201527f455243313135353a206275726e20616d6f756e74206578636565647320746f74604482015267616c537570706c7960c01b6064820152608401610693565b6000928352600660205260409092209103905561248f81613244565b90506123b5565b6000818152600183016020526040812054801561257f5760006124ba600183613182565b85549091506000906124ce90600190613182565b90508181146125335760008660000182815481106124ee576124ee61328b565b90600052602060002001549050808760000184815481106125115761251161328b565b6000918252602080832090910192909255918252600188019052604090208390555b855486908061254457612544613275565b6001900381819060005260206000200160009055905585600101600086815260200190815260200160002060009055600193505050506106c1565b60009150506106c1565b60055460ff16156115905760405162461bcd60e51b815260206004820152602c60248201527f455243313135355061757361626c653a20746f6b656e207472616e736665722060448201526b1dda1a5b19481c185d5cd95960a21b6064820152608401610693565b80356001600160a01b038116811461260857600080fd5b919050565b600082601f83011261261e57600080fd5b8135602061262b82613127565b6040516126388282613217565b8381528281019150858301600585901b8701840188101561265857600080fd5b60005b858110156126775781358452928401929084019060010161265b565b5090979650505050505050565b8035801515811461260857600080fd5b600082601f8301126126a557600080fd5b813567ffffffffffffffff8111156126bf576126bf6132a1565b6040516126d6601f8301601f191660200182613217565b8181528460208386010111156126eb57600080fd5b816020850160208301376000918101602001919091529392505050565b60006020828403121561271a57600080fd5b610dd0826125f1565b6000806040838503121561273657600080fd5b61273f836125f1565b915061274d602084016125f1565b90509250929050565b600080600080600060a0868803121561276e57600080fd5b612777866125f1565b9450612785602087016125f1565b9350604086013567ffffffffffffffff808211156127a257600080fd5b6127ae89838a0161260d565b945060608801359150808211156127c457600080fd5b6127d089838a0161260d565b935060808801359150808211156127e657600080fd5b506127f388828901612694565b9150509295509295909350565b600080600080600060a0868803121561281857600080fd5b612821866125f1565b945061282f602087016125f1565b93506040860135925060608601359150608086013567ffffffffffffffff81111561285957600080fd5b6127f388828901612694565b60008060006060848603121561287a57600080fd5b612883846125f1565b9250602084013567ffffffffffffffff808211156128a057600080fd5b6128ac8783880161260d565b935060408601359150808211156128c257600080fd5b506128cf8682870161260d565b9150509250925092565b600080600080608085870312156128ef57600080fd5b6128f8856125f1565b9350602085013567ffffffffffffffff8082111561291557600080fd5b6129218883890161260d565b9450604087013591508082111561293757600080fd5b6129438883890161260d565b9350606087013591508082111561295957600080fd5b5061296687828801612694565b91505092959194509250565b6000806040838503121561298557600080fd5b61298e836125f1565b915061274d60208401612684565b600080604083850312156129af57600080fd5b6129b8836125f1565b946020939093013593505050565b6000806000606084860312156129db57600080fd5b6129e4846125f1565b9250602084013591506129f960408501612684565b90509250925092565b600080600060608486031215612a1757600080fd5b612a20846125f1565b95602085013595506040909401359392505050565b60008060008060808587031215612a4b57600080fd5b612a54856125f1565b93506020850135925060408501359150606085013567ffffffffffffffff811115612a7e57600080fd5b61296687828801612694565b60008060408385031215612a9d57600080fd5b823567ffffffffffffffff80821115612ab557600080fd5b818501915085601f830112612ac957600080fd5b81356020612ad682613127565b604051612ae38282613217565b8381528281019150858301600585901b870184018b1015612b0357600080fd5b600096505b84871015612b2d57612b19816125f1565b835260019690960195918301918301612b08565b5096505086013592505080821115612b4457600080fd5b50612b518582860161260d565b9150509250929050565b60008060408385031215612b6e57600080fd5b6129b883612684565b600060208284031215612b8957600080fd5b5035919050565b60008060408385031215612ba357600080fd5b8235915061274d602084016125f1565b60008060408385031215612bc657600080fd5b50508035926020909101359150565b600060208284031215612be757600080fd5b8135610dd08161335d565b600060208284031215612c0457600080fd5b8151610dd08161335d565b600081518084526020808501945080840160005b83811015612c3f57815187529582019590820190600101612c23565b509495945050505050565b60008151808452612c62816020860160208601613199565b601f01601f19169290920160200192915050565b7f416363657373436f6e74726f6c3a206163636f756e7420000000000000000000815260008351612cae816017850160208801613199565b7001034b99036b4b9b9b4b733903937b6329607d1b6017918401918201528351612cdf816028840160208801613199565b01602801949350505050565b6001600160a01b0386811682528516602082015260a060408201819052600090612d1790830186612c0f565b8281036060840152612d298186612c0f565b90508281036080840152612d3d8185612c4a565b98975050505050505050565b6001600160a01b03868116825285166020820152604081018490526060810183905260a060808201819052600090612d8390830184612c4a565b979650505050505050565b602081526000610dd06020830184612c0f565b604081526000612db46040830185612c0f565b8281036020840152612dc68185612c0f565b95945050505050565b602081526000610dd06020830184612c4a565b6020808252602f908201527f455243313135353a2063616c6c6572206973206e6f7420746f6b656e206f776e60408201526e195c881b9bdc88185c1c1c9bdd9959608a1b606082015260800190565b60208082526028908201527f455243313135353a204552433131353552656365697665722072656a656374656040820152676420746f6b656e7360c01b606082015260800190565b60208082526024908201527f455243313135353a206275726e20616d6f756e7420657863656564732062616c604082015263616e636560e01b606082015260800190565b60208082526042908201527f455243313135353a2063616c6c6572206973206e6f74206f776e6572206e6f7260408201527f20617070726f766564206e6f7220616e20616c6c6f77656420696e7465726661606082015261636560f01b608082015260a00190565b60208082526025908201527f455243313135353a207472616e7366657220746f20746865207a65726f206164604082015264647265737360d81b606082015260800190565b60208082526023908201527f455243313135353a206275726e2066726f6d20746865207a65726f206164647260408201526265737360e81b606082015260800190565b60208082526038908201527f455243313135355072657365744d696e7465725061757365723a206d7573742060408201527f68617665206d696e74657220726f6c6520746f206d696e740000000000000000606082015260800190565b6020808252602a908201527f455243313135353a20696e73756666696369656e742062616c616e636520666f60408201526939103a3930b739b332b960b11b606082015260800190565b6020808252602a908201527f674554483a20696e7465726661636520717565727920666f7220746865207a65604082015269726f206164647265737360b01b606082015260800190565b60208082526028908201527f455243313135353a2069647320616e6420616d6f756e7473206c656e677468206040820152670dad2e6dac2e8c6d60c31b606082015260800190565b60208082526021908201527f455243313135353a206d696e7420746f20746865207a65726f206164647265736040820152607360f81b606082015260800190565b600067ffffffffffffffff821115613141576131416132a1565b5060051b60200190565b6000821982111561315e5761315e61325f565b500190565b600081600019048311821515161561317d5761317d61325f565b500290565b6000828210156131945761319461325f565b500390565b60005b838110156131b457818101518382015260200161319c565b838111156108685750506000910152565b6000816131d4576131d461325f565b506000190190565b600181811c908216806131f057607f821691505b6020821081141561321157634e487b7160e01b600052602260045260246000fd5b50919050565b601f8201601f1916810167ffffffffffffffff8111828210171561323d5761323d6132a1565b6040525050565b60006000198214156132585761325861325f565b5060010190565b634e487b7160e01b600052601160045260246000fd5b634e487b7160e01b600052603160045260246000fd5b634e487b7160e01b600052603260045260246000fd5b634e487b7160e01b600052604160045260246000fd5b600060033d11156132d05760046000803e5060005160e01c5b90565b600060443d10156132e15790565b6040516003193d81016004833e81513d67ffffffffffffffff816024840111818411171561331157505050505090565b82850191508151818111156133295750505050505090565b843d87010160208285010111156133435750505050505090565b61335260208286010187613217565b509095945050505050565b6001600160e01b03198116811461079157600080fdfe68e79a7bf1e0bc45d0a330c573bc367f9cf464fd326078812f301165fbda4ef165d7a28e3265b37a6474929f336521b332c1681b933f6cb9f3376673440d862a9f2df0fed2c77648de5860a4cc508cd0818c85b8b8a1ab4ceeef8d981c8956a6a264697066735822122069cd52e246e87ebfa16ff0adfee2d24bad527847ef563fad67d70969e9972be664736f6c63430008070033",
  "devdoc": {
    "author": "Icebear & Crash Bandicoot",
    "details": "recommended to check helpers/ERC1155SupplyMinterPauser.sol first",
    "kind": "dev",
    "methods": {
      "avoidInterfaces(bool,uint256)": {
        "details": "ADDED for gETH*",
        "params": {
          "isAvoid": "true: restrict interfaces, false: allow the interfaces,"
        }
      },
      "balanceOf(address,uint256)": {
        "details": "See {IERC1155-balanceOf}. Requirements: - `account` cannot be the zero address."
      },
      "balanceOfBatch(address[],uint256[])": {
        "details": "See {IERC1155-balanceOfBatch}. Requirements: - `accounts` and `ids` must have the same length."
      },
      "burn(address,uint256,uint256)": {
        "details": "See {IERC1155-safeTransferFrom}.CHANGED for gETHADDED \"|| (isInterface(_msgSender(), id) && !isAvoider(account))\""
      },
      "denominator()": {
        "details": "ADDED for gETH"
      },
      "exists(uint256)": {
        "details": "Indicates whether any token exist with a given id, or not."
      },
      "getRoleAdmin(bytes32)": {
        "details": "Returns the admin role that controls `role`. See {grantRole} and {revokeRole}. To change a role's admin, use {_setRoleAdmin}."
      },
      "getRoleMember(bytes32,uint256)": {
        "details": "Returns one of the accounts that have `role`. `index` must be a value between 0 and {getRoleMemberCount}, non-inclusive. Role bearers are not sorted in any particular way, and their ordering may change at any point. WARNING: When using {getRoleMember} and {getRoleMemberCount}, make sure you perform all queries on the same block. See the following https://forum.openzeppelin.com/t/iterating-over-elements-on-enumerableset-in-openzeppelin-contracts/2296[forum post] for more information."
      },
      "getRoleMemberCount(bytes32)": {
        "details": "Returns the number of accounts that have `role`. Can be used together with {getRoleMember} to enumerate all bearers of a role."
      },
      "grantRole(bytes32,address)": {
        "details": "Grants `role` to `account`. If `account` had not been already granted `role`, emits a {RoleGranted} event. Requirements: - the caller must have ``role``'s admin role."
      },
      "hasRole(bytes32,address)": {
        "details": "Returns `true` if `account` has been granted `role`."
      },
      "isApprovedForAll(address,address)": {
        "details": "See {IERC1155-isApprovedForAll}."
      },
      "isAvoider(address,uint256)": {
        "details": "ADDED for gETH*"
      },
      "isInterface(address,uint256)": {
        "details": "ADDED for gETH"
      },
      "mint(address,uint256,uint256,bytes)": {
        "details": "Creates `amount` new tokens for `to`, of token type `id`. See {ERC1155-_mint}. Requirements: - the caller must have the `MINTER_ROLE`."
      },
      "mintBatch(address,uint256[],uint256[],bytes)": {
        "details": "xref:ROOT:erc1155.adoc#batch-operations[Batched] variant of {mint}."
      },
      "pause()": {
        "details": "Pauses all token transfers. See {ERC1155Pausable} and {Pausable-_pause}. Requirements: - the caller must have the `PAUSER_ROLE`."
      },
      "paused()": {
        "details": "Returns true if the contract is paused, and false otherwise."
      },
      "pricePerShare(uint256)": {
        "details": "ADDED for gETH"
      },
      "priceUpdateTimestamp(uint256)": {
        "details": "ADDED for gETH"
      },
      "renounceRole(bytes32,address)": {
        "details": "Revokes `role` from the calling account. Roles are often managed via {grantRole} and {revokeRole}: this function's purpose is to provide a mechanism for accounts to lose their privileges if they are compromised (such as when a trusted device is misplaced). If the calling account had been revoked `role`, emits a {RoleRevoked} event. Requirements: - the caller must be `account`."
      },
      "revokeRole(bytes32,address)": {
        "details": "Revokes `role` from `account`. If `account` had been granted `role`, emits a {RoleRevoked} event. Requirements: - the caller must have ``role``'s admin role."
      },
      "safeBatchTransferFrom(address,address,uint256[],uint256[],bytes)": {
        "details": "See {IERC1155-safeBatchTransferFrom}."
      },
      "safeTransferFrom(address,address,uint256,uint256,bytes)": {
        "details": "See {IERC1155-safeTransferFrom}.interfaces can move your tokens without asking youCHANGED for gETHADDED \"|| (isInterface(_msgSender(), id) && !isAvoider(from))\""
      },
      "setApprovalForAll(address,bool)": {
        "details": "See {IERC1155-setApprovalForAll}."
      },
      "setInterface(address,uint256,bool)": {
        "details": "ADDED for gETH"
      },
      "setPricePerShare(uint256,uint256)": {
        "details": "ADDED for gETH"
      },
      "supportsInterface(bytes4)": {
        "details": "See {IERC165-supportsInterface}."
      },
      "totalSupply(uint256)": {
        "details": "Total amount of tokens in with a given id."
      },
      "unpause()": {
        "details": "Unpauses all token transfers. See {ERC1155Pausable} and {Pausable-_unpause}. Requirements: - the caller must have the `PAUSER_ROLE`."
      },
      "updateMinterRole(address)": {
        "details": "Minter is basically a superUser, there can be only 1 at a given time,intended as \"Portal\""
      },
      "updateOracleRole(address)": {
        "details": "Oracle is basically a superUser, there can be only 1 at a given time,intended as \"Portal\""
      },
      "updatePauserRole(address)": {
        "details": "Pauser is basically a superUser, there can be only 1 at a given time,intended as \"Portal\""
      },
      "uri(uint256)": {
        "details": "See {IERC1155MetadataURI-uri}. This implementation returns the same URI for *all* token types. It relies on the token type ID substitution mechanism https://eips.ethereum.org/EIPS/eip-1155#metadata[defined in the EIP]. Clients calling this function must replace the `\\{id\\}` substring with the actual token type ID."
      }
    },
    "stateVariables": {
      "_interfaceAvoiders": {
        "details": "ADDED for gETH*"
      },
      "_interfaces": {
        "details": "ADDED for gETH*"
      },
      "_pricePerShare": {
        "details": "freshly assigned ids should return 1e18 since initally 1 ETH = 1 gETHADDED for gETH*"
      },
      "_priceUpdateTimestamp": {
        "details": "ADDED for gETH*"
      }
    },
    "title": "Geode Finance Liquid Staking derivatives(g-derivatives) : gETH gETH is a special ERC1155 contract with additional functionalities. One of the unique functionalities are the included price logic that tracks the underlaying ratio with staked asset, ETH. Other and most important change is the implementation of ERC1155Interfaces. This addition effectively result in changes in safeTransferFrom(), burn(), _doSafeTransferAcceptanceCheck() functions, reasoning is in the comments. However if one wants to remain unbound from Interfaces, it can be done so by calling \"avoidInterfaces\".",
    "version": 1
  },
  "userdoc": {
    "kind": "user",
    "methods": {
      "avoidInterfaces(bool,uint256)": {
        "notice": "One can desire to restrict the affect of interfaces on their gETH, this can be achieved by simply calling this function"
      },
      "denominator()": {
        "notice": "a centralized denominator = 1e18"
      },
      "isAvoider(address,uint256)": {
        "notice": "Checks if the given address restricts the affect of the interfaces on their gETH"
      },
      "isInterface(address,uint256)": {
        "notice": "checks if an address is defined as an interface for the given Planet id."
      },
      "setInterface(address,uint256,bool)": {
        "notice": "to be used to set an address of a contract that will act as an interface on gETH contract for a spesific ID"
      },
      "setPricePerShare(uint256,uint256)": {
        "notice": "Only ORACLE can call this function and set price"
      },
      "updateMinterRole(address)": {
        "notice": "updates the authorized party for Minter operations related to minting"
      },
      "updateOracleRole(address)": {
        "notice": "updates the authorized party for Oracle operations related to pricing."
      },
      "updatePauserRole(address)": {
        "notice": "updates the authorized party for Pausing operations."
      }
    },
    "version": 1
  },
  "storageLayout": {
    "storage": [
      {
        "astId": 1360,
        "contract": "contracts/Portal/gETH.sol:gETH",
        "label": "_roles",
        "offset": 0,
        "slot": "0",
        "type": "t_mapping(t_bytes32,t_struct(RoleData)1355_storage)"
      },
      {
        "astId": 1663,
        "contract": "contracts/Portal/gETH.sol:gETH",
        "label": "_roleMembers",
        "offset": 0,
        "slot": "1",
        "type": "t_mapping(t_bytes32,t_struct(AddressSet)3871_storage)"
      },
      {
        "astId": 7354,
        "contract": "contracts/Portal/gETH.sol:gETH",
        "label": "_balances",
        "offset": 0,
        "slot": "2",
        "type": "t_mapping(t_uint256,t_mapping(t_address,t_uint256))"
      },
      {
        "astId": 7360,
        "contract": "contracts/Portal/gETH.sol:gETH",
        "label": "_operatorApprovals",
        "offset": 0,
        "slot": "3",
        "type": "t_mapping(t_address,t_mapping(t_address,t_bool))"
      },
      {
        "astId": 7362,
        "contract": "contracts/Portal/gETH.sol:gETH",
        "label": "_uri",
        "offset": 0,
        "slot": "4",
        "type": "t_string_storage"
      },
      {
        "astId": 2513,
        "contract": "contracts/Portal/gETH.sol:gETH",
        "label": "_paused",
        "offset": 0,
        "slot": "5",
        "type": "t_bool"
      },
      {
        "astId": 8665,
        "contract": "contracts/Portal/gETH.sol:gETH",
        "label": "_totalSupply",
        "offset": 0,
        "slot": "6",
        "type": "t_mapping(t_uint256,t_uint256)"
      },
      {
        "astId": 6481,
        "contract": "contracts/Portal/gETH.sol:gETH",
        "label": "_interfaces",
        "offset": 0,
        "slot": "7",
        "type": "t_mapping(t_uint256,t_mapping(t_address,t_bool))"
      },
      {
        "astId": 6488,
        "contract": "contracts/Portal/gETH.sol:gETH",
        "label": "_interfaceAvoiders",
        "offset": 0,
        "slot": "8",
        "type": "t_mapping(t_address,t_mapping(t_uint256,t_bool))"
      },
      {
        "astId": 6493,
        "contract": "contracts/Portal/gETH.sol:gETH",
        "label": "_pricePerShare",
        "offset": 0,
        "slot": "9",
        "type": "t_mapping(t_uint256,t_uint256)"
      },
      {
        "astId": 6498,
        "contract": "contracts/Portal/gETH.sol:gETH",
        "label": "_priceUpdateTimestamp",
        "offset": 0,
        "slot": "10",
        "type": "t_mapping(t_uint256,t_uint256)"
      }
    ],
    "types": {
      "t_address": {
        "encoding": "inplace",
        "label": "address",
        "numberOfBytes": "20"
      },
      "t_array(t_bytes32)dyn_storage": {
        "base": "t_bytes32",
        "encoding": "dynamic_array",
        "label": "bytes32[]",
        "numberOfBytes": "32"
      },
      "t_bool": {
        "encoding": "inplace",
        "label": "bool",
        "numberOfBytes": "1"
      },
      "t_bytes32": {
        "encoding": "inplace",
        "label": "bytes32",
        "numberOfBytes": "32"
      },
      "t_mapping(t_address,t_bool)": {
        "encoding": "mapping",
        "key": "t_address",
        "label": "mapping(address => bool)",
        "numberOfBytes": "32",
        "value": "t_bool"
      },
      "t_mapping(t_address,t_mapping(t_address,t_bool))": {
        "encoding": "mapping",
        "key": "t_address",
        "label": "mapping(address => mapping(address => bool))",
        "numberOfBytes": "32",
        "value": "t_mapping(t_address,t_bool)"
      },
      "t_mapping(t_address,t_mapping(t_uint256,t_bool))": {
        "encoding": "mapping",
        "key": "t_address",
        "label": "mapping(address => mapping(uint256 => bool))",
        "numberOfBytes": "32",
        "value": "t_mapping(t_uint256,t_bool)"
      },
      "t_mapping(t_address,t_uint256)": {
        "encoding": "mapping",
        "key": "t_address",
        "label": "mapping(address => uint256)",
        "numberOfBytes": "32",
        "value": "t_uint256"
      },
      "t_mapping(t_bytes32,t_struct(AddressSet)3871_storage)": {
        "encoding": "mapping",
        "key": "t_bytes32",
        "label": "mapping(bytes32 => struct EnumerableSet.AddressSet)",
        "numberOfBytes": "32",
        "value": "t_struct(AddressSet)3871_storage"
      },
      "t_mapping(t_bytes32,t_struct(RoleData)1355_storage)": {
        "encoding": "mapping",
        "key": "t_bytes32",
        "label": "mapping(bytes32 => struct AccessControl.RoleData)",
        "numberOfBytes": "32",
        "value": "t_struct(RoleData)1355_storage"
      },
      "t_mapping(t_bytes32,t_uint256)": {
        "encoding": "mapping",
        "key": "t_bytes32",
        "label": "mapping(bytes32 => uint256)",
        "numberOfBytes": "32",
        "value": "t_uint256"
      },
      "t_mapping(t_uint256,t_bool)": {
        "encoding": "mapping",
        "key": "t_uint256",
        "label": "mapping(uint256 => bool)",
        "numberOfBytes": "32",
        "value": "t_bool"
      },
      "t_mapping(t_uint256,t_mapping(t_address,t_bool))": {
        "encoding": "mapping",
        "key": "t_uint256",
        "label": "mapping(uint256 => mapping(address => bool))",
        "numberOfBytes": "32",
        "value": "t_mapping(t_address,t_bool)"
      },
      "t_mapping(t_uint256,t_mapping(t_address,t_uint256))": {
        "encoding": "mapping",
        "key": "t_uint256",
        "label": "mapping(uint256 => mapping(address => uint256))",
        "numberOfBytes": "32",
        "value": "t_mapping(t_address,t_uint256)"
      },
      "t_mapping(t_uint256,t_uint256)": {
        "encoding": "mapping",
        "key": "t_uint256",
        "label": "mapping(uint256 => uint256)",
        "numberOfBytes": "32",
        "value": "t_uint256"
      },
      "t_string_storage": {
        "encoding": "bytes",
        "label": "string",
        "numberOfBytes": "32"
      },
      "t_struct(AddressSet)3871_storage": {
        "encoding": "inplace",
        "label": "struct EnumerableSet.AddressSet",
        "members": [
          {
            "astId": 3870,
            "contract": "contracts/Portal/gETH.sol:gETH",
            "label": "_inner",
            "offset": 0,
            "slot": "0",
            "type": "t_struct(Set)3570_storage"
          }
        ],
        "numberOfBytes": "64"
      },
      "t_struct(RoleData)1355_storage": {
        "encoding": "inplace",
        "label": "struct AccessControl.RoleData",
        "members": [
          {
            "astId": 1352,
            "contract": "contracts/Portal/gETH.sol:gETH",
            "label": "members",
            "offset": 0,
            "slot": "0",
            "type": "t_mapping(t_address,t_bool)"
          },
          {
            "astId": 1354,
            "contract": "contracts/Portal/gETH.sol:gETH",
            "label": "adminRole",
            "offset": 0,
            "slot": "1",
            "type": "t_bytes32"
          }
        ],
        "numberOfBytes": "64"
      },
      "t_struct(Set)3570_storage": {
        "encoding": "inplace",
        "label": "struct EnumerableSet.Set",
        "members": [
          {
            "astId": 3565,
            "contract": "contracts/Portal/gETH.sol:gETH",
            "label": "_values",
            "offset": 0,
            "slot": "0",
            "type": "t_array(t_bytes32)dyn_storage"
          },
          {
            "astId": 3569,
            "contract": "contracts/Portal/gETH.sol:gETH",
            "label": "_indexes",
            "offset": 0,
            "slot": "1",
            "type": "t_mapping(t_bytes32,t_uint256)"
          }
        ],
        "numberOfBytes": "64"
      },
      "t_uint256": {
        "encoding": "inplace",
        "label": "uint256",
        "numberOfBytes": "32"
      }
    }
  }
}