{
  "address": "0xa8801Dd91C64abf03E71e9A9Ae67F6269e7187Cb",
  "abi": [
    {
      "inputs": [
        {
          "internalType": "string",
          "name": "uri",
          "type": "string"
        }
      ],
      "stateMutability": "nonpayable",
      "type": "constructor"
    },
    {
      "anonymous": false,
      "inputs": [
        {
          "indexed": true,
          "internalType": "address",
          "name": "account",
          "type": "address"
        },
        {
          "indexed": true,
          "internalType": "address",
          "name": "operator",
          "type": "address"
        },
        {
          "indexed": false,
          "internalType": "bool",
          "name": "approved",
          "type": "bool"
        }
      ],
      "name": "ApprovalForAll",
      "type": "event"
    },
    {
      "anonymous": false,
      "inputs": [
        {
          "indexed": true,
          "internalType": "address",
          "name": "newInterface",
          "type": "address"
        },
        {
          "indexed": false,
          "internalType": "uint256",
          "name": "id",
          "type": "uint256"
        },
        {
          "indexed": false,
          "internalType": "bool",
          "name": "isSet",
          "type": "bool"
        }
      ],
      "name": "InterfaceChanged",
      "type": "event"
    },
    {
      "anonymous": false,
      "inputs": [
        {
          "indexed": true,
          "internalType": "address",
          "name": "avoider",
          "type": "address"
        },
        {
          "indexed": false,
          "internalType": "bool",
          "name": "isAvoid",
          "type": "bool"
        }
      ],
      "name": "InterfacesAvoided",
      "type": "event"
    },
    {
      "anonymous": false,
      "inputs": [
        {
          "indexed": false,
          "internalType": "address",
          "name": "account",
          "type": "address"
        }
      ],
      "name": "Paused",
      "type": "event"
    },
    {
      "anonymous": false,
      "inputs": [
        {
          "indexed": false,
          "internalType": "uint256",
          "name": "id",
          "type": "uint256"
        },
        {
          "indexed": false,
          "internalType": "uint256",
          "name": "pricePerShare",
          "type": "uint256"
        },
        {
          "indexed": false,
          "internalType": "uint256",
          "name": "updateTimestamp",
          "type": "uint256"
        }
      ],
      "name": "PriceUpdated",
      "type": "event"
    },
    {
      "anonymous": false,
      "inputs": [
        {
          "indexed": true,
          "internalType": "bytes32",
          "name": "role",
          "type": "bytes32"
        },
        {
          "indexed": true,
          "internalType": "bytes32",
          "name": "previousAdminRole",
          "type": "bytes32"
        },
        {
          "indexed": true,
          "internalType": "bytes32",
          "name": "newAdminRole",
          "type": "bytes32"
        }
      ],
      "name": "RoleAdminChanged",
      "type": "event"
    },
    {
      "anonymous": false,
      "inputs": [
        {
          "indexed": true,
          "internalType": "bytes32",
          "name": "role",
          "type": "bytes32"
        },
        {
          "indexed": true,
          "internalType": "address",
          "name": "account",
          "type": "address"
        },
        {
          "indexed": true,
          "internalType": "address",
          "name": "sender",
          "type": "address"
        }
      ],
      "name": "RoleGranted",
      "type": "event"
    },
    {
      "anonymous": false,
      "inputs": [
        {
          "indexed": true,
          "internalType": "bytes32",
          "name": "role",
          "type": "bytes32"
        },
        {
          "indexed": true,
          "internalType": "address",
          "name": "account",
          "type": "address"
        },
        {
          "indexed": true,
          "internalType": "address",
          "name": "sender",
          "type": "address"
        }
      ],
      "name": "RoleRevoked",
      "type": "event"
    },
    {
      "anonymous": false,
      "inputs": [
        {
          "indexed": true,
          "internalType": "address",
          "name": "operator",
          "type": "address"
        },
        {
          "indexed": true,
          "internalType": "address",
          "name": "from",
          "type": "address"
        },
        {
          "indexed": true,
          "internalType": "address",
          "name": "to",
          "type": "address"
        },
        {
          "indexed": false,
          "internalType": "uint256[]",
          "name": "ids",
          "type": "uint256[]"
        },
        {
          "indexed": false,
          "internalType": "uint256[]",
          "name": "values",
          "type": "uint256[]"
        }
      ],
      "name": "TransferBatch",
      "type": "event"
    },
    {
      "anonymous": false,
      "inputs": [
        {
          "indexed": true,
          "internalType": "address",
          "name": "operator",
          "type": "address"
        },
        {
          "indexed": true,
          "internalType": "address",
          "name": "from",
          "type": "address"
        },
        {
          "indexed": true,
          "internalType": "address",
          "name": "to",
          "type": "address"
        },
        {
          "indexed": false,
          "internalType": "uint256",
          "name": "id",
          "type": "uint256"
        },
        {
          "indexed": false,
          "internalType": "uint256",
          "name": "value",
          "type": "uint256"
        }
      ],
      "name": "TransferSingle",
      "type": "event"
    },
    {
      "anonymous": false,
      "inputs": [
        {
          "indexed": false,
          "internalType": "string",
          "name": "value",
          "type": "string"
        },
        {
          "indexed": true,
          "internalType": "uint256",
          "name": "id",
          "type": "uint256"
        }
      ],
      "name": "URI",
      "type": "event"
    },
    {
      "anonymous": false,
      "inputs": [
        {
          "indexed": false,
          "internalType": "address",
          "name": "account",
          "type": "address"
        }
      ],
      "name": "Unpaused",
      "type": "event"
    },
    {
      "inputs": [],
      "name": "DEFAULT_ADMIN_ROLE",
      "outputs": [
        {
          "internalType": "bytes32",
          "name": "",
          "type": "bytes32"
        }
      ],
      "stateMutability": "view",
      "type": "function"
    },
    {
      "inputs": [],
      "name": "MINTER_ROLE",
      "outputs": [
        {
          "internalType": "bytes32",
          "name": "",
          "type": "bytes32"
        }
      ],
      "stateMutability": "view",
      "type": "function"
    },
    {
      "inputs": [],
      "name": "ORACLE_ROLE",
      "outputs": [
        {
          "internalType": "bytes32",
          "name": "",
          "type": "bytes32"
        }
      ],
      "stateMutability": "view",
      "type": "function"
    },
    {
      "inputs": [],
      "name": "PAUSER_ROLE",
      "outputs": [
        {
          "internalType": "bytes32",
          "name": "",
          "type": "bytes32"
        }
      ],
      "stateMutability": "view",
      "type": "function"
    },
    {
      "inputs": [
        {
          "internalType": "bool",
          "name": "isAvoid",
          "type": "bool"
        }
      ],
      "name": "avoidInterfaces",
      "outputs": [],
      "stateMutability": "nonpayable",
      "type": "function"
    },
    {
      "inputs": [
        {
          "internalType": "address",
          "name": "account",
          "type": "address"
        },
        {
          "internalType": "uint256",
          "name": "id",
          "type": "uint256"
        }
      ],
      "name": "balanceOf",
      "outputs": [
        {
          "internalType": "uint256",
          "name": "",
          "type": "uint256"
        }
      ],
      "stateMutability": "view",
      "type": "function"
    },
    {
      "inputs": [
        {
          "internalType": "address[]",
          "name": "accounts",
          "type": "address[]"
        },
        {
          "internalType": "uint256[]",
          "name": "ids",
          "type": "uint256[]"
        }
      ],
      "name": "balanceOfBatch",
      "outputs": [
        {
          "internalType": "uint256[]",
          "name": "",
          "type": "uint256[]"
        }
      ],
      "stateMutability": "view",
      "type": "function"
    },
    {
      "inputs": [
        {
          "internalType": "address",
          "name": "account",
          "type": "address"
        },
        {
          "internalType": "uint256",
          "name": "id",
          "type": "uint256"
        },
        {
          "internalType": "uint256",
          "name": "value",
          "type": "uint256"
        }
      ],
      "name": "burn",
      "outputs": [],
      "stateMutability": "nonpayable",
      "type": "function"
    },
    {
      "inputs": [
        {
          "internalType": "address",
          "name": "account",
          "type": "address"
        },
        {
          "internalType": "uint256[]",
          "name": "ids",
          "type": "uint256[]"
        },
        {
          "internalType": "uint256[]",
          "name": "values",
          "type": "uint256[]"
        }
      ],
      "name": "burnBatch",
      "outputs": [],
      "stateMutability": "nonpayable",
      "type": "function"
    },
    {
      "inputs": [],
      "name": "denominator",
      "outputs": [
        {
          "internalType": "uint256",
          "name": "",
          "type": "uint256"
        }
      ],
      "stateMutability": "view",
      "type": "function"
    },
    {
      "inputs": [
        {
          "internalType": "uint256",
          "name": "id",
          "type": "uint256"
        }
      ],
      "name": "exists",
      "outputs": [
        {
          "internalType": "bool",
          "name": "",
          "type": "bool"
        }
      ],
      "stateMutability": "view",
      "type": "function"
    },
    {
      "inputs": [
        {
          "internalType": "bytes32",
          "name": "role",
          "type": "bytes32"
        }
      ],
      "name": "getRoleAdmin",
      "outputs": [
        {
          "internalType": "bytes32",
          "name": "",
          "type": "bytes32"
        }
      ],
      "stateMutability": "view",
      "type": "function"
    },
    {
      "inputs": [
        {
          "internalType": "bytes32",
          "name": "role",
          "type": "bytes32"
        },
        {
          "internalType": "uint256",
          "name": "index",
          "type": "uint256"
        }
      ],
      "name": "getRoleMember",
      "outputs": [
        {
          "internalType": "address",
          "name": "",
          "type": "address"
        }
      ],
      "stateMutability": "view",
      "type": "function"
    },
    {
      "inputs": [
        {
          "internalType": "bytes32",
          "name": "role",
          "type": "bytes32"
        }
      ],
      "name": "getRoleMemberCount",
      "outputs": [
        {
          "internalType": "uint256",
          "name": "",
          "type": "uint256"
        }
      ],
      "stateMutability": "view",
      "type": "function"
    },
    {
      "inputs": [
        {
          "internalType": "bytes32",
          "name": "role",
          "type": "bytes32"
        },
        {
          "internalType": "address",
          "name": "account",
          "type": "address"
        }
      ],
      "name": "grantRole",
      "outputs": [],
      "stateMutability": "nonpayable",
      "type": "function"
    },
    {
      "inputs": [
        {
          "internalType": "bytes32",
          "name": "role",
          "type": "bytes32"
        },
        {
          "internalType": "address",
          "name": "account",
          "type": "address"
        }
      ],
      "name": "hasRole",
      "outputs": [
        {
          "internalType": "bool",
          "name": "",
          "type": "bool"
        }
      ],
      "stateMutability": "view",
      "type": "function"
    },
    {
      "inputs": [
        {
          "internalType": "address",
          "name": "account",
          "type": "address"
        },
        {
          "internalType": "address",
          "name": "operator",
          "type": "address"
        }
      ],
      "name": "isApprovedForAll",
      "outputs": [
        {
          "internalType": "bool",
          "name": "",
          "type": "bool"
        }
      ],
      "stateMutability": "view",
      "type": "function"
    },
    {
      "inputs": [
        {
          "internalType": "address",
          "name": "account",
          "type": "address"
        }
      ],
      "name": "isAvoider",
      "outputs": [
        {
          "internalType": "bool",
          "name": "",
          "type": "bool"
        }
      ],
      "stateMutability": "view",
      "type": "function"
    },
    {
      "inputs": [
        {
          "internalType": "address",
          "name": "_interface",
          "type": "address"
        },
        {
          "internalType": "uint256",
          "name": "id",
          "type": "uint256"
        }
      ],
      "name": "isInterface",
      "outputs": [
        {
          "internalType": "bool",
          "name": "",
          "type": "bool"
        }
      ],
      "stateMutability": "view",
      "type": "function"
    },
    {
      "inputs": [
        {
          "internalType": "address",
          "name": "to",
          "type": "address"
        },
        {
          "internalType": "uint256",
          "name": "id",
          "type": "uint256"
        },
        {
          "internalType": "uint256",
          "name": "amount",
          "type": "uint256"
        },
        {
          "internalType": "bytes",
          "name": "data",
          "type": "bytes"
        }
      ],
      "name": "mint",
      "outputs": [],
      "stateMutability": "nonpayable",
      "type": "function"
    },
    {
      "inputs": [
        {
          "internalType": "address",
          "name": "to",
          "type": "address"
        },
        {
          "internalType": "uint256[]",
          "name": "ids",
          "type": "uint256[]"
        },
        {
          "internalType": "uint256[]",
          "name": "amounts",
          "type": "uint256[]"
        },
        {
          "internalType": "bytes",
          "name": "data",
          "type": "bytes"
        }
      ],
      "name": "mintBatch",
      "outputs": [],
      "stateMutability": "nonpayable",
      "type": "function"
    },
    {
      "inputs": [],
      "name": "name",
      "outputs": [
        {
          "internalType": "string",
          "name": "",
          "type": "string"
        }
      ],
      "stateMutability": "view",
      "type": "function"
    },
    {
      "inputs": [],
      "name": "pause",
      "outputs": [],
      "stateMutability": "nonpayable",
      "type": "function"
    },
    {
      "inputs": [],
      "name": "paused",
      "outputs": [
        {
          "internalType": "bool",
          "name": "",
          "type": "bool"
        }
      ],
      "stateMutability": "view",
      "type": "function"
    },
    {
      "inputs": [
        {
          "internalType": "uint256",
          "name": "id",
          "type": "uint256"
        }
      ],
      "name": "pricePerShare",
      "outputs": [
        {
          "internalType": "uint256",
          "name": "",
          "type": "uint256"
        }
      ],
      "stateMutability": "view",
      "type": "function"
    },
    {
      "inputs": [
        {
          "internalType": "uint256",
          "name": "id",
          "type": "uint256"
        }
      ],
      "name": "priceUpdateTimestamp",
      "outputs": [
        {
          "internalType": "uint256",
          "name": "",
          "type": "uint256"
        }
      ],
      "stateMutability": "view",
      "type": "function"
    },
    {
      "inputs": [
        {
          "internalType": "bytes32",
          "name": "role",
          "type": "bytes32"
        },
        {
          "internalType": "address",
          "name": "account",
          "type": "address"
        }
      ],
      "name": "renounceRole",
      "outputs": [],
      "stateMutability": "nonpayable",
      "type": "function"
    },
    {
      "inputs": [
        {
          "internalType": "bytes32",
          "name": "role",
          "type": "bytes32"
        },
        {
          "internalType": "address",
          "name": "account",
          "type": "address"
        }
      ],
      "name": "revokeRole",
      "outputs": [],
      "stateMutability": "nonpayable",
      "type": "function"
    },
    {
      "inputs": [
        {
          "internalType": "address",
          "name": "from",
          "type": "address"
        },
        {
          "internalType": "address",
          "name": "to",
          "type": "address"
        },
        {
          "internalType": "uint256[]",
          "name": "ids",
          "type": "uint256[]"
        },
        {
          "internalType": "uint256[]",
          "name": "amounts",
          "type": "uint256[]"
        },
        {
          "internalType": "bytes",
          "name": "data",
          "type": "bytes"
        }
      ],
      "name": "safeBatchTransferFrom",
      "outputs": [],
      "stateMutability": "nonpayable",
      "type": "function"
    },
    {
      "inputs": [
        {
          "internalType": "address",
          "name": "from",
          "type": "address"
        },
        {
          "internalType": "address",
          "name": "to",
          "type": "address"
        },
        {
          "internalType": "uint256",
          "name": "id",
          "type": "uint256"
        },
        {
          "internalType": "uint256",
          "name": "amount",
          "type": "uint256"
        },
        {
          "internalType": "bytes",
          "name": "data",
          "type": "bytes"
        }
      ],
      "name": "safeTransferFrom",
      "outputs": [],
      "stateMutability": "nonpayable",
      "type": "function"
    },
    {
      "inputs": [
        {
          "internalType": "address",
          "name": "operator",
          "type": "address"
        },
        {
          "internalType": "bool",
          "name": "approved",
          "type": "bool"
        }
      ],
      "name": "setApprovalForAll",
      "outputs": [],
      "stateMutability": "nonpayable",
      "type": "function"
    },
    {
      "inputs": [
        {
          "internalType": "address",
          "name": "_interface",
          "type": "address"
        },
        {
          "internalType": "uint256",
          "name": "id",
          "type": "uint256"
        },
        {
          "internalType": "bool",
          "name": "isSet",
          "type": "bool"
        }
      ],
      "name": "setInterface",
      "outputs": [],
      "stateMutability": "nonpayable",
      "type": "function"
    },
    {
      "inputs": [
        {
          "internalType": "uint256",
          "name": "price",
          "type": "uint256"
        },
        {
          "internalType": "uint256",
          "name": "id",
          "type": "uint256"
        }
      ],
      "name": "setPricePerShare",
      "outputs": [],
      "stateMutability": "nonpayable",
      "type": "function"
    },
    {
      "inputs": [
        {
          "internalType": "bytes4",
          "name": "interfaceId",
          "type": "bytes4"
        }
      ],
      "name": "supportsInterface",
      "outputs": [
        {
          "internalType": "bool",
          "name": "",
          "type": "bool"
        }
      ],
      "stateMutability": "view",
      "type": "function"
    },
    {
      "inputs": [],
      "name": "symbol",
      "outputs": [
        {
          "internalType": "string",
          "name": "",
          "type": "string"
        }
      ],
      "stateMutability": "view",
      "type": "function"
    },
    {
      "inputs": [
        {
          "internalType": "uint256",
          "name": "id",
          "type": "uint256"
        }
      ],
      "name": "totalSupply",
      "outputs": [
        {
          "internalType": "uint256",
          "name": "",
          "type": "uint256"
        }
      ],
      "stateMutability": "view",
      "type": "function"
    },
    {
      "inputs": [],
      "name": "unpause",
      "outputs": [],
      "stateMutability": "nonpayable",
      "type": "function"
    },
    {
      "inputs": [
        {
          "internalType": "address",
          "name": "Minter",
          "type": "address"
        }
      ],
      "name": "updateMinterRole",
      "outputs": [],
      "stateMutability": "nonpayable",
      "type": "function"
    },
    {
      "inputs": [
        {
          "internalType": "address",
          "name": "Oracle",
          "type": "address"
        }
      ],
      "name": "updateOracleRole",
      "outputs": [],
      "stateMutability": "nonpayable",
      "type": "function"
    },
    {
      "inputs": [
        {
          "internalType": "address",
          "name": "Pauser",
          "type": "address"
        }
      ],
      "name": "updatePauserRole",
      "outputs": [],
      "stateMutability": "nonpayable",
      "type": "function"
    },
    {
      "inputs": [
        {
          "internalType": "uint256",
          "name": "",
          "type": "uint256"
        }
      ],
      "name": "uri",
      "outputs": [
        {
          "internalType": "string",
          "name": "",
          "type": "string"
        }
      ],
      "stateMutability": "view",
      "type": "function"
    }
  ],
  "transactionHash": "0x632e5247859dc6fdbb4caa0ed8367b80d61d2204b744e34a35a2bacec248a545",
  "args": [
    "https://api.geode.fi/geth"
  ],
  "numDeployments": 1,
  "solcInputHash": "272bf9207e57ad6a3c857a71f42aa98e",
  "bytecode": "0x60806040523480156200001157600080fd5b506040516200384b3803806200384b8339810160408190526200003491620002ff565b80806200004181620000e5565b506005805460ff1916905562000059600033620000fe565b620000857f9f2df0fed2c77648de5860a4cc508cd0818c85b8b8a1ab4ceeef8d981c8956a633620000fe565b620000b17f65d7a28e3265b37a6474929f336521b332c1681b933f6cb9f3376673440d862a33620000fe565b50620000de7f68e79a7bf1e0bc45d0a330c573bc367f9cf464fd326078812f301165fbda4ef133620000fe565b506200042e565b8051620000fa90600490602084019062000259565b5050565b620000fa82826200011b82826200014760201b620011b21760201c565b60008281526001602090815260409091206200014291839062001236620001e7821b17901c565b505050565b6000828152602081815260408083206001600160a01b038516845290915290205460ff16620000fa576000828152602081815260408083206001600160a01b03851684529091529020805460ff19166001179055620001a33390565b6001600160a01b0316816001600160a01b0316837f2f8788117e7eff1d82e926ec794901d17c78024a50270940304540a733656f0d60405160405180910390a45050565b6000620001fe836001600160a01b03841662000207565b90505b92915050565b6000818152600183016020526040812054620002505750815460018181018455600084815260208082209093018490558454848252828601909352604090209190915562000201565b50600062000201565b8280546200026790620003db565b90600052602060002090601f0160209004810192826200028b5760008555620002d6565b82601f10620002a657805160ff1916838001178555620002d6565b82800160010185558215620002d6579182015b82811115620002d6578251825591602001919060010190620002b9565b50620002e4929150620002e8565b5090565b5b80821115620002e45760008155600101620002e9565b600060208083850312156200031357600080fd5b82516001600160401b03808211156200032b57600080fd5b818501915085601f8301126200034057600080fd5b81518181111562000355576200035562000418565b604051601f8201601f19908116603f0116810190838211818310171562000380576200038062000418565b8160405282815288868487010111156200039957600080fd5b600093505b82841015620003bd57848401860151818501870152928501926200039e565b82841115620003cf5760008684830101525b98975050505050505050565b600181811c90821680620003f057607f821691505b602082108114156200041257634e487b7160e01b600052602260045260246000fd5b50919050565b634e487b7160e01b600052604160045260246000fd5b61340d806200043e6000396000f3fe608060405234801561001057600080fd5b50600436106102525760003560e01c8063908d67ed11610146578063bd85b039116100c3578063e985e9c511610087578063e985e9c51461059d578063f242432a146105d9578063f5298aca146105ec578063f759cc3b146105ff578063f8ae49b41461061f578063fcd295e31461063257600080fd5b8063bd85b0391461052d578063ca15c8731461054d578063d539139314610560578063d547741f14610575578063e63ab1e91461058857600080fd5b80639ec0f8041161010a5780639ec0f804146104c0578063a217fddf146104d3578063a22cb465146104db578063b716251b146104ee578063b85835641461050157600080fd5b8063908d67ed1461044957806391d148541461046957806395d89b411461047c57806396ce07951461049f57806397e86e90146104ad57600080fd5b80632f2ff15d116101d45780635c975abb116101985780635c975abb146103e55780636b20c454146103f0578063731133e9146104035780638456cb59146104165780639010d07c1461041e57600080fd5b80632f2ff15d1461037557806336568abe146103885780633f4ba83a1461039b5780634e1273f4146103a35780634f558e79146103c357600080fd5b80630e89341c1161021b5780630e89341c146103065780631f7fdffa1461031957806322af59971461032c578063248a9ca31461033f5780632eb2c2d61461036257600080fd5b8062fdd58e1461025757806301ffc9a71461027d57806306fdde03146102a057806307e2cea5146102dc5780630b1f736b146102f1575b600080fd5b61026a6102653660046129a1565b610645565b6040519081526020015b60405180910390f35b61029061028b366004612bd9565b6106e0565b6040519015158152602001610274565b6102cf6040518060400160405280601081526020016f08ecadec8ca40a6e8c2d6cac8408aa8960831b81525081565b6040516102749190612dd3565b61026a60008051602061337883398151915281565b6103046102ff36600461270d565b6106eb565b005b6102cf610314366004612b7b565b610782565b6103046103273660046128de565b610816565b61030461033a366004612bb7565b61085c565b61026a61034d366004612b7b565b60009081526020819052604090206001015490565b61030461037036600461275b565b61097c565b610304610383366004612b94565b6109c8565b610304610396366004612b94565b6109f3565b610304610a71565b6103b66103b1366004612a8f565b610b05565b6040516102749190612d92565b6102906103d1366004612b7b565b600090815260066020526040902054151590565b60055460ff16610290565b6103046103fe36600461286a565b610c2f565b610304610411366004612a3a565b610c72565b610304610cb2565b61043161042c366004612bb7565b610d44565b6040516001600160a01b039091168152602001610274565b61026a610457366004612b7b565b6000908152600a602052604090205490565b610290610477366004612b94565b610d63565b6102cf604051806040016040528060048152602001630ce8aa8960e31b81525081565b670de0b6b3a764000061026a565b6103046104bb36600461270d565b610d8c565b6103046104ce3660046129cb565b610e20565b61026a600081565b6103046104e9366004612977565b610f3c565b6103046104fc366004612b60565b610f47565b61029061050f36600461270d565b6001600160a01b031660009081526008602052604090205460ff1690565b61026a61053b366004612b7b565b60009081526006602052604090205490565b61026a61055b366004612b7b565b610f9c565b61026a6000805160206133b883398151915281565b610304610583366004612b94565b610fb3565b61026a60008051602061339883398151915281565b6102906105ab366004612728565b6001600160a01b03918216600090815260036020908152604080832093909416825291909152205460ff1690565b6103046105e7366004612805565b610fd9565b6103046105fa366004612a07565b611053565b61026a61060d366004612b7b565b60009081526009602052604090205490565b61030461062d36600461270d565b6110cb565b6102906106403660046129a1565b61115f565b60006001600160a01b0383166106b55760405162461bcd60e51b815260206004820152602a60248201527f455243313135353a2061646472657373207a65726f206973206e6f742061207660448201526930b634b21037bbb732b960b11b60648201526084015b60405180910390fd5b5060008181526002602090815260408083206001600160a01b03861684529091529020545b92915050565b60006106da8261124b565b61070360008051602061339883398151915233610d63565b61074f5760405162461bcd60e51b815260206004820152601b60248201527f674554483a206d7573742068617665205041555345525f524f4c45000000000060448201526064016106ac565b610767600080516020613398833981519152336109f3565b61077f6000805160206133988339815191528261128b565b50565b606060048054610791906131e0565b80601f01602080910402602001604051908101604052809291908181526020018280546107bd906131e0565b801561080a5780601f106107df5761010080835404028352916020019161080a565b820191906000526020600020905b8154815290600101906020018083116107ed57829003601f168201915b50505050509050919050565b61082e6000805160206133b883398151915233610d63565b61084a5760405162461bcd60e51b81526004016106ac90612fb1565b61085684848484611295565b50505050565b61087460008051602061337883398151915233610d63565b6108c05760405162461bcd60e51b815260206004820152601d60248201527f674554483a206d7573742068617665204f5241434c4520746f2073657400000060448201526064016106ac565b8061091c5760405162461bcd60e51b815260206004820152602660248201527f674554483a20707269636520717565727920666f7220746865207a65726f206160448201526564647265737360d01b60648201526084016106ac565b6000818152600960209081526040808320859055600a825291829020429081905582518481529182018590528183015290517f15819dd2fd9f6418b142e798d08a18d0bf06ea368f4480b7b0d3f75bd966bc489181900360600190a15050565b6001600160a01b038516331480610998575061099885336105ab565b6109b45760405162461bcd60e51b81526004016106ac90612de6565b6109c185858585856113f0565b5050505050565b6000828152602081905260409020600101546109e4813361159d565b6109ee8383611601565b505050565b6001600160a01b0381163314610a635760405162461bcd60e51b815260206004820152602f60248201527f416363657373436f6e74726f6c3a2063616e206f6e6c792072656e6f756e636560448201526e103937b632b9903337b91039b2b63360891b60648201526084016106ac565b610a6d8282611623565b5050565b610a8960008051602061339883398151915233610d63565b610afb5760405162461bcd60e51b815260206004820152603b60248201527f455243313135355072657365744d696e7465725061757365723a206d7573742060448201527f686176652070617573657220726f6c6520746f20756e7061757365000000000060648201526084016106ac565b610b03611645565b565b60608151835114610b6a5760405162461bcd60e51b815260206004820152602960248201527f455243313135353a206163636f756e747320616e6420696473206c656e677468604482015268040dad2e6dac2e8c6d60bb1b60648201526084016106ac565b6000835167ffffffffffffffff811115610b8657610b866132a5565b604051908082528060200260200182016040528015610baf578160200160208202803683370190505b50905060005b8451811015610c2757610bfa858281518110610bd357610bd361328f565b6020026020010151858381518110610bed57610bed61328f565b6020026020010151610645565b828281518110610c0c57610c0c61328f565b6020908102919091010152610c2081613248565b9050610bb5565b509392505050565b6001600160a01b038316331480610c4b5750610c4b83336105ab565b610c675760405162461bcd60e51b81526004016106ac90612de6565b6109ee8383836116d8565b610c8a6000805160206133b883398151915233610d63565b610ca65760405162461bcd60e51b81526004016106ac90612fb1565b61085684848484611877565b610cca60008051602061339883398151915233610d63565b610d3c5760405162461bcd60e51b815260206004820152603960248201527f455243313135355072657365744d696e7465725061757365723a206d7573742060448201527f686176652070617573657220726f6c6520746f2070617573650000000000000060648201526084016106ac565b610b03611962565b6000828152600160205260408120610d5c90836119dd565b9392505050565b6000918252602082815260408084206001600160a01b0393909316845291905290205460ff1690565b610da46000805160206133b883398151915233610d63565b610df05760405162461bcd60e51b815260206004820152601b60248201527f674554483a206d7573742068617665204d494e5445525f524f4c45000000000060448201526064016106ac565b610e086000805160206133b8833981519152336109f3565b61077f6000805160206133b88339815191528261128b565b610e386000805160206133b883398151915233610d63565b610e845760405162461bcd60e51b815260206004820152601b60248201527f674554483a206d7573742068617665204d494e5445525f524f4c45000000000060448201526064016106ac565b6001600160a01b0383163b610ee75760405162461bcd60e51b815260206004820152602360248201527f674554483a205f696e74657266616365206d757374206265206120636f6e74726044820152621858dd60ea1b60648201526084016106ac565b610ef28383836119e9565b6040805183815282151560208201526001600160a01b038516917f7da91fcb8c7796fb7d8e6b517641dbbe436fff55f5faab2a1c161c7d83bdbc46910160405180910390a2505050565b610a6d338383611a45565b33600081815260086020908152604091829020805460ff191685151590811790915591519182527f3e0d3abf73fe9717a51176aeb16c5ab0a510932f4a8de7b81aacab4492aac2ca910160405180910390a250565b60008181526001602052604081206106da90611b26565b600082815260208190526040902060010154610fcf813361159d565b6109ee8383611623565b6001600160a01b038516331480610ff55750610ff585336105ab565b8061102a5750611005338461115f565b801561102a57506001600160a01b03851660009081526008602052604090205460ff16155b6110465760405162461bcd60e51b81526004016106ac90612ec1565b6109c18585858585611b30565b6001600160a01b03831633148061106f575061106f83336105ab565b806110a4575061107f338361115f565b80156110a457506001600160a01b03831660009081526008602052604090205460ff16155b6110c05760405162461bcd60e51b81526004016106ac90612ec1565b6109ee838383611c6c565b6110e360008051602061337883398151915233610d63565b61112f5760405162461bcd60e51b815260206004820152601b60248201527f674554483a206d7573742068617665204f5241434c455f524f4c45000000000060448201526064016106ac565b611147600080516020613378833981519152336109f3565b61077f6000805160206133788339815191528261128b565b60006001600160a01b0383166111875760405162461bcd60e51b81526004016106ac90613058565b5060009081526007602090815260408083206001600160a01b03949094168352929052205460ff1690565b6111bc8282610d63565b610a6d576000828152602081815260408083206001600160a01b03851684529091529020805460ff191660011790556111f23390565b6001600160a01b0316816001600160a01b0316837f2f8788117e7eff1d82e926ec794901d17c78024a50270940304540a733656f0d60405160405180910390a45050565b6000610d5c836001600160a01b038416611d88565b60006001600160e01b03198216636cdb3d1360e11b148061127c57506001600160e01b031982166303a24d0760e21b145b806106da57506106da82611dd7565b610a6d8282611601565b6001600160a01b0384166112bb5760405162461bcd60e51b81526004016106ac906130ea565b81518351146112dc5760405162461bcd60e51b81526004016106ac906130a2565b336112ec81600087878787611dfc565b60005b84518110156113885783818151811061130a5761130a61328f565b6020026020010151600260008784815181106113285761132861328f565b602002602001015181526020019081526020016000206000886001600160a01b03166001600160a01b031681526020019081526020016000206000828254611370919061314f565b9091555081905061138081613248565b9150506112ef565b50846001600160a01b031660006001600160a01b0316826001600160a01b03167f4a39dc06d4c0dbc64b70af90fd698a233a518aa5d07e595d983b8c0526c8f7fb87876040516113d9929190612da5565b60405180910390a46109c181600087878787611e0a565b81518351146114115760405162461bcd60e51b81526004016106ac906130a2565b6001600160a01b0384166114375760405162461bcd60e51b81526004016106ac90612f29565b33611446818787878787611dfc565b60005b845181101561152f5760008582815181106114665761146661328f565b6020026020010151905060008583815181106114845761148461328f565b60209081029190910181015160008481526002835260408082206001600160a01b038e1683529093529190912054909150818110156114d55760405162461bcd60e51b81526004016106ac9061300e565b60008381526002602090815260408083206001600160a01b038e8116855292528083208585039055908b1682528120805484929061151490849061314f565b925050819055505050508061152890613248565b9050611449565b50846001600160a01b0316866001600160a01b0316826001600160a01b03167f4a39dc06d4c0dbc64b70af90fd698a233a518aa5d07e595d983b8c0526c8f7fb878760405161157f929190612da5565b60405180910390a4611595818787878787611e0a565b505050505050565b6115a78282610d63565b610a6d576115bf816001600160a01b03166014611f75565b6115ca836020611f75565b6040516020016115db929190612c7a565b60408051601f198184030181529082905262461bcd60e51b82526106ac91600401612dd3565b61160b82826111b2565b60008281526001602052604090206109ee9082611236565b61162d8282612111565b60008281526001602052604090206109ee9082612176565b60055460ff1661168e5760405162461bcd60e51b815260206004820152601460248201527314185d5cd8589b194e881b9bdd081c185d5cd95960621b60448201526064016106ac565b6005805460ff191690557f5db9ee0a495bf2e6ff9c91a7834c1ba4fdd244a5e8aa4e537bd38aeae4b073aa335b6040516001600160a01b03909116815260200160405180910390a1565b6001600160a01b0383166116fe5760405162461bcd60e51b81526004016106ac90612f6e565b805182511461171f5760405162461bcd60e51b81526004016106ac906130a2565b600033905061174281856000868660405180602001604052806000815250611dfc565b60005b835181101561180a5760008482815181106117625761176261328f565b6020026020010151905060008483815181106117805761178061328f565b60209081029190910181015160008481526002835260408082206001600160a01b038c1683529093529190912054909150818110156117d15760405162461bcd60e51b81526004016106ac90612e7d565b60009283526002602090815260408085206001600160a01b038b168652909152909220910390558061180281613248565b915050611745565b5060006001600160a01b0316846001600160a01b0316826001600160a01b03167f4a39dc06d4c0dbc64b70af90fd698a233a518aa5d07e595d983b8c0526c8f7fb868660405161185b929190612da5565b60405180910390a4604080516020810190915260009052610856565b6001600160a01b03841661189d5760405162461bcd60e51b81526004016106ac906130ea565b3360006118a98561218b565b905060006118b68561218b565b90506118c783600089858589611dfc565b60008681526002602090815260408083206001600160a01b038b168452909152812080548792906118f990849061314f565b909155505060408051878152602081018790526001600160a01b03808a1692600092918716917fc3d58168c5ae7397731d063d5bbf3d657854427343f4c083240f7aacaa2d0f62910160405180910390a4611959836000898989896121d6565b50505050505050565b60055460ff16156119a85760405162461bcd60e51b815260206004820152601060248201526f14185d5cd8589b194e881c185d5cd95960821b60448201526064016106ac565b6005805460ff191660011790557f62e78cea01bee320cd4e420270b5ea74000d11b0c9f74754ebdbfc544b05a2586116bb3390565b6000610d5c83836122b5565b6001600160a01b038316611a0f5760405162461bcd60e51b81526004016106ac90613058565b60009182526007602090815260408084206001600160a01b03959095168452939052919020805460ff1916911515919091179055565b816001600160a01b0316836001600160a01b03161415611ab95760405162461bcd60e51b815260206004820152602960248201527f455243313135353a2073657474696e6720617070726f76616c20737461747573604482015268103337b91039b2b63360b91b60648201526084016106ac565b6001600160a01b03838116600081815260036020908152604080832094871680845294825291829020805460ff191686151590811790915591519182527f17307eab39ab6107e8899845ad3d59bd9653f200f220920489ca2b5937696c31910160405180910390a3505050565b60006106da825490565b6001600160a01b038416611b565760405162461bcd60e51b81526004016106ac90612f29565b336000611b628561218b565b90506000611b6f8561218b565b9050611b7f838989858589611dfc565b60008681526002602090815260408083206001600160a01b038c16845290915290205485811015611bc25760405162461bcd60e51b81526004016106ac9061300e565b60008781526002602090815260408083206001600160a01b038d8116855292528083208985039055908a16825281208054889290611c0190849061314f565b909155505060408051888152602081018890526001600160a01b03808b16928c821692918816917fc3d58168c5ae7397731d063d5bbf3d657854427343f4c083240f7aacaa2d0f62910160405180910390a4611c61848a8a8a8a8a6121d6565b505050505050505050565b6001600160a01b038316611c925760405162461bcd60e51b81526004016106ac90612f6e565b336000611c9e8461218b565b90506000611cab8461218b565b9050611ccb83876000858560405180602001604052806000815250611dfc565b60008581526002602090815260408083206001600160a01b038a16845290915290205484811015611d0e5760405162461bcd60e51b81526004016106ac90612e7d565b60008681526002602090815260408083206001600160a01b038b81168086529184528285208a8703905582518b81529384018a90529092908816917fc3d58168c5ae7397731d063d5bbf3d657854427343f4c083240f7aacaa2d0f62910160405180910390a4604080516020810190915260009052611959565b6000818152600183016020526040812054611dcf575081546001818101845560008481526020808220909301849055845484825282860190935260409020919091556106da565b5060006106da565b60006001600160e01b03198216635a05180f60e01b14806106da57506106da826122df565b611595868686868686612314565b6001600160a01b0384163b156115955760405163bc197c8160e01b81526001600160a01b0385169063bc197c8190611e4e9089908990889088908890600401612cef565b602060405180830381600087803b158015611e6857600080fd5b505af1925050508015611e98575060408051601f3d908101601f19168201909252611e9591810190612bf6565b60015b611f4557611ea46132bb565b806308c379a01415611ede5750611eb96132d7565b80611ec45750611ee0565b8060405162461bcd60e51b81526004016106ac9190612dd3565b505b60405162461bcd60e51b815260206004820152603460248201527f455243313135353a207472616e7366657220746f206e6f6e20455243313135356044820152732932b1b2b4bb32b91034b6b83632b6b2b73a32b960611b60648201526084016106ac565b6001600160e01b0319811663bc197c8160e01b146119595760405162461bcd60e51b81526004016106ac90612e35565b60606000611f84836002613167565b611f8f90600261314f565b67ffffffffffffffff811115611fa757611fa76132a5565b6040519080825280601f01601f191660200182016040528015611fd1576020820181803683370190505b509050600360fc1b81600081518110611fec57611fec61328f565b60200101906001600160f81b031916908160001a905350600f60fb1b8160018151811061201b5761201b61328f565b60200101906001600160f81b031916908160001a905350600061203f846002613167565b61204a90600161314f565b90505b60018111156120c2576f181899199a1a9b1b9c1cb0b131b232b360811b85600f166010811061207e5761207e61328f565b1a60f81b8282815181106120945761209461328f565b60200101906001600160f81b031916908160001a90535060049490941c936120bb816131c9565b905061204d565b508315610d5c5760405162461bcd60e51b815260206004820181905260248201527f537472696e67733a20686578206c656e67746820696e73756666696369656e7460448201526064016106ac565b61211b8282610d63565b15610a6d576000828152602081815260408083206001600160a01b0385168085529252808320805460ff1916905551339285917ff6391f5c32d9c69d2a47ea670b442974b53935d1edc7fd64eb21e047a839171b9190a45050565b6000610d5c836001600160a01b03841661249b565b604080516001808252818301909252606091600091906020808301908036833701905050905082816000815181106121c5576121c561328f565b602090810291909101015292915050565b6001600160a01b0384163b151580156121f657506121f4868461115f565b155b156115955760405163f23a6e6160e01b81526001600160a01b0385169063f23a6e619061222f9089908990889088908890600401612d4d565b602060405180830381600087803b15801561224957600080fd5b505af1925050508015612279575060408051601f3d908101601f1916820190925261227691810190612bf6565b60015b61228557611ea46132bb565b6001600160e01b0319811663f23a6e6160e01b146119595760405162461bcd60e51b81526004016106ac90612e35565b60008260000182815481106122cc576122cc61328f565b9060005260206000200154905092915050565b60006001600160e01b03198216637965db0b60e01b14806106da57506301ffc9a760e01b6001600160e01b03198316146106da565b61232286868686868661258e565b6001600160a01b0385166123a95760005b83518110156123a75782818151811061234e5761234e61328f565b60200260200101516006600086848151811061236c5761236c61328f565b602002602001015181526020019081526020016000206000828254612391919061314f565b909155506123a0905081613248565b9050612333565b505b6001600160a01b0384166115955760005b83518110156119595760008482815181106123d7576123d761328f565b6020026020010151905060008483815181106123f5576123f561328f565b60200260200101519050600060066000848152602001908152602001600020549050818110156124785760405162461bcd60e51b815260206004820152602860248201527f455243313135353a206275726e20616d6f756e74206578636565647320746f74604482015267616c537570706c7960c01b60648201526084016106ac565b6000928352600660205260409092209103905561249481613248565b90506123ba565b600081815260018301602052604081205480156125845760006124bf600183613186565b85549091506000906124d390600190613186565b90508181146125385760008660000182815481106124f3576124f361328f565b90600052602060002001549050808760000184815481106125165761251661328f565b6000918252602080832090910192909255918252600188019052604090208390555b855486908061254957612549613279565b6001900381819060005260206000200160009055905585600101600086815260200190815260200160002060009055600193505050506106da565b60009150506106da565b60055460ff16156115955760405162461bcd60e51b815260206004820152602c60248201527f455243313135355061757361626c653a20746f6b656e207472616e736665722060448201526b1dda1a5b19481c185d5cd95960a21b60648201526084016106ac565b80356001600160a01b038116811461260d57600080fd5b919050565b600082601f83011261262357600080fd5b813560206126308261312b565b60405161263d828261321b565b8381528281019150858301600585901b8701840188101561265d57600080fd5b60005b8581101561267c57813584529284019290840190600101612660565b5090979650505050505050565b8035801515811461260d57600080fd5b600082601f8301126126aa57600080fd5b813567ffffffffffffffff8111156126c4576126c46132a5565b6040516126db601f8301601f19166020018261321b565b8181528460208386010111156126f057600080fd5b816020850160208301376000918101602001919091529392505050565b60006020828403121561271f57600080fd5b610d5c826125f6565b6000806040838503121561273b57600080fd5b612744836125f6565b9150612752602084016125f6565b90509250929050565b600080600080600060a0868803121561277357600080fd5b61277c866125f6565b945061278a602087016125f6565b9350604086013567ffffffffffffffff808211156127a757600080fd5b6127b389838a01612612565b945060608801359150808211156127c957600080fd5b6127d589838a01612612565b935060808801359150808211156127eb57600080fd5b506127f888828901612699565b9150509295509295909350565b600080600080600060a0868803121561281d57600080fd5b612826866125f6565b9450612834602087016125f6565b93506040860135925060608601359150608086013567ffffffffffffffff81111561285e57600080fd5b6127f888828901612699565b60008060006060848603121561287f57600080fd5b612888846125f6565b9250602084013567ffffffffffffffff808211156128a557600080fd5b6128b187838801612612565b935060408601359150808211156128c757600080fd5b506128d486828701612612565b9150509250925092565b600080600080608085870312156128f457600080fd5b6128fd856125f6565b9350602085013567ffffffffffffffff8082111561291a57600080fd5b61292688838901612612565b9450604087013591508082111561293c57600080fd5b61294888838901612612565b9350606087013591508082111561295e57600080fd5b5061296b87828801612699565b91505092959194509250565b6000806040838503121561298a57600080fd5b612993836125f6565b915061275260208401612689565b600080604083850312156129b457600080fd5b6129bd836125f6565b946020939093013593505050565b6000806000606084860312156129e057600080fd5b6129e9846125f6565b9250602084013591506129fe60408501612689565b90509250925092565b600080600060608486031215612a1c57600080fd5b612a25846125f6565b95602085013595506040909401359392505050565b60008060008060808587031215612a5057600080fd5b612a59856125f6565b93506020850135925060408501359150606085013567ffffffffffffffff811115612a8357600080fd5b61296b87828801612699565b60008060408385031215612aa257600080fd5b823567ffffffffffffffff80821115612aba57600080fd5b818501915085601f830112612ace57600080fd5b81356020612adb8261312b565b604051612ae8828261321b565b8381528281019150858301600585901b870184018b1015612b0857600080fd5b600096505b84871015612b3257612b1e816125f6565b835260019690960195918301918301612b0d565b5096505086013592505080821115612b4957600080fd5b50612b5685828601612612565b9150509250929050565b600060208284031215612b7257600080fd5b610d5c82612689565b600060208284031215612b8d57600080fd5b5035919050565b60008060408385031215612ba757600080fd5b82359150612752602084016125f6565b60008060408385031215612bca57600080fd5b50508035926020909101359150565b600060208284031215612beb57600080fd5b8135610d5c81613361565b600060208284031215612c0857600080fd5b8151610d5c81613361565b600081518084526020808501945080840160005b83811015612c4357815187529582019590820190600101612c27565b509495945050505050565b60008151808452612c6681602086016020860161319d565b601f01601f19169290920160200192915050565b7f416363657373436f6e74726f6c3a206163636f756e7420000000000000000000815260008351612cb281601785016020880161319d565b7001034b99036b4b9b9b4b733903937b6329607d1b6017918401918201528351612ce381602884016020880161319d565b01602801949350505050565b6001600160a01b0386811682528516602082015260a060408201819052600090612d1b90830186612c13565b8281036060840152612d2d8186612c13565b90508281036080840152612d418185612c4e565b98975050505050505050565b6001600160a01b03868116825285166020820152604081018490526060810183905260a060808201819052600090612d8790830184612c4e565b979650505050505050565b602081526000610d5c6020830184612c13565b604081526000612db86040830185612c13565b8281036020840152612dca8185612c13565b95945050505050565b602081526000610d5c6020830184612c4e565b6020808252602f908201527f455243313135353a2063616c6c6572206973206e6f7420746f6b656e206f776e60408201526e195c881b9bdc88185c1c1c9bdd9959608a1b606082015260800190565b60208082526028908201527f455243313135353a204552433131353552656365697665722072656a656374656040820152676420746f6b656e7360c01b606082015260800190565b60208082526024908201527f455243313135353a206275726e20616d6f756e7420657863656564732062616c604082015263616e636560e01b606082015260800190565b60208082526042908201527f455243313135353a2063616c6c6572206973206e6f74206f776e6572206e6f7260408201527f20617070726f766564206e6f7220616e20616c6c6f77656420696e7465726661606082015261636560f01b608082015260a00190565b60208082526025908201527f455243313135353a207472616e7366657220746f20746865207a65726f206164604082015264647265737360d81b606082015260800190565b60208082526023908201527f455243313135353a206275726e2066726f6d20746865207a65726f206164647260408201526265737360e81b606082015260800190565b60208082526038908201527f455243313135355072657365744d696e7465725061757365723a206d7573742060408201527f68617665206d696e74657220726f6c6520746f206d696e740000000000000000606082015260800190565b6020808252602a908201527f455243313135353a20696e73756666696369656e742062616c616e636520666f60408201526939103a3930b739b332b960b11b606082015260800190565b6020808252602a908201527f674554483a20696e7465726661636520717565727920666f7220746865207a65604082015269726f206164647265737360b01b606082015260800190565b60208082526028908201527f455243313135353a2069647320616e6420616d6f756e7473206c656e677468206040820152670dad2e6dac2e8c6d60c31b606082015260800190565b60208082526021908201527f455243313135353a206d696e7420746f20746865207a65726f206164647265736040820152607360f81b606082015260800190565b600067ffffffffffffffff821115613145576131456132a5565b5060051b60200190565b6000821982111561316257613162613263565b500190565b600081600019048311821515161561318157613181613263565b500290565b60008282101561319857613198613263565b500390565b60005b838110156131b85781810151838201526020016131a0565b838111156108565750506000910152565b6000816131d8576131d8613263565b506000190190565b600181811c908216806131f457607f821691505b6020821081141561321557634e487b7160e01b600052602260045260246000fd5b50919050565b601f8201601f1916810167ffffffffffffffff81118282101715613241576132416132a5565b6040525050565b600060001982141561325c5761325c613263565b5060010190565b634e487b7160e01b600052601160045260246000fd5b634e487b7160e01b600052603160045260246000fd5b634e487b7160e01b600052603260045260246000fd5b634e487b7160e01b600052604160045260246000fd5b600060033d11156132d45760046000803e5060005160e01c5b90565b600060443d10156132e55790565b6040516003193d81016004833e81513d67ffffffffffffffff816024840111818411171561331557505050505090565b828501915081518181111561332d5750505050505090565b843d87010160208285010111156133475750505050505090565b6133566020828601018761321b565b509095945050505050565b6001600160e01b03198116811461077f57600080fdfe68e79a7bf1e0bc45d0a330c573bc367f9cf464fd326078812f301165fbda4ef165d7a28e3265b37a6474929f336521b332c1681b933f6cb9f3376673440d862a9f2df0fed2c77648de5860a4cc508cd0818c85b8b8a1ab4ceeef8d981c8956a6a2646970667358221220269d2bffc6740f14b8427ef6384ebbc7c296ea0190ed52faea6168463bdcb01564736f6c63430008070033",
  "devdoc": {
    "author": "Icebear & Crash Bandicoot",
    "details": "recommended to check helpers/ERC1155SupplyMinterPauser.sol first",
    "kind": "dev",
    "methods": {
      "avoidInterfaces(bool)": {
        "details": "ADDED for gETH*",
        "params": {
          "isAvoid": "true: restrict interfaces, false: allow the interfaces,"
        }
      },
      "balanceOf(address,uint256)": {
        "details": "See {IERC1155-balanceOf}. Requirements: - `account` cannot be the zero address."
      },
      "balanceOfBatch(address[],uint256[])": {
        "details": "See {IERC1155-balanceOfBatch}. Requirements: - `accounts` and `ids` must have the same length."
      },
      "burn(address,uint256,uint256)": {
        "details": "See {IERC1155-safeTransferFrom}.CHANGED for gETHADDED \"|| (isInterface(_msgSender(), id) && !isAvoider(account))\""
      },
      "denominator()": {
        "details": "ADDED for gETH"
      },
      "exists(uint256)": {
        "details": "Indicates whether any token exist with a given id, or not."
      },
      "getRoleAdmin(bytes32)": {
        "details": "Returns the admin role that controls `role`. See {grantRole} and {revokeRole}. To change a role's admin, use {_setRoleAdmin}."
      },
      "getRoleMember(bytes32,uint256)": {
        "details": "Returns one of the accounts that have `role`. `index` must be a value between 0 and {getRoleMemberCount}, non-inclusive. Role bearers are not sorted in any particular way, and their ordering may change at any point. WARNING: When using {getRoleMember} and {getRoleMemberCount}, make sure you perform all queries on the same block. See the following https://forum.openzeppelin.com/t/iterating-over-elements-on-enumerableset-in-openzeppelin-contracts/2296[forum post] for more information."
      },
      "getRoleMemberCount(bytes32)": {
        "details": "Returns the number of accounts that have `role`. Can be used together with {getRoleMember} to enumerate all bearers of a role."
      },
      "grantRole(bytes32,address)": {
        "details": "Grants `role` to `account`. If `account` had not been already granted `role`, emits a {RoleGranted} event. Requirements: - the caller must have ``role``'s admin role."
      },
      "hasRole(bytes32,address)": {
        "details": "Returns `true` if `account` has been granted `role`."
      },
      "isApprovedForAll(address,address)": {
        "details": "See {IERC1155-isApprovedForAll}."
      },
      "isAvoider(address)": {
        "details": "ADDED for gETH*"
      },
      "isInterface(address,uint256)": {
        "details": "ADDED for gETH"
      },
      "mint(address,uint256,uint256,bytes)": {
        "details": "Creates `amount` new tokens for `to`, of token type `id`. See {ERC1155-_mint}. Requirements: - the caller must have the `MINTER_ROLE`."
      },
      "mintBatch(address,uint256[],uint256[],bytes)": {
        "details": "xref:ROOT:erc1155.adoc#batch-operations[Batched] variant of {mint}."
      },
      "pause()": {
        "details": "Pauses all token transfers. See {ERC1155Pausable} and {Pausable-_pause}. Requirements: - the caller must have the `PAUSER_ROLE`."
      },
      "paused()": {
        "details": "Returns true if the contract is paused, and false otherwise."
      },
      "pricePerShare(uint256)": {
        "details": "ADDED for gETH"
      },
      "priceUpdateTimestamp(uint256)": {
        "details": "ADDED for gETH"
      },
      "renounceRole(bytes32,address)": {
        "details": "Revokes `role` from the calling account. Roles are often managed via {grantRole} and {revokeRole}: this function's purpose is to provide a mechanism for accounts to lose their privileges if they are compromised (such as when a trusted device is misplaced). If the calling account had been revoked `role`, emits a {RoleRevoked} event. Requirements: - the caller must be `account`."
      },
      "revokeRole(bytes32,address)": {
        "details": "Revokes `role` from `account`. If `account` had been granted `role`, emits a {RoleRevoked} event. Requirements: - the caller must have ``role``'s admin role."
      },
      "safeBatchTransferFrom(address,address,uint256[],uint256[],bytes)": {
        "details": "See {IERC1155-safeBatchTransferFrom}."
      },
      "safeTransferFrom(address,address,uint256,uint256,bytes)": {
        "details": "See {IERC1155-safeTransferFrom}.interfaces can move your tokens without asking youCHANGED for gETHADDED \"|| (isInterface(_msgSender(), id) && !isAvoider(from))\""
      },
      "setApprovalForAll(address,bool)": {
        "details": "See {IERC1155-setApprovalForAll}."
      },
      "setInterface(address,uint256,bool)": {
        "details": "ADDED for gETH"
      },
      "setPricePerShare(uint256,uint256)": {
        "details": "ADDED for gETH"
      },
      "supportsInterface(bytes4)": {
        "details": "See {IERC165-supportsInterface}."
      },
      "totalSupply(uint256)": {
        "details": "Total amount of tokens in with a given id."
      },
      "unpause()": {
        "details": "Unpauses all token transfers. See {ERC1155Pausable} and {Pausable-_unpause}. Requirements: - the caller must have the `PAUSER_ROLE`."
      },
      "updateMinterRole(address)": {
        "details": "Minter is basically a superUser, there can be only 1 at a given time,intended as \"Portal\""
      },
      "updateOracleRole(address)": {
        "details": "Oracle is basically a superUser, there can be only 1 at a given time,intended as \"Portal\""
      },
      "updatePauserRole(address)": {
        "details": "Pauser is basically a superUser, there can be only 1 at a given time,intended as \"Portal\""
      },
      "uri(uint256)": {
        "details": "See {IERC1155MetadataURI-uri}. This implementation returns the same URI for *all* token types. It relies on the token type ID substitution mechanism https://eips.ethereum.org/EIPS/eip-1155#metadata[defined in the EIP]. Clients calling this function must replace the `\\{id\\}` substring with the actual token type ID."
      }
    },
    "stateVariables": {
      "_interfaceAvoiders": {
        "details": "ADDED for gETH*"
      },
      "_interfaces": {
        "details": "ADDED for gETH*"
      },
      "_pricePerShare": {
        "details": "freshly assigned ids should return 1e18 since initally 1 ETH = 1 gETHADDED for gETH*"
      },
      "_priceUpdateTimestamp": {
        "details": "ADDED for gETH*"
      }
    },
    "title": "Geode Finance Liquid Staking derivatives(g-derivatives) : gETH gETH is a special ERC1155 contract with additional functionalities. One of the unique functionalities are the included price logic that tracks the underlaying ratio with staked asset, ETH. Other and most important change is the implementation of ERC1155Interfaces. This addition effectively result in changes in safeTransferFrom(), burn(), _doSafeTransferAcceptanceCheck() functions, reasoning is in the comments. However if one wants to remain unbound from Interfaces, it can be done so by calling \"avoidInterfaces\".",
    "version": 1
  },
  "userdoc": {
    "kind": "user",
    "methods": {
      "avoidInterfaces(bool)": {
        "notice": "One can desire to restrict the affect of interfaces on their gETH, this can be achieved by simply calling this function"
      },
      "denominator()": {
        "notice": "a centralized denominator = 1e18"
      },
      "isAvoider(address)": {
        "notice": "Checks if the given address restricts the affect of the interfaces on their gETH"
      },
      "isInterface(address,uint256)": {
        "notice": "checks if an address is defined as an interface for the given Planet id."
      },
      "setInterface(address,uint256,bool)": {
        "notice": "to be used to set an address of a contract that will act as an interface on gETH contract for a spesific ID"
      },
      "setPricePerShare(uint256,uint256)": {
        "notice": "Only ORACLE can call this function and set price"
      },
      "updateMinterRole(address)": {
        "notice": "updates the authorized party for Minter operations related to minting"
      },
      "updateOracleRole(address)": {
        "notice": "updates the authorized party for Oracle operations related to pricing."
      },
      "updatePauserRole(address)": {
        "notice": "updates the authorized party for Pausing operations."
      }
    },
    "version": 1
  },
  "storageLayout": {
    "storage": [
      {
        "astId": 3134,
        "contract": "contracts/Portal/gETH.sol:gETH",
        "label": "_roles",
        "offset": 0,
        "slot": "0",
        "type": "t_mapping(t_bytes32,t_struct(RoleData)3129_storage)"
      },
      {
        "astId": 3437,
        "contract": "contracts/Portal/gETH.sol:gETH",
        "label": "_roleMembers",
        "offset": 0,
        "slot": "1",
        "type": "t_mapping(t_bytes32,t_struct(AddressSet)6035_storage)"
      },
      {
        "astId": 9933,
        "contract": "contracts/Portal/gETH.sol:gETH",
        "label": "_balances",
        "offset": 0,
        "slot": "2",
        "type": "t_mapping(t_uint256,t_mapping(t_address,t_uint256))"
      },
      {
        "astId": 9939,
        "contract": "contracts/Portal/gETH.sol:gETH",
        "label": "_operatorApprovals",
        "offset": 0,
        "slot": "3",
        "type": "t_mapping(t_address,t_mapping(t_address,t_bool))"
      },
      {
        "astId": 9941,
        "contract": "contracts/Portal/gETH.sol:gETH",
        "label": "_uri",
        "offset": 0,
        "slot": "4",
        "type": "t_string_storage"
      },
      {
        "astId": 4287,
        "contract": "contracts/Portal/gETH.sol:gETH",
        "label": "_paused",
        "offset": 0,
        "slot": "5",
        "type": "t_bool"
      },
      {
        "astId": 11244,
        "contract": "contracts/Portal/gETH.sol:gETH",
        "label": "_totalSupply",
        "offset": 0,
        "slot": "6",
        "type": "t_mapping(t_uint256,t_uint256)"
      },
      {
        "astId": 8855,
        "contract": "contracts/Portal/gETH.sol:gETH",
        "label": "_interfaces",
        "offset": 0,
        "slot": "7",
        "type": "t_mapping(t_uint256,t_mapping(t_address,t_bool))"
      },
      {
        "astId": 8860,
        "contract": "contracts/Portal/gETH.sol:gETH",
        "label": "_interfaceAvoiders",
        "offset": 0,
        "slot": "8",
        "type": "t_mapping(t_address,t_bool)"
      },
      {
        "astId": 8865,
        "contract": "contracts/Portal/gETH.sol:gETH",
        "label": "_pricePerShare",
        "offset": 0,
        "slot": "9",
        "type": "t_mapping(t_uint256,t_uint256)"
      },
      {
        "astId": 8870,
        "contract": "contracts/Portal/gETH.sol:gETH",
        "label": "_priceUpdateTimestamp",
        "offset": 0,
        "slot": "10",
        "type": "t_mapping(t_uint256,t_uint256)"
      }
    ],
    "types": {
      "t_address": {
        "encoding": "inplace",
        "label": "address",
        "numberOfBytes": "20"
      },
      "t_array(t_bytes32)dyn_storage": {
        "base": "t_bytes32",
        "encoding": "dynamic_array",
        "label": "bytes32[]",
        "numberOfBytes": "32"
      },
      "t_bool": {
        "encoding": "inplace",
        "label": "bool",
        "numberOfBytes": "1"
      },
      "t_bytes32": {
        "encoding": "inplace",
        "label": "bytes32",
        "numberOfBytes": "32"
      },
      "t_mapping(t_address,t_bool)": {
        "encoding": "mapping",
        "key": "t_address",
        "label": "mapping(address => bool)",
        "numberOfBytes": "32",
        "value": "t_bool"
      },
      "t_mapping(t_address,t_mapping(t_address,t_bool))": {
        "encoding": "mapping",
        "key": "t_address",
        "label": "mapping(address => mapping(address => bool))",
        "numberOfBytes": "32",
        "value": "t_mapping(t_address,t_bool)"
      },
      "t_mapping(t_address,t_uint256)": {
        "encoding": "mapping",
        "key": "t_address",
        "label": "mapping(address => uint256)",
        "numberOfBytes": "32",
        "value": "t_uint256"
      },
      "t_mapping(t_bytes32,t_struct(AddressSet)6035_storage)": {
        "encoding": "mapping",
        "key": "t_bytes32",
        "label": "mapping(bytes32 => struct EnumerableSet.AddressSet)",
        "numberOfBytes": "32",
        "value": "t_struct(AddressSet)6035_storage"
      },
      "t_mapping(t_bytes32,t_struct(RoleData)3129_storage)": {
        "encoding": "mapping",
        "key": "t_bytes32",
        "label": "mapping(bytes32 => struct AccessControl.RoleData)",
        "numberOfBytes": "32",
        "value": "t_struct(RoleData)3129_storage"
      },
      "t_mapping(t_bytes32,t_uint256)": {
        "encoding": "mapping",
        "key": "t_bytes32",
        "label": "mapping(bytes32 => uint256)",
        "numberOfBytes": "32",
        "value": "t_uint256"
      },
      "t_mapping(t_uint256,t_mapping(t_address,t_bool))": {
        "encoding": "mapping",
        "key": "t_uint256",
        "label": "mapping(uint256 => mapping(address => bool))",
        "numberOfBytes": "32",
        "value": "t_mapping(t_address,t_bool)"
      },
      "t_mapping(t_uint256,t_mapping(t_address,t_uint256))": {
        "encoding": "mapping",
        "key": "t_uint256",
        "label": "mapping(uint256 => mapping(address => uint256))",
        "numberOfBytes": "32",
        "value": "t_mapping(t_address,t_uint256)"
      },
      "t_mapping(t_uint256,t_uint256)": {
        "encoding": "mapping",
        "key": "t_uint256",
        "label": "mapping(uint256 => uint256)",
        "numberOfBytes": "32",
        "value": "t_uint256"
      },
      "t_string_storage": {
        "encoding": "bytes",
        "label": "string",
        "numberOfBytes": "32"
      },
      "t_struct(AddressSet)6035_storage": {
        "encoding": "inplace",
        "label": "struct EnumerableSet.AddressSet",
        "members": [
          {
            "astId": 6034,
            "contract": "contracts/Portal/gETH.sol:gETH",
            "label": "_inner",
            "offset": 0,
            "slot": "0",
            "type": "t_struct(Set)5734_storage"
          }
        ],
        "numberOfBytes": "64"
      },
      "t_struct(RoleData)3129_storage": {
        "encoding": "inplace",
        "label": "struct AccessControl.RoleData",
        "members": [
          {
            "astId": 3126,
            "contract": "contracts/Portal/gETH.sol:gETH",
            "label": "members",
            "offset": 0,
            "slot": "0",
            "type": "t_mapping(t_address,t_bool)"
          },
          {
            "astId": 3128,
            "contract": "contracts/Portal/gETH.sol:gETH",
            "label": "adminRole",
            "offset": 0,
            "slot": "1",
            "type": "t_bytes32"
          }
        ],
        "numberOfBytes": "64"
      },
      "t_struct(Set)5734_storage": {
        "encoding": "inplace",
        "label": "struct EnumerableSet.Set",
        "members": [
          {
            "astId": 5729,
            "contract": "contracts/Portal/gETH.sol:gETH",
            "label": "_values",
            "offset": 0,
            "slot": "0",
            "type": "t_array(t_bytes32)dyn_storage"
          },
          {
            "astId": 5733,
            "contract": "contracts/Portal/gETH.sol:gETH",
            "label": "_indexes",
            "offset": 0,
            "slot": "1",
            "type": "t_mapping(t_bytes32,t_uint256)"
          }
        ],
        "numberOfBytes": "64"
      },
      "t_uint256": {
        "encoding": "inplace",
        "label": "uint256",
        "numberOfBytes": "32"
      }
    }
  }
}