{
  "address": "0xA87975427D8207A4bdD5Ef74193Fb7d72e251c39",
  "abi": [
    {
      "anonymous": false,
      "inputs": [
        {
          "indexed": false,
          "internalType": "uint256",
          "name": "id",
          "type": "uint256"
        },
        {
          "indexed": false,
          "internalType": "uint256",
          "name": "TYPE",
          "type": "uint256"
        }
      ],
      "name": "IdInitiated",
      "type": "event"
    },
    {
      "anonymous": false,
      "inputs": [
        {
          "indexed": false,
          "internalType": "uint256",
          "name": "id",
          "type": "uint256"
        },
        {
          "indexed": false,
          "internalType": "address",
          "name": "newMaintainer",
          "type": "address"
        }
      ],
      "name": "MaintainerChanged",
      "type": "event"
    },
    {
      "anonymous": false,
      "inputs": [
        {
          "indexed": false,
          "internalType": "uint256",
          "name": "id",
          "type": "uint256"
        },
        {
          "indexed": false,
          "internalType": "uint256",
          "name": "fee",
          "type": "uint256"
        },
        {
          "indexed": false,
          "internalType": "uint256",
          "name": "effectiveTimestamp",
          "type": "uint256"
        }
      ],
      "name": "MaintainerFeeSwitched",
      "type": "event"
    },
    {
      "inputs": [],
      "name": "DEFAULT_A",
      "outputs": [
        {
          "internalType": "uint256",
          "name": "",
          "type": "uint256"
        }
      ],
      "stateMutability": "view",
      "type": "function"
    },
    {
      "inputs": [],
      "name": "DEFAULT_ADMIN_FEE",
      "outputs": [
        {
          "internalType": "uint256",
          "name": "",
          "type": "uint256"
        }
      ],
      "stateMutability": "view",
      "type": "function"
    },
    {
      "inputs": [],
      "name": "DEFAULT_FEE",
      "outputs": [
        {
          "internalType": "uint256",
          "name": "",
          "type": "uint256"
        }
      ],
      "stateMutability": "view",
      "type": "function"
    },
    {
      "inputs": [],
      "name": "FEE_SWITCH_LATENCY",
      "outputs": [
        {
          "internalType": "uint256",
          "name": "",
          "type": "uint256"
        }
      ],
      "stateMutability": "view",
      "type": "function"
    },
    {
      "inputs": [],
      "name": "PERCENTAGE_DENOMINATOR",
      "outputs": [
        {
          "internalType": "uint256",
          "name": "",
          "type": "uint256"
        }
      ],
      "stateMutability": "view",
      "type": "function"
    }
  ],
  "transactionHash": "0x36d6e8ffc8a9429f0906f8faf0fc41d4e1cd99a8e2df3505f8c905668972c26b",
  "args": [],
  "numDeployments": 1,
  "solcInputHash": "11ddb6c4e4cbaa5092547f659772ac7d",
  "bytecode": "0x611b6c61003a600b82828239805160001a60731461002d57634e487b7160e01b600052600060045260246000fd5b30600052607381538281f3fe7300000000000000000000000000000000000000003014608060405260043610620000cc5760003560e01c8063b300e3dd1162000083578063b300e3dd1462000173578063b315ed1014620001a3578063b3cd425414620001ad578063d236b06114620001ba578063e9bd99fc14620001df578063ef40405814620001f657600080fd5b80632b6cd29314620000d15780633a02e2c314620000ed5780634fcc1def146200011457806355e66bad146200011e5780635fae04e71462000143578063746a46151462000168575b600080fd5b620000da603c81565b6040519081526020015b60405180910390f35b818015620000fa57600080fd5b50620001126200010c36600462000f37565b62000246565b005b620000da6200039b565b8180156200012b57600080fd5b50620001126200013d36600462000ece565b620003bf565b8180156200015057600080fd5b50620001126200016236600462000f37565b620004da565b620000da6203f48081565b6200018a6200018436600462000eab565b620004f9565b6040516001600160a01b039091168152602001620000e4565b620000da6200051c565b620000da6402540be40081565b818015620001c757600080fd5b5062000112620001d936600462000f0a565b62000530565b620000da620001f036600462000eab565b620005e1565b8180156200020357600080fd5b506200021b6200021536600462000dee565b620005f9565b604080516001600160a01b0394851681529284166020840152921691810191909152606001620000e4565b83600684836200026584836921a7a72a2927a62622a960b11b62000858565b6001600160a01b0316336001600160a01b031614620002a15760405162461bcd60e51b8152600401620002989062001110565b60405180910390fd5b82620002b68584635459504560e01b6200088e565b14620002d65760405162461bcd60e51b8152600401620002989062001156565b620002ef8483681a5b9a5d1a585d195960ba1b6200088e565b156200030f5760405162461bcd60e51b81526004016200029890620010ce565b6200032a84836936b0b4b73a30b4b732b960b11b84620008ba565b6200033e88886266656560e81b8962000905565b620003588483681a5b9a5d1a585d195960ba1b4262000905565b60408051838152602081018590527f7b7905d4bbb05d33c55d852740a9c6ad7023620601ab2abb79f1839fc8e0a5fb910160405180910390a15050505050505050565b612710620003b06402540be4006004620012ae565b620003bc91906200128b565b81565b620003d983836921a7a72a2927a62622a960b11b62000858565b6001600160a01b0316336001600160a01b0316146200040c5760405162461bcd60e51b8152600401620002989062001110565b6001600160a01b038116620004785760405162461bcd60e51b815260206004820152602b60248201527f4d61696e7461696e65725574696c733a206d61696e7461696e65722063616e2060448201526a4e4f54206265207a65726f60a81b606482015260840162000298565b6200049383836936b0b4b73a30b4b732b960b11b84620008ba565b604080518381526001600160a01b03831660208201527f72774bc96991002276ea2f17557bc24e67733a3dcf2e8b390d38921daab1ab3191015b60405180910390a1505050565b83600484836200026584836921a7a72a2927a62622a960b11b62000858565b60006200051583836936b0b4b73a30b4b732b960b11b62000858565b9392505050565b600a620003b06402540be4006005620012ae565b6200055e82677072696f7246656560c01b6200055486836266656560e81b6200088e565b8692919062000905565b6200057f82680cccacaa6eed2e8c6d60bb1b620005546203f4804262001270565b6200059383836266656560e81b8462000905565b7f858b42af33bcca877f5e42f628f75d4e121337f568d1e168400fa15d178875c28282620005c56203f4804262001270565b60408051938452602084019290925290820152606001620004cd565b6000620005158383651dd85b1b195d60d21b6200088e565b600080808660058783602002015187600160200201516200062984836921a7a72a2927a62622a960b11b62000858565b6001600160a01b0316336001600160a01b0316146200065c5760405162461bcd60e51b8152600401620002989062001110565b82620006718584635459504560e01b6200088e565b14620006915760405162461bcd60e51b8152600401620002989062001156565b620006aa8483681a5b9a5d1a585d195960ba1b6200088e565b15620006ca5760405162461bcd60e51b81526004016200029890620010ce565b620006e584836936b0b4b73a30b4b732b960b11b84620008ba565b895160208b015162000701918d916266656560e81b9062000905565b88518a5160408c015160208c015162000720938f93909290916200092f565b965062000734896002602002015162000a0a565b8a519096506001600160a01b03871690636ebd362c90620007568b80620011e7565b6200076560208e018e620011e7565b8f516040516001600160e01b031960e089901b1681526200078f969594939291906004016200119a565b600060405180830381600087803b158015620007aa57600080fd5b505af1158015620007bf573d6000803e3d6000fd5b50505050620007f58b8b600060038110620007de57620007de62001356565b60200201518b5160608d015160808e015162000aa9565b9450620008118483681a5b9a5d1a585d195960ba1b4262000905565b60408051838152602081018590527f7b7905d4bbb05d33c55d852740a9c6ad7023620601ab2abb79f1839fc8e0a5fb910160405180910390a1505050509450945094915050565b60008360030160006200086c858562000c2b565b81526020810191909152604001600020546001600160a01b0316949350505050565b6000836001016000620008a2858562000c2b565b81526020019081526020016000205490509392505050565b80846003016000620008cd868662000c2b565b815260200190815260200160002060006101000a8154816001600160a01b0302191690836001600160a01b0316021790555050505050565b8084600101600062000918868662000c2b565b815260208101919091526040016000205550505050565b6000806200094c87856921a7a72a2927a62622a960b11b62000858565b604080516001600160a01b038981166024830152306044830152861660648201526084810188905260a48082018890528251808303909101815260c490910182526020810180516001600160e01b03166314d6c7d760e31b1790529051620009b49062000d13565b620009c192919062001030565b604051809103906000f080158015620009de573d6000803e3d6000fd5b50905062000a0087866d6d696e69476f7665726e616e636560901b84620008ba565b9695505050505050565b6000604051733d602d80600a3d3981f3363d3d373d3d3d363d7360601b81528260601b60148201526e5af43d82803e903d91602b57fd5bf360881b60288201526037816000f09150506001600160a01b03811662000aa45760405162461bcd60e51b8152602060048201526016602482015275115490cc4c4d8dce8818dc99585d194819985a5b195960521b604482015260640162000298565b919050565b600062000ab68362000a0a565b9050600062000ace8787634e414d4560e01b62000c57565b90506000826001600160a01b031663303e9bea87898560405160200162000af6919062000fd2565b6040516020818303038152906040528660405160200162000b18919062001007565b60408051601f19818403018152919052603c61271062000b3f6402540be4006004620012ae565b62000b4b91906200128b565b600a62000b5f6402540be4006005620012ae565b62000b6b91906200128b565b8c6040518963ffffffff1660e01b815260040162000b919897969594939291906200105e565b602060405180830381600087803b15801562000bac57600080fd5b505af115801562000bc1573d6000803e3d6000fd5b505050506040513d601f19601f8201168201806040525081019062000be7919062000dce565b905062000c0888886d1dda5d1a191c985dd85b141bdbdb60921b86620008ba565b62000c2088886626282a37b5b2b760c91b84620008ba565b505095945050505050565b604080516020808201949094528082019290925280518083038201815260609092019052805191012090565b606083600201600062000c6b858562000c2b565b8152602001908152602001600020805462000c869062001303565b80601f016020809104026020016040519081016040528092919081815260200182805462000cb49062001303565b801562000d055780601f1062000cd95761010080835404028352916020019162000d05565b820191906000526020600020905b81548152906001019060200180831162000ce757829003601f168201915b505050505090509392505050565b6107b1806200138683390190565b600082601f83011262000d3357600080fd5b60405160a0810181811067ffffffffffffffff8211171562000d6557634e487b7160e01b600052604160045260246000fd5b604052808360a0810186101562000d7b57600080fd5b60005b600581101562000dab57813562000d95816200136c565b8352602092830192919091019060010162000d7e565b509195945050505050565b806040810183101562000dc857600080fd5b92915050565b60006020828403121562000de157600080fd5b815162000515816200136c565b600080600080610140858703121562000e0657600080fd5b84359350602086603f87011262000e1c57600080fd5b62000e2662001238565b80828801608089018a81111562000e3c57600080fd5b60005b600381101562000e5e5782358552938501939185019160010162000e3f565b5082975062000e6e8b8262000d21565b9650505050505061012085013567ffffffffffffffff81111562000e9157600080fd5b62000e9f8782880162000db6565b91505092959194509250565b6000806040838503121562000ebf57600080fd5b50508035926020909101359150565b60008060006060848603121562000ee457600080fd5b8335925060208401359150604084013562000eff816200136c565b809150509250925092565b60008060006060848603121562000f2057600080fd5b505081359360208301359350604090920135919050565b6000806000806080858703121562000f4e57600080fd5b843593506020850135925060408501359150606085013562000f70816200136c565b939692955090935050565b6000815180845262000f95816020860160208601620012d0565b601f01601f19169290920160200192915050565b81835281816020850137506000828201602090810191909152601f909101601f19169091010190565b6000825162000fe6818460208701620012d0565b6e16a3b2b7b232902628102a37b5b2b760891b920191825250600f01919050565b600082516200101b818460208701620012d0565b6202d4c560ec1b920191825250600301919050565b6001600160a01b0383168152604060208201819052600090620010569083018462000f7b565b949350505050565b6001600160a01b03898116825260208201899052610100604083018190526000916200108d8483018b62000f7b565b91508382036060850152620010a3828a62000f7b565b92508760808501528660a08501528560c085015280851660e085015250509998505050505050505050565b60208082526022908201527f4d61696e7461696e65725574696c733a20616c726561647920696e6974696174604082015261195960f21b606082015260800190565b60208082526026908201527f4d61696e7461696e65725574696c733a2073656e646572204e4f5420434f4e546040820152652927a62622a960d11b606082015260800190565b60208082526024908201527f4d61696e7461696e65725574696c733a206964204e4f5420636f7272656374206040820152635459504560e01b606082015260800190565b868152608060208201526000620011b660808301878962000fa9565b8281036040840152620011cb81868862000fa9565b91505060018060a01b0383166060830152979650505050505050565b6000808335601e19843603018112620011ff57600080fd5b83018035915067ffffffffffffffff8211156200121b57600080fd5b6020019150368190038213156200123157600080fd5b9250929050565b6040516060810167ffffffffffffffff811182821017156200126a57634e487b7160e01b600052604160045260246000fd5b60405290565b6000821982111562001286576200128662001340565b500190565b600082620012a957634e487b7160e01b600052601260045260246000fd5b500490565b6000816000190483118215151615620012cb57620012cb62001340565b500290565b60005b83811015620012ed578181015183820152602001620012d3565b83811115620012fd576000848401525b50505050565b600181811c908216806200131857607f821691505b602082108114156200133a57634e487b7160e01b600052602260045260246000fd5b50919050565b634e487b7160e01b600052601160045260246000fd5b634e487b7160e01b600052603260045260246000fd5b6001600160a01b03811681146200138257600080fd5b5056fe60806040526040516107b13803806107b183398101604081905261002291610307565b61004d60017f360894a13ba1a3210667c828492db98dca3e2076cc3735a920a3ca505d382bbd610424565b60008051602061076a8339815191521461006957610069610475565b6100758282600061007c565b50506104a1565b610085836100b2565b6000825111806100925750805b156100ad576100ab83836100f260201b6100291760201c565b505b505050565b6100bb8161011e565b6040516001600160a01b038216907fbc7cd75a20ee27fd9adebab32041f755214dbc6bffa90cc0225b39da2e5c2d3b90600090a250565b6060610117838360405180606001604052806027815260200161078a602791396101de565b9392505050565b610131816102bc60201b6100551760201c565b6101985760405162461bcd60e51b815260206004820152602d60248201527f455243313936373a206e657720696d706c656d656e746174696f6e206973206e60448201526c1bdd08184818dbdb9d1c9858dd609a1b60648201526084015b60405180910390fd5b806101bd60008051602061076a83398151915260001b6102cb60201b6100641760201c565b80546001600160a01b0319166001600160a01b039290921691909117905550565b60606001600160a01b0384163b6102465760405162461bcd60e51b815260206004820152602660248201527f416464726573733a2064656c65676174652063616c6c20746f206e6f6e2d636f6044820152651b9d1c9858dd60d21b606482015260840161018f565b600080856001600160a01b03168560405161026191906103d5565b600060405180830381855af49150503d806000811461029c576040519150601f19603f3d011682016040523d82523d6000602084013e6102a1565b606091505b5090925090506102b28282866102ce565b9695505050505050565b6001600160a01b03163b151590565b90565b606083156102dd575081610117565b8251156102ed5782518084602001fd5b8160405162461bcd60e51b815260040161018f91906103f1565b6000806040838503121561031a57600080fd5b82516001600160a01b038116811461033157600080fd5b60208401519092506001600160401b038082111561034e57600080fd5b818501915085601f83011261036257600080fd5b8151818111156103745761037461048b565b604051601f8201601f19908116603f0116810190838211818310171561039c5761039c61048b565b816040528281528860208487010111156103b557600080fd5b6103c6836020830160208801610449565b80955050505050509250929050565b600082516103e7818460208701610449565b9190910192915050565b6020815260008251806020840152610410816040850160208701610449565b601f01601f19169190910160400192915050565b60008282101561044457634e487b7160e01b600052601160045260246000fd5b500390565b60005b8381101561046457818101518382015260200161044c565b838111156100ab5750506000910152565b634e487b7160e01b600052600160045260246000fd5b634e487b7160e01b600052604160045260246000fd5b6102ba806104b06000396000f3fe60806040523661001357610011610017565b005b6100115b610027610022610067565b61009f565b565b606061004e838360405180606001604052806027815260200161025e602791396100c3565b9392505050565b6001600160a01b03163b151590565b90565b600061009a7f360894a13ba1a3210667c828492db98dca3e2076cc3735a920a3ca505d382bbc546001600160a01b031690565b905090565b3660008037600080366000845af43d6000803e8080156100be573d6000f35b3d6000fd5b60606001600160a01b0384163b6101305760405162461bcd60e51b815260206004820152602660248201527f416464726573733a2064656c65676174652063616c6c20746f206e6f6e2d636f6044820152651b9d1c9858dd60d21b60648201526084015b60405180910390fd5b600080856001600160a01b03168560405161014b91906101de565b600060405180830381855af49150503d8060008114610186576040519150601f19603f3d011682016040523d82523d6000602084013e61018b565b606091505b509150915061019b8282866101a5565b9695505050505050565b606083156101b457508161004e565b8251156101c45782518084602001fd5b8160405162461bcd60e51b815260040161012791906101fa565b600082516101f081846020870161022d565b9190910192915050565b602081526000825180602084015261021981604085016020870161022d565b601f01601f19169190910160400192915050565b60005b83811015610248578181015183820152602001610230565b83811115610257576000848401525b5050505056fe416464726573733a206c6f772d6c6576656c2064656c65676174652063616c6c206661696c6564a26469706673582212203f90f01760a3fb86c9c8320cdb707a76979bbded46a4033a6a8dc276b5de4a1864736f6c63430008070033360894a13ba1a3210667c828492db98dca3e2076cc3735a920a3ca505d382bbc416464726573733a206c6f772d6c6576656c2064656c65676174652063616c6c206661696c6564a26469706673582212204cb50a405157ef298d26d9184e9fed65969e3ebb2cce10c40b29f9dec9327ca764736f6c63430008070033",
  "devdoc": {
    "author": "Icebear & Crash Bandicoot",
    "details": "ALL \"fee\" variables are limited by PERCENTAGE_DENOMINATOR = 100% Note refer to DataStoreUtils before reviewing",
    "kind": "dev",
    "methods": {
      "changeMaintainer(DataStoreUtils.DataStore storage,uint256,address)": {
        "details": "it is wise to change the CONTROLLER before the maintainer, in case of any migrationhandle with care NOTE intended (suggested) usage is to set a contract address that will govern the id for maintainer, while keeping the controller as a multisig or provide smt like 0x000000000000000000000000000000000000dEaD"
      },
      "getMaintainerFromId(DataStoreUtils.DataStore storage,uint256)": {
        "details": "every ID has one maintainer that is set by CONTROLLER"
      },
      "getMaintainerWalletBalance(DataStoreUtils.DataStore storage,uint256)": {
        "params": {
          "id": "the id of the Maintainer"
        },
        "returns": {
          "walletBalance": "the balance of Operator with the given _operatorId has"
        }
      },
      "initiateComet(DataStoreUtils.DataStore storage,uint256,uint256,address)": {
        "details": "requires ID to be approved as comet with a specific CONTROLLER, NOTE CONTROLLER check will be surpassed with portal."
      },
      "initiateOperator(DataStoreUtils.DataStore storage,uint256,uint256,address)": {
        "details": "requires ID to be approved as a node operator with a specific CONTROLLER"
      },
      "initiatePlanet(DataStoreUtils.DataStore storage,uint256[3],address[5],string[2])": {
        "details": "requires ID to be approved as a planet with a specific CONTROLLER",
        "params": {
          "addressSpecs": "0:gETH, 1:_maintainer, 2:DEFAULT_gETH_INTERFACE_, 3:DEFAULT_DWP, 4:DEFAULT_LP_TOKEN",
          "interfaceSpecs": "0: interface name, 1: interface symbol",
          "uintSpecs": "0:_id, 1:_fee, 2:_MINI_GOVERNANCE_VERSION"
        }
      },
      "switchMaintainerFee(DataStoreUtils.DataStore storage,uint256,uint256)": {
        "details": "advise that 100% == PERCENTAGE_DENOMINATOR",
        "params": {
          "id": "planet, comet or operator ID"
        }
      }
    },
    "title": "MaintainerUtils library to be used with a DataStore",
    "version": 1
  },
  "userdoc": {
    "kind": "user",
    "methods": {
      "DEFAULT_A()": {
        "notice": "default DWP parameters"
      },
      "FEE_SWITCH_LATENCY()": {
        "notice": "when a maintainer changes the fee, it is effective after a delay"
      },
      "PERCENTAGE_DENOMINATOR()": {
        "notice": "PERCENTAGE_DENOMINATOR represents 100%"
      },
      "changeMaintainer(DataStoreUtils.DataStore storage,uint256,address)": {
        "notice": "CONTROLLER of the ID can change the maintainer to any address other than ZERO_ADDRESS"
      },
      "getMaintainerFromId(DataStoreUtils.DataStore storage,uint256)": {
        "notice": "\"Maintainer\" is a shared logic (like \"NAME\") by both operators and private or public pools. Maintainers have permissiones to maintain the given id like setting a new fee or interface as well as creating validators etc. for operators."
      },
      "getMaintainerWalletBalance(DataStoreUtils.DataStore storage,uint256)": {
        "notice": "When a fee is collected it is put in the maintainer's walletMaintainer wallet also keeps Ether put in Portal by Operator Maintainer to make proposeStake easier, instead of sending n ETH to contract while preStaking for n validator(s) for each time. Operator can put some ETHs to their wallet and from there, ETHs can be used to proposeStake. Then when it is approved and staked, it will be added back to the wallet to be used for other proposeStake calls."
      },
      "initiateComet(DataStoreUtils.DataStore storage,uint256,uint256,address)": {
        "notice": "initiates ID as a comet (private pool)"
      },
      "initiateOperator(DataStoreUtils.DataStore storage,uint256,uint256,address)": {
        "notice": "initiates ID as a node operator"
      },
      "initiatePlanet(DataStoreUtils.DataStore storage,uint256[3],address[5],string[2])": {
        "notice": "initiates ID as a planet (public pool): deploys a miniGovernance, a Dynamic Withdrawal Pool, an ERC1155Interface"
      },
      "switchMaintainerFee(DataStoreUtils.DataStore storage,uint256,uint256)": {
        "notice": "Changes the fee that is applied by distributeFee on Oracle Updates."
      }
    },
    "notice": "for Geode, there are different TYPEs active within Staking operations. These types(4,5,6) always has a maintainer. The staking logic is shaped around the control of maintainers over pools.",
    "version": 1
  },
  "storageLayout": {
    "storage": [],
    "types": null
  }
}