{
  "address": "0x4eF5b76D6740578C803D4ccB550924DA6c797425",
  "abi": [
    {
      "anonymous": false,
      "inputs": [
        {
          "indexed": false,
          "internalType": "address",
          "name": "previousAdmin",
          "type": "address"
        },
        {
          "indexed": false,
          "internalType": "address",
          "name": "newAdmin",
          "type": "address"
        }
      ],
      "name": "AdminChanged",
      "type": "event"
    },
    {
      "anonymous": false,
      "inputs": [
        {
          "indexed": true,
          "internalType": "address",
          "name": "beacon",
          "type": "address"
        }
      ],
      "name": "BeaconUpgraded",
      "type": "event"
    },
    {
      "anonymous": false,
      "inputs": [
        {
          "indexed": false,
          "internalType": "uint256",
          "name": "version",
          "type": "uint256"
        }
      ],
      "name": "ContractVersionSet",
      "type": "event"
    },
    {
      "anonymous": false,
      "inputs": [
        {
          "indexed": false,
          "internalType": "address",
          "name": "senate",
          "type": "address"
        },
        {
          "indexed": false,
          "internalType": "uint256",
          "name": "senate_expiry",
          "type": "uint256"
        }
      ],
      "name": "NewSenate",
      "type": "event"
    },
    {
      "anonymous": false,
      "inputs": [
        {
          "indexed": false,
          "internalType": "address",
          "name": "account",
          "type": "address"
        }
      ],
      "name": "Paused",
      "type": "event"
    },
    {
      "anonymous": false,
      "inputs": [
        {
          "indexed": false,
          "internalType": "uint256",
          "name": "id",
          "type": "uint256"
        }
      ],
      "name": "ProposalApproved",
      "type": "event"
    },
    {
      "anonymous": false,
      "inputs": [
        {
          "indexed": false,
          "internalType": "uint256",
          "name": "id",
          "type": "uint256"
        },
        {
          "indexed": false,
          "internalType": "address",
          "name": "_CONTROLLER",
          "type": "address"
        },
        {
          "indexed": false,
          "internalType": "uint256",
          "name": "_type",
          "type": "uint256"
        },
        {
          "indexed": false,
          "internalType": "uint256",
          "name": "_duration",
          "type": "uint256"
        }
      ],
      "name": "Proposed",
      "type": "event"
    },
    {
      "anonymous": false,
      "inputs": [
        {
          "indexed": false,
          "internalType": "address",
          "name": "account",
          "type": "address"
        }
      ],
      "name": "Unpaused",
      "type": "event"
    },
    {
      "anonymous": false,
      "inputs": [
        {
          "indexed": true,
          "internalType": "address",
          "name": "implementation",
          "type": "address"
        }
      ],
      "name": "Upgraded",
      "type": "event"
    },
    {
      "inputs": [
        {
          "internalType": "uint256",
          "name": "_id",
          "type": "uint256"
        }
      ],
      "name": "approveProposal",
      "outputs": [],
      "stateMutability": "nonpayable",
      "type": "function"
    },
    {
      "inputs": [
        {
          "internalType": "uint256",
          "name": "claim",
          "type": "uint256"
        }
      ],
      "name": "claimUnstake",
      "outputs": [
        {
          "internalType": "bool",
          "name": "success",
          "type": "bool"
        }
      ],
      "stateMutability": "nonpayable",
      "type": "function"
    },
    {
      "inputs": [],
      "name": "fetchUpgradeProposal",
      "outputs": [],
      "stateMutability": "nonpayable",
      "type": "function"
    },
    {
      "inputs": [],
      "name": "getCurrentVersion",
      "outputs": [
        {
          "internalType": "uint256",
          "name": "",
          "type": "uint256"
        }
      ],
      "stateMutability": "view",
      "type": "function"
    },
    {
      "inputs": [],
      "name": "getProposedVersion",
      "outputs": [
        {
          "internalType": "uint256",
          "name": "",
          "type": "uint256"
        }
      ],
      "stateMutability": "view",
      "type": "function"
    },
    {
      "inputs": [
        {
          "internalType": "address",
          "name": "_gETH",
          "type": "address"
        },
        {
          "internalType": "address",
          "name": "_PORTAL",
          "type": "address"
        },
        {
          "internalType": "address",
          "name": "_CONTROLLER",
          "type": "address"
        },
        {
          "internalType": "uint256",
          "name": "_ID",
          "type": "uint256"
        },
        {
          "internalType": "uint256",
          "name": "_VERSION",
          "type": "uint256"
        }
      ],
      "name": "initialize",
      "outputs": [],
      "stateMutability": "nonpayable",
      "type": "function"
    },
    {
      "inputs": [],
      "name": "isolationMode",
      "outputs": [
        {
          "internalType": "bool",
          "name": "",
          "type": "bool"
        }
      ],
      "stateMutability": "view",
      "type": "function"
    },
    {
      "inputs": [],
      "name": "pause",
      "outputs": [],
      "stateMutability": "nonpayable",
      "type": "function"
    },
    {
      "inputs": [],
      "name": "paused",
      "outputs": [
        {
          "internalType": "bool",
          "name": "",
          "type": "bool"
        }
      ],
      "stateMutability": "view",
      "type": "function"
    },
    {
      "inputs": [],
      "name": "proxiableUUID",
      "outputs": [
        {
          "internalType": "bytes32",
          "name": "",
          "type": "bytes32"
        }
      ],
      "stateMutability": "view",
      "type": "function"
    },
    {
      "inputs": [
        {
          "internalType": "address",
          "name": "newController",
          "type": "address"
        }
      ],
      "name": "setSenate",
      "outputs": [],
      "stateMutability": "nonpayable",
      "type": "function"
    },
    {
      "inputs": [],
      "name": "unpause",
      "outputs": [],
      "stateMutability": "nonpayable",
      "type": "function"
    },
    {
      "inputs": [
        {
          "internalType": "address",
          "name": "newImplementation",
          "type": "address"
        }
      ],
      "name": "upgradeTo",
      "outputs": [],
      "stateMutability": "nonpayable",
      "type": "function"
    },
    {
      "inputs": [
        {
          "internalType": "address",
          "name": "newImplementation",
          "type": "address"
        },
        {
          "internalType": "bytes",
          "name": "data",
          "type": "bytes"
        }
      ],
      "name": "upgradeToAndCall",
      "outputs": [],
      "stateMutability": "payable",
      "type": "function"
    }
  ],
  "transactionHash": "0x9b98d041d6cdd6c71775eb7b5be541867bfd578f267ffcf4c05d41ec6a161377",
  "args": [],
  "numDeployments": 1,
  "solcInputHash": "ccc16f52eb19b166930e083535fee21e",
  "bytecode": "0x60a06040523060601b60805234801561001757600080fd5b5060805160601c61181c610052600039600081816104500152818161049901528181610586015281816105c60152610659015261181c6000f3fe6080604052600436106100dd5760003560e01c80638456cb591161007f578063a6b63eb811610059578063a6b63eb8146101ed578063ab0e58201461020d578063c5dd6fee1461022d578063fabec44a1461024d57600080fd5b80638456cb59146101a35780638650c072146101b857806398951b56146101cd57600080fd5b80634f1ef286116100bb5780634f1ef2861461012e57806352d1902d146101415780635c975abb14610169578063745653de1461018d57600080fd5b806317c6ebd5146100e25780633659cfe6146100f95780633f4ba83a14610119575b600080fd5b3480156100ee57600080fd5b506100f7610263565b005b34801561010557600080fd5b506100f7610114366004611288565b610445565b34801561012557600080fd5b506100f761052e565b6100f761013c366004611300565b61057b565b34801561014d57600080fd5b5061015661064c565b6040519081526020015b60405180910390f35b34801561017557600080fd5b5060655460ff165b6040519015158152602001610160565b34801561019957600080fd5b5061012054610156565b3480156101af57600080fd5b506100f76106ff565b3480156101c457600080fd5b5061017d610748565b3480156101d957600080fd5b506100f76101e836600461149c565b610767565b3480156101f957600080fd5b506100f76102083660046112a5565b61082a565b34801561021957600080fd5b506100f7610228366004611288565b610987565b34801561023957600080fd5b5061017d61024836600461149c565b6109bb565b34801561025957600080fd5b5061011f54610156565b600061027861010c546001600160a01b031690565b6001600160a01b03166370bf810f6040518163ffffffff1660e01b815260040160206040518083038186803b1580156102b057600080fd5b505afa1580156102c4573d6000803e3d6000fd5b505050506040513d601f19601f820116820180604052508101906102e891906113b5565b61011f549091508114156102fb57600080fd5b600061031061010c546001600160a01b031690565b6001600160a01b031663c7f758a8836040518263ffffffff1660e01b815260040161033d91815260200190565b60006040518083038186803b15801561035557600080fd5b505afa158015610369573d6000803e3d6000fd5b505050506040513d6000823e601f3d908101601f1916820160405261039191908101906113ce565b90508060200151600b146103a457600080fd5b805160408083015190516304cba2d760e11b8152737407F38DC065391C5F77c6Fe0bd0b96565c5753f9263099745ae926103ed9261010b92916002916212750090600401611661565b60206040518083038186803b15801561040557600080fd5b505af4158015610419573d6000803e3d6000fd5b505050506040513d601f19601f8201168201806040525081019061043d91906113b5565b505061012055565b306001600160a01b037f00000000000000000000000000000000000000000000000000000000000000001614156104975760405162461bcd60e51b815260040161048e90611510565b60405180910390fd5b7f00000000000000000000000000000000000000000000000000000000000000006001600160a01b03166104e06000805160206117a0833981519152546001600160a01b031690565b6001600160a01b0316146105065760405162461bcd60e51b815260040161048e9061155c565b61050f81610b38565b6040805160008082526020820190925261052b91839190610c54565b50565b61010b546001600160a01b031633146105595760405162461bcd60e51b815260040161048e906115d2565b610561610dd3565b61056e62093a8042611722565b61011e5560001961011d55565b306001600160a01b037f00000000000000000000000000000000000000000000000000000000000000001614156105c45760405162461bcd60e51b815260040161048e90611510565b7f00000000000000000000000000000000000000000000000000000000000000006001600160a01b031661060d6000805160206117a0833981519152546001600160a01b031690565b6001600160a01b0316146106335760405162461bcd60e51b815260040161048e9061155c565b61063c82610b38565b61064882826001610c54565b5050565b6000306001600160a01b037f000000000000000000000000000000000000000000000000000000000000000016146106ec5760405162461bcd60e51b815260206004820152603860248201527f555550535570677261646561626c653a206d757374206e6f742062652063616c60448201527f6c6564207468726f7567682064656c656761746563616c6c0000000000000000606482015260840161048e565b506000805160206117a083398151915290565b61010b546001600160a01b0316331461072a5760405162461bcd60e51b815260040161048e906115d2565b61011e54421161073957600080fd5b610741610e66565b4261011d55565b6101205461011f54600091141580610762575061010f5442115b905090565b60655460ff161561078a5760405162461bcd60e51b815260040161048e906115a8565b61010b546001600160a01b031633146107b55760405162461bcd60e51b815260040161048e906115d2565b6040516325b0fcff60e11b815261010b600482015260fb602482015260448101829052737407F38DC065391C5F77c6Fe0bd0b96565c5753f90634b61f9fe9060640160006040518083038186803b15801561080f57600080fd5b505af4158015610823573d6000803e3d6000fd5b5050505050565b600054610100900460ff166108455760005460ff1615610849565b303b155b6108ac5760405162461bcd60e51b815260206004820152602e60248201527f496e697469616c697a61626c653a20636f6e747261637420697320616c72656160448201526d191e481a5b9a5d1a585b1a5e995960921b606482015260840161048e565b600054610100900460ff161580156108ce576000805461ffff19166101011790555b6108d6610ebe565b6108de610eef565b6108e6610f1e565b61011b80546001600160a01b038089166001600160a01b03199283161790925561011c85905560001961011d5561010c80549288169290911691909117905561092e84610f45565b61011f8290556101208290556040518281527ffddcded6b4f4730c226821172046b48372d3cd963c159701ae1b7c3bcac541bb9060200160405180910390a1801561097f576000805461ff00191690555b505050505050565b61010b546001600160a01b031633146109b25760405162461bcd60e51b815260040161048e906115d2565b61052b81610f45565b61010c546000906001600160a01b03163314610a255760405162461bcd60e51b8152602060048201526024808201527f4d696e69476f7665726e616e63653a2073656e646572206973204e4f5420504f6044820152631495105360e21b606482015260840161048e565b60026001541415610a785760405162461bcd60e51b815260206004820152601f60248201527f5265656e7472616e637947756172643a207265656e7472616e742063616c6c00604482015260640161048e565b600260015561010c546040516001600160a01b03909116908390600081818185875af1925050503d8060008114610acb576040519150601f19603f3d011682016040523d82523d6000602084013e610ad0565b606091505b50508091505080610b2f5760405162461bcd60e51b8152602060048201526024808201527f4d696e69476f7665726e616e63653a204661696c656420746f2073656e6420456044820152633a3432b960e11b606482015260840161048e565b60018055919050565b61010b546001600160a01b03163314610b635760405162461bcd60e51b815260040161048e906115d2565b604051633680b40760e01b815261010b60048201526001600160a01b0382166024820152737407F38DC065391C5F77c6Fe0bd0b96565c5753f90633680b4079060440160206040518083038186803b158015610bbe57600080fd5b505af4158015610bd2573d6000803e3d6000fd5b505050506040513d601f19601f82011682018060405250810190610bf69190611393565b61052b5760405162461bcd60e51b815260206004820152602960248201527f4d696e69476f7665726e616e63653a206973204e4f5420616c6c6f77656420746044820152686f207570677261646560b81b606482015260840161048e565b7f4910fdfa16fed3260ed0e7147f7cc6da11a60208b5b9406d12a635614ffd91435460ff1615610c8c57610c8783610f78565b505050565b826001600160a01b03166352d1902d6040518163ffffffff1660e01b815260040160206040518083038186803b158015610cc557600080fd5b505afa925050508015610cf5575060408051601f3d908101601f19168201909252610cf2918101906113b5565b60015b610d585760405162461bcd60e51b815260206004820152602e60248201527f45524331393637557067726164653a206e657720696d706c656d656e7461746960448201526d6f6e206973206e6f74205555505360901b606482015260840161048e565b6000805160206117a08339815191528114610dc75760405162461bcd60e51b815260206004820152602960248201527f45524331393637557067726164653a20756e737570706f727465642070726f786044820152681a58589b195555525160ba1b606482015260840161048e565b50610c87838383611014565b60655460ff16610e1c5760405162461bcd60e51b815260206004820152601460248201527314185d5cd8589b194e881b9bdd081c185d5cd95960621b604482015260640161048e565b6065805460ff191690557f5db9ee0a495bf2e6ff9c91a7834c1ba4fdd244a5e8aa4e537bd38aeae4b073aa335b6040516001600160a01b03909116815260200160405180910390a1565b60655460ff1615610e895760405162461bcd60e51b815260040161048e906115a8565b6065805460ff191660011790557f62e78cea01bee320cd4e420270b5ea74000d11b0c9f74754ebdbfc544b05a258610e493390565b600054610100900460ff16610ee55760405162461bcd60e51b815260040161048e90611616565b610eed61103f565b565b600054610100900460ff16610f165760405162461bcd60e51b815260040161048e90611616565b610eed61106c565b600054610100900460ff16610eed5760405162461bcd60e51b815260040161048e90611616565b60655460ff1615610f685760405162461bcd60e51b815260040161048e906115a8565b61052b61010b8262ed4e0061109f565b6001600160a01b0381163b610fe55760405162461bcd60e51b815260206004820152602d60248201527f455243313936373a206e657720696d706c656d656e746174696f6e206973206e60448201526c1bdd08184818dbdb9d1c9858dd609a1b606482015260840161048e565b6000805160206117a083398151915280546001600160a01b0319166001600160a01b0392909216919091179055565b61101d83611114565b60008251118061102a5750805b15610c87576110398383611154565b50505050565b600054610100900460ff166110665760405162461bcd60e51b815260040161048e90611616565b60018055565b600054610100900460ff166110935760405162461bcd60e51b815260040161048e90611616565b6065805460ff19169055565b82546001600160a01b0319166001600160a01b0383161783556110c28142611722565b600484018190558354604080516001600160a01b03909216825260208201929092527f3f34afe456fb5b36c04b5d1e2ef0750086747ac542262fbf14a0b1aae5fd7ee8910160405180910390a1505050565b61111d81610f78565b6040516001600160a01b038216907fbc7cd75a20ee27fd9adebab32041f755214dbc6bffa90cc0225b39da2e5c2d3b90600090a250565b60606001600160a01b0383163b6111bc5760405162461bcd60e51b815260206004820152602660248201527f416464726573733a2064656c65676174652063616c6c20746f206e6f6e2d636f6044820152651b9d1c9858dd60d21b606482015260840161048e565b600080846001600160a01b0316846040516111d791906114e1565b600060405180830381855af49150503d8060008114611212576040519150601f19603f3d011682016040523d82523d6000602084013e611217565b606091505b509150915061123f82826040518060600160405280602781526020016117c060279139611248565b95945050505050565b60608315611257575081611281565b8251156112675782518084602001fd5b8160405162461bcd60e51b815260040161048e91906114fd565b9392505050565b60006020828403121561129a57600080fd5b81356112818161178a565b600080600080600060a086880312156112bd57600080fd5b85356112c88161178a565b945060208601356112d88161178a565b935060408601356112e88161178a565b94979396509394606081013594506080013592915050565b6000806040838503121561131357600080fd5b823561131e8161178a565b9150602083013567ffffffffffffffff81111561133a57600080fd5b8301601f8101851361134b57600080fd5b803561135e611359826116fa565b6116c9565b81815286602083850101111561137357600080fd5b816020840160208301376000602083830101528093505050509250929050565b6000602082840312156113a557600080fd5b8151801515811461128157600080fd5b6000602082840312156113c757600080fd5b5051919050565b600060208083850312156113e157600080fd5b825167ffffffffffffffff808211156113f957600080fd5b908401906080828703121561140d57600080fd5b6114156116a0565b82516114208161178a565b8152828401518482015260408301518281111561143c57600080fd5b83019150601f8201871361144f57600080fd5b815161145d611359826116fa565b818152888683860101111561147157600080fd5b61148082878301888701611748565b6040830152506060928301519281019290925250949350505050565b6000602082840312156114ae57600080fd5b5035919050565b600081518084526114cd816020860160208601611748565b601f01601f19169290920160200192915050565b600082516114f3818460208701611748565b9190910192915050565b60208152600061128160208301846114b5565b6020808252602c908201527f46756e6374696f6e206d7573742062652063616c6c6564207468726f7567682060408201526b19195b1959d85d1958d85b1b60a21b606082015260800190565b6020808252602c908201527f46756e6374696f6e206d7573742062652063616c6c6564207468726f7567682060408201526b6163746976652070726f787960a01b606082015260800190565b60208082526010908201526f14185d5cd8589b194e881c185d5cd95960821b604082015260600190565b60208082526024908201527f4d696e69476f7665726e616e63653a2073656e646572206973204e4f542053456040820152634e41544560e01b606082015260800190565b6020808252602b908201527f496e697469616c697a61626c653a20636f6e7472616374206973206e6f74206960408201526a6e697469616c697a696e6760a81b606082015260800190565b85815260018060a01b038516602082015283604082015260a06060820152600061168e60a08301856114b5565b90508260808301529695505050505050565b6040516080810167ffffffffffffffff811182821017156116c3576116c3611774565b60405290565b604051601f8201601f1916810167ffffffffffffffff811182821017156116f2576116f2611774565b604052919050565b600067ffffffffffffffff82111561171457611714611774565b50601f01601f191660200190565b6000821982111561174357634e487b7160e01b600052601160045260246000fd5b500190565b60005b8381101561176357818101518382015260200161174b565b838111156110395750506000910152565b634e487b7160e01b600052604160045260246000fd5b6001600160a01b038116811461052b57600080fdfe360894a13ba1a3210667c828492db98dca3e2076cc3735a920a3ca505d382bbc416464726573733a206c6f772d6c6576656c2064656c65676174652063616c6c206661696c6564a26469706673582212205f6cbeff96da96a747c9acacb686b691df8312e36b6be61b9d398342adb1cd6464736f6c63430008070033",
  "deployedBytecode": "0x6080604052600436106100dd5760003560e01c80638456cb591161007f578063a6b63eb811610059578063a6b63eb8146101ed578063ab0e58201461020d578063c5dd6fee1461022d578063fabec44a1461024d57600080fd5b80638456cb59146101a35780638650c072146101b857806398951b56146101cd57600080fd5b80634f1ef286116100bb5780634f1ef2861461012e57806352d1902d146101415780635c975abb14610169578063745653de1461018d57600080fd5b806317c6ebd5146100e25780633659cfe6146100f95780633f4ba83a14610119575b600080fd5b3480156100ee57600080fd5b506100f7610263565b005b34801561010557600080fd5b506100f7610114366004611288565b610445565b34801561012557600080fd5b506100f761052e565b6100f761013c366004611300565b61057b565b34801561014d57600080fd5b5061015661064c565b6040519081526020015b60405180910390f35b34801561017557600080fd5b5060655460ff165b6040519015158152602001610160565b34801561019957600080fd5b5061012054610156565b3480156101af57600080fd5b506100f76106ff565b3480156101c457600080fd5b5061017d610748565b3480156101d957600080fd5b506100f76101e836600461149c565b610767565b3480156101f957600080fd5b506100f76102083660046112a5565b61082a565b34801561021957600080fd5b506100f7610228366004611288565b610987565b34801561023957600080fd5b5061017d61024836600461149c565b6109bb565b34801561025957600080fd5b5061011f54610156565b600061027861010c546001600160a01b031690565b6001600160a01b03166370bf810f6040518163ffffffff1660e01b815260040160206040518083038186803b1580156102b057600080fd5b505afa1580156102c4573d6000803e3d6000fd5b505050506040513d601f19601f820116820180604052508101906102e891906113b5565b61011f549091508114156102fb57600080fd5b600061031061010c546001600160a01b031690565b6001600160a01b031663c7f758a8836040518263ffffffff1660e01b815260040161033d91815260200190565b60006040518083038186803b15801561035557600080fd5b505afa158015610369573d6000803e3d6000fd5b505050506040513d6000823e601f3d908101601f1916820160405261039191908101906113ce565b90508060200151600b146103a457600080fd5b805160408083015190516304cba2d760e11b815273__$470c7289acb57212a69b34ceb5289ef95c$__9263099745ae926103ed9261010b92916002916212750090600401611661565b60206040518083038186803b15801561040557600080fd5b505af4158015610419573d6000803e3d6000fd5b505050506040513d601f19601f8201168201806040525081019061043d91906113b5565b505061012055565b306001600160a01b037f00000000000000000000000000000000000000000000000000000000000000001614156104975760405162461bcd60e51b815260040161048e90611510565b60405180910390fd5b7f00000000000000000000000000000000000000000000000000000000000000006001600160a01b03166104e06000805160206117a0833981519152546001600160a01b031690565b6001600160a01b0316146105065760405162461bcd60e51b815260040161048e9061155c565b61050f81610b38565b6040805160008082526020820190925261052b91839190610c54565b50565b61010b546001600160a01b031633146105595760405162461bcd60e51b815260040161048e906115d2565b610561610dd3565b61056e62093a8042611722565b61011e5560001961011d55565b306001600160a01b037f00000000000000000000000000000000000000000000000000000000000000001614156105c45760405162461bcd60e51b815260040161048e90611510565b7f00000000000000000000000000000000000000000000000000000000000000006001600160a01b031661060d6000805160206117a0833981519152546001600160a01b031690565b6001600160a01b0316146106335760405162461bcd60e51b815260040161048e9061155c565b61063c82610b38565b61064882826001610c54565b5050565b6000306001600160a01b037f000000000000000000000000000000000000000000000000000000000000000016146106ec5760405162461bcd60e51b815260206004820152603860248201527f555550535570677261646561626c653a206d757374206e6f742062652063616c60448201527f6c6564207468726f7567682064656c656761746563616c6c0000000000000000606482015260840161048e565b506000805160206117a083398151915290565b61010b546001600160a01b0316331461072a5760405162461bcd60e51b815260040161048e906115d2565b61011e54421161073957600080fd5b610741610e66565b4261011d55565b6101205461011f54600091141580610762575061010f5442115b905090565b60655460ff161561078a5760405162461bcd60e51b815260040161048e906115a8565b61010b546001600160a01b031633146107b55760405162461bcd60e51b815260040161048e906115d2565b6040516325b0fcff60e11b815261010b600482015260fb60248201526044810182905273__$470c7289acb57212a69b34ceb5289ef95c$__90634b61f9fe9060640160006040518083038186803b15801561080f57600080fd5b505af4158015610823573d6000803e3d6000fd5b5050505050565b600054610100900460ff166108455760005460ff1615610849565b303b155b6108ac5760405162461bcd60e51b815260206004820152602e60248201527f496e697469616c697a61626c653a20636f6e747261637420697320616c72656160448201526d191e481a5b9a5d1a585b1a5e995960921b606482015260840161048e565b600054610100900460ff161580156108ce576000805461ffff19166101011790555b6108d6610ebe565b6108de610eef565b6108e6610f1e565b61011b80546001600160a01b038089166001600160a01b03199283161790925561011c85905560001961011d5561010c80549288169290911691909117905561092e84610f45565b61011f8290556101208290556040518281527ffddcded6b4f4730c226821172046b48372d3cd963c159701ae1b7c3bcac541bb9060200160405180910390a1801561097f576000805461ff00191690555b505050505050565b61010b546001600160a01b031633146109b25760405162461bcd60e51b815260040161048e906115d2565b61052b81610f45565b61010c546000906001600160a01b03163314610a255760405162461bcd60e51b8152602060048201526024808201527f4d696e69476f7665726e616e63653a2073656e646572206973204e4f5420504f6044820152631495105360e21b606482015260840161048e565b60026001541415610a785760405162461bcd60e51b815260206004820152601f60248201527f5265656e7472616e637947756172643a207265656e7472616e742063616c6c00604482015260640161048e565b600260015561010c546040516001600160a01b03909116908390600081818185875af1925050503d8060008114610acb576040519150601f19603f3d011682016040523d82523d6000602084013e610ad0565b606091505b50508091505080610b2f5760405162461bcd60e51b8152602060048201526024808201527f4d696e69476f7665726e616e63653a204661696c656420746f2073656e6420456044820152633a3432b960e11b606482015260840161048e565b60018055919050565b61010b546001600160a01b03163314610b635760405162461bcd60e51b815260040161048e906115d2565b604051633680b40760e01b815261010b60048201526001600160a01b038216602482015273__$470c7289acb57212a69b34ceb5289ef95c$__90633680b4079060440160206040518083038186803b158015610bbe57600080fd5b505af4158015610bd2573d6000803e3d6000fd5b505050506040513d601f19601f82011682018060405250810190610bf69190611393565b61052b5760405162461bcd60e51b815260206004820152602960248201527f4d696e69476f7665726e616e63653a206973204e4f5420616c6c6f77656420746044820152686f207570677261646560b81b606482015260840161048e565b7f4910fdfa16fed3260ed0e7147f7cc6da11a60208b5b9406d12a635614ffd91435460ff1615610c8c57610c8783610f78565b505050565b826001600160a01b03166352d1902d6040518163ffffffff1660e01b815260040160206040518083038186803b158015610cc557600080fd5b505afa925050508015610cf5575060408051601f3d908101601f19168201909252610cf2918101906113b5565b60015b610d585760405162461bcd60e51b815260206004820152602e60248201527f45524331393637557067726164653a206e657720696d706c656d656e7461746960448201526d6f6e206973206e6f74205555505360901b606482015260840161048e565b6000805160206117a08339815191528114610dc75760405162461bcd60e51b815260206004820152602960248201527f45524331393637557067726164653a20756e737570706f727465642070726f786044820152681a58589b195555525160ba1b606482015260840161048e565b50610c87838383611014565b60655460ff16610e1c5760405162461bcd60e51b815260206004820152601460248201527314185d5cd8589b194e881b9bdd081c185d5cd95960621b604482015260640161048e565b6065805460ff191690557f5db9ee0a495bf2e6ff9c91a7834c1ba4fdd244a5e8aa4e537bd38aeae4b073aa335b6040516001600160a01b03909116815260200160405180910390a1565b60655460ff1615610e895760405162461bcd60e51b815260040161048e906115a8565b6065805460ff191660011790557f62e78cea01bee320cd4e420270b5ea74000d11b0c9f74754ebdbfc544b05a258610e493390565b600054610100900460ff16610ee55760405162461bcd60e51b815260040161048e90611616565b610eed61103f565b565b600054610100900460ff16610f165760405162461bcd60e51b815260040161048e90611616565b610eed61106c565b600054610100900460ff16610eed5760405162461bcd60e51b815260040161048e90611616565b60655460ff1615610f685760405162461bcd60e51b815260040161048e906115a8565b61052b61010b8262ed4e0061109f565b6001600160a01b0381163b610fe55760405162461bcd60e51b815260206004820152602d60248201527f455243313936373a206e657720696d706c656d656e746174696f6e206973206e60448201526c1bdd08184818dbdb9d1c9858dd609a1b606482015260840161048e565b6000805160206117a083398151915280546001600160a01b0319166001600160a01b0392909216919091179055565b61101d83611114565b60008251118061102a5750805b15610c87576110398383611154565b50505050565b600054610100900460ff166110665760405162461bcd60e51b815260040161048e90611616565b60018055565b600054610100900460ff166110935760405162461bcd60e51b815260040161048e90611616565b6065805460ff19169055565b82546001600160a01b0319166001600160a01b0383161783556110c28142611722565b600484018190558354604080516001600160a01b03909216825260208201929092527f3f34afe456fb5b36c04b5d1e2ef0750086747ac542262fbf14a0b1aae5fd7ee8910160405180910390a1505050565b61111d81610f78565b6040516001600160a01b038216907fbc7cd75a20ee27fd9adebab32041f755214dbc6bffa90cc0225b39da2e5c2d3b90600090a250565b60606001600160a01b0383163b6111bc5760405162461bcd60e51b815260206004820152602660248201527f416464726573733a2064656c65676174652063616c6c20746f206e6f6e2d636f6044820152651b9d1c9858dd60d21b606482015260840161048e565b600080846001600160a01b0316846040516111d791906114e1565b600060405180830381855af49150503d8060008114611212576040519150601f19603f3d011682016040523d82523d6000602084013e611217565b606091505b509150915061123f82826040518060600160405280602781526020016117c060279139611248565b95945050505050565b60608315611257575081611281565b8251156112675782518084602001fd5b8160405162461bcd60e51b815260040161048e91906114fd565b9392505050565b60006020828403121561129a57600080fd5b81356112818161178a565b600080600080600060a086880312156112bd57600080fd5b85356112c88161178a565b945060208601356112d88161178a565b935060408601356112e88161178a565b94979396509394606081013594506080013592915050565b6000806040838503121561131357600080fd5b823561131e8161178a565b9150602083013567ffffffffffffffff81111561133a57600080fd5b8301601f8101851361134b57600080fd5b803561135e611359826116fa565b6116c9565b81815286602083850101111561137357600080fd5b816020840160208301376000602083830101528093505050509250929050565b6000602082840312156113a557600080fd5b8151801515811461128157600080fd5b6000602082840312156113c757600080fd5b5051919050565b600060208083850312156113e157600080fd5b825167ffffffffffffffff808211156113f957600080fd5b908401906080828703121561140d57600080fd5b6114156116a0565b82516114208161178a565b8152828401518482015260408301518281111561143c57600080fd5b83019150601f8201871361144f57600080fd5b815161145d611359826116fa565b818152888683860101111561147157600080fd5b61148082878301888701611748565b6040830152506060928301519281019290925250949350505050565b6000602082840312156114ae57600080fd5b5035919050565b600081518084526114cd816020860160208601611748565b601f01601f19169290920160200192915050565b600082516114f3818460208701611748565b9190910192915050565b60208152600061128160208301846114b5565b6020808252602c908201527f46756e6374696f6e206d7573742062652063616c6c6564207468726f7567682060408201526b19195b1959d85d1958d85b1b60a21b606082015260800190565b6020808252602c908201527f46756e6374696f6e206d7573742062652063616c6c6564207468726f7567682060408201526b6163746976652070726f787960a01b606082015260800190565b60208082526010908201526f14185d5cd8589b194e881c185d5cd95960821b604082015260600190565b60208082526024908201527f4d696e69476f7665726e616e63653a2073656e646572206973204e4f542053456040820152634e41544560e01b606082015260800190565b6020808252602b908201527f496e697469616c697a61626c653a20636f6e7472616374206973206e6f74206960408201526a6e697469616c697a696e6760a81b606082015260800190565b85815260018060a01b038516602082015283604082015260a06060820152600061168e60a08301856114b5565b90508260808301529695505050505050565b6040516080810167ffffffffffffffff811182821017156116c3576116c3611774565b60405290565b604051601f8201601f1916810167ffffffffffffffff811182821017156116f2576116f2611774565b604052919050565b600067ffffffffffffffff82111561171457611714611774565b50601f01601f191660200190565b6000821982111561174357634e487b7160e01b600052601160045260246000fd5b500190565b60005b8381101561176357818101518382015260200161174b565b838111156110395750506000910152565b634e487b7160e01b600052604160045260246000fd5b6001600160a01b038116811461052b57600080fdfe360894a13ba1a3210667c828492db98dca3e2076cc3735a920a3ca505d382bbc416464726573733a206c6f772d6c6576656c2064656c65676174652063616c6c206661696c6564a26469706673582212205f6cbeff96da96a747c9acacb686b691df8312e36b6be61b9d398342adb1cd6464736f6c63430008070033",
  "libraries": {
    "GeodeUtils": "0x7407F38DC065391C5F77c6Fe0bd0b96565c5753f"
  },
  "devdoc": {
    "author": "Icebear & Crash Bandicoot",
    "details": "Global defense layer is the Portalcurrently only defense mechanics this contract provides is the trustless updates that are * achieved with GeodeUtils * portal cannot upgrade the contract without Senate's approval * * However there are such improvements planned to be implemented to make * the staking environment more trustless. * * \"isolationMode\" is one of them, currently only rules of the isolation mode is Senate_Expiry and * * isUpgraded check. However, this is a good start to ensure that the future implementations will be * * enforced to incentivise the trustless behaviour! The end goal is to create mini-portals * * with different mechanics and allow auto-staking contracts...",
    "kind": "dev",
    "methods": {
      "claimUnstake(uint256)": {
        "params": {
          "claim": "specified amount can be the unstaked balance or just a reward, ETH."
        },
        "returns": {
          "success": "if claim was successful"
        }
      },
      "paused()": {
        "details": "Returns true if the contract is paused, and false otherwise."
      },
      "proxiableUUID()": {
        "details": "Implementation of the ERC1822 {proxiableUUID} function. This returns the storage slot used by the implementation. It is used to validate that the this implementation remains valid after an upgrade. IMPORTANT: A proxy pointing at a proxiable contract should not be considered proxiable itself, because this risks bricking a proxy that upgrades to it, by delegating to itself until out of gas. Thus it is critical that this function revert if invoked through a proxy. This is guaranteed by the `notDelegated` modifier."
      },
      "unpause()": {
        "details": "cannot spam, be careful"
      },
      "upgradeTo(address)": {
        "details": "Upgrade the implementation of the proxy to `newImplementation`. Calls {_authorizeUpgrade}. Emits an {Upgraded} event."
      },
      "upgradeToAndCall(address,bytes)": {
        "details": "Upgrade the implementation of the proxy to `newImplementation`, and subsequently execute the function call encoded in `data`. Calls {_authorizeUpgrade}. Emits an {Upgraded} event."
      }
    },
    "stateVariables": {
      "PAUSE_LAPSE": {
        "details": "While there are currently no worry on what pausing will affect, with the next implementations, spamming stake/unstake can cause an issue. Thus, we require senate to wait a bit before pausing the contract again, allowing validator unstake(maybe)."
      },
      "SENATE_VALIDITY": {
        "details": "While there are currently no worry on if the pool will be abandoned, with the introduction of private pools, it can be a problem. Thus, we require senate to refresh it's validity time to time."
      }
    },
    "title": "MiniGovernance: local defense layer of the trustless Staking Derivatives",
    "version": 1
  },
  "userdoc": {
    "kind": "user",
    "methods": {
      "claimUnstake(uint256)": {
        "notice": "according to eip-4895, the unstaked balances will be just happen to emerge within this contract. * Telescope (oracle) will be watching these events andn finalizing the unstakes. * This method even makes it possible to claim rewards without unstake, which we know is a possibility"
      },
      "fetchUpgradeProposal()": {
        "notice": "anyone can fetch proposal from Portal, so  we don't need to call it."
      }
    },
    "notice": "This contract is being used as the withdrawal credential of the validators, * that are maintained by the given IDs Controller.",
    "version": 1
  },
  "storageLayout": {
    "storage": [
      {
        "astId": 395,
        "contract": "contracts/Portal/MiniGovernance/MiniGovernance.sol:MiniGovernance",
        "label": "_initialized",
        "offset": 0,
        "slot": "0",
        "type": "t_bool"
      },
      {
        "astId": 398,
        "contract": "contracts/Portal/MiniGovernance/MiniGovernance.sol:MiniGovernance",
        "label": "_initializing",
        "offset": 1,
        "slot": "0",
        "type": "t_bool"
      },
      {
        "astId": 723,
        "contract": "contracts/Portal/MiniGovernance/MiniGovernance.sol:MiniGovernance",
        "label": "_status",
        "offset": 0,
        "slot": "1",
        "type": "t_uint256"
      },
      {
        "astId": 767,
        "contract": "contracts/Portal/MiniGovernance/MiniGovernance.sol:MiniGovernance",
        "label": "__gap",
        "offset": 0,
        "slot": "2",
        "type": "t_array(t_uint256)49_storage"
      },
      {
        "astId": 1218,
        "contract": "contracts/Portal/MiniGovernance/MiniGovernance.sol:MiniGovernance",
        "label": "__gap",
        "offset": 0,
        "slot": "51",
        "type": "t_array(t_uint256)50_storage"
      },
      {
        "astId": 619,
        "contract": "contracts/Portal/MiniGovernance/MiniGovernance.sol:MiniGovernance",
        "label": "_paused",
        "offset": 0,
        "slot": "101",
        "type": "t_bool"
      },
      {
        "astId": 708,
        "contract": "contracts/Portal/MiniGovernance/MiniGovernance.sol:MiniGovernance",
        "label": "__gap",
        "offset": 0,
        "slot": "102",
        "type": "t_array(t_uint256)49_storage"
      },
      {
        "astId": 377,
        "contract": "contracts/Portal/MiniGovernance/MiniGovernance.sol:MiniGovernance",
        "label": "__gap",
        "offset": 0,
        "slot": "151",
        "type": "t_array(t_uint256)50_storage"
      },
      {
        "astId": 597,
        "contract": "contracts/Portal/MiniGovernance/MiniGovernance.sol:MiniGovernance",
        "label": "__gap",
        "offset": 0,
        "slot": "201",
        "type": "t_array(t_uint256)50_storage"
      },
      {
        "astId": 2487,
        "contract": "contracts/Portal/MiniGovernance/MiniGovernance.sol:MiniGovernance",
        "label": "DATASTORE",
        "offset": 0,
        "slot": "251",
        "type": "t_struct(DataStore)5097_storage"
      },
      {
        "astId": 2490,
        "contract": "contracts/Portal/MiniGovernance/MiniGovernance.sol:MiniGovernance",
        "label": "GEM",
        "offset": 0,
        "slot": "267",
        "type": "t_struct(Universe)5714_storage"
      },
      {
        "astId": 2493,
        "contract": "contracts/Portal/MiniGovernance/MiniGovernance.sol:MiniGovernance",
        "label": "SELF",
        "offset": 0,
        "slot": "283",
        "type": "t_struct(PoolGovernance)2519_storage"
      },
      {
        "astId": 2885,
        "contract": "contracts/Portal/MiniGovernance/MiniGovernance.sol:MiniGovernance",
        "label": "__gap",
        "offset": 0,
        "slot": "298",
        "type": "t_array(t_uint256)45_storage"
      }
    ],
    "types": {
      "t_address": {
        "encoding": "inplace",
        "label": "address",
        "numberOfBytes": "20"
      },
      "t_array(t_uint256)12_storage": {
        "base": "t_uint256",
        "encoding": "inplace",
        "label": "uint256[12]",
        "numberOfBytes": "384"
      },
      "t_array(t_uint256)45_storage": {
        "base": "t_uint256",
        "encoding": "inplace",
        "label": "uint256[45]",
        "numberOfBytes": "1440"
      },
      "t_array(t_uint256)49_storage": {
        "base": "t_uint256",
        "encoding": "inplace",
        "label": "uint256[49]",
        "numberOfBytes": "1568"
      },
      "t_array(t_uint256)50_storage": {
        "base": "t_uint256",
        "encoding": "inplace",
        "label": "uint256[50]",
        "numberOfBytes": "1600"
      },
      "t_array(t_uint256)7_storage": {
        "base": "t_uint256",
        "encoding": "inplace",
        "label": "uint256[7]",
        "numberOfBytes": "224"
      },
      "t_array(t_uint256)9_storage": {
        "base": "t_uint256",
        "encoding": "inplace",
        "label": "uint256[9]",
        "numberOfBytes": "288"
      },
      "t_array(t_uint256)dyn_storage": {
        "base": "t_uint256",
        "encoding": "dynamic_array",
        "label": "uint256[]",
        "numberOfBytes": "32"
      },
      "t_bool": {
        "encoding": "inplace",
        "label": "bool",
        "numberOfBytes": "1"
      },
      "t_bytes32": {
        "encoding": "inplace",
        "label": "bytes32",
        "numberOfBytes": "32"
      },
      "t_bytes_storage": {
        "encoding": "bytes",
        "label": "bytes",
        "numberOfBytes": "32"
      },
      "t_contract(IgETH)12505": {
        "encoding": "inplace",
        "label": "contract IgETH",
        "numberOfBytes": "20"
      },
      "t_mapping(t_bytes32,t_address)": {
        "encoding": "mapping",
        "key": "t_bytes32",
        "label": "mapping(bytes32 => address)",
        "numberOfBytes": "32",
        "value": "t_address"
      },
      "t_mapping(t_bytes32,t_bytes_storage)": {
        "encoding": "mapping",
        "key": "t_bytes32",
        "label": "mapping(bytes32 => bytes)",
        "numberOfBytes": "32",
        "value": "t_bytes_storage"
      },
      "t_mapping(t_bytes32,t_uint256)": {
        "encoding": "mapping",
        "key": "t_bytes32",
        "label": "mapping(bytes32 => uint256)",
        "numberOfBytes": "32",
        "value": "t_uint256"
      },
      "t_mapping(t_uint256,t_array(t_uint256)dyn_storage)": {
        "encoding": "mapping",
        "key": "t_uint256",
        "label": "mapping(uint256 => uint256[])",
        "numberOfBytes": "32",
        "value": "t_array(t_uint256)dyn_storage"
      },
      "t_mapping(t_uint256,t_bool)": {
        "encoding": "mapping",
        "key": "t_uint256",
        "label": "mapping(uint256 => bool)",
        "numberOfBytes": "32",
        "value": "t_bool"
      },
      "t_mapping(t_uint256,t_struct(Proposal)5686_storage)": {
        "encoding": "mapping",
        "key": "t_uint256",
        "label": "mapping(uint256 => struct GeodeUtils.Proposal)",
        "numberOfBytes": "32",
        "value": "t_struct(Proposal)5686_storage"
      },
      "t_struct(DataStore)5097_storage": {
        "encoding": "inplace",
        "label": "struct DataStoreUtils.DataStore",
        "members": [
          {
            "astId": 5080,
            "contract": "contracts/Portal/MiniGovernance/MiniGovernance.sol:MiniGovernance",
            "label": "allIdsByType",
            "offset": 0,
            "slot": "0",
            "type": "t_mapping(t_uint256,t_array(t_uint256)dyn_storage)"
          },
          {
            "astId": 5084,
            "contract": "contracts/Portal/MiniGovernance/MiniGovernance.sol:MiniGovernance",
            "label": "uintData",
            "offset": 0,
            "slot": "1",
            "type": "t_mapping(t_bytes32,t_uint256)"
          },
          {
            "astId": 5088,
            "contract": "contracts/Portal/MiniGovernance/MiniGovernance.sol:MiniGovernance",
            "label": "bytesData",
            "offset": 0,
            "slot": "2",
            "type": "t_mapping(t_bytes32,t_bytes_storage)"
          },
          {
            "astId": 5092,
            "contract": "contracts/Portal/MiniGovernance/MiniGovernance.sol:MiniGovernance",
            "label": "addressData",
            "offset": 0,
            "slot": "3",
            "type": "t_mapping(t_bytes32,t_address)"
          },
          {
            "astId": 5096,
            "contract": "contracts/Portal/MiniGovernance/MiniGovernance.sol:MiniGovernance",
            "label": "__gap",
            "offset": 0,
            "slot": "4",
            "type": "t_array(t_uint256)12_storage"
          }
        ],
        "numberOfBytes": "512"
      },
      "t_struct(PoolGovernance)2519_storage": {
        "encoding": "inplace",
        "label": "struct MiniGovernance.PoolGovernance",
        "members": [
          {
            "astId": 2504,
            "contract": "contracts/Portal/MiniGovernance/MiniGovernance.sol:MiniGovernance",
            "label": "gETH",
            "offset": 0,
            "slot": "0",
            "type": "t_contract(IgETH)12505"
          },
          {
            "astId": 2506,
            "contract": "contracts/Portal/MiniGovernance/MiniGovernance.sol:MiniGovernance",
            "label": "ID",
            "offset": 0,
            "slot": "1",
            "type": "t_uint256"
          },
          {
            "astId": 2508,
            "contract": "contracts/Portal/MiniGovernance/MiniGovernance.sol:MiniGovernance",
            "label": "lastPause",
            "offset": 0,
            "slot": "2",
            "type": "t_uint256"
          },
          {
            "astId": 2510,
            "contract": "contracts/Portal/MiniGovernance/MiniGovernance.sol:MiniGovernance",
            "label": "whenPauseAllowed",
            "offset": 0,
            "slot": "3",
            "type": "t_uint256"
          },
          {
            "astId": 2512,
            "contract": "contracts/Portal/MiniGovernance/MiniGovernance.sol:MiniGovernance",
            "label": "contractVersion",
            "offset": 0,
            "slot": "4",
            "type": "t_uint256"
          },
          {
            "astId": 2514,
            "contract": "contracts/Portal/MiniGovernance/MiniGovernance.sol:MiniGovernance",
            "label": "proposedVersion",
            "offset": 0,
            "slot": "5",
            "type": "t_uint256"
          },
          {
            "astId": 2518,
            "contract": "contracts/Portal/MiniGovernance/MiniGovernance.sol:MiniGovernance",
            "label": "__gap",
            "offset": 0,
            "slot": "6",
            "type": "t_array(t_uint256)9_storage"
          }
        ],
        "numberOfBytes": "480"
      },
      "t_struct(Proposal)5686_storage": {
        "encoding": "inplace",
        "label": "struct GeodeUtils.Proposal",
        "members": [
          {
            "astId": 5679,
            "contract": "contracts/Portal/MiniGovernance/MiniGovernance.sol:MiniGovernance",
            "label": "CONTROLLER",
            "offset": 0,
            "slot": "0",
            "type": "t_address"
          },
          {
            "astId": 5681,
            "contract": "contracts/Portal/MiniGovernance/MiniGovernance.sol:MiniGovernance",
            "label": "TYPE",
            "offset": 0,
            "slot": "1",
            "type": "t_uint256"
          },
          {
            "astId": 5683,
            "contract": "contracts/Portal/MiniGovernance/MiniGovernance.sol:MiniGovernance",
            "label": "NAME",
            "offset": 0,
            "slot": "2",
            "type": "t_bytes_storage"
          },
          {
            "astId": 5685,
            "contract": "contracts/Portal/MiniGovernance/MiniGovernance.sol:MiniGovernance",
            "label": "deadline",
            "offset": 0,
            "slot": "3",
            "type": "t_uint256"
          }
        ],
        "numberOfBytes": "128"
      },
      "t_struct(Universe)5714_storage": {
        "encoding": "inplace",
        "label": "struct GeodeUtils.Universe",
        "members": [
          {
            "astId": 5688,
            "contract": "contracts/Portal/MiniGovernance/MiniGovernance.sol:MiniGovernance",
            "label": "SENATE",
            "offset": 0,
            "slot": "0",
            "type": "t_address"
          },
          {
            "astId": 5690,
            "contract": "contracts/Portal/MiniGovernance/MiniGovernance.sol:MiniGovernance",
            "label": "GOVERNANCE",
            "offset": 0,
            "slot": "1",
            "type": "t_address"
          },
          {
            "astId": 5692,
            "contract": "contracts/Portal/MiniGovernance/MiniGovernance.sol:MiniGovernance",
            "label": "GOVERNANCE_TAX",
            "offset": 0,
            "slot": "2",
            "type": "t_uint256"
          },
          {
            "astId": 5694,
            "contract": "contracts/Portal/MiniGovernance/MiniGovernance.sol:MiniGovernance",
            "label": "MAX_GOVERNANCE_TAX",
            "offset": 0,
            "slot": "3",
            "type": "t_uint256"
          },
          {
            "astId": 5696,
            "contract": "contracts/Portal/MiniGovernance/MiniGovernance.sol:MiniGovernance",
            "label": "SENATE_EXPIRY",
            "offset": 0,
            "slot": "4",
            "type": "t_uint256"
          },
          {
            "astId": 5698,
            "contract": "contracts/Portal/MiniGovernance/MiniGovernance.sol:MiniGovernance",
            "label": "approvedUpgrade",
            "offset": 0,
            "slot": "5",
            "type": "t_address"
          },
          {
            "astId": 5700,
            "contract": "contracts/Portal/MiniGovernance/MiniGovernance.sol:MiniGovernance",
            "label": "_electorCount",
            "offset": 0,
            "slot": "6",
            "type": "t_uint256"
          },
          {
            "astId": 5704,
            "contract": "contracts/Portal/MiniGovernance/MiniGovernance.sol:MiniGovernance",
            "label": "_electorTypes",
            "offset": 0,
            "slot": "7",
            "type": "t_mapping(t_uint256,t_bool)"
          },
          {
            "astId": 5709,
            "contract": "contracts/Portal/MiniGovernance/MiniGovernance.sol:MiniGovernance",
            "label": "_proposalForId",
            "offset": 0,
            "slot": "8",
            "type": "t_mapping(t_uint256,t_struct(Proposal)5686_storage)"
          },
          {
            "astId": 5713,
            "contract": "contracts/Portal/MiniGovernance/MiniGovernance.sol:MiniGovernance",
            "label": "__gap",
            "offset": 0,
            "slot": "9",
            "type": "t_array(t_uint256)7_storage"
          }
        ],
        "numberOfBytes": "512"
      },
      "t_uint256": {
        "encoding": "inplace",
        "label": "uint256",
        "numberOfBytes": "32"
      }
    }
  }
}