{
  "address": "0xeb207DF3CE41386430334776de42696cEE0AD906",
  "abi": [
    {
      "anonymous": false,
      "inputs": [
        {
          "indexed": false,
          "internalType": "bytes",
          "name": "pubkey",
          "type": "bytes"
        }
      ],
      "name": "Alienated",
      "type": "event"
    },
    {
      "anonymous": false,
      "inputs": [
        {
          "indexed": false,
          "internalType": "bytes",
          "name": "pubkey",
          "type": "bytes"
        }
      ],
      "name": "Busted",
      "type": "event"
    },
    {
      "anonymous": false,
      "inputs": [
        {
          "indexed": false,
          "internalType": "uint256",
          "name": "id",
          "type": "uint256"
        },
        {
          "indexed": false,
          "internalType": "uint256",
          "name": "blockNumber",
          "type": "uint256"
        }
      ],
      "name": "FeeTheft",
      "type": "event"
    },
    {
      "anonymous": false,
      "inputs": [
        {
          "indexed": false,
          "internalType": "uint256",
          "name": "id",
          "type": "uint256"
        },
        {
          "indexed": false,
          "internalType": "uint256",
          "name": "releaseTimestamp",
          "type": "uint256"
        }
      ],
      "name": "Prisoned",
      "type": "event"
    },
    {
      "anonymous": false,
      "inputs": [
        {
          "indexed": false,
          "internalType": "uint256",
          "name": "id",
          "type": "uint256"
        }
      ],
      "name": "Released",
      "type": "event"
    },
    {
      "anonymous": false,
      "inputs": [
        {
          "indexed": false,
          "internalType": "uint256",
          "name": "validatorVerificationIndex",
          "type": "uint256"
        }
      ],
      "name": "VerificationIndexUpdated",
      "type": "event"
    },
    {
      "inputs": [],
      "name": "MONOPOLY_RATIO",
      "outputs": [
        {
          "internalType": "uint256",
          "name": "",
          "type": "uint256"
        }
      ],
      "stateMutability": "view",
      "type": "function"
    },
    {
      "inputs": [],
      "name": "ORACLE_ACTIVE_PERIOD",
      "outputs": [
        {
          "internalType": "uint256",
          "name": "",
          "type": "uint256"
        }
      ],
      "stateMutability": "view",
      "type": "function"
    },
    {
      "inputs": [],
      "name": "ORACLE_PERIOD",
      "outputs": [
        {
          "internalType": "uint256",
          "name": "",
          "type": "uint256"
        }
      ],
      "stateMutability": "view",
      "type": "function"
    },
    {
      "inputs": [],
      "name": "PERCENTAGE_DENOMINATOR",
      "outputs": [
        {
          "internalType": "uint256",
          "name": "",
          "type": "uint256"
        }
      ],
      "stateMutability": "view",
      "type": "function"
    },
    {
      "inputs": [],
      "name": "PRISON_SENTENCE",
      "outputs": [
        {
          "internalType": "uint256",
          "name": "",
          "type": "uint256"
        }
      ],
      "stateMutability": "view",
      "type": "function"
    }
  ],
  "transactionHash": "0x2e2ad684e87e5c089032fe43ce18283d2bb086218bcaa946c5033ba929a7df79",
  "args": [],
  "numDeployments": 1,
  "solcInputHash": "0fbab820add1fbf0817c674a8422f37e",
  "bytecode": "0x611bfb61003a600b82828239805160001a60731461002d57634e487b7160e01b600052600060045260246000fd5b30600052607381538281f3fe73000000000000000000000000000000000000000030146080604052600436106100a85760003560e01c8063b3cd425411610070578063b3cd425414610133578063cd15d82e1461013f578063ea976d151461015f578063f930444a14610169578063fe406a7d1461018957600080fd5b80630a1b45ce146100ad5780631425fb51146100cf5780632d855053146100ef5780635f365cb41461010a5780638a6ea9b714610113575b600080fd5b8180156100b957600080fd5b506100cd6100c83660046116f1565b610193565b005b8180156100db57600080fd5b506100cd6100ea3660046117ce565b6103b7565b6100f7610687565b6040519081526020015b60405180910390f35b6100f761070881565b610126610121366004611675565b6106a6565b60405161010191906119a1565b6100f76402540be40081565b81801561014b57600080fd5b506100cd61015a366004611653565b610817565b6100f762278d0081565b81801561017557600080fd5b506100cd61018436600461185b565b6108bc565b6100f76201518081565b600188015488906001600160a01b031633146101ca5760405162461bcd60e51b81526004016101c19061196a565b60405180910390fd5b6101d389610b16565b156102205760405162461bcd60e51b815260206004820152601d60248201527f4f7261636c655574696c733a206f7261636c652069732061637469766500000060448201526064016101c1565b60005b8681101561026b576102598a8a8a8a8581811061024257610242611baf565b90506020028101906102549190611a70565b610b4a565b8061026381611b54565b915050610223565b5060005b848110156102b7576102a58a8a88888581811061028e5761028e611baf565b90506020028101906102a09190611a70565b610c7a565b806102af81611b54565b91505061026f565b5060005b828110156103ab576102fb898585848181106102d9576102d9611baf565b9050604002016000600281106102f1576102f1611baf565b6020020135610d14565b7f181fa81c765296a681c8f5293b14d9164443b1e1ba1da72596f28ba34adfb77384848381811061032e5761032e611baf565b90506040020160006002811061034657610346611baf565b602002013585858481811061035d5761035d611baf565b90506040020160016002811061037557610375611baf565b6020020135604051610391929190918252602082015260400190565b60405180910390a1806103a381611b54565b9150506102bb565b50505050505050505050565b600187015487906001600160a01b031633146103e55760405162461bcd60e51b81526004016101c19061196a565b6103ee88610b16565b6104445760405162461bcd60e51b815260206004820152602160248201527f4f7261636c655574696c733a206f7261636c65206973204e4f542061637469766044820152606560f81b60648201526084016101c1565b60056000908152602088905260409020548481146104b95760405162461bcd60e51b815260206004820152602c60248201527f4f7261636c655574696c733a20696e636f727265637420626561636f6e42616c60448201526b0c2dcc6cae640d8cadccee8d60a31b60648201526084016101c1565b82811461051a5760405162461bcd60e51b815260206004820152602960248201527f4f7261636c655574696c733a20696e636f727265637420707269636550726f6f6044820152680cce640d8cadccee8d60bb1b60648201526084016101c1565b50600888018690556002880154600090620151809061053b61070842611ab7565b6105459190611b02565b61054f9190611acf565b90506000604051806040016040528061058d62015180426105709190611b6f565b61057a9042611b02565b6936b4b73a213ab33332b960b11b610d7e565b81526020016105bf6105a26201518042611b6f565b6105ac9042611b02565b69313ab937213ab33332b960b11b610d7e565b9052905060005b8681101561065b576106498b8b848d60000160006005815260200190815260200160002085815481106105fb576105fb611baf565b90600052602060002001548c8c8781811061061857610618611baf565b90506020020135888c8c8981811061063257610632611baf565b90506020028101906106449190611a26565b610daa565b8061065381611b54565b9150506105c6565b506106696201518042611b6f565b6106739042611b02565b8a6002018190555050505050505050505050565b60646106996402540be4006005611ae3565b6106a39190611acf565b81565b6106f8604051806101200160405280600060ff16815260200160008152602001600081526020016000815260200160008152602001600081526020016000815260200160008152602001606081525090565b83600901838360405161070c92919061192b565b90815260408051918290036020908101832061012084018352805460ff1684526001810154918401919091526002810154918301919091526003810154606083015260048101546080830152600581015460a0830152600681015460c0830152600781015460e08301526008810180546101008401919061078c90611b19565b80601f01602080910402602001604051908101604052809291908181526020018280546107b890611b19565b80156108055780601f106107da57610100808354040283529160200191610805565b820191906000526020600020905b8154815290600101906020018083116107e857829003601f168201915b50505050508152505090509392505050565b6108218282610f13565b61086d5760405162461bcd60e51b815260206004820152601a60248201527f4f7261636c655574696c733a204e4f5420696e20707269736f6e00000000000060448201526064016101c1565b6108848282671c995b19585cd95960c21b42610f35565b6040518181527ffb81f9b30d73d830c3544b34d827c08142579ee75710b490bab0b3995468c565906020015b60405180910390a15050565b600186015486906001600160a01b031633146108ea5760405162461bcd60e51b81526004016101c19061196a565b6108f387610b16565b156109405760405162461bcd60e51b815260206004820152601d60248201527f4f7261636c655574696c733a206f7261636c652069732061637469766500000060448201526064016101c1565b61138785116109915760405162461bcd60e51b815260206004820181905260248201527f4f7261636c655574696c733a206c6f772076616c696461746f7220636f756e7460448201526064016101c1565b83876004015410156109f15760405162461bcd60e51b8152602060048201526024808201527f4f7261636c655574696c733a206869676820564552494649434154494f4e5f4960448201526309c888ab60e31b60648201526084016101c1565b8660050154841015610a515760405162461bcd60e51b815260206004820152602360248201527f4f7261636c655574696c733a206c6f7720564552494649434154494f4e5f494e6044820152620888ab60eb1b60648201526084016101c1565b6005870184905560005b82811015610aa357610a918888868685818110610a7a57610a7a611baf565b9050602002810190610a8c9190611a70565b610f5d565b80610a9b81611b54565b915050610a5b565b506402540be4006064610ab7826005611ae3565b610ac19190611acf565b610acb9087611ae3565b610ad59190611acf565b60038801556040518481527f5741e1f31a5b295a42632c4a80216d28bf245e6f0ee679b887d8ecd7b94517ee9060200160405180910390a150505050505050565b6000610708610b286201518042611b6f565b11158015610b445750610b3d61070842611b02565b8260020154105b92915050565b836009018282604051610b5e92919061192b565b90815260405190819003602001902054600260ff90911614610bd25760405162461bcd60e51b815260206004820152602760248201527f4f7261636c655574696c733a205369676e616c65642c2063616e6e6f7420626560448201526608189d5cdd195960ca1b60648201526084016101c1565b6003846009018383604051610be892919061192b565b908152604051908190036020018120805460ff9390931660ff1990931692909217909155610c3b9084906009870190610c24908690869061192b565b908152602001604051809103902060030154610d14565b7f0ac6d86601bdb449b945aca7c118a5d062e435405d652bd41f3e2142999085a58282604051610c6c92919061193b565b60405180910390a150505050565b836009018282604051610c8e92919061192b565b90815260405190819003602001902054600360ff90911614610cfe5760405162461bcd60e51b815260206004820152602360248201527f4f7261636c655574696c733a207075626b6579206973204e4f54207369676e616044820152621b195960ea1b60648201526084016101c1565b6002846009018383604051610be892919061192b565b610d3a81671c995b19585cd95960c21b610d3162278d0042611ab7565b85929190610f35565b7f6a740d28273a335dabd953f22fd145fdc11323629c3ff8717eb28f53b227e7fd81610d6962278d0042611ab7565b604080519283526020830191909152016108b0565b604080516020808201949094528082019290925280518083038201815260609092019052805191012090565b600080610dc88a8a8a8460200201518b600160200201518b8b6110e4565b91509150610dd88a888785611397565b6040805160208101899052908101839052600090606001604051602081830303815290604052805190602001209050610e4885858080602002602001604051908101604052809392919081815260200183836020028082843760009201919091525050505060088d0154836114ec565b610ea25760405162461bcd60e51b815260206004820152602560248201527f4f7261636c655574696c733a204e4f5420616c6c2070726f6f667320617265206044820152641d985b1a5960da1b60648201526084016101c1565b8a546040516322af599760e01b815260048101849052602481018a90526001600160a01b03909116906322af599790604401600060405180830381600087803b158015610eee57600080fd5b505af1158015610f02573d6000803e3d6000fd5b505050505050505050505050505050565b6000610f2b8383671c995b19585cd95960c21b611502565b4211159392505050565b80846001016000610f468686610d7e565b815260208101919091526040016000205550505050565b836009018282604051610f7192919061192b565b9081526040519081900360200190205460ff16600114610fe95760405162461bcd60e51b815260206004820152602d60248201527f4f7261636c655574696c733a204e4f5420616c6c20616c69656e5075626b657960448201526c73206172652070656e64696e6760981b60648201526084016101c1565b6000846009018383604051610fff92919061192b565b9081526040519081900360200190206002015490506110338482661cd958dd5c995960ca1b6801bc16d674ec80000061152c565b611052848266737572706c757360c81b6801bc16d674ec800000611565565b604585600901848460405161106892919061192b565b908152604051908190036020018120805460ff9390931660ff19909316929092179091556110a49085906009880190610c24908790879061192b565b7f7033b7b89d1818b80f9a85b8d604a07ec95f439c75d7ed56caef4d57a101397583836040516110d592919061193b565b60405180910390a15050505050565b600080806110fd888666737572706c757360c81b611502565b6111128987661cd958dd5c995960ca1b611502565b61111c9086611ab7565b6111269190611ab7565b905060008960000160009054906101000a90046001600160a01b03166001600160a01b03166396ce07956040518163ffffffff1660e01b815260040160206040518083038186803b15801561117a57600080fd5b505afa15801561118e573d6000803e3d6000fd5b505050506040513d601f19601f820116820180604052508101906111b291906118c5565b8a5460405163f759cc3b60e01b81526004810189905291925060009182916001600160a01b03169063f759cc3b9060240160206040518083038186803b1580156111fb57600080fd5b505afa15801561120f573d6000803e3d6000fd5b505050506040513d601f19601f8201168201806040525081019061123391906118c5565b905082816112428d8b8e611502565b61124c9190611ae3565b6112569190611acf565b6112609085611b02565b9150828161126f8d8b8d611502565b6112799190611ae3565b6112839190611acf565b61128d9083611ab7565b8c5460405163bd85b03960e01b8152600481018b9052919350600092506001600160a01b03169063bd85b0399060240160206040518083038186803b1580156112d557600080fd5b505afa1580156112e9573d6000803e3d6000fd5b505050506040513d601f19601f8201168201806040525081019061130d91906118c5565b9050600061131c8c8a8d611502565b6113269083611b02565b90506113338c8a8c611502565b61133d9082611ab7565b905061134c8c8a8d6000610f35565b6113598c8a8c6000610f35565b806113648585611ae3565b61136e9190611acf565b826113798688611ae3565b6113839190611acf565b965096505050505050965096945050505050565b835460405163f759cc3b60e01b8152600481018590526000916001600160a01b03169063f759cc3b9060240160206040518083038186803b1580156113db57600080fd5b505afa1580156113ef573d6000803e3d6000fd5b505050506040513d601f19601f8201168201806040525081019061141391906118c5565b905060006402540be4008487600601548461142e9190611ae3565b6114389190611ae3565b6114429190611acf565b61144c9083611ab7565b905060006402540be400858860070154856114679190611ae3565b6114719190611ae3565b61147b9190611acf565b6114859084611b02565b90508084101580156114975750818411155b6114e35760405162461bcd60e51b815260206004820152601c60248201527f4f7261636c655574696c733a20707269636520697320696e73616e650000000060448201526064016101c1565b50505050505050565b6000826114f98584611593565b14949350505050565b60008360010160006115148585610d7e565b81526020019081526020016000205490509392505050565b8084600101600061153d8686610d7e565b8152602001908152602001600020600082825461155a9190611b02565b909155505050505050565b808460010160006115768686610d7e565b8152602001908152602001600020600082825461155a9190611ab7565b600081815b84518110156115ff5760008582815181106115b5576115b5611baf565b602002602001015190508083116115db57600083815260208290526040902092506115ec565b600081815260208490526040902092505b50806115f781611b54565b915050611598565b509392505050565b60008083601f84011261161957600080fd5b50813567ffffffffffffffff81111561163157600080fd5b6020830191508360208260051b850101111561164c57600080fd5b9250929050565b6000806040838503121561166657600080fd5b50508035926020909101359150565b60008060006040848603121561168a57600080fd5b83359250602084013567ffffffffffffffff808211156116a957600080fd5b818601915086601f8301126116bd57600080fd5b8135818111156116cc57600080fd5b8760208285010111156116de57600080fd5b6020830194508093505050509250925092565b60008060008060008060008060a0898b03121561170d57600080fd5b8835975060208901359650604089013567ffffffffffffffff8082111561173357600080fd5b61173f8c838d01611607565b909850965060608b013591508082111561175857600080fd5b6117648c838d01611607565b909650945060808b013591508082111561177d57600080fd5b818b0191508b601f83011261179157600080fd5b8135818111156117a057600080fd5b8c60208260061b85010111156117b557600080fd5b6020830194508093505050509295985092959890939650565b600080600080600080600060a0888a0312156117e957600080fd5b873596506020880135955060408801359450606088013567ffffffffffffffff8082111561181657600080fd5b6118228b838c01611607565b909650945060808a013591508082111561183b57600080fd5b506118488a828b01611607565b989b979a50959850939692959293505050565b60008060008060008060a0878903121561187457600080fd5b86359550602087013594506040870135935060608701359250608087013567ffffffffffffffff8111156118a757600080fd5b6118b389828a01611607565b979a9699509497509295939492505050565b6000602082840312156118d757600080fd5b5051919050565b6000815180845260005b81811015611904576020818501810151868301820152016118e8565b81811115611916576000602083870101525b50601f01601f19169290920160200192915050565b8183823760009101908152919050565b60208152816020820152818360408301376000818301604090810191909152601f909201601f19160101919050565b6020808252601e908201527f4f7261636c655574696c733a2073656e646572204e4f54204f5241434c450000604082015260600190565b602081526119b560208201835160ff169052565b602082015160408201526040820151606082015260608201516080820152608082015160a082015260a082015160c082015260c082015160e0820152600060e0830151610100818185015280850151915050610120808185015250611a1e6101408401826118de565b949350505050565b6000808335601e19843603018112611a3d57600080fd5b83018035915067ffffffffffffffff821115611a5857600080fd5b6020019150600581901b360382131561164c57600080fd5b6000808335601e19843603018112611a8757600080fd5b83018035915067ffffffffffffffff821115611aa257600080fd5b60200191503681900382131561164c57600080fd5b60008219821115611aca57611aca611b83565b500190565b600082611ade57611ade611b99565b500490565b6000816000190483118215151615611afd57611afd611b83565b500290565b600082821015611b1457611b14611b83565b500390565b600181811c90821680611b2d57607f821691505b60208210811415611b4e57634e487b7160e01b600052602260045260246000fd5b50919050565b6000600019821415611b6857611b68611b83565b5060010190565b600082611b7e57611b7e611b99565b500690565b634e487b7160e01b600052601160045260246000fd5b634e487b7160e01b600052601260045260246000fd5b634e487b7160e01b600052603260045260246000fdfea264697066735822122011d4b65daa468222580bdd9c5a5ee171d64ca31f4e91223e604c06b2431bb1f564736f6c63430008070033",
  "devdoc": {
    "author": "Icebear & Crash Bandicoot",
    "details": "Prisoned Validator: * 1. created a malicious validator(alien) * 2. withdrawn without a signal * 3. signaled but not withdrawn * 4. did not respect the validatorPeriodALL \"fee\" variables are limited by PERCENTAGE_DENOMINATOR = 100% Note refer to DataStoreUtils before reviewing",
    "kind": "dev",
    "methods": {
      "regulateOperators(OracleUtils.Oracle storage,DataStoreUtils.DataStore storage,bytes[],bytes[],uint256[2][])": {
        "details": "Both of these functions results in imprisonment.",
        "params": {
          "bustedExits": "validators that have not signaled before Unstake",
          "bustedSignals": "validators that are \"mistakenly:)\" signaled but not Unstaked",
          "feeThefts": "[0]: Operator ids who have stolen MEV or block rewards, [1]: detected BlockNumber as proof"
        }
      },
      "releasePrisoned(DataStoreUtils.DataStore storage,uint256)": {
        "details": "in different situations such as a faulty improsenment or coordinated testing periods * Governance can vote on releasing the prisonersonlyGovernance check is in Portal"
      },
      "reportOracle(OracleUtils.Oracle storage,DataStoreUtils.DataStore storage,bytes32,uint256[],bytes32[][])": {
        "details": "if merkle proof holds the oracle price, new price is the found price of the derivative"
      },
      "updateVerificationIndex(OracleUtils.Oracle storage,DataStoreUtils.DataStore storage,uint256,uint256,bytes[])": {
        "params": {
          "alienatedPubkeys": "proposals with lower index than new_index who frontrunned proposeStake with incorrect withdrawal credential results in imprisonment.",
          "allValidatorsCount": "total number of validators to figure out what is the current Monopoly Requirement",
          "validatorVerificationIndex": "index of the highest validator that is verified to be activated"
        }
      }
    },
    "title": "OracleUtils library to be used within stakeUtils",
    "version": 1
  },
  "userdoc": {
    "kind": "user",
    "methods": {
      "MONOPOLY_RATIO()": {
        "notice": "effective on MONOPOLY_THRESHOLD, limiting the active validators, set to 5% at start."
      },
      "ORACLE_PERIOD()": {
        "notice": "Oracle is active for the first 30 min of every day"
      },
      "PERCENTAGE_DENOMINATOR()": {
        "notice": "PERCENTAGE_DENOMINATOR represents 100%"
      },
      "PRISON_SENTENCE()": {
        "notice": "limiting some abilities of Operators in case of bad behaviour"
      },
      "regulateOperators(OracleUtils.Oracle storage,DataStoreUtils.DataStore storage,bytes[],bytes[],uint256[2][])": {
        "notice": "regulating operators within Geode with verifiable proofs"
      },
      "releasePrisoned(DataStoreUtils.DataStore storage,uint256)": {
        "notice": "releases an imprisoned operator immidately"
      },
      "reportOracle(OracleUtils.Oracle storage,DataStoreUtils.DataStore storage,bytes32,uint256[],bytes32[][])": {
        "notice": "Telescope reports all of the g-derivate prices with a new PRICE_MERKLE_ROOTafter report updates the prices of the public poolsupdates the ORACLE_UPDATE_TIMESTAMP"
      },
      "updateVerificationIndex(OracleUtils.Oracle storage,DataStoreUtils.DataStore storage,uint256,uint256,bytes[])": {
        "notice": "Updating VERIFICATION_INDEX, signaling that it is safe to allow validators with lower index than VERIFICATION_INDEX to stake with staking pool funds"
      }
    },
    "notice": "Oracle, named Telescope, is responsible from 2 tasks: * regulating the validator creations and exits * syncs the price of all pools with merkleroot Regulating the validators/operators: * state 1: validators is proposed since enough allowence is given from pool maintainers, 1 ETH is locked from maintainerWallet * state 2: stake was approved by Oracle, operator used user funds to activate the validator, 1 ETH is released * state 69: validator was malicious(alien), probably front-runned with a problematic withdrawalCredential, (https://bit.ly/3Tkc6UC) * state 3: validator is exited. However, if the signal turns out to be false, then Telescope reports and sets to state 2, prisoning the operator. * * Reports the Total number of Beacon validators to make sure no operator is running more validators then they should within Geode Universe. Syncing the Prices: * Telescope works the first 30 minutes of every day(GMT), with an archive node that points the first second. * Catches the beacon chain balances and decreases the fees, groups them by ids * Creates a merkle root, by simply calculating all prices from every pool, either private or public * Verifies merkle root with price proofs of all public pools. * * Private pools need to verify their own price once a day, otherwise minting is not allowed. * * * This is why merkle root of all prices is needed",
    "version": 1
  },
  "storageLayout": {
    "storage": [],
    "types": null
  }
}