{
  "address": "0xa9d20bf6dd13BC74dFC558ADb915081aD3ac2346",
  "abi": [
    {
      "anonymous": false,
      "inputs": [
        {
          "indexed": false,
          "internalType": "bytes",
          "name": "pubkey",
          "type": "bytes"
        }
      ],
      "name": "Alienated",
      "type": "event"
    },
    {
      "anonymous": false,
      "inputs": [
        {
          "indexed": false,
          "internalType": "bytes",
          "name": "pubkey",
          "type": "bytes"
        }
      ],
      "name": "Busted",
      "type": "event"
    },
    {
      "anonymous": false,
      "inputs": [
        {
          "indexed": false,
          "internalType": "uint256",
          "name": "id",
          "type": "uint256"
        },
        {
          "indexed": false,
          "internalType": "uint256",
          "name": "blockNumber",
          "type": "uint256"
        }
      ],
      "name": "FeeTheft",
      "type": "event"
    },
    {
      "anonymous": false,
      "inputs": [
        {
          "indexed": false,
          "internalType": "uint256",
          "name": "id",
          "type": "uint256"
        },
        {
          "indexed": false,
          "internalType": "uint256",
          "name": "releaseTimestamp",
          "type": "uint256"
        }
      ],
      "name": "Prisoned",
      "type": "event"
    },
    {
      "anonymous": false,
      "inputs": [
        {
          "indexed": false,
          "internalType": "uint256",
          "name": "validatorVerificationIndex",
          "type": "uint256"
        }
      ],
      "name": "VerificationIndexUpdated",
      "type": "event"
    },
    {
      "inputs": [],
      "name": "MONOPOLY_RATIO",
      "outputs": [
        {
          "internalType": "uint256",
          "name": "",
          "type": "uint256"
        }
      ],
      "stateMutability": "view",
      "type": "function"
    },
    {
      "inputs": [],
      "name": "ORACLE_ACTIVE_PERIOD",
      "outputs": [
        {
          "internalType": "uint256",
          "name": "",
          "type": "uint256"
        }
      ],
      "stateMutability": "view",
      "type": "function"
    },
    {
      "inputs": [],
      "name": "ORACLE_PERIOD",
      "outputs": [
        {
          "internalType": "uint256",
          "name": "",
          "type": "uint256"
        }
      ],
      "stateMutability": "view",
      "type": "function"
    },
    {
      "inputs": [],
      "name": "PERCENTAGE_DENOMINATOR",
      "outputs": [
        {
          "internalType": "uint256",
          "name": "",
          "type": "uint256"
        }
      ],
      "stateMutability": "view",
      "type": "function"
    },
    {
      "inputs": [],
      "name": "PRISON_SENTENCE",
      "outputs": [
        {
          "internalType": "uint256",
          "name": "",
          "type": "uint256"
        }
      ],
      "stateMutability": "view",
      "type": "function"
    }
  ],
  "transactionHash": "0x19bb257f2e866d220f7137c1e5f6f479b445ab7ccc6a312cebb72c9a101ccd73",
  "args": [],
  "numDeployments": 1,
  "solcInputHash": "272bf9207e57ad6a3c857a71f42aa98e",
  "bytecode": "0x611d1861003a600b82828239805160001a60731461002d57634e487b7160e01b600052600060045260246000fd5b30600052607381538281f3fe73000000000000000000000000000000000000000030146080604052600436106100b35760003560e01c80638a6ea9b71161007b5780638a6ea9b71461013e578063b3cd42541461015e578063ea976d151461016a578063f7325cdf14610174578063f930444a14610197578063fe406a7d146101b757600080fd5b80630a1b45ce146100b85780631425fb51146100da5780632013f9c7146100fa5780632d8550531461011a5780635f365cb414610135575b600080fd5b8180156100c457600080fd5b506100d86100d33660046117ca565b6101c1565b005b8180156100e657600080fd5b506100d86100f53660046118a7565b6103e5565b81801561010657600080fd5b506100d861011536600461172c565b6106df565b610122610750565b6040519081526020015b60405180910390f35b61012261070881565b61015161014c36600461174e565b61076f565b60405161012c9190611a7f565b6101226402540be40081565b6101226213c68081565b61018761018236600461172c565b6108f2565b604051901515815260200161012c565b8180156101a357600080fd5b506100d86101b2366004611934565b610914565b6101226201518081565b600188015488906001600160a01b031633146101f85760405162461bcd60e51b81526004016101ef90611a48565b60405180910390fd5b61020189610b6e565b1561024e5760405162461bcd60e51b815260206004820152601d60248201527f4f7261636c655574696c733a206f7261636c652069732061637469766500000060448201526064016101ef565b60005b86811015610299576102878a8a8a8a8581811061027057610270611ccc565b90506020028101906102829190611b5d565b610ba2565b8061029181611c71565b915050610251565b5060005b848110156102e5576102d38a8a8888858181106102bc576102bc611ccc565b90506020028101906102ce9190611b5d565b610cb0565b806102dd81611c71565b91505061029d565b5060005b828110156103d957610329898585600081811061030857610308611ccc565b905060400201836002811061031f5761031f611ccc565b60200201356106df565b7f181fa81c765296a681c8f5293b14d9164443b1e1ba1da72596f28ba34adfb7738484600081811061035d5761035d611ccc565b905060400201826002811061037457610374611ccc565b60200201358585600181811061038c5761038c611ccc565b90506040020183600281106103a3576103a3611ccc565b60200201356040516103bf929190918252602082015260400190565b60405180910390a1806103d181611c71565b9150506102e9565b50505050505050505050565b600187015487906001600160a01b031633146104135760405162461bcd60e51b81526004016101ef90611a48565b61041c88610b6e565b6104725760405162461bcd60e51b815260206004820152602160248201527f4f7261636c655574696c733a206f7261636c65206973204e4f542061637469766044820152606560f81b60648201526084016101ef565b60056000908152602088905260409020548481146104e75760405162461bcd60e51b815260206004820152602c60248201527f4f7261636c655574696c733a20696e636f727265637420626561636f6e42616c60448201526b0c2dcc6cae640d8cadccee8d60a31b60648201526084016101ef565b8281146105485760405162461bcd60e51b815260206004820152602960248201527f4f7261636c655574696c733a20696e636f727265637420707269636550726f6f6044820152680cce640d8cadccee8d60bb1b60648201526084016101ef565b50600888018690556002880154600090620151809061056961070842611ba4565b6105739190611bef565b61057d9190611bbc565b9050600060405180604001604052806105d0620151804261059e9190611c8c565b6105a89042611bef565b6040518060400160405280600a81526020016936b4b73a213ab33332b960b11b815250610d34565b81526020016106176105e56201518042611c8c565b6105ef9042611bef565b6040518060400160405280600a815260200169313ab937213ab33332b960b11b815250610d34565b9052905060005b868110156106b3576106a18b8b848d600001600060058152602001908152602001600020858154811061065357610653611ccc565b90600052602060002001548c8c8781811061067057610670611ccc565b90506020020135888c8c8981811061068a5761068a611ccc565b905060200281019061069c9190611b13565b610d67565b806106ab81611c71565b91505061061e565b506106c16201518042611c8c565b6106cb9042611bef565b8a6002018190555050505050505050505050565b61070581671c995b19585cd95960c21b6106fc6213c68042611ba4565b85929190610ed0565b7f6a740d28273a335dabd953f22fd145fdc11323629c3ff8717eb28f53b227e7fd816107346213c68042611ba4565b6040805192835260208301919091520160405180910390a15050565b60646107626402540be4006002611bd0565b61076c9190611bbc565b81565b6107c8604051806101400160405280600060ff1681526020016000815260200160008152602001600081526020016000815260200160008152602001600081526020016000815260200160008152602001606081525090565b8360090183836040516107dc9291906119e3565b90815260408051918290036020908101832061014084018352805460ff1684526001810154918401919091526002810154918301919091526003810154606083015260048101546080830152600581015460a0830152600681015460c0830152600781015460e083015260088101546101008301526009810180546101208401919061086790611c36565b80601f016020809104026020016040519081016040528092919081815260200182805461089390611c36565b80156108e05780601f106108b5576101008083540402835291602001916108e0565b820191906000526020600020905b8154815290600101906020018083116108c357829003601f168201915b50505050508152505090509392505050565b600061090a8383671c995b19585cd95960c21b610f21565b4211159392505050565b600186015486906001600160a01b031633146109425760405162461bcd60e51b81526004016101ef90611a48565b61094b87610b6e565b156109985760405162461bcd60e51b815260206004820152601d60248201527f4f7261636c655574696c733a206f7261636c652069732061637469766500000060448201526064016101ef565b61138785116109e95760405162461bcd60e51b815260206004820181905260248201527f4f7261636c655574696c733a206c6f772076616c696461746f7220636f756e7460448201526064016101ef565b8387600401541015610a495760405162461bcd60e51b8152602060048201526024808201527f4f7261636c655574696c733a206869676820564552494649434154494f4e5f4960448201526309c888ab60e31b60648201526084016101ef565b8660050154841015610aa95760405162461bcd60e51b815260206004820152602360248201527f4f7261636c655574696c733a206c6f7720564552494649434154494f4e5f494e6044820152620888ab60eb1b60648201526084016101ef565b6005870184905560005b82811015610afb57610ae98888868685818110610ad257610ad2611ccc565b9050602002810190610ae49190611b5d565b610f73565b80610af381611c71565b915050610ab3565b506402540be4006064610b0f826002611bd0565b610b199190611bbc565b610b239087611bd0565b610b2d9190611bbc565b60038801556040518481527f5741e1f31a5b295a42632c4a80216d28bf245e6f0ee679b887d8ecd7b94517ee9060200160405180910390a150505050505050565b6000610708610b806201518042611c8c565b11158015610b9c5750610b9561070842611bef565b8260020154105b92915050565b836009018282604051610bb69291906119e3565b90815260405190819003602001902054600260ff90911614610c2a5760405162461bcd60e51b815260206004820152602760248201527f4f7261636c655574696c733a205369676e616c65642c2063616e6e6f7420626560448201526608189d5cdd195960ca1b60648201526084016101ef565b836009018282604051610c3e9291906119e3565b52604051610c719084906009870190610c5a90869086906119e3565b9081526020016040518091039020600301546106df565b7f0ac6d86601bdb449b945aca7c118a5d062e435405d652bd41f3e2142999085a58282604051610ca2929190611a19565b60405180910390a150505050565b836009018282604051610cc49291906119e3565b90815260405190819003602001902054600360ff90911614610c2a5760405162461bcd60e51b815260206004820152602360248201527f4f7261636c655574696c733a207075626b6579206973204e4f54207369676e616044820152621b195960ea1b60648201526084016101ef565b60008282604051602001610d499291906119f3565b60405160208183030381529060405280519060200120905092915050565b600080610d858a8a8a8460200201518b600160200201518b8b6110fa565b91509150610d958a888785611406565b6040805160208101899052908101839052600090606001604051602081830303815290604052805190602001209050610e0585858080602002602001604051908101604052809392919081815260200183836020028082843760009201919091525050505060088d01548361159f565b610e5f5760405162461bcd60e51b815260206004820152602560248201527f4f7261636c655574696c733a204e4f5420616c6c2070726f6f667320617265206044820152641d985b1a5960da1b60648201526084016101ef565b8a546040516322af599760e01b815260048101849052602481018a90526001600160a01b03909116906322af599790604401600060405180830381600087803b158015610eab57600080fd5b505af1158015610ebf573d6000803e3d6000fd5b505050505050505050505050505050565b808460010160008585604051602001610ef3929190918252602082015260400190565b6040516020818303038152906040528051906020012081526020019081526020016000208190555050505050565b60008360010160008484604051602001610f45929190918252602082015260400190565b6040516020818303038152906040528051906020012081526020019081526020016000205490509392505050565b836009018282604051610f879291906119e3565b9081526040519081900360200190205460ff16600114610fff5760405162461bcd60e51b815260206004820152602d60248201527f4f7261636c655574696c733a204e4f5420616c6c20616c69656e5075626b657960448201526c73206172652070656e64696e6760981b60648201526084016101ef565b60008460090183836040516110159291906119e3565b9081526040519081900360200190206002015490506110498482661cd958dd5c995960ca1b6801bc16d674ec8000006115b5565b611068848266737572706c757360c81b6801bc16d674ec800000611616565b604585600901848460405161107e9291906119e3565b908152604051908190036020018120805460ff9390931660ff19909316929092179091556110ba9085906009880190610c5a90879087906119e3565b7f7033b7b89d1818b80f9a85b8d604a07ec95f439c75d7ed56caef4d57a101397583836040516110eb929190611a19565b60405180910390a15050505050565b60008080611113888666737572706c757360c81b610f21565b6111288987661cd958dd5c995960ca1b610f21565b6111329086611ba4565b61113c9190611ba4565b895460405163bd85b03960e01b8152600481018890529192506000916001600160a01b039091169063bd85b0399060240160206040518083038186803b15801561118557600080fd5b505afa158015611199573d6000803e3d6000fd5b505050506040513d601f19601f820116820180604052508101906111bd919061199e565b8a5460405163f759cc3b60e01b8152600481018990529192506000916001600160a01b039091169063f759cc3b9060240160206040518083038186803b15801561120657600080fd5b505afa15801561121a573d6000803e3d6000fd5b505050506040513d601f19601f8201168201806040525081019061123e919061199e565b8b5460405163bd85b03960e01b8152600481018a90529192506000916001600160a01b039091169063bd85b0399060240160206040518083038186803b15801561128757600080fd5b505afa15801561129b573d6000803e3d6000fd5b505050506040513d601f19601f820116820180604052508101906112bf919061199e565b826112cb8d8b8e610f21565b6112d59190611bd0565b6112df9190611bbc565b6112e99085611bef565b8c54604080516396ce079560e01b815290519293506001600160a01b03909116916396ce079591600480820192602092909190829003018186803b15801561133057600080fd5b505afa158015611344573d6000803e3d6000fd5b505050506040513d601f19601f82011682018060405250810190611368919061199e565b826113748d8b8d610f21565b61137e9190611bd0565b6113889190611bbc565b6113929082611ba4565b905060006113a18c8a8d610f21565b6113ab9085611bef565b90506113b88c8a8c610f21565b6113c29082611ba4565b90506113d18c8a8d6000610ed0565b6113de8c8a8c6000610ed0565b6113e88486611bbc565b6113f28284611bbc565b965096505050505050965096945050505050565b835460405163f759cc3b60e01b8152600481018590526000916001600160a01b03169063f759cc3b9060240160206040518083038186803b15801561144a57600080fd5b505afa15801561145e573d6000803e3d6000fd5b505050506040513d601f19601f82011682018060405250810190611482919061199e565b905060006402540be4008487600601548461149d9190611bd0565b6114a79190611bd0565b6114b19190611bbc565b6114bb9083611ba4565b90508083111561150d5760405162461bcd60e51b815260206004820152601c60248201527f4f7261636c655574696c733a20707269636520697320696e73616e650000000060448201526064016101ef565b60006402540be400858860070154856115269190611bd0565b6115309190611bd0565b61153a9190611bbc565b6115449084611bef565b9050808410156115965760405162461bcd60e51b815260206004820152601c60248201527f4f7261636c655574696c733a20707269636520697320696e73616e650000000060448201526064016101ef565b50505050505050565b6000826115ac858461166c565b14949350505050565b8084600101600085856040516020016115d8929190918252602082015260400190565b604051602081830303815290604052805190602001208152602001908152602001600020600082825461160b9190611bef565b909155505050505050565b808460010160008585604051602001611639929190918252602082015260400190565b604051602081830303815290604052805190602001208152602001908152602001600020600082825461160b9190611ba4565b600081815b84518110156116d857600085828151811061168e5761168e611ccc565b602002602001015190508083116116b457600083815260208290526040902092506116c5565b600081815260208490526040902092505b50806116d081611c71565b915050611671565b509392505050565b60008083601f8401126116f257600080fd5b50813567ffffffffffffffff81111561170a57600080fd5b6020830191508360208260051b850101111561172557600080fd5b9250929050565b6000806040838503121561173f57600080fd5b50508035926020909101359150565b60008060006040848603121561176357600080fd5b83359250602084013567ffffffffffffffff8082111561178257600080fd5b818601915086601f83011261179657600080fd5b8135818111156117a557600080fd5b8760208285010111156117b757600080fd5b6020830194508093505050509250925092565b60008060008060008060008060a0898b0312156117e657600080fd5b8835975060208901359650604089013567ffffffffffffffff8082111561180c57600080fd5b6118188c838d016116e0565b909850965060608b013591508082111561183157600080fd5b61183d8c838d016116e0565b909650945060808b013591508082111561185657600080fd5b818b0191508b601f83011261186a57600080fd5b81358181111561187957600080fd5b8c60208260061b850101111561188e57600080fd5b6020830194508093505050509295985092959890939650565b600080600080600080600060a0888a0312156118c257600080fd5b873596506020880135955060408801359450606088013567ffffffffffffffff808211156118ef57600080fd5b6118fb8b838c016116e0565b909650945060808a013591508082111561191457600080fd5b506119218a828b016116e0565b989b979a50959850939692959293505050565b60008060008060008060a0878903121561194d57600080fd5b86359550602087013594506040870135935060608701359250608087013567ffffffffffffffff81111561198057600080fd5b61198c89828a016116e0565b979a9699509497509295939492505050565b6000602082840312156119b057600080fd5b5051919050565b600081518084526119cf816020860160208601611c06565b601f01601f19169290920160200192915050565b8183823760009101908152919050565b82815260008251611a0b816020850160208701611c06565b919091016020019392505050565b60208152816020820152818360408301376000818301604090810191909152601f909201601f19160101919050565b6020808252601e908201527f4f7261636c655574696c733a2073656e646572204e4f54204f5241434c450000604082015260600190565b60208152611a9360208201835160ff169052565b602082015160408201526040820151606082015260608201516080820152608082015160a082015260a082015160c082015260c082015160e0820152600060e0830151610100818185015280850151915050610120818185015280850151915050610140808185015250611b0b6101608401826119b7565b949350505050565b6000808335601e19843603018112611b2a57600080fd5b83018035915067ffffffffffffffff821115611b4557600080fd5b6020019150600581901b360382131561172557600080fd5b6000808335601e19843603018112611b7457600080fd5b83018035915067ffffffffffffffff821115611b8f57600080fd5b60200191503681900382131561172557600080fd5b60008219821115611bb757611bb7611ca0565b500190565b600082611bcb57611bcb611cb6565b500490565b6000816000190483118215151615611bea57611bea611ca0565b500290565b600082821015611c0157611c01611ca0565b500390565b60005b83811015611c21578181015183820152602001611c09565b83811115611c30576000848401525b50505050565b600181811c90821680611c4a57607f821691505b60208210811415611c6b57634e487b7160e01b600052602260045260246000fd5b50919050565b6000600019821415611c8557611c85611ca0565b5060010190565b600082611c9b57611c9b611cb6565b500690565b634e487b7160e01b600052601160045260246000fd5b634e487b7160e01b600052601260045260246000fd5b634e487b7160e01b600052603260045260246000fdfea26469706673582212207aa4c1fe7864415ba27abfc55a40d1bac8f594d5c23db0c24b969e839e5d050064736f6c63430008070033",
  "devdoc": {
    "author": "Icebear & Crash Bandicoot",
    "details": "Prisoned Validator: * 1. created a malicious validator(alien) * 2. withdrawn without a signal * 3. signaled but not withdrawn * 4. did not respect the validatorPeriodALL \"fee\" variables are limited by PERCENTAGE_DENOMINATOR = 100% Note refer to DataStoreUtils before reviewing",
    "kind": "dev",
    "methods": {
      "isPrisoned(DataStoreUtils.DataStore storage,uint256)": {
        "details": "\"released\" key refers to the end of the last imprisonment, the limit on the abilities of operator is lifted then"
      },
      "regulateOperators(OracleUtils.Oracle storage,DataStoreUtils.DataStore storage,bytes[],bytes[],uint256[2][])": {
        "details": "Both of these functions results in imprisonment.",
        "params": {
          "bustedExits": "validators that have not signaled before Unstake",
          "bustedSignals": "validators that are \"mistakenly\" signaled as Unstaked",
          "feeThefts": "[0]: Operator ids who have stolen MEV or block rewards, [1]: detected BlockNumber as proof"
        }
      },
      "reportOracle(OracleUtils.Oracle storage,DataStoreUtils.DataStore storage,bytes32,uint256[],bytes32[][])": {
        "details": "if merkle proof holds the oracle price, new price is the found price of the derivative"
      },
      "updateVerificationIndex(OracleUtils.Oracle storage,DataStoreUtils.DataStore storage,uint256,uint256,bytes[])": {
        "params": {
          "alienatedPubkeys": "proposals with lower index than new_index who frontrunned proposeStake with incorrect withdrawal credential results in imprisonment.",
          "allValidatorsCount": "total number of validators to figure out what is the current Monopoly Requirement",
          "validatorVerificationIndex": "index of the highest validator that is verified to be activated"
        }
      }
    },
    "title": "OracleUtils library to be used within stakeUtils",
    "version": 1
  },
  "userdoc": {
    "kind": "user",
    "methods": {
      "MONOPOLY_RATIO()": {
        "notice": "effective on MONOPOLY_THRESHOLD, limiting the active validators, set to 2% at start."
      },
      "ORACLE_PERIOD()": {
        "notice": "Oracle is active for the first 30 min of every day"
      },
      "PERCENTAGE_DENOMINATOR()": {
        "notice": "PERCENTAGE_DENOMINATOR represents 100%"
      },
      "PRISON_SENTENCE()": {
        "notice": "limiting some abilities of Operators in case of bad behaviour"
      },
      "imprison(DataStoreUtils.DataStore storage,uint256)": {
        "notice": "Put an operator in prison, \"release\" points to the date the operator will be out"
      },
      "isPrisoned(DataStoreUtils.DataStore storage,uint256)": {
        "notice": "Checks if the given operator is Prisoned"
      },
      "regulateOperators(OracleUtils.Oracle storage,DataStoreUtils.DataStore storage,bytes[],bytes[],uint256[2][])": {
        "notice": "regulating operators within Geode with verifiable proofs"
      },
      "reportOracle(OracleUtils.Oracle storage,DataStoreUtils.DataStore storage,bytes32,uint256[],bytes32[][])": {
        "notice": "Telescope reports all of the g-derivate prices with a new PRICE_MERKLE_ROOTafter report updates the prices of the public poolsupdates the ORACLE_UPDATE_TIMESTAMP"
      },
      "updateVerificationIndex(OracleUtils.Oracle storage,DataStoreUtils.DataStore storage,uint256,uint256,bytes[])": {
        "notice": "Updating VERIFICATION_INDEX, signaling that it is safe to allow validators with lower index than VERIFICATION_INDEX to stake with staking pool funds"
      }
    },
    "notice": "Oracle, named Telescope, is responsible from 2 tasks: * regulating the validator creations and exits * syncs the price of all pools with merkleroot Regulating the validators/operators: * state 1: validators is proposed since enough allowence is given from pool maintainers, 1 ETH is locked from maintainerWallet * state 2: stake was approved by Oracle, operator used user funds to activate the validator, 1 ETH is released * state 69: validator was malicious(alien), probably front-runned with a problematic withdrawalCredential, (https://bit.ly/3Tkc6UC) * state 3: validator is exited. However, if the signal turns out to be false, then Telescope reports and sets to state 2, prisoning the operator. * * Reports the Total number of Beacon validators to make sure no operator is running more validators then they should within Geode Universe. Syncing the Prices: * Telescope works the first 30 minutes of every day(GMT), with an archive node that points the first second. * Catches the beacon chain balances and decreases the fees, groups them by ids * Creates a merkle root, by simply calculating all prices from every pool, either private or public * Verifies merkle root with price proofs of all public pools. * * Private pools need to verify their own price once a day, otherwise minting is not allowed. * * This is why merkle root of all prices is needed",
    "version": 1
  },
  "storageLayout": {
    "storage": [],
    "types": null
  }
}