{
  "address": "0x5A002399AEc0aB55c9c3cD70742B169d3832c13A",
  "abi": [
    {
      "anonymous": false,
      "inputs": [
        {
          "indexed": false,
          "internalType": "address",
          "name": "previousAdmin",
          "type": "address"
        },
        {
          "indexed": false,
          "internalType": "address",
          "name": "newAdmin",
          "type": "address"
        }
      ],
      "name": "AdminChanged",
      "type": "event"
    },
    {
      "anonymous": false,
      "inputs": [
        {
          "indexed": false,
          "internalType": "bytes",
          "name": "pubkey",
          "type": "bytes"
        }
      ],
      "name": "Alienated",
      "type": "event"
    },
    {
      "anonymous": false,
      "inputs": [
        {
          "indexed": false,
          "internalType": "bytes",
          "name": "pubkey",
          "type": "bytes"
        }
      ],
      "name": "BeaconStaked",
      "type": "event"
    },
    {
      "anonymous": false,
      "inputs": [
        {
          "indexed": true,
          "internalType": "address",
          "name": "beacon",
          "type": "address"
        }
      ],
      "name": "BeaconUpgraded",
      "type": "event"
    },
    {
      "anonymous": false,
      "inputs": [
        {
          "indexed": false,
          "internalType": "bytes",
          "name": "pubkey",
          "type": "bytes"
        }
      ],
      "name": "Busted",
      "type": "event"
    },
    {
      "anonymous": false,
      "inputs": [
        {
          "indexed": false,
          "internalType": "uint256",
          "name": "version",
          "type": "uint256"
        }
      ],
      "name": "ContractVersionSet",
      "type": "event"
    },
    {
      "anonymous": false,
      "inputs": [
        {
          "indexed": false,
          "internalType": "uint256",
          "name": "id",
          "type": "uint256"
        },
        {
          "indexed": false,
          "internalType": "address",
          "name": "newCONTROLLER",
          "type": "address"
        }
      ],
      "name": "ControllerChanged",
      "type": "event"
    },
    {
      "anonymous": false,
      "inputs": [
        {
          "indexed": false,
          "internalType": "uint256",
          "name": "TYPE",
          "type": "uint256"
        },
        {
          "indexed": false,
          "internalType": "bool",
          "name": "isElector",
          "type": "bool"
        }
      ],
      "name": "ElectorTypeSet",
      "type": "event"
    },
    {
      "anonymous": false,
      "inputs": [
        {
          "indexed": false,
          "internalType": "uint256",
          "name": "newFee",
          "type": "uint256"
        }
      ],
      "name": "GovernanceTaxUpdated",
      "type": "event"
    },
    {
      "anonymous": false,
      "inputs": [
        {
          "indexed": false,
          "internalType": "uint256",
          "name": "id",
          "type": "uint256"
        },
        {
          "indexed": false,
          "internalType": "uint256",
          "name": "TYPE",
          "type": "uint256"
        }
      ],
      "name": "IdInitiated",
      "type": "event"
    },
    {
      "anonymous": false,
      "inputs": [
        {
          "indexed": false,
          "internalType": "uint256",
          "name": "id",
          "type": "uint256"
        },
        {
          "indexed": false,
          "internalType": "address",
          "name": "newMaintainer",
          "type": "address"
        }
      ],
      "name": "MaintainerChanged",
      "type": "event"
    },
    {
      "anonymous": false,
      "inputs": [
        {
          "indexed": false,
          "internalType": "uint256",
          "name": "id",
          "type": "uint256"
        },
        {
          "indexed": false,
          "internalType": "uint256",
          "name": "fee",
          "type": "uint256"
        },
        {
          "indexed": false,
          "internalType": "uint256",
          "name": "effectiveTimestamp",
          "type": "uint256"
        }
      ],
      "name": "MaintainerFeeSwitched",
      "type": "event"
    },
    {
      "anonymous": false,
      "inputs": [
        {
          "indexed": false,
          "internalType": "uint256",
          "name": "newMaxFee",
          "type": "uint256"
        }
      ],
      "name": "MaxGovernanceTaxUpdated",
      "type": "event"
    },
    {
      "anonymous": false,
      "inputs": [
        {
          "indexed": false,
          "internalType": "address",
          "name": "senate",
          "type": "address"
        },
        {
          "indexed": false,
          "internalType": "uint256",
          "name": "senateExpiry",
          "type": "uint256"
        }
      ],
      "name": "NewSenate",
      "type": "event"
    },
    {
      "anonymous": false,
      "inputs": [
        {
          "indexed": false,
          "internalType": "uint256",
          "name": "planetId",
          "type": "uint256"
        },
        {
          "indexed": false,
          "internalType": "uint256",
          "name": "operatorId",
          "type": "uint256"
        },
        {
          "indexed": false,
          "internalType": "uint256",
          "name": "allowance",
          "type": "uint256"
        }
      ],
      "name": "OperatorApproval",
      "type": "event"
    },
    {
      "anonymous": false,
      "inputs": [
        {
          "indexed": false,
          "internalType": "address",
          "name": "DEFAULT_gETH_INTERFACE",
          "type": "address"
        },
        {
          "indexed": false,
          "internalType": "address",
          "name": "DEFAULT_DWP",
          "type": "address"
        },
        {
          "indexed": false,
          "internalType": "address",
          "name": "DEFAULT_LP_TOKEN",
          "type": "address"
        },
        {
          "indexed": false,
          "internalType": "uint256",
          "name": "MAX_MAINTAINER_FEE",
          "type": "uint256"
        },
        {
          "indexed": false,
          "internalType": "uint256",
          "name": "BOOSTRAP_PERIOD",
          "type": "uint256"
        },
        {
          "indexed": false,
          "internalType": "uint256",
          "name": "PERIOD_PRICE_INCREASE_LIMIT",
          "type": "uint256"
        },
        {
          "indexed": false,
          "internalType": "uint256",
          "name": "PERIOD_PRICE_DECREASE_LIMIT",
          "type": "uint256"
        },
        {
          "indexed": false,
          "internalType": "uint256",
          "name": "COMET_TAX",
          "type": "uint256"
        },
        {
          "indexed": false,
          "internalType": "uint256",
          "name": "BOOST_SWITCH_LATENCY",
          "type": "uint256"
        }
      ],
      "name": "ParamsUpdated",
      "type": "event"
    },
    {
      "anonymous": false,
      "inputs": [
        {
          "indexed": false,
          "internalType": "address",
          "name": "account",
          "type": "address"
        }
      ],
      "name": "Paused",
      "type": "event"
    },
    {
      "anonymous": false,
      "inputs": [
        {
          "indexed": false,
          "internalType": "uint256",
          "name": "id",
          "type": "uint256"
        }
      ],
      "name": "PausedPool",
      "type": "event"
    },
    {
      "anonymous": false,
      "inputs": [
        {
          "indexed": false,
          "internalType": "uint256",
          "name": "id",
          "type": "uint256"
        },
        {
          "indexed": false,
          "internalType": "uint256",
          "name": "releaseTimestamp",
          "type": "uint256"
        }
      ],
      "name": "Prisoned",
      "type": "event"
    },
    {
      "anonymous": false,
      "inputs": [
        {
          "indexed": false,
          "internalType": "uint256",
          "name": "id",
          "type": "uint256"
        }
      ],
      "name": "ProposalApproved",
      "type": "event"
    },
    {
      "anonymous": false,
      "inputs": [
        {
          "indexed": false,
          "internalType": "bytes",
          "name": "pubkey",
          "type": "bytes"
        },
        {
          "indexed": false,
          "internalType": "uint256",
          "name": "planetId",
          "type": "uint256"
        },
        {
          "indexed": false,
          "internalType": "uint256",
          "name": "operatorId",
          "type": "uint256"
        }
      ],
      "name": "ProposeStaked",
      "type": "event"
    },
    {
      "anonymous": false,
      "inputs": [
        {
          "indexed": false,
          "internalType": "uint256",
          "name": "id",
          "type": "uint256"
        },
        {
          "indexed": false,
          "internalType": "address",
          "name": "CONTROLLER",
          "type": "address"
        },
        {
          "indexed": false,
          "internalType": "uint256",
          "name": "TYPE",
          "type": "uint256"
        },
        {
          "indexed": false,
          "internalType": "uint256",
          "name": "deadline",
          "type": "uint256"
        }
      ],
      "name": "Proposed",
      "type": "event"
    },
    {
      "anonymous": false,
      "inputs": [
        {
          "indexed": false,
          "internalType": "uint256",
          "name": "id",
          "type": "uint256"
        }
      ],
      "name": "Released",
      "type": "event"
    },
    {
      "anonymous": false,
      "inputs": [
        {
          "indexed": false,
          "internalType": "address",
          "name": "account",
          "type": "address"
        }
      ],
      "name": "Unpaused",
      "type": "event"
    },
    {
      "anonymous": false,
      "inputs": [
        {
          "indexed": false,
          "internalType": "uint256",
          "name": "id",
          "type": "uint256"
        }
      ],
      "name": "UnpausedPool",
      "type": "event"
    },
    {
      "anonymous": false,
      "inputs": [
        {
          "indexed": false,
          "internalType": "bytes",
          "name": "pubkey",
          "type": "bytes"
        }
      ],
      "name": "UnstakeSignal",
      "type": "event"
    },
    {
      "anonymous": false,
      "inputs": [
        {
          "indexed": true,
          "internalType": "address",
          "name": "implementation",
          "type": "address"
        }
      ],
      "name": "Upgraded",
      "type": "event"
    },
    {
      "anonymous": false,
      "inputs": [
        {
          "indexed": false,
          "internalType": "uint256",
          "name": "operatorId",
          "type": "uint256"
        },
        {
          "indexed": false,
          "internalType": "uint256",
          "name": "newPeriod",
          "type": "uint256"
        }
      ],
      "name": "ValidatorPeriodUpdated",
      "type": "event"
    },
    {
      "anonymous": false,
      "inputs": [
        {
          "indexed": false,
          "internalType": "uint256",
          "name": "validatorVerificationIndex",
          "type": "uint256"
        }
      ],
      "name": "VerificationIndexUpdated",
      "type": "event"
    },
    {
      "anonymous": false,
      "inputs": [
        {
          "indexed": false,
          "internalType": "uint256",
          "name": "proposalId",
          "type": "uint256"
        },
        {
          "indexed": false,
          "internalType": "uint256",
          "name": "electorId",
          "type": "uint256"
        }
      ],
      "name": "Vote",
      "type": "event"
    },
    {
      "inputs": [],
      "name": "CONTRACT_VERSION",
      "outputs": [
        {
          "internalType": "uint256",
          "name": "",
          "type": "uint256"
        }
      ],
      "stateMutability": "view",
      "type": "function"
    },
    {
      "inputs": [],
      "name": "Do_we_care",
      "outputs": [
        {
          "internalType": "bool",
          "name": "",
          "type": "bool"
        }
      ],
      "stateMutability": "pure",
      "type": "function"
    },
    {
      "inputs": [],
      "name": "GeodeParams",
      "outputs": [
        {
          "internalType": "address",
          "name": "SENATE",
          "type": "address"
        },
        {
          "internalType": "address",
          "name": "GOVERNANCE",
          "type": "address"
        },
        {
          "internalType": "uint256",
          "name": "GOVERNANCE_TAX",
          "type": "uint256"
        },
        {
          "internalType": "uint256",
          "name": "MAX_GOVERNANCE_TAX",
          "type": "uint256"
        },
        {
          "internalType": "uint256",
          "name": "SENATE_EXPIRY",
          "type": "uint256"
        }
      ],
      "stateMutability": "view",
      "type": "function"
    },
    {
      "inputs": [],
      "name": "StakingParams",
      "outputs": [
        {
          "internalType": "address",
          "name": "DEFAULT_gETH_INTERFACE",
          "type": "address"
        },
        {
          "internalType": "address",
          "name": "DEFAULT_DWP",
          "type": "address"
        },
        {
          "internalType": "address",
          "name": "DEFAULT_LP_TOKEN",
          "type": "address"
        },
        {
          "internalType": "uint256",
          "name": "MINI_GOVERNANCE_VERSION",
          "type": "uint256"
        },
        {
          "internalType": "uint256",
          "name": "MAX_MAINTAINER_FEE",
          "type": "uint256"
        },
        {
          "internalType": "uint256",
          "name": "BOOSTRAP_PERIOD",
          "type": "uint256"
        },
        {
          "internalType": "uint256",
          "name": "COMET_TAX",
          "type": "uint256"
        }
      ],
      "stateMutability": "view",
      "type": "function"
    },
    {
      "inputs": [],
      "name": "TelescopeParams",
      "outputs": [
        {
          "internalType": "address",
          "name": "ORACLE_POSITION",
          "type": "address"
        },
        {
          "internalType": "uint256",
          "name": "ORACLE_UPDATE_TIMESTAMP",
          "type": "uint256"
        },
        {
          "internalType": "uint256",
          "name": "MONOPOLY_THRESHOLD",
          "type": "uint256"
        },
        {
          "internalType": "uint256",
          "name": "VALIDATORS_INDEX",
          "type": "uint256"
        },
        {
          "internalType": "uint256",
          "name": "VERIFICATION_INDEX",
          "type": "uint256"
        },
        {
          "internalType": "uint256",
          "name": "PERIOD_PRICE_INCREASE_LIMIT",
          "type": "uint256"
        },
        {
          "internalType": "uint256",
          "name": "PERIOD_PRICE_DECREASE_LIMIT",
          "type": "uint256"
        },
        {
          "internalType": "bytes32",
          "name": "PRICE_MERKLE_ROOT",
          "type": "bytes32"
        }
      ],
      "stateMutability": "view",
      "type": "function"
    },
    {
      "inputs": [
        {
          "internalType": "uint256",
          "name": "_type",
          "type": "uint256"
        }
      ],
      "name": "allIdsByType",
      "outputs": [
        {
          "internalType": "uint256[]",
          "name": "",
          "type": "uint256[]"
        }
      ],
      "stateMutability": "view",
      "type": "function"
    },
    {
      "inputs": [
        {
          "internalType": "uint256",
          "name": "id",
          "type": "uint256"
        }
      ],
      "name": "allInterfaces",
      "outputs": [
        {
          "internalType": "address[]",
          "name": "",
          "type": "address[]"
        }
      ],
      "stateMutability": "view",
      "type": "function"
    },
    {
      "inputs": [
        {
          "internalType": "uint256",
          "name": "poolId",
          "type": "uint256"
        },
        {
          "internalType": "uint256",
          "name": "operatorId",
          "type": "uint256"
        },
        {
          "internalType": "uint256",
          "name": "allowance",
          "type": "uint256"
        }
      ],
      "name": "approveOperator",
      "outputs": [
        {
          "internalType": "bool",
          "name": "",
          "type": "bool"
        }
      ],
      "stateMutability": "nonpayable",
      "type": "function"
    },
    {
      "inputs": [
        {
          "internalType": "uint256",
          "name": "id",
          "type": "uint256"
        }
      ],
      "name": "approveProposal",
      "outputs": [],
      "stateMutability": "nonpayable",
      "type": "function"
    },
    {
      "inputs": [
        {
          "internalType": "uint256",
          "name": "proposalId",
          "type": "uint256"
        },
        {
          "internalType": "uint256",
          "name": "electorId",
          "type": "uint256"
        }
      ],
      "name": "approveSenate",
      "outputs": [],
      "stateMutability": "nonpayable",
      "type": "function"
    },
    {
      "inputs": [
        {
          "internalType": "uint256",
          "name": "operatorId",
          "type": "uint256"
        },
        {
          "internalType": "bytes[]",
          "name": "pubkeys",
          "type": "bytes[]"
        }
      ],
      "name": "beaconStake",
      "outputs": [],
      "stateMutability": "nonpayable",
      "type": "function"
    },
    {
      "inputs": [
        {
          "internalType": "uint256",
          "name": "id",
          "type": "uint256"
        }
      ],
      "name": "canDeposit",
      "outputs": [
        {
          "internalType": "bool",
          "name": "",
          "type": "bool"
        }
      ],
      "stateMutability": "view",
      "type": "function"
    },
    {
      "inputs": [
        {
          "internalType": "bytes",
          "name": "pubkey",
          "type": "bytes"
        }
      ],
      "name": "canStake",
      "outputs": [
        {
          "internalType": "bool",
          "name": "",
          "type": "bool"
        }
      ],
      "stateMutability": "view",
      "type": "function"
    },
    {
      "inputs": [
        {
          "internalType": "uint256",
          "name": "id",
          "type": "uint256"
        },
        {
          "internalType": "address",
          "name": "newCONTROLLER",
          "type": "address"
        }
      ],
      "name": "changeIdCONTROLLER",
      "outputs": [],
      "stateMutability": "nonpayable",
      "type": "function"
    },
    {
      "inputs": [
        {
          "internalType": "uint256",
          "name": "id",
          "type": "uint256"
        },
        {
          "internalType": "address",
          "name": "newMaintainer",
          "type": "address"
        }
      ],
      "name": "changeOperatorMaintainer",
      "outputs": [],
      "stateMutability": "nonpayable",
      "type": "function"
    },
    {
      "inputs": [
        {
          "internalType": "uint256",
          "name": "id",
          "type": "uint256"
        },
        {
          "internalType": "bytes",
          "name": "password",
          "type": "bytes"
        },
        {
          "internalType": "bytes32",
          "name": "newPasswordHash",
          "type": "bytes32"
        },
        {
          "internalType": "address",
          "name": "newMaintainer",
          "type": "address"
        }
      ],
      "name": "changePoolMaintainer",
      "outputs": [],
      "stateMutability": "nonpayable",
      "type": "function"
    },
    {
      "inputs": [
        {
          "internalType": "uint256",
          "name": "id",
          "type": "uint256"
        },
        {
          "internalType": "uint256",
          "name": "value",
          "type": "uint256"
        }
      ],
      "name": "decreaseMaintainerWallet",
      "outputs": [
        {
          "internalType": "bool",
          "name": "success",
          "type": "bool"
        }
      ],
      "stateMutability": "nonpayable",
      "type": "function"
    },
    {
      "inputs": [
        {
          "internalType": "uint256",
          "name": "poolId",
          "type": "uint256"
        },
        {
          "internalType": "uint256",
          "name": "mingETH",
          "type": "uint256"
        },
        {
          "internalType": "uint256",
          "name": "deadline",
          "type": "uint256"
        }
      ],
      "name": "depositPlanet",
      "outputs": [
        {
          "internalType": "uint256",
          "name": "gEthToSend",
          "type": "uint256"
        }
      ],
      "stateMutability": "payable",
      "type": "function"
    },
    {
      "inputs": [
        {
          "internalType": "uint256",
          "name": "poolId",
          "type": "uint256"
        },
        {
          "internalType": "uint256",
          "name": "operatorId",
          "type": "uint256"
        },
        {
          "internalType": "bytes[]",
          "name": "pubkeys",
          "type": "bytes[]"
        },
        {
          "internalType": "uint256[]",
          "name": "balances",
          "type": "uint256[]"
        },
        {
          "internalType": "bool[]",
          "name": "isExit",
          "type": "bool[]"
        }
      ],
      "name": "fetchUnstake",
      "outputs": [],
      "stateMutability": "nonpayable",
      "type": "function"
    },
    {
      "inputs": [],
      "name": "gETH",
      "outputs": [
        {
          "internalType": "address",
          "name": "",
          "type": "address"
        }
      ],
      "stateMutability": "view",
      "type": "function"
    },
    {
      "inputs": [
        {
          "internalType": "string",
          "name": "_name",
          "type": "string"
        },
        {
          "internalType": "uint256",
          "name": "_type",
          "type": "uint256"
        }
      ],
      "name": "getIdFromName",
      "outputs": [
        {
          "internalType": "uint256",
          "name": "id",
          "type": "uint256"
        }
      ],
      "stateMutability": "pure",
      "type": "function"
    },
    {
      "inputs": [
        {
          "internalType": "uint256",
          "name": "id",
          "type": "uint256"
        }
      ],
      "name": "getMaintainerWalletBalance",
      "outputs": [
        {
          "internalType": "uint256",
          "name": "",
          "type": "uint256"
        }
      ],
      "stateMutability": "view",
      "type": "function"
    },
    {
      "inputs": [
        {
          "internalType": "uint256",
          "name": "operatorId",
          "type": "uint256"
        }
      ],
      "name": "getOperator",
      "outputs": [
        {
          "internalType": "bytes",
          "name": "name",
          "type": "bytes"
        },
        {
          "internalType": "address",
          "name": "CONTROLLER",
          "type": "address"
        },
        {
          "internalType": "address",
          "name": "maintainer",
          "type": "address"
        },
        {
          "internalType": "uint256",
          "name": "initiated",
          "type": "uint256"
        },
        {
          "internalType": "uint256",
          "name": "fee",
          "type": "uint256"
        },
        {
          "internalType": "uint256",
          "name": "feeSwitch",
          "type": "uint256"
        },
        {
          "internalType": "uint256",
          "name": "totalActiveValidators",
          "type": "uint256"
        },
        {
          "internalType": "uint256",
          "name": "validatorPeriod",
          "type": "uint256"
        },
        {
          "internalType": "uint256",
          "name": "released",
          "type": "uint256"
        }
      ],
      "stateMutability": "view",
      "type": "function"
    },
    {
      "inputs": [
        {
          "internalType": "uint256",
          "name": "planetId",
          "type": "uint256"
        }
      ],
      "name": "getPlanet",
      "outputs": [
        {
          "internalType": "bytes",
          "name": "name",
          "type": "bytes"
        },
        {
          "internalType": "address",
          "name": "CONTROLLER",
          "type": "address"
        },
        {
          "internalType": "address",
          "name": "maintainer",
          "type": "address"
        },
        {
          "internalType": "uint256",
          "name": "initiated",
          "type": "uint256"
        },
        {
          "internalType": "uint256",
          "name": "fee",
          "type": "uint256"
        },
        {
          "internalType": "uint256",
          "name": "feeSwitch",
          "type": "uint256"
        },
        {
          "internalType": "uint256",
          "name": "surplus",
          "type": "uint256"
        },
        {
          "internalType": "uint256",
          "name": "secured",
          "type": "uint256"
        },
        {
          "internalType": "uint256",
          "name": "withdrawalBoost",
          "type": "uint256"
        },
        {
          "internalType": "address",
          "name": "withdrawalPool",
          "type": "address"
        },
        {
          "internalType": "address",
          "name": "LPToken",
          "type": "address"
        },
        {
          "internalType": "address",
          "name": "miniGovernance",
          "type": "address"
        }
      ],
      "stateMutability": "view",
      "type": "function"
    },
    {
      "inputs": [
        {
          "internalType": "uint256",
          "name": "id",
          "type": "uint256"
        }
      ],
      "name": "getProposal",
      "outputs": [
        {
          "components": [
            {
              "internalType": "address",
              "name": "CONTROLLER",
              "type": "address"
            },
            {
              "internalType": "uint256",
              "name": "TYPE",
              "type": "uint256"
            },
            {
              "internalType": "bytes",
              "name": "NAME",
              "type": "bytes"
            },
            {
              "internalType": "uint256",
              "name": "deadline",
              "type": "uint256"
            }
          ],
          "internalType": "struct GeodeUtils.Proposal",
          "name": "proposal",
          "type": "tuple"
        }
      ],
      "stateMutability": "view",
      "type": "function"
    },
    {
      "inputs": [
        {
          "internalType": "bytes",
          "name": "pubkey",
          "type": "bytes"
        }
      ],
      "name": "getValidator",
      "outputs": [
        {
          "components": [
            {
              "internalType": "uint8",
              "name": "state",
              "type": "uint8"
            },
            {
              "internalType": "uint256",
              "name": "index",
              "type": "uint256"
            },
            {
              "internalType": "uint256",
              "name": "poolId",
              "type": "uint256"
            },
            {
              "internalType": "uint256",
              "name": "operatorId",
              "type": "uint256"
            },
            {
              "internalType": "uint256",
              "name": "poolFee",
              "type": "uint256"
            },
            {
              "internalType": "uint256",
              "name": "operatorFee",
              "type": "uint256"
            },
            {
              "internalType": "uint256",
              "name": "createdAt",
              "type": "uint256"
            },
            {
              "internalType": "uint256",
              "name": "expectedExit",
              "type": "uint256"
            },
            {
              "internalType": "bytes",
              "name": "signature",
              "type": "bytes"
            }
          ],
          "internalType": "struct OracleUtils.Validator",
          "name": "",
          "type": "tuple"
        }
      ],
      "stateMutability": "view",
      "type": "function"
    },
    {
      "inputs": [],
      "name": "getVersion",
      "outputs": [
        {
          "internalType": "uint256",
          "name": "",
          "type": "uint256"
        }
      ],
      "stateMutability": "view",
      "type": "function"
    },
    {
      "inputs": [
        {
          "internalType": "uint256",
          "name": "id",
          "type": "uint256"
        }
      ],
      "name": "increaseMaintainerWallet",
      "outputs": [
        {
          "internalType": "bool",
          "name": "success",
          "type": "bool"
        }
      ],
      "stateMutability": "payable",
      "type": "function"
    },
    {
      "inputs": [
        {
          "internalType": "address",
          "name": "_GOVERNANCE",
          "type": "address"
        },
        {
          "internalType": "address",
          "name": "_gETH",
          "type": "address"
        },
        {
          "internalType": "address",
          "name": "_ORACLE_POSITION",
          "type": "address"
        },
        {
          "internalType": "address",
          "name": "_DEFAULT_gETH_INTERFACE",
          "type": "address"
        },
        {
          "internalType": "address",
          "name": "_DEFAULT_DWP",
          "type": "address"
        },
        {
          "internalType": "address",
          "name": "_DEFAULT_LP_TOKEN",
          "type": "address"
        },
        {
          "internalType": "address",
          "name": "_MINI_GOVERNANCE_POSITION",
          "type": "address"
        },
        {
          "internalType": "uint256",
          "name": "_GOVERNANCE_TAX",
          "type": "uint256"
        },
        {
          "internalType": "uint256",
          "name": "_COMET_TAX",
          "type": "uint256"
        },
        {
          "internalType": "uint256",
          "name": "_MAX_MAINTAINER_FEE",
          "type": "uint256"
        },
        {
          "internalType": "uint256",
          "name": "_BOOSTRAP_PERIOD",
          "type": "uint256"
        }
      ],
      "name": "initialize",
      "outputs": [],
      "stateMutability": "nonpayable",
      "type": "function"
    },
    {
      "inputs": [
        {
          "internalType": "uint256",
          "name": "_id",
          "type": "uint256"
        },
        {
          "internalType": "uint256",
          "name": "_fee",
          "type": "uint256"
        },
        {
          "internalType": "address",
          "name": "_maintainer",
          "type": "address"
        },
        {
          "internalType": "uint256",
          "name": "_validatorPeriod",
          "type": "uint256"
        }
      ],
      "name": "initiateOperator",
      "outputs": [],
      "stateMutability": "nonpayable",
      "type": "function"
    },
    {
      "inputs": [
        {
          "internalType": "uint256",
          "name": "_id",
          "type": "uint256"
        },
        {
          "internalType": "uint256",
          "name": "_fee",
          "type": "uint256"
        },
        {
          "internalType": "address",
          "name": "_maintainer",
          "type": "address"
        },
        {
          "internalType": "string",
          "name": "_interfaceName",
          "type": "string"
        },
        {
          "internalType": "string",
          "name": "_interfaceSymbol",
          "type": "string"
        }
      ],
      "name": "initiatePlanet",
      "outputs": [],
      "stateMutability": "nonpayable",
      "type": "function"
    },
    {
      "inputs": [],
      "name": "isOracleActive",
      "outputs": [
        {
          "internalType": "bool",
          "name": "",
          "type": "bool"
        }
      ],
      "stateMutability": "view",
      "type": "function"
    },
    {
      "inputs": [
        {
          "internalType": "uint256",
          "name": "operatorId",
          "type": "uint256"
        }
      ],
      "name": "isPrisoned",
      "outputs": [
        {
          "internalType": "bool",
          "name": "",
          "type": "bool"
        }
      ],
      "stateMutability": "view",
      "type": "function"
    },
    {
      "inputs": [
        {
          "internalType": "address",
          "name": "proposedImplementation",
          "type": "address"
        }
      ],
      "name": "isUpgradeAllowed",
      "outputs": [
        {
          "internalType": "bool",
          "name": "",
          "type": "bool"
        }
      ],
      "stateMutability": "view",
      "type": "function"
    },
    {
      "inputs": [],
      "name": "miniGovernanceVersion",
      "outputs": [
        {
          "internalType": "uint256",
          "name": "version",
          "type": "uint256"
        }
      ],
      "stateMutability": "view",
      "type": "function"
    },
    {
      "inputs": [
        {
          "internalType": "address",
          "name": "_CONTROLLER",
          "type": "address"
        },
        {
          "internalType": "uint256",
          "name": "_TYPE",
          "type": "uint256"
        },
        {
          "internalType": "bytes",
          "name": "_NAME",
          "type": "bytes"
        },
        {
          "internalType": "uint256",
          "name": "duration",
          "type": "uint256"
        }
      ],
      "name": "newProposal",
      "outputs": [],
      "stateMutability": "nonpayable",
      "type": "function"
    },
    {
      "inputs": [
        {
          "internalType": "address",
          "name": "",
          "type": "address"
        },
        {
          "internalType": "address",
          "name": "",
          "type": "address"
        },
        {
          "internalType": "uint256[]",
          "name": "",
          "type": "uint256[]"
        },
        {
          "internalType": "uint256[]",
          "name": "",
          "type": "uint256[]"
        },
        {
          "internalType": "bytes",
          "name": "",
          "type": "bytes"
        }
      ],
      "name": "onERC1155BatchReceived",
      "outputs": [
        {
          "internalType": "bytes4",
          "name": "",
          "type": "bytes4"
        }
      ],
      "stateMutability": "nonpayable",
      "type": "function"
    },
    {
      "inputs": [
        {
          "internalType": "address",
          "name": "",
          "type": "address"
        },
        {
          "internalType": "address",
          "name": "",
          "type": "address"
        },
        {
          "internalType": "uint256",
          "name": "",
          "type": "uint256"
        },
        {
          "internalType": "uint256",
          "name": "",
          "type": "uint256"
        },
        {
          "internalType": "bytes",
          "name": "",
          "type": "bytes"
        }
      ],
      "name": "onERC1155Received",
      "outputs": [
        {
          "internalType": "bytes4",
          "name": "",
          "type": "bytes4"
        }
      ],
      "stateMutability": "nonpayable",
      "type": "function"
    },
    {
      "inputs": [
        {
          "internalType": "uint256",
          "name": "poolId",
          "type": "uint256"
        },
        {
          "internalType": "uint256",
          "name": "operatorId",
          "type": "uint256"
        }
      ],
      "name": "operatorAllowance",
      "outputs": [
        {
          "internalType": "uint256",
          "name": "allowance",
          "type": "uint256"
        },
        {
          "internalType": "uint256",
          "name": "proposedValidators",
          "type": "uint256"
        },
        {
          "internalType": "uint256",
          "name": "activeValidators",
          "type": "uint256"
        }
      ],
      "stateMutability": "view",
      "type": "function"
    },
    {
      "inputs": [],
      "name": "pause",
      "outputs": [],
      "stateMutability": "nonpayable",
      "type": "function"
    },
    {
      "inputs": [
        {
          "internalType": "uint256",
          "name": "id",
          "type": "uint256"
        }
      ],
      "name": "pauseStakingForPool",
      "outputs": [],
      "stateMutability": "nonpayable",
      "type": "function"
    },
    {
      "inputs": [],
      "name": "paused",
      "outputs": [
        {
          "internalType": "bool",
          "name": "",
          "type": "bool"
        }
      ],
      "stateMutability": "view",
      "type": "function"
    },
    {
      "inputs": [
        {
          "internalType": "uint256",
          "name": "poolId",
          "type": "uint256"
        },
        {
          "internalType": "uint256",
          "name": "operatorId",
          "type": "uint256"
        },
        {
          "internalType": "bytes[]",
          "name": "pubkeys",
          "type": "bytes[]"
        },
        {
          "internalType": "bytes[]",
          "name": "signatures",
          "type": "bytes[]"
        }
      ],
      "name": "proposeStake",
      "outputs": [],
      "stateMutability": "nonpayable",
      "type": "function"
    },
    {
      "inputs": [],
      "name": "proxiableUUID",
      "outputs": [
        {
          "internalType": "bytes32",
          "name": "",
          "type": "bytes32"
        }
      ],
      "stateMutability": "view",
      "type": "function"
    },
    {
      "inputs": [
        {
          "internalType": "bytes[]",
          "name": "bustedExits",
          "type": "bytes[]"
        },
        {
          "internalType": "bytes[]",
          "name": "bustedSignals",
          "type": "bytes[]"
        },
        {
          "internalType": "uint256[2][]",
          "name": "feeThefts",
          "type": "uint256[2][]"
        }
      ],
      "name": "regulateOperators",
      "outputs": [],
      "stateMutability": "nonpayable",
      "type": "function"
    },
    {
      "inputs": [
        {
          "internalType": "uint256",
          "name": "operatorId",
          "type": "uint256"
        }
      ],
      "name": "releasePrisoned",
      "outputs": [],
      "stateMutability": "nonpayable",
      "type": "function"
    },
    {
      "inputs": [
        {
          "internalType": "bytes32",
          "name": "merkleRoot",
          "type": "bytes32"
        },
        {
          "internalType": "uint256[]",
          "name": "beaconBalances",
          "type": "uint256[]"
        },
        {
          "internalType": "bytes32[][]",
          "name": "priceProofs",
          "type": "bytes32[][]"
        }
      ],
      "name": "reportOracle",
      "outputs": [],
      "stateMutability": "nonpayable",
      "type": "function"
    },
    {
      "inputs": [
        {
          "internalType": "uint256",
          "name": "newFee",
          "type": "uint256"
        }
      ],
      "name": "setGovernanceTax",
      "outputs": [
        {
          "internalType": "bool",
          "name": "",
          "type": "bool"
        }
      ],
      "stateMutability": "nonpayable",
      "type": "function"
    },
    {
      "inputs": [
        {
          "internalType": "uint256",
          "name": "id",
          "type": "uint256"
        },
        {
          "internalType": "address",
          "name": "_interface",
          "type": "address"
        }
      ],
      "name": "setInterface",
      "outputs": [],
      "stateMutability": "nonpayable",
      "type": "function"
    },
    {
      "inputs": [
        {
          "internalType": "uint256",
          "name": "newMaxFee",
          "type": "uint256"
        }
      ],
      "name": "setMaxGovernanceTax",
      "outputs": [
        {
          "internalType": "bool",
          "name": "",
          "type": "bool"
        }
      ],
      "stateMutability": "nonpayable",
      "type": "function"
    },
    {
      "inputs": [
        {
          "internalType": "bytes[]",
          "name": "pubkeys",
          "type": "bytes[]"
        }
      ],
      "name": "signalUnstake",
      "outputs": [],
      "stateMutability": "nonpayable",
      "type": "function"
    },
    {
      "inputs": [
        {
          "internalType": "bytes4",
          "name": "interfaceId",
          "type": "bytes4"
        }
      ],
      "name": "supportsInterface",
      "outputs": [
        {
          "internalType": "bool",
          "name": "",
          "type": "bool"
        }
      ],
      "stateMutability": "view",
      "type": "function"
    },
    {
      "inputs": [
        {
          "internalType": "uint256",
          "name": "id",
          "type": "uint256"
        },
        {
          "internalType": "uint256",
          "name": "newFee",
          "type": "uint256"
        }
      ],
      "name": "switchMaintainerFee",
      "outputs": [],
      "stateMutability": "nonpayable",
      "type": "function"
    },
    {
      "inputs": [
        {
          "internalType": "uint256",
          "name": "poolId",
          "type": "uint256"
        },
        {
          "internalType": "uint256",
          "name": "withdrawalBoost",
          "type": "uint256"
        }
      ],
      "name": "switchWithdrawalBoost",
      "outputs": [],
      "stateMutability": "nonpayable",
      "type": "function"
    },
    {
      "inputs": [],
      "name": "unpause",
      "outputs": [],
      "stateMutability": "nonpayable",
      "type": "function"
    },
    {
      "inputs": [
        {
          "internalType": "uint256",
          "name": "id",
          "type": "uint256"
        }
      ],
      "name": "unpauseStakingForPool",
      "outputs": [],
      "stateMutability": "nonpayable",
      "type": "function"
    },
    {
      "inputs": [
        {
          "internalType": "uint256",
          "name": "id",
          "type": "uint256"
        },
        {
          "internalType": "uint256",
          "name": "index",
          "type": "uint256"
        }
      ],
      "name": "unsetInterface",
      "outputs": [],
      "stateMutability": "nonpayable",
      "type": "function"
    },
    {
      "inputs": [
        {
          "internalType": "address",
          "name": "_DEFAULT_gETH_INTERFACE",
          "type": "address"
        },
        {
          "internalType": "address",
          "name": "_DEFAULT_DWP",
          "type": "address"
        },
        {
          "internalType": "address",
          "name": "_DEFAULT_LP_TOKEN",
          "type": "address"
        },
        {
          "internalType": "uint256",
          "name": "_MAX_MAINTAINER_FEE",
          "type": "uint256"
        },
        {
          "internalType": "uint256",
          "name": "_BOOSTRAP_PERIOD",
          "type": "uint256"
        },
        {
          "internalType": "uint256",
          "name": "_PERIOD_PRICE_INCREASE_LIMIT",
          "type": "uint256"
        },
        {
          "internalType": "uint256",
          "name": "_PERIOD_PRICE_DECREASE_LIMIT",
          "type": "uint256"
        },
        {
          "internalType": "uint256",
          "name": "_COMET_TAX",
          "type": "uint256"
        },
        {
          "internalType": "uint256",
          "name": "_BOOST_SWITCH_LATENCY",
          "type": "uint256"
        }
      ],
      "name": "updateStakingParams",
      "outputs": [],
      "stateMutability": "nonpayable",
      "type": "function"
    },
    {
      "inputs": [
        {
          "internalType": "uint256",
          "name": "operatorId",
          "type": "uint256"
        },
        {
          "internalType": "uint256",
          "name": "newPeriod",
          "type": "uint256"
        }
      ],
      "name": "updateValidatorPeriod",
      "outputs": [],
      "stateMutability": "nonpayable",
      "type": "function"
    },
    {
      "inputs": [
        {
          "internalType": "uint256",
          "name": "allValidatorsCount",
          "type": "uint256"
        },
        {
          "internalType": "uint256",
          "name": "validatorVerificationIndex",
          "type": "uint256"
        },
        {
          "internalType": "bytes[]",
          "name": "alienatedPubkeys",
          "type": "bytes[]"
        }
      ],
      "name": "updateVerificationIndex",
      "outputs": [],
      "stateMutability": "nonpayable",
      "type": "function"
    },
    {
      "inputs": [
        {
          "internalType": "address",
          "name": "newImplementation",
          "type": "address"
        }
      ],
      "name": "upgradeTo",
      "outputs": [],
      "stateMutability": "nonpayable",
      "type": "function"
    },
    {
      "inputs": [
        {
          "internalType": "address",
          "name": "newImplementation",
          "type": "address"
        },
        {
          "internalType": "bytes",
          "name": "data",
          "type": "bytes"
        }
      ],
      "name": "upgradeToAndCall",
      "outputs": [],
      "stateMutability": "payable",
      "type": "function"
    },
    {
      "inputs": [
        {
          "internalType": "uint256",
          "name": "poolId",
          "type": "uint256"
        },
        {
          "internalType": "uint256",
          "name": "gEthToWithdraw",
          "type": "uint256"
        },
        {
          "internalType": "uint256",
          "name": "minETH",
          "type": "uint256"
        },
        {
          "internalType": "uint256",
          "name": "deadline",
          "type": "uint256"
        }
      ],
      "name": "withdrawPlanet",
      "outputs": [
        {
          "internalType": "uint256",
          "name": "EthToSend",
          "type": "uint256"
        }
      ],
      "stateMutability": "nonpayable",
      "type": "function"
    }
  ],
  "numDeployments": 1,
  "solcInputHash": "11ddb6c4e4cbaa5092547f659772ac7d",
  "bytecode": "0x60a06040523060601b60805234801561001757600080fd5b5060805160601c61577f620000536000396000818161128d015281816112cd01528181611895015281816118d50152611951015261577f6000f3fe6080604052600436106103b85760003560e01c80636c2a23c5116101f2578063b4891bfd1161010d578063e09b2c1b116100a0578063f23a6e611161006f578063f23a6e6114610c30578063f3d326ae14610c5c578063f3fdca3314610c7c578063fe473d2314610c9c57600080fd5b8063e09b2c1b14610bb0578063e9f227d514610bd0578063eaec271b14610bf0578063eb16430014610c1057600080fd5b8063cd652536116100dc578063cd65253614610b30578063d22f940714610b50578063d950951914610b70578063dd272bf414610b9057600080fd5b8063b4891bfd14610a71578063b736ca8214610a9e578063bc197c8114610abe578063c7f758a814610b0357600080fd5b80638a22fb2c11610185578063a1ae84e011610154578063a1ae84e0146109e2578063a4ff323f146109f5578063ac7a7eb314610a09578063ad4ac4c414610a2957600080fd5b80638a22fb2c1461091b5780639445d6201461093057806395d5c1f6146109a257806398951b56146109c257600080fd5b806370bf810f116101c157806370bf810f146108b057806373f9df00146108c657806381b0c584146108e65780638456cb591461090657600080fd5b80636c2a23c5146108305780636d07e404146108505780636edcf7fa146108705780636f4f01f71461089d57600080fd5b80633c6a05ef116102e25780634f1ef286116102755780635e2da4ac116102445780635e2da4ac146107b057806360c91e9b146107d05780636655f6df146107f0578063689338761461081057600080fd5b80634f1ef2861461074357806352d1902d14610756578063552207491461076b5780635c975abb1461079857600080fd5b806344ecc863116102b157806344ecc863146106c35780634a84f6f5146106e35780634b4184d1146107035780634e3ab0181461072357600080fd5b80633c6a05ef146106455780633e183494146106655780633f4ba83a14610685578063411950211461069a57600080fd5b8063221abbd21161035a5780633659cfe6116103295780633659cfe6146105ce57806338b90333146105ee57806339443b8e146106055780633bd506ac1461062557600080fd5b8063221abbd21461053657806327cd2aa41461055657806328c7aa3b1461057657806334efcb8e1461059657600080fd5b806305f63c8a1161039657806305f63c8a146104865780630ab4bc91146104bb5780630d8e6e2c146104f657806317372ca31461051657600080fd5b806301ffc9a7146103bd578063020892fe146103f257806305d54ed214610464575b600080fd5b3480156103c957600080fd5b506103dd6103d83660046146aa565b610cbc565b60405190151581526020015b60405180910390f35b3480156103fe57600080fd5b506101c4546101c5546101c6546101c7546101c8546101c9546101cb54604080516001600160a01b039889168152968816602088015296909416958501959095526060840191909152608083015260a082019290925260c081019190915260e0016103e9565b34801561047057600080fd5b5061048461047f3660046149c6565b610cf3565b005b34801561049257600080fd5b506104a66104a13660046148c8565b610d9e565b6040516103e999989796959493929190614e58565b3480156104c757600080fd5b506104db6104d63660046149c6565b610eaa565b604080519384526020840192909252908201526060016103e9565b34801561050257600080fd5b50610191545b6040519081526020016103e9565b34801561052257600080fd5b50610484610531366004614abc565b610f9e565b34801561054257600080fd5b506104846105513660046149c6565b611019565b34801561056257600080fd5b506103dd6105713660046148c8565b61108b565b34801561058257600080fd5b506105086105913660046148c8565b611099565b3480156105a257600080fd5b506105b66105b13660046148c8565b611127565b6040516103e99c9b9a99989796959493929190614eb5565b3480156105da57600080fd5b506104846105e9366004614110565b611282565b3480156105fa57600080fd5b506105086101915481565b34801561061157600080fd5b506103dd6106203660046148c8565b61134b565b34801561063157600080fd5b506104846106403660046144f2565b6113da565b34801561065157600080fd5b506104846106603660046148c8565b61149e565b34801561067157600080fd5b50610484610680366004614b0e565b611538565b34801561069157600080fd5b50610484611608565b3480156106a657600080fd5b506101b2546040516001600160a01b0390911681526020016103e9565b3480156106cf57600080fd5b506104846106de3660046149e8565b61163d565b3480156106ef57600080fd5b506103dd6106fe366004614110565b611762565b34801561070f57600080fd5b5061048461071e3660046148c8565b6117ad565b34801561072f57600080fd5b5061048461073e36600461495c565b6117ed565b6104846107513660046143a0565b61188a565b34801561076257600080fd5b50610508611944565b34801561077757600080fd5b5061078b6107863660046148c8565b6119f7565b6040516103e99190614dd3565b3480156107a457600080fd5b5060655460ff166103dd565b3480156107bc57600080fd5b506104846107cb366004614911565b611a89565b3480156107dc57600080fd5b506103dd6107eb3660046148c8565b611b50565b3480156107fc57600080fd5b5061048461080b3660046149c6565b611bc0565b34801561081c57600080fd5b5061048461082b3660046148c8565b611c5a565b34801561083c57600080fd5b5061050861084b366004614709565b611cbd565b34801561085c57600080fd5b5061048461086b3660046148e1565b611cf4565b34801561087c57600080fd5b5061089061088b3660046148c8565b611d66565b6040516103e99190614e20565b6103dd6108ab3660046148c8565b611dc9565b3480156108bc57600080fd5b506101c754610508565b3480156108d257600080fd5b506103dd6108e13660046149c6565b611eb1565b3480156108f257600080fd5b506103dd6109013660046148c8565b611fa1565b34801561091257600080fd5b5061048461200c565b34801561092757600080fd5b506103dd61203f565b34801561093c57600080fd5b506101b4546101b5546101b6546101b7546101b8546101b9546101ba546101bb54604080516001600160a01b0390991689526020890197909752958701949094526060860192909252608085015260a084015260c083015260e0820152610100016103e9565b3480156109ae57600080fd5b506104846109bd366004614533565b612051565b3480156109ce57600080fd5b506104846109dd3660046148c8565b6120d2565b6105086109f0366004614c3c565b6121cf565b348015610a0157600080fd5b5060016103dd565b348015610a1557600080fd5b50610484610a243660046143ef565b6122cf565b348015610a3557600080fd5b50610a3e6123b0565b604080516001600160a01b039687168152959094166020860152928401919091526060830152608082015260a0016103e9565b348015610a7d57600080fd5b50610a91610a8c3660046146d4565b612664565b6040516103e991906154fb565b348015610aaa57600080fd5b50610484610ab936600461414a565b61274e565b348015610aca57600080fd5b50610aea610ad936600461428b565b63bc197c8160e01b95945050505050565b6040516001600160e01b031990911681526020016103e9565b348015610b0f57600080fd5b50610b23610b1e3660046148c8565b612c0f565b6040516103e99190615297565b348015610b3c57600080fd5b506103dd610b4b366004614c3c565b612cd2565b348015610b5c57600080fd5b50610484610b6b366004614631565b612d9e565b348015610b7c57600080fd5b50610484610b8b366004614b90565b612e48565b348015610b9c57600080fd5b506103dd610bab3660046146d4565b612f1e565b348015610bbc57600080fd5b50610508610bcb366004614c68565b612fb2565b348015610bdc57600080fd5b50610484610beb3660046149c6565b6130ba565b348015610bfc57600080fd5b50610484610c0b3660046148e1565b613124565b348015610c1c57600080fd5b50610484610c2b366004614a7d565b61319e565b348015610c3c57600080fd5b50610aea610c4b366004614338565b63f23a6e6160e01b95945050505050565b348015610c6857600080fd5b50610484610c773660046148e1565b613226565b348015610c8857600080fd5b50610484610c9736600461420a565b613298565b348015610ca857600080fd5b50610484610cb73660046149c6565b61367f565b60006001600160e01b03198216630271189760e51b1480610ced57506301ffc9a760e01b6001600160e01b03198316145b92915050565b60655460ff1615610d1f5760405162461bcd60e51b8152600401610d1690614fde565b60405180910390fd5b60405163633074e760e01b81526101b260048201526101926024820152604481018390526064810182905273__$3203ba5584f3f9d3a0d8e6013dbecad587$__9063633074e7906084015b60006040518083038186803b158015610d8257600080fd5b505af4158015610d96573d6000803e3d6000fd5b505050505050565b6060600080808080808080610dbd6101928b634e414d4560e01b6136f1565b9850610dd96101928b6921a7a72a2927a62622a960b11b6137a3565b9750610df56101928b6936b0b4b73a30b4b732b960b11b6137a3565b9650610e106101928b681a5b9a5d1a585d195960ba1b6137d7565b9550610e1e6101928b613801565b9450610e396101928b680cccacaa6eed2e8c6d60bb1b6137d7565b9350610e606101928b74746f74616c41637469766556616c696461746f727360581b6137d7565b9250610e816101928b6e1d985b1a59185d1bdc94195c9a5bd9608a1b6137d7565b9150610e9b6101928b671c995b19585cd95960c21b6137d7565b90509193959799909294969850565b604051631955fd0960e31b8152610192600482015260248101839052604481018290526000908190819073__$3203ba5584f3f9d3a0d8e6013dbecad587$__9063caafe8489060640160206040518083038186803b158015610f0b57600080fd5b505af4158015610f1f573d6000803e3d6000fd5b505050506040513d601f19601f82011682018060405250810190610f439190614618565b9250610f7285610f68867170726f706f73656456616c696461746f727360701b61384f565b61019291906137d7565b9150610f9585610f68866f61637469766556616c696461746f727360801b61384f565b90509250925092565b604051637c98222560e11b815273__$88e9f91c78a6ae79a6edc42fa4982a1d74$__9063f930444a90610fe3906101b39061019290899089908990899060040161525f565b60006040518083038186803b158015610ffb57600080fd5b505af415801561100f573d6000803e3d6000fd5b5050505050505050565b60655460ff161561103c5760405162461bcd60e51b8152600401610d1690614fde565b604051631a3bdb5960e31b81526101b260048201526101926024820152604481018390526064810182905273__$3203ba5584f3f9d3a0d8e6013dbecad587$__9063d1dedac890608401610d6a565b6000610ced6101928361387b565b604051633a6f667f60e21b815261019260048201526024810182905260009073__$7cc3f5085d749a3b94d028420e2680a54c$__9063e9bd99fc9060440160206040518083038186803b1580156110ef57600080fd5b505af4158015611103573d6000803e3d6000fd5b505050506040513d601f19601f82011682018060405250810190610ced9190614618565b60606000808080808080808080806111496101928e634e414d4560e01b6136f1565b9b506111656101928e6921a7a72a2927a62622a960b11b6137a3565b9a506111816101928e6936b0b4b73a30b4b732b960b11b6137a3565b995061119c6101928e681a5b9a5d1a585d195960ba1b6137d7565b98506111aa6101928e613801565b97506111c56101928e680cccacaa6eed2e8c6d60bb1b6137d7565b96506111de6101928e66737572706c757360c81b6137d7565b95506111f76101928e661cd958dd5c995960ca1b6137d7565b94506112186101928e6e1dda5d1a191c985dd85b109bdbdcdd608a1b6137d7565b93506112386101928e6d1dda5d1a191c985dd85b141bdbdb60921b6137a3565b92506112516101928e6626282a37b5b2b760c91b6137a3565b91506112716101928e6d6d696e69476f7665726e616e636560901b6137a3565b905091939597999b5091939597999b565b306001600160a01b037f00000000000000000000000000000000000000000000000000000000000000001614156112cb5760405162461bcd60e51b8152600401610d1690614f46565b7f00000000000000000000000000000000000000000000000000000000000000006001600160a01b03166112fd61389d565b6001600160a01b0316146113235760405162461bcd60e51b8152600401610d1690614f92565b61132c816138b9565b60408051600080825260208201909252611348918391906139b5565b50565b604051632efc555760e21b815261019260048201526024810182905260009073__$3203ba5584f3f9d3a0d8e6013dbecad587$__9063bbf1555c906044015b60206040518083038186803b1580156113a257600080fd5b505af41580156113b6573d6000803e3d6000fd5b505050506040513d601f19601f82011682018060405250810190610ced91906145fb565b60655460ff16156113fd5760405162461bcd60e51b8152600401610d1690614fde565b600260015414156114205760405162461bcd60e51b8152600401610d169061508a565b600260015560405163527fa72f60e11b815273__$3203ba5584f3f9d3a0d8e6013dbecad587$__9063a4ff4e5e90611466906101b29061019290879087906004016152e5565b60006040518083038186803b15801561147e57600080fd5b505af4158015611492573d6000803e3d6000fd5b50506001805550505050565b6101a3546001600160a01b031633146114c95760405162461bcd60e51b8152600401610d1690615008565b60405163668aec1760e11b815261019260048201526024810182905273__$88e9f91c78a6ae79a6edc42fa4982a1d74$__9063cd15d82e906044015b60006040518083038186803b15801561151d57600080fd5b505af4158015611531573d6000803e3d6000fd5b5050505050565b60655460ff161561155b5760405162461bcd60e51b8152600401610d1690614fde565b6002600154141561157e5760405162461bcd60e51b8152600401610d169061508a565b600260015560405163f1016dfb60e01b815273__$3203ba5584f3f9d3a0d8e6013dbecad587$__9063f1016dfb906115cc906101b290610192908b908b908b908b908b908b906004016153df565b60006040518083038186803b1580156115e457600080fd5b505af41580156115f8573d6000803e3d6000fd5b5050600180555050505050505050565b6101a3546001600160a01b031633146116335760405162461bcd60e51b8152600401610d1690615008565b61163b613b34565b565b60655460ff16156116605760405162461bcd60e51b8152600401610d1690614fde565b6101b273__$3203ba5584f3f9d3a0d8e6013dbecad587$__63d30807f890916101928a8a8a60405180604001604052808c8c8080601f016020809104026020016040519081016040528093929190818152602001838380828437600092019190915250505090825250604080516020601f8d018190048102820181019092528b815291810191908c908c908190840183828082843760009201919091525050509152506040516001600160e01b031960e089901b16815261172996959493929190600401615360565b60006040518083038186803b15801561174157600080fd5b505af4158015611755573d6000803e3d6000fd5b5050505050505050505050565b604051633680b40760e01b81526101a260048201526001600160a01b038216602482015260009073__$470c7289acb57212a69b34ceb5289ef95c$__90633680b4079060440161138a565b604051632b49c8db60e11b815261019260048201526024810182905273__$3203ba5584f3f9d3a0d8e6013dbecad587$__9063569391b690604401611505565b60655460ff16156118105760405162461bcd60e51b8152600401610d1690614fde565b604051633802c20d60e01b815273__$3203ba5584f3f9d3a0d8e6013dbecad587$__90633802c20d906118539061019290899089908990899089906004016150c1565b60006040518083038186803b15801561186b57600080fd5b505af415801561187f573d6000803e3d6000fd5b505050505050505050565b306001600160a01b037f00000000000000000000000000000000000000000000000000000000000000001614156118d35760405162461bcd60e51b8152600401610d1690614f46565b7f00000000000000000000000000000000000000000000000000000000000000006001600160a01b031661190561389d565b6001600160a01b03161461192b5760405162461bcd60e51b8152600401610d1690614f92565b611934826138b9565b611940828260016139b5565b5050565b6000306001600160a01b037f000000000000000000000000000000000000000000000000000000000000000016146119e45760405162461bcd60e51b815260206004820152603860248201527f555550535570677261646561626c653a206d757374206e6f742062652063616c60448201527f6c6564207468726f7567682064656c656761746563616c6c00000000000000006064820152608401610d16565b5060008051602061570383398151915290565b60405163ccc68fc360e01b815261019260048201526024810182905260609073__$3203ba5584f3f9d3a0d8e6013dbecad587$__9063ccc68fc39060440160006040518083038186803b158015611a4d57600080fd5b505af4158015611a61573d6000803e3d6000fd5b505050506040513d6000823e601f3d908101601f19168201604052610ced9190810190614452565b60655460ff1615611aac5760405162461bcd60e51b8152600401610d1690614fde565b60026001541415611acf5760405162461bcd60e51b8152600401610d169061508a565b60026001556040516318a3d29560e11b815273__$3203ba5584f3f9d3a0d8e6013dbecad587$__90633147a52a90611b17906101b2906101929088908890889060040161532f565b60006040518083038186803b158015611b2f57600080fd5b505af4158015611b43573d6000803e3d6000fd5b5050600180555050505050565b6000611b5e60655460ff1690565b15611b7b5760405162461bcd60e51b8152600401610d1690614fde565b604051631558c9b560e01b81526101a260048201526024810183905273__$470c7289acb57212a69b34ceb5289ef95c$__90631558c9b59060440161138a565b919050565b60655460ff1615611be35760405162461bcd60e51b8152600401610d1690614fde565b60026001541415611c065760405162461bcd60e51b8152600401610d169061508a565b6002600155604051635fff751760e01b81526101a260048201526101926024820152604481018390526064810182905273__$470c7289acb57212a69b34ceb5289ef95c$__90635fff751790608401611466565b60655460ff1615611c7d5760405162461bcd60e51b8152600401610d1690614fde565b604051639e8c228360e01b815261019260048201526024810182905273__$3203ba5584f3f9d3a0d8e6013dbecad587$__90639e8c228390604401611505565b6000838383604051602001611cd493929190614dc1565b60408051601f198184030181529190528051602090910120949350505050565b60655460ff1615611d175760405162461bcd60e51b8152600401610d1690614fde565b60405163017e493760e31b81526101926004820152602481018390526001600160a01b038216604482015273__$470c7289acb57212a69b34ceb5289ef95c$__90630bf249b890606401610d6a565b60008181526101926020908152604091829020805483518184028101840190945280845260609392830182828015611dbd57602002820191906000526020600020905b815481526020019060010190808311611da9575b50505050509050919050565b6000611dd760655460ff1690565b15611df45760405162461bcd60e51b8152600401610d1690614fde565b60026001541415611e175760405162461bcd60e51b8152600401610d169061508a565b6002600155604051630d55231360e01b815261019260048201526024810183905273__$3203ba5584f3f9d3a0d8e6013dbecad587$__90630d5523139060440160206040518083038186803b158015611e6f57600080fd5b505af4158015611e83573d6000803e3d6000fd5b505050506040513d601f19601f82011682018060405250810190611ea791906145fb565b6001805592915050565b6000611ebf60655460ff1690565b15611edc5760405162461bcd60e51b8152600401610d1690614fde565b60026001541415611eff5760405162461bcd60e51b8152600401610d169061508a565b60026001556040516336b03cd960e11b81526101926004820152602481018490526044810183905273__$3203ba5584f3f9d3a0d8e6013dbecad587$__90636d6079b29060640160206040518083038186803b158015611f5e57600080fd5b505af4158015611f72573d6000803e3d6000fd5b505050506040513d601f19601f82011682018060405250810190611f9691906145fb565b600180559392505050565b6000611faf60655460ff1690565b15611fcc5760405162461bcd60e51b8152600401610d1690614fde565b60405163777b3f5960e01b81526101a260048201526024810183905273__$470c7289acb57212a69b34ceb5289ef95c$__9063777b3f599060440161138a565b6101a3546001600160a01b031633146120375760405162461bcd60e51b8152600401610d1690615008565b61163b613bc7565b600061204c6101b3613c1f565b905090565b60405163050da2e760e11b815273__$88e9f91c78a6ae79a6edc42fa4982a1d74$__90630a1b45ce9061209a906101b390610192908b908b908b908b908b908b9060040161511e565b60006040518083038186803b1580156120b257600080fd5b505af41580156120c6573d6000803e3d6000fd5b50505050505050505050565b60655460ff16156120f55760405162461bcd60e51b8152600401610d1690614fde565b6040516325b0fcff60e11b81526101a2600482015261019260248201526044810182905273__$470c7289acb57212a69b34ceb5289ef95c$__90634b61f9fe9060640160006040518083038186803b15801561215057600080fd5b505af4158015612164573d6000803e3d6000fd5b5061217f92506101929150839050635459504560e01b6137d7565b600b141561134857604051630c34b0ab60e21b81526101b2600482015261019260248201526044810182905273__$3203ba5584f3f9d3a0d8e6013dbecad587$__906330d2c2ac90606401611505565b60006121dd60655460ff1690565b156121fa5760405162461bcd60e51b8152600401610d1690614fde565b6002600154141561221d5760405162461bcd60e51b8152600401610d169061508a565b600260015560405163955ba8d360e01b81526101b26004820152610192602482015260448101859052606481018490526084810183905273__$3203ba5584f3f9d3a0d8e6013dbecad587$__9063955ba8d39060a40160206040518083038186803b15801561228b57600080fd5b505af415801561229f573d6000803e3d6000fd5b505050506040513d601f19601f820116820180604052508101906122c39190614618565b60018055949350505050565b60655460ff16156122f25760405162461bcd60e51b8152600401610d1690614fde565b6101a3546001600160a01b0316331461231d5760405162461bcd60e51b8152600401610d1690615008565b6040516304cba2d760e11b815273__$470c7289acb57212a69b34ceb5289ef95c$__9063099745ae90612360906101a290899089908990899089906004016154ba565b60206040518083038186803b15801561237857600080fd5b505af415801561238c573d6000803e3d6000fd5b505050506040513d601f19601f82011682018060405250810190610d969190614618565b604051632748984160e11b81526101a26004820152600090819081908190819073__$470c7289acb57212a69b34ceb5289ef95c$__90634e9130829060240160206040518083038186803b15801561240757600080fd5b505af415801561241b573d6000803e3d6000fd5b505050506040513d601f19601f8201168201806040525081019061243f919061412d565b60405163f00d779d60e01b81526101a2600482015290955073__$470c7289acb57212a69b34ceb5289ef95c$__9063f00d779d9060240160206040518083038186803b15801561248e57600080fd5b505af41580156124a2573d6000803e3d6000fd5b505050506040513d601f19601f820116820180604052508101906124c6919061412d565b604051634833e71b60e11b81526101a2600482015290945073__$470c7289acb57212a69b34ceb5289ef95c$__90639067ce369060240160206040518083038186803b15801561251557600080fd5b505af4158015612529573d6000803e3d6000fd5b505050506040513d601f19601f8201168201806040525081019061254d9190614618565b6040516302eb53c760e11b81526101a2600482015290935073__$470c7289acb57212a69b34ceb5289ef95c$__906305d6a78e9060240160206040518083038186803b15801561259c57600080fd5b505af41580156125b0573d6000803e3d6000fd5b505050506040513d601f19601f820116820180604052508101906125d49190614618565b60405163b09d91a960e01b81526101a2600482015290925073__$470c7289acb57212a69b34ceb5289ef95c$__9063b09d91a99060240160206040518083038186803b15801561262357600080fd5b505af4158015612637573d6000803e3d6000fd5b505050506040513d601f19601f8201168201806040525081019061265b9190614618565b90509091929394565b6126b6604051806101200160405280600060ff16815260200160008152602001600081526020016000815260200160008152602001600081526020016000815260200160008152602001606081525090565b604051638a6ea9b760e01b815273__$88e9f91c78a6ae79a6edc42fa4982a1d74$__90638a6ea9b7906126f3906101b39087908790600401615104565b60006040518083038186803b15801561270b57600080fd5b505af415801561271f573d6000803e3d6000fd5b505050506040513d6000823e601f3d908101601f191682016040526127479190810190614800565b9392505050565b600054610100900460ff166127695760005460ff161561276d565b303b155b6127d05760405162461bcd60e51b815260206004820152602e60248201527f496e697469616c697a61626c653a20636f6e747261637420697320616c72656160448201526d191e481a5b9a5d1a585b1a5e995960921b6064820152608401610d16565b600054610100900460ff161580156127f2576000805461ffff19166101011790555b6127fa613c52565b612802613c81565b61280a613cb0565b612812613cb0565b6101a280546001600160a01b03808f166001600160a01b031992831681179093556101a380548316841790556101a48890556101a58890556000196101a68190556101c3805484169094179093556101b280548f831690841681179091556101b38054841690911790556101b48054918e16919092161790556128a4908a908a908a9087908790808b6203f480613298565b6040516304cba2d760e11b81526101a260048201526001600160a01b0387166024820152600b604482015260a06064820152600760a4820152666d696e692d763160c81b60c48201526202a300608482015260009073__$470c7289acb57212a69b34ceb5289ef95c$__9063099745ae9060e40160206040518083038186803b15801561293057600080fd5b505af4158015612944573d6000803e3d6000fd5b505050506040513d601f19601f820116820180604052508101906129689190614618565b6040516325b0fcff60e11b81526101a2600482015261019260248201526044810182905290915073__$470c7289acb57212a69b34ceb5289ef95c$__90634b61f9fe9060640160006040518083038186803b1580156129c657600080fd5b505af41580156129da573d6000803e3d6000fd5b5050506101c782905550604051630105835b60e41b81526101a260048201526101926024820152600560448201526001606482015273__$470c7289acb57212a69b34ceb5289ef95c$__9063105835b09060840160006040518083038186803b158015612a4657600080fd5b505af4158015612a5a573d6000803e3d6000fd5b5050505060006101a273__$470c7289acb57212a69b34ceb5289ef95c$__63099745ae9091612a8761389d565b6040516001600160e01b031960e085901b16815260048101929092526001600160a01b0316602482015260026044820181905260a0606483015260a482015261563160f01b60c48201526202a300608482015260e40160206040518083038186803b158015612af557600080fd5b505af4158015612b09573d6000803e3d6000fd5b505050506040513d601f19601f82011682018060405250810190612b2d9190614618565b6040516325b0fcff60e11b81526101a2600482015261019260248201526044810182905290915073__$470c7289acb57212a69b34ceb5289ef95c$__90634b61f9fe9060640160006040518083038186803b158015612b8b57600080fd5b505af4158015612b9f573d6000803e3d6000fd5b505050610191829055506101a780546001600160a01b03191690557ffddcded6b4f4730c226821172046b48372d3cd963c159701ae1b7c3bcac541bb8160405190815260200160405180910390a150508015612c01576000805461ff00191690555b505050505050505050505050565b612c43604051806080016040528060006001600160a01b031681526020016000815260200160608152602001600081525090565b60405163d115f19560e01b81526101a260048201526024810183905273__$470c7289acb57212a69b34ceb5289ef95c$__9063d115f1959060440160006040518083038186803b158015612c9657600080fd5b505af4158015612caa573d6000803e3d6000fd5b505050506040513d6000823e601f3d908101601f19168201604052610ced9190810190614754565b6000612ce060655460ff1690565b15612cfd5760405162461bcd60e51b8152600401610d1690614fde565b60405163fd805ee560e01b8152610192600482015260248101859052604481018490526064810183905273__$3203ba5584f3f9d3a0d8e6013dbecad587$__9063fd805ee59060840160206040518083038186803b158015612d5e57600080fd5b505af4158015612d72573d6000803e3d6000fd5b505050506040513d601f19601f82011682018060405250810190612d9691906145fb565b949350505050565b60026001541415612dc15760405162461bcd60e51b8152600401610d169061508a565b6002600155604051631425fb5160e01b815273__$88e9f91c78a6ae79a6edc42fa4982a1d74$__90631425fb5190612e0d906101b390610192908a908a908a908a908a90600401615199565b60006040518083038186803b158015612e2557600080fd5b505af4158015612e39573d6000803e3d6000fd5b50506001805550505050505050565b60655460ff1615612e6b5760405162461bcd60e51b8152600401610d1690614fde565b60026001541415612e8e5760405162461bcd60e51b8152600401610d169061508a565b600260015560405163303cb36f60e01b815273__$3203ba5584f3f9d3a0d8e6013dbecad587$__9063303cb36f90612ee0906101b290610192908d908d908d908d908d908d908d908d9060040161542d565b60006040518083038186803b158015612ef857600080fd5b505af4158015612f0c573d6000803e3d6000fd5b50506001805550505050505050505050565b604051633a66037d60e01b815260009073__$3203ba5584f3f9d3a0d8e6013dbecad587$__90633a66037d90612f62906101b290610192908890889060040161530f565b60206040518083038186803b158015612f7a57600080fd5b505af4158015612f8e573d6000803e3d6000fd5b505050506040513d601f19601f8201168201806040525081019061274791906145fb565b6000612fc060655460ff1690565b15612fdd5760405162461bcd60e51b8152600401610d1690614fde565b600260015414156130005760405162461bcd60e51b8152600401610d169061508a565b600260015560405163705ced5f60e11b81526101b26004820152610192602482015260448101869052606481018590526084810184905260a4810183905273__$3203ba5584f3f9d3a0d8e6013dbecad587$__9063e0b9dabe9060c40160206040518083038186803b15801561307557600080fd5b505af4158015613089573d6000803e3d6000fd5b505050506040513d601f19601f820116820180604052508101906130ad9190614618565b6001805595945050505050565b60655460ff16156130dd5760405162461bcd60e51b8152600401610d1690614fde565b60405163020feb2960e61b81526101926004820152602481018390526044810182905273__$3203ba5584f3f9d3a0d8e6013dbecad587$__906383faca4090606401610d6a565b60655460ff16156131475760405162461bcd60e51b8152600401610d1690614fde565b60405163461e42e760e11b81526101b260048201526101926024820152604481018390526001600160a01b038216606482015273__$3203ba5584f3f9d3a0d8e6013dbecad587$__90638c3c85ce90608401610d6a565b60655460ff16156131c15760405162461bcd60e51b8152600401610d1690614fde565b604051630b30a7af60e11b81526101b26004820152610192602482015260448101859052606481018490526001600160a01b038316608482015260a4810182905273__$3203ba5584f3f9d3a0d8e6013dbecad587$__906316614f5e9060c401610fe3565b60655460ff16156132495760405162461bcd60e51b8152600401610d1690614fde565b604051634c3be99360e11b81526101926004820152602481018390526001600160a01b038216604482015273__$3203ba5584f3f9d3a0d8e6013dbecad587$__90639877d32690606401610d6a565b6101a3546001600160a01b031633146132c35760405162461bcd60e51b8152600401610d1690615008565b6000896001600160a01b03163b116133315760405162461bcd60e51b815260206004820152602b60248201527f506f7274616c3a2044454641554c545f674554485f494e54455246414345204e60448201526a13d50818dbdb9d1c9858dd60aa1b6064820152608401610d16565b6000886001600160a01b03163b1161338b5760405162461bcd60e51b815260206004820181905260248201527f506f7274616c3a2044454641554c545f445750204e4f5420636f6e74726163746044820152606401610d16565b6000876001600160a01b03163b116133f35760405162461bcd60e51b815260206004820152602560248201527f506f7274616c3a2044454641554c545f4c505f544f4b454e204e4f5420636f6e6044820152641d1c9858dd60da1b6064820152608401610d16565b60008611801561340857506402540be4008611155b6134605760405162461bcd60e51b8152602060048201526024808201527f506f7274616c3a20696e636f7272656374204d41585f4d41494e5441494e45526044820152635f46454560e01b6064820152608401610d16565b600084116134c65760405162461bcd60e51b815260206004820152602d60248201527f506f7274616c3a20696e636f727265637420504552494f445f50524943455f4960448201526c1390d4915054d157d312535255609a1b6064820152608401610d16565b6000831161352c5760405162461bcd60e51b815260206004820152602d60248201527f506f7274616c3a20696e636f727265637420504552494f445f50524943455f4460448201526c1150d4915054d157d312535255609a1b6064820152608401610d16565b858211156135a25760405162461bcd60e51b815260206004820152603860248201527f506f7274616c3a20434f4d45545f5441582073686f756c64206265206c65737360448201527f207468616e204d41585f4d41494e5441494e45525f46454500000000000000006064820152608401610d16565b6101c480546001600160a01b038b81166001600160a01b031992831681179093556101c580548c831690841681179091556101c68054928c169290931682179092556101c88990556101cb8590556101c98890556101ca8490556101b98790556101ba86905560408051938452602084019290925290820152606081018790526080810186905260a0810185905260c0810184905260e0810183905261010081018290527fed9b7f252560eed86a622fea07b4805a898223e63502637172d7be2538b7dd6f906101200160405180910390a1505050505050505050565b60655460ff16156136a25760405162461bcd60e51b8152600401610d1690614fde565b60405163b3ce61f360e01b81526101b260048201526101926024820152604481018390526064810182905273__$3203ba5584f3f9d3a0d8e6013dbecad587$__9063b3ce61f390608401610d6a565b6060836002016000613703858561384f565b8152602001908152602001600020805461371c9061566c565b80601f01602080910402602001604051908101604052809291908181526020018280546137489061566c565b80156137955780601f1061376a57610100808354040283529160200191613795565b820191906000526020600020905b81548152906001019060200180831161377857829003601f168201915b505050505090509392505050565b60008360030160006137b5858561384f565b81526020810191909152604001600020546001600160a01b0316949350505050565b60008360010160006137e9858561384f565b81526020019081526020016000205490509392505050565b60004261381b8484680cccacaa6eed2e8c6d60bb1b6137d7565b111561383e576138378383677072696f7246656560c01b6137d7565b9050610ced565b61274783836266656560e81b6137d7565b604080516020808201949094528082019290925280518083038201815260609092019052805191012090565b60006138938383671c995b19585cd95960c21b6137d7565b4211159392505050565b600080516020615703833981519152546001600160a01b031690565b6001600160a01b0381166138cc57600080fd5b604051633680b40760e01b81526101a260048201526001600160a01b038216602482015273__$470c7289acb57212a69b34ceb5289ef95c$__90633680b4079060440160206040518083038186803b15801561392757600080fd5b505af415801561393b573d6000803e3d6000fd5b505050506040513d601f19601f8201168201806040525081019061395f91906145fb565b6113485760405162461bcd60e51b815260206004820152602160248201527f506f7274616c3a206973206e6f7420616c6c6f77656420746f207570677261646044820152606560f81b6064820152608401610d16565b7f4910fdfa16fed3260ed0e7147f7cc6da11a60208b5b9406d12a635614ffd91435460ff16156139ed576139e883613cd7565b505050565b826001600160a01b03166352d1902d6040518163ffffffff1660e01b815260040160206040518083038186803b158015613a2657600080fd5b505afa925050508015613a56575060408051601f3d908101601f19168201909252613a5391810190614618565b60015b613ab95760405162461bcd60e51b815260206004820152602e60248201527f45524331393637557067726164653a206e657720696d706c656d656e7461746960448201526d6f6e206973206e6f74205555505360901b6064820152608401610d16565b6000805160206157038339815191528114613b285760405162461bcd60e51b815260206004820152602960248201527f45524331393637557067726164653a20756e737570706f727465642070726f786044820152681a58589b195555525160ba1b6064820152608401610d16565b506139e8838383613d73565b60655460ff16613b7d5760405162461bcd60e51b815260206004820152601460248201527314185d5cd8589b194e881b9bdd081c185d5cd95960621b6044820152606401610d16565b6065805460ff191690557f5db9ee0a495bf2e6ff9c91a7834c1ba4fdd244a5e8aa4e537bd38aeae4b073aa335b6040516001600160a01b03909116815260200160405180910390a1565b60655460ff1615613bea5760405162461bcd60e51b8152600401610d1690614fde565b6065805460ff191660011790557f62e78cea01bee320cd4e420270b5ea74000d11b0c9f74754ebdbfc544b05a258613baa3390565b6000610708613c3162015180426156a7565b11158015610ced5750613c466107084261561b565b82600201541092915050565b600054610100900460ff16613c795760405162461bcd60e51b8152600401610d169061503f565b61163b613d9e565b600054610100900460ff16613ca85760405162461bcd60e51b8152600401610d169061503f565b61163b613dcb565b600054610100900460ff1661163b5760405162461bcd60e51b8152600401610d169061503f565b6001600160a01b0381163b613d445760405162461bcd60e51b815260206004820152602d60248201527f455243313936373a206e657720696d706c656d656e746174696f6e206973206e60448201526c1bdd08184818dbdb9d1c9858dd609a1b6064820152608401610d16565b60008051602061570383398151915280546001600160a01b0319166001600160a01b0392909216919091179055565b613d7c83613dfe565b600082511180613d895750805b156139e857613d988383613e3e565b50505050565b600054610100900460ff16613dc55760405162461bcd60e51b8152600401610d169061503f565b60018055565b600054610100900460ff16613df25760405162461bcd60e51b8152600401610d169061503f565b6065805460ff19169055565b613e0781613cd7565b6040516001600160a01b038216907fbc7cd75a20ee27fd9adebab32041f755214dbc6bffa90cc0225b39da2e5c2d3b90600090a250565b60606001600160a01b0383163b613ea65760405162461bcd60e51b815260206004820152602660248201527f416464726573733a2064656c65676174652063616c6c20746f206e6f6e2d636f6044820152651b9d1c9858dd60d21b6064820152608401610d16565b600080846001600160a01b031684604051613ec19190614da5565b600060405180830381855af49150503d8060008114613efc576040519150601f19603f3d011682016040523d82523d6000602084013e613f01565b606091505b5091509150613f29828260405180606001604052806027815260200161572360279139613f32565b95945050505050565b60608315613f41575081612747565b825115613f515782518084602001fd5b8160405162461bcd60e51b8152600401610d169190614f33565b60008083601f840112613f7d57600080fd5b5081356001600160401b03811115613f9457600080fd5b6020830191508360208260051b8501011115613faf57600080fd5b9250929050565b600082601f830112613fc757600080fd5b81356020613fdc613fd7836155d1565b6155a1565b80838252828201915082860187848660051b8901011115613ffc57600080fd5b60005b8581101561401b57813584529284019290840190600101613fff565b5090979650505050505050565b60008083601f84011261403a57600080fd5b5081356001600160401b0381111561405157600080fd5b602083019150836020828501011115613faf57600080fd5b600082601f83011261407a57600080fd5b8135614088613fd7826155f4565b81815284602083860101111561409d57600080fd5b816020850160208301376000918101602001919091529392505050565b600082601f8301126140cb57600080fd5b81516140d9613fd7826155f4565b8181528460208386010111156140ee57600080fd5b612d96826020830160208701615640565b805160ff81168114611bbb57600080fd5b60006020828403121561412257600080fd5b8135612747816156df565b60006020828403121561413f57600080fd5b8151612747816156df565b60008060008060008060008060008060006101608c8e03121561416c57600080fd5b8b35614177816156df565b9a5060208c0135614187816156df565b995060408c0135614197816156df565b985060608c01356141a7816156df565b975060808c01356141b7816156df565b965060a08c01356141c7816156df565b955060c08c01356141d7816156df565b8095505060e08c013593506101008c013592506101208c013591506101408c013590509295989b509295989b9093969950565b60008060008060008060008060006101208a8c03121561422957600080fd5b8935614234816156df565b985060208a0135614244816156df565b975060408a0135614254816156df565b989b979a5097986060810135985060808101359760a0820135975060c0820135965060e08201359550610100909101359350915050565b600080600080600060a086880312156142a357600080fd5b85356142ae816156df565b945060208601356142be816156df565b935060408601356001600160401b03808211156142da57600080fd5b6142e689838a01613fb6565b945060608801359150808211156142fc57600080fd5b61430889838a01613fb6565b9350608088013591508082111561431e57600080fd5b5061432b88828901614069565b9150509295509295909350565b600080600080600060a0868803121561435057600080fd5b853561435b816156df565b9450602086013561436b816156df565b9350604086013592506060860135915060808601356001600160401b0381111561439457600080fd5b61432b88828901614069565b600080604083850312156143b357600080fd5b82356143be816156df565b915060208301356001600160401b038111156143d957600080fd5b6143e585828601614069565b9150509250929050565b60008060008060006080868803121561440757600080fd5b8535614412816156df565b94506020860135935060408601356001600160401b0381111561443457600080fd5b61444088828901614028565b96999598509660600135949350505050565b6000602080838503121561446557600080fd5b82516001600160401b0381111561447b57600080fd5b8301601f8101851361448c57600080fd5b805161449a613fd7826155d1565b80828252848201915084840188868560051b87010111156144ba57600080fd5b600094505b838510156144e65780516144d2816156df565b8352600194909401939185019185016144bf565b50979650505050505050565b6000806020838503121561450557600080fd5b82356001600160401b0381111561451b57600080fd5b61452785828601613f6b565b90969095509350505050565b6000806000806000806060878903121561454c57600080fd5b86356001600160401b038082111561456357600080fd5b61456f8a838b01613f6b565b9098509650602089013591508082111561458857600080fd5b6145948a838b01613f6b565b909650945060408901359150808211156145ad57600080fd5b818901915089601f8301126145c157600080fd5b8135818111156145d057600080fd5b8a60208260061b85010111156145e557600080fd5b6020830194508093505050509295509295509295565b60006020828403121561460d57600080fd5b8151612747816156f4565b60006020828403121561462a57600080fd5b5051919050565b60008060008060006060868803121561464957600080fd5b8535945060208601356001600160401b038082111561466757600080fd5b61467389838a01613f6b565b9096509450604088013591508082111561468c57600080fd5b5061469988828901613f6b565b969995985093965092949392505050565b6000602082840312156146bc57600080fd5b81356001600160e01b03198116811461274757600080fd5b600080602083850312156146e757600080fd5b82356001600160401b038111156146fd57600080fd5b61452785828601614028565b60008060006040848603121561471e57600080fd5b83356001600160401b0381111561473457600080fd5b61474086828701614028565b909790965060209590950135949350505050565b60006020828403121561476657600080fd5b81516001600160401b038082111561477d57600080fd5b908301906080828603121561479157600080fd5b6040516080810181811083821117156147ac576147ac6156c9565b60405282516147ba816156df565b8152602083810151908201526040830151828111156147d857600080fd5b6147e4878286016140ba565b6040830152506060830151606082015280935050505092915050565b60006020828403121561481257600080fd5b81516001600160401b038082111561482957600080fd5b90830190610120828603121561483e57600080fd5b614846615578565b61484f836140ff565b81526020830151602082015260408301516040820152606083015160608201526080830151608082015260a083015160a082015260c083015160c082015260e083015160e082015261010080840151838111156148ab57600080fd5b6148b7888287016140ba565b918301919091525095945050505050565b6000602082840312156148da57600080fd5b5035919050565b600080604083850312156148f457600080fd5b823591506020830135614906816156df565b809150509250929050565b60008060006040848603121561492657600080fd5b8335925060208401356001600160401b0381111561494357600080fd5b61494f86828701613f6b565b9497909650939450505050565b60008060008060006080868803121561497457600080fd5b8535945060208601356001600160401b0381111561499157600080fd5b61499d88828901614028565b9095509350506040860135915060608601356149b8816156df565b809150509295509295909350565b600080604083850312156149d957600080fd5b50508035926020909101359150565b600080600080600080600060a0888a031215614a0357600080fd5b87359650602088013595506040880135614a1c816156df565b945060608801356001600160401b0380821115614a3857600080fd5b614a448b838c01614028565b909650945060808a0135915080821115614a5d57600080fd5b50614a6a8a828b01614028565b989b979a50959850939692959293505050565b60008060008060808587031215614a9357600080fd5b84359350602085013592506040850135614aac816156df565b9396929550929360600135925050565b60008060008060608587031215614ad257600080fd5b843593506020850135925060408501356001600160401b03811115614af657600080fd5b614b0287828801613f6b565b95989497509550505050565b60008060008060008060808789031215614b2757600080fd5b863595506020870135945060408701356001600160401b0380821115614b4c57600080fd5b614b588a838b01613f6b565b90965094506060890135915080821115614b7157600080fd5b50614b7e89828a01613f6b565b979a9699509497509295939492505050565b60008060008060008060008060a0898b031215614bac57600080fd5b883597506020890135965060408901356001600160401b0380821115614bd157600080fd5b614bdd8c838d01613f6b565b909850965060608b0135915080821115614bf657600080fd5b614c028c838d01613f6b565b909650945060808b0135915080821115614c1b57600080fd5b50614c288b828c01613f6b565b999c989b5096995094979396929594505050565b600080600060608486031215614c5157600080fd5b505081359360208301359350604090920135919050565b60008060008060808587031215614c7e57600080fd5b5050823594602084013594506040840135936060013592509050565b81835260006001600160fb1b03831115614cb357600080fd5b8260051b8083602087013760009401602001938452509192915050565b818352600060208085019450848460051b86018460005b8781101561401b5783830389528135601e19883603018112614d0857600080fd5b870180356001600160401b03811115614d2057600080fd5b803603891315614d2f57600080fd5b614d3c8582898501614d50565b9a87019a9450505090840190600101614ce7565b81835281816020850137506000828201602090810191909152601f909101601f19169091010190565b60008151808452614d91816020860160208601615640565b601f01601f19169290920160200192915050565b60008251614db7818460208701615640565b9190910192915050565b82848237909101908152602001919050565b6020808252825182820181905260009190848201906040850190845b81811015614e145783516001600160a01b031683529284019291840191600101614def565b50909695505050505050565b6020808252825182820181905260009190848201906040850190845b81811015614e1457835183529284019291840191600101614e3c565b6000610120808352614e6c8184018d614d79565b6001600160a01b039b8c16602085015299909a166040830152506060810196909652608086019490945260a085019290925260c084015260e08301526101009091015292915050565b61018081526000614eca61018083018f614d79565b6001600160a01b039d8e1660208401529b8d166040830152506060810199909952608089019790975260a088019590955260c087019390935260e08601919091526101008501528516610120840152841661014083015290921661016090920191909152919050565b6020815260006127476020830184614d79565b6020808252602c908201527f46756e6374696f6e206d7573742062652063616c6c6564207468726f7567682060408201526b19195b1959d85d1958d85b1b60a21b606082015260800190565b6020808252602c908201527f46756e6374696f6e206d7573742062652063616c6c6564207468726f7567682060408201526b6163746976652070726f787960a01b606082015260800190565b60208082526010908201526f14185d5cd8589b194e881c185d5cd95960821b604082015260600190565b6020808252601d908201527f506f7274616c3a2073656e646572206e6f7420474f5645524e414e4345000000604082015260600190565b6020808252602b908201527f496e697469616c697a61626c653a20636f6e7472616374206973206e6f74206960408201526a6e697469616c697a696e6760a81b606082015260800190565b6020808252601f908201527f5265656e7472616e637947756172643a207265656e7472616e742063616c6c00604082015260600190565b86815285602082015260a0604082015260006150e160a083018688614d50565b6060830194909452506001600160a01b0391909116608090910152949350505050565b838152604060208201526000613f29604083018486614d50565b8881528760208201526000604060a08184015261513f60a08401898b614cd0565b838103606085015261515281888a614cd0565b84810360808601528581528691506020016000805b8781101561518657848484379184018181529284019291600101615167565b50909d9c50505050505050505050505050565b87815260006020888184015287604084015260a060608401526151c060a084018789614c9a565b8381036080850152848152818101600586811b830184018860005b8981101561524b57858303601f190185528135368c9003601e1901811261520157600080fd5b8b0180356001600160401b0381111561521957600080fd5b80861b36038d131561522a57600080fd5b61523785828b8501614c9a565b9689019694505050908601906001016151db565b50909e9d5050505050505050505050505050565b86815285602082015284604082015283606082015260a06080820152600061528b60a083018486614cd0565b98975050505050505050565b6020815260018060a01b0382511660208201526020820151604082015260006040830151608060608401526152cf60a0840182614d79565b9050606084015160808401528091505092915050565b848152836020820152606060408201526000615305606083018486614cd0565b9695505050505050565b848152836020820152606060408201526000615305606083018486614d50565b858152846020820152836040820152608060608201526000615355608083018486614cd0565b979650505050505050565b868152602080820187905260408201869052606082018590526001600160a01b038416608083015260c060a08301819052600091610100840191840185845b60028110156153ce5760bf198786030183526153bc858351614d79565b9450918301919083019060010161539f565b50929b9a5050505050505050505050565b88815287602082015286604082015285606082015260c06080820152600061540b60c083018688614cd0565b82810360a084015261541e818587614cd0565b9b9a5050505050505050505050565b8a8152600060208b818401528a604084015289606084015260e0608084015261545a60e08401898b614cd0565b83810360a085015261546d81888a614c9a565b84810360c0860152858152869150820160005b868110156154a7578235615493816156f4565b151582529183019190830190600101615480565b509e9d5050505050505050505050505050565b86815260018060a01b038616602082015284604082015260a0606082015260006154e860a083018587614d50565b9050826080830152979650505050505050565b6020815261550f60208201835160ff169052565b602082015160408201526040820151606082015260608201516080820152608082015160a082015260a082015160c082015260c082015160e0820152600060e0830151610100818185015280850151915050610120808185015250612d96610140840182614d79565b60405161012081016001600160401b038111828210171561559b5761559b6156c9565b60405290565b604051601f8201601f191681016001600160401b03811182821017156155c9576155c96156c9565b604052919050565b60006001600160401b038211156155ea576155ea6156c9565b5060051b60200190565b60006001600160401b0382111561560d5761560d6156c9565b50601f01601f191660200190565b60008282101561563b57634e487b7160e01b600052601160045260246000fd5b500390565b60005b8381101561565b578181015183820152602001615643565b83811115613d985750506000910152565b600181811c9082168061568057607f821691505b602082108114156156a157634e487b7160e01b600052602260045260246000fd5b50919050565b6000826156c457634e487b7160e01b600052601260045260246000fd5b500690565b634e487b7160e01b600052604160045260246000fd5b6001600160a01b038116811461134857600080fd5b801515811461134857600080fdfe360894a13ba1a3210667c828492db98dca3e2076cc3735a920a3ca505d382bbc416464726573733a206c6f772d6c6576656c2064656c65676174652063616c6c206661696c6564a264697066735822122005b25d600c3c4f4f7e97eabc77d7a5d3f0a11b6e9a92479e819dd401cb531f9664736f6c63430008070033",
  "devdoc": {
    "author": "Icebear & Crash Bandicoot",
    "details": "refer to DataStoreUtils before reviewingrefer to GeodeUtils > Includes the logic for management of Geode Portal with Senate/Governance.refer to StakeUtils > Includes the logic for staking functionality with Withdrawal Pools * * MaintainerUtils is a library used by StakeUtils, handling the maintainer related functionalities * * OracleUtils is a library used by StakeUtils, handling the Oracle related functionalities",
    "kind": "dev",
    "methods": {
      "allIdsByType(uint256)": {
        "returns": {
          "_0": "returns an array of IDs of the given TYPE from Datastore"
        }
      },
      "canDeposit(uint256)": {
        "details": "comets(private pools) are not implemented yet"
      },
      "initiateOperator(uint256,uint256,address,uint256)": {
        "details": "comets(private pools) are not implemented yet"
      },
      "paused()": {
        "details": "Returns true if the contract is paused, and false otherwise."
      },
      "proxiableUUID()": {
        "details": "Implementation of the ERC1822 {proxiableUUID} function. This returns the storage slot used by the implementation. It is used to validate that the this implementation remains valid after an upgrade. IMPORTANT: A proxy pointing at a proxiable contract should not be considered proxiable itself, because this risks bricking a proxy that upgrades to it, by delegating to itself until out of gas. Thus it is critical that this function revert if invoked through a proxy. This is guaranteed by the `notDelegated` modifier."
      },
      "releasePrisoned(uint256)": {
        "details": "onlyGovernance"
      },
      "supportsInterface(bytes4)": {
        "details": "See {IERC165-supportsInterface}."
      },
      "updateStakingParams(address,address,address,uint256,uint256,uint256,uint256,uint256,uint256)": {
        "details": "onlyGovernance"
      },
      "upgradeTo(address)": {
        "details": "Upgrade the implementation of the proxy to `newImplementation`. Calls {_authorizeUpgrade}. Emits an {Upgraded} event."
      },
      "upgradeToAndCall(address,bytes)": {
        "details": "Upgrade the implementation of the proxy to `newImplementation`, and subsequently execute the function call encoded in `data`. Calls {_authorizeUpgrade}. Emits an {Upgraded} event."
      },
      "withdrawPlanet(uint256,uint256,uint256,uint256)": {
        "details": "comets(private pools) are not implemented yet"
      }
    },
    "title": "Geode Finance Ethereum Portal: Trustless Dynamic Liquid Staking Pools *",
    "version": 1
  },
  "userdoc": {
    "events": {
      "Alienated(bytes)": {
        "notice": "OracleUtils EVENTS"
      },
      "GovernanceTaxUpdated(uint256)": {
        "notice": "GeodeUtils EVENTS"
      },
      "IdInitiated(uint256,uint256)": {
        "notice": "MaintainerUtils EVENTS"
      },
      "ValidatorPeriodUpdated(uint256,uint256)": {
        "notice": "StakeUtils EVENTS"
      }
    },
    "kind": "user",
    "methods": {
      "CONTRACT_VERSION()": {
        "notice": "always refers to the proposal (TYPE2) id. Does NOT increase uniformly like the expected versioning style."
      },
      "Do_we_care()": {
        "notice": "We do care."
      },
      "GeodeParams()": {
        "notice": "** Geode Functionalities **"
      },
      "StakingParams()": {
        "notice": "** Staking Operations **"
      },
      "TelescopeParams()": {
        "notice": "** Oracle Operations **"
      },
      "allInterfaces(uint256)": {
        "notice": "** gETH Functionalities **"
      },
      "canDeposit(uint256)": {
        "notice": "Depositing functions (user)"
      },
      "canStake(bytes)": {
        "notice": "Validator creation (Stake) functions (operator)"
      },
      "changeIdCONTROLLER(uint256,address)": {
        "notice": "CONTROLLER Functions"
      },
      "changePoolMaintainer(uint256,bytes,bytes32,address)": {
        "notice": "Maintainer functions"
      },
      "getIdFromName(string,uint256)": {
        "notice": "id is keccak(name, type)"
      },
      "getMaintainerWalletBalance(uint256)": {
        "notice": "Maintainer wallet"
      },
      "initiateOperator(uint256,uint256,address,uint256)": {
        "notice": "ID initiatiors for different types"
      },
      "isOracleActive()": {
        "notice": "Updating PricePerShare"
      },
      "isPrisoned(uint256)": {
        "notice": "Batch validator verification and regulating operators"
      },
      "setGovernanceTax(uint256)": {
        "notice": "GOVERNANCE Functions"
      },
      "setMaxGovernanceTax(uint256)": {
        "notice": "SENATE Functions"
      },
      "signalUnstake(bytes[])": {
        "notice": "Validator exiting (Unstake) functions (operator)"
      },
      "switchWithdrawalBoost(uint256,uint256)": {
        "notice": "Pool - Operator interactions"
      },
      "updateStakingParams(address,address,address,uint256,uint256,uint256,uint256,uint256,uint256)": {
        "notice": "updating the StakePool Params that does NOT require Senate approval"
      },
      "withdrawPlanet(uint256,uint256,uint256,uint256)": {
        "notice": "Withdrawal functions (user)"
      }
    },
    "notice": "Geode Portal provides a first of its kind trustless implementation on LSDs: gETH * * These derivatives are maintained within Portal's functionality. * Global trustlessness is achieved by GeodeUtils, which makes sure that * * every update is approved by a Senate before being effective. * * Senate is elected by the all maintainers. * Local trustlessness is achieved by MiniGovernances, which is used as a withdrawal * * credential contract. However, similar to Portal, upgrade requires the approval of * * local Senate. Isolation Mode (WIP), will allow these contracts to become mini-portals * * and allow the unstaking operations to be done directly, in the future. * StakeUtils contains all the staking related functionalities, including pool management * * and Oracle activities. * * These operations relies on a Dynamic Withdrawal Pool, which is a StableSwap * * pool with a dynamic peg. * * One thing to consider is that currently private pools implementation is WIP, but the overall * * design is done while ensuring it is possible without much changes in the future.TYPE: seperates the proposals and related functionality between different ID types. * CURRENTLY RESERVED TYPES on Portal: * * TYPE 0: *invalid* * * TYPE 1: Senate Election * * TYPE 2: Portal Upgrade * * TYPE 3: *gap* * * TYPE 4: Validator Operator * * TYPE 5: Planet (public pool) * * TYPE 6: Comet (private pool) * * TYPE 11: MiniGovernance Upgrade note ctrl+k+2 and ctrl+k+1 then scroll while reading the function names and opening the comments.",
    "version": 1
  },
  "storageLayout": {
    "storage": [
      {
        "astId": 395,
        "contract": "contracts/Portal/Portal.sol:Portal",
        "label": "_initialized",
        "offset": 0,
        "slot": "0",
        "type": "t_bool"
      },
      {
        "astId": 398,
        "contract": "contracts/Portal/Portal.sol:Portal",
        "label": "_initializing",
        "offset": 1,
        "slot": "0",
        "type": "t_bool"
      },
      {
        "astId": 723,
        "contract": "contracts/Portal/Portal.sol:Portal",
        "label": "_status",
        "offset": 0,
        "slot": "1",
        "type": "t_uint256"
      },
      {
        "astId": 767,
        "contract": "contracts/Portal/Portal.sol:Portal",
        "label": "__gap",
        "offset": 0,
        "slot": "2",
        "type": "t_array(t_uint256)49_storage"
      },
      {
        "astId": 1218,
        "contract": "contracts/Portal/Portal.sol:Portal",
        "label": "__gap",
        "offset": 0,
        "slot": "51",
        "type": "t_array(t_uint256)50_storage"
      },
      {
        "astId": 619,
        "contract": "contracts/Portal/Portal.sol:Portal",
        "label": "_paused",
        "offset": 0,
        "slot": "101",
        "type": "t_bool"
      },
      {
        "astId": 708,
        "contract": "contracts/Portal/Portal.sol:Portal",
        "label": "__gap",
        "offset": 0,
        "slot": "102",
        "type": "t_array(t_uint256)49_storage"
      },
      {
        "astId": 1322,
        "contract": "contracts/Portal/Portal.sol:Portal",
        "label": "__gap",
        "offset": 0,
        "slot": "151",
        "type": "t_array(t_uint256)50_storage"
      },
      {
        "astId": 933,
        "contract": "contracts/Portal/Portal.sol:Portal",
        "label": "__gap",
        "offset": 0,
        "slot": "201",
        "type": "t_array(t_uint256)50_storage"
      },
      {
        "astId": 879,
        "contract": "contracts/Portal/Portal.sol:Portal",
        "label": "__gap",
        "offset": 0,
        "slot": "251",
        "type": "t_array(t_uint256)50_storage"
      },
      {
        "astId": 377,
        "contract": "contracts/Portal/Portal.sol:Portal",
        "label": "__gap",
        "offset": 0,
        "slot": "301",
        "type": "t_array(t_uint256)50_storage"
      },
      {
        "astId": 597,
        "contract": "contracts/Portal/Portal.sol:Portal",
        "label": "__gap",
        "offset": 0,
        "slot": "351",
        "type": "t_array(t_uint256)50_storage"
      },
      {
        "astId": 3144,
        "contract": "contracts/Portal/Portal.sol:Portal",
        "label": "CONTRACT_VERSION",
        "offset": 0,
        "slot": "401",
        "type": "t_uint256"
      },
      {
        "astId": 3147,
        "contract": "contracts/Portal/Portal.sol:Portal",
        "label": "DATASTORE",
        "offset": 0,
        "slot": "402",
        "type": "t_struct(DataStore)5830_storage"
      },
      {
        "astId": 3150,
        "contract": "contracts/Portal/Portal.sol:Portal",
        "label": "GEODE",
        "offset": 0,
        "slot": "418",
        "type": "t_struct(Universe)6447_storage"
      },
      {
        "astId": 3153,
        "contract": "contracts/Portal/Portal.sol:Portal",
        "label": "STAKEPOOL",
        "offset": 0,
        "slot": "434",
        "type": "t_struct(StakePool)9247_storage"
      },
      {
        "astId": 4935,
        "contract": "contracts/Portal/Portal.sol:Portal",
        "label": "__gap",
        "offset": 0,
        "slot": "465",
        "type": "t_array(t_uint256)46_storage"
      }
    ],
    "types": {
      "t_address": {
        "encoding": "inplace",
        "label": "address",
        "numberOfBytes": "20"
      },
      "t_array(t_uint256)12_storage": {
        "base": "t_uint256",
        "encoding": "inplace",
        "label": "uint256[12]",
        "numberOfBytes": "384"
      },
      "t_array(t_uint256)46_storage": {
        "base": "t_uint256",
        "encoding": "inplace",
        "label": "uint256[46]",
        "numberOfBytes": "1472"
      },
      "t_array(t_uint256)49_storage": {
        "base": "t_uint256",
        "encoding": "inplace",
        "label": "uint256[49]",
        "numberOfBytes": "1568"
      },
      "t_array(t_uint256)50_storage": {
        "base": "t_uint256",
        "encoding": "inplace",
        "label": "uint256[50]",
        "numberOfBytes": "1600"
      },
      "t_array(t_uint256)5_storage": {
        "base": "t_uint256",
        "encoding": "inplace",
        "label": "uint256[5]",
        "numberOfBytes": "160"
      },
      "t_array(t_uint256)6_storage": {
        "base": "t_uint256",
        "encoding": "inplace",
        "label": "uint256[6]",
        "numberOfBytes": "192"
      },
      "t_array(t_uint256)7_storage": {
        "base": "t_uint256",
        "encoding": "inplace",
        "label": "uint256[7]",
        "numberOfBytes": "224"
      },
      "t_array(t_uint256)dyn_storage": {
        "base": "t_uint256",
        "encoding": "dynamic_array",
        "label": "uint256[]",
        "numberOfBytes": "32"
      },
      "t_bool": {
        "encoding": "inplace",
        "label": "bool",
        "numberOfBytes": "1"
      },
      "t_bytes32": {
        "encoding": "inplace",
        "label": "bytes32",
        "numberOfBytes": "32"
      },
      "t_bytes_memory_ptr": {
        "encoding": "bytes",
        "label": "bytes",
        "numberOfBytes": "32"
      },
      "t_bytes_storage": {
        "encoding": "bytes",
        "label": "bytes",
        "numberOfBytes": "32"
      },
      "t_contract(IgETH)13342": {
        "encoding": "inplace",
        "label": "contract IgETH",
        "numberOfBytes": "20"
      },
      "t_mapping(t_bytes32,t_address)": {
        "encoding": "mapping",
        "key": "t_bytes32",
        "label": "mapping(bytes32 => address)",
        "numberOfBytes": "32",
        "value": "t_address"
      },
      "t_mapping(t_bytes32,t_bytes_storage)": {
        "encoding": "mapping",
        "key": "t_bytes32",
        "label": "mapping(bytes32 => bytes)",
        "numberOfBytes": "32",
        "value": "t_bytes_storage"
      },
      "t_mapping(t_bytes32,t_uint256)": {
        "encoding": "mapping",
        "key": "t_bytes32",
        "label": "mapping(bytes32 => uint256)",
        "numberOfBytes": "32",
        "value": "t_uint256"
      },
      "t_mapping(t_bytes_memory_ptr,t_struct(Validator)8110_storage)": {
        "encoding": "mapping",
        "key": "t_bytes_memory_ptr",
        "label": "mapping(bytes => struct OracleUtils.Validator)",
        "numberOfBytes": "32",
        "value": "t_struct(Validator)8110_storage"
      },
      "t_mapping(t_uint256,t_array(t_uint256)dyn_storage)": {
        "encoding": "mapping",
        "key": "t_uint256",
        "label": "mapping(uint256 => uint256[])",
        "numberOfBytes": "32",
        "value": "t_array(t_uint256)dyn_storage"
      },
      "t_mapping(t_uint256,t_bool)": {
        "encoding": "mapping",
        "key": "t_uint256",
        "label": "mapping(uint256 => bool)",
        "numberOfBytes": "32",
        "value": "t_bool"
      },
      "t_mapping(t_uint256,t_struct(Proposal)6419_storage)": {
        "encoding": "mapping",
        "key": "t_uint256",
        "label": "mapping(uint256 => struct GeodeUtils.Proposal)",
        "numberOfBytes": "32",
        "value": "t_struct(Proposal)6419_storage"
      },
      "t_struct(DataStore)5830_storage": {
        "encoding": "inplace",
        "label": "struct DataStoreUtils.DataStore",
        "members": [
          {
            "astId": 5813,
            "contract": "contracts/Portal/Portal.sol:Portal",
            "label": "allIdsByType",
            "offset": 0,
            "slot": "0",
            "type": "t_mapping(t_uint256,t_array(t_uint256)dyn_storage)"
          },
          {
            "astId": 5817,
            "contract": "contracts/Portal/Portal.sol:Portal",
            "label": "uintData",
            "offset": 0,
            "slot": "1",
            "type": "t_mapping(t_bytes32,t_uint256)"
          },
          {
            "astId": 5821,
            "contract": "contracts/Portal/Portal.sol:Portal",
            "label": "bytesData",
            "offset": 0,
            "slot": "2",
            "type": "t_mapping(t_bytes32,t_bytes_storage)"
          },
          {
            "astId": 5825,
            "contract": "contracts/Portal/Portal.sol:Portal",
            "label": "addressData",
            "offset": 0,
            "slot": "3",
            "type": "t_mapping(t_bytes32,t_address)"
          },
          {
            "astId": 5829,
            "contract": "contracts/Portal/Portal.sol:Portal",
            "label": "__gap",
            "offset": 0,
            "slot": "4",
            "type": "t_array(t_uint256)12_storage"
          }
        ],
        "numberOfBytes": "512"
      },
      "t_struct(Oracle)8139_storage": {
        "encoding": "inplace",
        "label": "struct OracleUtils.Oracle",
        "members": [
          {
            "astId": 8113,
            "contract": "contracts/Portal/Portal.sol:Portal",
            "label": "gETH",
            "offset": 0,
            "slot": "0",
            "type": "t_contract(IgETH)13342"
          },
          {
            "astId": 8115,
            "contract": "contracts/Portal/Portal.sol:Portal",
            "label": "ORACLE_POSITION",
            "offset": 0,
            "slot": "1",
            "type": "t_address"
          },
          {
            "astId": 8117,
            "contract": "contracts/Portal/Portal.sol:Portal",
            "label": "ORACLE_UPDATE_TIMESTAMP",
            "offset": 0,
            "slot": "2",
            "type": "t_uint256"
          },
          {
            "astId": 8119,
            "contract": "contracts/Portal/Portal.sol:Portal",
            "label": "MONOPOLY_THRESHOLD",
            "offset": 0,
            "slot": "3",
            "type": "t_uint256"
          },
          {
            "astId": 8121,
            "contract": "contracts/Portal/Portal.sol:Portal",
            "label": "VALIDATORS_INDEX",
            "offset": 0,
            "slot": "4",
            "type": "t_uint256"
          },
          {
            "astId": 8123,
            "contract": "contracts/Portal/Portal.sol:Portal",
            "label": "VERIFICATION_INDEX",
            "offset": 0,
            "slot": "5",
            "type": "t_uint256"
          },
          {
            "astId": 8125,
            "contract": "contracts/Portal/Portal.sol:Portal",
            "label": "PERIOD_PRICE_INCREASE_LIMIT",
            "offset": 0,
            "slot": "6",
            "type": "t_uint256"
          },
          {
            "astId": 8127,
            "contract": "contracts/Portal/Portal.sol:Portal",
            "label": "PERIOD_PRICE_DECREASE_LIMIT",
            "offset": 0,
            "slot": "7",
            "type": "t_uint256"
          },
          {
            "astId": 8129,
            "contract": "contracts/Portal/Portal.sol:Portal",
            "label": "PRICE_MERKLE_ROOT",
            "offset": 0,
            "slot": "8",
            "type": "t_bytes32"
          },
          {
            "astId": 8134,
            "contract": "contracts/Portal/Portal.sol:Portal",
            "label": "_validators",
            "offset": 0,
            "slot": "9",
            "type": "t_mapping(t_bytes_memory_ptr,t_struct(Validator)8110_storage)"
          },
          {
            "astId": 8138,
            "contract": "contracts/Portal/Portal.sol:Portal",
            "label": "__gap",
            "offset": 0,
            "slot": "10",
            "type": "t_array(t_uint256)6_storage"
          }
        ],
        "numberOfBytes": "512"
      },
      "t_struct(Proposal)6419_storage": {
        "encoding": "inplace",
        "label": "struct GeodeUtils.Proposal",
        "members": [
          {
            "astId": 6412,
            "contract": "contracts/Portal/Portal.sol:Portal",
            "label": "CONTROLLER",
            "offset": 0,
            "slot": "0",
            "type": "t_address"
          },
          {
            "astId": 6414,
            "contract": "contracts/Portal/Portal.sol:Portal",
            "label": "TYPE",
            "offset": 0,
            "slot": "1",
            "type": "t_uint256"
          },
          {
            "astId": 6416,
            "contract": "contracts/Portal/Portal.sol:Portal",
            "label": "NAME",
            "offset": 0,
            "slot": "2",
            "type": "t_bytes_storage"
          },
          {
            "astId": 6418,
            "contract": "contracts/Portal/Portal.sol:Portal",
            "label": "deadline",
            "offset": 0,
            "slot": "3",
            "type": "t_uint256"
          }
        ],
        "numberOfBytes": "128"
      },
      "t_struct(StakePool)9247_storage": {
        "encoding": "inplace",
        "label": "struct StakeUtils.StakePool",
        "members": [
          {
            "astId": 9221,
            "contract": "contracts/Portal/Portal.sol:Portal",
            "label": "gETH",
            "offset": 0,
            "slot": "0",
            "type": "t_contract(IgETH)13342"
          },
          {
            "astId": 9224,
            "contract": "contracts/Portal/Portal.sol:Portal",
            "label": "TELESCOPE",
            "offset": 0,
            "slot": "1",
            "type": "t_struct(Oracle)8139_storage"
          },
          {
            "astId": 9226,
            "contract": "contracts/Portal/Portal.sol:Portal",
            "label": "GOVERNANCE",
            "offset": 0,
            "slot": "17",
            "type": "t_address"
          },
          {
            "astId": 9228,
            "contract": "contracts/Portal/Portal.sol:Portal",
            "label": "DEFAULT_gETH_INTERFACE",
            "offset": 0,
            "slot": "18",
            "type": "t_address"
          },
          {
            "astId": 9230,
            "contract": "contracts/Portal/Portal.sol:Portal",
            "label": "DEFAULT_DWP",
            "offset": 0,
            "slot": "19",
            "type": "t_address"
          },
          {
            "astId": 9232,
            "contract": "contracts/Portal/Portal.sol:Portal",
            "label": "DEFAULT_LP_TOKEN",
            "offset": 0,
            "slot": "20",
            "type": "t_address"
          },
          {
            "astId": 9234,
            "contract": "contracts/Portal/Portal.sol:Portal",
            "label": "MINI_GOVERNANCE_VERSION",
            "offset": 0,
            "slot": "21",
            "type": "t_uint256"
          },
          {
            "astId": 9236,
            "contract": "contracts/Portal/Portal.sol:Portal",
            "label": "MAX_MAINTAINER_FEE",
            "offset": 0,
            "slot": "22",
            "type": "t_uint256"
          },
          {
            "astId": 9238,
            "contract": "contracts/Portal/Portal.sol:Portal",
            "label": "BOOSTRAP_PERIOD",
            "offset": 0,
            "slot": "23",
            "type": "t_uint256"
          },
          {
            "astId": 9240,
            "contract": "contracts/Portal/Portal.sol:Portal",
            "label": "BOOST_SWITCH_LATENCY",
            "offset": 0,
            "slot": "24",
            "type": "t_uint256"
          },
          {
            "astId": 9242,
            "contract": "contracts/Portal/Portal.sol:Portal",
            "label": "COMET_TAX",
            "offset": 0,
            "slot": "25",
            "type": "t_uint256"
          },
          {
            "astId": 9246,
            "contract": "contracts/Portal/Portal.sol:Portal",
            "label": "__gap",
            "offset": 0,
            "slot": "26",
            "type": "t_array(t_uint256)5_storage"
          }
        ],
        "numberOfBytes": "992"
      },
      "t_struct(Universe)6447_storage": {
        "encoding": "inplace",
        "label": "struct GeodeUtils.Universe",
        "members": [
          {
            "astId": 6421,
            "contract": "contracts/Portal/Portal.sol:Portal",
            "label": "SENATE",
            "offset": 0,
            "slot": "0",
            "type": "t_address"
          },
          {
            "astId": 6423,
            "contract": "contracts/Portal/Portal.sol:Portal",
            "label": "GOVERNANCE",
            "offset": 0,
            "slot": "1",
            "type": "t_address"
          },
          {
            "astId": 6425,
            "contract": "contracts/Portal/Portal.sol:Portal",
            "label": "GOVERNANCE_TAX",
            "offset": 0,
            "slot": "2",
            "type": "t_uint256"
          },
          {
            "astId": 6427,
            "contract": "contracts/Portal/Portal.sol:Portal",
            "label": "MAX_GOVERNANCE_TAX",
            "offset": 0,
            "slot": "3",
            "type": "t_uint256"
          },
          {
            "astId": 6429,
            "contract": "contracts/Portal/Portal.sol:Portal",
            "label": "SENATE_EXPIRY",
            "offset": 0,
            "slot": "4",
            "type": "t_uint256"
          },
          {
            "astId": 6431,
            "contract": "contracts/Portal/Portal.sol:Portal",
            "label": "approvedUpgrade",
            "offset": 0,
            "slot": "5",
            "type": "t_address"
          },
          {
            "astId": 6433,
            "contract": "contracts/Portal/Portal.sol:Portal",
            "label": "_electorCount",
            "offset": 0,
            "slot": "6",
            "type": "t_uint256"
          },
          {
            "astId": 6437,
            "contract": "contracts/Portal/Portal.sol:Portal",
            "label": "_electorTypes",
            "offset": 0,
            "slot": "7",
            "type": "t_mapping(t_uint256,t_bool)"
          },
          {
            "astId": 6442,
            "contract": "contracts/Portal/Portal.sol:Portal",
            "label": "_proposalForId",
            "offset": 0,
            "slot": "8",
            "type": "t_mapping(t_uint256,t_struct(Proposal)6419_storage)"
          },
          {
            "astId": 6446,
            "contract": "contracts/Portal/Portal.sol:Portal",
            "label": "__gap",
            "offset": 0,
            "slot": "9",
            "type": "t_array(t_uint256)7_storage"
          }
        ],
        "numberOfBytes": "512"
      },
      "t_struct(Validator)8110_storage": {
        "encoding": "inplace",
        "label": "struct OracleUtils.Validator",
        "members": [
          {
            "astId": 8093,
            "contract": "contracts/Portal/Portal.sol:Portal",
            "label": "state",
            "offset": 0,
            "slot": "0",
            "type": "t_uint8"
          },
          {
            "astId": 8095,
            "contract": "contracts/Portal/Portal.sol:Portal",
            "label": "index",
            "offset": 0,
            "slot": "1",
            "type": "t_uint256"
          },
          {
            "astId": 8097,
            "contract": "contracts/Portal/Portal.sol:Portal",
            "label": "poolId",
            "offset": 0,
            "slot": "2",
            "type": "t_uint256"
          },
          {
            "astId": 8099,
            "contract": "contracts/Portal/Portal.sol:Portal",
            "label": "operatorId",
            "offset": 0,
            "slot": "3",
            "type": "t_uint256"
          },
          {
            "astId": 8101,
            "contract": "contracts/Portal/Portal.sol:Portal",
            "label": "poolFee",
            "offset": 0,
            "slot": "4",
            "type": "t_uint256"
          },
          {
            "astId": 8103,
            "contract": "contracts/Portal/Portal.sol:Portal",
            "label": "operatorFee",
            "offset": 0,
            "slot": "5",
            "type": "t_uint256"
          },
          {
            "astId": 8105,
            "contract": "contracts/Portal/Portal.sol:Portal",
            "label": "createdAt",
            "offset": 0,
            "slot": "6",
            "type": "t_uint256"
          },
          {
            "astId": 8107,
            "contract": "contracts/Portal/Portal.sol:Portal",
            "label": "expectedExit",
            "offset": 0,
            "slot": "7",
            "type": "t_uint256"
          },
          {
            "astId": 8109,
            "contract": "contracts/Portal/Portal.sol:Portal",
            "label": "signature",
            "offset": 0,
            "slot": "8",
            "type": "t_bytes_storage"
          }
        ],
        "numberOfBytes": "288"
      },
      "t_uint256": {
        "encoding": "inplace",
        "label": "uint256",
        "numberOfBytes": "32"
      },
      "t_uint8": {
        "encoding": "inplace",
        "label": "uint8",
        "numberOfBytes": "1"
      }
    }
  }
}