{
  "address": "0xD701766eAd27C299c33C615188146974Ba43BE71",
  "abi": [
    {
      "anonymous": false,
      "inputs": [
        {
          "indexed": false,
          "internalType": "bytes",
          "name": "pubkey",
          "type": "bytes"
        }
      ],
      "name": "BeaconStaked",
      "type": "event"
    },
    {
      "anonymous": false,
      "inputs": [
        {
          "indexed": false,
          "internalType": "uint256",
          "name": "planetId",
          "type": "uint256"
        },
        {
          "indexed": false,
          "internalType": "uint256",
          "name": "operatorId",
          "type": "uint256"
        },
        {
          "indexed": false,
          "internalType": "uint256",
          "name": "allowance",
          "type": "uint256"
        }
      ],
      "name": "OperatorApproval",
      "type": "event"
    },
    {
      "anonymous": false,
      "inputs": [
        {
          "indexed": false,
          "internalType": "address",
          "name": "DEFAULT_gETH_INTERFACE_",
          "type": "address"
        },
        {
          "indexed": false,
          "internalType": "address",
          "name": "DEFAULT_DWP_",
          "type": "address"
        },
        {
          "indexed": false,
          "internalType": "address",
          "name": "DEFAULT_LP_TOKEN_",
          "type": "address"
        },
        {
          "indexed": false,
          "internalType": "uint256",
          "name": "MAX_MAINTAINER_FEE_",
          "type": "uint256"
        },
        {
          "indexed": false,
          "internalType": "uint256",
          "name": "BOOSTRAP_PERIOD_",
          "type": "uint256"
        },
        {
          "indexed": false,
          "internalType": "uint256",
          "name": "PERIOD_PRICE_INCREASE_LIMIT_",
          "type": "uint256"
        },
        {
          "indexed": false,
          "internalType": "uint256",
          "name": "PERIOD_PRICE_DECREASE_LIMIT_",
          "type": "uint256"
        },
        {
          "indexed": false,
          "internalType": "uint256",
          "name": "COMET_TAX_",
          "type": "uint256"
        }
      ],
      "name": "ParamsUpdated",
      "type": "event"
    },
    {
      "anonymous": false,
      "inputs": [
        {
          "indexed": false,
          "internalType": "uint256",
          "name": "id",
          "type": "uint256"
        }
      ],
      "name": "PoolPaused",
      "type": "event"
    },
    {
      "anonymous": false,
      "inputs": [
        {
          "indexed": false,
          "internalType": "uint256",
          "name": "id",
          "type": "uint256"
        }
      ],
      "name": "PoolUnpaused",
      "type": "event"
    },
    {
      "anonymous": false,
      "inputs": [
        {
          "indexed": false,
          "internalType": "bytes",
          "name": "pubkey",
          "type": "bytes"
        },
        {
          "indexed": false,
          "internalType": "uint256",
          "name": "planetId",
          "type": "uint256"
        },
        {
          "indexed": false,
          "internalType": "uint256",
          "name": "operatorId",
          "type": "uint256"
        }
      ],
      "name": "ProposeStaked",
      "type": "event"
    },
    {
      "anonymous": false,
      "inputs": [
        {
          "indexed": false,
          "internalType": "uint256",
          "name": "poolId",
          "type": "uint256"
        },
        {
          "indexed": false,
          "internalType": "bytes",
          "name": "pubkey",
          "type": "bytes"
        }
      ],
      "name": "UnstakeSignal",
      "type": "event"
    },
    {
      "anonymous": false,
      "inputs": [
        {
          "indexed": false,
          "internalType": "uint256",
          "name": "operatorId",
          "type": "uint256"
        },
        {
          "indexed": false,
          "internalType": "uint256",
          "name": "newPeriod",
          "type": "uint256"
        }
      ],
      "name": "ValidatorPeriodUpdated",
      "type": "event"
    },
    {
      "anonymous": false,
      "inputs": [
        {
          "indexed": false,
          "internalType": "uint256",
          "name": "poolId",
          "type": "uint256"
        },
        {
          "indexed": false,
          "internalType": "uint256",
          "name": "withdrawalBoost",
          "type": "uint256"
        },
        {
          "indexed": false,
          "internalType": "uint256",
          "name": "effectiveAfter",
          "type": "uint256"
        }
      ],
      "name": "WithdrawalBoostChanged",
      "type": "event"
    },
    {
      "inputs": [],
      "name": "IGNORABLE_DEBT",
      "outputs": [
        {
          "internalType": "uint256",
          "name": "",
          "type": "uint256"
        }
      ],
      "stateMutability": "view",
      "type": "function"
    },
    {
      "inputs": [],
      "name": "MAX_VALIDATOR_PERIOD",
      "outputs": [
        {
          "internalType": "uint256",
          "name": "",
          "type": "uint256"
        }
      ],
      "stateMutability": "view",
      "type": "function"
    },
    {
      "inputs": [],
      "name": "MIN_VALIDATOR_PERIOD",
      "outputs": [
        {
          "internalType": "uint256",
          "name": "",
          "type": "uint256"
        }
      ],
      "stateMutability": "view",
      "type": "function"
    },
    {
      "inputs": [],
      "name": "PERCENTAGE_DENOMINATOR",
      "outputs": [
        {
          "internalType": "uint256",
          "name": "",
          "type": "uint256"
        }
      ],
      "stateMutability": "view",
      "type": "function"
    }
  ],
  "transactionHash": "0xeac940d8cd60856b34a4a590c50c24aaa4d30c65ba32332f7a8c94fa46c64cf3",
  "args": [],
  "numDeployments": 1,
  "solcInputHash": "11ddb6c4e4cbaa5092547f659772ac7d",
  "bytecode": "0x6159a86200003b600b82828239805160001a60731461002e57634e487b7160e01b600052600060045260246000fd5b30600052607381538281f3fe73000000000000000000000000000000000000000030146080604052600436106101e45760003560e01c8063955ba8d31161010e578063bbf1555c116100ac578063d30807f81161007b578063d30807f8146104d7578063e0b9dabe146104f7578063f1016dfb14610517578063fd805ee51461053757600080fd5b8063bbf1555c14610471578063caafe84814610484578063ccc68fc314610497578063d1dedac8146104b757600080fd5b8063a4ff4e5e116100e8578063a4ff4e5e1461041b578063b13302881461043b578063b3cd425414610445578063b3ce61f31461045157600080fd5b8063955ba8d3146103bb5780639877d326146103db5780639e8c2283146103fb57600080fd5b8063499370561161018657806376b050541161015557806376b050541461034c57806383faca401461035b5780638c3c85ce1461037b57806394bf980d1461039b57600080fd5b806349937056146102d3578063569391b6146102ec578063633074e71461030c5780636d6079b21461032c57600080fd5b806330d2c2ac116101c257806330d2c2ac146102605780633147a52a146102805780633802c20d146102a05780633a66037d146102c057600080fd5b80630d552313146101e957806316614f5e1461021e578063303cb36f14610240575b600080fd5b8180156101f557600080fd5b50610209610204366004614f49565b610557565b60405190151581526020015b60405180910390f35b81801561022a57600080fd5b5061023e610239366004615214565b610596565b005b81801561024c57600080fd5b5061023e61025b3660046152ff565b610656565b81801561026c57600080fd5b5061023e61027b36600461500c565b610d5c565b81801561028c57600080fd5b5061023e61029b366004615145565b610d86565b8180156102ac57600080fd5b5061023e6102bb366004614f99565b611380565b6102096102ce3660046150bd565b611519565b6102de630966018081565b604051908152602001610215565b8180156102f857600080fd5b5061023e610307366004614f49565b611538565b81801561031857600080fd5b5061023e610327366004615038565b611627565b81801561033857600080fd5b5061020961034736600461500c565b611722565b6102de670de0b6b3a764000081565b81801561036757600080fd5b5061023e61037636600461500c565b6118e1565b81801561038757600080fd5b5061023e610396366004615104565b611a4b565b8180156103a757600080fd5b5061023e6103b63660046150bd565b611c20565b8180156103c757600080fd5b506102de6103d63660046153c2565b611cbc565b8180156103e757600080fd5b5061023e6103f6366004614f6b565b61210f565b81801561040757600080fd5b5061023e610416366004614f49565b6121b8565b81801561042757600080fd5b5061023e61043636600461506a565b6122a5565b6102de624f1a0081565b6102de6402540be40081565b81801561045d57600080fd5b5061023e61046c366004615038565b6124e1565b61020961047f366004614f49565b612683565b6102de61049236600461500c565b612728565b6104aa6104a5366004614f49565b612754565b60405161021591906155c7565b8180156104c357600080fd5b5061023e6104d2366004615038565b612832565b8180156104e357600080fd5b5061023e6104f23660046151a6565b6128f7565b81801561050357600080fd5b506102de6105123660046153fd565b612bc0565b81801561052357600080fd5b5061023e610532366004615269565b612f6a565b81801561054357600080fd5b50610209610552366004615038565b613845565b604080516060810182526001808252602082018190526000928201839052610582918591859161390a565b61058d838334613a90565b90505b92915050565b85601601548311156105c35760405162461bcd60e51b81526004016105ba906156d1565b60405180910390fd5b604051635fae04e760e01b81526004810186905260248101859052604481018490526001600160a01b038316606482015273A87975427D8207A4bdD5Ef74193Fb7d72e251c3990635fae04e79060840160006040518083038186803b15801561062b57600080fd5b505af415801561063f573d6000803e3d6000fd5b5050505061064e8585836118e1565b505050505050565b60028a01546001600160a01b031633146106b25760405162461bcd60e51b815260206004820152601d60248201527f5374616b655574696c733a2073656e646572204e4f54204f5241434c4500000060448201526064016105ba565b6106be8a600101613ab1565b1561070b5760405162461bcd60e51b815260206004820152601c60248201527f5374616b655574696c733a204f5241434c45206973206163746976650000000060448201526064016105ba565b6000610715614d64565b6000805b888110156108df57600088888381811061073557610735615920565b90506020020135905088888381811061075057610750615920565b905060200201358561076291906157ec565b945086868381811061077657610776615920565b905060200201602081019061078b9190614ef6565b156107cc5761079b6001846157ec565b92506801bc16d674ec8000008111156107c8576107c16801bc16d674ec80000082615837565b90506107cc565b5060005b80156108cc576402540be4008f6001016009018c8c858181106107f1576107f1615920565b905060200281019061080391906157a5565b604051610811929190615563565b9081526020016040518091039020600401548261082e9190615818565b6108389190615804565b845185906108479083906157ec565b9052508c8c146108cc576402540be4008f6001016009018c8c8581811061087057610870615920565b905060200281019061088291906157a5565b604051610890929190615563565b908152602001604051809103902060050154826108ad9190615818565b6108b79190615804565b6020850180516108c89083906157ec565b9052505b50806108d7816158af565b915050610719565b5060006108ec8d8d613ae4565b6001600160a01b031663c5dd6fee856040518263ffffffff1660e01b815260040161091991815260200190565b602060405180830381600087803b15801561093357600080fd5b505af1158015610947573d6000803e3d6000fd5b505050506040513d601f19601f8201168201806040525081019061096b9190614f13565b9050806109ba5760405162461bcd60e51b815260206004820152601b60248201527f5374616b655574696c733a204661696c656420746f20636c61696d000000000060448201526064016105ba565b506109e58b6109dc8c6f61637469766556616c696461746f727360801b613b02565b8e919084613b2e565b610a098c8b74746f74616c41637469766556616c696461746f727360581b84613b2e565b60208201518251610a1a91906157ec565b610a249084615837565b9250506000610a338c8c613b67565b6001600160a01b03166314a6bf0f6040518163ffffffff1660e01b815260040160206040518083038186803b158015610a6b57600080fd5b505afa158015610a7f573d6000803e3d6000fd5b505050506040513d601f19601f82011682018060405250810190610aa39190614f30565b9050670de0b6b3a7640000811115610d0e576000610ac18d8d613b85565b9050600081118015610ad357508a8c14155b15610ce1576000610ae48e8e613b67565b60405163a95b089f60e01b81526000600482015260016024820152604481018790526001600160a01b03919091169063a95b089f9060640160206040518083038186803b158015610b3457600080fd5b505afa158015610b48573d6000803e3d6000fd5b505050506040513d601f19601f82011682018060405250810190610b6c9190614f30565b90508e60000160009054906101000a90046001600160a01b03166001600160a01b031663f759cc3b8e6040518263ffffffff1660e01b8152600401610bb391815260200190565b60206040518083038186803b158015610bcb57600080fd5b505afa158015610bdf573d6000803e3d6000fd5b505050506040513d601f19601f82011682018060405250810190610c039190614f30565b8f54604080516396ce079560e01b815290516001600160a01b03909216916396ce079591600480820192602092909190829003018186803b158015610c4757600080fd5b505afa158015610c5b573d6000803e3d6000fd5b505050506040513d601f19601f82011682018060405250810190610c7f9190614f30565b610c899087615818565b610c939190615804565b610c9d9082615837565b90506402540be400610caf8383615818565b610cb99190615804565b91508184600160200201818151610cd091906157ec565b905250610cdd8286615837565b9450505b5082811115610ced5750815b610d008d8d60008e856000600019613be3565b50610d0b8184615837565b92505b8215610d2a57610d2a8c8c66737572706c757360c81b86613d7b565b610d3f8b8360005b60200201518e9190613a90565b50610d4c8a836001610d32565b5050505050505050505050505050565b610d6e8282635459504560e01b613da9565b600b14610d7a57600080fd5b60159092019190915550565b60408051606081018252600180825260208201819052600092820192909252610db391869186919061390a565b610dbf85600101613ab1565b15610e0c5760405162461bcd60e51b815260206004820152601c60248201527f5374616b655574696c733a204f5241434c45206973206163746976650000000060448201526064016105ba565b8015801590610e1c575060408111155b610e635760405162461bcd60e51b81526020600482015260186024820152775374616b655574696c733a204d4158203634206e6f64657360401b60448201526064016105ba565b600685015460005b82811015610f1257610ea28787868685818110610e8a57610e8a615920565b9050602002810190610e9c91906157a5565b86613dd3565b610f005760405162461bcd60e51b815260206004820152602960248201527f5374616b655574696c733a204e4f5420616c6c207075626b65797320617265206044820152687374616b6561626c6560b81b60648201526084016105ba565b80610f0a816158af565b915050610e6b565b50506000610f33846f61637469766556616c696461746f727360801b613b02565b90506000610f56857170726f706f73656456616c696461746f727360701b613b02565b90506000600a880185858381610f6e57610f6e615920565b9050602002810190610f8091906157a5565b604051610f8e929190615563565b9081526040519081900360200190206002015490506000610fc78883731dda5d1a191c985dd85b10dc9959195b9d1a585b60621b613e99565b90506000805b868110156112d857600a8b01888883818110610feb57610feb615920565b9050602002810190610ffd91906157a5565b60405161100b929190615563565b90815260200160405180910390206002015484146110f25761105884661cd958dd5c995960ca1b61103c8585615837565b61104f906801bc16d674ec800000615818565b8d929190613b2e565b61107084876110678585615837565b8d929190613d7b565b61107f848661104f8585615837565b905080600a8b0188888381811061109857611098615920565b90506020028101906110aa91906157a5565b6040516110b8929190615563565b9081526040519081900360200190206002015493506110ef8a85731dda5d1a191c985dd85b10dc9959195b9d1a585b60621b613e99565b92505b6000600a8c0189898481811061110a5761110a615920565b905060200281019061111c91906157a5565b60405161112a929190615563565b908152602001604051809103902060080180546111469061587a565b80601f01602080910402602001604051908101604052809291908181526020018280546111729061587a565b80156111bf5780601f10611194576101008083540402835291602001916111bf565b820191906000526020600020905b8154815290600101906020018083116111a257829003601f168201915b5050505050905061120f8989848181106111db576111db615920565b90506020028101906111ed91906157a5565b868461120a670de0b6b3a76400006801bc16d674ec800000615837565b613f4b565b6002600a8d018a8a8581811061122757611227615920565b905060200281019061123991906157a5565b604051611247929190615563565b908152604051908190036020019020805460ff9290921660ff199092169190911790557fbc28e8595f241c3a0166b245c13eb3884c23fe15e7d51b7a9ab1395284fd992489898481811061129d5761129d615920565b90506020028101906112af91906157a5565b6040516112bd929190615614565b60405180910390a150806112d0816158af565b915050610fcd565b5061130e83661cd958dd5c995960ca1b6112f2848a615837565b611305906801bc16d674ec800000615818565b8c929190613b2e565b611326838661131d848a615837565b8c929190613d7b565b6113358385611305848a615837565b611359898974746f74616c41637469766556616c696461746f727360581b89613d7b565b5061064e93508692506113789150849050670de0b6b3a7640000615818565b869190613a90565b604080516060810182526000808252600160208301819052928201929092526113ad91889188919061390a565b60006113b98787613ae4565b6001600160a01b0316637bf821e9868686866040518563ffffffff1660e01b81526004016113ea9493929190615628565b602060405180830381600087803b15801561140457600080fd5b505af1158015611418573d6000803e3d6000fd5b505050506040513d601f19601f8201168201806040525081019061143c9190614f13565b9050806114975760405162461bcd60e51b8152602060048201526024808201527f5374616b655574696c733a20756e7375636365737366756c20696e74657261636044820152633a34b7b760e11b60648201526084016105ba565b6040516355e66bad60e01b815260048101889052602481018790526001600160a01b038316604482015273A87975427D8207A4bdD5Ef74193Fb7d72e251c39906355e66bad9060640160006040518083038186803b1580156114f857600080fd5b505af415801561150c573d6000803e3d6000fd5b5050505050505050505050565b600061152f858585858960010160050154613dd3565b95945050505050565b604080516060810182526000815260016020820181905291810182905261156391849184919061390a565b61157c82826a1cdd185ad954185d5cd95960aa1b613da9565b156115d45760405162461bcd60e51b815260206004820152602260248201527f5374616b655574696c733a207374616b696e6720616c72656164792070617573604482015261195960f21b60648201526084016105ba565b6115ef82826a1cdd185ad954185d5cd95960aa1b600161400c565b6040518181527ff18e8c210f1a92a818e663f01d9918cfde3c8b4919af0b6666f41ca61c7cec34906020015b60405180910390a15050565b604080516060810182526000815260016020820181905291810182905261165291859185919061390a565b61168a82691c1c9a5bdc909bdbdcdd60b21b61168186836e1dda5d1a191c985dd85b109bdbdcdd608a1b613da9565b8692919061400c565b6116ad826a0c4dedee6e8a6eed2e8c6d60ab1b86601801544261168191906157ec565b6116cb83836e1dda5d1a191c985dd85b109bdbdcdd608a1b8461400c565b7fc4e4809b1d2eee26da1591233b49c17f3755402df1c9c71533883844bdf2403b82828660180154426116fe91906157ec565b6040805193845260208401929092529082015260600160405180910390a150505050565b6040805160608101825260018082526020820181905291810182905260009161174e918691869161390a565b6117588484614034565b156117cb5760405162461bcd60e51b815260206004820152603b60248201527f5374616b655574696c733a20796f752061726520696e20707269736f6e2c206760448201527f657420696e20746f756368207769746820676f7665726e616e6365000000000060648201526084016105ba565b814710156118305760405162461bcd60e51b815260206004820152602c60248201527f5374616b655574696c733a206e6f7420656e6f7567682062616c616e6365206960448201526b6e20506f7274616c20283f2960a01b60648201526084016105ba565b600061183d858585614056565b604051909150600090339085908381818185875af1925050503d8060008114611882576040519150601f19603f3d011682016040523d82523d6000602084013e611887565b606091505b505090508180156118955750805b61152f5760405162461bcd60e51b815260206004820152601e60248201527f5374616b655574696c733a204661696c656420746f2073656e6420455448000060448201526064016105ba565b6040805160608101825260018082526020820181905260009282019290925261190e91859185919061390a565b624f1a0081111561197e5760405162461bcd60e51b815260206004820152603460248201527f5374656b655574696c733a2073686f756c64206265206d6f7265207468616e2060448201527313525397d590531251105513d497d411549253d160621b60648201526084016105ba565b63096601808111156119ef5760405162461bcd60e51b815260206004820152603460248201527f5374656b655574696c733a2073686f756c64206265206c657373207468616e2060448201527313505617d590531251105513d497d411549253d160621b60648201526084016105ba565b611a0d83836e1d985b1a59185d1bdc94195c9a5bd9608a1b8461400c565b60408051838152602081018390527fe0113e91eb2c77db54ab5f4e1d8116cd63fe74f4efd73c65aa7827d2f34403ed910160405180910390a1505050565b6040805160608101825260008152600160208201819052918101829052611a7691859185919061390a565b6000611a9684846f0d2dce8cae4ccc2c6cae698cadccee8d60831b613da9565b855460405163fcd295e360e01b81526001600160a01b0385811660048301526024820187905292935091169063fcd295e39060440160206040518083038186803b158015611ae357600080fd5b505afa158015611af7573d6000803e3d6000fd5b505050506040513d601f19601f82011682018060405250810190611b1b9190614f13565b15611b685760405162461bcd60e51b815260206004820152601d60248201527f5374616b655574696c733a20616c726561647920696e7465726661636500000060448201526064016105ba565b611b8c83611b838369696e746572666163657360b01b613b02565b869190856140e6565b611bac84846f0d2dce8cae4ccc2c6cae698cadccee8d60831b6001613d7b565b84546040516327b03e0160e21b81526001600160a01b038481166004830152602482018690526001604483015290911690639ec0f804906064015b600060405180830381600087803b158015611c0157600080fd5b505af1158015611c15573d6000803e3d6000fd5b505050505050505050565b604051600a850190611c359084908490615563565b90815260200160405180910390206007015442118015611c7f5750604051600a850190611c659084908490615563565b90815260405190819003602001902054600360ff90911614155b15611cb657611cb683856001016009018484604051611c9f929190615563565b90815260200160405180910390206003015461412f565b50505050565b60408051606081018252600080825260016020830152918101829052611ce79086908690849061390a565b66038d7ea4c680003411611d3d5760405162461bcd60e51b815260206004820152601f60248201527f5374616b655574696c733a206174206c6561737420302e30303120657468200060448201526064016105ba565b428211611d8c5760405162461bcd60e51b815260206004820152601c60248201527f5374616b655574696c733a20646561646c696e65206e6f74206d65740000000060448201526064016105ba565b611d968585612683565b611de25760405162461bcd60e51b815260206004820152601a60248201527f5374616b655574696c733a206d696e74696e672070617573656400000000000060448201526064016105ba565b6000611dee8686613b67565b6001600160a01b03166314a6bf0f6040518163ffffffff1660e01b815260040160206040518083038186803b158015611e2657600080fd5b505afa158015611e3a573d6000803e3d6000fd5b505050506040513d601f19601f82011682018060405250810190611e5e9190614f30565b9050348110611e7e57611e7687873388348989613be3565b91505061152f565b600034670de0b6b3a7640000831115611eb057611ea18989338a8760008b613be3565b9150611ead8382615837565b90505b885460405163f759cc3b60e01b8152600481018990526000916001600160a01b03169063f759cc3b9060240160206040518083038186803b158015611ef457600080fd5b505afa158015611f08573d6000803e3d6000fd5b505050506040513d601f19601f82011682018060405250810190611f2c9190614f30565b8a54604080516396ce079560e01b815290516001600160a01b03909216916396ce079591600480820192602092909190829003018186803b158015611f7057600080fd5b505afa158015611f84573d6000803e3d6000fd5b505050506040513d601f19601f82011682018060405250810190611fa89190614f30565b611fb29084615818565b611fbc9190615804565b8a5460405163731133e960e01b8152336004820152602481018b90526044810183905260806064820152600060848201529192506001600160a01b03169063731133e99060a401600060405180830381600087803b15801561201d57600080fd5b505af1158015612031573d6000803e3d6000fd5b5061204e92508b91508a905066737572706c757360c81b85613d7b565b8661205982856157ec565b10156120a75760405162461bcd60e51b815260206004820152601d60248201527f5374616b655574696c733a206c657373207468616e206d696e6745544800000060448201526064016105ba565b6120b38a600101613ab1565b156120f75760006120e76120ca62015180426158ca565b6120d49042615837565b6936b4b73a213ab33332b960b11b613b02565b90506120f58a8a8385613d7b565b505b61210181846157ec565b9a9950505050505050505050565b604080516060810182526001815260006020820181905291810182905261213a91859185919061390a565b6040516355e66bad60e01b815260048101849052602481018390526001600160a01b038216604482015273A87975427D8207A4bdD5Ef74193Fb7d72e251c39906355e66bad9060640160006040518083038186803b15801561219b57600080fd5b505af41580156121af573d6000803e3d6000fd5b50505050505050565b60408051606081018252600081526001602082018190529181018290526121e391849184919061390a565b6121fc82826a1cdd185ad954185d5cd95960aa1b613da9565b60011461225a5760405162461bcd60e51b815260206004820152602660248201527f5374616b655574696c733a207374616b696e6720616c7265616479204e4f54206044820152651c185d5cd95960d21b60648201526084016105ba565b61227582826a1cdd185ad954185d5cd95960aa1b600061400c565b6040518181527f99e9115f189244af0fdf309a161ca24f1a1acb222a66a0840caa7b2d48e4ec019060200161161b565b6000600a8501838383816122bb576122bb615920565b90506020028101906122cd91906157a5565b6040516122db929190615563565b90815260408051918290036020908101832060030154606084018352600180855291840182905260009284019290925290925061231b918691849161390a565b60005b8281101561064e57600a860184848381811061233c5761233c615920565b905060200281019061234e91906157a5565b60405161235c929190615563565b90815260405190819003602001902054600260ff9091161461237d57600080fd5b81600a870185858481811061239457612394615920565b90506020028101906123a691906157a5565b6040516123b4929190615563565b908152602001604051809103902060030154146123d057600080fd5b6003600a87018585848181106123e8576123e8615920565b90506020028101906123fa91906157a5565b604051612408929190615563565b908152604051908190036020019020805460ff9290921660ff199092169190911790557f5e69ec28ebc1f4385eadf0f37268df9a109addb8e0992e1efad2609670cb25dc600a870185858481811061246257612462615920565b905060200281019061247491906157a5565b604051612482929190615563565b9081526020016040518091039020600201548585848181106124a6576124a6615920565b90506020028101906124b891906157a5565b6040516124c79392919061578b565b60405180910390a1806124d9816158af565b91505061231e565b604080516060810182526000815260016020820181905291810182905261250c91859185919061390a565b6000612531836125298469696e746572666163657360b01b613b02565b869190614199565b90506001600160a01b038116158015906125c95750845460405163fcd295e360e01b81526001600160a01b038381166004830152602482018690529091169063fcd295e39060440160206040518083038186803b15801561259157600080fd5b505afa1580156125a5573d6000803e3d6000fd5b505050506040513d601f19601f820116820180604052508101906125c99190614f13565b61261f5760405162461bcd60e51b815260206004820152602160248201527f5374616b655574696c733a20616c7265616479204e4f5420696e7465726661636044820152606560f81b60648201526084016105ba565b6126448361263a8469696e746572666163657360b01b613b02565b86919060006140e6565b84546040516327b03e0160e21b81526001600160a01b038381166004830152602482018690526000604483015290911690639ec0f80490606401611be7565b600061269e83836a1cdd185ad954185d5cd95960aa1b613da9565b15801561058d57506126b08383613ae4565b6001600160a01b0316638650c0726040518163ffffffff1660e01b815260040160206040518083038186803b1580156126e857600080fd5b505afa1580156126fc573d6000803e3d6000fd5b505050506040513d601f19601f820116820180604052508101906127209190614f13565b159392505050565b600061274c836127448468616c6c6f77616e636560b81b613b02565b869190613da9565b949350505050565b6060600061277684846f0d2dce8cae4ccc2c6cae698cadccee8d60831b613da9565b905060008167ffffffffffffffff81111561279357612793615936565b6040519080825280602002602001820160405280156127bc578160200160208202803683370190505b50905060005b82811015612829576127ed856127e58369696e746572666163657360b01b613b02565b889190614199565b8282815181106127ff576127ff615920565b6001600160a01b039092166020928302919091019091015280612821816158af565b9150506127c2565b50949350505050565b6040805160608101825260018082526020820181905291810182905261285c91859185919061390a565b83601601548111156128805760405162461bcd60e51b81526004016105ba906156d1565b60405163d236b06160e01b815260048101849052602481018390526044810182905273A87975427D8207A4bdD5Ef74193Fb7d72e251c399063d236b0619060640160006040518083038186803b1580156128d957600080fd5b505af41580156128ed573d6000803e3d6000fd5b5050505050505050565b856016015483111561291b5760405162461bcd60e51b81526004016105ba906156d1565b6040805160a08101825287546001600160a01b03908116825284811660208084019190915260128a015482168385015260138a0154821660608085019190915260148b015490921660808401528351918201845287825281018690526015890154818401529151631de8080b60e31b81529091906000908190819073A87975427D8207A4bdD5Ef74193Fb7d72e251c399063ef404058906129c6908d9088908a908c90600401615715565b60606040518083038186803b1580156129de57600080fd5b505af41580156129f2573d6000803e3d6000fd5b505050506040513d601f19601f82011682018060405250810190612a169190614ea9565b925092509250612a7689731dda5d1a191c985dd85b10dc9959195b9d1a585b60621b612a6d86604080516001600160a01b0392909216600160f81b1760208084019190915281518084039091018152918101905290565b8d9291906141cd565b612a828b8b8b85611a4b565b8a546040516322af599760e01b8152670de0b6b3a76400006004820152602481018b90526001600160a01b03909116906322af599790604401600060405180830381600087803b158015612ad557600080fd5b505af1158015612ae9573d6000803e3d6000fd5b5050505060118b015460405163f2fde38b60e01b81526001600160a01b0391821660048201529082169063f2fde38b90602401600060405180830381600087803b158015612b3657600080fd5b505af1158015612b4a573d6000803e3d6000fd5b50508c5460405163a22cb46560e01b81526001600160a01b03858116600483015260016024830152909116925063a22cb4659150604401600060405180830381600087803b158015612b9b57600080fd5b505af1158015612baf573d6000803e3d6000fd5b505050505050505050505050505050565b60408051606081018252600080825260016020830152918101829052612beb9087908790849061390a565b428211612c3a5760405162461bcd60e51b815260206004820152601c60248201527f5374616b655574696c733a20646561646c696e65206e6f74206d65740000000060448201526064016105ba565b8654604051627eeac760e11b8152306004820152602481018790526000916001600160a01b03169062fdd58e9060440160206040518083038186803b158015612c8257600080fd5b505afa158015612c96573d6000803e3d6000fd5b505050506040513d601f19601f82011682018060405250810190612cba9190614f30565b8854604051637921219560e11b81529192506001600160a01b03169063f242432a90612cf090339030908b908b9060040161558f565b600060405180830381600087803b158015612d0a57600080fd5b505af1158015612d1e573d6000803e3d6000fd5b50508954604051627eeac760e11b8152306004820152602481018a90528493506001600160a01b03909116915062fdd58e9060440160206040518083038186803b158015612d6b57600080fd5b505afa158015612d7f573d6000803e3d6000fd5b505050506040513d601f19601f82011682018060405250810190612da39190614f30565b612dad9190615837565b60178901549095509050612dce8787681a5b9a5d1a585d195960ba1b613da9565b612dd891906157ec565b421115612df057612deb878787876141ff565b945090505b8315612ec757612e008686613b67565b6001600160a01b03166391695586600160008787861015612e2a57612e258689615837565b612e2d565b60005b6040516001600160e01b031960e087901b16815260ff9485166004820152939092166024840152604483015260648201526084810185905260a401602060405180830381600087803b158015612e8257600080fd5b505af1158015612e96573d6000803e3d6000fd5b505050506040513d601f19601f82011682018060405250810190612eba9190614f30565b612ec490826157ec565b90505b604051600090339083908381818185875af1925050503d8060008114612f09576040519150601f19603f3d011682016040523d82523d6000602084013e612f0e565b606091505b5050905080612f5f5760405162461bcd60e51b815260206004820181905260248201527f5374616b655574696c733a204661696c656420746f2073656e6420457468657260448201526064016105ba565b509695505050505050565b60408051606081018252600180825260208201819052600092820192909252612f9791899188919061390a565b60408051606081018252600080825260016020830181905292820192909252612fc491899189919061390a565b612fce8786614034565b156130415760405162461bcd60e51b815260206004820152603f60248201527f5374616b655574696c733a206f70657261746f7220697320696e20707269736f60448201527f6e2c2067657420696e20746f756368207769746820676f7665726e616e63650060648201526084016105ba565b8281146130ab5760405162461bcd60e51b815260206004820152603260248201527f5374616b655574696c733a207075626b65797320616e64207369676e617475726044820152710cae6409c9ea840e6c2daca40d8cadccee8d60731b60648201526084016105ba565b82158015906130bb575060408311155b6131025760405162461bcd60e51b81526020600482015260186024820152775374616b655574696c733a204d4158203634206e6f64657360401b60448201526064016105ba565b60048801548361312b898874746f74616c41637469766556616c696461746f727360581b613da9565b61313591906157ec565b11156131985760405162461bcd60e51b815260206004820152602c60248201527f5374616b655574696c733a204963654265617220646f6573204e4f54206c696b60448201526b65206d6f6e6f706f6c69657360a01b60648201526084016105ba565b6131a3878787612728565b836131cd886131c5896f61637469766556616c696461746f727360801b613b02565b8b9190613da9565b6131f8896131f08a7170726f706f73656456616c696461746f727360701b613b02565b8c9190613da9565b61320291906157ec565b61320c91906157ec565b111561325a5760405162461bcd60e51b815260206004820181905260248201527f5374616b655574696c733a204e4f5420656e6f75676820616c6c6f77616e636560448201526064016105ba565b61326d836801bc16d674ec800000615818565b613282888866737572706c757360c81b613da9565b10156132d05760405162461bcd60e51b815260206004820152601e60248201527f5374616b655574696c733a204e4f5420656e6f75676820737572706c7573000060448201526064016105ba565b6132ee856132e6670de0b6b3a764000086615818565b899190614056565b5061331a8666737572706c757360c81b613311866801bc16d674ec800000615818565b8a929190613b2e565b6000604051806040016040528061333a898b6144fb90919063ffffffff16565b81526020016133498a896144fb565b9052905060006133718989731dda5d1a191c985dd85b10dc9959195b9d1a585b60621b613e99565b905060006133928a896e1d985b1a59185d1bdc94195c9a5bd9608a1b613da9565b61339c90426157ec565b60058c01549091506000906133b29060016157ec565b905060005b878110156137c357600a8d018989838181106133d5576133d5615920565b90506020028101906133e791906157a5565b6040516133f5929190615563565b9081526040519081900360200190205460ff161561346a5760405162461bcd60e51b815260206004820152602c60248201527f5374616b655574696c733a205075626b657920616c726561647920757365642060448201526b1bdc88185b1a595b985d195960a21b60648201526084016105ba565b603089898381811061347e5761347e615920565b905060200281019061349091906157a5565b9050146134df5760405162461bcd60e51b815260206004820152601f60248201527f5374616b655574696c733a205055424b45595f4c454e475448204552524f520060448201526064016105ba565b60608787838181106134f3576134f3615920565b905060200281019061350591906157a5565b90501461355f5760405162461bcd60e51b815260206004820152602260248201527f5374616b655574696c733a205349474e41545552455f4c454e4754482045525260448201526127a960f11b60648201526084016105ba565b6135ef89898381811061357457613574615920565b905060200281019061358691906157a5565b868a8a8681811061359957613599615920565b90506020028101906135ab91906157a5565b8080601f016020809104026020016040519081016040528093929190818152602001838380828437600092019190915250670de0b6b3a76400009250613f4b915050565b604080516101208101909152600181526020810161360d83856157ec565b815260208082018e9052604082018d90528751606083015287015160808201524260a082015260c0810185905260e00188888481811061364f5761364f615920565b905060200281019061366191906157a5565b8080601f0160208091040260200160405190810160405280939291908181526020018383808284376000920191909152505050915250600a8e018a8a848181106136ad576136ad615920565b90506020028101906136bf91906157a5565b6040516136cd929190615563565b90815260408051602092819003830190208351815460ff191660ff909116178155838301516001820155908301516002820155606083015160038201556080830151600482015560a0830151600582015560c0830151600682015560e083015160078201556101008301518051919261374e92600885019290910190614d82565b509050507f4d20e41c35e82c2be5c6aec202394b90627345c43e9b763e6f2389c417278a2d89898381811061378557613785615920565b905060200281019061379791906157a5565b8d8d6040516137a994939291906156aa565b60405180910390a1806137bb816158af565b9150506133b7565b50505050506137f4866137eb877170726f706f73656456616c696461746f727360701b613b02565b89919086613d7b565b61381f86661cd958dd5c995960ca1b613816866801bc16d674ec800000615818565b8a929190613d7b565b6005880180548491906000906138369084906157ec565b90915550505050505050505050565b60408051606081018252600080825260016020830181905292820183905291613871918791879161390a565b6040805160608101825260018082526020820152600091810182905261389b91879186919061390a565b6138be846138b58568616c6c6f77616e636560b81b613b02565b8791908561400c565b60408051858152602081018590529081018390527f06ef86357fa27838732e0c7206341897ec58306010a37af61bdfeaf5617248d19060600160405180910390a1506001949350505050565b81156139975761392884846936b0b4b73a30b4b732b960b11b614199565b6001600160a01b0316336001600160a01b0316146139975760405162461bcd60e51b815260206004820152602660248201527f4d61696e7461696e65725574696c733a2073656e646572204e4f54206d61696e6044820152653a30b4b732b960d11b60648201526084016105ba565b60006139ab8585635459504560e01b613da9565b90508060041415613a1f578160005b60200201511515600114613a1a5760405162461bcd60e51b815260206004820152602160248201527f4d61696e7461696e65725574696c733a2054595045204e4f5420616c6c6f77656044820152601960fa1b60648201526084016105ba565b613a89565b8060051415613a30578160016139ba565b8060061415613a41578160026139ba565b60405162461bcd60e51b815260206004820152601d60248201527f4d61696e7461696e65725574696c733a20696e76616c6964205459504500000060448201526064016105ba565b5050505050565b6000613aa78484651dd85b1b195d60d21b85613d7b565b5060019392505050565b6000610708613ac362015180426158ca565b111580156105905750613ad861070842615837565b82600201541092915050565b600061058d83836d6d696e69476f7665726e616e636560901b614199565b604080516020808201949094528082019290925280518083038201815260609092019052805191012090565b80846001016000613b3f8686613b02565b81526020019081526020016000206000828254613b5c9190615837565b909155505050505050565b600061058d83836d1dda5d1a191c985dd85b141bdbdb60921b614199565b600042613ba184846a0c4dedee6e8a6eed2e8c6d60ab1b613da9565b1115613bc657613bbf8383691c1c9a5bdc909bdbdcdd60b21b613da9565b9050610590565b61058d83836e1dda5d1a191c985dd85b109bdbdcdd608a1b613da9565b6000613bef8786613b67565b6040516348b4aac360e11b815260006004820152600160248201526044810186905260648101859052608481018490526001600160a01b039190911690639169558690869060a4016020604051808303818588803b158015613c5057600080fd5b505af1158015613c64573d6000803e3d6000fd5b50505050506040513d601f19601f82011682018060405250810190613c899190614f30565b90506001600160a01b038616613d08578754604051637a94c56560e11b815230600482015260248101879052604481018390526001600160a01b039091169063f5298aca90606401600060405180830381600087803b158015613ceb57600080fd5b505af1158015613cff573d6000803e3d6000fd5b50505050613d70565b8754604051637921219560e11b81526001600160a01b039091169063f242432a90613d3d9030908a908a90879060040161558f565b600060405180830381600087803b158015613d5757600080fd5b505af1158015613d6b573d6000803e3d6000fd5b505050505b979650505050505050565b80846001016000613d8c8686613b02565b81526020019081526020016000206000828254613b5c91906157ec565b6000836001016000613dbb8585613b02565b81526020019081526020016000205490509392505050565b6000613de460018701858585614542565b8015613e8f5750613e1d85876001016009018686604051613e06929190615563565b908152602001604051809103902060020154613ae4565b6001600160a01b0316638650c0726040518163ffffffff1660e01b815260040160206040518083038186803b158015613e5557600080fd5b505afa158015613e69573d6000803e3d6000fd5b505050506040513d601f19601f82011682018060405250810190613e8d9190614f13565b155b9695505050505050565b6060836002016000613eab8585613b02565b81526020019081526020016000208054613ec49061587a565b80601f0160208091040260200160405190810160405280929190818152602001828054613ef09061587a565b8015613f3d5780601f10613f1257610100808354040283529160200191613f3d565b820191906000526020600020905b815481529060010190602001808311613f2057829003601f168201915b505050505090509392505050565b6f219ab540356cbb839cbe05303d7705fa6001600160a01b031663228951188287878787613fb38c8c8080601f0160208091040260200160405190810160405280939291908181526020018383808284376000920191909152508e92508d91508c90506145a8565b6040518763ffffffff1660e01b8152600401613fd395949392919061565d565b6000604051808303818588803b158015613fec57600080fd5b505af1158015614000573d6000803e3d6000fd5b50505050505050505050565b8084600101600061401d8686613b02565b815260208101919091526040016000205550505050565b600061404c8383671c995b19585cd95960c21b613da9565b4211159392505050565b60008161406d8585651dd85b1b195d60d21b613da9565b10156140d15760405162461bcd60e51b815260206004820152602d60248201527f4d61696e7461696e65725574696c733a204e4f5420656e6f7567682062616c6160448201526c1b98d9481a5b881dd85b1b195d609a1b60648201526084016105ba565b613aa78484651dd85b1b195d60d21b85613b2e565b808460030160006140f78686613b02565b815260200190815260200160002060006101000a8154816001600160a01b0302191690836001600160a01b0316021790555050505050565b61415581671c995b19585cd95960c21b61414c62278d00426157ec565b8592919061400c565b7f6a740d28273a335dabd953f22fd145fdc11323629c3ff8717eb28f53b227e7fd8161418462278d00426157ec565b6040805192835260208301919091520161161b565b60008360030160006141ab8585613b02565b81526020810191909152604001600020546001600160a01b0316949350505050565b808460020160006141de8686613b02565b81526020019081526020016000209080519060200190613a89929190614d82565b835460405163f759cc3b60e01b815260048101849052600091829182916001600160a01b03169063f759cc3b9060240160206040518083038186803b15801561424757600080fd5b505afa15801561425b573d6000803e3d6000fd5b505050506040513d601f19601f8201168201806040525081019061427f9190614f30565b8754604080516396ce079560e01b8152905192935086926000926001600160a01b0316916396ce0795916004808301926020929190829003018186803b1580156142c857600080fd5b505afa1580156142dc573d6000803e3d6000fd5b505050506040513d601f19601f820116820180604052508101906143009190614f30565b61430a8484615818565b6143149190615804565b9050600061432d898966737572706c757360c81b613da9565b90508082106143cd578954604080516396ce079560e01b81529051929350839286926001600160a01b0316916396ce0795916004808301926020929190829003018186803b15801561437e57600080fd5b505afa158015614392573d6000803e3d6000fd5b505050506040513d601f19601f820116820180604052508101906143b69190614f30565b6143c09084615818565b6143ca9190615804565b92505b6000806143dc8b8b8688614994565b90925090506143f78b8b66737572706c757360c81b87613b2e565b8b546001600160a01b031663f5298aca308c614413858a615837565b6040516001600160e01b031960e086901b1681526001600160a01b03909316600484015260248301919091526044820152606401600060405180830381600087803b15801561446157600080fd5b505af1158015614475573d6000803e3d6000fd5b505050506144858c600101613ab1565b156144c95760006144b961449c62015180426158ca565b6144a69042615837565b69313ab937213ab33332b960b11b613b02565b90506144c78c8c8389613d7b565b505b6144d4826002615818565b6144de9085615837565b6144e8868b615837565b9750975050505050505094509492505050565b6000426145158484680cccacaa6eed2e8c6d60bb1b613da9565b111561453157613bbf8383677072696f7246656560c01b613da9565b61058d83836266656560e81b613da9565b6000846009018484604051614558929190615563565b9081526040519081900360200190205460ff16600114801561152f57508185600901858560405161458a929190615563565b90815260200160405180910390206001015411159050949350505050565b6000670de0b6b3a76400008210156146115760405162461bcd60e51b815260206004820152602660248201527f4465706f736974436f6e74726163743a206465706f7369742076616c756520746044820152656f6f206c6f7760d01b60648201526084016105ba565b61461f633b9aca00836158ca565b156146885760405162461bcd60e51b815260206004820152603360248201527f4465706f736974436f6e74726163743a206465706f7369742076616c7565206e6044820152726f74206d756c7469706c65206f66206777656960681b60648201526084016105ba565b6000614698633b9aca0084615804565b9050600060026146a788614aff565b6040516146b49190615573565b602060405180830381855afa1580156146d1573d6000803e3d6000fd5b5050506040513d601f19601f820116820180604052508101906146f49190614f30565b905060006002806147088860006040614b95565b6040516147159190615573565b602060405180830381855afa158015614732573d6000803e3d6000fd5b5050506040513d601f19601f820116820180604052508101906147559190614f30565b60026147756147708a604061476b816060615837565b614b95565b614aff565b6040516147829190615573565b602060405180830381855afa15801561479f573d6000803e3d6000fd5b5050506040513d601f19601f820116820180604052508101906147c29190614f30565b60408051602081019390935282015260600160408051601f19818403018152908290526147ee91615573565b602060405180830381855afa15801561480b573d6000803e3d6000fd5b5050506040513d601f19601f8201168201806040525081019061482e9190614f30565b90506000600280848a60405160200161484892919061553d565b60408051601f198184030181529082905261486291615573565b602060405180830381855afa15801561487f573d6000803e3d6000fd5b5050506040513d601f19601f820116820180604052508101906148a29190614f30565b60026148ad87614ca1565b604080516020810192909252810186905260600160408051601f19818403018152908290526148db91615573565b602060405180830381855afa1580156148f8573d6000803e3d6000fd5b5050506040513d601f19601f8201168201806040525081019061491b9190614f30565b60408051602081019390935282015260600160408051601f198184030181529082905261494791615573565b602060405180830381855afa158015614964573d6000803e3d6000fd5b5050506040513d601f19601f820116820180604052508101906149879190614f30565b9998505050505050505050565b60008060006149a38787613b67565b6001600160a01b031663d4cadf686040518163ffffffff1660e01b815260040160206040518083038186803b1580156149db57600080fd5b505afa1580156149ef573d6000803e3d6000fd5b505050506040513d601f19601f82011682018060405250810190614a139190614f30565b905060026402540be400614a278388615818565b614a319190615804565b614a3b9190615804565b925060026402540be400614a4f8387615818565b614a599190615804565b614a639190615804565b9150614a6f8787613b67565b60405163b150798960e01b815260048101859052602481018490526001600160a01b03919091169063b150798990859060440160408051808303818588803b158015614aba57600080fd5b505af1158015614ace573d6000803e3d6000fd5b50505050506040513d601f19601f82011682018060405250810190614af39190615440565b50505094509492505050565b60606020825110158015614b1557506040825111155b614b2157614b216158de565b815160401415614b2f575090565b60408051602080825281830190925260009160208201818036833701905050905060006020820152825160201415614b7257614b6b8382614ce7565b9392505050565b614b6b83614b8a8360008751604061476b9190615837565b614ce7565b50919050565b606081614ba381601f6157ec565b1015614be25760405162461bcd60e51b815260206004820152600e60248201526d736c6963655f6f766572666c6f7760901b60448201526064016105ba565b614bec82846157ec565b84511015614c305760405162461bcd60e51b8152602060048201526011602482015270736c6963655f6f75744f66426f756e647360781b60448201526064016105ba565b606082158015614c4f5760405191506000825260208201604052612829565b6040519150601f8416801560200281840101858101878315602002848b0101015b81831015614c88578051835260209283019201614c70565b5050858452601f01601f19166040525050949350505050565b600081815b6008811015614ccf57600892831b60ff831617929190911c90614cc8816158af565b9050614ca6565b508015614cde57614cde6158de565b5060c01b919050565b6060806040519050835180825260208201818101602087015b81831015614d18578051835260209283019201614d00565b50855184518101855292509050808201602086015b81831015614d45578051835260209283019201614d2d565b508651929092011591909101601f01601f191660405250905092915050565b60405180604001604052806002906020820280368337509192915050565b828054614d8e9061587a565b90600052602060002090601f016020900481019282614db05760008555614df6565b82601f10614dc957805160ff1916838001178555614df6565b82800160010185558215614df6579182015b82811115614df6578251825591602001919060010190614ddb565b50614e02929150614e06565b5090565b5b80821115614e025760008155600101614e07565b60008083601f840112614e2d57600080fd5b50813567ffffffffffffffff811115614e4557600080fd5b6020830191508360208260051b8501011115614e6057600080fd5b9250929050565b60008083601f840112614e7957600080fd5b50813567ffffffffffffffff811115614e9157600080fd5b602083019150836020828501011115614e6057600080fd5b600080600060608486031215614ebe57600080fd5b8351614ec98161594c565b6020850151909350614eda8161594c565b6040850151909250614eeb8161594c565b809150509250925092565b600060208284031215614f0857600080fd5b8135614b6b81615964565b600060208284031215614f2557600080fd5b8151614b6b81615964565b600060208284031215614f4257600080fd5b5051919050565b60008060408385031215614f5c57600080fd5b50508035926020909101359150565b600080600060608486031215614f8057600080fd5b83359250602084013591506040840135614eeb8161594c565b60008060008060008060a08789031215614fb257600080fd5b8635955060208701359450604087013567ffffffffffffffff811115614fd757600080fd5b614fe389828a01614e67565b909550935050606087013591506080870135614ffe8161594c565b809150509295509295509295565b60008060006060848603121561502157600080fd5b505081359360208301359350604090920135919050565b6000806000806080858703121561504e57600080fd5b5050823594602084013594506040840135936060013592509050565b6000806000806060858703121561508057600080fd5b8435935060208501359250604085013567ffffffffffffffff8111156150a557600080fd5b6150b187828801614e1b565b95989497509550505050565b600080600080606085870312156150d357600080fd5b8435935060208501359250604085013567ffffffffffffffff8111156150f857600080fd5b6150b187828801614e67565b6000806000806080858703121561511a57600080fd5b843593506020850135925060408501359150606085013561513a8161594c565b939692955090935050565b60008060008060006080868803121561515d57600080fd5b853594506020860135935060408601359250606086013567ffffffffffffffff81111561518957600080fd5b61519588828901614e1b565b969995985093965092949392505050565b60008060008060008060c087890312156151bf57600080fd5b8635955060208701359450604087013593506060870135925060808701356151e68161594c565b915060a087013567ffffffffffffffff81111561520257600080fd5b870160408101891015614ffe57600080fd5b60008060008060008060c0878903121561522d57600080fd5b8635955060208701359450604087013593506060870135925060808701356152548161594c565b8092505060a087013590509295509295509295565b60008060008060008060008060c0898b03121561528557600080fd5b88359750602089013596506040890135955060608901359450608089013567ffffffffffffffff808211156152b957600080fd5b6152c58c838d01614e1b565b909650945060a08b01359150808211156152de57600080fd5b506152eb8b828c01614e1b565b999c989b5096995094979396929594505050565b60008060008060008060008060008060e08b8d03121561531e57600080fd5b8a35995060208b0135985060408b0135975060608b0135965060808b013567ffffffffffffffff8082111561535257600080fd5b61535e8e838f01614e1b565b909850965060a08d013591508082111561537757600080fd5b6153838e838f01614e1b565b909650945060c08d013591508082111561539c57600080fd5b506153a98d828e01614e1b565b915080935050809150509295989b9194979a5092959850565b600080600080600060a086880312156153da57600080fd5b505083359560208501359550604085013594606081013594506080013592509050565b60008060008060008060c0878903121561541657600080fd5b505084359660208601359650604086013595606081013595506080810135945060a0013592509050565b6000806040838503121561545357600080fd5b505080516020909101519092909150565b600082604081018360005b60028110156154dd5783830387528135601e1987360301811261549157600080fd5b86018035602067ffffffffffffffff8211156154ac57600080fd5b8136038913156154bb57600080fd5b6154c886838386016154e8565b9981019995509390930192505060010161546f565b509095945050505050565b81835281816020850137506000828201602090810191909152601f909101601f19169091010190565b6000815180845261552981602086016020860161584e565b601f01601f19169290920160200192915050565b8281526000825161555581602085016020870161584e565b919091016020019392505050565b8183823760009101908152919050565b6000825161558581846020870161584e565b9190910192915050565b6001600160a01b0394851681529290931660208301526040820152606081019190915260a06080820181905260009082015260c00190565b6020808252825182820181905260009190848201906040850190845b818110156156085783516001600160a01b0316835292840192918401916001016155e3565b50909695505050505050565b60208152600061274c6020830184866154e8565b60608152600061563c6060830186886154e8565b6020830194909452506001600160a01b039190911660409091015292915050565b6080815260006156716080830187896154e8565b82810360208401526156838187615511565b905082810360408401526156978186615511565b9150508260608301529695505050505050565b6060815260006156be6060830186886154e8565b6020830194909452506040015292915050565b60208082526024908201527f5374616b655574696c733a204d41585f4d41494e5441494e45525f4645452045604082015263292927a960e11b606082015260800190565b600061014086835260208084018760005b600381101561574357815183529183019190830190600101615726565b505050608084018660005b60058110156157745781516001600160a01b03168352918301919083019060010161574e565b5050505080610120840152613d7081840185615464565b83815260406020820152600061152f6040830184866154e8565b6000808335601e198436030181126157bc57600080fd5b83018035915067ffffffffffffffff8211156157d757600080fd5b602001915036819003821315614e6057600080fd5b600082198211156157ff576157ff6158f4565b500190565b6000826158135761581361590a565b500490565b6000816000190483118215151615615832576158326158f4565b500290565b600082821015615849576158496158f4565b500390565b60005b83811015615869578181015183820152602001615851565b83811115611cb65750506000910152565b600181811c9082168061588e57607f821691505b60208210811415614b8f57634e487b7160e01b600052602260045260246000fd5b60006000198214156158c3576158c36158f4565b5060010190565b6000826158d9576158d961590a565b500690565b634e487b7160e01b600052600160045260246000fd5b634e487b7160e01b600052601160045260246000fd5b634e487b7160e01b600052601260045260246000fd5b634e487b7160e01b600052603260045260246000fd5b634e487b7160e01b600052604160045260246000fd5b6001600160a01b038116811461596157600080fd5b50565b801515811461596157600080fdfea2646970667358221220e8ded4d72c6f71107dd52184e61bfdc4c7b005a81fc3ca4c0f3f7dcf3ca93c8a64736f6c63430008070033",
  "deployedBytecode": "0x73000000000000000000000000000000000000000030146080604052600436106101e45760003560e01c8063955ba8d31161010e578063bbf1555c116100ac578063d30807f81161007b578063d30807f8146104d7578063e0b9dabe146104f7578063f1016dfb14610517578063fd805ee51461053757600080fd5b8063bbf1555c14610471578063caafe84814610484578063ccc68fc314610497578063d1dedac8146104b757600080fd5b8063a4ff4e5e116100e8578063a4ff4e5e1461041b578063b13302881461043b578063b3cd425414610445578063b3ce61f31461045157600080fd5b8063955ba8d3146103bb5780639877d326146103db5780639e8c2283146103fb57600080fd5b8063499370561161018657806376b050541161015557806376b050541461034c57806383faca401461035b5780638c3c85ce1461037b57806394bf980d1461039b57600080fd5b806349937056146102d3578063569391b6146102ec578063633074e71461030c5780636d6079b21461032c57600080fd5b806330d2c2ac116101c257806330d2c2ac146102605780633147a52a146102805780633802c20d146102a05780633a66037d146102c057600080fd5b80630d552313146101e957806316614f5e1461021e578063303cb36f14610240575b600080fd5b8180156101f557600080fd5b50610209610204366004614f49565b610557565b60405190151581526020015b60405180910390f35b81801561022a57600080fd5b5061023e610239366004615214565b610596565b005b81801561024c57600080fd5b5061023e61025b3660046152ff565b610656565b81801561026c57600080fd5b5061023e61027b36600461500c565b610d5c565b81801561028c57600080fd5b5061023e61029b366004615145565b610d86565b8180156102ac57600080fd5b5061023e6102bb366004614f99565b611380565b6102096102ce3660046150bd565b611519565b6102de630966018081565b604051908152602001610215565b8180156102f857600080fd5b5061023e610307366004614f49565b611538565b81801561031857600080fd5b5061023e610327366004615038565b611627565b81801561033857600080fd5b5061020961034736600461500c565b611722565b6102de670de0b6b3a764000081565b81801561036757600080fd5b5061023e61037636600461500c565b6118e1565b81801561038757600080fd5b5061023e610396366004615104565b611a4b565b8180156103a757600080fd5b5061023e6103b63660046150bd565b611c20565b8180156103c757600080fd5b506102de6103d63660046153c2565b611cbc565b8180156103e757600080fd5b5061023e6103f6366004614f6b565b61210f565b81801561040757600080fd5b5061023e610416366004614f49565b6121b8565b81801561042757600080fd5b5061023e61043636600461506a565b6122a5565b6102de624f1a0081565b6102de6402540be40081565b81801561045d57600080fd5b5061023e61046c366004615038565b6124e1565b61020961047f366004614f49565b612683565b6102de61049236600461500c565b612728565b6104aa6104a5366004614f49565b612754565b60405161021591906155c7565b8180156104c357600080fd5b5061023e6104d2366004615038565b612832565b8180156104e357600080fd5b5061023e6104f23660046151a6565b6128f7565b81801561050357600080fd5b506102de6105123660046153fd565b612bc0565b81801561052357600080fd5b5061023e610532366004615269565b612f6a565b81801561054357600080fd5b50610209610552366004615038565b613845565b604080516060810182526001808252602082018190526000928201839052610582918591859161390a565b61058d838334613a90565b90505b92915050565b85601601548311156105c35760405162461bcd60e51b81526004016105ba906156d1565b60405180910390fd5b604051635fae04e760e01b81526004810186905260248101859052604481018490526001600160a01b038316606482015273__$7cc3f5085d749a3b94d028420e2680a54c$__90635fae04e79060840160006040518083038186803b15801561062b57600080fd5b505af415801561063f573d6000803e3d6000fd5b5050505061064e8585836118e1565b505050505050565b60028a01546001600160a01b031633146106b25760405162461bcd60e51b815260206004820152601d60248201527f5374616b655574696c733a2073656e646572204e4f54204f5241434c4500000060448201526064016105ba565b6106be8a600101613ab1565b1561070b5760405162461bcd60e51b815260206004820152601c60248201527f5374616b655574696c733a204f5241434c45206973206163746976650000000060448201526064016105ba565b6000610715614d64565b6000805b888110156108df57600088888381811061073557610735615920565b90506020020135905088888381811061075057610750615920565b905060200201358561076291906157ec565b945086868381811061077657610776615920565b905060200201602081019061078b9190614ef6565b156107cc5761079b6001846157ec565b92506801bc16d674ec8000008111156107c8576107c16801bc16d674ec80000082615837565b90506107cc565b5060005b80156108cc576402540be4008f6001016009018c8c858181106107f1576107f1615920565b905060200281019061080391906157a5565b604051610811929190615563565b9081526020016040518091039020600401548261082e9190615818565b6108389190615804565b845185906108479083906157ec565b9052508c8c146108cc576402540be4008f6001016009018c8c8581811061087057610870615920565b905060200281019061088291906157a5565b604051610890929190615563565b908152602001604051809103902060050154826108ad9190615818565b6108b79190615804565b6020850180516108c89083906157ec565b9052505b50806108d7816158af565b915050610719565b5060006108ec8d8d613ae4565b6001600160a01b031663c5dd6fee856040518263ffffffff1660e01b815260040161091991815260200190565b602060405180830381600087803b15801561093357600080fd5b505af1158015610947573d6000803e3d6000fd5b505050506040513d601f19601f8201168201806040525081019061096b9190614f13565b9050806109ba5760405162461bcd60e51b815260206004820152601b60248201527f5374616b655574696c733a204661696c656420746f20636c61696d000000000060448201526064016105ba565b506109e58b6109dc8c6f61637469766556616c696461746f727360801b613b02565b8e919084613b2e565b610a098c8b74746f74616c41637469766556616c696461746f727360581b84613b2e565b60208201518251610a1a91906157ec565b610a249084615837565b9250506000610a338c8c613b67565b6001600160a01b03166314a6bf0f6040518163ffffffff1660e01b815260040160206040518083038186803b158015610a6b57600080fd5b505afa158015610a7f573d6000803e3d6000fd5b505050506040513d601f19601f82011682018060405250810190610aa39190614f30565b9050670de0b6b3a7640000811115610d0e576000610ac18d8d613b85565b9050600081118015610ad357508a8c14155b15610ce1576000610ae48e8e613b67565b60405163a95b089f60e01b81526000600482015260016024820152604481018790526001600160a01b03919091169063a95b089f9060640160206040518083038186803b158015610b3457600080fd5b505afa158015610b48573d6000803e3d6000fd5b505050506040513d601f19601f82011682018060405250810190610b6c9190614f30565b90508e60000160009054906101000a90046001600160a01b03166001600160a01b031663f759cc3b8e6040518263ffffffff1660e01b8152600401610bb391815260200190565b60206040518083038186803b158015610bcb57600080fd5b505afa158015610bdf573d6000803e3d6000fd5b505050506040513d601f19601f82011682018060405250810190610c039190614f30565b8f54604080516396ce079560e01b815290516001600160a01b03909216916396ce079591600480820192602092909190829003018186803b158015610c4757600080fd5b505afa158015610c5b573d6000803e3d6000fd5b505050506040513d601f19601f82011682018060405250810190610c7f9190614f30565b610c899087615818565b610c939190615804565b610c9d9082615837565b90506402540be400610caf8383615818565b610cb99190615804565b91508184600160200201818151610cd091906157ec565b905250610cdd8286615837565b9450505b5082811115610ced5750815b610d008d8d60008e856000600019613be3565b50610d0b8184615837565b92505b8215610d2a57610d2a8c8c66737572706c757360c81b86613d7b565b610d3f8b8360005b60200201518e9190613a90565b50610d4c8a836001610d32565b5050505050505050505050505050565b610d6e8282635459504560e01b613da9565b600b14610d7a57600080fd5b60159092019190915550565b60408051606081018252600180825260208201819052600092820192909252610db391869186919061390a565b610dbf85600101613ab1565b15610e0c5760405162461bcd60e51b815260206004820152601c60248201527f5374616b655574696c733a204f5241434c45206973206163746976650000000060448201526064016105ba565b8015801590610e1c575060408111155b610e635760405162461bcd60e51b81526020600482015260186024820152775374616b655574696c733a204d4158203634206e6f64657360401b60448201526064016105ba565b600685015460005b82811015610f1257610ea28787868685818110610e8a57610e8a615920565b9050602002810190610e9c91906157a5565b86613dd3565b610f005760405162461bcd60e51b815260206004820152602960248201527f5374616b655574696c733a204e4f5420616c6c207075626b65797320617265206044820152687374616b6561626c6560b81b60648201526084016105ba565b80610f0a816158af565b915050610e6b565b50506000610f33846f61637469766556616c696461746f727360801b613b02565b90506000610f56857170726f706f73656456616c696461746f727360701b613b02565b90506000600a880185858381610f6e57610f6e615920565b9050602002810190610f8091906157a5565b604051610f8e929190615563565b9081526040519081900360200190206002015490506000610fc78883731dda5d1a191c985dd85b10dc9959195b9d1a585b60621b613e99565b90506000805b868110156112d857600a8b01888883818110610feb57610feb615920565b9050602002810190610ffd91906157a5565b60405161100b929190615563565b90815260200160405180910390206002015484146110f25761105884661cd958dd5c995960ca1b61103c8585615837565b61104f906801bc16d674ec800000615818565b8d929190613b2e565b61107084876110678585615837565b8d929190613d7b565b61107f848661104f8585615837565b905080600a8b0188888381811061109857611098615920565b90506020028101906110aa91906157a5565b6040516110b8929190615563565b9081526040519081900360200190206002015493506110ef8a85731dda5d1a191c985dd85b10dc9959195b9d1a585b60621b613e99565b92505b6000600a8c0189898481811061110a5761110a615920565b905060200281019061111c91906157a5565b60405161112a929190615563565b908152602001604051809103902060080180546111469061587a565b80601f01602080910402602001604051908101604052809291908181526020018280546111729061587a565b80156111bf5780601f10611194576101008083540402835291602001916111bf565b820191906000526020600020905b8154815290600101906020018083116111a257829003601f168201915b5050505050905061120f8989848181106111db576111db615920565b90506020028101906111ed91906157a5565b868461120a670de0b6b3a76400006801bc16d674ec800000615837565b613f4b565b6002600a8d018a8a8581811061122757611227615920565b905060200281019061123991906157a5565b604051611247929190615563565b908152604051908190036020019020805460ff9290921660ff199092169190911790557fbc28e8595f241c3a0166b245c13eb3884c23fe15e7d51b7a9ab1395284fd992489898481811061129d5761129d615920565b90506020028101906112af91906157a5565b6040516112bd929190615614565b60405180910390a150806112d0816158af565b915050610fcd565b5061130e83661cd958dd5c995960ca1b6112f2848a615837565b611305906801bc16d674ec800000615818565b8c929190613b2e565b611326838661131d848a615837565b8c929190613d7b565b6113358385611305848a615837565b611359898974746f74616c41637469766556616c696461746f727360581b89613d7b565b5061064e93508692506113789150849050670de0b6b3a7640000615818565b869190613a90565b604080516060810182526000808252600160208301819052928201929092526113ad91889188919061390a565b60006113b98787613ae4565b6001600160a01b0316637bf821e9868686866040518563ffffffff1660e01b81526004016113ea9493929190615628565b602060405180830381600087803b15801561140457600080fd5b505af1158015611418573d6000803e3d6000fd5b505050506040513d601f19601f8201168201806040525081019061143c9190614f13565b9050806114975760405162461bcd60e51b8152602060048201526024808201527f5374616b655574696c733a20756e7375636365737366756c20696e74657261636044820152633a34b7b760e11b60648201526084016105ba565b6040516355e66bad60e01b815260048101889052602481018790526001600160a01b038316604482015273__$7cc3f5085d749a3b94d028420e2680a54c$__906355e66bad9060640160006040518083038186803b1580156114f857600080fd5b505af415801561150c573d6000803e3d6000fd5b5050505050505050505050565b600061152f858585858960010160050154613dd3565b95945050505050565b604080516060810182526000815260016020820181905291810182905261156391849184919061390a565b61157c82826a1cdd185ad954185d5cd95960aa1b613da9565b156115d45760405162461bcd60e51b815260206004820152602260248201527f5374616b655574696c733a207374616b696e6720616c72656164792070617573604482015261195960f21b60648201526084016105ba565b6115ef82826a1cdd185ad954185d5cd95960aa1b600161400c565b6040518181527ff18e8c210f1a92a818e663f01d9918cfde3c8b4919af0b6666f41ca61c7cec34906020015b60405180910390a15050565b604080516060810182526000815260016020820181905291810182905261165291859185919061390a565b61168a82691c1c9a5bdc909bdbdcdd60b21b61168186836e1dda5d1a191c985dd85b109bdbdcdd608a1b613da9565b8692919061400c565b6116ad826a0c4dedee6e8a6eed2e8c6d60ab1b86601801544261168191906157ec565b6116cb83836e1dda5d1a191c985dd85b109bdbdcdd608a1b8461400c565b7fc4e4809b1d2eee26da1591233b49c17f3755402df1c9c71533883844bdf2403b82828660180154426116fe91906157ec565b6040805193845260208401929092529082015260600160405180910390a150505050565b6040805160608101825260018082526020820181905291810182905260009161174e918691869161390a565b6117588484614034565b156117cb5760405162461bcd60e51b815260206004820152603b60248201527f5374616b655574696c733a20796f752061726520696e20707269736f6e2c206760448201527f657420696e20746f756368207769746820676f7665726e616e6365000000000060648201526084016105ba565b814710156118305760405162461bcd60e51b815260206004820152602c60248201527f5374616b655574696c733a206e6f7420656e6f7567682062616c616e6365206960448201526b6e20506f7274616c20283f2960a01b60648201526084016105ba565b600061183d858585614056565b604051909150600090339085908381818185875af1925050503d8060008114611882576040519150601f19603f3d011682016040523d82523d6000602084013e611887565b606091505b505090508180156118955750805b61152f5760405162461bcd60e51b815260206004820152601e60248201527f5374616b655574696c733a204661696c656420746f2073656e6420455448000060448201526064016105ba565b6040805160608101825260018082526020820181905260009282019290925261190e91859185919061390a565b624f1a0081111561197e5760405162461bcd60e51b815260206004820152603460248201527f5374656b655574696c733a2073686f756c64206265206d6f7265207468616e2060448201527313525397d590531251105513d497d411549253d160621b60648201526084016105ba565b63096601808111156119ef5760405162461bcd60e51b815260206004820152603460248201527f5374656b655574696c733a2073686f756c64206265206c657373207468616e2060448201527313505617d590531251105513d497d411549253d160621b60648201526084016105ba565b611a0d83836e1d985b1a59185d1bdc94195c9a5bd9608a1b8461400c565b60408051838152602081018390527fe0113e91eb2c77db54ab5f4e1d8116cd63fe74f4efd73c65aa7827d2f34403ed910160405180910390a1505050565b6040805160608101825260008152600160208201819052918101829052611a7691859185919061390a565b6000611a9684846f0d2dce8cae4ccc2c6cae698cadccee8d60831b613da9565b855460405163fcd295e360e01b81526001600160a01b0385811660048301526024820187905292935091169063fcd295e39060440160206040518083038186803b158015611ae357600080fd5b505afa158015611af7573d6000803e3d6000fd5b505050506040513d601f19601f82011682018060405250810190611b1b9190614f13565b15611b685760405162461bcd60e51b815260206004820152601d60248201527f5374616b655574696c733a20616c726561647920696e7465726661636500000060448201526064016105ba565b611b8c83611b838369696e746572666163657360b01b613b02565b869190856140e6565b611bac84846f0d2dce8cae4ccc2c6cae698cadccee8d60831b6001613d7b565b84546040516327b03e0160e21b81526001600160a01b038481166004830152602482018690526001604483015290911690639ec0f804906064015b600060405180830381600087803b158015611c0157600080fd5b505af1158015611c15573d6000803e3d6000fd5b505050505050505050565b604051600a850190611c359084908490615563565b90815260200160405180910390206007015442118015611c7f5750604051600a850190611c659084908490615563565b90815260405190819003602001902054600360ff90911614155b15611cb657611cb683856001016009018484604051611c9f929190615563565b90815260200160405180910390206003015461412f565b50505050565b60408051606081018252600080825260016020830152918101829052611ce79086908690849061390a565b66038d7ea4c680003411611d3d5760405162461bcd60e51b815260206004820152601f60248201527f5374616b655574696c733a206174206c6561737420302e30303120657468200060448201526064016105ba565b428211611d8c5760405162461bcd60e51b815260206004820152601c60248201527f5374616b655574696c733a20646561646c696e65206e6f74206d65740000000060448201526064016105ba565b611d968585612683565b611de25760405162461bcd60e51b815260206004820152601a60248201527f5374616b655574696c733a206d696e74696e672070617573656400000000000060448201526064016105ba565b6000611dee8686613b67565b6001600160a01b03166314a6bf0f6040518163ffffffff1660e01b815260040160206040518083038186803b158015611e2657600080fd5b505afa158015611e3a573d6000803e3d6000fd5b505050506040513d601f19601f82011682018060405250810190611e5e9190614f30565b9050348110611e7e57611e7687873388348989613be3565b91505061152f565b600034670de0b6b3a7640000831115611eb057611ea18989338a8760008b613be3565b9150611ead8382615837565b90505b885460405163f759cc3b60e01b8152600481018990526000916001600160a01b03169063f759cc3b9060240160206040518083038186803b158015611ef457600080fd5b505afa158015611f08573d6000803e3d6000fd5b505050506040513d601f19601f82011682018060405250810190611f2c9190614f30565b8a54604080516396ce079560e01b815290516001600160a01b03909216916396ce079591600480820192602092909190829003018186803b158015611f7057600080fd5b505afa158015611f84573d6000803e3d6000fd5b505050506040513d601f19601f82011682018060405250810190611fa89190614f30565b611fb29084615818565b611fbc9190615804565b8a5460405163731133e960e01b8152336004820152602481018b90526044810183905260806064820152600060848201529192506001600160a01b03169063731133e99060a401600060405180830381600087803b15801561201d57600080fd5b505af1158015612031573d6000803e3d6000fd5b5061204e92508b91508a905066737572706c757360c81b85613d7b565b8661205982856157ec565b10156120a75760405162461bcd60e51b815260206004820152601d60248201527f5374616b655574696c733a206c657373207468616e206d696e6745544800000060448201526064016105ba565b6120b38a600101613ab1565b156120f75760006120e76120ca62015180426158ca565b6120d49042615837565b6936b4b73a213ab33332b960b11b613b02565b90506120f58a8a8385613d7b565b505b61210181846157ec565b9a9950505050505050505050565b604080516060810182526001815260006020820181905291810182905261213a91859185919061390a565b6040516355e66bad60e01b815260048101849052602481018390526001600160a01b038216604482015273__$7cc3f5085d749a3b94d028420e2680a54c$__906355e66bad9060640160006040518083038186803b15801561219b57600080fd5b505af41580156121af573d6000803e3d6000fd5b50505050505050565b60408051606081018252600081526001602082018190529181018290526121e391849184919061390a565b6121fc82826a1cdd185ad954185d5cd95960aa1b613da9565b60011461225a5760405162461bcd60e51b815260206004820152602660248201527f5374616b655574696c733a207374616b696e6720616c7265616479204e4f54206044820152651c185d5cd95960d21b60648201526084016105ba565b61227582826a1cdd185ad954185d5cd95960aa1b600061400c565b6040518181527f99e9115f189244af0fdf309a161ca24f1a1acb222a66a0840caa7b2d48e4ec019060200161161b565b6000600a8501838383816122bb576122bb615920565b90506020028101906122cd91906157a5565b6040516122db929190615563565b90815260408051918290036020908101832060030154606084018352600180855291840182905260009284019290925290925061231b918691849161390a565b60005b8281101561064e57600a860184848381811061233c5761233c615920565b905060200281019061234e91906157a5565b60405161235c929190615563565b90815260405190819003602001902054600260ff9091161461237d57600080fd5b81600a870185858481811061239457612394615920565b90506020028101906123a691906157a5565b6040516123b4929190615563565b908152602001604051809103902060030154146123d057600080fd5b6003600a87018585848181106123e8576123e8615920565b90506020028101906123fa91906157a5565b604051612408929190615563565b908152604051908190036020019020805460ff9290921660ff199092169190911790557f5e69ec28ebc1f4385eadf0f37268df9a109addb8e0992e1efad2609670cb25dc600a870185858481811061246257612462615920565b905060200281019061247491906157a5565b604051612482929190615563565b9081526020016040518091039020600201548585848181106124a6576124a6615920565b90506020028101906124b891906157a5565b6040516124c79392919061578b565b60405180910390a1806124d9816158af565b91505061231e565b604080516060810182526000815260016020820181905291810182905261250c91859185919061390a565b6000612531836125298469696e746572666163657360b01b613b02565b869190614199565b90506001600160a01b038116158015906125c95750845460405163fcd295e360e01b81526001600160a01b038381166004830152602482018690529091169063fcd295e39060440160206040518083038186803b15801561259157600080fd5b505afa1580156125a5573d6000803e3d6000fd5b505050506040513d601f19601f820116820180604052508101906125c99190614f13565b61261f5760405162461bcd60e51b815260206004820152602160248201527f5374616b655574696c733a20616c7265616479204e4f5420696e7465726661636044820152606560f81b60648201526084016105ba565b6126448361263a8469696e746572666163657360b01b613b02565b86919060006140e6565b84546040516327b03e0160e21b81526001600160a01b038381166004830152602482018690526000604483015290911690639ec0f80490606401611be7565b600061269e83836a1cdd185ad954185d5cd95960aa1b613da9565b15801561058d57506126b08383613ae4565b6001600160a01b0316638650c0726040518163ffffffff1660e01b815260040160206040518083038186803b1580156126e857600080fd5b505afa1580156126fc573d6000803e3d6000fd5b505050506040513d601f19601f820116820180604052508101906127209190614f13565b159392505050565b600061274c836127448468616c6c6f77616e636560b81b613b02565b869190613da9565b949350505050565b6060600061277684846f0d2dce8cae4ccc2c6cae698cadccee8d60831b613da9565b905060008167ffffffffffffffff81111561279357612793615936565b6040519080825280602002602001820160405280156127bc578160200160208202803683370190505b50905060005b82811015612829576127ed856127e58369696e746572666163657360b01b613b02565b889190614199565b8282815181106127ff576127ff615920565b6001600160a01b039092166020928302919091019091015280612821816158af565b9150506127c2565b50949350505050565b6040805160608101825260018082526020820181905291810182905261285c91859185919061390a565b83601601548111156128805760405162461bcd60e51b81526004016105ba906156d1565b60405163d236b06160e01b815260048101849052602481018390526044810182905273__$7cc3f5085d749a3b94d028420e2680a54c$__9063d236b0619060640160006040518083038186803b1580156128d957600080fd5b505af41580156128ed573d6000803e3d6000fd5b5050505050505050565b856016015483111561291b5760405162461bcd60e51b81526004016105ba906156d1565b6040805160a08101825287546001600160a01b03908116825284811660208084019190915260128a015482168385015260138a0154821660608085019190915260148b015490921660808401528351918201845287825281018690526015890154818401529151631de8080b60e31b81529091906000908190819073__$7cc3f5085d749a3b94d028420e2680a54c$__9063ef404058906129c6908d9088908a908c90600401615715565b60606040518083038186803b1580156129de57600080fd5b505af41580156129f2573d6000803e3d6000fd5b505050506040513d601f19601f82011682018060405250810190612a169190614ea9565b925092509250612a7689731dda5d1a191c985dd85b10dc9959195b9d1a585b60621b612a6d86604080516001600160a01b0392909216600160f81b1760208084019190915281518084039091018152918101905290565b8d9291906141cd565b612a828b8b8b85611a4b565b8a546040516322af599760e01b8152670de0b6b3a76400006004820152602481018b90526001600160a01b03909116906322af599790604401600060405180830381600087803b158015612ad557600080fd5b505af1158015612ae9573d6000803e3d6000fd5b5050505060118b015460405163f2fde38b60e01b81526001600160a01b0391821660048201529082169063f2fde38b90602401600060405180830381600087803b158015612b3657600080fd5b505af1158015612b4a573d6000803e3d6000fd5b50508c5460405163a22cb46560e01b81526001600160a01b03858116600483015260016024830152909116925063a22cb4659150604401600060405180830381600087803b158015612b9b57600080fd5b505af1158015612baf573d6000803e3d6000fd5b505050505050505050505050505050565b60408051606081018252600080825260016020830152918101829052612beb9087908790849061390a565b428211612c3a5760405162461bcd60e51b815260206004820152601c60248201527f5374616b655574696c733a20646561646c696e65206e6f74206d65740000000060448201526064016105ba565b8654604051627eeac760e11b8152306004820152602481018790526000916001600160a01b03169062fdd58e9060440160206040518083038186803b158015612c8257600080fd5b505afa158015612c96573d6000803e3d6000fd5b505050506040513d601f19601f82011682018060405250810190612cba9190614f30565b8854604051637921219560e11b81529192506001600160a01b03169063f242432a90612cf090339030908b908b9060040161558f565b600060405180830381600087803b158015612d0a57600080fd5b505af1158015612d1e573d6000803e3d6000fd5b50508954604051627eeac760e11b8152306004820152602481018a90528493506001600160a01b03909116915062fdd58e9060440160206040518083038186803b158015612d6b57600080fd5b505afa158015612d7f573d6000803e3d6000fd5b505050506040513d601f19601f82011682018060405250810190612da39190614f30565b612dad9190615837565b60178901549095509050612dce8787681a5b9a5d1a585d195960ba1b613da9565b612dd891906157ec565b421115612df057612deb878787876141ff565b945090505b8315612ec757612e008686613b67565b6001600160a01b03166391695586600160008787861015612e2a57612e258689615837565b612e2d565b60005b6040516001600160e01b031960e087901b16815260ff9485166004820152939092166024840152604483015260648201526084810185905260a401602060405180830381600087803b158015612e8257600080fd5b505af1158015612e96573d6000803e3d6000fd5b505050506040513d601f19601f82011682018060405250810190612eba9190614f30565b612ec490826157ec565b90505b604051600090339083908381818185875af1925050503d8060008114612f09576040519150601f19603f3d011682016040523d82523d6000602084013e612f0e565b606091505b5050905080612f5f5760405162461bcd60e51b815260206004820181905260248201527f5374616b655574696c733a204661696c656420746f2073656e6420457468657260448201526064016105ba565b509695505050505050565b60408051606081018252600180825260208201819052600092820192909252612f9791899188919061390a565b60408051606081018252600080825260016020830181905292820192909252612fc491899189919061390a565b612fce8786614034565b156130415760405162461bcd60e51b815260206004820152603f60248201527f5374616b655574696c733a206f70657261746f7220697320696e20707269736f60448201527f6e2c2067657420696e20746f756368207769746820676f7665726e616e63650060648201526084016105ba565b8281146130ab5760405162461bcd60e51b815260206004820152603260248201527f5374616b655574696c733a207075626b65797320616e64207369676e617475726044820152710cae6409c9ea840e6c2daca40d8cadccee8d60731b60648201526084016105ba565b82158015906130bb575060408311155b6131025760405162461bcd60e51b81526020600482015260186024820152775374616b655574696c733a204d4158203634206e6f64657360401b60448201526064016105ba565b60048801548361312b898874746f74616c41637469766556616c696461746f727360581b613da9565b61313591906157ec565b11156131985760405162461bcd60e51b815260206004820152602c60248201527f5374616b655574696c733a204963654265617220646f6573204e4f54206c696b60448201526b65206d6f6e6f706f6c69657360a01b60648201526084016105ba565b6131a3878787612728565b836131cd886131c5896f61637469766556616c696461746f727360801b613b02565b8b9190613da9565b6131f8896131f08a7170726f706f73656456616c696461746f727360701b613b02565b8c9190613da9565b61320291906157ec565b61320c91906157ec565b111561325a5760405162461bcd60e51b815260206004820181905260248201527f5374616b655574696c733a204e4f5420656e6f75676820616c6c6f77616e636560448201526064016105ba565b61326d836801bc16d674ec800000615818565b613282888866737572706c757360c81b613da9565b10156132d05760405162461bcd60e51b815260206004820152601e60248201527f5374616b655574696c733a204e4f5420656e6f75676820737572706c7573000060448201526064016105ba565b6132ee856132e6670de0b6b3a764000086615818565b899190614056565b5061331a8666737572706c757360c81b613311866801bc16d674ec800000615818565b8a929190613b2e565b6000604051806040016040528061333a898b6144fb90919063ffffffff16565b81526020016133498a896144fb565b9052905060006133718989731dda5d1a191c985dd85b10dc9959195b9d1a585b60621b613e99565b905060006133928a896e1d985b1a59185d1bdc94195c9a5bd9608a1b613da9565b61339c90426157ec565b60058c01549091506000906133b29060016157ec565b905060005b878110156137c357600a8d018989838181106133d5576133d5615920565b90506020028101906133e791906157a5565b6040516133f5929190615563565b9081526040519081900360200190205460ff161561346a5760405162461bcd60e51b815260206004820152602c60248201527f5374616b655574696c733a205075626b657920616c726561647920757365642060448201526b1bdc88185b1a595b985d195960a21b60648201526084016105ba565b603089898381811061347e5761347e615920565b905060200281019061349091906157a5565b9050146134df5760405162461bcd60e51b815260206004820152601f60248201527f5374616b655574696c733a205055424b45595f4c454e475448204552524f520060448201526064016105ba565b60608787838181106134f3576134f3615920565b905060200281019061350591906157a5565b90501461355f5760405162461bcd60e51b815260206004820152602260248201527f5374616b655574696c733a205349474e41545552455f4c454e4754482045525260448201526127a960f11b60648201526084016105ba565b6135ef89898381811061357457613574615920565b905060200281019061358691906157a5565b868a8a8681811061359957613599615920565b90506020028101906135ab91906157a5565b8080601f016020809104026020016040519081016040528093929190818152602001838380828437600092019190915250670de0b6b3a76400009250613f4b915050565b604080516101208101909152600181526020810161360d83856157ec565b815260208082018e9052604082018d90528751606083015287015160808201524260a082015260c0810185905260e00188888481811061364f5761364f615920565b905060200281019061366191906157a5565b8080601f0160208091040260200160405190810160405280939291908181526020018383808284376000920191909152505050915250600a8e018a8a848181106136ad576136ad615920565b90506020028101906136bf91906157a5565b6040516136cd929190615563565b90815260408051602092819003830190208351815460ff191660ff909116178155838301516001820155908301516002820155606083015160038201556080830151600482015560a0830151600582015560c0830151600682015560e083015160078201556101008301518051919261374e92600885019290910190614d82565b509050507f4d20e41c35e82c2be5c6aec202394b90627345c43e9b763e6f2389c417278a2d89898381811061378557613785615920565b905060200281019061379791906157a5565b8d8d6040516137a994939291906156aa565b60405180910390a1806137bb816158af565b9150506133b7565b50505050506137f4866137eb877170726f706f73656456616c696461746f727360701b613b02565b89919086613d7b565b61381f86661cd958dd5c995960ca1b613816866801bc16d674ec800000615818565b8a929190613d7b565b6005880180548491906000906138369084906157ec565b90915550505050505050505050565b60408051606081018252600080825260016020830181905292820183905291613871918791879161390a565b6040805160608101825260018082526020820152600091810182905261389b91879186919061390a565b6138be846138b58568616c6c6f77616e636560b81b613b02565b8791908561400c565b60408051858152602081018590529081018390527f06ef86357fa27838732e0c7206341897ec58306010a37af61bdfeaf5617248d19060600160405180910390a1506001949350505050565b81156139975761392884846936b0b4b73a30b4b732b960b11b614199565b6001600160a01b0316336001600160a01b0316146139975760405162461bcd60e51b815260206004820152602660248201527f4d61696e7461696e65725574696c733a2073656e646572204e4f54206d61696e6044820152653a30b4b732b960d11b60648201526084016105ba565b60006139ab8585635459504560e01b613da9565b90508060041415613a1f578160005b60200201511515600114613a1a5760405162461bcd60e51b815260206004820152602160248201527f4d61696e7461696e65725574696c733a2054595045204e4f5420616c6c6f77656044820152601960fa1b60648201526084016105ba565b613a89565b8060051415613a30578160016139ba565b8060061415613a41578160026139ba565b60405162461bcd60e51b815260206004820152601d60248201527f4d61696e7461696e65725574696c733a20696e76616c6964205459504500000060448201526064016105ba565b5050505050565b6000613aa78484651dd85b1b195d60d21b85613d7b565b5060019392505050565b6000610708613ac362015180426158ca565b111580156105905750613ad861070842615837565b82600201541092915050565b600061058d83836d6d696e69476f7665726e616e636560901b614199565b604080516020808201949094528082019290925280518083038201815260609092019052805191012090565b80846001016000613b3f8686613b02565b81526020019081526020016000206000828254613b5c9190615837565b909155505050505050565b600061058d83836d1dda5d1a191c985dd85b141bdbdb60921b614199565b600042613ba184846a0c4dedee6e8a6eed2e8c6d60ab1b613da9565b1115613bc657613bbf8383691c1c9a5bdc909bdbdcdd60b21b613da9565b9050610590565b61058d83836e1dda5d1a191c985dd85b109bdbdcdd608a1b613da9565b6000613bef8786613b67565b6040516348b4aac360e11b815260006004820152600160248201526044810186905260648101859052608481018490526001600160a01b039190911690639169558690869060a4016020604051808303818588803b158015613c5057600080fd5b505af1158015613c64573d6000803e3d6000fd5b50505050506040513d601f19601f82011682018060405250810190613c899190614f30565b90506001600160a01b038616613d08578754604051637a94c56560e11b815230600482015260248101879052604481018390526001600160a01b039091169063f5298aca90606401600060405180830381600087803b158015613ceb57600080fd5b505af1158015613cff573d6000803e3d6000fd5b50505050613d70565b8754604051637921219560e11b81526001600160a01b039091169063f242432a90613d3d9030908a908a90879060040161558f565b600060405180830381600087803b158015613d5757600080fd5b505af1158015613d6b573d6000803e3d6000fd5b505050505b979650505050505050565b80846001016000613d8c8686613b02565b81526020019081526020016000206000828254613b5c91906157ec565b6000836001016000613dbb8585613b02565b81526020019081526020016000205490509392505050565b6000613de460018701858585614542565b8015613e8f5750613e1d85876001016009018686604051613e06929190615563565b908152602001604051809103902060020154613ae4565b6001600160a01b0316638650c0726040518163ffffffff1660e01b815260040160206040518083038186803b158015613e5557600080fd5b505afa158015613e69573d6000803e3d6000fd5b505050506040513d601f19601f82011682018060405250810190613e8d9190614f13565b155b9695505050505050565b6060836002016000613eab8585613b02565b81526020019081526020016000208054613ec49061587a565b80601f0160208091040260200160405190810160405280929190818152602001828054613ef09061587a565b8015613f3d5780601f10613f1257610100808354040283529160200191613f3d565b820191906000526020600020905b815481529060010190602001808311613f2057829003601f168201915b505050505090509392505050565b6f219ab540356cbb839cbe05303d7705fa6001600160a01b031663228951188287878787613fb38c8c8080601f0160208091040260200160405190810160405280939291908181526020018383808284376000920191909152508e92508d91508c90506145a8565b6040518763ffffffff1660e01b8152600401613fd395949392919061565d565b6000604051808303818588803b158015613fec57600080fd5b505af1158015614000573d6000803e3d6000fd5b50505050505050505050565b8084600101600061401d8686613b02565b815260208101919091526040016000205550505050565b600061404c8383671c995b19585cd95960c21b613da9565b4211159392505050565b60008161406d8585651dd85b1b195d60d21b613da9565b10156140d15760405162461bcd60e51b815260206004820152602d60248201527f4d61696e7461696e65725574696c733a204e4f5420656e6f7567682062616c6160448201526c1b98d9481a5b881dd85b1b195d609a1b60648201526084016105ba565b613aa78484651dd85b1b195d60d21b85613b2e565b808460030160006140f78686613b02565b815260200190815260200160002060006101000a8154816001600160a01b0302191690836001600160a01b0316021790555050505050565b61415581671c995b19585cd95960c21b61414c62278d00426157ec565b8592919061400c565b7f6a740d28273a335dabd953f22fd145fdc11323629c3ff8717eb28f53b227e7fd8161418462278d00426157ec565b6040805192835260208301919091520161161b565b60008360030160006141ab8585613b02565b81526020810191909152604001600020546001600160a01b0316949350505050565b808460020160006141de8686613b02565b81526020019081526020016000209080519060200190613a89929190614d82565b835460405163f759cc3b60e01b815260048101849052600091829182916001600160a01b03169063f759cc3b9060240160206040518083038186803b15801561424757600080fd5b505afa15801561425b573d6000803e3d6000fd5b505050506040513d601f19601f8201168201806040525081019061427f9190614f30565b8754604080516396ce079560e01b8152905192935086926000926001600160a01b0316916396ce0795916004808301926020929190829003018186803b1580156142c857600080fd5b505afa1580156142dc573d6000803e3d6000fd5b505050506040513d601f19601f820116820180604052508101906143009190614f30565b61430a8484615818565b6143149190615804565b9050600061432d898966737572706c757360c81b613da9565b90508082106143cd578954604080516396ce079560e01b81529051929350839286926001600160a01b0316916396ce0795916004808301926020929190829003018186803b15801561437e57600080fd5b505afa158015614392573d6000803e3d6000fd5b505050506040513d601f19601f820116820180604052508101906143b69190614f30565b6143c09084615818565b6143ca9190615804565b92505b6000806143dc8b8b8688614994565b90925090506143f78b8b66737572706c757360c81b87613b2e565b8b546001600160a01b031663f5298aca308c614413858a615837565b6040516001600160e01b031960e086901b1681526001600160a01b03909316600484015260248301919091526044820152606401600060405180830381600087803b15801561446157600080fd5b505af1158015614475573d6000803e3d6000fd5b505050506144858c600101613ab1565b156144c95760006144b961449c62015180426158ca565b6144a69042615837565b69313ab937213ab33332b960b11b613b02565b90506144c78c8c8389613d7b565b505b6144d4826002615818565b6144de9085615837565b6144e8868b615837565b9750975050505050505094509492505050565b6000426145158484680cccacaa6eed2e8c6d60bb1b613da9565b111561453157613bbf8383677072696f7246656560c01b613da9565b61058d83836266656560e81b613da9565b6000846009018484604051614558929190615563565b9081526040519081900360200190205460ff16600114801561152f57508185600901858560405161458a929190615563565b90815260200160405180910390206001015411159050949350505050565b6000670de0b6b3a76400008210156146115760405162461bcd60e51b815260206004820152602660248201527f4465706f736974436f6e74726163743a206465706f7369742076616c756520746044820152656f6f206c6f7760d01b60648201526084016105ba565b61461f633b9aca00836158ca565b156146885760405162461bcd60e51b815260206004820152603360248201527f4465706f736974436f6e74726163743a206465706f7369742076616c7565206e6044820152726f74206d756c7469706c65206f66206777656960681b60648201526084016105ba565b6000614698633b9aca0084615804565b9050600060026146a788614aff565b6040516146b49190615573565b602060405180830381855afa1580156146d1573d6000803e3d6000fd5b5050506040513d601f19601f820116820180604052508101906146f49190614f30565b905060006002806147088860006040614b95565b6040516147159190615573565b602060405180830381855afa158015614732573d6000803e3d6000fd5b5050506040513d601f19601f820116820180604052508101906147559190614f30565b60026147756147708a604061476b816060615837565b614b95565b614aff565b6040516147829190615573565b602060405180830381855afa15801561479f573d6000803e3d6000fd5b5050506040513d601f19601f820116820180604052508101906147c29190614f30565b60408051602081019390935282015260600160408051601f19818403018152908290526147ee91615573565b602060405180830381855afa15801561480b573d6000803e3d6000fd5b5050506040513d601f19601f8201168201806040525081019061482e9190614f30565b90506000600280848a60405160200161484892919061553d565b60408051601f198184030181529082905261486291615573565b602060405180830381855afa15801561487f573d6000803e3d6000fd5b5050506040513d601f19601f820116820180604052508101906148a29190614f30565b60026148ad87614ca1565b604080516020810192909252810186905260600160408051601f19818403018152908290526148db91615573565b602060405180830381855afa1580156148f8573d6000803e3d6000fd5b5050506040513d601f19601f8201168201806040525081019061491b9190614f30565b60408051602081019390935282015260600160408051601f198184030181529082905261494791615573565b602060405180830381855afa158015614964573d6000803e3d6000fd5b5050506040513d601f19601f820116820180604052508101906149879190614f30565b9998505050505050505050565b60008060006149a38787613b67565b6001600160a01b031663d4cadf686040518163ffffffff1660e01b815260040160206040518083038186803b1580156149db57600080fd5b505afa1580156149ef573d6000803e3d6000fd5b505050506040513d601f19601f82011682018060405250810190614a139190614f30565b905060026402540be400614a278388615818565b614a319190615804565b614a3b9190615804565b925060026402540be400614a4f8387615818565b614a599190615804565b614a639190615804565b9150614a6f8787613b67565b60405163b150798960e01b815260048101859052602481018490526001600160a01b03919091169063b150798990859060440160408051808303818588803b158015614aba57600080fd5b505af1158015614ace573d6000803e3d6000fd5b50505050506040513d601f19601f82011682018060405250810190614af39190615440565b50505094509492505050565b60606020825110158015614b1557506040825111155b614b2157614b216158de565b815160401415614b2f575090565b60408051602080825281830190925260009160208201818036833701905050905060006020820152825160201415614b7257614b6b8382614ce7565b9392505050565b614b6b83614b8a8360008751604061476b9190615837565b614ce7565b50919050565b606081614ba381601f6157ec565b1015614be25760405162461bcd60e51b815260206004820152600e60248201526d736c6963655f6f766572666c6f7760901b60448201526064016105ba565b614bec82846157ec565b84511015614c305760405162461bcd60e51b8152602060048201526011602482015270736c6963655f6f75744f66426f756e647360781b60448201526064016105ba565b606082158015614c4f5760405191506000825260208201604052612829565b6040519150601f8416801560200281840101858101878315602002848b0101015b81831015614c88578051835260209283019201614c70565b5050858452601f01601f19166040525050949350505050565b600081815b6008811015614ccf57600892831b60ff831617929190911c90614cc8816158af565b9050614ca6565b508015614cde57614cde6158de565b5060c01b919050565b6060806040519050835180825260208201818101602087015b81831015614d18578051835260209283019201614d00565b50855184518101855292509050808201602086015b81831015614d45578051835260209283019201614d2d565b508651929092011591909101601f01601f191660405250905092915050565b60405180604001604052806002906020820280368337509192915050565b828054614d8e9061587a565b90600052602060002090601f016020900481019282614db05760008555614df6565b82601f10614dc957805160ff1916838001178555614df6565b82800160010185558215614df6579182015b82811115614df6578251825591602001919060010190614ddb565b50614e02929150614e06565b5090565b5b80821115614e025760008155600101614e07565b60008083601f840112614e2d57600080fd5b50813567ffffffffffffffff811115614e4557600080fd5b6020830191508360208260051b8501011115614e6057600080fd5b9250929050565b60008083601f840112614e7957600080fd5b50813567ffffffffffffffff811115614e9157600080fd5b602083019150836020828501011115614e6057600080fd5b600080600060608486031215614ebe57600080fd5b8351614ec98161594c565b6020850151909350614eda8161594c565b6040850151909250614eeb8161594c565b809150509250925092565b600060208284031215614f0857600080fd5b8135614b6b81615964565b600060208284031215614f2557600080fd5b8151614b6b81615964565b600060208284031215614f4257600080fd5b5051919050565b60008060408385031215614f5c57600080fd5b50508035926020909101359150565b600080600060608486031215614f8057600080fd5b83359250602084013591506040840135614eeb8161594c565b60008060008060008060a08789031215614fb257600080fd5b8635955060208701359450604087013567ffffffffffffffff811115614fd757600080fd5b614fe389828a01614e67565b909550935050606087013591506080870135614ffe8161594c565b809150509295509295509295565b60008060006060848603121561502157600080fd5b505081359360208301359350604090920135919050565b6000806000806080858703121561504e57600080fd5b5050823594602084013594506040840135936060013592509050565b6000806000806060858703121561508057600080fd5b8435935060208501359250604085013567ffffffffffffffff8111156150a557600080fd5b6150b187828801614e1b565b95989497509550505050565b600080600080606085870312156150d357600080fd5b8435935060208501359250604085013567ffffffffffffffff8111156150f857600080fd5b6150b187828801614e67565b6000806000806080858703121561511a57600080fd5b843593506020850135925060408501359150606085013561513a8161594c565b939692955090935050565b60008060008060006080868803121561515d57600080fd5b853594506020860135935060408601359250606086013567ffffffffffffffff81111561518957600080fd5b61519588828901614e1b565b969995985093965092949392505050565b60008060008060008060c087890312156151bf57600080fd5b8635955060208701359450604087013593506060870135925060808701356151e68161594c565b915060a087013567ffffffffffffffff81111561520257600080fd5b870160408101891015614ffe57600080fd5b60008060008060008060c0878903121561522d57600080fd5b8635955060208701359450604087013593506060870135925060808701356152548161594c565b8092505060a087013590509295509295509295565b60008060008060008060008060c0898b03121561528557600080fd5b88359750602089013596506040890135955060608901359450608089013567ffffffffffffffff808211156152b957600080fd5b6152c58c838d01614e1b565b909650945060a08b01359150808211156152de57600080fd5b506152eb8b828c01614e1b565b999c989b5096995094979396929594505050565b60008060008060008060008060008060e08b8d03121561531e57600080fd5b8a35995060208b0135985060408b0135975060608b0135965060808b013567ffffffffffffffff8082111561535257600080fd5b61535e8e838f01614e1b565b909850965060a08d013591508082111561537757600080fd5b6153838e838f01614e1b565b909650945060c08d013591508082111561539c57600080fd5b506153a98d828e01614e1b565b915080935050809150509295989b9194979a5092959850565b600080600080600060a086880312156153da57600080fd5b505083359560208501359550604085013594606081013594506080013592509050565b60008060008060008060c0878903121561541657600080fd5b505084359660208601359650604086013595606081013595506080810135945060a0013592509050565b6000806040838503121561545357600080fd5b505080516020909101519092909150565b600082604081018360005b60028110156154dd5783830387528135601e1987360301811261549157600080fd5b86018035602067ffffffffffffffff8211156154ac57600080fd5b8136038913156154bb57600080fd5b6154c886838386016154e8565b9981019995509390930192505060010161546f565b509095945050505050565b81835281816020850137506000828201602090810191909152601f909101601f19169091010190565b6000815180845261552981602086016020860161584e565b601f01601f19169290920160200192915050565b8281526000825161555581602085016020870161584e565b919091016020019392505050565b8183823760009101908152919050565b6000825161558581846020870161584e565b9190910192915050565b6001600160a01b0394851681529290931660208301526040820152606081019190915260a06080820181905260009082015260c00190565b6020808252825182820181905260009190848201906040850190845b818110156156085783516001600160a01b0316835292840192918401916001016155e3565b50909695505050505050565b60208152600061274c6020830184866154e8565b60608152600061563c6060830186886154e8565b6020830194909452506001600160a01b039190911660409091015292915050565b6080815260006156716080830187896154e8565b82810360208401526156838187615511565b905082810360408401526156978186615511565b9150508260608301529695505050505050565b6060815260006156be6060830186886154e8565b6020830194909452506040015292915050565b60208082526024908201527f5374616b655574696c733a204d41585f4d41494e5441494e45525f4645452045604082015263292927a960e11b606082015260800190565b600061014086835260208084018760005b600381101561574357815183529183019190830190600101615726565b505050608084018660005b60058110156157745781516001600160a01b03168352918301919083019060010161574e565b5050505080610120840152613d7081840185615464565b83815260406020820152600061152f6040830184866154e8565b6000808335601e198436030181126157bc57600080fd5b83018035915067ffffffffffffffff8211156157d757600080fd5b602001915036819003821315614e6057600080fd5b600082198211156157ff576157ff6158f4565b500190565b6000826158135761581361590a565b500490565b6000816000190483118215151615615832576158326158f4565b500290565b600082821015615849576158496158f4565b500390565b60005b83811015615869578181015183820152602001615851565b83811115611cb65750506000910152565b600181811c9082168061588e57607f821691505b60208210811415614b8f57634e487b7160e01b600052602260045260246000fd5b60006000198214156158c3576158c36158f4565b5060010190565b6000826158d9576158d961590a565b500690565b634e487b7160e01b600052600160045260246000fd5b634e487b7160e01b600052601160045260246000fd5b634e487b7160e01b600052601260045260246000fd5b634e487b7160e01b600052603260045260246000fd5b634e487b7160e01b600052604160045260246000fd5b6001600160a01b038116811461596157600080fd5b50565b801515811461596157600080fdfea2646970667358221220e8ded4d72c6f71107dd52184e61bfdc4c7b005a81fc3ca4c0f3f7dcf3ca93c8a64736f6c63430008070033",
  "libraries": {
    "OracleUtils": "0x677d4EbBca0affBFb6486c0834435D48efDdA6d7",
    "MaintainerUtils": "0xA87975427D8207A4bdD5Ef74193Fb7d72e251c39"
  },
  "devdoc": {
    "author": "Icebear & Crash Bandicoot",
    "details": "Contracts relying on this library must initialize StakeUtils.StakePoolALL \"fee\" variables are limited by PERCENTAGE_DENOMINATOR. * For example, when fee is equal to PERCENTAGE_DENOMINATOR/2, it means 50% of the fee Note refer to DataStoreUtils before reviewing Note refer to MaintainerUtilsLib before reviewing Note refer to OracleUtilsLib before reviewing Note *suggested* refer to GeodeUtils before reviewing Note beware of the staking pool and operator implementations: Type 4 stands for Operators: They maintain Beacon Chain Validators on behalf of Planets and Comets * only if they are allowed to Operators have properties like fee(as a percentage), maintainer. Type 5 stands for Public Staking Pool (Planets): * Every Planet is also an Operator by design. * * Planets inherits Operator functionalities and parameters, with additional * * properties related to miniGovernances and staking pools - surplus, secured, withdrawalPool etc. * ID of a pool represents an id of gETH. * For now, creation of staking pools are not permissionless but the usage of it is. * * Meaning Everyone can stake and unstake using public pools. Type 6 stands for Private Staking Pools (Comets): * It is permissionless, one can directly create a Comet by simply * * choosing a name and sending MIN_AMOUNT which is expected to be 32 ether. * GeodeUtils generates IDs based on types, meaning same name can be used for a Planet and a Comet simultaneously. * The creation process is permissionless but staking is not. * * Meaning Only Comet's maintainer can stake but everyone can hold the derivative * In Comets, there is a Withdrawal Queue instead of DWP. * NOT IMPLEMENTED YET Type 11 stands for a new Mini Governance implementation id: * like always CONTROLLER is the implementation contract position * requires the approval of Senate * Pools are in \"Isolation Mode\" until their mini governance is upgraded to given proposal ID. * * Meaning, no more Depositing or Staking can happen.",
    "kind": "dev",
    "methods": {
      "approveOperator(DataStoreUtils.DataStore storage,uint256,uint256,uint256)": {
        "details": "If planet decreases the approved validator count, below current running validator, operator can only withdraw until to new allowence.only maintainer of _planetId can approve an Operator",
        "params": {
          "allowance": "the MAX number of validators that can be created by the Operator for a given Planet",
          "operatorId": "the id of the Operator to allow them create validators for a given Planet",
          "poolId": "the gETH id of the Planet, only Maintainer can call this function"
        }
      },
      "beaconStake(StakeUtils.StakePool storage,DataStoreUtils.DataStore storage,uint256,bytes[])": {
        "details": "To save gas cost, pubkeys should be arranged by planedIds.  ex: [pk1, pk2, pk3, pk4, pk5, pk6, pk7]  pk1, pk2, pk3 from planet1  pk4, pk5 from planet2  pk6 from planet3  seperate them in similar groups as much as possible.Max number of validators to boostrap is MAX_DEPOSITS_PER_CALL (currently 64)A pubkey that is alienated will not get through. Do not frontrun during ProposeStake.",
        "params": {
          "operatorId": "the id of the Operator whose maintainer calling this function",
          "pubkeys": "Array of BLS12-381 public keys of the validators that are already proposed with ProposeStake."
        }
      },
      "blameOperator(StakeUtils.StakePool storage,DataStoreUtils.DataStore storage,bytes)": {
        "details": "anyone can call this functionif operator has given enough allowence, they can rotate the validators to avoid being prisoned"
      },
      "canDeposit(DataStoreUtils.DataStore storage,uint256)": {
        "details": "minting is paused when stakePaused == 1, meaning true."
      },
      "changeOperatorMaintainer(DataStoreUtils.DataStore storage,uint256,address)": {
        "details": "Seems like authenticate is not correct, but authenticate checks for maintainer and this function expects controller and DATASTORE.changeMaintainer checks that."
      },
      "changePoolMaintainer(DataStoreUtils.DataStore storage,uint256,bytes,bytes32,address)": {
        "details": "requires the old Password and a new passwordHash, this saves the MiniGovernance contract from Double Horn Attack: when Both Senate and Governance is malicious.currently this is enough to ensure the future implementations will improve the miniGovernance security, * we are also working on improving the Isolation Mode, which will allow Portal-less withdrawals for all pool typesSeems like authenticate is not correct, but authenticate checks for maintainer and this function expects controller and DATASTORE.changeMaintainer checks that."
      },
      "decreaseMaintainerWallet(DataStoreUtils.DataStore storage,uint256,uint256)": {
        "details": "only maintainer can decrease the balance directly, * other than that it can be used to propose Validatorsif a maintainer is in prison, it can not decrease the wallet"
      },
      "depositPlanet(StakeUtils.StakePool storage,DataStoreUtils.DataStore storage,uint256,uint256,uint256)": {
        "params": {
          "deadline": "withdrawal pool parameter // debt  msg.value // 100   10  => buyback // 100   100 => buyback // 10    100 => buyback + mint // 1     x   => mint // 0.5   x   => mint // 0     x   => mint",
          "mingETH": "withdrawal pool parameter",
          "planetId": "id of the staking pool, withdrawal pool and gETH to be used."
        }
      },
      "fetchUnstake(StakeUtils.StakePool storage,DataStoreUtils.DataStore storage,uint256,uint256,bytes[],uint256[],bool[])": {
        "details": "although OnlyOracle, logically this has nothing to do with Telescope. * So we are keeping it here.operator is prisoned if: 1. withdrawn without signalled, being sneaky. in such case they also doesn't receive the boost 2. signalled without withdrawal, deceiving other operators",
        "params": {
          "isExit": "according to eip-4895, there can be multiple ways to distriute the rewards * and not all of them requires exit. Even in such cases reward can be catched from * withdrawal credential and distributed."
        }
      },
      "increaseMaintainerWallet(DataStoreUtils.DataStore storage,uint256)": {
        "details": "only maintainer can increase the balance directly, * other than that it also collects validator rewards"
      },
      "initiateOperator(StakeUtils.StakePool storage,DataStoreUtils.DataStore storage,uint256,uint256,address,uint256)": {
        "details": "requires ID to be approved as a node operator with a specific CONTROLLER",
        "params": {
          "_validatorPeriod": "the expected maximum staking interval. This value should between * MIN_VALIDATOR_PERIOD and MAX_VALIDATOR_PERIOD values defined as constants above, * this check is done inside updateValidatorPeriod function. Operator can unstake at any given point before this period ends. If operator disobeys this rule, it can be prisoned with blameOperator()"
        }
      },
      "initiatePlanet(StakeUtils.StakePool storage,DataStoreUtils.DataStore storage,uint256,uint256,address,string[2])": {
        "details": "requires ID to be approved as a planet with a specific CONTROLLER",
        "params": {
          "_interfaceSpecs": "0: interface name, 1: interface symbol, currently ERC20 specs."
        }
      },
      "operatorAllowance(DataStoreUtils.DataStore storage,uint256,uint256)": {
        "details": "an operator can not create new validators if: * 1. allowence is 0 (zero) * 2. lower than the current (proposed + active) number of validators * But if operator withdraws a validator, then able to create a new one.prestake checks the approved validator count to make sure the number of validators are not bigger than allowenceallowence doesn't change when new validators created or old ones are unstaked.",
        "returns": {
          "allowance": "allowance"
        }
      },
      "pauseStakingForPool(DataStoreUtils.DataStore storage,uint256)": {
        "details": "pausing requires pool to be NOT paused already"
      },
      "proposeStake(StakeUtils.StakePool storage,DataStoreUtils.DataStore storage,uint256,uint256,bytes[],bytes[])": {
        "details": "DEPOSIT_AMOUNT_PRESTAKE = 1 ether, which is the minimum number to create validator. 31 Ether will be staked after verification of oracles. 32 in total. 1 ether will be sent back to Node Operator when finalized deposit is successful.ProposeStake requires enough allowance from Staking Pools to Operators.ProposeStake requires enough funds within maintainerWallet.Max number of validators to propose is MAX_DEPOSITS_PER_CALL (currently 64)",
        "params": {
          "operatorId": "the id of the Operator whose maintainer calling this function",
          "poolId": "the id of the staking pool whose TYPE can be 5 or 6.",
          "pubkeys": "Array of BLS12-381 public keys of the validators that will be proposed",
          "signatures": "Array of BLS12-381 signatures of the validators that will be proposed"
        }
      },
      "setInterface(StakeUtils.StakePool storage,DataStoreUtils.DataStore storage,uint256,address)": {
        "details": "every interface has a unique index within \"interfaces\" dynamic array. * even if unsetted, it just replaces the implementation with address(0) for obvious security reasons",
        "params": {
          "_interface": "address of the new gETH ERC1155 interface for given ID"
        }
      },
      "setMiniGovernanceVersion(StakeUtils.StakePool storage,DataStoreUtils.DataStore storage,uint256)": {
        "details": "CONTROLLER of the proposal id represents the implementation addressThis function seems like everyone can call, but it is called inside portal after approveProposal function * and approveProposal has onlySenate modifier, can be called only by senate."
      },
      "signalUnstake(StakeUtils.StakePool storage,DataStoreUtils.DataStore storage,bytes[])": {
        "details": "to maintain the health of Geode Universe, we should protect the race conditions. * opeators should know when others are unstaking so they don't spend money for no boost."
      },
      "switchMaintainerFee(StakeUtils.StakePool storage,DataStoreUtils.DataStore storage,uint256,uint256)": {
        "details": "there is a 7 days delay before the new fee is activated, * this protect the pool maintainers from making bad operator choices",
        "params": {
          "newFee": "new fee percentage in terms of PERCENTAGE_DENOMINATOR, reverts if given more than MAX_MAINTAINER_FEE"
        }
      },
      "switchWithdrawalBoost(StakeUtils.StakePool storage,DataStoreUtils.DataStore storage,uint256,uint256)": {
        "details": "to prevent malicious swings in the withdrawal boost that can harm the competition, Boost changes is also has a delay.",
        "params": {
          "withdrawalBoost": "the percentage of arbitrague that will be shared with Operator on Unstake. Can be used to incentivise Unstakes in case of depeg"
        }
      },
      "unpauseStakingForPool(DataStoreUtils.DataStore storage,uint256)": {
        "details": "unpausing requires pool to be paused already"
      },
      "unsetInterface(StakeUtils.StakePool storage,DataStoreUtils.DataStore storage,uint256,uint256)": {
        "details": "every interface has a unique interface index within interfaces dynamic array. * even if unsetted, it just replaces the implementation with address(0) for obvious security reasonsold Interfaces will still be active if not unsetted",
        "params": {
          "index": "index of given interface at the \"interfaces\" dynamic array"
        }
      },
      "withdrawPlanet(StakeUtils.StakePool storage,DataStoreUtils.DataStore storage,uint256,uint256,uint256,uint256)": {
        "params": {
          "deadline": "TX is expected to revert by Swap.sol if not meet",
          "gEthToWithdraw": "amount of g-derivative that should be withdrawn",
          "minETH": "TX is expected to revert by Swap.sol if not meet"
        }
      }
    },
    "title": "StakeUtils library",
    "version": 1
  },
  "userdoc": {
    "kind": "user",
    "methods": {
      "IGNORABLE_DEBT()": {
        "notice": "ignoring any buybacks if the DWP has a low debt"
      },
      "MIN_VALIDATOR_PERIOD()": {
        "notice": "limiting the operator.validatorPeriod, currently around 5 years"
      },
      "PERCENTAGE_DENOMINATOR()": {
        "notice": "PERCENTAGE_DENOMINATOR represents 100%"
      },
      "allInterfaces(DataStoreUtils.DataStore storage,uint256)": {
        "notice": "lists all interfaces, unsetted interfaces will return address(0)"
      },
      "approveOperator(DataStoreUtils.DataStore storage,uint256,uint256,uint256)": {
        "notice": "To allow a Node Operator run validators for your Planet with Max number of validators. * This number can be set again at any given point in the future."
      },
      "beaconStake(StakeUtils.StakePool storage,DataStoreUtils.DataStore storage,uint256,bytes[])": {
        "notice": "Sends 31 Eth from staking pool to validators that are previously created with ProposeStake.  1 Eth per successful validator boostraping is returned back to MaintainerWallet."
      },
      "blameOperator(StakeUtils.StakePool storage,DataStoreUtils.DataStore storage,bytes)": {
        "notice": "allows improsening an Operator if the validator have not been exited until expectedExit"
      },
      "canDeposit(DataStoreUtils.DataStore storage,uint256)": {
        "notice": "checks if staking is allowed in a pool. * when a pool is paused for staking NO new funds can be minted.staking is not allowed if: 1. MiniGovernance is in Isolation Mode, this means it is not upgraded to current version 2. Staking is simply paused by the Pool maintainer"
      },
      "canStake(StakeUtils.StakePool storage,DataStoreUtils.DataStore storage,bytes)": {
        "notice": "external function to check if a validator can use planet funds"
      },
      "changeOperatorMaintainer(DataStoreUtils.DataStore storage,uint256,address)": {
        "notice": "changes maintainer of the given operator (TYPE 4)"
      },
      "changePoolMaintainer(DataStoreUtils.DataStore storage,uint256,bytes,bytes32,address)": {
        "notice": "changes pool maintainer  (TYPE 5-6) + conducts a Senate change on miniGovernance"
      },
      "depositPlanet(StakeUtils.StakePool storage,DataStoreUtils.DataStore storage,uint256,uint256,uint256)": {
        "notice": "Allowing users to deposit into a public staking pool. * Buys from DWP if price is low -debt-, mints new tokens if surplus is sent -more than debt-"
      },
      "fetchUnstake(StakeUtils.StakePool storage,DataStoreUtils.DataStore storage,uint256,uint256,bytes[],uint256[],bool[])": {
        "notice": "Operator finalizing an Unstake event by calling Telescope's multisig: * distributing fees + boost * distributes rewards by burning the derivative * does a buyback if necessary * putting the extra within surplus."
      },
      "initiateOperator(StakeUtils.StakePool storage,DataStoreUtils.DataStore storage,uint256,uint256,address,uint256)": {
        "notice": "initiates ID as an node operator"
      },
      "initiatePlanet(StakeUtils.StakePool storage,DataStoreUtils.DataStore storage,uint256,uint256,address,string[2])": {
        "notice": "initiates ID as a planet (public pool)"
      },
      "operatorAllowance(DataStoreUtils.DataStore storage,uint256,uint256)": {
        "notice": "*operatorAllowence is the number of validators that the given Operator is allowed to create on behalf of the Planet"
      },
      "proposeStake(StakeUtils.StakePool storage,DataStoreUtils.DataStore storage,uint256,uint256,bytes[],bytes[])": {
        "notice": "Validator Credentials Proposal function, first step of crating validators. * Once a pubKey is proposed and not alienated for some time, * it is optimistically allowed to take funds from staking pools."
      },
      "setInterface(StakeUtils.StakePool storage,DataStoreUtils.DataStore storage,uint256,address)": {
        "notice": "sets a erc1155Interface for gETH"
      },
      "setMiniGovernanceVersion(StakeUtils.StakePool storage,DataStoreUtils.DataStore storage,uint256)": {
        "notice": "called when a proposal(TYPE=11) for a new MiniGovernance is approved by Senate"
      },
      "signalUnstake(StakeUtils.StakePool storage,DataStoreUtils.DataStore storage,bytes[])": {
        "notice": "allows giving a unstake signal, meaning validator has been exited. * And boost can be claimed upon arrival of the funds."
      },
      "unsetInterface(StakeUtils.StakePool storage,DataStoreUtils.DataStore storage,uint256,uint256)": {
        "notice": "unsets a erc1155Interface for gETH with given index -acquired from allInterfaces()-"
      },
      "updateValidatorPeriod(DataStoreUtils.DataStore storage,uint256,uint256)": {
        "notice": "updates validatorPeriod for given operator, limited by MAX_VALIDATOR_PERIOD"
      },
      "withdrawPlanet(StakeUtils.StakePool storage,DataStoreUtils.DataStore storage,uint256,uint256,uint256,uint256)": {
        "notice": "withdraw funds from Dynamic Staking Pool (Public Staking Pool + DWP) * If not in Boostrap Period, first checks the surplus, than swaps from DWP to create debt"
      }
    },
    "notice": "Exclusively contains functions related to ETH Liquid Staking designbiggest part of the functionality is related to Dynamic Staking Pools which relies on continuous buybacks (DWP) to maintain the price health with debt/surplus calculations",
    "version": 1
  },
  "storageLayout": {
    "storage": [],
    "types": null
  }
}