{
  "address": "0xAc77FdbfFEA48b291190f024b14535d2EB65077c",
  "abi": [
    {
      "anonymous": false,
      "inputs": [
        {
          "indexed": false,
          "internalType": "bytes",
          "name": "pubkey",
          "type": "bytes"
        }
      ],
      "name": "BeaconStaked",
      "type": "event"
    },
    {
      "anonymous": false,
      "inputs": [
        {
          "indexed": false,
          "internalType": "uint256",
          "name": "planetId",
          "type": "uint256"
        },
        {
          "indexed": false,
          "internalType": "uint256",
          "name": "operatorId",
          "type": "uint256"
        },
        {
          "indexed": false,
          "internalType": "uint256",
          "name": "allowance",
          "type": "uint256"
        }
      ],
      "name": "OperatorApproval",
      "type": "event"
    },
    {
      "anonymous": false,
      "inputs": [
        {
          "indexed": false,
          "internalType": "uint256",
          "name": "id",
          "type": "uint256"
        }
      ],
      "name": "PoolPaused",
      "type": "event"
    },
    {
      "anonymous": false,
      "inputs": [
        {
          "indexed": false,
          "internalType": "uint256",
          "name": "id",
          "type": "uint256"
        }
      ],
      "name": "PoolUnpaused",
      "type": "event"
    },
    {
      "anonymous": false,
      "inputs": [
        {
          "indexed": false,
          "internalType": "bytes",
          "name": "pubkey",
          "type": "bytes"
        },
        {
          "indexed": false,
          "internalType": "uint256",
          "name": "planetId",
          "type": "uint256"
        },
        {
          "indexed": false,
          "internalType": "uint256",
          "name": "operatorId",
          "type": "uint256"
        }
      ],
      "name": "ProposeStaked",
      "type": "event"
    },
    {
      "anonymous": false,
      "inputs": [
        {
          "indexed": false,
          "internalType": "uint256",
          "name": "poolId",
          "type": "uint256"
        },
        {
          "indexed": false,
          "internalType": "bytes",
          "name": "pubkey",
          "type": "bytes"
        }
      ],
      "name": "UnstakeSignal",
      "type": "event"
    },
    {
      "anonymous": false,
      "inputs": [
        {
          "indexed": false,
          "internalType": "uint256",
          "name": "operatorId",
          "type": "uint256"
        },
        {
          "indexed": false,
          "internalType": "uint256",
          "name": "newPeriod",
          "type": "uint256"
        }
      ],
      "name": "ValidatorPeriodUpdated",
      "type": "event"
    },
    {
      "anonymous": false,
      "inputs": [
        {
          "indexed": false,
          "internalType": "uint256",
          "name": "poolId",
          "type": "uint256"
        },
        {
          "indexed": false,
          "internalType": "uint256",
          "name": "withdrawalBoost",
          "type": "uint256"
        },
        {
          "indexed": false,
          "internalType": "uint256",
          "name": "effectiveAfter",
          "type": "uint256"
        }
      ],
      "name": "WithdrawalBoostChanged",
      "type": "event"
    },
    {
      "inputs": [],
      "name": "IGNORABLE_DEBT",
      "outputs": [
        {
          "internalType": "uint256",
          "name": "",
          "type": "uint256"
        }
      ],
      "stateMutability": "view",
      "type": "function"
    },
    {
      "inputs": [],
      "name": "MAX_VALIDATOR_PERIOD",
      "outputs": [
        {
          "internalType": "uint256",
          "name": "",
          "type": "uint256"
        }
      ],
      "stateMutability": "view",
      "type": "function"
    },
    {
      "inputs": [],
      "name": "MIN_VALIDATOR_PERIOD",
      "outputs": [
        {
          "internalType": "uint256",
          "name": "",
          "type": "uint256"
        }
      ],
      "stateMutability": "view",
      "type": "function"
    },
    {
      "inputs": [],
      "name": "PERCENTAGE_DENOMINATOR",
      "outputs": [
        {
          "internalType": "uint256",
          "name": "",
          "type": "uint256"
        }
      ],
      "stateMutability": "view",
      "type": "function"
    }
  ],
  "transactionHash": "0xb64ed74ffc11bc10c8507e0152f70b8386dbaf0277d161a725b3950ab8f9db27",
  "args": [],
  "numDeployments": 1,
  "solcInputHash": "9a824ac462ae42002bc06d3f2274bda0",
  "bytecode": "0x6157676200003b600b82828239805160001a60731461002e57634e487b7160e01b600052600060045260246000fd5b30600052607381538281f3fe73000000000000000000000000000000000000000030146080604052600436106101b35760003560e01c806394bf980d11610103578063caafe848116100a1578063d30807f81161007b578063d30807f814610446578063e0b9dabe14610466578063f1016dfb14610486578063fd805ee5146104a657600080fd5b8063caafe848146103f3578063ccc68fc314610406578063d1dedac81461042657600080fd5b8063a4ff4e5e116100dd578063a4ff4e5e146103aa578063b1330288146103ca578063b3cd4254146103d4578063bbf1555c146103e057600080fd5b806394bf980d1461034a578063955ba8d31461036a5780639e8c22831461038a57600080fd5b80634993705611610170578063633074e71161014a578063633074e7146102db5780636d6079b2146102fb57806376b050541461031b57806383faca401461032a57600080fd5b8063499370561461028257806355e66bad1461029b578063569391b6146102bb57600080fd5b80630d552313146101b857806316614f5e146101ed578063303cb36f1461020f57806330d2c2ac1461022f5780633147a52a1461024f5780633a66037d1461026f575b600080fd5b8180156101c457600080fd5b506101d86101d3366004614d02565b6104c6565b60405190151581526020015b60405180910390f35b8180156101f957600080fd5b5061020d610208366004614f60565b610505565b005b81801561021b57600080fd5b5061020d61022a36600461504b565b610622565b81801561023b57600080fd5b5061020d61024a366004614d52565b610d16565b81801561025b57600080fd5b5061020d61026a366004614e83565b610d40565b6101d861027d366004614e03565b611360565b61028d630966018081565b6040519081526020016101e4565b8180156102a757600080fd5b5061020d6102b6366004614d24565b61137f565b8180156102c757600080fd5b5061020d6102d6366004614d02565b61142a565b8180156102e757600080fd5b5061020d6102f6366004614d7e565b611519565b81801561030757600080fd5b506101d8610316366004614d52565b61168c565b61028d670de0b6b3a764000081565b81801561033657600080fd5b5061020d610345366004614d52565b61184b565b81801561035657600080fd5b5061020d610365366004614e03565b611888565b81801561037657600080fd5b5061028d61038536600461510e565b611923565b81801561039657600080fd5b5061020d6103a5366004614d02565b611d76565b8180156103b657600080fd5b5061020d6103c5366004614db0565b611e63565b61028d6276a70081565b61028d6402540be40081565b6101d86103ee366004614d02565b61209e565b61028d610401366004614d52565b612143565b610419610414366004614d02565b61216f565b6040516101e49190615313565b81801561043257600080fd5b5061020d610441366004614d7e565b61224d565b81801561045257600080fd5b5061020d610461366004614ee4565b612312565b81801561047257600080fd5b5061028d610481366004615149565b6125db565b81801561049257600080fd5b5061020d6104a1366004614fb5565b612985565b8180156104b257600080fd5b506101d86104c1366004614d7e565b6132ad565b6040805160608101825260018082526000602083018190529282018390526104f19185918591613373565b6104fc838334613568565b90505b92915050565b85601601548311156105325760405162461bcd60e51b81526004016105299061543c565b60405180910390fd5b6276a7008110156105555760405162461bcd60e51b815260040161052990615480565b63096601808111156105795760405162461bcd60e51b8152600401610529906153e8565b604051635fae04e760e01b81526004810186905260248101859052604481018490526001600160a01b03831660648201527390e9b7b0b5401EC1D80B9539874c2F5ADFEe8CfF90635fae04e79060840160006040518083038186803b1580156105e157600080fd5b505af41580156105f5573d6000803e3d6000fd5b5061061a92508791508690506e1d985b1a59185d1bdc94195c9a5bd9608a1b84613589565b505050505050565b60028a01546001600160a01b0316331461067e5760405162461bcd60e51b815260206004820152601d60248201527f5374616b655574696c733a2073656e646572204e4f54204f5241434c450000006044820152606401610529565b61068a8a6001016135b1565b156106d75760405162461bcd60e51b815260206004820152601c60248201527f5374616b655574696c733a204f5241434c4520697320616374697665000000006044820152606401610529565b60006106e1614b5f565b6000805b888110156108a8576000888883818110610701576107016156df565b90506020020135905088888381811061071c5761071c6156df565b905060200201358561072e91906155ab565b9450868683818110610742576107426156df565b90506020020160208101906107579190614caf565b15610798576107676001846155ab565b92506801bc16d674ec8000008111156107945761078d6801bc16d674ec800000826155f6565b9050610798565b5060005b8015610895576402540be4008f6001016009018c8c858181106107bd576107bd6156df565b90506020028101906107cf9190615564565b6040516107dd9291906152af565b908152602001604051809103902060040154826107fa91906155d7565b61080491906155c3565b845185906108139083906155ab565b915081815250506402540be4008f6001016009018c8c85818110610839576108396156df565b905060200281019061084b9190615564565b6040516108599291906152af565b9081526020016040518091039020600501548261087691906155d7565b61088091906155c3565b6020850180516108919083906155ab565b9052505b50806108a08161566e565b9150506106e5565b5060006108b58d8d6135e4565b6001600160a01b031663c5dd6fee856040518263ffffffff1660e01b81526004016108e291815260200190565b602060405180830381600087803b1580156108fc57600080fd5b505af1158015610910573d6000803e3d6000fd5b505050506040513d601f19601f820116820180604052508101906109349190614ccc565b9050806109835760405162461bcd60e51b815260206004820152601b60248201527f5374616b655574696c733a204661696c656420746f20636c61696d00000000006044820152606401610529565b506109ae8b6109a58c6f61637469766556616c696461746f727360801b613602565b8e91908461362e565b6109d28c8b74746f74616c41637469766556616c696461746f727360581b8461362e565b602082015182516109e391906155ab565b6109ed90846155f6565b92505060006109fc8c8c613667565b6001600160a01b03166314a6bf0f6040518163ffffffff1660e01b815260040160206040518083038186803b158015610a3457600080fd5b505afa158015610a48573d6000803e3d6000fd5b505050506040513d601f19601f82011682018060405250810190610a6c9190614ce9565b9050670de0b6b3a7640000811115610cc85782811115610a895750815b6000610a958d8d613685565b90508015610ca6576000610aa98e8e613667565b60405163a95b089f60e01b81526000600482015260016024820152604481018590526001600160a01b03919091169063a95b089f9060640160206040518083038186803b158015610af957600080fd5b505afa158015610b0d573d6000803e3d6000fd5b505050506040513d601f19601f82011682018060405250810190610b319190614ce9565b90508e60000160009054906101000a90046001600160a01b03166001600160a01b031663f759cc3b8e6040518263ffffffff1660e01b8152600401610b7891815260200190565b60206040518083038186803b158015610b9057600080fd5b505afa158015610ba4573d6000803e3d6000fd5b505050506040513d601f19601f82011682018060405250810190610bc89190614ce9565b8f54604080516396ce079560e01b815290516001600160a01b03909216916396ce079591600480820192602092909190829003018186803b158015610c0c57600080fd5b505afa158015610c20573d6000803e3d6000fd5b505050506040513d601f19601f82011682018060405250810190610c449190614ce9565b610c4e90856155d7565b610c5891906155c3565b610c6290826155f6565b90506402540be400610c7483836155d7565b610c7e91906155c3565b91508184600160200201818151610c9591906155ab565b905250610ca282866155f6565b9450505b50610cba8d8d60008e8560006000196136e3565b50610cc581846155f6565b92505b8215610ce457610ce48c8c66737572706c757360c81b8661387b565b610cf98b8360005b60200201518e9190613568565b50610d068a836001610cec565b5050505050505050505050505050565b610d288282635459504560e01b6138a9565b600b14610d3457600080fd5b60159092019190915550565b60408051606081018252600180825260006020830181905292820192909252610d6d918691869190613373565b610d79856001016135b1565b15610dc65760405162461bcd60e51b815260206004820152601c60248201527f5374616b655574696c733a204f5241434c4520697320616374697665000000006044820152606401610529565b8015801590610dd6575060408111155b610e1d5760405162461bcd60e51b81526020600482015260186024820152775374616b655574696c733a204d4158203634206e6f64657360401b6044820152606401610529565b600685015460005b82811015610ecc57610e5c8787868685818110610e4457610e446156df565b9050602002810190610e569190615564565b866138d3565b610eba5760405162461bcd60e51b815260206004820152602960248201527f5374616b655574696c733a204e4f5420616c6c207075626b65797320617265206044820152687374616b6561626c6560b81b6064820152608401610529565b80610ec48161566e565b915050610e25565b50506000610eed846f61637469766556616c696461746f727360801b613602565b90506000610f10857170726f706f73656456616c696461746f727360701b613602565b90506000600a880185858381610f2857610f286156df565b9050602002810190610f3a9190615564565b604051610f489291906152af565b9081526040519081900360200190206002015490506000610f818883731dda5d1a191c985dd85b10dc9959195b9d1a585b60621b613999565b90506000805b8681101561129257600a8b01888883818110610fa557610fa56156df565b9050602002810190610fb79190615564565b604051610fc59291906152af565b90815260200160405180910390206002015484146110ac5761101284661cd958dd5c995960ca1b610ff685856155f6565b611009906801bc16d674ec8000006155d7565b8d92919061362e565b61102a848761102185856155f6565b8d92919061387b565b611039848661100985856155f6565b905080600a8b01888883818110611052576110526156df565b90506020028101906110649190615564565b6040516110729291906152af565b9081526040519081900360200190206002015493506110a98a85731dda5d1a191c985dd85b10dc9959195b9d1a585b60621b613999565b92505b6000600a8c018989848181106110c4576110c46156df565b90506020028101906110d69190615564565b6040516110e49291906152af565b9081526020016040518091039020600801805461110090615639565b80601f016020809104026020016040519081016040528092919081815260200182805461112c90615639565b80156111795780601f1061114e57610100808354040283529160200191611179565b820191906000526020600020905b81548152906001019060200180831161115c57829003601f168201915b505050505090506111c9898984818110611195576111956156df565b90506020028101906111a79190615564565b86846111c4670de0b6b3a76400006801bc16d674ec8000006155f6565b613a4b565b6002600a8d018a8a858181106111e1576111e16156df565b90506020028101906111f39190615564565b6040516112019291906152af565b908152604051908190036020019020805460ff9290921660ff199092169190911790557fbc28e8595f241c3a0166b245c13eb3884c23fe15e7d51b7a9ab1395284fd9924898984818110611257576112576156df565b90506020028101906112699190615564565b604051611277929190615360565b60405180910390a1508061128a8161566e565b915050610f87565b506112c883661cd958dd5c995960ca1b6112ac848a6155f6565b6112bf906801bc16d674ec8000006155d7565b8c92919061362e565b6112e083866112d7848a6155f6565b8c92919061387b565b6112ef83856112bf848a6155f6565b611315898976746f74616c50726f706f73656456616c696461746f727360481b8961362e565b611339898974746f74616c41637469766556616c696461746f727360581b8961387b565b5061061a93508692506113589150849050670de0b6b3a76400006155d7565b869190613568565b60006113768585858589600101600501546138d3565b95945050505050565b60408051606081018252600180825260208201819052918101919091526113ac9084908490600090613373565b6040516355e66bad60e01b815260048101849052602481018390526001600160a01b03821660448201527390e9b7b0b5401EC1D80B9539874c2F5ADFEe8CfF906355e66bad9060640160006040518083038186803b15801561140d57600080fd5b505af4158015611421573d6000803e3d6000fd5b50505050505050565b6040805160608101825260008152600160208201819052918101829052611455918491849190613373565b61146e82826a1cdd185ad954185d5cd95960aa1b6138a9565b156114c65760405162461bcd60e51b815260206004820152602260248201527f5374616b655574696c733a207374616b696e6720616c72656164792070617573604482015261195960f21b6064820152608401610529565b6114e182826a1cdd185ad954185d5cd95960aa1b6001613589565b6040518181527ff18e8c210f1a92a818e663f01d9918cfde3c8b4919af0b6666f41ca61c7cec34906020015b60405180910390a15050565b6040805160608101825260008152600160208201819052918101829052611544918591859190613373565b61155d83836a0c4dedee6e8a6eed2e8c6d60ab1b6138a9565b42116115bc5760405162461bcd60e51b815260206004820152602860248201527f5374616b655574696c733a20626f6f73742069732063757272656e746c7920736044820152677769746368696e6760c01b6064820152608401610529565b6115f482691c1c9a5bdc909bdbdcdd60b21b6115eb86836e1dda5d1a191c985dd85b109bdbdcdd608a1b6138a9565b86929190613589565b611617826a0c4dedee6e8a6eed2e8c6d60ab1b8660180154426115eb91906155ab565b61163583836e1dda5d1a191c985dd85b109bdbdcdd608a1b84613589565b7fc4e4809b1d2eee26da1591233b49c17f3755402df1c9c71533883844bdf2403b828286601801544261166891906155ab565b6040805193845260208401929092529082015260600160405180910390a150505050565b604080516060810182526001808252602082018190529181018290526000916116b89186918691613373565b6116c28484613b0c565b156117355760405162461bcd60e51b815260206004820152603b60248201527f5374616b655574696c733a20796f752061726520696e20707269736f6e2c206760448201527f657420696e20746f756368207769746820676f7665726e616e636500000000006064820152608401610529565b8147101561179a5760405162461bcd60e51b815260206004820152602c60248201527f5374616b655574696c733a206e6f7420656e6f7567682062616c616e6365206960448201526b6e20506f7274616c20283f2960a01b6064820152608401610529565b60006117a7858585613b2e565b604051909150600090339085908381818185875af1925050503d80600081146117ec576040519150601f19603f3d011682016040523d82523d6000602084013e6117f1565b606091505b505090508180156117ff5750805b6113765760405162461bcd60e51b815260206004820152601e60248201527f5374616b655574696c733a204661696c656420746f2073656e642045544800006044820152606401610529565b60408051606081018252600180825260006020830181905292820192909252611878918591859190613373565b611883838383613bbe565b505050565b604051600a85019061189d90849084906152af565b908152602001604051809103902060070154421180156118e65750604051600a8501906118cd90849084906152af565b90815260405190819003602001902054600260ff909116145b1561191d5761191d838560010160090184846040516119069291906152af565b908152602001604051809103902060030154613d2c565b50505050565b6040805160608101825260008082526001602083015291810182905261194e90869086908490613373565b66038d7ea4c6800034116119a45760405162461bcd60e51b815260206004820152601f60248201527f5374616b655574696c733a206174206c6561737420302e3030312065746820006044820152606401610529565b4282116119f35760405162461bcd60e51b815260206004820152601c60248201527f5374616b655574696c733a20646561646c696e65206e6f74206d6574000000006044820152606401610529565b6119fd858561209e565b611a495760405162461bcd60e51b815260206004820152601a60248201527f5374616b655574696c733a206d696e74696e67207061757365640000000000006044820152606401610529565b6000611a558686613667565b6001600160a01b03166314a6bf0f6040518163ffffffff1660e01b815260040160206040518083038186803b158015611a8d57600080fd5b505afa158015611aa1573d6000803e3d6000fd5b505050506040513d601f19601f82011682018060405250810190611ac59190614ce9565b9050348110611ae557611add878733883489896136e3565b915050611376565b600034670de0b6b3a7640000831115611b1757611b088989338a8760008b6136e3565b9150611b1483826155f6565b90505b885460405163f759cc3b60e01b8152600481018990526000916001600160a01b03169063f759cc3b9060240160206040518083038186803b158015611b5b57600080fd5b505afa158015611b6f573d6000803e3d6000fd5b505050506040513d601f19601f82011682018060405250810190611b939190614ce9565b8a54604080516396ce079560e01b815290516001600160a01b03909216916396ce079591600480820192602092909190829003018186803b158015611bd757600080fd5b505afa158015611beb573d6000803e3d6000fd5b505050506040513d601f19601f82011682018060405250810190611c0f9190614ce9565b611c1990846155d7565b611c2391906155c3565b8a5460405163731133e960e01b8152336004820152602481018b90526044810183905260806064820152600060848201529192506001600160a01b03169063731133e99060a401600060405180830381600087803b158015611c8457600080fd5b505af1158015611c98573d6000803e3d6000fd5b50611cb592508b91508a905066737572706c757360c81b8561387b565b86611cc082856155ab565b1015611d0e5760405162461bcd60e51b815260206004820152601d60248201527f5374616b655574696c733a206c657373207468616e206d696e674554480000006044820152606401610529565b611d1a8a6001016135b1565b15611d5e576000611d4e611d316201518042615689565b611d3b90426155f6565b6936b4b73a213ab33332b960b11b613602565b9050611d5c8a8a838561387b565b505b611d6881846155ab565b9a9950505050505050505050565b6040805160608101825260008152600160208201819052918101829052611da1918491849190613373565b611dba82826a1cdd185ad954185d5cd95960aa1b6138a9565b600114611e185760405162461bcd60e51b815260206004820152602660248201527f5374616b655574696c733a207374616b696e6720616c7265616479204e4f54206044820152651c185d5cd95960d21b6064820152608401610529565b611e3382826a1cdd185ad954185d5cd95960aa1b6000613589565b6040518181527f99e9115f189244af0fdf309a161ca24f1a1acb222a66a0840caa7b2d48e4ec019060200161150d565b6000600a850183838381611e7957611e796156df565b9050602002810190611e8b9190615564565b604051611e999291906152af565b9081526040805191829003602090810183206003015460608401835260018085526000928501839052928401919091529250611ed89186918491613373565b60005b8281101561061a57600a8601848483818110611ef957611ef96156df565b9050602002810190611f0b9190615564565b604051611f199291906152af565b90815260405190819003602001902054600260ff90911614611f3a57600080fd5b81600a8701858584818110611f5157611f516156df565b9050602002810190611f639190615564565b604051611f719291906152af565b90815260200160405180910390206003015414611f8d57600080fd5b6003600a8701858584818110611fa557611fa56156df565b9050602002810190611fb79190615564565b604051611fc59291906152af565b908152604051908190036020019020805460ff9290921660ff199092169190911790557f5e69ec28ebc1f4385eadf0f37268df9a109addb8e0992e1efad2609670cb25dc600a870185858481811061201f5761201f6156df565b90506020028101906120319190615564565b60405161203f9291906152af565b908152602001604051809103902060020154858584818110612063576120636156df565b90506020028101906120759190615564565b6040516120849392919061554a565b60405180910390a1806120968161566e565b915050611edb565b60006120b983836a1cdd185ad954185d5cd95960aa1b6138a9565b1580156104fc57506120cb83836135e4565b6001600160a01b0316638650c0726040518163ffffffff1660e01b815260040160206040518083038186803b15801561210357600080fd5b505afa158015612117573d6000803e3d6000fd5b505050506040513d601f19601f8201168201806040525081019061213b9190614ccc565b159392505050565b60006121678361215f8468616c6c6f77616e636560b81b613602565b8691906138a9565b949350505050565b6060600061219184846f0d2dce8cae4ccc2c6cae698cadccee8d60831b6138a9565b905060008167ffffffffffffffff8111156121ae576121ae6156f5565b6040519080825280602002602001820160405280156121d7578160200160208202803683370190505b50905060005b8281101561224457612208856122008369696e746572666163657360b01b613602565b889190613d96565b82828151811061221a5761221a6156df565b6001600160a01b03909216602092830291909101909101528061223c8161566e565b9150506121dd565b50949350505050565b60408051606081018252600180825260208201819052918101829052612277918591859190613373565b836016015481111561229b5760405162461bcd60e51b81526004016105299061543c565b60405163d236b06160e01b81526004810184905260248101839052604481018290527390e9b7b0b5401EC1D80B9539874c2F5ADFEe8CfF9063d236b0619060640160006040518083038186803b1580156122f457600080fd5b505af4158015612308573d6000803e3d6000fd5b5050505050505050565b85601601548311156123365760405162461bcd60e51b81526004016105299061543c565b6040805160a08101825287546001600160a01b03908116825284811660208084019190915260128a015482168385015260138a0154821660608085019190915260148b015490921660808401528351918201845287825281018690526015890154818401529151631de8080b60e31b8152909190600090819081907390e9b7b0b5401EC1D80B9539874c2F5ADFEe8CfF9063ef404058906123e1908d9088908a908c906004016154d4565b60606040518083038186803b1580156123f957600080fd5b505af415801561240d573d6000803e3d6000fd5b505050506040513d601f19601f820116820180604052508101906124319190614c62565b92509250925061249189731dda5d1a191c985dd85b10dc9959195b9d1a585b60621b61248886604080516001600160a01b0392909216600160f81b1760208084019190915281518084039091018152918101905290565b8d929190613dca565b61249d8b8b8b85613dfc565b8a546040516322af599760e01b8152670de0b6b3a76400006004820152602481018b90526001600160a01b03909116906322af599790604401600060405180830381600087803b1580156124f057600080fd5b505af1158015612504573d6000803e3d6000fd5b5050505060118b015460405163f2fde38b60e01b81526001600160a01b0391821660048201529082169063f2fde38b90602401600060405180830381600087803b15801561255157600080fd5b505af1158015612565573d6000803e3d6000fd5b50508c5460405163a22cb46560e01b81526001600160a01b03858116600483015260016024830152909116925063a22cb4659150604401600060405180830381600087803b1580156125b657600080fd5b505af11580156125ca573d6000803e3d6000fd5b505050505050505050505050505050565b6040805160608101825260008082526001602083015291810182905261260690879087908490613373565b4282116126555760405162461bcd60e51b815260206004820152601c60248201527f5374616b655574696c733a20646561646c696e65206e6f74206d6574000000006044820152606401610529565b8654604051627eeac760e11b8152306004820152602481018790526000916001600160a01b03169062fdd58e9060440160206040518083038186803b15801561269d57600080fd5b505afa1580156126b1573d6000803e3d6000fd5b505050506040513d601f19601f820116820180604052508101906126d59190614ce9565b8854604051637921219560e11b81529192506001600160a01b03169063f242432a9061270b90339030908b908b906004016152db565b600060405180830381600087803b15801561272557600080fd5b505af1158015612739573d6000803e3d6000fd5b50508954604051627eeac760e11b8152306004820152602481018a90528493506001600160a01b03909116915062fdd58e9060440160206040518083038186803b15801561278657600080fd5b505afa15801561279a573d6000803e3d6000fd5b505050506040513d601f19601f820116820180604052508101906127be9190614ce9565b6127c891906155f6565b601789015490955090506127e98787681a5b9a5d1a585d195960ba1b6138a9565b6127f391906155ab565b42111561280b5761280687878787613fa5565b945090505b83156128e25761281b8686613667565b6001600160a01b031663916955866001600087878610156128455761284086896155f6565b612848565b60005b6040516001600160e01b031960e087901b16815260ff9485166004820152939092166024840152604483015260648201526084810185905260a401602060405180830381600087803b15801561289d57600080fd5b505af11580156128b1573d6000803e3d6000fd5b505050506040513d601f19601f820116820180604052508101906128d59190614ce9565b6128df90826155ab565b90505b604051600090339083908381818185875af1925050503d8060008114612924576040519150601f19603f3d011682016040523d82523d6000602084013e612929565b606091505b505090508061297a5760405162461bcd60e51b815260206004820181905260248201527f5374616b655574696c733a204661696c656420746f2073656e642045746865726044820152606401610529565b509695505050505050565b604080516060810182526001808252600060208301819052928201929092526129b2918991889190613373565b604080516060810182526000808252600160208301819052928201929092526129df918991899190613373565b6129e98786613b0c565b15612a5c5760405162461bcd60e51b815260206004820152603f60248201527f5374616b655574696c733a206f70657261746f7220697320696e20707269736f60448201527f6e2c2067657420696e20746f756368207769746820676f7665726e616e6365006064820152608401610529565b828114612ac65760405162461bcd60e51b815260206004820152603260248201527f5374616b655574696c733a207075626b65797320616e64207369676e617475726044820152710cae6409c9ea840e6c2daca40d8cadccee8d60731b6064820152608401610529565b8215801590612ad6575060408311155b612b1d5760405162461bcd60e51b81526020600482015260186024820152775374616b655574696c733a204d4158203634206e6f64657360401b6044820152606401610529565b600488015483612b48898876746f74616c50726f706f73656456616c696461746f727360481b6138a9565b612b6b8a8974746f74616c41637469766556616c696461746f727360581b6138a9565b612b7591906155ab565b612b7f91906155ab565b1115612be25760405162461bcd60e51b815260206004820152602c60248201527f5374616b655574696c733a204963654265617220646f6573204e4f54206c696b60448201526b65206d6f6e6f706f6c69657360a01b6064820152608401610529565b612bed878787612143565b83612c1788612c0f896f61637469766556616c696461746f727360801b613602565b8b91906138a9565b612c4289612c3a8a7170726f706f73656456616c696461746f727360701b613602565b8c91906138a9565b612c4c91906155ab565b612c5691906155ab565b1115612ca45760405162461bcd60e51b815260206004820181905260248201527f5374616b655574696c733a204e4f5420656e6f75676820616c6c6f77616e63656044820152606401610529565b612cb7836801bc16d674ec8000006155d7565b612ccc888866737572706c757360c81b6138a9565b1015612d1a5760405162461bcd60e51b815260206004820152601e60248201527f5374616b655574696c733a204e4f5420656e6f75676820737572706c757300006044820152606401610529565b612d3885612d30670de0b6b3a7640000866155d7565b899190613b2e565b50612d648666737572706c757360c81b612d5b866801bc16d674ec8000006155d7565b8a92919061362e565b612d8f86661cd958dd5c995960ca1b612d86866801bc16d674ec8000006155d7565b8a92919061387b565b612dbb86612db2877170726f706f73656456616c696461746f727360701b613602565b8991908661387b565b612de1878676746f74616c50726f706f73656456616c696461746f727360481b8661387b565b600588018054849190600090612df89084906155ab565b90915550506040805180820190915260009080612e158a8a6142ad565b8152602001612e248a896142ad565b905290506000612e4c8989731dda5d1a191c985dd85b10dc9959195b9d1a585b60621b613999565b90506000612e6d8a896e1d985b1a59185d1bdc94195c9a5bd9608a1b6138a9565b612e7790426155ab565b60058c0154909150600090612e8d9060016155ab565b905060005b8781101561329e57600a8d01898983818110612eb057612eb06156df565b9050602002810190612ec29190615564565b604051612ed09291906152af565b9081526040519081900360200190205460ff1615612f455760405162461bcd60e51b815260206004820152602c60248201527f5374616b655574696c733a205075626b657920616c726561647920757365642060448201526b1bdc88185b1a595b985d195960a21b6064820152608401610529565b6030898983818110612f5957612f596156df565b9050602002810190612f6b9190615564565b905014612fba5760405162461bcd60e51b815260206004820152601f60248201527f5374616b655574696c733a205055424b45595f4c454e475448204552524f52006044820152606401610529565b6060878783818110612fce57612fce6156df565b9050602002810190612fe09190615564565b90501461303a5760405162461bcd60e51b815260206004820152602260248201527f5374616b655574696c733a205349474e41545552455f4c454e4754482045525260448201526127a960f11b6064820152608401610529565b6130ca89898381811061304f5761304f6156df565b90506020028101906130619190615564565b868a8a86818110613074576130746156df565b90506020028101906130869190615564565b8080601f016020809104026020016040519081016040528093929190818152602001838380828437600092019190915250670de0b6b3a76400009250613a4b915050565b60408051610120810190915260018152602081016130e883856155ab565b815260208082018e9052604082018d90528751606083015287015160808201524260a082015260c0810185905260e00188888481811061312a5761312a6156df565b905060200281019061313c9190615564565b8080601f0160208091040260200160405190810160405280939291908181526020018383808284376000920191909152505050915250600a8e018a8a84818110613188576131886156df565b905060200281019061319a9190615564565b6040516131a89291906152af565b90815260408051602092819003830190208351815460ff191660ff909116178155838301516001820155908301516002820155606083015160038201556080830151600482015560a0830151600582015560c0830151600682015560e083015160078201556101008301518051919261322992600885019290910190614b7d565b509050507f4d20e41c35e82c2be5c6aec202394b90627345c43e9b763e6f2389c417278a2d898983818110613260576132606156df565b90506020028101906132729190615564565b8d8d60405161328494939291906153c1565b60405180910390a1806132968161566e565b915050612e92565b50505050505050505050505050565b604080516060810182526000808252600160208301819052928201839052916132d99187918791613373565b6040805160608101825260018152600060208201819052918101829052613304918791869190613373565b6133278461331e8568616c6c6f77616e636560b81b613602565b87919085613589565b60408051858152602081018590529081018390527f06ef86357fa27838732e0c7206341897ec58306010a37af61bdfeaf5617248d19060600160405180910390a1506001949350505050565b81156134005761339184846936b0b4b73a30b4b732b960b11b613d96565b6001600160a01b0316336001600160a01b0316146134005760405162461bcd60e51b815260206004820152602660248201527f4d61696e7461696e65725574696c733a2073656e646572204e4f54206d61696e6044820152653a30b4b732b960d11b6064820152608401610529565b60006134148585635459504560e01b6138a9565b905061342d8585681a5b9a5d1a585d195960ba1b6138a9565b6134855760405162461bcd60e51b8152602060048201526024808201527f4d61696e7461696e65725574696c733a204944206973206e6f7420696e697469604482015263185d195960e21b6064820152608401610529565b80600414156134f7578160005b602002015115156001146134f25760405162461bcd60e51b815260206004820152602160248201527f4d61696e7461696e65725574696c733a2054595045204e4f5420616c6c6f77656044820152601960fa1b6064820152608401610529565b613561565b806005141561350857816001613492565b806006141561351957816002613492565b60405162461bcd60e51b815260206004820152601d60248201527f4d61696e7461696e65725574696c733a20696e76616c696420545950450000006044820152606401610529565b5050505050565b600061357f8484651dd85b1b195d60d21b8561387b565b5060019392505050565b8084600101600061359a8686613602565b815260208101919091526040016000205550505050565b60006107086135c36201518042615689565b111580156104ff57506135d8610708426155f6565b82600201541092915050565b60006104fc83836d6d696e69476f7665726e616e636560901b613d96565b604080516020808201949094528082019290925280518083038201815260609092019052805191012090565b8084600101600061363f8686613602565b8152602001908152602001600020600082825461365c91906155f6565b909155505050505050565b60006104fc83836d1dda5d1a191c985dd85b141bdbdb60921b613d96565b6000426136a184846a0c4dedee6e8a6eed2e8c6d60ab1b6138a9565b11156136c6576136bf8383691c1c9a5bdc909bdbdcdd60b21b6138a9565b90506104ff565b6104fc83836e1dda5d1a191c985dd85b109bdbdcdd608a1b6138a9565b60006136ef8786613667565b6040516348b4aac360e11b815260006004820152600160248201526044810186905260648101859052608481018490526001600160a01b039190911690639169558690869060a4016020604051808303818588803b15801561375057600080fd5b505af1158015613764573d6000803e3d6000fd5b50505050506040513d601f19601f820116820180604052508101906137899190614ce9565b90506001600160a01b038616613808578754604051637a94c56560e11b815230600482015260248101879052604481018390526001600160a01b039091169063f5298aca90606401600060405180830381600087803b1580156137eb57600080fd5b505af11580156137ff573d6000803e3d6000fd5b50505050613870565b8754604051637921219560e11b81526001600160a01b039091169063f242432a9061383d9030908a908a9087906004016152db565b600060405180830381600087803b15801561385757600080fd5b505af115801561386b573d6000803e3d6000fd5b505050505b979650505050505050565b8084600101600061388c8686613602565b8152602001908152602001600020600082825461365c91906155ab565b60008360010160006138bb8585613602565b81526020019081526020016000205490509392505050565b60006138e4600187018585856142f4565b801561398f575061391d858760010160090186866040516139069291906152af565b9081526020016040518091039020600201546135e4565b6001600160a01b0316638650c0726040518163ffffffff1660e01b815260040160206040518083038186803b15801561395557600080fd5b505afa158015613969573d6000803e3d6000fd5b505050506040513d601f19601f8201168201806040525081019061398d9190614ccc565b155b9695505050505050565b60608360020160006139ab8585613602565b815260200190815260200160002080546139c490615639565b80601f01602080910402602001604051908101604052809291908181526020018280546139f090615639565b8015613a3d5780601f10613a1257610100808354040283529160200191613a3d565b820191906000526020600020905b815481529060010190602001808311613a2057829003601f168201915b505050505090509392505050565b6f219ab540356cbb839cbe05303d7705fa6001600160a01b031663228951188287878787613ab38c8c8080601f0160208091040260200160405190810160405280939291908181526020018383808284376000920191909152508e92508d91508c905061435a565b6040518763ffffffff1660e01b8152600401613ad3959493929190615374565b6000604051808303818588803b158015613aec57600080fd5b505af1158015613b00573d6000803e3d6000fd5b50505050505050505050565b6000613b248383671c995b19585cd95960c21b6138a9565b4211159392505050565b600081613b458585651dd85b1b195d60d21b6138a9565b1015613ba95760405162461bcd60e51b815260206004820152602d60248201527f4d61696e7461696e65725574696c733a204e4f5420656e6f7567682062616c6160448201526c1b98d9481a5b881dd85b1b195d609a1b6064820152608401610529565b61357f8484651dd85b1b195d60d21b8561362e565b6276a700811015613be15760405162461bcd60e51b815260040161052990615480565b6309660180811115613c055760405162461bcd60e51b8152600401610529906153e8565b613c1f83836b0e0cae4d2dec8a6eed2e8c6d60a31b6138a9565b4211613c7f5760405162461bcd60e51b815260206004820152602960248201527f5374616b655574696c733a20706572696f642069732063757272656e746c7920604482015268737769746368696e6760b81b6064820152608401610529565b613caf826a1c1c9a5bdc94195c9a5bd960aa1b6115eb86836e1d985b1a59185d1bdc94195c9a5bd9608a1b6138a9565b613cd0826b0e0cae4d2dec8a6eed2e8c6d60a31b6115eb6203f480426155ab565b613cee83836e1d985b1a59185d1bdc94195c9a5bd9608a1b84613589565b60408051838152602081018390527fe0113e91eb2c77db54ab5f4e1d8116cd63fe74f4efd73c65aa7827d2f34403ed910160405180910390a1505050565b613d5281671c995b19585cd95960c21b613d4962278d00426155ab565b85929190613589565b7f6a740d28273a335dabd953f22fd145fdc11323629c3ff8717eb28f53b227e7fd81613d8162278d00426155ab565b6040805192835260208301919091520161150d565b6000836003016000613da88585613602565b81526020810191909152604001600020546001600160a01b0316949350505050565b80846002016000613ddb8686613602565b81526020019081526020016000209080519060200190613561929190614b7d565b6000613e1c84846f0d2dce8cae4ccc2c6cae698cadccee8d60831b6138a9565b855460405163fcd295e360e01b81526001600160a01b0385811660048301526024820187905292935091169063fcd295e39060440160206040518083038186803b158015613e6957600080fd5b505afa158015613e7d573d6000803e3d6000fd5b505050506040513d601f19601f82011682018060405250810190613ea19190614ccc565b15613eee5760405162461bcd60e51b815260206004820152601d60248201527f5374616b655574696c733a20616c726561647920696e746572666163650000006044820152606401610529565b613f1283613f098369696e746572666163657360b01b613602565b86919085614746565b613f3284846f0d2dce8cae4ccc2c6cae698cadccee8d60831b600161387b565b84546040516327b03e0160e21b81526001600160a01b038481166004830152602482018690526001604483015290911690639ec0f80490606401600060405180830381600087803b158015613f8657600080fd5b505af1158015613f9a573d6000803e3d6000fd5b505050505050505050565b835460405163f759cc3b60e01b815260048101849052600091829182916001600160a01b03169063f759cc3b9060240160206040518083038186803b158015613fed57600080fd5b505afa158015614001573d6000803e3d6000fd5b505050506040513d601f19601f820116820180604052508101906140259190614ce9565b8754604080516396ce079560e01b8152905192935086926000926001600160a01b0316916396ce0795916004808301926020929190829003018186803b15801561406e57600080fd5b505afa158015614082573d6000803e3d6000fd5b505050506040513d601f19601f820116820180604052508101906140a69190614ce9565b6140b084846155d7565b6140ba91906155c3565b905060006140d3898966737572706c757360c81b6138a9565b9050808210614173578954604080516396ce079560e01b81529051929350839286926001600160a01b0316916396ce0795916004808301926020929190829003018186803b15801561412457600080fd5b505afa158015614138573d6000803e3d6000fd5b505050506040513d601f19601f8201168201806040525081019061415c9190614ce9565b61416690846155d7565b61417091906155c3565b92505b6000806141828b8b868861478f565b909250905061419d8b8b66737572706c757360c81b8761362e565b8b546001600160a01b031663f5298aca308c6141b9858a6155f6565b6040516001600160e01b031960e086901b1681526001600160a01b03909316600484015260248301919091526044820152606401600060405180830381600087803b15801561420757600080fd5b505af115801561421b573d6000803e3d6000fd5b5050505061422b8c6001016135b1565b1561427b57600061425f6142426201518042615689565b61424c90426155f6565b69313ab937213ab33332b960b11b613602565b90506142798b82614270858a6155f6565b8f92919061387b565b505b6142868260026155d7565b61429090856155f6565b61429a868b6155f6565b9750975050505050505094509492505050565b6000426142c78484680cccacaa6eed2e8c6d60bb1b6138a9565b11156142e3576136bf8383677072696f7246656560c01b6138a9565b6104fc83836266656560e81b6138a9565b600084600901848460405161430a9291906152af565b9081526040519081900360200190205460ff16600114801561137657508185600901858560405161433c9291906152af565b90815260200160405180910390206001015411159050949350505050565b6000670de0b6b3a76400008210156143c35760405162461bcd60e51b815260206004820152602660248201527f4465706f736974436f6e74726163743a206465706f7369742076616c756520746044820152656f6f206c6f7760d01b6064820152608401610529565b6143d1633b9aca0083615689565b1561443a5760405162461bcd60e51b815260206004820152603360248201527f4465706f736974436f6e74726163743a206465706f7369742076616c7565206e6044820152726f74206d756c7469706c65206f66206777656960681b6064820152608401610529565b600061444a633b9aca00846155c3565b905060006002614459886148fa565b60405161446691906152bf565b602060405180830381855afa158015614483573d6000803e3d6000fd5b5050506040513d601f19601f820116820180604052508101906144a69190614ce9565b905060006002806144ba8860006040614990565b6040516144c791906152bf565b602060405180830381855afa1580156144e4573d6000803e3d6000fd5b5050506040513d601f19601f820116820180604052508101906145079190614ce9565b60026145276145228a604061451d8160606155f6565b614990565b6148fa565b60405161453491906152bf565b602060405180830381855afa158015614551573d6000803e3d6000fd5b5050506040513d601f19601f820116820180604052508101906145749190614ce9565b60408051602081019390935282015260600160408051601f19818403018152908290526145a0916152bf565b602060405180830381855afa1580156145bd573d6000803e3d6000fd5b5050506040513d601f19601f820116820180604052508101906145e09190614ce9565b90506000600280848a6040516020016145fa929190615289565b60408051601f1981840301815290829052614614916152bf565b602060405180830381855afa158015614631573d6000803e3d6000fd5b5050506040513d601f19601f820116820180604052508101906146549190614ce9565b600261465f87614a9c565b604080516020810192909252810186905260600160408051601f198184030181529082905261468d916152bf565b602060405180830381855afa1580156146aa573d6000803e3d6000fd5b5050506040513d601f19601f820116820180604052508101906146cd9190614ce9565b60408051602081019390935282015260600160408051601f19818403018152908290526146f9916152bf565b602060405180830381855afa158015614716573d6000803e3d6000fd5b5050506040513d601f19601f820116820180604052508101906147399190614ce9565b9998505050505050505050565b808460030160006147578686613602565b815260200190815260200160002060006101000a8154816001600160a01b0302191690836001600160a01b0316021790555050505050565b600080600061479e8787613667565b6001600160a01b031663d4cadf686040518163ffffffff1660e01b815260040160206040518083038186803b1580156147d657600080fd5b505afa1580156147ea573d6000803e3d6000fd5b505050506040513d601f19601f8201168201806040525081019061480e9190614ce9565b905060026402540be40061482283886155d7565b61482c91906155c3565b61483691906155c3565b925060026402540be40061484a83876155d7565b61485491906155c3565b61485e91906155c3565b915061486a8787613667565b60405163b150798960e01b815260048101859052602481018490526001600160a01b03919091169063b150798990859060440160408051808303818588803b1580156148b557600080fd5b505af11580156148c9573d6000803e3d6000fd5b50505050506040513d601f19601f820116820180604052508101906148ee919061518c565b50505094509492505050565b6060602082511015801561491057506040825111155b61491c5761491c61569d565b81516040141561492a575090565b6040805160208082528183019092526000916020820181803683370190505090506000602082015282516020141561496d576149668382614ae2565b9392505050565b614966836149858360008751604061451d91906155f6565b614ae2565b50919050565b60608161499e81601f6155ab565b10156149dd5760405162461bcd60e51b815260206004820152600e60248201526d736c6963655f6f766572666c6f7760901b6044820152606401610529565b6149e782846155ab565b84511015614a2b5760405162461bcd60e51b8152602060048201526011602482015270736c6963655f6f75744f66426f756e647360781b6044820152606401610529565b606082158015614a4a5760405191506000825260208201604052612244565b6040519150601f8416801560200281840101858101878315602002848b0101015b81831015614a83578051835260209283019201614a6b565b5050858452601f01601f19166040525050949350505050565b600081815b6008811015614aca57600892831b60ff831617929190911c90614ac38161566e565b9050614aa1565b508015614ad957614ad961569d565b5060c01b919050565b6060806040519050835180825260208201818101602087015b81831015614b13578051835260209283019201614afb565b50855184518101855292509050808201602086015b81831015614b40578051835260209283019201614b28565b508651929092011591909101601f01601f191660405250905092915050565b60405180604001604052806002906020820280368337509192915050565b828054614b8990615639565b90600052602060002090601f016020900481019282614bab5760008555614bf1565b82601f10614bc457805160ff1916838001178555614bf1565b82800160010185558215614bf1579182015b82811115614bf1578251825591602001919060010190614bd6565b50614bfd929150614c01565b5090565b5b80821115614bfd5760008155600101614c02565b60008083601f840112614c2857600080fd5b50813567ffffffffffffffff811115614c4057600080fd5b6020830191508360208260051b8501011115614c5b57600080fd5b9250929050565b600080600060608486031215614c7757600080fd5b8351614c828161570b565b6020850151909350614c938161570b565b6040850151909250614ca48161570b565b809150509250925092565b600060208284031215614cc157600080fd5b813561496681615723565b600060208284031215614cde57600080fd5b815161496681615723565b600060208284031215614cfb57600080fd5b5051919050565b60008060408385031215614d1557600080fd5b50508035926020909101359150565b600080600060608486031215614d3957600080fd5b83359250602084013591506040840135614ca48161570b565b600080600060608486031215614d6757600080fd5b505081359360208301359350604090920135919050565b60008060008060808587031215614d9457600080fd5b5050823594602084013594506040840135936060013592509050565b60008060008060608587031215614dc657600080fd5b8435935060208501359250604085013567ffffffffffffffff811115614deb57600080fd5b614df787828801614c16565b95989497509550505050565b60008060008060608587031215614e1957600080fd5b8435935060208501359250604085013567ffffffffffffffff80821115614e3f57600080fd5b818701915087601f830112614e5357600080fd5b813581811115614e6257600080fd5b886020828501011115614e7457600080fd5b95989497505060200194505050565b600080600080600060808688031215614e9b57600080fd5b853594506020860135935060408601359250606086013567ffffffffffffffff811115614ec757600080fd5b614ed388828901614c16565b969995985093965092949392505050565b60008060008060008060c08789031215614efd57600080fd5b863595506020870135945060408701359350606087013592506080870135614f248161570b565b915060a087013567ffffffffffffffff811115614f4057600080fd5b870160408101891015614f5257600080fd5b809150509295509295509295565b60008060008060008060c08789031215614f7957600080fd5b863595506020870135945060408701359350606087013592506080870135614fa08161570b565b8092505060a087013590509295509295509295565b60008060008060008060008060c0898b031215614fd157600080fd5b88359750602089013596506040890135955060608901359450608089013567ffffffffffffffff8082111561500557600080fd5b6150118c838d01614c16565b909650945060a08b013591508082111561502a57600080fd5b506150378b828c01614c16565b999c989b5096995094979396929594505050565b60008060008060008060008060008060e08b8d03121561506a57600080fd5b8a35995060208b0135985060408b0135975060608b0135965060808b013567ffffffffffffffff8082111561509e57600080fd5b6150aa8e838f01614c16565b909850965060a08d01359150808211156150c357600080fd5b6150cf8e838f01614c16565b909650945060c08d01359150808211156150e857600080fd5b506150f58d828e01614c16565b915080935050809150509295989b9194979a5092959850565b600080600080600060a0868803121561512657600080fd5b505083359560208501359550604085013594606081013594506080013592509050565b60008060008060008060c0878903121561516257600080fd5b505084359660208601359650604086013595606081013595506080810135945060a0013592509050565b6000806040838503121561519f57600080fd5b505080516020909101519092909150565b600082604081018360005b60028110156152295783830387528135601e198736030181126151dd57600080fd5b86018035602067ffffffffffffffff8211156151f857600080fd5b81360389131561520757600080fd5b6152148683838601615234565b998101999550939093019250506001016151bb565b509095945050505050565b81835281816020850137506000828201602090810191909152601f909101601f19169091010190565b6000815180845261527581602086016020860161560d565b601f01601f19169290920160200192915050565b828152600082516152a181602085016020870161560d565b919091016020019392505050565b8183823760009101908152919050565b600082516152d181846020870161560d565b9190910192915050565b6001600160a01b0394851681529290931660208301526040820152606081019190915260a06080820181905260009082015260c00190565b6020808252825182820181905260009190848201906040850190845b818110156153545783516001600160a01b03168352928401929184019160010161532f565b50909695505050505050565b602081526000612167602083018486615234565b608081526000615388608083018789615234565b828103602084015261539a818761525d565b905082810360408401526153ae818661525d565b9150508260608301529695505050505050565b6060815260006153d5606083018688615234565b6020830194909452506040015292915050565b60208082526034908201527f5374656b655574696c733a2073686f756c64206265206c657373207468616e2060408201527313505617d590531251105513d497d411549253d160621b606082015260800190565b60208082526024908201527f5374616b655574696c733a204d41585f4d41494e5441494e45525f4645452045604082015263292927a960e11b606082015260800190565b60208082526034908201527f5374656b655574696c733a2073686f756c64206265206d6f7265207468616e2060408201527313525397d590531251105513d497d411549253d160621b606082015260800190565b600061014086835260208084018760005b6003811015615502578151835291830191908301906001016154e5565b505050608084018660005b60058110156155335781516001600160a01b03168352918301919083019060010161550d565b5050505080610120840152613870818401856151b0565b838152604060208201526000611376604083018486615234565b6000808335601e1984360301811261557b57600080fd5b83018035915067ffffffffffffffff82111561559657600080fd5b602001915036819003821315614c5b57600080fd5b600082198211156155be576155be6156b3565b500190565b6000826155d2576155d26156c9565b500490565b60008160001904831182151516156155f1576155f16156b3565b500290565b600082821015615608576156086156b3565b500390565b60005b83811015615628578181015183820152602001615610565b8381111561191d5750506000910152565b600181811c9082168061564d57607f821691505b6020821081141561498a57634e487b7160e01b600052602260045260246000fd5b6000600019821415615682576156826156b3565b5060010190565b600082615698576156986156c9565b500690565b634e487b7160e01b600052600160045260246000fd5b634e487b7160e01b600052601160045260246000fd5b634e487b7160e01b600052601260045260246000fd5b634e487b7160e01b600052603260045260246000fd5b634e487b7160e01b600052604160045260246000fd5b6001600160a01b038116811461572057600080fd5b50565b801515811461572057600080fdfea26469706673582212205698564fdf69c8265ec355ef47823406017f52f4a08520ee3701c4c086629a8d64736f6c63430008070033",
  "deployedBytecode": "0x73000000000000000000000000000000000000000030146080604052600436106101b35760003560e01c806394bf980d11610103578063caafe848116100a1578063d30807f81161007b578063d30807f814610446578063e0b9dabe14610466578063f1016dfb14610486578063fd805ee5146104a657600080fd5b8063caafe848146103f3578063ccc68fc314610406578063d1dedac81461042657600080fd5b8063a4ff4e5e116100dd578063a4ff4e5e146103aa578063b1330288146103ca578063b3cd4254146103d4578063bbf1555c146103e057600080fd5b806394bf980d1461034a578063955ba8d31461036a5780639e8c22831461038a57600080fd5b80634993705611610170578063633074e71161014a578063633074e7146102db5780636d6079b2146102fb57806376b050541461031b57806383faca401461032a57600080fd5b8063499370561461028257806355e66bad1461029b578063569391b6146102bb57600080fd5b80630d552313146101b857806316614f5e146101ed578063303cb36f1461020f57806330d2c2ac1461022f5780633147a52a1461024f5780633a66037d1461026f575b600080fd5b8180156101c457600080fd5b506101d86101d3366004614d02565b6104c6565b60405190151581526020015b60405180910390f35b8180156101f957600080fd5b5061020d610208366004614f60565b610505565b005b81801561021b57600080fd5b5061020d61022a36600461504b565b610622565b81801561023b57600080fd5b5061020d61024a366004614d52565b610d16565b81801561025b57600080fd5b5061020d61026a366004614e83565b610d40565b6101d861027d366004614e03565b611360565b61028d630966018081565b6040519081526020016101e4565b8180156102a757600080fd5b5061020d6102b6366004614d24565b61137f565b8180156102c757600080fd5b5061020d6102d6366004614d02565b61142a565b8180156102e757600080fd5b5061020d6102f6366004614d7e565b611519565b81801561030757600080fd5b506101d8610316366004614d52565b61168c565b61028d670de0b6b3a764000081565b81801561033657600080fd5b5061020d610345366004614d52565b61184b565b81801561035657600080fd5b5061020d610365366004614e03565b611888565b81801561037657600080fd5b5061028d61038536600461510e565b611923565b81801561039657600080fd5b5061020d6103a5366004614d02565b611d76565b8180156103b657600080fd5b5061020d6103c5366004614db0565b611e63565b61028d6276a70081565b61028d6402540be40081565b6101d86103ee366004614d02565b61209e565b61028d610401366004614d52565b612143565b610419610414366004614d02565b61216f565b6040516101e49190615313565b81801561043257600080fd5b5061020d610441366004614d7e565b61224d565b81801561045257600080fd5b5061020d610461366004614ee4565b612312565b81801561047257600080fd5b5061028d610481366004615149565b6125db565b81801561049257600080fd5b5061020d6104a1366004614fb5565b612985565b8180156104b257600080fd5b506101d86104c1366004614d7e565b6132ad565b6040805160608101825260018082526000602083018190529282018390526104f19185918591613373565b6104fc838334613568565b90505b92915050565b85601601548311156105325760405162461bcd60e51b81526004016105299061543c565b60405180910390fd5b6276a7008110156105555760405162461bcd60e51b815260040161052990615480565b63096601808111156105795760405162461bcd60e51b8152600401610529906153e8565b604051635fae04e760e01b81526004810186905260248101859052604481018490526001600160a01b038316606482015273__$7cc3f5085d749a3b94d028420e2680a54c$__90635fae04e79060840160006040518083038186803b1580156105e157600080fd5b505af41580156105f5573d6000803e3d6000fd5b5061061a92508791508690506e1d985b1a59185d1bdc94195c9a5bd9608a1b84613589565b505050505050565b60028a01546001600160a01b0316331461067e5760405162461bcd60e51b815260206004820152601d60248201527f5374616b655574696c733a2073656e646572204e4f54204f5241434c450000006044820152606401610529565b61068a8a6001016135b1565b156106d75760405162461bcd60e51b815260206004820152601c60248201527f5374616b655574696c733a204f5241434c4520697320616374697665000000006044820152606401610529565b60006106e1614b5f565b6000805b888110156108a8576000888883818110610701576107016156df565b90506020020135905088888381811061071c5761071c6156df565b905060200201358561072e91906155ab565b9450868683818110610742576107426156df565b90506020020160208101906107579190614caf565b15610798576107676001846155ab565b92506801bc16d674ec8000008111156107945761078d6801bc16d674ec800000826155f6565b9050610798565b5060005b8015610895576402540be4008f6001016009018c8c858181106107bd576107bd6156df565b90506020028101906107cf9190615564565b6040516107dd9291906152af565b908152602001604051809103902060040154826107fa91906155d7565b61080491906155c3565b845185906108139083906155ab565b915081815250506402540be4008f6001016009018c8c85818110610839576108396156df565b905060200281019061084b9190615564565b6040516108599291906152af565b9081526020016040518091039020600501548261087691906155d7565b61088091906155c3565b6020850180516108919083906155ab565b9052505b50806108a08161566e565b9150506106e5565b5060006108b58d8d6135e4565b6001600160a01b031663c5dd6fee856040518263ffffffff1660e01b81526004016108e291815260200190565b602060405180830381600087803b1580156108fc57600080fd5b505af1158015610910573d6000803e3d6000fd5b505050506040513d601f19601f820116820180604052508101906109349190614ccc565b9050806109835760405162461bcd60e51b815260206004820152601b60248201527f5374616b655574696c733a204661696c656420746f20636c61696d00000000006044820152606401610529565b506109ae8b6109a58c6f61637469766556616c696461746f727360801b613602565b8e91908461362e565b6109d28c8b74746f74616c41637469766556616c696461746f727360581b8461362e565b602082015182516109e391906155ab565b6109ed90846155f6565b92505060006109fc8c8c613667565b6001600160a01b03166314a6bf0f6040518163ffffffff1660e01b815260040160206040518083038186803b158015610a3457600080fd5b505afa158015610a48573d6000803e3d6000fd5b505050506040513d601f19601f82011682018060405250810190610a6c9190614ce9565b9050670de0b6b3a7640000811115610cc85782811115610a895750815b6000610a958d8d613685565b90508015610ca6576000610aa98e8e613667565b60405163a95b089f60e01b81526000600482015260016024820152604481018590526001600160a01b03919091169063a95b089f9060640160206040518083038186803b158015610af957600080fd5b505afa158015610b0d573d6000803e3d6000fd5b505050506040513d601f19601f82011682018060405250810190610b319190614ce9565b90508e60000160009054906101000a90046001600160a01b03166001600160a01b031663f759cc3b8e6040518263ffffffff1660e01b8152600401610b7891815260200190565b60206040518083038186803b158015610b9057600080fd5b505afa158015610ba4573d6000803e3d6000fd5b505050506040513d601f19601f82011682018060405250810190610bc89190614ce9565b8f54604080516396ce079560e01b815290516001600160a01b03909216916396ce079591600480820192602092909190829003018186803b158015610c0c57600080fd5b505afa158015610c20573d6000803e3d6000fd5b505050506040513d601f19601f82011682018060405250810190610c449190614ce9565b610c4e90856155d7565b610c5891906155c3565b610c6290826155f6565b90506402540be400610c7483836155d7565b610c7e91906155c3565b91508184600160200201818151610c9591906155ab565b905250610ca282866155f6565b9450505b50610cba8d8d60008e8560006000196136e3565b50610cc581846155f6565b92505b8215610ce457610ce48c8c66737572706c757360c81b8661387b565b610cf98b8360005b60200201518e9190613568565b50610d068a836001610cec565b5050505050505050505050505050565b610d288282635459504560e01b6138a9565b600b14610d3457600080fd5b60159092019190915550565b60408051606081018252600180825260006020830181905292820192909252610d6d918691869190613373565b610d79856001016135b1565b15610dc65760405162461bcd60e51b815260206004820152601c60248201527f5374616b655574696c733a204f5241434c4520697320616374697665000000006044820152606401610529565b8015801590610dd6575060408111155b610e1d5760405162461bcd60e51b81526020600482015260186024820152775374616b655574696c733a204d4158203634206e6f64657360401b6044820152606401610529565b600685015460005b82811015610ecc57610e5c8787868685818110610e4457610e446156df565b9050602002810190610e569190615564565b866138d3565b610eba5760405162461bcd60e51b815260206004820152602960248201527f5374616b655574696c733a204e4f5420616c6c207075626b65797320617265206044820152687374616b6561626c6560b81b6064820152608401610529565b80610ec48161566e565b915050610e25565b50506000610eed846f61637469766556616c696461746f727360801b613602565b90506000610f10857170726f706f73656456616c696461746f727360701b613602565b90506000600a880185858381610f2857610f286156df565b9050602002810190610f3a9190615564565b604051610f489291906152af565b9081526040519081900360200190206002015490506000610f818883731dda5d1a191c985dd85b10dc9959195b9d1a585b60621b613999565b90506000805b8681101561129257600a8b01888883818110610fa557610fa56156df565b9050602002810190610fb79190615564565b604051610fc59291906152af565b90815260200160405180910390206002015484146110ac5761101284661cd958dd5c995960ca1b610ff685856155f6565b611009906801bc16d674ec8000006155d7565b8d92919061362e565b61102a848761102185856155f6565b8d92919061387b565b611039848661100985856155f6565b905080600a8b01888883818110611052576110526156df565b90506020028101906110649190615564565b6040516110729291906152af565b9081526040519081900360200190206002015493506110a98a85731dda5d1a191c985dd85b10dc9959195b9d1a585b60621b613999565b92505b6000600a8c018989848181106110c4576110c46156df565b90506020028101906110d69190615564565b6040516110e49291906152af565b9081526020016040518091039020600801805461110090615639565b80601f016020809104026020016040519081016040528092919081815260200182805461112c90615639565b80156111795780601f1061114e57610100808354040283529160200191611179565b820191906000526020600020905b81548152906001019060200180831161115c57829003601f168201915b505050505090506111c9898984818110611195576111956156df565b90506020028101906111a79190615564565b86846111c4670de0b6b3a76400006801bc16d674ec8000006155f6565b613a4b565b6002600a8d018a8a858181106111e1576111e16156df565b90506020028101906111f39190615564565b6040516112019291906152af565b908152604051908190036020019020805460ff9290921660ff199092169190911790557fbc28e8595f241c3a0166b245c13eb3884c23fe15e7d51b7a9ab1395284fd9924898984818110611257576112576156df565b90506020028101906112699190615564565b604051611277929190615360565b60405180910390a1508061128a8161566e565b915050610f87565b506112c883661cd958dd5c995960ca1b6112ac848a6155f6565b6112bf906801bc16d674ec8000006155d7565b8c92919061362e565b6112e083866112d7848a6155f6565b8c92919061387b565b6112ef83856112bf848a6155f6565b611315898976746f74616c50726f706f73656456616c696461746f727360481b8961362e565b611339898974746f74616c41637469766556616c696461746f727360581b8961387b565b5061061a93508692506113589150849050670de0b6b3a76400006155d7565b869190613568565b60006113768585858589600101600501546138d3565b95945050505050565b60408051606081018252600180825260208201819052918101919091526113ac9084908490600090613373565b6040516355e66bad60e01b815260048101849052602481018390526001600160a01b038216604482015273__$7cc3f5085d749a3b94d028420e2680a54c$__906355e66bad9060640160006040518083038186803b15801561140d57600080fd5b505af4158015611421573d6000803e3d6000fd5b50505050505050565b6040805160608101825260008152600160208201819052918101829052611455918491849190613373565b61146e82826a1cdd185ad954185d5cd95960aa1b6138a9565b156114c65760405162461bcd60e51b815260206004820152602260248201527f5374616b655574696c733a207374616b696e6720616c72656164792070617573604482015261195960f21b6064820152608401610529565b6114e182826a1cdd185ad954185d5cd95960aa1b6001613589565b6040518181527ff18e8c210f1a92a818e663f01d9918cfde3c8b4919af0b6666f41ca61c7cec34906020015b60405180910390a15050565b6040805160608101825260008152600160208201819052918101829052611544918591859190613373565b61155d83836a0c4dedee6e8a6eed2e8c6d60ab1b6138a9565b42116115bc5760405162461bcd60e51b815260206004820152602860248201527f5374616b655574696c733a20626f6f73742069732063757272656e746c7920736044820152677769746368696e6760c01b6064820152608401610529565b6115f482691c1c9a5bdc909bdbdcdd60b21b6115eb86836e1dda5d1a191c985dd85b109bdbdcdd608a1b6138a9565b86929190613589565b611617826a0c4dedee6e8a6eed2e8c6d60ab1b8660180154426115eb91906155ab565b61163583836e1dda5d1a191c985dd85b109bdbdcdd608a1b84613589565b7fc4e4809b1d2eee26da1591233b49c17f3755402df1c9c71533883844bdf2403b828286601801544261166891906155ab565b6040805193845260208401929092529082015260600160405180910390a150505050565b604080516060810182526001808252602082018190529181018290526000916116b89186918691613373565b6116c28484613b0c565b156117355760405162461bcd60e51b815260206004820152603b60248201527f5374616b655574696c733a20796f752061726520696e20707269736f6e2c206760448201527f657420696e20746f756368207769746820676f7665726e616e636500000000006064820152608401610529565b8147101561179a5760405162461bcd60e51b815260206004820152602c60248201527f5374616b655574696c733a206e6f7420656e6f7567682062616c616e6365206960448201526b6e20506f7274616c20283f2960a01b6064820152608401610529565b60006117a7858585613b2e565b604051909150600090339085908381818185875af1925050503d80600081146117ec576040519150601f19603f3d011682016040523d82523d6000602084013e6117f1565b606091505b505090508180156117ff5750805b6113765760405162461bcd60e51b815260206004820152601e60248201527f5374616b655574696c733a204661696c656420746f2073656e642045544800006044820152606401610529565b60408051606081018252600180825260006020830181905292820192909252611878918591859190613373565b611883838383613bbe565b505050565b604051600a85019061189d90849084906152af565b908152602001604051809103902060070154421180156118e65750604051600a8501906118cd90849084906152af565b90815260405190819003602001902054600260ff909116145b1561191d5761191d838560010160090184846040516119069291906152af565b908152602001604051809103902060030154613d2c565b50505050565b6040805160608101825260008082526001602083015291810182905261194e90869086908490613373565b66038d7ea4c6800034116119a45760405162461bcd60e51b815260206004820152601f60248201527f5374616b655574696c733a206174206c6561737420302e3030312065746820006044820152606401610529565b4282116119f35760405162461bcd60e51b815260206004820152601c60248201527f5374616b655574696c733a20646561646c696e65206e6f74206d6574000000006044820152606401610529565b6119fd858561209e565b611a495760405162461bcd60e51b815260206004820152601a60248201527f5374616b655574696c733a206d696e74696e67207061757365640000000000006044820152606401610529565b6000611a558686613667565b6001600160a01b03166314a6bf0f6040518163ffffffff1660e01b815260040160206040518083038186803b158015611a8d57600080fd5b505afa158015611aa1573d6000803e3d6000fd5b505050506040513d601f19601f82011682018060405250810190611ac59190614ce9565b9050348110611ae557611add878733883489896136e3565b915050611376565b600034670de0b6b3a7640000831115611b1757611b088989338a8760008b6136e3565b9150611b1483826155f6565b90505b885460405163f759cc3b60e01b8152600481018990526000916001600160a01b03169063f759cc3b9060240160206040518083038186803b158015611b5b57600080fd5b505afa158015611b6f573d6000803e3d6000fd5b505050506040513d601f19601f82011682018060405250810190611b939190614ce9565b8a54604080516396ce079560e01b815290516001600160a01b03909216916396ce079591600480820192602092909190829003018186803b158015611bd757600080fd5b505afa158015611beb573d6000803e3d6000fd5b505050506040513d601f19601f82011682018060405250810190611c0f9190614ce9565b611c1990846155d7565b611c2391906155c3565b8a5460405163731133e960e01b8152336004820152602481018b90526044810183905260806064820152600060848201529192506001600160a01b03169063731133e99060a401600060405180830381600087803b158015611c8457600080fd5b505af1158015611c98573d6000803e3d6000fd5b50611cb592508b91508a905066737572706c757360c81b8561387b565b86611cc082856155ab565b1015611d0e5760405162461bcd60e51b815260206004820152601d60248201527f5374616b655574696c733a206c657373207468616e206d696e674554480000006044820152606401610529565b611d1a8a6001016135b1565b15611d5e576000611d4e611d316201518042615689565b611d3b90426155f6565b6936b4b73a213ab33332b960b11b613602565b9050611d5c8a8a838561387b565b505b611d6881846155ab565b9a9950505050505050505050565b6040805160608101825260008152600160208201819052918101829052611da1918491849190613373565b611dba82826a1cdd185ad954185d5cd95960aa1b6138a9565b600114611e185760405162461bcd60e51b815260206004820152602660248201527f5374616b655574696c733a207374616b696e6720616c7265616479204e4f54206044820152651c185d5cd95960d21b6064820152608401610529565b611e3382826a1cdd185ad954185d5cd95960aa1b6000613589565b6040518181527f99e9115f189244af0fdf309a161ca24f1a1acb222a66a0840caa7b2d48e4ec019060200161150d565b6000600a850183838381611e7957611e796156df565b9050602002810190611e8b9190615564565b604051611e999291906152af565b9081526040805191829003602090810183206003015460608401835260018085526000928501839052928401919091529250611ed89186918491613373565b60005b8281101561061a57600a8601848483818110611ef957611ef96156df565b9050602002810190611f0b9190615564565b604051611f199291906152af565b90815260405190819003602001902054600260ff90911614611f3a57600080fd5b81600a8701858584818110611f5157611f516156df565b9050602002810190611f639190615564565b604051611f719291906152af565b90815260200160405180910390206003015414611f8d57600080fd5b6003600a8701858584818110611fa557611fa56156df565b9050602002810190611fb79190615564565b604051611fc59291906152af565b908152604051908190036020019020805460ff9290921660ff199092169190911790557f5e69ec28ebc1f4385eadf0f37268df9a109addb8e0992e1efad2609670cb25dc600a870185858481811061201f5761201f6156df565b90506020028101906120319190615564565b60405161203f9291906152af565b908152602001604051809103902060020154858584818110612063576120636156df565b90506020028101906120759190615564565b6040516120849392919061554a565b60405180910390a1806120968161566e565b915050611edb565b60006120b983836a1cdd185ad954185d5cd95960aa1b6138a9565b1580156104fc57506120cb83836135e4565b6001600160a01b0316638650c0726040518163ffffffff1660e01b815260040160206040518083038186803b15801561210357600080fd5b505afa158015612117573d6000803e3d6000fd5b505050506040513d601f19601f8201168201806040525081019061213b9190614ccc565b159392505050565b60006121678361215f8468616c6c6f77616e636560b81b613602565b8691906138a9565b949350505050565b6060600061219184846f0d2dce8cae4ccc2c6cae698cadccee8d60831b6138a9565b905060008167ffffffffffffffff8111156121ae576121ae6156f5565b6040519080825280602002602001820160405280156121d7578160200160208202803683370190505b50905060005b8281101561224457612208856122008369696e746572666163657360b01b613602565b889190613d96565b82828151811061221a5761221a6156df565b6001600160a01b03909216602092830291909101909101528061223c8161566e565b9150506121dd565b50949350505050565b60408051606081018252600180825260208201819052918101829052612277918591859190613373565b836016015481111561229b5760405162461bcd60e51b81526004016105299061543c565b60405163d236b06160e01b815260048101849052602481018390526044810182905273__$7cc3f5085d749a3b94d028420e2680a54c$__9063d236b0619060640160006040518083038186803b1580156122f457600080fd5b505af4158015612308573d6000803e3d6000fd5b5050505050505050565b85601601548311156123365760405162461bcd60e51b81526004016105299061543c565b6040805160a08101825287546001600160a01b03908116825284811660208084019190915260128a015482168385015260138a0154821660608085019190915260148b015490921660808401528351918201845287825281018690526015890154818401529151631de8080b60e31b81529091906000908190819073__$7cc3f5085d749a3b94d028420e2680a54c$__9063ef404058906123e1908d9088908a908c906004016154d4565b60606040518083038186803b1580156123f957600080fd5b505af415801561240d573d6000803e3d6000fd5b505050506040513d601f19601f820116820180604052508101906124319190614c62565b92509250925061249189731dda5d1a191c985dd85b10dc9959195b9d1a585b60621b61248886604080516001600160a01b0392909216600160f81b1760208084019190915281518084039091018152918101905290565b8d929190613dca565b61249d8b8b8b85613dfc565b8a546040516322af599760e01b8152670de0b6b3a76400006004820152602481018b90526001600160a01b03909116906322af599790604401600060405180830381600087803b1580156124f057600080fd5b505af1158015612504573d6000803e3d6000fd5b5050505060118b015460405163f2fde38b60e01b81526001600160a01b0391821660048201529082169063f2fde38b90602401600060405180830381600087803b15801561255157600080fd5b505af1158015612565573d6000803e3d6000fd5b50508c5460405163a22cb46560e01b81526001600160a01b03858116600483015260016024830152909116925063a22cb4659150604401600060405180830381600087803b1580156125b657600080fd5b505af11580156125ca573d6000803e3d6000fd5b505050505050505050505050505050565b6040805160608101825260008082526001602083015291810182905261260690879087908490613373565b4282116126555760405162461bcd60e51b815260206004820152601c60248201527f5374616b655574696c733a20646561646c696e65206e6f74206d6574000000006044820152606401610529565b8654604051627eeac760e11b8152306004820152602481018790526000916001600160a01b03169062fdd58e9060440160206040518083038186803b15801561269d57600080fd5b505afa1580156126b1573d6000803e3d6000fd5b505050506040513d601f19601f820116820180604052508101906126d59190614ce9565b8854604051637921219560e11b81529192506001600160a01b03169063f242432a9061270b90339030908b908b906004016152db565b600060405180830381600087803b15801561272557600080fd5b505af1158015612739573d6000803e3d6000fd5b50508954604051627eeac760e11b8152306004820152602481018a90528493506001600160a01b03909116915062fdd58e9060440160206040518083038186803b15801561278657600080fd5b505afa15801561279a573d6000803e3d6000fd5b505050506040513d601f19601f820116820180604052508101906127be9190614ce9565b6127c891906155f6565b601789015490955090506127e98787681a5b9a5d1a585d195960ba1b6138a9565b6127f391906155ab565b42111561280b5761280687878787613fa5565b945090505b83156128e25761281b8686613667565b6001600160a01b031663916955866001600087878610156128455761284086896155f6565b612848565b60005b6040516001600160e01b031960e087901b16815260ff9485166004820152939092166024840152604483015260648201526084810185905260a401602060405180830381600087803b15801561289d57600080fd5b505af11580156128b1573d6000803e3d6000fd5b505050506040513d601f19601f820116820180604052508101906128d59190614ce9565b6128df90826155ab565b90505b604051600090339083908381818185875af1925050503d8060008114612924576040519150601f19603f3d011682016040523d82523d6000602084013e612929565b606091505b505090508061297a5760405162461bcd60e51b815260206004820181905260248201527f5374616b655574696c733a204661696c656420746f2073656e642045746865726044820152606401610529565b509695505050505050565b604080516060810182526001808252600060208301819052928201929092526129b2918991889190613373565b604080516060810182526000808252600160208301819052928201929092526129df918991899190613373565b6129e98786613b0c565b15612a5c5760405162461bcd60e51b815260206004820152603f60248201527f5374616b655574696c733a206f70657261746f7220697320696e20707269736f60448201527f6e2c2067657420696e20746f756368207769746820676f7665726e616e6365006064820152608401610529565b828114612ac65760405162461bcd60e51b815260206004820152603260248201527f5374616b655574696c733a207075626b65797320616e64207369676e617475726044820152710cae6409c9ea840e6c2daca40d8cadccee8d60731b6064820152608401610529565b8215801590612ad6575060408311155b612b1d5760405162461bcd60e51b81526020600482015260186024820152775374616b655574696c733a204d4158203634206e6f64657360401b6044820152606401610529565b600488015483612b48898876746f74616c50726f706f73656456616c696461746f727360481b6138a9565b612b6b8a8974746f74616c41637469766556616c696461746f727360581b6138a9565b612b7591906155ab565b612b7f91906155ab565b1115612be25760405162461bcd60e51b815260206004820152602c60248201527f5374616b655574696c733a204963654265617220646f6573204e4f54206c696b60448201526b65206d6f6e6f706f6c69657360a01b6064820152608401610529565b612bed878787612143565b83612c1788612c0f896f61637469766556616c696461746f727360801b613602565b8b91906138a9565b612c4289612c3a8a7170726f706f73656456616c696461746f727360701b613602565b8c91906138a9565b612c4c91906155ab565b612c5691906155ab565b1115612ca45760405162461bcd60e51b815260206004820181905260248201527f5374616b655574696c733a204e4f5420656e6f75676820616c6c6f77616e63656044820152606401610529565b612cb7836801bc16d674ec8000006155d7565b612ccc888866737572706c757360c81b6138a9565b1015612d1a5760405162461bcd60e51b815260206004820152601e60248201527f5374616b655574696c733a204e4f5420656e6f75676820737572706c757300006044820152606401610529565b612d3885612d30670de0b6b3a7640000866155d7565b899190613b2e565b50612d648666737572706c757360c81b612d5b866801bc16d674ec8000006155d7565b8a92919061362e565b612d8f86661cd958dd5c995960ca1b612d86866801bc16d674ec8000006155d7565b8a92919061387b565b612dbb86612db2877170726f706f73656456616c696461746f727360701b613602565b8991908661387b565b612de1878676746f74616c50726f706f73656456616c696461746f727360481b8661387b565b600588018054849190600090612df89084906155ab565b90915550506040805180820190915260009080612e158a8a6142ad565b8152602001612e248a896142ad565b905290506000612e4c8989731dda5d1a191c985dd85b10dc9959195b9d1a585b60621b613999565b90506000612e6d8a896e1d985b1a59185d1bdc94195c9a5bd9608a1b6138a9565b612e7790426155ab565b60058c0154909150600090612e8d9060016155ab565b905060005b8781101561329e57600a8d01898983818110612eb057612eb06156df565b9050602002810190612ec29190615564565b604051612ed09291906152af565b9081526040519081900360200190205460ff1615612f455760405162461bcd60e51b815260206004820152602c60248201527f5374616b655574696c733a205075626b657920616c726561647920757365642060448201526b1bdc88185b1a595b985d195960a21b6064820152608401610529565b6030898983818110612f5957612f596156df565b9050602002810190612f6b9190615564565b905014612fba5760405162461bcd60e51b815260206004820152601f60248201527f5374616b655574696c733a205055424b45595f4c454e475448204552524f52006044820152606401610529565b6060878783818110612fce57612fce6156df565b9050602002810190612fe09190615564565b90501461303a5760405162461bcd60e51b815260206004820152602260248201527f5374616b655574696c733a205349474e41545552455f4c454e4754482045525260448201526127a960f11b6064820152608401610529565b6130ca89898381811061304f5761304f6156df565b90506020028101906130619190615564565b868a8a86818110613074576130746156df565b90506020028101906130869190615564565b8080601f016020809104026020016040519081016040528093929190818152602001838380828437600092019190915250670de0b6b3a76400009250613a4b915050565b60408051610120810190915260018152602081016130e883856155ab565b815260208082018e9052604082018d90528751606083015287015160808201524260a082015260c0810185905260e00188888481811061312a5761312a6156df565b905060200281019061313c9190615564565b8080601f0160208091040260200160405190810160405280939291908181526020018383808284376000920191909152505050915250600a8e018a8a84818110613188576131886156df565b905060200281019061319a9190615564565b6040516131a89291906152af565b90815260408051602092819003830190208351815460ff191660ff909116178155838301516001820155908301516002820155606083015160038201556080830151600482015560a0830151600582015560c0830151600682015560e083015160078201556101008301518051919261322992600885019290910190614b7d565b509050507f4d20e41c35e82c2be5c6aec202394b90627345c43e9b763e6f2389c417278a2d898983818110613260576132606156df565b90506020028101906132729190615564565b8d8d60405161328494939291906153c1565b60405180910390a1806132968161566e565b915050612e92565b50505050505050505050505050565b604080516060810182526000808252600160208301819052928201839052916132d99187918791613373565b6040805160608101825260018152600060208201819052918101829052613304918791869190613373565b6133278461331e8568616c6c6f77616e636560b81b613602565b87919085613589565b60408051858152602081018590529081018390527f06ef86357fa27838732e0c7206341897ec58306010a37af61bdfeaf5617248d19060600160405180910390a1506001949350505050565b81156134005761339184846936b0b4b73a30b4b732b960b11b613d96565b6001600160a01b0316336001600160a01b0316146134005760405162461bcd60e51b815260206004820152602660248201527f4d61696e7461696e65725574696c733a2073656e646572204e4f54206d61696e6044820152653a30b4b732b960d11b6064820152608401610529565b60006134148585635459504560e01b6138a9565b905061342d8585681a5b9a5d1a585d195960ba1b6138a9565b6134855760405162461bcd60e51b8152602060048201526024808201527f4d61696e7461696e65725574696c733a204944206973206e6f7420696e697469604482015263185d195960e21b6064820152608401610529565b80600414156134f7578160005b602002015115156001146134f25760405162461bcd60e51b815260206004820152602160248201527f4d61696e7461696e65725574696c733a2054595045204e4f5420616c6c6f77656044820152601960fa1b6064820152608401610529565b613561565b806005141561350857816001613492565b806006141561351957816002613492565b60405162461bcd60e51b815260206004820152601d60248201527f4d61696e7461696e65725574696c733a20696e76616c696420545950450000006044820152606401610529565b5050505050565b600061357f8484651dd85b1b195d60d21b8561387b565b5060019392505050565b8084600101600061359a8686613602565b815260208101919091526040016000205550505050565b60006107086135c36201518042615689565b111580156104ff57506135d8610708426155f6565b82600201541092915050565b60006104fc83836d6d696e69476f7665726e616e636560901b613d96565b604080516020808201949094528082019290925280518083038201815260609092019052805191012090565b8084600101600061363f8686613602565b8152602001908152602001600020600082825461365c91906155f6565b909155505050505050565b60006104fc83836d1dda5d1a191c985dd85b141bdbdb60921b613d96565b6000426136a184846a0c4dedee6e8a6eed2e8c6d60ab1b6138a9565b11156136c6576136bf8383691c1c9a5bdc909bdbdcdd60b21b6138a9565b90506104ff565b6104fc83836e1dda5d1a191c985dd85b109bdbdcdd608a1b6138a9565b60006136ef8786613667565b6040516348b4aac360e11b815260006004820152600160248201526044810186905260648101859052608481018490526001600160a01b039190911690639169558690869060a4016020604051808303818588803b15801561375057600080fd5b505af1158015613764573d6000803e3d6000fd5b50505050506040513d601f19601f820116820180604052508101906137899190614ce9565b90506001600160a01b038616613808578754604051637a94c56560e11b815230600482015260248101879052604481018390526001600160a01b039091169063f5298aca90606401600060405180830381600087803b1580156137eb57600080fd5b505af11580156137ff573d6000803e3d6000fd5b50505050613870565b8754604051637921219560e11b81526001600160a01b039091169063f242432a9061383d9030908a908a9087906004016152db565b600060405180830381600087803b15801561385757600080fd5b505af115801561386b573d6000803e3d6000fd5b505050505b979650505050505050565b8084600101600061388c8686613602565b8152602001908152602001600020600082825461365c91906155ab565b60008360010160006138bb8585613602565b81526020019081526020016000205490509392505050565b60006138e4600187018585856142f4565b801561398f575061391d858760010160090186866040516139069291906152af565b9081526020016040518091039020600201546135e4565b6001600160a01b0316638650c0726040518163ffffffff1660e01b815260040160206040518083038186803b15801561395557600080fd5b505afa158015613969573d6000803e3d6000fd5b505050506040513d601f19601f8201168201806040525081019061398d9190614ccc565b155b9695505050505050565b60608360020160006139ab8585613602565b815260200190815260200160002080546139c490615639565b80601f01602080910402602001604051908101604052809291908181526020018280546139f090615639565b8015613a3d5780601f10613a1257610100808354040283529160200191613a3d565b820191906000526020600020905b815481529060010190602001808311613a2057829003601f168201915b505050505090509392505050565b6f219ab540356cbb839cbe05303d7705fa6001600160a01b031663228951188287878787613ab38c8c8080601f0160208091040260200160405190810160405280939291908181526020018383808284376000920191909152508e92508d91508c905061435a565b6040518763ffffffff1660e01b8152600401613ad3959493929190615374565b6000604051808303818588803b158015613aec57600080fd5b505af1158015613b00573d6000803e3d6000fd5b50505050505050505050565b6000613b248383671c995b19585cd95960c21b6138a9565b4211159392505050565b600081613b458585651dd85b1b195d60d21b6138a9565b1015613ba95760405162461bcd60e51b815260206004820152602d60248201527f4d61696e7461696e65725574696c733a204e4f5420656e6f7567682062616c6160448201526c1b98d9481a5b881dd85b1b195d609a1b6064820152608401610529565b61357f8484651dd85b1b195d60d21b8561362e565b6276a700811015613be15760405162461bcd60e51b815260040161052990615480565b6309660180811115613c055760405162461bcd60e51b8152600401610529906153e8565b613c1f83836b0e0cae4d2dec8a6eed2e8c6d60a31b6138a9565b4211613c7f5760405162461bcd60e51b815260206004820152602960248201527f5374616b655574696c733a20706572696f642069732063757272656e746c7920604482015268737769746368696e6760b81b6064820152608401610529565b613caf826a1c1c9a5bdc94195c9a5bd960aa1b6115eb86836e1d985b1a59185d1bdc94195c9a5bd9608a1b6138a9565b613cd0826b0e0cae4d2dec8a6eed2e8c6d60a31b6115eb6203f480426155ab565b613cee83836e1d985b1a59185d1bdc94195c9a5bd9608a1b84613589565b60408051838152602081018390527fe0113e91eb2c77db54ab5f4e1d8116cd63fe74f4efd73c65aa7827d2f34403ed910160405180910390a1505050565b613d5281671c995b19585cd95960c21b613d4962278d00426155ab565b85929190613589565b7f6a740d28273a335dabd953f22fd145fdc11323629c3ff8717eb28f53b227e7fd81613d8162278d00426155ab565b6040805192835260208301919091520161150d565b6000836003016000613da88585613602565b81526020810191909152604001600020546001600160a01b0316949350505050565b80846002016000613ddb8686613602565b81526020019081526020016000209080519060200190613561929190614b7d565b6000613e1c84846f0d2dce8cae4ccc2c6cae698cadccee8d60831b6138a9565b855460405163fcd295e360e01b81526001600160a01b0385811660048301526024820187905292935091169063fcd295e39060440160206040518083038186803b158015613e6957600080fd5b505afa158015613e7d573d6000803e3d6000fd5b505050506040513d601f19601f82011682018060405250810190613ea19190614ccc565b15613eee5760405162461bcd60e51b815260206004820152601d60248201527f5374616b655574696c733a20616c726561647920696e746572666163650000006044820152606401610529565b613f1283613f098369696e746572666163657360b01b613602565b86919085614746565b613f3284846f0d2dce8cae4ccc2c6cae698cadccee8d60831b600161387b565b84546040516327b03e0160e21b81526001600160a01b038481166004830152602482018690526001604483015290911690639ec0f80490606401600060405180830381600087803b158015613f8657600080fd5b505af1158015613f9a573d6000803e3d6000fd5b505050505050505050565b835460405163f759cc3b60e01b815260048101849052600091829182916001600160a01b03169063f759cc3b9060240160206040518083038186803b158015613fed57600080fd5b505afa158015614001573d6000803e3d6000fd5b505050506040513d601f19601f820116820180604052508101906140259190614ce9565b8754604080516396ce079560e01b8152905192935086926000926001600160a01b0316916396ce0795916004808301926020929190829003018186803b15801561406e57600080fd5b505afa158015614082573d6000803e3d6000fd5b505050506040513d601f19601f820116820180604052508101906140a69190614ce9565b6140b084846155d7565b6140ba91906155c3565b905060006140d3898966737572706c757360c81b6138a9565b9050808210614173578954604080516396ce079560e01b81529051929350839286926001600160a01b0316916396ce0795916004808301926020929190829003018186803b15801561412457600080fd5b505afa158015614138573d6000803e3d6000fd5b505050506040513d601f19601f8201168201806040525081019061415c9190614ce9565b61416690846155d7565b61417091906155c3565b92505b6000806141828b8b868861478f565b909250905061419d8b8b66737572706c757360c81b8761362e565b8b546001600160a01b031663f5298aca308c6141b9858a6155f6565b6040516001600160e01b031960e086901b1681526001600160a01b03909316600484015260248301919091526044820152606401600060405180830381600087803b15801561420757600080fd5b505af115801561421b573d6000803e3d6000fd5b5050505061422b8c6001016135b1565b1561427b57600061425f6142426201518042615689565b61424c90426155f6565b69313ab937213ab33332b960b11b613602565b90506142798b82614270858a6155f6565b8f92919061387b565b505b6142868260026155d7565b61429090856155f6565b61429a868b6155f6565b9750975050505050505094509492505050565b6000426142c78484680cccacaa6eed2e8c6d60bb1b6138a9565b11156142e3576136bf8383677072696f7246656560c01b6138a9565b6104fc83836266656560e81b6138a9565b600084600901848460405161430a9291906152af565b9081526040519081900360200190205460ff16600114801561137657508185600901858560405161433c9291906152af565b90815260200160405180910390206001015411159050949350505050565b6000670de0b6b3a76400008210156143c35760405162461bcd60e51b815260206004820152602660248201527f4465706f736974436f6e74726163743a206465706f7369742076616c756520746044820152656f6f206c6f7760d01b6064820152608401610529565b6143d1633b9aca0083615689565b1561443a5760405162461bcd60e51b815260206004820152603360248201527f4465706f736974436f6e74726163743a206465706f7369742076616c7565206e6044820152726f74206d756c7469706c65206f66206777656960681b6064820152608401610529565b600061444a633b9aca00846155c3565b905060006002614459886148fa565b60405161446691906152bf565b602060405180830381855afa158015614483573d6000803e3d6000fd5b5050506040513d601f19601f820116820180604052508101906144a69190614ce9565b905060006002806144ba8860006040614990565b6040516144c791906152bf565b602060405180830381855afa1580156144e4573d6000803e3d6000fd5b5050506040513d601f19601f820116820180604052508101906145079190614ce9565b60026145276145228a604061451d8160606155f6565b614990565b6148fa565b60405161453491906152bf565b602060405180830381855afa158015614551573d6000803e3d6000fd5b5050506040513d601f19601f820116820180604052508101906145749190614ce9565b60408051602081019390935282015260600160408051601f19818403018152908290526145a0916152bf565b602060405180830381855afa1580156145bd573d6000803e3d6000fd5b5050506040513d601f19601f820116820180604052508101906145e09190614ce9565b90506000600280848a6040516020016145fa929190615289565b60408051601f1981840301815290829052614614916152bf565b602060405180830381855afa158015614631573d6000803e3d6000fd5b5050506040513d601f19601f820116820180604052508101906146549190614ce9565b600261465f87614a9c565b604080516020810192909252810186905260600160408051601f198184030181529082905261468d916152bf565b602060405180830381855afa1580156146aa573d6000803e3d6000fd5b5050506040513d601f19601f820116820180604052508101906146cd9190614ce9565b60408051602081019390935282015260600160408051601f19818403018152908290526146f9916152bf565b602060405180830381855afa158015614716573d6000803e3d6000fd5b5050506040513d601f19601f820116820180604052508101906147399190614ce9565b9998505050505050505050565b808460030160006147578686613602565b815260200190815260200160002060006101000a8154816001600160a01b0302191690836001600160a01b0316021790555050505050565b600080600061479e8787613667565b6001600160a01b031663d4cadf686040518163ffffffff1660e01b815260040160206040518083038186803b1580156147d657600080fd5b505afa1580156147ea573d6000803e3d6000fd5b505050506040513d601f19601f8201168201806040525081019061480e9190614ce9565b905060026402540be40061482283886155d7565b61482c91906155c3565b61483691906155c3565b925060026402540be40061484a83876155d7565b61485491906155c3565b61485e91906155c3565b915061486a8787613667565b60405163b150798960e01b815260048101859052602481018490526001600160a01b03919091169063b150798990859060440160408051808303818588803b1580156148b557600080fd5b505af11580156148c9573d6000803e3d6000fd5b50505050506040513d601f19601f820116820180604052508101906148ee919061518c565b50505094509492505050565b6060602082511015801561491057506040825111155b61491c5761491c61569d565b81516040141561492a575090565b6040805160208082528183019092526000916020820181803683370190505090506000602082015282516020141561496d576149668382614ae2565b9392505050565b614966836149858360008751604061451d91906155f6565b614ae2565b50919050565b60608161499e81601f6155ab565b10156149dd5760405162461bcd60e51b815260206004820152600e60248201526d736c6963655f6f766572666c6f7760901b6044820152606401610529565b6149e782846155ab565b84511015614a2b5760405162461bcd60e51b8152602060048201526011602482015270736c6963655f6f75744f66426f756e647360781b6044820152606401610529565b606082158015614a4a5760405191506000825260208201604052612244565b6040519150601f8416801560200281840101858101878315602002848b0101015b81831015614a83578051835260209283019201614a6b565b5050858452601f01601f19166040525050949350505050565b600081815b6008811015614aca57600892831b60ff831617929190911c90614ac38161566e565b9050614aa1565b508015614ad957614ad961569d565b5060c01b919050565b6060806040519050835180825260208201818101602087015b81831015614b13578051835260209283019201614afb565b50855184518101855292509050808201602086015b81831015614b40578051835260209283019201614b28565b508651929092011591909101601f01601f191660405250905092915050565b60405180604001604052806002906020820280368337509192915050565b828054614b8990615639565b90600052602060002090601f016020900481019282614bab5760008555614bf1565b82601f10614bc457805160ff1916838001178555614bf1565b82800160010185558215614bf1579182015b82811115614bf1578251825591602001919060010190614bd6565b50614bfd929150614c01565b5090565b5b80821115614bfd5760008155600101614c02565b60008083601f840112614c2857600080fd5b50813567ffffffffffffffff811115614c4057600080fd5b6020830191508360208260051b8501011115614c5b57600080fd5b9250929050565b600080600060608486031215614c7757600080fd5b8351614c828161570b565b6020850151909350614c938161570b565b6040850151909250614ca48161570b565b809150509250925092565b600060208284031215614cc157600080fd5b813561496681615723565b600060208284031215614cde57600080fd5b815161496681615723565b600060208284031215614cfb57600080fd5b5051919050565b60008060408385031215614d1557600080fd5b50508035926020909101359150565b600080600060608486031215614d3957600080fd5b83359250602084013591506040840135614ca48161570b565b600080600060608486031215614d6757600080fd5b505081359360208301359350604090920135919050565b60008060008060808587031215614d9457600080fd5b5050823594602084013594506040840135936060013592509050565b60008060008060608587031215614dc657600080fd5b8435935060208501359250604085013567ffffffffffffffff811115614deb57600080fd5b614df787828801614c16565b95989497509550505050565b60008060008060608587031215614e1957600080fd5b8435935060208501359250604085013567ffffffffffffffff80821115614e3f57600080fd5b818701915087601f830112614e5357600080fd5b813581811115614e6257600080fd5b886020828501011115614e7457600080fd5b95989497505060200194505050565b600080600080600060808688031215614e9b57600080fd5b853594506020860135935060408601359250606086013567ffffffffffffffff811115614ec757600080fd5b614ed388828901614c16565b969995985093965092949392505050565b60008060008060008060c08789031215614efd57600080fd5b863595506020870135945060408701359350606087013592506080870135614f248161570b565b915060a087013567ffffffffffffffff811115614f4057600080fd5b870160408101891015614f5257600080fd5b809150509295509295509295565b60008060008060008060c08789031215614f7957600080fd5b863595506020870135945060408701359350606087013592506080870135614fa08161570b565b8092505060a087013590509295509295509295565b60008060008060008060008060c0898b031215614fd157600080fd5b88359750602089013596506040890135955060608901359450608089013567ffffffffffffffff8082111561500557600080fd5b6150118c838d01614c16565b909650945060a08b013591508082111561502a57600080fd5b506150378b828c01614c16565b999c989b5096995094979396929594505050565b60008060008060008060008060008060e08b8d03121561506a57600080fd5b8a35995060208b0135985060408b0135975060608b0135965060808b013567ffffffffffffffff8082111561509e57600080fd5b6150aa8e838f01614c16565b909850965060a08d01359150808211156150c357600080fd5b6150cf8e838f01614c16565b909650945060c08d01359150808211156150e857600080fd5b506150f58d828e01614c16565b915080935050809150509295989b9194979a5092959850565b600080600080600060a0868803121561512657600080fd5b505083359560208501359550604085013594606081013594506080013592509050565b60008060008060008060c0878903121561516257600080fd5b505084359660208601359650604086013595606081013595506080810135945060a0013592509050565b6000806040838503121561519f57600080fd5b505080516020909101519092909150565b600082604081018360005b60028110156152295783830387528135601e198736030181126151dd57600080fd5b86018035602067ffffffffffffffff8211156151f857600080fd5b81360389131561520757600080fd5b6152148683838601615234565b998101999550939093019250506001016151bb565b509095945050505050565b81835281816020850137506000828201602090810191909152601f909101601f19169091010190565b6000815180845261527581602086016020860161560d565b601f01601f19169290920160200192915050565b828152600082516152a181602085016020870161560d565b919091016020019392505050565b8183823760009101908152919050565b600082516152d181846020870161560d565b9190910192915050565b6001600160a01b0394851681529290931660208301526040820152606081019190915260a06080820181905260009082015260c00190565b6020808252825182820181905260009190848201906040850190845b818110156153545783516001600160a01b03168352928401929184019160010161532f565b50909695505050505050565b602081526000612167602083018486615234565b608081526000615388608083018789615234565b828103602084015261539a818761525d565b905082810360408401526153ae818661525d565b9150508260608301529695505050505050565b6060815260006153d5606083018688615234565b6020830194909452506040015292915050565b60208082526034908201527f5374656b655574696c733a2073686f756c64206265206c657373207468616e2060408201527313505617d590531251105513d497d411549253d160621b606082015260800190565b60208082526024908201527f5374616b655574696c733a204d41585f4d41494e5441494e45525f4645452045604082015263292927a960e11b606082015260800190565b60208082526034908201527f5374656b655574696c733a2073686f756c64206265206d6f7265207468616e2060408201527313525397d590531251105513d497d411549253d160621b606082015260800190565b600061014086835260208084018760005b6003811015615502578151835291830191908301906001016154e5565b505050608084018660005b60058110156155335781516001600160a01b03168352918301919083019060010161550d565b5050505080610120840152613870818401856151b0565b838152604060208201526000611376604083018486615234565b6000808335601e1984360301811261557b57600080fd5b83018035915067ffffffffffffffff82111561559657600080fd5b602001915036819003821315614c5b57600080fd5b600082198211156155be576155be6156b3565b500190565b6000826155d2576155d26156c9565b500490565b60008160001904831182151516156155f1576155f16156b3565b500290565b600082821015615608576156086156b3565b500390565b60005b83811015615628578181015183820152602001615610565b8381111561191d5750506000910152565b600181811c9082168061564d57607f821691505b6020821081141561498a57634e487b7160e01b600052602260045260246000fd5b6000600019821415615682576156826156b3565b5060010190565b600082615698576156986156c9565b500690565b634e487b7160e01b600052600160045260246000fd5b634e487b7160e01b600052601160045260246000fd5b634e487b7160e01b600052601260045260246000fd5b634e487b7160e01b600052603260045260246000fd5b634e487b7160e01b600052604160045260246000fd5b6001600160a01b038116811461572057600080fd5b50565b801515811461572057600080fdfea26469706673582212205698564fdf69c8265ec355ef47823406017f52f4a08520ee3701c4c086629a8d64736f6c63430008070033",
  "libraries": {
    "OracleUtils": "0xeb207DF3CE41386430334776de42696cEE0AD906",
    "MaintainerUtils": "0x90e9b7b0b5401EC1D80B9539874c2F5ADFEe8CfF"
  },
  "devdoc": {
    "author": "Icebear & Crash Bandicoot",
    "details": "Contracts relying on this library must initialize StakeUtils.StakePoolALL \"fee\" variables are limited by PERCENTAGE_DENOMINATOR. * For example, when fee is equal to PERCENTAGE_DENOMINATOR/2, it means 50% of the fee Note refer to DataStoreUtils before reviewing Note refer to MaintainerUtilsLib before reviewing Note refer to OracleUtilsLib before reviewing Note *suggested* refer to GeodeUtils before reviewing Note beware of the staking pool and operator implementations: Type 4 stands for Operators: They maintain Beacon Chain Validators on behalf of Planets and Comets * only if they are allowed to Operators have properties like fee(as a percentage), maintainer. Type 5 stands for Public Staking Pool (Planets): * Every Planet is also an Operator by design. * * Planets inherits Operator functionalities and parameters, with additional * * properties related to miniGovernances and staking pools - surplus, secured, withdrawalPool etc. * ID of a pool represents an id of gETH. * For now, creation of staking pools are not permissionless but the usage of it is. * * Meaning Everyone can stake and unstake using public pools. Type 6 stands for Private Staking Pools (Comets): * It is permissionless, one can directly create a Comet by simply * * choosing a name and sending MIN_AMOUNT which is expected to be 32 ether. * GeodeUtils generates IDs based on types, meaning same name can be used for a Planet and a Comet simultaneously. * The creation process is permissionless but staking is not. * * Meaning Only Comet's maintainer can stake but everyone can hold the derivative * In Comets, there is a Withdrawal Queue instead of DWP. * NOT IMPLEMENTED YET Type 11 stands for a new Mini Governance implementation id: * like always CONTROLLER is the implementation contract position * requires the approval of Senate * Pools are in \"Isolation Mode\" until their mini governance is upgraded to given proposal ID. * * Meaning, no more Depositing or Staking can happen.",
    "kind": "dev",
    "methods": {
      "approveOperator(DataStoreUtils.DataStore storage,uint256,uint256,uint256)": {
        "details": "If planet decreases the approved validator count, below current running validator, operator can only withdraw until to new allowence.only maintainer of _planetId can approve an Operator",
        "params": {
          "allowance": "the MAX number of validators that can be created by the Operator for a given Planet",
          "operatorId": "the id of the Operator to allow them create validators for a given Planet",
          "poolId": "the gETH id of the Planet, only Maintainer can call this function"
        }
      },
      "beaconStake(StakeUtils.StakePool storage,DataStoreUtils.DataStore storage,uint256,bytes[])": {
        "details": "To save gas cost, pubkeys should be arranged by planedIds.  ex: [pk1, pk2, pk3, pk4, pk5, pk6, pk7]  pk1, pk2, pk3 from planet1  pk4, pk5 from planet2  pk6 from planet3  seperate them in similar groups as much as possible.Max number of validators to boostrap is MAX_DEPOSITS_PER_CALL (currently 64)A pubkey that is alienated will not get through. Do not frontrun during ProposeStake.",
        "params": {
          "operatorId": "the id of the Operator whose maintainer calling this function",
          "pubkeys": "Array of BLS12-381 public keys of the validators that are already proposed with ProposeStake."
        }
      },
      "blameOperator(StakeUtils.StakePool storage,DataStoreUtils.DataStore storage,bytes)": {
        "details": "anyone can call this functionif operator has given enough allowence, they can rotate the validators to avoid being prisoned"
      },
      "canDeposit(DataStoreUtils.DataStore storage,uint256)": {
        "details": "minting is paused when stakePaused == 1, meaning true."
      },
      "changeMaintainer(DataStoreUtils.DataStore storage,uint256,address)": {
        "details": "Seems like authenticate is not correct, but authenticate checks for maintainer and this function expects controller and DATASTORE.changeMaintainer checks that."
      },
      "decreaseMaintainerWallet(DataStoreUtils.DataStore storage,uint256,uint256)": {
        "details": "only maintainer can decrease the balance directly, * other than that it can be used to propose Validatorsif a maintainer is in prison, it can not decrease the wallet"
      },
      "depositPlanet(StakeUtils.StakePool storage,DataStoreUtils.DataStore storage,uint256,uint256,uint256)": {
        "params": {
          "deadline": "withdrawal pool parameter // debt  msg.value // 100   10  => buyback // 100   100 => buyback // 10    100 => buyback + mint // 1     x   => mint // 0.5   x   => mint // 0     x   => mint",
          "mingETH": "withdrawal pool parameter",
          "planetId": "id of the staking pool, withdrawal pool and gETH to be used."
        }
      },
      "fetchUnstake(StakeUtils.StakePool storage,DataStoreUtils.DataStore storage,uint256,uint256,bytes[],uint256[],bool[])": {
        "details": "although OnlyOracle, logically this has nothing to do with Telescope. * So we are keeping it here.operator is prisoned if: 1. withdrawn without signalled, being sneaky. in such case they also doesn't receive the boost 2. signalled without withdrawal, deceiving other operators",
        "params": {
          "isExit": "according to eip-4895, there can be multiple ways to distriute the rewards * and not all of them requires exit. Even in such cases reward can be catched from * withdrawal credential and distributed."
        }
      },
      "increaseMaintainerWallet(DataStoreUtils.DataStore storage,uint256)": {
        "details": "only maintainer can increase the balance directly, * other than that it also collects validator rewards"
      },
      "initiateOperator(StakeUtils.StakePool storage,DataStoreUtils.DataStore storage,uint256,uint256,address,uint256)": {
        "details": "requires ID to be approved as a node operator with a specific CONTROLLER",
        "params": {
          "_validatorPeriod": "the expected maximum staking interval. This value should between * MIN_VALIDATOR_PERIOD and MAX_VALIDATOR_PERIOD values defined as constants above, * this check is done inside updateValidatorPeriod function. Operator can unstake at any given point before this period ends. If operator disobeys this rule, it can be prisoned with blameOperator()"
        }
      },
      "initiatePlanet(StakeUtils.StakePool storage,DataStoreUtils.DataStore storage,uint256,uint256,address,string[2])": {
        "details": "requires ID to be approved as a planet with a specific CONTROLLER",
        "params": {
          "_interfaceSpecs": "0: interface name, 1: interface symbol, currently ERC20 specs."
        }
      },
      "operatorAllowance(DataStoreUtils.DataStore storage,uint256,uint256)": {
        "details": "an operator can not create new validators if: * 1. allowence is 0 (zero) * 2. lower than the current (proposed + active) number of validators * But if operator withdraws a validator, then able to create a new one.prestake checks the approved validator count to make sure the number of validators are not bigger than allowenceallowence doesn't change when new validators created or old ones are unstaked.",
        "returns": {
          "allowance": "allowance"
        }
      },
      "pauseStakingForPool(DataStoreUtils.DataStore storage,uint256)": {
        "details": "pausing requires pool to be NOT paused already"
      },
      "proposeStake(StakeUtils.StakePool storage,DataStoreUtils.DataStore storage,uint256,uint256,bytes[],bytes[])": {
        "details": "DEPOSIT_AMOUNT_PRESTAKE = 1 ether, which is the minimum number to create validator. 31 Ether will be staked after verification of oracles. 32 in total. 1 ether will be sent back to Node Operator when finalized deposit is successful.ProposeStake requires enough allowance from Staking Pools to Operators.ProposeStake requires enough funds within maintainerWallet.Max number of validators to propose is MAX_DEPOSITS_PER_CALL (currently 64)",
        "params": {
          "operatorId": "the id of the Operator whose maintainer calling this function",
          "poolId": "the id of the staking pool whose TYPE can be 5 or 6.",
          "pubkeys": "Array of BLS12-381 public keys of the validators that will be proposed",
          "signatures": "Array of BLS12-381 signatures of the validators that will be proposed"
        }
      },
      "setMiniGovernanceVersion(StakeUtils.StakePool storage,DataStoreUtils.DataStore storage,uint256)": {
        "details": "CONTROLLER of the proposal id represents the implementation addressThis function seems like everyone can call, but it is called inside portal after approveProposal function * and approveProposal has onlySenate modifier, can be called only by senate."
      },
      "signalUnstake(StakeUtils.StakePool storage,DataStoreUtils.DataStore storage,bytes[])": {
        "details": "to maintain the health of Geode Universe, we should protect the race conditions. * opeators should know when others are unstaking so they don't spend money for no boost."
      },
      "switchMaintainerFee(StakeUtils.StakePool storage,DataStoreUtils.DataStore storage,uint256,uint256)": {
        "details": "there is a 7 days delay before the new fee is activated, * this protect the pool maintainers from making bad operator choices",
        "params": {
          "newFee": "new fee percentage in terms of PERCENTAGE_DENOMINATOR, reverts if given more than MAX_MAINTAINER_FEE"
        }
      },
      "switchWithdrawalBoost(StakeUtils.StakePool storage,DataStoreUtils.DataStore storage,uint256,uint256)": {
        "details": "to prevent malicious swings in the withdrawal boost that can harm the competition, Boost changes is also has a delay.",
        "params": {
          "withdrawalBoost": "the percentage of arbitrague that will be shared with Operator on Unstake. Can be used to incentivise Unstakes in case of depeg"
        }
      },
      "unpauseStakingForPool(DataStoreUtils.DataStore storage,uint256)": {
        "details": "unpausing requires pool to be paused already"
      },
      "withdrawPlanet(StakeUtils.StakePool storage,DataStoreUtils.DataStore storage,uint256,uint256,uint256,uint256)": {
        "params": {
          "deadline": "TX is expected to revert by Swap.sol if not meet",
          "gEthToWithdraw": "amount of g-derivative that should be withdrawn",
          "minETH": "TX is expected to revert by Swap.sol if not meet"
        }
      }
    },
    "title": "StakeUtils library",
    "version": 1
  },
  "userdoc": {
    "kind": "user",
    "methods": {
      "IGNORABLE_DEBT()": {
        "notice": "ignoring any buybacks if the DWP has a low debt"
      },
      "MIN_VALIDATOR_PERIOD()": {
        "notice": "limiting the operator.validatorPeriod, currently around 5 years"
      },
      "PERCENTAGE_DENOMINATOR()": {
        "notice": "PERCENTAGE_DENOMINATOR represents 100%"
      },
      "allInterfaces(DataStoreUtils.DataStore storage,uint256)": {
        "notice": "lists all interfaces, unsetted interfaces will return address(0)"
      },
      "approveOperator(DataStoreUtils.DataStore storage,uint256,uint256,uint256)": {
        "notice": "To allow a Node Operator run validators for your Planet with Max number of validators. * This number can be set again at any given point in the future."
      },
      "beaconStake(StakeUtils.StakePool storage,DataStoreUtils.DataStore storage,uint256,bytes[])": {
        "notice": "Sends 31 Eth from staking pool to validators that are previously created with ProposeStake.  1 Eth per successful validator boostraping is returned back to MaintainerWallet."
      },
      "blameOperator(StakeUtils.StakePool storage,DataStoreUtils.DataStore storage,bytes)": {
        "notice": "allows improsening an Operator if the validator have not been exited until expectedExit"
      },
      "canDeposit(DataStoreUtils.DataStore storage,uint256)": {
        "notice": "checks if staking is allowed in a pool. * when a pool is paused for staking NO new funds can be minted.staking is not allowed if: 1. MiniGovernance is in Isolation Mode, this means it is not upgraded to current version 2. Staking is simply paused by the Pool maintainer"
      },
      "canStake(StakeUtils.StakePool storage,DataStoreUtils.DataStore storage,bytes)": {
        "notice": "external function to check if a validator can use planet funds"
      },
      "changeMaintainer(DataStoreUtils.DataStore storage,uint256,address)": {
        "notice": "changes maintainer of the given operator, planet or comet"
      },
      "depositPlanet(StakeUtils.StakePool storage,DataStoreUtils.DataStore storage,uint256,uint256,uint256)": {
        "notice": "Allowing users to deposit into a public staking pool. * Buys from DWP if price is low -debt-, mints new tokens if surplus is sent -more than debt-"
      },
      "fetchUnstake(StakeUtils.StakePool storage,DataStoreUtils.DataStore storage,uint256,uint256,bytes[],uint256[],bool[])": {
        "notice": "Operator finalizing an Unstake event by calling Telescope's multisig: * distributing fees + boost * distributes rewards by burning the derivative * does a buyback if necessary * putting the extra within surplus."
      },
      "initiateOperator(StakeUtils.StakePool storage,DataStoreUtils.DataStore storage,uint256,uint256,address,uint256)": {
        "notice": "initiates ID as an node operator"
      },
      "initiatePlanet(StakeUtils.StakePool storage,DataStoreUtils.DataStore storage,uint256,uint256,address,string[2])": {
        "notice": "initiates ID as a planet (public pool)"
      },
      "operatorAllowance(DataStoreUtils.DataStore storage,uint256,uint256)": {
        "notice": "*operatorAllowence is the number of validators that the given Operator is allowed to create on behalf of the Planet"
      },
      "proposeStake(StakeUtils.StakePool storage,DataStoreUtils.DataStore storage,uint256,uint256,bytes[],bytes[])": {
        "notice": "Validator Credentials Proposal function, first step of crating validators. * Once a pubKey is proposed and not alienated for some time, * it is optimistically allowed to take funds from staking pools."
      },
      "setMiniGovernanceVersion(StakeUtils.StakePool storage,DataStoreUtils.DataStore storage,uint256)": {
        "notice": "called when a proposal(TYPE=11) for a new MiniGovernance is approved by Senate"
      },
      "signalUnstake(StakeUtils.StakePool storage,DataStoreUtils.DataStore storage,bytes[])": {
        "notice": "allows giving a unstake signal, meaning validator has been exited. * And boost can be claimed upon arrival of the funds."
      },
      "withdrawPlanet(StakeUtils.StakePool storage,DataStoreUtils.DataStore storage,uint256,uint256,uint256,uint256)": {
        "notice": "withdraw funds from Dynamic Staking Pool (Public Staking Pool + DWP) * If not in Boostrap Period, first checks the surplus, than swaps from DWP to create debt"
      }
    },
    "notice": "Exclusively contains functions related to ETH Liquid Staking designbiggest part of the functionality is related to Dynamic Staking Pools which relies on continuous buybacks (DWP) to maintain the price health with debt/surplus calculations",
    "version": 1
  },
  "storageLayout": {
    "storage": [],
    "types": null
  }
}