{
  "address": "0xa631e0276743450e41476a1A25CA97ed20B6fEd3",
  "abi": [
    {
      "anonymous": false,
      "inputs": [
        {
          "indexed": false,
          "internalType": "bytes",
          "name": "pubkey",
          "type": "bytes"
        }
      ],
      "name": "BeaconStaked",
      "type": "event"
    },
    {
      "anonymous": false,
      "inputs": [
        {
          "indexed": false,
          "internalType": "uint256",
          "name": "planetId",
          "type": "uint256"
        },
        {
          "indexed": false,
          "internalType": "uint256",
          "name": "operatorId",
          "type": "uint256"
        },
        {
          "indexed": false,
          "internalType": "uint256",
          "name": "allowance",
          "type": "uint256"
        }
      ],
      "name": "OperatorApproval",
      "type": "event"
    },
    {
      "anonymous": false,
      "inputs": [
        {
          "indexed": false,
          "internalType": "address",
          "name": "DEFAULT_gETH_INTERFACE_",
          "type": "address"
        },
        {
          "indexed": false,
          "internalType": "address",
          "name": "DEFAULT_DWP_",
          "type": "address"
        },
        {
          "indexed": false,
          "internalType": "address",
          "name": "DEFAULT_LP_TOKEN_",
          "type": "address"
        },
        {
          "indexed": false,
          "internalType": "uint256",
          "name": "MAX_MAINTAINER_FEE_",
          "type": "uint256"
        },
        {
          "indexed": false,
          "internalType": "uint256",
          "name": "BOOSTRAP_PERIOD_",
          "type": "uint256"
        },
        {
          "indexed": false,
          "internalType": "uint256",
          "name": "PERIOD_PRICE_INCREASE_LIMIT_",
          "type": "uint256"
        },
        {
          "indexed": false,
          "internalType": "uint256",
          "name": "PERIOD_PRICE_DECREASE_LIMIT_",
          "type": "uint256"
        },
        {
          "indexed": false,
          "internalType": "uint256",
          "name": "COMET_TAX_",
          "type": "uint256"
        }
      ],
      "name": "ParamsUpdated",
      "type": "event"
    },
    {
      "anonymous": false,
      "inputs": [
        {
          "indexed": false,
          "internalType": "uint256",
          "name": "id",
          "type": "uint256"
        }
      ],
      "name": "PausedPool",
      "type": "event"
    },
    {
      "anonymous": false,
      "inputs": [
        {
          "indexed": false,
          "internalType": "bytes",
          "name": "pubkey",
          "type": "bytes"
        },
        {
          "indexed": false,
          "internalType": "uint256",
          "name": "planetId",
          "type": "uint256"
        },
        {
          "indexed": false,
          "internalType": "uint256",
          "name": "operatorId",
          "type": "uint256"
        }
      ],
      "name": "ProposeStaked",
      "type": "event"
    },
    {
      "anonymous": false,
      "inputs": [
        {
          "indexed": false,
          "internalType": "uint256",
          "name": "operatorId",
          "type": "uint256"
        }
      ],
      "name": "Released",
      "type": "event"
    },
    {
      "anonymous": false,
      "inputs": [
        {
          "indexed": false,
          "internalType": "uint256",
          "name": "id",
          "type": "uint256"
        }
      ],
      "name": "UnpausedPool",
      "type": "event"
    },
    {
      "anonymous": false,
      "inputs": [
        {
          "indexed": false,
          "internalType": "uint256",
          "name": "poolId",
          "type": "uint256"
        },
        {
          "indexed": false,
          "internalType": "bytes",
          "name": "pubkey",
          "type": "bytes"
        }
      ],
      "name": "UnstakeSignal",
      "type": "event"
    },
    {
      "anonymous": false,
      "inputs": [
        {
          "indexed": false,
          "internalType": "uint256",
          "name": "operatorId",
          "type": "uint256"
        },
        {
          "indexed": false,
          "internalType": "uint256",
          "name": "newPeriod",
          "type": "uint256"
        }
      ],
      "name": "ValidatorPeriodUpdated",
      "type": "event"
    },
    {
      "anonymous": false,
      "inputs": [
        {
          "indexed": false,
          "internalType": "uint256",
          "name": "poolId",
          "type": "uint256"
        },
        {
          "indexed": false,
          "internalType": "uint256",
          "name": "withdrawalBoost",
          "type": "uint256"
        },
        {
          "indexed": false,
          "internalType": "uint256",
          "name": "effectiveAfter",
          "type": "uint256"
        }
      ],
      "name": "WithdrawalBoostChanged",
      "type": "event"
    },
    {
      "inputs": [],
      "name": "BOOST_SWITCH_LATENCY",
      "outputs": [
        {
          "internalType": "uint256",
          "name": "",
          "type": "uint256"
        }
      ],
      "stateMutability": "view",
      "type": "function"
    },
    {
      "inputs": [],
      "name": "IGNORABLE_DEBT",
      "outputs": [
        {
          "internalType": "uint256",
          "name": "",
          "type": "uint256"
        }
      ],
      "stateMutability": "view",
      "type": "function"
    },
    {
      "inputs": [],
      "name": "MAX_VALIDATOR_PERIOD",
      "outputs": [
        {
          "internalType": "uint256",
          "name": "",
          "type": "uint256"
        }
      ],
      "stateMutability": "view",
      "type": "function"
    },
    {
      "inputs": [],
      "name": "MIN_VALIDATOR_PERIOD",
      "outputs": [
        {
          "internalType": "uint256",
          "name": "",
          "type": "uint256"
        }
      ],
      "stateMutability": "view",
      "type": "function"
    },
    {
      "inputs": [],
      "name": "PERCENTAGE_DENOMINATOR",
      "outputs": [
        {
          "internalType": "uint256",
          "name": "",
          "type": "uint256"
        }
      ],
      "stateMutability": "view",
      "type": "function"
    }
  ],
  "transactionHash": "0x700e35e9b5ac5a0f010112d80640811b722d0317086c176fcc2d3e7d6e5ca9d3",
  "args": [],
  "numDeployments": 1,
  "solcInputHash": "1f205d1559b0be4f8c26bfc7e8ad11fa",
  "bytecode": "0x615ea66200003b600b82828239805160001a60731461002e57634e487b7160e01b600052600060045260246000fd5b30600052607381538281f3fe73000000000000000000000000000000000000000030146080604052600436106101fa5760003560e01c806394bf980d11610119578063bbf1555c116100ac578063d30807f81161007b578063d30807f814610517578063e0b9dabe14610537578063f1016dfb14610557578063fd805ee51461057757600080fd5b8063bbf1555c146104b1578063caafe848146104c4578063ccc68fc3146104d7578063d1dedac8146104f757600080fd5b8063a4ff4e5e116100e8578063a4ff4e5e1461045b578063b13302881461047b578063b3cd425414610485578063b3ce61f31461049157600080fd5b806394bf980d146103db578063955ba8d3146103fb5780639877d3261461041b5780639e8c22831461043b57600080fd5b8063521f883e116101915780637948bd45116101605780637948bd45146103715780637e49bfac1461037b57806383faca401461039b5780638c3c85ce146103bb57600080fd5b8063521f883e14610302578063569391b6146103225780636d6079b21461034257806376b050541461036257600080fd5b80633147a52a116101cd5780633147a52a146102965780633802c20d146102b65780633a66037d146102d657806349937056146102e957600080fd5b80630d552313146101ff57806316614f5e14610234578063303cb36f1461025657806330d2c2ac14610276575b600080fd5b81801561020b57600080fd5b5061021f61021a366004615447565b610597565b60405190151581526020015b60405180910390f35b81801561024057600080fd5b5061025461024f366004615712565b6105d6565b005b81801561026257600080fd5b506102546102713660046157fd565b610696565b81801561028257600080fd5b5061025461029136600461550a565b610dc3565b8180156102a257600080fd5b506102546102b1366004615643565b610ded565b8180156102c257600080fd5b506102546102d1366004615497565b611411565b61021f6102e43660046155bb565b6115aa565b6102f4630966018081565b60405190815260200161022b565b81801561030e57600080fd5b5061025461031d36600461550a565b6115c9565b81801561032e57600080fd5b5061025461033d366004615447565b6116be565b81801561034e57600080fd5b5061021f61035d36600461550a565b6117ad565b6102f4670de0b6b3a764000081565b6102f46203f48081565b81801561038757600080fd5b5061025461039636600461550a565b6119ec565b8180156103a757600080fd5b506102546103b636600461550a565b611b7a565b8180156103c757600080fd5b506102546103d6366004615602565b611cdc565b8180156103e757600080fd5b506102546103f63660046155bb565b611ec6565b81801561040757600080fd5b506102f46104163660046158c0565b611fcd565b81801561042757600080fd5b50610254610436366004615469565b612435565b81801561044757600080fd5b50610254610456366004615447565b6124de565b81801561046757600080fd5b50610254610476366004615568565b6125cb565b6102f4624f1a0081565b6102f46402540be40081565b81801561049d57600080fd5b506102546104ac366004615536565b612807565b61021f6104bf366004615447565b6129d3565b6102f46104d236600461550a565b612a78565b6104ea6104e5366004615447565b612ab9565b60405161022b9190615ac5565b81801561050357600080fd5b50610254610512366004615536565b612bac565b81801561052357600080fd5b506102546105323660046156a4565b612c40565b81801561054357600080fd5b506102f46105523660046158fb565b612f09565b81801561056357600080fd5b50610254610572366004615767565b6132b3565b81801561058357600080fd5b5061021f610592366004615536565b613c63565b6040805160608101825260018082526020820181905260009282018390526105c29185918591613d3d565b6105cd838334613ec3565b90505b92915050565b85601001548311156106035760405162461bcd60e51b81526004016105fa90615bcf565b60405180910390fd5b604051635fae04e760e01b81526004810186905260248101859052604481018490526001600160a01b038316606482015273672FC28Ba198c8d4e392c49F0996dA612cbB433090635fae04e79060840160006040518083038186803b15801561066b57600080fd5b505af415801561067f573d6000803e3d6000fd5b5050505061068e858583611b7a565b505050505050565b60028a01546001600160a01b031633146106f25760405162461bcd60e51b815260206004820152601d60248201527f5374616b655574696c733a2073656e646572204e4f54204f5241434c4500000060448201526064016105fa565b6106fe8a600101613ee4565b1561074b5760405162461bcd60e51b815260206004820152601c60248201527f5374616b655574696c733a204f5241434c45206973206163746976650000000060448201526064016105fa565b6000610755615262565b6000805b8881101561091f57600088888381811061077557610775615e1e565b90506020020135905088888381811061079057610790615e1e565b90506020020135856107a29190615cea565b94508686838181106107b6576107b6615e1e565b90506020020160208101906107cb91906153f4565b1561080c576107db600184615cea565b92506801bc16d674ec800000811115610808576108016801bc16d674ec80000082615d35565b905061080c565b5060005b801561090c576402540be4008f6001016009018c8c8581811061083157610831615e1e565b90506020028101906108439190615ca3565b604051610851929190615a61565b9081526020016040518091039020600401548261086e9190615d16565b6108789190615d02565b84518590610887908390615cea565b9052508c8c1461090c576402540be4008f6001016009018c8c858181106108b0576108b0615e1e565b90506020028101906108c29190615ca3565b6040516108d0929190615a61565b908152602001604051809103902060050154826108ed9190615d16565b6108f79190615d02565b602085018051610908908390615cea565b9052505b508061091781615dad565b915050610759565b50600061092c8d8d613f17565b6001600160a01b031663c5dd6fee856040518263ffffffff1660e01b815260040161095991815260200190565b602060405180830381600087803b15801561097357600080fd5b505af1158015610987573d6000803e3d6000fd5b505050506040513d601f19601f820116820180604052508101906109ab9190615411565b9050806109fa5760405162461bcd60e51b815260206004820152601b60248201527f5374616b655574696c733a204661696c656420746f20636c61696d000000000060448201526064016105fa565b50610a3a8b610a318c6040518060400160405280601081526020016f61637469766556616c696461746f727360801b815250613f35565b8e919084613f68565b610a5e8c8b74746f74616c41637469766556616c696461746f727360581b84613f68565b60208201518251610a6f9190615cea565b610a799084615d35565b9250506000610a888c8c613fc9565b6001600160a01b03166314a6bf0f6040518163ffffffff1660e01b815260040160206040518083038186803b158015610ac057600080fd5b505afa158015610ad4573d6000803e3d6000fd5b505050506040513d601f19601f82011682018060405250810190610af8919061542e565b90506000610b068d8d613fe7565b9050600081118015610b1f5750670de0b6b3a764000082115b8015610b2b57508a8c14155b15610d39576000610b3c8e8e613fc9565b60405163a95b089f60e01b81526000600482015260016024820152604481018790526001600160a01b03919091169063a95b089f9060640160206040518083038186803b158015610b8c57600080fd5b505afa158015610ba0573d6000803e3d6000fd5b505050506040513d601f19601f82011682018060405250810190610bc4919061542e565b90508e60000160009054906101000a90046001600160a01b03166001600160a01b031663f759cc3b8e6040518263ffffffff1660e01b8152600401610c0b91815260200190565b60206040518083038186803b158015610c2357600080fd5b505afa158015610c37573d6000803e3d6000fd5b505050506040513d601f19601f82011682018060405250810190610c5b919061542e565b8f54604080516396ce079560e01b815290516001600160a01b03909216916396ce079591600480820192602092909190829003018186803b158015610c9f57600080fd5b505afa158015610cb3573d6000803e3d6000fd5b505050506040513d601f19601f82011682018060405250810190610cd7919061542e565b610ce19087615d16565b610ceb9190615d02565b610cf59082615d35565b90506402540be400610d078383615d16565b610d119190615d02565b91508184600160200201818151610d289190615cea565b905250610d358286615d35565b9450505b50670de0b6b3a7640000811115610d7557828110610d545750815b610d678d8d60008e85600060001961403f565b50610d728184615d35565b92505b8215610d9157610d918c8c66737572706c757360c81b866141d7565b610da68b8360005b60200201518e9190613ec3565b50610db38a836001610d99565b5050505050505050505050505050565b610dd58282635459504560e01b61422d565b600b14610de157600080fd5b600f9092019190915550565b60408051606081018252600180825260208201819052600092820192909252610e1a918691869190613d3d565b610e2685600101613ee4565b15610e735760405162461bcd60e51b815260206004820152601c60248201527f5374616b655574696c733a204f5241434c45206973206163746976650000000060448201526064016105fa565b8015801590610e83575060408111155b610eca5760405162461bcd60e51b81526020600482015260186024820152775374616b655574696c733a204d4158203634206e6f64657360401b60448201526064016105fa565b600685015460005b82811015610f7957610f098787868685818110610ef157610ef1615e1e565b9050602002810190610f039190615ca3565b8661427f565b610f675760405162461bcd60e51b815260206004820152602960248201527f5374616b655574696c733a204e4f5420616c6c207075626b65797320617265206044820152687374616b6561626c6560b81b60648201526084016105fa565b80610f7181615dad565b915050610ed2565b50506000610faf846040518060400160405280601081526020016f61637469766556616c696461746f727360801b815250613f35565b90506000610fe7856040518060400160405280601281526020017170726f706f73656456616c696461746f727360701b815250613f35565b90506000600a880185858381610fff57610fff615e1e565b90506020028101906110119190615ca3565b60405161101f929190615a61565b90815260405190819003602001902060020154905060006110588883731dda5d1a191c985dd85b10dc9959195b9d1a585b60621b614345565b90506000805b8681101561136957600a8b0188888381811061107c5761107c615e1e565b905060200281019061108e9190615ca3565b60405161109c929190615a61565b9081526020016040518091039020600201548414611183576110e984661cd958dd5c995960ca1b6110cd8585615d35565b6110e0906801bc16d674ec800000615d16565b8d929190613f68565b61110184876110f88585615d35565b8d9291906141d7565b61111084866110e08585615d35565b905080600a8b0188888381811061112957611129615e1e565b905060200281019061113b9190615ca3565b604051611149929190615a61565b9081526040519081900360200190206002015493506111808a85731dda5d1a191c985dd85b10dc9959195b9d1a585b60621b614345565b92505b6000600a8c0189898481811061119b5761119b615e1e565b90506020028101906111ad9190615ca3565b6040516111bb929190615a61565b908152602001604051809103902060090180546111d790615d78565b80601f016020809104026020016040519081016040528092919081815260200182805461120390615d78565b80156112505780601f1061122557610100808354040283529160200191611250565b820191906000526020600020905b81548152906001019060200180831161123357829003601f168201915b505050505090506112a089898481811061126c5761126c615e1e565b905060200281019061127e9190615ca3565b868461129b670de0b6b3a76400006801bc16d674ec800000615d35565b61441f565b6002600a8d018a8a858181106112b8576112b8615e1e565b90506020028101906112ca9190615ca3565b6040516112d8929190615a61565b908152604051908190036020019020805460ff9290921660ff199092169190911790557fbc28e8595f241c3a0166b245c13eb3884c23fe15e7d51b7a9ab1395284fd992489898481811061132e5761132e615e1e565b90506020028101906113409190615ca3565b60405161134e929190615b12565b60405180910390a1508061136181615dad565b91505061105e565b5061139f83661cd958dd5c995960ca1b611383848a615d35565b611396906801bc16d674ec800000615d16565b8c929190613f68565b6113b783866113ae848a615d35565b8c9291906141d7565b6113c68385611396848a615d35565b6113ea898974746f74616c41637469766556616c696461746f727360581b896141d7565b5061068e93508692506114099150849050670de0b6b3a7640000615d16565b869190613ec3565b6040805160608101825260008082526001602083018190529282019290925261143e918891889190613d3d565b600061144a8787613f17565b6001600160a01b0316637bf821e9868686866040518563ffffffff1660e01b815260040161147b9493929190615b26565b602060405180830381600087803b15801561149557600080fd5b505af11580156114a9573d6000803e3d6000fd5b505050506040513d601f19601f820116820180604052508101906114cd9190615411565b9050806115285760405162461bcd60e51b8152602060048201526024808201527f5374616b655574696c733a20756e7375636365737366756c20696e74657261636044820152633a34b7b760e11b60648201526084016105fa565b6040516355e66bad60e01b815260048101889052602481018790526001600160a01b038316604482015273672FC28Ba198c8d4e392c49F0996dA612cbB4330906355e66bad9060640160006040518083038186803b15801561158957600080fd5b505af415801561159d573d6000803e3d6000fd5b5050505050505050505050565b60006115c085858585896001016005015461427f565b95945050505050565b60408051606081018252600081526001602082018190529181018290526115f4918591859190613d3d565b61162c82691c1c9a5bdc909bdbdcdd60b21b61162386836e1dda5d1a191c985dd85b109bdbdcdd608a1b61422d565b869291906144e0565b61164c826a0c4dedee6e8a6eed2e8c6d60ab1b6116236203f48042615cea565b61166a83836e1dda5d1a191c985dd85b109bdbdcdd608a1b846144e0565b7fc4e4809b1d2eee26da1591233b49c17f3755402df1c9c71533883844bdf2403b828261169a6203f48042615cea565b604080519384526020840192909252908201526060015b60405180910390a1505050565b60408051606081018252600081526001602082018190529181018290526116e9918491849190613d3d565b61170282826a1cdd185ad954185d5cd95960aa1b61422d565b1561175a5760405162461bcd60e51b815260206004820152602260248201527f5374616b655574696c733a207374616b696e6720616c72656164792070617573604482015261195960f21b60648201526084016105fa565b61177582826a1cdd185ad954185d5cd95960aa1b60016144e0565b6040518181527fcf61a69571fcb149379b9264df303e430a464346ff265a1bf29782c491aba6d5906020015b60405180910390a15050565b604080516060810182526001808252602082018190529181018290526000916117d99186918691613d3d565b60405163f7325cdf60e01b8152600481018590526024810184905273380eF052F78BBef740bDd2edb0E567525164Bc259063f7325cdf9060440160206040518083038186803b15801561182b57600080fd5b505af415801561183f573d6000803e3d6000fd5b505050506040513d601f19601f820116820180604052508101906118639190615411565b156118d65760405162461bcd60e51b815260206004820152603b60248201527f5374616b655574696c733a20796f752061726520696e20707269736f6e2c206760448201527f657420696e20746f756368207769746820676f7665726e616e6365000000000060648201526084016105fa565b8147101561193b5760405162461bcd60e51b815260206004820152602c60248201527f5374616b655574696c733a206e6f7420656e6f7567682062616c616e6365206960448201526b6e20506f7274616c20283f2960a01b60648201526084016105fa565b6000611948858585614531565b604051909150600090339085908381818185875af1925050503d806000811461198d576040519150601f19603f3d011682016040523d82523d6000602084013e611992565b606091505b505090508180156119a05750805b6115c05760405162461bcd60e51b815260206004820152601e60248201527f5374616b655574696c733a204661696c656420746f2073656e6420455448000060448201526064016105fa565b600b83015483906001600160a01b03163314611a545760405162461bcd60e51b815260206004820152602160248201527f5374616b655574696c733a2073656e646572204e4f5420474f5645524e414e436044820152604560f81b60648201526084016105fa565b60405163f7325cdf60e01b8152600481018490526024810183905273380eF052F78BBef740bDd2edb0E567525164Bc259063f7325cdf9060440160206040518083038186803b158015611aa657600080fd5b505af4158015611aba573d6000803e3d6000fd5b505050506040513d601f19601f82011682018060405250810190611ade9190615411565b611b2a5760405162461bcd60e51b815260206004820152601960248201527f5374616b655574696c733a204e4f5420696e20707269736f6e0000000000000060448201526064016105fa565b611b418383671c995b19585cd95960c21b426144e0565b6040518281527ffb81f9b30d73d830c3544b34d827c08142579ee75710b490bab0b3995468c5659060200160405180910390a150505050565b60408051606081018252600180825260208201819052600092820192909252611ba7918591859190613d3d565b624f1a00811115611c175760405162461bcd60e51b815260206004820152603460248201527f5374656b655574696c733a2073686f756c64206265206d6f7265207468616e2060448201527313525397d590531251105513d497d411549253d160621b60648201526084016105fa565b6309660180811115611c885760405162461bcd60e51b815260206004820152603460248201527f5374656b655574696c733a2073686f756c64206265206c657373207468616e2060448201527313505617d590531251105513d497d411549253d160621b60648201526084016105fa565b611ca683836e1d985b1a59185d1bdc94195c9a5bd9608a1b846144e0565b60408051838152602081018390527fe0113e91eb2c77db54ab5f4e1d8116cd63fe74f4efd73c65aa7827d2f34403ed91016116b1565b6040805160608101825260008152600160208201819052918101829052611d07918591859190613d3d565b6000611d2784846f0d2dce8cae4ccc2c6cae698cadccee8d60831b61422d565b855460405163fcd295e360e01b81526001600160a01b0385811660048301526024820187905292935091169063fcd295e39060440160206040518083038186803b158015611d7457600080fd5b505afa158015611d88573d6000803e3d6000fd5b505050506040513d601f19601f82011682018060405250810190611dac9190615411565b15611df95760405162461bcd60e51b815260206004820152601d60248201527f5374616b655574696c733a20616c726561647920696e7465726661636500000060448201526064016105fa565b611e3283611e29836040518060400160405280600a815260200169696e746572666163657360b01b815250613f35565b869190856145c1565b611e5284846f0d2dce8cae4ccc2c6cae698cadccee8d60831b60016141d7565b84546040516327b03e0160e21b81526001600160a01b038481166004830152602482018690526001604483015290911690639ec0f804906064015b600060405180830381600087803b158015611ea757600080fd5b505af1158015611ebb573d6000803e3d6000fd5b505050505050505050565b604051600a850190611edb9084908490615a61565b90815260200160405180910390206007015442118015611f255750604051600a850190611f0b9084908490615a61565b90815260405190819003602001902054600360ff90911614155b15611fc75773380eF052F78BBef740bDd2edb0E567525164Bc25632013f9c784866001016009018585604051611f5c929190615a61565b908152604051908190036020018120600301546001600160e01b031960e085901b168252611f969291600401918252602082015260400190565b60006040518083038186803b158015611fae57600080fd5b505af4158015611fc2573d6000803e3d6000fd5b505050505b50505050565b60408051606081018252600080825260016020830152918101829052611ff890869086908490613d3d565b66038d7ea4c68000341161204e5760405162461bcd60e51b815260206004820152601f60248201527f5374616b655574696c733a206174206c6561737420302e30303120657468200060448201526064016105fa565b42821161209d5760405162461bcd60e51b815260206004820152601c60248201527f5374616b655574696c733a20646561646c696e65206e6f74206d65740000000060448201526064016105fa565b6120a785856129d3565b6120f35760405162461bcd60e51b815260206004820152601a60248201527f5374616b655574696c733a206d696e74696e672070617573656400000000000060448201526064016105fa565b60006120ff8686613fc9565b6001600160a01b03166314a6bf0f6040518163ffffffff1660e01b815260040160206040518083038186803b15801561213757600080fd5b505afa15801561214b573d6000803e3d6000fd5b505050506040513d601f19601f8201168201806040525081019061216f919061542e565b905034811061218f576121878787338834898961403f565b9150506115c0565b600034670de0b6b3a76400008311156121c1576121b28989338a8760008b61403f565b91506121be8382615d35565b90505b885460405163f759cc3b60e01b8152600481018990526000916001600160a01b03169063f759cc3b9060240160206040518083038186803b15801561220557600080fd5b505afa158015612219573d6000803e3d6000fd5b505050506040513d601f19601f8201168201806040525081019061223d919061542e565b8a54604080516396ce079560e01b815290516001600160a01b03909216916396ce079591600480820192602092909190829003018186803b15801561228157600080fd5b505afa158015612295573d6000803e3d6000fd5b505050506040513d601f19601f820116820180604052508101906122b9919061542e565b6122c39084615d16565b6122cd9190615d02565b8a5460405163731133e960e01b8152336004820152602481018b90526044810183905260806064820152600060848201529192506001600160a01b03169063731133e99060a401600060405180830381600087803b15801561232e57600080fd5b505af1158015612342573d6000803e3d6000fd5b5061235f92508b91508a905066737572706c757360c81b856141d7565b8661236a8285615cea565b10156123b85760405162461bcd60e51b815260206004820152601d60248201527f5374616b655574696c733a206c657373207468616e206d696e6745544800000060448201526064016105fa565b6123c48a600101613ee4565b1561241d57600061240d6123db6201518042615dc8565b6123e59042615d35565b6040518060400160405280600a81526020016936b4b73a213ab33332b960b11b815250613f35565b905061241b8a8a83856141d7565b505b6124278184615cea565b9a9950505050505050505050565b6040805160608101825260018152600060208201819052918101829052612460918591859190613d3d565b6040516355e66bad60e01b815260048101849052602481018390526001600160a01b038216604482015273672FC28Ba198c8d4e392c49F0996dA612cbB4330906355e66bad9060640160006040518083038186803b1580156124c157600080fd5b505af41580156124d5573d6000803e3d6000fd5b50505050505050565b6040805160608101825260008152600160208201819052918101829052612509918491849190613d3d565b61252282826a1cdd185ad954185d5cd95960aa1b61422d565b6001146125805760405162461bcd60e51b815260206004820152602660248201527f5374616b655574696c733a207374616b696e6720616c7265616479204e4f54206044820152651c185d5cd95960d21b60648201526084016105fa565b61259b82826a1cdd185ad954185d5cd95960aa1b60006144e0565b6040518181527fb65b578bda484b20413a2e121e50adf4c8d77c34c2459a2f658d8a228b8279cb906020016117a1565b6000600a8501838383816125e1576125e1615e1e565b90506020028101906125f39190615ca3565b604051612601929190615a61565b9081526040805191829003602090810183206003015460608401835260018085529184018290526000928401929092529092506126419186918491613d3d565b60005b8281101561068e57600a860184848381811061266257612662615e1e565b90506020028101906126749190615ca3565b604051612682929190615a61565b90815260405190819003602001902054600260ff909116146126a357600080fd5b81600a87018585848181106126ba576126ba615e1e565b90506020028101906126cc9190615ca3565b6040516126da929190615a61565b908152602001604051809103902060030154146126f657600080fd5b6003600a870185858481811061270e5761270e615e1e565b90506020028101906127209190615ca3565b60405161272e929190615a61565b908152604051908190036020019020805460ff9290921660ff199092169190911790557f5e69ec28ebc1f4385eadf0f37268df9a109addb8e0992e1efad2609670cb25dc600a870185858481811061278857612788615e1e565b905060200281019061279a9190615ca3565b6040516127a8929190615a61565b9081526020016040518091039020600201548585848181106127cc576127cc615e1e565b90506020028101906127de9190615ca3565b6040516127ed93929190615c89565b60405180910390a1806127ff81615dad565b915050612644565b6040805160608101825260008152600160208201819052918101829052612832918591859190613d3d565b600061286c83612864846040518060400160405280600a815260200169696e746572666163657360b01b815250613f35565b869190614632565b90506001600160a01b038116158015906129045750845460405163fcd295e360e01b81526001600160a01b038381166004830152602482018690529091169063fcd295e39060440160206040518083038186803b1580156128cc57600080fd5b505afa1580156128e0573d6000803e3d6000fd5b505050506040513d601f19601f820116820180604052508101906129049190615411565b61295a5760405162461bcd60e51b815260206004820152602160248201527f5374616b655574696c733a20616c7265616479204e4f5420696e7465726661636044820152606560f81b60648201526084016105fa565b6129948361298a846040518060400160405280600a815260200169696e746572666163657360b01b815250613f35565b86919060006145c1565b84546040516327b03e0160e21b81526001600160a01b038381166004830152602482018690526000604483015290911690639ec0f80490606401611e8d565b60006129ee83836a1cdd185ad954185d5cd95960aa1b61422d565b1580156105cd5750612a008383613f17565b6001600160a01b0316638650c0726040518163ffffffff1660e01b815260040160206040518083038186803b158015612a3857600080fd5b505afa158015612a4c573d6000803e3d6000fd5b505050506040513d601f19601f82011682018060405250810190612a709190615411565b159392505050565b6000612ab183612aa98460405180604001604052806009815260200168616c6c6f77616e636560b81b815250613f35565b86919061422d565b949350505050565b60606000612adb84846f0d2dce8cae4ccc2c6cae698cadccee8d60831b61422d565b905060008167ffffffffffffffff811115612af857612af8615e34565b604051908082528060200260200182016040528015612b21578160200160208202803683370190505b50905060005b82811015612ba357612b6785612b5f836040518060400160405280600a815260200169696e746572666163657360b01b815250613f35565b889190614632565b828281518110612b7957612b79615e1e565b6001600160a01b039092166020928302919091019091015280612b9b81615dad565b915050612b27565b50949350505050565b60408051606081018252600180825260208201819052918101829052612bd6918591859190613d3d565b8360100154811115612bfa5760405162461bcd60e51b81526004016105fa90615bcf565b60405163d236b06160e01b815260048101849052602481018390526044810182905273672FC28Ba198c8d4e392c49F0996dA612cbB43309063d236b06190606401611f96565b8560100154831115612c645760405162461bcd60e51b81526004016105fa90615bcf565b6040805160a08101825287546001600160a01b039081168252848116602080840191909152600c8a0154821683850152600d8a01548216606080850191909152600e8b01549092166080840152835191820184528782528101869052600f890154818401529151631de8080b60e31b81529091906000908190819073672FC28Ba198c8d4e392c49F0996dA612cbB43309063ef40405890612d0f908d9088908a908c90600401615c13565b60606040518083038186803b158015612d2757600080fd5b505af4158015612d3b573d6000803e3d6000fd5b505050506040513d601f19601f82011682018060405250810190612d5f91906153a7565b925092509250612dbf89731dda5d1a191c985dd85b10dc9959195b9d1a585b60621b612db686604080516001600160a01b0392909216600160f81b1760208084019190915281518084039091018152918101905290565b8d92919061468d565b612dcb8b8b8b85611cdc565b8a546040516322af599760e01b8152670de0b6b3a76400006004820152602481018b90526001600160a01b03909116906322af599790604401600060405180830381600087803b158015612e1e57600080fd5b505af1158015612e32573d6000803e3d6000fd5b50505050600b8b015460405163f2fde38b60e01b81526001600160a01b0391821660048201529082169063f2fde38b90602401600060405180830381600087803b158015612e7f57600080fd5b505af1158015612e93573d6000803e3d6000fd5b50508c5460405163a22cb46560e01b81526001600160a01b03858116600483015260016024830152909116925063a22cb4659150604401600060405180830381600087803b158015612ee457600080fd5b505af1158015612ef8573d6000803e3d6000fd5b505050505050505050505050505050565b60408051606081018252600080825260016020830152918101829052612f3490879087908490613d3d565b428211612f835760405162461bcd60e51b815260206004820152601c60248201527f5374616b655574696c733a20646561646c696e65206e6f74206d65740000000060448201526064016105fa565b8654604051627eeac760e11b8152306004820152602481018790526000916001600160a01b03169062fdd58e9060440160206040518083038186803b158015612fcb57600080fd5b505afa158015612fdf573d6000803e3d6000fd5b505050506040513d601f19601f82011682018060405250810190613003919061542e565b8854604051637921219560e11b81529192506001600160a01b03169063f242432a9061303990339030908b908b90600401615a8d565b600060405180830381600087803b15801561305357600080fd5b505af1158015613067573d6000803e3d6000fd5b50508954604051627eeac760e11b8152306004820152602481018a90528493506001600160a01b03909116915062fdd58e9060440160206040518083038186803b1580156130b457600080fd5b505afa1580156130c8573d6000803e3d6000fd5b505050506040513d601f19601f820116820180604052508101906130ec919061542e565b6130f69190615d35565b601189015490955090506131178787681a5b9a5d1a585d195960ba1b61422d565b6131219190615cea565b42111561313957613134878787876146e7565b945090505b8315613210576131498686613fc9565b6001600160a01b031663916955866001600087878610156131735761316e8689615d35565b613176565b60005b6040516001600160e01b031960e087901b16815260ff9485166004820152939092166024840152604483015260648201526084810185905260a401602060405180830381600087803b1580156131cb57600080fd5b505af11580156131df573d6000803e3d6000fd5b505050506040513d601f19601f82011682018060405250810190613203919061542e565b61320d9082615cea565b90505b604051600090339083908381818185875af1925050503d8060008114613252576040519150601f19603f3d011682016040523d82523d6000602084013e613257565b606091505b50509050806132a85760405162461bcd60e51b815260206004820181905260248201527f5374616b655574696c733a204661696c656420746f2073656e6420457468657260448201526064016105fa565b509695505050505050565b604080516060810182526001808252602082018190526000928201929092526132e0918991889190613d3d565b6040805160608101825260008082526001602083018190529282019290925261330d918991899190613d3d565b60405163f7325cdf60e01b8152600481018890526024810186905273380eF052F78BBef740bDd2edb0E567525164Bc259063f7325cdf9060440160206040518083038186803b15801561335f57600080fd5b505af4158015613373573d6000803e3d6000fd5b505050506040513d601f19601f820116820180604052508101906133979190615411565b1561340a5760405162461bcd60e51b815260206004820152603f60248201527f5374616b655574696c733a206f70657261746f7220697320696e20707269736f60448201527f6e2c2067657420696e20746f756368207769746820676f7665726e616e63650060648201526084016105fa565b8281146134745760405162461bcd60e51b815260206004820152603260248201527f5374616b655574696c733a207075626b65797320616e64207369676e617475726044820152710cae6409c9ea840e6c2daca40d8cadccee8d60731b60648201526084016105fa565b8215801590613484575060408311155b6134cb5760405162461bcd60e51b81526020600482015260186024820152775374616b655574696c733a204d4158203634206e6f64657360401b60448201526064016105fa565b6004880154836134f4898874746f74616c41637469766556616c696461746f727360581b61422d565b6134fe9190615cea565b11156135615760405162461bcd60e51b815260206004820152602c60248201527f5374616b655574696c733a204963654265617220646f6573204e4f54206c696b60448201526b65206d6f6e6f706f6c69657360a01b60648201526084016105fa565b61356c878787612a78565b848490506135ae886135a6896040518060400160405280601081526020016f61637469766556616c696461746f727360801b815250613f35565b8b919061422d565b6135ee896135e68a6040518060400160405280601281526020017170726f706f73656456616c696461746f727360701b815250613f35565b8c919061422d565b6135f89190615cea565b6136029190615cea565b11156136505760405162461bcd60e51b815260206004820181905260248201527f5374616b655574696c733a204e4f5420656e6f75676820616c6c6f77616e636560448201526064016105fa565b613663836801bc16d674ec800000615d16565b613678888866737572706c757360c81b61422d565b10156136c65760405162461bcd60e51b815260206004820152601e60248201527f5374616b655574696c733a204e4f5420656e6f75676820737572706c7573000060448201526064016105fa565b6136e4856136dc670de0b6b3a764000086615d16565b899190614531565b506137108666737572706c757360c81b613707866801bc16d674ec800000615d16565b8a929190613f68565b60006040518060400160405280613730898b6149f890919063ffffffff16565b815260200161373f8a896149f8565b9052905060006137678989731dda5d1a191c985dd85b10dc9959195b9d1a585b60621b614345565b905060006137888a896e1d985b1a59185d1bdc94195c9a5bd9608a1b61422d565b6137929042615cea565b60058c01549091506000906137a8906001615cea565b905060005b87811015613bcc57600a8d018989838181106137cb576137cb615e1e565b90506020028101906137dd9190615ca3565b6040516137eb929190615a61565b9081526040519081900360200190205460ff16156138605760405162461bcd60e51b815260206004820152602c60248201527f5374616b655574696c733a205075626b657920616c726561647920757365642060448201526b1bdc88185b1a595b985d195960a21b60648201526084016105fa565b603089898381811061387457613874615e1e565b90506020028101906138869190615ca3565b9050146138d55760405162461bcd60e51b815260206004820152601f60248201527f5374616b655574696c733a205055424b45595f4c454e475448204552524f520060448201526064016105fa565b60608787838181106138e9576138e9615e1e565b90506020028101906138fb9190615ca3565b9050146139555760405162461bcd60e51b815260206004820152602260248201527f5374616b655574696c733a205349474e41545552455f4c454e4754482045525260448201526127a960f11b60648201526084016105fa565b6139e589898381811061396a5761396a615e1e565b905060200281019061397c9190615ca3565b868a8a8681811061398f5761398f615e1e565b90506020028101906139a19190615ca3565b8080601f016020809104026020016040519081016040528093929190818152602001838380828437600092019190915250670de0b6b3a7640000925061441f915050565b6040805161014081019091526001815260208101613a038385615cea565b815260208082018e9052604082018d90528751606083015287015160808201524260a082015260c08101859052600060e082015261010001888884818110613a4d57613a4d615e1e565b9050602002810190613a5f9190615ca3565b8080601f0160208091040260200160405190810160405280939291908181526020018383808284376000920191909152505050915250600a8e018a8a84818110613aab57613aab615e1e565b9050602002810190613abd9190615ca3565b604051613acb929190615a61565b90815260408051602092819003830190208351815460ff191660ff909116178155838301516001820155908301516002820155606083015160038201556080830151600482015560a0830151600582015560c0830151600682015560e08301516007820155610100830151600882015561012083015180519192613b5792600985019290910190615280565b509050507f4d20e41c35e82c2be5c6aec202394b90627345c43e9b763e6f2389c417278a2d898983818110613b8e57613b8e615e1e565b9050602002810190613ba09190615ca3565b8d8d604051613bb29493929190615ba8565b60405180910390a180613bc481615dad565b9150506137ad565b5050505050613c1286613c09876040518060400160405280601281526020017170726f706f73656456616c696461746f727360701b815250613f35565b899190866141d7565b613c3d86661cd958dd5c995960ca1b613c34866801bc16d674ec800000615d16565b8a9291906141d7565b600588018054849190600090613c54908490615cea565b90915550505050505050505050565b60408051606081018252600080825260016020830181905292820183905291613c8f9187918791613d3d565b60408051606081018252600180825260208201526000918101829052613cb9918791869190613d3d565b613cf184613ce88560405180604001604052806009815260200168616c6c6f77616e636560b81b815250613f35565b879190856144e0565b60408051858152602081018590529081018390527f06ef86357fa27838732e0c7206341897ec58306010a37af61bdfeaf5617248d19060600160405180910390a1506001949350505050565b8115613dca57613d5b84846936b0b4b73a30b4b732b960b11b614632565b6001600160a01b0316336001600160a01b031614613dca5760405162461bcd60e51b815260206004820152602660248201527f4d61696e7461696e65725574696c733a2073656e646572204e4f54206d61696e6044820152653a30b4b732b960d11b60648201526084016105fa565b6000613dde8585635459504560e01b61422d565b90508060041415613e52578160005b60200201511515600114613e4d5760405162461bcd60e51b815260206004820152602160248201527f4d61696e7461696e65725574696c733a2054595045204e4f5420616c6c6f77656044820152601960fa1b60648201526084016105fa565b613ebc565b8060051415613e6357816001613ded565b8060061415613e7457816002613ded565b60405162461bcd60e51b815260206004820152601d60248201527f4d61696e7461696e65725574696c733a20696e76616c6964205459504500000060448201526064016105fa565b5050505050565b6000613eda8484651dd85b1b195d60d21b856141d7565b5060019392505050565b6000610708613ef66201518042615dc8565b111580156105d05750613f0b61070842615d35565b82600201541092915050565b60006105cd83836d6d696e69476f7665726e616e636560901b614632565b60008282604051602001613f4a929190615a3b565b60405160208183030381529060405280519060200120905092915050565b808460010160008585604051602001613f8b929190918252602082015260400190565b6040516020818303038152906040528051906020012081526020019081526020016000206000828254613fbe9190615d35565b909155505050505050565b60006105cd83836d1dda5d1a191c985dd85b141bdbdb60921b614632565b600061400683836e1dda5d1a191c985dd85b109bdbdcdd608a1b61422d565b90504261402284846a0c4dedee6e8a6eed2e8c6d60ab1b61422d565b106105d0576105cd8383691c1c9a5bdc909bdbdcdd60b21b61422d565b600061404b8786613fc9565b6040516348b4aac360e11b815260006004820152600160248201526044810186905260648101859052608481018490526001600160a01b039190911690639169558690869060a4016020604051808303818588803b1580156140ac57600080fd5b505af11580156140c0573d6000803e3d6000fd5b50505050506040513d601f19601f820116820180604052508101906140e5919061542e565b90506001600160a01b038616614164578754604051637a94c56560e11b815230600482015260248101879052604481018390526001600160a01b039091169063f5298aca90606401600060405180830381600087803b15801561414757600080fd5b505af115801561415b573d6000803e3d6000fd5b505050506141cc565b8754604051637921219560e11b81526001600160a01b039091169063f242432a906141999030908a908a908790600401615a8d565b600060405180830381600087803b1580156141b357600080fd5b505af11580156141c7573d6000803e3d6000fd5b505050505b979650505050505050565b8084600101600085856040516020016141fa929190918252602082015260400190565b6040516020818303038152906040528051906020012081526020019081526020016000206000828254613fbe9190615cea565b60008360010160008484604051602001614251929190918252602082015260400190565b6040516020818303038152906040528051906020012081526020019081526020016000205490509392505050565b600061429060018701858585614a40565b801561433b57506142c9858760010160090186866040516142b2929190615a61565b908152602001604051809103902060020154613f17565b6001600160a01b0316638650c0726040518163ffffffff1660e01b815260040160206040518083038186803b15801561430157600080fd5b505afa158015614315573d6000803e3d6000fd5b505050506040513d601f19601f820116820180604052508101906143399190615411565b155b9695505050505050565b60608360020160008484604051602001614369929190918252602082015260400190565b604051602081830303815290604052805190602001208152602001908152602001600020805461439890615d78565b80601f01602080910402602001604051908101604052809291908181526020018280546143c490615d78565b80156144115780601f106143e657610100808354040283529160200191614411565b820191906000526020600020905b8154815290600101906020018083116143f457829003601f168201915b505050505090509392505050565b6f219ab540356cbb839cbe05303d7705fa6001600160a01b0316632289511882878787876144878c8c8080601f0160208091040260200160405190810160405280939291908181526020018383808284376000920191909152508e92508d91508c9050614aa6565b6040518763ffffffff1660e01b81526004016144a7959493929190615b5b565b6000604051808303818588803b1580156144c057600080fd5b505af11580156144d4573d6000803e3d6000fd5b50505050505050505050565b808460010160008585604051602001614503929190918252602082015260400190565b6040516020818303038152906040528051906020012081526020019081526020016000208190555050505050565b6000816145488585651dd85b1b195d60d21b61422d565b10156145ac5760405162461bcd60e51b815260206004820152602d60248201527f4d61696e7461696e65725574696c733a204e4f5420656e6f7567682062616c6160448201526c1b98d9481a5b881dd85b1b195d609a1b60648201526084016105fa565b613eda8484651dd85b1b195d60d21b85613f68565b8084600301600085856040516020016145e4929190918252602082015260400190565b60405160208183030381529060405280519060200120815260200190815260200160002060006101000a8154816001600160a01b0302191690836001600160a01b0316021790555050505050565b60008360030160008484604051602001614656929190918252602082015260400190565b60408051601f19818403018152918152815160209283012083529082019290925201600020546001600160a01b0316949350505050565b8084600201600085856040516020016146b0929190918252602082015260400190565b6040516020818303038152906040528051906020012081526020019081526020016000209080519060200190613ebc929190615280565b835460405163f759cc3b60e01b815260048101849052600091829182916001600160a01b03169063f759cc3b9060240160206040518083038186803b15801561472f57600080fd5b505afa158015614743573d6000803e3d6000fd5b505050506040513d601f19601f82011682018060405250810190614767919061542e565b8754604080516396ce079560e01b8152905192935086926000926001600160a01b0316916396ce0795916004808301926020929190829003018186803b1580156147b057600080fd5b505afa1580156147c4573d6000803e3d6000fd5b505050506040513d601f19601f820116820180604052508101906147e8919061542e565b6147f28484615d16565b6147fc9190615d02565b90506000614815898966737572706c757360c81b61422d565b90508082106148b5578954604080516396ce079560e01b81529051929350839286926001600160a01b0316916396ce0795916004808301926020929190829003018186803b15801561486657600080fd5b505afa15801561487a573d6000803e3d6000fd5b505050506040513d601f19601f8201168201806040525081019061489e919061542e565b6148a89084615d16565b6148b29190615d02565b92505b6000806148c48b8b8688614e92565b90925090506148df8b8b66737572706c757360c81b87613f68565b8b546001600160a01b031663f5298aca308c6148fb858a615d35565b6040516001600160e01b031960e086901b1681526001600160a01b03909316600484015260248301919091526044820152606401600060405180830381600087803b15801561494957600080fd5b505af115801561495d573d6000803e3d6000fd5b5050505061496d8c600101613ee4565b156149c65760006149b66149846201518042615dc8565b61498e9042615d35565b6040518060400160405280600a815260200169313ab937213ab33332b960b11b815250613f35565b90506149c48c8c83896141d7565b505b6149d1826002615d16565b6149db9085615d35565b6149e5868b615d35565b9750975050505050505094509492505050565b6000614a0b83836266656560e81b61422d565b905042614a258484680cccacaa6eed2e8c6d60bb1b61422d565b106105d0576105cd8383677072696f7246656560c01b61422d565b6000846009018484604051614a56929190615a61565b9081526040519081900360200190205460ff1660011480156115c0575081856009018585604051614a88929190615a61565b90815260200160405180910390206001015411159050949350505050565b6000670de0b6b3a7640000821015614b0f5760405162461bcd60e51b815260206004820152602660248201527f4465706f736974436f6e74726163743a206465706f7369742076616c756520746044820152656f6f206c6f7760d01b60648201526084016105fa565b614b1d633b9aca0083615dc8565b15614b865760405162461bcd60e51b815260206004820152603360248201527f4465706f736974436f6e74726163743a206465706f7369742076616c7565206e6044820152726f74206d756c7469706c65206f66206777656960681b60648201526084016105fa565b6000614b96633b9aca0084615d02565b905060006002614ba588614ffd565b604051614bb29190615a71565b602060405180830381855afa158015614bcf573d6000803e3d6000fd5b5050506040513d601f19601f82011682018060405250810190614bf2919061542e565b90506000600280614c068860006040615093565b604051614c139190615a71565b602060405180830381855afa158015614c30573d6000803e3d6000fd5b5050506040513d601f19601f82011682018060405250810190614c53919061542e565b6002614c73614c6e8a6040614c69816060615d35565b615093565b614ffd565b604051614c809190615a71565b602060405180830381855afa158015614c9d573d6000803e3d6000fd5b5050506040513d601f19601f82011682018060405250810190614cc0919061542e565b60408051602081019390935282015260600160408051601f1981840301815290829052614cec91615a71565b602060405180830381855afa158015614d09573d6000803e3d6000fd5b5050506040513d601f19601f82011682018060405250810190614d2c919061542e565b90506000600280848a604051602001614d46929190615a3b565b60408051601f1981840301815290829052614d6091615a71565b602060405180830381855afa158015614d7d573d6000803e3d6000fd5b5050506040513d601f19601f82011682018060405250810190614da0919061542e565b6002614dab8761519f565b604080516020810192909252810186905260600160408051601f1981840301815290829052614dd991615a71565b602060405180830381855afa158015614df6573d6000803e3d6000fd5b5050506040513d601f19601f82011682018060405250810190614e19919061542e565b60408051602081019390935282015260600160408051601f1981840301815290829052614e4591615a71565b602060405180830381855afa158015614e62573d6000803e3d6000fd5b5050506040513d601f19601f82011682018060405250810190614e85919061542e565b9998505050505050505050565b6000806000614ea18787613fc9565b6001600160a01b031663d4cadf686040518163ffffffff1660e01b815260040160206040518083038186803b158015614ed957600080fd5b505afa158015614eed573d6000803e3d6000fd5b505050506040513d601f19601f82011682018060405250810190614f11919061542e565b905060026402540be400614f258388615d16565b614f2f9190615d02565b614f399190615d02565b925060026402540be400614f4d8387615d16565b614f579190615d02565b614f619190615d02565b9150614f6d8787613fc9565b60405163b150798960e01b815260048101859052602481018490526001600160a01b03919091169063b150798990859060440160408051808303818588803b158015614fb857600080fd5b505af1158015614fcc573d6000803e3d6000fd5b50505050506040513d601f19601f82011682018060405250810190614ff1919061593e565b50505094509492505050565b6060602082511015801561501357506040825111155b61501f5761501f615ddc565b81516040141561502d575090565b604080516020808252818301909252600091602082018180368337019050509050600060208201528251602014156150705761506983826151e5565b9392505050565b6150698361508883600087516040614c699190615d35565b6151e5565b50919050565b6060816150a181601f615cea565b10156150e05760405162461bcd60e51b815260206004820152600e60248201526d736c6963655f6f766572666c6f7760901b60448201526064016105fa565b6150ea8284615cea565b8451101561512e5760405162461bcd60e51b8152602060048201526011602482015270736c6963655f6f75744f66426f756e647360781b60448201526064016105fa565b60608215801561514d5760405191506000825260208201604052612ba3565b6040519150601f8416801560200281840101858101878315602002848b0101015b8183101561518657805183526020928301920161516e565b5050858452601f01601f19166040525050949350505050565b600081815b60088110156151cd57600892831b60ff831617929190911c906151c681615dad565b90506151a4565b5080156151dc576151dc615ddc565b5060c01b919050565b6060806040519050835180825260208201818101602087015b818310156152165780518352602092830192016151fe565b50855184518101855292509050808201602086015b8183101561524357805183526020928301920161522b565b508651929092011591909101601f01601f191660405250905092915050565b60405180604001604052806002906020820280368337509192915050565b82805461528c90615d78565b90600052602060002090601f0160209004810192826152ae57600085556152f4565b82601f106152c757805160ff19168380011785556152f4565b828001600101855582156152f4579182015b828111156152f45782518255916020019190600101906152d9565b50615300929150615304565b5090565b5b808211156153005760008155600101615305565b60008083601f84011261532b57600080fd5b50813567ffffffffffffffff81111561534357600080fd5b6020830191508360208260051b850101111561535e57600080fd5b9250929050565b60008083601f84011261537757600080fd5b50813567ffffffffffffffff81111561538f57600080fd5b60208301915083602082850101111561535e57600080fd5b6000806000606084860312156153bc57600080fd5b83516153c781615e4a565b60208501519093506153d881615e4a565b60408501519092506153e981615e4a565b809150509250925092565b60006020828403121561540657600080fd5b813561506981615e62565b60006020828403121561542357600080fd5b815161506981615e62565b60006020828403121561544057600080fd5b5051919050565b6000806040838503121561545a57600080fd5b50508035926020909101359150565b60008060006060848603121561547e57600080fd5b833592506020840135915060408401356153e981615e4a565b60008060008060008060a087890312156154b057600080fd5b8635955060208701359450604087013567ffffffffffffffff8111156154d557600080fd5b6154e189828a01615365565b9095509350506060870135915060808701356154fc81615e4a565b809150509295509295509295565b60008060006060848603121561551f57600080fd5b505081359360208301359350604090920135919050565b6000806000806080858703121561554c57600080fd5b5050823594602084013594506040840135936060013592509050565b6000806000806060858703121561557e57600080fd5b8435935060208501359250604085013567ffffffffffffffff8111156155a357600080fd5b6155af87828801615319565b95989497509550505050565b600080600080606085870312156155d157600080fd5b8435935060208501359250604085013567ffffffffffffffff8111156155f657600080fd5b6155af87828801615365565b6000806000806080858703121561561857600080fd5b843593506020850135925060408501359150606085013561563881615e4a565b939692955090935050565b60008060008060006080868803121561565b57600080fd5b853594506020860135935060408601359250606086013567ffffffffffffffff81111561568757600080fd5b61569388828901615319565b969995985093965092949392505050565b60008060008060008060c087890312156156bd57600080fd5b8635955060208701359450604087013593506060870135925060808701356156e481615e4a565b915060a087013567ffffffffffffffff81111561570057600080fd5b8701604081018910156154fc57600080fd5b60008060008060008060c0878903121561572b57600080fd5b86359550602087013594506040870135935060608701359250608087013561575281615e4a565b8092505060a087013590509295509295509295565b60008060008060008060008060c0898b03121561578357600080fd5b88359750602089013596506040890135955060608901359450608089013567ffffffffffffffff808211156157b757600080fd5b6157c38c838d01615319565b909650945060a08b01359150808211156157dc57600080fd5b506157e98b828c01615319565b999c989b5096995094979396929594505050565b60008060008060008060008060008060e08b8d03121561581c57600080fd5b8a35995060208b0135985060408b0135975060608b0135965060808b013567ffffffffffffffff8082111561585057600080fd5b61585c8e838f01615319565b909850965060a08d013591508082111561587557600080fd5b6158818e838f01615319565b909650945060c08d013591508082111561589a57600080fd5b506158a78d828e01615319565b915080935050809150509295989b9194979a5092959850565b600080600080600060a086880312156158d857600080fd5b505083359560208501359550604085013594606081013594506080013592509050565b60008060008060008060c0878903121561591457600080fd5b505084359660208601359650604086013595606081013595506080810135945060a0013592509050565b6000806040838503121561595157600080fd5b505080516020909101519092909150565b600082604081018360005b60028110156159db5783830387528135601e1987360301811261598f57600080fd5b86018035602067ffffffffffffffff8211156159aa57600080fd5b8136038913156159b957600080fd5b6159c686838386016159e6565b9981019995509390930192505060010161596d565b509095945050505050565b81835281816020850137506000828201602090810191909152601f909101601f19169091010190565b60008151808452615a27816020860160208601615d4c565b601f01601f19169290920160200192915050565b82815260008251615a53816020850160208701615d4c565b919091016020019392505050565b8183823760009101908152919050565b60008251615a83818460208701615d4c565b9190910192915050565b6001600160a01b0394851681529290931660208301526040820152606081019190915260a06080820181905260009082015260c00190565b6020808252825182820181905260009190848201906040850190845b81811015615b065783516001600160a01b031683529284019291840191600101615ae1565b50909695505050505050565b602081526000612ab16020830184866159e6565b606081526000615b3a6060830186886159e6565b6020830194909452506001600160a01b039190911660409091015292915050565b608081526000615b6f6080830187896159e6565b8281036020840152615b818187615a0f565b90508281036040840152615b958186615a0f565b9150508260608301529695505050505050565b606081526000615bbc6060830186886159e6565b6020830194909452506040015292915050565b60208082526024908201527f5374616b655574696c733a204d41585f4d41494e5441494e45525f4645452045604082015263292927a960e11b606082015260800190565b600061014086835260208084018760005b6003811015615c4157815183529183019190830190600101615c24565b505050608084018660005b6005811015615c725781516001600160a01b031683529183019190830190600101615c4c565b50505050806101208401526141cc81840185615962565b8381526040602082015260006115c06040830184866159e6565b6000808335601e19843603018112615cba57600080fd5b83018035915067ffffffffffffffff821115615cd557600080fd5b60200191503681900382131561535e57600080fd5b60008219821115615cfd57615cfd615df2565b500190565b600082615d1157615d11615e08565b500490565b6000816000190483118215151615615d3057615d30615df2565b500290565b600082821015615d4757615d47615df2565b500390565b60005b83811015615d67578181015183820152602001615d4f565b83811115611fc75750506000910152565b600181811c90821680615d8c57607f821691505b6020821081141561508d57634e487b7160e01b600052602260045260246000fd5b6000600019821415615dc157615dc1615df2565b5060010190565b600082615dd757615dd7615e08565b500690565b634e487b7160e01b600052600160045260246000fd5b634e487b7160e01b600052601160045260246000fd5b634e487b7160e01b600052601260045260246000fd5b634e487b7160e01b600052603260045260246000fd5b634e487b7160e01b600052604160045260246000fd5b6001600160a01b0381168114615e5f57600080fd5b50565b8015158114615e5f57600080fdfea26469706673582212205c31ee0a4fa021f82f0737c6fe9ccbed6ab23e0eeefd2b000024cfcfcef4a6c464736f6c63430008070033",
  "deployedBytecode": "0x73000000000000000000000000000000000000000030146080604052600436106101fa5760003560e01c806394bf980d11610119578063bbf1555c116100ac578063d30807f81161007b578063d30807f814610517578063e0b9dabe14610537578063f1016dfb14610557578063fd805ee51461057757600080fd5b8063bbf1555c146104b1578063caafe848146104c4578063ccc68fc3146104d7578063d1dedac8146104f757600080fd5b8063a4ff4e5e116100e8578063a4ff4e5e1461045b578063b13302881461047b578063b3cd425414610485578063b3ce61f31461049157600080fd5b806394bf980d146103db578063955ba8d3146103fb5780639877d3261461041b5780639e8c22831461043b57600080fd5b8063521f883e116101915780637948bd45116101605780637948bd45146103715780637e49bfac1461037b57806383faca401461039b5780638c3c85ce146103bb57600080fd5b8063521f883e14610302578063569391b6146103225780636d6079b21461034257806376b050541461036257600080fd5b80633147a52a116101cd5780633147a52a146102965780633802c20d146102b65780633a66037d146102d657806349937056146102e957600080fd5b80630d552313146101ff57806316614f5e14610234578063303cb36f1461025657806330d2c2ac14610276575b600080fd5b81801561020b57600080fd5b5061021f61021a366004615447565b610597565b60405190151581526020015b60405180910390f35b81801561024057600080fd5b5061025461024f366004615712565b6105d6565b005b81801561026257600080fd5b506102546102713660046157fd565b610696565b81801561028257600080fd5b5061025461029136600461550a565b610dc3565b8180156102a257600080fd5b506102546102b1366004615643565b610ded565b8180156102c257600080fd5b506102546102d1366004615497565b611411565b61021f6102e43660046155bb565b6115aa565b6102f4630966018081565b60405190815260200161022b565b81801561030e57600080fd5b5061025461031d36600461550a565b6115c9565b81801561032e57600080fd5b5061025461033d366004615447565b6116be565b81801561034e57600080fd5b5061021f61035d36600461550a565b6117ad565b6102f4670de0b6b3a764000081565b6102f46203f48081565b81801561038757600080fd5b5061025461039636600461550a565b6119ec565b8180156103a757600080fd5b506102546103b636600461550a565b611b7a565b8180156103c757600080fd5b506102546103d6366004615602565b611cdc565b8180156103e757600080fd5b506102546103f63660046155bb565b611ec6565b81801561040757600080fd5b506102f46104163660046158c0565b611fcd565b81801561042757600080fd5b50610254610436366004615469565b612435565b81801561044757600080fd5b50610254610456366004615447565b6124de565b81801561046757600080fd5b50610254610476366004615568565b6125cb565b6102f4624f1a0081565b6102f46402540be40081565b81801561049d57600080fd5b506102546104ac366004615536565b612807565b61021f6104bf366004615447565b6129d3565b6102f46104d236600461550a565b612a78565b6104ea6104e5366004615447565b612ab9565b60405161022b9190615ac5565b81801561050357600080fd5b50610254610512366004615536565b612bac565b81801561052357600080fd5b506102546105323660046156a4565b612c40565b81801561054357600080fd5b506102f46105523660046158fb565b612f09565b81801561056357600080fd5b50610254610572366004615767565b6132b3565b81801561058357600080fd5b5061021f610592366004615536565b613c63565b6040805160608101825260018082526020820181905260009282018390526105c29185918591613d3d565b6105cd838334613ec3565b90505b92915050565b85601001548311156106035760405162461bcd60e51b81526004016105fa90615bcf565b60405180910390fd5b604051635fae04e760e01b81526004810186905260248101859052604481018490526001600160a01b038316606482015273__$7cc3f5085d749a3b94d028420e2680a54c$__90635fae04e79060840160006040518083038186803b15801561066b57600080fd5b505af415801561067f573d6000803e3d6000fd5b5050505061068e858583611b7a565b505050505050565b60028a01546001600160a01b031633146106f25760405162461bcd60e51b815260206004820152601d60248201527f5374616b655574696c733a2073656e646572204e4f54204f5241434c4500000060448201526064016105fa565b6106fe8a600101613ee4565b1561074b5760405162461bcd60e51b815260206004820152601c60248201527f5374616b655574696c733a204f5241434c45206973206163746976650000000060448201526064016105fa565b6000610755615262565b6000805b8881101561091f57600088888381811061077557610775615e1e565b90506020020135905088888381811061079057610790615e1e565b90506020020135856107a29190615cea565b94508686838181106107b6576107b6615e1e565b90506020020160208101906107cb91906153f4565b1561080c576107db600184615cea565b92506801bc16d674ec800000811115610808576108016801bc16d674ec80000082615d35565b905061080c565b5060005b801561090c576402540be4008f6001016009018c8c8581811061083157610831615e1e565b90506020028101906108439190615ca3565b604051610851929190615a61565b9081526020016040518091039020600401548261086e9190615d16565b6108789190615d02565b84518590610887908390615cea565b9052508c8c1461090c576402540be4008f6001016009018c8c858181106108b0576108b0615e1e565b90506020028101906108c29190615ca3565b6040516108d0929190615a61565b908152602001604051809103902060050154826108ed9190615d16565b6108f79190615d02565b602085018051610908908390615cea565b9052505b508061091781615dad565b915050610759565b50600061092c8d8d613f17565b6001600160a01b031663c5dd6fee856040518263ffffffff1660e01b815260040161095991815260200190565b602060405180830381600087803b15801561097357600080fd5b505af1158015610987573d6000803e3d6000fd5b505050506040513d601f19601f820116820180604052508101906109ab9190615411565b9050806109fa5760405162461bcd60e51b815260206004820152601b60248201527f5374616b655574696c733a204661696c656420746f20636c61696d000000000060448201526064016105fa565b50610a3a8b610a318c6040518060400160405280601081526020016f61637469766556616c696461746f727360801b815250613f35565b8e919084613f68565b610a5e8c8b74746f74616c41637469766556616c696461746f727360581b84613f68565b60208201518251610a6f9190615cea565b610a799084615d35565b9250506000610a888c8c613fc9565b6001600160a01b03166314a6bf0f6040518163ffffffff1660e01b815260040160206040518083038186803b158015610ac057600080fd5b505afa158015610ad4573d6000803e3d6000fd5b505050506040513d601f19601f82011682018060405250810190610af8919061542e565b90506000610b068d8d613fe7565b9050600081118015610b1f5750670de0b6b3a764000082115b8015610b2b57508a8c14155b15610d39576000610b3c8e8e613fc9565b60405163a95b089f60e01b81526000600482015260016024820152604481018790526001600160a01b03919091169063a95b089f9060640160206040518083038186803b158015610b8c57600080fd5b505afa158015610ba0573d6000803e3d6000fd5b505050506040513d601f19601f82011682018060405250810190610bc4919061542e565b90508e60000160009054906101000a90046001600160a01b03166001600160a01b031663f759cc3b8e6040518263ffffffff1660e01b8152600401610c0b91815260200190565b60206040518083038186803b158015610c2357600080fd5b505afa158015610c37573d6000803e3d6000fd5b505050506040513d601f19601f82011682018060405250810190610c5b919061542e565b8f54604080516396ce079560e01b815290516001600160a01b03909216916396ce079591600480820192602092909190829003018186803b158015610c9f57600080fd5b505afa158015610cb3573d6000803e3d6000fd5b505050506040513d601f19601f82011682018060405250810190610cd7919061542e565b610ce19087615d16565b610ceb9190615d02565b610cf59082615d35565b90506402540be400610d078383615d16565b610d119190615d02565b91508184600160200201818151610d289190615cea565b905250610d358286615d35565b9450505b50670de0b6b3a7640000811115610d7557828110610d545750815b610d678d8d60008e85600060001961403f565b50610d728184615d35565b92505b8215610d9157610d918c8c66737572706c757360c81b866141d7565b610da68b8360005b60200201518e9190613ec3565b50610db38a836001610d99565b5050505050505050505050505050565b610dd58282635459504560e01b61422d565b600b14610de157600080fd5b600f9092019190915550565b60408051606081018252600180825260208201819052600092820192909252610e1a918691869190613d3d565b610e2685600101613ee4565b15610e735760405162461bcd60e51b815260206004820152601c60248201527f5374616b655574696c733a204f5241434c45206973206163746976650000000060448201526064016105fa565b8015801590610e83575060408111155b610eca5760405162461bcd60e51b81526020600482015260186024820152775374616b655574696c733a204d4158203634206e6f64657360401b60448201526064016105fa565b600685015460005b82811015610f7957610f098787868685818110610ef157610ef1615e1e565b9050602002810190610f039190615ca3565b8661427f565b610f675760405162461bcd60e51b815260206004820152602960248201527f5374616b655574696c733a204e4f5420616c6c207075626b65797320617265206044820152687374616b6561626c6560b81b60648201526084016105fa565b80610f7181615dad565b915050610ed2565b50506000610faf846040518060400160405280601081526020016f61637469766556616c696461746f727360801b815250613f35565b90506000610fe7856040518060400160405280601281526020017170726f706f73656456616c696461746f727360701b815250613f35565b90506000600a880185858381610fff57610fff615e1e565b90506020028101906110119190615ca3565b60405161101f929190615a61565b90815260405190819003602001902060020154905060006110588883731dda5d1a191c985dd85b10dc9959195b9d1a585b60621b614345565b90506000805b8681101561136957600a8b0188888381811061107c5761107c615e1e565b905060200281019061108e9190615ca3565b60405161109c929190615a61565b9081526020016040518091039020600201548414611183576110e984661cd958dd5c995960ca1b6110cd8585615d35565b6110e0906801bc16d674ec800000615d16565b8d929190613f68565b61110184876110f88585615d35565b8d9291906141d7565b61111084866110e08585615d35565b905080600a8b0188888381811061112957611129615e1e565b905060200281019061113b9190615ca3565b604051611149929190615a61565b9081526040519081900360200190206002015493506111808a85731dda5d1a191c985dd85b10dc9959195b9d1a585b60621b614345565b92505b6000600a8c0189898481811061119b5761119b615e1e565b90506020028101906111ad9190615ca3565b6040516111bb929190615a61565b908152602001604051809103902060090180546111d790615d78565b80601f016020809104026020016040519081016040528092919081815260200182805461120390615d78565b80156112505780601f1061122557610100808354040283529160200191611250565b820191906000526020600020905b81548152906001019060200180831161123357829003601f168201915b505050505090506112a089898481811061126c5761126c615e1e565b905060200281019061127e9190615ca3565b868461129b670de0b6b3a76400006801bc16d674ec800000615d35565b61441f565b6002600a8d018a8a858181106112b8576112b8615e1e565b90506020028101906112ca9190615ca3565b6040516112d8929190615a61565b908152604051908190036020019020805460ff9290921660ff199092169190911790557fbc28e8595f241c3a0166b245c13eb3884c23fe15e7d51b7a9ab1395284fd992489898481811061132e5761132e615e1e565b90506020028101906113409190615ca3565b60405161134e929190615b12565b60405180910390a1508061136181615dad565b91505061105e565b5061139f83661cd958dd5c995960ca1b611383848a615d35565b611396906801bc16d674ec800000615d16565b8c929190613f68565b6113b783866113ae848a615d35565b8c9291906141d7565b6113c68385611396848a615d35565b6113ea898974746f74616c41637469766556616c696461746f727360581b896141d7565b5061068e93508692506114099150849050670de0b6b3a7640000615d16565b869190613ec3565b6040805160608101825260008082526001602083018190529282019290925261143e918891889190613d3d565b600061144a8787613f17565b6001600160a01b0316637bf821e9868686866040518563ffffffff1660e01b815260040161147b9493929190615b26565b602060405180830381600087803b15801561149557600080fd5b505af11580156114a9573d6000803e3d6000fd5b505050506040513d601f19601f820116820180604052508101906114cd9190615411565b9050806115285760405162461bcd60e51b8152602060048201526024808201527f5374616b655574696c733a20756e7375636365737366756c20696e74657261636044820152633a34b7b760e11b60648201526084016105fa565b6040516355e66bad60e01b815260048101889052602481018790526001600160a01b038316604482015273__$7cc3f5085d749a3b94d028420e2680a54c$__906355e66bad9060640160006040518083038186803b15801561158957600080fd5b505af415801561159d573d6000803e3d6000fd5b5050505050505050505050565b60006115c085858585896001016005015461427f565b95945050505050565b60408051606081018252600081526001602082018190529181018290526115f4918591859190613d3d565b61162c82691c1c9a5bdc909bdbdcdd60b21b61162386836e1dda5d1a191c985dd85b109bdbdcdd608a1b61422d565b869291906144e0565b61164c826a0c4dedee6e8a6eed2e8c6d60ab1b6116236203f48042615cea565b61166a83836e1dda5d1a191c985dd85b109bdbdcdd608a1b846144e0565b7fc4e4809b1d2eee26da1591233b49c17f3755402df1c9c71533883844bdf2403b828261169a6203f48042615cea565b604080519384526020840192909252908201526060015b60405180910390a1505050565b60408051606081018252600081526001602082018190529181018290526116e9918491849190613d3d565b61170282826a1cdd185ad954185d5cd95960aa1b61422d565b1561175a5760405162461bcd60e51b815260206004820152602260248201527f5374616b655574696c733a207374616b696e6720616c72656164792070617573604482015261195960f21b60648201526084016105fa565b61177582826a1cdd185ad954185d5cd95960aa1b60016144e0565b6040518181527fcf61a69571fcb149379b9264df303e430a464346ff265a1bf29782c491aba6d5906020015b60405180910390a15050565b604080516060810182526001808252602082018190529181018290526000916117d99186918691613d3d565b60405163f7325cdf60e01b8152600481018590526024810184905273__$88e9f91c78a6ae79a6edc42fa4982a1d74$__9063f7325cdf9060440160206040518083038186803b15801561182b57600080fd5b505af415801561183f573d6000803e3d6000fd5b505050506040513d601f19601f820116820180604052508101906118639190615411565b156118d65760405162461bcd60e51b815260206004820152603b60248201527f5374616b655574696c733a20796f752061726520696e20707269736f6e2c206760448201527f657420696e20746f756368207769746820676f7665726e616e6365000000000060648201526084016105fa565b8147101561193b5760405162461bcd60e51b815260206004820152602c60248201527f5374616b655574696c733a206e6f7420656e6f7567682062616c616e6365206960448201526b6e20506f7274616c20283f2960a01b60648201526084016105fa565b6000611948858585614531565b604051909150600090339085908381818185875af1925050503d806000811461198d576040519150601f19603f3d011682016040523d82523d6000602084013e611992565b606091505b505090508180156119a05750805b6115c05760405162461bcd60e51b815260206004820152601e60248201527f5374616b655574696c733a204661696c656420746f2073656e6420455448000060448201526064016105fa565b600b83015483906001600160a01b03163314611a545760405162461bcd60e51b815260206004820152602160248201527f5374616b655574696c733a2073656e646572204e4f5420474f5645524e414e436044820152604560f81b60648201526084016105fa565b60405163f7325cdf60e01b8152600481018490526024810183905273__$88e9f91c78a6ae79a6edc42fa4982a1d74$__9063f7325cdf9060440160206040518083038186803b158015611aa657600080fd5b505af4158015611aba573d6000803e3d6000fd5b505050506040513d601f19601f82011682018060405250810190611ade9190615411565b611b2a5760405162461bcd60e51b815260206004820152601960248201527f5374616b655574696c733a204e4f5420696e20707269736f6e0000000000000060448201526064016105fa565b611b418383671c995b19585cd95960c21b426144e0565b6040518281527ffb81f9b30d73d830c3544b34d827c08142579ee75710b490bab0b3995468c5659060200160405180910390a150505050565b60408051606081018252600180825260208201819052600092820192909252611ba7918591859190613d3d565b624f1a00811115611c175760405162461bcd60e51b815260206004820152603460248201527f5374656b655574696c733a2073686f756c64206265206d6f7265207468616e2060448201527313525397d590531251105513d497d411549253d160621b60648201526084016105fa565b6309660180811115611c885760405162461bcd60e51b815260206004820152603460248201527f5374656b655574696c733a2073686f756c64206265206c657373207468616e2060448201527313505617d590531251105513d497d411549253d160621b60648201526084016105fa565b611ca683836e1d985b1a59185d1bdc94195c9a5bd9608a1b846144e0565b60408051838152602081018390527fe0113e91eb2c77db54ab5f4e1d8116cd63fe74f4efd73c65aa7827d2f34403ed91016116b1565b6040805160608101825260008152600160208201819052918101829052611d07918591859190613d3d565b6000611d2784846f0d2dce8cae4ccc2c6cae698cadccee8d60831b61422d565b855460405163fcd295e360e01b81526001600160a01b0385811660048301526024820187905292935091169063fcd295e39060440160206040518083038186803b158015611d7457600080fd5b505afa158015611d88573d6000803e3d6000fd5b505050506040513d601f19601f82011682018060405250810190611dac9190615411565b15611df95760405162461bcd60e51b815260206004820152601d60248201527f5374616b655574696c733a20616c726561647920696e7465726661636500000060448201526064016105fa565b611e3283611e29836040518060400160405280600a815260200169696e746572666163657360b01b815250613f35565b869190856145c1565b611e5284846f0d2dce8cae4ccc2c6cae698cadccee8d60831b60016141d7565b84546040516327b03e0160e21b81526001600160a01b038481166004830152602482018690526001604483015290911690639ec0f804906064015b600060405180830381600087803b158015611ea757600080fd5b505af1158015611ebb573d6000803e3d6000fd5b505050505050505050565b604051600a850190611edb9084908490615a61565b90815260200160405180910390206007015442118015611f255750604051600a850190611f0b9084908490615a61565b90815260405190819003602001902054600360ff90911614155b15611fc75773__$88e9f91c78a6ae79a6edc42fa4982a1d74$__632013f9c784866001016009018585604051611f5c929190615a61565b908152604051908190036020018120600301546001600160e01b031960e085901b168252611f969291600401918252602082015260400190565b60006040518083038186803b158015611fae57600080fd5b505af4158015611fc2573d6000803e3d6000fd5b505050505b50505050565b60408051606081018252600080825260016020830152918101829052611ff890869086908490613d3d565b66038d7ea4c68000341161204e5760405162461bcd60e51b815260206004820152601f60248201527f5374616b655574696c733a206174206c6561737420302e30303120657468200060448201526064016105fa565b42821161209d5760405162461bcd60e51b815260206004820152601c60248201527f5374616b655574696c733a20646561646c696e65206e6f74206d65740000000060448201526064016105fa565b6120a785856129d3565b6120f35760405162461bcd60e51b815260206004820152601a60248201527f5374616b655574696c733a206d696e74696e672070617573656400000000000060448201526064016105fa565b60006120ff8686613fc9565b6001600160a01b03166314a6bf0f6040518163ffffffff1660e01b815260040160206040518083038186803b15801561213757600080fd5b505afa15801561214b573d6000803e3d6000fd5b505050506040513d601f19601f8201168201806040525081019061216f919061542e565b905034811061218f576121878787338834898961403f565b9150506115c0565b600034670de0b6b3a76400008311156121c1576121b28989338a8760008b61403f565b91506121be8382615d35565b90505b885460405163f759cc3b60e01b8152600481018990526000916001600160a01b03169063f759cc3b9060240160206040518083038186803b15801561220557600080fd5b505afa158015612219573d6000803e3d6000fd5b505050506040513d601f19601f8201168201806040525081019061223d919061542e565b8a54604080516396ce079560e01b815290516001600160a01b03909216916396ce079591600480820192602092909190829003018186803b15801561228157600080fd5b505afa158015612295573d6000803e3d6000fd5b505050506040513d601f19601f820116820180604052508101906122b9919061542e565b6122c39084615d16565b6122cd9190615d02565b8a5460405163731133e960e01b8152336004820152602481018b90526044810183905260806064820152600060848201529192506001600160a01b03169063731133e99060a401600060405180830381600087803b15801561232e57600080fd5b505af1158015612342573d6000803e3d6000fd5b5061235f92508b91508a905066737572706c757360c81b856141d7565b8661236a8285615cea565b10156123b85760405162461bcd60e51b815260206004820152601d60248201527f5374616b655574696c733a206c657373207468616e206d696e6745544800000060448201526064016105fa565b6123c48a600101613ee4565b1561241d57600061240d6123db6201518042615dc8565b6123e59042615d35565b6040518060400160405280600a81526020016936b4b73a213ab33332b960b11b815250613f35565b905061241b8a8a83856141d7565b505b6124278184615cea565b9a9950505050505050505050565b6040805160608101825260018152600060208201819052918101829052612460918591859190613d3d565b6040516355e66bad60e01b815260048101849052602481018390526001600160a01b038216604482015273__$7cc3f5085d749a3b94d028420e2680a54c$__906355e66bad9060640160006040518083038186803b1580156124c157600080fd5b505af41580156124d5573d6000803e3d6000fd5b50505050505050565b6040805160608101825260008152600160208201819052918101829052612509918491849190613d3d565b61252282826a1cdd185ad954185d5cd95960aa1b61422d565b6001146125805760405162461bcd60e51b815260206004820152602660248201527f5374616b655574696c733a207374616b696e6720616c7265616479204e4f54206044820152651c185d5cd95960d21b60648201526084016105fa565b61259b82826a1cdd185ad954185d5cd95960aa1b60006144e0565b6040518181527fb65b578bda484b20413a2e121e50adf4c8d77c34c2459a2f658d8a228b8279cb906020016117a1565b6000600a8501838383816125e1576125e1615e1e565b90506020028101906125f39190615ca3565b604051612601929190615a61565b9081526040805191829003602090810183206003015460608401835260018085529184018290526000928401929092529092506126419186918491613d3d565b60005b8281101561068e57600a860184848381811061266257612662615e1e565b90506020028101906126749190615ca3565b604051612682929190615a61565b90815260405190819003602001902054600260ff909116146126a357600080fd5b81600a87018585848181106126ba576126ba615e1e565b90506020028101906126cc9190615ca3565b6040516126da929190615a61565b908152602001604051809103902060030154146126f657600080fd5b6003600a870185858481811061270e5761270e615e1e565b90506020028101906127209190615ca3565b60405161272e929190615a61565b908152604051908190036020019020805460ff9290921660ff199092169190911790557f5e69ec28ebc1f4385eadf0f37268df9a109addb8e0992e1efad2609670cb25dc600a870185858481811061278857612788615e1e565b905060200281019061279a9190615ca3565b6040516127a8929190615a61565b9081526020016040518091039020600201548585848181106127cc576127cc615e1e565b90506020028101906127de9190615ca3565b6040516127ed93929190615c89565b60405180910390a1806127ff81615dad565b915050612644565b6040805160608101825260008152600160208201819052918101829052612832918591859190613d3d565b600061286c83612864846040518060400160405280600a815260200169696e746572666163657360b01b815250613f35565b869190614632565b90506001600160a01b038116158015906129045750845460405163fcd295e360e01b81526001600160a01b038381166004830152602482018690529091169063fcd295e39060440160206040518083038186803b1580156128cc57600080fd5b505afa1580156128e0573d6000803e3d6000fd5b505050506040513d601f19601f820116820180604052508101906129049190615411565b61295a5760405162461bcd60e51b815260206004820152602160248201527f5374616b655574696c733a20616c7265616479204e4f5420696e7465726661636044820152606560f81b60648201526084016105fa565b6129948361298a846040518060400160405280600a815260200169696e746572666163657360b01b815250613f35565b86919060006145c1565b84546040516327b03e0160e21b81526001600160a01b038381166004830152602482018690526000604483015290911690639ec0f80490606401611e8d565b60006129ee83836a1cdd185ad954185d5cd95960aa1b61422d565b1580156105cd5750612a008383613f17565b6001600160a01b0316638650c0726040518163ffffffff1660e01b815260040160206040518083038186803b158015612a3857600080fd5b505afa158015612a4c573d6000803e3d6000fd5b505050506040513d601f19601f82011682018060405250810190612a709190615411565b159392505050565b6000612ab183612aa98460405180604001604052806009815260200168616c6c6f77616e636560b81b815250613f35565b86919061422d565b949350505050565b60606000612adb84846f0d2dce8cae4ccc2c6cae698cadccee8d60831b61422d565b905060008167ffffffffffffffff811115612af857612af8615e34565b604051908082528060200260200182016040528015612b21578160200160208202803683370190505b50905060005b82811015612ba357612b6785612b5f836040518060400160405280600a815260200169696e746572666163657360b01b815250613f35565b889190614632565b828281518110612b7957612b79615e1e565b6001600160a01b039092166020928302919091019091015280612b9b81615dad565b915050612b27565b50949350505050565b60408051606081018252600180825260208201819052918101829052612bd6918591859190613d3d565b8360100154811115612bfa5760405162461bcd60e51b81526004016105fa90615bcf565b60405163d236b06160e01b815260048101849052602481018390526044810182905273__$7cc3f5085d749a3b94d028420e2680a54c$__9063d236b06190606401611f96565b8560100154831115612c645760405162461bcd60e51b81526004016105fa90615bcf565b6040805160a08101825287546001600160a01b039081168252848116602080840191909152600c8a0154821683850152600d8a01548216606080850191909152600e8b01549092166080840152835191820184528782528101869052600f890154818401529151631de8080b60e31b81529091906000908190819073__$7cc3f5085d749a3b94d028420e2680a54c$__9063ef40405890612d0f908d9088908a908c90600401615c13565b60606040518083038186803b158015612d2757600080fd5b505af4158015612d3b573d6000803e3d6000fd5b505050506040513d601f19601f82011682018060405250810190612d5f91906153a7565b925092509250612dbf89731dda5d1a191c985dd85b10dc9959195b9d1a585b60621b612db686604080516001600160a01b0392909216600160f81b1760208084019190915281518084039091018152918101905290565b8d92919061468d565b612dcb8b8b8b85611cdc565b8a546040516322af599760e01b8152670de0b6b3a76400006004820152602481018b90526001600160a01b03909116906322af599790604401600060405180830381600087803b158015612e1e57600080fd5b505af1158015612e32573d6000803e3d6000fd5b50505050600b8b015460405163f2fde38b60e01b81526001600160a01b0391821660048201529082169063f2fde38b90602401600060405180830381600087803b158015612e7f57600080fd5b505af1158015612e93573d6000803e3d6000fd5b50508c5460405163a22cb46560e01b81526001600160a01b03858116600483015260016024830152909116925063a22cb4659150604401600060405180830381600087803b158015612ee457600080fd5b505af1158015612ef8573d6000803e3d6000fd5b505050505050505050505050505050565b60408051606081018252600080825260016020830152918101829052612f3490879087908490613d3d565b428211612f835760405162461bcd60e51b815260206004820152601c60248201527f5374616b655574696c733a20646561646c696e65206e6f74206d65740000000060448201526064016105fa565b8654604051627eeac760e11b8152306004820152602481018790526000916001600160a01b03169062fdd58e9060440160206040518083038186803b158015612fcb57600080fd5b505afa158015612fdf573d6000803e3d6000fd5b505050506040513d601f19601f82011682018060405250810190613003919061542e565b8854604051637921219560e11b81529192506001600160a01b03169063f242432a9061303990339030908b908b90600401615a8d565b600060405180830381600087803b15801561305357600080fd5b505af1158015613067573d6000803e3d6000fd5b50508954604051627eeac760e11b8152306004820152602481018a90528493506001600160a01b03909116915062fdd58e9060440160206040518083038186803b1580156130b457600080fd5b505afa1580156130c8573d6000803e3d6000fd5b505050506040513d601f19601f820116820180604052508101906130ec919061542e565b6130f69190615d35565b601189015490955090506131178787681a5b9a5d1a585d195960ba1b61422d565b6131219190615cea565b42111561313957613134878787876146e7565b945090505b8315613210576131498686613fc9565b6001600160a01b031663916955866001600087878610156131735761316e8689615d35565b613176565b60005b6040516001600160e01b031960e087901b16815260ff9485166004820152939092166024840152604483015260648201526084810185905260a401602060405180830381600087803b1580156131cb57600080fd5b505af11580156131df573d6000803e3d6000fd5b505050506040513d601f19601f82011682018060405250810190613203919061542e565b61320d9082615cea565b90505b604051600090339083908381818185875af1925050503d8060008114613252576040519150601f19603f3d011682016040523d82523d6000602084013e613257565b606091505b50509050806132a85760405162461bcd60e51b815260206004820181905260248201527f5374616b655574696c733a204661696c656420746f2073656e6420457468657260448201526064016105fa565b509695505050505050565b604080516060810182526001808252602082018190526000928201929092526132e0918991889190613d3d565b6040805160608101825260008082526001602083018190529282019290925261330d918991899190613d3d565b60405163f7325cdf60e01b8152600481018890526024810186905273__$88e9f91c78a6ae79a6edc42fa4982a1d74$__9063f7325cdf9060440160206040518083038186803b15801561335f57600080fd5b505af4158015613373573d6000803e3d6000fd5b505050506040513d601f19601f820116820180604052508101906133979190615411565b1561340a5760405162461bcd60e51b815260206004820152603f60248201527f5374616b655574696c733a206f70657261746f7220697320696e20707269736f60448201527f6e2c2067657420696e20746f756368207769746820676f7665726e616e63650060648201526084016105fa565b8281146134745760405162461bcd60e51b815260206004820152603260248201527f5374616b655574696c733a207075626b65797320616e64207369676e617475726044820152710cae6409c9ea840e6c2daca40d8cadccee8d60731b60648201526084016105fa565b8215801590613484575060408311155b6134cb5760405162461bcd60e51b81526020600482015260186024820152775374616b655574696c733a204d4158203634206e6f64657360401b60448201526064016105fa565b6004880154836134f4898874746f74616c41637469766556616c696461746f727360581b61422d565b6134fe9190615cea565b11156135615760405162461bcd60e51b815260206004820152602c60248201527f5374616b655574696c733a204963654265617220646f6573204e4f54206c696b60448201526b65206d6f6e6f706f6c69657360a01b60648201526084016105fa565b61356c878787612a78565b848490506135ae886135a6896040518060400160405280601081526020016f61637469766556616c696461746f727360801b815250613f35565b8b919061422d565b6135ee896135e68a6040518060400160405280601281526020017170726f706f73656456616c696461746f727360701b815250613f35565b8c919061422d565b6135f89190615cea565b6136029190615cea565b11156136505760405162461bcd60e51b815260206004820181905260248201527f5374616b655574696c733a204e4f5420656e6f75676820616c6c6f77616e636560448201526064016105fa565b613663836801bc16d674ec800000615d16565b613678888866737572706c757360c81b61422d565b10156136c65760405162461bcd60e51b815260206004820152601e60248201527f5374616b655574696c733a204e4f5420656e6f75676820737572706c7573000060448201526064016105fa565b6136e4856136dc670de0b6b3a764000086615d16565b899190614531565b506137108666737572706c757360c81b613707866801bc16d674ec800000615d16565b8a929190613f68565b60006040518060400160405280613730898b6149f890919063ffffffff16565b815260200161373f8a896149f8565b9052905060006137678989731dda5d1a191c985dd85b10dc9959195b9d1a585b60621b614345565b905060006137888a896e1d985b1a59185d1bdc94195c9a5bd9608a1b61422d565b6137929042615cea565b60058c01549091506000906137a8906001615cea565b905060005b87811015613bcc57600a8d018989838181106137cb576137cb615e1e565b90506020028101906137dd9190615ca3565b6040516137eb929190615a61565b9081526040519081900360200190205460ff16156138605760405162461bcd60e51b815260206004820152602c60248201527f5374616b655574696c733a205075626b657920616c726561647920757365642060448201526b1bdc88185b1a595b985d195960a21b60648201526084016105fa565b603089898381811061387457613874615e1e565b90506020028101906138869190615ca3565b9050146138d55760405162461bcd60e51b815260206004820152601f60248201527f5374616b655574696c733a205055424b45595f4c454e475448204552524f520060448201526064016105fa565b60608787838181106138e9576138e9615e1e565b90506020028101906138fb9190615ca3565b9050146139555760405162461bcd60e51b815260206004820152602260248201527f5374616b655574696c733a205349474e41545552455f4c454e4754482045525260448201526127a960f11b60648201526084016105fa565b6139e589898381811061396a5761396a615e1e565b905060200281019061397c9190615ca3565b868a8a8681811061398f5761398f615e1e565b90506020028101906139a19190615ca3565b8080601f016020809104026020016040519081016040528093929190818152602001838380828437600092019190915250670de0b6b3a7640000925061441f915050565b6040805161014081019091526001815260208101613a038385615cea565b815260208082018e9052604082018d90528751606083015287015160808201524260a082015260c08101859052600060e082015261010001888884818110613a4d57613a4d615e1e565b9050602002810190613a5f9190615ca3565b8080601f0160208091040260200160405190810160405280939291908181526020018383808284376000920191909152505050915250600a8e018a8a84818110613aab57613aab615e1e565b9050602002810190613abd9190615ca3565b604051613acb929190615a61565b90815260408051602092819003830190208351815460ff191660ff909116178155838301516001820155908301516002820155606083015160038201556080830151600482015560a0830151600582015560c0830151600682015560e08301516007820155610100830151600882015561012083015180519192613b5792600985019290910190615280565b509050507f4d20e41c35e82c2be5c6aec202394b90627345c43e9b763e6f2389c417278a2d898983818110613b8e57613b8e615e1e565b9050602002810190613ba09190615ca3565b8d8d604051613bb29493929190615ba8565b60405180910390a180613bc481615dad565b9150506137ad565b5050505050613c1286613c09876040518060400160405280601281526020017170726f706f73656456616c696461746f727360701b815250613f35565b899190866141d7565b613c3d86661cd958dd5c995960ca1b613c34866801bc16d674ec800000615d16565b8a9291906141d7565b600588018054849190600090613c54908490615cea565b90915550505050505050505050565b60408051606081018252600080825260016020830181905292820183905291613c8f9187918791613d3d565b60408051606081018252600180825260208201526000918101829052613cb9918791869190613d3d565b613cf184613ce88560405180604001604052806009815260200168616c6c6f77616e636560b81b815250613f35565b879190856144e0565b60408051858152602081018590529081018390527f06ef86357fa27838732e0c7206341897ec58306010a37af61bdfeaf5617248d19060600160405180910390a1506001949350505050565b8115613dca57613d5b84846936b0b4b73a30b4b732b960b11b614632565b6001600160a01b0316336001600160a01b031614613dca5760405162461bcd60e51b815260206004820152602660248201527f4d61696e7461696e65725574696c733a2073656e646572204e4f54206d61696e6044820152653a30b4b732b960d11b60648201526084016105fa565b6000613dde8585635459504560e01b61422d565b90508060041415613e52578160005b60200201511515600114613e4d5760405162461bcd60e51b815260206004820152602160248201527f4d61696e7461696e65725574696c733a2054595045204e4f5420616c6c6f77656044820152601960fa1b60648201526084016105fa565b613ebc565b8060051415613e6357816001613ded565b8060061415613e7457816002613ded565b60405162461bcd60e51b815260206004820152601d60248201527f4d61696e7461696e65725574696c733a20696e76616c6964205459504500000060448201526064016105fa565b5050505050565b6000613eda8484651dd85b1b195d60d21b856141d7565b5060019392505050565b6000610708613ef66201518042615dc8565b111580156105d05750613f0b61070842615d35565b82600201541092915050565b60006105cd83836d6d696e69476f7665726e616e636560901b614632565b60008282604051602001613f4a929190615a3b565b60405160208183030381529060405280519060200120905092915050565b808460010160008585604051602001613f8b929190918252602082015260400190565b6040516020818303038152906040528051906020012081526020019081526020016000206000828254613fbe9190615d35565b909155505050505050565b60006105cd83836d1dda5d1a191c985dd85b141bdbdb60921b614632565b600061400683836e1dda5d1a191c985dd85b109bdbdcdd608a1b61422d565b90504261402284846a0c4dedee6e8a6eed2e8c6d60ab1b61422d565b106105d0576105cd8383691c1c9a5bdc909bdbdcdd60b21b61422d565b600061404b8786613fc9565b6040516348b4aac360e11b815260006004820152600160248201526044810186905260648101859052608481018490526001600160a01b039190911690639169558690869060a4016020604051808303818588803b1580156140ac57600080fd5b505af11580156140c0573d6000803e3d6000fd5b50505050506040513d601f19601f820116820180604052508101906140e5919061542e565b90506001600160a01b038616614164578754604051637a94c56560e11b815230600482015260248101879052604481018390526001600160a01b039091169063f5298aca90606401600060405180830381600087803b15801561414757600080fd5b505af115801561415b573d6000803e3d6000fd5b505050506141cc565b8754604051637921219560e11b81526001600160a01b039091169063f242432a906141999030908a908a908790600401615a8d565b600060405180830381600087803b1580156141b357600080fd5b505af11580156141c7573d6000803e3d6000fd5b505050505b979650505050505050565b8084600101600085856040516020016141fa929190918252602082015260400190565b6040516020818303038152906040528051906020012081526020019081526020016000206000828254613fbe9190615cea565b60008360010160008484604051602001614251929190918252602082015260400190565b6040516020818303038152906040528051906020012081526020019081526020016000205490509392505050565b600061429060018701858585614a40565b801561433b57506142c9858760010160090186866040516142b2929190615a61565b908152602001604051809103902060020154613f17565b6001600160a01b0316638650c0726040518163ffffffff1660e01b815260040160206040518083038186803b15801561430157600080fd5b505afa158015614315573d6000803e3d6000fd5b505050506040513d601f19601f820116820180604052508101906143399190615411565b155b9695505050505050565b60608360020160008484604051602001614369929190918252602082015260400190565b604051602081830303815290604052805190602001208152602001908152602001600020805461439890615d78565b80601f01602080910402602001604051908101604052809291908181526020018280546143c490615d78565b80156144115780601f106143e657610100808354040283529160200191614411565b820191906000526020600020905b8154815290600101906020018083116143f457829003601f168201915b505050505090509392505050565b6f219ab540356cbb839cbe05303d7705fa6001600160a01b0316632289511882878787876144878c8c8080601f0160208091040260200160405190810160405280939291908181526020018383808284376000920191909152508e92508d91508c9050614aa6565b6040518763ffffffff1660e01b81526004016144a7959493929190615b5b565b6000604051808303818588803b1580156144c057600080fd5b505af11580156144d4573d6000803e3d6000fd5b50505050505050505050565b808460010160008585604051602001614503929190918252602082015260400190565b6040516020818303038152906040528051906020012081526020019081526020016000208190555050505050565b6000816145488585651dd85b1b195d60d21b61422d565b10156145ac5760405162461bcd60e51b815260206004820152602d60248201527f4d61696e7461696e65725574696c733a204e4f5420656e6f7567682062616c6160448201526c1b98d9481a5b881dd85b1b195d609a1b60648201526084016105fa565b613eda8484651dd85b1b195d60d21b85613f68565b8084600301600085856040516020016145e4929190918252602082015260400190565b60405160208183030381529060405280519060200120815260200190815260200160002060006101000a8154816001600160a01b0302191690836001600160a01b0316021790555050505050565b60008360030160008484604051602001614656929190918252602082015260400190565b60408051601f19818403018152918152815160209283012083529082019290925201600020546001600160a01b0316949350505050565b8084600201600085856040516020016146b0929190918252602082015260400190565b6040516020818303038152906040528051906020012081526020019081526020016000209080519060200190613ebc929190615280565b835460405163f759cc3b60e01b815260048101849052600091829182916001600160a01b03169063f759cc3b9060240160206040518083038186803b15801561472f57600080fd5b505afa158015614743573d6000803e3d6000fd5b505050506040513d601f19601f82011682018060405250810190614767919061542e565b8754604080516396ce079560e01b8152905192935086926000926001600160a01b0316916396ce0795916004808301926020929190829003018186803b1580156147b057600080fd5b505afa1580156147c4573d6000803e3d6000fd5b505050506040513d601f19601f820116820180604052508101906147e8919061542e565b6147f28484615d16565b6147fc9190615d02565b90506000614815898966737572706c757360c81b61422d565b90508082106148b5578954604080516396ce079560e01b81529051929350839286926001600160a01b0316916396ce0795916004808301926020929190829003018186803b15801561486657600080fd5b505afa15801561487a573d6000803e3d6000fd5b505050506040513d601f19601f8201168201806040525081019061489e919061542e565b6148a89084615d16565b6148b29190615d02565b92505b6000806148c48b8b8688614e92565b90925090506148df8b8b66737572706c757360c81b87613f68565b8b546001600160a01b031663f5298aca308c6148fb858a615d35565b6040516001600160e01b031960e086901b1681526001600160a01b03909316600484015260248301919091526044820152606401600060405180830381600087803b15801561494957600080fd5b505af115801561495d573d6000803e3d6000fd5b5050505061496d8c600101613ee4565b156149c65760006149b66149846201518042615dc8565b61498e9042615d35565b6040518060400160405280600a815260200169313ab937213ab33332b960b11b815250613f35565b90506149c48c8c83896141d7565b505b6149d1826002615d16565b6149db9085615d35565b6149e5868b615d35565b9750975050505050505094509492505050565b6000614a0b83836266656560e81b61422d565b905042614a258484680cccacaa6eed2e8c6d60bb1b61422d565b106105d0576105cd8383677072696f7246656560c01b61422d565b6000846009018484604051614a56929190615a61565b9081526040519081900360200190205460ff1660011480156115c0575081856009018585604051614a88929190615a61565b90815260200160405180910390206001015411159050949350505050565b6000670de0b6b3a7640000821015614b0f5760405162461bcd60e51b815260206004820152602660248201527f4465706f736974436f6e74726163743a206465706f7369742076616c756520746044820152656f6f206c6f7760d01b60648201526084016105fa565b614b1d633b9aca0083615dc8565b15614b865760405162461bcd60e51b815260206004820152603360248201527f4465706f736974436f6e74726163743a206465706f7369742076616c7565206e6044820152726f74206d756c7469706c65206f66206777656960681b60648201526084016105fa565b6000614b96633b9aca0084615d02565b905060006002614ba588614ffd565b604051614bb29190615a71565b602060405180830381855afa158015614bcf573d6000803e3d6000fd5b5050506040513d601f19601f82011682018060405250810190614bf2919061542e565b90506000600280614c068860006040615093565b604051614c139190615a71565b602060405180830381855afa158015614c30573d6000803e3d6000fd5b5050506040513d601f19601f82011682018060405250810190614c53919061542e565b6002614c73614c6e8a6040614c69816060615d35565b615093565b614ffd565b604051614c809190615a71565b602060405180830381855afa158015614c9d573d6000803e3d6000fd5b5050506040513d601f19601f82011682018060405250810190614cc0919061542e565b60408051602081019390935282015260600160408051601f1981840301815290829052614cec91615a71565b602060405180830381855afa158015614d09573d6000803e3d6000fd5b5050506040513d601f19601f82011682018060405250810190614d2c919061542e565b90506000600280848a604051602001614d46929190615a3b565b60408051601f1981840301815290829052614d6091615a71565b602060405180830381855afa158015614d7d573d6000803e3d6000fd5b5050506040513d601f19601f82011682018060405250810190614da0919061542e565b6002614dab8761519f565b604080516020810192909252810186905260600160408051601f1981840301815290829052614dd991615a71565b602060405180830381855afa158015614df6573d6000803e3d6000fd5b5050506040513d601f19601f82011682018060405250810190614e19919061542e565b60408051602081019390935282015260600160408051601f1981840301815290829052614e4591615a71565b602060405180830381855afa158015614e62573d6000803e3d6000fd5b5050506040513d601f19601f82011682018060405250810190614e85919061542e565b9998505050505050505050565b6000806000614ea18787613fc9565b6001600160a01b031663d4cadf686040518163ffffffff1660e01b815260040160206040518083038186803b158015614ed957600080fd5b505afa158015614eed573d6000803e3d6000fd5b505050506040513d601f19601f82011682018060405250810190614f11919061542e565b905060026402540be400614f258388615d16565b614f2f9190615d02565b614f399190615d02565b925060026402540be400614f4d8387615d16565b614f579190615d02565b614f619190615d02565b9150614f6d8787613fc9565b60405163b150798960e01b815260048101859052602481018490526001600160a01b03919091169063b150798990859060440160408051808303818588803b158015614fb857600080fd5b505af1158015614fcc573d6000803e3d6000fd5b50505050506040513d601f19601f82011682018060405250810190614ff1919061593e565b50505094509492505050565b6060602082511015801561501357506040825111155b61501f5761501f615ddc565b81516040141561502d575090565b604080516020808252818301909252600091602082018180368337019050509050600060208201528251602014156150705761506983826151e5565b9392505050565b6150698361508883600087516040614c699190615d35565b6151e5565b50919050565b6060816150a181601f615cea565b10156150e05760405162461bcd60e51b815260206004820152600e60248201526d736c6963655f6f766572666c6f7760901b60448201526064016105fa565b6150ea8284615cea565b8451101561512e5760405162461bcd60e51b8152602060048201526011602482015270736c6963655f6f75744f66426f756e647360781b60448201526064016105fa565b60608215801561514d5760405191506000825260208201604052612ba3565b6040519150601f8416801560200281840101858101878315602002848b0101015b8183101561518657805183526020928301920161516e565b5050858452601f01601f19166040525050949350505050565b600081815b60088110156151cd57600892831b60ff831617929190911c906151c681615dad565b90506151a4565b5080156151dc576151dc615ddc565b5060c01b919050565b6060806040519050835180825260208201818101602087015b818310156152165780518352602092830192016151fe565b50855184518101855292509050808201602086015b8183101561524357805183526020928301920161522b565b508651929092011591909101601f01601f191660405250905092915050565b60405180604001604052806002906020820280368337509192915050565b82805461528c90615d78565b90600052602060002090601f0160209004810192826152ae57600085556152f4565b82601f106152c757805160ff19168380011785556152f4565b828001600101855582156152f4579182015b828111156152f45782518255916020019190600101906152d9565b50615300929150615304565b5090565b5b808211156153005760008155600101615305565b60008083601f84011261532b57600080fd5b50813567ffffffffffffffff81111561534357600080fd5b6020830191508360208260051b850101111561535e57600080fd5b9250929050565b60008083601f84011261537757600080fd5b50813567ffffffffffffffff81111561538f57600080fd5b60208301915083602082850101111561535e57600080fd5b6000806000606084860312156153bc57600080fd5b83516153c781615e4a565b60208501519093506153d881615e4a565b60408501519092506153e981615e4a565b809150509250925092565b60006020828403121561540657600080fd5b813561506981615e62565b60006020828403121561542357600080fd5b815161506981615e62565b60006020828403121561544057600080fd5b5051919050565b6000806040838503121561545a57600080fd5b50508035926020909101359150565b60008060006060848603121561547e57600080fd5b833592506020840135915060408401356153e981615e4a565b60008060008060008060a087890312156154b057600080fd5b8635955060208701359450604087013567ffffffffffffffff8111156154d557600080fd5b6154e189828a01615365565b9095509350506060870135915060808701356154fc81615e4a565b809150509295509295509295565b60008060006060848603121561551f57600080fd5b505081359360208301359350604090920135919050565b6000806000806080858703121561554c57600080fd5b5050823594602084013594506040840135936060013592509050565b6000806000806060858703121561557e57600080fd5b8435935060208501359250604085013567ffffffffffffffff8111156155a357600080fd5b6155af87828801615319565b95989497509550505050565b600080600080606085870312156155d157600080fd5b8435935060208501359250604085013567ffffffffffffffff8111156155f657600080fd5b6155af87828801615365565b6000806000806080858703121561561857600080fd5b843593506020850135925060408501359150606085013561563881615e4a565b939692955090935050565b60008060008060006080868803121561565b57600080fd5b853594506020860135935060408601359250606086013567ffffffffffffffff81111561568757600080fd5b61569388828901615319565b969995985093965092949392505050565b60008060008060008060c087890312156156bd57600080fd5b8635955060208701359450604087013593506060870135925060808701356156e481615e4a565b915060a087013567ffffffffffffffff81111561570057600080fd5b8701604081018910156154fc57600080fd5b60008060008060008060c0878903121561572b57600080fd5b86359550602087013594506040870135935060608701359250608087013561575281615e4a565b8092505060a087013590509295509295509295565b60008060008060008060008060c0898b03121561578357600080fd5b88359750602089013596506040890135955060608901359450608089013567ffffffffffffffff808211156157b757600080fd5b6157c38c838d01615319565b909650945060a08b01359150808211156157dc57600080fd5b506157e98b828c01615319565b999c989b5096995094979396929594505050565b60008060008060008060008060008060e08b8d03121561581c57600080fd5b8a35995060208b0135985060408b0135975060608b0135965060808b013567ffffffffffffffff8082111561585057600080fd5b61585c8e838f01615319565b909850965060a08d013591508082111561587557600080fd5b6158818e838f01615319565b909650945060c08d013591508082111561589a57600080fd5b506158a78d828e01615319565b915080935050809150509295989b9194979a5092959850565b600080600080600060a086880312156158d857600080fd5b505083359560208501359550604085013594606081013594506080013592509050565b60008060008060008060c0878903121561591457600080fd5b505084359660208601359650604086013595606081013595506080810135945060a0013592509050565b6000806040838503121561595157600080fd5b505080516020909101519092909150565b600082604081018360005b60028110156159db5783830387528135601e1987360301811261598f57600080fd5b86018035602067ffffffffffffffff8211156159aa57600080fd5b8136038913156159b957600080fd5b6159c686838386016159e6565b9981019995509390930192505060010161596d565b509095945050505050565b81835281816020850137506000828201602090810191909152601f909101601f19169091010190565b60008151808452615a27816020860160208601615d4c565b601f01601f19169290920160200192915050565b82815260008251615a53816020850160208701615d4c565b919091016020019392505050565b8183823760009101908152919050565b60008251615a83818460208701615d4c565b9190910192915050565b6001600160a01b0394851681529290931660208301526040820152606081019190915260a06080820181905260009082015260c00190565b6020808252825182820181905260009190848201906040850190845b81811015615b065783516001600160a01b031683529284019291840191600101615ae1565b50909695505050505050565b602081526000612ab16020830184866159e6565b606081526000615b3a6060830186886159e6565b6020830194909452506001600160a01b039190911660409091015292915050565b608081526000615b6f6080830187896159e6565b8281036020840152615b818187615a0f565b90508281036040840152615b958186615a0f565b9150508260608301529695505050505050565b606081526000615bbc6060830186886159e6565b6020830194909452506040015292915050565b60208082526024908201527f5374616b655574696c733a204d41585f4d41494e5441494e45525f4645452045604082015263292927a960e11b606082015260800190565b600061014086835260208084018760005b6003811015615c4157815183529183019190830190600101615c24565b505050608084018660005b6005811015615c725781516001600160a01b031683529183019190830190600101615c4c565b50505050806101208401526141cc81840185615962565b8381526040602082015260006115c06040830184866159e6565b6000808335601e19843603018112615cba57600080fd5b83018035915067ffffffffffffffff821115615cd557600080fd5b60200191503681900382131561535e57600080fd5b60008219821115615cfd57615cfd615df2565b500190565b600082615d1157615d11615e08565b500490565b6000816000190483118215151615615d3057615d30615df2565b500290565b600082821015615d4757615d47615df2565b500390565b60005b83811015615d67578181015183820152602001615d4f565b83811115611fc75750506000910152565b600181811c90821680615d8c57607f821691505b6020821081141561508d57634e487b7160e01b600052602260045260246000fd5b6000600019821415615dc157615dc1615df2565b5060010190565b600082615dd757615dd7615e08565b500690565b634e487b7160e01b600052600160045260246000fd5b634e487b7160e01b600052601160045260246000fd5b634e487b7160e01b600052601260045260246000fd5b634e487b7160e01b600052603260045260246000fd5b634e487b7160e01b600052604160045260246000fd5b6001600160a01b0381168114615e5f57600080fd5b50565b8015158114615e5f57600080fdfea26469706673582212205c31ee0a4fa021f82f0737c6fe9ccbed6ab23e0eeefd2b000024cfcfcef4a6c464736f6c63430008070033",
  "libraries": {
    "OracleUtils": "0x380eF052F78BBef740bDd2edb0E567525164Bc25",
    "MaintainerUtils": "0x672FC28Ba198c8d4e392c49F0996dA612cbB4330"
  },
  "devdoc": {
    "author": "Icebear & Crash Bandicoot",
    "details": "Contracts relying on this library must initialize StakeUtils.StakePoolALL \"fee\" variables are limited by PERCENTAGE_DENOMINATOR. * For ex, when fee is equal to PERCENTAGE_DENOMINATOR/2, it means 50% fee Note refer to DataStoreUtils before reviewing Note refer to MaintainerUtilsLib before reviewing Note refer to OracleUtilsLib before reviewing Note *suggested* refer to GeodeUtils before reviewing Note beware of the staking pool and operator implementations: Type 4 stands for Operators: They maintain Beacon Chain Validators on behalf of Planets and Comets * only if they are allowed to Operators have properties like fee(as a percentage), maintainer. Type 5 stands for Public Staking Pool (Planets): * Every Planet is also an Operator by design. * * Planets inherits Operator functionalities and parameters, with additional * * properties related to miniGovernances and staking pools - surplus, secured, withdrawalPool etc. * ID of a pool represents an id of gETH. * Creation of staking pools are not permissionless but the usage of it is. * * Meaning Everyone can stake and unstake using public pools. Type 6 stands for Private Staking Pools (Comets): * It is permissionless, one can directly create a Comet by simply * * choosing a name and sending MIN_AMOUNT which is expected to be 32 ether. * GeodeUtils generates IDs based on types, meaning same name can be used for a Planet and a Comet simultaneously. * The creation process is permissionless but staking is not. * * Meaning Only Comet's maintainer can stake but everyone can unstake * In Comets, there is a Withdrawal Queue instead of DWP. * NOT IMPLEMENTED YET Type 11 stands for a new Mini Governance implementation id: * like always CONTROLLER is the implementation contract position * requires the approval of Senate * Pools are in \"Isolation Mode\" until their mini governance is upgraded to given proposal ID. * * Meaning, no more Depositing or Staking can happen.",
    "kind": "dev",
    "methods": {
      "approveOperator(DataStoreUtils.DataStore storage,uint256,uint256,uint256)": {
        "details": "If planet decreases the approved validator count, below current running validator, operator can only withdraw until to new allowence.only maintainer of _planetId can approve an Operator",
        "params": {
          "allowance": "the MAX number of validators that can be created by the Operator for a given Planet",
          "operatorId": "the id of the Operator to allow them create validators for a given Planet",
          "poolId": "the gETH id of the Planet, only Maintainer can call this function"
        }
      },
      "beaconStake(StakeUtils.StakePool storage,DataStoreUtils.DataStore storage,uint256,bytes[])": {
        "details": "To save gas cost, pubkeys should be arranged by planedIds.  ex: [pk1, pk2, pk3, pk4, pk5, pk6, pk7]  pk1, pk2, pk3 from planet1  pk4, pk5 from planet2  pk6 from planet3  seperate them in similar groups as much as possible.Max number of validators to boostrap is MAX_DEPOSITS_PER_CALL (currently 64)A pubkey that is alienated will not get through. Do not frontrun during ProposeStake.",
        "params": {
          "operatorId": "the id of the Operator whose maintainer calling this function",
          "pubkeys": "Array of BLS12-381 public keys of the validators that are already proposed with ProposeStake."
        }
      },
      "blameOperator(StakeUtils.StakePool storage,DataStoreUtils.DataStore storage,bytes)": {
        "details": "anyone can call this functionif operator has given enough allowence, they can rotate the validators to avoid being prisoned"
      },
      "canDeposit(DataStoreUtils.DataStore storage,uint256)": {
        "details": "minting is paused when stakePaused == 1, meaning true."
      },
      "changePoolMaintainer(DataStoreUtils.DataStore storage,uint256,bytes,bytes32,address)": {
        "details": "requires the old Password and a new passwordHash, this saves the MiniGovernance contract from Double Horn Attack: when Both Senate and Governance is malicious.currently this is enough to ensure the future implementations will improve the miniGovernance security, * we are also working on improving the Isolation Mode, which will allow Portal-less withdrawals for all pool types"
      },
      "decreaseMaintainerWallet(DataStoreUtils.DataStore storage,uint256,uint256)": {
        "details": "only maintainer can decrease the balance directly, * other than that it can be used to propose Validatorsif a maintainer is in prison, it can not decrease the wallet"
      },
      "depositPlanet(StakeUtils.StakePool storage,DataStoreUtils.DataStore storage,uint256,uint256,uint256)": {
        "params": {
          "deadline": "withdrawal pool parameter // debt  msg.value // 100   10  => buyback // 100   100 => buyback // 10    100 => buyback + mint // 0     x   => mint",
          "mingETH": "withdrawal pool parameter",
          "planetId": "id of the staking pool, withdrawal pool and gETH to be used."
        }
      },
      "fetchUnstake(StakeUtils.StakePool storage,DataStoreUtils.DataStore storage,uint256,uint256,bytes[],uint256[],bool[])": {
        "details": "although OnlyOracle, logically this has nothing to do with Telescope. * So we are keeping it here.operator is prisoned if: 1. withdrawn without signalled, being sneaky. in such case they also doesn't receive the boost 2. signalled without withdrawal, deceiving other operators",
        "params": {
          "isExit": "according to eip-4895, there can be multiple ways to distriute the rewards * and not all of them requires exit. Even in such cases reward can be catched from * withdrawal credential and distributed."
        }
      },
      "increaseMaintainerWallet(DataStoreUtils.DataStore storage,uint256)": {
        "details": "only maintainer can increase the balance directly, * other than that it also collects validator rewards"
      },
      "initiateOperator(StakeUtils.StakePool storage,DataStoreUtils.DataStore storage,uint256,uint256,address,uint256)": {
        "details": "requires ID to be approved as a node operator with a specific CONTROLLER",
        "params": {
          "_validatorPeriod": "the expected maximum staking interval Operator can unstake at any given point before this period ends. If operator disobeys this rule, it can be prisoned with blameOperator()"
        }
      },
      "initiatePlanet(StakeUtils.StakePool storage,DataStoreUtils.DataStore storage,uint256,uint256,address,string[2])": {
        "details": "requires ID to be approved as a planet with a specific CONTROLLER",
        "params": {
          "_interfaceSpecs": "0: interface name, 1: interface symbol, currently ERC20 specs."
        }
      },
      "operatorAllowance(DataStoreUtils.DataStore storage,uint256,uint256)": {
        "details": "an operator can not create new validators if: * 1. allowence is 0 (zero) * 2. lower than the current (proposed + active) number of validators * But if operator withdraws a validator, then able to create a new one.prestake checks the approved validator count to make sure the number of validators are not bigger than allowenceallowence doesn't change when new validators created or old ones are unstaked.",
        "returns": {
          "allowance": "allowance"
        }
      },
      "pauseStakingForPool(DataStoreUtils.DataStore storage,uint256)": {
        "details": "pausing requires pool to be NOT paused already"
      },
      "proposeStake(StakeUtils.StakePool storage,DataStoreUtils.DataStore storage,uint256,uint256,bytes[],bytes[])": {
        "details": "DEPOSIT_AMOUNT_PRESTAKE = 1 ether, which is the minimum number to create validator. 31 Ether will be staked after verification of oracles. 32 in total. 1 ether will be sent back to Node Operator when finalized deposit is successful.ProposeStake requires enough allowance from Staking Pools to Operators.ProposeStake requires enough funds within maintainerWallet.Max number of validators to propose is MAX_DEPOSITS_PER_CALL (currently 64)",
        "params": {
          "operatorId": "the id of the Operator whose maintainer calling this function",
          "poolId": "the id of the staking pool whose TYPE can be 5 or 6.",
          "pubkeys": "Array of BLS12-381 public keys of the validators that will be proposed",
          "signatures": "Array of BLS12-381 signatures of the validators that will be proposed"
        }
      },
      "releasePrisoned(StakeUtils.StakePool storage,DataStoreUtils.DataStore storage,uint256)": {
        "details": "in different situations such as a faulty improsenment or coordinated testing periods * Governance can vote on releasing the prisonersonlyGovernance"
      },
      "setInterface(StakeUtils.StakePool storage,DataStoreUtils.DataStore storage,uint256,address)": {
        "details": "every interface has a unique index within \"interfaces\" dynamic array. * even if unsetted, it just replaces the implementation with address(0) for obvious security reasons",
        "params": {
          "_interface": "address of the new gETH ERC1155 interface for given ID"
        }
      },
      "setMiniGovernanceVersion(StakeUtils.StakePool storage,DataStoreUtils.DataStore storage,uint256)": {
        "details": "CONTROLLER of the proposal id represents the implementation address"
      },
      "signalUnstake(StakeUtils.StakePool storage,DataStoreUtils.DataStore storage,bytes[])": {
        "details": "to maintain the health of Geode Universe, we should protect the race conditions. * opeators should know when others are unstaking so they don't spend money for no boost."
      },
      "switchMaintainerFee(StakeUtils.StakePool storage,DataStoreUtils.DataStore storage,uint256,uint256)": {
        "details": "there is a 7 days delay before the new fee is activated, * this protect the pool maintainers from making bad operator choices",
        "params": {
          "newFee": "new fee percentage in terms of PERCENTAGE_DENOMINATOR, reverts if given more than MAX_MAINTAINER_FEE"
        }
      },
      "switchWithdrawalBoost(DataStoreUtils.DataStore storage,uint256,uint256)": {
        "details": "to prevent malicious swings in the withdrawal boost that can harm the competition, Boost changes is also has a delay.",
        "params": {
          "withdrawalBoost": "the percentage of arbitrague that will be shared with Operator on Unstake. Can be used to incentivise Unstakes in case of depeg"
        }
      },
      "unpauseStakingForPool(DataStoreUtils.DataStore storage,uint256)": {
        "details": "unpausing requires pool to be paused already"
      },
      "unsetInterface(StakeUtils.StakePool storage,DataStoreUtils.DataStore storage,uint256,uint256)": {
        "details": "every interface has a unique interface index within interfaces dynamic array. * even if unsetted, it just replaces the implementation with address(0) for obvious security reasonsold Interfaces will still be active if not unsetted",
        "params": {
          "index": "index of given interface at the \"interfaces\" dynamic array"
        }
      },
      "withdrawPlanet(StakeUtils.StakePool storage,DataStoreUtils.DataStore storage,uint256,uint256,uint256,uint256)": {
        "params": {
          "deadline": "TX is expected to revert by Swap.sol if not meet",
          "gEthToWithdraw": "amount of g-derivative that should be withdrawn",
          "minETH": "TX is expected to revert by Swap.sol if not meet"
        }
      }
    },
    "title": "StakeUtils library",
    "version": 1
  },
  "userdoc": {
    "kind": "user",
    "methods": {
      "BOOST_SWITCH_LATENCY()": {
        "notice": "when a maintainer changes the withdrawalBoost, it is effective after a delay"
      },
      "IGNORABLE_DEBT()": {
        "notice": "ignoring any buybacks if the DWP has a low debt"
      },
      "MIN_VALIDATOR_PERIOD()": {
        "notice": "limiting the operator.validatorPeriod, currently around 5 years"
      },
      "PERCENTAGE_DENOMINATOR()": {
        "notice": "PERCENTAGE_DENOMINATOR represents 100%"
      },
      "allInterfaces(DataStoreUtils.DataStore storage,uint256)": {
        "notice": "lists all interfaces, unsetted interfaces will return address(0)"
      },
      "approveOperator(DataStoreUtils.DataStore storage,uint256,uint256,uint256)": {
        "notice": "To allow a Node Operator run validators for your Planet with Max number of validators. * This number can be set again at any given point in the future."
      },
      "beaconStake(StakeUtils.StakePool storage,DataStoreUtils.DataStore storage,uint256,bytes[])": {
        "notice": "Sends 31 Eth from staking pool to validators that are previously created with ProposeStake.  1 Eth per successful validator boostraping is returned back to MaintainerWallet."
      },
      "blameOperator(StakeUtils.StakePool storage,DataStoreUtils.DataStore storage,bytes)": {
        "notice": "allows improsening an Operator if the validator have not been exited until expectedExit"
      },
      "canDeposit(DataStoreUtils.DataStore storage,uint256)": {
        "notice": "checks if staking is allowed in a pool. * when a pool is paused for staking NO new funds can be minted.staking is not allowed if: 1. MiniGovernance is in Isolation Mode, this means it is not upgraded to current version 2. Staking is simply paused by the Pool maintainer"
      },
      "canStake(StakeUtils.StakePool storage,DataStoreUtils.DataStore storage,bytes)": {
        "notice": "external function to check if a validator can use planet funds"
      },
      "changeOperatorMaintainer(DataStoreUtils.DataStore storage,uint256,address)": {
        "notice": "changes maintainer of the given operator (TYPE 4)"
      },
      "changePoolMaintainer(DataStoreUtils.DataStore storage,uint256,bytes,bytes32,address)": {
        "notice": "changes pool maintainer  (TYPE 5-6) + conducts a Senate change on miniGovernance"
      },
      "depositPlanet(StakeUtils.StakePool storage,DataStoreUtils.DataStore storage,uint256,uint256,uint256)": {
        "notice": "Allowing users to deposit into a public staking pool. * Buys from DWP if price is low -debt-, mints new tokens if surplus is sent -more than debt-"
      },
      "fetchUnstake(StakeUtils.StakePool storage,DataStoreUtils.DataStore storage,uint256,uint256,bytes[],uint256[],bool[])": {
        "notice": "Operator finalizing an Unstake event by calling Telescope's multisig: * distributing fees + boost * distributes rewards by burning the derivative * does a buyback if necessary * putting the extra within surplus."
      },
      "initiateOperator(StakeUtils.StakePool storage,DataStoreUtils.DataStore storage,uint256,uint256,address,uint256)": {
        "notice": "initiates ID as an node operator"
      },
      "initiatePlanet(StakeUtils.StakePool storage,DataStoreUtils.DataStore storage,uint256,uint256,address,string[2])": {
        "notice": "initiates ID as a planet (public pool)"
      },
      "operatorAllowance(DataStoreUtils.DataStore storage,uint256,uint256)": {
        "notice": "*operatorAllowence is the number of validators that the given Operator is allowed to create on behalf of the Planet"
      },
      "proposeStake(StakeUtils.StakePool storage,DataStoreUtils.DataStore storage,uint256,uint256,bytes[],bytes[])": {
        "notice": "Validator Credentials Proposal function, first step of crating validators. * Once a pubKey is proposed and not alienated for some time, * it is optimistically allowed to take funds from staking pools."
      },
      "releasePrisoned(StakeUtils.StakePool storage,DataStoreUtils.DataStore storage,uint256)": {
        "notice": "releases an imprisoned operator immidately"
      },
      "setInterface(StakeUtils.StakePool storage,DataStoreUtils.DataStore storage,uint256,address)": {
        "notice": "sets a erc1155Interface for gETH"
      },
      "setMiniGovernanceVersion(StakeUtils.StakePool storage,DataStoreUtils.DataStore storage,uint256)": {
        "notice": "called when a proposal(TYPE=11) for a new MiniGovernance is approved by Senate"
      },
      "signalUnstake(StakeUtils.StakePool storage,DataStoreUtils.DataStore storage,bytes[])": {
        "notice": "allows giving a unstake signal, meaning validator has been exited. * And boost can be claimed upon arrival of the funds."
      },
      "unsetInterface(StakeUtils.StakePool storage,DataStoreUtils.DataStore storage,uint256,uint256)": {
        "notice": "unsets a erc1155Interface for gETH with given index -acquired from allInterfaces()-"
      },
      "updateValidatorPeriod(DataStoreUtils.DataStore storage,uint256,uint256)": {
        "notice": "updates validatorPeriod for given operator, limited by MAX_VALIDATOR_PERIOD"
      },
      "withdrawPlanet(StakeUtils.StakePool storage,DataStoreUtils.DataStore storage,uint256,uint256,uint256,uint256)": {
        "notice": "withdraw funds from Dynamic Staking Pool (Public Staking Pool + DWP) * If not in Boostrap Period, first checks the surplus, than swaps from DWP to create debt"
      }
    },
    "notice": "Exclusively contains functions related to ETH Liquid Staking designbiggest part of the functionality is related to Dynamic Staking Pools which relies on continuous buybacks (DWP) to maintain the price health with debt/surplus calculations",
    "version": 1
  },
  "storageLayout": {
    "storage": [],
    "types": null
  }
}