{
  "address": "0x3b94C2012D1a61a5e95897970B2F8ab0737EaADc",
  "abi": [
    {
      "anonymous": false,
      "inputs": [
        {
          "indexed": true,
          "internalType": "address",
          "name": "provider",
          "type": "address"
        },
        {
          "indexed": false,
          "internalType": "uint256[]",
          "name": "tokenAmounts",
          "type": "uint256[]"
        },
        {
          "indexed": false,
          "internalType": "uint256[]",
          "name": "fees",
          "type": "uint256[]"
        },
        {
          "indexed": false,
          "internalType": "uint256",
          "name": "invariant",
          "type": "uint256"
        },
        {
          "indexed": false,
          "internalType": "uint256",
          "name": "lpTokenSupply",
          "type": "uint256"
        }
      ],
      "name": "AddLiquidity",
      "type": "event"
    },
    {
      "anonymous": false,
      "inputs": [
        {
          "indexed": false,
          "internalType": "uint256",
          "name": "newAdminFee",
          "type": "uint256"
        }
      ],
      "name": "NewAdminFee",
      "type": "event"
    },
    {
      "anonymous": false,
      "inputs": [
        {
          "indexed": false,
          "internalType": "uint256",
          "name": "newSwapFee",
          "type": "uint256"
        }
      ],
      "name": "NewSwapFee",
      "type": "event"
    },
    {
      "anonymous": false,
      "inputs": [
        {
          "indexed": false,
          "internalType": "uint256",
          "name": "newWithdrawFee",
          "type": "uint256"
        }
      ],
      "name": "NewWithdrawFee",
      "type": "event"
    },
    {
      "anonymous": false,
      "inputs": [
        {
          "indexed": true,
          "internalType": "address",
          "name": "previousOwner",
          "type": "address"
        },
        {
          "indexed": true,
          "internalType": "address",
          "name": "newOwner",
          "type": "address"
        }
      ],
      "name": "OwnershipTransferred",
      "type": "event"
    },
    {
      "anonymous": false,
      "inputs": [
        {
          "indexed": false,
          "internalType": "address",
          "name": "account",
          "type": "address"
        }
      ],
      "name": "Paused",
      "type": "event"
    },
    {
      "anonymous": false,
      "inputs": [
        {
          "indexed": false,
          "internalType": "uint256",
          "name": "oldA",
          "type": "uint256"
        },
        {
          "indexed": false,
          "internalType": "uint256",
          "name": "newA",
          "type": "uint256"
        },
        {
          "indexed": false,
          "internalType": "uint256",
          "name": "initialTime",
          "type": "uint256"
        },
        {
          "indexed": false,
          "internalType": "uint256",
          "name": "futureTime",
          "type": "uint256"
        }
      ],
      "name": "RampA",
      "type": "event"
    },
    {
      "anonymous": false,
      "inputs": [
        {
          "indexed": true,
          "internalType": "address",
          "name": "provider",
          "type": "address"
        },
        {
          "indexed": false,
          "internalType": "uint256[]",
          "name": "tokenAmounts",
          "type": "uint256[]"
        },
        {
          "indexed": false,
          "internalType": "uint256",
          "name": "lpTokenSupply",
          "type": "uint256"
        }
      ],
      "name": "RemoveLiquidity",
      "type": "event"
    },
    {
      "anonymous": false,
      "inputs": [
        {
          "indexed": true,
          "internalType": "address",
          "name": "provider",
          "type": "address"
        },
        {
          "indexed": false,
          "internalType": "uint256[]",
          "name": "tokenAmounts",
          "type": "uint256[]"
        },
        {
          "indexed": false,
          "internalType": "uint256[]",
          "name": "fees",
          "type": "uint256[]"
        },
        {
          "indexed": false,
          "internalType": "uint256",
          "name": "invariant",
          "type": "uint256"
        },
        {
          "indexed": false,
          "internalType": "uint256",
          "name": "lpTokenSupply",
          "type": "uint256"
        }
      ],
      "name": "RemoveLiquidityImbalance",
      "type": "event"
    },
    {
      "anonymous": false,
      "inputs": [
        {
          "indexed": true,
          "internalType": "address",
          "name": "provider",
          "type": "address"
        },
        {
          "indexed": false,
          "internalType": "uint256",
          "name": "lpTokenAmount",
          "type": "uint256"
        },
        {
          "indexed": false,
          "internalType": "uint256",
          "name": "lpTokenSupply",
          "type": "uint256"
        },
        {
          "indexed": false,
          "internalType": "uint256",
          "name": "boughtId",
          "type": "uint256"
        },
        {
          "indexed": false,
          "internalType": "uint256",
          "name": "tokensBought",
          "type": "uint256"
        }
      ],
      "name": "RemoveLiquidityOne",
      "type": "event"
    },
    {
      "anonymous": false,
      "inputs": [
        {
          "indexed": false,
          "internalType": "uint256",
          "name": "currentA",
          "type": "uint256"
        },
        {
          "indexed": false,
          "internalType": "uint256",
          "name": "time",
          "type": "uint256"
        }
      ],
      "name": "StopRampA",
      "type": "event"
    },
    {
      "anonymous": false,
      "inputs": [
        {
          "indexed": true,
          "internalType": "address",
          "name": "buyer",
          "type": "address"
        },
        {
          "indexed": false,
          "internalType": "uint256",
          "name": "tokensSold",
          "type": "uint256"
        },
        {
          "indexed": false,
          "internalType": "uint256",
          "name": "tokensBought",
          "type": "uint256"
        },
        {
          "indexed": false,
          "internalType": "uint128",
          "name": "soldId",
          "type": "uint128"
        },
        {
          "indexed": false,
          "internalType": "uint128",
          "name": "boughtId",
          "type": "uint128"
        }
      ],
      "name": "TokenSwap",
      "type": "event"
    },
    {
      "anonymous": false,
      "inputs": [
        {
          "indexed": false,
          "internalType": "address",
          "name": "account",
          "type": "address"
        }
      ],
      "name": "Unpaused",
      "type": "event"
    },
    {
      "inputs": [
        {
          "internalType": "uint256[]",
          "name": "amounts",
          "type": "uint256[]"
        },
        {
          "internalType": "uint256",
          "name": "minToMint",
          "type": "uint256"
        },
        {
          "internalType": "uint256",
          "name": "deadline",
          "type": "uint256"
        }
      ],
      "name": "addLiquidity",
      "outputs": [
        {
          "internalType": "uint256",
          "name": "",
          "type": "uint256"
        }
      ],
      "stateMutability": "payable",
      "type": "function"
    },
    {
      "inputs": [
        {
          "internalType": "uint256",
          "name": "amount",
          "type": "uint256"
        }
      ],
      "name": "calculateRemoveLiquidity",
      "outputs": [
        {
          "internalType": "uint256[]",
          "name": "",
          "type": "uint256[]"
        }
      ],
      "stateMutability": "view",
      "type": "function"
    },
    {
      "inputs": [
        {
          "internalType": "uint256",
          "name": "tokenAmount",
          "type": "uint256"
        },
        {
          "internalType": "uint8",
          "name": "tokenIndex",
          "type": "uint8"
        }
      ],
      "name": "calculateRemoveLiquidityOneToken",
      "outputs": [
        {
          "internalType": "uint256",
          "name": "availableTokenAmount",
          "type": "uint256"
        }
      ],
      "stateMutability": "view",
      "type": "function"
    },
    {
      "inputs": [
        {
          "internalType": "uint8",
          "name": "tokenIndexFrom",
          "type": "uint8"
        },
        {
          "internalType": "uint8",
          "name": "tokenIndexTo",
          "type": "uint8"
        },
        {
          "internalType": "uint256",
          "name": "dx",
          "type": "uint256"
        }
      ],
      "name": "calculateSwap",
      "outputs": [
        {
          "internalType": "uint256",
          "name": "",
          "type": "uint256"
        }
      ],
      "stateMutability": "view",
      "type": "function"
    },
    {
      "inputs": [
        {
          "internalType": "uint256[]",
          "name": "amounts",
          "type": "uint256[]"
        },
        {
          "internalType": "bool",
          "name": "deposit",
          "type": "bool"
        }
      ],
      "name": "calculateTokenAmount",
      "outputs": [
        {
          "internalType": "uint256",
          "name": "",
          "type": "uint256"
        }
      ],
      "stateMutability": "view",
      "type": "function"
    },
    {
      "inputs": [
        {
          "internalType": "uint256",
          "name": "EthDonation",
          "type": "uint256"
        },
        {
          "internalType": "uint256",
          "name": "gEthDonation",
          "type": "uint256"
        }
      ],
      "name": "donateBalancedFees",
      "outputs": [
        {
          "internalType": "uint256",
          "name": "",
          "type": "uint256"
        },
        {
          "internalType": "uint256",
          "name": "",
          "type": "uint256"
        }
      ],
      "stateMutability": "payable",
      "type": "function"
    },
    {
      "inputs": [],
      "name": "getA",
      "outputs": [
        {
          "internalType": "uint256",
          "name": "",
          "type": "uint256"
        }
      ],
      "stateMutability": "view",
      "type": "function"
    },
    {
      "inputs": [],
      "name": "getAPrecise",
      "outputs": [
        {
          "internalType": "uint256",
          "name": "",
          "type": "uint256"
        }
      ],
      "stateMutability": "view",
      "type": "function"
    },
    {
      "inputs": [
        {
          "internalType": "uint256",
          "name": "index",
          "type": "uint256"
        }
      ],
      "name": "getAdminBalance",
      "outputs": [
        {
          "internalType": "uint256",
          "name": "",
          "type": "uint256"
        }
      ],
      "stateMutability": "view",
      "type": "function"
    },
    {
      "inputs": [],
      "name": "getDebt",
      "outputs": [
        {
          "internalType": "uint256",
          "name": "",
          "type": "uint256"
        }
      ],
      "stateMutability": "view",
      "type": "function"
    },
    {
      "inputs": [],
      "name": "getERC1155",
      "outputs": [
        {
          "internalType": "address",
          "name": "",
          "type": "address"
        }
      ],
      "stateMutability": "view",
      "type": "function"
    },
    {
      "inputs": [],
      "name": "getSwapFee",
      "outputs": [
        {
          "internalType": "uint256",
          "name": "",
          "type": "uint256"
        }
      ],
      "stateMutability": "view",
      "type": "function"
    },
    {
      "inputs": [],
      "name": "getToken",
      "outputs": [
        {
          "internalType": "uint256",
          "name": "",
          "type": "uint256"
        }
      ],
      "stateMutability": "view",
      "type": "function"
    },
    {
      "inputs": [
        {
          "internalType": "uint8",
          "name": "index",
          "type": "uint8"
        }
      ],
      "name": "getTokenBalance",
      "outputs": [
        {
          "internalType": "uint256",
          "name": "",
          "type": "uint256"
        }
      ],
      "stateMutability": "view",
      "type": "function"
    },
    {
      "inputs": [],
      "name": "getVirtualPrice",
      "outputs": [
        {
          "internalType": "uint256",
          "name": "",
          "type": "uint256"
        }
      ],
      "stateMutability": "view",
      "type": "function"
    },
    {
      "inputs": [
        {
          "internalType": "contract IgETH",
          "name": "_gETH",
          "type": "address"
        },
        {
          "internalType": "uint256",
          "name": "_pooledTokenId",
          "type": "uint256"
        },
        {
          "internalType": "string",
          "name": "lpTokenName",
          "type": "string"
        },
        {
          "internalType": "string",
          "name": "lpTokenSymbol",
          "type": "string"
        },
        {
          "internalType": "uint256",
          "name": "_a",
          "type": "uint256"
        },
        {
          "internalType": "uint256",
          "name": "_fee",
          "type": "uint256"
        },
        {
          "internalType": "uint256",
          "name": "_adminFee",
          "type": "uint256"
        },
        {
          "internalType": "address",
          "name": "lpTokenTargetAddress",
          "type": "address"
        }
      ],
      "name": "initialize",
      "outputs": [
        {
          "internalType": "address",
          "name": "",
          "type": "address"
        }
      ],
      "stateMutability": "nonpayable",
      "type": "function"
    },
    {
      "inputs": [
        {
          "internalType": "address",
          "name": "",
          "type": "address"
        },
        {
          "internalType": "address",
          "name": "",
          "type": "address"
        },
        {
          "internalType": "uint256[]",
          "name": "",
          "type": "uint256[]"
        },
        {
          "internalType": "uint256[]",
          "name": "",
          "type": "uint256[]"
        },
        {
          "internalType": "bytes",
          "name": "",
          "type": "bytes"
        }
      ],
      "name": "onERC1155BatchReceived",
      "outputs": [
        {
          "internalType": "bytes4",
          "name": "",
          "type": "bytes4"
        }
      ],
      "stateMutability": "nonpayable",
      "type": "function"
    },
    {
      "inputs": [
        {
          "internalType": "address",
          "name": "",
          "type": "address"
        },
        {
          "internalType": "address",
          "name": "",
          "type": "address"
        },
        {
          "internalType": "uint256",
          "name": "",
          "type": "uint256"
        },
        {
          "internalType": "uint256",
          "name": "",
          "type": "uint256"
        },
        {
          "internalType": "bytes",
          "name": "",
          "type": "bytes"
        }
      ],
      "name": "onERC1155Received",
      "outputs": [
        {
          "internalType": "bytes4",
          "name": "",
          "type": "bytes4"
        }
      ],
      "stateMutability": "nonpayable",
      "type": "function"
    },
    {
      "inputs": [],
      "name": "owner",
      "outputs": [
        {
          "internalType": "address",
          "name": "",
          "type": "address"
        }
      ],
      "stateMutability": "view",
      "type": "function"
    },
    {
      "inputs": [],
      "name": "pause",
      "outputs": [],
      "stateMutability": "nonpayable",
      "type": "function"
    },
    {
      "inputs": [],
      "name": "paused",
      "outputs": [
        {
          "internalType": "bool",
          "name": "",
          "type": "bool"
        }
      ],
      "stateMutability": "view",
      "type": "function"
    },
    {
      "inputs": [
        {
          "internalType": "uint256",
          "name": "futureA",
          "type": "uint256"
        },
        {
          "internalType": "uint256",
          "name": "futureTime",
          "type": "uint256"
        }
      ],
      "name": "rampA",
      "outputs": [],
      "stateMutability": "nonpayable",
      "type": "function"
    },
    {
      "inputs": [
        {
          "internalType": "uint256",
          "name": "amount",
          "type": "uint256"
        },
        {
          "internalType": "uint256[]",
          "name": "minAmounts",
          "type": "uint256[]"
        },
        {
          "internalType": "uint256",
          "name": "deadline",
          "type": "uint256"
        }
      ],
      "name": "removeLiquidity",
      "outputs": [
        {
          "internalType": "uint256[]",
          "name": "",
          "type": "uint256[]"
        }
      ],
      "stateMutability": "nonpayable",
      "type": "function"
    },
    {
      "inputs": [
        {
          "internalType": "uint256[]",
          "name": "amounts",
          "type": "uint256[]"
        },
        {
          "internalType": "uint256",
          "name": "maxBurnAmount",
          "type": "uint256"
        },
        {
          "internalType": "uint256",
          "name": "deadline",
          "type": "uint256"
        }
      ],
      "name": "removeLiquidityImbalance",
      "outputs": [
        {
          "internalType": "uint256",
          "name": "",
          "type": "uint256"
        }
      ],
      "stateMutability": "nonpayable",
      "type": "function"
    },
    {
      "inputs": [
        {
          "internalType": "uint256",
          "name": "tokenAmount",
          "type": "uint256"
        },
        {
          "internalType": "uint8",
          "name": "tokenIndex",
          "type": "uint8"
        },
        {
          "internalType": "uint256",
          "name": "minAmount",
          "type": "uint256"
        },
        {
          "internalType": "uint256",
          "name": "deadline",
          "type": "uint256"
        }
      ],
      "name": "removeLiquidityOneToken",
      "outputs": [
        {
          "internalType": "uint256",
          "name": "",
          "type": "uint256"
        }
      ],
      "stateMutability": "nonpayable",
      "type": "function"
    },
    {
      "inputs": [],
      "name": "renounceOwnership",
      "outputs": [],
      "stateMutability": "nonpayable",
      "type": "function"
    },
    {
      "inputs": [
        {
          "internalType": "uint256",
          "name": "newAdminFee",
          "type": "uint256"
        }
      ],
      "name": "setAdminFee",
      "outputs": [],
      "stateMutability": "nonpayable",
      "type": "function"
    },
    {
      "inputs": [
        {
          "internalType": "uint256",
          "name": "newSwapFee",
          "type": "uint256"
        }
      ],
      "name": "setSwapFee",
      "outputs": [],
      "stateMutability": "nonpayable",
      "type": "function"
    },
    {
      "inputs": [],
      "name": "stopRampA",
      "outputs": [],
      "stateMutability": "nonpayable",
      "type": "function"
    },
    {
      "inputs": [
        {
          "internalType": "bytes4",
          "name": "interfaceId",
          "type": "bytes4"
        }
      ],
      "name": "supportsInterface",
      "outputs": [
        {
          "internalType": "bool",
          "name": "",
          "type": "bool"
        }
      ],
      "stateMutability": "view",
      "type": "function"
    },
    {
      "inputs": [
        {
          "internalType": "uint8",
          "name": "tokenIndexFrom",
          "type": "uint8"
        },
        {
          "internalType": "uint8",
          "name": "tokenIndexTo",
          "type": "uint8"
        },
        {
          "internalType": "uint256",
          "name": "dx",
          "type": "uint256"
        },
        {
          "internalType": "uint256",
          "name": "minDy",
          "type": "uint256"
        },
        {
          "internalType": "uint256",
          "name": "deadline",
          "type": "uint256"
        }
      ],
      "name": "swap",
      "outputs": [
        {
          "internalType": "uint256",
          "name": "",
          "type": "uint256"
        }
      ],
      "stateMutability": "payable",
      "type": "function"
    },
    {
      "inputs": [],
      "name": "swapStorage",
      "outputs": [
        {
          "internalType": "contract IgETH",
          "name": "gETH",
          "type": "address"
        },
        {
          "internalType": "contract ILPToken",
          "name": "lpToken",
          "type": "address"
        },
        {
          "internalType": "uint256",
          "name": "pooledTokenId",
          "type": "uint256"
        },
        {
          "internalType": "uint256",
          "name": "initialA",
          "type": "uint256"
        },
        {
          "internalType": "uint256",
          "name": "futureA",
          "type": "uint256"
        },
        {
          "internalType": "uint256",
          "name": "initialATime",
          "type": "uint256"
        },
        {
          "internalType": "uint256",
          "name": "futureATime",
          "type": "uint256"
        },
        {
          "internalType": "uint256",
          "name": "swapFee",
          "type": "uint256"
        },
        {
          "internalType": "uint256",
          "name": "adminFee",
          "type": "uint256"
        }
      ],
      "stateMutability": "view",
      "type": "function"
    },
    {
      "inputs": [
        {
          "internalType": "address",
          "name": "newOwner",
          "type": "address"
        }
      ],
      "name": "transferOwnership",
      "outputs": [],
      "stateMutability": "nonpayable",
      "type": "function"
    },
    {
      "inputs": [],
      "name": "unpause",
      "outputs": [],
      "stateMutability": "nonpayable",
      "type": "function"
    },
    {
      "inputs": [],
      "name": "withdrawAdminFees",
      "outputs": [],
      "stateMutability": "nonpayable",
      "type": "function"
    }
  ],
  "transactionHash": "0x2d75adcf9f08534f93791f3ba765a9e16af4885a7c2aa04bee7af464e9c9d706",
  "args": [],
  "numDeployments": 1,
  "solcInputHash": "ee39b7d5d718f6bdbf221f88cbfb986f",
  "bytecode": "0x608060405234801561001057600080fd5b506126de806100206000396000f3fe6080604052600436106102045760003560e01c80638456cb5911610118578063c4db7fa0116100a0578063e6ab28061161006f578063e6ab28061461061b578063ef0a712f1461063b578063f23a6e611461065b578063f2fad2b614610687578063f2fde38b146106a757600080fd5b8063c4db7fa0146105c6578063d46300fd146105db578063d4cadf68146105f0578063e25aa5fa1461060657600080fd5b806391695586116100e7578063916955861461050657806391ceb3eb14610519578063a95b089f14610539578063b150798914610559578063bc197c811461058157600080fd5b80638456cb591461049357806384cdd9bc146104a85780638beb60b6146104c85780638da5cb5b146104e857600080fd5b8063342a87a11161019b5780634d49e87d1161016a5780634d49e87d14610398578063593d132c146103ab5780635c975abb146103cb5780635fd65f0f146103e3578063715018a61461047e57600080fd5b8063342a87a11461032357806334e19907146103435780633e3a1560146103635780633f4ba83a1461038357600080fd5b806314a6bf0f116101d757806314a6bf0f146102ab57806321df0da7146102c0578063303e9bea146102d657806331cd52b0146102f657600080fd5b806301ffc9a7146102095780630419b45a1461023e5780630526930c146102555780630ba8195914610288575b600080fd5b34801561021557600080fd5b5061022961022436600461209d565b6106c7565b60405190151581526020015b60405180910390f35b34801561024a57600080fd5b506102536106fe565b005b34801561026157600080fd5b5061015f546001600160a01b03165b6040516001600160a01b039091168152602001610235565b34801561029457600080fd5b5061029d6107ec565b604051908152602001610235565b3480156102b757600080fd5b5061029d610879565b3480156102cc57600080fd5b506101615461029d565b3480156102e257600080fd5b506102706102f13660046120c7565b6108b5565b34801561030257600080fd5b506103166103113660046121ab565b610cc3565b60405161023591906123d2565b34801561032f57600080fd5b5061029d61033e366004612244565b610db0565b34801561034f57600080fd5b5061025361035e366004612179565b610e4e565b34801561036f57600080fd5b5061029d61037e366004612270565b610ee7565b34801561038f57600080fd5b50610253610ff1565b61029d6103a6366004611f97565b611025565b3480156103b757600080fd5b506102536103c63660046121fe565b6110d2565b3480156103d757600080fd5b5060655460ff16610229565b3480156103ef57600080fd5b5061015f54610160546101615461016254610163546101645461016554610166546101675461042f986001600160a01b0390811698169695949392919089565b604080516001600160a01b039a8b1681529990981660208a0152968801959095526060870193909352608086019190915260a085015260c084015260e083015261010082015261012001610235565b34801561048a57600080fd5b50610253611172565b34801561049f57600080fd5b506102536111a6565b3480156104b457600080fd5b5061029d6104c3366004611f97565b6111d8565b3480156104d457600080fd5b506102536104e3366004612179565b611285565b3480156104f457600080fd5b506033546001600160a01b0316610270565b61029d610514366004612302565b6112ef565b34801561052557600080fd5b5061029d6105343660046122ab565b611410565b34801561054557600080fd5b5061029d6105543660046122c6565b61148f565b61056c6105673660046121fe565b611537565b60408051928352602083019190915201610235565b34801561058d57600080fd5b506105ad61059c366004611e29565b63bc197c8160e01b95945050505050565b6040516001600160e01b03199091168152602001610235565b3480156105d257600080fd5b50610253611668565b3480156105e757600080fd5b5061029d6116f8565b3480156105fc57600080fd5b506101665461029d565b34801561061257600080fd5b5061029d611734565b34801561062757600080fd5b5061029d610636366004611f40565b611770565b34801561064757600080fd5b5061029d610656366004612179565b6117b2565b34801561066757600080fd5b506105ad610676366004611ed7565b63f23a6e6160e01b95945050505050565b34801561069357600080fd5b506103166106a2366004612179565b611840565b3480156106b357600080fd5b506102536106c2366004611e0c565b6118d2565b60006001600160e01b03198216630271189760e51b14806106f857506301ffc9a760e01b6001600160e01b03198316145b92915050565b6033546001600160a01b031633146107315760405162461bcd60e51b81526004016107289061246e565b60405180910390fd5b600260975414156107545760405162461bcd60e51b81526004016107289061251e565b6002609755732de8757b0Fc863fc3163aCCc8f19DAa381559C276324c5c75161015f6107886033546001600160a01b031690565b6040516001600160e01b031960e085901b16815260048101929092526001600160a01b0316602482015260440160006040518083038186803b1580156107cd57600080fd5b505af41580156107e1573d6000803e3d6000fd5b505060016097555050565b60405163c9b64dcb60e01b815261015f600482015260009073869F38F67B4ce01bE313B903d51E4349f25a31E69063c9b64dcb906024015b60206040518083038186803b15801561083c57600080fd5b505af4158015610850573d6000803e3d6000fd5b505050506040513d601f19601f820116820180604052508101906108749190612192565b905090565b60405163550670c360e11b815261015f6004820152600090732de8757b0Fc863fc3163aCCc8f19DAa381559C279063aa0ce18690602401610824565b60008054610100900460ff166108d15760005460ff16156108d5565b303b155b6109385760405162461bcd60e51b815260206004820152602e60248201527f496e697469616c697a61626c653a20636f6e747261637420697320616c72656160448201526d191e481a5b9a5d1a585b1a5e995960921b6064820152608401610728565b600054610100900460ff1615801561095a576000805461ffff19166101011790555b61096261196d565b61096a6119ac565b6109726119db565b6001600160a01b0383166109db5760405162461bcd60e51b815260206004820152602a60248201527f537761703a206c70546f6b656e546172676574416464726573732063616e206e6044820152696f74206265207a65726f60b01b6064820152608401610728565b6001600160a01b038a16610a315760405162461bcd60e51b815260206004820152601b60248201527f537761703a205f674554482063616e206e6f74206265207a65726f00000000006044820152606401610728565b620f42408610610a835760405162461bcd60e51b815260206004820152601860248201527f537761703a205f612065786365656473206d6178696d756d00000000000000006044820152606401610728565b6305f5e1008510610ad65760405162461bcd60e51b815260206004820152601a60248201527f537761703a205f6665652065786365656473206d6178696d756d0000000000006044820152606401610728565b6402540be4008410610b2a5760405162461bcd60e51b815260206004820152601f60248201527f537761703a205f61646d696e4665652065786365656473206d6178696d756d006044820152606401610728565b6000610b3584611a02565b60405163266c45bb60e11b81529091506001600160a01b03821690634cd88b7690610b66908c908c90600401612416565b602060405180830381600087803b158015610b8057600080fd5b505af1158015610b94573d6000803e3d6000fd5b505050506040513d601f19601f82011682018060405250810190610bb89190612080565b610c0f5760405162461bcd60e51b815260206004820152602260248201527f537761703a20636f756c64206e6f7420696e6974206c70546f6b656e20636c6f6044820152616e6560f01b6064820152608401610728565b61015f80546001600160a01b038d81166001600160a01b0319928316179092556101608054928416929091169190911790556101618a9055604080516002808252606082018352909160208301908036833750508151610c7792610168925060200190611c6d565b50610c8360648861262c565b61016255610c9260648861262c565b6101635561016686905561016785905591508015610cb6576000805461ff00191690555b5098975050505050505050565b606060026097541415610ce85760405162461bcd60e51b81526004016107289061251e565b60026097558142811015610d0e5760405162461bcd60e51b8152600401610728906124ee565b6040516339feb59f60e11b8152732de8757b0Fc863fc3163aCCc8f19DAa381559C27906373fd6b3e90610d4d9061015f908a908a908a906004016125ad565b60006040518083038186803b158015610d6557600080fd5b505af4158015610d79573d6000803e3d6000fd5b505050506040513d6000823e601f3d908101601f19168201604052610da19190810190611fe8565b60016097559695505050505050565b60405163703493a160e11b815261015f60048201526024810183905260ff82166044820152600090732de8757b0Fc863fc3163aCCc8f19DAa381559C279063e06927429060640160206040518083038186803b158015610e0f57600080fd5b505af4158015610e23573d6000803e3d6000fd5b505050506040513d601f19601f82011682018060405250810190610e479190612192565b9392505050565b6033546001600160a01b03163314610e785760405162461bcd60e51b81526004016107289061246e565b60405163119f861b60e21b815261015f600482015260248101829052732de8757b0Fc863fc3163aCCc8f19DAa381559C279063467e186c906044015b60006040518083038186803b158015610ecc57600080fd5b505af4158015610ee0573d6000803e3d6000fd5b5050505050565b600060026097541415610f0c5760405162461bcd60e51b81526004016107289061251e565b600260975560655460ff1615610f345760405162461bcd60e51b815260040161072890612444565b8180421115610f555760405162461bcd60e51b8152600401610728906124ee565b60405163e7a4db8160e01b815261015f60048201526024810187905260ff8616604482015260648101859052732de8757b0Fc863fc3163aCCc8f19DAa381559C279063e7a4db81906084015b60206040518083038186803b158015610fb957600080fd5b505af4158015610fcd573d6000803e3d6000fd5b505050506040513d601f19601f82011682018060405250810190610da19190612192565b6033546001600160a01b0316331461101b5760405162461bcd60e51b81526004016107289061246e565b611023611a9f565b565b60006002609754141561104a5760405162461bcd60e51b81526004016107289061251e565b600260975560655460ff16156110725760405162461bcd60e51b815260040161072890612444565b81804211156110935760405162461bcd60e51b8152600401610728906124ee565b6040516340370edf60e01b8152732de8757b0Fc863fc3163aCCc8f19DAa381559C27906340370edf90610fa19061015f908a908a908a90600401612582565b6033546001600160a01b031633146110fc5760405162461bcd60e51b81526004016107289061246e565b6040516358fdd79b60e01b815261015f6004820152602481018390526044810182905273869F38F67B4ce01bE313B903d51E4349f25a31E6906358fdd79b9060640160006040518083038186803b15801561115657600080fd5b505af415801561116a573d6000803e3d6000fd5b505050505050565b6033546001600160a01b0316331461119c5760405162461bcd60e51b81526004016107289061246e565b6110236000611b32565b6033546001600160a01b031633146111d05760405162461bcd60e51b81526004016107289061246e565b611023611b84565b6000600260975414156111fd5760405162461bcd60e51b81526004016107289061251e565b600260975560655460ff16156112255760405162461bcd60e51b815260040161072890612444565b81804211156112465760405162461bcd60e51b8152600401610728906124ee565b6040516320dc8e1360e11b8152732de8757b0Fc863fc3163aCCc8f19DAa381559C27906341b91c2690610fa19061015f908a908a908a90600401612582565b6033546001600160a01b031633146112af5760405162461bcd60e51b81526004016107289061246e565b604051633823393b60e11b815261015f600482015260248101829052732de8757b0Fc863fc3163aCCc8f19DAa381559C2790637046727690604401610eb4565b6000600260975414156113145760405162461bcd60e51b81526004016107289061251e565b600260975560655460ff161561133c5760405162461bcd60e51b815260040161072890612444565b818042111561135d5760405162461bcd60e51b8152600401610728906124ee565b60405163529cbd9160e11b815261015f600482015260ff8089166024830152871660448201526064810186905260848101859052732de8757b0Fc863fc3163aCCc8f19DAa381559C279063a5397b229060a40160206040518083038186803b1580156113c857600080fd5b505af41580156113dc573d6000803e3d6000fd5b505050506040513d601f19601f820116820180604052508101906114009190612192565b6001609755979650505050505050565b600060028260ff16106114655760405162461bcd60e51b815260206004820152601860248201527f537761703a20496e646578206f7574206f662072616e676500000000000000006044820152606401610728565b610168805460ff841690811061147d5761147d612659565b90600052602060002001549050919050565b6040516312c8d80f60e21b815261015f600482015260ff80851660248301528316604482015260648101829052600090732de8757b0Fc863fc3163aCCc8f19DAa381559C2790634b23603c906084015b60206040518083038186803b1580156114f757600080fd5b505af415801561150b573d6000803e3d6000fd5b505050506040513d601f19601f8201168201806040525081019061152f9190612192565b949350505050565b6000806002609754141561155d5760405162461bcd60e51b81526004016107289061251e565b60026097553484146115c75760405162461bcd60e51b815260206004820152602d60248201527f537761703a207265636569766564206c657373206f72206d6f7265204554482060448201526c1d1a185b88195e1c1958dd1959609a1b6064820152608401610728565b604051638fc0f95960e01b815261015f60048201526024810185905260448101849052732de8757b0Fc863fc3163aCCc8f19DAa381559C2790638fc0f95990606401604080518083038186803b15801561162057600080fd5b505af4158015611634573d6000803e3d6000fd5b505050506040513d601f19601f820116820180604052508101906116589190612220565b6001609755909590945092505050565b6033546001600160a01b031633146116925760405162461bcd60e51b81526004016107289061246e565b6040516378a7108f60e11b815261015f600482015273869F38F67B4ce01bE313B903d51E4349f25a31E69063f14e211e9060240160006040518083038186803b1580156116de57600080fd5b505af41580156116f2573d6000803e3d6000fd5b50505050565b604051632c28533f60e21b815261015f600482015260009073869F38F67B4ce01bE313B903d51E4349f25a31E69063b0a14cfc90602401610824565b604051631c641b0b60e21b815261015f6004820152600090732de8757b0Fc863fc3163aCCc8f19DAa381559C27906371906c2c90602401610824565b604051630834b49160e41b8152600090732de8757b0Fc863fc3163aCCc8f19DAa381559C279063834b4910906114df9061015f90889088908890600401612555565b6040516303e8240b60e51b815261015f600482015260248101829052600090732de8757b0Fc863fc3163aCCc8f19DAa381559C2790637d0481609060440160206040518083038186803b15801561180857600080fd5b505af415801561181c573d6000803e3d6000fd5b505050506040513d601f19601f820116820180604052508101906106f89190612192565b6040516338381f2560e11b815261015f600482015260248101829052606090732de8757b0Fc863fc3163aCCc8f19DAa381559C27906370703e4a9060440160006040518083038186803b15801561189657600080fd5b505af41580156118aa573d6000803e3d6000fd5b505050506040513d6000823e601f3d908101601f191682016040526106f89190810190611fe8565b6033546001600160a01b031633146118fc5760405162461bcd60e51b81526004016107289061246e565b6001600160a01b0381166119615760405162461bcd60e51b815260206004820152602660248201527f4f776e61626c653a206e6577206f776e657220697320746865207a65726f206160448201526564647265737360d01b6064820152608401610728565b61196a81611b32565b50565b600054610100900460ff166119945760405162461bcd60e51b8152600401610728906124a3565b61199c6119db565b6119a4611bdc565b611023611c0c565b600054610100900460ff166119d35760405162461bcd60e51b8152600401610728906124a3565b611023611c3f565b600054610100900460ff166110235760405162461bcd60e51b8152600401610728906124a3565b6000604051733d602d80600a3d3981f3363d3d373d3d3d363d7360601b81528260601b60148201526e5af43d82803e903d91602b57fd5bf360881b60288201526037816000f09150506001600160a01b038116611a9a5760405162461bcd60e51b8152602060048201526016602482015275115490cc4c4d8dce8818dc99585d194819985a5b195960521b6044820152606401610728565b919050565b60655460ff16611ae85760405162461bcd60e51b815260206004820152601460248201527314185d5cd8589b194e881b9bdd081c185d5cd95960621b6044820152606401610728565b6065805460ff191690557f5db9ee0a495bf2e6ff9c91a7834c1ba4fdd244a5e8aa4e537bd38aeae4b073aa335b6040516001600160a01b03909116815260200160405180910390a1565b603380546001600160a01b038381166001600160a01b0319831681179093556040519116919082907f8be0079c531659141344cd1fd0a4f28419497f9722a3daafe3b4186f6b6457e090600090a35050565b60655460ff1615611ba75760405162461bcd60e51b815260040161072890612444565b6065805460ff191660011790557f62e78cea01bee320cd4e420270b5ea74000d11b0c9f74754ebdbfc544b05a258611b153390565b600054610100900460ff16611c035760405162461bcd60e51b8152600401610728906124a3565b61102333611b32565b600054610100900460ff16611c335760405162461bcd60e51b8152600401610728906124a3565b6065805460ff19169055565b600054610100900460ff16611c665760405162461bcd60e51b8152600401610728906124a3565b6001609755565b828054828255906000526020600020908101928215611ca8579160200282015b82811115611ca8578251825591602001919060010190611c8d565b50611cb4929150611cb8565b5090565b5b80821115611cb45760008155600101611cb9565b60008083601f840112611cdf57600080fd5b50813567ffffffffffffffff811115611cf757600080fd5b6020830191508360208260051b8501011115611d1257600080fd5b9250929050565b600082601f830112611d2a57600080fd5b81356020611d3f611d3a83612608565b6125d7565b80838252828201915082860187848660051b8901011115611d5f57600080fd5b60005b85811015611d7e57813584529284019290840190600101611d62565b5090979650505050505050565b600082601f830112611d9c57600080fd5b813567ffffffffffffffff811115611db657611db661266f565b611dc9601f8201601f19166020016125d7565b818152846020838601011115611dde57600080fd5b816020850160208301376000918101602001919091529392505050565b803560ff81168114611a9a57600080fd5b600060208284031215611e1e57600080fd5b8135610e4781612685565b600080600080600060a08688031215611e4157600080fd5b8535611e4c81612685565b94506020860135611e5c81612685565b9350604086013567ffffffffffffffff80821115611e7957600080fd5b611e8589838a01611d19565b94506060880135915080821115611e9b57600080fd5b611ea789838a01611d19565b93506080880135915080821115611ebd57600080fd5b50611eca88828901611d8b565b9150509295509295909350565b600080600080600060a08688031215611eef57600080fd5b8535611efa81612685565b94506020860135611f0a81612685565b93506040860135925060608601359150608086013567ffffffffffffffff811115611f3457600080fd5b611eca88828901611d8b565b600080600060408486031215611f5557600080fd5b833567ffffffffffffffff811115611f6c57600080fd5b611f7886828701611ccd565b9094509250506020840135611f8c8161269a565b809150509250925092565b60008060008060608587031215611fad57600080fd5b843567ffffffffffffffff811115611fc457600080fd5b611fd087828801611ccd565b90989097506020870135966040013595509350505050565b60006020808385031215611ffb57600080fd5b825167ffffffffffffffff81111561201257600080fd5b8301601f8101851361202357600080fd5b8051612031611d3a82612608565b80828252848201915084840188868560051b870101111561205157600080fd5b600094505b83851015612074578051835260019490940193918501918501612056565b50979650505050505050565b60006020828403121561209257600080fd5b8151610e478161269a565b6000602082840312156120af57600080fd5b81356001600160e01b031981168114610e4757600080fd5b600080600080600080600080610100898b0312156120e457600080fd5b88356120ef81612685565b975060208901359650604089013567ffffffffffffffff8082111561211357600080fd5b61211f8c838d01611d8b565b975060608b013591508082111561213557600080fd5b506121428b828c01611d8b565b9550506080890135935060a0890135925060c0890135915060e089013561216881612685565b809150509295985092959890939650565b60006020828403121561218b57600080fd5b5035919050565b6000602082840312156121a457600080fd5b5051919050565b600080600080606085870312156121c157600080fd5b84359350602085013567ffffffffffffffff8111156121df57600080fd5b6121eb87828801611ccd565b9598909750949560400135949350505050565b6000806040838503121561221157600080fd5b50508035926020909101359150565b6000806040838503121561223357600080fd5b505080516020909101519092909150565b6000806040838503121561225757600080fd5b8235915061226760208401611dfb565b90509250929050565b6000806000806080858703121561228657600080fd5b8435935061229660208601611dfb565b93969395505050506040820135916060013590565b6000602082840312156122bd57600080fd5b610e4782611dfb565b6000806000606084860312156122db57600080fd5b6122e484611dfb565b92506122f260208501611dfb565b9150604084013590509250925092565b600080600080600060a0868803121561231a57600080fd5b61232386611dfb565b945061233160208701611dfb565b94979496505050506040830135926060810135926080909101359150565b81835260006001600160fb1b0383111561236857600080fd5b8260051b8083602087013760009401602001938452509192915050565b6000815180845260005b818110156123ab5760208185018101518683018201520161238f565b818111156123bd576000602083870101525b50601f01601f19169290920160200192915050565b6020808252825182820181905260009190848201906040850190845b8181101561240a578351835292840192918401916001016123ee565b50909695505050505050565b6040815260006124296040830185612385565b828103602084015261243b8185612385565b95945050505050565b60208082526010908201526f14185d5cd8589b194e881c185d5cd95960821b604082015260600190565b6020808252818101527f4f776e61626c653a2063616c6c6572206973206e6f7420746865206f776e6572604082015260600190565b6020808252602b908201527f496e697469616c697a61626c653a20636f6e7472616374206973206e6f74206960408201526a6e697469616c697a696e6760a81b606082015260800190565b60208082526016908201527514ddd85c0e88111958591b1a5b99481b9bdd081b595d60521b604082015260600190565b6020808252601f908201527f5265656e7472616e637947756172643a207265656e7472616e742063616c6c00604082015260600190565b84815260606020820152600061256f60608301858761234f565b9050821515604083015295945050505050565b84815260606020820152600061259c60608301858761234f565b905082604083015295945050505050565b8481528360208201526060604082015260006125cd60608301848661234f565b9695505050505050565b604051601f8201601f1916810167ffffffffffffffff811182821017156126005761260061266f565b604052919050565b600067ffffffffffffffff8211156126225761262261266f565b5060051b60200190565b600081600019048311821515161561265457634e487b7160e01b600052601160045260246000fd5b500290565b634e487b7160e01b600052603260045260246000fd5b634e487b7160e01b600052604160045260246000fd5b6001600160a01b038116811461196a57600080fd5b801515811461196a57600080fdfea2646970667358221220368019480e6c47ca899c3fc722cc64c13e415aacf58198bbb4d45874d36aa12f64736f6c63430008070033",
  "deployedBytecode": "0x6080604052600436106102045760003560e01c80638456cb5911610118578063c4db7fa0116100a0578063e6ab28061161006f578063e6ab28061461061b578063ef0a712f1461063b578063f23a6e611461065b578063f2fad2b614610687578063f2fde38b146106a757600080fd5b8063c4db7fa0146105c6578063d46300fd146105db578063d4cadf68146105f0578063e25aa5fa1461060657600080fd5b806391695586116100e7578063916955861461050657806391ceb3eb14610519578063a95b089f14610539578063b150798914610559578063bc197c811461058157600080fd5b80638456cb591461049357806384cdd9bc146104a85780638beb60b6146104c85780638da5cb5b146104e857600080fd5b8063342a87a11161019b5780634d49e87d1161016a5780634d49e87d14610398578063593d132c146103ab5780635c975abb146103cb5780635fd65f0f146103e3578063715018a61461047e57600080fd5b8063342a87a11461032357806334e19907146103435780633e3a1560146103635780633f4ba83a1461038357600080fd5b806314a6bf0f116101d757806314a6bf0f146102ab57806321df0da7146102c0578063303e9bea146102d657806331cd52b0146102f657600080fd5b806301ffc9a7146102095780630419b45a1461023e5780630526930c146102555780630ba8195914610288575b600080fd5b34801561021557600080fd5b5061022961022436600461209d565b6106c7565b60405190151581526020015b60405180910390f35b34801561024a57600080fd5b506102536106fe565b005b34801561026157600080fd5b5061015f546001600160a01b03165b6040516001600160a01b039091168152602001610235565b34801561029457600080fd5b5061029d6107ec565b604051908152602001610235565b3480156102b757600080fd5b5061029d610879565b3480156102cc57600080fd5b506101615461029d565b3480156102e257600080fd5b506102706102f13660046120c7565b6108b5565b34801561030257600080fd5b506103166103113660046121ab565b610cc3565b60405161023591906123d2565b34801561032f57600080fd5b5061029d61033e366004612244565b610db0565b34801561034f57600080fd5b5061025361035e366004612179565b610e4e565b34801561036f57600080fd5b5061029d61037e366004612270565b610ee7565b34801561038f57600080fd5b50610253610ff1565b61029d6103a6366004611f97565b611025565b3480156103b757600080fd5b506102536103c63660046121fe565b6110d2565b3480156103d757600080fd5b5060655460ff16610229565b3480156103ef57600080fd5b5061015f54610160546101615461016254610163546101645461016554610166546101675461042f986001600160a01b0390811698169695949392919089565b604080516001600160a01b039a8b1681529990981660208a0152968801959095526060870193909352608086019190915260a085015260c084015260e083015261010082015261012001610235565b34801561048a57600080fd5b50610253611172565b34801561049f57600080fd5b506102536111a6565b3480156104b457600080fd5b5061029d6104c3366004611f97565b6111d8565b3480156104d457600080fd5b506102536104e3366004612179565b611285565b3480156104f457600080fd5b506033546001600160a01b0316610270565b61029d610514366004612302565b6112ef565b34801561052557600080fd5b5061029d6105343660046122ab565b611410565b34801561054557600080fd5b5061029d6105543660046122c6565b61148f565b61056c6105673660046121fe565b611537565b60408051928352602083019190915201610235565b34801561058d57600080fd5b506105ad61059c366004611e29565b63bc197c8160e01b95945050505050565b6040516001600160e01b03199091168152602001610235565b3480156105d257600080fd5b50610253611668565b3480156105e757600080fd5b5061029d6116f8565b3480156105fc57600080fd5b506101665461029d565b34801561061257600080fd5b5061029d611734565b34801561062757600080fd5b5061029d610636366004611f40565b611770565b34801561064757600080fd5b5061029d610656366004612179565b6117b2565b34801561066757600080fd5b506105ad610676366004611ed7565b63f23a6e6160e01b95945050505050565b34801561069357600080fd5b506103166106a2366004612179565b611840565b3480156106b357600080fd5b506102536106c2366004611e0c565b6118d2565b60006001600160e01b03198216630271189760e51b14806106f857506301ffc9a760e01b6001600160e01b03198316145b92915050565b6033546001600160a01b031633146107315760405162461bcd60e51b81526004016107289061246e565b60405180910390fd5b600260975414156107545760405162461bcd60e51b81526004016107289061251e565b600260975573__$fff2828ec1b1758eb23eae8d078064459b$__6324c5c75161015f6107886033546001600160a01b031690565b6040516001600160e01b031960e085901b16815260048101929092526001600160a01b0316602482015260440160006040518083038186803b1580156107cd57600080fd5b505af41580156107e1573d6000803e3d6000fd5b505060016097555050565b60405163c9b64dcb60e01b815261015f600482015260009073__$9569712c36130f0bca0f233043eb34e2ef$__9063c9b64dcb906024015b60206040518083038186803b15801561083c57600080fd5b505af4158015610850573d6000803e3d6000fd5b505050506040513d601f19601f820116820180604052508101906108749190612192565b905090565b60405163550670c360e11b815261015f600482015260009073__$fff2828ec1b1758eb23eae8d078064459b$__9063aa0ce18690602401610824565b60008054610100900460ff166108d15760005460ff16156108d5565b303b155b6109385760405162461bcd60e51b815260206004820152602e60248201527f496e697469616c697a61626c653a20636f6e747261637420697320616c72656160448201526d191e481a5b9a5d1a585b1a5e995960921b6064820152608401610728565b600054610100900460ff1615801561095a576000805461ffff19166101011790555b61096261196d565b61096a6119ac565b6109726119db565b6001600160a01b0383166109db5760405162461bcd60e51b815260206004820152602a60248201527f537761703a206c70546f6b656e546172676574416464726573732063616e206e6044820152696f74206265207a65726f60b01b6064820152608401610728565b6001600160a01b038a16610a315760405162461bcd60e51b815260206004820152601b60248201527f537761703a205f674554482063616e206e6f74206265207a65726f00000000006044820152606401610728565b620f42408610610a835760405162461bcd60e51b815260206004820152601860248201527f537761703a205f612065786365656473206d6178696d756d00000000000000006044820152606401610728565b6305f5e1008510610ad65760405162461bcd60e51b815260206004820152601a60248201527f537761703a205f6665652065786365656473206d6178696d756d0000000000006044820152606401610728565b6402540be4008410610b2a5760405162461bcd60e51b815260206004820152601f60248201527f537761703a205f61646d696e4665652065786365656473206d6178696d756d006044820152606401610728565b6000610b3584611a02565b60405163266c45bb60e11b81529091506001600160a01b03821690634cd88b7690610b66908c908c90600401612416565b602060405180830381600087803b158015610b8057600080fd5b505af1158015610b94573d6000803e3d6000fd5b505050506040513d601f19601f82011682018060405250810190610bb89190612080565b610c0f5760405162461bcd60e51b815260206004820152602260248201527f537761703a20636f756c64206e6f7420696e6974206c70546f6b656e20636c6f6044820152616e6560f01b6064820152608401610728565b61015f80546001600160a01b038d81166001600160a01b0319928316179092556101608054928416929091169190911790556101618a9055604080516002808252606082018352909160208301908036833750508151610c7792610168925060200190611c6d565b50610c8360648861262c565b61016255610c9260648861262c565b6101635561016686905561016785905591508015610cb6576000805461ff00191690555b5098975050505050505050565b606060026097541415610ce85760405162461bcd60e51b81526004016107289061251e565b60026097558142811015610d0e5760405162461bcd60e51b8152600401610728906124ee565b6040516339feb59f60e11b815273__$fff2828ec1b1758eb23eae8d078064459b$__906373fd6b3e90610d4d9061015f908a908a908a906004016125ad565b60006040518083038186803b158015610d6557600080fd5b505af4158015610d79573d6000803e3d6000fd5b505050506040513d6000823e601f3d908101601f19168201604052610da19190810190611fe8565b60016097559695505050505050565b60405163703493a160e11b815261015f60048201526024810183905260ff8216604482015260009073__$fff2828ec1b1758eb23eae8d078064459b$__9063e06927429060640160206040518083038186803b158015610e0f57600080fd5b505af4158015610e23573d6000803e3d6000fd5b505050506040513d601f19601f82011682018060405250810190610e479190612192565b9392505050565b6033546001600160a01b03163314610e785760405162461bcd60e51b81526004016107289061246e565b60405163119f861b60e21b815261015f60048201526024810182905273__$fff2828ec1b1758eb23eae8d078064459b$__9063467e186c906044015b60006040518083038186803b158015610ecc57600080fd5b505af4158015610ee0573d6000803e3d6000fd5b5050505050565b600060026097541415610f0c5760405162461bcd60e51b81526004016107289061251e565b600260975560655460ff1615610f345760405162461bcd60e51b815260040161072890612444565b8180421115610f555760405162461bcd60e51b8152600401610728906124ee565b60405163e7a4db8160e01b815261015f60048201526024810187905260ff861660448201526064810185905273__$fff2828ec1b1758eb23eae8d078064459b$__9063e7a4db81906084015b60206040518083038186803b158015610fb957600080fd5b505af4158015610fcd573d6000803e3d6000fd5b505050506040513d601f19601f82011682018060405250810190610da19190612192565b6033546001600160a01b0316331461101b5760405162461bcd60e51b81526004016107289061246e565b611023611a9f565b565b60006002609754141561104a5760405162461bcd60e51b81526004016107289061251e565b600260975560655460ff16156110725760405162461bcd60e51b815260040161072890612444565b81804211156110935760405162461bcd60e51b8152600401610728906124ee565b6040516340370edf60e01b815273__$fff2828ec1b1758eb23eae8d078064459b$__906340370edf90610fa19061015f908a908a908a90600401612582565b6033546001600160a01b031633146110fc5760405162461bcd60e51b81526004016107289061246e565b6040516358fdd79b60e01b815261015f6004820152602481018390526044810182905273__$9569712c36130f0bca0f233043eb34e2ef$__906358fdd79b9060640160006040518083038186803b15801561115657600080fd5b505af415801561116a573d6000803e3d6000fd5b505050505050565b6033546001600160a01b0316331461119c5760405162461bcd60e51b81526004016107289061246e565b6110236000611b32565b6033546001600160a01b031633146111d05760405162461bcd60e51b81526004016107289061246e565b611023611b84565b6000600260975414156111fd5760405162461bcd60e51b81526004016107289061251e565b600260975560655460ff16156112255760405162461bcd60e51b815260040161072890612444565b81804211156112465760405162461bcd60e51b8152600401610728906124ee565b6040516320dc8e1360e11b815273__$fff2828ec1b1758eb23eae8d078064459b$__906341b91c2690610fa19061015f908a908a908a90600401612582565b6033546001600160a01b031633146112af5760405162461bcd60e51b81526004016107289061246e565b604051633823393b60e11b815261015f60048201526024810182905273__$fff2828ec1b1758eb23eae8d078064459b$__90637046727690604401610eb4565b6000600260975414156113145760405162461bcd60e51b81526004016107289061251e565b600260975560655460ff161561133c5760405162461bcd60e51b815260040161072890612444565b818042111561135d5760405162461bcd60e51b8152600401610728906124ee565b60405163529cbd9160e11b815261015f600482015260ff808916602483015287166044820152606481018690526084810185905273__$fff2828ec1b1758eb23eae8d078064459b$__9063a5397b229060a40160206040518083038186803b1580156113c857600080fd5b505af41580156113dc573d6000803e3d6000fd5b505050506040513d601f19601f820116820180604052508101906114009190612192565b6001609755979650505050505050565b600060028260ff16106114655760405162461bcd60e51b815260206004820152601860248201527f537761703a20496e646578206f7574206f662072616e676500000000000000006044820152606401610728565b610168805460ff841690811061147d5761147d612659565b90600052602060002001549050919050565b6040516312c8d80f60e21b815261015f600482015260ff8085166024830152831660448201526064810182905260009073__$fff2828ec1b1758eb23eae8d078064459b$__90634b23603c906084015b60206040518083038186803b1580156114f757600080fd5b505af415801561150b573d6000803e3d6000fd5b505050506040513d601f19601f8201168201806040525081019061152f9190612192565b949350505050565b6000806002609754141561155d5760405162461bcd60e51b81526004016107289061251e565b60026097553484146115c75760405162461bcd60e51b815260206004820152602d60248201527f537761703a207265636569766564206c657373206f72206d6f7265204554482060448201526c1d1a185b88195e1c1958dd1959609a1b6064820152608401610728565b604051638fc0f95960e01b815261015f6004820152602481018590526044810184905273__$fff2828ec1b1758eb23eae8d078064459b$__90638fc0f95990606401604080518083038186803b15801561162057600080fd5b505af4158015611634573d6000803e3d6000fd5b505050506040513d601f19601f820116820180604052508101906116589190612220565b6001609755909590945092505050565b6033546001600160a01b031633146116925760405162461bcd60e51b81526004016107289061246e565b6040516378a7108f60e11b815261015f600482015273__$9569712c36130f0bca0f233043eb34e2ef$__9063f14e211e9060240160006040518083038186803b1580156116de57600080fd5b505af41580156116f2573d6000803e3d6000fd5b50505050565b604051632c28533f60e21b815261015f600482015260009073__$9569712c36130f0bca0f233043eb34e2ef$__9063b0a14cfc90602401610824565b604051631c641b0b60e21b815261015f600482015260009073__$fff2828ec1b1758eb23eae8d078064459b$__906371906c2c90602401610824565b604051630834b49160e41b815260009073__$fff2828ec1b1758eb23eae8d078064459b$__9063834b4910906114df9061015f90889088908890600401612555565b6040516303e8240b60e51b815261015f60048201526024810182905260009073__$fff2828ec1b1758eb23eae8d078064459b$__90637d0481609060440160206040518083038186803b15801561180857600080fd5b505af415801561181c573d6000803e3d6000fd5b505050506040513d601f19601f820116820180604052508101906106f89190612192565b6040516338381f2560e11b815261015f60048201526024810182905260609073__$fff2828ec1b1758eb23eae8d078064459b$__906370703e4a9060440160006040518083038186803b15801561189657600080fd5b505af41580156118aa573d6000803e3d6000fd5b505050506040513d6000823e601f3d908101601f191682016040526106f89190810190611fe8565b6033546001600160a01b031633146118fc5760405162461bcd60e51b81526004016107289061246e565b6001600160a01b0381166119615760405162461bcd60e51b815260206004820152602660248201527f4f776e61626c653a206e6577206f776e657220697320746865207a65726f206160448201526564647265737360d01b6064820152608401610728565b61196a81611b32565b50565b600054610100900460ff166119945760405162461bcd60e51b8152600401610728906124a3565b61199c6119db565b6119a4611bdc565b611023611c0c565b600054610100900460ff166119d35760405162461bcd60e51b8152600401610728906124a3565b611023611c3f565b600054610100900460ff166110235760405162461bcd60e51b8152600401610728906124a3565b6000604051733d602d80600a3d3981f3363d3d373d3d3d363d7360601b81528260601b60148201526e5af43d82803e903d91602b57fd5bf360881b60288201526037816000f09150506001600160a01b038116611a9a5760405162461bcd60e51b8152602060048201526016602482015275115490cc4c4d8dce8818dc99585d194819985a5b195960521b6044820152606401610728565b919050565b60655460ff16611ae85760405162461bcd60e51b815260206004820152601460248201527314185d5cd8589b194e881b9bdd081c185d5cd95960621b6044820152606401610728565b6065805460ff191690557f5db9ee0a495bf2e6ff9c91a7834c1ba4fdd244a5e8aa4e537bd38aeae4b073aa335b6040516001600160a01b03909116815260200160405180910390a1565b603380546001600160a01b038381166001600160a01b0319831681179093556040519116919082907f8be0079c531659141344cd1fd0a4f28419497f9722a3daafe3b4186f6b6457e090600090a35050565b60655460ff1615611ba75760405162461bcd60e51b815260040161072890612444565b6065805460ff191660011790557f62e78cea01bee320cd4e420270b5ea74000d11b0c9f74754ebdbfc544b05a258611b153390565b600054610100900460ff16611c035760405162461bcd60e51b8152600401610728906124a3565b61102333611b32565b600054610100900460ff16611c335760405162461bcd60e51b8152600401610728906124a3565b6065805460ff19169055565b600054610100900460ff16611c665760405162461bcd60e51b8152600401610728906124a3565b6001609755565b828054828255906000526020600020908101928215611ca8579160200282015b82811115611ca8578251825591602001919060010190611c8d565b50611cb4929150611cb8565b5090565b5b80821115611cb45760008155600101611cb9565b60008083601f840112611cdf57600080fd5b50813567ffffffffffffffff811115611cf757600080fd5b6020830191508360208260051b8501011115611d1257600080fd5b9250929050565b600082601f830112611d2a57600080fd5b81356020611d3f611d3a83612608565b6125d7565b80838252828201915082860187848660051b8901011115611d5f57600080fd5b60005b85811015611d7e57813584529284019290840190600101611d62565b5090979650505050505050565b600082601f830112611d9c57600080fd5b813567ffffffffffffffff811115611db657611db661266f565b611dc9601f8201601f19166020016125d7565b818152846020838601011115611dde57600080fd5b816020850160208301376000918101602001919091529392505050565b803560ff81168114611a9a57600080fd5b600060208284031215611e1e57600080fd5b8135610e4781612685565b600080600080600060a08688031215611e4157600080fd5b8535611e4c81612685565b94506020860135611e5c81612685565b9350604086013567ffffffffffffffff80821115611e7957600080fd5b611e8589838a01611d19565b94506060880135915080821115611e9b57600080fd5b611ea789838a01611d19565b93506080880135915080821115611ebd57600080fd5b50611eca88828901611d8b565b9150509295509295909350565b600080600080600060a08688031215611eef57600080fd5b8535611efa81612685565b94506020860135611f0a81612685565b93506040860135925060608601359150608086013567ffffffffffffffff811115611f3457600080fd5b611eca88828901611d8b565b600080600060408486031215611f5557600080fd5b833567ffffffffffffffff811115611f6c57600080fd5b611f7886828701611ccd565b9094509250506020840135611f8c8161269a565b809150509250925092565b60008060008060608587031215611fad57600080fd5b843567ffffffffffffffff811115611fc457600080fd5b611fd087828801611ccd565b90989097506020870135966040013595509350505050565b60006020808385031215611ffb57600080fd5b825167ffffffffffffffff81111561201257600080fd5b8301601f8101851361202357600080fd5b8051612031611d3a82612608565b80828252848201915084840188868560051b870101111561205157600080fd5b600094505b83851015612074578051835260019490940193918501918501612056565b50979650505050505050565b60006020828403121561209257600080fd5b8151610e478161269a565b6000602082840312156120af57600080fd5b81356001600160e01b031981168114610e4757600080fd5b600080600080600080600080610100898b0312156120e457600080fd5b88356120ef81612685565b975060208901359650604089013567ffffffffffffffff8082111561211357600080fd5b61211f8c838d01611d8b565b975060608b013591508082111561213557600080fd5b506121428b828c01611d8b565b9550506080890135935060a0890135925060c0890135915060e089013561216881612685565b809150509295985092959890939650565b60006020828403121561218b57600080fd5b5035919050565b6000602082840312156121a457600080fd5b5051919050565b600080600080606085870312156121c157600080fd5b84359350602085013567ffffffffffffffff8111156121df57600080fd5b6121eb87828801611ccd565b9598909750949560400135949350505050565b6000806040838503121561221157600080fd5b50508035926020909101359150565b6000806040838503121561223357600080fd5b505080516020909101519092909150565b6000806040838503121561225757600080fd5b8235915061226760208401611dfb565b90509250929050565b6000806000806080858703121561228657600080fd5b8435935061229660208601611dfb565b93969395505050506040820135916060013590565b6000602082840312156122bd57600080fd5b610e4782611dfb565b6000806000606084860312156122db57600080fd5b6122e484611dfb565b92506122f260208501611dfb565b9150604084013590509250925092565b600080600080600060a0868803121561231a57600080fd5b61232386611dfb565b945061233160208701611dfb565b94979496505050506040830135926060810135926080909101359150565b81835260006001600160fb1b0383111561236857600080fd5b8260051b8083602087013760009401602001938452509192915050565b6000815180845260005b818110156123ab5760208185018101518683018201520161238f565b818111156123bd576000602083870101525b50601f01601f19169290920160200192915050565b6020808252825182820181905260009190848201906040850190845b8181101561240a578351835292840192918401916001016123ee565b50909695505050505050565b6040815260006124296040830185612385565b828103602084015261243b8185612385565b95945050505050565b60208082526010908201526f14185d5cd8589b194e881c185d5cd95960821b604082015260600190565b6020808252818101527f4f776e61626c653a2063616c6c6572206973206e6f7420746865206f776e6572604082015260600190565b6020808252602b908201527f496e697469616c697a61626c653a20636f6e7472616374206973206e6f74206960408201526a6e697469616c697a696e6760a81b606082015260800190565b60208082526016908201527514ddd85c0e88111958591b1a5b99481b9bdd081b595d60521b604082015260600190565b6020808252601f908201527f5265656e7472616e637947756172643a207265656e7472616e742063616c6c00604082015260600190565b84815260606020820152600061256f60608301858761234f565b9050821515604083015295945050505050565b84815260606020820152600061259c60608301858761234f565b905082604083015295945050505050565b8481528360208201526060604082015260006125cd60608301848661234f565b9695505050505050565b604051601f8201601f1916810167ffffffffffffffff811182821017156126005761260061266f565b604052919050565b600067ffffffffffffffff8211156126225761262261266f565b5060051b60200190565b600081600019048311821515161561265457634e487b7160e01b600052601160045260246000fd5b500290565b634e487b7160e01b600052603260045260246000fd5b634e487b7160e01b600052604160045260246000fd5b6001600160a01b038116811461196a57600080fd5b801515811461196a57600080fdfea2646970667358221220368019480e6c47ca899c3fc722cc64c13e415aacf58198bbb4d45874d36aa12f64736f6c63430008070033",
  "libraries": {
    "SwapUtils": "0x2de8757b0Fc863fc3163aCCc8f19DAa381559C27",
    "AmplificationUtils": "0x869F38F67B4ce01bE313B903d51E4349f25a31E6"
  },
  "devdoc": {
    "details": "Most of the logic is stored as a library `SwapUtils` for the sake of reducing contract's deployment size.The main functionality of Withdrawal Pools is allowing the depositors to have instant withdrawals relying on the Oracle Price, with the help of Liquidity Providers. It is important to change the focus point (1-1) of the pricing algorithm with PriceIn and PriceOut functions. Because the underlying price of the staked assets are expected to raise in time. One can see this similar to accomplishing a \"rebasing\" logic, with the help of a trusted price source.",
    "kind": "dev",
    "methods": {
      "addLiquidity(uint256[],uint256,uint256)": {
        "params": {
          "amounts": "the amounts of each token to add, in their native precision",
          "deadline": "latest timestamp to accept this transaction",
          "minToMint": "the minimum LP tokens adding this amount of liquidity should mint, otherwise revert. Handy for front-running mitigation"
        },
        "returns": {
          "_0": "amount of LP token user minted and received"
        }
      },
      "calculateRemoveLiquidity(uint256)": {
        "params": {
          "amount": "the amount of LP tokens that would be burned on withdrawal"
        },
        "returns": {
          "_0": "array of token balances that the user will receive"
        }
      },
      "calculateRemoveLiquidityOneToken(uint256,uint8)": {
        "params": {
          "tokenAmount": "the amount of LP token to burn",
          "tokenIndex": "index of which token will be withdrawn"
        },
        "returns": {
          "availableTokenAmount": "calculated amount of underlying token available to withdraw"
        }
      },
      "calculateSwap(uint8,uint8,uint256)": {
        "params": {
          "dx": "the amount of tokens the user wants to sell. If the token charges a fee on transfers, use the amount that gets transferred after the fee.",
          "tokenIndexFrom": "the token the user wants to sell",
          "tokenIndexTo": "the token the user wants to buy"
        },
        "returns": {
          "_0": "amount of tokens the user will receive"
        }
      },
      "calculateTokenAmount(uint256[],bool)": {
        "details": "This shouldn't be used outside frontends for user estimates.",
        "params": {
          "amounts": "an array of token amounts to deposit or withdrawal, corresponding to pooledTokens. The amount should be in each pooled token's native precision. If a token charges a fee on transfers, use the amount that gets transferred after the fee.",
          "deposit": "whether this is a deposit or a withdrawal"
        },
        "returns": {
          "_0": "token amount the user will receive"
        }
      },
      "donateBalancedFees(uint256,uint256)": {
        "returns": {
          "_0": "amount of fees paid, basically EthDonation and gEthDonation if successful"
        }
      },
      "getA()": {
        "details": "See the StableSwap paper for details",
        "returns": {
          "_0": "A parameter"
        }
      },
      "getAPrecise()": {
        "details": "See the StableSwap paper for details",
        "returns": {
          "_0": "A parameter in its raw precision form"
        }
      },
      "getAdminBalance(uint256)": {
        "params": {
          "index": "Index of the pooled token"
        },
        "returns": {
          "_0": "admin's token balance in the token's precision"
        }
      },
      "getDebt()": {
        "returns": {
          "_0": "debt the half of the D StableSwap invariant when debt is needed to be payed."
        }
      },
      "getSwapFee()": {
        "returns": {
          "_0": "id of the pooled gEther token"
        }
      },
      "getTokenBalance(uint8)": {
        "params": {
          "index": "the index of the token"
        },
        "returns": {
          "_0": "current balance of the pooled token at given index with token's native precision"
        }
      },
      "getVirtualPrice()": {
        "returns": {
          "_0": "the virtual price"
        }
      },
      "initialize(address,uint256,string,string,uint256,uint256,uint256,address)": {
        "params": {
          "_a": "the amplification coefficient * n * (n - 1). See the StableSwap paper for details",
          "_adminFee": "default adminFee to be initialized with",
          "_fee": "default swap fee to be initialized with",
          "_gETH": "reference of the ERC1155 contract",
          "_pooledTokenId": "gEther ID that the Pool is operating with",
          "lpTokenName": "the long-form name of the token to be deployed",
          "lpTokenSymbol": "the short symbol for the token to be deployed",
          "lpTokenTargetAddress": "the address of an existing LPToken contract to use as a target"
        }
      },
      "owner()": {
        "details": "Returns the address of the current owner."
      },
      "paused()": {
        "details": "Returns true if the contract is paused, and false otherwise."
      },
      "rampA(uint256,uint256)": {
        "params": {
          "futureA": "the new A to ramp towards",
          "futureTime": "timestamp when the new A should be reached"
        }
      },
      "removeLiquidity(uint256,uint256[],uint256)": {
        "details": "Liquidity can always be removed, even when the pool is paused.",
        "params": {
          "amount": "the amount of LP tokens to burn",
          "deadline": "latest timestamp to accept this transaction",
          "minAmounts": "the minimum amounts of each token in the pool        acceptable for this burn. Useful as a front-running mitigation"
        },
        "returns": {
          "_0": "amounts of tokens user received"
        }
      },
      "removeLiquidityImbalance(uint256[],uint256,uint256)": {
        "params": {
          "amounts": "how much of each token to withdraw",
          "deadline": "latest timestamp to accept this transaction",
          "maxBurnAmount": "the max LP token provider is willing to pay to remove liquidity. Useful as a front-running mitigation."
        },
        "returns": {
          "_0": "amount of LP tokens burned"
        }
      },
      "removeLiquidityOneToken(uint256,uint8,uint256,uint256)": {
        "params": {
          "deadline": "latest timestamp to accept this transaction",
          "minAmount": "the minimum amount to withdraw, otherwise revert",
          "tokenAmount": "the amount of the token you want to receive",
          "tokenIndex": "the index of the token you want to receive"
        },
        "returns": {
          "_0": "amount of chosen token user received"
        }
      },
      "renounceOwnership()": {
        "details": "Leaves the contract without owner. It will not be possible to call `onlyOwner` functions anymore. Can only be called by the current owner. NOTE: Renouncing ownership will leave the contract without an owner, thereby removing any functionality that is only available to the owner."
      },
      "setAdminFee(uint256)": {
        "params": {
          "newAdminFee": "new admin fee to be applied on future transactions"
        }
      },
      "setSwapFee(uint256)": {
        "params": {
          "newSwapFee": "new swap fee to be applied on future transactions"
        }
      },
      "supportsInterface(bytes4)": {
        "details": "See {IERC165-supportsInterface}."
      },
      "swap(uint8,uint8,uint256,uint256,uint256)": {
        "params": {
          "deadline": "latest timestamp to accept this transaction",
          "dx": "the amount of tokens the user wants to swap from",
          "minDy": "the min amount the user would like to receive, or revert.",
          "tokenIndexFrom": "the token the user wants to swap from",
          "tokenIndexTo": "the token the user wants to swap to"
        }
      },
      "transferOwnership(address)": {
        "details": "Transfers ownership of the contract to a new account (`newOwner`). Can only be called by the current owner."
      }
    },
    "title": "Swap - A StableSwap implementation in solidity.",
    "version": 1
  },
  "userdoc": {
    "kind": "user",
    "methods": {
      "addLiquidity(uint256[],uint256,uint256)": {
        "notice": "Add liquidity to the pool with the given amounts of tokens"
      },
      "calculateRemoveLiquidity(uint256)": {
        "notice": "A simple method to calculate amount of each underlying tokens that is returned upon burning given amount of LP tokens"
      },
      "calculateRemoveLiquidityOneToken(uint256,uint8)": {
        "notice": "Calculate the amount of underlying token available to withdraw when withdrawing via only single token"
      },
      "calculateSwap(uint8,uint8,uint256)": {
        "notice": "Calculate amount of tokens you receive on swap"
      },
      "calculateTokenAmount(uint256[],bool)": {
        "notice": "A simple method to calculate prices from deposits or withdrawals, excluding fees but including slippage. This is helpful as an input into the various \"min\" parameters on calls to fight front-running"
      },
      "donateBalancedFees(uint256,uint256)": {
        "notice": "donate ether as fee, respecting the admin fee"
      },
      "getA()": {
        "notice": "Return A, the amplification coefficient * n * (n - 1)"
      },
      "getAPrecise()": {
        "notice": "Return A in its raw precision form"
      },
      "getAdminBalance(uint256)": {
        "notice": "This function reads the accumulated amount of admin fees of the token with given index"
      },
      "getDebt()": {
        "notice": "Debt, The amount of buyback for stable pricing (1=1)."
      },
      "getSwapFee()": {
        "notice": "Return id of the pooled token"
      },
      "getTokenBalance(uint8)": {
        "notice": "Return current balance of the pooled token at given index"
      },
      "getVirtualPrice()": {
        "notice": "Get the virtual price, to help calculate profit"
      },
      "initialize(address,uint256,string,string,uint256,uint256,uint256,address)": {
        "notice": "Initializes this Swap contract with the given parameters. This will also clone a LPToken contract that represents users' LP positions. The owner of LPToken will be this contract - which means only this contract is allowed to mint/burn tokens."
      },
      "pause()": {
        "notice": "Pause the contract. Revert if already paused."
      },
      "rampA(uint256,uint256)": {
        "notice": "Start ramping up or down A parameter towards given futureA and futureTime Checks if the change is too rapid, and commits the new A value only when it falls under the limit range."
      },
      "removeLiquidity(uint256,uint256[],uint256)": {
        "notice": "Burn LP tokens to remove liquidity from the pool."
      },
      "removeLiquidityImbalance(uint256[],uint256,uint256)": {
        "notice": "Remove liquidity from the pool, weighted differently than the pool's current balances."
      },
      "removeLiquidityOneToken(uint256,uint8,uint256,uint256)": {
        "notice": "Remove liquidity from the pool all in one token."
      },
      "setAdminFee(uint256)": {
        "notice": "Update the admin fee. Admin fee takes portion of the swap fee."
      },
      "setSwapFee(uint256)": {
        "notice": "Update the swap fee to be applied on swaps"
      },
      "stopRampA()": {
        "notice": "Stop ramping A immediately. Reverts if ramp A is already stopped."
      },
      "swap(uint8,uint8,uint256,uint256,uint256)": {
        "notice": "Swap two tokens using this pool"
      },
      "unpause()": {
        "notice": "Unpause the contract. Revert if already unpaused."
      },
      "withdrawAdminFees()": {
        "notice": "Withdraw all admin fees to the contract owner"
      }
    },
    "notice": "This contract is responsible for custody of closely pegged assets (eg. group of stablecoins) and automatic market making system. Users become an LP (Liquidity Provider) by depositing their tokens in desired ratios for an exchange of the pool token that represents their share of the pool. Users can burn pool tokens and withdraw their share of token(s). Each time a swap between the pooled tokens happens, a set fee incurs which effectively gets distributed to the LPs. In case of emergencies, admin can pause additional deposits, swaps, or single-asset withdraws - which stops the ratio of the tokens in the pool from changing. Users can always withdraw their tokens via multi-asset withdraws.",
    "version": 1
  },
  "storageLayout": {
    "storage": [
      {
        "astId": 519,
        "contract": "contracts/Portal/withdrawalPool/Swap.sol:Swap",
        "label": "_initialized",
        "offset": 0,
        "slot": "0",
        "type": "t_bool"
      },
      {
        "astId": 522,
        "contract": "contracts/Portal/withdrawalPool/Swap.sol:Swap",
        "label": "_initializing",
        "offset": 1,
        "slot": "0",
        "type": "t_bool"
      },
      {
        "astId": 2158,
        "contract": "contracts/Portal/withdrawalPool/Swap.sol:Swap",
        "label": "__gap",
        "offset": 0,
        "slot": "1",
        "type": "t_array(t_uint256)50_storage"
      },
      {
        "astId": 10,
        "contract": "contracts/Portal/withdrawalPool/Swap.sol:Swap",
        "label": "_owner",
        "offset": 0,
        "slot": "51",
        "type": "t_address"
      },
      {
        "astId": 122,
        "contract": "contracts/Portal/withdrawalPool/Swap.sol:Swap",
        "label": "__gap",
        "offset": 0,
        "slot": "52",
        "type": "t_array(t_uint256)49_storage"
      },
      {
        "astId": 743,
        "contract": "contracts/Portal/withdrawalPool/Swap.sol:Swap",
        "label": "_paused",
        "offset": 0,
        "slot": "101",
        "type": "t_bool"
      },
      {
        "astId": 832,
        "contract": "contracts/Portal/withdrawalPool/Swap.sol:Swap",
        "label": "__gap",
        "offset": 0,
        "slot": "102",
        "type": "t_array(t_uint256)49_storage"
      },
      {
        "astId": 847,
        "contract": "contracts/Portal/withdrawalPool/Swap.sol:Swap",
        "label": "_status",
        "offset": 0,
        "slot": "151",
        "type": "t_uint256"
      },
      {
        "astId": 891,
        "contract": "contracts/Portal/withdrawalPool/Swap.sol:Swap",
        "label": "__gap",
        "offset": 0,
        "slot": "152",
        "type": "t_array(t_uint256)49_storage"
      },
      {
        "astId": 3096,
        "contract": "contracts/Portal/withdrawalPool/Swap.sol:Swap",
        "label": "__gap",
        "offset": 0,
        "slot": "201",
        "type": "t_array(t_uint256)50_storage"
      },
      {
        "astId": 1057,
        "contract": "contracts/Portal/withdrawalPool/Swap.sol:Swap",
        "label": "__gap",
        "offset": 0,
        "slot": "251",
        "type": "t_array(t_uint256)50_storage"
      },
      {
        "astId": 1003,
        "contract": "contracts/Portal/withdrawalPool/Swap.sol:Swap",
        "label": "__gap",
        "offset": 0,
        "slot": "301",
        "type": "t_array(t_uint256)50_storage"
      },
      {
        "astId": 19971,
        "contract": "contracts/Portal/withdrawalPool/Swap.sol:Swap",
        "label": "swapStorage",
        "offset": 0,
        "slot": "351",
        "type": "t_struct(Swap)21808_storage"
      }
    ],
    "types": {
      "t_address": {
        "encoding": "inplace",
        "label": "address",
        "numberOfBytes": "20"
      },
      "t_array(t_uint256)49_storage": {
        "base": "t_uint256",
        "encoding": "inplace",
        "label": "uint256[49]",
        "numberOfBytes": "1568"
      },
      "t_array(t_uint256)50_storage": {
        "base": "t_uint256",
        "encoding": "inplace",
        "label": "uint256[50]",
        "numberOfBytes": "1600"
      },
      "t_array(t_uint256)dyn_storage": {
        "base": "t_uint256",
        "encoding": "dynamic_array",
        "label": "uint256[]",
        "numberOfBytes": "32"
      },
      "t_bool": {
        "encoding": "inplace",
        "label": "bool",
        "numberOfBytes": "1"
      },
      "t_contract(ILPToken)25117": {
        "encoding": "inplace",
        "label": "contract ILPToken",
        "numberOfBytes": "20"
      },
      "t_contract(IgETH)26136": {
        "encoding": "inplace",
        "label": "contract IgETH",
        "numberOfBytes": "20"
      },
      "t_struct(Swap)21808_storage": {
        "encoding": "inplace",
        "label": "struct SwapUtils.Swap",
        "members": [
          {
            "astId": 21787,
            "contract": "contracts/Portal/withdrawalPool/Swap.sol:Swap",
            "label": "gETH",
            "offset": 0,
            "slot": "0",
            "type": "t_contract(IgETH)26136"
          },
          {
            "astId": 21790,
            "contract": "contracts/Portal/withdrawalPool/Swap.sol:Swap",
            "label": "lpToken",
            "offset": 0,
            "slot": "1",
            "type": "t_contract(ILPToken)25117"
          },
          {
            "astId": 21792,
            "contract": "contracts/Portal/withdrawalPool/Swap.sol:Swap",
            "label": "pooledTokenId",
            "offset": 0,
            "slot": "2",
            "type": "t_uint256"
          },
          {
            "astId": 21794,
            "contract": "contracts/Portal/withdrawalPool/Swap.sol:Swap",
            "label": "initialA",
            "offset": 0,
            "slot": "3",
            "type": "t_uint256"
          },
          {
            "astId": 21796,
            "contract": "contracts/Portal/withdrawalPool/Swap.sol:Swap",
            "label": "futureA",
            "offset": 0,
            "slot": "4",
            "type": "t_uint256"
          },
          {
            "astId": 21798,
            "contract": "contracts/Portal/withdrawalPool/Swap.sol:Swap",
            "label": "initialATime",
            "offset": 0,
            "slot": "5",
            "type": "t_uint256"
          },
          {
            "astId": 21800,
            "contract": "contracts/Portal/withdrawalPool/Swap.sol:Swap",
            "label": "futureATime",
            "offset": 0,
            "slot": "6",
            "type": "t_uint256"
          },
          {
            "astId": 21802,
            "contract": "contracts/Portal/withdrawalPool/Swap.sol:Swap",
            "label": "swapFee",
            "offset": 0,
            "slot": "7",
            "type": "t_uint256"
          },
          {
            "astId": 21804,
            "contract": "contracts/Portal/withdrawalPool/Swap.sol:Swap",
            "label": "adminFee",
            "offset": 0,
            "slot": "8",
            "type": "t_uint256"
          },
          {
            "astId": 21807,
            "contract": "contracts/Portal/withdrawalPool/Swap.sol:Swap",
            "label": "balances",
            "offset": 0,
            "slot": "9",
            "type": "t_array(t_uint256)dyn_storage"
          }
        ],
        "numberOfBytes": "320"
      },
      "t_uint256": {
        "encoding": "inplace",
        "label": "uint256",
        "numberOfBytes": "32"
      }
    }
  }
}