{
  "address": "0x527901c777ad2A3eF15794c1420F357F2969FEE6",
  "abi": [
    {
      "anonymous": false,
      "inputs": [
        {
          "indexed": true,
          "internalType": "address",
          "name": "owner",
          "type": "address"
        },
        {
          "indexed": true,
          "internalType": "address",
          "name": "spender",
          "type": "address"
        },
        {
          "indexed": false,
          "internalType": "uint256",
          "name": "value",
          "type": "uint256"
        }
      ],
      "name": "Approval",
      "type": "event"
    },
    {
      "anonymous": false,
      "inputs": [
        {
          "indexed": false,
          "internalType": "uint8",
          "name": "version",
          "type": "uint8"
        }
      ],
      "name": "Initialized",
      "type": "event"
    },
    {
      "anonymous": false,
      "inputs": [
        {
          "indexed": true,
          "internalType": "address",
          "name": "from",
          "type": "address"
        },
        {
          "indexed": true,
          "internalType": "address",
          "name": "to",
          "type": "address"
        },
        {
          "indexed": false,
          "internalType": "uint256",
          "name": "value",
          "type": "uint256"
        }
      ],
      "name": "Transfer",
      "type": "event"
    },
    {
      "inputs": [
        {
          "internalType": "address",
          "name": "owner",
          "type": "address"
        },
        {
          "internalType": "address",
          "name": "spender",
          "type": "address"
        }
      ],
      "name": "allowance",
      "outputs": [
        {
          "internalType": "uint256",
          "name": "",
          "type": "uint256"
        }
      ],
      "stateMutability": "view",
      "type": "function"
    },
    {
      "inputs": [
        {
          "internalType": "address",
          "name": "spender",
          "type": "address"
        },
        {
          "internalType": "uint256",
          "name": "amount",
          "type": "uint256"
        }
      ],
      "name": "approve",
      "outputs": [
        {
          "internalType": "bool",
          "name": "",
          "type": "bool"
        }
      ],
      "stateMutability": "nonpayable",
      "type": "function"
    },
    {
      "inputs": [
        {
          "internalType": "address",
          "name": "account",
          "type": "address"
        }
      ],
      "name": "balanceOf",
      "outputs": [
        {
          "internalType": "uint256",
          "name": "",
          "type": "uint256"
        }
      ],
      "stateMutability": "view",
      "type": "function"
    },
    {
      "inputs": [],
      "name": "decimals",
      "outputs": [
        {
          "internalType": "uint8",
          "name": "",
          "type": "uint8"
        }
      ],
      "stateMutability": "view",
      "type": "function"
    },
    {
      "inputs": [
        {
          "internalType": "address",
          "name": "spender",
          "type": "address"
        },
        {
          "internalType": "uint256",
          "name": "subtractedValue",
          "type": "uint256"
        }
      ],
      "name": "decreaseAllowance",
      "outputs": [
        {
          "internalType": "bool",
          "name": "",
          "type": "bool"
        }
      ],
      "stateMutability": "nonpayable",
      "type": "function"
    },
    {
      "inputs": [
        {
          "internalType": "address",
          "name": "spender",
          "type": "address"
        },
        {
          "internalType": "uint256",
          "name": "addedValue",
          "type": "uint256"
        }
      ],
      "name": "increaseAllowance",
      "outputs": [
        {
          "internalType": "bool",
          "name": "",
          "type": "bool"
        }
      ],
      "stateMutability": "nonpayable",
      "type": "function"
    },
    {
      "inputs": [
        {
          "internalType": "uint256",
          "name": "id_",
          "type": "uint256"
        },
        {
          "internalType": "address",
          "name": "gETH_",
          "type": "address"
        },
        {
          "internalType": "bytes",
          "name": "data",
          "type": "bytes"
        }
      ],
      "name": "initialize",
      "outputs": [
        {
          "internalType": "bool",
          "name": "",
          "type": "bool"
        }
      ],
      "stateMutability": "nonpayable",
      "type": "function"
    },
    {
      "inputs": [],
      "name": "name",
      "outputs": [
        {
          "internalType": "string",
          "name": "",
          "type": "string"
        }
      ],
      "stateMutability": "view",
      "type": "function"
    },
    {
      "inputs": [],
      "name": "pricePerShare",
      "outputs": [
        {
          "internalType": "uint256",
          "name": "",
          "type": "uint256"
        }
      ],
      "stateMutability": "view",
      "type": "function"
    },
    {
      "inputs": [],
      "name": "symbol",
      "outputs": [
        {
          "internalType": "string",
          "name": "",
          "type": "string"
        }
      ],
      "stateMutability": "view",
      "type": "function"
    },
    {
      "inputs": [],
      "name": "totalSupply",
      "outputs": [
        {
          "internalType": "uint256",
          "name": "",
          "type": "uint256"
        }
      ],
      "stateMutability": "view",
      "type": "function"
    },
    {
      "inputs": [
        {
          "internalType": "address",
          "name": "to",
          "type": "address"
        },
        {
          "internalType": "uint256",
          "name": "amount",
          "type": "uint256"
        }
      ],
      "name": "transfer",
      "outputs": [
        {
          "internalType": "bool",
          "name": "",
          "type": "bool"
        }
      ],
      "stateMutability": "nonpayable",
      "type": "function"
    },
    {
      "inputs": [
        {
          "internalType": "address",
          "name": "from",
          "type": "address"
        },
        {
          "internalType": "address",
          "name": "to",
          "type": "address"
        },
        {
          "internalType": "uint256",
          "name": "amount",
          "type": "uint256"
        }
      ],
      "name": "transferFrom",
      "outputs": [
        {
          "internalType": "bool",
          "name": "",
          "type": "bool"
        }
      ],
      "stateMutability": "nonpayable",
      "type": "function"
    }
  ],
  "transactionHash": "0x87affa83c3cb02661333ad2c85b99ef79792cccddc84141bb102a4eac13e1d59",
  "args": [],
  "numDeployments": 1,
  "solcInputHash": "ade6b4939fda34d609e172906ec4e12a",
  "bytecode": "0x608060405234801561001057600080fd5b50610fd9806100206000396000f3fe608060405234801561001057600080fd5b50600436106100cf5760003560e01c806370a082311161008c578063a457c2d711610066578063a457c2d714610183578063a9059cbb14610196578063dd62ed3e146101a9578063e209b646146101bc57600080fd5b806370a082311461016057806395d89b411461017357806399530b061461017b57600080fd5b806306fdde03146100d4578063095ea7b3146100f257806318160ddd1461011557806323b872dd1461012b578063313ce5671461013e578063395093511461014d575b600080fd5b6100dc6101cf565b6040516100e99190610e62565b60405180910390f35b610105610100366004610d98565b610261565b60405190151581526020016100e9565b61011d610279565b6040519081526020016100e9565b610105610139366004610d5c565b610300565b604051601281526020016100e9565b61010561015b366004610d98565b610324565b61011d61016e366004610d07565b610346565b6100dc6103e2565b61011d6103f1565b610105610191366004610d98565b610427565b6101056101a4366004610d98565b6104a7565b61011d6101b7366004610d29565b6104b5565b6101056101ca366004610ddb565b6104e0565b6060603480546101de90610f58565b80601f016020809104026020016040519081016040528092919081815260200182805461020a90610f58565b80156102575780601f1061022c57610100808354040283529160200191610257565b820191906000526020600020905b81548152906001019060200180831161023a57829003601f168201915b5050505050905090565b60003361026f8185856106f6565b5060019392505050565b60375460365460405163bd85b03960e01b815260048101919091526000916001600160a01b03169063bd85b039906024015b60206040518083038186803b1580156102c357600080fd5b505afa1580156102d7573d6000803e3d6000fd5b505050506040513d601f19601f820116820180604052508101906102fb9190610dc2565b905090565b60003361030e85828561081a565b610319858585610894565b506001949350505050565b60003361026f81858561033783836104b5565b6103419190610f02565b6106f6565b603754603654604051627eeac760e11b81526000926001600160a01b03169162fdd58e9161038c9186916004016001600160a01b03929092168252602082015260400190565b60206040518083038186803b1580156103a457600080fd5b505afa1580156103b8573d6000803e3d6000fd5b505050506040513d601f19601f820116820180604052508101906103dc9190610dc2565b92915050565b6060603580546101de90610f58565b60375460365460405163f759cc3b60e01b815260048101919091526000916001600160a01b03169063f759cc3b906024016102ab565b6000338161043582866104b5565b90508381101561049a5760405162461bcd60e51b815260206004820152602560248201527f45524332303a2064656372656173656420616c6c6f77616e63652062656c6f77604482015264207a65726f60d81b60648201526084015b60405180910390fd5b61031982868684036106f6565b60003361026f818585610894565b6001600160a01b03918216600090815260336020908152604080832093909416825291909152205490565b60008054610100900460ff16158080156105015750600054600160ff909116105b8061051b5750303b15801561051b575060005460ff166001145b61057e5760405162461bcd60e51b815260206004820152602e60248201527f496e697469616c697a61626c653a20636f6e747261637420697320616c72656160448201526d191e481a5b9a5d1a585b1a5e995960921b6064820152608401610491565b6000805460ff1916600117905580156105a1576000805461ff0019166101001790555b60006105e585858080601f0160208091040260200160405190810160405280939291908181526020018383808284376000920182905250925060209150610a9e9050565b6105ee90610f31565b60001c90506106a2878761063c88888080601f01602080910402602001604051908101604052809392919081815260200183838082843760009201919091525060209250889150610a9e9050565b61069d89898080601f016020809104026020016040519081016040528093929190818152602001838380828437600092019190915250610683925089915060209050610f02565b61068e886020610f02565b610698908c610f1a565b610a9e565b610baa565b600192505080156106ed576000805461ff0019169055604051600181527f7f26b83ff96e1f2b6a682f133852f6798a09c465da95921460cefb38474024989060200160405180910390a15b50949350505050565b6001600160a01b0383166107585760405162461bcd60e51b8152602060048201526024808201527f45524332303a20617070726f76652066726f6d20746865207a65726f206164646044820152637265737360e01b6064820152608401610491565b6001600160a01b0382166107b95760405162461bcd60e51b815260206004820152602260248201527f45524332303a20617070726f766520746f20746865207a65726f206164647265604482015261737360f01b6064820152608401610491565b6001600160a01b0383811660008181526033602090815260408083209487168084529482529182902085905590518481527f8c5be1e5ebec7d5bd14f71427d1e84f3dd0314c0f7b2291e5b200ac8c7c3b925910160405180910390a3505050565b600061082684846104b5565b9050600019811461088e57818110156108815760405162461bcd60e51b815260206004820152601d60248201527f45524332303a20696e73756666696369656e7420616c6c6f77616e63650000006044820152606401610491565b61088e84848484036106f6565b50505050565b6001600160a01b0383166108f85760405162461bcd60e51b815260206004820152602560248201527f45524332303a207472616e736665722066726f6d20746865207a65726f206164604482015264647265737360d81b6064820152608401610491565b6001600160a01b03821661095a5760405162461bcd60e51b815260206004820152602360248201527f45524332303a207472616e7366657220746f20746865207a65726f206164647260448201526265737360e81b6064820152608401610491565b600061096584610346565b9050818110156109c65760405162461bcd60e51b815260206004820152602660248201527f45524332303a207472616e7366657220616d6f756e7420657863656564732062604482015265616c616e636560d01b6064820152608401610491565b603754603654604051637921219560e11b81526001600160a01b038781166004830152868116602483015260448201929092526064810185905260a06084820152600060a482015291169063f242432a9060c401600060405180830381600087803b158015610a3457600080fd5b505af1158015610a48573d6000803e3d6000fd5b50505050826001600160a01b0316846001600160a01b03167fddf252ad1be2c89b69c2b068fc378daa952ba7f163c4a11628f55a4df523b3ef84604051610a9191815260200190565b60405180910390a361088e565b606081610aac81601f610f02565b1015610aeb5760405162461bcd60e51b815260206004820152600e60248201526d736c6963655f6f766572666c6f7760901b6044820152606401610491565b610af58284610f02565b84511015610b395760405162461bcd60e51b8152602060048201526011602482015270736c6963655f6f75744f66426f756e647360781b6044820152606401610491565b606082158015610b5857604051915060008252602082016040526106ed565b6040519150601f8416801560200281840101858101878315602002848b0101015b81831015610b91578051835260209283019201610b79565b5050858452601f01601f19166040525050949350505050565b600054610100900460ff16610bd15760405162461bcd60e51b815260040161049190610eb7565b61088e84848484600054610100900460ff16610bff5760405162461bcd60e51b815260040161049190610eb7565b60368490558151610c17906034906020850190610c52565b508051610c2b906035906020840190610c52565b5050603780546001600160a01b0319166001600160a01b0393909316929092179091555050565b828054610c5e90610f58565b90600052602060002090601f016020900481019282610c805760008555610cc6565b82601f10610c9957805160ff1916838001178555610cc6565b82800160010185558215610cc6579182015b82811115610cc6578251825591602001919060010190610cab565b50610cd2929150610cd6565b5090565b5b80821115610cd25760008155600101610cd7565b80356001600160a01b0381168114610d0257600080fd5b919050565b600060208284031215610d1957600080fd5b610d2282610ceb565b9392505050565b60008060408385031215610d3c57600080fd5b610d4583610ceb565b9150610d5360208401610ceb565b90509250929050565b600080600060608486031215610d7157600080fd5b610d7a84610ceb565b9250610d8860208501610ceb565b9150604084013590509250925092565b60008060408385031215610dab57600080fd5b610db483610ceb565b946020939093013593505050565b600060208284031215610dd457600080fd5b5051919050565b60008060008060608587031215610df157600080fd5b84359350610e0160208601610ceb565b9250604085013567ffffffffffffffff80821115610e1e57600080fd5b818701915087601f830112610e3257600080fd5b813581811115610e4157600080fd5b886020828501011115610e5357600080fd5b95989497505060200194505050565b600060208083528351808285015260005b81811015610e8f57858101830151858201604001528201610e73565b81811115610ea1576000604083870101525b50601f01601f1916929092016040019392505050565b6020808252602b908201527f496e697469616c697a61626c653a20636f6e7472616374206973206e6f74206960408201526a6e697469616c697a696e6760a81b606082015260800190565b60008219821115610f1557610f15610f8d565b500190565b600082821015610f2c57610f2c610f8d565b500390565b80516020808301519190811015610f52576000198160200360031b1b821691505b50919050565b600181811c90821680610f6c57607f821691505b60208210811415610f5257634e487b7160e01b600052602260045260246000fd5b634e487b7160e01b600052601160045260246000fdfea264697066735822122093d89f7971326b6a932d7844b57ffd34da74cd4052879350503535f1d8ab617c64736f6c63430008070033",
  "devdoc": {
    "details": "Implementation of the {IERC20} interface. This implementation is agnostic to the way tokens are created. This means that a supply mechanism has to be added in a derived contract using {_mint}. For a generic mechanism see {ERC20PresetMinterPauser}. TIP: For a detailed writeup see our guide https://forum.zeppelin.solutions/t/how-to-implement-erc20-supply-mechanisms/226[How to implement supply mechanisms]. We have followed general OpenZeppelin Contracts guidelines: functions revert instead returning `false` on failure. This behavior is nonetheless conventional and does not conflict with the expectations of ERC20 applications. Additionally, an {Approval} event is emitted on calls to {transferFrom}. This allows applications to reconstruct the allowance for all accounts just by listening to said events. Other implementations of the EIP may not emit these events, as it isn't required by the specification. Finally, the non-standard {decreaseAllowance} and {increaseAllowance} functions have been added to mitigate the well-known issues around setting allowances. See {IERC20-approve}.",
    "kind": "dev",
    "methods": {
      "allowance(address,address)": {
        "details": "See {IERC20-allowance}."
      },
      "approve(address,uint256)": {
        "details": "See {IERC20-approve}. NOTE: If `amount` is the maximum `uint256`, the allowance is not updated on `transferFrom`. This is semantically equivalent to an infinite approval. Requirements: - `spender` cannot be the zero address."
      },
      "balanceOf(address)": {
        "details": "See {IERC20-balanceOf}.CHANGED for gETH.See {gETH-balanceOf}."
      },
      "decimals()": {
        "details": "Returns the number of decimals used to get its user representation. For example, if `decimals` equals `2`, a balance of `505` tokens should be displayed to a user as `5.05` (`505 / 10 ** 2`). Tokens usually opt for a value of 18, imitating the relationship between Ether and Wei. This is the value {ERC20} uses, unless this function is overridden; NOTE: This information is only used for _display_ purposes: it in no way affects any of the arithmetic of the contract, including {IERC20-balanceOf} and {IERC20-transfer}."
      },
      "decreaseAllowance(address,uint256)": {
        "details": "Atomically decreases the allowance granted to `spender` by the caller. This is an alternative to {approve} that can be used as a mitigation for problems described in {IERC20-approve}. Emits an {Approval} event indicating the updated allowance. Requirements: - `spender` cannot be the zero address. - `spender` must have allowance for the caller of at least `subtractedValue`."
      },
      "increaseAllowance(address,uint256)": {
        "details": "Atomically increases the allowance granted to `spender` by the caller. This is an alternative to {approve} that can be used as a mitigation for problems described in {IERC20-approve}. Emits an {Approval} event indicating the updated allowance. Requirements: - `spender` cannot be the zero address."
      },
      "initialize(uint256,address,bytes)": {
        "details": "Sets the values for {name} and {symbol}. The default value of {decimals} is 18. To select a different value for {decimals} you should overload it."
      },
      "name()": {
        "details": "Returns the name of the token."
      },
      "pricePerShare()": {
        "details": "shows the underlying ETH for 1 staked ether for a given idCHANGED for gETH.See {gETH-pricePerShare}."
      },
      "symbol()": {
        "details": "Returns the symbol of the token, usually a shorter version of the name."
      },
      "totalSupply()": {
        "details": "See {IERC20-totalSupply}.CHANGED for gETH.See {gETH-totalSupply}."
      },
      "transfer(address,uint256)": {
        "details": "See {IERC20-transfer}. Requirements: - `to` cannot be the zero address. - the caller must have a balance of at least `amount`."
      },
      "transferFrom(address,address,uint256)": {
        "details": "See {IERC20-transferFrom}. Emits an {Approval} event indicating the updated allowance. This is not required by the EIP. See the note at the beginning of {ERC20}. NOTE: Does not update the allowance if the current allowance is the maximum `uint256`. Requirements: - `from` and `to` cannot be the zero address. - `from` must have a balance of at least `amount`. - the caller must have allowance for ``from``'s tokens of at least `amount`."
      }
    },
    "stateVariables": {
      "__gap": {
        "details": "This empty reserved space is put in place to allow future versions to add new variables without shifting down storage in the inheritance chain. See https://docs.openzeppelin.com/contracts/4.x/upgradeable#storage_gaps"
      },
      "_allowances": {
        "details": "gETH ERC20 interface doesn't use balance info, catches it from ERC1155. mapping(address => uint256) private _balances;*"
      },
      "_name": {
        "details": "gETH ERC20 interface doesn't use totalSupply info, catches it from ERC1155. uint256 private _totalSupply;*"
      }
    },
    "version": 1
  },
  "userdoc": {
    "kind": "user",
    "methods": {},
    "version": 1
  },
  "storageLayout": {
    "storage": [
      {
        "astId": 527,
        "contract": "contracts/Portal/gETHInterfaces/ERC20InterfaceUpgradable.sol:ERC20InterfaceUpgradable",
        "label": "_initialized",
        "offset": 0,
        "slot": "0",
        "type": "t_uint8"
      },
      {
        "astId": 530,
        "contract": "contracts/Portal/gETHInterfaces/ERC20InterfaceUpgradable.sol:ERC20InterfaceUpgradable",
        "label": "_initializing",
        "offset": 1,
        "slot": "0",
        "type": "t_bool"
      },
      {
        "astId": 2331,
        "contract": "contracts/Portal/gETHInterfaces/ERC20InterfaceUpgradable.sol:ERC20InterfaceUpgradable",
        "label": "__gap",
        "offset": 0,
        "slot": "1",
        "type": "t_array(t_uint256)50_storage"
      },
      {
        "astId": 11391,
        "contract": "contracts/Portal/gETHInterfaces/ERC20InterfaceUpgradable.sol:ERC20InterfaceUpgradable",
        "label": "_allowances",
        "offset": 0,
        "slot": "51",
        "type": "t_mapping(t_address,t_mapping(t_address,t_uint256))"
      },
      {
        "astId": 11394,
        "contract": "contracts/Portal/gETHInterfaces/ERC20InterfaceUpgradable.sol:ERC20InterfaceUpgradable",
        "label": "_name",
        "offset": 0,
        "slot": "52",
        "type": "t_string_storage"
      },
      {
        "astId": 11396,
        "contract": "contracts/Portal/gETHInterfaces/ERC20InterfaceUpgradable.sol:ERC20InterfaceUpgradable",
        "label": "_symbol",
        "offset": 0,
        "slot": "53",
        "type": "t_string_storage"
      },
      {
        "astId": 11398,
        "contract": "contracts/Portal/gETHInterfaces/ERC20InterfaceUpgradable.sol:ERC20InterfaceUpgradable",
        "label": "_id",
        "offset": 0,
        "slot": "54",
        "type": "t_uint256"
      },
      {
        "astId": 11401,
        "contract": "contracts/Portal/gETHInterfaces/ERC20InterfaceUpgradable.sol:ERC20InterfaceUpgradable",
        "label": "_ERC1155",
        "offset": 0,
        "slot": "55",
        "type": "t_contract(IgETH)26862"
      },
      {
        "astId": 11947,
        "contract": "contracts/Portal/gETHInterfaces/ERC20InterfaceUpgradable.sol:ERC20InterfaceUpgradable",
        "label": "__gap",
        "offset": 0,
        "slot": "56",
        "type": "t_array(t_uint256)45_storage"
      }
    ],
    "types": {
      "t_address": {
        "encoding": "inplace",
        "label": "address",
        "numberOfBytes": "20"
      },
      "t_array(t_uint256)45_storage": {
        "base": "t_uint256",
        "encoding": "inplace",
        "label": "uint256[45]",
        "numberOfBytes": "1440"
      },
      "t_array(t_uint256)50_storage": {
        "base": "t_uint256",
        "encoding": "inplace",
        "label": "uint256[50]",
        "numberOfBytes": "1600"
      },
      "t_bool": {
        "encoding": "inplace",
        "label": "bool",
        "numberOfBytes": "1"
      },
      "t_contract(IgETH)26862": {
        "encoding": "inplace",
        "label": "contract IgETH",
        "numberOfBytes": "20"
      },
      "t_mapping(t_address,t_mapping(t_address,t_uint256))": {
        "encoding": "mapping",
        "key": "t_address",
        "label": "mapping(address => mapping(address => uint256))",
        "numberOfBytes": "32",
        "value": "t_mapping(t_address,t_uint256)"
      },
      "t_mapping(t_address,t_uint256)": {
        "encoding": "mapping",
        "key": "t_address",
        "label": "mapping(address => uint256)",
        "numberOfBytes": "32",
        "value": "t_uint256"
      },
      "t_string_storage": {
        "encoding": "bytes",
        "label": "string",
        "numberOfBytes": "32"
      },
      "t_uint256": {
        "encoding": "inplace",
        "label": "uint256",
        "numberOfBytes": "32"
      },
      "t_uint8": {
        "encoding": "inplace",
        "label": "uint8",
        "numberOfBytes": "1"
      }
    }
  }
}