{
  "address": "0x87413e686cef9F0c2AF33ec5A6A3a6716F9c57c2",
  "abi": [
    {
      "inputs": [],
      "stateMutability": "nonpayable",
      "type": "constructor"
    },
    {
      "anonymous": false,
      "inputs": [
        {
          "indexed": true,
          "internalType": "address",
          "name": "owner",
          "type": "address"
        },
        {
          "indexed": true,
          "internalType": "address",
          "name": "spender",
          "type": "address"
        },
        {
          "indexed": false,
          "internalType": "uint256",
          "name": "value",
          "type": "uint256"
        }
      ],
      "name": "Approval",
      "type": "event"
    },
    {
      "anonymous": false,
      "inputs": [
        {
          "indexed": false,
          "internalType": "uint8",
          "name": "version",
          "type": "uint8"
        }
      ],
      "name": "Initialized",
      "type": "event"
    },
    {
      "anonymous": false,
      "inputs": [
        {
          "indexed": true,
          "internalType": "address",
          "name": "from",
          "type": "address"
        },
        {
          "indexed": true,
          "internalType": "address",
          "name": "to",
          "type": "address"
        },
        {
          "indexed": false,
          "internalType": "uint256",
          "name": "value",
          "type": "uint256"
        }
      ],
      "name": "Transfer",
      "type": "event"
    },
    {
      "inputs": [],
      "name": "DOMAIN_SEPARATOR",
      "outputs": [
        {
          "internalType": "bytes32",
          "name": "",
          "type": "bytes32"
        }
      ],
      "stateMutability": "view",
      "type": "function"
    },
    {
      "inputs": [],
      "name": "ERC1155",
      "outputs": [
        {
          "internalType": "contract IgETH",
          "name": "",
          "type": "address"
        }
      ],
      "stateMutability": "view",
      "type": "function"
    },
    {
      "inputs": [],
      "name": "ERC1155_ID",
      "outputs": [
        {
          "internalType": "uint256",
          "name": "",
          "type": "uint256"
        }
      ],
      "stateMutability": "view",
      "type": "function"
    },
    {
      "inputs": [
        {
          "internalType": "address",
          "name": "owner",
          "type": "address"
        },
        {
          "internalType": "address",
          "name": "spender",
          "type": "address"
        }
      ],
      "name": "allowance",
      "outputs": [
        {
          "internalType": "uint256",
          "name": "",
          "type": "uint256"
        }
      ],
      "stateMutability": "view",
      "type": "function"
    },
    {
      "inputs": [
        {
          "internalType": "address",
          "name": "spender",
          "type": "address"
        },
        {
          "internalType": "uint256",
          "name": "amount",
          "type": "uint256"
        }
      ],
      "name": "approve",
      "outputs": [
        {
          "internalType": "bool",
          "name": "",
          "type": "bool"
        }
      ],
      "stateMutability": "nonpayable",
      "type": "function"
    },
    {
      "inputs": [
        {
          "internalType": "address",
          "name": "account",
          "type": "address"
        }
      ],
      "name": "balanceOf",
      "outputs": [
        {
          "internalType": "uint256",
          "name": "",
          "type": "uint256"
        }
      ],
      "stateMutability": "view",
      "type": "function"
    },
    {
      "inputs": [],
      "name": "decimals",
      "outputs": [
        {
          "internalType": "uint8",
          "name": "",
          "type": "uint8"
        }
      ],
      "stateMutability": "view",
      "type": "function"
    },
    {
      "inputs": [
        {
          "internalType": "address",
          "name": "spender",
          "type": "address"
        },
        {
          "internalType": "uint256",
          "name": "subtractedValue",
          "type": "uint256"
        }
      ],
      "name": "decreaseAllowance",
      "outputs": [
        {
          "internalType": "bool",
          "name": "",
          "type": "bool"
        }
      ],
      "stateMutability": "nonpayable",
      "type": "function"
    },
    {
      "inputs": [
        {
          "internalType": "address",
          "name": "spender",
          "type": "address"
        },
        {
          "internalType": "uint256",
          "name": "addedValue",
          "type": "uint256"
        }
      ],
      "name": "increaseAllowance",
      "outputs": [
        {
          "internalType": "bool",
          "name": "",
          "type": "bool"
        }
      ],
      "stateMutability": "nonpayable",
      "type": "function"
    },
    {
      "inputs": [
        {
          "internalType": "uint256",
          "name": "id_",
          "type": "uint256"
        },
        {
          "internalType": "address",
          "name": "gETH_",
          "type": "address"
        },
        {
          "internalType": "bytes",
          "name": "data",
          "type": "bytes"
        }
      ],
      "name": "initialize",
      "outputs": [],
      "stateMutability": "nonpayable",
      "type": "function"
    },
    {
      "inputs": [],
      "name": "name",
      "outputs": [
        {
          "internalType": "string",
          "name": "",
          "type": "string"
        }
      ],
      "stateMutability": "view",
      "type": "function"
    },
    {
      "inputs": [
        {
          "internalType": "address",
          "name": "owner",
          "type": "address"
        }
      ],
      "name": "nonces",
      "outputs": [
        {
          "internalType": "uint256",
          "name": "",
          "type": "uint256"
        }
      ],
      "stateMutability": "view",
      "type": "function"
    },
    {
      "inputs": [
        {
          "internalType": "address",
          "name": "owner",
          "type": "address"
        },
        {
          "internalType": "address",
          "name": "spender",
          "type": "address"
        },
        {
          "internalType": "uint256",
          "name": "value",
          "type": "uint256"
        },
        {
          "internalType": "uint256",
          "name": "deadline",
          "type": "uint256"
        },
        {
          "internalType": "uint8",
          "name": "v",
          "type": "uint8"
        },
        {
          "internalType": "bytes32",
          "name": "r",
          "type": "bytes32"
        },
        {
          "internalType": "bytes32",
          "name": "s",
          "type": "bytes32"
        }
      ],
      "name": "permit",
      "outputs": [],
      "stateMutability": "nonpayable",
      "type": "function"
    },
    {
      "inputs": [],
      "name": "pricePerShare",
      "outputs": [
        {
          "internalType": "uint256",
          "name": "",
          "type": "uint256"
        }
      ],
      "stateMutability": "view",
      "type": "function"
    },
    {
      "inputs": [],
      "name": "symbol",
      "outputs": [
        {
          "internalType": "string",
          "name": "",
          "type": "string"
        }
      ],
      "stateMutability": "view",
      "type": "function"
    },
    {
      "inputs": [],
      "name": "totalSupply",
      "outputs": [
        {
          "internalType": "uint256",
          "name": "",
          "type": "uint256"
        }
      ],
      "stateMutability": "view",
      "type": "function"
    },
    {
      "inputs": [
        {
          "internalType": "address",
          "name": "to",
          "type": "address"
        },
        {
          "internalType": "uint256",
          "name": "amount",
          "type": "uint256"
        }
      ],
      "name": "transfer",
      "outputs": [
        {
          "internalType": "bool",
          "name": "",
          "type": "bool"
        }
      ],
      "stateMutability": "nonpayable",
      "type": "function"
    },
    {
      "inputs": [
        {
          "internalType": "address",
          "name": "from",
          "type": "address"
        },
        {
          "internalType": "address",
          "name": "to",
          "type": "address"
        },
        {
          "internalType": "uint256",
          "name": "amount",
          "type": "uint256"
        }
      ],
      "name": "transferFrom",
      "outputs": [
        {
          "internalType": "bool",
          "name": "",
          "type": "bool"
        }
      ],
      "stateMutability": "nonpayable",
      "type": "function"
    }
  ],
  "transactionHash": "0x90901beb7ea00a216c4917ce4c0eddcf14856b8f7017eafce2ebd23a8d2289f5",
  "args": [],
  "numDeployments": 1,
  "solcInputHash": "42a254aef026a05d9d2be75370d098bf",
  "bytecode": "0x608060405234801561001057600080fd5b50610019610026565b610021610026565b6100e6565b600054610100900460ff16156100925760405162461bcd60e51b815260206004820152602760248201527f496e697469616c697a61626c653a20636f6e747261637420697320696e697469604482015266616c697a696e6760c81b606482015260840160405180910390fd5b60005460ff90811610156100e4576000805460ff191660ff9081179091556040519081527f7f26b83ff96e1f2b6a682f133852f6798a09c465da95921460cefb38474024989060200160405180910390a15b565b611a8a80620000f66000396000f3fe608060405234801561001057600080fd5b50600436106101165760003560e01c806370a08231116100a2578063a457c2d711610071578063a457c2d714610219578063a9059cbb1461022c578063d505accf1461023f578063dd62ed3e14610254578063e209b6461461026757600080fd5b806370a08231146101e35780637ecebe00146101f657806395d89b411461020957806399530b061461021157600080fd5b80632d255471116100e95780632d25547114610185578063313ce567146101b05780633644e515146101bf57806339509351146101c75780635c2f8aa0146101da57600080fd5b806306fdde031461011b578063095ea7b31461013957806318160ddd1461015c57806323b872dd14610172575b600080fd5b61012361027a565b60405161013091906118bf565b60405180910390f35b61014c6101473660046117f5565b61030c565b6040519015158152602001610130565b610164610324565b604051908152602001610130565b61014c610180366004611746565b6104c4565b603654610198906001600160a01b031681565b6040516001600160a01b039091168152602001610130565b60405160128152602001610130565b6101646104e8565b61014c6101d53660046117f5565b6104f2565b61016460375481565b6101646101f13660046116f1565b610514565b6101646102043660046116f1565b6106b5565b6101236106d3565b6101646106e2565b61014c6102273660046117f5565b610763565b61014c61023a3660046117f5565b6107e4565b61025261024d366004611782565b6107f2565b005b610164610262366004611713565b610956565b610252610275366004611838565b610981565b606060348054610289906119f3565b80601f01602080910402602001604051908101604052809291908181526020018280546102b5906119f3565b80156103025780601f106102d757610100808354040283529160200191610302565b820191906000526020600020905b8154815290600101906020018083116102e557829003601f168201915b5050505050905090565b60003361031a818585610b90565b5060019392505050565b603654604080516396ce079560e01b815290516000926001600160a01b0316916396ce0795916004808301926020929190829003018186803b15801561036957600080fd5b505afa15801561037d573d6000803e3d6000fd5b505050506040513d601f19601f820116820180604052508101906103a1919061181f565b60365460375460405163f759cc3b60e01b81526001600160a01b039092169163f759cc3b916103d69160040190815260200190565b60206040518083038186803b1580156103ee57600080fd5b505afa158015610402573d6000803e3d6000fd5b505050506040513d601f19601f82011682018060405250810190610426919061181f565b60365460375460405163bd85b03960e01b81526001600160a01b039092169163bd85b0399161045b9160040190815260200190565b60206040518083038186803b15801561047357600080fd5b505afa158015610487573d6000803e3d6000fd5b505050506040513d601f19601f820116820180604052508101906104ab919061181f565b6104b59190611999565b6104bf9190611977565b905090565b6000336104d2858285610cb7565b6104dd858585610d31565b506001949350505050565b60006104bf61105a565b60003361031a8185856105058383610956565b61050f919061195f565b610b90565b603654604080516396ce079560e01b815290516000926001600160a01b0316916396ce0795916004808301926020929190829003018186803b15801561055957600080fd5b505afa15801561056d573d6000803e3d6000fd5b505050506040513d601f19601f82011682018060405250810190610591919061181f565b60365460375460405163f759cc3b60e01b81526001600160a01b039092169163f759cc3b916105c69160040190815260200190565b60206040518083038186803b1580156105de57600080fd5b505afa1580156105f2573d6000803e3d6000fd5b505050506040513d601f19601f82011682018060405250810190610616919061181f565b603654603754604051627eeac760e11b81526001600160a01b038781166004830152602482019290925291169062fdd58e9060440160206040518083038186803b15801561066357600080fd5b505afa158015610677573d6000803e3d6000fd5b505050506040513d601f19601f8201168201806040525081019061069b919061181f565b6106a59190611999565b6106af9190611977565b92915050565b6001600160a01b0381166000908152606c60205260408120546106af565b606060358054610289906119f3565b60365460375460405163f759cc3b60e01b815260048101919091526000916001600160a01b03169063f759cc3b9060240160206040518083038186803b15801561072b57600080fd5b505afa15801561073f573d6000803e3d6000fd5b505050506040513d601f19601f820116820180604052508101906104bf919061181f565b600033816107718286610956565b9050838110156107d75760405162461bcd60e51b815260206004820152602660248201527f4552433230523a2064656372656173656420616c6c6f77616e63652062656c6f60448201526577207a65726f60d01b60648201526084015b60405180910390fd5b6104dd8286868403610b90565b60003361031a818585610d31565b834211156108425760405162461bcd60e51b815260206004820152601e60248201527f4552433230525065726d69743a206578706972656420646561646c696e65000060448201526064016107ce565b60007f6e71edae12b1b97f4d1f60370fef10105fa2faae0126114a169c64845d6126c98888886108718c6110d5565b6040805160208101969096526001600160a01b0394851690860152929091166060840152608083015260a082015260c0810186905260e00160405160208183030381529060405280519060200120905060006108cc826110fd565b905060006108dc8287878761114b565b9050896001600160a01b0316816001600160a01b03161461093f5760405162461bcd60e51b815260206004820152601f60248201527f4552433230525065726d69743a20696e76616c6964207369676e61747572650060448201526064016107ce565b61094a8a8a8a610b90565b50505050505050505050565b6001600160a01b03918216600090815260336020908152604080832093909416825291909152205490565b600054610100900460ff16158080156109a15750600054600160ff909116105b806109bb5750303b1580156109bb575060005460ff166001145b610a1e5760405162461bcd60e51b815260206004820152602e60248201527f496e697469616c697a61626c653a20636f6e747261637420697320616c72656160448201526d191e481a5b9a5d1a585b1a5e995960921b60648201526084016107ce565b6000805460ff191660011790558015610a41576000805461ff0019166101001790555b6000610a8584848080601f01602080910402602001604051908101604052809392919081815260200183838082843760009201829052509250602091506111739050565b610a8e906119cf565b60001c9050610b428686610adc87878080601f016020809104026020016040519081016040528093929190818152602001838380828437600092019190915250602092508891506111739050565b610b3d88888080601f016020809104026020016040519081016040528093929190818152602001838380828437600092019190915250610b2392508991506020905061195f565b610b2e88602061195f565b610b38908b6119b8565b611173565b611280565b508015610b89576000805461ff0019169055604051600181527f7f26b83ff96e1f2b6a682f133852f6798a09c465da95921460cefb38474024989060200160405180910390a15b5050505050565b6001600160a01b038316610bf45760405162461bcd60e51b815260206004820152602560248201527f4552433230523a20617070726f76652066726f6d20746865207a65726f206164604482015264647265737360d81b60648201526084016107ce565b6001600160a01b038216610c565760405162461bcd60e51b815260206004820152602360248201527f4552433230523a20617070726f766520746f20746865207a65726f206164647260448201526265737360e81b60648201526084016107ce565b6001600160a01b0383811660008181526033602090815260408083209487168084529482529182902085905590518481527f8c5be1e5ebec7d5bd14f71427d1e84f3dd0314c0f7b2291e5b200ac8c7c3b925910160405180910390a3505050565b6000610cc38484610956565b90506000198114610d2b5781811015610d1e5760405162461bcd60e51b815260206004820152601e60248201527f4552433230523a20696e73756666696369656e7420616c6c6f77616e6365000060448201526064016107ce565b610d2b8484848403610b90565b50505050565b6001600160a01b038316610d965760405162461bcd60e51b815260206004820152602660248201527f4552433230523a207472616e736665722066726f6d20746865207a65726f206160448201526564647265737360d01b60648201526084016107ce565b6001600160a01b038216610df85760405162461bcd60e51b8152602060048201526024808201527f4552433230523a207472616e7366657220746f20746865207a65726f206164646044820152637265737360e01b60648201526084016107ce565b6000610e0384610514565b905081811015610e655760405162461bcd60e51b815260206004820152602760248201527f4552433230523a207472616e7366657220616d6f756e7420657863656564732060448201526662616c616e636560c81b60648201526084016107ce565b60365460375460405163f759cc3b60e01b815260048101919091526000916001600160a01b03169063f759cc3b9060240160206040518083038186803b158015610eae57600080fd5b505afa158015610ec2573d6000803e3d6000fd5b505050506040513d601f19601f82011682018060405250810190610ee6919061181f565b603660009054906101000a90046001600160a01b03166001600160a01b03166396ce07956040518163ffffffff1660e01b815260040160206040518083038186803b158015610f3457600080fd5b505afa158015610f48573d6000803e3d6000fd5b505050506040513d601f19601f82011682018060405250810190610f6c919061181f565b610f769085611999565b610f809190611977565b603654603754604051637921219560e11b81526001600160a01b038981166004830152888116602483015260448201929092526064810184905260a06084820152600060a4820152929350169063f242432a9060c401600060405180830381600087803b158015610ff057600080fd5b505af1158015611004573d6000803e3d6000fd5b50505050836001600160a01b0316856001600160a01b03167fddf252ad1be2c89b69c2b068fc378daa952ba7f163c4a11628f55a4df523b3ef8560405161104d91815260200190565b60405180910390a3610b89565b60006104bf7f8b73c3c69bb8fe3d512ecc4cf759cc79239f7b179b0ffacaa9a75d522b39400f61108960385490565b6039546040805160208101859052908101839052606081018290524660808201523060a082015260009060c0016040516020818303038152906040528051906020012090509392505050565b6001600160a01b0381166000908152606c602052604090208054600181018255905b50919050565b60006106af61110a61105a565b8360405161190160f01b6020820152602281018390526042810182905260009060620160405160208183030381529060405280519060200120905092915050565b600080600061115c878787876112de565b91509150611169816113a2565b5095945050505050565b60608161118181601f61195f565b10156111c05760405162461bcd60e51b815260206004820152600e60248201526d736c6963655f6f766572666c6f7760901b60448201526064016107ce565b6111ca828461195f565b8451101561120e5760405162461bcd60e51b8152602060048201526011602482015270736c6963655f6f75744f66426f756e647360781b60448201526064016107ce565b60608215801561122d5760405191506000825260208201604052611277565b6040519150601f8416801560200281840101858101878315602002848b0101015b8183101561126657805183526020928301920161124e565b5050858452601f01601f1916604052505b50949350505050565b600054610100900460ff166112a75760405162461bcd60e51b81526004016107ce90611914565b6112ca82604051806040016040528060018152602001603160f81b8152506114f3565b6112d684848484611528565b610d2b61155b565b6000807f7fffffffffffffffffffffffffffffff5d576e7357a4501ddfe92f46681b20a08311156113155750600090506003611399565b6040805160008082526020820180845289905260ff881692820192909252606081018690526080810185905260019060a0016020604051602081039080840390855afa158015611369573d6000803e3d6000fd5b5050604051601f1901519150506001600160a01b03811661139257600060019250925050611399565b9150600090505b94509492505050565b60008160048111156113b6576113b6611a3e565b14156113bf5750565b60018160048111156113d3576113d3611a3e565b14156114215760405162461bcd60e51b815260206004820152601860248201527f45434453413a20696e76616c6964207369676e6174757265000000000000000060448201526064016107ce565b600281600481111561143557611435611a3e565b14156114835760405162461bcd60e51b815260206004820152601f60248201527f45434453413a20696e76616c6964207369676e6174757265206c656e6774680060448201526064016107ce565b600381600481111561149757611497611a3e565b14156114f05760405162461bcd60e51b815260206004820152602260248201527f45434453413a20696e76616c6964207369676e6174757265202773272076616c604482015261756560f01b60648201526084016107ce565b50565b600054610100900460ff1661151a5760405162461bcd60e51b81526004016107ce90611914565b6115248282611584565b5050565b600054610100900460ff1661154f5760405162461bcd60e51b81526004016107ce90611914565b610d2b848484846115c5565b600054610100900460ff166115825760405162461bcd60e51b81526004016107ce90611914565b565b600054610100900460ff166115ab5760405162461bcd60e51b81526004016107ce90611914565b815160209283012081519190920120603891909155603955565b600054610100900460ff166115ec5760405162461bcd60e51b81526004016107ce90611914565b81516115ff90603490602085019061163c565b50805161161390603590602084019061163c565b5050603680546001600160a01b0319166001600160a01b03939093169290921790915550603755565b828054611648906119f3565b90600052602060002090601f01602090048101928261166a57600085556116b0565b82601f1061168357805160ff19168380011785556116b0565b828001600101855582156116b0579182015b828111156116b0578251825591602001919060010190611695565b506116bc9291506116c0565b5090565b5b808211156116bc57600081556001016116c1565b80356001600160a01b03811681146116ec57600080fd5b919050565b60006020828403121561170357600080fd5b61170c826116d5565b9392505050565b6000806040838503121561172657600080fd5b61172f836116d5565b915061173d602084016116d5565b90509250929050565b60008060006060848603121561175b57600080fd5b611764846116d5565b9250611772602085016116d5565b9150604084013590509250925092565b600080600080600080600060e0888a03121561179d57600080fd5b6117a6886116d5565b96506117b4602089016116d5565b95506040880135945060608801359350608088013560ff811681146117d857600080fd5b9699959850939692959460a0840135945060c09093013592915050565b6000806040838503121561180857600080fd5b611811836116d5565b946020939093013593505050565b60006020828403121561183157600080fd5b5051919050565b6000806000806060858703121561184e57600080fd5b8435935061185e602086016116d5565b9250604085013567ffffffffffffffff8082111561187b57600080fd5b818701915087601f83011261188f57600080fd5b81358181111561189e57600080fd5b8860208285010111156118b057600080fd5b95989497505060200194505050565b600060208083528351808285015260005b818110156118ec578581018301518582016040015282016118d0565b818111156118fe576000604083870101525b50601f01601f1916929092016040019392505050565b6020808252602b908201527f496e697469616c697a61626c653a20636f6e7472616374206973206e6f74206960408201526a6e697469616c697a696e6760a81b606082015260800190565b6000821982111561197257611972611a28565b500190565b60008261199457634e487b7160e01b600052601260045260246000fd5b500490565b60008160001904831182151516156119b3576119b3611a28565b500290565b6000828210156119ca576119ca611a28565b500390565b805160208083015191908110156110f75760001960209190910360031b1b16919050565b600181811c90821680611a0757607f821691505b602082108114156110f757634e487b7160e01b600052602260045260246000fd5b634e487b7160e01b600052601160045260246000fd5b634e487b7160e01b600052602160045260246000fdfea264697066735822122064c96102446b9eaf5fba4c11202c1a041e76ec3a37d151d6f435487136d2fc9564736f6c63430008070033",
  "devdoc": {
    "custom:storage-size": "51",
    "details": "Implementation of the ERC20 Permit extension allowing approvals to be made via signatures, as defined in https://eips.ethereum.org/EIPS/eip-2612[EIP-2612]. Adds the {permit} method, which can be used to change an account's ERC20 allowance (see {IERC20-allowance}) by presenting a message signed by the account. By not relying on `{IERC20-approve}`, the token holder account doesn't need to send a transaction, and thus is not required to hold Ether at all. _Available since v3.4._",
    "kind": "dev",
    "methods": {
      "DOMAIN_SEPARATOR()": {
        "details": "See {IERC20Permit-DOMAIN_SEPARATOR}."
      },
      "allowance(address,address)": {
        "details": "See {IERC20-allowance}."
      },
      "approve(address,uint256)": {
        "details": "See {IERC20-approve}. NOTE: If `amount` is the maximum `uint256`, the allowance is not updated on `transferFrom`. This is semantically equivalent to an infinite approval. Requirements: - `spender` cannot be the zero address."
      },
      "balanceOf(address)": {
        "details": "See {IERC20-balanceOf}.CHANGED for gETH.See {gETH-balanceOf}."
      },
      "constructor": {
        "custom:oz-upgrades-unsafe-allow": "constructor"
      },
      "decimals()": {
        "details": "Returns the number of decimals used to get its user representation. For example, if `decimals` equals `2`, a balance of `505` tokens should be displayed to a user as `5.05` (`505 / 10 ** 2`). Tokens usually opt for a value of 18, imitating the relationship between Ether and Wei. This is the value {ERC20} uses, unless this function is overridden; NOTE: This information is only used for _display_ purposes: it in no way affects any of the arithmetic of the contract, including {IERC20-balanceOf} and {IERC20-transfer}."
      },
      "decreaseAllowance(address,uint256)": {
        "details": "Atomically decreases the allowance granted to `spender` by the caller. This is an alternative to {approve} that can be used as a mitigation for problems described in {IERC20-approve}. Emits an {Approval} event indicating the updated allowance. Requirements: - `spender` cannot be the zero address. - `spender` must have allowance for the caller of at least `subtractedValue`."
      },
      "increaseAllowance(address,uint256)": {
        "details": "Atomically increases the allowance granted to `spender` by the caller. This is an alternative to {approve} that can be used as a mitigation for problems described in {IERC20-approve}. Emits an {Approval} event indicating the updated allowance. Requirements: - `spender` cannot be the zero address."
      },
      "initialize(uint256,address,bytes)": {
        "details": "Sets the values for {name} and {symbol}. The default value of {decimals} is 18. To select a different value for {decimals} you should overload it."
      },
      "name()": {
        "details": "Returns the name of the token."
      },
      "nonces(address)": {
        "details": "See {IERC20Permit-nonces}."
      },
      "permit(address,address,uint256,uint256,uint8,bytes32,bytes32)": {
        "details": "See {IERC20Permit-permit}."
      },
      "pricePerShare()": {
        "details": "shows the underlying ETH for 1 staked ether for a given idCHANGED for gETH.See {gETH-pricePerShare}."
      },
      "symbol()": {
        "details": "Returns the symbol of the token, usually a shorter version of the name."
      },
      "totalSupply()": {
        "details": "See {IERC20-totalSupply}.CHANGED for gETH.See {gETH-totalSupply}."
      },
      "transfer(address,uint256)": {
        "details": "See {IERC20-transfer}. Requirements: - `to` cannot be the zero address. - the caller must have a balance of at least `amount`."
      },
      "transferFrom(address,address,uint256)": {
        "details": "See {IERC20-transferFrom}. Emits an {Approval} event indicating the updated allowance. This is not required by the EIP. See the note at the beginning of {ERC20}. NOTE: Does not update the allowance if the current allowance is the maximum `uint256`. Requirements: - `from` and `to` cannot be the zero address. - `from` must have a balance of at least `amount`. - the caller must have allowance for ``from``'s tokens of at least `amount`."
      }
    },
    "version": 1
  },
  "userdoc": {
    "kind": "user",
    "methods": {
      "totalSupply()": {
        "notice": "totalSupply represents underlying staked Ether amount, instead of the TotalSupply of the gETH ID like ERC20Middleware does."
      }
    },
    "version": 1
  },
  "storageLayout": {
    "storage": [
      {
        "astId": 395,
        "contract": "contracts/Portal/middlewares/ERC20RebasePermitMiddleware.sol:ERC20RebasePermitMiddleware",
        "label": "_initialized",
        "offset": 0,
        "slot": "0",
        "type": "t_uint8"
      },
      {
        "astId": 398,
        "contract": "contracts/Portal/middlewares/ERC20RebasePermitMiddleware.sol:ERC20RebasePermitMiddleware",
        "label": "_initializing",
        "offset": 1,
        "slot": "0",
        "type": "t_bool"
      },
      {
        "astId": 1523,
        "contract": "contracts/Portal/middlewares/ERC20RebasePermitMiddleware.sol:ERC20RebasePermitMiddleware",
        "label": "__gap",
        "offset": 0,
        "slot": "1",
        "type": "t_array(t_uint256)50_storage"
      },
      {
        "astId": 25063,
        "contract": "contracts/Portal/middlewares/ERC20RebasePermitMiddleware.sol:ERC20RebasePermitMiddleware",
        "label": "_allowances",
        "offset": 0,
        "slot": "51",
        "type": "t_mapping(t_address,t_mapping(t_address,t_uint256))"
      },
      {
        "astId": 25066,
        "contract": "contracts/Portal/middlewares/ERC20RebasePermitMiddleware.sol:ERC20RebasePermitMiddleware",
        "label": "_name",
        "offset": 0,
        "slot": "52",
        "type": "t_string_storage"
      },
      {
        "astId": 25068,
        "contract": "contracts/Portal/middlewares/ERC20RebasePermitMiddleware.sol:ERC20RebasePermitMiddleware",
        "label": "_symbol",
        "offset": 0,
        "slot": "53",
        "type": "t_string_storage"
      },
      {
        "astId": 25071,
        "contract": "contracts/Portal/middlewares/ERC20RebasePermitMiddleware.sol:ERC20RebasePermitMiddleware",
        "label": "ERC1155",
        "offset": 0,
        "slot": "54",
        "type": "t_contract(IgETH)23135"
      },
      {
        "astId": 25073,
        "contract": "contracts/Portal/middlewares/ERC20RebasePermitMiddleware.sol:ERC20RebasePermitMiddleware",
        "label": "ERC1155_ID",
        "offset": 0,
        "slot": "55",
        "type": "t_uint256"
      },
      {
        "astId": 2203,
        "contract": "contracts/Portal/middlewares/ERC20RebasePermitMiddleware.sol:ERC20RebasePermitMiddleware",
        "label": "_HASHED_NAME",
        "offset": 0,
        "slot": "56",
        "type": "t_bytes32"
      },
      {
        "astId": 2205,
        "contract": "contracts/Portal/middlewares/ERC20RebasePermitMiddleware.sol:ERC20RebasePermitMiddleware",
        "label": "_HASHED_VERSION",
        "offset": 0,
        "slot": "57",
        "type": "t_bytes32"
      },
      {
        "astId": 2343,
        "contract": "contracts/Portal/middlewares/ERC20RebasePermitMiddleware.sol:ERC20RebasePermitMiddleware",
        "label": "__gap",
        "offset": 0,
        "slot": "58",
        "type": "t_array(t_uint256)50_storage"
      },
      {
        "astId": 25684,
        "contract": "contracts/Portal/middlewares/ERC20RebasePermitMiddleware.sol:ERC20RebasePermitMiddleware",
        "label": "_nonces",
        "offset": 0,
        "slot": "108",
        "type": "t_mapping(t_address,t_struct(Counter)1530_storage)"
      }
    ],
    "types": {
      "t_address": {
        "encoding": "inplace",
        "label": "address",
        "numberOfBytes": "20"
      },
      "t_array(t_uint256)50_storage": {
        "base": "t_uint256",
        "encoding": "inplace",
        "label": "uint256[50]",
        "numberOfBytes": "1600"
      },
      "t_bool": {
        "encoding": "inplace",
        "label": "bool",
        "numberOfBytes": "1"
      },
      "t_bytes32": {
        "encoding": "inplace",
        "label": "bytes32",
        "numberOfBytes": "32"
      },
      "t_contract(IgETH)23135": {
        "encoding": "inplace",
        "label": "contract IgETH",
        "numberOfBytes": "20"
      },
      "t_mapping(t_address,t_mapping(t_address,t_uint256))": {
        "encoding": "mapping",
        "key": "t_address",
        "label": "mapping(address => mapping(address => uint256))",
        "numberOfBytes": "32",
        "value": "t_mapping(t_address,t_uint256)"
      },
      "t_mapping(t_address,t_struct(Counter)1530_storage)": {
        "encoding": "mapping",
        "key": "t_address",
        "label": "mapping(address => struct CountersUpgradeable.Counter)",
        "numberOfBytes": "32",
        "value": "t_struct(Counter)1530_storage"
      },
      "t_mapping(t_address,t_uint256)": {
        "encoding": "mapping",
        "key": "t_address",
        "label": "mapping(address => uint256)",
        "numberOfBytes": "32",
        "value": "t_uint256"
      },
      "t_string_storage": {
        "encoding": "bytes",
        "label": "string",
        "numberOfBytes": "32"
      },
      "t_struct(Counter)1530_storage": {
        "encoding": "inplace",
        "label": "struct CountersUpgradeable.Counter",
        "members": [
          {
            "astId": 1529,
            "contract": "contracts/Portal/middlewares/ERC20RebasePermitMiddleware.sol:ERC20RebasePermitMiddleware",
            "label": "_value",
            "offset": 0,
            "slot": "0",
            "type": "t_uint256"
          }
        ],
        "numberOfBytes": "32"
      },
      "t_uint256": {
        "encoding": "inplace",
        "label": "uint256",
        "numberOfBytes": "32"
      },
      "t_uint8": {
        "encoding": "inplace",
        "label": "uint8",
        "numberOfBytes": "1"
      }
    }
  }
}