{
  "address": "0x3CAC9bD5cC7eFC33e581311876b1823b2bF9fDfd",
  "abi": [
    {
      "inputs": [],
      "stateMutability": "nonpayable",
      "type": "constructor"
    },
    {
      "anonymous": false,
      "inputs": [
        {
          "indexed": true,
          "internalType": "address",
          "name": "owner",
          "type": "address"
        },
        {
          "indexed": true,
          "internalType": "address",
          "name": "spender",
          "type": "address"
        },
        {
          "indexed": false,
          "internalType": "uint256",
          "name": "value",
          "type": "uint256"
        }
      ],
      "name": "Approval",
      "type": "event"
    },
    {
      "anonymous": false,
      "inputs": [
        {
          "indexed": false,
          "internalType": "uint8",
          "name": "version",
          "type": "uint8"
        }
      ],
      "name": "Initialized",
      "type": "event"
    },
    {
      "anonymous": false,
      "inputs": [
        {
          "indexed": true,
          "internalType": "address",
          "name": "from",
          "type": "address"
        },
        {
          "indexed": true,
          "internalType": "address",
          "name": "to",
          "type": "address"
        },
        {
          "indexed": false,
          "internalType": "uint256",
          "name": "value",
          "type": "uint256"
        }
      ],
      "name": "Transfer",
      "type": "event"
    },
    {
      "inputs": [],
      "name": "DOMAIN_SEPARATOR",
      "outputs": [
        {
          "internalType": "bytes32",
          "name": "",
          "type": "bytes32"
        }
      ],
      "stateMutability": "view",
      "type": "function"
    },
    {
      "inputs": [],
      "name": "ERC1155",
      "outputs": [
        {
          "internalType": "contract IgETH",
          "name": "",
          "type": "address"
        }
      ],
      "stateMutability": "view",
      "type": "function"
    },
    {
      "inputs": [],
      "name": "ERC1155_ID",
      "outputs": [
        {
          "internalType": "uint256",
          "name": "",
          "type": "uint256"
        }
      ],
      "stateMutability": "view",
      "type": "function"
    },
    {
      "inputs": [
        {
          "internalType": "address",
          "name": "owner",
          "type": "address"
        },
        {
          "internalType": "address",
          "name": "spender",
          "type": "address"
        }
      ],
      "name": "allowance",
      "outputs": [
        {
          "internalType": "uint256",
          "name": "",
          "type": "uint256"
        }
      ],
      "stateMutability": "view",
      "type": "function"
    },
    {
      "inputs": [
        {
          "internalType": "address",
          "name": "spender",
          "type": "address"
        },
        {
          "internalType": "uint256",
          "name": "amount",
          "type": "uint256"
        }
      ],
      "name": "approve",
      "outputs": [
        {
          "internalType": "bool",
          "name": "",
          "type": "bool"
        }
      ],
      "stateMutability": "nonpayable",
      "type": "function"
    },
    {
      "inputs": [
        {
          "internalType": "address",
          "name": "account",
          "type": "address"
        }
      ],
      "name": "balanceOf",
      "outputs": [
        {
          "internalType": "uint256",
          "name": "",
          "type": "uint256"
        }
      ],
      "stateMutability": "view",
      "type": "function"
    },
    {
      "inputs": [],
      "name": "decimals",
      "outputs": [
        {
          "internalType": "uint8",
          "name": "",
          "type": "uint8"
        }
      ],
      "stateMutability": "view",
      "type": "function"
    },
    {
      "inputs": [
        {
          "internalType": "address",
          "name": "spender",
          "type": "address"
        },
        {
          "internalType": "uint256",
          "name": "subtractedValue",
          "type": "uint256"
        }
      ],
      "name": "decreaseAllowance",
      "outputs": [
        {
          "internalType": "bool",
          "name": "",
          "type": "bool"
        }
      ],
      "stateMutability": "nonpayable",
      "type": "function"
    },
    {
      "inputs": [
        {
          "internalType": "address",
          "name": "spender",
          "type": "address"
        },
        {
          "internalType": "uint256",
          "name": "addedValue",
          "type": "uint256"
        }
      ],
      "name": "increaseAllowance",
      "outputs": [
        {
          "internalType": "bool",
          "name": "",
          "type": "bool"
        }
      ],
      "stateMutability": "nonpayable",
      "type": "function"
    },
    {
      "inputs": [
        {
          "internalType": "uint256",
          "name": "id_",
          "type": "uint256"
        },
        {
          "internalType": "address",
          "name": "gETH_",
          "type": "address"
        },
        {
          "internalType": "bytes",
          "name": "data",
          "type": "bytes"
        }
      ],
      "name": "initialize",
      "outputs": [],
      "stateMutability": "nonpayable",
      "type": "function"
    },
    {
      "inputs": [],
      "name": "name",
      "outputs": [
        {
          "internalType": "string",
          "name": "",
          "type": "string"
        }
      ],
      "stateMutability": "view",
      "type": "function"
    },
    {
      "inputs": [
        {
          "internalType": "address",
          "name": "owner",
          "type": "address"
        }
      ],
      "name": "nonces",
      "outputs": [
        {
          "internalType": "uint256",
          "name": "",
          "type": "uint256"
        }
      ],
      "stateMutability": "view",
      "type": "function"
    },
    {
      "inputs": [
        {
          "internalType": "address",
          "name": "owner",
          "type": "address"
        },
        {
          "internalType": "address",
          "name": "spender",
          "type": "address"
        },
        {
          "internalType": "uint256",
          "name": "value",
          "type": "uint256"
        },
        {
          "internalType": "uint256",
          "name": "deadline",
          "type": "uint256"
        },
        {
          "internalType": "uint8",
          "name": "v",
          "type": "uint8"
        },
        {
          "internalType": "bytes32",
          "name": "r",
          "type": "bytes32"
        },
        {
          "internalType": "bytes32",
          "name": "s",
          "type": "bytes32"
        }
      ],
      "name": "permit",
      "outputs": [],
      "stateMutability": "nonpayable",
      "type": "function"
    },
    {
      "inputs": [],
      "name": "pricePerShare",
      "outputs": [
        {
          "internalType": "uint256",
          "name": "",
          "type": "uint256"
        }
      ],
      "stateMutability": "view",
      "type": "function"
    },
    {
      "inputs": [],
      "name": "symbol",
      "outputs": [
        {
          "internalType": "string",
          "name": "",
          "type": "string"
        }
      ],
      "stateMutability": "view",
      "type": "function"
    },
    {
      "inputs": [],
      "name": "totalSupply",
      "outputs": [
        {
          "internalType": "uint256",
          "name": "",
          "type": "uint256"
        }
      ],
      "stateMutability": "view",
      "type": "function"
    },
    {
      "inputs": [
        {
          "internalType": "address",
          "name": "to",
          "type": "address"
        },
        {
          "internalType": "uint256",
          "name": "amount",
          "type": "uint256"
        }
      ],
      "name": "transfer",
      "outputs": [
        {
          "internalType": "bool",
          "name": "",
          "type": "bool"
        }
      ],
      "stateMutability": "nonpayable",
      "type": "function"
    },
    {
      "inputs": [
        {
          "internalType": "address",
          "name": "from",
          "type": "address"
        },
        {
          "internalType": "address",
          "name": "to",
          "type": "address"
        },
        {
          "internalType": "uint256",
          "name": "amount",
          "type": "uint256"
        }
      ],
      "name": "transferFrom",
      "outputs": [
        {
          "internalType": "bool",
          "name": "",
          "type": "bool"
        }
      ],
      "stateMutability": "nonpayable",
      "type": "function"
    }
  ],
  "transactionHash": "0xea6674b88670ca69141b9de656ae04fd20ecc66dec20ed551b1e1a9f0701c903",
  "args": [],
  "numDeployments": 1,
  "solcInputHash": "86d7817b142b36f089c0f393516f23fa",
  "bytecode": "0x608060405234801561001057600080fd5b50610019610026565b610021610026565b6100e6565b600054610100900460ff16156100925760405162461bcd60e51b815260206004820152602760248201527f496e697469616c697a61626c653a20636f6e747261637420697320696e697469604482015266616c697a696e6760c81b606482015260840160405180910390fd5b60005460ff90811610156100e4576000805460ff191660ff9081179091556040519081527f7f26b83ff96e1f2b6a682f133852f6798a09c465da95921460cefb38474024989060200160405180910390a15b565b6116bd806100f56000396000f3fe608060405234801561001057600080fd5b50600436106101165760003560e01c806370a08231116100a2578063a457c2d711610071578063a457c2d714610219578063a9059cbb1461022c578063d505accf1461023f578063dd62ed3e14610254578063e209b6461461026757600080fd5b806370a08231146101e35780637ecebe00146101f657806395d89b411461020957806399530b061461021157600080fd5b80632d255471116100e95780632d25547114610185578063313ce567146101b05780633644e515146101bf57806339509351146101c75780635c2f8aa0146101da57600080fd5b806306fdde031461011b578063095ea7b31461013957806318160ddd1461015c57806323b872dd14610172575b600080fd5b61012361027a565b6040516101309190611533565b60405180910390f35b61014c610147366004611469565b61030c565b6040519015158152602001610130565b610164610324565b604051908152602001610130565b61014c6101803660046113ba565b6103ab565b603654610198906001600160a01b031681565b6040516001600160a01b039091168152602001610130565b60405160128152602001610130565b6101646103cf565b61014c6101d5366004611469565b6103d9565b61016460375481565b6101646101f1366004611365565b6103fb565b610164610204366004611365565b610497565b6101236104b5565b6101646104c4565b61014c610227366004611469565b6104fa565b61014c61023a366004611469565b61057a565b61025261024d3660046113f6565b610588565b005b610164610262366004611387565b6106ec565b6102526102753660046114ac565b610717565b60606034805461028990611626565b80601f01602080910402602001604051908101604052809291908181526020018280546102b590611626565b80156103025780601f106102d757610100808354040283529160200191610302565b820191906000526020600020905b8154815290600101906020018083116102e557829003601f168201915b5050505050905090565b60003361031a818585610926565b5060019392505050565b60365460375460405163bd85b03960e01b815260048101919091526000916001600160a01b03169063bd85b039906024015b60206040518083038186803b15801561036e57600080fd5b505afa158015610382573d6000803e3d6000fd5b505050506040513d601f19601f820116820180604052508101906103a69190611493565b905090565b6000336103b9858285610a4a565b6103c4858585610ac4565b506001949350505050565b60006103a6610cce565b60003361031a8185856103ec83836106ec565b6103f691906115d3565b610926565b603654603754604051627eeac760e11b81526000926001600160a01b03169162fdd58e916104419186916004016001600160a01b03929092168252602082015260400190565b60206040518083038186803b15801561045957600080fd5b505afa15801561046d573d6000803e3d6000fd5b505050506040513d601f19601f820116820180604052508101906104919190611493565b92915050565b6001600160a01b0381166000908152606c6020526040812054610491565b60606035805461028990611626565b60365460375460405163f759cc3b60e01b815260048101919091526000916001600160a01b03169063f759cc3b90602401610356565b6000338161050882866106ec565b90508381101561056d5760405162461bcd60e51b815260206004820152602560248201527f45524332303a2064656372656173656420616c6c6f77616e63652062656c6f77604482015264207a65726f60d81b60648201526084015b60405180910390fd5b6103c48286868403610926565b60003361031a818585610ac4565b834211156105d85760405162461bcd60e51b815260206004820152601d60248201527f45524332305065726d69743a206578706972656420646561646c696e650000006044820152606401610564565b60007f6e71edae12b1b97f4d1f60370fef10105fa2faae0126114a169c64845d6126c98888886106078c610d49565b6040805160208101969096526001600160a01b0394851690860152929091166060840152608083015260a082015260c0810186905260e001604051602081830303815290604052805190602001209050600061066282610d71565b9050600061067282878787610dbf565b9050896001600160a01b0316816001600160a01b0316146106d55760405162461bcd60e51b815260206004820152601e60248201527f45524332305065726d69743a20696e76616c6964207369676e617475726500006044820152606401610564565b6106e08a8a8a610926565b50505050505050505050565b6001600160a01b03918216600090815260336020908152604080832093909416825291909152205490565b600054610100900460ff16158080156107375750600054600160ff909116105b806107515750303b158015610751575060005460ff166001145b6107b45760405162461bcd60e51b815260206004820152602e60248201527f496e697469616c697a61626c653a20636f6e747261637420697320616c72656160448201526d191e481a5b9a5d1a585b1a5e995960921b6064820152608401610564565b6000805460ff1916600117905580156107d7576000805461ff0019166101001790555b600061081b84848080601f0160208091040260200160405190810160405280939291908181526020018383808284376000920182905250925060209150610de79050565b61082490611602565b60001c90506108d8868661087287878080601f01602080910402602001604051908101604052809392919081815260200183838082843760009201919091525060209250889150610de79050565b6108d388888080601f0160208091040260200160405190810160405280939291908181526020018383808284376000920191909152506108b99250899150602090506115d3565b6108c48860206115d3565b6108ce908b6115eb565b610de7565b610ef4565b50801561091f576000805461ff0019169055604051600181527f7f26b83ff96e1f2b6a682f133852f6798a09c465da95921460cefb38474024989060200160405180910390a15b5050505050565b6001600160a01b0383166109885760405162461bcd60e51b8152602060048201526024808201527f45524332303a20617070726f76652066726f6d20746865207a65726f206164646044820152637265737360e01b6064820152608401610564565b6001600160a01b0382166109e95760405162461bcd60e51b815260206004820152602260248201527f45524332303a20617070726f766520746f20746865207a65726f206164647265604482015261737360f01b6064820152608401610564565b6001600160a01b0383811660008181526033602090815260408083209487168084529482529182902085905590518481527f8c5be1e5ebec7d5bd14f71427d1e84f3dd0314c0f7b2291e5b200ac8c7c3b925910160405180910390a3505050565b6000610a5684846106ec565b90506000198114610abe5781811015610ab15760405162461bcd60e51b815260206004820152601d60248201527f45524332303a20696e73756666696369656e7420616c6c6f77616e63650000006044820152606401610564565b610abe8484848403610926565b50505050565b6001600160a01b038316610b285760405162461bcd60e51b815260206004820152602560248201527f45524332303a207472616e736665722066726f6d20746865207a65726f206164604482015264647265737360d81b6064820152608401610564565b6001600160a01b038216610b8a5760405162461bcd60e51b815260206004820152602360248201527f45524332303a207472616e7366657220746f20746865207a65726f206164647260448201526265737360e81b6064820152608401610564565b6000610b95846103fb565b905081811015610bf65760405162461bcd60e51b815260206004820152602660248201527f45524332303a207472616e7366657220616d6f756e7420657863656564732062604482015265616c616e636560d01b6064820152608401610564565b603654603754604051637921219560e11b81526001600160a01b038781166004830152868116602483015260448201929092526064810185905260a06084820152600060a482015291169063f242432a9060c401600060405180830381600087803b158015610c6457600080fd5b505af1158015610c78573d6000803e3d6000fd5b50505050826001600160a01b0316846001600160a01b03167fddf252ad1be2c89b69c2b068fc378daa952ba7f163c4a11628f55a4df523b3ef84604051610cc191815260200190565b60405180910390a3610abe565b60006103a67f8b73c3c69bb8fe3d512ecc4cf759cc79239f7b179b0ffacaa9a75d522b39400f610cfd60385490565b6039546040805160208101859052908101839052606081018290524660808201523060a082015260009060c0016040516020818303038152906040528051906020012090509392505050565b6001600160a01b0381166000908152606c602052604090208054600181018255905b50919050565b6000610491610d7e610cce565b8360405161190160f01b6020820152602281018390526042810182905260009060620160405160208183030381529060405280519060200120905092915050565b6000806000610dd087878787610f52565b91509150610ddd81611016565b5095945050505050565b606081610df581601f6115d3565b1015610e345760405162461bcd60e51b815260206004820152600e60248201526d736c6963655f6f766572666c6f7760901b6044820152606401610564565b610e3e82846115d3565b84511015610e825760405162461bcd60e51b8152602060048201526011602482015270736c6963655f6f75744f66426f756e647360781b6044820152606401610564565b606082158015610ea15760405191506000825260208201604052610eeb565b6040519150601f8416801560200281840101858101878315602002848b0101015b81831015610eda578051835260209283019201610ec2565b5050858452601f01601f1916604052505b50949350505050565b600054610100900460ff16610f1b5760405162461bcd60e51b815260040161056490611588565b610f3e82604051806040016040528060018152602001603160f81b815250611167565b610f4a8484848461119c565b610abe6111cf565b6000807f7fffffffffffffffffffffffffffffff5d576e7357a4501ddfe92f46681b20a0831115610f89575060009050600361100d565b6040805160008082526020820180845289905260ff881692820192909252606081018690526080810185905260019060a0016020604051602081039080840390855afa158015610fdd573d6000803e3d6000fd5b5050604051601f1901519150506001600160a01b0381166110065760006001925092505061100d565b9150600090505b94509492505050565b600081600481111561102a5761102a611671565b14156110335750565b600181600481111561104757611047611671565b14156110955760405162461bcd60e51b815260206004820152601860248201527f45434453413a20696e76616c6964207369676e617475726500000000000000006044820152606401610564565b60028160048111156110a9576110a9611671565b14156110f75760405162461bcd60e51b815260206004820152601f60248201527f45434453413a20696e76616c6964207369676e6174757265206c656e677468006044820152606401610564565b600381600481111561110b5761110b611671565b14156111645760405162461bcd60e51b815260206004820152602260248201527f45434453413a20696e76616c6964207369676e6174757265202773272076616c604482015261756560f01b6064820152608401610564565b50565b600054610100900460ff1661118e5760405162461bcd60e51b815260040161056490611588565b61119882826111f8565b5050565b600054610100900460ff166111c35760405162461bcd60e51b815260040161056490611588565b610abe84848484611239565b600054610100900460ff166111f65760405162461bcd60e51b815260040161056490611588565b565b600054610100900460ff1661121f5760405162461bcd60e51b815260040161056490611588565b815160209283012081519190920120603891909155603955565b600054610100900460ff166112605760405162461bcd60e51b815260040161056490611588565b81516112739060349060208501906112b0565b5080516112879060359060208401906112b0565b5050603680546001600160a01b0319166001600160a01b03939093169290921790915550603755565b8280546112bc90611626565b90600052602060002090601f0160209004810192826112de5760008555611324565b82601f106112f757805160ff1916838001178555611324565b82800160010185558215611324579182015b82811115611324578251825591602001919060010190611309565b50611330929150611334565b5090565b5b808211156113305760008155600101611335565b80356001600160a01b038116811461136057600080fd5b919050565b60006020828403121561137757600080fd5b61138082611349565b9392505050565b6000806040838503121561139a57600080fd5b6113a383611349565b91506113b160208401611349565b90509250929050565b6000806000606084860312156113cf57600080fd5b6113d884611349565b92506113e660208501611349565b9150604084013590509250925092565b600080600080600080600060e0888a03121561141157600080fd5b61141a88611349565b965061142860208901611349565b95506040880135945060608801359350608088013560ff8116811461144c57600080fd5b9699959850939692959460a0840135945060c09093013592915050565b6000806040838503121561147c57600080fd5b61148583611349565b946020939093013593505050565b6000602082840312156114a557600080fd5b5051919050565b600080600080606085870312156114c257600080fd5b843593506114d260208601611349565b9250604085013567ffffffffffffffff808211156114ef57600080fd5b818701915087601f83011261150357600080fd5b81358181111561151257600080fd5b88602082850101111561152457600080fd5b95989497505060200194505050565b600060208083528351808285015260005b8181101561156057858101830151858201604001528201611544565b81811115611572576000604083870101525b50601f01601f1916929092016040019392505050565b6020808252602b908201527f496e697469616c697a61626c653a20636f6e7472616374206973206e6f74206960408201526a6e697469616c697a696e6760a81b606082015260800190565b600082198211156115e6576115e661165b565b500190565b6000828210156115fd576115fd61165b565b500390565b80516020808301519190811015610d6b5760001960209190910360031b1b16919050565b600181811c9082168061163a57607f821691505b60208210811415610d6b57634e487b7160e01b600052602260045260246000fd5b634e487b7160e01b600052601160045260246000fd5b634e487b7160e01b600052602160045260246000fdfea2646970667358221220564bcc4a2e4d4c28f674c36cabbe62438b307232a325364d6b37282e93f6415764736f6c63430008070033",
  "devdoc": {
    "custom:storage-size": "51",
    "details": "Implementation of the ERC20 Permit extension allowing approvals to be made via signatures, as defined in https://eips.ethereum.org/EIPS/eip-2612[EIP-2612]. Adds the {permit} method, which can be used to change an account's ERC20 allowance (see {IERC20-allowance}) by presenting a message signed by the account. By not relying on `{IERC20-approve}`, the token holder account doesn't need to send a transaction, and thus is not required to hold Ether at all. _Available since v3.4._",
    "kind": "dev",
    "methods": {
      "DOMAIN_SEPARATOR()": {
        "details": "See {IERC20Permit-DOMAIN_SEPARATOR}."
      },
      "allowance(address,address)": {
        "details": "See {IERC20-allowance}."
      },
      "approve(address,uint256)": {
        "details": "See {IERC20-approve}. NOTE: If `amount` is the maximum `uint256`, the allowance is not updated on `transferFrom`. This is semantically equivalent to an infinite approval. Requirements: - `spender` cannot be the zero address."
      },
      "balanceOf(address)": {
        "details": "See {IERC20-balanceOf}.CHANGED for gETH.See {gETH-balanceOf}."
      },
      "constructor": {
        "custom:oz-upgrades-unsafe-allow": "constructor"
      },
      "decimals()": {
        "details": "Returns the number of decimals used to get its user representation. For example, if `decimals` equals `2`, a balance of `505` tokens should be displayed to a user as `5.05` (`505 / 10 ** 2`). Tokens usually opt for a value of 18, imitating the relationship between Ether and Wei. This is the value {ERC20} uses, unless this function is overridden; NOTE: This information is only used for _display_ purposes: it in no way affects any of the arithmetic of the contract, including {IERC20-balanceOf} and {IERC20-transfer}."
      },
      "decreaseAllowance(address,uint256)": {
        "details": "Atomically decreases the allowance granted to `spender` by the caller. This is an alternative to {approve} that can be used as a mitigation for problems described in {IERC20-approve}. Emits an {Approval} event indicating the updated allowance. Requirements: - `spender` cannot be the zero address. - `spender` must have allowance for the caller of at least `subtractedValue`."
      },
      "increaseAllowance(address,uint256)": {
        "details": "Atomically increases the allowance granted to `spender` by the caller. This is an alternative to {approve} that can be used as a mitigation for problems described in {IERC20-approve}. Emits an {Approval} event indicating the updated allowance. Requirements: - `spender` cannot be the zero address."
      },
      "initialize(uint256,address,bytes)": {
        "details": "Sets the values for {name} and {symbol}. The default value of {decimals} is 18. To select a different value for {decimals} you should overload it."
      },
      "name()": {
        "details": "Returns the name of the token."
      },
      "nonces(address)": {
        "details": "See {IERC20Permit-nonces}."
      },
      "permit(address,address,uint256,uint256,uint8,bytes32,bytes32)": {
        "details": "See {IERC20Permit-permit}."
      },
      "pricePerShare()": {
        "details": "shows the underlying ETH for 1 staked ether for a given idCHANGED for gETH.See {gETH-pricePerShare}."
      },
      "symbol()": {
        "details": "Returns the symbol of the token, usually a shorter version of the name."
      },
      "totalSupply()": {
        "details": "See {IERC20-totalSupply}.CHANGED for gETH.See {gETH-totalSupply}."
      },
      "transfer(address,uint256)": {
        "details": "See {IERC20-transfer}. Requirements: - `to` cannot be the zero address. - the caller must have a balance of at least `amount`."
      },
      "transferFrom(address,address,uint256)": {
        "details": "See {IERC20-transferFrom}. Emits an {Approval} event indicating the updated allowance. This is not required by the EIP. See the note at the beginning of {ERC20}. NOTE: Does not update the allowance if the current allowance is the maximum `uint256`. Requirements: - `from` and `to` cannot be the zero address. - `from` must have a balance of at least `amount`. - the caller must have allowance for ``from``'s tokens of at least `amount`."
      }
    },
    "version": 1
  },
  "userdoc": {
    "kind": "user",
    "methods": {},
    "version": 1
  },
  "storageLayout": {
    "storage": [
      {
        "astId": 527,
        "contract": "contracts/Portal/middlewares/ERC20PermitMiddleware.sol:ERC20PermitMiddleware",
        "label": "_initialized",
        "offset": 0,
        "slot": "0",
        "type": "t_uint8"
      },
      {
        "astId": 530,
        "contract": "contracts/Portal/middlewares/ERC20PermitMiddleware.sol:ERC20PermitMiddleware",
        "label": "_initializing",
        "offset": 1,
        "slot": "0",
        "type": "t_bool"
      },
      {
        "astId": 2331,
        "contract": "contracts/Portal/middlewares/ERC20PermitMiddleware.sol:ERC20PermitMiddleware",
        "label": "__gap",
        "offset": 0,
        "slot": "1",
        "type": "t_array(t_uint256)50_storage"
      },
      {
        "astId": 24889,
        "contract": "contracts/Portal/middlewares/ERC20PermitMiddleware.sol:ERC20PermitMiddleware",
        "label": "_allowances",
        "offset": 0,
        "slot": "51",
        "type": "t_mapping(t_address,t_mapping(t_address,t_uint256))"
      },
      {
        "astId": 24892,
        "contract": "contracts/Portal/middlewares/ERC20PermitMiddleware.sol:ERC20PermitMiddleware",
        "label": "_name",
        "offset": 0,
        "slot": "52",
        "type": "t_string_storage"
      },
      {
        "astId": 24894,
        "contract": "contracts/Portal/middlewares/ERC20PermitMiddleware.sol:ERC20PermitMiddleware",
        "label": "_symbol",
        "offset": 0,
        "slot": "53",
        "type": "t_string_storage"
      },
      {
        "astId": 24897,
        "contract": "contracts/Portal/middlewares/ERC20PermitMiddleware.sol:ERC20PermitMiddleware",
        "label": "ERC1155",
        "offset": 0,
        "slot": "54",
        "type": "t_contract(IgETH)23833"
      },
      {
        "astId": 24899,
        "contract": "contracts/Portal/middlewares/ERC20PermitMiddleware.sol:ERC20PermitMiddleware",
        "label": "ERC1155_ID",
        "offset": 0,
        "slot": "55",
        "type": "t_uint256"
      },
      {
        "astId": 3011,
        "contract": "contracts/Portal/middlewares/ERC20PermitMiddleware.sol:ERC20PermitMiddleware",
        "label": "_HASHED_NAME",
        "offset": 0,
        "slot": "56",
        "type": "t_bytes32"
      },
      {
        "astId": 3013,
        "contract": "contracts/Portal/middlewares/ERC20PermitMiddleware.sol:ERC20PermitMiddleware",
        "label": "_HASHED_VERSION",
        "offset": 0,
        "slot": "57",
        "type": "t_bytes32"
      },
      {
        "astId": 3151,
        "contract": "contracts/Portal/middlewares/ERC20PermitMiddleware.sol:ERC20PermitMiddleware",
        "label": "__gap",
        "offset": 0,
        "slot": "58",
        "type": "t_array(t_uint256)50_storage"
      },
      {
        "astId": 25476,
        "contract": "contracts/Portal/middlewares/ERC20PermitMiddleware.sol:ERC20PermitMiddleware",
        "label": "_nonces",
        "offset": 0,
        "slot": "108",
        "type": "t_mapping(t_address,t_struct(Counter)2338_storage)"
      }
    ],
    "types": {
      "t_address": {
        "encoding": "inplace",
        "label": "address",
        "numberOfBytes": "20"
      },
      "t_array(t_uint256)50_storage": {
        "base": "t_uint256",
        "encoding": "inplace",
        "label": "uint256[50]",
        "numberOfBytes": "1600"
      },
      "t_bool": {
        "encoding": "inplace",
        "label": "bool",
        "numberOfBytes": "1"
      },
      "t_bytes32": {
        "encoding": "inplace",
        "label": "bytes32",
        "numberOfBytes": "32"
      },
      "t_contract(IgETH)23833": {
        "encoding": "inplace",
        "label": "contract IgETH",
        "numberOfBytes": "20"
      },
      "t_mapping(t_address,t_mapping(t_address,t_uint256))": {
        "encoding": "mapping",
        "key": "t_address",
        "label": "mapping(address => mapping(address => uint256))",
        "numberOfBytes": "32",
        "value": "t_mapping(t_address,t_uint256)"
      },
      "t_mapping(t_address,t_struct(Counter)2338_storage)": {
        "encoding": "mapping",
        "key": "t_address",
        "label": "mapping(address => struct CountersUpgradeable.Counter)",
        "numberOfBytes": "32",
        "value": "t_struct(Counter)2338_storage"
      },
      "t_mapping(t_address,t_uint256)": {
        "encoding": "mapping",
        "key": "t_address",
        "label": "mapping(address => uint256)",
        "numberOfBytes": "32",
        "value": "t_uint256"
      },
      "t_string_storage": {
        "encoding": "bytes",
        "label": "string",
        "numberOfBytes": "32"
      },
      "t_struct(Counter)2338_storage": {
        "encoding": "inplace",
        "label": "struct CountersUpgradeable.Counter",
        "members": [
          {
            "astId": 2337,
            "contract": "contracts/Portal/middlewares/ERC20PermitMiddleware.sol:ERC20PermitMiddleware",
            "label": "_value",
            "offset": 0,
            "slot": "0",
            "type": "t_uint256"
          }
        ],
        "numberOfBytes": "32"
      },
      "t_uint256": {
        "encoding": "inplace",
        "label": "uint256",
        "numberOfBytes": "32"
      },
      "t_uint8": {
        "encoding": "inplace",
        "label": "uint8",
        "numberOfBytes": "1"
      }
    }
  }
}