{
  "address": "0xd07A36C1d111A978f0626d19175E0453900d1F4D",
  "abi": [
    {
      "anonymous": false,
      "inputs": [
        {
          "indexed": true,
          "internalType": "uint256",
          "name": "id",
          "type": "uint256"
        },
        {
          "indexed": false,
          "internalType": "address",
          "name": "newCONTROLLER",
          "type": "address"
        }
      ],
      "name": "ControllerChanged",
      "type": "event"
    },
    {
      "anonymous": false,
      "inputs": [
        {
          "indexed": false,
          "internalType": "uint256",
          "name": "TYPE",
          "type": "uint256"
        },
        {
          "indexed": false,
          "internalType": "bool",
          "name": "isElector",
          "type": "bool"
        }
      ],
      "name": "ElectorTypeSet",
      "type": "event"
    },
    {
      "anonymous": false,
      "inputs": [
        {
          "indexed": false,
          "internalType": "uint256",
          "name": "newFee",
          "type": "uint256"
        }
      ],
      "name": "GovernanceFeeUpdated",
      "type": "event"
    },
    {
      "anonymous": false,
      "inputs": [
        {
          "indexed": false,
          "internalType": "address",
          "name": "senate",
          "type": "address"
        },
        {
          "indexed": false,
          "internalType": "uint256",
          "name": "senateExpiry",
          "type": "uint256"
        }
      ],
      "name": "NewSenate",
      "type": "event"
    },
    {
      "anonymous": false,
      "inputs": [
        {
          "indexed": false,
          "internalType": "uint256",
          "name": "id",
          "type": "uint256"
        }
      ],
      "name": "ProposalApproved",
      "type": "event"
    },
    {
      "anonymous": false,
      "inputs": [
        {
          "indexed": false,
          "internalType": "uint256",
          "name": "id",
          "type": "uint256"
        },
        {
          "indexed": false,
          "internalType": "address",
          "name": "CONTROLLER",
          "type": "address"
        },
        {
          "indexed": true,
          "internalType": "uint256",
          "name": "TYPE",
          "type": "uint256"
        },
        {
          "indexed": false,
          "internalType": "uint256",
          "name": "deadline",
          "type": "uint256"
        }
      ],
      "name": "Proposed",
      "type": "event"
    },
    {
      "anonymous": false,
      "inputs": [
        {
          "indexed": true,
          "internalType": "uint256",
          "name": "proposalId",
          "type": "uint256"
        },
        {
          "indexed": true,
          "internalType": "uint256",
          "name": "voterId",
          "type": "uint256"
        }
      ],
      "name": "Vote",
      "type": "event"
    },
    {
      "inputs": [],
      "name": "FEE_COOLDOWN",
      "outputs": [
        {
          "internalType": "uint256",
          "name": "",
          "type": "uint256"
        }
      ],
      "stateMutability": "view",
      "type": "function"
    },
    {
      "inputs": [],
      "name": "MAX_GOVERNANCE_FEE",
      "outputs": [
        {
          "internalType": "uint256",
          "name": "",
          "type": "uint256"
        }
      ],
      "stateMutability": "view",
      "type": "function"
    },
    {
      "inputs": [],
      "name": "MAX_PROPOSAL_DURATION",
      "outputs": [
        {
          "internalType": "uint32",
          "name": "",
          "type": "uint32"
        }
      ],
      "stateMutability": "view",
      "type": "function"
    },
    {
      "inputs": [],
      "name": "MAX_SENATE_PERIOD",
      "outputs": [
        {
          "internalType": "uint32",
          "name": "",
          "type": "uint32"
        }
      ],
      "stateMutability": "view",
      "type": "function"
    },
    {
      "inputs": [],
      "name": "MIN_PROPOSAL_DURATION",
      "outputs": [
        {
          "internalType": "uint32",
          "name": "",
          "type": "uint32"
        }
      ],
      "stateMutability": "view",
      "type": "function"
    }
  ],
  "transactionHash": "0xba1a30a9ca8c94bb4f1404e141f124886513f07fd6dd101011c7856273105fbc",
  "args": [],
  "numDeployments": 1,
  "solcInputHash": "ade6b4939fda34d609e172906ec4e12a",
  "bytecode": "0x611a7361003a600b82828239805160001a60731461002d57634e487b7160e01b600052600060045260246000fd5b30600052607381538281f3fe730000000000000000000000000000000000000000301460806040526004361061012b5760003560e01c8063791150f5116100b7578063bd9682161161007b578063bd968216146102e7578063cc2feb68146102f1578063d0e7d619146102fc578063d9fc310f1461031c578063ff7027141461035957600080fd5b8063791150f514610275578063944ee22d14610295578063980426e9146102b4578063a96b61fa146102bc578063b21f2188146102dc57600080fd5b806358d876db116100fe57806358d876db146101e45780635bd2b113146102045780636797415514610232578063714812781461024757806376d1ba9d1461026257600080fd5b806309988f57146101305780631c6839541461016c5780631cc8ff03146101a25780632c5d1298146101c4575b600080fd5b61015761013e36600461183a565b6000908152600691909101602052604090205460ff1690565b60405190151581526020015b60405180910390f35b61018a61017a3660046116a7565b600101546001600160a01b031690565b6040516001600160a01b039091168152602001610163565b8180156101ae57600080fd5b506101c26101bd3660046117c2565b61036c565b005b8180156101d057600080fd5b506101c26101df3660046116c0565b61052c565b8180156101f057600080fd5b506101c26101ff36600461183a565b6105df565b81801561021057600080fd5b5061022461021f3660046116ec565b6106b5565b604051908152602001610163565b6102246102403660046116a7565b6002015490565b61018a6102553660046116a7565b546001600160a01b031690565b6102246102703660046116a7565b610a12565b81801561028157600080fd5b506101c2610290366004611808565b610a79565b61029f6201518081565b60405163ffffffff9091168152602001610163565b610224610d65565b8180156102c857600080fd5b506101c26102d736600461185c565b610d84565b61029f6301e1338081565b61029f6224ea0081565b6102246367eb025081565b61030f61030a36600461183a565b610eb2565b60405161016391906118ea565b81801561032857600080fd5b5061033c610337366004611796565b610fc6565b604080519283526001600160a01b03909116602083015201610163565b6101576103673660046116c0565b61130d565b835484906001600160a01b031633146103a05760405162461bcd60e51b8152600401610397906118b3565b60405180910390fd5b600083815260068601602052604090205460ff16151582151514156104075760405162461bcd60e51b815260206004820152601860248201527f47553a207479706520616c726561647920656c6563746f7200000000000000006044820152606401610397565b6003831161046d5760405162461bcd60e51b815260206004820152602d60248201527f47553a20302c2053656e6174652c20557067726164652c204741502063616e6e60448201526c37ba1031329032b632b1ba37b960991b6064820152608401610397565b60008381526006860160205260409020805460ff191683158015919091179091556104c157600083815260208590526040812054600587018054919290916104b690849061194c565b909155506104eb9050565b600083815260208590526040812054600587018054919290916104e59084906119a5565b90915550505b6040805184815283151560208201527fd30c2f5058959ec9e0f8b4a5f4f92d0d293345e5bfe4947ba7063ae6e7590c81910160405180910390a15050505050565b600182015482906001600160a01b031633146105835760405162461bcd60e51b815260206004820152601660248201527511d54e8814d153905511481c9bdb19481b995959195960521b6044820152606401610397565b806002015442106105cb5760405162461bcd60e51b815260206004820152601260248201527111d54e8814d15390551148195e1c1a5c995960721b6044820152606401610397565b6105da83838560020154611342565b505050565b815482906001600160a01b0316331461060a5760405162461bcd60e51b8152600401610397906118b3565b606461061c6402540be4006005611986565b6106269190611964565b8211156106755760405162461bcd60e51b815260206004820152601860248201527f47553a203e204d41585f474f5645524e414e43455f46454500000000000000006044820152606401610397565b600383018290556040518281527f78ec98f839c83f9772deb71634aae776280186c92df2a27e1de8dee2053ba599906020015b60405180910390a1505050565b865460009088906001600160a01b031633146106e35760405162461bcd60e51b8152600401610397906118b3565b61072485858080601f0160208091040260200160405190810160405280939291908181526020018383808284376000920191909152508a925061139f915050565b600081815260078b016020526040902060030154909250156107885760405162461bcd60e51b815260206004820152601960248201527f47553a204e414d4520616c72656164792070726f706f736564000000000000006044820152606401610397565b61079a8883634e414d4560e01b6113d3565b51156107df5760405162461bcd60e51b815260206004820152601460248201527311d54e88125108185b1c9958591e48195e1a5cdd60621b6044820152606401610397565b6001600160a01b0387166108355760405162461bcd60e51b815260206004820152601e60248201527f47553a20434f4e54524f4c4c45522063616e204e4f54206265205a45524f00006044820152606401610397565b8515801590610845575060038614155b6108915760405162461bcd60e51b815260206004820152601760248201527f47553a2054595045206973204e4f4e45206f72204741500000000000000000006044820152606401610397565b6201518083108015906108a757506224ea008311155b6108f35760405162461bcd60e51b815260206004820152601d60248201527f47553a20696e76616c69642070726f706f73616c206475726174696f6e0000006044820152606401610397565b60006108ff844261194c565b90506040518060800160405280896001600160a01b0316815260200188815260200187878080601f0160208091040260200160405190810160405280939291908181526020018383808284376000920182905250938552505050602091820184905285815260078d018252604090819020835181546001600160a01b0319166001600160a01b0390911617815583830151600182015590830151805191926109af926002850192909101906115f2565b50606091820151600390910155604080518581526001600160a01b038b16602082015290810183905288917fb56e333cd6082a862942820ad6871b5a17d922a7506ff536fc0830784a46b2c6910160405180910390a25050979650505050505050565b60006367eb02504210610a705760038201546064610a366402540be4006005611986565b610a409190611964565b11610a66576064610a576402540be4006005611986565b610a619190611964565b610a73565b8160030154610a73565b60005b92915050565b8281610a9382826921a7a72a2927a62622a960b11b611485565b6001600160a01b0316336001600160a01b031614610af35760405162461bcd60e51b815260206004820152601a60248201527f47553a20434f4e54524f4c4c455220726f6c65206e65656465640000000000006044820152606401610397565b60008481526007870160205260409020600190810154908114610b585760405162461bcd60e51b815260206004820152601760248201527f47553a204e4f542053656e6174652050726f706f73616c0000000000000000006044820152606401610397565b6000858152600788016020526040902060030154421115610bb25760405162461bcd60e51b815260206004820152601460248201527311d54e881c1c9bdc1bdcd85b08195e1c1a5c995960621b6044820152606401610397565b610bc88761013e8887635459504560e01b6114b9565b610c095760405162461bcd60e51b815260206004820152601260248201527123aa9d102727aa1030b71032b632b1ba37b960711b6044820152606401610397565b610c2785610c1f86641d9bdd195960da1b6114e3565b8891906114b9565b15610c6c5760405162461bcd60e51b81526020600482015260156024820152740811d54e88185b1c9958591e48185c1c1c9bdd9959605a1b6044820152606401610397565b610c8c85610c8286641d9bdd195960da1b6114e3565b889190600161150f565b610ca986866c185c1c1c9bdd985b10dbdd5b9d609a1b6001611537565b600387600501546001610cbc919061194c565b610cc7906002611986565b610cd19190611964565b610cec87876c185c1c1c9bdd985b10dbdd5b9d609a1b6114b9565b10610d2f576000858152600788016020526040902042600382018190559054610d2f9189916001600160a01b031690610d2a906301e133809061194c565b611342565b604051849086907f33952ef907843fd2ddd118a92dd935debf65b72965a557a364ea08deffca032f90600090a350505050505050565b6064610d776402540be4006005611986565b610d819190611964565b81565b8282610d9e82826921a7a72a2927a62622a960b11b611485565b6001600160a01b0316336001600160a01b031614610dfe5760405162461bcd60e51b815260206004820152601a60248201527f47553a20434f4e54524f4c4c455220726f6c65206e65656465640000000000006044820152606401610397565b6001600160a01b038316610e545760405162461bcd60e51b815260206004820152601e60248201527f47553a20434f4e54524f4c4c45522063616e206e6f74206265207a65726f00006044820152606401610397565b610e6d85856921a7a72a2927a62622a960b11b86611570565b6040516001600160a01b038416815284907ff0d0c255199b45799d6fd3623dce5e99a7cb09d662754eff92d8d0e73a537f0a9060200160405180910390a25050505050565b610ee6604051806080016040528060006001600160a01b031681526020016000815260200160608152602001600081525090565b6000828152600784016020908152604091829020825160808101845281546001600160a01b031681526001820154928101929092526002810180549293919291840191610f32906119ec565b80601f0160208091040260200160405190810160405280929190818152602001828054610f5e906119ec565b8015610fab5780601f10610f8057610100808354040283529160200191610fab565b820191906000526020600020905b815481529060010190602001808311610f8e57829003601f168201915b50505050508152602001600382015481525050905092915050565b6001830154600090819085906001600160a01b031633146110225760405162461bcd60e51b815260206004820152601660248201527511d54e8814d153905511481c9bdb19481b995959195960521b6044820152606401610397565b8060020154421061106a5760405162461bcd60e51b815260206004820152601260248201527111d54e8814d15390551148195e1c1a5c995960721b6044820152606401610397565b600084815260078701602052604090206003015442106110cc5760405162461bcd60e51b815260206004820152601a60248201527f47553a204e4f5420616e206163746976652070726f706f73616c0000000000006044820152606401610397565b6000848152600787016020526040902060018082015491549194506001600160a01b03909116925083141561114f5760405162461bcd60e51b815260206004820152602360248201527f47553a2063616e204e4f5420617070726f76652053454e41544520656c65637460448201526234b7b760e91b6064820152608401610397565b6111628585635459504560e01b8661150f565b61117b85856921a7a72a2927a62622a960b11b85611570565b61123984634e414d4560e01b88600701600088815260200190815260200160002060020180546111aa906119ec565b80601f01602080910402602001604051908101604052809291908181526020018280546111d6906119ec565b80156112235780601f106111f857610100808354040283529160200191611223565b820191906000526020600020905b81548152906001019060200180831161120657829003601f168201915b5050505050886115b9909392919063ffffffff16565b60008381526020868152604082208054600181018255908352912001849055600283141561127f576004860180546001600160a01b0319166001600160a01b0384161790555b600083815260068701602052604090205460ff16156112b35760018660050160008282546112ad919061194c565b90915550505b60008481526007870160205260409081902042600390910155517f28ec9e38ba73636ceb2f6c1574136f83bd46284a3c74734b711bf45e12f8d929906112fc9086815260200190565b60405180910390a150935093915050565b60048201546000906001600160a01b03161580159061133b575060048301546001600160a01b038381169116145b9392505050565b6001830180546001600160a01b0319166001600160a01b0384169081179091556002840182905560408051918252602082018390527f3f34afe456fb5b36c04b5d1e2ef0750086747ac542262fbf14a0b1aae5fd7ee891016106a8565b600082826040516020016113b4929190611891565b60408051601f1981840301815291905280516020909101209392505050565b60608360020160006113e585856114e3565b815260200190815260200160002080546113fe906119ec565b80601f016020809104026020016040519081016040528092919081815260200182805461142a906119ec565b80156114775780601f1061144c57610100808354040283529160200191611477565b820191906000526020600020905b81548152906001019060200180831161145a57829003601f168201915b505050505090509392505050565b600083600301600061149785856114e3565b81526020810191909152604001600020546001600160a01b0316949350505050565b60008360010160006114cb85856114e3565b81526020019081526020016000205490509392505050565b604080516020808201949094528082019290925280518083038201815260609092019052805191012090565b8084600101600061152086866114e3565b815260208101919091526040016000205550505050565b8084600101600061154886866114e3565b81526020019081526020016000206000828254611565919061194c565b909155505050505050565b8084600301600061158186866114e3565b815260200190815260200160002060006101000a8154816001600160a01b0302191690836001600160a01b0316021790555050505050565b808460020160006115ca86866114e3565b815260200190815260200160002090805190602001906115eb9291906115f2565b5050505050565b8280546115fe906119ec565b90600052602060002090601f0160209004810192826116205760008555611666565b82601f1061163957805160ff1916838001178555611666565b82800160010185558215611666579182015b8281111561166657825182559160200191906001019061164b565b50611672929150611676565b5090565b5b808211156116725760008155600101611677565b80356001600160a01b03811681146116a257600080fd5b919050565b6000602082840312156116b957600080fd5b5035919050565b600080604083850312156116d357600080fd5b823591506116e36020840161168b565b90509250929050565b600080600080600080600060c0888a03121561170757600080fd5b873596506020880135955061171e6040890161168b565b945060608801359350608088013567ffffffffffffffff8082111561174257600080fd5b818a0191508a601f83011261175657600080fd5b81358181111561176557600080fd5b8b602082850101111561177757600080fd5b60208301955080945050505060a0880135905092959891949750929550565b6000806000606084860312156117ab57600080fd5b505081359360208301359350604090920135919050565b600080600080608085870312156117d857600080fd5b843593506020850135925060408501359150606085013580151581146117fd57600080fd5b939692955090935050565b6000806000806080858703121561181e57600080fd5b5050823594602084013594506040840135936060013592509050565b6000806040838503121561184d57600080fd5b50508035926020909101359150565b60008060006060848603121561187157600080fd5b83359250602084013591506118886040850161168b565b90509250925092565b600083516118a38184602088016119bc565b9190910191825250602001919050565b6020808252601a908201527f47553a20474f5645524e414e434520726f6c65206e6565646564000000000000604082015260600190565b6020815260018060a01b03825116602082015260208201516040820152600060408301516080606084015280518060a085015261192e8160c08601602085016119bc565b606094909401516080840152505060c0601f909201601f1916010190565b6000821982111561195f5761195f611a27565b500190565b60008261198157634e487b7160e01b600052601260045260246000fd5b500490565b60008160001904831182151516156119a0576119a0611a27565b500290565b6000828210156119b7576119b7611a27565b500390565b60005b838110156119d75781810151838201526020016119bf565b838111156119e6576000848401525b50505050565b600181811c90821680611a0057607f821691505b60208210811415611a2157634e487b7160e01b600052602260045260246000fd5b50919050565b634e487b7160e01b600052601160045260246000fdfea2646970667358221220d968cbe03b4bebf9a37708890278dfd42b4c169737f1d732d0574b3d8156a5cc64736f6c63430008070033",
  "devdoc": {
    "author": "Icebear & Crash Bandicoot",
    "details": "Reserved ID_TYPEs: * Type 0 : NULL * Type 1 : SENATE ELECTIONS * * Every SENATE has an expiration date, a new one should be elected before it ends. * * Only the controllers of IDs with TYPEs that are set true on _electorTypes can vote. * * 2/3 is the expected concensus, however this logic seems to be improved in the future. * Type 2 : CONTRACT UPGRADES * * Provides Limited Upgradability on Portal and Withdrawal Contract * * Contract can be upgradable once Senate approves it. * Type 3 : __GAP__ * * ormally represented the admin contract, but we use UUPS. Reserved to be never used.Contracts relying on this library must initialize GeodeUtils.DualGovernanceFunctions are already protected accordinglyreview DataStoreUtils",
    "kind": "dev",
    "methods": {
      "approveProposal(GeodeUtils.DualGovernance storage,DataStoreUtils.IsolatedStorage storage,uint256)": {
        "details": "Senate is not able to approve approved proposalsSenate is not able to approve expired proposalsSenate is not able to approve SENATE proposals",
        "params": {
          "id": "given ID proposal that has been approved by Senate"
        }
      },
      "approveSenate(GeodeUtils.DualGovernance storage,DataStoreUtils.IsolatedStorage storage,uint256,uint256)": {
        "details": "pins id as \"voted\" when approvedincreases \"approvalCount\" of proposalId by 1 when approved",
        "params": {
          "voterId": "should have the voting rights, msg.sender should be the CONTROLLER of given ID"
        }
      },
      "changeIdCONTROLLER(DataStoreUtils.IsolatedStorage storage,uint256,address)": {
        "details": "this operation can not be reverted by the old CONTROLLER !can not provide address(0), try 0x000000000000000000000000000000000000dEaD"
      },
      "changeSenate(GeodeUtils.DualGovernance storage,address)": {
        "details": "does not change the expiry"
      },
      "getGovernance(GeodeUtils.DualGovernance storage)": {
        "returns": {
          "_0": "address of GOVERNANCE*"
        }
      },
      "getGovernanceFee(GeodeUtils.DualGovernance storage)": {
        "details": "MAX_GOVERNANCE_FEE MUST limit GOVERNANCE_FEE even if MAX is changed laterMUST return 0 until cooldown period is active"
      },
      "getProposal(GeodeUtils.DualGovernance storage,uint256)": {
        "details": "refer to Proposal struct"
      },
      "getSenate(GeodeUtils.DualGovernance storage)": {
        "returns": {
          "_0": "address of SENATE*"
        }
      },
      "getSenateExpiry(GeodeUtils.DualGovernance storage)": {
        "returns": {
          "_0": "the expiration date of current SENATE as a timestamp"
        }
      },
      "isElector(GeodeUtils.DualGovernance storage,uint256)": {
        "details": "->  view"
      },
      "isUpgradeAllowed(GeodeUtils.DualGovernance storage,address)": {
        "details": "address(0) should return falseDO NOT TOUCH, EVER! WHATEVER YOU DEVELOP IN FUCKING 3022*",
        "returns": {
          "_0": "True if it is allowed by senate and false if not."
        }
      },
      "newProposal(GeodeUtils.DualGovernance storage,DataStoreUtils.IsolatedStorage storage,address,uint256,bytes,uint256)": {
        "details": "DATASTORE[id] will not be updated until the proposal is approvedProposals can NEVER be overridenrefer to Proposal struct"
      },
      "setElectorType(GeodeUtils.DualGovernance storage,DataStoreUtils.IsolatedStorage storage,uint256,bool)": {
        "details": "can not set with the same value again, preventing double increment/decrements",
        "params": {
          "_TYPE": "selected type",
          "_isElector": "true if selected _type can vote for senate from now on"
        }
      },
      "setGovernanceFee(GeodeUtils.DualGovernance storage,uint256)": {
        "details": "Can not set the fee more than MAX_GOVERNANCE_FEE"
      }
    },
    "stateVariables": {
      "FEE_COOLDOWN": {
        "details": "fee switch will be automatically switched on after given timestampfee switch can be switched on with the approval of Senate (a contract upgrade)"
      }
    },
    "title": "Geode Dual Governance",
    "version": 1
  },
  "userdoc": {
    "events": {
      "GovernanceFeeUpdated(uint256)": {
        "notice": "EVENTS"
      }
    },
    "kind": "user",
    "methods": {
      "FEE_COOLDOWN()": {
        "notice": "prevents Governance from collecting any fees till given timestamp:April 2025"
      },
      "MAX_GOVERNANCE_FEE()": {
        "notice": "limiting the GOVERNANCE_FEE, 5%"
      },
      "approveProposal(GeodeUtils.DualGovernance storage,DataStoreUtils.IsolatedStorage storage,uint256)": {
        "notice": "onlySenate, approves a proposal and records given data tospecific changes for the reserved types (1,2,3) are implemented here,  any other addition should take place in Portal, as not related"
      },
      "approveSenate(GeodeUtils.DualGovernance storage,DataStoreUtils.IsolatedStorage storage,uint256,uint256)": {
        "notice": "onlyController, Proposed CONTROLLER is the new Senate after 2/3 of the electors approved NOTE mathematically, min 3 elector is needed for (c+1)*2/3 to work properlyid can not vote if: - approved already - proposal is expired - not its type is elector - not senate proposal"
      },
      "changeIdCONTROLLER(DataStoreUtils.IsolatedStorage storage,uint256,address)": {
        "notice": "onlyController, change the CONTROLLER of an ID"
      },
      "changeSenate(GeodeUtils.DualGovernance storage,address)": {
        "notice": "onlySenate, Sometimes it is useful to be able to change the Senate's address."
      },
      "getGovernanceFee(GeodeUtils.DualGovernance storage)": {
        "notice": "active GOVERNANCE_FEE limited by FEE_COOLDOWN and MAX_GOVERNANCE_FEE"
      },
      "isUpgradeAllowed(GeodeUtils.DualGovernance storage,address)": {
        "notice": "Get if it is allowed to change a specific contract with the current version."
      },
      "newProposal(GeodeUtils.DualGovernance storage,DataStoreUtils.IsolatedStorage storage,address,uint256,bytes,uint256)": {
        "notice": "onlyGovernance, creates a new Proposal"
      },
      "setElectorType(GeodeUtils.DualGovernance storage,DataStoreUtils.IsolatedStorage storage,uint256,bool)": {
        "notice": "onlyGovernance, only elector types can vote for senate"
      },
      "setGovernanceFee(GeodeUtils.DualGovernance storage,uint256)": {
        "notice": "onlyGovernance, sets the governance fee"
      }
    },
    "notice": "Exclusively contains functions for the administration of the Isolated Storage, and Limited Upgradability with Dual Governance of Governance and Senate Note This library contains both functions called by users(ID) (approveSenate) and admins(GOVERNANCE, SENATE)",
    "version": 1
  },
  "storageLayout": {
    "storage": [],
    "types": null
  }
}