{
  "address": "0x3506980d4d72f056d12216cA7c853000f19e6382",
  "abi": [
    {
      "anonymous": false,
      "inputs": [
        {
          "indexed": false,
          "internalType": "uint256",
          "name": "ID",
          "type": "uint256"
        }
      ],
      "name": "Approved",
      "type": "event"
    },
    {
      "anonymous": false,
      "inputs": [
        {
          "indexed": true,
          "internalType": "uint256",
          "name": "ID",
          "type": "uint256"
        },
        {
          "indexed": false,
          "internalType": "address",
          "name": "CONTROLLER",
          "type": "address"
        }
      ],
      "name": "ControllerChanged",
      "type": "event"
    },
    {
      "anonymous": false,
      "inputs": [
        {
          "indexed": false,
          "internalType": "address",
          "name": "senate",
          "type": "address"
        },
        {
          "indexed": false,
          "internalType": "uint256",
          "name": "expiry",
          "type": "uint256"
        }
      ],
      "name": "NewSenate",
      "type": "event"
    },
    {
      "anonymous": false,
      "inputs": [
        {
          "indexed": true,
          "internalType": "uint256",
          "name": "TYPE",
          "type": "uint256"
        },
        {
          "indexed": false,
          "internalType": "uint256",
          "name": "ID",
          "type": "uint256"
        },
        {
          "indexed": false,
          "internalType": "address",
          "name": "CONTROLLER",
          "type": "address"
        },
        {
          "indexed": false,
          "internalType": "uint256",
          "name": "deadline",
          "type": "uint256"
        }
      ],
      "name": "Proposed",
      "type": "event"
    },
    {
      "inputs": [],
      "name": "MAX_PROPOSAL_DURATION",
      "outputs": [
        {
          "internalType": "uint32",
          "name": "",
          "type": "uint32"
        }
      ],
      "stateMutability": "view",
      "type": "function"
    },
    {
      "inputs": [],
      "name": "MAX_SENATE_PERIOD",
      "outputs": [
        {
          "internalType": "uint32",
          "name": "",
          "type": "uint32"
        }
      ],
      "stateMutability": "view",
      "type": "function"
    },
    {
      "inputs": [],
      "name": "MIN_PROPOSAL_DURATION",
      "outputs": [
        {
          "internalType": "uint32",
          "name": "",
          "type": "uint32"
        }
      ],
      "stateMutability": "view",
      "type": "function"
    }
  ],
  "transactionHash": "0xa68d8374fbf1f4fd98ad236c47923c8c25bce17a9aa87a8388115b74a7e327a7",
  "args": [],
  "numDeployments": 1,
  "solcInputHash": "0d9b4f013ad8b24d94c0978b4d3f3ea8",
  "bytecode": "0x61130f61003a600b82828239805160001a60731461002d57634e487b7160e01b600052600060045260246000fd5b30600052607381538281f3fe73000000000000000000000000000000000000000030146080604052600436106100a85760003560e01c8063944ee22d11610070578063944ee22d146101655780639c04df5b14610184578063b21f2188146101b3578063bd968216146101be578063e51d9aa3146101c857600080fd5b806309589522146100ad5780630bde2bc3146100cf5780633f98381a146100ef5780636989fbc614610117578063929fbdfb14610145575b600080fd5b8180156100b957600080fd5b506100cd6100c8366004611150565b6101e8565b005b8180156100db57600080fd5b506100cd6100ea366004610ff0565b61038f565b6101026100fd36600461101c565b610452565b60405190151581526020015b60405180910390f35b81801561012357600080fd5b50610137610132366004611058565b6104a6565b60405190815260200161010e565b61015861015336600461112e565b61082a565b60405161010e91906111fa565b61016f6201518081565b60405163ffffffff909116815260200161010e565b81801561019057600080fd5b506101a461019f366004611102565b61093e565b60405161010e939291906111ca565b61016f6301e1338081565b61016f6224ea0081565b8180156101d457600080fd5b506100cd6101e3366004610ff0565b610c0e565b828261020282826921a7a72a2927a62622a960b11b610cbc565b6001600160a01b0316336001600160a01b0316146102675760405162461bcd60e51b815260206004820152601a60248201527f474d4c3a434f4e54524f4c4c455220726f6c65206e656564656400000000000060448201526064015b60405180910390fd5b6001600160a01b0383166102bd5760405162461bcd60e51b815260206004820152601e60248201527f474d4c3a434f4e54524f4c4c45522063616e206e6f74206265207a65726f0000604482015260640161025e565b60006102d18686635459504560e01b610cf0565b90506003811180156102e4575061270f81105b6103305760405162461bcd60e51b815260206004820152601760248201527f474d4c3a49442054595045206973204e4f542075736572000000000000000000604482015260640161025e565b61034986866921a7a72a2927a62622a960b11b87610d1a565b6040516001600160a01b038516815285907ff0d0c255199b45799d6fd3623dce5e99a7cb09d662754eff92d8d0e73a537f0a9060200160405180910390a2505050505050565b815482906001600160a01b031633146103ea5760405162461bcd60e51b815260206004820152601a60248201527f474d4c3a474f5645524e414e434520726f6c65206e6565646564000000000000604482015260640161025e565b826003015442116104355760405162461bcd60e51b815260206004820152601560248201527411d3530e98d85b9b9bdd081c995cd8dd59481e595d605a1b604482015260640161025e565b61044d83836104486301e1338042611248565b610d63565b505050565b60028301546000906001600160a01b0316158015906104835750816001600160a01b0316836001600160a01b031614155b801561049e575060028401546001600160a01b038481169116145b949350505050565b865460009088906001600160a01b031633146105045760405162461bcd60e51b815260206004820152601a60248201527f474d4c3a474f5645524e414e434520726f6c65206e6565646564000000000000604482015260640161025e565b61054585858080601f0160208091040260200160405190810160405280939291908181526020018383808284376000920191909152508a9250610dc8915050565b600081815260068b016020526040902060030154909250156105a05760405162461bcd60e51b815260206004820152601460248201527311d3530e985b1c9958591e481c1c9bdc1bdcd95960621b604482015260640161025e565b6105b28883634e414d4560e01b610dfc565b51156105f75760405162461bcd60e51b815260206004820152601460248201527311d3530e925108185b1c9958591e48195e1a5cdd60621b604482015260640161025e565b6001600160a01b03871661064d5760405162461bcd60e51b815260206004820152601e60248201527f474d4c3a434f4e54524f4c4c45522063616e204e4f54206265205a45524f0000604482015260640161025e565b851580159061065d575060058614155b6106a95760405162461bcd60e51b815260206004820152601860248201527f474d4c3a54595045206973204e4f4e45206f7220504f4f4c0000000000000000604482015260640161025e565b6201518083108015906106bf57506224ea008311155b61070b5760405162461bcd60e51b815260206004820152601d60248201527f474d4c3a696e76616c69642070726f706f73616c206475726174696f6e000000604482015260640161025e565b60006107178442611248565b90506040518060800160405280896001600160a01b0316815260200188815260200187878080601f0160208091040260200160405190810160405280939291908181526020018383808284376000920182905250938552505050602091820184905285815260068d018252604090819020835181546001600160a01b0319166001600160a01b0390911617815583830151600182015590830151805191926107c792600285019290910190610f3b565b50606091820151600390910155604080518581526001600160a01b038b16602082015290810183905288917f1ff68ed75922b8da2edb71149ae5de14f24d950ccc82c7cc12254771915426c3910160405180910390a25050979650505050505050565b61085e604051806080016040528060006001600160a01b031681526020016000815260200160608152602001600081525090565b6000828152600684016020908152604091829020825160808101845281546001600160a01b0316815260018201549281019290925260028101805492939192918401916108aa9061129e565b80601f01602080910402602001604051908101604052809291908181526020018280546108d69061129e565b80156109235780601f106108f857610100808354040283529160200191610923565b820191906000526020600020905b81548152906001019060200180831161090657829003601f168201915b50505050508152602001600382015481525050905092915050565b6001830154600090819060609086906001600160a01b0316331461099d5760405162461bcd60e51b815260206004820152601660248201527511d3530e94d153905511481c9bdb19481b995959195960521b604482015260640161025e565b806003015442106109e55760405162461bcd60e51b815260206004820152601260248201527111d3530e94d15390551148195e1c1a5c995960721b604482015260640161025e565b60008581526006880160205260409020600301544210610a475760405162461bcd60e51b815260206004820152601a60248201527f474d4c3a4e4f5420616e206163746976652070726f706f73616c000000000000604482015260640161025e565b6000858152600688016020526040902080546001820154600290920180546001600160a01b039092169650919450610a7e9061129e565b80601f0160208091040260200160405190810160405280929190818152602001828054610aaa9061129e565b8015610af75780601f10610acc57610100808354040283529160200191610af7565b820191906000526020600020905b815481529060010190602001808311610ada57829003601f168201915b50505050509150610b1c85635459504560e01b8589610eae909392919063ffffffff16565b610b3586866921a7a72a2927a62622a960b11b87610d1a565b610b488686634e414d4560e01b85610ed6565b60008381526020878152604082208054600181810183559184529190922001869055831415610b8957610b8487856104486301e1338042611248565b610bb3565b8660040154831415610bb3576002870180546001600160a01b0319166001600160a01b0386161790555b60008581526006880160205260409081902042600390910155517f3ad93af63cb7967b23e4fb500b7d7d28b07516325dcf341f88bebf959d82c1cb90610bfc9087815260200190565b60405180910390a15093509350939050565b600182015482906001600160a01b03163314610c655760405162461bcd60e51b815260206004820152601660248201527511d3530e94d153905511481c9bdb19481b995959195960521b604482015260640161025e565b80600301544210610cad5760405162461bcd60e51b815260206004820152601260248201527111d3530e94d15390551148195e1c1a5c995960721b604482015260640161025e565b61044d83838560030154610d63565b6000836003016000610cce8585610f0f565b81526020810191909152604001600020546001600160a01b0316949350505050565b6000836001016000610d028585610f0f565b81526020019081526020016000205490509392505050565b80846003016000610d2b8686610f0f565b815260200190815260200160002060006101000a8154816001600160a01b0302191690836001600160a01b0316021790555050505050565b6001830180546001600160a01b0319166001600160a01b0384169081179091556003840182905560408051918252602082018390527f3f34afe456fb5b36c04b5d1e2ef0750086747ac542262fbf14a0b1aae5fd7ee8910160405180910390a1505050565b60008282604051602001610ddd9291906111a8565b60408051601f1981840301815291905280516020909101209392505050565b6060836002016000610e0e8585610f0f565b81526020019081526020016000208054610e279061129e565b80601f0160208091040260200160405190810160405280929190818152602001828054610e539061129e565b8015610ea05780601f10610e7557610100808354040283529160200191610ea0565b820191906000526020600020905b815481529060010190602001808311610e8357829003601f168201915b505050505090509392505050565b80846001016000610ebf8686610f0f565b815260208101919091526040016000205550505050565b80846002016000610ee78686610f0f565b81526020019081526020016000209080519060200190610f08929190610f3b565b5050505050565b604080516020808201949094528082019290925280518083038201815260609092019052805191012090565b828054610f479061129e565b90600052602060002090601f016020900481019282610f695760008555610faf565b82601f10610f8257805160ff1916838001178555610faf565b82800160010185558215610faf579182015b82811115610faf578251825591602001919060010190610f94565b50610fbb929150610fbf565b5090565b5b80821115610fbb5760008155600101610fc0565b80356001600160a01b0381168114610feb57600080fd5b919050565b6000806040838503121561100357600080fd5b8235915061101360208401610fd4565b90509250929050565b60008060006060848603121561103157600080fd5b8335925061104160208501610fd4565b915061104f60408501610fd4565b90509250925092565b600080600080600080600060c0888a03121561107357600080fd5b873596506020880135955061108a60408901610fd4565b945060608801359350608088013567ffffffffffffffff808211156110ae57600080fd5b818a0191508a601f8301126110c257600080fd5b8135818111156110d157600080fd5b8b60208285010111156110e357600080fd5b60208301955080945050505060a0880135905092959891949750929550565b60008060006060848603121561111757600080fd5b505081359360208301359350604090920135919050565b6000806040838503121561114157600080fd5b50508035926020909101359150565b60008060006060848603121561116557600080fd5b833592506020840135915061104f60408501610fd4565b6000815180845261119481602086016020860161126e565b601f01601f19169290920160200192915050565b600083516111ba81846020880161126e565b9190910191825250602001919050565b60018060a01b03841681528260208201526060604082015260006111f1606083018461117c565b95945050505050565b6020815260018060a01b03825116602082015260208201516040820152600060408301516080606084015261123260a084018261117c565b9050606084015160808401528091505092915050565b6000821982111561126957634e487b7160e01b600052601160045260246000fd5b500190565b60005b83811015611289578181015183820152602001611271565b83811115611298576000848401525b50505050565b600181811c908216806112b257607f821691505b602082108114156112d357634e487b7160e01b600052602260045260246000fd5b5091905056fea264697066735822122042f29ada45c4cd80c5c0bc51b44755f11c600157464399f790226483dc08646d64736f6c63430008070033",
  "devdoc": {
    "author": "Ice Bear & Crash Bandicoot",
    "details": "review: DataStoreModule for the IsolatedStorage logic.review: Reserved TYPEs are defined within globals/id_type.solSENATE_EXPIRY is not mandatory to utilize. Simply set it to MAX_UINT256 if rescueSenate is not needed.There are 3 ways to set a new Senate: 1. With a proposal TYPE 1. Proposal's controller becomes the new Senate, refreshes the expiry. 2. Current Senate can call changeSenate, which doesn't change the expiry 3. As a circuit breaker: If senate is expired, then rescue senate can be called by governance.Currently, there are no way to set a new Governance.Contracts relying on this library must use GeodeModuleLib.DualGovernanceThis is an external library, requires deployment.",
    "events": {
      "Proposed(uint256,uint256,address,uint256)": {
        "custom:section": "** EVENTS **"
      }
    },
    "kind": "dev",
    "methods": {
      "approveProposal(GeodeModuleLib.DualGovernance storage,DataStoreModuleLib.IsolatedStorage storage,uint256)": {
        "details": "Senate is not able to approve approved proposalsSenate is not able to approve expired proposals",
        "params": {
          "id": "given ID proposal that has will be approved by Senate"
        }
      },
      "changeIdCONTROLLER(DataStoreModuleLib.IsolatedStorage storage,uint256,address)": {
        "details": "this operation can not be reverted by the old CONTROLLER!!!can not provide address(0), try 0x000000000000000000000000000000000000dEaD"
      },
      "changeSenate(GeodeModuleLib.DualGovernance storage,address)": {
        "details": "Does not change the expiry"
      },
      "getProposal(GeodeModuleLib.DualGovernance storage,uint256)": {
        "custom:section": "** GETTER FUNCTIONS **",
        "custom:visibility": "-> view-external"
      },
      "isUpgradeAllowed(GeodeModuleLib.DualGovernance storage,address,address)": {
        "details": "provided for _authorizeUpgradecurrentImplementation should always be UUPS._getImplementation()currentImplementation or zero as proposedImplementation will return false*"
      },
      "propose(GeodeModuleLib.DualGovernance storage,DataStoreModuleLib.IsolatedStorage storage,address,uint256,bytes,uint256)": {
        "details": "DATASTORE[id] will not be updated until the proposal is approvedProposals can NEVER be overriden"
      },
      "rescueSenate(GeodeModuleLib.DualGovernance storage,address)": {
        "details": "Obviously, Governance needs to wait for SENATE_EXPIRY.Refreshes the expiry"
      }
    },
    "stateVariables": {
      "MAX_SENATE_PERIOD": {
        "details": "\"MAX\" underlines a new senate can be set without expecting an expiry"
      }
    },
    "title": "GML: Geode Module Library",
    "version": 1
  },
  "userdoc": {
    "kind": "user",
    "methods": {
      "MAX_SENATE_PERIOD()": {
        "notice": "if expiry is utilized, a senate can be active for a year."
      },
      "MIN_PROPOSAL_DURATION()": {
        "notice": "a proposal can have a duration between 1 days to 4 weeks (inclusive)"
      },
      "approveProposal(GeodeModuleLib.DualGovernance storage,DataStoreModuleLib.IsolatedStorage storage,uint256)": {
        "notice": "approves a proposal and records given data to DataStorespecific changes for the reserved types (1, 2, 3) are implemented here, any other addition should take place in Portal, as not related. Note that GM has additional logic for package type approvals."
      },
      "changeIdCONTROLLER(DataStoreModuleLib.IsolatedStorage storage,uint256,address)": {
        "notice": "change the CONTROLLER of an ID"
      },
      "changeSenate(GeodeModuleLib.DualGovernance storage,address)": {
        "notice": "It is useful to be able to change the Senate's address without changing the expiry."
      },
      "isUpgradeAllowed(GeodeModuleLib.DualGovernance storage,address,address)": {
        "notice": "Check if it is allowed to change the package version to given proposedImplementation."
      },
      "propose(GeodeModuleLib.DualGovernance storage,DataStoreModuleLib.IsolatedStorage storage,address,uint256,bytes,uint256)": {
        "notice": "generates a new ID with given TYPE and NAME, proposes it to be owned by a CONTROLLER."
      },
      "rescueSenate(GeodeModuleLib.DualGovernance storage,address)": {
        "notice": "changes Senate in a scenerio where the current Senate acts maliciously! * We are sure this will not be the case, but creating a method for possible recovery is a must.Normally, Governance creates Senate Proposals frequently to signal it does not have * any intent of malicious overtake. note: If Governance does not send a Senate Proposal \"a while\" before the SENATE_EXPIRY, * we recommend users to take their money out."
      }
    },
    "notice": "Dual Governance & Limited Upgradability: Administration of the Isolated Storage with a Dual Governance consisting a Governance and a Senate. Administration of a UUPS contract with Limited Upgradability for Packages like Portal, LiquidityPool.",
    "version": 1
  },
  "storageLayout": {
    "storage": [],
    "types": null
  }
}