{
  "address": "0xE5d027Fc4a146AcB9Df2f30FDe4A6E72D4333bbd",
  "abi": [
    {
      "inputs": [
        {
          "internalType": "string",
          "name": "_name",
          "type": "string"
        },
        {
          "internalType": "string",
          "name": "_symbol",
          "type": "string"
        },
        {
          "internalType": "string",
          "name": "_uri",
          "type": "string"
        }
      ],
      "stateMutability": "nonpayable",
      "type": "constructor"
    },
    {
      "anonymous": false,
      "inputs": [
        {
          "indexed": true,
          "internalType": "address",
          "name": "account",
          "type": "address"
        },
        {
          "indexed": true,
          "internalType": "address",
          "name": "operator",
          "type": "address"
        },
        {
          "indexed": false,
          "internalType": "bool",
          "name": "approved",
          "type": "bool"
        }
      ],
      "name": "ApprovalForAll",
      "type": "event"
    },
    {
      "anonymous": false,
      "inputs": [
        {
          "indexed": false,
          "internalType": "address",
          "name": "avoider",
          "type": "address"
        },
        {
          "indexed": false,
          "internalType": "uint256",
          "name": "id",
          "type": "uint256"
        },
        {
          "indexed": false,
          "internalType": "bool",
          "name": "isAvoid",
          "type": "bool"
        }
      ],
      "name": "Avoider",
      "type": "event"
    },
    {
      "anonymous": false,
      "inputs": [
        {
          "indexed": false,
          "internalType": "uint256",
          "name": "id",
          "type": "uint256"
        },
        {
          "indexed": false,
          "internalType": "address",
          "name": "middleware",
          "type": "address"
        },
        {
          "indexed": false,
          "internalType": "bool",
          "name": "isSet",
          "type": "bool"
        }
      ],
      "name": "MiddlewareSet",
      "type": "event"
    },
    {
      "anonymous": false,
      "inputs": [
        {
          "indexed": false,
          "internalType": "address",
          "name": "account",
          "type": "address"
        }
      ],
      "name": "Paused",
      "type": "event"
    },
    {
      "anonymous": false,
      "inputs": [
        {
          "indexed": false,
          "internalType": "uint256",
          "name": "id",
          "type": "uint256"
        },
        {
          "indexed": false,
          "internalType": "uint256",
          "name": "pricePerShare",
          "type": "uint256"
        },
        {
          "indexed": false,
          "internalType": "uint256",
          "name": "updateTimestamp",
          "type": "uint256"
        }
      ],
      "name": "PriceUpdated",
      "type": "event"
    },
    {
      "anonymous": false,
      "inputs": [
        {
          "indexed": true,
          "internalType": "bytes32",
          "name": "role",
          "type": "bytes32"
        },
        {
          "indexed": true,
          "internalType": "bytes32",
          "name": "previousAdminRole",
          "type": "bytes32"
        },
        {
          "indexed": true,
          "internalType": "bytes32",
          "name": "newAdminRole",
          "type": "bytes32"
        }
      ],
      "name": "RoleAdminChanged",
      "type": "event"
    },
    {
      "anonymous": false,
      "inputs": [
        {
          "indexed": true,
          "internalType": "bytes32",
          "name": "role",
          "type": "bytes32"
        },
        {
          "indexed": true,
          "internalType": "address",
          "name": "account",
          "type": "address"
        },
        {
          "indexed": true,
          "internalType": "address",
          "name": "sender",
          "type": "address"
        }
      ],
      "name": "RoleGranted",
      "type": "event"
    },
    {
      "anonymous": false,
      "inputs": [
        {
          "indexed": true,
          "internalType": "bytes32",
          "name": "role",
          "type": "bytes32"
        },
        {
          "indexed": true,
          "internalType": "address",
          "name": "account",
          "type": "address"
        },
        {
          "indexed": true,
          "internalType": "address",
          "name": "sender",
          "type": "address"
        }
      ],
      "name": "RoleRevoked",
      "type": "event"
    },
    {
      "anonymous": false,
      "inputs": [
        {
          "indexed": true,
          "internalType": "address",
          "name": "operator",
          "type": "address"
        },
        {
          "indexed": true,
          "internalType": "address",
          "name": "from",
          "type": "address"
        },
        {
          "indexed": true,
          "internalType": "address",
          "name": "to",
          "type": "address"
        },
        {
          "indexed": false,
          "internalType": "uint256[]",
          "name": "ids",
          "type": "uint256[]"
        },
        {
          "indexed": false,
          "internalType": "uint256[]",
          "name": "values",
          "type": "uint256[]"
        }
      ],
      "name": "TransferBatch",
      "type": "event"
    },
    {
      "anonymous": false,
      "inputs": [
        {
          "indexed": true,
          "internalType": "address",
          "name": "operator",
          "type": "address"
        },
        {
          "indexed": true,
          "internalType": "address",
          "name": "from",
          "type": "address"
        },
        {
          "indexed": true,
          "internalType": "address",
          "name": "to",
          "type": "address"
        },
        {
          "indexed": false,
          "internalType": "uint256",
          "name": "id",
          "type": "uint256"
        },
        {
          "indexed": false,
          "internalType": "uint256",
          "name": "value",
          "type": "uint256"
        }
      ],
      "name": "TransferSingle",
      "type": "event"
    },
    {
      "anonymous": false,
      "inputs": [
        {
          "indexed": false,
          "internalType": "string",
          "name": "value",
          "type": "string"
        },
        {
          "indexed": true,
          "internalType": "uint256",
          "name": "id",
          "type": "uint256"
        }
      ],
      "name": "URI",
      "type": "event"
    },
    {
      "anonymous": false,
      "inputs": [
        {
          "indexed": false,
          "internalType": "address",
          "name": "account",
          "type": "address"
        }
      ],
      "name": "Unpaused",
      "type": "event"
    },
    {
      "inputs": [],
      "name": "DEFAULT_ADMIN_ROLE",
      "outputs": [
        {
          "internalType": "bytes32",
          "name": "",
          "type": "bytes32"
        }
      ],
      "stateMutability": "view",
      "type": "function"
    },
    {
      "inputs": [],
      "name": "MIDDLEWARE_MANAGER_ROLE",
      "outputs": [
        {
          "internalType": "bytes32",
          "name": "",
          "type": "bytes32"
        }
      ],
      "stateMutability": "view",
      "type": "function"
    },
    {
      "inputs": [],
      "name": "MINTER_ROLE",
      "outputs": [
        {
          "internalType": "bytes32",
          "name": "",
          "type": "bytes32"
        }
      ],
      "stateMutability": "view",
      "type": "function"
    },
    {
      "inputs": [],
      "name": "ORACLE_ROLE",
      "outputs": [
        {
          "internalType": "bytes32",
          "name": "",
          "type": "bytes32"
        }
      ],
      "stateMutability": "view",
      "type": "function"
    },
    {
      "inputs": [],
      "name": "PAUSER_ROLE",
      "outputs": [
        {
          "internalType": "bytes32",
          "name": "",
          "type": "bytes32"
        }
      ],
      "stateMutability": "view",
      "type": "function"
    },
    {
      "inputs": [],
      "name": "URI_SETTER_ROLE",
      "outputs": [
        {
          "internalType": "bytes32",
          "name": "",
          "type": "bytes32"
        }
      ],
      "stateMutability": "view",
      "type": "function"
    },
    {
      "inputs": [
        {
          "internalType": "uint256",
          "name": "id",
          "type": "uint256"
        },
        {
          "internalType": "bool",
          "name": "isAvoid",
          "type": "bool"
        }
      ],
      "name": "avoidMiddlewares",
      "outputs": [],
      "stateMutability": "nonpayable",
      "type": "function"
    },
    {
      "inputs": [
        {
          "internalType": "address",
          "name": "account",
          "type": "address"
        },
        {
          "internalType": "uint256",
          "name": "id",
          "type": "uint256"
        }
      ],
      "name": "balanceOf",
      "outputs": [
        {
          "internalType": "uint256",
          "name": "",
          "type": "uint256"
        }
      ],
      "stateMutability": "view",
      "type": "function"
    },
    {
      "inputs": [
        {
          "internalType": "address[]",
          "name": "accounts",
          "type": "address[]"
        },
        {
          "internalType": "uint256[]",
          "name": "ids",
          "type": "uint256[]"
        }
      ],
      "name": "balanceOfBatch",
      "outputs": [
        {
          "internalType": "uint256[]",
          "name": "",
          "type": "uint256[]"
        }
      ],
      "stateMutability": "view",
      "type": "function"
    },
    {
      "inputs": [
        {
          "internalType": "address",
          "name": "account",
          "type": "address"
        },
        {
          "internalType": "uint256",
          "name": "id",
          "type": "uint256"
        },
        {
          "internalType": "uint256",
          "name": "value",
          "type": "uint256"
        }
      ],
      "name": "burn",
      "outputs": [],
      "stateMutability": "nonpayable",
      "type": "function"
    },
    {
      "inputs": [
        {
          "internalType": "address",
          "name": "account",
          "type": "address"
        },
        {
          "internalType": "uint256[]",
          "name": "ids",
          "type": "uint256[]"
        },
        {
          "internalType": "uint256[]",
          "name": "values",
          "type": "uint256[]"
        }
      ],
      "name": "burnBatch",
      "outputs": [],
      "stateMutability": "nonpayable",
      "type": "function"
    },
    {
      "inputs": [],
      "name": "denominator",
      "outputs": [
        {
          "internalType": "uint256",
          "name": "",
          "type": "uint256"
        }
      ],
      "stateMutability": "view",
      "type": "function"
    },
    {
      "inputs": [
        {
          "internalType": "uint256",
          "name": "id",
          "type": "uint256"
        }
      ],
      "name": "exists",
      "outputs": [
        {
          "internalType": "bool",
          "name": "",
          "type": "bool"
        }
      ],
      "stateMutability": "view",
      "type": "function"
    },
    {
      "inputs": [
        {
          "internalType": "bytes32",
          "name": "role",
          "type": "bytes32"
        }
      ],
      "name": "getRoleAdmin",
      "outputs": [
        {
          "internalType": "bytes32",
          "name": "",
          "type": "bytes32"
        }
      ],
      "stateMutability": "view",
      "type": "function"
    },
    {
      "inputs": [
        {
          "internalType": "bytes32",
          "name": "role",
          "type": "bytes32"
        },
        {
          "internalType": "address",
          "name": "account",
          "type": "address"
        }
      ],
      "name": "grantRole",
      "outputs": [],
      "stateMutability": "nonpayable",
      "type": "function"
    },
    {
      "inputs": [
        {
          "internalType": "bytes32",
          "name": "role",
          "type": "bytes32"
        },
        {
          "internalType": "address",
          "name": "account",
          "type": "address"
        }
      ],
      "name": "hasRole",
      "outputs": [
        {
          "internalType": "bool",
          "name": "",
          "type": "bool"
        }
      ],
      "stateMutability": "view",
      "type": "function"
    },
    {
      "inputs": [
        {
          "internalType": "address",
          "name": "account",
          "type": "address"
        },
        {
          "internalType": "address",
          "name": "operator",
          "type": "address"
        }
      ],
      "name": "isApprovedForAll",
      "outputs": [
        {
          "internalType": "bool",
          "name": "",
          "type": "bool"
        }
      ],
      "stateMutability": "view",
      "type": "function"
    },
    {
      "inputs": [
        {
          "internalType": "address",
          "name": "account",
          "type": "address"
        },
        {
          "internalType": "uint256",
          "name": "id",
          "type": "uint256"
        }
      ],
      "name": "isAvoider",
      "outputs": [
        {
          "internalType": "bool",
          "name": "",
          "type": "bool"
        }
      ],
      "stateMutability": "view",
      "type": "function"
    },
    {
      "inputs": [
        {
          "internalType": "address",
          "name": "middleware",
          "type": "address"
        },
        {
          "internalType": "uint256",
          "name": "id",
          "type": "uint256"
        }
      ],
      "name": "isMiddleware",
      "outputs": [
        {
          "internalType": "bool",
          "name": "",
          "type": "bool"
        }
      ],
      "stateMutability": "view",
      "type": "function"
    },
    {
      "inputs": [
        {
          "internalType": "address",
          "name": "account",
          "type": "address"
        },
        {
          "internalType": "uint256",
          "name": "id",
          "type": "uint256"
        },
        {
          "internalType": "uint256",
          "name": "amount",
          "type": "uint256"
        },
        {
          "internalType": "bytes",
          "name": "data",
          "type": "bytes"
        }
      ],
      "name": "mint",
      "outputs": [],
      "stateMutability": "nonpayable",
      "type": "function"
    },
    {
      "inputs": [
        {
          "internalType": "address",
          "name": "to",
          "type": "address"
        },
        {
          "internalType": "uint256[]",
          "name": "ids",
          "type": "uint256[]"
        },
        {
          "internalType": "uint256[]",
          "name": "amounts",
          "type": "uint256[]"
        },
        {
          "internalType": "bytes",
          "name": "data",
          "type": "bytes"
        }
      ],
      "name": "mintBatch",
      "outputs": [],
      "stateMutability": "nonpayable",
      "type": "function"
    },
    {
      "inputs": [],
      "name": "name",
      "outputs": [
        {
          "internalType": "string",
          "name": "",
          "type": "string"
        }
      ],
      "stateMutability": "view",
      "type": "function"
    },
    {
      "inputs": [],
      "name": "pause",
      "outputs": [],
      "stateMutability": "nonpayable",
      "type": "function"
    },
    {
      "inputs": [],
      "name": "paused",
      "outputs": [
        {
          "internalType": "bool",
          "name": "",
          "type": "bool"
        }
      ],
      "stateMutability": "view",
      "type": "function"
    },
    {
      "inputs": [
        {
          "internalType": "uint256",
          "name": "id",
          "type": "uint256"
        }
      ],
      "name": "pricePerShare",
      "outputs": [
        {
          "internalType": "uint256",
          "name": "",
          "type": "uint256"
        }
      ],
      "stateMutability": "view",
      "type": "function"
    },
    {
      "inputs": [
        {
          "internalType": "uint256",
          "name": "id",
          "type": "uint256"
        }
      ],
      "name": "priceUpdateTimestamp",
      "outputs": [
        {
          "internalType": "uint256",
          "name": "",
          "type": "uint256"
        }
      ],
      "stateMutability": "view",
      "type": "function"
    },
    {
      "inputs": [
        {
          "internalType": "bytes32",
          "name": "role",
          "type": "bytes32"
        },
        {
          "internalType": "address",
          "name": "account",
          "type": "address"
        }
      ],
      "name": "renounceRole",
      "outputs": [],
      "stateMutability": "nonpayable",
      "type": "function"
    },
    {
      "inputs": [
        {
          "internalType": "bytes32",
          "name": "role",
          "type": "bytes32"
        },
        {
          "internalType": "address",
          "name": "account",
          "type": "address"
        }
      ],
      "name": "revokeRole",
      "outputs": [],
      "stateMutability": "nonpayable",
      "type": "function"
    },
    {
      "inputs": [
        {
          "internalType": "address",
          "name": "from",
          "type": "address"
        },
        {
          "internalType": "address",
          "name": "to",
          "type": "address"
        },
        {
          "internalType": "uint256[]",
          "name": "ids",
          "type": "uint256[]"
        },
        {
          "internalType": "uint256[]",
          "name": "amounts",
          "type": "uint256[]"
        },
        {
          "internalType": "bytes",
          "name": "data",
          "type": "bytes"
        }
      ],
      "name": "safeBatchTransferFrom",
      "outputs": [],
      "stateMutability": "nonpayable",
      "type": "function"
    },
    {
      "inputs": [
        {
          "internalType": "address",
          "name": "from",
          "type": "address"
        },
        {
          "internalType": "address",
          "name": "to",
          "type": "address"
        },
        {
          "internalType": "uint256",
          "name": "id",
          "type": "uint256"
        },
        {
          "internalType": "uint256",
          "name": "amount",
          "type": "uint256"
        },
        {
          "internalType": "bytes",
          "name": "data",
          "type": "bytes"
        }
      ],
      "name": "safeTransferFrom",
      "outputs": [],
      "stateMutability": "nonpayable",
      "type": "function"
    },
    {
      "inputs": [
        {
          "internalType": "address",
          "name": "operator",
          "type": "address"
        },
        {
          "internalType": "bool",
          "name": "approved",
          "type": "bool"
        }
      ],
      "name": "setApprovalForAll",
      "outputs": [],
      "stateMutability": "nonpayable",
      "type": "function"
    },
    {
      "inputs": [
        {
          "internalType": "address",
          "name": "middleware",
          "type": "address"
        },
        {
          "internalType": "uint256",
          "name": "id",
          "type": "uint256"
        },
        {
          "internalType": "bool",
          "name": "isSet",
          "type": "bool"
        }
      ],
      "name": "setMiddleware",
      "outputs": [],
      "stateMutability": "nonpayable",
      "type": "function"
    },
    {
      "inputs": [
        {
          "internalType": "uint256",
          "name": "price",
          "type": "uint256"
        },
        {
          "internalType": "uint256",
          "name": "id",
          "type": "uint256"
        }
      ],
      "name": "setPricePerShare",
      "outputs": [],
      "stateMutability": "nonpayable",
      "type": "function"
    },
    {
      "inputs": [
        {
          "internalType": "string",
          "name": "newuri",
          "type": "string"
        }
      ],
      "name": "setURI",
      "outputs": [],
      "stateMutability": "nonpayable",
      "type": "function"
    },
    {
      "inputs": [
        {
          "internalType": "bytes4",
          "name": "interfaceId",
          "type": "bytes4"
        }
      ],
      "name": "supportsInterface",
      "outputs": [
        {
          "internalType": "bool",
          "name": "",
          "type": "bool"
        }
      ],
      "stateMutability": "view",
      "type": "function"
    },
    {
      "inputs": [],
      "name": "symbol",
      "outputs": [
        {
          "internalType": "string",
          "name": "",
          "type": "string"
        }
      ],
      "stateMutability": "view",
      "type": "function"
    },
    {
      "inputs": [
        {
          "internalType": "uint256",
          "name": "id",
          "type": "uint256"
        }
      ],
      "name": "totalSupply",
      "outputs": [
        {
          "internalType": "uint256",
          "name": "",
          "type": "uint256"
        }
      ],
      "stateMutability": "view",
      "type": "function"
    },
    {
      "inputs": [
        {
          "internalType": "address",
          "name": "newMiddlewareManager",
          "type": "address"
        }
      ],
      "name": "transferMiddlewareManagerRole",
      "outputs": [],
      "stateMutability": "nonpayable",
      "type": "function"
    },
    {
      "inputs": [
        {
          "internalType": "address",
          "name": "newMinter",
          "type": "address"
        }
      ],
      "name": "transferMinterRole",
      "outputs": [],
      "stateMutability": "nonpayable",
      "type": "function"
    },
    {
      "inputs": [
        {
          "internalType": "address",
          "name": "newOracle",
          "type": "address"
        }
      ],
      "name": "transferOracleRole",
      "outputs": [],
      "stateMutability": "nonpayable",
      "type": "function"
    },
    {
      "inputs": [
        {
          "internalType": "address",
          "name": "newPauser",
          "type": "address"
        }
      ],
      "name": "transferPauserRole",
      "outputs": [],
      "stateMutability": "nonpayable",
      "type": "function"
    },
    {
      "inputs": [
        {
          "internalType": "address",
          "name": "newUriSetter",
          "type": "address"
        }
      ],
      "name": "transferUriSetterRole",
      "outputs": [],
      "stateMutability": "nonpayable",
      "type": "function"
    },
    {
      "inputs": [],
      "name": "unpause",
      "outputs": [],
      "stateMutability": "nonpayable",
      "type": "function"
    },
    {
      "inputs": [
        {
          "internalType": "uint256",
          "name": "",
          "type": "uint256"
        }
      ],
      "name": "uri",
      "outputs": [
        {
          "internalType": "string",
          "name": "",
          "type": "string"
        }
      ],
      "stateMutability": "view",
      "type": "function"
    }
  ],
  "transactionHash": "0x9034a993c1c579b169a86d3503170b4d00e0015b5e42ee596e7c88fc36a2085f",
  "args": [
    "Geode Staked Ether",
    "gETH",
    "https://api.geode.fi/geth"
  ],
  "numDeployments": 1,
  "solcInputHash": "86d7817b142b36f089c0f393516f23fa",
  "bytecode": "0x60806040523480156200001157600080fd5b506040516200342e3803806200342e833981016040819052620000349162000378565b808062000041816200015e565b506004805460ff19169055620000787f7804d923f43a17d325d77e781528e0793b2edd9890ab45fc64efd7b4b427744c3362000177565b620000a47f65d7a28e3265b37a6474929f336521b332c1681b933f6cb9f3376673440d862a3362000177565b620000d07f9f2df0fed2c77648de5860a4cc508cd0818c85b8b8a1ab4ceeef8d981c8956a63362000177565b508251620000e69060069060208601906200021b565b508151620000fc9060079060208501906200021b565b50620001297ff04f52d1f685586eac22a7ca73ab9ce0c45b77d01934bed334a9ff223be978a13362000177565b620001557f68e79a7bf1e0bc45d0a330c573bc367f9cf464fd326078812f301165fbda4ef13362000177565b5050506200045c565b8051620001739060029060208401906200021b565b5050565b60008281526003602090815260408083206001600160a01b038516845290915290205460ff16620001735760008281526003602090815260408083206001600160a01b03851684529091529020805460ff19166001179055620001d73390565b6001600160a01b0316816001600160a01b0316837f2f8788117e7eff1d82e926ec794901d17c78024a50270940304540a733656f0d60405160405180910390a45050565b828054620002299062000409565b90600052602060002090601f0160209004810192826200024d576000855562000298565b82601f106200026857805160ff191683800117855562000298565b8280016001018555821562000298579182015b82811115620002985782518255916020019190600101906200027b565b50620002a6929150620002aa565b5090565b5b80821115620002a65760008155600101620002ab565b600082601f830112620002d357600080fd5b81516001600160401b0380821115620002f057620002f062000446565b604051601f8301601f19908116603f011681019082821181831017156200031b576200031b62000446565b816040528381526020925086838588010111156200033857600080fd5b600091505b838210156200035c57858201830151818301840152908201906200033d565b838211156200036e5760008385830101525b9695505050505050565b6000806000606084860312156200038e57600080fd5b83516001600160401b0380821115620003a657600080fd5b620003b487838801620002c1565b94506020860151915080821115620003cb57600080fd5b620003d987838801620002c1565b93506040860151915080821115620003f057600080fd5b50620003ff86828701620002c1565b9150509250925092565b600181811c908216806200041e57607f821691505b602082108114156200044057634e487b7160e01b600052602260045260246000fd5b50919050565b634e487b7160e01b600052604160045260246000fd5b612fc2806200046c6000396000f3fe608060405234801561001057600080fd5b50600436106102735760003560e01c8063731133e911610151578063bad383a6116100c3578063e63ab1e911610087578063e63ab1e914610584578063e985e9c514610599578063eef37fd5146105d5578063f242432a146105ea578063f5298aca146105fd578063f759cc3b1461061057600080fd5b8063bad383a614610516578063bd85b03914610529578063c7bddb1e14610549578063d53913931461055c578063d547741f1461057157600080fd5b806391d148541161011557806391d14854146104bf57806395d89b41146104d257806396ce0795146104da578063a217fddf146104e8578063a22cb465146104f0578063b8bf60f91461050357600080fd5b8063731133e91461045c5780637f3457101461046f5780638456cb59146104845780638801b9b81461048c578063908d67ed1461049f57600080fd5b80632eb2c2d6116101ea5780634d280a55116101ae5780634d280a55146103d65780634e1273f4146103e95780634f558e7914610409578063512be7961461042b5780635c975abb1461043e5780636b20c4541461044957600080fd5b80632eb2c2d6146103825780632f2ff15d146103955780633106fde8146103a857806336568abe146103bb5780633f4ba83a146103ce57600080fd5b8063072650d21161023c578063072650d2146102fe57806307e2cea5146103115780630e89341c146103265780631f7fdffa1461033957806322af59971461034c578063248a9ca31461035f57600080fd5b8062fdd58e1461027857806301ffc9a71461029e57806302fe5305146102c15780630492f6e1146102d657806306fdde03146102e9575b600080fd5b61028b610286366004612600565b610630565b6040519081526020015b60405180910390f35b6102b16102ac3660046127f9565b6106c6565b6040519015158152602001610295565b6102d46102cf366004612833565b6106d7565b005b6102d46102e4366004612883565b6106fc565b6102f161076b565b6040516102959190612a88565b6102b161030c366004612600565b6107f9565b61028b600080516020612eed83398151915281565b6102f16103343660046127bd565b610824565b6102d461034736600461253e565b6108b8565b6102d461035a3660046128a6565b6108e3565b61028b61036d3660046127bd565b60009081526003602052604090206001015490565b6102d46103903660046123be565b6109b4565b6102d46103a33660046127d6565b6109f9565b6102d46103b6366004612370565b610a23565b6102d46103c93660046127d6565b610a56565b6102d4610ad0565b6102b16103e4366004612600565b610af0565b6103fc6103f73660046126ed565b610b1a565b6040516102959190612a47565b6102b16104173660046127bd565b600090815260056020526040902054151590565b6102d461043936600461262a565b610c43565b60045460ff166102b1565b6102d46104573660046124cb565b610da7565b6102d461046a366004612699565b610dea565b61028b600080516020612f0d83398151915281565b6102d4610e0e565b6102d461049a366004612370565b610e2e565b61028b6104ad3660046127bd565b6000908152600b602052604090205490565b6102b16104cd3660046127d6565b610e5e565b6102f1610e89565b670de0b6b3a764000061028b565b61028b600081565b6102d46104fe3660046125d6565b610e96565b6102d4610511366004612370565b610ea1565b6102d4610524366004612370565b610ed1565b61028b6105373660046127bd565b60009081526005602052604090205490565b6102d4610557366004612370565b610f01565b61028b600080516020612f4d83398151915281565b6102d461057f3660046127d6565b610f31565b61028b600080516020612f2d83398151915281565b6102b16105a736600461238b565b6001600160a01b03918216600090815260016020908152604080832093909416825291909152205460ff1690565b61028b600080516020612f6d83398151915281565b6102d46105f8366004612467565b610f56565b6102d461060b366004612666565b610fbe565b61028b61061e3660046127bd565b6000908152600a602052604090205490565b60006001600160a01b0383166106a05760405162461bcd60e51b815260206004820152602a60248201527f455243313135353a2061646472657373207a65726f206973206e6f742061207660448201526930b634b21037bbb732b960b11b60648201526084015b60405180910390fd5b506000908152602081815260408083206001600160a01b03949094168352929052205490565b60006106d182611024565b92915050565b600080516020612f0d8339815191526106ef81611049565b6106f882611053565b5050565b336000818152600960209081526040808320868452825291829020805460ff19168515159081179091558251848152918201869052918101919091527f78738b8c4717822a58cc752d3b2d657f2d706db6042748d69d2048438ff07e2c906060015b60405180910390a1505050565b6006805461077890612d6d565b80601f01602080910402602001604051908101604052809291908181526020018280546107a490612d6d565b80156107f15780601f106107c6576101008083540402835291602001916107f1565b820191906000526020600020905b8154815290600101906020018083116107d457829003601f168201915b505050505081565b6001600160a01b03919091166000908152600960209081526040808320938352929052205460ff1690565b60606002805461083390612d6d565b80601f016020809104026020016040519081016040528092919081815260200182805461085f90612d6d565b80156108ac5780601f10610881576101008083540402835291602001916108ac565b820191906000526020600020905b81548152906001019060200180831161088f57829003601f168201915b50505050509050919050565b600080516020612f4d8339815191526108d081611049565b6108dc85858585611066565b5050505050565b600080516020612eed8339815191526108fb81611049565b816109565760405162461bcd60e51b815260206004820152602560248201527f674554483a707269636520717565727920666f7220746865207a65726f206164604482015264647265737360d81b6064820152608401610697565b6000828152600a60209081526040808320869055600b9091529020429055604080518381526020810185905242918101919091527f15819dd2fd9f6418b142e798d08a18d0bf06ea368f4480b7b0d3f75bd966bc489060600161075e565b6001600160a01b0385163314806109d057506109d085336105a7565b6109ec5760405162461bcd60e51b815260040161069790612b27565b6108dc85858585856111c0565b600082815260036020526040902060010154610a1481611049565b610a1e838361136a565b505050565b610a3b600080516020612f0d8339815191528261136a565b610a53600080516020612f0d83398151915233610a56565b50565b6001600160a01b0381163314610ac65760405162461bcd60e51b815260206004820152602f60248201527f416363657373436f6e74726f6c3a2063616e206f6e6c792072656e6f756e636560448201526e103937b632b9903337b91039b2b63360891b6064820152608401610697565b6106f882826113f0565b600080516020612f2d833981519152610ae881611049565b610a53611457565b60009081526008602090815260408083206001600160a01b03949094168352929052205460ff1690565b60608151835114610b7f5760405162461bcd60e51b815260206004820152602960248201527f455243313135353a206163636f756e747320616e6420696473206c656e677468604482015268040dad2e6dac2e8c6d60bb1b6064820152608401610697565b600083516001600160401b03811115610b9a57610b9a612e1b565b604051908082528060200260200182016040528015610bc3578160200160208202803683370190505b50905060005b8451811015610c3b57610c0e858281518110610be757610be7612e05565b6020026020010151858381518110610c0157610c01612e05565b6020026020010151610630565b828281518110610c2057610c20612e05565b6020908102919091010152610c3481612dd4565b9050610bc9565b509392505050565b600080516020612f6d833981519152610c5b81611049565b6001600160a01b038416610cc45760405162461bcd60e51b815260206004820152602a60248201527f674554483a6d6964646c657761726520717565727920666f7220746865207a65604482015269726f206164647265737360b01b6064820152608401610697565b6001600160a01b0384163b610d265760405162461bcd60e51b815260206004820152602260248201527f674554483a6d6964646c6577617265206d757374206265206120636f6e74726160448201526118dd60f21b6064820152608401610697565b60008381526008602090815260408083206001600160a01b03881684529091529020805460ff1916831515179055604080518481526001600160a01b0386166020820152831515918101919091527fc3c7dc5ac1b5d811719dbd5be732967d24ed27897351a8a123e526f6b53dc5249060600160405180910390a150505050565b6001600160a01b038316331480610dc35750610dc383336105a7565b610ddf5760405162461bcd60e51b815260040161069790612b27565b610a1e8383836114a9565b600080516020612f4d833981519152610e0281611049565b6108dc85858585611647565b600080516020612f2d833981519152610e2681611049565b610a53611730565b610e46600080516020612eed8339815191528261136a565b610a53600080516020612eed83398151915233610a56565b60009182526003602090815260408084206001600160a01b0393909316845291905290205460ff1690565b6007805461077890612d6d565b6106f833838361176d565b610eb9600080516020612f4d8339815191528261136a565b610a53600080516020612f4d83398151915233610a56565b610ee9600080516020612f2d8339815191528261136a565b610a53600080516020612f2d83398151915233610a56565b610f19600080516020612f6d8339815191528261136a565b610a53600080516020612f6d83398151915233610a56565b600082815260036020526040902060010154610f4c81611049565b610a1e83836113f0565b6001600160a01b038516331480610f725750610f7285336105a7565b80610f955750610f823384610af0565b8015610f955750610f9385846107f9565b155b610fb15760405162461bcd60e51b815260040161069790612b27565b6108dc858585858561184e565b6001600160a01b038316331480610fda5750610fda83336105a7565b80610ffd5750610fea3383610af0565b8015610ffd5750610ffb83836107f9565b155b6110195760405162461bcd60e51b815260040161069790612b27565b610a1e838383611986565b60006001600160e01b03198216637965db0b60e01b14806106d157506106d182611a9e565b610a538133611aee565b80516106f89060029060208401906121b7565b6001600160a01b03841661108c5760405162461bcd60e51b815260040161069790612c8f565b81518351146110ad5760405162461bcd60e51b815260040161069790612c47565b336110bd81600087878787611b47565b60005b8451811015611158578381815181106110db576110db612e05565b60200260200101516000808784815181106110f8576110f8612e05565b602002602001015181526020019081526020016000206000886001600160a01b03166001600160a01b0316815260200190815260200160002060008282546111409190612cf3565b9091555081905061115081612dd4565b9150506110c0565b50846001600160a01b031660006001600160a01b0316826001600160a01b03167f4a39dc06d4c0dbc64b70af90fd698a233a518aa5d07e595d983b8c0526c8f7fb87876040516111a9929190612a5a565b60405180910390a46108dc81600087878787611b5d565b81518351146111e15760405162461bcd60e51b815260040161069790612c47565b6001600160a01b0384166112075760405162461bcd60e51b815260040161069790612b75565b33611216818787878787611b47565b60005b84518110156112fc57600085828151811061123657611236612e05565b60200260200101519050600085838151811061125457611254612e05565b602090810291909101810151600084815280835260408082206001600160a01b038e1683529093529190912054909150818110156112a45760405162461bcd60e51b815260040161069790612bfd565b6000838152602081815260408083206001600160a01b038e8116855292528083208585039055908b168252812080548492906112e1908490612cf3565b92505081905550505050806112f590612dd4565b9050611219565b50846001600160a01b0316866001600160a01b0316826001600160a01b03167f4a39dc06d4c0dbc64b70af90fd698a233a518aa5d07e595d983b8c0526c8f7fb878760405161134c929190612a5a565b60405180910390a4611362818787878787611b5d565b505050505050565b6113748282610e5e565b6106f85760008281526003602090815260408083206001600160a01b03851684529091529020805460ff191660011790556113ac3390565b6001600160a01b0316816001600160a01b0316837f2f8788117e7eff1d82e926ec794901d17c78024a50270940304540a733656f0d60405160405180910390a45050565b6113fa8282610e5e565b156106f85760008281526003602090815260408083206001600160a01b0385168085529252808320805460ff1916905551339285917ff6391f5c32d9c69d2a47ea670b442974b53935d1edc7fd64eb21e047a839171b9190a45050565b61145f611cc8565b6004805460ff191690557f5db9ee0a495bf2e6ff9c91a7834c1ba4fdd244a5e8aa4e537bd38aeae4b073aa335b6040516001600160a01b03909116815260200160405180910390a1565b6001600160a01b0383166114cf5760405162461bcd60e51b815260040161069790612bba565b80518251146114f05760405162461bcd60e51b815260040161069790612c47565b600033905061151381856000868660405180602001604052806000815250611b47565b60005b83518110156115d857600084828151811061153357611533612e05565b60200260200101519050600084838151811061155157611551612e05565b602090810291909101810151600084815280835260408082206001600160a01b038c1683529093529190912054909150818110156115a15760405162461bcd60e51b815260040161069790612ae3565b6000928352602083815260408085206001600160a01b038b16865290915290922091039055806115d081612dd4565b915050611516565b5060006001600160a01b0316846001600160a01b0316826001600160a01b03167f4a39dc06d4c0dbc64b70af90fd698a233a518aa5d07e595d983b8c0526c8f7fb8686604051611629929190612a5a565b60405180910390a46040805160208101909152600090525b50505050565b6001600160a01b03841661166d5760405162461bcd60e51b815260040161069790612c8f565b33600061167985611d13565b9050600061168685611d13565b905061169783600089858589611b47565b6000868152602081815260408083206001600160a01b038b168452909152812080548792906116c7908490612cf3565b909155505060408051878152602081018790526001600160a01b03808a1692600092918716917fc3d58168c5ae7397731d063d5bbf3d657854427343f4c083240f7aacaa2d0f62910160405180910390a461172783600089898989611d5e565b50505050505050565b611738611d7a565b6004805460ff191660011790557f62e78cea01bee320cd4e420270b5ea74000d11b0c9f74754ebdbfc544b05a25861148c3390565b816001600160a01b0316836001600160a01b031614156117e15760405162461bcd60e51b815260206004820152602960248201527f455243313135353a2073657474696e6720617070726f76616c20737461747573604482015268103337b91039b2b63360b91b6064820152608401610697565b6001600160a01b03838116600081815260016020908152604080832094871680845294825291829020805460ff191686151590811790915591519182527f17307eab39ab6107e8899845ad3d59bd9653f200f220920489ca2b5937696c31910160405180910390a3505050565b6001600160a01b0384166118745760405162461bcd60e51b815260040161069790612b75565b33600061188085611d13565b9050600061188d85611d13565b905061189d838989858589611b47565b6000868152602081815260408083206001600160a01b038c168452909152902054858110156118de5760405162461bcd60e51b815260040161069790612bfd565b6000878152602081815260408083206001600160a01b038d8116855292528083208985039055908a1682528120805488929061191b908490612cf3565b909155505060408051888152602081018890526001600160a01b03808b16928c821692918816917fc3d58168c5ae7397731d063d5bbf3d657854427343f4c083240f7aacaa2d0f62910160405180910390a461197b848a8a8a8a8a611d5e565b505050505050505050565b6001600160a01b0383166119ac5760405162461bcd60e51b815260040161069790612bba565b3360006119b884611d13565b905060006119c584611d13565b90506119e583876000858560405180602001604052806000815250611b47565b6000858152602081815260408083206001600160a01b038a16845290915290205484811015611a265760405162461bcd60e51b815260040161069790612ae3565b6000868152602081815260408083206001600160a01b038b81168086529184528285208a8703905582518b81529384018a90529092908816917fc3d58168c5ae7397731d063d5bbf3d657854427343f4c083240f7aacaa2d0f62910160405180910390a4604080516020810190915260009052611727565b60006001600160e01b03198216636cdb3d1360e11b1480611acf57506001600160e01b031982166303a24d0760e21b145b806106d157506301ffc9a760e01b6001600160e01b03198316146106d1565b611af88282610e5e565b6106f857611b0581611dc0565b611b10836020611dd2565b604051602001611b2192919061292f565b60408051601f198184030181529082905262461bcd60e51b825261069791600401612a88565b611b4f611d7a565b611362868686868686611f74565b6001600160a01b0384163b156113625760405163bc197c8160e01b81526001600160a01b0385169063bc197c8190611ba190899089908890889088906004016129a4565b602060405180830381600087803b158015611bbb57600080fd5b505af1925050508015611beb575060408051601f3d908101601f19168201909252611be891810190612816565b60015b611c9857611bf7612e31565b806308c379a01415611c315750611c0c612e4d565b80611c175750611c33565b8060405162461bcd60e51b81526004016106979190612a88565b505b60405162461bcd60e51b815260206004820152603460248201527f455243313135353a207472616e7366657220746f206e6f6e2d455243313135356044820152732932b1b2b4bb32b91034b6b83632b6b2b73a32b960611b6064820152608401610697565b6001600160e01b0319811663bc197c8160e01b146117275760405162461bcd60e51b815260040161069790612a9b565b60045460ff16611d115760405162461bcd60e51b815260206004820152601460248201527314185d5cd8589b194e881b9bdd081c185d5cd95960621b6044820152606401610697565b565b60408051600180825281830190925260609160009190602080830190803683370190505090508281600081518110611d4d57611d4d612e05565b602090810291909101015292915050565b611d688684610af0565b611362576113628686868686866120ed565b60045460ff1615611d115760405162461bcd60e51b815260206004820152601060248201526f14185d5cd8589b194e881c185d5cd95960821b6044820152606401610697565b60606106d16001600160a01b03831660145b60606000611de1836002612d0b565b611dec906002612cf3565b6001600160401b03811115611e0357611e03612e1b565b6040519080825280601f01601f191660200182016040528015611e2d576020820181803683370190505b509050600360fc1b81600081518110611e4857611e48612e05565b60200101906001600160f81b031916908160001a905350600f60fb1b81600181518110611e7757611e77612e05565b60200101906001600160f81b031916908160001a9053506000611e9b846002612d0b565b611ea6906001612cf3565b90505b6001811115611f1e576f181899199a1a9b1b9c1cb0b131b232b360811b85600f1660108110611eda57611eda612e05565b1a60f81b828281518110611ef057611ef0612e05565b60200101906001600160f81b031916908160001a90535060049490941c93611f1781612d56565b9050611ea9565b508315611f6d5760405162461bcd60e51b815260206004820181905260248201527f537472696e67733a20686578206c656e67746820696e73756666696369656e746044820152606401610697565b9392505050565b6001600160a01b038516611ffb5760005b8351811015611ff957828181518110611fa057611fa0612e05565b602002602001015160056000868481518110611fbe57611fbe612e05565b602002602001015181526020019081526020016000206000828254611fe39190612cf3565b90915550611ff2905081612dd4565b9050611f85565b505b6001600160a01b0384166113625760005b835181101561172757600084828151811061202957612029612e05565b60200260200101519050600084838151811061204757612047612e05565b60200260200101519050600060056000848152602001908152602001600020549050818110156120ca5760405162461bcd60e51b815260206004820152602860248201527f455243313135353a206275726e20616d6f756e74206578636565647320746f74604482015267616c537570706c7960c01b6064820152608401610697565b600092835260056020526040909220910390556120e681612dd4565b905061200c565b6001600160a01b0384163b156113625760405163f23a6e6160e01b81526001600160a01b0385169063f23a6e61906121319089908990889088908890600401612a02565b602060405180830381600087803b15801561214b57600080fd5b505af192505050801561217b575060408051601f3d908101601f1916820190925261217891810190612816565b60015b61218757611bf7612e31565b6001600160e01b0319811663f23a6e6160e01b146117275760405162461bcd60e51b815260040161069790612a9b565b8280546121c390612d6d565b90600052602060002090601f0160209004810192826121e5576000855561222b565b82601f106121fe57805160ff191683800117855561222b565b8280016001018555821561222b579182015b8281111561222b578251825591602001919060010190612210565b5061223792915061223b565b5090565b5b80821115612237576000815560010161223c565b60006001600160401b0383111561226957612269612e1b565b604051612280601f8501601f191660200182612da8565b80915083815284848401111561229557600080fd5b83836020830137600060208583010152509392505050565b80356001600160a01b03811681146122c457600080fd5b919050565b600082601f8301126122da57600080fd5b813560206122e782612cd0565b6040516122f48282612da8565b8381528281019150858301600585901b8701840188101561231457600080fd5b60005b8581101561233357813584529284019290840190600101612317565b5090979650505050505050565b803580151581146122c457600080fd5b600082601f83011261236157600080fd5b611f6d83833560208501612250565b60006020828403121561238257600080fd5b611f6d826122ad565b6000806040838503121561239e57600080fd5b6123a7836122ad565b91506123b5602084016122ad565b90509250929050565b600080600080600060a086880312156123d657600080fd5b6123df866122ad565b94506123ed602087016122ad565b935060408601356001600160401b038082111561240957600080fd5b61241589838a016122c9565b9450606088013591508082111561242b57600080fd5b61243789838a016122c9565b9350608088013591508082111561244d57600080fd5b5061245a88828901612350565b9150509295509295909350565b600080600080600060a0868803121561247f57600080fd5b612488866122ad565b9450612496602087016122ad565b9350604086013592506060860135915060808601356001600160401b038111156124bf57600080fd5b61245a88828901612350565b6000806000606084860312156124e057600080fd5b6124e9846122ad565b925060208401356001600160401b038082111561250557600080fd5b612511878388016122c9565b9350604086013591508082111561252757600080fd5b50612534868287016122c9565b9150509250925092565b6000806000806080858703121561255457600080fd5b61255d856122ad565b935060208501356001600160401b038082111561257957600080fd5b612585888389016122c9565b9450604087013591508082111561259b57600080fd5b6125a7888389016122c9565b935060608701359150808211156125bd57600080fd5b506125ca87828801612350565b91505092959194509250565b600080604083850312156125e957600080fd5b6125f2836122ad565b91506123b560208401612340565b6000806040838503121561261357600080fd5b61261c836122ad565b946020939093013593505050565b60008060006060848603121561263f57600080fd5b612648846122ad565b92506020840135915061265d60408501612340565b90509250925092565b60008060006060848603121561267b57600080fd5b612684846122ad565b95602085013595506040909401359392505050565b600080600080608085870312156126af57600080fd5b6126b8856122ad565b9350602085013592506040850135915060608501356001600160401b038111156126e157600080fd5b6125ca87828801612350565b6000806040838503121561270057600080fd5b82356001600160401b038082111561271757600080fd5b818501915085601f83011261272b57600080fd5b8135602061273882612cd0565b6040516127458282612da8565b8381528281019150858301600585901b870184018b101561276557600080fd5b600096505b8487101561278f5761277b816122ad565b83526001969096019591830191830161276a565b50965050860135925050808211156127a657600080fd5b506127b3858286016122c9565b9150509250929050565b6000602082840312156127cf57600080fd5b5035919050565b600080604083850312156127e957600080fd5b823591506123b5602084016122ad565b60006020828403121561280b57600080fd5b8135611f6d81612ed6565b60006020828403121561282857600080fd5b8151611f6d81612ed6565b60006020828403121561284557600080fd5b81356001600160401b0381111561285b57600080fd5b8201601f8101841361286c57600080fd5b61287b84823560208401612250565b949350505050565b6000806040838503121561289657600080fd5b823591506123b560208401612340565b600080604083850312156128b957600080fd5b50508035926020909101359150565b600081518084526020808501945080840160005b838110156128f8578151875295820195908201906001016128dc565b509495945050505050565b6000815180845261291b816020860160208601612d2a565b601f01601f19169290920160200192915050565b7f416363657373436f6e74726f6c3a206163636f756e7420000000000000000000815260008351612967816017850160208801612d2a565b7001034b99036b4b9b9b4b733903937b6329607d1b6017918401918201528351612998816028840160208801612d2a565b01602801949350505050565b6001600160a01b0386811682528516602082015260a0604082018190526000906129d0908301866128c8565b82810360608401526129e281866128c8565b905082810360808401526129f68185612903565b98975050505050505050565b6001600160a01b03868116825285166020820152604081018490526060810183905260a060808201819052600090612a3c90830184612903565b979650505050505050565b602081526000611f6d60208301846128c8565b604081526000612a6d60408301856128c8565b8281036020840152612a7f81856128c8565b95945050505050565b602081526000611f6d6020830184612903565b60208082526028908201527f455243313135353a204552433131353552656365697665722072656a656374656040820152676420746f6b656e7360c01b606082015260800190565b60208082526024908201527f455243313135353a206275726e20616d6f756e7420657863656564732062616c604082015263616e636560e01b606082015260800190565b6020808252602e908201527f455243313135353a2063616c6c6572206973206e6f7420746f6b656e206f776e60408201526d195c881bdc88185c1c1c9bdd995960921b606082015260800190565b60208082526025908201527f455243313135353a207472616e7366657220746f20746865207a65726f206164604082015264647265737360d81b606082015260800190565b60208082526023908201527f455243313135353a206275726e2066726f6d20746865207a65726f206164647260408201526265737360e81b606082015260800190565b6020808252602a908201527f455243313135353a20696e73756666696369656e742062616c616e636520666f60408201526939103a3930b739b332b960b11b606082015260800190565b60208082526028908201527f455243313135353a2069647320616e6420616d6f756e7473206c656e677468206040820152670dad2e6dac2e8c6d60c31b606082015260800190565b60208082526021908201527f455243313135353a206d696e7420746f20746865207a65726f206164647265736040820152607360f81b606082015260800190565b60006001600160401b03821115612ce957612ce9612e1b565b5060051b60200190565b60008219821115612d0657612d06612def565b500190565b6000816000190483118215151615612d2557612d25612def565b500290565b60005b83811015612d45578181015183820152602001612d2d565b838111156116415750506000910152565b600081612d6557612d65612def565b506000190190565b600181811c90821680612d8157607f821691505b60208210811415612da257634e487b7160e01b600052602260045260246000fd5b50919050565b601f8201601f191681016001600160401b0381118282101715612dcd57612dcd612e1b565b6040525050565b6000600019821415612de857612de8612def565b5060010190565b634e487b7160e01b600052601160045260246000fd5b634e487b7160e01b600052603260045260246000fd5b634e487b7160e01b600052604160045260246000fd5b600060033d1115612e4a5760046000803e5060005160e01c5b90565b600060443d1015612e5b5790565b6040516003193d81016004833e81513d6001600160401b038160248401118184111715612e8a57505050505090565b8285019150815181811115612ea25750505050505090565b843d8701016020828501011115612ebc5750505050505090565b612ecb60208286010187612da8565b509095945050505050565b6001600160e01b031981168114610a5357600080fdfe68e79a7bf1e0bc45d0a330c573bc367f9cf464fd326078812f301165fbda4ef17804d923f43a17d325d77e781528e0793b2edd9890ab45fc64efd7b4b427744c65d7a28e3265b37a6474929f336521b332c1681b933f6cb9f3376673440d862a9f2df0fed2c77648de5860a4cc508cd0818c85b8b8a1ab4ceeef8d981c8956a6f04f52d1f685586eac22a7ca73ab9ce0c45b77d01934bed334a9ff223be978a1a264697066735822122082a1a7466dc6dfdf42542c0bd9b011d0f823b1646bfc608a9cf337860fe6512264736f6c63430008070033",
  "devdoc": {
    "author": "Ice Bear & Crash Bandicoot",
    "details": "gETH is chain-agnostic, meaning it can be used on any evm chain * if given the correct name and symbol.gETH is immutable, it can not be upgraded.gETH is a special ERC1155 contract with additional functionalities: gETHMiddlewares: * Most important functionality gETH provides: * Allowing any other contract to provide additional functionality * around the balance and price data, such as using an ID like ERC20. * This addition effectively result in changes in * safeTransferFrom(), burn(), _doSafeTransferAcceptanceCheck() * functions, reasoning is in the comments. Avoiders: * If one wants to remain unbound from gETHMiddlewares, * it can be done so by calling \"avoidMiddlewares\" function. PricePerShare: * Keeping track of the ratio between the derivative * and the underlaying staked asset, Ether. Denominator: * ERC1155 does not have decimals and it is not wise to use the name convention * but we need to provide some information on how to denominate the balances, price, etc.review ERC1155PausableBurnableSupply, which is generated with Openzeppelin wizard.",
    "events": {
      "PriceUpdated(uint256,uint256,uint256)": {
        "custom:section": "** EVENTS **"
      }
    },
    "kind": "dev",
    "methods": {
      "avoidMiddlewares(uint256,bool)": {
        "details": "ADDED for gETH*",
        "params": {
          "isAvoid": "true: restrict middlewares, false: allow middlewares"
        }
      },
      "balanceOf(address,uint256)": {
        "details": "See {IERC1155-balanceOf}. Requirements: - `account` cannot be the zero address."
      },
      "balanceOfBatch(address[],uint256[])": {
        "details": "See {IERC1155-balanceOfBatch}. Requirements: - `accounts` and `ids` must have the same length."
      },
      "burn(address,uint256,uint256)": {
        "details": "CHANGED for gETHADDED \"|| (isMiddleware(_msgSender(), id) && !isAvoider(from, id))\"See ERC1155Burnable burn: https://github.com/OpenZeppelin/openzeppelin-contracts/blob/cf86fd9962701396457e50ab0d6cc78aa29a5ebc/contracts/token/ERC1155/extensions/ERC1155Burnable.sol#L15"
      },
      "constructor": {
        "params": {
          "_name": "chain specific name: Geode Staked Ether, geode Staked Avax etc.",
          "_symbol": "chain specific symbol of the staking derivative: gETH, gGNO, gAVAX, etc.*"
        }
      },
      "denominator()": {
        "details": "ERC1155 does not have a decimals, and it is not wise to use the same nameADDED for gETH"
      },
      "exists(uint256)": {
        "details": "Indicates whether any token exist with a given id, or not."
      },
      "getRoleAdmin(bytes32)": {
        "details": "Returns the admin role that controls `role`. See {grantRole} and {revokeRole}. To change a role's admin, use {_setRoleAdmin}."
      },
      "grantRole(bytes32,address)": {
        "details": "Grants `role` to `account`. If `account` had not been already granted `role`, emits a {RoleGranted} event. Requirements: - the caller must have ``role``'s admin role. May emit a {RoleGranted} event."
      },
      "hasRole(bytes32,address)": {
        "details": "Returns `true` if `account` has been granted `role`."
      },
      "isApprovedForAll(address,address)": {
        "details": "See {IERC1155-isApprovedForAll}."
      },
      "isAvoider(address,uint256)": {
        "details": "ADDED for gETH*",
        "params": {
          "account": "the potential avoider"
        }
      },
      "isMiddleware(address,uint256)": {
        "details": "ADDED for gETH"
      },
      "paused()": {
        "details": "Returns true if the contract is paused, and false otherwise."
      },
      "pricePerShare(uint256)": {
        "details": "ADDED for gETH",
        "returns": {
          "_0": "price of the derivative in terms of underlying token, Ether"
        }
      },
      "priceUpdateTimestamp(uint256)": {
        "details": "ADDED for gETH",
        "returns": {
          "_0": "timestamp of the latest price update for given ID"
        }
      },
      "renounceRole(bytes32,address)": {
        "details": "Revokes `role` from the calling account. Roles are often managed via {grantRole} and {revokeRole}: this function's purpose is to provide a mechanism for accounts to lose their privileges if they are compromised (such as when a trusted device is misplaced). If the calling account had been revoked `role`, emits a {RoleRevoked} event. Requirements: - the caller must be `account`. May emit a {RoleRevoked} event."
      },
      "revokeRole(bytes32,address)": {
        "details": "Revokes `role` from `account`. If `account` had been granted `role`, emits a {RoleRevoked} event. Requirements: - the caller must have ``role``'s admin role. May emit a {RoleRevoked} event."
      },
      "safeBatchTransferFrom(address,address,uint256[],uint256[],bytes)": {
        "details": "See {IERC1155-safeBatchTransferFrom}."
      },
      "safeTransferFrom(address,address,uint256,uint256,bytes)": {
        "details": "CHANGED for gETHADDED \"|| (isMiddleware(_msgSender(), id) && !isAvoider(from, id))\"See ERC1155 safeTransferFrom: https://github.com/OpenZeppelin/openzeppelin-contracts/blob/cf86fd9962701396457e50ab0d6cc78aa29a5ebc/contracts/token/ERC1155/ERC1155.sol#L114"
      },
      "setApprovalForAll(address,bool)": {
        "details": "See {IERC1155-setApprovalForAll}."
      },
      "setMiddleware(address,uint256,bool)": {
        "details": "ADDED for gETH",
        "params": {
          "isSet": "true: sets as an middleware, false: unsets",
          "middleware": "Address of the contract that will act as an middleware"
        }
      },
      "setPricePerShare(uint256,uint256)": {
        "details": "ADDED for gETH"
      },
      "totalSupply(uint256)": {
        "details": "Total amount of tokens in with a given id."
      },
      "transferMiddlewareManagerRole(address)": {
        "details": "MIDDLEWARE MANAGER is basically a superUser, there can be only 1 at a given time,intended as \"Portal\""
      },
      "transferMinterRole(address)": {
        "details": "MINTER is basically a superUser, there can be only 1 at a given time,intended as \"Portal\""
      },
      "transferOracleRole(address)": {
        "details": "ORACLE is basically a superUser, there can be only 1 at a given time,intended as \"Portal\""
      },
      "transferPauserRole(address)": {
        "details": "PAUSER is basically a superUser, there can be only 1 at a given time,intended as \"Portal\""
      },
      "transferUriSetterRole(address)": {
        "details": "URI_SETTER is basically a superuser, there can be only 1 at a given time,intended as \"Governance/DAO\""
      },
      "uri(uint256)": {
        "details": "See {IERC1155MetadataURI-uri}. This implementation returns the same URI for *all* token types. It relies on the token type ID substitution mechanism https://eips.ethereum.org/EIPS/eip-1155#metadata[defined in the EIP]. Clients calling this function must replace the `\\{id\\}` substring with the actual token type ID."
      }
    },
    "stateVariables": {
      "MIDDLEWARE_MANAGER_ROLE": {
        "details": "both of these functions are"
      },
      "_avoiders": {
        "details": "ADDED for gETH*"
      },
      "_middlewares": {
        "details": "There can be multiple Middlewares for 1 staking pool.ADDED for gETH*"
      },
      "_pricePerShare": {
        "details": "Freshly created IDs should return 1e18 since initally 1 ETH = 1 gETHADDED for gETH*"
      },
      "_priceUpdateTimestamp": {
        "details": "ADDED for gETH*"
      },
      "name": {
        "custom:section": "** VARIABLES **"
      }
    },
    "title": "gETH : Geode Finance Liquid Staking Derivatives",
    "version": 1
  },
  "userdoc": {
    "kind": "user",
    "methods": {
      "avoidMiddlewares(uint256,bool)": {
        "notice": "Restrict any affect of middlewares on the tokens of caller"
      },
      "constructor": {
        "notice": "ID to timestamp, pointing the second that the latest price update happened"
      },
      "denominator()": {
        "notice": "a centralized denominator for all contract using gETH"
      },
      "isAvoider(address,uint256)": {
        "notice": "Checks if the given address restricts the affect of the middlewares on their gETH"
      },
      "isMiddleware(address,uint256)": {
        "notice": "Check if an address is approved as an middleware for an ID"
      },
      "setMiddleware(address,uint256,bool)": {
        "notice": "Set an address of a contract that will act as an middleware on gETH contract for a spesific ID"
      },
      "setPricePerShare(uint256,uint256)": {
        "notice": "Only ORACLE can call this function and set price"
      },
      "transferMiddlewareManagerRole(address)": {
        "notice": "transfers the authorized party for middleware management"
      },
      "transferMinterRole(address)": {
        "notice": "transfers the authorized party for Minting operations related to minting"
      },
      "transferOracleRole(address)": {
        "notice": "transfers the authorized party for Oracle operations related to pricing"
      },
      "transferPauserRole(address)": {
        "notice": "transfers the authorized party for Pausing operations."
      },
      "transferUriSetterRole(address)": {
        "notice": "transfers the authorized party for setting a new uri."
      }
    },
    "version": 1
  },
  "storageLayout": {
    "storage": [
      {
        "astId": 20293,
        "contract": "contracts/Portal/gETH.sol:gETH",
        "label": "_balances",
        "offset": 0,
        "slot": "0",
        "type": "t_mapping(t_uint256,t_mapping(t_address,t_uint256))"
      },
      {
        "astId": 20299,
        "contract": "contracts/Portal/gETH.sol:gETH",
        "label": "_operatorApprovals",
        "offset": 0,
        "slot": "1",
        "type": "t_mapping(t_address,t_mapping(t_address,t_bool))"
      },
      {
        "astId": 20301,
        "contract": "contracts/Portal/gETH.sol:gETH",
        "label": "_uri",
        "offset": 0,
        "slot": "2",
        "type": "t_string_storage"
      },
      {
        "astId": 4101,
        "contract": "contracts/Portal/gETH.sol:gETH",
        "label": "_roles",
        "offset": 0,
        "slot": "3",
        "type": "t_mapping(t_bytes32,t_struct(RoleData)4096_storage)"
      },
      {
        "astId": 5103,
        "contract": "contracts/Portal/gETH.sol:gETH",
        "label": "_paused",
        "offset": 0,
        "slot": "4",
        "type": "t_bool"
      },
      {
        "astId": 21569,
        "contract": "contracts/Portal/gETH.sol:gETH",
        "label": "_totalSupply",
        "offset": 0,
        "slot": "5",
        "type": "t_mapping(t_uint256,t_uint256)"
      },
      {
        "astId": 19169,
        "contract": "contracts/Portal/gETH.sol:gETH",
        "label": "name",
        "offset": 0,
        "slot": "6",
        "type": "t_string_storage"
      },
      {
        "astId": 19171,
        "contract": "contracts/Portal/gETH.sol:gETH",
        "label": "symbol",
        "offset": 0,
        "slot": "7",
        "type": "t_string_storage"
      },
      {
        "astId": 19178,
        "contract": "contracts/Portal/gETH.sol:gETH",
        "label": "_middlewares",
        "offset": 0,
        "slot": "8",
        "type": "t_mapping(t_uint256,t_mapping(t_address,t_bool))"
      },
      {
        "astId": 19185,
        "contract": "contracts/Portal/gETH.sol:gETH",
        "label": "_avoiders",
        "offset": 0,
        "slot": "9",
        "type": "t_mapping(t_address,t_mapping(t_uint256,t_bool))"
      },
      {
        "astId": 19190,
        "contract": "contracts/Portal/gETH.sol:gETH",
        "label": "_pricePerShare",
        "offset": 0,
        "slot": "10",
        "type": "t_mapping(t_uint256,t_uint256)"
      },
      {
        "astId": 19195,
        "contract": "contracts/Portal/gETH.sol:gETH",
        "label": "_priceUpdateTimestamp",
        "offset": 0,
        "slot": "11",
        "type": "t_mapping(t_uint256,t_uint256)"
      }
    ],
    "types": {
      "t_address": {
        "encoding": "inplace",
        "label": "address",
        "numberOfBytes": "20"
      },
      "t_bool": {
        "encoding": "inplace",
        "label": "bool",
        "numberOfBytes": "1"
      },
      "t_bytes32": {
        "encoding": "inplace",
        "label": "bytes32",
        "numberOfBytes": "32"
      },
      "t_mapping(t_address,t_bool)": {
        "encoding": "mapping",
        "key": "t_address",
        "label": "mapping(address => bool)",
        "numberOfBytes": "32",
        "value": "t_bool"
      },
      "t_mapping(t_address,t_mapping(t_address,t_bool))": {
        "encoding": "mapping",
        "key": "t_address",
        "label": "mapping(address => mapping(address => bool))",
        "numberOfBytes": "32",
        "value": "t_mapping(t_address,t_bool)"
      },
      "t_mapping(t_address,t_mapping(t_uint256,t_bool))": {
        "encoding": "mapping",
        "key": "t_address",
        "label": "mapping(address => mapping(uint256 => bool))",
        "numberOfBytes": "32",
        "value": "t_mapping(t_uint256,t_bool)"
      },
      "t_mapping(t_address,t_uint256)": {
        "encoding": "mapping",
        "key": "t_address",
        "label": "mapping(address => uint256)",
        "numberOfBytes": "32",
        "value": "t_uint256"
      },
      "t_mapping(t_bytes32,t_struct(RoleData)4096_storage)": {
        "encoding": "mapping",
        "key": "t_bytes32",
        "label": "mapping(bytes32 => struct AccessControl.RoleData)",
        "numberOfBytes": "32",
        "value": "t_struct(RoleData)4096_storage"
      },
      "t_mapping(t_uint256,t_bool)": {
        "encoding": "mapping",
        "key": "t_uint256",
        "label": "mapping(uint256 => bool)",
        "numberOfBytes": "32",
        "value": "t_bool"
      },
      "t_mapping(t_uint256,t_mapping(t_address,t_bool))": {
        "encoding": "mapping",
        "key": "t_uint256",
        "label": "mapping(uint256 => mapping(address => bool))",
        "numberOfBytes": "32",
        "value": "t_mapping(t_address,t_bool)"
      },
      "t_mapping(t_uint256,t_mapping(t_address,t_uint256))": {
        "encoding": "mapping",
        "key": "t_uint256",
        "label": "mapping(uint256 => mapping(address => uint256))",
        "numberOfBytes": "32",
        "value": "t_mapping(t_address,t_uint256)"
      },
      "t_mapping(t_uint256,t_uint256)": {
        "encoding": "mapping",
        "key": "t_uint256",
        "label": "mapping(uint256 => uint256)",
        "numberOfBytes": "32",
        "value": "t_uint256"
      },
      "t_string_storage": {
        "encoding": "bytes",
        "label": "string",
        "numberOfBytes": "32"
      },
      "t_struct(RoleData)4096_storage": {
        "encoding": "inplace",
        "label": "struct AccessControl.RoleData",
        "members": [
          {
            "astId": 4093,
            "contract": "contracts/Portal/gETH.sol:gETH",
            "label": "members",
            "offset": 0,
            "slot": "0",
            "type": "t_mapping(t_address,t_bool)"
          },
          {
            "astId": 4095,
            "contract": "contracts/Portal/gETH.sol:gETH",
            "label": "adminRole",
            "offset": 0,
            "slot": "1",
            "type": "t_bytes32"
          }
        ],
        "numberOfBytes": "64"
      },
      "t_uint256": {
        "encoding": "inplace",
        "label": "uint256",
        "numberOfBytes": "32"
      }
    }
  }
}