{
  "address": "0x7C516910164e9c324574A98BD0B1e557dBEa353D",
  "abi": [
    {
      "inputs": [
        {
          "internalType": "string",
          "name": "uri",
          "type": "string"
        }
      ],
      "stateMutability": "nonpayable",
      "type": "constructor"
    },
    {
      "anonymous": false,
      "inputs": [
        {
          "indexed": true,
          "internalType": "address",
          "name": "account",
          "type": "address"
        },
        {
          "indexed": true,
          "internalType": "address",
          "name": "operator",
          "type": "address"
        },
        {
          "indexed": false,
          "internalType": "bool",
          "name": "approved",
          "type": "bool"
        }
      ],
      "name": "ApprovalForAll",
      "type": "event"
    },
    {
      "anonymous": false,
      "inputs": [
        {
          "indexed": true,
          "internalType": "address",
          "name": "newInterface",
          "type": "address"
        },
        {
          "indexed": false,
          "internalType": "uint256",
          "name": "id",
          "type": "uint256"
        },
        {
          "indexed": false,
          "internalType": "bool",
          "name": "isSet",
          "type": "bool"
        }
      ],
      "name": "InterfaceChanged",
      "type": "event"
    },
    {
      "anonymous": false,
      "inputs": [
        {
          "indexed": true,
          "internalType": "address",
          "name": "avoider",
          "type": "address"
        },
        {
          "indexed": false,
          "internalType": "uint256",
          "name": "id",
          "type": "uint256"
        },
        {
          "indexed": false,
          "internalType": "bool",
          "name": "isAvoid",
          "type": "bool"
        }
      ],
      "name": "InterfacesAvoided",
      "type": "event"
    },
    {
      "anonymous": false,
      "inputs": [
        {
          "indexed": false,
          "internalType": "address",
          "name": "account",
          "type": "address"
        }
      ],
      "name": "Paused",
      "type": "event"
    },
    {
      "anonymous": false,
      "inputs": [
        {
          "indexed": false,
          "internalType": "uint256",
          "name": "id",
          "type": "uint256"
        },
        {
          "indexed": false,
          "internalType": "uint256",
          "name": "pricePerShare",
          "type": "uint256"
        },
        {
          "indexed": false,
          "internalType": "uint256",
          "name": "updateTimestamp",
          "type": "uint256"
        }
      ],
      "name": "PriceUpdated",
      "type": "event"
    },
    {
      "anonymous": false,
      "inputs": [
        {
          "indexed": true,
          "internalType": "bytes32",
          "name": "role",
          "type": "bytes32"
        },
        {
          "indexed": true,
          "internalType": "bytes32",
          "name": "previousAdminRole",
          "type": "bytes32"
        },
        {
          "indexed": true,
          "internalType": "bytes32",
          "name": "newAdminRole",
          "type": "bytes32"
        }
      ],
      "name": "RoleAdminChanged",
      "type": "event"
    },
    {
      "anonymous": false,
      "inputs": [
        {
          "indexed": true,
          "internalType": "bytes32",
          "name": "role",
          "type": "bytes32"
        },
        {
          "indexed": true,
          "internalType": "address",
          "name": "account",
          "type": "address"
        },
        {
          "indexed": true,
          "internalType": "address",
          "name": "sender",
          "type": "address"
        }
      ],
      "name": "RoleGranted",
      "type": "event"
    },
    {
      "anonymous": false,
      "inputs": [
        {
          "indexed": true,
          "internalType": "bytes32",
          "name": "role",
          "type": "bytes32"
        },
        {
          "indexed": true,
          "internalType": "address",
          "name": "account",
          "type": "address"
        },
        {
          "indexed": true,
          "internalType": "address",
          "name": "sender",
          "type": "address"
        }
      ],
      "name": "RoleRevoked",
      "type": "event"
    },
    {
      "anonymous": false,
      "inputs": [
        {
          "indexed": true,
          "internalType": "address",
          "name": "operator",
          "type": "address"
        },
        {
          "indexed": true,
          "internalType": "address",
          "name": "from",
          "type": "address"
        },
        {
          "indexed": true,
          "internalType": "address",
          "name": "to",
          "type": "address"
        },
        {
          "indexed": false,
          "internalType": "uint256[]",
          "name": "ids",
          "type": "uint256[]"
        },
        {
          "indexed": false,
          "internalType": "uint256[]",
          "name": "values",
          "type": "uint256[]"
        }
      ],
      "name": "TransferBatch",
      "type": "event"
    },
    {
      "anonymous": false,
      "inputs": [
        {
          "indexed": true,
          "internalType": "address",
          "name": "operator",
          "type": "address"
        },
        {
          "indexed": true,
          "internalType": "address",
          "name": "from",
          "type": "address"
        },
        {
          "indexed": true,
          "internalType": "address",
          "name": "to",
          "type": "address"
        },
        {
          "indexed": false,
          "internalType": "uint256",
          "name": "id",
          "type": "uint256"
        },
        {
          "indexed": false,
          "internalType": "uint256",
          "name": "value",
          "type": "uint256"
        }
      ],
      "name": "TransferSingle",
      "type": "event"
    },
    {
      "anonymous": false,
      "inputs": [
        {
          "indexed": false,
          "internalType": "string",
          "name": "value",
          "type": "string"
        },
        {
          "indexed": true,
          "internalType": "uint256",
          "name": "id",
          "type": "uint256"
        }
      ],
      "name": "URI",
      "type": "event"
    },
    {
      "anonymous": false,
      "inputs": [
        {
          "indexed": false,
          "internalType": "address",
          "name": "account",
          "type": "address"
        }
      ],
      "name": "Unpaused",
      "type": "event"
    },
    {
      "inputs": [],
      "name": "DEFAULT_ADMIN_ROLE",
      "outputs": [
        {
          "internalType": "bytes32",
          "name": "",
          "type": "bytes32"
        }
      ],
      "stateMutability": "view",
      "type": "function"
    },
    {
      "inputs": [],
      "name": "MINTER_ROLE",
      "outputs": [
        {
          "internalType": "bytes32",
          "name": "",
          "type": "bytes32"
        }
      ],
      "stateMutability": "view",
      "type": "function"
    },
    {
      "inputs": [],
      "name": "ORACLE_ROLE",
      "outputs": [
        {
          "internalType": "bytes32",
          "name": "",
          "type": "bytes32"
        }
      ],
      "stateMutability": "view",
      "type": "function"
    },
    {
      "inputs": [],
      "name": "PAUSER_ROLE",
      "outputs": [
        {
          "internalType": "bytes32",
          "name": "",
          "type": "bytes32"
        }
      ],
      "stateMutability": "view",
      "type": "function"
    },
    {
      "inputs": [
        {
          "internalType": "uint256",
          "name": "id",
          "type": "uint256"
        },
        {
          "internalType": "bool",
          "name": "isAvoid",
          "type": "bool"
        }
      ],
      "name": "avoidInterfaces",
      "outputs": [],
      "stateMutability": "nonpayable",
      "type": "function"
    },
    {
      "inputs": [
        {
          "internalType": "address",
          "name": "account",
          "type": "address"
        },
        {
          "internalType": "uint256",
          "name": "id",
          "type": "uint256"
        }
      ],
      "name": "balanceOf",
      "outputs": [
        {
          "internalType": "uint256",
          "name": "",
          "type": "uint256"
        }
      ],
      "stateMutability": "view",
      "type": "function"
    },
    {
      "inputs": [
        {
          "internalType": "address[]",
          "name": "accounts",
          "type": "address[]"
        },
        {
          "internalType": "uint256[]",
          "name": "ids",
          "type": "uint256[]"
        }
      ],
      "name": "balanceOfBatch",
      "outputs": [
        {
          "internalType": "uint256[]",
          "name": "",
          "type": "uint256[]"
        }
      ],
      "stateMutability": "view",
      "type": "function"
    },
    {
      "inputs": [
        {
          "internalType": "address",
          "name": "account",
          "type": "address"
        },
        {
          "internalType": "uint256",
          "name": "id",
          "type": "uint256"
        },
        {
          "internalType": "uint256",
          "name": "value",
          "type": "uint256"
        }
      ],
      "name": "burn",
      "outputs": [],
      "stateMutability": "nonpayable",
      "type": "function"
    },
    {
      "inputs": [
        {
          "internalType": "address",
          "name": "account",
          "type": "address"
        },
        {
          "internalType": "uint256[]",
          "name": "ids",
          "type": "uint256[]"
        },
        {
          "internalType": "uint256[]",
          "name": "values",
          "type": "uint256[]"
        }
      ],
      "name": "burnBatch",
      "outputs": [],
      "stateMutability": "nonpayable",
      "type": "function"
    },
    {
      "inputs": [],
      "name": "denominator",
      "outputs": [
        {
          "internalType": "uint256",
          "name": "",
          "type": "uint256"
        }
      ],
      "stateMutability": "view",
      "type": "function"
    },
    {
      "inputs": [
        {
          "internalType": "uint256",
          "name": "id",
          "type": "uint256"
        }
      ],
      "name": "exists",
      "outputs": [
        {
          "internalType": "bool",
          "name": "",
          "type": "bool"
        }
      ],
      "stateMutability": "view",
      "type": "function"
    },
    {
      "inputs": [
        {
          "internalType": "bytes32",
          "name": "role",
          "type": "bytes32"
        }
      ],
      "name": "getRoleAdmin",
      "outputs": [
        {
          "internalType": "bytes32",
          "name": "",
          "type": "bytes32"
        }
      ],
      "stateMutability": "view",
      "type": "function"
    },
    {
      "inputs": [
        {
          "internalType": "bytes32",
          "name": "role",
          "type": "bytes32"
        },
        {
          "internalType": "uint256",
          "name": "index",
          "type": "uint256"
        }
      ],
      "name": "getRoleMember",
      "outputs": [
        {
          "internalType": "address",
          "name": "",
          "type": "address"
        }
      ],
      "stateMutability": "view",
      "type": "function"
    },
    {
      "inputs": [
        {
          "internalType": "bytes32",
          "name": "role",
          "type": "bytes32"
        }
      ],
      "name": "getRoleMemberCount",
      "outputs": [
        {
          "internalType": "uint256",
          "name": "",
          "type": "uint256"
        }
      ],
      "stateMutability": "view",
      "type": "function"
    },
    {
      "inputs": [
        {
          "internalType": "bytes32",
          "name": "role",
          "type": "bytes32"
        },
        {
          "internalType": "address",
          "name": "account",
          "type": "address"
        }
      ],
      "name": "grantRole",
      "outputs": [],
      "stateMutability": "nonpayable",
      "type": "function"
    },
    {
      "inputs": [
        {
          "internalType": "bytes32",
          "name": "role",
          "type": "bytes32"
        },
        {
          "internalType": "address",
          "name": "account",
          "type": "address"
        }
      ],
      "name": "hasRole",
      "outputs": [
        {
          "internalType": "bool",
          "name": "",
          "type": "bool"
        }
      ],
      "stateMutability": "view",
      "type": "function"
    },
    {
      "inputs": [
        {
          "internalType": "address",
          "name": "account",
          "type": "address"
        },
        {
          "internalType": "address",
          "name": "operator",
          "type": "address"
        }
      ],
      "name": "isApprovedForAll",
      "outputs": [
        {
          "internalType": "bool",
          "name": "",
          "type": "bool"
        }
      ],
      "stateMutability": "view",
      "type": "function"
    },
    {
      "inputs": [
        {
          "internalType": "address",
          "name": "account",
          "type": "address"
        },
        {
          "internalType": "uint256",
          "name": "id",
          "type": "uint256"
        }
      ],
      "name": "isAvoider",
      "outputs": [
        {
          "internalType": "bool",
          "name": "",
          "type": "bool"
        }
      ],
      "stateMutability": "view",
      "type": "function"
    },
    {
      "inputs": [
        {
          "internalType": "address",
          "name": "_interface",
          "type": "address"
        },
        {
          "internalType": "uint256",
          "name": "id",
          "type": "uint256"
        }
      ],
      "name": "isInterface",
      "outputs": [
        {
          "internalType": "bool",
          "name": "",
          "type": "bool"
        }
      ],
      "stateMutability": "view",
      "type": "function"
    },
    {
      "inputs": [
        {
          "internalType": "address",
          "name": "to",
          "type": "address"
        },
        {
          "internalType": "uint256",
          "name": "id",
          "type": "uint256"
        },
        {
          "internalType": "uint256",
          "name": "amount",
          "type": "uint256"
        },
        {
          "internalType": "bytes",
          "name": "data",
          "type": "bytes"
        }
      ],
      "name": "mint",
      "outputs": [],
      "stateMutability": "nonpayable",
      "type": "function"
    },
    {
      "inputs": [
        {
          "internalType": "address",
          "name": "to",
          "type": "address"
        },
        {
          "internalType": "uint256[]",
          "name": "ids",
          "type": "uint256[]"
        },
        {
          "internalType": "uint256[]",
          "name": "amounts",
          "type": "uint256[]"
        },
        {
          "internalType": "bytes",
          "name": "data",
          "type": "bytes"
        }
      ],
      "name": "mintBatch",
      "outputs": [],
      "stateMutability": "nonpayable",
      "type": "function"
    },
    {
      "inputs": [],
      "name": "name",
      "outputs": [
        {
          "internalType": "string",
          "name": "",
          "type": "string"
        }
      ],
      "stateMutability": "view",
      "type": "function"
    },
    {
      "inputs": [],
      "name": "pause",
      "outputs": [],
      "stateMutability": "nonpayable",
      "type": "function"
    },
    {
      "inputs": [],
      "name": "paused",
      "outputs": [
        {
          "internalType": "bool",
          "name": "",
          "type": "bool"
        }
      ],
      "stateMutability": "view",
      "type": "function"
    },
    {
      "inputs": [
        {
          "internalType": "uint256",
          "name": "id",
          "type": "uint256"
        }
      ],
      "name": "pricePerShare",
      "outputs": [
        {
          "internalType": "uint256",
          "name": "",
          "type": "uint256"
        }
      ],
      "stateMutability": "view",
      "type": "function"
    },
    {
      "inputs": [
        {
          "internalType": "uint256",
          "name": "id",
          "type": "uint256"
        }
      ],
      "name": "priceUpdateTimestamp",
      "outputs": [
        {
          "internalType": "uint256",
          "name": "",
          "type": "uint256"
        }
      ],
      "stateMutability": "view",
      "type": "function"
    },
    {
      "inputs": [
        {
          "internalType": "bytes32",
          "name": "role",
          "type": "bytes32"
        },
        {
          "internalType": "address",
          "name": "account",
          "type": "address"
        }
      ],
      "name": "renounceRole",
      "outputs": [],
      "stateMutability": "nonpayable",
      "type": "function"
    },
    {
      "inputs": [
        {
          "internalType": "bytes32",
          "name": "role",
          "type": "bytes32"
        },
        {
          "internalType": "address",
          "name": "account",
          "type": "address"
        }
      ],
      "name": "revokeRole",
      "outputs": [],
      "stateMutability": "nonpayable",
      "type": "function"
    },
    {
      "inputs": [
        {
          "internalType": "address",
          "name": "from",
          "type": "address"
        },
        {
          "internalType": "address",
          "name": "to",
          "type": "address"
        },
        {
          "internalType": "uint256[]",
          "name": "ids",
          "type": "uint256[]"
        },
        {
          "internalType": "uint256[]",
          "name": "amounts",
          "type": "uint256[]"
        },
        {
          "internalType": "bytes",
          "name": "data",
          "type": "bytes"
        }
      ],
      "name": "safeBatchTransferFrom",
      "outputs": [],
      "stateMutability": "nonpayable",
      "type": "function"
    },
    {
      "inputs": [
        {
          "internalType": "address",
          "name": "from",
          "type": "address"
        },
        {
          "internalType": "address",
          "name": "to",
          "type": "address"
        },
        {
          "internalType": "uint256",
          "name": "id",
          "type": "uint256"
        },
        {
          "internalType": "uint256",
          "name": "amount",
          "type": "uint256"
        },
        {
          "internalType": "bytes",
          "name": "data",
          "type": "bytes"
        }
      ],
      "name": "safeTransferFrom",
      "outputs": [],
      "stateMutability": "nonpayable",
      "type": "function"
    },
    {
      "inputs": [
        {
          "internalType": "address",
          "name": "operator",
          "type": "address"
        },
        {
          "internalType": "bool",
          "name": "approved",
          "type": "bool"
        }
      ],
      "name": "setApprovalForAll",
      "outputs": [],
      "stateMutability": "nonpayable",
      "type": "function"
    },
    {
      "inputs": [
        {
          "internalType": "address",
          "name": "_interface",
          "type": "address"
        },
        {
          "internalType": "uint256",
          "name": "id",
          "type": "uint256"
        },
        {
          "internalType": "bool",
          "name": "isSet",
          "type": "bool"
        }
      ],
      "name": "setInterface",
      "outputs": [],
      "stateMutability": "nonpayable",
      "type": "function"
    },
    {
      "inputs": [
        {
          "internalType": "uint256",
          "name": "price",
          "type": "uint256"
        },
        {
          "internalType": "uint256",
          "name": "id",
          "type": "uint256"
        }
      ],
      "name": "setPricePerShare",
      "outputs": [],
      "stateMutability": "nonpayable",
      "type": "function"
    },
    {
      "inputs": [
        {
          "internalType": "bytes4",
          "name": "interfaceId",
          "type": "bytes4"
        }
      ],
      "name": "supportsInterface",
      "outputs": [
        {
          "internalType": "bool",
          "name": "",
          "type": "bool"
        }
      ],
      "stateMutability": "view",
      "type": "function"
    },
    {
      "inputs": [],
      "name": "symbol",
      "outputs": [
        {
          "internalType": "string",
          "name": "",
          "type": "string"
        }
      ],
      "stateMutability": "view",
      "type": "function"
    },
    {
      "inputs": [
        {
          "internalType": "uint256",
          "name": "id",
          "type": "uint256"
        }
      ],
      "name": "totalSupply",
      "outputs": [
        {
          "internalType": "uint256",
          "name": "",
          "type": "uint256"
        }
      ],
      "stateMutability": "view",
      "type": "function"
    },
    {
      "inputs": [],
      "name": "unpause",
      "outputs": [],
      "stateMutability": "nonpayable",
      "type": "function"
    },
    {
      "inputs": [
        {
          "internalType": "address",
          "name": "Minter",
          "type": "address"
        }
      ],
      "name": "updateMinterRole",
      "outputs": [],
      "stateMutability": "nonpayable",
      "type": "function"
    },
    {
      "inputs": [
        {
          "internalType": "address",
          "name": "Oracle",
          "type": "address"
        }
      ],
      "name": "updateOracleRole",
      "outputs": [],
      "stateMutability": "nonpayable",
      "type": "function"
    },
    {
      "inputs": [
        {
          "internalType": "address",
          "name": "Pauser",
          "type": "address"
        }
      ],
      "name": "updatePauserRole",
      "outputs": [],
      "stateMutability": "nonpayable",
      "type": "function"
    },
    {
      "inputs": [
        {
          "internalType": "uint256",
          "name": "",
          "type": "uint256"
        }
      ],
      "name": "uri",
      "outputs": [
        {
          "internalType": "string",
          "name": "",
          "type": "string"
        }
      ],
      "stateMutability": "view",
      "type": "function"
    }
  ],
  "transactionHash": "0xc05ab5eda6fc715a79a1c278b8123123b53693a85164d79120173a74de591c3a",
  "args": [
    "https://api.geode.fi/geth"
  ],
  "numDeployments": 1,
  "solcInputHash": "ade6b4939fda34d609e172906ec4e12a",
  "bytecode": "0x60806040523480156200001157600080fd5b506040516200386f3803806200386f8339810160408190526200003491620002ff565b80806200004181620000e5565b506005805460ff1916905562000059600033620000fe565b620000857f9f2df0fed2c77648de5860a4cc508cd0818c85b8b8a1ab4ceeef8d981c8956a633620000fe565b620000b17f65d7a28e3265b37a6474929f336521b332c1681b933f6cb9f3376673440d862a33620000fe565b50620000de7f68e79a7bf1e0bc45d0a330c573bc367f9cf464fd326078812f301165fbda4ef133620000fe565b506200042e565b8051620000fa90600490602084019062000259565b5050565b620000fa82826200011b82826200014760201b620011ad1760201c565b60008281526001602090815260409091206200014291839062001231620001e7821b17901c565b505050565b6000828152602081815260408083206001600160a01b038516845290915290205460ff16620000fa576000828152602081815260408083206001600160a01b03851684529091529020805460ff19166001179055620001a33390565b6001600160a01b0316816001600160a01b0316837f2f8788117e7eff1d82e926ec794901d17c78024a50270940304540a733656f0d60405160405180910390a45050565b6000620001fe836001600160a01b03841662000207565b90505b92915050565b6000818152600183016020526040812054620002505750815460018181018455600084815260208082209093018490558454848252828601909352604090209190915562000201565b50600062000201565b8280546200026790620003db565b90600052602060002090601f0160209004810192826200028b5760008555620002d6565b82601f10620002a657805160ff1916838001178555620002d6565b82800160010185558215620002d6579182015b82811115620002d6578251825591602001919060010190620002b9565b50620002e4929150620002e8565b5090565b5b80821115620002e45760008155600101620002e9565b600060208083850312156200031357600080fd5b82516001600160401b03808211156200032b57600080fd5b818501915085601f8301126200034057600080fd5b81518181111562000355576200035562000418565b604051601f8201601f19908116603f0116810190838211818310171562000380576200038062000418565b8160405282815288868487010111156200039957600080fd5b600093505b82841015620003bd57848401860151818501870152928501926200039e565b82841115620003cf5760008684830101525b98975050505050505050565b600181811c90821680620003f057607f821691505b602082108114156200041257634e487b7160e01b600052602260045260246000fd5b50919050565b634e487b7160e01b600052604160045260246000fd5b613431806200043e6000396000f3fe608060405234801561001057600080fd5b50600436106102525760003560e01c80639010d07c11610146578063ca15c873116100c3578063e985e9c511610087578063e985e9c514610586578063f242432a146105c2578063f5298aca146105d5578063f759cc3b146105e8578063f8ae49b414610608578063fcd295e31461061b57600080fd5b8063ca15c87314610523578063d539139314610536578063d547741f1461054b578063dc3036a31461055e578063e63ab1e91461057157600080fd5b806397e86e901161010a57806397e86e90146104c25780639ec0f804146104d5578063a217fddf146104e8578063a22cb465146104f0578063bd85b0391461050357600080fd5b80639010d07c14610433578063908d67ed1461045e57806391d148541461047e57806395d89b411461049157806396ce0795146104b457600080fd5b80632eb2c2d6116101d45780634f558e79116101985780634f558e79146103d85780635c975abb146103fa5780636b20c45414610405578063731133e9146104185780638456cb591461042b57600080fd5b80632eb2c2d6146103775780632f2ff15d1461038a57806336568abe1461039d5780633f4ba83a146103b05780634e1273f4146103b857600080fd5b80630b1f736b1161021b5780630b1f736b146103065780630e89341c1461031b5780631f7fdffa1461032e57806322af599714610341578063248a9ca31461035457600080fd5b8062fdd58e1461025757806301ffc9a71461027d57806306fdde03146102a0578063072650d2146102de57806307e2cea5146102f1575b600080fd5b61026a6102653660046129bd565b61062e565b6040519081526020015b60405180910390f35b61029061028b366004612bda565b6106c9565b6040519015158152602001610274565b6102d16040518060400160405280601281526020017123b2b7b2329029ba30b5b2b21022ba3432b960711b81525081565b6040516102749190612df7565b6102906102ec3660046129bd565b6106d4565b61026a60008051602061339c83398151915281565b610319610314366004612729565b6106ff565b005b6102d1610329366004612b7c565b610796565b61031961033c3660046128fa565b61082a565b61031961034f366004612bb8565b610870565b61026a610362366004612b7c565b60009081526020819052604090206001015490565b610319610385366004612777565b610990565b610319610398366004612b95565b6109dc565b6103196103ab366004612b95565b610a06565b610319610a84565b6103cb6103c6366004612aab565b610b18565b6040516102749190612db6565b6102906103e6366004612b7c565b600090815260066020526040902054151590565b60055460ff16610290565b610319610413366004612886565b610c42565b610319610426366004612a56565b610c85565b610319610cc5565b610446610441366004612bb8565b610d57565b6040516001600160a01b039091168152602001610274565b61026a61046c366004612b7c565b6000908152600a602052604090205490565b61029061048c366004612b95565b610d76565b6102d1604051806040016040528060048152602001630ce8aa8960e31b81525081565b670de0b6b3a764000061026a565b6103196104d0366004612729565b610d9f565b6103196104e33660046129e7565b610e33565b61026a600081565b6103196104fe366004612993565b610f4f565b61026a610511366004612b7c565b60009081526006602052604090205490565b61026a610531366004612b7c565b610f5a565b61026a6000805160206133dc83398151915281565b610319610559366004612b95565b610f71565b61031961056c366004612c14565b610f96565b61026a6000805160206133bc83398151915281565b610290610594366004612744565b6001600160a01b03918216600090815260036020908152604080832093909416825291909152205460ff1690565b6103196105d0366004612821565b610ff8565b6103196105e3366004612a23565b611060565b61026a6105f6366004612b7c565b60009081526009602052604090205490565b610319610616366004612729565b6110c6565b6102906106293660046129bd565b61115a565b60006001600160a01b03831661069e5760405162461bcd60e51b815260206004820152602a60248201527f455243313135353a2061646472657373207a65726f206973206e6f742061207660448201526930b634b21037bbb732b960b11b60648201526084015b60405180910390fd5b5060008181526002602090815260408083206001600160a01b03861684529091529020545b92915050565b60006106c382611246565b6001600160a01b03919091166000908152600860209081526040808320938352929052205460ff1690565b6107176000805160206133bc83398151915233610d76565b6107635760405162461bcd60e51b815260206004820152601b60248201527f674554483a206d7573742068617665205041555345525f524f4c4500000000006044820152606401610695565b61077b6000805160206133bc83398151915233610a06565b6107936000805160206133bc83398151915282611286565b50565b6060600480546107a590613204565b80601f01602080910402602001604051908101604052809291908181526020018280546107d190613204565b801561081e5780601f106107f35761010080835404028352916020019161081e565b820191906000526020600020905b81548152906001019060200180831161080157829003601f168201915b50505050509050919050565b6108426000805160206133dc83398151915233610d76565b61085e5760405162461bcd60e51b815260040161069590612fd5565b61086a84848484611290565b50505050565b61088860008051602061339c83398151915233610d76565b6108d45760405162461bcd60e51b815260206004820152601d60248201527f674554483a206d7573742068617665204f5241434c4520746f207365740000006044820152606401610695565b806109305760405162461bcd60e51b815260206004820152602660248201527f674554483a20707269636520717565727920666f7220746865207a65726f206160448201526564647265737360d01b6064820152608401610695565b6000818152600960209081526040808320859055600a825291829020429081905582518481529182018590528183015290517f15819dd2fd9f6418b142e798d08a18d0bf06ea368f4480b7b0d3f75bd966bc489181900360600190a15050565b6001600160a01b0385163314806109ac57506109ac8533610594565b6109c85760405162461bcd60e51b815260040161069590612e0a565b6109d585858585856113eb565b5050505050565b6000828152602081905260409020600101546109f781611598565b610a0183836115a2565b505050565b6001600160a01b0381163314610a765760405162461bcd60e51b815260206004820152602f60248201527f416363657373436f6e74726f6c3a2063616e206f6e6c792072656e6f756e636560448201526e103937b632b9903337b91039b2b63360891b6064820152608401610695565b610a8082826115c4565b5050565b610a9c6000805160206133bc83398151915233610d76565b610b0e5760405162461bcd60e51b815260206004820152603b60248201527f455243313135355072657365744d696e7465725061757365723a206d7573742060448201527f686176652070617573657220726f6c6520746f20756e706175736500000000006064820152608401610695565b610b166115e6565b565b60608151835114610b7d5760405162461bcd60e51b815260206004820152602960248201527f455243313135353a206163636f756e747320616e6420696473206c656e677468604482015268040dad2e6dac2e8c6d60bb1b6064820152608401610695565b6000835167ffffffffffffffff811115610b9957610b996132c9565b604051908082528060200260200182016040528015610bc2578160200160208202803683370190505b50905060005b8451811015610c3a57610c0d858281518110610be657610be66132b3565b6020026020010151858381518110610c0057610c006132b3565b602002602001015161062e565b828281518110610c1f57610c1f6132b3565b6020908102919091010152610c338161326c565b9050610bc8565b509392505050565b6001600160a01b038316331480610c5e5750610c5e8333610594565b610c7a5760405162461bcd60e51b815260040161069590612e0a565b610a01838383611638565b610c9d6000805160206133dc83398151915233610d76565b610cb95760405162461bcd60e51b815260040161069590612fd5565b61086a848484846117d7565b610cdd6000805160206133bc83398151915233610d76565b610d4f5760405162461bcd60e51b815260206004820152603960248201527f455243313135355072657365744d696e7465725061757365723a206d7573742060448201527f686176652070617573657220726f6c6520746f207061757365000000000000006064820152608401610695565b610b166118c2565b6000828152600160205260408120610d6f90836118ff565b9392505050565b6000918252602082815260408084206001600160a01b0393909316845291905290205460ff1690565b610db76000805160206133dc83398151915233610d76565b610e035760405162461bcd60e51b815260206004820152601b60248201527f674554483a206d7573742068617665204d494e5445525f524f4c4500000000006044820152606401610695565b610e1b6000805160206133dc83398151915233610a06565b6107936000805160206133dc83398151915282611286565b610e4b6000805160206133dc83398151915233610d76565b610e975760405162461bcd60e51b815260206004820152601b60248201527f674554483a206d7573742068617665204d494e5445525f524f4c4500000000006044820152606401610695565b6001600160a01b0383163b610efa5760405162461bcd60e51b815260206004820152602360248201527f674554483a205f696e74657266616365206d757374206265206120636f6e74726044820152621858dd60ea1b6064820152608401610695565b610f0583838361190b565b6040805183815282151560208201526001600160a01b038516917f7da91fcb8c7796fb7d8e6b517641dbbe436fff55f5faab2a1c161c7d83bdbc46910160405180910390a2505050565b610a80338383611967565b60008181526001602052604081206106c390611a48565b600082815260208190526040902060010154610f8c81611598565b610a0183836115c4565b336000818152600860209081526040808320868452825291829020805460ff19168515159081179091558251868152918201527f7ee94177e42e15d5c9d138efc0db52eaa0ae11583aec3b0931217448c502509f910160405180910390a25050565b6001600160a01b03851633148061101457506110148533610594565b806110375750611024338461115a565b8015611037575061103585846106d4565b155b6110535760405162461bcd60e51b815260040161069590612ee5565b6109d58585858585611a52565b6001600160a01b03831633148061107c575061107c8333610594565b8061109f575061108c338361115a565b801561109f575061109d83836106d4565b155b6110bb5760405162461bcd60e51b815260040161069590612ee5565b610a01838383611b8e565b6110de60008051602061339c83398151915233610d76565b61112a5760405162461bcd60e51b815260206004820152601b60248201527f674554483a206d7573742068617665204f5241434c455f524f4c4500000000006044820152606401610695565b61114260008051602061339c83398151915233610a06565b61079360008051602061339c83398151915282611286565b60006001600160a01b0383166111825760405162461bcd60e51b81526004016106959061307c565b5060009081526007602090815260408083206001600160a01b03949094168352929052205460ff1690565b6111b78282610d76565b610a80576000828152602081815260408083206001600160a01b03851684529091529020805460ff191660011790556111ed3390565b6001600160a01b0316816001600160a01b0316837f2f8788117e7eff1d82e926ec794901d17c78024a50270940304540a733656f0d60405160405180910390a45050565b6000610d6f836001600160a01b038416611caa565b60006001600160e01b03198216636cdb3d1360e11b148061127757506001600160e01b031982166303a24d0760e21b145b806106c357506106c382611cf9565b610a8082826115a2565b6001600160a01b0384166112b65760405162461bcd60e51b81526004016106959061310e565b81518351146112d75760405162461bcd60e51b8152600401610695906130c6565b336112e781600087878787611d1e565b60005b845181101561138357838181518110611305576113056132b3565b602002602001015160026000878481518110611323576113236132b3565b602002602001015181526020019081526020016000206000886001600160a01b03166001600160a01b03168152602001908152602001600020600082825461136b9190613173565b9091555081905061137b8161326c565b9150506112ea565b50846001600160a01b031660006001600160a01b0316826001600160a01b03167f4a39dc06d4c0dbc64b70af90fd698a233a518aa5d07e595d983b8c0526c8f7fb87876040516113d4929190612dc9565b60405180910390a46109d581600087878787611d2c565b815183511461140c5760405162461bcd60e51b8152600401610695906130c6565b6001600160a01b0384166114325760405162461bcd60e51b815260040161069590612f4d565b33611441818787878787611d1e565b60005b845181101561152a576000858281518110611461576114616132b3565b60200260200101519050600085838151811061147f5761147f6132b3565b60209081029190910181015160008481526002835260408082206001600160a01b038e1683529093529190912054909150818110156114d05760405162461bcd60e51b815260040161069590613032565b60008381526002602090815260408083206001600160a01b038e8116855292528083208585039055908b1682528120805484929061150f908490613173565b92505081905550505050806115239061326c565b9050611444565b50846001600160a01b0316866001600160a01b0316826001600160a01b03167f4a39dc06d4c0dbc64b70af90fd698a233a518aa5d07e595d983b8c0526c8f7fb878760405161157a929190612dc9565b60405180910390a4611590818787878787611d2c565b505050505050565b6107938133611e97565b6115ac82826111ad565b6000828152600160205260409020610a019082611231565b6115ce8282611ef0565b6000828152600160205260409020610a019082611f55565b6115ee611f6a565b6005805460ff191690557f5db9ee0a495bf2e6ff9c91a7834c1ba4fdd244a5e8aa4e537bd38aeae4b073aa335b6040516001600160a01b03909116815260200160405180910390a1565b6001600160a01b03831661165e5760405162461bcd60e51b815260040161069590612f92565b805182511461167f5760405162461bcd60e51b8152600401610695906130c6565b60003390506116a281856000868660405180602001604052806000815250611d1e565b60005b835181101561176a5760008482815181106116c2576116c26132b3565b6020026020010151905060008483815181106116e0576116e06132b3565b60209081029190910181015160008481526002835260408082206001600160a01b038c1683529093529190912054909150818110156117315760405162461bcd60e51b815260040161069590612ea1565b60009283526002602090815260408085206001600160a01b038b16865290915290922091039055806117628161326c565b9150506116a5565b5060006001600160a01b0316846001600160a01b0316826001600160a01b03167f4a39dc06d4c0dbc64b70af90fd698a233a518aa5d07e595d983b8c0526c8f7fb86866040516117bb929190612dc9565b60405180910390a460408051602081019091526000905261086a565b6001600160a01b0384166117fd5760405162461bcd60e51b81526004016106959061310e565b33600061180985611fb3565b9050600061181685611fb3565b905061182783600089858589611d1e565b60008681526002602090815260408083206001600160a01b038b16845290915281208054879290611859908490613173565b909155505060408051878152602081018790526001600160a01b03808a1692600092918716917fc3d58168c5ae7397731d063d5bbf3d657854427343f4c083240f7aacaa2d0f62910160405180910390a46118b983600089898989611ffe565b50505050505050565b6118ca6120dd565b6005805460ff191660011790557f62e78cea01bee320cd4e420270b5ea74000d11b0c9f74754ebdbfc544b05a25861161b3390565b6000610d6f8383612123565b6001600160a01b0383166119315760405162461bcd60e51b81526004016106959061307c565b60009182526007602090815260408084206001600160a01b03959095168452939052919020805460ff1916911515919091179055565b816001600160a01b0316836001600160a01b031614156119db5760405162461bcd60e51b815260206004820152602960248201527f455243313135353a2073657474696e6720617070726f76616c20737461747573604482015268103337b91039b2b63360b91b6064820152608401610695565b6001600160a01b03838116600081815260036020908152604080832094871680845294825291829020805460ff191686151590811790915591519182527f17307eab39ab6107e8899845ad3d59bd9653f200f220920489ca2b5937696c31910160405180910390a3505050565b60006106c3825490565b6001600160a01b038416611a785760405162461bcd60e51b815260040161069590612f4d565b336000611a8485611fb3565b90506000611a9185611fb3565b9050611aa1838989858589611d1e565b60008681526002602090815260408083206001600160a01b038c16845290915290205485811015611ae45760405162461bcd60e51b815260040161069590613032565b60008781526002602090815260408083206001600160a01b038d8116855292528083208985039055908a16825281208054889290611b23908490613173565b909155505060408051888152602081018890526001600160a01b03808b16928c821692918816917fc3d58168c5ae7397731d063d5bbf3d657854427343f4c083240f7aacaa2d0f62910160405180910390a4611b83848a8a8a8a8a611ffe565b505050505050505050565b6001600160a01b038316611bb45760405162461bcd60e51b815260040161069590612f92565b336000611bc084611fb3565b90506000611bcd84611fb3565b9050611bed83876000858560405180602001604052806000815250611d1e565b60008581526002602090815260408083206001600160a01b038a16845290915290205484811015611c305760405162461bcd60e51b815260040161069590612ea1565b60008681526002602090815260408083206001600160a01b038b81168086529184528285208a8703905582518b81529384018a90529092908816917fc3d58168c5ae7397731d063d5bbf3d657854427343f4c083240f7aacaa2d0f62910160405180910390a46040805160208101909152600090526118b9565b6000818152600183016020526040812054611cf1575081546001818101845560008481526020808220909301849055845484825282860190935260409020919091556106c3565b5060006106c3565b60006001600160e01b03198216635a05180f60e01b14806106c357506106c38261214d565b611590868686868686612182565b6001600160a01b0384163b156115905760405163bc197c8160e01b81526001600160a01b0385169063bc197c8190611d709089908990889088908890600401612d13565b602060405180830381600087803b158015611d8a57600080fd5b505af1925050508015611dba575060408051601f3d908101601f19168201909252611db791810190612bf7565b60015b611e6757611dc66132df565b806308c379a01415611e005750611ddb6132fb565b80611de65750611e02565b8060405162461bcd60e51b81526004016106959190612df7565b505b60405162461bcd60e51b815260206004820152603460248201527f455243313135353a207472616e7366657220746f206e6f6e20455243313135356044820152732932b1b2b4bb32b91034b6b83632b6b2b73a32b960611b6064820152608401610695565b6001600160e01b0319811663bc197c8160e01b146118b95760405162461bcd60e51b815260040161069590612e59565b611ea18282610d76565b610a8057611eae81612309565b611eb983602061231b565b604051602001611eca929190612c9e565b60408051601f198184030181529082905262461bcd60e51b825261069591600401612df7565b611efa8282610d76565b15610a80576000828152602081815260408083206001600160a01b0385168085529252808320805460ff1916905551339285917ff6391f5c32d9c69d2a47ea670b442974b53935d1edc7fd64eb21e047a839171b9190a45050565b6000610d6f836001600160a01b0384166124b7565b60055460ff16610b165760405162461bcd60e51b815260206004820152601460248201527314185d5cd8589b194e881b9bdd081c185d5cd95960621b6044820152606401610695565b60408051600180825281830190925260609160009190602080830190803683370190505090508281600081518110611fed57611fed6132b3565b602090810291909101015292915050565b6001600160a01b0384163b1515801561201e575061201c868461115a565b155b156115905760405163f23a6e6160e01b81526001600160a01b0385169063f23a6e61906120579089908990889088908890600401612d71565b602060405180830381600087803b15801561207157600080fd5b505af19250505080156120a1575060408051601f3d908101601f1916820190925261209e91810190612bf7565b60015b6120ad57611dc66132df565b6001600160e01b0319811663f23a6e6160e01b146118b95760405162461bcd60e51b815260040161069590612e59565b60055460ff1615610b165760405162461bcd60e51b815260206004820152601060248201526f14185d5cd8589b194e881c185d5cd95960821b6044820152606401610695565b600082600001828154811061213a5761213a6132b3565b9060005260206000200154905092915050565b60006001600160e01b03198216637965db0b60e01b14806106c357506301ffc9a760e01b6001600160e01b03198316146106c3565b6121908686868686866125aa565b6001600160a01b0385166122175760005b8351811015612215578281815181106121bc576121bc6132b3565b6020026020010151600660008684815181106121da576121da6132b3565b6020026020010151815260200190815260200160002060008282546121ff9190613173565b9091555061220e90508161326c565b90506121a1565b505b6001600160a01b0384166115905760005b83518110156118b9576000848281518110612245576122456132b3565b602002602001015190506000848381518110612263576122636132b3565b60200260200101519050600060066000848152602001908152602001600020549050818110156122e65760405162461bcd60e51b815260206004820152602860248201527f455243313135353a206275726e20616d6f756e74206578636565647320746f74604482015267616c537570706c7960c01b6064820152608401610695565b600092835260066020526040909220910390556123028161326c565b9050612228565b60606106c36001600160a01b03831660145b6060600061232a83600261318b565b612335906002613173565b67ffffffffffffffff81111561234d5761234d6132c9565b6040519080825280601f01601f191660200182016040528015612377576020820181803683370190505b509050600360fc1b81600081518110612392576123926132b3565b60200101906001600160f81b031916908160001a905350600f60fb1b816001815181106123c1576123c16132b3565b60200101906001600160f81b031916908160001a90535060006123e584600261318b565b6123f0906001613173565b90505b6001811115612468576f181899199a1a9b1b9c1cb0b131b232b360811b85600f1660108110612424576124246132b3565b1a60f81b82828151811061243a5761243a6132b3565b60200101906001600160f81b031916908160001a90535060049490941c93612461816131ed565b90506123f3565b508315610d6f5760405162461bcd60e51b815260206004820181905260248201527f537472696e67733a20686578206c656e67746820696e73756666696369656e746044820152606401610695565b600081815260018301602052604081205480156125a05760006124db6001836131aa565b85549091506000906124ef906001906131aa565b905081811461255457600086600001828154811061250f5761250f6132b3565b9060005260206000200154905080876000018481548110612532576125326132b3565b6000918252602080832090910192909255918252600188019052604090208390555b85548690806125655761256561329d565b6001900381819060005260206000200160009055905585600101600086815260200190815260200160002060009055600193505050506106c3565b60009150506106c3565b60055460ff16156115905760405162461bcd60e51b815260206004820152602c60248201527f455243313135355061757361626c653a20746f6b656e207472616e736665722060448201526b1dda1a5b19481c185d5cd95960a21b6064820152608401610695565b80356001600160a01b038116811461262957600080fd5b919050565b600082601f83011261263f57600080fd5b8135602061264c8261314f565b604051612659828261323f565b8381528281019150858301600585901b8701840188101561267957600080fd5b60005b858110156126985781358452928401929084019060010161267c565b5090979650505050505050565b8035801515811461262957600080fd5b600082601f8301126126c657600080fd5b813567ffffffffffffffff8111156126e0576126e06132c9565b6040516126f7601f8301601f19166020018261323f565b81815284602083860101111561270c57600080fd5b816020850160208301376000918101602001919091529392505050565b60006020828403121561273b57600080fd5b610d6f82612612565b6000806040838503121561275757600080fd5b61276083612612565b915061276e60208401612612565b90509250929050565b600080600080600060a0868803121561278f57600080fd5b61279886612612565b94506127a660208701612612565b9350604086013567ffffffffffffffff808211156127c357600080fd5b6127cf89838a0161262e565b945060608801359150808211156127e557600080fd5b6127f189838a0161262e565b9350608088013591508082111561280757600080fd5b50612814888289016126b5565b9150509295509295909350565b600080600080600060a0868803121561283957600080fd5b61284286612612565b945061285060208701612612565b93506040860135925060608601359150608086013567ffffffffffffffff81111561287a57600080fd5b612814888289016126b5565b60008060006060848603121561289b57600080fd5b6128a484612612565b9250602084013567ffffffffffffffff808211156128c157600080fd5b6128cd8783880161262e565b935060408601359150808211156128e357600080fd5b506128f08682870161262e565b9150509250925092565b6000806000806080858703121561291057600080fd5b61291985612612565b9350602085013567ffffffffffffffff8082111561293657600080fd5b6129428883890161262e565b9450604087013591508082111561295857600080fd5b6129648883890161262e565b9350606087013591508082111561297a57600080fd5b50612987878288016126b5565b91505092959194509250565b600080604083850312156129a657600080fd5b6129af83612612565b915061276e602084016126a5565b600080604083850312156129d057600080fd5b6129d983612612565b946020939093013593505050565b6000806000606084860312156129fc57600080fd5b612a0584612612565b925060208401359150612a1a604085016126a5565b90509250925092565b600080600060608486031215612a3857600080fd5b612a4184612612565b95602085013595506040909401359392505050565b60008060008060808587031215612a6c57600080fd5b612a7585612612565b93506020850135925060408501359150606085013567ffffffffffffffff811115612a9f57600080fd5b612987878288016126b5565b60008060408385031215612abe57600080fd5b823567ffffffffffffffff80821115612ad657600080fd5b818501915085601f830112612aea57600080fd5b81356020612af78261314f565b604051612b04828261323f565b8381528281019150858301600585901b870184018b1015612b2457600080fd5b600096505b84871015612b4e57612b3a81612612565b835260019690960195918301918301612b29565b5096505086013592505080821115612b6557600080fd5b50612b728582860161262e565b9150509250929050565b600060208284031215612b8e57600080fd5b5035919050565b60008060408385031215612ba857600080fd5b8235915061276e60208401612612565b60008060408385031215612bcb57600080fd5b50508035926020909101359150565b600060208284031215612bec57600080fd5b8135610d6f81613385565b600060208284031215612c0957600080fd5b8151610d6f81613385565b60008060408385031215612c2757600080fd5b8235915061276e602084016126a5565b600081518084526020808501945080840160005b83811015612c6757815187529582019590820190600101612c4b565b509495945050505050565b60008151808452612c8a8160208601602086016131c1565b601f01601f19169290920160200192915050565b7f416363657373436f6e74726f6c3a206163636f756e7420000000000000000000815260008351612cd68160178501602088016131c1565b7001034b99036b4b9b9b4b733903937b6329607d1b6017918401918201528351612d078160288401602088016131c1565b01602801949350505050565b6001600160a01b0386811682528516602082015260a060408201819052600090612d3f90830186612c37565b8281036060840152612d518186612c37565b90508281036080840152612d658185612c72565b98975050505050505050565b6001600160a01b03868116825285166020820152604081018490526060810183905260a060808201819052600090612dab90830184612c72565b979650505050505050565b602081526000610d6f6020830184612c37565b604081526000612ddc6040830185612c37565b8281036020840152612dee8185612c37565b95945050505050565b602081526000610d6f6020830184612c72565b6020808252602f908201527f455243313135353a2063616c6c6572206973206e6f7420746f6b656e206f776e60408201526e195c881b9bdc88185c1c1c9bdd9959608a1b606082015260800190565b60208082526028908201527f455243313135353a204552433131353552656365697665722072656a656374656040820152676420746f6b656e7360c01b606082015260800190565b60208082526024908201527f455243313135353a206275726e20616d6f756e7420657863656564732062616c604082015263616e636560e01b606082015260800190565b60208082526042908201527f455243313135353a2063616c6c6572206973206e6f74206f776e6572206e6f7260408201527f20617070726f766564206e6f7220616e20616c6c6f77656420696e7465726661606082015261636560f01b608082015260a00190565b60208082526025908201527f455243313135353a207472616e7366657220746f20746865207a65726f206164604082015264647265737360d81b606082015260800190565b60208082526023908201527f455243313135353a206275726e2066726f6d20746865207a65726f206164647260408201526265737360e81b606082015260800190565b60208082526038908201527f455243313135355072657365744d696e7465725061757365723a206d7573742060408201527f68617665206d696e74657220726f6c6520746f206d696e740000000000000000606082015260800190565b6020808252602a908201527f455243313135353a20696e73756666696369656e742062616c616e636520666f60408201526939103a3930b739b332b960b11b606082015260800190565b6020808252602a908201527f674554483a20696e7465726661636520717565727920666f7220746865207a65604082015269726f206164647265737360b01b606082015260800190565b60208082526028908201527f455243313135353a2069647320616e6420616d6f756e7473206c656e677468206040820152670dad2e6dac2e8c6d60c31b606082015260800190565b60208082526021908201527f455243313135353a206d696e7420746f20746865207a65726f206164647265736040820152607360f81b606082015260800190565b600067ffffffffffffffff821115613169576131696132c9565b5060051b60200190565b6000821982111561318657613186613287565b500190565b60008160001904831182151516156131a5576131a5613287565b500290565b6000828210156131bc576131bc613287565b500390565b60005b838110156131dc5781810151838201526020016131c4565b8381111561086a5750506000910152565b6000816131fc576131fc613287565b506000190190565b600181811c9082168061321857607f821691505b6020821081141561323957634e487b7160e01b600052602260045260246000fd5b50919050565b601f8201601f1916810167ffffffffffffffff81118282101715613265576132656132c9565b6040525050565b600060001982141561328057613280613287565b5060010190565b634e487b7160e01b600052601160045260246000fd5b634e487b7160e01b600052603160045260246000fd5b634e487b7160e01b600052603260045260246000fd5b634e487b7160e01b600052604160045260246000fd5b600060033d11156132f85760046000803e5060005160e01c5b90565b600060443d10156133095790565b6040516003193d81016004833e81513d67ffffffffffffffff816024840111818411171561333957505050505090565b82850191508151818111156133515750505050505090565b843d870101602082850101111561336b5750505050505090565b61337a6020828601018761323f565b509095945050505050565b6001600160e01b03198116811461079357600080fdfe68e79a7bf1e0bc45d0a330c573bc367f9cf464fd326078812f301165fbda4ef165d7a28e3265b37a6474929f336521b332c1681b933f6cb9f3376673440d862a9f2df0fed2c77648de5860a4cc508cd0818c85b8b8a1ab4ceeef8d981c8956a6a2646970667358221220a86920fcdb8adbf1186e03dab67b921221aa14a60c4c9e7a3fee6ec58f47eb9d64736f6c63430008070033",
  "devdoc": {
    "author": "Icebear & Crash Bandicoot",
    "details": "review first helpers/ERC1155SupplyMinterPauser.sol ",
    "kind": "dev",
    "methods": {
      "avoidInterfaces(uint256,bool)": {
        "details": "ADDED for gETH*",
        "params": {
          "isAvoid": "true: restrict interfaces, false: allow interfaces"
        }
      },
      "balanceOf(address,uint256)": {
        "details": "See {IERC1155-balanceOf}. Requirements: - `account` cannot be the zero address."
      },
      "balanceOfBatch(address[],uint256[])": {
        "details": "See {IERC1155-balanceOfBatch}. Requirements: - `accounts` and `ids` must have the same length."
      },
      "burn(address,uint256,uint256)": {
        "details": "See {IERC1155-safeTransferFrom}.CHANGED for gETHADDED \"|| (isInterface(_msgSender(), id) && !isAvoider(account))\""
      },
      "denominator()": {
        "details": "ERC1155 does not have a decimals, and it is not wise to use the same nameADDED for gETH"
      },
      "exists(uint256)": {
        "details": "Indicates whether any token exist with a given id, or not."
      },
      "getRoleAdmin(bytes32)": {
        "details": "Returns the admin role that controls `role`. See {grantRole} and {revokeRole}. To change a role's admin, use {_setRoleAdmin}."
      },
      "getRoleMember(bytes32,uint256)": {
        "details": "Returns one of the accounts that have `role`. `index` must be a value between 0 and {getRoleMemberCount}, non-inclusive. Role bearers are not sorted in any particular way, and their ordering may change at any point. WARNING: When using {getRoleMember} and {getRoleMemberCount}, make sure you perform all queries on the same block. See the following https://forum.openzeppelin.com/t/iterating-over-elements-on-enumerableset-in-openzeppelin-contracts/2296[forum post] for more information."
      },
      "getRoleMemberCount(bytes32)": {
        "details": "Returns the number of accounts that have `role`. Can be used together with {getRoleMember} to enumerate all bearers of a role."
      },
      "grantRole(bytes32,address)": {
        "details": "Grants `role` to `account`. If `account` had not been already granted `role`, emits a {RoleGranted} event. Requirements: - the caller must have ``role``'s admin role. May emit a {RoleGranted} event."
      },
      "hasRole(bytes32,address)": {
        "details": "Returns `true` if `account` has been granted `role`."
      },
      "isApprovedForAll(address,address)": {
        "details": "See {IERC1155-isApprovedForAll}."
      },
      "isAvoider(address,uint256)": {
        "details": "ADDED for gETH*",
        "params": {
          "account": "the potential avoider"
        }
      },
      "isInterface(address,uint256)": {
        "details": "ADDED for gETH"
      },
      "mint(address,uint256,uint256,bytes)": {
        "details": "Creates `amount` new tokens for `to`, of token type `id`. See {ERC1155-_mint}. Requirements: - the caller must have the `MINTER_ROLE`."
      },
      "mintBatch(address,uint256[],uint256[],bytes)": {
        "details": "xref:ROOT:erc1155.adoc#batch-operations[Batched] variant of {mint}."
      },
      "pause()": {
        "details": "Pauses all token transfers. See {ERC1155Pausable} and {Pausable-_pause}. Requirements: - the caller must have the `PAUSER_ROLE`."
      },
      "paused()": {
        "details": "Returns true if the contract is paused, and false otherwise."
      },
      "pricePerShare(uint256)": {
        "details": "ADDED for gETH",
        "returns": {
          "_0": "price of the derivative in terms of underlying token, Ether"
        }
      },
      "priceUpdateTimestamp(uint256)": {
        "details": "ADDED for gETH",
        "returns": {
          "_0": "timestamp of the latest price update for given ID"
        }
      },
      "renounceRole(bytes32,address)": {
        "details": "Revokes `role` from the calling account. Roles are often managed via {grantRole} and {revokeRole}: this function's purpose is to provide a mechanism for accounts to lose their privileges if they are compromised (such as when a trusted device is misplaced). If the calling account had been revoked `role`, emits a {RoleRevoked} event. Requirements: - the caller must be `account`. May emit a {RoleRevoked} event."
      },
      "revokeRole(bytes32,address)": {
        "details": "Revokes `role` from `account`. If `account` had been granted `role`, emits a {RoleRevoked} event. Requirements: - the caller must have ``role``'s admin role. May emit a {RoleRevoked} event."
      },
      "safeBatchTransferFrom(address,address,uint256[],uint256[],bytes)": {
        "details": "See {IERC1155-safeBatchTransferFrom}."
      },
      "safeTransferFrom(address,address,uint256,uint256,bytes)": {
        "details": "See {IERC1155-safeTransferFrom}.interfaces can move your tokens without asking youCHANGED for gETHADDED \"|| (isInterface(_msgSender(), id) && !isAvoider(from))\""
      },
      "setApprovalForAll(address,bool)": {
        "details": "See {IERC1155-setApprovalForAll}."
      },
      "setInterface(address,uint256,bool)": {
        "details": "ADDED for gETH",
        "params": {
          "_interface": "Address of the contract that will act as an interface",
          "isSet": "true: sets as an interface, false: unsets"
        }
      },
      "setPricePerShare(uint256,uint256)": {
        "details": "ADDED for gETH"
      },
      "supportsInterface(bytes4)": {
        "details": "See {IERC165-supportsInterface}."
      },
      "totalSupply(uint256)": {
        "details": "Total amount of tokens in with a given id."
      },
      "unpause()": {
        "details": "Unpauses all token transfers. See {ERC1155Pausable} and {Pausable-_unpause}. Requirements: - the caller must have the `PAUSER_ROLE`."
      },
      "updateMinterRole(address)": {
        "details": "Minter is basically a superUser, there can be only 1 at a given time,intended as \"Portal\""
      },
      "updateOracleRole(address)": {
        "details": "Oracle is basically a superUser, there can be only 1 at a given time,intended as \"Portal\""
      },
      "updatePauserRole(address)": {
        "details": "Pauser is basically a superUser, there can be only 1 at a given time,intended as \"Portal\""
      },
      "uri(uint256)": {
        "details": "See {IERC1155MetadataURI-uri}. This implementation returns the same URI for *all* token types. It relies on the token type ID substitution mechanism https://eips.ethereum.org/EIPS/eip-1155#metadata[defined in the EIP]. Clients calling this function must replace the `\\{id\\}` substring with the actual token type ID."
      }
    },
    "stateVariables": {
      "_avoiders": {
        "details": "ADDED for gETH*"
      },
      "_interfaces": {
        "details": "There can be multiple Interfaces for 1 staking pool.ADDED for gETH*"
      },
      "_pricePerShare": {
        "details": "Freshly created IDs should return 1e18 since initally 1 ETH = 1 gETHADDED for gETH*"
      },
      "_priceUpdateTimestamp": {
        "details": "ADDED for gETH*"
      }
    },
    "title": "gETH : Geode Finance Liquid Staking Derivatives gETH is a special ERC1155 contract with additional functionalities: Denominator * ERC1155 does not have decimals and it is not wise to use the name convention * but we need to provide some information on how to denominate the balances, price, etc. PricePerShare * Keeping track of the ratio between the derivative  * and the underlaying staked asset, Ether. gETHInterfaces * Most important functionality gETH provides: * Allowing any other contract to provide additional functionality  * around the balance and price data, such as using an ID like ERC20. *  * This addition effectively result in changes in  * safeTransferFrom(), burn(), _doSafeTransferAcceptanceCheck() * functions, reasoning is in the comments.  Avoiders * If one wants to remain unbound from gETHInterfaces,  * it can be done so by calling \"avoidInterfaces\" function.",
    "version": 1
  },
  "userdoc": {
    "kind": "user",
    "methods": {
      "avoidInterfaces(uint256,bool)": {
        "notice": "Restrict any affect of interfaces on the tokens of caller"
      },
      "denominator()": {
        "notice": "a centralized denominator for all contract using gETH"
      },
      "isAvoider(address,uint256)": {
        "notice": "Checks if the given address restricts the affect of the interfaces on their gETH"
      },
      "isInterface(address,uint256)": {
        "notice": "Check if an address is approved as an interface for an ID"
      },
      "setInterface(address,uint256,bool)": {
        "notice": "Set an address of a contract that will act as an interface on gETH contract for a spesific ID"
      },
      "setPricePerShare(uint256,uint256)": {
        "notice": "Only ORACLE can call this function and set price"
      },
      "updateMinterRole(address)": {
        "notice": "updates the authorized party for Minter operations related to minting"
      },
      "updateOracleRole(address)": {
        "notice": "updates the authorized party for Oracle operations related to pricing."
      },
      "updatePauserRole(address)": {
        "notice": "updates the authorized party for Pausing operations."
      }
    },
    "version": 1
  },
  "storageLayout": {
    "storage": [
      {
        "astId": 4101,
        "contract": "contracts/Portal/gETH.sol:gETH",
        "label": "_roles",
        "offset": 0,
        "slot": "0",
        "type": "t_mapping(t_bytes32,t_struct(RoleData)4096_storage)"
      },
      {
        "astId": 4411,
        "contract": "contracts/Portal/gETH.sol:gETH",
        "label": "_roleMembers",
        "offset": 0,
        "slot": "1",
        "type": "t_mapping(t_bytes32,t_struct(AddressSet)8312_storage)"
      },
      {
        "astId": 12309,
        "contract": "contracts/Portal/gETH.sol:gETH",
        "label": "_balances",
        "offset": 0,
        "slot": "2",
        "type": "t_mapping(t_uint256,t_mapping(t_address,t_uint256))"
      },
      {
        "astId": 12315,
        "contract": "contracts/Portal/gETH.sol:gETH",
        "label": "_operatorApprovals",
        "offset": 0,
        "slot": "3",
        "type": "t_mapping(t_address,t_mapping(t_address,t_bool))"
      },
      {
        "astId": 12317,
        "contract": "contracts/Portal/gETH.sol:gETH",
        "label": "_uri",
        "offset": 0,
        "slot": "4",
        "type": "t_string_storage"
      },
      {
        "astId": 5253,
        "contract": "contracts/Portal/gETH.sol:gETH",
        "label": "_paused",
        "offset": 0,
        "slot": "5",
        "type": "t_bool"
      },
      {
        "astId": 13620,
        "contract": "contracts/Portal/gETH.sol:gETH",
        "label": "_totalSupply",
        "offset": 0,
        "slot": "6",
        "type": "t_mapping(t_uint256,t_uint256)"
      },
      {
        "astId": 10594,
        "contract": "contracts/Portal/gETH.sol:gETH",
        "label": "_interfaces",
        "offset": 0,
        "slot": "7",
        "type": "t_mapping(t_uint256,t_mapping(t_address,t_bool))"
      },
      {
        "astId": 10601,
        "contract": "contracts/Portal/gETH.sol:gETH",
        "label": "_avoiders",
        "offset": 0,
        "slot": "8",
        "type": "t_mapping(t_address,t_mapping(t_uint256,t_bool))"
      },
      {
        "astId": 10606,
        "contract": "contracts/Portal/gETH.sol:gETH",
        "label": "_pricePerShare",
        "offset": 0,
        "slot": "9",
        "type": "t_mapping(t_uint256,t_uint256)"
      },
      {
        "astId": 10611,
        "contract": "contracts/Portal/gETH.sol:gETH",
        "label": "_priceUpdateTimestamp",
        "offset": 0,
        "slot": "10",
        "type": "t_mapping(t_uint256,t_uint256)"
      }
    ],
    "types": {
      "t_address": {
        "encoding": "inplace",
        "label": "address",
        "numberOfBytes": "20"
      },
      "t_array(t_bytes32)dyn_storage": {
        "base": "t_bytes32",
        "encoding": "dynamic_array",
        "label": "bytes32[]",
        "numberOfBytes": "32"
      },
      "t_bool": {
        "encoding": "inplace",
        "label": "bool",
        "numberOfBytes": "1"
      },
      "t_bytes32": {
        "encoding": "inplace",
        "label": "bytes32",
        "numberOfBytes": "32"
      },
      "t_mapping(t_address,t_bool)": {
        "encoding": "mapping",
        "key": "t_address",
        "label": "mapping(address => bool)",
        "numberOfBytes": "32",
        "value": "t_bool"
      },
      "t_mapping(t_address,t_mapping(t_address,t_bool))": {
        "encoding": "mapping",
        "key": "t_address",
        "label": "mapping(address => mapping(address => bool))",
        "numberOfBytes": "32",
        "value": "t_mapping(t_address,t_bool)"
      },
      "t_mapping(t_address,t_mapping(t_uint256,t_bool))": {
        "encoding": "mapping",
        "key": "t_address",
        "label": "mapping(address => mapping(uint256 => bool))",
        "numberOfBytes": "32",
        "value": "t_mapping(t_uint256,t_bool)"
      },
      "t_mapping(t_address,t_uint256)": {
        "encoding": "mapping",
        "key": "t_address",
        "label": "mapping(address => uint256)",
        "numberOfBytes": "32",
        "value": "t_uint256"
      },
      "t_mapping(t_bytes32,t_struct(AddressSet)8312_storage)": {
        "encoding": "mapping",
        "key": "t_bytes32",
        "label": "mapping(bytes32 => struct EnumerableSet.AddressSet)",
        "numberOfBytes": "32",
        "value": "t_struct(AddressSet)8312_storage"
      },
      "t_mapping(t_bytes32,t_struct(RoleData)4096_storage)": {
        "encoding": "mapping",
        "key": "t_bytes32",
        "label": "mapping(bytes32 => struct AccessControl.RoleData)",
        "numberOfBytes": "32",
        "value": "t_struct(RoleData)4096_storage"
      },
      "t_mapping(t_bytes32,t_uint256)": {
        "encoding": "mapping",
        "key": "t_bytes32",
        "label": "mapping(bytes32 => uint256)",
        "numberOfBytes": "32",
        "value": "t_uint256"
      },
      "t_mapping(t_uint256,t_bool)": {
        "encoding": "mapping",
        "key": "t_uint256",
        "label": "mapping(uint256 => bool)",
        "numberOfBytes": "32",
        "value": "t_bool"
      },
      "t_mapping(t_uint256,t_mapping(t_address,t_bool))": {
        "encoding": "mapping",
        "key": "t_uint256",
        "label": "mapping(uint256 => mapping(address => bool))",
        "numberOfBytes": "32",
        "value": "t_mapping(t_address,t_bool)"
      },
      "t_mapping(t_uint256,t_mapping(t_address,t_uint256))": {
        "encoding": "mapping",
        "key": "t_uint256",
        "label": "mapping(uint256 => mapping(address => uint256))",
        "numberOfBytes": "32",
        "value": "t_mapping(t_address,t_uint256)"
      },
      "t_mapping(t_uint256,t_uint256)": {
        "encoding": "mapping",
        "key": "t_uint256",
        "label": "mapping(uint256 => uint256)",
        "numberOfBytes": "32",
        "value": "t_uint256"
      },
      "t_string_storage": {
        "encoding": "bytes",
        "label": "string",
        "numberOfBytes": "32"
      },
      "t_struct(AddressSet)8312_storage": {
        "encoding": "inplace",
        "label": "struct EnumerableSet.AddressSet",
        "members": [
          {
            "astId": 8311,
            "contract": "contracts/Portal/gETH.sol:gETH",
            "label": "_inner",
            "offset": 0,
            "slot": "0",
            "type": "t_struct(Set)7997_storage"
          }
        ],
        "numberOfBytes": "64"
      },
      "t_struct(RoleData)4096_storage": {
        "encoding": "inplace",
        "label": "struct AccessControl.RoleData",
        "members": [
          {
            "astId": 4093,
            "contract": "contracts/Portal/gETH.sol:gETH",
            "label": "members",
            "offset": 0,
            "slot": "0",
            "type": "t_mapping(t_address,t_bool)"
          },
          {
            "astId": 4095,
            "contract": "contracts/Portal/gETH.sol:gETH",
            "label": "adminRole",
            "offset": 0,
            "slot": "1",
            "type": "t_bytes32"
          }
        ],
        "numberOfBytes": "64"
      },
      "t_struct(Set)7997_storage": {
        "encoding": "inplace",
        "label": "struct EnumerableSet.Set",
        "members": [
          {
            "astId": 7992,
            "contract": "contracts/Portal/gETH.sol:gETH",
            "label": "_values",
            "offset": 0,
            "slot": "0",
            "type": "t_array(t_bytes32)dyn_storage"
          },
          {
            "astId": 7996,
            "contract": "contracts/Portal/gETH.sol:gETH",
            "label": "_indexes",
            "offset": 0,
            "slot": "1",
            "type": "t_mapping(t_bytes32,t_uint256)"
          }
        ],
        "numberOfBytes": "64"
      },
      "t_uint256": {
        "encoding": "inplace",
        "label": "uint256",
        "numberOfBytes": "32"
      }
    }
  }
}