{
  "address": "0xCdC48050C14639751BEfEbF52aE871ee81F69f3A",
  "abi": [
    {
      "inputs": [
        {
          "internalType": "address",
          "name": "_gETHPos",
          "type": "address"
        },
        {
          "internalType": "address",
          "name": "_portalPos",
          "type": "address"
        },
        {
          "internalType": "address",
          "name": "_LPTokenRef",
          "type": "address"
        }
      ],
      "stateMutability": "nonpayable",
      "type": "constructor"
    },
    {
      "anonymous": false,
      "inputs": [
        {
          "indexed": true,
          "internalType": "address",
          "name": "provider",
          "type": "address"
        },
        {
          "indexed": false,
          "internalType": "uint256[2]",
          "name": "tokenAmounts",
          "type": "uint256[2]"
        },
        {
          "indexed": false,
          "internalType": "uint256[2]",
          "name": "fees",
          "type": "uint256[2]"
        },
        {
          "indexed": false,
          "internalType": "uint256",
          "name": "invariant",
          "type": "uint256"
        },
        {
          "indexed": false,
          "internalType": "uint256",
          "name": "lpTokenSupply",
          "type": "uint256"
        }
      ],
      "name": "AddLiquidity",
      "type": "event"
    },
    {
      "anonymous": false,
      "inputs": [
        {
          "indexed": false,
          "internalType": "address",
          "name": "previousAdmin",
          "type": "address"
        },
        {
          "indexed": false,
          "internalType": "address",
          "name": "newAdmin",
          "type": "address"
        }
      ],
      "name": "AdminChanged",
      "type": "event"
    },
    {
      "anonymous": false,
      "inputs": [
        {
          "indexed": false,
          "internalType": "uint256",
          "name": "ID",
          "type": "uint256"
        }
      ],
      "name": "Approved",
      "type": "event"
    },
    {
      "anonymous": false,
      "inputs": [
        {
          "indexed": true,
          "internalType": "address",
          "name": "beacon",
          "type": "address"
        }
      ],
      "name": "BeaconUpgraded",
      "type": "event"
    },
    {
      "anonymous": false,
      "inputs": [
        {
          "indexed": false,
          "internalType": "uint256",
          "name": "version",
          "type": "uint256"
        }
      ],
      "name": "ContractVersionSet",
      "type": "event"
    },
    {
      "anonymous": false,
      "inputs": [
        {
          "indexed": true,
          "internalType": "uint256",
          "name": "ID",
          "type": "uint256"
        },
        {
          "indexed": false,
          "internalType": "address",
          "name": "CONTROLLER",
          "type": "address"
        }
      ],
      "name": "ControllerChanged",
      "type": "event"
    },
    {
      "anonymous": false,
      "inputs": [
        {
          "indexed": false,
          "internalType": "uint8",
          "name": "version",
          "type": "uint8"
        }
      ],
      "name": "Initialized",
      "type": "event"
    },
    {
      "anonymous": false,
      "inputs": [
        {
          "indexed": false,
          "internalType": "uint256",
          "name": "newAdminFee",
          "type": "uint256"
        }
      ],
      "name": "NewAdminFee",
      "type": "event"
    },
    {
      "anonymous": false,
      "inputs": [
        {
          "indexed": false,
          "internalType": "address",
          "name": "senate",
          "type": "address"
        },
        {
          "indexed": false,
          "internalType": "uint256",
          "name": "expiry",
          "type": "uint256"
        }
      ],
      "name": "NewSenate",
      "type": "event"
    },
    {
      "anonymous": false,
      "inputs": [
        {
          "indexed": false,
          "internalType": "uint256",
          "name": "newSwapFee",
          "type": "uint256"
        }
      ],
      "name": "NewSwapFee",
      "type": "event"
    },
    {
      "anonymous": false,
      "inputs": [
        {
          "indexed": false,
          "internalType": "uint256",
          "name": "newWithdrawFee",
          "type": "uint256"
        }
      ],
      "name": "NewWithdrawFee",
      "type": "event"
    },
    {
      "anonymous": false,
      "inputs": [
        {
          "indexed": false,
          "internalType": "address",
          "name": "account",
          "type": "address"
        }
      ],
      "name": "Paused",
      "type": "event"
    },
    {
      "anonymous": false,
      "inputs": [
        {
          "indexed": true,
          "internalType": "uint256",
          "name": "TYPE",
          "type": "uint256"
        },
        {
          "indexed": false,
          "internalType": "uint256",
          "name": "ID",
          "type": "uint256"
        },
        {
          "indexed": false,
          "internalType": "address",
          "name": "CONTROLLER",
          "type": "address"
        },
        {
          "indexed": false,
          "internalType": "uint256",
          "name": "deadline",
          "type": "uint256"
        }
      ],
      "name": "Proposed",
      "type": "event"
    },
    {
      "anonymous": false,
      "inputs": [
        {
          "indexed": false,
          "internalType": "uint256",
          "name": "oldA",
          "type": "uint256"
        },
        {
          "indexed": false,
          "internalType": "uint256",
          "name": "newA",
          "type": "uint256"
        },
        {
          "indexed": false,
          "internalType": "uint256",
          "name": "initialTime",
          "type": "uint256"
        },
        {
          "indexed": false,
          "internalType": "uint256",
          "name": "futureTime",
          "type": "uint256"
        }
      ],
      "name": "RampA",
      "type": "event"
    },
    {
      "anonymous": false,
      "inputs": [
        {
          "indexed": true,
          "internalType": "address",
          "name": "provider",
          "type": "address"
        },
        {
          "indexed": false,
          "internalType": "uint256[2]",
          "name": "tokenAmounts",
          "type": "uint256[2]"
        },
        {
          "indexed": false,
          "internalType": "uint256",
          "name": "lpTokenSupply",
          "type": "uint256"
        }
      ],
      "name": "RemoveLiquidity",
      "type": "event"
    },
    {
      "anonymous": false,
      "inputs": [
        {
          "indexed": true,
          "internalType": "address",
          "name": "provider",
          "type": "address"
        },
        {
          "indexed": false,
          "internalType": "uint256[2]",
          "name": "tokenAmounts",
          "type": "uint256[2]"
        },
        {
          "indexed": false,
          "internalType": "uint256[2]",
          "name": "fees",
          "type": "uint256[2]"
        },
        {
          "indexed": false,
          "internalType": "uint256",
          "name": "invariant",
          "type": "uint256"
        },
        {
          "indexed": false,
          "internalType": "uint256",
          "name": "lpTokenSupply",
          "type": "uint256"
        }
      ],
      "name": "RemoveLiquidityImbalance",
      "type": "event"
    },
    {
      "anonymous": false,
      "inputs": [
        {
          "indexed": true,
          "internalType": "address",
          "name": "provider",
          "type": "address"
        },
        {
          "indexed": false,
          "internalType": "uint256",
          "name": "lpTokenAmount",
          "type": "uint256"
        },
        {
          "indexed": false,
          "internalType": "uint256",
          "name": "lpTokenSupply",
          "type": "uint256"
        },
        {
          "indexed": false,
          "internalType": "uint256",
          "name": "boughtId",
          "type": "uint256"
        },
        {
          "indexed": false,
          "internalType": "uint256",
          "name": "tokensBought",
          "type": "uint256"
        }
      ],
      "name": "RemoveLiquidityOne",
      "type": "event"
    },
    {
      "anonymous": false,
      "inputs": [
        {
          "indexed": false,
          "internalType": "uint256",
          "name": "currentA",
          "type": "uint256"
        },
        {
          "indexed": false,
          "internalType": "uint256",
          "name": "time",
          "type": "uint256"
        }
      ],
      "name": "StopRampA",
      "type": "event"
    },
    {
      "anonymous": false,
      "inputs": [
        {
          "indexed": true,
          "internalType": "address",
          "name": "buyer",
          "type": "address"
        },
        {
          "indexed": false,
          "internalType": "uint256",
          "name": "tokensSold",
          "type": "uint256"
        },
        {
          "indexed": false,
          "internalType": "uint256",
          "name": "tokensBought",
          "type": "uint256"
        },
        {
          "indexed": false,
          "internalType": "uint128",
          "name": "soldId",
          "type": "uint128"
        },
        {
          "indexed": false,
          "internalType": "uint128",
          "name": "boughtId",
          "type": "uint128"
        }
      ],
      "name": "TokenSwap",
      "type": "event"
    },
    {
      "anonymous": false,
      "inputs": [
        {
          "indexed": false,
          "internalType": "address",
          "name": "account",
          "type": "address"
        }
      ],
      "name": "Unpaused",
      "type": "event"
    },
    {
      "anonymous": false,
      "inputs": [
        {
          "indexed": true,
          "internalType": "address",
          "name": "implementation",
          "type": "address"
        }
      ],
      "name": "Upgraded",
      "type": "event"
    },
    {
      "inputs": [],
      "name": "GeodeParams",
      "outputs": [
        {
          "internalType": "address",
          "name": "governance",
          "type": "address"
        },
        {
          "internalType": "address",
          "name": "senate",
          "type": "address"
        },
        {
          "internalType": "address",
          "name": "approvedUpgrade",
          "type": "address"
        },
        {
          "internalType": "uint256",
          "name": "senateExpiry",
          "type": "uint256"
        },
        {
          "internalType": "uint256",
          "name": "packageType",
          "type": "uint256"
        }
      ],
      "stateMutability": "view",
      "type": "function"
    },
    {
      "inputs": [],
      "name": "LiquidityParams",
      "outputs": [
        {
          "internalType": "address",
          "name": "gETH",
          "type": "address"
        },
        {
          "internalType": "address",
          "name": "lpToken",
          "type": "address"
        },
        {
          "internalType": "uint256",
          "name": "pooledTokenId",
          "type": "uint256"
        },
        {
          "internalType": "uint256",
          "name": "initialA",
          "type": "uint256"
        },
        {
          "internalType": "uint256",
          "name": "futureA",
          "type": "uint256"
        },
        {
          "internalType": "uint256",
          "name": "initialATime",
          "type": "uint256"
        },
        {
          "internalType": "uint256",
          "name": "futureATime",
          "type": "uint256"
        },
        {
          "internalType": "uint256",
          "name": "swapFee",
          "type": "uint256"
        },
        {
          "internalType": "uint256",
          "name": "adminFee",
          "type": "uint256"
        }
      ],
      "stateMutability": "view",
      "type": "function"
    },
    {
      "inputs": [
        {
          "internalType": "uint256[2]",
          "name": "amounts",
          "type": "uint256[2]"
        },
        {
          "internalType": "uint256",
          "name": "minToMint",
          "type": "uint256"
        },
        {
          "internalType": "uint256",
          "name": "deadline",
          "type": "uint256"
        }
      ],
      "name": "addLiquidity",
      "outputs": [
        {
          "internalType": "uint256",
          "name": "",
          "type": "uint256"
        }
      ],
      "stateMutability": "payable",
      "type": "function"
    },
    {
      "inputs": [
        {
          "internalType": "uint256",
          "name": "_type",
          "type": "uint256"
        },
        {
          "internalType": "uint256",
          "name": "_index",
          "type": "uint256"
        }
      ],
      "name": "allIdsByType",
      "outputs": [
        {
          "internalType": "uint256",
          "name": "",
          "type": "uint256"
        }
      ],
      "stateMutability": "view",
      "type": "function"
    },
    {
      "inputs": [
        {
          "internalType": "uint256",
          "name": "_type",
          "type": "uint256"
        }
      ],
      "name": "allIdsByTypeLength",
      "outputs": [
        {
          "internalType": "uint256",
          "name": "",
          "type": "uint256"
        }
      ],
      "stateMutability": "view",
      "type": "function"
    },
    {
      "inputs": [
        {
          "internalType": "uint256",
          "name": "id",
          "type": "uint256"
        }
      ],
      "name": "approveProposal",
      "outputs": [
        {
          "internalType": "address",
          "name": "_controller",
          "type": "address"
        },
        {
          "internalType": "uint256",
          "name": "_type",
          "type": "uint256"
        },
        {
          "internalType": "bytes",
          "name": "_name",
          "type": "bytes"
        }
      ],
      "stateMutability": "nonpayable",
      "type": "function"
    },
    {
      "inputs": [
        {
          "internalType": "uint256",
          "name": "amount",
          "type": "uint256"
        }
      ],
      "name": "calculateRemoveLiquidity",
      "outputs": [
        {
          "internalType": "uint256[2]",
          "name": "",
          "type": "uint256[2]"
        }
      ],
      "stateMutability": "view",
      "type": "function"
    },
    {
      "inputs": [
        {
          "internalType": "uint256",
          "name": "tokenAmount",
          "type": "uint256"
        },
        {
          "internalType": "uint8",
          "name": "tokenIndex",
          "type": "uint8"
        }
      ],
      "name": "calculateRemoveLiquidityOneToken",
      "outputs": [
        {
          "internalType": "uint256",
          "name": "availableTokenAmount",
          "type": "uint256"
        }
      ],
      "stateMutability": "view",
      "type": "function"
    },
    {
      "inputs": [
        {
          "internalType": "uint8",
          "name": "tokenIndexFrom",
          "type": "uint8"
        },
        {
          "internalType": "uint8",
          "name": "tokenIndexTo",
          "type": "uint8"
        },
        {
          "internalType": "uint256",
          "name": "dx",
          "type": "uint256"
        }
      ],
      "name": "calculateSwap",
      "outputs": [
        {
          "internalType": "uint256",
          "name": "",
          "type": "uint256"
        }
      ],
      "stateMutability": "view",
      "type": "function"
    },
    {
      "inputs": [
        {
          "internalType": "uint256[2]",
          "name": "amounts",
          "type": "uint256[2]"
        },
        {
          "internalType": "bool",
          "name": "deposit",
          "type": "bool"
        }
      ],
      "name": "calculateTokenAmount",
      "outputs": [
        {
          "internalType": "uint256",
          "name": "",
          "type": "uint256"
        }
      ],
      "stateMutability": "view",
      "type": "function"
    },
    {
      "inputs": [
        {
          "internalType": "uint256",
          "name": "id",
          "type": "uint256"
        },
        {
          "internalType": "address",
          "name": "newCONTROLLER",
          "type": "address"
        }
      ],
      "name": "changeIdCONTROLLER",
      "outputs": [],
      "stateMutability": "nonpayable",
      "type": "function"
    },
    {
      "inputs": [
        {
          "internalType": "address",
          "name": "_newSenate",
          "type": "address"
        }
      ],
      "name": "changeSenate",
      "outputs": [],
      "stateMutability": "nonpayable",
      "type": "function"
    },
    {
      "inputs": [
        {
          "internalType": "string",
          "name": "_name",
          "type": "string"
        },
        {
          "internalType": "uint256",
          "name": "_type",
          "type": "uint256"
        }
      ],
      "name": "generateId",
      "outputs": [
        {
          "internalType": "uint256",
          "name": "id",
          "type": "uint256"
        }
      ],
      "stateMutability": "pure",
      "type": "function"
    },
    {
      "inputs": [],
      "name": "getA",
      "outputs": [
        {
          "internalType": "uint256",
          "name": "",
          "type": "uint256"
        }
      ],
      "stateMutability": "view",
      "type": "function"
    },
    {
      "inputs": [],
      "name": "getAPrecise",
      "outputs": [
        {
          "internalType": "uint256",
          "name": "",
          "type": "uint256"
        }
      ],
      "stateMutability": "view",
      "type": "function"
    },
    {
      "inputs": [
        {
          "internalType": "uint256",
          "name": "index",
          "type": "uint256"
        }
      ],
      "name": "getAdminBalance",
      "outputs": [
        {
          "internalType": "uint256",
          "name": "",
          "type": "uint256"
        }
      ],
      "stateMutability": "view",
      "type": "function"
    },
    {
      "inputs": [
        {
          "internalType": "uint8",
          "name": "index",
          "type": "uint8"
        }
      ],
      "name": "getBalance",
      "outputs": [
        {
          "internalType": "uint256",
          "name": "",
          "type": "uint256"
        }
      ],
      "stateMutability": "view",
      "type": "function"
    },
    {
      "inputs": [],
      "name": "getContractVersion",
      "outputs": [
        {
          "internalType": "uint256",
          "name": "",
          "type": "uint256"
        }
      ],
      "stateMutability": "view",
      "type": "function"
    },
    {
      "inputs": [],
      "name": "getDebt",
      "outputs": [
        {
          "internalType": "uint256",
          "name": "",
          "type": "uint256"
        }
      ],
      "stateMutability": "view",
      "type": "function"
    },
    {
      "inputs": [
        {
          "internalType": "uint256",
          "name": "_id",
          "type": "uint256"
        },
        {
          "internalType": "bytes32",
          "name": "_param",
          "type": "bytes32"
        }
      ],
      "name": "getKey",
      "outputs": [
        {
          "internalType": "bytes32",
          "name": "key",
          "type": "bytes32"
        }
      ],
      "stateMutability": "pure",
      "type": "function"
    },
    {
      "inputs": [],
      "name": "getPoolId",
      "outputs": [
        {
          "internalType": "uint256",
          "name": "",
          "type": "uint256"
        }
      ],
      "stateMutability": "view",
      "type": "function"
    },
    {
      "inputs": [],
      "name": "getPortal",
      "outputs": [
        {
          "internalType": "contract IPortal",
          "name": "",
          "type": "address"
        }
      ],
      "stateMutability": "view",
      "type": "function"
    },
    {
      "inputs": [
        {
          "internalType": "uint256",
          "name": "id",
          "type": "uint256"
        }
      ],
      "name": "getProposal",
      "outputs": [
        {
          "components": [
            {
              "internalType": "address",
              "name": "CONTROLLER",
              "type": "address"
            },
            {
              "internalType": "uint256",
              "name": "TYPE",
              "type": "uint256"
            },
            {
              "internalType": "bytes",
              "name": "NAME",
              "type": "bytes"
            },
            {
              "internalType": "uint256",
              "name": "deadline",
              "type": "uint256"
            }
          ],
          "internalType": "struct GeodeModuleLib.Proposal",
          "name": "proposal",
          "type": "tuple"
        }
      ],
      "stateMutability": "view",
      "type": "function"
    },
    {
      "inputs": [],
      "name": "getProposedVersion",
      "outputs": [
        {
          "internalType": "uint256",
          "name": "",
          "type": "uint256"
        }
      ],
      "stateMutability": "view",
      "type": "function"
    },
    {
      "inputs": [],
      "name": "getVirtualPrice",
      "outputs": [
        {
          "internalType": "uint256",
          "name": "",
          "type": "uint256"
        }
      ],
      "stateMutability": "view",
      "type": "function"
    },
    {
      "inputs": [
        {
          "internalType": "uint256",
          "name": "pooledTokenId",
          "type": "uint256"
        },
        {
          "internalType": "address",
          "name": "poolOwner",
          "type": "address"
        },
        {
          "internalType": "bytes",
          "name": "versionName",
          "type": "bytes"
        },
        {
          "internalType": "bytes",
          "name": "data",
          "type": "bytes"
        }
      ],
      "name": "initialize",
      "outputs": [],
      "stateMutability": "nonpayable",
      "type": "function"
    },
    {
      "inputs": [],
      "name": "isolationMode",
      "outputs": [
        {
          "internalType": "bool",
          "name": "",
          "type": "bool"
        }
      ],
      "stateMutability": "view",
      "type": "function"
    },
    {
      "inputs": [
        {
          "internalType": "address",
          "name": "",
          "type": "address"
        },
        {
          "internalType": "address",
          "name": "",
          "type": "address"
        },
        {
          "internalType": "uint256[]",
          "name": "",
          "type": "uint256[]"
        },
        {
          "internalType": "uint256[]",
          "name": "",
          "type": "uint256[]"
        },
        {
          "internalType": "bytes",
          "name": "",
          "type": "bytes"
        }
      ],
      "name": "onERC1155BatchReceived",
      "outputs": [
        {
          "internalType": "bytes4",
          "name": "",
          "type": "bytes4"
        }
      ],
      "stateMutability": "nonpayable",
      "type": "function"
    },
    {
      "inputs": [
        {
          "internalType": "address",
          "name": "",
          "type": "address"
        },
        {
          "internalType": "address",
          "name": "",
          "type": "address"
        },
        {
          "internalType": "uint256",
          "name": "",
          "type": "uint256"
        },
        {
          "internalType": "uint256",
          "name": "",
          "type": "uint256"
        },
        {
          "internalType": "bytes",
          "name": "",
          "type": "bytes"
        }
      ],
      "name": "onERC1155Received",
      "outputs": [
        {
          "internalType": "bytes4",
          "name": "",
          "type": "bytes4"
        }
      ],
      "stateMutability": "nonpayable",
      "type": "function"
    },
    {
      "inputs": [],
      "name": "pause",
      "outputs": [],
      "stateMutability": "nonpayable",
      "type": "function"
    },
    {
      "inputs": [],
      "name": "paused",
      "outputs": [
        {
          "internalType": "bool",
          "name": "",
          "type": "bool"
        }
      ],
      "stateMutability": "view",
      "type": "function"
    },
    {
      "inputs": [
        {
          "internalType": "address",
          "name": "_CONTROLLER",
          "type": "address"
        },
        {
          "internalType": "uint256",
          "name": "_TYPE",
          "type": "uint256"
        },
        {
          "internalType": "bytes",
          "name": "_NAME",
          "type": "bytes"
        },
        {
          "internalType": "uint256",
          "name": "duration",
          "type": "uint256"
        }
      ],
      "name": "propose",
      "outputs": [
        {
          "internalType": "uint256",
          "name": "id",
          "type": "uint256"
        }
      ],
      "stateMutability": "nonpayable",
      "type": "function"
    },
    {
      "inputs": [],
      "name": "proxiableUUID",
      "outputs": [
        {
          "internalType": "bytes32",
          "name": "",
          "type": "bytes32"
        }
      ],
      "stateMutability": "view",
      "type": "function"
    },
    {
      "inputs": [],
      "name": "pullUpgrade",
      "outputs": [],
      "stateMutability": "nonpayable",
      "type": "function"
    },
    {
      "inputs": [
        {
          "internalType": "uint256",
          "name": "futureA",
          "type": "uint256"
        },
        {
          "internalType": "uint256",
          "name": "futureTime",
          "type": "uint256"
        }
      ],
      "name": "rampA",
      "outputs": [],
      "stateMutability": "nonpayable",
      "type": "function"
    },
    {
      "inputs": [
        {
          "internalType": "uint256",
          "name": "id",
          "type": "uint256"
        },
        {
          "internalType": "bytes32",
          "name": "key",
          "type": "bytes32"
        }
      ],
      "name": "readAddress",
      "outputs": [
        {
          "internalType": "address",
          "name": "data",
          "type": "address"
        }
      ],
      "stateMutability": "view",
      "type": "function"
    },
    {
      "inputs": [
        {
          "internalType": "uint256",
          "name": "id",
          "type": "uint256"
        },
        {
          "internalType": "bytes32",
          "name": "key",
          "type": "bytes32"
        },
        {
          "internalType": "uint256",
          "name": "index",
          "type": "uint256"
        }
      ],
      "name": "readAddressArray",
      "outputs": [
        {
          "internalType": "address",
          "name": "data",
          "type": "address"
        }
      ],
      "stateMutability": "view",
      "type": "function"
    },
    {
      "inputs": [
        {
          "internalType": "uint256",
          "name": "id",
          "type": "uint256"
        },
        {
          "internalType": "bytes32",
          "name": "key",
          "type": "bytes32"
        }
      ],
      "name": "readBytes",
      "outputs": [
        {
          "internalType": "bytes",
          "name": "data",
          "type": "bytes"
        }
      ],
      "stateMutability": "view",
      "type": "function"
    },
    {
      "inputs": [
        {
          "internalType": "uint256",
          "name": "id",
          "type": "uint256"
        },
        {
          "internalType": "bytes32",
          "name": "key",
          "type": "bytes32"
        },
        {
          "internalType": "uint256",
          "name": "index",
          "type": "uint256"
        }
      ],
      "name": "readBytesArray",
      "outputs": [
        {
          "internalType": "bytes",
          "name": "data",
          "type": "bytes"
        }
      ],
      "stateMutability": "view",
      "type": "function"
    },
    {
      "inputs": [
        {
          "internalType": "uint256",
          "name": "id",
          "type": "uint256"
        },
        {
          "internalType": "bytes32",
          "name": "key",
          "type": "bytes32"
        }
      ],
      "name": "readUint",
      "outputs": [
        {
          "internalType": "uint256",
          "name": "data",
          "type": "uint256"
        }
      ],
      "stateMutability": "view",
      "type": "function"
    },
    {
      "inputs": [
        {
          "internalType": "uint256",
          "name": "id",
          "type": "uint256"
        },
        {
          "internalType": "bytes32",
          "name": "key",
          "type": "bytes32"
        },
        {
          "internalType": "uint256",
          "name": "index",
          "type": "uint256"
        }
      ],
      "name": "readUintArray",
      "outputs": [
        {
          "internalType": "uint256",
          "name": "data",
          "type": "uint256"
        }
      ],
      "stateMutability": "view",
      "type": "function"
    },
    {
      "inputs": [
        {
          "internalType": "uint256",
          "name": "amount",
          "type": "uint256"
        },
        {
          "internalType": "uint256[2]",
          "name": "minAmounts",
          "type": "uint256[2]"
        },
        {
          "internalType": "uint256",
          "name": "deadline",
          "type": "uint256"
        }
      ],
      "name": "removeLiquidity",
      "outputs": [
        {
          "internalType": "uint256[2]",
          "name": "",
          "type": "uint256[2]"
        }
      ],
      "stateMutability": "nonpayable",
      "type": "function"
    },
    {
      "inputs": [
        {
          "internalType": "uint256[2]",
          "name": "amounts",
          "type": "uint256[2]"
        },
        {
          "internalType": "uint256",
          "name": "maxBurnAmount",
          "type": "uint256"
        },
        {
          "internalType": "uint256",
          "name": "deadline",
          "type": "uint256"
        }
      ],
      "name": "removeLiquidityImbalance",
      "outputs": [
        {
          "internalType": "uint256",
          "name": "",
          "type": "uint256"
        }
      ],
      "stateMutability": "nonpayable",
      "type": "function"
    },
    {
      "inputs": [
        {
          "internalType": "uint256",
          "name": "tokenAmount",
          "type": "uint256"
        },
        {
          "internalType": "uint8",
          "name": "tokenIndex",
          "type": "uint8"
        },
        {
          "internalType": "uint256",
          "name": "minAmount",
          "type": "uint256"
        },
        {
          "internalType": "uint256",
          "name": "deadline",
          "type": "uint256"
        }
      ],
      "name": "removeLiquidityOneToken",
      "outputs": [
        {
          "internalType": "uint256",
          "name": "",
          "type": "uint256"
        }
      ],
      "stateMutability": "nonpayable",
      "type": "function"
    },
    {
      "inputs": [
        {
          "internalType": "address",
          "name": "_newSenate",
          "type": "address"
        }
      ],
      "name": "rescueSenate",
      "outputs": [],
      "stateMutability": "nonpayable",
      "type": "function"
    },
    {
      "inputs": [
        {
          "internalType": "uint256",
          "name": "newAdminFee",
          "type": "uint256"
        }
      ],
      "name": "setAdminFee",
      "outputs": [],
      "stateMutability": "nonpayable",
      "type": "function"
    },
    {
      "inputs": [
        {
          "internalType": "uint256",
          "name": "newSwapFee",
          "type": "uint256"
        }
      ],
      "name": "setSwapFee",
      "outputs": [],
      "stateMutability": "nonpayable",
      "type": "function"
    },
    {
      "inputs": [],
      "name": "stopRampA",
      "outputs": [],
      "stateMutability": "nonpayable",
      "type": "function"
    },
    {
      "inputs": [
        {
          "internalType": "bytes4",
          "name": "interfaceId",
          "type": "bytes4"
        }
      ],
      "name": "supportsInterface",
      "outputs": [
        {
          "internalType": "bool",
          "name": "",
          "type": "bool"
        }
      ],
      "stateMutability": "view",
      "type": "function"
    },
    {
      "inputs": [
        {
          "internalType": "uint8",
          "name": "tokenIndexFrom",
          "type": "uint8"
        },
        {
          "internalType": "uint8",
          "name": "tokenIndexTo",
          "type": "uint8"
        },
        {
          "internalType": "uint256",
          "name": "dx",
          "type": "uint256"
        },
        {
          "internalType": "uint256",
          "name": "minDy",
          "type": "uint256"
        },
        {
          "internalType": "uint256",
          "name": "deadline",
          "type": "uint256"
        }
      ],
      "name": "swap",
      "outputs": [
        {
          "internalType": "uint256",
          "name": "",
          "type": "uint256"
        }
      ],
      "stateMutability": "payable",
      "type": "function"
    },
    {
      "inputs": [],
      "name": "unpause",
      "outputs": [],
      "stateMutability": "nonpayable",
      "type": "function"
    },
    {
      "inputs": [
        {
          "internalType": "address",
          "name": "newImplementation",
          "type": "address"
        }
      ],
      "name": "upgradeTo",
      "outputs": [],
      "stateMutability": "nonpayable",
      "type": "function"
    },
    {
      "inputs": [
        {
          "internalType": "address",
          "name": "newImplementation",
          "type": "address"
        },
        {
          "internalType": "bytes",
          "name": "data",
          "type": "bytes"
        }
      ],
      "name": "upgradeToAndCall",
      "outputs": [],
      "stateMutability": "payable",
      "type": "function"
    },
    {
      "inputs": [
        {
          "internalType": "address",
          "name": "receiver",
          "type": "address"
        }
      ],
      "name": "withdrawAdminFees",
      "outputs": [],
      "stateMutability": "nonpayable",
      "type": "function"
    },
    {
      "stateMutability": "payable",
      "type": "receive"
    }
  ],
  "transactionHash": "0x08f5c8c584a97083104876766749d75fac536eed302dcba65421b43aecf10b0a",
  "args": [
    "0xE5d027Fc4a146AcB9Df2f30FDe4A6E72D4333bbd",
    "0x60E54A54717FE91dCfCB35ecA6F2EB4B1Ce1b007",
    "0x60BCaAa13F2B9d4F35123E757134fAb61c646c92"
  ],
  "numDeployments": 1,
  "solcInputHash": "86d7817b142b36f089c0f393516f23fa",
  "bytecode": "0x6101006040523060601b6080523480156200001957600080fd5b50604051620048f0380380620048f08339810160408190526200003c9162000259565b6001600160a01b038316620000985760405162461bcd60e51b815260206004820152601c60248201527f4c50503a5f67455448506f732063616e206e6f74206265207a65726f0000000060448201526064015b60405180910390fd5b6001600160a01b038216620000f05760405162461bcd60e51b815260206004820152601e60248201527f4c50503a5f706f7274616c506f732063616e206e6f74206265207a65726f000060448201526064016200008f565b6001600160a01b038116620001485760405162461bcd60e51b815260206004820152601f60248201527f4c50503a5f4c50546f6b656e5265662063616e206e6f74206265207a65726f0060448201526064016200008f565b6001600160601b0319606084811b821660a05283811b821660c05282901b1660e052620001746200017d565b505050620002a3565b600054610100900460ff1615620001e75760405162461bcd60e51b815260206004820152602760248201527f496e697469616c697a61626c653a20636f6e747261637420697320696e697469604482015266616c697a696e6760c81b60648201526084016200008f565b60005460ff90811610156200023a576000805460ff191660ff9081179091556040519081527f7f26b83ff96e1f2b6a682f133852f6798a09c465da95921460cefb38474024989060200160405180910390a15b565b80516001600160a01b03811681146200025457600080fd5b919050565b6000806000606084860312156200026f57600080fd5b6200027a846200023c565b92506200028a602085016200023c565b91506200029a604085016200023c565b90509250925092565b60805160601c60a05160601c60c05160601c60e05160601c6145eb6200030560003960006127c401526000612771015260006127a3015260008181610cc101528181610d01015281816110300152818161107001526110ec01526145eb6000f3fe6080604052600436106103395760003560e01c80638aa10435116101ab578063c4db7fa0116100f7578063e25aa5fa11610095578063e768887e1161006f578063e768887e14610a0b578063ef0a712f14610a2b578063f23a6e6114610a4b578063f2fad2b614610a7757600080fd5b8063e25aa5fa146109b6578063e3a12480146109cb578063e72b1d6d146109eb57600080fd5b8063d4fd01ce116100d1578063d4fd01ce146108c9578063d6f0df6214610949578063dab840c714610976578063e02a52081461099657600080fd5b8063c4db7fa014610872578063c7f758a814610887578063d46300fd146108b457600080fd5b8063a95b089f11610164578063aec988631161013e578063aec98863146107d8578063b0630715146107ed578063bc197c811461080d578063bfc65c9b1461085257600080fd5b8063a95b089f1461073b578063ad4ac4c41461075b578063ad8655cb146107b857600080fd5b80638aa10435146106835780638beb60b61461069957806391695586146106b957806398951b56146106cc5780639934b281146106fb57806399ac48ba1461071b57600080fd5b806352d1902d116102855780636d07e404116102235780637d65a7ab116101fd5780637d65a7ab1461061a5780637e0ccbff146106395780638456cb59146106595780638650c0721461066e57600080fd5b80636d07e404146105b857806372267954146105d8578063745653de1461060557600080fd5b8063593d132c1161025f578063593d132c146105325780635a34bb15146105525780635c975abb146105725780635d9e085d1461058a57600080fd5b806352d1902d146104c55780635329512b146104da57806356a72dbf1461051257600080fd5b80633659cfe6116102f25780633e3a1560116102cc5780633e3a15601461046a5780633f4ba83a1461048a57806346eda7491461049f5780634f1ef286146104b257600080fd5b80633659cfe61461041457806338fff2d0146104345780633b8ba8621461044a57600080fd5b806301ffc9a7146103455780630ba819591461037a57806314a6bf0f1461039d5780631da71591146103b2578063342a87a1146103d257806334e19907146103f257600080fd5b3661034057005b600080fd5b34801561035157600080fd5b50610365610360366004613c97565b610a97565b60405190151581526020015b60405180910390f35b34801561038657600080fd5b5061038f610ace565b604051908152602001610371565b3480156103a957600080fd5b5061038f610ae0565b3480156103be57600080fd5b5061038f6103cd366004613eeb565b610b68565b3480156103de57600080fd5b5061038f6103ed366004613f39565b610b7b565b3480156103fe57600080fd5b5061041261040d366004613dec565b610c13565b005b34801561042057600080fd5b5061041261042f366004613914565b610cb6565b34801561044057600080fd5b5061012f5461038f565b34801561045657600080fd5b5061038f610465366004613ab2565b610d9c565b34801561047657600080fd5b5061038f610485366004613f65565b610e40565b34801561049657600080fd5b50610412610f23565b61038f6104ad366004613ba6565b610f58565b6104126104c0366004613a63565b611025565b3480156104d157600080fd5b5061038f6110df565b3480156104e657600080fd5b506104fa6104f5366004613f0d565b611192565b6040516001600160a01b039091168152602001610371565b34801561051e57600080fd5b5061038f61052d366004613eeb565b6111a2565b34801561053e57600080fd5b5061041261054d366004613eeb565b6111b1565b34801561055e57600080fd5b5061038f61056d366004613cf5565b6111e9565b34801561057e57600080fd5b5060c95460ff16610365565b34801561059657600080fd5b5061038f6105a5366004613dec565b600090815261013d602052604090205490565b3480156105c457600080fd5b506104126105d3366004613e05565b611220565b3480156105e457600080fd5b506105f86105f3366004613eeb565b61129e565b6040516103719190614170565b34801561061157600080fd5b5061038f6112ad565b34801561062657600080fd5b506101b1546001600160a01b03166104fa565b34801561064557600080fd5b5061038f610654366004613b6e565b611322565b34801561066557600080fd5b50610412611362565b34801561067a57600080fd5b50610365611395565b34801561068f57600080fd5b506101b65461038f565b3480156106a557600080fd5b506104126106b4366004613dec565b6114bd565b61038f6106c7366004613ff7565b611528565b3480156106d857600080fd5b506106ec6106e7366004613dec565b611614565b60405161037193929190614118565b34801561070757600080fd5b50610412610716366004613e2a565b6116d4565b34801561072757600080fd5b506104fa610736366004613eeb565b6117f1565b34801561074757600080fd5b5061038f610756366004613fbb565b611800565b34801561076757600080fd5b506101b1546101b2546101b3546101b4546101b554604080516001600160a01b039687168152948616602086015294909216938301939093526060820192909252608081019190915260a001610371565b3480156107c457600080fd5b506104126107d3366004613914565b61189f565b3480156107e457600080fd5b506104126118e7565b3480156107f957600080fd5b50610412610808366004613914565b611ad6565b34801561081957600080fd5b5061083961082836600461394e565b63bc197c8160e01b95945050505050565b6040516001600160e01b03199091168152602001610371565b34801561085e57600080fd5b5061038f61086d366004613ba6565b611b49565b34801561087e57600080fd5b50610412611bb9565b34801561089357600080fd5b506108a76108a2366004613dec565b611bef565b604051610371919061432e565b3480156108c057600080fd5b5061038f611cb2565b3480156108d557600080fd5b5061012d5461012e5461012f54610130546101315461013254610133546101345461013554604080516001600160a01b039a8b1681529990981660208a0152968801959095526060870193909352608086019190915260a085015260c084015260e083015261010082015261012001610371565b34801561095557600080fd5b50610969610964366004613eb5565b611cbf565b604051610371919061413f565b34801561098257600080fd5b50610412610991366004613914565b611d7c565b3480156109a257600080fd5b5061038f6109b1366004613eeb565b611dc4565b3480156109c257600080fd5b5061038f611df8565b3480156109d757600080fd5b5061038f6109e6366004613fa0565b611e34565b3480156109f757600080fd5b5061038f610a06366004613f0d565b611e55565b348015610a1757600080fd5b506105f8610a26366004613f0d565b611e65565b348015610a3757600080fd5b5061038f610a46366004613dec565b611e75565b348015610a5757600080fd5b50610839610a663660046139fb565b63f23a6e6160e01b95945050505050565b348015610a8357600080fd5b50610969610a92366004613dec565b611f03565b60006001600160e01b03198216630271189760e51b1480610ac857506301ffc9a760e01b6001600160e01b03198316145b92915050565b6000610adb61012d611f95565b905090565b604051630d0ec5cd60e21b815261012d6004820152600090738bcC19B9CB58559D322372342E683F27E4A5a4939063343b1734906024015b60206040518083038186803b158015610b3057600080fd5b505af4158015610b44573d6000803e3d6000fd5b505050506040513d601f19601f82011682018060405250810190610adb9190613c7e565b6000610b748383611fa0565b9392505050565b604051633c6b3eb960e11b815261012d60048201526024810183905260ff82166044820152600090738bcC19B9CB58559D322372342E683F27E4A5a493906378d67d72906064015b60206040518083038186803b158015610bdb57600080fd5b505af4158015610bef573d6000803e3d6000fd5b505050506040513d601f19601f82011682018060405250810190610b749190613c7e565b6101b2546001600160a01b03163314610c475760405162461bcd60e51b8152600401610c3e9061426d565b60405180910390fd5b604051630382de3f60e11b815261012d600482015260248101829052738bcC19B9CB58559D322372342E683F27E4A5a49390630705bc7e906044015b60006040518083038186803b158015610c9b57600080fd5b505af4158015610caf573d6000803e3d6000fd5b5050505050565b306001600160a01b037f0000000000000000000000000000000000000000000000000000000000000000161415610cff5760405162461bcd60e51b8152600401610c3e906141a8565b7f00000000000000000000000000000000000000000000000000000000000000006001600160a01b0316610d31611fcc565b6001600160a01b031614610d575760405162461bcd60e51b8152600401610c3e906141f4565b610d6081611fe8565b610d998160005b6040519080825280601f01601f191660200182016040528015610d91576020820181803683370190505b5060006120df565b50565b6040516334c4fde360e11b815260009073169a35f22FFD0288719B48D7Cf72950A8681675b90636989fbc690610de6906101b19061013d908b908b908b908b908b906004016142e6565b60206040518083038186803b158015610dfe57600080fd5b505af4158015610e12573d6000803e3d6000fd5b505050506040513d601f19601f82011682018060405250810190610e369190613c7e565b9695505050505050565b6000610e4a61225e565b610e526122b8565b8180421115610e735760405162461bcd60e51b8152600401610c3e90614240565b60405163b8217da360e01b815261012d60048201526024810187905260ff8616604482015260648101859052738bcC19B9CB58559D322372342E683F27E4A5a4939063b8217da39060840160206040518083038186803b158015610ed657600080fd5b505af4158015610eea573d6000803e3d6000fd5b505050506040513d601f19601f82011682018060405250810190610f0e9190613c7e565b915050610f1b600160fb55565b949350505050565b6101b2546001600160a01b03163314610f4e5760405162461bcd60e51b8152600401610c3e9061426d565b610f56612305565b565b6000610f6261225e565b610f6a6122b8565b8180421115610f8b5760405162461bcd60e51b8152600401610c3e90614240565b60405163408e6d7d60e01b8152738bcC19B9CB58559D322372342E683F27E4A5a4939063408e6d7d90610fc89061012d908990899060040161439b565b60206040518083038186803b158015610fe057600080fd5b505af4158015610ff4573d6000803e3d6000fd5b505050506040513d601f19601f820116820180604052508101906110189190613c7e565b915050610b74600160fb55565b306001600160a01b037f000000000000000000000000000000000000000000000000000000000000000016141561106e5760405162461bcd60e51b8152600401610c3e906141a8565b7f00000000000000000000000000000000000000000000000000000000000000006001600160a01b03166110a0611fcc565b6001600160a01b0316146110c65760405162461bcd60e51b8152600401610c3e906141f4565b6110cf82611fe8565b6110db828260016120df565b5050565b6000306001600160a01b037f0000000000000000000000000000000000000000000000000000000000000000161461117f5760405162461bcd60e51b815260206004820152603860248201527f555550535570677261646561626c653a206d757374206e6f742062652063616c60448201527f6c6564207468726f7567682064656c656761746563616c6c00000000000000006064820152608401610c3e565b5060008051602061456f83398151915290565b6000610f1b61013d858585612357565b6000610b7461013d8484612395565b6101b2546001600160a01b031633146111dc5760405162461bcd60e51b8152600401610c3e9061426d565b6110db61012d83836123bf565b6000838383604051602001611200939291906140d7565b60408051601f198184030181529190528051602090910120949350505050565b6040516304ac4a9160e11b815261013d6004820152602481018390526001600160a01b038216604482015273169a35f22FFD0288719B48D7Cf72950A8681675b9063095895229060640160006040518083038186803b15801561128257600080fd5b505af4158015611296573d6000803e3d6000fd5b505050505050565b6060610b7461013d8484612639565b60006112c26101b1546001600160a01b031690565b6101b554604051630eca989d60e11b81526001600160a01b039290921691631d95313a916112f69160040190815260200190565b60206040518083038186803b15801561130e57600080fd5b505afa158015610b44573d6000803e3d6000fd5b6040516306de8d5b60e01b8152600090738bcC19B9CB58559D322372342E683F27E4A5a493906306de8d5b90610bc39061012d908790879060040161437c565b6101b2546001600160a01b0316331461138d5760405162461bcd60e51b8152600401610c3e9061426d565b610f566126eb565b60006113a360c95460ff1690565b156113ae5750600190565b6113b66112ad565b6101b654146113c55750600190565b6113cd611fcc565b6101b3546001600160a01b039081169116146113e95750600190565b6101b2546001600160a01b03166114096101b1546001600160a01b031690565b6001600160a01b03166399ac48ba61142161012f5490565b6040516001600160e01b031960e084901b16815260048101919091526921a7a72a2927a62622a960b11b602482015260440160206040518083038186803b15801561146b57600080fd5b505afa15801561147f573d6000803e3d6000fd5b505050506040513d601f19601f820116820180604052508101906114a39190613931565b6001600160a01b0316146114b75750600190565b50600090565b6101b2546001600160a01b031633146114e85760405162461bcd60e51b8152600401610c3e9061426d565b60405163fbe27cf760e01b815261012d600482015260248101829052738bcC19B9CB58559D322372342E683F27E4A5a4939063fbe27cf790604401610c83565b600061153261225e565b61153a6122b8565b818042111561155b5760405162461bcd60e51b8152600401610c3e90614240565b60405163c4765c6560e01b815261012d600482015260ff8089166024830152871660448201526064810186905260848101859052738bcC19B9CB58559D322372342E683F27E4A5a4939063c4765c659060a40160206040518083038186803b1580156115c657600080fd5b505af41580156115da573d6000803e3d6000fd5b505050506040513d601f19601f820116820180604052508101906115fe9190613c7e565b91505061160b600160fb55565b95945050505050565b604051639c04df5b60e01b81526101b1600482015261013d602482015260448101829052600090819060609073169a35f22FFD0288719B48D7Cf72950A8681675b90639c04df5b9060640160006040518083038186803b15801561167757600080fd5b505af415801561168b573d6000803e3d6000fd5b505050506040513d6000823e601f3d908101601f191682016040526116b39190810190613b15565b9194509250905060028214156116cd576116cd8382612728565b9193909250565b600054610100900460ff16158080156116f45750600054600160ff909116105b8061170e5750303b15801561170e575060005460ff166001145b6117715760405162461bcd60e51b815260206004820152602e60248201527f496e697469616c697a61626c653a20636f6e747261637420697320616c72656160448201526d191e481a5b9a5d1a585b1a5e995960921b6064820152608401610c3e565b6000805460ff191660011790558015611794576000805461ff0019166101001790555b6117a2878787878787612745565b80156117e8576000805461ff0019169055604051600181527f7f26b83ff96e1f2b6a682f133852f6798a09c465da95921460cefb38474024989060200160405180910390a15b50505050505050565b6000610b7461013d8484612847565b604051630421795560e41b815261012d600482015260ff80851660248301528316604482015260648101829052600090738bcC19B9CB58559D322372342E683F27E4A5a4939063421795509060840160206040518083038186803b15801561186757600080fd5b505af415801561187b573d6000803e3d6000fd5b505050506040513d601f19601f82011682018060405250810190610f1b9190613c7e565b60405163e51d9aa360e01b81526101b160048201526001600160a01b038216602482015273169a35f22FFD0288719B48D7Cf72950A8681675b9063e51d9aa390604401610c83565b6101b2546001600160a01b031633146119125760405162461bcd60e51b8152600401610c3e9061426d565b6101b1546001600160a01b03166001600160a01b0316638650c0726040518163ffffffff1660e01b815260040160206040518083038186803b15801561195757600080fd5b505afa15801561196b573d6000803e3d6000fd5b505050506040513d601f19601f8201168201806040525081019061198f9190613c61565b156119d55760405162461bcd60e51b81526020600482015260166024820152751314140e941bdc9d185b081a5cc81a5cdbdb185d195960521b6044820152606401610c3e565b6101b6546119e16112ad565b1415611a215760405162461bcd60e51b815260206004820152600f60248201526e4c50503a6e6f20757067726164657360881b6044820152606401610c3e565b6000611a366101b1546001600160a01b031690565b6101b55460405163e3099e0960e01b81526001600160a01b03929092169163e3099e0991611a6a9160040190815260200190565b600060405180830381600087803b158015611a8457600080fd5b505af1158015611a98573d6000803e3d6000fd5b505050506040513d6000823e601f3d908101601f19168201604052611ac09190810190613cc1565b9050611ad06106e782600261287b565b50505050565b6101b2546001600160a01b03163314611b015760405162461bcd60e51b8152600401610c3e9061426d565b60405163faa4649960e01b815261012d60048201526001600160a01b0382166024820152738bcC19B9CB58559D322372342E683F27E4A5a4939063faa4649990604401610c83565b6000611b5361225e565b611b5b6122b8565b8180421115611b7c5760405162461bcd60e51b8152600401610c3e90614240565b60405163c3c4e0d760e01b8152738bcC19B9CB58559D322372342E683F27E4A5a4939063c3c4e0d790610fc89061012d908990899060040161439b565b6101b2546001600160a01b03163314611be45760405162461bcd60e51b8152600401610c3e9061426d565b610f5661012d6128af565b611c23604051806080016040528060006001600160a01b031681526020016000815260200160608152602001600081525090565b60405163929fbdfb60e01b81526101b160048201526024810183905273169a35f22FFD0288719B48D7Cf72950A8681675b9063929fbdfb9060440160006040518083038186803b158015611c7657600080fd5b505af4158015611c8a573d6000803e3d6000fd5b505050506040513d6000823e601f3d908101601f19168201604052610ac89190810190613d40565b6000610adb61012d612970565b611cc761376c565b611ccf61225e565b8180421115611cf05760405162461bcd60e51b8152600401610c3e90614240565b60405163144b2bd160e11b8152738bcC19B9CB58559D322372342E683F27E4A5a4939063289657a290611d2d9061012d90899089906004016143ba565b604080518083038186803b158015611d4457600080fd5b505af4158015611d58573d6000803e3d6000fd5b505050506040513d601f19601f820116820180604052508101906110189190613bda565b604051630bde2bc360e01b81526101b160048201526001600160a01b038216602482015273169a35f22FFD0288719B48D7Cf72950A8681675b90630bde2bc390604401610c83565b600082815261013d60205260408120805483908110611de557611de561451f565b9060005260206000200154905092915050565b60405163ec77902d60e01b815261012d6004820152600090738bcC19B9CB58559D322372342E683F27E4A5a4939063ec77902d90602401610b18565b600061013660ff831660028110611e4d57611e4d61451f565b015492915050565b6000610f1b61013d858585612987565b6060610f1b61013d8585856129b6565b60405163588ade5960e11b815261012d600482015260248101829052600090738bcC19B9CB58559D322372342E683F27E4A5a4939063b115bcb29060440160206040518083038186803b158015611ecb57600080fd5b505af4158015611edf573d6000803e3d6000fd5b505050506040513d601f19601f82011682018060405250810190610ac89190613c7e565b611f0b61376c565b604051630517dcf760e21b815261012d600482015260248101839052738bcC19B9CB58559D322372342E683F27E4A5a4939063145f73dc90604401604080518083038186803b158015611f5d57600080fd5b505af4158015611f71573d6000803e3d6000fd5b505050506040513d601f19601f82011682018060405250810190610ac89190613bda565b6000610ac882612a6d565b604080516020808201949094528082019290925280518083038201815260609092019052805191012090565b60008051602061456f833981519152546001600160a01b031690565b73169a35f22FFD0288719B48D7Cf72950A8681675b633f98381a6101b18361200e611fcc565b6040516001600160e01b031960e086901b16815260048101939093526001600160a01b03918216602484015216604482015260640160206040518083038186803b15801561205b57600080fd5b505af415801561206f573d6000803e3d6000fd5b505050506040513d601f19601f820116820180604052508101906120939190613c61565b610d995760405162461bcd60e51b815260206004820152601960248201527f474d3a6e6f7420616c6c6f77656420746f2075706772616465000000000000006044820152606401610c3e565b7f4910fdfa16fed3260ed0e7147f7cc6da11a60208b5b9406d12a635614ffd91435460ff16156121175761211283612b0d565b505050565b826001600160a01b03166352d1902d6040518163ffffffff1660e01b815260040160206040518083038186803b15801561215057600080fd5b505afa925050508015612180575060408051601f3d908101601f1916820190925261217d91810190613c7e565b60015b6121e35760405162461bcd60e51b815260206004820152602e60248201527f45524331393637557067726164653a206e657720696d706c656d656e7461746960448201526d6f6e206973206e6f74205555505360901b6064820152608401610c3e565b60008051602061456f83398151915281146122525760405162461bcd60e51b815260206004820152602960248201527f45524331393637557067726164653a20756e737570706f727465642070726f786044820152681a58589b195555525160ba1b6064820152608401610c3e565b50612112838383612ba9565b600260fb5414156122b15760405162461bcd60e51b815260206004820152601f60248201527f5265656e7472616e637947756172643a207265656e7472616e742063616c6c006044820152606401610c3e565b600260fb55565b60c95460ff1615610f565760405162461bcd60e51b815260206004820152601060248201526f14185d5cd8589b194e881c185d5cd95960821b6044820152606401610c3e565b600160fb55565b61230d612bce565b60c9805460ff191690557f5db9ee0a495bf2e6ff9c91a7834c1ba4fdd244a5e8aa4e537bd38aeae4b073aa335b6040516001600160a01b03909116815260200160405180910390a1565b60008460030160006123728461236d8888611fa0565b611fa0565b81526020810191909152604001600020546001600160a01b031695945050505050565b60008360010160006123a78585611fa0565b81526020019081526020016000205490509392505050565b60058301546123d19062015180614432565b42101561242b5760405162461bcd60e51b815260206004820152602260248201527f414c3a57616974203120646179206265666f7265207374617274696e6720726160448201526106d760f41b6064820152608401610c3e565b6124386212750042614432565b8110156124875760405162461bcd60e51b815260206004820152601960248201527f414c3a496e73756666696369656e742072616d702074696d65000000000000006044820152606401610c3e565b6000821180156124995750620f424082105b6124f15760405162461bcd60e51b815260206004820152602360248201527f414c3a667574757265415f206d757374206265203e203020616e64203c204d41604482015262585f4160e81b6064820152608401610c3e565b60006124fc84612a6d565b9050600061250b60648561446c565b905081811015612574578161252160028361446c565b101561256f5760405162461bcd60e51b815260206004820152601860248201527f414c3a667574757265415f20697320746f6f20736d616c6c00000000000000006044820152606401610c3e565b6125ce565b61257f60028361446c565b8111156125ce5760405162461bcd60e51b815260206004820152601860248201527f414c3a667574757265415f20697320746f6f206c6172676500000000000000006044820152606401610c3e565b600385018290556004850181905542600586018190556006860184905560408051848152602081018490528082019290925260608201859052517fa2b71ec6df949300b59aab36b55e189697b750119dd349fcfa8c0f779e83c2549181900360800190a15050505050565b606083600201600061264b8585611fa0565b81526020019081526020016000208054612664906144ce565b80601f0160208091040260200160405190810160405280929190818152602001828054612690906144ce565b80156126dd5780601f106126b2576101008083540402835291602001916126dd565b820191906000526020600020905b8154815290600101906020018083116126c057829003601f168201915b505050505090509392505050565b6126f36122b8565b60c9805460ff191660011790557f62e78cea01bee320cd4e420270b5ea74000d11b0c9f74754ebdbfc544b05a25861233a3390565b61273182611fe8565b61273c826000610d67565b6110db81612c17565b600054610100900460ff1661276c5760405162461bcd60e51b8152600401610c3e9061429b565b61279e7f0000000000000000000000000000000000000000000000000000000000000000866000196127258888612c62565b61283f7f00000000000000000000000000000000000000000000000000000000000000007f000000000000000000000000000000000000000000000000000000000000000088603c6127106127f96402540be400600461446c565b612803919061444a565b87878080601f016020809104026020016040519081016040528093929190818152602001838380828437600092019190915250612ca792505050565b611296612cf4565b60008360030160006128598585611fa0565b81526020810191909152604001600020546001600160a01b0316949350505050565b600082826040516020016128909291906140b5565b60408051601f1981840301815291905280516020909101209392505050565b428160060154116129025760405162461bcd60e51b815260206004820152601a60248201527f414c3a52616d7020697320616c72656164792073746f707065640000000000006044820152606401610c3e565b600061290d82612a6d565b60038301819055600483018190554260058401819055600684018190556040519192507f46e22fb3709ad289f62ce63d469248536dbc78d82b84a3d7e74ad606dc2019389161296491848252602082015260400190565b60405180910390a15050565b6000606461297d83612a6d565b610ac8919061444a565b600084600101600061299d8461236d8888611fa0565b8152602001908152602001600020549050949350505050565b60608460020160006129cc8461236d8888611fa0565b815260200190815260200160002080546129e5906144ce565b80601f0160208091040260200160405190810160405280929190818152602001828054612a11906144ce565b8015612a5e5780601f10612a3357610100808354040283529160200191612a5e565b820191906000526020600020905b815481529060010190602001808311612a4157829003601f168201915b50505050509050949350505050565b600681015460048201546000919042821115610b74576005840154600385015480831115612ad157612a9f828561448b565b612aa9834261448b565b612ab3838661448b565b612abd919061446c565b612ac7919061444a565b610e369082614432565b612adb828561448b565b612ae5834261448b565b612aef858461448b565b612af9919061446c565b612b03919061444a565b610e36908261448b565b6001600160a01b0381163b612b7a5760405162461bcd60e51b815260206004820152602d60248201527f455243313936373a206e657720696d706c656d656e746174696f6e206973206e60448201526c1bdd08184818dbdb9d1c9858dd609a1b6064820152608401610c3e565b60008051602061456f83398151915280546001600160a01b0319166001600160a01b0392909216919091179055565b612bb283612d1b565b600082511180612bbf5750805b1561211257611ad08383612d5b565b60c95460ff16610f565760405162461bcd60e51b815260206004820152601460248201527314185d5cd8589b194e881b9bdd081c185d5cd95960621b6044820152606401610c3e565b6000612c29826101b16004015461287b565b6101b68190556040518181529091507ffddcded6b4f4730c226821172046b48372d3cd963c159701ae1b7c3bcac541bb90602001612964565b600054610100900460ff16612c895760405162461bcd60e51b8152600401610c3e9061429b565b612c91612cf4565b612c99612cf4565b611296868686868686612e46565b600054610100900460ff16612cce5760405162461bcd60e51b8152600401610c3e9061429b565b612cd66131ea565b612cde613219565b612ce6612cf4565b611296868686868686613248565b600054610100900460ff16610f565760405162461bcd60e51b8152600401610c3e9061429b565b612d2481612b0d565b6040516001600160a01b038216907fbc7cd75a20ee27fd9adebab32041f755214dbc6bffa90cc0225b39da2e5c2d3b90600090a250565b60606001600160a01b0383163b612dc35760405162461bcd60e51b815260206004820152602660248201527f416464726573733a2064656c65676174652063616c6c20746f206e6f6e2d636f6044820152651b9d1c9858dd60d21b6064820152608401610c3e565b600080846001600160a01b031684604051612dde9190614099565b600060405180830381855af49150503d8060008114612e19576040519150601f19603f3d011682016040523d82523d6000602084013e612e1e565b606091505b509150915061160b828260405180606001604052806027815260200161458f60279139613635565b600054610100900460ff16612e6d5760405162461bcd60e51b8152600401610c3e9061429b565b6001600160a01b038616612ec35760405162461bcd60e51b815260206004820152601d60248201527f474d3a676f7665726e616e63652063616e206e6f74206265207a65726f0000006044820152606401610c3e565b6001600160a01b038516612f195760405162461bcd60e51b815260206004820152601960248201527f474d3a73656e6174652063616e206e6f74206265207a65726f000000000000006044820152606401610c3e565b428411612f5e5760405162461bcd60e51b8152602060048201526013602482015272474d3a6c6f772073656e61746545787069727960681b6044820152606401610c3e565b82612fab5760405162461bcd60e51b815260206004820152601e60248201527f474d3a7061636b616765547970652063616e206e6f74206265207a65726f00006044820152606401610c3e565b806130045760405162461bcd60e51b815260206004820152602360248201527f474d3a696e697456657273696f6e4e616d652063616e206e6f7420626520656d60448201526270747960e81b6064820152608401610c3e565b6101b18054336001600160a01b0319918216811783556101b280549092161790556101b48590556101b584905560009073169a35f22FFD0288719B48D7Cf72950A8681675b90636989fbc69061013d61305b611fcc565b60028888620151806040518863ffffffff1660e01b815260040161308597969594939291906142e6565b60206040518083038186803b15801561309d57600080fd5b505af41580156130b1573d6000803e3d6000fd5b505050506040513d601f19601f820116820180604052508101906130d59190613c7e565b604051639c04df5b60e01b81526101b1600482015261013d60248201526044810182905290915073169a35f22FFD0288719B48D7Cf72950A8681675b90639c04df5b9060640160006040518083038186803b15801561313357600080fd5b505af4158015613147573d6000803e3d6000fd5b505050506040513d6000823e601f3d908101601f1916820160405261316f9190810190613b15565b5050506131b183838080601f016020809104026020016040519081016040528093929190818152602001838380828437600092019190915250612c1792505050565b50506101b180546001600160a01b039687166001600160a01b0319918216179091556101b2805495909616941693909317909355505050565b600054610100900460ff166132115760405162461bcd60e51b8152600401610c3e9061429b565b610f5661364e565b600054610100900460ff166132405760405162461bcd60e51b8152600401610c3e9061429b565b610f56613675565b600054610100900460ff1661326f5760405162461bcd60e51b8152600401610c3e9061429b565b6001600160a01b0386166132cf5760405162461bcd60e51b815260206004820152602160248201527f4c4d3a5f674554485f706f736974696f6e2063616e206e6f74206265207a65726044820152606f60f81b6064820152608401610c3e565b6001600160a01b0385166133335760405162461bcd60e51b815260206004820152602560248201527f4c4d3a5f6c70546f6b656e5f7265666572616e63652063616e206e6f74206265604482015264207a65726f60d81b6064820152608401610c3e565b8361338a5760405162461bcd60e51b815260206004820152602160248201527f4c4d3a5f706f6f6c6564546f6b656e49642063616e206e6f74206265207a65726044820152606f60f81b6064820152608401610c3e565b826133cf5760405162461bcd60e51b81526020600482015260156024820152744c4d3a5f412063616e206e6f74206265207a65726f60581b6044820152606401610c3e565b620f424083106134195760405162461bcd60e51b81526020600482015260156024820152744c4d3a5f412065786365656473206d6178696d756d60581b6044820152606401610c3e565b61342960646402540be40061444a565b82106134775760405162461bcd60e51b815260206004820152601b60248201527f4c4d3a5f737761704665652065786365656473206d6178696d756d00000000006044820152606401610c3e565b6000613482866136a8565b604080518082018252601081526f023b2b7b232902628102a37b5b2b71d160851b60208083019190915282518084018452600381526202d4c560ec1b81830152925193945090926001600160a01b03851691634cd88b76916134e89186918991016140e9565b604051602081830303815290604052868460405160200161350a9291906140e9565b6040516020818303038152906040526040518363ffffffff1660e01b8152600401613536929190614183565b600060405180830381600087803b15801561355057600080fd5b505af1158015613564573d6000803e3d6000fd5b505061012d80546001600160a01b03808e166001600160a01b03199283161790925561012e805492881692909116919091179055505061012f8790556135ab60648761446c565b610130556135ba60648761446c565b6101315561013485905561012d54604051630492f6e160e01b815260048101899052600160248201526001600160a01b0390911690630492f6e190604401600060405180830381600087803b15801561361257600080fd5b505af1158015613626573d6000803e3d6000fd5b50505050505050505050505050565b60608315613644575081610b74565b610b748383613742565b600054610100900460ff166122fe5760405162461bcd60e51b8152600401610c3e9061429b565b600054610100900460ff1661369c5760405162461bcd60e51b8152600401610c3e9061429b565b60c9805460ff19169055565b6000763d602d80600a3d3981f3363d3d373d3d3d363d730000008260601b60e81c176000526e5af43d82803e903d91602b57fd5bf38260781b17602052603760096000f090506001600160a01b03811661373d5760405162461bcd60e51b8152602060048201526016602482015275115490cc4c4d8dce8818dc99585d194819985a5b195960521b6044820152606401610c3e565b919050565b8151156137525781518083602001fd5b8060405162461bcd60e51b8152600401610c3e9190614170565b60405180604001604052806002906020820280368337509192915050565b8060408101831015610ac857600080fd5b600082601f8301126137ac57600080fd5b813560206001600160401b038211156137c7576137c7614535565b8160051b6137d68282016143db565b8381528281019086840183880185018910156137f157600080fd5b600093505b858410156138145780358352600193909301929184019184016137f6565b50979650505050505050565b60008083601f84011261383257600080fd5b5081356001600160401b0381111561384957600080fd5b60208301915083602082850101111561386157600080fd5b9250929050565b600082601f83011261387957600080fd5b813561388c6138878261440b565b6143db565b8181528460208386010111156138a157600080fd5b816020850160208301376000918101602001919091529392505050565b600082601f8301126138cf57600080fd5b81516138dd6138878261440b565b8181528460208386010111156138f257600080fd5b610f1b8260208301602087016144a2565b803560ff8116811461373d57600080fd5b60006020828403121561392657600080fd5b8135610b748161454b565b60006020828403121561394357600080fd5b8151610b748161454b565b600080600080600060a0868803121561396657600080fd5b85356139718161454b565b945060208601356139818161454b565b935060408601356001600160401b038082111561399d57600080fd5b6139a989838a0161379b565b945060608801359150808211156139bf57600080fd5b6139cb89838a0161379b565b935060808801359150808211156139e157600080fd5b506139ee88828901613868565b9150509295509295909350565b600080600080600060a08688031215613a1357600080fd5b8535613a1e8161454b565b94506020860135613a2e8161454b565b9350604086013592506060860135915060808601356001600160401b03811115613a5757600080fd5b6139ee88828901613868565b60008060408385031215613a7657600080fd5b8235613a818161454b565b915060208301356001600160401b03811115613a9c57600080fd5b613aa885828601613868565b9150509250929050565b600080600080600060808688031215613aca57600080fd5b8535613ad58161454b565b94506020860135935060408601356001600160401b03811115613af757600080fd5b613b0388828901613820565b96999598509660600135949350505050565b600080600060608486031215613b2a57600080fd5b8351613b358161454b565b6020850151604086015191945092506001600160401b03811115613b5857600080fd5b613b64868287016138be565b9150509250925092565b60008060608385031215613b8157600080fd5b613b8b848461378a565b91506040830135613b9b81614560565b809150509250929050565b600080600060808486031215613bbb57600080fd5b613bc5858561378a565b95604085013595506060909401359392505050565b600060408284031215613bec57600080fd5b82601f830112613bfb57600080fd5b604051604081018181106001600160401b0382111715613c1d57613c1d614535565b8060405250808385604086011115613c3457600080fd5b60005b6002811015613c56578151835260209283019290910190600101613c37565b509195945050505050565b600060208284031215613c7357600080fd5b8151610b7481614560565b600060208284031215613c9057600080fd5b5051919050565b600060208284031215613ca957600080fd5b81356001600160e01b031981168114610b7457600080fd5b600060208284031215613cd357600080fd5b81516001600160401b03811115613ce957600080fd5b610f1b848285016138be565b600080600060408486031215613d0a57600080fd5b83356001600160401b03811115613d2057600080fd5b613d2c86828701613820565b909790965060209590950135949350505050565b600060208284031215613d5257600080fd5b81516001600160401b0380821115613d6957600080fd5b9083019060808286031215613d7d57600080fd5b604051608081018181108382111715613d9857613d98614535565b6040528251613da68161454b565b815260208381015190820152604083015182811115613dc457600080fd5b613dd0878286016138be565b6040830152506060830151606082015280935050505092915050565b600060208284031215613dfe57600080fd5b5035919050565b60008060408385031215613e1857600080fd5b823591506020830135613b9b8161454b565b60008060008060008060808789031215613e4357600080fd5b863595506020870135613e558161454b565b945060408701356001600160401b0380821115613e7157600080fd5b613e7d8a838b01613820565b90965094506060890135915080821115613e9657600080fd5b50613ea389828a01613820565b979a9699509497509295939492505050565b600080600060808486031215613eca57600080fd5b83359250613edb856020860161378a565b9150606084013590509250925092565b60008060408385031215613efe57600080fd5b50508035926020909101359150565b600080600060608486031215613f2257600080fd5b505081359360208301359350604090920135919050565b60008060408385031215613f4c57600080fd5b82359150613f5c60208401613903565b90509250929050565b60008060008060808587031215613f7b57600080fd5b84359350613f8b60208601613903565b93969395505050506040820135916060013590565b600060208284031215613fb257600080fd5b610b7482613903565b600080600060608486031215613fd057600080fd5b613fd984613903565b9250613fe760208501613903565b9150604084013590509250925092565b600080600080600060a0868803121561400f57600080fd5b61401886613903565b945061402660208701613903565b94979496505050506040830135926060810135926080909101359150565b81835281816020850137506000828201602090810191909152601f909101601f19169091010190565b600081518084526140858160208601602086016144a2565b601f01601f19169290920160200192915050565b600082516140ab8184602087016144a2565b9190910192915050565b600083516140c78184602088016144a2565b9190910191825250602001919050565b82848237909101908152602001919050565b600083516140fb8184602088016144a2565b83519083019061410f8183602088016144a2565b01949350505050565b60018060a01b038416815282602082015260606040820152600061160b606083018461406d565b60408101818360005b6002811015614167578151835260209283019290910190600101614148565b50505092915050565b602081526000610b74602083018461406d565b604081526000614196604083018561406d565b828103602084015261160b818561406d565b6020808252602c908201527f46756e6374696f6e206d7573742062652063616c6c6564207468726f7567682060408201526b19195b1959d85d1958d85b1b60a21b606082015260800190565b6020808252602c908201527f46756e6374696f6e206d7573742062652063616c6c6564207468726f7567682060408201526b6163746976652070726f787960a01b606082015260800190565b60208082526013908201527213134e911958591b1a5b99481b9bdd081b595d606a1b604082015260600190565b6020808252601490820152732628281d39b2b73232b9102727aa1037bbb732b960611b604082015260600190565b6020808252602b908201527f496e697469616c697a61626c653a20636f6e7472616374206973206e6f74206960408201526a6e697469616c697a696e6760a81b606082015260800190565b87815286602082015260018060a01b038616604082015284606082015260c06080820152600061431a60c083018587614044565b90508260a083015298975050505050505050565b6020815260018060a01b03825116602082015260208201516040820152600060408301516080606084015261436660a084018261406d565b9050606084015160808401528091505092915050565b8381526080810160408460208401379115156060919091015292915050565b8381526080810160408460208401376060919091019190915292915050565b83815260208101839052608081016040838184013760008152949350505050565b604051601f8201601f191681016001600160401b038111828210171561440357614403614535565b604052919050565b60006001600160401b0382111561442457614424614535565b50601f01601f191660200190565b6000821982111561444557614445614509565b500190565b60008261446757634e487b7160e01b600052601260045260246000fd5b500490565b600081600019048311821515161561448657614486614509565b500290565b60008282101561449d5761449d614509565b500390565b60005b838110156144bd5781810151838201526020016144a5565b83811115611ad05750506000910152565b600181811c908216806144e257607f821691505b6020821081141561450357634e487b7160e01b600052602260045260246000fd5b50919050565b634e487b7160e01b600052601160045260246000fd5b634e487b7160e01b600052603260045260246000fd5b634e487b7160e01b600052604160045260246000fd5b6001600160a01b0381168114610d9957600080fd5b8015158114610d9957600080fdfe360894a13ba1a3210667c828492db98dca3e2076cc3735a920a3ca505d382bbc416464726573733a206c6f772d6c6576656c2064656c65676174652063616c6c206661696c6564a264697066735822122000c33f9ab22224874ca7f6fb8ab902fb5e07a5a5808a50632b691474eff1f9a864736f6c63430008070033",
  "deployedBytecode": "0x6080604052600436106103395760003560e01c80638aa10435116101ab578063c4db7fa0116100f7578063e25aa5fa11610095578063e768887e1161006f578063e768887e14610a0b578063ef0a712f14610a2b578063f23a6e6114610a4b578063f2fad2b614610a7757600080fd5b8063e25aa5fa146109b6578063e3a12480146109cb578063e72b1d6d146109eb57600080fd5b8063d4fd01ce116100d1578063d4fd01ce146108c9578063d6f0df6214610949578063dab840c714610976578063e02a52081461099657600080fd5b8063c4db7fa014610872578063c7f758a814610887578063d46300fd146108b457600080fd5b8063a95b089f11610164578063aec988631161013e578063aec98863146107d8578063b0630715146107ed578063bc197c811461080d578063bfc65c9b1461085257600080fd5b8063a95b089f1461073b578063ad4ac4c41461075b578063ad8655cb146107b857600080fd5b80638aa10435146106835780638beb60b61461069957806391695586146106b957806398951b56146106cc5780639934b281146106fb57806399ac48ba1461071b57600080fd5b806352d1902d116102855780636d07e404116102235780637d65a7ab116101fd5780637d65a7ab1461061a5780637e0ccbff146106395780638456cb59146106595780638650c0721461066e57600080fd5b80636d07e404146105b857806372267954146105d8578063745653de1461060557600080fd5b8063593d132c1161025f578063593d132c146105325780635a34bb15146105525780635c975abb146105725780635d9e085d1461058a57600080fd5b806352d1902d146104c55780635329512b146104da57806356a72dbf1461051257600080fd5b80633659cfe6116102f25780633e3a1560116102cc5780633e3a15601461046a5780633f4ba83a1461048a57806346eda7491461049f5780634f1ef286146104b257600080fd5b80633659cfe61461041457806338fff2d0146104345780633b8ba8621461044a57600080fd5b806301ffc9a7146103455780630ba819591461037a57806314a6bf0f1461039d5780631da71591146103b2578063342a87a1146103d257806334e19907146103f257600080fd5b3661034057005b600080fd5b34801561035157600080fd5b50610365610360366004613c97565b610a97565b60405190151581526020015b60405180910390f35b34801561038657600080fd5b5061038f610ace565b604051908152602001610371565b3480156103a957600080fd5b5061038f610ae0565b3480156103be57600080fd5b5061038f6103cd366004613eeb565b610b68565b3480156103de57600080fd5b5061038f6103ed366004613f39565b610b7b565b3480156103fe57600080fd5b5061041261040d366004613dec565b610c13565b005b34801561042057600080fd5b5061041261042f366004613914565b610cb6565b34801561044057600080fd5b5061012f5461038f565b34801561045657600080fd5b5061038f610465366004613ab2565b610d9c565b34801561047657600080fd5b5061038f610485366004613f65565b610e40565b34801561049657600080fd5b50610412610f23565b61038f6104ad366004613ba6565b610f58565b6104126104c0366004613a63565b611025565b3480156104d157600080fd5b5061038f6110df565b3480156104e657600080fd5b506104fa6104f5366004613f0d565b611192565b6040516001600160a01b039091168152602001610371565b34801561051e57600080fd5b5061038f61052d366004613eeb565b6111a2565b34801561053e57600080fd5b5061041261054d366004613eeb565b6111b1565b34801561055e57600080fd5b5061038f61056d366004613cf5565b6111e9565b34801561057e57600080fd5b5060c95460ff16610365565b34801561059657600080fd5b5061038f6105a5366004613dec565b600090815261013d602052604090205490565b3480156105c457600080fd5b506104126105d3366004613e05565b611220565b3480156105e457600080fd5b506105f86105f3366004613eeb565b61129e565b6040516103719190614170565b34801561061157600080fd5b5061038f6112ad565b34801561062657600080fd5b506101b1546001600160a01b03166104fa565b34801561064557600080fd5b5061038f610654366004613b6e565b611322565b34801561066557600080fd5b50610412611362565b34801561067a57600080fd5b50610365611395565b34801561068f57600080fd5b506101b65461038f565b3480156106a557600080fd5b506104126106b4366004613dec565b6114bd565b61038f6106c7366004613ff7565b611528565b3480156106d857600080fd5b506106ec6106e7366004613dec565b611614565b60405161037193929190614118565b34801561070757600080fd5b50610412610716366004613e2a565b6116d4565b34801561072757600080fd5b506104fa610736366004613eeb565b6117f1565b34801561074757600080fd5b5061038f610756366004613fbb565b611800565b34801561076757600080fd5b506101b1546101b2546101b3546101b4546101b554604080516001600160a01b039687168152948616602086015294909216938301939093526060820192909252608081019190915260a001610371565b3480156107c457600080fd5b506104126107d3366004613914565b61189f565b3480156107e457600080fd5b506104126118e7565b3480156107f957600080fd5b50610412610808366004613914565b611ad6565b34801561081957600080fd5b5061083961082836600461394e565b63bc197c8160e01b95945050505050565b6040516001600160e01b03199091168152602001610371565b34801561085e57600080fd5b5061038f61086d366004613ba6565b611b49565b34801561087e57600080fd5b50610412611bb9565b34801561089357600080fd5b506108a76108a2366004613dec565b611bef565b604051610371919061432e565b3480156108c057600080fd5b5061038f611cb2565b3480156108d557600080fd5b5061012d5461012e5461012f54610130546101315461013254610133546101345461013554604080516001600160a01b039a8b1681529990981660208a0152968801959095526060870193909352608086019190915260a085015260c084015260e083015261010082015261012001610371565b34801561095557600080fd5b50610969610964366004613eb5565b611cbf565b604051610371919061413f565b34801561098257600080fd5b50610412610991366004613914565b611d7c565b3480156109a257600080fd5b5061038f6109b1366004613eeb565b611dc4565b3480156109c257600080fd5b5061038f611df8565b3480156109d757600080fd5b5061038f6109e6366004613fa0565b611e34565b3480156109f757600080fd5b5061038f610a06366004613f0d565b611e55565b348015610a1757600080fd5b506105f8610a26366004613f0d565b611e65565b348015610a3757600080fd5b5061038f610a46366004613dec565b611e75565b348015610a5757600080fd5b50610839610a663660046139fb565b63f23a6e6160e01b95945050505050565b348015610a8357600080fd5b50610969610a92366004613dec565b611f03565b60006001600160e01b03198216630271189760e51b1480610ac857506301ffc9a760e01b6001600160e01b03198316145b92915050565b6000610adb61012d611f95565b905090565b604051630d0ec5cd60e21b815261012d600482015260009073__$6c98a486c71811a2b32bebc3d3e0ea64af$__9063343b1734906024015b60206040518083038186803b158015610b3057600080fd5b505af4158015610b44573d6000803e3d6000fd5b505050506040513d601f19601f82011682018060405250810190610adb9190613c7e565b6000610b748383611fa0565b9392505050565b604051633c6b3eb960e11b815261012d60048201526024810183905260ff8216604482015260009073__$6c98a486c71811a2b32bebc3d3e0ea64af$__906378d67d72906064015b60206040518083038186803b158015610bdb57600080fd5b505af4158015610bef573d6000803e3d6000fd5b505050506040513d601f19601f82011682018060405250810190610b749190613c7e565b6101b2546001600160a01b03163314610c475760405162461bcd60e51b8152600401610c3e9061426d565b60405180910390fd5b604051630382de3f60e11b815261012d60048201526024810182905273__$6c98a486c71811a2b32bebc3d3e0ea64af$__90630705bc7e906044015b60006040518083038186803b158015610c9b57600080fd5b505af4158015610caf573d6000803e3d6000fd5b5050505050565b306001600160a01b037f0000000000000000000000000000000000000000000000000000000000000000161415610cff5760405162461bcd60e51b8152600401610c3e906141a8565b7f00000000000000000000000000000000000000000000000000000000000000006001600160a01b0316610d31611fcc565b6001600160a01b031614610d575760405162461bcd60e51b8152600401610c3e906141f4565b610d6081611fe8565b610d998160005b6040519080825280601f01601f191660200182016040528015610d91576020820181803683370190505b5060006120df565b50565b6040516334c4fde360e11b815260009073__$5eb4f00466582f7d4fb62bc47062007858$__90636989fbc690610de6906101b19061013d908b908b908b908b908b906004016142e6565b60206040518083038186803b158015610dfe57600080fd5b505af4158015610e12573d6000803e3d6000fd5b505050506040513d601f19601f82011682018060405250810190610e369190613c7e565b9695505050505050565b6000610e4a61225e565b610e526122b8565b8180421115610e735760405162461bcd60e51b8152600401610c3e90614240565b60405163b8217da360e01b815261012d60048201526024810187905260ff861660448201526064810185905273__$6c98a486c71811a2b32bebc3d3e0ea64af$__9063b8217da39060840160206040518083038186803b158015610ed657600080fd5b505af4158015610eea573d6000803e3d6000fd5b505050506040513d601f19601f82011682018060405250810190610f0e9190613c7e565b915050610f1b600160fb55565b949350505050565b6101b2546001600160a01b03163314610f4e5760405162461bcd60e51b8152600401610c3e9061426d565b610f56612305565b565b6000610f6261225e565b610f6a6122b8565b8180421115610f8b5760405162461bcd60e51b8152600401610c3e90614240565b60405163408e6d7d60e01b815273__$6c98a486c71811a2b32bebc3d3e0ea64af$__9063408e6d7d90610fc89061012d908990899060040161439b565b60206040518083038186803b158015610fe057600080fd5b505af4158015610ff4573d6000803e3d6000fd5b505050506040513d601f19601f820116820180604052508101906110189190613c7e565b915050610b74600160fb55565b306001600160a01b037f000000000000000000000000000000000000000000000000000000000000000016141561106e5760405162461bcd60e51b8152600401610c3e906141a8565b7f00000000000000000000000000000000000000000000000000000000000000006001600160a01b03166110a0611fcc565b6001600160a01b0316146110c65760405162461bcd60e51b8152600401610c3e906141f4565b6110cf82611fe8565b6110db828260016120df565b5050565b6000306001600160a01b037f0000000000000000000000000000000000000000000000000000000000000000161461117f5760405162461bcd60e51b815260206004820152603860248201527f555550535570677261646561626c653a206d757374206e6f742062652063616c60448201527f6c6564207468726f7567682064656c656761746563616c6c00000000000000006064820152608401610c3e565b5060008051602061456f83398151915290565b6000610f1b61013d858585612357565b6000610b7461013d8484612395565b6101b2546001600160a01b031633146111dc5760405162461bcd60e51b8152600401610c3e9061426d565b6110db61012d83836123bf565b6000838383604051602001611200939291906140d7565b60408051601f198184030181529190528051602090910120949350505050565b6040516304ac4a9160e11b815261013d6004820152602481018390526001600160a01b038216604482015273__$5eb4f00466582f7d4fb62bc47062007858$__9063095895229060640160006040518083038186803b15801561128257600080fd5b505af4158015611296573d6000803e3d6000fd5b505050505050565b6060610b7461013d8484612639565b60006112c26101b1546001600160a01b031690565b6101b554604051630eca989d60e11b81526001600160a01b039290921691631d95313a916112f69160040190815260200190565b60206040518083038186803b15801561130e57600080fd5b505afa158015610b44573d6000803e3d6000fd5b6040516306de8d5b60e01b815260009073__$6c98a486c71811a2b32bebc3d3e0ea64af$__906306de8d5b90610bc39061012d908790879060040161437c565b6101b2546001600160a01b0316331461138d5760405162461bcd60e51b8152600401610c3e9061426d565b610f566126eb565b60006113a360c95460ff1690565b156113ae5750600190565b6113b66112ad565b6101b654146113c55750600190565b6113cd611fcc565b6101b3546001600160a01b039081169116146113e95750600190565b6101b2546001600160a01b03166114096101b1546001600160a01b031690565b6001600160a01b03166399ac48ba61142161012f5490565b6040516001600160e01b031960e084901b16815260048101919091526921a7a72a2927a62622a960b11b602482015260440160206040518083038186803b15801561146b57600080fd5b505afa15801561147f573d6000803e3d6000fd5b505050506040513d601f19601f820116820180604052508101906114a39190613931565b6001600160a01b0316146114b75750600190565b50600090565b6101b2546001600160a01b031633146114e85760405162461bcd60e51b8152600401610c3e9061426d565b60405163fbe27cf760e01b815261012d60048201526024810182905273__$6c98a486c71811a2b32bebc3d3e0ea64af$__9063fbe27cf790604401610c83565b600061153261225e565b61153a6122b8565b818042111561155b5760405162461bcd60e51b8152600401610c3e90614240565b60405163c4765c6560e01b815261012d600482015260ff808916602483015287166044820152606481018690526084810185905273__$6c98a486c71811a2b32bebc3d3e0ea64af$__9063c4765c659060a40160206040518083038186803b1580156115c657600080fd5b505af41580156115da573d6000803e3d6000fd5b505050506040513d601f19601f820116820180604052508101906115fe9190613c7e565b91505061160b600160fb55565b95945050505050565b604051639c04df5b60e01b81526101b1600482015261013d602482015260448101829052600090819060609073__$5eb4f00466582f7d4fb62bc47062007858$__90639c04df5b9060640160006040518083038186803b15801561167757600080fd5b505af415801561168b573d6000803e3d6000fd5b505050506040513d6000823e601f3d908101601f191682016040526116b39190810190613b15565b9194509250905060028214156116cd576116cd8382612728565b9193909250565b600054610100900460ff16158080156116f45750600054600160ff909116105b8061170e5750303b15801561170e575060005460ff166001145b6117715760405162461bcd60e51b815260206004820152602e60248201527f496e697469616c697a61626c653a20636f6e747261637420697320616c72656160448201526d191e481a5b9a5d1a585b1a5e995960921b6064820152608401610c3e565b6000805460ff191660011790558015611794576000805461ff0019166101001790555b6117a2878787878787612745565b80156117e8576000805461ff0019169055604051600181527f7f26b83ff96e1f2b6a682f133852f6798a09c465da95921460cefb38474024989060200160405180910390a15b50505050505050565b6000610b7461013d8484612847565b604051630421795560e41b815261012d600482015260ff8085166024830152831660448201526064810182905260009073__$6c98a486c71811a2b32bebc3d3e0ea64af$__9063421795509060840160206040518083038186803b15801561186757600080fd5b505af415801561187b573d6000803e3d6000fd5b505050506040513d601f19601f82011682018060405250810190610f1b9190613c7e565b60405163e51d9aa360e01b81526101b160048201526001600160a01b038216602482015273__$5eb4f00466582f7d4fb62bc47062007858$__9063e51d9aa390604401610c83565b6101b2546001600160a01b031633146119125760405162461bcd60e51b8152600401610c3e9061426d565b6101b1546001600160a01b03166001600160a01b0316638650c0726040518163ffffffff1660e01b815260040160206040518083038186803b15801561195757600080fd5b505afa15801561196b573d6000803e3d6000fd5b505050506040513d601f19601f8201168201806040525081019061198f9190613c61565b156119d55760405162461bcd60e51b81526020600482015260166024820152751314140e941bdc9d185b081a5cc81a5cdbdb185d195960521b6044820152606401610c3e565b6101b6546119e16112ad565b1415611a215760405162461bcd60e51b815260206004820152600f60248201526e4c50503a6e6f20757067726164657360881b6044820152606401610c3e565b6000611a366101b1546001600160a01b031690565b6101b55460405163e3099e0960e01b81526001600160a01b03929092169163e3099e0991611a6a9160040190815260200190565b600060405180830381600087803b158015611a8457600080fd5b505af1158015611a98573d6000803e3d6000fd5b505050506040513d6000823e601f3d908101601f19168201604052611ac09190810190613cc1565b9050611ad06106e782600261287b565b50505050565b6101b2546001600160a01b03163314611b015760405162461bcd60e51b8152600401610c3e9061426d565b60405163faa4649960e01b815261012d60048201526001600160a01b038216602482015273__$6c98a486c71811a2b32bebc3d3e0ea64af$__9063faa4649990604401610c83565b6000611b5361225e565b611b5b6122b8565b8180421115611b7c5760405162461bcd60e51b8152600401610c3e90614240565b60405163c3c4e0d760e01b815273__$6c98a486c71811a2b32bebc3d3e0ea64af$__9063c3c4e0d790610fc89061012d908990899060040161439b565b6101b2546001600160a01b03163314611be45760405162461bcd60e51b8152600401610c3e9061426d565b610f5661012d6128af565b611c23604051806080016040528060006001600160a01b031681526020016000815260200160608152602001600081525090565b60405163929fbdfb60e01b81526101b160048201526024810183905273__$5eb4f00466582f7d4fb62bc47062007858$__9063929fbdfb9060440160006040518083038186803b158015611c7657600080fd5b505af4158015611c8a573d6000803e3d6000fd5b505050506040513d6000823e601f3d908101601f19168201604052610ac89190810190613d40565b6000610adb61012d612970565b611cc761376c565b611ccf61225e565b8180421115611cf05760405162461bcd60e51b8152600401610c3e90614240565b60405163144b2bd160e11b815273__$6c98a486c71811a2b32bebc3d3e0ea64af$__9063289657a290611d2d9061012d90899089906004016143ba565b604080518083038186803b158015611d4457600080fd5b505af4158015611d58573d6000803e3d6000fd5b505050506040513d601f19601f820116820180604052508101906110189190613bda565b604051630bde2bc360e01b81526101b160048201526001600160a01b038216602482015273__$5eb4f00466582f7d4fb62bc47062007858$__90630bde2bc390604401610c83565b600082815261013d60205260408120805483908110611de557611de561451f565b9060005260206000200154905092915050565b60405163ec77902d60e01b815261012d600482015260009073__$6c98a486c71811a2b32bebc3d3e0ea64af$__9063ec77902d90602401610b18565b600061013660ff831660028110611e4d57611e4d61451f565b015492915050565b6000610f1b61013d858585612987565b6060610f1b61013d8585856129b6565b60405163588ade5960e11b815261012d60048201526024810182905260009073__$6c98a486c71811a2b32bebc3d3e0ea64af$__9063b115bcb29060440160206040518083038186803b158015611ecb57600080fd5b505af4158015611edf573d6000803e3d6000fd5b505050506040513d601f19601f82011682018060405250810190610ac89190613c7e565b611f0b61376c565b604051630517dcf760e21b815261012d60048201526024810183905273__$6c98a486c71811a2b32bebc3d3e0ea64af$__9063145f73dc90604401604080518083038186803b158015611f5d57600080fd5b505af4158015611f71573d6000803e3d6000fd5b505050506040513d601f19601f82011682018060405250810190610ac89190613bda565b6000610ac882612a6d565b604080516020808201949094528082019290925280518083038201815260609092019052805191012090565b60008051602061456f833981519152546001600160a01b031690565b73__$5eb4f00466582f7d4fb62bc47062007858$__633f98381a6101b18361200e611fcc565b6040516001600160e01b031960e086901b16815260048101939093526001600160a01b03918216602484015216604482015260640160206040518083038186803b15801561205b57600080fd5b505af415801561206f573d6000803e3d6000fd5b505050506040513d601f19601f820116820180604052508101906120939190613c61565b610d995760405162461bcd60e51b815260206004820152601960248201527f474d3a6e6f7420616c6c6f77656420746f2075706772616465000000000000006044820152606401610c3e565b7f4910fdfa16fed3260ed0e7147f7cc6da11a60208b5b9406d12a635614ffd91435460ff16156121175761211283612b0d565b505050565b826001600160a01b03166352d1902d6040518163ffffffff1660e01b815260040160206040518083038186803b15801561215057600080fd5b505afa925050508015612180575060408051601f3d908101601f1916820190925261217d91810190613c7e565b60015b6121e35760405162461bcd60e51b815260206004820152602e60248201527f45524331393637557067726164653a206e657720696d706c656d656e7461746960448201526d6f6e206973206e6f74205555505360901b6064820152608401610c3e565b60008051602061456f83398151915281146122525760405162461bcd60e51b815260206004820152602960248201527f45524331393637557067726164653a20756e737570706f727465642070726f786044820152681a58589b195555525160ba1b6064820152608401610c3e565b50612112838383612ba9565b600260fb5414156122b15760405162461bcd60e51b815260206004820152601f60248201527f5265656e7472616e637947756172643a207265656e7472616e742063616c6c006044820152606401610c3e565b600260fb55565b60c95460ff1615610f565760405162461bcd60e51b815260206004820152601060248201526f14185d5cd8589b194e881c185d5cd95960821b6044820152606401610c3e565b600160fb55565b61230d612bce565b60c9805460ff191690557f5db9ee0a495bf2e6ff9c91a7834c1ba4fdd244a5e8aa4e537bd38aeae4b073aa335b6040516001600160a01b03909116815260200160405180910390a1565b60008460030160006123728461236d8888611fa0565b611fa0565b81526020810191909152604001600020546001600160a01b031695945050505050565b60008360010160006123a78585611fa0565b81526020019081526020016000205490509392505050565b60058301546123d19062015180614432565b42101561242b5760405162461bcd60e51b815260206004820152602260248201527f414c3a57616974203120646179206265666f7265207374617274696e6720726160448201526106d760f41b6064820152608401610c3e565b6124386212750042614432565b8110156124875760405162461bcd60e51b815260206004820152601960248201527f414c3a496e73756666696369656e742072616d702074696d65000000000000006044820152606401610c3e565b6000821180156124995750620f424082105b6124f15760405162461bcd60e51b815260206004820152602360248201527f414c3a667574757265415f206d757374206265203e203020616e64203c204d41604482015262585f4160e81b6064820152608401610c3e565b60006124fc84612a6d565b9050600061250b60648561446c565b905081811015612574578161252160028361446c565b101561256f5760405162461bcd60e51b815260206004820152601860248201527f414c3a667574757265415f20697320746f6f20736d616c6c00000000000000006044820152606401610c3e565b6125ce565b61257f60028361446c565b8111156125ce5760405162461bcd60e51b815260206004820152601860248201527f414c3a667574757265415f20697320746f6f206c6172676500000000000000006044820152606401610c3e565b600385018290556004850181905542600586018190556006860184905560408051848152602081018490528082019290925260608201859052517fa2b71ec6df949300b59aab36b55e189697b750119dd349fcfa8c0f779e83c2549181900360800190a15050505050565b606083600201600061264b8585611fa0565b81526020019081526020016000208054612664906144ce565b80601f0160208091040260200160405190810160405280929190818152602001828054612690906144ce565b80156126dd5780601f106126b2576101008083540402835291602001916126dd565b820191906000526020600020905b8154815290600101906020018083116126c057829003601f168201915b505050505090509392505050565b6126f36122b8565b60c9805460ff191660011790557f62e78cea01bee320cd4e420270b5ea74000d11b0c9f74754ebdbfc544b05a25861233a3390565b61273182611fe8565b61273c826000610d67565b6110db81612c17565b600054610100900460ff1661276c5760405162461bcd60e51b8152600401610c3e9061429b565b61279e7f0000000000000000000000000000000000000000000000000000000000000000866000196127258888612c62565b61283f7f00000000000000000000000000000000000000000000000000000000000000007f000000000000000000000000000000000000000000000000000000000000000088603c6127106127f96402540be400600461446c565b612803919061444a565b87878080601f016020809104026020016040519081016040528093929190818152602001838380828437600092019190915250612ca792505050565b611296612cf4565b60008360030160006128598585611fa0565b81526020810191909152604001600020546001600160a01b0316949350505050565b600082826040516020016128909291906140b5565b60408051601f1981840301815291905280516020909101209392505050565b428160060154116129025760405162461bcd60e51b815260206004820152601a60248201527f414c3a52616d7020697320616c72656164792073746f707065640000000000006044820152606401610c3e565b600061290d82612a6d565b60038301819055600483018190554260058401819055600684018190556040519192507f46e22fb3709ad289f62ce63d469248536dbc78d82b84a3d7e74ad606dc2019389161296491848252602082015260400190565b60405180910390a15050565b6000606461297d83612a6d565b610ac8919061444a565b600084600101600061299d8461236d8888611fa0565b8152602001908152602001600020549050949350505050565b60608460020160006129cc8461236d8888611fa0565b815260200190815260200160002080546129e5906144ce565b80601f0160208091040260200160405190810160405280929190818152602001828054612a11906144ce565b8015612a5e5780601f10612a3357610100808354040283529160200191612a5e565b820191906000526020600020905b815481529060010190602001808311612a4157829003601f168201915b50505050509050949350505050565b600681015460048201546000919042821115610b74576005840154600385015480831115612ad157612a9f828561448b565b612aa9834261448b565b612ab3838661448b565b612abd919061446c565b612ac7919061444a565b610e369082614432565b612adb828561448b565b612ae5834261448b565b612aef858461448b565b612af9919061446c565b612b03919061444a565b610e36908261448b565b6001600160a01b0381163b612b7a5760405162461bcd60e51b815260206004820152602d60248201527f455243313936373a206e657720696d706c656d656e746174696f6e206973206e60448201526c1bdd08184818dbdb9d1c9858dd609a1b6064820152608401610c3e565b60008051602061456f83398151915280546001600160a01b0319166001600160a01b0392909216919091179055565b612bb283612d1b565b600082511180612bbf5750805b1561211257611ad08383612d5b565b60c95460ff16610f565760405162461bcd60e51b815260206004820152601460248201527314185d5cd8589b194e881b9bdd081c185d5cd95960621b6044820152606401610c3e565b6000612c29826101b16004015461287b565b6101b68190556040518181529091507ffddcded6b4f4730c226821172046b48372d3cd963c159701ae1b7c3bcac541bb90602001612964565b600054610100900460ff16612c895760405162461bcd60e51b8152600401610c3e9061429b565b612c91612cf4565b612c99612cf4565b611296868686868686612e46565b600054610100900460ff16612cce5760405162461bcd60e51b8152600401610c3e9061429b565b612cd66131ea565b612cde613219565b612ce6612cf4565b611296868686868686613248565b600054610100900460ff16610f565760405162461bcd60e51b8152600401610c3e9061429b565b612d2481612b0d565b6040516001600160a01b038216907fbc7cd75a20ee27fd9adebab32041f755214dbc6bffa90cc0225b39da2e5c2d3b90600090a250565b60606001600160a01b0383163b612dc35760405162461bcd60e51b815260206004820152602660248201527f416464726573733a2064656c65676174652063616c6c20746f206e6f6e2d636f6044820152651b9d1c9858dd60d21b6064820152608401610c3e565b600080846001600160a01b031684604051612dde9190614099565b600060405180830381855af49150503d8060008114612e19576040519150601f19603f3d011682016040523d82523d6000602084013e612e1e565b606091505b509150915061160b828260405180606001604052806027815260200161458f60279139613635565b600054610100900460ff16612e6d5760405162461bcd60e51b8152600401610c3e9061429b565b6001600160a01b038616612ec35760405162461bcd60e51b815260206004820152601d60248201527f474d3a676f7665726e616e63652063616e206e6f74206265207a65726f0000006044820152606401610c3e565b6001600160a01b038516612f195760405162461bcd60e51b815260206004820152601960248201527f474d3a73656e6174652063616e206e6f74206265207a65726f000000000000006044820152606401610c3e565b428411612f5e5760405162461bcd60e51b8152602060048201526013602482015272474d3a6c6f772073656e61746545787069727960681b6044820152606401610c3e565b82612fab5760405162461bcd60e51b815260206004820152601e60248201527f474d3a7061636b616765547970652063616e206e6f74206265207a65726f00006044820152606401610c3e565b806130045760405162461bcd60e51b815260206004820152602360248201527f474d3a696e697456657273696f6e4e616d652063616e206e6f7420626520656d60448201526270747960e81b6064820152608401610c3e565b6101b18054336001600160a01b0319918216811783556101b280549092161790556101b48590556101b584905560009073__$5eb4f00466582f7d4fb62bc47062007858$__90636989fbc69061013d61305b611fcc565b60028888620151806040518863ffffffff1660e01b815260040161308597969594939291906142e6565b60206040518083038186803b15801561309d57600080fd5b505af41580156130b1573d6000803e3d6000fd5b505050506040513d601f19601f820116820180604052508101906130d59190613c7e565b604051639c04df5b60e01b81526101b1600482015261013d60248201526044810182905290915073__$5eb4f00466582f7d4fb62bc47062007858$__90639c04df5b9060640160006040518083038186803b15801561313357600080fd5b505af4158015613147573d6000803e3d6000fd5b505050506040513d6000823e601f3d908101601f1916820160405261316f9190810190613b15565b5050506131b183838080601f016020809104026020016040519081016040528093929190818152602001838380828437600092019190915250612c1792505050565b50506101b180546001600160a01b039687166001600160a01b0319918216179091556101b2805495909616941693909317909355505050565b600054610100900460ff166132115760405162461bcd60e51b8152600401610c3e9061429b565b610f5661364e565b600054610100900460ff166132405760405162461bcd60e51b8152600401610c3e9061429b565b610f56613675565b600054610100900460ff1661326f5760405162461bcd60e51b8152600401610c3e9061429b565b6001600160a01b0386166132cf5760405162461bcd60e51b815260206004820152602160248201527f4c4d3a5f674554485f706f736974696f6e2063616e206e6f74206265207a65726044820152606f60f81b6064820152608401610c3e565b6001600160a01b0385166133335760405162461bcd60e51b815260206004820152602560248201527f4c4d3a5f6c70546f6b656e5f7265666572616e63652063616e206e6f74206265604482015264207a65726f60d81b6064820152608401610c3e565b8361338a5760405162461bcd60e51b815260206004820152602160248201527f4c4d3a5f706f6f6c6564546f6b656e49642063616e206e6f74206265207a65726044820152606f60f81b6064820152608401610c3e565b826133cf5760405162461bcd60e51b81526020600482015260156024820152744c4d3a5f412063616e206e6f74206265207a65726f60581b6044820152606401610c3e565b620f424083106134195760405162461bcd60e51b81526020600482015260156024820152744c4d3a5f412065786365656473206d6178696d756d60581b6044820152606401610c3e565b61342960646402540be40061444a565b82106134775760405162461bcd60e51b815260206004820152601b60248201527f4c4d3a5f737761704665652065786365656473206d6178696d756d00000000006044820152606401610c3e565b6000613482866136a8565b604080518082018252601081526f023b2b7b232902628102a37b5b2b71d160851b60208083019190915282518084018452600381526202d4c560ec1b81830152925193945090926001600160a01b03851691634cd88b76916134e89186918991016140e9565b604051602081830303815290604052868460405160200161350a9291906140e9565b6040516020818303038152906040526040518363ffffffff1660e01b8152600401613536929190614183565b600060405180830381600087803b15801561355057600080fd5b505af1158015613564573d6000803e3d6000fd5b505061012d80546001600160a01b03808e166001600160a01b03199283161790925561012e805492881692909116919091179055505061012f8790556135ab60648761446c565b610130556135ba60648761446c565b6101315561013485905561012d54604051630492f6e160e01b815260048101899052600160248201526001600160a01b0390911690630492f6e190604401600060405180830381600087803b15801561361257600080fd5b505af1158015613626573d6000803e3d6000fd5b50505050505050505050505050565b60608315613644575081610b74565b610b748383613742565b600054610100900460ff166122fe5760405162461bcd60e51b8152600401610c3e9061429b565b600054610100900460ff1661369c5760405162461bcd60e51b8152600401610c3e9061429b565b60c9805460ff19169055565b6000763d602d80600a3d3981f3363d3d373d3d3d363d730000008260601b60e81c176000526e5af43d82803e903d91602b57fd5bf38260781b17602052603760096000f090506001600160a01b03811661373d5760405162461bcd60e51b8152602060048201526016602482015275115490cc4c4d8dce8818dc99585d194819985a5b195960521b6044820152606401610c3e565b919050565b8151156137525781518083602001fd5b8060405162461bcd60e51b8152600401610c3e9190614170565b60405180604001604052806002906020820280368337509192915050565b8060408101831015610ac857600080fd5b600082601f8301126137ac57600080fd5b813560206001600160401b038211156137c7576137c7614535565b8160051b6137d68282016143db565b8381528281019086840183880185018910156137f157600080fd5b600093505b858410156138145780358352600193909301929184019184016137f6565b50979650505050505050565b60008083601f84011261383257600080fd5b5081356001600160401b0381111561384957600080fd5b60208301915083602082850101111561386157600080fd5b9250929050565b600082601f83011261387957600080fd5b813561388c6138878261440b565b6143db565b8181528460208386010111156138a157600080fd5b816020850160208301376000918101602001919091529392505050565b600082601f8301126138cf57600080fd5b81516138dd6138878261440b565b8181528460208386010111156138f257600080fd5b610f1b8260208301602087016144a2565b803560ff8116811461373d57600080fd5b60006020828403121561392657600080fd5b8135610b748161454b565b60006020828403121561394357600080fd5b8151610b748161454b565b600080600080600060a0868803121561396657600080fd5b85356139718161454b565b945060208601356139818161454b565b935060408601356001600160401b038082111561399d57600080fd5b6139a989838a0161379b565b945060608801359150808211156139bf57600080fd5b6139cb89838a0161379b565b935060808801359150808211156139e157600080fd5b506139ee88828901613868565b9150509295509295909350565b600080600080600060a08688031215613a1357600080fd5b8535613a1e8161454b565b94506020860135613a2e8161454b565b9350604086013592506060860135915060808601356001600160401b03811115613a5757600080fd5b6139ee88828901613868565b60008060408385031215613a7657600080fd5b8235613a818161454b565b915060208301356001600160401b03811115613a9c57600080fd5b613aa885828601613868565b9150509250929050565b600080600080600060808688031215613aca57600080fd5b8535613ad58161454b565b94506020860135935060408601356001600160401b03811115613af757600080fd5b613b0388828901613820565b96999598509660600135949350505050565b600080600060608486031215613b2a57600080fd5b8351613b358161454b565b6020850151604086015191945092506001600160401b03811115613b5857600080fd5b613b64868287016138be565b9150509250925092565b60008060608385031215613b8157600080fd5b613b8b848461378a565b91506040830135613b9b81614560565b809150509250929050565b600080600060808486031215613bbb57600080fd5b613bc5858561378a565b95604085013595506060909401359392505050565b600060408284031215613bec57600080fd5b82601f830112613bfb57600080fd5b604051604081018181106001600160401b0382111715613c1d57613c1d614535565b8060405250808385604086011115613c3457600080fd5b60005b6002811015613c56578151835260209283019290910190600101613c37565b509195945050505050565b600060208284031215613c7357600080fd5b8151610b7481614560565b600060208284031215613c9057600080fd5b5051919050565b600060208284031215613ca957600080fd5b81356001600160e01b031981168114610b7457600080fd5b600060208284031215613cd357600080fd5b81516001600160401b03811115613ce957600080fd5b610f1b848285016138be565b600080600060408486031215613d0a57600080fd5b83356001600160401b03811115613d2057600080fd5b613d2c86828701613820565b909790965060209590950135949350505050565b600060208284031215613d5257600080fd5b81516001600160401b0380821115613d6957600080fd5b9083019060808286031215613d7d57600080fd5b604051608081018181108382111715613d9857613d98614535565b6040528251613da68161454b565b815260208381015190820152604083015182811115613dc457600080fd5b613dd0878286016138be565b6040830152506060830151606082015280935050505092915050565b600060208284031215613dfe57600080fd5b5035919050565b60008060408385031215613e1857600080fd5b823591506020830135613b9b8161454b565b60008060008060008060808789031215613e4357600080fd5b863595506020870135613e558161454b565b945060408701356001600160401b0380821115613e7157600080fd5b613e7d8a838b01613820565b90965094506060890135915080821115613e9657600080fd5b50613ea389828a01613820565b979a9699509497509295939492505050565b600080600060808486031215613eca57600080fd5b83359250613edb856020860161378a565b9150606084013590509250925092565b60008060408385031215613efe57600080fd5b50508035926020909101359150565b600080600060608486031215613f2257600080fd5b505081359360208301359350604090920135919050565b60008060408385031215613f4c57600080fd5b82359150613f5c60208401613903565b90509250929050565b60008060008060808587031215613f7b57600080fd5b84359350613f8b60208601613903565b93969395505050506040820135916060013590565b600060208284031215613fb257600080fd5b610b7482613903565b600080600060608486031215613fd057600080fd5b613fd984613903565b9250613fe760208501613903565b9150604084013590509250925092565b600080600080600060a0868803121561400f57600080fd5b61401886613903565b945061402660208701613903565b94979496505050506040830135926060810135926080909101359150565b81835281816020850137506000828201602090810191909152601f909101601f19169091010190565b600081518084526140858160208601602086016144a2565b601f01601f19169290920160200192915050565b600082516140ab8184602087016144a2565b9190910192915050565b600083516140c78184602088016144a2565b9190910191825250602001919050565b82848237909101908152602001919050565b600083516140fb8184602088016144a2565b83519083019061410f8183602088016144a2565b01949350505050565b60018060a01b038416815282602082015260606040820152600061160b606083018461406d565b60408101818360005b6002811015614167578151835260209283019290910190600101614148565b50505092915050565b602081526000610b74602083018461406d565b604081526000614196604083018561406d565b828103602084015261160b818561406d565b6020808252602c908201527f46756e6374696f6e206d7573742062652063616c6c6564207468726f7567682060408201526b19195b1959d85d1958d85b1b60a21b606082015260800190565b6020808252602c908201527f46756e6374696f6e206d7573742062652063616c6c6564207468726f7567682060408201526b6163746976652070726f787960a01b606082015260800190565b60208082526013908201527213134e911958591b1a5b99481b9bdd081b595d606a1b604082015260600190565b6020808252601490820152732628281d39b2b73232b9102727aa1037bbb732b960611b604082015260600190565b6020808252602b908201527f496e697469616c697a61626c653a20636f6e7472616374206973206e6f74206960408201526a6e697469616c697a696e6760a81b606082015260800190565b87815286602082015260018060a01b038616604082015284606082015260c06080820152600061431a60c083018587614044565b90508260a083015298975050505050505050565b6020815260018060a01b03825116602082015260208201516040820152600060408301516080606084015261436660a084018261406d565b9050606084015160808401528091505092915050565b8381526080810160408460208401379115156060919091015292915050565b8381526080810160408460208401376060919091019190915292915050565b83815260208101839052608081016040838184013760008152949350505050565b604051601f8201601f191681016001600160401b038111828210171561440357614403614535565b604052919050565b60006001600160401b0382111561442457614424614535565b50601f01601f191660200190565b6000821982111561444557614445614509565b500190565b60008261446757634e487b7160e01b600052601260045260246000fd5b500490565b600081600019048311821515161561448657614486614509565b500290565b60008282101561449d5761449d614509565b500390565b60005b838110156144bd5781810151838201526020016144a5565b83811115611ad05750506000910152565b600181811c908216806144e257607f821691505b6020821081141561450357634e487b7160e01b600052602260045260246000fd5b50919050565b634e487b7160e01b600052601160045260246000fd5b634e487b7160e01b600052603260045260246000fd5b634e487b7160e01b600052604160045260246000fd5b6001600160a01b0381168114610d9957600080fd5b8015158114610d9957600080fdfe360894a13ba1a3210667c828492db98dca3e2076cc3735a920a3ca505d382bbc416464726573733a206c6f772d6c6576656c2064656c65676174652063616c6c206661696c6564a264697066735822122000c33f9ab22224874ca7f6fb8ab902fb5e07a5a5808a50632b691474eff1f9a864736f6c63430008070033",
  "libraries": {
    "GeodeModuleLib": "0x169a35f22FFD0288719B48D7Cf72950A8681675b",
    "LiquidityModuleLib": "0x8bcC19B9CB58559D322372342E683F27E4A5a493"
  },
  "devdoc": {
    "author": "Ice Bear & Crash Bandicoot",
    "details": "TYPE: PACKAGE_LIQUIDITY_POOLUtilizing IGeodePackage interface, meaning initialize function takes 3 parameters: * * poolOwner: will be assigned as the senate of the package * * pooledTokenId: used internally on LM and LML. * * data: referances 1 parameter: name. Used to generate lpTokenName and lpTokenSymbol for __LM_init.review: LM for StableSwap implementation. Also note: * initial and future A coefficients are set as 60 (LM) * trade fee set to 4 bips (LM) * owner fee is set to 0 (LM) * senate expiry is not effective (GM)review: GM for The Limited Upgradability through Dual Governance: * Governance is the Portal, package version controller. * Senate is the Staking Pool Owner.",
    "kind": "dev",
    "methods": {
      "GeodeParams()": {
        "custom:section": "** GETTER FUNCTIONS **",
        "custom:visibility": "-> view-external"
      },
      "LiquidityParams()": {
        "custom:section": "** GETTER FUNCTIONS **",
        "custom:visibility": "-> view-external"
      },
      "addLiquidity(uint256[2],uint256,uint256)": {
        "params": {
          "amounts": "the amounts of each token to add, in their native precision",
          "deadline": "latest timestamp to accept this transaction",
          "minToMint": "the minimum LP tokens adding this amount of liquidity should mint, otherwise revert. Handy for front-running mitigation"
        },
        "returns": {
          "_0": "amount of LP token user minted and received"
        }
      },
      "allIdsByType(uint256,uint256)": {
        "details": "useful for outside reach, shouldn't be used within contracts as a referance",
        "returns": {
          "_0": "allIdsByType is an array of IDs of the given TYPE from Datastore, returns a specific index"
        }
      },
      "approveProposal(uint256)": {
        "details": "handles TYPE 2 proposals by upgrading the contract immediately."
      },
      "calculateRemoveLiquidity(uint256)": {
        "params": {
          "amount": "the amount of LP tokens that would be burned on withdrawal"
        },
        "returns": {
          "_0": "array of token balances that the user will receive"
        }
      },
      "calculateRemoveLiquidityOneToken(uint256,uint8)": {
        "params": {
          "tokenAmount": "the amount of LP token to burn",
          "tokenIndex": "index of which token will be withdrawn"
        },
        "returns": {
          "availableTokenAmount": "calculated amount of underlying token available to withdraw"
        }
      },
      "calculateSwap(uint8,uint8,uint256)": {
        "params": {
          "dx": "the amount of tokens the user wants to sell. If the token charges a fee on transfers, use the amount that gets transferred after the fee.",
          "tokenIndexFrom": "the token the user wants to sell",
          "tokenIndexTo": "the token the user wants to buy"
        },
        "returns": {
          "_0": "amount of tokens the user will receive"
        }
      },
      "calculateTokenAmount(uint256[2],bool)": {
        "details": "This shouldn't be used outside frontends for user estimates.",
        "params": {
          "amounts": "an array of token amounts to deposit or withdrawal, corresponding to pooledTokens. The amount should be in each pooled token's native precision. If a token charges a fee on transfers, use the amount that gets transferred after the fee.",
          "deposit": "whether this is a deposit or a withdrawal"
        },
        "returns": {
          "_0": "token amount the user will receive"
        }
      },
      "changeIdCONTROLLER(uint256,address)": {
        "custom:subsection": "** ONLY CONTROLLER **"
      },
      "constructor": {
        "custom:oz-upgrades-unsafe-allow": "constructor"
      },
      "generateId(string,uint256)": {
        "details": "id is generated by keccak(name, type)"
      },
      "getA()": {
        "details": "See the StableSwap paper for details",
        "returns": {
          "_0": "A parameter"
        }
      },
      "getAPrecise()": {
        "details": "See the StableSwap paper for details",
        "returns": {
          "_0": "A parameter in its raw precision form"
        }
      },
      "getAdminBalance(uint256)": {
        "params": {
          "index": "Index of the pooled token"
        },
        "returns": {
          "_0": "admin's token balance in the token's precision"
        }
      },
      "getBalance(uint8)": {
        "params": {
          "index": "the index of the token"
        },
        "returns": {
          "_0": "current balance of the pooled token at given index with token's native precision"
        }
      },
      "getDebt()": {
        "details": "result might change when price is in.",
        "returns": {
          "_0": "debt the half of the D StableSwap invariant when debt is needed to be payed."
        }
      },
      "getProposedVersion()": {
        "details": "GeodeModule override"
      },
      "getVirtualPrice()": {
        "returns": {
          "_0": "the virtual override price"
        }
      },
      "initialize(uint256,address,bytes,bytes)": {
        "params": {
          "data": "only poolName is required from Portal"
        }
      },
      "isolationMode()": {
        "custom:visibility": "-> view",
        "details": "GeodeModule override"
      },
      "paused()": {
        "details": "Returns true if the contract is paused, and false otherwise."
      },
      "propose(address,uint256,bytes,uint256)": {
        "custom:subsection": "** ONLY GOVERNANCE **"
      },
      "proxiableUUID()": {
        "details": "Implementation of the ERC1822 {proxiableUUID} function. This returns the storage slot used by the implementation. It is used to validate the implementation's compatibility when performing an upgrade. IMPORTANT: A proxy pointing at a proxiable contract should not be considered proxiable itself, because this risks bricking a proxy that upgrades to it, by delegating to itself until out of gas. Thus it is critical that this function revert if invoked through a proxy. This is guaranteed by the `notDelegated` modifier."
      },
      "pullUpgrade()": {
        "details": "IGeodePackage override"
      },
      "readUintArray(uint256,bytes32,uint256)": {
        "custom:section": "** ARRAY GETTER FUNCTIONS **",
        "custom:visibility": "-> view-external"
      },
      "removeLiquidity(uint256,uint256[2],uint256)": {
        "details": "Liquidity can always be removed, even when the pool is paused.",
        "params": {
          "amount": "the amount of LP tokens to burn",
          "deadline": "latest timestamp to accept this transaction",
          "minAmounts": "the minimum amounts of each token in the pool        acceptable for this burn. Useful as a front-running mitigation"
        },
        "returns": {
          "_0": "amounts of tokens user received"
        }
      },
      "removeLiquidityImbalance(uint256[2],uint256,uint256)": {
        "params": {
          "amounts": "how much of each token to withdraw",
          "deadline": "latest timestamp to accept this transaction",
          "maxBurnAmount": "the max LP token provider is willing to pay to remove liquidity. Useful as a front-running mitigation."
        },
        "returns": {
          "_0": "amount of LP tokens burned"
        }
      },
      "removeLiquidityOneToken(uint256,uint8,uint256,uint256)": {
        "params": {
          "deadline": "latest timestamp to accept this transaction",
          "minAmount": "the minimum amount to withdraw, otherwise revert",
          "tokenAmount": "the amount of the token you want to receive",
          "tokenIndex": "the index of the token you want to receive"
        },
        "returns": {
          "_0": "amount of chosen token user received"
        }
      },
      "setSwapFee(uint256)": {
        "custom:subsection": "** LIQUIDITY POOL **",
        "details": "LM override"
      },
      "supportsInterface(bytes4)": {
        "details": "See {IERC165-supportsInterface}."
      },
      "swap(uint8,uint8,uint256,uint256,uint256)": {
        "params": {
          "deadline": "latest timestamp to accept this transaction",
          "dx": "the amount of tokens the user wants to swap from",
          "minDy": "the min amount the user would like to receive, or revert.",
          "tokenIndexFrom": "the token the user wants to swap from",
          "tokenIndexTo": "the token the user wants to swap to"
        }
      },
      "upgradeTo(address)": {
        "details": "Upgrade the implementation of the proxy to `newImplementation`. Calls {_authorizeUpgrade}. Emits an {Upgraded} event."
      },
      "upgradeToAndCall(address,bytes)": {
        "details": "Upgrade the implementation of the proxy to `newImplementation`, and subsequently execute the function call encoded in `data`. Calls {_authorizeUpgrade}. Emits an {Upgraded} event."
      }
    },
    "title": "LPP: Liquidity Pool Package: Geode Module + Liquidity Module",
    "version": 1
  },
  "userdoc": {
    "kind": "user",
    "methods": {
      "addLiquidity(uint256[2],uint256,uint256)": {
        "notice": "Add liquidity to the pool with the given amounts of tokens"
      },
      "calculateRemoveLiquidity(uint256)": {
        "notice": "A simple method to calculate amount of each underlying tokens that is returned upon burning given amount of LP tokens"
      },
      "calculateRemoveLiquidityOneToken(uint256,uint8)": {
        "notice": "Calculate the amount of underlying token available to withdraw when withdrawing via only single token"
      },
      "calculateSwap(uint8,uint8,uint256)": {
        "notice": "Calculate amount of tokens you receive on swap"
      },
      "calculateTokenAmount(uint256[2],bool)": {
        "notice": "A simple method to calculate prices from deposits or withdrawals, excluding fees but including slippage. This is helpful as an input into the various \"min\" parameters on calls to fight front-running"
      },
      "generateId(string,uint256)": {
        "notice": "useful function for string inputs - returns same with the DSML.generateId"
      },
      "getA()": {
        "notice": "Return A, the amplification coefficient * n * (n - 1)"
      },
      "getAPrecise()": {
        "notice": "Return A in its raw precision form"
      },
      "getAdminBalance(uint256)": {
        "notice": "Reads the accumulated amount of admin fees of the token with given index"
      },
      "getBalance(uint8)": {
        "notice": "Return current balance of the pooled token at given index"
      },
      "getDebt()": {
        "notice": "Debt, The amount of buyback for stable pricing (1=1)."
      },
      "getKey(uint256,bytes32)": {
        "notice": "useful view function for string inputs - returns same with the DSML.generateId"
      },
      "getPoolId()": {
        "notice": "get the gETH ID of the corresponding staking pool"
      },
      "getPortal()": {
        "notice": "get Portal as a contract"
      },
      "getVirtualPrice()": {
        "notice": "Get the virtual override price, to help calculate profit"
      },
      "pause()": {
        "notice": "pausing the contract activates the isolationMode"
      },
      "removeLiquidity(uint256,uint256[2],uint256)": {
        "notice": "Burn LP tokens to remove liquidity from the pool."
      },
      "removeLiquidityImbalance(uint256[2],uint256,uint256)": {
        "notice": "Remove liquidity from the pool, weighted differently than the pool's current balances."
      },
      "removeLiquidityOneToken(uint256,uint8,uint256,uint256)": {
        "notice": "Remove liquidity from the pool all in one token."
      },
      "swap(uint8,uint8,uint256,uint256,uint256)": {
        "notice": "Swap two tokens using this pool"
      },
      "unpause()": {
        "notice": "unpausing the contract deactivates the isolationMode"
      }
    },
    "notice": "LPP is a package that provides a liquidity pool for a staking pool created through Portal.",
    "version": 1
  },
  "storageLayout": {
    "storage": [
      {
        "astId": 527,
        "contract": "contracts/Portal/packages/LiquidityPool.sol:LiquidityPool",
        "label": "_initialized",
        "offset": 0,
        "slot": "0",
        "type": "t_uint8"
      },
      {
        "astId": 530,
        "contract": "contracts/Portal/packages/LiquidityPool.sol:LiquidityPool",
        "label": "_initializing",
        "offset": 1,
        "slot": "0",
        "type": "t_bool"
      },
      {
        "astId": 3198,
        "contract": "contracts/Portal/packages/LiquidityPool.sol:LiquidityPool",
        "label": "__gap",
        "offset": 0,
        "slot": "1",
        "type": "t_array(t_uint256)50_storage"
      },
      {
        "astId": 1190,
        "contract": "contracts/Portal/packages/LiquidityPool.sol:LiquidityPool",
        "label": "__gap",
        "offset": 0,
        "slot": "51",
        "type": "t_array(t_uint256)50_storage"
      },
      {
        "astId": 1136,
        "contract": "contracts/Portal/packages/LiquidityPool.sol:LiquidityPool",
        "label": "__gap",
        "offset": 0,
        "slot": "101",
        "type": "t_array(t_uint256)50_storage"
      },
      {
        "astId": 2331,
        "contract": "contracts/Portal/packages/LiquidityPool.sol:LiquidityPool",
        "label": "__gap",
        "offset": 0,
        "slot": "151",
        "type": "t_array(t_uint256)50_storage"
      },
      {
        "astId": 846,
        "contract": "contracts/Portal/packages/LiquidityPool.sol:LiquidityPool",
        "label": "_paused",
        "offset": 0,
        "slot": "201",
        "type": "t_bool"
      },
      {
        "astId": 951,
        "contract": "contracts/Portal/packages/LiquidityPool.sol:LiquidityPool",
        "label": "__gap",
        "offset": 0,
        "slot": "202",
        "type": "t_array(t_uint256)49_storage"
      },
      {
        "astId": 966,
        "contract": "contracts/Portal/packages/LiquidityPool.sol:LiquidityPool",
        "label": "_status",
        "offset": 0,
        "slot": "251",
        "type": "t_uint256"
      },
      {
        "astId": 1024,
        "contract": "contracts/Portal/packages/LiquidityPool.sol:LiquidityPool",
        "label": "__gap",
        "offset": 0,
        "slot": "252",
        "type": "t_array(t_uint256)49_storage"
      },
      {
        "astId": 27692,
        "contract": "contracts/Portal/packages/LiquidityPool.sol:LiquidityPool",
        "label": "LIQUIDITY",
        "offset": 0,
        "slot": "301",
        "type": "t_struct(Swap)28783_storage"
      },
      {
        "astId": 25736,
        "contract": "contracts/Portal/packages/LiquidityPool.sol:LiquidityPool",
        "label": "DATASTORE",
        "offset": 0,
        "slot": "317",
        "type": "t_struct(IsolatedStorage)25976_storage"
      },
      {
        "astId": 509,
        "contract": "contracts/Portal/packages/LiquidityPool.sol:LiquidityPool",
        "label": "__gap",
        "offset": 0,
        "slot": "333",
        "type": "t_array(t_uint256)50_storage"
      },
      {
        "astId": 824,
        "contract": "contracts/Portal/packages/LiquidityPool.sol:LiquidityPool",
        "label": "__gap",
        "offset": 0,
        "slot": "383",
        "type": "t_array(t_uint256)50_storage"
      },
      {
        "astId": 26629,
        "contract": "contracts/Portal/packages/LiquidityPool.sol:LiquidityPool",
        "label": "GEODE",
        "offset": 0,
        "slot": "433",
        "type": "t_struct(DualGovernance)27111_storage"
      },
      {
        "astId": 37688,
        "contract": "contracts/Portal/packages/LiquidityPool.sol:LiquidityPool",
        "label": "__gap",
        "offset": 0,
        "slot": "449",
        "type": "t_array(t_uint256)47_storage"
      }
    ],
    "types": {
      "t_address": {
        "encoding": "inplace",
        "label": "address",
        "numberOfBytes": "20"
      },
      "t_array(t_uint256)12_storage": {
        "base": "t_uint256",
        "encoding": "inplace",
        "label": "uint256[12]",
        "numberOfBytes": "384"
      },
      "t_array(t_uint256)2_storage": {
        "base": "t_uint256",
        "encoding": "inplace",
        "label": "uint256[2]",
        "numberOfBytes": "64"
      },
      "t_array(t_uint256)47_storage": {
        "base": "t_uint256",
        "encoding": "inplace",
        "label": "uint256[47]",
        "numberOfBytes": "1504"
      },
      "t_array(t_uint256)49_storage": {
        "base": "t_uint256",
        "encoding": "inplace",
        "label": "uint256[49]",
        "numberOfBytes": "1568"
      },
      "t_array(t_uint256)50_storage": {
        "base": "t_uint256",
        "encoding": "inplace",
        "label": "uint256[50]",
        "numberOfBytes": "1600"
      },
      "t_array(t_uint256)5_storage": {
        "base": "t_uint256",
        "encoding": "inplace",
        "label": "uint256[5]",
        "numberOfBytes": "160"
      },
      "t_array(t_uint256)9_storage": {
        "base": "t_uint256",
        "encoding": "inplace",
        "label": "uint256[9]",
        "numberOfBytes": "288"
      },
      "t_array(t_uint256)dyn_storage": {
        "base": "t_uint256",
        "encoding": "dynamic_array",
        "label": "uint256[]",
        "numberOfBytes": "32"
      },
      "t_bool": {
        "encoding": "inplace",
        "label": "bool",
        "numberOfBytes": "1"
      },
      "t_bytes32": {
        "encoding": "inplace",
        "label": "bytes32",
        "numberOfBytes": "32"
      },
      "t_bytes_storage": {
        "encoding": "bytes",
        "label": "bytes",
        "numberOfBytes": "32"
      },
      "t_contract(ILPToken)24070": {
        "encoding": "inplace",
        "label": "contract ILPToken",
        "numberOfBytes": "20"
      },
      "t_contract(IgETH)23833": {
        "encoding": "inplace",
        "label": "contract IgETH",
        "numberOfBytes": "20"
      },
      "t_mapping(t_bytes32,t_address)": {
        "encoding": "mapping",
        "key": "t_bytes32",
        "label": "mapping(bytes32 => address)",
        "numberOfBytes": "32",
        "value": "t_address"
      },
      "t_mapping(t_bytes32,t_bytes_storage)": {
        "encoding": "mapping",
        "key": "t_bytes32",
        "label": "mapping(bytes32 => bytes)",
        "numberOfBytes": "32",
        "value": "t_bytes_storage"
      },
      "t_mapping(t_bytes32,t_uint256)": {
        "encoding": "mapping",
        "key": "t_bytes32",
        "label": "mapping(bytes32 => uint256)",
        "numberOfBytes": "32",
        "value": "t_uint256"
      },
      "t_mapping(t_uint256,t_array(t_uint256)dyn_storage)": {
        "encoding": "mapping",
        "key": "t_uint256",
        "label": "mapping(uint256 => uint256[])",
        "numberOfBytes": "32",
        "value": "t_array(t_uint256)dyn_storage"
      },
      "t_mapping(t_uint256,t_struct(Proposal)27089_storage)": {
        "encoding": "mapping",
        "key": "t_uint256",
        "label": "mapping(uint256 => struct GeodeModuleLib.Proposal)",
        "numberOfBytes": "32",
        "value": "t_struct(Proposal)27089_storage"
      },
      "t_struct(DualGovernance)27111_storage": {
        "encoding": "inplace",
        "label": "struct GeodeModuleLib.DualGovernance",
        "members": [
          {
            "astId": 27091,
            "contract": "contracts/Portal/packages/LiquidityPool.sol:LiquidityPool",
            "label": "GOVERNANCE",
            "offset": 0,
            "slot": "0",
            "type": "t_address"
          },
          {
            "astId": 27093,
            "contract": "contracts/Portal/packages/LiquidityPool.sol:LiquidityPool",
            "label": "SENATE",
            "offset": 0,
            "slot": "1",
            "type": "t_address"
          },
          {
            "astId": 27095,
            "contract": "contracts/Portal/packages/LiquidityPool.sol:LiquidityPool",
            "label": "APPROVED_UPGRADE",
            "offset": 0,
            "slot": "2",
            "type": "t_address"
          },
          {
            "astId": 27097,
            "contract": "contracts/Portal/packages/LiquidityPool.sol:LiquidityPool",
            "label": "SENATE_EXPIRY",
            "offset": 0,
            "slot": "3",
            "type": "t_uint256"
          },
          {
            "astId": 27099,
            "contract": "contracts/Portal/packages/LiquidityPool.sol:LiquidityPool",
            "label": "PACKAGE_TYPE",
            "offset": 0,
            "slot": "4",
            "type": "t_uint256"
          },
          {
            "astId": 27101,
            "contract": "contracts/Portal/packages/LiquidityPool.sol:LiquidityPool",
            "label": "CONTRACT_VERSION",
            "offset": 0,
            "slot": "5",
            "type": "t_uint256"
          },
          {
            "astId": 27106,
            "contract": "contracts/Portal/packages/LiquidityPool.sol:LiquidityPool",
            "label": "proposals",
            "offset": 0,
            "slot": "6",
            "type": "t_mapping(t_uint256,t_struct(Proposal)27089_storage)"
          },
          {
            "astId": 27110,
            "contract": "contracts/Portal/packages/LiquidityPool.sol:LiquidityPool",
            "label": "__gap",
            "offset": 0,
            "slot": "7",
            "type": "t_array(t_uint256)9_storage"
          }
        ],
        "numberOfBytes": "512"
      },
      "t_struct(IsolatedStorage)25976_storage": {
        "encoding": "inplace",
        "label": "struct DataStoreModuleLib.IsolatedStorage",
        "members": [
          {
            "astId": 25959,
            "contract": "contracts/Portal/packages/LiquidityPool.sol:LiquidityPool",
            "label": "allIdsByType",
            "offset": 0,
            "slot": "0",
            "type": "t_mapping(t_uint256,t_array(t_uint256)dyn_storage)"
          },
          {
            "astId": 25963,
            "contract": "contracts/Portal/packages/LiquidityPool.sol:LiquidityPool",
            "label": "uintData",
            "offset": 0,
            "slot": "1",
            "type": "t_mapping(t_bytes32,t_uint256)"
          },
          {
            "astId": 25967,
            "contract": "contracts/Portal/packages/LiquidityPool.sol:LiquidityPool",
            "label": "bytesData",
            "offset": 0,
            "slot": "2",
            "type": "t_mapping(t_bytes32,t_bytes_storage)"
          },
          {
            "astId": 25971,
            "contract": "contracts/Portal/packages/LiquidityPool.sol:LiquidityPool",
            "label": "addressData",
            "offset": 0,
            "slot": "3",
            "type": "t_mapping(t_bytes32,t_address)"
          },
          {
            "astId": 25975,
            "contract": "contracts/Portal/packages/LiquidityPool.sol:LiquidityPool",
            "label": "__gap",
            "offset": 0,
            "slot": "4",
            "type": "t_array(t_uint256)12_storage"
          }
        ],
        "numberOfBytes": "512"
      },
      "t_struct(Proposal)27089_storage": {
        "encoding": "inplace",
        "label": "struct GeodeModuleLib.Proposal",
        "members": [
          {
            "astId": 27082,
            "contract": "contracts/Portal/packages/LiquidityPool.sol:LiquidityPool",
            "label": "CONTROLLER",
            "offset": 0,
            "slot": "0",
            "type": "t_address"
          },
          {
            "astId": 27084,
            "contract": "contracts/Portal/packages/LiquidityPool.sol:LiquidityPool",
            "label": "TYPE",
            "offset": 0,
            "slot": "1",
            "type": "t_uint256"
          },
          {
            "astId": 27086,
            "contract": "contracts/Portal/packages/LiquidityPool.sol:LiquidityPool",
            "label": "NAME",
            "offset": 0,
            "slot": "2",
            "type": "t_bytes_storage"
          },
          {
            "astId": 27088,
            "contract": "contracts/Portal/packages/LiquidityPool.sol:LiquidityPool",
            "label": "deadline",
            "offset": 0,
            "slot": "3",
            "type": "t_uint256"
          }
        ],
        "numberOfBytes": "128"
      },
      "t_struct(Swap)28783_storage": {
        "encoding": "inplace",
        "label": "struct LiquidityModuleLib.Swap",
        "members": [
          {
            "astId": 28757,
            "contract": "contracts/Portal/packages/LiquidityPool.sol:LiquidityPool",
            "label": "gETH",
            "offset": 0,
            "slot": "0",
            "type": "t_contract(IgETH)23833"
          },
          {
            "astId": 28760,
            "contract": "contracts/Portal/packages/LiquidityPool.sol:LiquidityPool",
            "label": "lpToken",
            "offset": 0,
            "slot": "1",
            "type": "t_contract(ILPToken)24070"
          },
          {
            "astId": 28762,
            "contract": "contracts/Portal/packages/LiquidityPool.sol:LiquidityPool",
            "label": "pooledTokenId",
            "offset": 0,
            "slot": "2",
            "type": "t_uint256"
          },
          {
            "astId": 28764,
            "contract": "contracts/Portal/packages/LiquidityPool.sol:LiquidityPool",
            "label": "initialA",
            "offset": 0,
            "slot": "3",
            "type": "t_uint256"
          },
          {
            "astId": 28766,
            "contract": "contracts/Portal/packages/LiquidityPool.sol:LiquidityPool",
            "label": "futureA",
            "offset": 0,
            "slot": "4",
            "type": "t_uint256"
          },
          {
            "astId": 28768,
            "contract": "contracts/Portal/packages/LiquidityPool.sol:LiquidityPool",
            "label": "initialATime",
            "offset": 0,
            "slot": "5",
            "type": "t_uint256"
          },
          {
            "astId": 28770,
            "contract": "contracts/Portal/packages/LiquidityPool.sol:LiquidityPool",
            "label": "futureATime",
            "offset": 0,
            "slot": "6",
            "type": "t_uint256"
          },
          {
            "astId": 28772,
            "contract": "contracts/Portal/packages/LiquidityPool.sol:LiquidityPool",
            "label": "swapFee",
            "offset": 0,
            "slot": "7",
            "type": "t_uint256"
          },
          {
            "astId": 28774,
            "contract": "contracts/Portal/packages/LiquidityPool.sol:LiquidityPool",
            "label": "adminFee",
            "offset": 0,
            "slot": "8",
            "type": "t_uint256"
          },
          {
            "astId": 28778,
            "contract": "contracts/Portal/packages/LiquidityPool.sol:LiquidityPool",
            "label": "balances",
            "offset": 0,
            "slot": "9",
            "type": "t_array(t_uint256)2_storage"
          },
          {
            "astId": 28782,
            "contract": "contracts/Portal/packages/LiquidityPool.sol:LiquidityPool",
            "label": "__gap",
            "offset": 0,
            "slot": "11",
            "type": "t_array(t_uint256)5_storage"
          }
        ],
        "numberOfBytes": "512"
      },
      "t_uint256": {
        "encoding": "inplace",
        "label": "uint256",
        "numberOfBytes": "32"
      },
      "t_uint8": {
        "encoding": "inplace",
        "label": "uint8",
        "numberOfBytes": "1"
      }
    }
  }
}