{
  "address": "0xb228A4dd6389f435D81308901227bf213618dEFA",
  "abi": [
    {
      "anonymous": false,
      "inputs": [
        {
          "indexed": true,
          "internalType": "bytes",
          "name": "pubkey",
          "type": "bytes"
        }
      ],
      "name": "Alienated",
      "type": "event"
    },
    {
      "anonymous": false,
      "inputs": [
        {
          "indexed": true,
          "internalType": "uint256",
          "name": "id",
          "type": "uint256"
        },
        {
          "indexed": false,
          "internalType": "bytes",
          "name": "proofs",
          "type": "bytes"
        }
      ],
      "name": "FeeTheft",
      "type": "event"
    },
    {
      "anonymous": false,
      "inputs": [
        {
          "indexed": false,
          "internalType": "bytes32",
          "name": "merkleRoot",
          "type": "bytes32"
        },
        {
          "indexed": false,
          "internalType": "uint256",
          "name": "monopolyThreshold",
          "type": "uint256"
        }
      ],
      "name": "OracleReported",
      "type": "event"
    },
    {
      "anonymous": false,
      "inputs": [
        {
          "indexed": false,
          "internalType": "uint256",
          "name": "validatorVerificationIndex",
          "type": "uint256"
        }
      ],
      "name": "VerificationIndexUpdated",
      "type": "event"
    },
    {
      "inputs": [],
      "name": "MIN_VALIDATOR_COUNT",
      "outputs": [
        {
          "internalType": "uint256",
          "name": "",
          "type": "uint256"
        }
      ],
      "stateMutability": "view",
      "type": "function"
    },
    {
      "inputs": [],
      "name": "MONOPOLY_RATIO",
      "outputs": [
        {
          "internalType": "uint256",
          "name": "",
          "type": "uint256"
        }
      ],
      "stateMutability": "view",
      "type": "function"
    }
  ],
  "transactionHash": "0x1153b35a7c3702d034662a5322422822bcccfe5a70dfdade1822c1f169b7455f",
  "args": [],
  "numDeployments": 1,
  "solcInputHash": "ade6b4939fda34d609e172906ec4e12a",
  "bytecode": "0x61160e61003a600b82828239805160001a60731461002d57634e487b7160e01b600052600060045260246000fd5b30600052607381538281f3fe73000000000000000000000000000000000000000030146080604052600436106100875760003560e01c806347e3e2cb1161006557806347e3e2cb146100d157806348759909146100f15780639ea501ce14610111578063e5bd51d01461013157600080fd5b8063240b1b811461008c5780632d855053146100a75780633c76eb11146100af575b600080fd5b61009561c35081565b60405190815260200160405180910390f35b610095610151565b8180156100bb57600080fd5b506100cf6100ca3660046113a3565b610170565b005b8180156100dd57600080fd5b506100cf6100ec36600461134b565b610282565b8180156100fd57600080fd5b506100cf61010c3660046111ba565b610298565b81801561011d57600080fd5b506100cf61012c36600461123d565b6103e9565b81801561013d57600080fd5b506100cf61014c3660046112ea565b610487565b60646101636402540be400600161155b565b61016d9190611539565b81565b600983015483906001600160a01b031633146101a75760405162461bcd60e51b815260040161019e90611461565b60405180910390fd5b61c35082116101f85760405162461bcd60e51b815260206004820152601760248201527f4f553a206c6f772076616c696461746f7220636f756e74000000000000000000604482015260640161019e565b6008840183905542600585015560006402540be400606461021a82600161155b565b6102249190611539565b61022e908561155b565b6102389190611539565b6003860181905560408051868152602081018390529192507f0ec0d6bb1d1cb0a36193e78d494498384f6a7f83407eb4cf772e75d0cdee03c2910160405180910390a15050505050565b6102908686868686866105e8565b505050505050565b600985015485906001600160a01b031633146102c65760405162461bcd60e51b815260040161019e90611461565b83821461030a5760405162461bcd60e51b81526020600482015260126024820152714f553a20696e76616c69642070726f6f667360701b604482015260640161019e565b60005b848110156103df5761035b8887878481811061032b5761032b6115c2565b90506020020135868685818110610344576103446115c2565b905060200281019061035691906114da565b61073a565b85858281811061036d5761036d6115c2565b905060200201357f6fcceef20658dabea5d70961ac50b4a6a8726c24cce97029fd59ebb91a4d03668585848181106103a7576103a76115c2565b90506020028101906103b991906114da565b6040516103c7929190611421565b60405180910390a26103d881611591565b905061030d565b5050505050505050565b8483146103f557600080fd5b84811461040157600080fd5b60005b8581101561047c5761046c8989898985818110610423576104236115c2565b9050602002013588888681811061043c5761043c6115c2565b90506020020135878787818110610455576104556115c2565b90506020028101906104679190611490565b6105e8565b61047581611591565b9050610404565b505050505050505050565b600984015484906001600160a01b031633146104b55760405162461bcd60e51b815260040161019e90611461565b83856001015410156105095760405162461bcd60e51b815260206004820152601b60248201527f4f553a206869676820564552494649434154494f4e5f494e4445580000000000604482015260640161019e565b8460020154841161055c5760405162461bcd60e51b815260206004820152601a60248201527f4f553a206c6f7720564552494649434154494f4e5f494e444558000000000000604482015260640161019e565b6002850184905560005b828110156105ac5761059c8787868685818110610585576105856115c2565b905060200281019061059791906114da565b6107d4565b6105a581611591565b9050610566565b506040518481527f5741e1f31a5b295a42632c4a80216d28bf245e6f0ee679b887d8ecd7b94517ee9060200160405180910390a1505050505050565b604080516020810186905290810184905260009060600160408051601f1981840301815282825280516020918201209083015201604051602081830303815290604052805190602001209050610675838380806020026020016040519081016040528093929190818152602001838360200280828437600092019190915250505050600888015483610a5b565b6106c15760405162461bcd60e51b815260206004820152601c60248201527f4f553a204e4f5420616c6c2070726f6f6673206172652076616c696400000000604482015260640161019e565b6106cd87878787610a71565b85546040516322af599760e01b815260048101869052602481018790526001600160a01b03909116906322af599790604401600060405180830381600087803b15801561071957600080fd5b505af115801561072d573d6000803e3d6000fd5b5050505050505050505050565b604080518082019091526001815260006020820181905261076091869186918190610cc9565b61078683671c995b19585cd95960c21b61077d6212750042611521565b87929190610fb5565b827f6cc873968ba5c560db266aea333bf3b836de0031c3be1d57c3ab7618880a045283836107b76212750042611521565b6040516107c69392919061143d565b60405180910390a250505050565b600160ff1683600c0183836040516107ed929190611411565b9081526040519081900360200190205460ff161461084d5760405162461bcd60e51b815260206004820152601f60248201527f4f553a204e4f5420616c6c207075626b657973206172652070656e64696e6700604482015260640161019e565b826002015483600c018383604051610866929190611411565b90815260200160405180910390206001015411156108bd5760405162461bcd60e51b815260206004820152601460248201527309eaa7440eadccaf0e0cac6e8cac840d2dcc8caf60631b604482015260640161019e565b6108ee8484600c0184846040516108d5929190611411565b908152602001604051809103902060030154848461073a565b600083600c018383604051610904929190611411565b9081526040519081900360200190206002015490506109388582661cd958dd5c995960ca1b6801bc16d674ec800000610fdd565b610957858266737572706c757360c81b6801bc16d674ec800000611016565b600084600c01848460405161096d929190611411565b9081526040519081900360200190206003015490506109af86827f746f74616c50726f706f73656456616c696461746f72730000000000000000006001610fdd565b6109dc826109d2837170726f706f73656456616c696461746f727360701b611044565b8891906001610fdd565b604585600c0185856040516109f2929190611411565b908152604051908190036020018120805460ff9390931660ff1990931692909217909155610a239085908590611411565b604051908190038120907f7033b7b89d1818b80f9a85b8d604a07ec95f439c75d7ed56caef4d57a101397590600090a2505050505050565b600082610a688584611070565b14949350505050565b6005610a858584635459504560e01b6110bd565b14610ac45760405162461bcd60e51b815260206004820152600f60248201526e4f553a206e6f74206120706f6f6c3f60881b604482015260640161019e565b825460405163908d67ed60e01b8152600481018490526000916001600160a01b03169063908d67ed9060240160206040518083038186803b158015610b0857600080fd5b505afa158015610b1c573d6000803e3d6000fd5b505050506040513d601f19601f82011682018060405250810190610b4091906113cf565b90506000620151806402540be400610b58844261157a565b610b62919061155b565b610b6c9190611539565b855460405163f759cc3b60e01b8152600481018790529192506000916001600160a01b039091169063f759cc3b9060240160206040518083038186803b158015610bb557600080fd5b505afa158015610bc9573d6000803e3d6000fd5b505050506040513d601f19601f82011682018060405250810190610bed91906113cf565b905060006402540be4008084896006015485610c09919061155b565b610c13919061155b565b610c1d9190611539565b610c279190611539565b610c319083611521565b905060006402540be40080858a6007015486610c4d919061155b565b610c57919061155b565b610c619190611539565b610c6b9190611539565b610c75908461157a565b9050808610158015610c875750818611155b61047c5760405162461bcd60e51b81526020600482015260136024820152724f553a20707269636520697320696e73616e6560681b604482015260640161019e565b610ce08585681a5b9a5d1a585d195960ba1b6110bd565b610d2c5760405162461bcd60e51b815260206004820152601760248201527f53553a204944206973206e6f7420696e69746961746564000000000000000000604482015260640161019e565b6000610d408686635459504560e01b6110bd565b90506004811415610e20578151610d905760405162461bcd60e51b815260206004820152601460248201527314d54e8815165411481393d508185b1b1bddd95960621b604482015260640161019e565b8380610d995750825b15610e1b57610da886866110e7565b15610e1b5760405162461bcd60e51b815260206004820152603760248201527f53553a206f70657261746f7220697320696e20707269736f6e2c20676574206960448201527f6e20746f756368207769746820676f7665726e616e6365000000000000000000606482015260840161019e565b610eac565b6005811415610e71576020820151610e1b5760405162461bcd60e51b815260206004820152601460248201527314d54e8815165411481393d508185b1b1bddd95960621b604482015260640161019e565b60405162461bcd60e51b815260206004820152601060248201526f53553a20696e76616c6964205459504560801b604482015260640161019e565b8215610f3057610eca86866936b0b4b73a30b4b732b960b11b611108565b6001600160a01b0316336001600160a01b031614610f2a5760405162461bcd60e51b815260206004820152601960248201527f53553a2073656e646572204e4f54206d61696e7461696e657200000000000000604482015260640161019e565b50610fae565b831561029057610f4e86866921a7a72a2927a62622a960b11b611108565b6001600160a01b0316336001600160a01b031614610f2a5760405162461bcd60e51b815260206004820152601960248201527f53553a2073656e646572204e4f5420434f4e54524f4c4c455200000000000000604482015260640161019e565b5050505050565b80846001016000610fc68686611044565b815260208101919091526040016000205550505050565b80846001016000610fee8686611044565b8152602001908152602001600020600082825461100b919061157a565b909155505050505050565b808460010160006110278686611044565b8152602001908152602001600020600082825461100b9190611521565b604080516020808201949094528082019290925280518083038201815260609092019052805191012090565b600081815b84518110156110b5576110a182868381518110611094576110946115c2565b602002602001015161113c565b9150806110ad81611591565b915050611075565b509392505050565b60008360010160006110cf8585611044565b81526020019081526020016000205490509392505050565b60006110ff8383671c995b19585cd95960c21b6110bd565b42109392505050565b600083600301600061111a8585611044565b81526020810191909152604001600020546001600160a01b0316949350505050565b6000818310611158576000828152602084905260409020611167565b60008381526020839052604090205b9392505050565b60008083601f84011261118057600080fd5b50813567ffffffffffffffff81111561119857600080fd5b6020830191508360208260051b85010111156111b357600080fd5b9250929050565b600080600080600080608087890312156111d357600080fd5b8635955060208701359450604087013567ffffffffffffffff808211156111f957600080fd5b6112058a838b0161116e565b9096509450606089013591508082111561121e57600080fd5b5061122b89828a0161116e565b979a9699509497509295939492505050565b60008060008060008060008060a0898b03121561125957600080fd5b8835975060208901359650604089013567ffffffffffffffff8082111561127f57600080fd5b61128b8c838d0161116e565b909850965060608b01359150808211156112a457600080fd5b6112b08c838d0161116e565b909650945060808b01359150808211156112c957600080fd5b506112d68b828c0161116e565b999c989b5096995094979396929594505050565b60008060008060006080868803121561130257600080fd5b853594506020860135935060408601359250606086013567ffffffffffffffff81111561132e57600080fd5b61133a8882890161116e565b969995985093965092949392505050565b60008060008060008060a0878903121561136457600080fd5b86359550602087013594506040870135935060608701359250608087013567ffffffffffffffff81111561139757600080fd5b61122b89828a0161116e565b6000806000606084860312156113b857600080fd5b505081359360208301359350604090920135919050565b6000602082840312156113e157600080fd5b5051919050565b81835281816020850137506000828201602090810191909152601f909101601f19169091010190565b8183823760009101908152919050565b6020815260006114356020830184866113e8565b949350505050565b6040815260006114516040830185876113e8565b9050826020830152949350505050565b6020808252601590820152744f553a2073656e646572204e4f54204f5241434c4560581b604082015260600190565b6000808335601e198436030181126114a757600080fd5b83018035915067ffffffffffffffff8211156114c257600080fd5b6020019150600581901b36038213156111b357600080fd5b6000808335601e198436030181126114f157600080fd5b83018035915067ffffffffffffffff82111561150c57600080fd5b6020019150368190038213156111b357600080fd5b60008219821115611534576115346115ac565b500190565b60008261155657634e487b7160e01b600052601260045260246000fd5b500490565b6000816000190483118215151615611575576115756115ac565b500290565b60008282101561158c5761158c6115ac565b500390565b60006000198214156115a5576115a56115ac565b5060010190565b634e487b7160e01b600052601160045260246000fd5b634e487b7160e01b600052603260045260246000fdfea264697066735822122021b9d51823ac7a8f806d02ea3df8c90494d38e1aab355c267659be54682b26e164736f6c63430008070033",
  "libraries": {
    "StakeUtils": "0x449b0b8d4F68F00196f1Ede76063F83b296a7DC2"
  },
  "devdoc": {
    "author": "Icebear & Crash Bandicoot",
    "details": "Telescope is responsible from 3 tasks: * Updating the on-chain price of all pools with a MerkleRoot * Confirming validator proposals * Regulating the Node Operators 1. reportOracle: Continous Data Flow: Price Merkle Root and MONOPOLY_THRESHOLD * 1. Oracle Nodes calculates the price of its derivative, * * according to the validator data such as balance and fees. * 2. If a pool doesn't have a validator, price is kept the same. * 3. A merkle tree is constructed with the order of allIdsByType array. * 4. A watcher collects all the signatures from Multiple Oracle Nodes, and submits the merkle root. * 5. Anyone can update the price of the derivative * * by calling priceSync() functions with correct merkle proofs * 6. Minting is allowed within PRICE_EXPIRY (24H) after the last price update. * 7. Updates the regulation around Monopolies 2. updateVerificationIndex :Confirming validator proposals * Simply, all proposed validator has an index bound to them, * n representing the latest proposal: (0,n] * Telescope verifies the validator data provided in proposeStake: * especially sig1, sig31 and withdrawal credentials. * Telescope confirms the latest index it verified and states the faulty validator proposals (aliens) * If a validator proposal is faulty then it's state is set to 69. * * 2 step process is essential to prevent the frontrunning * * with a problematic withdrawalCredential, (https://bit.ly/3Tkc6UC) 3. regulateOperators: Regulating the Operators * Operators can act faulty in many different ways. To prevent such actions, * Telescope regulates them with well defined limitations. * * Currently only issue is the fee theft, meaning operator have not * * used the withdrawal contract for miner fees or MEV boost. * * * There can be other restrictions in the future.All 3 functions have OracleOnly modifier, priceSync functions do not.first review DataStoreUtilsthen review StakeUtils",
    "kind": "dev",
    "methods": {
      "priceSync(DataStoreUtils.IsolatedStorage storage,StakeUtils.PooledStaking storage,uint256,uint256,bytes32[])": {
        "params": {
          "price": "price of the derivative denominated in gETH.denominator()",
          "priceProof": "merkle proofs"
        }
      },
      "priceSyncBatch(DataStoreUtils.IsolatedStorage storage,StakeUtils.PooledStaking storage,uint256[],uint256[],bytes32[][])": {
        "params": {
          "priceProofs": "merkle proofs",
          "prices": "price of the derivative denominated in gETH.denominator()"
        }
      },
      "regulateOperators(DataStoreUtils.IsolatedStorage storage,StakeUtils.PooledStaking storage,uint256[],bytes[])": {
        "details": "Stuff here result in imprisonment",
        "params": {
          "feeThefts": "Operator ids who have stolen MEV or block rewards detected",
          "proofs": "BlockNumber, tx or any other referance as a proof"
        }
      },
      "reportOracle(StakeUtils.PooledStaking storage,bytes32,uint256)": {
        "params": {
          "allValidatorsCount": "Number of all validators within BeaconChain, all of them. Prevents monopolies."
        }
      },
      "updateVerificationIndex(DataStoreUtils.IsolatedStorage storage,StakeUtils.PooledStaking storage,uint256,bytes[])": {
        "params": {
          "alienatedPubkeys": "faulty proposals within the range of new and old verification indexes.",
          "validatorVerificationIndex": "(inclusive) index of the highest validator that is verified to be activated"
        }
      }
    },
    "title": "OracleUtils Library: An extension to StakeUtils Library",
    "version": 1
  },
  "userdoc": {
    "events": {
      "Alienated(bytes)": {
        "notice": "EVENTS"
      }
    },
    "kind": "user",
    "methods": {
      "MIN_VALIDATOR_COUNT()": {
        "notice": "sensible value for the total beacon chain validators, no reasoning."
      },
      "MONOPOLY_RATIO()": {
        "notice": "effective on MONOPOLY_THRESHOLD, limiting the active validators, set to 1% at start."
      },
      "priceSync(DataStoreUtils.IsolatedStorage storage,StakeUtils.PooledStaking storage,uint256,uint256,bytes32[])": {
        "notice": "external function to set a derivative price on Portal"
      },
      "priceSyncBatch(DataStoreUtils.IsolatedStorage storage,StakeUtils.PooledStaking storage,uint256[],uint256[],bytes32[][])": {
        "notice": "external function to set a multiple derivatives price at once, saves gas."
      },
      "regulateOperators(DataStoreUtils.IsolatedStorage storage,StakeUtils.PooledStaking storage,uint256[],bytes[])": {
        "notice": "regulating operators, currently only regulation is towards fee theft, can add more stuff in the future."
      },
      "reportOracle(StakeUtils.PooledStaking storage,bytes32,uint256)": {
        "notice": "Telescope reports all of the g-derivate prices with a new PRICE_MERKLE_ROOT. Then, updates the ORACLE_UPDATE_TIMESTAMP and MONOPOLY_THRESHOLD"
      },
      "updateVerificationIndex(DataStoreUtils.IsolatedStorage storage,StakeUtils.PooledStaking storage,uint256,bytes[])": {
        "notice": "Updating VERIFICATION_INDEX, signaling that it is safe to activate the validator proposals with lower index than new VERIFICATION_INDEX"
      }
    },
    "notice": "Oracle, named Telescope, handles some operations for The Staking Library, * using the following logic, which is very simple.",
    "version": 1
  },
  "storageLayout": {
    "storage": [],
    "types": null
  }
}