{
  "address": "0x50A5a9Fd50e6C630a66Ab3b570C5B079E0567b60",
  "abi": [
    {
      "anonymous": false,
      "inputs": [
        {
          "indexed": false,
          "internalType": "bytes",
          "name": "pubkey",
          "type": "bytes"
        }
      ],
      "name": "Alienated",
      "type": "event"
    },
    {
      "anonymous": false,
      "inputs": [
        {
          "indexed": true,
          "internalType": "uint256",
          "name": "id",
          "type": "uint256"
        },
        {
          "indexed": false,
          "internalType": "bytes",
          "name": "proofs",
          "type": "bytes"
        }
      ],
      "name": "FeeTheft",
      "type": "event"
    },
    {
      "anonymous": false,
      "inputs": [
        {
          "indexed": false,
          "internalType": "bytes32",
          "name": "priceMerkleRoot",
          "type": "bytes32"
        },
        {
          "indexed": false,
          "internalType": "bytes32",
          "name": "balanceMerkleRoot",
          "type": "bytes32"
        },
        {
          "indexed": false,
          "internalType": "uint256",
          "name": "monopolyThreshold",
          "type": "uint256"
        }
      ],
      "name": "OracleReported",
      "type": "event"
    },
    {
      "anonymous": false,
      "inputs": [
        {
          "indexed": true,
          "internalType": "uint256",
          "name": "operatorId",
          "type": "uint256"
        },
        {
          "indexed": false,
          "internalType": "bytes",
          "name": "proof",
          "type": "bytes"
        },
        {
          "indexed": false,
          "internalType": "uint256",
          "name": "releaseTimestamp",
          "type": "uint256"
        }
      ],
      "name": "Prisoned",
      "type": "event"
    },
    {
      "anonymous": false,
      "inputs": [
        {
          "indexed": false,
          "internalType": "uint256",
          "name": "validatorVerificationIndex",
          "type": "uint256"
        }
      ],
      "name": "VerificationIndexUpdated",
      "type": "event"
    },
    {
      "inputs": [],
      "name": "MIN_VALIDATOR_COUNT",
      "outputs": [
        {
          "internalType": "uint256",
          "name": "",
          "type": "uint256"
        }
      ],
      "stateMutability": "view",
      "type": "function"
    },
    {
      "inputs": [],
      "name": "MONOPOLY_RATIO",
      "outputs": [
        {
          "internalType": "uint256",
          "name": "",
          "type": "uint256"
        }
      ],
      "stateMutability": "view",
      "type": "function"
    },
    {
      "inputs": [],
      "name": "PRISON_SENTENCE",
      "outputs": [
        {
          "internalType": "uint256",
          "name": "",
          "type": "uint256"
        }
      ],
      "stateMutability": "view",
      "type": "function"
    }
  ],
  "transactionHash": "0xb825d0bb60a201f31ea729f891102b4b382fb267908a766b184c3f30bd238b17",
  "args": [],
  "numDeployments": 1,
  "solcInputHash": "0d9b4f013ad8b24d94c0978b4d3f3ea8",
  "bytecode": "0x611c4a61003a600b82828239805160001a60731461002d57634e487b7160e01b600052600060045260246000fd5b30600052607381538281f3fe730000000000000000000000000000000000000000301460806040526004361061009d5760003560e01c80632d855053116100705780632d8550531461011f5780633b388210146101275780638c02d86d14610147578063ea976d1514610167578063f3e7667c1461017157600080fd5b806312ed4277146100a2578063140c1ffe146100c4578063171299f1146100e4578063240b1b8114610104575b600080fd5b8180156100ae57600080fd5b506100c26100bd3660046118ac565b610191565b005b8180156100d057600080fd5b506100c26100df36600461177e565b610316565b8180156100f057600080fd5b506100c26100ff366004611800565b610467565b61010d61c35081565b60405190815260200160405180910390f35b61010d610505565b81801561013357600080fd5b506100c261014236600461192b565b610518565b81801561015357600080fd5b506100c261016236600461198b565b61067b565b61010d6212750081565b81801561017d57600080fd5b506100c261018c36600461174c565b610691565b600260ff1684600b0183836040516101aa929190611a24565b908152604051908190036020019020546001600160401b0316146102155760405162461bcd60e51b815260206004820181905260248201527f534d4c3a76616c696461746f72206973206e657665722061637469766174656460448201526064015b60405180910390fd5b83600b018282604051610229929190611a24565b908152604051908190036020018120546001600160401b03600160c01b9091041690600b86019061025d9085908590611a24565b9081526040519081900360200190205461028891906001600160401b03600160801b90910416611b4a565b6001600160401b031642116102df5760405162461bcd60e51b815260206004820152601760248201527f534d4c3a76616c696461746f7220697320616374697665000000000000000000604482015260640161020c565b6103108385600b0184846040516102f7929190611a24565b9081526020016040518091039020600201548484610793565b50505050565b600186015486906001600160a01b031633146103445760405162461bcd60e51b815260040161020c90611a74565b8382146103885760405162461bcd60e51b81526020600482015260126024820152714f454c3a696e76616c69642070726f6f667360701b604482015260640161020c565b60005b8481101561045d576103d9878787848181106103a9576103a9611bfe565b905060200201358686858181106103c2576103c2611bfe565b90506020028101906103d49190611aec565b610793565b8585828181106103eb576103eb611bfe565b905060200201357f6fcceef20658dabea5d70961ac50b4a6a8726c24cce97029fd59ebb91a4d036685858481811061042557610425611bfe565b90506020028101906104379190611aec565b604051610445929190611a34565b60405180910390a261045681611bcd565b905061038b565b5050505050505050565b84831461047357600080fd5b84811461047f57600080fd5b60005b858110156104fa576104ea89898989858181106104a1576104a1611bfe565b905060200201358888868181106104ba576104ba611bfe565b905060200201358787878181106104d3576104d3611bfe565b90506020028101906104e59190611aa3565b61082c565b6104f381611bcd565b9050610482565b505050505050505050565b61051560646402540be400611b75565b81565b600185015485906001600160a01b031633146105465760405162461bcd60e51b815260040161020c90611a74565b838660020154101561059a5760405162461bcd60e51b815260206004820152601b60248201527f4f454c3a6869676820564552494649434154494f4e5f494e4445580000000000604482015260640161020c565b856003015484116105ed5760405162461bcd60e51b815260206004820152601a60248201527f4f454c3a6c6f7720564552494649434154494f4e5f494e444558000000000000604482015260640161020c565b60005b828110156106375761062787878787878681811061061057610610611bfe565b90506020028101906106229190611aec565b610d73565b61063081611bcd565b90506105f0565b50600386018490556040518481527f5741e1f31a5b295a42632c4a80216d28bf245e6f0ee679b887d8ecd7b94517ee906020015b60405180910390a1505050505050565b61068986868686868661082c565b505050505050565b600184015484906001600160a01b031633146106bf5760405162461bcd60e51b815260040161020c90611a74565b61c35082116107105760405162461bcd60e51b815260206004820152601760248201527f4f454c3a6c6f772076616c696461746f7220636f756e74000000000000000000604482015260640161020c565b60098501849055600a850183905542600586015560006402540be400610737606482611b75565b6107419085611b97565b61074b9190611b75565b6004870181905560408051878152602081018790529081018290529091507ffeb6b9f0f1c25e93a31c59bc49721cfd063408fd1d78dcddcf2541b6535f821b9060600161066b565b60408051808201909152600181526000602082018190526107b991869186918190610ff2565b6107de836672656c6561736560c81b6107d56212750042611b32565b879291906112bf565b827f6cc873968ba5c560db266aea333bf3b836de0031c3be1d57c3ab7618880a0452838361080f6212750042611b32565b60405161081e93929190611a50565b60405180910390a250505050565b855460405163908d67ed60e01b8152600481018690526001600160a01b039091169063908d67ed9060240160206040518083038186803b15801561086f57600080fd5b505afa158015610883573d6000803e3d6000fd5b505050506040513d601f19601f820116820180604052508101906108a791906119e2565b8660050154116108ef5760405162461bcd60e51b81526020600482015260136024820152724f454c3a6e6f207072696365206368616e676560681b604482015260640161020c565b604080516020810186905290810184905260009060600160408051601f198184030181528282528051602091820120908301520160405160208183030381529060405280519060200120905061097c8383808060200260200160405190810160405280939291908181526020018383602002808284376000920191909152505050506009890154836112e7565b6109c85760405162461bcd60e51b815260206004820152601c60248201527f4f454c3a4e4f5420616c6c2070726f6f6673206172652076616c696400000000604482015260640161020c565b6109d4878787876112fd565b60006109f187876c3cb4b2b6322932b1b2b4bb32b960991b611571565b90506001600160a01b038116610a6a5787546040516322af599760e01b815260048101879052602481018890526001600160a01b03909116906322af599790604401600060405180830381600087803b158015610a4d57600080fd5b505af1158015610a61573d6000803e3d6000fd5b5050505061045d565b875460405163f759cc3b60e01b8152600481018890526000916001600160a01b03169063f759cc3b9060240160206040518083038186803b158015610aae57600080fd5b505afa158015610ac2573d6000803e3d6000fd5b505050506040513d601f19601f82011682018060405250810190610ae691906119e2565b905080861115610d04578854604080516396ce079560e01b815290516000926001600160a01b0316916396ce0795916004808301926020929190829003018186803b158015610b3457600080fd5b505afa158015610b48573d6000803e3d6000fd5b505050506040513d601f19601f82011682018060405250810190610b6c91906119e2565b8a5460405163bd85b03960e01b8152600481018b90526001600160a01b039091169063bd85b0399060240160206040518083038186803b158015610baf57600080fd5b505afa158015610bc3573d6000803e3d6000fd5b505050506040513d601f19601f82011682018060405250810190610be791906119e2565b610bf1848a611bb6565b610bfb9190611b97565b610c059190611b75565b8a5460405163731133e960e01b8152306004820152602481018b90526044810183905260806064820152600060848201529192506001600160a01b03169063731133e99060a401600060405180830381600087803b158015610c6657600080fd5b505af1158015610c7a573d6000803e3d6000fd5b50508b54604051637921219560e11b81523060048201526001600160a01b038781166024830152604482018d90526064820186905260a06084830152600060a4830152909116925063f242432a915060c401600060405180830381600087803b158015610ce657600080fd5b505af1158015610cfa573d6000803e3d6000fd5b50505050506104fa565b88546040516322af599760e01b815260048101889052602481018990526001600160a01b03909116906322af599790604401600060405180830381600087803b158015610d5057600080fd5b505af1158015610d64573d6000803e3d6000fd5b50505050505050505050505050565b8285600b018383604051610d88929190611a24565b908152604051908190036020019020546001600160401b0368010000000000000000909104161115610df35760405162461bcd60e51b815260206004820152601460248201527309e8a9874eadccaf0e0cac6e8cac840d2dcc8caf60631b604482015260640161020c565b600160ff1685600b018383604051610e0c929190611a24565b908152604051908190036020019020546001600160401b031614610e725760405162461bcd60e51b815260206004820152601f60248201527f4f454c3a4e4f5420616c6c207075626b657973206172652070656e64696e6700604482015260640161020c565b600085600b018383604051610e88929190611a24565b9081526020016040518091039020600201549050610ea885828585610793565b600086600b018484604051610ebe929190611a24565b908152604051908190036020019020600101549050610ef28682661cd958dd5c995960ca1b6801bc16d674ec8000006115a5565b610f11868266737572706c757360c81b6801bc16d674ec8000006115de565b610f3e81610f34847170726f706f73656456616c696461746f727360701b61160c565b88919060016115a5565b610f6881610f5e846e616c69656e56616c696461746f727360881b61160c565b88919060016115de565b604560ff1687600b018585604051610f81929190611a24565b90815260405190819003602001812080546001600160401b039390931667ffffffffffffffff19909316929092179091557f7033b7b89d1818b80f9a85b8d604a07ec95f439c75d7ed56caef4d57a101397590610fe19086908690611a34565b60405180910390a150505050505050565b6110098585681a5b9a5d1a585d195960ba1b611638565b6110495760405162461bcd60e51b815260206004820152601160248201527014d3530e9b9bdd081a5b9a5d1a585d1959607a1b604482015260640161020c565b600061105d8686635459504560e01b611638565b9050600481141561112a5781516110ad5760405162461bcd60e51b815260206004820152601460248201527314d3530e95165411481393d508185b1b1bddd95960621b604482015260640161020c565b83806110b65750825b15611125576110c58686611662565b156111255760405162461bcd60e51b815260206004820152602a60248201527f534d4c3a707269736f6e65642c2067657420696e20746f756368207769746820604482015269676f7665726e616e636560b01b606482015260840161020c565b6111b6565b600581141561117b5760208201516111255760405162461bcd60e51b815260206004820152601460248201527314d3530e95165411481393d508185b1b1bddd95960621b604482015260640161020c565b60405162461bcd60e51b815260206004820152601060248201526f534d4c3a696e76616c6964205459504560801b604482015260640161020c565b821561123a576111d486866936b0b4b73a30b4b732b960b11b611571565b6001600160a01b0316336001600160a01b0316146112345760405162461bcd60e51b815260206004820152601960248201527f534d4c3a73656e646572204e4f54206d61696e7461696e657200000000000000604482015260640161020c565b506112b8565b83156106895761125886866921a7a72a2927a62622a960b11b611571565b6001600160a01b0316336001600160a01b0316146112345760405162461bcd60e51b815260206004820152601960248201527f534d4c3a73656e646572204e4f5420434f4e54524f4c4c455200000000000000604482015260640161020c565b5050505050565b808460010160006112d0868661160c565b815260208101919091526040016000205550505050565b6000826112f48584611682565b14949350505050565b60056113118484635459504560e01b611638565b146113505760405162461bcd60e51b815260206004820152600f60248201526e4f454c3a6e6f74206120706f6f6c3f60881b604482015260640161020c565b835460405163908d67ed60e01b8152600481018490526000916001600160a01b03169063908d67ed9060240160206040518083038186803b15801561139457600080fd5b505afa1580156113a8573d6000803e3d6000fd5b505050506040513d601f19601f820116820180604052508101906113cc91906119e2565b90506000620151806402540be4006113e48442611bb6565b6113ee9190611b97565b6113f89190611b75565b865460405163f759cc3b60e01b8152600481018790529192506000916001600160a01b039091169063f759cc3b9060240160206040518083038186803b15801561144157600080fd5b505afa158015611455573d6000803e3d6000fd5b505050506040513d601f19601f8201168201806040525081019061147991906119e2565b905060006402540be40080848a60060154856114959190611b97565b61149f9190611b97565b6114a99190611b75565b6114b39190611b75565b905060006402540be40080858b60070154866114cf9190611b97565b6114d99190611b97565b6114e39190611b75565b6114ed9190611b75565b9050826114fa8288611b32565b10158015611511575061150d8284611b32565b8611155b6104fa5760405162461bcd60e51b815260206004820152602b60248201527f4f454c3a707269636520697320696e73616e652c20707269636520757064617460448201526a19481a5cc81a185b1d195960aa1b606482015260840161020c565b6000836003016000611583858561160c565b81526020810191909152604001600020546001600160a01b0316949350505050565b808460010160006115b6868661160c565b815260200190815260200160002060008282546115d39190611bb6565b909155505050505050565b808460010160006115ef868661160c565b815260200190815260200160002060008282546115d39190611b32565b604080516020808201949094528082019290925280518083038201815260609092019052805191012090565b600083600101600061164a858561160c565b81526020019081526020016000205490509392505050565b600061167983836672656c6561736560c81b611638565b42109392505050565b600081815b84518110156116c7576116b3828683815181106116a6576116a6611bfe565b60200260200101516116cf565b9150806116bf81611bcd565b915050611687565b509392505050565b60008183106116eb5760008281526020849052604090206116fa565b60008381526020839052604090205b9392505050565b60008083601f84011261171357600080fd5b5081356001600160401b0381111561172a57600080fd5b6020830191508360208260051b850101111561174557600080fd5b9250929050565b6000806000806080858703121561176257600080fd5b5050823594602084013594506040840135936060013592509050565b6000806000806000806080878903121561179757600080fd5b863595506020870135945060408701356001600160401b03808211156117bc57600080fd5b6117c88a838b01611701565b909650945060608901359150808211156117e157600080fd5b506117ee89828a01611701565b979a9699509497509295939492505050565b60008060008060008060008060a0898b03121561181c57600080fd5b883597506020890135965060408901356001600160401b038082111561184157600080fd5b61184d8c838d01611701565b909850965060608b013591508082111561186657600080fd5b6118728c838d01611701565b909650945060808b013591508082111561188b57600080fd5b506118988b828c01611701565b999c989b5096995094979396929594505050565b600080600080606085870312156118c257600080fd5b843593506020850135925060408501356001600160401b03808211156118e757600080fd5b818701915087601f8301126118fb57600080fd5b81358181111561190a57600080fd5b88602082850101111561191c57600080fd5b95989497505060200194505050565b60008060008060006080868803121561194357600080fd5b85359450602086013593506040860135925060608601356001600160401b0381111561196e57600080fd5b61197a88828901611701565b969995985093965092949392505050565b60008060008060008060a087890312156119a457600080fd5b8635955060208701359450604087013593506060870135925060808701356001600160401b038111156119d657600080fd5b6117ee89828a01611701565b6000602082840312156119f457600080fd5b5051919050565b81835281816020850137506000828201602090810191909152601f909101601f19169091010190565b8183823760009101908152919050565b602081526000611a486020830184866119fb565b949350505050565b604081526000611a646040830185876119fb565b9050826020830152949350505050565b6020808252601590820152744f454c3a73656e646572204e4f54204f5241434c4560581b604082015260600190565b6000808335601e19843603018112611aba57600080fd5b8301803591506001600160401b03821115611ad457600080fd5b6020019150600581901b360382131561174557600080fd5b6000808335601e19843603018112611b0357600080fd5b8301803591506001600160401b03821115611b1d57600080fd5b60200191503681900382131561174557600080fd5b60008219821115611b4557611b45611be8565b500190565b60006001600160401b03808316818516808303821115611b6c57611b6c611be8565b01949350505050565b600082611b9257634e487b7160e01b600052601260045260246000fd5b500490565b6000816000190483118215151615611bb157611bb1611be8565b500290565b600082821015611bc857611bc8611be8565b500390565b6000600019821415611be157611be1611be8565b5060010190565b634e487b7160e01b600052601160045260246000fd5b634e487b7160e01b600052603260045260246000fdfea26469706673582212204f8aa5a04443e7c6d1e756da664e958e16e229487d65f516bdac3fc6326c976d64736f6c63430008070033",
  "libraries": {
    "StakeModuleLib": "0x68d1fA204C4fdfcCC074863Bf7bD71e3b3974b7d"
  },
  "devdoc": {
    "author": "Ice Bear & Crash Bandicoot",
    "details": "review: DataStoreModule for the IsolatedStorage logic.review: StakeModuleLib for base staking logic.Telescope is currently responsible from 4 tasks: * Updating the on-chain price of all pools with a MerkleRoot for minting operations * Updating the on-chain balances info of all validators with a MerkleRoot for withdrawal operations * Confirming validator proposals * Regulating the Node Operators 1. updateVerificationIndex: Confirming validator proposals * 2 step process is essential to prevent the frontrunning with a problematic withdrawalCredential: https://bit.ly/3Tkc6UC * Simply, all proposed validator has an index bound to them, * n representing the latest proposal: (0,n] * Telescope verifies the validator data provided in proposeStake: * especially sig1, sig31 and withdrawal credentials. * Telescope confirms the latest index verified and states the faulty validator proposals (aliens) * If a validator proposal is faulty then it's state is set to 69, refer to globals/validator_state.sol 2. regulateOperators: Regulating the Operators * Operators can act faulty in many different ways. To prevent such actions, * Telescope regulates them with well defined limitations. * Currently only issue is the fee theft, meaning operator have not * used the withdrawal contract for miner fees or MEV boost. * There can be other restrictions in the future. 2. reportBeacon: Continous Data from Beacon chain: Price Merkle Root & Balances Merkle Root & # of active validators * 1. Oracle Nodes calculate the price of its derivative, according to the validator data such as balance and fees. * 2. If a pool doesn't have a validator, price kept same. * 3. A merkle tree is constructed with the order of allIdsByType array. * 4. A watcher collects all the signatures from Multiple Oracle Nodes, and submits the merkle root. * 5. Anyone can update the price of the derivative  by calling priceSync() functions with correct merkle proofs * 6. Minting is allowed within PRICE_EXPIRY (24H) after the last price update. * 7. Updates the regulation around Monopolies and provides BALANCE_MERKLE_ROOT to be used within withdrawal process.Most external functions have OracleOnly modifier. Except: priceSync, priceSyncBatch and blameOperator.This is an external library, requires deployment.",
    "events": {
      "Alienated(bytes)": {
        "custom:section": "** EVENTS **"
      }
    },
    "kind": "dev",
    "methods": {
      "blameOperator(StakeModuleLib.PooledStaking storage,DataStoreModuleLib.IsolatedStorage storage,bytes)": {
        "details": "anyone can call this function while the state is ACTIVEif operator has given enough allowance, they SHOULD rotate the validators to avoid being prisonedthis function lacks 2 other punishable acts: 1. while state is PROPOSED: validator proposed, it is passed, but haven't been created even tho it has been a MAX_BEACON_DELAY 2. while state is EXIT_REQUESTED:  validator requested exit, but it haven't been executed even tho it has been MAX_BEACON_DELAY"
      },
      "priceSync(StakeModuleLib.PooledStaking storage,DataStoreModuleLib.IsolatedStorage storage,uint256,uint256,bytes32[])": {
        "custom:visibility": "-> external",
        "params": {
          "price": "price of the derivative denominated in gETH.denominator()",
          "priceProof": "merkle proofs"
        }
      },
      "priceSyncBatch(StakeModuleLib.PooledStaking storage,DataStoreModuleLib.IsolatedStorage storage,uint256[],uint256[],bytes32[][])": {
        "custom:visibility": "-> external",
        "params": {
          "priceProofs": "merkle proofs",
          "prices": "price of the derivative denominated in gETH.denominator()"
        }
      },
      "regulateOperators(StakeModuleLib.PooledStaking storage,DataStoreModuleLib.IsolatedStorage storage,uint256[],bytes[])": {
        "details": "Stuff here result in imprisonment",
        "params": {
          "feeThefts": "Operator ids who have stolen MEV or block rewards detected",
          "proofs": "BlockNumber, tx or any other referance as a proof"
        }
      },
      "reportBeacon(StakeModuleLib.PooledStaking storage,bytes32,bytes32,uint256)": {
        "params": {
          "allValidatorsCount": "Number of all validators within BeaconChain, all of them. Prevents monopolies."
        }
      },
      "updateVerificationIndex(StakeModuleLib.PooledStaking storage,DataStoreModuleLib.IsolatedStorage storage,uint256,bytes[])": {
        "custom:visibility": "-> external",
        "params": {
          "alienatedPubkeys": "faulty proposals within the range of new and old verification indexes.",
          "validatorVerificationIndex": "(inclusive) index of the highest validator that is verified to be activated"
        }
      }
    },
    "title": "OEL: Oracle Extension Library",
    "version": 1
  },
  "userdoc": {
    "kind": "user",
    "methods": {
      "MIN_VALIDATOR_COUNT()": {
        "notice": "sensible value for the minimum beacon chain validators. No reasoning."
      },
      "MONOPOLY_RATIO()": {
        "notice": "effective on MONOPOLY_THRESHOLD, limiting the active validators: Set to 1%"
      },
      "PRISON_SENTENCE()": {
        "notice": "limiting the access for Operators in case of bad/malicious/faulty behaviour"
      },
      "blameOperator(StakeModuleLib.PooledStaking storage,DataStoreModuleLib.IsolatedStorage storage,bytes)": {
        "notice": "allows imprisoning an Operator if the validator have not been exited until expected exit"
      },
      "priceSync(StakeModuleLib.PooledStaking storage,DataStoreModuleLib.IsolatedStorage storage,uint256,uint256,bytes32[])": {
        "notice": "external function to set a derivative price on Portal"
      },
      "priceSyncBatch(StakeModuleLib.PooledStaking storage,DataStoreModuleLib.IsolatedStorage storage,uint256[],uint256[],bytes32[][])": {
        "notice": "external function to set a multiple derivatives price at once, saves gas."
      },
      "regulateOperators(StakeModuleLib.PooledStaking storage,DataStoreModuleLib.IsolatedStorage storage,uint256[],bytes[])": {
        "notice": "regulating operators, currently only regulation is towards fee theft, can add more stuff in the future."
      },
      "reportBeacon(StakeModuleLib.PooledStaking storage,bytes32,bytes32,uint256)": {
        "notice": "Telescope reports all of the g-derivate prices with a new PRICE_MERKLE_ROOT. Also reports all of the validator balances with a BALANCE_MERKLE_ROOT. Then, updates the ORACLE_UPDATE_TIMESTAMP and MONOPOLY_THRESHOLD"
      },
      "updateVerificationIndex(StakeModuleLib.PooledStaking storage,DataStoreModuleLib.IsolatedStorage storage,uint256,bytes[])": {
        "notice": "Updating VERIFICATION_INDEX, signaling that it is safe to activate the validator proposals with lower index than new VERIFICATION_INDEX"
      }
    },
    "notice": "An extension to SMLOracle, named Telescope, handles some operations for The Staking Library, * using the logic explained below.",
    "version": 1
  },
  "storageLayout": {
    "storage": [],
    "types": null
  }
}