{
  "address": "0x7e5b0bcbF984E4D29285254D9A34dcFa8f292efD",
  "abi": [
    {
      "inputs": [],
      "stateMutability": "nonpayable",
      "type": "constructor"
    },
    {
      "anonymous": false,
      "inputs": [
        {
          "indexed": false,
          "internalType": "address",
          "name": "previousAdmin",
          "type": "address"
        },
        {
          "indexed": false,
          "internalType": "address",
          "name": "newAdmin",
          "type": "address"
        }
      ],
      "name": "AdminChanged",
      "type": "event"
    },
    {
      "anonymous": false,
      "inputs": [
        {
          "indexed": false,
          "internalType": "bytes",
          "name": "pubkey",
          "type": "bytes"
        }
      ],
      "name": "Alienated",
      "type": "event"
    },
    {
      "anonymous": false,
      "inputs": [
        {
          "indexed": false,
          "internalType": "uint256",
          "name": "ID",
          "type": "uint256"
        }
      ],
      "name": "Approved",
      "type": "event"
    },
    {
      "anonymous": false,
      "inputs": [
        {
          "indexed": true,
          "internalType": "address",
          "name": "beacon",
          "type": "address"
        }
      ],
      "name": "BeaconUpgraded",
      "type": "event"
    },
    {
      "anonymous": false,
      "inputs": [
        {
          "indexed": false,
          "internalType": "uint256",
          "name": "version",
          "type": "uint256"
        }
      ],
      "name": "ContractVersionSet",
      "type": "event"
    },
    {
      "anonymous": false,
      "inputs": [
        {
          "indexed": true,
          "internalType": "uint256",
          "name": "ID",
          "type": "uint256"
        },
        {
          "indexed": false,
          "internalType": "address",
          "name": "CONTROLLER",
          "type": "address"
        }
      ],
      "name": "ControllerChanged",
      "type": "event"
    },
    {
      "anonymous": false,
      "inputs": [
        {
          "indexed": false,
          "internalType": "uint256",
          "name": "poolId",
          "type": "uint256"
        },
        {
          "indexed": true,
          "internalType": "uint256",
          "name": "operatorId",
          "type": "uint256"
        },
        {
          "indexed": false,
          "internalType": "uint256",
          "name": "allowance",
          "type": "uint256"
        }
      ],
      "name": "Delegation",
      "type": "event"
    },
    {
      "anonymous": false,
      "inputs": [
        {
          "indexed": true,
          "internalType": "uint256",
          "name": "poolId",
          "type": "uint256"
        },
        {
          "indexed": false,
          "internalType": "uint256",
          "name": "boughtgETH",
          "type": "uint256"
        },
        {
          "indexed": false,
          "internalType": "uint256",
          "name": "mintedgETH",
          "type": "uint256"
        }
      ],
      "name": "Deposit",
      "type": "event"
    },
    {
      "anonymous": false,
      "inputs": [
        {
          "indexed": false,
          "internalType": "uint256",
          "name": "poolId",
          "type": "uint256"
        },
        {
          "indexed": true,
          "internalType": "uint256",
          "name": "operatorId",
          "type": "uint256"
        }
      ],
      "name": "FallbackOperator",
      "type": "event"
    },
    {
      "anonymous": false,
      "inputs": [
        {
          "indexed": true,
          "internalType": "uint256",
          "name": "id",
          "type": "uint256"
        },
        {
          "indexed": false,
          "internalType": "uint256",
          "name": "fee",
          "type": "uint256"
        },
        {
          "indexed": false,
          "internalType": "uint256",
          "name": "effectiveAfter",
          "type": "uint256"
        }
      ],
      "name": "FeeSwitched",
      "type": "event"
    },
    {
      "anonymous": false,
      "inputs": [
        {
          "indexed": true,
          "internalType": "uint256",
          "name": "id",
          "type": "uint256"
        },
        {
          "indexed": false,
          "internalType": "bytes",
          "name": "proofs",
          "type": "bytes"
        }
      ],
      "name": "FeeTheft",
      "type": "event"
    },
    {
      "anonymous": false,
      "inputs": [
        {
          "indexed": false,
          "internalType": "uint256",
          "name": "fee",
          "type": "uint256"
        }
      ],
      "name": "GovernanceFeeSet",
      "type": "event"
    },
    {
      "anonymous": false,
      "inputs": [
        {
          "indexed": false,
          "internalType": "uint256",
          "name": "id",
          "type": "uint256"
        },
        {
          "indexed": true,
          "internalType": "uint256",
          "name": "TYPE",
          "type": "uint256"
        }
      ],
      "name": "IdInitiated",
      "type": "event"
    },
    {
      "anonymous": false,
      "inputs": [
        {
          "indexed": false,
          "internalType": "uint8",
          "name": "version",
          "type": "uint8"
        }
      ],
      "name": "Initialized",
      "type": "event"
    },
    {
      "anonymous": false,
      "inputs": [
        {
          "indexed": true,
          "internalType": "uint256",
          "name": "id",
          "type": "uint256"
        },
        {
          "indexed": false,
          "internalType": "address",
          "name": "newMaintainer",
          "type": "address"
        }
      ],
      "name": "MaintainerChanged",
      "type": "event"
    },
    {
      "anonymous": false,
      "inputs": [
        {
          "indexed": false,
          "internalType": "address",
          "name": "senate",
          "type": "address"
        },
        {
          "indexed": false,
          "internalType": "uint256",
          "name": "expiry",
          "type": "uint256"
        }
      ],
      "name": "NewSenate",
      "type": "event"
    },
    {
      "anonymous": false,
      "inputs": [
        {
          "indexed": false,
          "internalType": "bytes32",
          "name": "priceMerkleRoot",
          "type": "bytes32"
        },
        {
          "indexed": false,
          "internalType": "bytes32",
          "name": "balanceMerkleRoot",
          "type": "bytes32"
        },
        {
          "indexed": false,
          "internalType": "uint256",
          "name": "monopolyThreshold",
          "type": "uint256"
        }
      ],
      "name": "OracleReported",
      "type": "event"
    },
    {
      "anonymous": false,
      "inputs": [
        {
          "indexed": false,
          "internalType": "address",
          "name": "account",
          "type": "address"
        }
      ],
      "name": "Paused",
      "type": "event"
    },
    {
      "anonymous": false,
      "inputs": [
        {
          "indexed": true,
          "internalType": "uint256",
          "name": "operatorId",
          "type": "uint256"
        },
        {
          "indexed": false,
          "internalType": "bytes",
          "name": "proof",
          "type": "bytes"
        },
        {
          "indexed": false,
          "internalType": "uint256",
          "name": "releaseTimestamp",
          "type": "uint256"
        }
      ],
      "name": "Prisoned",
      "type": "event"
    },
    {
      "anonymous": false,
      "inputs": [
        {
          "indexed": true,
          "internalType": "uint256",
          "name": "TYPE",
          "type": "uint256"
        },
        {
          "indexed": false,
          "internalType": "uint256",
          "name": "ID",
          "type": "uint256"
        },
        {
          "indexed": false,
          "internalType": "address",
          "name": "CONTROLLER",
          "type": "address"
        },
        {
          "indexed": false,
          "internalType": "uint256",
          "name": "deadline",
          "type": "uint256"
        }
      ],
      "name": "Proposed",
      "type": "event"
    },
    {
      "anonymous": false,
      "inputs": [
        {
          "indexed": false,
          "internalType": "uint256",
          "name": "operatorId",
          "type": "uint256"
        }
      ],
      "name": "Released",
      "type": "event"
    },
    {
      "anonymous": false,
      "inputs": [
        {
          "indexed": false,
          "internalType": "bytes[]",
          "name": "pubkeys",
          "type": "bytes[]"
        }
      ],
      "name": "Stake",
      "type": "event"
    },
    {
      "anonymous": false,
      "inputs": [
        {
          "indexed": false,
          "internalType": "uint256",
          "name": "poolId",
          "type": "uint256"
        },
        {
          "indexed": false,
          "internalType": "uint256",
          "name": "operatorId",
          "type": "uint256"
        },
        {
          "indexed": false,
          "internalType": "bytes[]",
          "name": "pubkeys",
          "type": "bytes[]"
        }
      ],
      "name": "StakeProposal",
      "type": "event"
    },
    {
      "anonymous": false,
      "inputs": [
        {
          "indexed": false,
          "internalType": "address",
          "name": "account",
          "type": "address"
        }
      ],
      "name": "Unpaused",
      "type": "event"
    },
    {
      "anonymous": false,
      "inputs": [
        {
          "indexed": true,
          "internalType": "address",
          "name": "implementation",
          "type": "address"
        }
      ],
      "name": "Upgraded",
      "type": "event"
    },
    {
      "anonymous": false,
      "inputs": [
        {
          "indexed": true,
          "internalType": "uint256",
          "name": "operatorId",
          "type": "uint256"
        },
        {
          "indexed": false,
          "internalType": "uint256",
          "name": "period",
          "type": "uint256"
        },
        {
          "indexed": false,
          "internalType": "uint256",
          "name": "effectiveAfter",
          "type": "uint256"
        }
      ],
      "name": "ValidatorPeriodSwitched",
      "type": "event"
    },
    {
      "anonymous": false,
      "inputs": [
        {
          "indexed": false,
          "internalType": "uint256",
          "name": "validatorVerificationIndex",
          "type": "uint256"
        }
      ],
      "name": "VerificationIndexUpdated",
      "type": "event"
    },
    {
      "anonymous": false,
      "inputs": [
        {
          "indexed": false,
          "internalType": "uint256",
          "name": "id",
          "type": "uint256"
        },
        {
          "indexed": false,
          "internalType": "bool",
          "name": "isPrivate",
          "type": "bool"
        }
      ],
      "name": "VisibilitySet",
      "type": "event"
    },
    {
      "inputs": [],
      "name": "GeodeParams",
      "outputs": [
        {
          "internalType": "address",
          "name": "governance",
          "type": "address"
        },
        {
          "internalType": "address",
          "name": "senate",
          "type": "address"
        },
        {
          "internalType": "address",
          "name": "approvedUpgrade",
          "type": "address"
        },
        {
          "internalType": "uint256",
          "name": "senateExpiry",
          "type": "uint256"
        },
        {
          "internalType": "uint256",
          "name": "packageType",
          "type": "uint256"
        }
      ],
      "stateMutability": "view",
      "type": "function"
    },
    {
      "inputs": [],
      "name": "StakeParams",
      "outputs": [
        {
          "internalType": "address",
          "name": "gETH",
          "type": "address"
        },
        {
          "internalType": "address",
          "name": "oraclePosition",
          "type": "address"
        },
        {
          "internalType": "uint256",
          "name": "validatorsIndex",
          "type": "uint256"
        },
        {
          "internalType": "uint256",
          "name": "verificationIndex",
          "type": "uint256"
        },
        {
          "internalType": "uint256",
          "name": "monopolyThreshold",
          "type": "uint256"
        },
        {
          "internalType": "uint256",
          "name": "oracleUpdateTimestamp",
          "type": "uint256"
        },
        {
          "internalType": "uint256",
          "name": "dailyPriceIncreaseLimit",
          "type": "uint256"
        },
        {
          "internalType": "uint256",
          "name": "dailyPriceDecreaseLimit",
          "type": "uint256"
        },
        {
          "internalType": "uint256",
          "name": "governanceFee",
          "type": "uint256"
        },
        {
          "internalType": "bytes32",
          "name": "priceMerkleRoot",
          "type": "bytes32"
        },
        {
          "internalType": "bytes32",
          "name": "balanceMerkleRoot",
          "type": "bytes32"
        }
      ],
      "stateMutability": "view",
      "type": "function"
    },
    {
      "inputs": [
        {
          "internalType": "uint256",
          "name": "_type",
          "type": "uint256"
        },
        {
          "internalType": "uint256",
          "name": "_index",
          "type": "uint256"
        }
      ],
      "name": "allIdsByType",
      "outputs": [
        {
          "internalType": "uint256",
          "name": "",
          "type": "uint256"
        }
      ],
      "stateMutability": "view",
      "type": "function"
    },
    {
      "inputs": [
        {
          "internalType": "uint256",
          "name": "_type",
          "type": "uint256"
        }
      ],
      "name": "allIdsByTypeLength",
      "outputs": [
        {
          "internalType": "uint256",
          "name": "",
          "type": "uint256"
        }
      ],
      "stateMutability": "view",
      "type": "function"
    },
    {
      "inputs": [
        {
          "internalType": "uint256",
          "name": "id",
          "type": "uint256"
        }
      ],
      "name": "approveProposal",
      "outputs": [
        {
          "internalType": "address",
          "name": "_controller",
          "type": "address"
        },
        {
          "internalType": "uint256",
          "name": "_type",
          "type": "uint256"
        },
        {
          "internalType": "bytes",
          "name": "_name",
          "type": "bytes"
        }
      ],
      "stateMutability": "nonpayable",
      "type": "function"
    },
    {
      "inputs": [
        {
          "internalType": "bytes",
          "name": "pk",
          "type": "bytes"
        }
      ],
      "name": "blameOperator",
      "outputs": [],
      "stateMutability": "nonpayable",
      "type": "function"
    },
    {
      "inputs": [
        {
          "internalType": "bytes",
          "name": "pubkey",
          "type": "bytes"
        }
      ],
      "name": "canStake",
      "outputs": [
        {
          "internalType": "bool",
          "name": "",
          "type": "bool"
        }
      ],
      "stateMutability": "view",
      "type": "function"
    },
    {
      "inputs": [
        {
          "internalType": "uint256",
          "name": "id",
          "type": "uint256"
        },
        {
          "internalType": "address",
          "name": "newCONTROLLER",
          "type": "address"
        }
      ],
      "name": "changeIdCONTROLLER",
      "outputs": [],
      "stateMutability": "nonpayable",
      "type": "function"
    },
    {
      "inputs": [
        {
          "internalType": "uint256",
          "name": "poolId",
          "type": "uint256"
        },
        {
          "internalType": "address",
          "name": "newMaintainer",
          "type": "address"
        }
      ],
      "name": "changeMaintainer",
      "outputs": [],
      "stateMutability": "nonpayable",
      "type": "function"
    },
    {
      "inputs": [
        {
          "internalType": "address",
          "name": "_newSenate",
          "type": "address"
        }
      ],
      "name": "changeSenate",
      "outputs": [],
      "stateMutability": "nonpayable",
      "type": "function"
    },
    {
      "inputs": [
        {
          "internalType": "uint256",
          "name": "id",
          "type": "uint256"
        },
        {
          "internalType": "uint256",
          "name": "value",
          "type": "uint256"
        }
      ],
      "name": "decreaseWalletBalance",
      "outputs": [
        {
          "internalType": "bool",
          "name": "",
          "type": "bool"
        }
      ],
      "stateMutability": "nonpayable",
      "type": "function"
    },
    {
      "inputs": [
        {
          "internalType": "uint256",
          "name": "poolId",
          "type": "uint256"
        },
        {
          "internalType": "uint256[]",
          "name": "operatorIds",
          "type": "uint256[]"
        },
        {
          "internalType": "uint256[]",
          "name": "allowances",
          "type": "uint256[]"
        },
        {
          "internalType": "uint256",
          "name": "fallbackOperator",
          "type": "uint256"
        }
      ],
      "name": "delegate",
      "outputs": [],
      "stateMutability": "nonpayable",
      "type": "function"
    },
    {
      "inputs": [
        {
          "internalType": "uint256",
          "name": "poolId",
          "type": "uint256"
        }
      ],
      "name": "deployLiquidityPool",
      "outputs": [],
      "stateMutability": "nonpayable",
      "type": "function"
    },
    {
      "inputs": [
        {
          "internalType": "uint256",
          "name": "poolId",
          "type": "uint256"
        },
        {
          "internalType": "uint256",
          "name": "price",
          "type": "uint256"
        },
        {
          "internalType": "bytes32[]",
          "name": "priceProof",
          "type": "bytes32[]"
        },
        {
          "internalType": "uint256",
          "name": "mingETH",
          "type": "uint256"
        },
        {
          "internalType": "uint256",
          "name": "deadline",
          "type": "uint256"
        },
        {
          "internalType": "address",
          "name": "receiver",
          "type": "address"
        }
      ],
      "name": "deposit",
      "outputs": [
        {
          "internalType": "uint256",
          "name": "boughtgETH",
          "type": "uint256"
        },
        {
          "internalType": "uint256",
          "name": "mintedgETH",
          "type": "uint256"
        }
      ],
      "stateMutability": "payable",
      "type": "function"
    },
    {
      "inputs": [
        {
          "internalType": "string",
          "name": "_name",
          "type": "string"
        },
        {
          "internalType": "uint256",
          "name": "_type",
          "type": "uint256"
        }
      ],
      "name": "generateId",
      "outputs": [
        {
          "internalType": "uint256",
          "name": "id",
          "type": "uint256"
        }
      ],
      "stateMutability": "pure",
      "type": "function"
    },
    {
      "inputs": [],
      "name": "getContractVersion",
      "outputs": [
        {
          "internalType": "uint256",
          "name": "",
          "type": "uint256"
        }
      ],
      "stateMutability": "view",
      "type": "function"
    },
    {
      "inputs": [
        {
          "internalType": "uint256",
          "name": "_id",
          "type": "uint256"
        },
        {
          "internalType": "bytes32",
          "name": "_param",
          "type": "bytes32"
        }
      ],
      "name": "getKey",
      "outputs": [
        {
          "internalType": "bytes32",
          "name": "key",
          "type": "bytes32"
        }
      ],
      "stateMutability": "pure",
      "type": "function"
    },
    {
      "inputs": [
        {
          "internalType": "uint256",
          "name": "id",
          "type": "uint256"
        }
      ],
      "name": "getMaintenanceFee",
      "outputs": [
        {
          "internalType": "uint256",
          "name": "",
          "type": "uint256"
        }
      ],
      "stateMutability": "view",
      "type": "function"
    },
    {
      "inputs": [
        {
          "internalType": "uint256",
          "name": "_type",
          "type": "uint256"
        }
      ],
      "name": "getPackageVersion",
      "outputs": [
        {
          "internalType": "uint256",
          "name": "",
          "type": "uint256"
        }
      ],
      "stateMutability": "view",
      "type": "function"
    },
    {
      "inputs": [
        {
          "internalType": "uint256",
          "name": "id",
          "type": "uint256"
        }
      ],
      "name": "getProposal",
      "outputs": [
        {
          "components": [
            {
              "internalType": "address",
              "name": "CONTROLLER",
              "type": "address"
            },
            {
              "internalType": "uint256",
              "name": "TYPE",
              "type": "uint256"
            },
            {
              "internalType": "bytes",
              "name": "NAME",
              "type": "bytes"
            },
            {
              "internalType": "uint256",
              "name": "deadline",
              "type": "uint256"
            }
          ],
          "internalType": "struct GeodeModuleLib.Proposal",
          "name": "proposal",
          "type": "tuple"
        }
      ],
      "stateMutability": "view",
      "type": "function"
    },
    {
      "inputs": [
        {
          "internalType": "bytes",
          "name": "pubkey",
          "type": "bytes"
        }
      ],
      "name": "getValidator",
      "outputs": [
        {
          "components": [
            {
              "internalType": "uint64",
              "name": "state",
              "type": "uint64"
            },
            {
              "internalType": "uint64",
              "name": "index",
              "type": "uint64"
            },
            {
              "internalType": "uint64",
              "name": "createdAt",
              "type": "uint64"
            },
            {
              "internalType": "uint64",
              "name": "period",
              "type": "uint64"
            },
            {
              "internalType": "uint256",
              "name": "poolId",
              "type": "uint256"
            },
            {
              "internalType": "uint256",
              "name": "operatorId",
              "type": "uint256"
            },
            {
              "internalType": "uint256",
              "name": "poolFee",
              "type": "uint256"
            },
            {
              "internalType": "uint256",
              "name": "operatorFee",
              "type": "uint256"
            },
            {
              "internalType": "uint256",
              "name": "governanceFee",
              "type": "uint256"
            },
            {
              "internalType": "bytes",
              "name": "signature31",
              "type": "bytes"
            }
          ],
          "internalType": "struct StakeModuleLib.Validator",
          "name": "",
          "type": "tuple"
        }
      ],
      "stateMutability": "view",
      "type": "function"
    },
    {
      "inputs": [
        {
          "internalType": "uint256",
          "name": "id",
          "type": "uint256"
        }
      ],
      "name": "getValidatorPeriod",
      "outputs": [
        {
          "internalType": "uint256",
          "name": "",
          "type": "uint256"
        }
      ],
      "stateMutability": "view",
      "type": "function"
    },
    {
      "inputs": [
        {
          "internalType": "uint256",
          "name": "id",
          "type": "uint256"
        }
      ],
      "name": "increaseWalletBalance",
      "outputs": [
        {
          "internalType": "bool",
          "name": "",
          "type": "bool"
        }
      ],
      "stateMutability": "payable",
      "type": "function"
    },
    {
      "inputs": [
        {
          "internalType": "address",
          "name": "_governance",
          "type": "address"
        },
        {
          "internalType": "address",
          "name": "_senate",
          "type": "address"
        },
        {
          "internalType": "address",
          "name": "_gETH",
          "type": "address"
        },
        {
          "internalType": "address",
          "name": "_oracle_position",
          "type": "address"
        },
        {
          "internalType": "bytes",
          "name": "versionName",
          "type": "bytes"
        }
      ],
      "name": "initialize",
      "outputs": [],
      "stateMutability": "nonpayable",
      "type": "function"
    },
    {
      "inputs": [
        {
          "internalType": "uint256",
          "name": "id",
          "type": "uint256"
        },
        {
          "internalType": "uint256",
          "name": "fee",
          "type": "uint256"
        },
        {
          "internalType": "uint256",
          "name": "validatorPeriod",
          "type": "uint256"
        },
        {
          "internalType": "address",
          "name": "maintainer",
          "type": "address"
        }
      ],
      "name": "initiateOperator",
      "outputs": [],
      "stateMutability": "payable",
      "type": "function"
    },
    {
      "inputs": [
        {
          "internalType": "uint256",
          "name": "fee",
          "type": "uint256"
        },
        {
          "internalType": "uint256",
          "name": "middlewareVersion",
          "type": "uint256"
        },
        {
          "internalType": "address",
          "name": "maintainer",
          "type": "address"
        },
        {
          "internalType": "bytes",
          "name": "NAME",
          "type": "bytes"
        },
        {
          "internalType": "bytes",
          "name": "middleware_data",
          "type": "bytes"
        },
        {
          "internalType": "bool[3]",
          "name": "config",
          "type": "bool[3]"
        }
      ],
      "name": "initiatePool",
      "outputs": [
        {
          "internalType": "uint256",
          "name": "poolId",
          "type": "uint256"
        }
      ],
      "stateMutability": "payable",
      "type": "function"
    },
    {
      "inputs": [
        {
          "internalType": "uint256",
          "name": "_type",
          "type": "uint256"
        },
        {
          "internalType": "uint256",
          "name": "_version",
          "type": "uint256"
        }
      ],
      "name": "isMiddleware",
      "outputs": [
        {
          "internalType": "bool",
          "name": "",
          "type": "bool"
        }
      ],
      "stateMutability": "view",
      "type": "function"
    },
    {
      "inputs": [
        {
          "internalType": "uint256",
          "name": "poolId",
          "type": "uint256"
        }
      ],
      "name": "isMintingAllowed",
      "outputs": [
        {
          "internalType": "bool",
          "name": "",
          "type": "bool"
        }
      ],
      "stateMutability": "view",
      "type": "function"
    },
    {
      "inputs": [
        {
          "internalType": "uint256",
          "name": "poolId",
          "type": "uint256"
        }
      ],
      "name": "isPriceValid",
      "outputs": [
        {
          "internalType": "bool",
          "name": "",
          "type": "bool"
        }
      ],
      "stateMutability": "view",
      "type": "function"
    },
    {
      "inputs": [
        {
          "internalType": "uint256",
          "name": "operatorId",
          "type": "uint256"
        }
      ],
      "name": "isPrisoned",
      "outputs": [
        {
          "internalType": "bool",
          "name": "",
          "type": "bool"
        }
      ],
      "stateMutability": "view",
      "type": "function"
    },
    {
      "inputs": [
        {
          "internalType": "uint256",
          "name": "poolId",
          "type": "uint256"
        }
      ],
      "name": "isPrivatePool",
      "outputs": [
        {
          "internalType": "bool",
          "name": "",
          "type": "bool"
        }
      ],
      "stateMutability": "view",
      "type": "function"
    },
    {
      "inputs": [
        {
          "internalType": "uint256",
          "name": "poolId",
          "type": "uint256"
        },
        {
          "internalType": "address",
          "name": "staker",
          "type": "address"
        }
      ],
      "name": "isWhitelisted",
      "outputs": [
        {
          "internalType": "bool",
          "name": "",
          "type": "bool"
        }
      ],
      "stateMutability": "view",
      "type": "function"
    },
    {
      "inputs": [],
      "name": "isolationMode",
      "outputs": [
        {
          "internalType": "bool",
          "name": "",
          "type": "bool"
        }
      ],
      "stateMutability": "view",
      "type": "function"
    },
    {
      "inputs": [
        {
          "internalType": "address",
          "name": "",
          "type": "address"
        },
        {
          "internalType": "address",
          "name": "",
          "type": "address"
        },
        {
          "internalType": "uint256[]",
          "name": "",
          "type": "uint256[]"
        },
        {
          "internalType": "uint256[]",
          "name": "",
          "type": "uint256[]"
        },
        {
          "internalType": "bytes",
          "name": "",
          "type": "bytes"
        }
      ],
      "name": "onERC1155BatchReceived",
      "outputs": [
        {
          "internalType": "bytes4",
          "name": "",
          "type": "bytes4"
        }
      ],
      "stateMutability": "nonpayable",
      "type": "function"
    },
    {
      "inputs": [
        {
          "internalType": "address",
          "name": "",
          "type": "address"
        },
        {
          "internalType": "address",
          "name": "",
          "type": "address"
        },
        {
          "internalType": "uint256",
          "name": "",
          "type": "uint256"
        },
        {
          "internalType": "uint256",
          "name": "",
          "type": "uint256"
        },
        {
          "internalType": "bytes",
          "name": "",
          "type": "bytes"
        }
      ],
      "name": "onERC1155Received",
      "outputs": [
        {
          "internalType": "bytes4",
          "name": "",
          "type": "bytes4"
        }
      ],
      "stateMutability": "nonpayable",
      "type": "function"
    },
    {
      "inputs": [
        {
          "internalType": "uint256",
          "name": "poolId",
          "type": "uint256"
        },
        {
          "internalType": "uint256",
          "name": "operatorId",
          "type": "uint256"
        }
      ],
      "name": "operatorAllowance",
      "outputs": [
        {
          "internalType": "uint256",
          "name": "",
          "type": "uint256"
        }
      ],
      "stateMutability": "view",
      "type": "function"
    },
    {
      "inputs": [],
      "name": "pause",
      "outputs": [],
      "stateMutability": "nonpayable",
      "type": "function"
    },
    {
      "inputs": [],
      "name": "paused",
      "outputs": [
        {
          "internalType": "bool",
          "name": "",
          "type": "bool"
        }
      ],
      "stateMutability": "view",
      "type": "function"
    },
    {
      "inputs": [],
      "name": "pausegETH",
      "outputs": [],
      "stateMutability": "nonpayable",
      "type": "function"
    },
    {
      "inputs": [
        {
          "internalType": "uint256",
          "name": "poolId",
          "type": "uint256"
        },
        {
          "internalType": "uint256",
          "name": "price",
          "type": "uint256"
        },
        {
          "internalType": "bytes32[]",
          "name": "priceProof",
          "type": "bytes32[]"
        }
      ],
      "name": "priceSync",
      "outputs": [],
      "stateMutability": "nonpayable",
      "type": "function"
    },
    {
      "inputs": [
        {
          "internalType": "uint256[]",
          "name": "poolIds",
          "type": "uint256[]"
        },
        {
          "internalType": "uint256[]",
          "name": "prices",
          "type": "uint256[]"
        },
        {
          "internalType": "bytes32[][]",
          "name": "priceProofs",
          "type": "bytes32[][]"
        }
      ],
      "name": "priceSyncBatch",
      "outputs": [],
      "stateMutability": "nonpayable",
      "type": "function"
    },
    {
      "inputs": [
        {
          "internalType": "address",
          "name": "_CONTROLLER",
          "type": "address"
        },
        {
          "internalType": "uint256",
          "name": "_TYPE",
          "type": "uint256"
        },
        {
          "internalType": "bytes",
          "name": "_NAME",
          "type": "bytes"
        },
        {
          "internalType": "uint256",
          "name": "duration",
          "type": "uint256"
        }
      ],
      "name": "propose",
      "outputs": [
        {
          "internalType": "uint256",
          "name": "id",
          "type": "uint256"
        }
      ],
      "stateMutability": "nonpayable",
      "type": "function"
    },
    {
      "inputs": [
        {
          "internalType": "uint256",
          "name": "poolId",
          "type": "uint256"
        },
        {
          "internalType": "uint256",
          "name": "operatorId",
          "type": "uint256"
        },
        {
          "internalType": "bytes[]",
          "name": "pubkeys",
          "type": "bytes[]"
        },
        {
          "internalType": "bytes[]",
          "name": "signatures1",
          "type": "bytes[]"
        },
        {
          "internalType": "bytes[]",
          "name": "signatures31",
          "type": "bytes[]"
        }
      ],
      "name": "proposeStake",
      "outputs": [],
      "stateMutability": "nonpayable",
      "type": "function"
    },
    {
      "inputs": [],
      "name": "proxiableUUID",
      "outputs": [
        {
          "internalType": "bytes32",
          "name": "",
          "type": "bytes32"
        }
      ],
      "stateMutability": "view",
      "type": "function"
    },
    {
      "inputs": [
        {
          "internalType": "uint256",
          "name": "packageType",
          "type": "uint256"
        }
      ],
      "name": "pushUpgrade",
      "outputs": [
        {
          "internalType": "bytes",
          "name": "versionName",
          "type": "bytes"
        }
      ],
      "stateMutability": "nonpayable",
      "type": "function"
    },
    {
      "inputs": [
        {
          "internalType": "uint256",
          "name": "id",
          "type": "uint256"
        },
        {
          "internalType": "bytes32",
          "name": "key",
          "type": "bytes32"
        }
      ],
      "name": "readAddress",
      "outputs": [
        {
          "internalType": "address",
          "name": "data",
          "type": "address"
        }
      ],
      "stateMutability": "view",
      "type": "function"
    },
    {
      "inputs": [
        {
          "internalType": "uint256",
          "name": "id",
          "type": "uint256"
        },
        {
          "internalType": "bytes32",
          "name": "key",
          "type": "bytes32"
        },
        {
          "internalType": "uint256",
          "name": "index",
          "type": "uint256"
        }
      ],
      "name": "readAddressArray",
      "outputs": [
        {
          "internalType": "address",
          "name": "data",
          "type": "address"
        }
      ],
      "stateMutability": "view",
      "type": "function"
    },
    {
      "inputs": [
        {
          "internalType": "uint256",
          "name": "id",
          "type": "uint256"
        },
        {
          "internalType": "bytes32",
          "name": "key",
          "type": "bytes32"
        }
      ],
      "name": "readBytes",
      "outputs": [
        {
          "internalType": "bytes",
          "name": "data",
          "type": "bytes"
        }
      ],
      "stateMutability": "view",
      "type": "function"
    },
    {
      "inputs": [
        {
          "internalType": "uint256",
          "name": "id",
          "type": "uint256"
        },
        {
          "internalType": "bytes32",
          "name": "key",
          "type": "bytes32"
        },
        {
          "internalType": "uint256",
          "name": "index",
          "type": "uint256"
        }
      ],
      "name": "readBytesArray",
      "outputs": [
        {
          "internalType": "bytes",
          "name": "data",
          "type": "bytes"
        }
      ],
      "stateMutability": "view",
      "type": "function"
    },
    {
      "inputs": [
        {
          "internalType": "uint256",
          "name": "id",
          "type": "uint256"
        },
        {
          "internalType": "bytes32",
          "name": "key",
          "type": "bytes32"
        }
      ],
      "name": "readUint",
      "outputs": [
        {
          "internalType": "uint256",
          "name": "data",
          "type": "uint256"
        }
      ],
      "stateMutability": "view",
      "type": "function"
    },
    {
      "inputs": [
        {
          "internalType": "uint256",
          "name": "id",
          "type": "uint256"
        },
        {
          "internalType": "bytes32",
          "name": "key",
          "type": "bytes32"
        },
        {
          "internalType": "uint256",
          "name": "index",
          "type": "uint256"
        }
      ],
      "name": "readUintArray",
      "outputs": [
        {
          "internalType": "uint256",
          "name": "data",
          "type": "uint256"
        }
      ],
      "stateMutability": "view",
      "type": "function"
    },
    {
      "inputs": [
        {
          "internalType": "uint256[]",
          "name": "feeThefts",
          "type": "uint256[]"
        },
        {
          "internalType": "bytes[]",
          "name": "proofs",
          "type": "bytes[]"
        }
      ],
      "name": "regulateOperators",
      "outputs": [],
      "stateMutability": "nonpayable",
      "type": "function"
    },
    {
      "inputs": [
        {
          "internalType": "uint256",
          "name": "operatorId",
          "type": "uint256"
        }
      ],
      "name": "releasePrisoned",
      "outputs": [],
      "stateMutability": "nonpayable",
      "type": "function"
    },
    {
      "inputs": [
        {
          "internalType": "bytes32",
          "name": "priceMerkleRoot",
          "type": "bytes32"
        },
        {
          "internalType": "bytes32",
          "name": "balanceMerkleRoot",
          "type": "bytes32"
        },
        {
          "internalType": "uint256",
          "name": "allValidatorsCount",
          "type": "uint256"
        }
      ],
      "name": "reportBeacon",
      "outputs": [],
      "stateMutability": "nonpayable",
      "type": "function"
    },
    {
      "inputs": [
        {
          "internalType": "address",
          "name": "_newSenate",
          "type": "address"
        }
      ],
      "name": "rescueSenate",
      "outputs": [],
      "stateMutability": "nonpayable",
      "type": "function"
    },
    {
      "inputs": [
        {
          "internalType": "uint256",
          "name": "newFee",
          "type": "uint256"
        }
      ],
      "name": "setGovernanceFee",
      "outputs": [],
      "stateMutability": "nonpayable",
      "type": "function"
    },
    {
      "inputs": [
        {
          "internalType": "uint256",
          "name": "poolId",
          "type": "uint256"
        },
        {
          "internalType": "bool",
          "name": "makePrivate",
          "type": "bool"
        }
      ],
      "name": "setPoolVisibility",
      "outputs": [],
      "stateMutability": "nonpayable",
      "type": "function"
    },
    {
      "inputs": [
        {
          "internalType": "uint256",
          "name": "poolId",
          "type": "uint256"
        },
        {
          "internalType": "address",
          "name": "whitelist",
          "type": "address"
        }
      ],
      "name": "setWhitelist",
      "outputs": [],
      "stateMutability": "nonpayable",
      "type": "function"
    },
    {
      "inputs": [
        {
          "internalType": "uint256",
          "name": "operatorId",
          "type": "uint256"
        },
        {
          "internalType": "bytes[]",
          "name": "pubkeys",
          "type": "bytes[]"
        }
      ],
      "name": "stake",
      "outputs": [],
      "stateMutability": "nonpayable",
      "type": "function"
    },
    {
      "inputs": [
        {
          "internalType": "bytes4",
          "name": "interfaceId",
          "type": "bytes4"
        }
      ],
      "name": "supportsInterface",
      "outputs": [
        {
          "internalType": "bool",
          "name": "",
          "type": "bool"
        }
      ],
      "stateMutability": "view",
      "type": "function"
    },
    {
      "inputs": [
        {
          "internalType": "uint256",
          "name": "id",
          "type": "uint256"
        },
        {
          "internalType": "uint256",
          "name": "newFee",
          "type": "uint256"
        }
      ],
      "name": "switchMaintenanceFee",
      "outputs": [],
      "stateMutability": "nonpayable",
      "type": "function"
    },
    {
      "inputs": [
        {
          "internalType": "uint256",
          "name": "operatorId",
          "type": "uint256"
        },
        {
          "internalType": "uint256",
          "name": "newPeriod",
          "type": "uint256"
        }
      ],
      "name": "switchValidatorPeriod",
      "outputs": [],
      "stateMutability": "nonpayable",
      "type": "function"
    },
    {
      "inputs": [],
      "name": "unpause",
      "outputs": [],
      "stateMutability": "nonpayable",
      "type": "function"
    },
    {
      "inputs": [],
      "name": "unpausegETH",
      "outputs": [],
      "stateMutability": "nonpayable",
      "type": "function"
    },
    {
      "inputs": [
        {
          "internalType": "uint256",
          "name": "validatorVerificationIndex",
          "type": "uint256"
        },
        {
          "internalType": "bytes[]",
          "name": "alienatedPubkeys",
          "type": "bytes[]"
        }
      ],
      "name": "updateVerificationIndex",
      "outputs": [],
      "stateMutability": "nonpayable",
      "type": "function"
    },
    {
      "inputs": [
        {
          "internalType": "address",
          "name": "newImplementation",
          "type": "address"
        }
      ],
      "name": "upgradeTo",
      "outputs": [],
      "stateMutability": "nonpayable",
      "type": "function"
    },
    {
      "inputs": [
        {
          "internalType": "address",
          "name": "newImplementation",
          "type": "address"
        },
        {
          "internalType": "bytes",
          "name": "data",
          "type": "bytes"
        }
      ],
      "name": "upgradeToAndCall",
      "outputs": [],
      "stateMutability": "payable",
      "type": "function"
    },
    {
      "stateMutability": "payable",
      "type": "receive"
    }
  ],
  "transactionHash": "0x4f0abe77b02dd1fc423860ae6802d4b0fd01534c67e912737e6b43d2060437c8",
  "args": [],
  "numDeployments": 1,
  "solcInputHash": "d03b2081e228d8414c03605f4fd3b95d",
  "bytecode": "0x60a06040523060601b6080523480156200001857600080fd5b506200002362000029565b620000eb565b600054610100900460ff1615620000965760405162461bcd60e51b815260206004820152602760248201527f496e697469616c697a61626c653a20636f6e747261637420697320696e697469604482015266616c697a696e6760c81b606482015260840160405180910390fd5b60005460ff9081161015620000e9576000805460ff191660ff9081179091556040519081527f7f26b83ff96e1f2b6a682f133852f6798a09c465da95921460cefb38474024989060200160405180910390a15b565b60805160601c614ddf620001266000396000818161141e0152818161145e0152818161194a0152818161198a0152611a5c0152614ddf6000f3fe6080604052600436106103e85760003560e01c8063736ed2e311610208578063c2abb82d11610118578063de22bc72116100ab578063e1c0e7371161007a578063e1c0e73714610cb8578063e3099e0914610cd8578063e72b1d6d14610cf8578063e768887e14610d18578063f23a6e6114610d3857600080fd5b8063de22bc7214610c43578063df1ff92914610c63578063e02a520814610c83578063e05ec0a314610ca357600080fd5b8063d5357a1a116100e7578063d5357a1a14610bd0578063d89da28614610be3578063dab840c714610c03578063dd272bf414610c2357600080fd5b8063c2abb82d14610b50578063c7f758a814610b70578063cb337b4e14610b9d578063cdaba27414610bbd57600080fd5b806398951b561161019b578063ad8655cb1161016a578063ad8655cb14610a7e578063af6561ef14610a9e578063b4891bfd14610abe578063b784c7bb14610aeb578063bc197c8114610b0b57600080fd5b806398951b56146109b257806399ac48ba146109e1578063a270fece14610a01578063ad4ac4c414610a2157600080fd5b80638456cb59116101d75780638456cb59146108da5780638650c072146108ef5780638aa1043514610904578063964ff29c1461091a57600080fd5b8063736ed2e31461085a57806375fcb0171461087a5780637d22c35c1461089a5780637e1ece9f146108ba57600080fd5b80633b8ba862116103035780635329512b116102965780635c975abb116102655780635c975abb1461078c5780635d9e085d146107a457806366caab6f146107d15780636d07e4041461080d578063722679541461082d57600080fd5b80635329512b146106f457806356a72dbf1461072c5780635a34bb151461074c5780635b50fea61461076c57600080fd5b80634a936417116102d25780634a9364171461068c5780634f1ef286146106ac5780634f62d616146106bf57806352d1902d146106df57600080fd5b80633b8ba8621461060f5780633c6a05ef1461062f5780633c9e438c1461064f5780633f4ba83a1461067757600080fd5b80631d95313a1161037b57806332a693301161034a57806332a693301461059a578063341b3c00146105ba57806335782386146105cf5780633659cfe6146105ef57600080fd5b80631d95313a1461050c5780631da715911461053a57806326eef2c01461055a57806327cd2aa41461057a57600080fd5b80630aea8f4d116103b75780630aea8f4d1461048c578063100f72b6146104ac578063113743cb146104cc5780631b6f23d0146104ec57600080fd5b806301ffc9a7146103f4578063041bc62314610429578063060028ea1461043e5780630ab4bc911461045e57600080fd5b366103ef57005b600080fd5b34801561040057600080fd5b5061041461040f366004613f59565b610d64565b60405190151581526020015b60405180910390f35b61043c610437366004614458565b610d9b565b005b34801561044a57600080fd5b506104146104593660046140bb565b610e43565b34801561046a57600080fd5b5061047e6104793660046141f5565b610ed1565b604051908152602001610420565b34801561049857600080fd5b5061047e6104a73660046140bb565b610f74565b3480156104b857600080fd5b506104146104c73660046140bb565b611002565b3480156104d857600080fd5b5061043c6104e73660046143ac565b61104c565b3480156104f857600080fd5b5061043c6105073660046141d0565b6110da565b34801561051857600080fd5b5061047e6105273660046140bb565b6000908152610149602052604090205490565b34801561054657600080fd5b5061047e6105553660046141f5565b611151565b34801561056657600080fd5b5061043c610575366004614104565b61115d565b34801561058657600080fd5b506104146105953660046140bb565b6111dc565b3480156105a657600080fd5b5061043c6105b53660046140bb565b61121e565b3480156105c657600080fd5b5061043c61133f565b3480156105db57600080fd5b5061043c6105ea3660046141f5565b6113c5565b3480156105fb57600080fd5b5061043c61060a366004613b3b565b611413565b34801561061b57600080fd5b5061047e61062a366004613d49565b6114f9565b34801561063b57600080fd5b5061043c61064a3660046140bb565b61159c565b61066261065d36600461432f565b61160e565b60408051928352602083019190915201610420565b34801561068357600080fd5b5061043c6117ee565b34801561069857600080fd5b5061043c6106a7366004613b58565b611823565b61043c6106ba366004613cfa565b61193f565b3480156106cb57600080fd5b5061043c6106da3660046140d4565b6119f9565b3480156106eb57600080fd5b5061047e611a4f565b34801561070057600080fd5b5061071461070f366004613f2d565b611b02565b6040516001600160a01b039091168152602001610420565b34801561073857600080fd5b5061047e6107473660046141f5565b611b19565b34801561075857600080fd5b5061047e610767366004613fc4565b611b27565b34801561077857600080fd5b5061043c610787366004613e70565b611b5e565b34801561079857600080fd5b5060d95460ff16610414565b3480156107b057600080fd5b5061047e6107bf3660046140bb565b60009081526001602052604090205490565b3480156107dd57600080fd5b506104146107ec3660046141f5565b600091825261014a6020908152604080842092845291905290205460ff1690565b34801561081957600080fd5b5061043c6108283660046140d4565b611be6565b34801561083957600080fd5b5061084d6108483660046141f5565b611c34565b6040516104209190614679565b34801561086657600080fd5b5061043c610875366004614104565b611c42565b34801561088657600080fd5b5061043c6108953660046140bb565b611c8c565b3480156108a657600080fd5b506104146108b53660046140d4565b611d0a565b3480156108c657600080fd5b5061043c6108d53660046142e9565b611da7565b3480156108e657600080fd5b5061043c611e29565b3480156108fb57600080fd5b50610414611e5c565b34801561091057600080fd5b506101b65461047e565b34801561092657600080fd5b5061013d5461013e5461013f54610140805461014154610142546101435461014454610145546101465461014754604080516001600160a01b039d8e1681529c909b1660208d0152998b019890985260608a0195909552608089019390935260a088019190915260c087015260e086015261010085015261012084019190915282015261016001610420565b3480156109be57600080fd5b506109d26109cd3660046140bb565b611e9e565b60405161042093929190614614565b3480156109ed57600080fd5b506107146109fc3660046141f5565b611f25565b348015610a0d57600080fd5b50610414610a1c3660046141f5565b611f33565b348015610a2d57600080fd5b506101b1546101b2546101b3546101b4546101b554604080516001600160a01b039687168152948616602086015294909216938301939093526060820192909252608081019190915260a001610420565b348015610a8a57600080fd5b5061043c610a99366004613b3b565b611fdb565b348015610aaa57600080fd5b5061043c610ab9366004613e05565b612023565b348015610aca57600080fd5b50610ade610ad9366004613f83565b61206f565b6040516104209190614b2d565b348015610af757600080fd5b5061043c610b063660046141f5565b61222b565b348015610b1757600080fd5b50610b37610b26366004613be5565b63bc197c8160e01b95945050505050565b6040516001600160e01b03199091168152602001610420565b348015610b5c57600080fd5b5061043c610b6b36600461414f565b612279565b348015610b7c57600080fd5b50610b90610b8b3660046140bb565b6122c5565b6040516104209190614adf565b348015610ba957600080fd5b50610414610bb83660046140bb565b612388565b610414610bcb3660046140bb565b6123ca565b61047e610bde36600461423b565b612478565b348015610bef57600080fd5b5061043c610bfe3660046140d4565b61252a565b348015610c0f57600080fd5b5061043c610c1e366004613b3b565b612578565b348015610c2f57600080fd5b50610414610c3e366004613f83565b6125c0565b348015610c4f57600080fd5b5061047e610c5e3660046140bb565b612600565b348015610c6f57600080fd5b5061043c610c7e366004613f2d565b612642565b348015610c8f57600080fd5b5061047e610c9e3660046141f5565b612698565b348015610caf57600080fd5b5061043c6126cb565b348015610cc457600080fd5b5061043c610cd3366004613f83565b61273d565b348015610ce457600080fd5b5061084d610cf33660046140bb565b612785565b348015610d0457600080fd5b5061047e610d13366004613f2d565b612912565b348015610d2457600080fd5b5061084d610d33366004613f2d565b612921565b348015610d4457600080fd5b50610b37610d53366004613c92565b63f23a6e6160e01b95945050505050565b60006001600160e01b03198216630271189760e51b1480610d9557506301ffc9a760e01b6001600160e01b03198316145b92915050565b610da3612930565b610dab612976565b604051633aeaeb1f60e01b8152600160048201526024810185905260448101849052606481018390526001600160a01b03821660848201527396a9284ec346031e7c3D80B5C1477b1B2c3feE9f90633aeaeb1f9060a40160006040518083038186803b158015610e1a57600080fd5b505af4158015610e2e573d6000803e3d6000fd5b50505050610e3d600161010b55565b50505050565b60405162d7c84f60e31b815261013d6004820152602481018290526000907396a9284ec346031e7c3D80B5C1477b1B2c3feE9f906306be4278906044015b60206040518083038186803b158015610e9957600080fd5b505af4158015610ead573d6000803e3d6000fd5b505050506040513d601f19601f82011682018060405250810190610d959190613ef7565b60405163193e39b760e31b815261013d60048201526001602482015260448101839052606481018290526000907396a9284ec346031e7c3D80B5C1477b1B2c3feE9f9063c9f1cdb89060840160206040518083038186803b158015610f3557600080fd5b505af4158015610f49573d6000803e3d6000fd5b505050506040513d601f19601f82011682018060405250810190610f6d9190613f14565b9392505050565b60405163a87ef4c560e01b815260016004820152602481018290526000907396a9284ec346031e7c3D80B5C1477b1B2c3feE9f9063a87ef4c5906044015b60206040518083038186803b158015610fca57600080fd5b505af4158015610fde573d6000803e3d6000fd5b505050506040513d601f19601f82011682018060405250810190610d959190613f14565b60405163452c42af60e11b815261013d600482015260016024820152604481018290526000907396a9284ec346031e7c3D80B5C1477b1B2c3feE9f90638a58855e90606401610e81565b611054612930565b6040516306a8b7f160e21b81527396a9284ec346031e7c3D80B5C1477b1B2c3feE9f90631aa2dfc4906110a09061013d906001908d908d908d908d908d908d908d908d90600401614a7a565b60006040518083038186803b1580156110b857600080fd5b505af41580156110cc573d6000803e3d6000fd5b505050505050505050505050565b6040516368d1ee2360e01b8152600160048201526024810183905281151560448201527396a9284ec346031e7c3D80B5C1477b1B2c3feE9f906368d1ee23906064015b60006040518083038186803b15801561113557600080fd5b505af4158015611149573d6000803e3d6000fd5b505050505050565b6000610f6d83836129da565b611165612930565b6040516303b3882160e41b815273C15386C251a6AD7C2e0FEc66B16A398cB009398690633b388210906111a79061013d90600190889088908890600401614979565b60006040518083038186803b1580156111bf57600080fd5b505af41580156111d3573d6000803e3d6000fd5b50505050505050565b60405163ba6825ef60e01b815260016004820152602481018290526000907396a9284ec346031e7c3D80B5C1477b1B2c3feE9f9063ba6825ef90604401610e81565b6101b2546001600160a01b031633146112525760405162461bcd60e51b81526004016112499061468c565b60405180910390fd5b60646112646402540be4006005614c77565b61126e9190614c55565b8111156112bd5760405162461bcd60e51b815260206004820152601b60248201527f506f7274616c3a3e204d41585f474f5645524e414e43455f46454500000000006044820152606401611249565b6366316a1d42116113025760405162461bcd60e51b815260206004820152600f60248201526e2837b93a30b61d3737ba103cb2ba1760891b6044820152606401611249565b6101458190556040518181527fbcb0f386c91215302d3ebac3621cefd2cb0f069b53450940d8f1715b11e58645906020015b60405180910390a150565b6101b2546001600160a01b0316331461136a5760405162461bcd60e51b81526004016112499061468c565b61013d5460408051638456cb5960e01b815290516001600160a01b0390921691638456cb599160048082019260009290919082900301818387803b1580156113b157600080fd5b505af1158015610e3d573d6000803e3d6000fd5b6113cd612930565b6040516305ef04c360e21b81526001600482015260248101839052604481018290527396a9284ec346031e7c3D80B5C1477b1B2c3feE9f906317bc130c9060640161111d565b306001600160a01b037f000000000000000000000000000000000000000000000000000000000000000016141561145c5760405162461bcd60e51b8152600401611249906146c3565b7f00000000000000000000000000000000000000000000000000000000000000006001600160a01b031661148e612a06565b6001600160a01b0316146114b45760405162461bcd60e51b81526004016112499061470f565b6114bd81612a22565b6114f68160005b6040519080825280601f01601f1916602001820160405280156114ee576020820181803683370190505b506000612b19565b50565b6040516334c4fde360e11b815260009073D1c09B76de3a50c0f3d8f97730E87c7203aCE7EE90636989fbc690611542906101b1906001908b908b908b908b908b906004016147a6565b60206040518083038186803b15801561155a57600080fd5b505af415801561156e573d6000803e3d6000fd5b505050506040513d601f19601f820116820180604052508101906115929190613f14565b9695505050505050565b6101b2546001600160a01b031633146115c75760405162461bcd60e51b81526004016112499061468c565b6115de6001826672656c6561736560c81b42612c98565b6040518181527ffb81f9b30d73d830c3544b34d827c08142579ee75710b490bab0b3995468c56590602001611334565b600080611619612930565b611621612976565b60405162d7c84f60e31b815261013d6004820152602481018a90527396a9284ec346031e7c3D80B5C1477b1B2c3feE9f906306be42789060440160206040518083038186803b15801561167357600080fd5b505af4158015611687573d6000803e3d6000fd5b505050506040513d601f19601f820116820180604052508101906116ab9190613ef7565b61172457604051638c02d86d60e01b815273C15386C251a6AD7C2e0FEc66B16A398cB009398690638c02d86d906116f39061013d906001908e908e908e908e90600401614a42565b60006040518083038186803b15801561170b57600080fd5b505af415801561171f573d6000803e3d6000fd5b505050505b60405163050dfeaf60e31b815261013d600482015260016024820152604481018a905260648101869052608481018590526001600160a01b03841660a48201527396a9284ec346031e7c3D80B5C1477b1B2c3feE9f9063286ff5789060c401604080518083038186803b15801561179a57600080fd5b505af41580156117ae573d6000803e3d6000fd5b505050506040513d601f19601f820116820180604052508101906117d29190614217565b90925090506117e2600161010b55565b97509795505050505050565b6101b2546001600160a01b031633146118195760405162461bcd60e51b81526004016112499061468c565b611821612cc0565b565b600054610100900460ff16158080156118435750600054600160ff909116105b8061185d5750303b15801561185d575060005460ff166001145b6118c05760405162461bcd60e51b815260206004820152602e60248201527f496e697469616c697a61626c653a20636f6e747261637420697320616c72656160448201526d191e481a5b9a5d1a585b1a5e995960921b6064820152608401611249565b6000805460ff1916600117905580156118e3576000805461ff0019166101001790555b6118f1878787878787612d12565b80156111d3576000805461ff0019169055604051600181527f7f26b83ff96e1f2b6a682f133852f6798a09c465da95921460cefb38474024989060200160405180910390a150505050505050565b306001600160a01b037f00000000000000000000000000000000000000000000000000000000000000001614156119885760405162461bcd60e51b8152600401611249906146c3565b7f00000000000000000000000000000000000000000000000000000000000000006001600160a01b03166119ba612a06565b6001600160a01b0316146119e05760405162461bcd60e51b81526004016112499061470f565b6119e982612a22565b6119f582826001612b19565b5050565b611a01612930565b60405163a1f0cb8360e01b815260016004820152602481018390526001600160a01b03821660448201527396a9284ec346031e7c3D80B5C1477b1B2c3feE9f9063a1f0cb839060640161111d565b6000306001600160a01b037f00000000000000000000000000000000000000000000000000000000000000001614611aef5760405162461bcd60e51b815260206004820152603860248201527f555550535570677261646561626c653a206d757374206e6f742062652063616c60448201527f6c6564207468726f7567682064656c656761746563616c6c00000000000000006064820152608401611249565b50600080516020614d6383398151915290565b6000611b116001858585612d68565b949350505050565b6000610f6d60018484612da6565b6000838383604051602001611b3e93929190614602565b60408051601f198184030181529190528051602090910120949350505050565b611b66612930565b60405163171299f160e01b815273C15386C251a6AD7C2e0FEc66B16A398cB00939869063171299f190611bae9061013d906001908b908b908b908b908b908b90600401614883565b60006040518083038186803b158015611bc657600080fd5b505af4158015611bda573d6000803e3d6000fd5b50505050505050505050565b6040516304ac4a9160e11b815260016004820152602481018390526001600160a01b038216604482015273D1c09B76de3a50c0f3d8f97730E87c7203aCE7EE9063095895229060640161111d565b6060610f6d60018484612dd0565b611c4a612930565b604051630527e47960e41b81527396a9284ec346031e7c3D80B5C1477b1B2c3feE9f9063527e4790906111a79061013d90600190889088908890600401614979565b611c94612930565b604051634eaaf07b60e11b815261013d600482015260016024820152604481018290527396a9284ec346031e7c3D80B5C1477b1B2c3feE9f90639d55e0f6906064015b60006040518083038186803b158015611cef57600080fd5b505af4158015611d03573d6000803e3d6000fd5b5050505050565b604051630c6eff3560e31b815260016004820152602481018390526001600160a01b03821660448201526000907396a9284ec346031e7c3D80B5C1477b1B2c3feE9f90636377f9a8906064015b60206040518083038186803b158015611d6f57600080fd5b505af4158015611d83573d6000803e3d6000fd5b505050506040513d601f19601f82011682018060405250810190610f6d9190613ef7565b611daf612930565b604051638c02d86d60e01b815273C15386C251a6AD7C2e0FEc66B16A398cB009398690638c02d86d90611df39061013d906001908990899089908990600401614a42565b60006040518083038186803b158015611e0b57600080fd5b505af4158015611e1f573d6000803e3d6000fd5b5050505050505050565b6101b2546001600160a01b03163314611e545760405162461bcd60e51b81526004016112499061468c565b611821612e82565b6000611e6a60d95460ff1690565b80611e8c5750611e78612a06565b6101b3546001600160a01b03908116911614155b80611e9957506101b45442115b905090565b6000806060611eac84612ebf565b9194509250905061271082118015611ec55750614e1f82105b15611ee157600082815261014960205260409020849055611f1e565b614e2082118015611ef3575061752f82105b15611f1e57600082815261014a602090815260408083208784529091529020805460ff191660011790555b9193909250565b6000610f6d60018484612f77565b6000611f3d612976565b604051637cd7c3e560e11b81526001600482015260248101849052604481018390527396a9284ec346031e7c3D80B5C1477b1B2c3feE9f9063f9af87ca9060640160206040518083038186803b158015611f9657600080fd5b505af4158015611faa573d6000803e3d6000fd5b505050506040513d601f19601f82011682018060405250810190611fce9190613ef7565b9050610d95600161010b55565b60405163e51d9aa360e01b81526101b160048201526001600160a01b038216602482015273D1c09B76de3a50c0f3d8f97730E87c7203aCE7EE9063e51d9aa390604401611cd7565b61202b612930565b604051630a060fff60e11b815273C15386C251a6AD7C2e0FEc66B16A398cB00939869063140c1ffe90611df39061013d906001908990899089908990600401614850565b6120e960405180610140016040528060006001600160401b0316815260200160006001600160401b0316815260200160006001600160401b0316815260200160006001600160401b031681526020016000815260200160008152602001600081526020016000815260200160008152602001606081525090565b604051610148906120fd90859085906145b4565b9081526040805191829003602090810183206101408401835280546001600160401b038082168652680100000000000000008204811693860193909352600160801b8104831693850193909352600160c01b90920416606083015260018101546080830152600281015460a0830152600381015460c0830152600481015460e08301526005810154610100830152600681018054610120840191906121a190614cc2565b80601f01602080910402602001604051908101604052809291908181526020018280546121cd90614cc2565b801561221a5780601f106121ef5761010080835404028352916020019161221a565b820191906000526020600020905b8154815290600101906020018083116121fd57829003601f168201915b505050505081525050905092915050565b612233612930565b60405163041675ad60e41b81526001600482015260248101839052604481018290527396a9284ec346031e7c3D80B5C1477b1B2c3feE9f906341675ad09060640161111d565b612281612930565b604051630e89dd3160e41b81527396a9284ec346031e7c3D80B5C1477b1B2c3feE9f9063e89dd31090611bae906001908a908a908a908a908a908a906004016147ee565b6122f9604051806080016040528060006001600160a01b031681526020016000815260200160608152602001600081525090565b60405163929fbdfb60e01b81526101b160048201526024810183905273D1c09B76de3a50c0f3d8f97730E87c7203aCE7EE9063929fbdfb9060440160006040518083038186803b15801561234c57600080fd5b505af4158015612360573d6000803e3d6000fd5b505050506040513d6000823e601f3d908101601f19168201604052610d95919081019061400f565b604051632748bbb560e21b815260016004820152602481018290526000907396a9284ec346031e7c3D80B5C1477b1B2c3feE9f90639d22eed490604401610e81565b60006123d4612930565b6123dc612976565b60405163d53e397160e01b815260016004820152602481018390527396a9284ec346031e7c3D80B5C1477b1B2c3feE9f9063d53e39719060440160206040518083038186803b15801561242e57600080fd5b505af4158015612442573d6000803e3d6000fd5b505050506040513d601f19601f820116820180604052508101906124669190613ef7565b9050612473600161010b55565b919050565b6000612482612930565b60405162f093a160e51b81527396a9284ec346031e7c3D80B5C1477b1B2c3feE9f90631e127420906124cd9061013d906001908e908e908e908e908e908e908e908e906004016149aa565b60206040518083038186803b1580156124e557600080fd5b505af41580156124f9573d6000803e3d6000fd5b505050506040513d601f19601f8201168201806040525081019061251d9190613f14565b9998505050505050505050565b60405163f9f185f360e01b815260016004820152602481018390526001600160a01b03821660448201527396a9284ec346031e7c3D80B5C1477b1B2c3feE9f9063f9f185f39060640161111d565b604051630bde2bc360e01b81526101b160048201526001600160a01b038216602482015273D1c09B76de3a50c0f3d8f97730E87c7203aCE7EE90630bde2bc390604401611cd7565b60405163672bbf9560e01b81526000907396a9284ec346031e7c3D80B5C1477b1B2c3feE9f9063672bbf9590611d579061013d9087908790600401614836565b604051633be0f57560e11b815260016004820152602481018290526000907396a9284ec346031e7c3D80B5C1477b1B2c3feE9f906377c1eaea90604401610fb2565b61264a612930565b604051633cf9d99f60e21b815261013d600482015260248101849052604481018390526064810182905273C15386C251a6AD7C2e0FEc66B16A398cB00939869063f3e7667c906084016111a7565b60008281526001602052604081208054839081106126b8576126b8614d13565b9060005260206000200154905092915050565b6101b2546001600160a01b031633146126f65760405162461bcd60e51b81526004016112499061468c565b61013d5460408051631fa5d41d60e11b815290516001600160a01b0390921691633f4ba83a9160048082019260009290919082900301818387803b1580156113b157600080fd5b612745612930565b6040516312ed427760e01b81527396a9284ec346031e7c3D80B5C1477b1B2c3feE9f906312ed42779061111d9061013d9060019087908790600401614959565b606061278f612930565b612797612976565b612710821180156127a95750614e1f82105b6127f55760405162461bcd60e51b815260206004820152601b60248201527f504f5254414c3a696e76616c6964207061636b616765207479706500000000006044820152606401611249565b60008281526101496020526040902054612818600182634e414d4560e01b612dd0565b9150600033633b8ba86261283b6001856921a7a72a2927a62622a960b11b612f77565b6002866224ea006040518563ffffffff1660e01b8152600401612861949392919061463b565b602060405180830381600087803b15801561287b57600080fd5b505af115801561288f573d6000803e3d6000fd5b505050506040513d601f19601f820116820180604052508101906128b39190613f14565b9050600081116129055760405162461bcd60e51b815260206004820152601a60248201527f504f5254414c3a63616e6e6f74207075736820757067726164650000000000006044820152606401611249565b5050612473600161010b55565b6000611b116001858585612fab565b6060611b116001858585612fda565b60d95460ff16156118215760405162461bcd60e51b815260206004820152601060248201526f14185d5cd8589b194e881c185d5cd95960821b6044820152606401611249565b600261010b5414156129ca5760405162461bcd60e51b815260206004820152601f60248201527f5265656e7472616e637947756172643a207265656e7472616e742063616c6c006044820152606401611249565b600261010b55565b600161010b55565b604080516020808201949094528082019290925280518083038201815260609092019052805191012090565b600080516020614d63833981519152546001600160a01b031690565b73D1c09B76de3a50c0f3d8f97730E87c7203aCE7EE633f98381a6101b183612a48612a06565b6040516001600160e01b031960e086901b16815260048101939093526001600160a01b03918216602484015216604482015260640160206040518083038186803b158015612a9557600080fd5b505af4158015612aa9573d6000803e3d6000fd5b505050506040513d601f19601f82011682018060405250810190612acd9190613ef7565b6114f65760405162461bcd60e51b815260206004820152601960248201527f474d3a6e6f7420616c6c6f77656420746f2075706772616465000000000000006044820152606401611249565b7f4910fdfa16fed3260ed0e7147f7cc6da11a60208b5b9406d12a635614ffd91435460ff1615612b5157612b4c83613091565b505050565b826001600160a01b03166352d1902d6040518163ffffffff1660e01b815260040160206040518083038186803b158015612b8a57600080fd5b505afa925050508015612bba575060408051601f3d908101601f19168201909252612bb791810190613f14565b60015b612c1d5760405162461bcd60e51b815260206004820152602e60248201527f45524331393637557067726164653a206e657720696d706c656d656e7461746960448201526d6f6e206973206e6f74205555505360901b6064820152608401611249565b600080516020614d638339815191528114612c8c5760405162461bcd60e51b815260206004820152602960248201527f45524331393637557067726164653a20756e737570706f727465642070726f786044820152681a58589b195555525160ba1b6064820152608401611249565b50612b4c83838361312d565b80846001016000612ca986866129da565b815260208101919091526040016000205550505050565b612cc8613152565b60d9805460ff191690557f5db9ee0a495bf2e6ff9c91a7834c1ba4fdd244a5e8aa4e537bd38aeae4b073aa335b6040516001600160a01b03909116815260200160405180910390a1565b600054610100900460ff16612d395760405162461bcd60e51b81526004016112499061475b565b612d568686612d4c6301e1338042614c3d565b612711868661319b565b612d6084846131e0565b611149613231565b6000846003016000612d8384612d7e88886129da565b6129da565b81526020810191909152604001600020546001600160a01b031695945050505050565b6000836001016000612db885856129da565b81526020019081526020016000205490509392505050565b6060836002016000612de285856129da565b81526020019081526020016000208054612dfb90614cc2565b80601f0160208091040260200160405190810160405280929190818152602001828054612e2790614cc2565b8015612e745780601f10612e4957610100808354040283529160200191612e74565b820191906000526020600020905b815481529060010190602001808311612e5757829003601f168201915b505050505090509392505050565b612e8a612930565b60d9805460ff191660011790557f62e78cea01bee320cd4e420270b5ea74000d11b0c9f74754ebdbfc544b05a258612cf53390565b604051639c04df5b60e01b81526101b160048201526001602482015260448101829052600090819060609073D1c09B76de3a50c0f3d8f97730E87c7203aCE7EE90639c04df5b9060640160006040518083038186803b158015612f2157600080fd5b505af4158015612f35573d6000803e3d6000fd5b505050506040513d6000823e601f3d908101601f19168201604052612f5d9190810190613dac565b919450925090506002821415611f1e57611f1e8382613258565b6000836003016000612f8985856129da565b81526020810191909152604001600020546001600160a01b0316949350505050565b6000846001016000612fc184612d7e88886129da565b8152602001908152602001600020549050949350505050565b6060846002016000612ff084612d7e88886129da565b8152602001908152602001600020805461300990614cc2565b80601f016020809104026020016040519081016040528092919081815260200182805461303590614cc2565b80156130825780601f1061305757610100808354040283529160200191613082565b820191906000526020600020905b81548152906001019060200180831161306557829003601f168201915b50505050509050949350505050565b6001600160a01b0381163b6130fe5760405162461bcd60e51b815260206004820152602d60248201527f455243313936373a206e657720696d706c656d656e746174696f6e206973206e60448201526c1bdd08184818dbdb9d1c9858dd609a1b6064820152608401611249565b600080516020614d6383398151915280546001600160a01b0319166001600160a01b0392909216919091179055565b61313683613275565b6000825111806131435750805b15612b4c57610e3d83836132b5565b60d95460ff166118215760405162461bcd60e51b815260206004820152601460248201527314185d5cd8589b194e881b9bdd081c185d5cd95960621b6044820152606401611249565b600054610100900460ff166131c25760405162461bcd60e51b81526004016112499061475b565b6131ca613231565b6131d2613231565b6111498686868686866133a9565b600054610100900460ff166132075760405162461bcd60e51b81526004016112499061475b565b61320f61374b565b61321761377a565b61321f613231565b613227613231565b6119f582826137a9565b600054610100900460ff166118215760405162461bcd60e51b81526004016112499061475b565b61326182612a22565b61326c8260006114c4565b6119f58161386c565b61327e81613091565b6040516001600160a01b038216907fbc7cd75a20ee27fd9adebab32041f755214dbc6bffa90cc0225b39da2e5c2d3b90600090a250565b60606001600160a01b0383163b61331d5760405162461bcd60e51b815260206004820152602660248201527f416464726573733a2064656c65676174652063616c6c20746f206e6f6e2d636f6044820152651b9d1c9858dd60d21b6064820152608401611249565b600080846001600160a01b03168460405161333891906145c4565b600060405180830381855af49150503d8060008114613373576040519150601f19603f3d011682016040523d82523d6000602084013e613378565b606091505b50915091506133a08282604051806060016040528060278152602001614d83602791396138be565b95945050505050565b600054610100900460ff166133d05760405162461bcd60e51b81526004016112499061475b565b6001600160a01b0386166134265760405162461bcd60e51b815260206004820152601d60248201527f474d3a676f7665726e616e63652063616e206e6f74206265207a65726f0000006044820152606401611249565b6001600160a01b03851661347c5760405162461bcd60e51b815260206004820152601960248201527f474d3a73656e6174652063616e206e6f74206265207a65726f000000000000006044820152606401611249565b4284116134c15760405162461bcd60e51b8152602060048201526013602482015272474d3a6c6f772073656e61746545787069727960681b6044820152606401611249565b8261350e5760405162461bcd60e51b815260206004820152601e60248201527f474d3a7061636b616765547970652063616e206e6f74206265207a65726f00006044820152606401611249565b806135675760405162461bcd60e51b815260206004820152602360248201527f474d3a696e697456657273696f6e4e616d652063616e206e6f7420626520656d60448201526270747960e81b6064820152608401611249565b6101b18054336001600160a01b0319918216811783556101b280549092161790556101b48590556101b584905560009073D1c09B76de3a50c0f3d8f97730E87c7203aCE7EE90636989fbc69060016135bd612a06565b60028888620151806040518863ffffffff1660e01b81526004016135e797969594939291906147a6565b60206040518083038186803b1580156135ff57600080fd5b505af4158015613613573d6000803e3d6000fd5b505050506040513d601f19601f820116820180604052508101906136379190613f14565b604051639c04df5b60e01b81526101b16004820152600160248201526044810182905290915073D1c09B76de3a50c0f3d8f97730E87c7203aCE7EE90639c04df5b9060640160006040518083038186803b15801561369457600080fd5b505af41580156136a8573d6000803e3d6000fd5b505050506040513d6000823e601f3d908101601f191682016040526136d09190810190613dac565b50505061371283838080601f01602080910402602001604051908101604052809392919081815260200183838082843760009201919091525061386c92505050565b50506101b180546001600160a01b039687166001600160a01b0319918216179091556101b2805495909616941693909317909355505050565b600054610100900460ff166137725760405162461bcd60e51b81526004016112499061475b565b6118216138d7565b600054610100900460ff166137a15760405162461bcd60e51b81526004016112499061475b565b6118216138fe565b600054610100900460ff166137d05760405162461bcd60e51b81526004016112499061475b565b6001600160a01b0382166137e357600080fd5b6001600160a01b0381166137f657600080fd5b61013d80546001600160a01b038085166001600160a01b03199283161790925561013e805492841692909116919091179055606461383a6402540be4006007614c77565b6138449190614c55565b61014355606461385a6402540be4006007614c77565b6138649190614c55565b610144555050565b600061387e826101b160040154613931565b6101b68190556040518181529091507ffddcded6b4f4730c226821172046b48372d3cd963c159701ae1b7c3bcac541bb9060200160405180910390a15050565b606083156138cd575081610f6d565b610f6d8383613965565b600054610100900460ff166129d25760405162461bcd60e51b81526004016112499061475b565b600054610100900460ff166139255760405162461bcd60e51b81526004016112499061475b565b60d9805460ff19169055565b600082826040516020016139469291906145e0565b60408051601f1981840301815291905280516020909101209392505050565b8151156139755781518083602001fd5b8060405162461bcd60e51b81526004016112499190614679565b60008083601f8401126139a157600080fd5b5081356001600160401b038111156139b857600080fd5b6020830191508360208260051b85010111156139d357600080fd5b9250929050565b600082601f8301126139eb57600080fd5b813560206001600160401b03821115613a0657613a06614d29565b8160051b613a15828201614be6565b838152828101908684018388018501891015613a3057600080fd5b600093505b85841015613a53578035835260019390930192918401918401613a35565b50979650505050505050565b60008083601f840112613a7157600080fd5b5081356001600160401b03811115613a8857600080fd5b6020830191508360208285010111156139d357600080fd5b600082601f830112613ab157600080fd5b8135613ac4613abf82614c16565b614be6565b818152846020838601011115613ad957600080fd5b816020850160208301376000918101602001919091529392505050565b600082601f830112613b0757600080fd5b8151613b15613abf82614c16565b818152846020838601011115613b2a57600080fd5b611b11826020830160208701614c96565b600060208284031215613b4d57600080fd5b8135610f6d81614d3f565b60008060008060008060a08789031215613b7157600080fd5b8635613b7c81614d3f565b95506020870135613b8c81614d3f565b94506040870135613b9c81614d3f565b93506060870135613bac81614d3f565b925060808701356001600160401b03811115613bc757600080fd5b613bd389828a01613a5f565b979a9699509497509295939492505050565b600080600080600060a08688031215613bfd57600080fd5b8535613c0881614d3f565b94506020860135613c1881614d3f565b935060408601356001600160401b0380821115613c3457600080fd5b613c4089838a016139da565b94506060880135915080821115613c5657600080fd5b613c6289838a016139da565b93506080880135915080821115613c7857600080fd5b50613c8588828901613aa0565b9150509295509295909350565b600080600080600060a08688031215613caa57600080fd5b8535613cb581614d3f565b94506020860135613cc581614d3f565b9350604086013592506060860135915060808601356001600160401b03811115613cee57600080fd5b613c8588828901613aa0565b60008060408385031215613d0d57600080fd5b8235613d1881614d3f565b915060208301356001600160401b03811115613d3357600080fd5b613d3f85828601613aa0565b9150509250929050565b600080600080600060808688031215613d6157600080fd5b8535613d6c81614d3f565b94506020860135935060408601356001600160401b03811115613d8e57600080fd5b613d9a88828901613a5f565b96999598509660600135949350505050565b600080600060608486031215613dc157600080fd5b8351613dcc81614d3f565b6020850151604086015191945092506001600160401b03811115613def57600080fd5b613dfb86828701613af6565b9150509250925092565b60008060008060408587031215613e1b57600080fd5b84356001600160401b0380821115613e3257600080fd5b613e3e8883890161398f565b90965094506020870135915080821115613e5757600080fd5b50613e648782880161398f565b95989497509550505050565b60008060008060008060608789031215613e8957600080fd5b86356001600160401b0380821115613ea057600080fd5b613eac8a838b0161398f565b90985096506020890135915080821115613ec557600080fd5b613ed18a838b0161398f565b90965094506040890135915080821115613eea57600080fd5b50613bd389828a0161398f565b600060208284031215613f0957600080fd5b8151610f6d81614d54565b600060208284031215613f2657600080fd5b5051919050565b600080600060608486031215613f4257600080fd5b505081359360208301359350604090920135919050565b600060208284031215613f6b57600080fd5b81356001600160e01b031981168114610f6d57600080fd5b60008060208385031215613f9657600080fd5b82356001600160401b03811115613fac57600080fd5b613fb885828601613a5f565b90969095509350505050565b600080600060408486031215613fd957600080fd5b83356001600160401b03811115613fef57600080fd5b613ffb86828701613a5f565b909790965060209590950135949350505050565b60006020828403121561402157600080fd5b81516001600160401b038082111561403857600080fd5b908301906080828603121561404c57600080fd5b60405160808101818110838211171561406757614067614d29565b604052825161407581614d3f565b81526020838101519082015260408301518281111561409357600080fd5b61409f87828601613af6565b6040830152506060830151606082015280935050505092915050565b6000602082840312156140cd57600080fd5b5035919050565b600080604083850312156140e757600080fd5b8235915060208301356140f981614d3f565b809150509250929050565b60008060006040848603121561411957600080fd5b8335925060208401356001600160401b0381111561413657600080fd5b6141428682870161398f565b9497909650939450505050565b6000806000806000806080878903121561416857600080fd5b8635955060208701356001600160401b038082111561418657600080fd5b6141928a838b0161398f565b909750955060408901359150808211156141ab57600080fd5b506141b889828a0161398f565b979a9699509497949695606090950135949350505050565b600080604083850312156141e357600080fd5b8235915060208301356140f981614d54565b6000806040838503121561420857600080fd5b50508035926020909101359150565b6000806040838503121561422a57600080fd5b505080516020909101519092909150565b600080600080600080600080610100808a8c03121561425957600080fd5b8935985060208a0135975060408a013561427281614d3f565b965060608a01356001600160401b038082111561428e57600080fd5b61429a8d838e01613a5f565b909850965060808c01359150808211156142b357600080fd5b506142c08c828d01613a5f565b9095509350508981018b10156142d557600080fd5b5060a0890190509295985092959890939650565b600080600080606085870312156142ff57600080fd5b843593506020850135925060408501356001600160401b0381111561432357600080fd5b613e648782880161398f565b600080600080600080600060c0888a03121561434a57600080fd5b873596506020880135955060408801356001600160401b0381111561436e57600080fd5b61437a8a828b0161398f565b909650945050606088013592506080880135915060a088013561439c81614d3f565b8091505092959891949750929550565b60008060008060008060008060a0898b0312156143c857600080fd5b883597506020890135965060408901356001600160401b03808211156143ed57600080fd5b6143f98c838d0161398f565b909850965060608b013591508082111561441257600080fd5b61441e8c838d0161398f565b909650945060808b013591508082111561443757600080fd5b506144448b828c0161398f565b999c989b5096995094979396929594505050565b6000806000806080858703121561446e57600080fd5b843593506020850135925060408501359150606085013561448e81614d3f565b939692955090935050565b81835260006001600160fb1b038311156144b257600080fd5b8260051b8083602087013760009401602001938452509192915050565b81835260006020808501808196508560051b810191508460005b878110156145525782840389528135601e1988360301811261450a57600080fd5b870180356001600160401b0381111561452257600080fd5b80360389131561453157600080fd5b61453e868289850161455f565b9a87019a95505050908401906001016144e9565b5091979650505050505050565b81835281816020850137506000828201602090810191909152601f909101601f19169091010190565b600081518084526145a0816020860160208601614c96565b601f01601f19169290920160200192915050565b8183823760009101908152919050565b600082516145d6818460208701614c96565b9190910192915050565b600083516145f2818460208801614c96565b9190910191825250602001919050565b82848237909101908152602001919050565b60018060a01b03841681528260208201526060604082015260006133a06060830184614588565b60018060a01b03851681528360208201526080604082015260006146626080830185614588565b905063ffffffff8316606083015295945050505050565b602081526000610f6d6020830184614588565b6020808252601c908201527f506f7274616c3a73656e646572204e4f5420676f7665726e616e636500000000604082015260600190565b6020808252602c908201527f46756e6374696f6e206d7573742062652063616c6c6564207468726f7567682060408201526b19195b1959d85d1958d85b1b60a21b606082015260800190565b6020808252602c908201527f46756e6374696f6e206d7573742062652063616c6c6564207468726f7567682060408201526b6163746976652070726f787960a01b606082015260800190565b6020808252602b908201527f496e697469616c697a61626c653a20636f6e7472616374206973206e6f74206960408201526a6e697469616c697a696e6760a81b606082015260800190565b87815286602082015260018060a01b038616604082015284606082015260c0608082015260006147da60c08301858761455f565b90508260a083015298975050505050505050565b87815286602082015260a06040820152600061480e60a083018789614499565b8281036060840152614821818688614499565b91505082608083015298975050505050505050565b8381526040602082015260006133a060408301848661455f565b868152856020820152608060408201526000614870608083018688614499565b828103606084015261251d8185876144cf565b88815260006020898184015260a060408401526148a460a08401898b614499565b83810360608501526148b781888a614499565b84810360808601528581529050818101600586811b830184018860005b8981101561494457858303601f190185528135368c9003601e190181126148fa57600080fd5b8b0180356001600160401b0381111561491257600080fd5b80861b36038d131561492357600080fd5b61493085828b8501614499565b9689019694505050908601906001016148d4565b50909f9e505050505050505050505050505050565b84815283602082015260606040820152600061159260608301848661455f565b85815284602082015283604082015260806060820152600061499f6080830184866144cf565b979650505050505050565b60006101408c835260208c818501528b60408501528a606085015260018060a01b038a1660808501528160a08501526149e6828501898b61455f565b915083820360c08501526149fb82878961455f565b925060e0840191508460005b6003811015614a2f578135614a1b81614d54565b151584529282019290820190600101614a07565b505050509b9a5050505050505050505050565b86815285602082015284604082015283606082015260a060808201526000614a6e60a083018486614499565b98975050505050505050565b8a815289602082015288604082015287606082015260e060808201526000614aa660e08301888a6144cf565b82810360a0840152614ab98187896144cf565b905082810360c0840152614ace8185876144cf565b9d9c50505050505050505050505050565b6020815260018060a01b038251166020820152602082015160408201526000604083015160806060840152614b1760a0840182614588565b9050606084015160808401528091505092915050565b60208152614b476020820183516001600160401b03169052565b60006020830151614b6360408401826001600160401b03169052565b5060408301516001600160401b03811660608401525060608301516001600160401b038116608084015250608083015160a083015260a083015160c083015260c083015160e083015260e0830151610100818185015280850151915050610120818185015280850151915050610140808185015250611b11610160840182614588565b604051601f8201601f191681016001600160401b0381118282101715614c0e57614c0e614d29565b604052919050565b60006001600160401b03821115614c2f57614c2f614d29565b50601f01601f191660200190565b60008219821115614c5057614c50614cfd565b500190565b600082614c7257634e487b7160e01b600052601260045260246000fd5b500490565b6000816000190483118215151615614c9157614c91614cfd565b500290565b60005b83811015614cb1578181015183820152602001614c99565b83811115610e3d5750506000910152565b600181811c90821680614cd657607f821691505b60208210811415614cf757634e487b7160e01b600052602260045260246000fd5b50919050565b634e487b7160e01b600052601160045260246000fd5b634e487b7160e01b600052603260045260246000fd5b634e487b7160e01b600052604160045260246000fd5b6001600160a01b03811681146114f657600080fd5b80151581146114f657600080fdfe360894a13ba1a3210667c828492db98dca3e2076cc3735a920a3ca505d382bbc416464726573733a206c6f772d6c6576656c2064656c65676174652063616c6c206661696c6564a2646970667358221220f230254169f662c4d941311a99ba845317f2a5cea162965140f353bd713932ed64736f6c63430008070033",
  "deployedBytecode": "0x6080604052600436106103e85760003560e01c8063736ed2e311610208578063c2abb82d11610118578063de22bc72116100ab578063e1c0e7371161007a578063e1c0e73714610cb8578063e3099e0914610cd8578063e72b1d6d14610cf8578063e768887e14610d18578063f23a6e6114610d3857600080fd5b8063de22bc7214610c43578063df1ff92914610c63578063e02a520814610c83578063e05ec0a314610ca357600080fd5b8063d5357a1a116100e7578063d5357a1a14610bd0578063d89da28614610be3578063dab840c714610c03578063dd272bf414610c2357600080fd5b8063c2abb82d14610b50578063c7f758a814610b70578063cb337b4e14610b9d578063cdaba27414610bbd57600080fd5b806398951b561161019b578063ad8655cb1161016a578063ad8655cb14610a7e578063af6561ef14610a9e578063b4891bfd14610abe578063b784c7bb14610aeb578063bc197c8114610b0b57600080fd5b806398951b56146109b257806399ac48ba146109e1578063a270fece14610a01578063ad4ac4c414610a2157600080fd5b80638456cb59116101d75780638456cb59146108da5780638650c072146108ef5780638aa1043514610904578063964ff29c1461091a57600080fd5b8063736ed2e31461085a57806375fcb0171461087a5780637d22c35c1461089a5780637e1ece9f146108ba57600080fd5b80633b8ba862116103035780635329512b116102965780635c975abb116102655780635c975abb1461078c5780635d9e085d146107a457806366caab6f146107d15780636d07e4041461080d578063722679541461082d57600080fd5b80635329512b146106f457806356a72dbf1461072c5780635a34bb151461074c5780635b50fea61461076c57600080fd5b80634a936417116102d25780634a9364171461068c5780634f1ef286146106ac5780634f62d616146106bf57806352d1902d146106df57600080fd5b80633b8ba8621461060f5780633c6a05ef1461062f5780633c9e438c1461064f5780633f4ba83a1461067757600080fd5b80631d95313a1161037b57806332a693301161034a57806332a693301461059a578063341b3c00146105ba57806335782386146105cf5780633659cfe6146105ef57600080fd5b80631d95313a1461050c5780631da715911461053a57806326eef2c01461055a57806327cd2aa41461057a57600080fd5b80630aea8f4d116103b75780630aea8f4d1461048c578063100f72b6146104ac578063113743cb146104cc5780631b6f23d0146104ec57600080fd5b806301ffc9a7146103f4578063041bc62314610429578063060028ea1461043e5780630ab4bc911461045e57600080fd5b366103ef57005b600080fd5b34801561040057600080fd5b5061041461040f366004613f59565b610d64565b60405190151581526020015b60405180910390f35b61043c610437366004614458565b610d9b565b005b34801561044a57600080fd5b506104146104593660046140bb565b610e43565b34801561046a57600080fd5b5061047e6104793660046141f5565b610ed1565b604051908152602001610420565b34801561049857600080fd5b5061047e6104a73660046140bb565b610f74565b3480156104b857600080fd5b506104146104c73660046140bb565b611002565b3480156104d857600080fd5b5061043c6104e73660046143ac565b61104c565b3480156104f857600080fd5b5061043c6105073660046141d0565b6110da565b34801561051857600080fd5b5061047e6105273660046140bb565b6000908152610149602052604090205490565b34801561054657600080fd5b5061047e6105553660046141f5565b611151565b34801561056657600080fd5b5061043c610575366004614104565b61115d565b34801561058657600080fd5b506104146105953660046140bb565b6111dc565b3480156105a657600080fd5b5061043c6105b53660046140bb565b61121e565b3480156105c657600080fd5b5061043c61133f565b3480156105db57600080fd5b5061043c6105ea3660046141f5565b6113c5565b3480156105fb57600080fd5b5061043c61060a366004613b3b565b611413565b34801561061b57600080fd5b5061047e61062a366004613d49565b6114f9565b34801561063b57600080fd5b5061043c61064a3660046140bb565b61159c565b61066261065d36600461432f565b61160e565b60408051928352602083019190915201610420565b34801561068357600080fd5b5061043c6117ee565b34801561069857600080fd5b5061043c6106a7366004613b58565b611823565b61043c6106ba366004613cfa565b61193f565b3480156106cb57600080fd5b5061043c6106da3660046140d4565b6119f9565b3480156106eb57600080fd5b5061047e611a4f565b34801561070057600080fd5b5061071461070f366004613f2d565b611b02565b6040516001600160a01b039091168152602001610420565b34801561073857600080fd5b5061047e6107473660046141f5565b611b19565b34801561075857600080fd5b5061047e610767366004613fc4565b611b27565b34801561077857600080fd5b5061043c610787366004613e70565b611b5e565b34801561079857600080fd5b5060d95460ff16610414565b3480156107b057600080fd5b5061047e6107bf3660046140bb565b60009081526001602052604090205490565b3480156107dd57600080fd5b506104146107ec3660046141f5565b600091825261014a6020908152604080842092845291905290205460ff1690565b34801561081957600080fd5b5061043c6108283660046140d4565b611be6565b34801561083957600080fd5b5061084d6108483660046141f5565b611c34565b6040516104209190614679565b34801561086657600080fd5b5061043c610875366004614104565b611c42565b34801561088657600080fd5b5061043c6108953660046140bb565b611c8c565b3480156108a657600080fd5b506104146108b53660046140d4565b611d0a565b3480156108c657600080fd5b5061043c6108d53660046142e9565b611da7565b3480156108e657600080fd5b5061043c611e29565b3480156108fb57600080fd5b50610414611e5c565b34801561091057600080fd5b506101b65461047e565b34801561092657600080fd5b5061013d5461013e5461013f54610140805461014154610142546101435461014454610145546101465461014754604080516001600160a01b039d8e1681529c909b1660208d0152998b019890985260608a0195909552608089019390935260a088019190915260c087015260e086015261010085015261012084019190915282015261016001610420565b3480156109be57600080fd5b506109d26109cd3660046140bb565b611e9e565b60405161042093929190614614565b3480156109ed57600080fd5b506107146109fc3660046141f5565b611f25565b348015610a0d57600080fd5b50610414610a1c3660046141f5565b611f33565b348015610a2d57600080fd5b506101b1546101b2546101b3546101b4546101b554604080516001600160a01b039687168152948616602086015294909216938301939093526060820192909252608081019190915260a001610420565b348015610a8a57600080fd5b5061043c610a99366004613b3b565b611fdb565b348015610aaa57600080fd5b5061043c610ab9366004613e05565b612023565b348015610aca57600080fd5b50610ade610ad9366004613f83565b61206f565b6040516104209190614b2d565b348015610af757600080fd5b5061043c610b063660046141f5565b61222b565b348015610b1757600080fd5b50610b37610b26366004613be5565b63bc197c8160e01b95945050505050565b6040516001600160e01b03199091168152602001610420565b348015610b5c57600080fd5b5061043c610b6b36600461414f565b612279565b348015610b7c57600080fd5b50610b90610b8b3660046140bb565b6122c5565b6040516104209190614adf565b348015610ba957600080fd5b50610414610bb83660046140bb565b612388565b610414610bcb3660046140bb565b6123ca565b61047e610bde36600461423b565b612478565b348015610bef57600080fd5b5061043c610bfe3660046140d4565b61252a565b348015610c0f57600080fd5b5061043c610c1e366004613b3b565b612578565b348015610c2f57600080fd5b50610414610c3e366004613f83565b6125c0565b348015610c4f57600080fd5b5061047e610c5e3660046140bb565b612600565b348015610c6f57600080fd5b5061043c610c7e366004613f2d565b612642565b348015610c8f57600080fd5b5061047e610c9e3660046141f5565b612698565b348015610caf57600080fd5b5061043c6126cb565b348015610cc457600080fd5b5061043c610cd3366004613f83565b61273d565b348015610ce457600080fd5b5061084d610cf33660046140bb565b612785565b348015610d0457600080fd5b5061047e610d13366004613f2d565b612912565b348015610d2457600080fd5b5061084d610d33366004613f2d565b612921565b348015610d4457600080fd5b50610b37610d53366004613c92565b63f23a6e6160e01b95945050505050565b60006001600160e01b03198216630271189760e51b1480610d9557506301ffc9a760e01b6001600160e01b03198316145b92915050565b610da3612930565b610dab612976565b604051633aeaeb1f60e01b8152600160048201526024810185905260448101849052606481018390526001600160a01b038216608482015273__$cae5f4f3ea96bff8fffe52a1256c5dec9c$__90633aeaeb1f9060a40160006040518083038186803b158015610e1a57600080fd5b505af4158015610e2e573d6000803e3d6000fd5b50505050610e3d600161010b55565b50505050565b60405162d7c84f60e31b815261013d60048201526024810182905260009073__$cae5f4f3ea96bff8fffe52a1256c5dec9c$__906306be4278906044015b60206040518083038186803b158015610e9957600080fd5b505af4158015610ead573d6000803e3d6000fd5b505050506040513d601f19601f82011682018060405250810190610d959190613ef7565b60405163193e39b760e31b815261013d600482015260016024820152604481018390526064810182905260009073__$cae5f4f3ea96bff8fffe52a1256c5dec9c$__9063c9f1cdb89060840160206040518083038186803b158015610f3557600080fd5b505af4158015610f49573d6000803e3d6000fd5b505050506040513d601f19601f82011682018060405250810190610f6d9190613f14565b9392505050565b60405163a87ef4c560e01b8152600160048201526024810182905260009073__$cae5f4f3ea96bff8fffe52a1256c5dec9c$__9063a87ef4c5906044015b60206040518083038186803b158015610fca57600080fd5b505af4158015610fde573d6000803e3d6000fd5b505050506040513d601f19601f82011682018060405250810190610d959190613f14565b60405163452c42af60e11b815261013d6004820152600160248201526044810182905260009073__$cae5f4f3ea96bff8fffe52a1256c5dec9c$__90638a58855e90606401610e81565b611054612930565b6040516306a8b7f160e21b815273__$cae5f4f3ea96bff8fffe52a1256c5dec9c$__90631aa2dfc4906110a09061013d906001908d908d908d908d908d908d908d908d90600401614a7a565b60006040518083038186803b1580156110b857600080fd5b505af41580156110cc573d6000803e3d6000fd5b505050505050505050505050565b6040516368d1ee2360e01b81526001600482015260248101839052811515604482015273__$cae5f4f3ea96bff8fffe52a1256c5dec9c$__906368d1ee23906064015b60006040518083038186803b15801561113557600080fd5b505af4158015611149573d6000803e3d6000fd5b505050505050565b6000610f6d83836129da565b611165612930565b6040516303b3882160e41b815273__$2138558653a5cf238eab8ac7693304e430$__90633b388210906111a79061013d90600190889088908890600401614979565b60006040518083038186803b1580156111bf57600080fd5b505af41580156111d3573d6000803e3d6000fd5b50505050505050565b60405163ba6825ef60e01b8152600160048201526024810182905260009073__$cae5f4f3ea96bff8fffe52a1256c5dec9c$__9063ba6825ef90604401610e81565b6101b2546001600160a01b031633146112525760405162461bcd60e51b81526004016112499061468c565b60405180910390fd5b60646112646402540be4006005614c77565b61126e9190614c55565b8111156112bd5760405162461bcd60e51b815260206004820152601b60248201527f506f7274616c3a3e204d41585f474f5645524e414e43455f46454500000000006044820152606401611249565b6366316a1d42116113025760405162461bcd60e51b815260206004820152600f60248201526e2837b93a30b61d3737ba103cb2ba1760891b6044820152606401611249565b6101458190556040518181527fbcb0f386c91215302d3ebac3621cefd2cb0f069b53450940d8f1715b11e58645906020015b60405180910390a150565b6101b2546001600160a01b0316331461136a5760405162461bcd60e51b81526004016112499061468c565b61013d5460408051638456cb5960e01b815290516001600160a01b0390921691638456cb599160048082019260009290919082900301818387803b1580156113b157600080fd5b505af1158015610e3d573d6000803e3d6000fd5b6113cd612930565b6040516305ef04c360e21b815260016004820152602481018390526044810182905273__$cae5f4f3ea96bff8fffe52a1256c5dec9c$__906317bc130c9060640161111d565b306001600160a01b037f000000000000000000000000000000000000000000000000000000000000000016141561145c5760405162461bcd60e51b8152600401611249906146c3565b7f00000000000000000000000000000000000000000000000000000000000000006001600160a01b031661148e612a06565b6001600160a01b0316146114b45760405162461bcd60e51b81526004016112499061470f565b6114bd81612a22565b6114f68160005b6040519080825280601f01601f1916602001820160405280156114ee576020820181803683370190505b506000612b19565b50565b6040516334c4fde360e11b815260009073__$5eb4f00466582f7d4fb62bc47062007858$__90636989fbc690611542906101b1906001908b908b908b908b908b906004016147a6565b60206040518083038186803b15801561155a57600080fd5b505af415801561156e573d6000803e3d6000fd5b505050506040513d601f19601f820116820180604052508101906115929190613f14565b9695505050505050565b6101b2546001600160a01b031633146115c75760405162461bcd60e51b81526004016112499061468c565b6115de6001826672656c6561736560c81b42612c98565b6040518181527ffb81f9b30d73d830c3544b34d827c08142579ee75710b490bab0b3995468c56590602001611334565b600080611619612930565b611621612976565b60405162d7c84f60e31b815261013d6004820152602481018a905273__$cae5f4f3ea96bff8fffe52a1256c5dec9c$__906306be42789060440160206040518083038186803b15801561167357600080fd5b505af4158015611687573d6000803e3d6000fd5b505050506040513d601f19601f820116820180604052508101906116ab9190613ef7565b61172457604051638c02d86d60e01b815273__$2138558653a5cf238eab8ac7693304e430$__90638c02d86d906116f39061013d906001908e908e908e908e90600401614a42565b60006040518083038186803b15801561170b57600080fd5b505af415801561171f573d6000803e3d6000fd5b505050505b60405163050dfeaf60e31b815261013d600482015260016024820152604481018a905260648101869052608481018590526001600160a01b03841660a482015273__$cae5f4f3ea96bff8fffe52a1256c5dec9c$__9063286ff5789060c401604080518083038186803b15801561179a57600080fd5b505af41580156117ae573d6000803e3d6000fd5b505050506040513d601f19601f820116820180604052508101906117d29190614217565b90925090506117e2600161010b55565b97509795505050505050565b6101b2546001600160a01b031633146118195760405162461bcd60e51b81526004016112499061468c565b611821612cc0565b565b600054610100900460ff16158080156118435750600054600160ff909116105b8061185d5750303b15801561185d575060005460ff166001145b6118c05760405162461bcd60e51b815260206004820152602e60248201527f496e697469616c697a61626c653a20636f6e747261637420697320616c72656160448201526d191e481a5b9a5d1a585b1a5e995960921b6064820152608401611249565b6000805460ff1916600117905580156118e3576000805461ff0019166101001790555b6118f1878787878787612d12565b80156111d3576000805461ff0019169055604051600181527f7f26b83ff96e1f2b6a682f133852f6798a09c465da95921460cefb38474024989060200160405180910390a150505050505050565b306001600160a01b037f00000000000000000000000000000000000000000000000000000000000000001614156119885760405162461bcd60e51b8152600401611249906146c3565b7f00000000000000000000000000000000000000000000000000000000000000006001600160a01b03166119ba612a06565b6001600160a01b0316146119e05760405162461bcd60e51b81526004016112499061470f565b6119e982612a22565b6119f582826001612b19565b5050565b611a01612930565b60405163a1f0cb8360e01b815260016004820152602481018390526001600160a01b038216604482015273__$cae5f4f3ea96bff8fffe52a1256c5dec9c$__9063a1f0cb839060640161111d565b6000306001600160a01b037f00000000000000000000000000000000000000000000000000000000000000001614611aef5760405162461bcd60e51b815260206004820152603860248201527f555550535570677261646561626c653a206d757374206e6f742062652063616c60448201527f6c6564207468726f7567682064656c656761746563616c6c00000000000000006064820152608401611249565b50600080516020614d6383398151915290565b6000611b116001858585612d68565b949350505050565b6000610f6d60018484612da6565b6000838383604051602001611b3e93929190614602565b60408051601f198184030181529190528051602090910120949350505050565b611b66612930565b60405163171299f160e01b815273__$2138558653a5cf238eab8ac7693304e430$__9063171299f190611bae9061013d906001908b908b908b908b908b908b90600401614883565b60006040518083038186803b158015611bc657600080fd5b505af4158015611bda573d6000803e3d6000fd5b50505050505050505050565b6040516304ac4a9160e11b815260016004820152602481018390526001600160a01b038216604482015273__$5eb4f00466582f7d4fb62bc47062007858$__9063095895229060640161111d565b6060610f6d60018484612dd0565b611c4a612930565b604051630527e47960e41b815273__$cae5f4f3ea96bff8fffe52a1256c5dec9c$__9063527e4790906111a79061013d90600190889088908890600401614979565b611c94612930565b604051634eaaf07b60e11b815261013d6004820152600160248201526044810182905273__$cae5f4f3ea96bff8fffe52a1256c5dec9c$__90639d55e0f6906064015b60006040518083038186803b158015611cef57600080fd5b505af4158015611d03573d6000803e3d6000fd5b5050505050565b604051630c6eff3560e31b815260016004820152602481018390526001600160a01b038216604482015260009073__$cae5f4f3ea96bff8fffe52a1256c5dec9c$__90636377f9a8906064015b60206040518083038186803b158015611d6f57600080fd5b505af4158015611d83573d6000803e3d6000fd5b505050506040513d601f19601f82011682018060405250810190610f6d9190613ef7565b611daf612930565b604051638c02d86d60e01b815273__$2138558653a5cf238eab8ac7693304e430$__90638c02d86d90611df39061013d906001908990899089908990600401614a42565b60006040518083038186803b158015611e0b57600080fd5b505af4158015611e1f573d6000803e3d6000fd5b5050505050505050565b6101b2546001600160a01b03163314611e545760405162461bcd60e51b81526004016112499061468c565b611821612e82565b6000611e6a60d95460ff1690565b80611e8c5750611e78612a06565b6101b3546001600160a01b03908116911614155b80611e9957506101b45442115b905090565b6000806060611eac84612ebf565b9194509250905061271082118015611ec55750614e1f82105b15611ee157600082815261014960205260409020849055611f1e565b614e2082118015611ef3575061752f82105b15611f1e57600082815261014a602090815260408083208784529091529020805460ff191660011790555b9193909250565b6000610f6d60018484612f77565b6000611f3d612976565b604051637cd7c3e560e11b815260016004820152602481018490526044810183905273__$cae5f4f3ea96bff8fffe52a1256c5dec9c$__9063f9af87ca9060640160206040518083038186803b158015611f9657600080fd5b505af4158015611faa573d6000803e3d6000fd5b505050506040513d601f19601f82011682018060405250810190611fce9190613ef7565b9050610d95600161010b55565b60405163e51d9aa360e01b81526101b160048201526001600160a01b038216602482015273__$5eb4f00466582f7d4fb62bc47062007858$__9063e51d9aa390604401611cd7565b61202b612930565b604051630a060fff60e11b815273__$2138558653a5cf238eab8ac7693304e430$__9063140c1ffe90611df39061013d906001908990899089908990600401614850565b6120e960405180610140016040528060006001600160401b0316815260200160006001600160401b0316815260200160006001600160401b0316815260200160006001600160401b031681526020016000815260200160008152602001600081526020016000815260200160008152602001606081525090565b604051610148906120fd90859085906145b4565b9081526040805191829003602090810183206101408401835280546001600160401b038082168652680100000000000000008204811693860193909352600160801b8104831693850193909352600160c01b90920416606083015260018101546080830152600281015460a0830152600381015460c0830152600481015460e08301526005810154610100830152600681018054610120840191906121a190614cc2565b80601f01602080910402602001604051908101604052809291908181526020018280546121cd90614cc2565b801561221a5780601f106121ef5761010080835404028352916020019161221a565b820191906000526020600020905b8154815290600101906020018083116121fd57829003601f168201915b505050505081525050905092915050565b612233612930565b60405163041675ad60e41b815260016004820152602481018390526044810182905273__$cae5f4f3ea96bff8fffe52a1256c5dec9c$__906341675ad09060640161111d565b612281612930565b604051630e89dd3160e41b815273__$cae5f4f3ea96bff8fffe52a1256c5dec9c$__9063e89dd31090611bae906001908a908a908a908a908a908a906004016147ee565b6122f9604051806080016040528060006001600160a01b031681526020016000815260200160608152602001600081525090565b60405163929fbdfb60e01b81526101b160048201526024810183905273__$5eb4f00466582f7d4fb62bc47062007858$__9063929fbdfb9060440160006040518083038186803b15801561234c57600080fd5b505af4158015612360573d6000803e3d6000fd5b505050506040513d6000823e601f3d908101601f19168201604052610d95919081019061400f565b604051632748bbb560e21b8152600160048201526024810182905260009073__$cae5f4f3ea96bff8fffe52a1256c5dec9c$__90639d22eed490604401610e81565b60006123d4612930565b6123dc612976565b60405163d53e397160e01b8152600160048201526024810183905273__$cae5f4f3ea96bff8fffe52a1256c5dec9c$__9063d53e39719060440160206040518083038186803b15801561242e57600080fd5b505af4158015612442573d6000803e3d6000fd5b505050506040513d601f19601f820116820180604052508101906124669190613ef7565b9050612473600161010b55565b919050565b6000612482612930565b60405162f093a160e51b815273__$cae5f4f3ea96bff8fffe52a1256c5dec9c$__90631e127420906124cd9061013d906001908e908e908e908e908e908e908e908e906004016149aa565b60206040518083038186803b1580156124e557600080fd5b505af41580156124f9573d6000803e3d6000fd5b505050506040513d601f19601f8201168201806040525081019061251d9190613f14565b9998505050505050505050565b60405163f9f185f360e01b815260016004820152602481018390526001600160a01b038216604482015273__$cae5f4f3ea96bff8fffe52a1256c5dec9c$__9063f9f185f39060640161111d565b604051630bde2bc360e01b81526101b160048201526001600160a01b038216602482015273__$5eb4f00466582f7d4fb62bc47062007858$__90630bde2bc390604401611cd7565b60405163672bbf9560e01b815260009073__$cae5f4f3ea96bff8fffe52a1256c5dec9c$__9063672bbf9590611d579061013d9087908790600401614836565b604051633be0f57560e11b8152600160048201526024810182905260009073__$cae5f4f3ea96bff8fffe52a1256c5dec9c$__906377c1eaea90604401610fb2565b61264a612930565b604051633cf9d99f60e21b815261013d600482015260248101849052604481018390526064810182905273__$2138558653a5cf238eab8ac7693304e430$__9063f3e7667c906084016111a7565b60008281526001602052604081208054839081106126b8576126b8614d13565b9060005260206000200154905092915050565b6101b2546001600160a01b031633146126f65760405162461bcd60e51b81526004016112499061468c565b61013d5460408051631fa5d41d60e11b815290516001600160a01b0390921691633f4ba83a9160048082019260009290919082900301818387803b1580156113b157600080fd5b612745612930565b6040516312ed427760e01b815273__$cae5f4f3ea96bff8fffe52a1256c5dec9c$__906312ed42779061111d9061013d9060019087908790600401614959565b606061278f612930565b612797612976565b612710821180156127a95750614e1f82105b6127f55760405162461bcd60e51b815260206004820152601b60248201527f504f5254414c3a696e76616c6964207061636b616765207479706500000000006044820152606401611249565b60008281526101496020526040902054612818600182634e414d4560e01b612dd0565b9150600033633b8ba86261283b6001856921a7a72a2927a62622a960b11b612f77565b6002866224ea006040518563ffffffff1660e01b8152600401612861949392919061463b565b602060405180830381600087803b15801561287b57600080fd5b505af115801561288f573d6000803e3d6000fd5b505050506040513d601f19601f820116820180604052508101906128b39190613f14565b9050600081116129055760405162461bcd60e51b815260206004820152601a60248201527f504f5254414c3a63616e6e6f74207075736820757067726164650000000000006044820152606401611249565b5050612473600161010b55565b6000611b116001858585612fab565b6060611b116001858585612fda565b60d95460ff16156118215760405162461bcd60e51b815260206004820152601060248201526f14185d5cd8589b194e881c185d5cd95960821b6044820152606401611249565b600261010b5414156129ca5760405162461bcd60e51b815260206004820152601f60248201527f5265656e7472616e637947756172643a207265656e7472616e742063616c6c006044820152606401611249565b600261010b55565b600161010b55565b604080516020808201949094528082019290925280518083038201815260609092019052805191012090565b600080516020614d63833981519152546001600160a01b031690565b73__$5eb4f00466582f7d4fb62bc47062007858$__633f98381a6101b183612a48612a06565b6040516001600160e01b031960e086901b16815260048101939093526001600160a01b03918216602484015216604482015260640160206040518083038186803b158015612a9557600080fd5b505af4158015612aa9573d6000803e3d6000fd5b505050506040513d601f19601f82011682018060405250810190612acd9190613ef7565b6114f65760405162461bcd60e51b815260206004820152601960248201527f474d3a6e6f7420616c6c6f77656420746f2075706772616465000000000000006044820152606401611249565b7f4910fdfa16fed3260ed0e7147f7cc6da11a60208b5b9406d12a635614ffd91435460ff1615612b5157612b4c83613091565b505050565b826001600160a01b03166352d1902d6040518163ffffffff1660e01b815260040160206040518083038186803b158015612b8a57600080fd5b505afa925050508015612bba575060408051601f3d908101601f19168201909252612bb791810190613f14565b60015b612c1d5760405162461bcd60e51b815260206004820152602e60248201527f45524331393637557067726164653a206e657720696d706c656d656e7461746960448201526d6f6e206973206e6f74205555505360901b6064820152608401611249565b600080516020614d638339815191528114612c8c5760405162461bcd60e51b815260206004820152602960248201527f45524331393637557067726164653a20756e737570706f727465642070726f786044820152681a58589b195555525160ba1b6064820152608401611249565b50612b4c83838361312d565b80846001016000612ca986866129da565b815260208101919091526040016000205550505050565b612cc8613152565b60d9805460ff191690557f5db9ee0a495bf2e6ff9c91a7834c1ba4fdd244a5e8aa4e537bd38aeae4b073aa335b6040516001600160a01b03909116815260200160405180910390a1565b600054610100900460ff16612d395760405162461bcd60e51b81526004016112499061475b565b612d568686612d4c6301e1338042614c3d565b612711868661319b565b612d6084846131e0565b611149613231565b6000846003016000612d8384612d7e88886129da565b6129da565b81526020810191909152604001600020546001600160a01b031695945050505050565b6000836001016000612db885856129da565b81526020019081526020016000205490509392505050565b6060836002016000612de285856129da565b81526020019081526020016000208054612dfb90614cc2565b80601f0160208091040260200160405190810160405280929190818152602001828054612e2790614cc2565b8015612e745780601f10612e4957610100808354040283529160200191612e74565b820191906000526020600020905b815481529060010190602001808311612e5757829003601f168201915b505050505090509392505050565b612e8a612930565b60d9805460ff191660011790557f62e78cea01bee320cd4e420270b5ea74000d11b0c9f74754ebdbfc544b05a258612cf53390565b604051639c04df5b60e01b81526101b160048201526001602482015260448101829052600090819060609073__$5eb4f00466582f7d4fb62bc47062007858$__90639c04df5b9060640160006040518083038186803b158015612f2157600080fd5b505af4158015612f35573d6000803e3d6000fd5b505050506040513d6000823e601f3d908101601f19168201604052612f5d9190810190613dac565b919450925090506002821415611f1e57611f1e8382613258565b6000836003016000612f8985856129da565b81526020810191909152604001600020546001600160a01b0316949350505050565b6000846001016000612fc184612d7e88886129da565b8152602001908152602001600020549050949350505050565b6060846002016000612ff084612d7e88886129da565b8152602001908152602001600020805461300990614cc2565b80601f016020809104026020016040519081016040528092919081815260200182805461303590614cc2565b80156130825780601f1061305757610100808354040283529160200191613082565b820191906000526020600020905b81548152906001019060200180831161306557829003601f168201915b50505050509050949350505050565b6001600160a01b0381163b6130fe5760405162461bcd60e51b815260206004820152602d60248201527f455243313936373a206e657720696d706c656d656e746174696f6e206973206e60448201526c1bdd08184818dbdb9d1c9858dd609a1b6064820152608401611249565b600080516020614d6383398151915280546001600160a01b0319166001600160a01b0392909216919091179055565b61313683613275565b6000825111806131435750805b15612b4c57610e3d83836132b5565b60d95460ff166118215760405162461bcd60e51b815260206004820152601460248201527314185d5cd8589b194e881b9bdd081c185d5cd95960621b6044820152606401611249565b600054610100900460ff166131c25760405162461bcd60e51b81526004016112499061475b565b6131ca613231565b6131d2613231565b6111498686868686866133a9565b600054610100900460ff166132075760405162461bcd60e51b81526004016112499061475b565b61320f61374b565b61321761377a565b61321f613231565b613227613231565b6119f582826137a9565b600054610100900460ff166118215760405162461bcd60e51b81526004016112499061475b565b61326182612a22565b61326c8260006114c4565b6119f58161386c565b61327e81613091565b6040516001600160a01b038216907fbc7cd75a20ee27fd9adebab32041f755214dbc6bffa90cc0225b39da2e5c2d3b90600090a250565b60606001600160a01b0383163b61331d5760405162461bcd60e51b815260206004820152602660248201527f416464726573733a2064656c65676174652063616c6c20746f206e6f6e2d636f6044820152651b9d1c9858dd60d21b6064820152608401611249565b600080846001600160a01b03168460405161333891906145c4565b600060405180830381855af49150503d8060008114613373576040519150601f19603f3d011682016040523d82523d6000602084013e613378565b606091505b50915091506133a08282604051806060016040528060278152602001614d83602791396138be565b95945050505050565b600054610100900460ff166133d05760405162461bcd60e51b81526004016112499061475b565b6001600160a01b0386166134265760405162461bcd60e51b815260206004820152601d60248201527f474d3a676f7665726e616e63652063616e206e6f74206265207a65726f0000006044820152606401611249565b6001600160a01b03851661347c5760405162461bcd60e51b815260206004820152601960248201527f474d3a73656e6174652063616e206e6f74206265207a65726f000000000000006044820152606401611249565b4284116134c15760405162461bcd60e51b8152602060048201526013602482015272474d3a6c6f772073656e61746545787069727960681b6044820152606401611249565b8261350e5760405162461bcd60e51b815260206004820152601e60248201527f474d3a7061636b616765547970652063616e206e6f74206265207a65726f00006044820152606401611249565b806135675760405162461bcd60e51b815260206004820152602360248201527f474d3a696e697456657273696f6e4e616d652063616e206e6f7420626520656d60448201526270747960e81b6064820152608401611249565b6101b18054336001600160a01b0319918216811783556101b280549092161790556101b48590556101b584905560009073__$5eb4f00466582f7d4fb62bc47062007858$__90636989fbc69060016135bd612a06565b60028888620151806040518863ffffffff1660e01b81526004016135e797969594939291906147a6565b60206040518083038186803b1580156135ff57600080fd5b505af4158015613613573d6000803e3d6000fd5b505050506040513d601f19601f820116820180604052508101906136379190613f14565b604051639c04df5b60e01b81526101b16004820152600160248201526044810182905290915073__$5eb4f00466582f7d4fb62bc47062007858$__90639c04df5b9060640160006040518083038186803b15801561369457600080fd5b505af41580156136a8573d6000803e3d6000fd5b505050506040513d6000823e601f3d908101601f191682016040526136d09190810190613dac565b50505061371283838080601f01602080910402602001604051908101604052809392919081815260200183838082843760009201919091525061386c92505050565b50506101b180546001600160a01b039687166001600160a01b0319918216179091556101b2805495909616941693909317909355505050565b600054610100900460ff166137725760405162461bcd60e51b81526004016112499061475b565b6118216138d7565b600054610100900460ff166137a15760405162461bcd60e51b81526004016112499061475b565b6118216138fe565b600054610100900460ff166137d05760405162461bcd60e51b81526004016112499061475b565b6001600160a01b0382166137e357600080fd5b6001600160a01b0381166137f657600080fd5b61013d80546001600160a01b038085166001600160a01b03199283161790925561013e805492841692909116919091179055606461383a6402540be4006007614c77565b6138449190614c55565b61014355606461385a6402540be4006007614c77565b6138649190614c55565b610144555050565b600061387e826101b160040154613931565b6101b68190556040518181529091507ffddcded6b4f4730c226821172046b48372d3cd963c159701ae1b7c3bcac541bb9060200160405180910390a15050565b606083156138cd575081610f6d565b610f6d8383613965565b600054610100900460ff166129d25760405162461bcd60e51b81526004016112499061475b565b600054610100900460ff166139255760405162461bcd60e51b81526004016112499061475b565b60d9805460ff19169055565b600082826040516020016139469291906145e0565b60408051601f1981840301815291905280516020909101209392505050565b8151156139755781518083602001fd5b8060405162461bcd60e51b81526004016112499190614679565b60008083601f8401126139a157600080fd5b5081356001600160401b038111156139b857600080fd5b6020830191508360208260051b85010111156139d357600080fd5b9250929050565b600082601f8301126139eb57600080fd5b813560206001600160401b03821115613a0657613a06614d29565b8160051b613a15828201614be6565b838152828101908684018388018501891015613a3057600080fd5b600093505b85841015613a53578035835260019390930192918401918401613a35565b50979650505050505050565b60008083601f840112613a7157600080fd5b5081356001600160401b03811115613a8857600080fd5b6020830191508360208285010111156139d357600080fd5b600082601f830112613ab157600080fd5b8135613ac4613abf82614c16565b614be6565b818152846020838601011115613ad957600080fd5b816020850160208301376000918101602001919091529392505050565b600082601f830112613b0757600080fd5b8151613b15613abf82614c16565b818152846020838601011115613b2a57600080fd5b611b11826020830160208701614c96565b600060208284031215613b4d57600080fd5b8135610f6d81614d3f565b60008060008060008060a08789031215613b7157600080fd5b8635613b7c81614d3f565b95506020870135613b8c81614d3f565b94506040870135613b9c81614d3f565b93506060870135613bac81614d3f565b925060808701356001600160401b03811115613bc757600080fd5b613bd389828a01613a5f565b979a9699509497509295939492505050565b600080600080600060a08688031215613bfd57600080fd5b8535613c0881614d3f565b94506020860135613c1881614d3f565b935060408601356001600160401b0380821115613c3457600080fd5b613c4089838a016139da565b94506060880135915080821115613c5657600080fd5b613c6289838a016139da565b93506080880135915080821115613c7857600080fd5b50613c8588828901613aa0565b9150509295509295909350565b600080600080600060a08688031215613caa57600080fd5b8535613cb581614d3f565b94506020860135613cc581614d3f565b9350604086013592506060860135915060808601356001600160401b03811115613cee57600080fd5b613c8588828901613aa0565b60008060408385031215613d0d57600080fd5b8235613d1881614d3f565b915060208301356001600160401b03811115613d3357600080fd5b613d3f85828601613aa0565b9150509250929050565b600080600080600060808688031215613d6157600080fd5b8535613d6c81614d3f565b94506020860135935060408601356001600160401b03811115613d8e57600080fd5b613d9a88828901613a5f565b96999598509660600135949350505050565b600080600060608486031215613dc157600080fd5b8351613dcc81614d3f565b6020850151604086015191945092506001600160401b03811115613def57600080fd5b613dfb86828701613af6565b9150509250925092565b60008060008060408587031215613e1b57600080fd5b84356001600160401b0380821115613e3257600080fd5b613e3e8883890161398f565b90965094506020870135915080821115613e5757600080fd5b50613e648782880161398f565b95989497509550505050565b60008060008060008060608789031215613e8957600080fd5b86356001600160401b0380821115613ea057600080fd5b613eac8a838b0161398f565b90985096506020890135915080821115613ec557600080fd5b613ed18a838b0161398f565b90965094506040890135915080821115613eea57600080fd5b50613bd389828a0161398f565b600060208284031215613f0957600080fd5b8151610f6d81614d54565b600060208284031215613f2657600080fd5b5051919050565b600080600060608486031215613f4257600080fd5b505081359360208301359350604090920135919050565b600060208284031215613f6b57600080fd5b81356001600160e01b031981168114610f6d57600080fd5b60008060208385031215613f9657600080fd5b82356001600160401b03811115613fac57600080fd5b613fb885828601613a5f565b90969095509350505050565b600080600060408486031215613fd957600080fd5b83356001600160401b03811115613fef57600080fd5b613ffb86828701613a5f565b909790965060209590950135949350505050565b60006020828403121561402157600080fd5b81516001600160401b038082111561403857600080fd5b908301906080828603121561404c57600080fd5b60405160808101818110838211171561406757614067614d29565b604052825161407581614d3f565b81526020838101519082015260408301518281111561409357600080fd5b61409f87828601613af6565b6040830152506060830151606082015280935050505092915050565b6000602082840312156140cd57600080fd5b5035919050565b600080604083850312156140e757600080fd5b8235915060208301356140f981614d3f565b809150509250929050565b60008060006040848603121561411957600080fd5b8335925060208401356001600160401b0381111561413657600080fd5b6141428682870161398f565b9497909650939450505050565b6000806000806000806080878903121561416857600080fd5b8635955060208701356001600160401b038082111561418657600080fd5b6141928a838b0161398f565b909750955060408901359150808211156141ab57600080fd5b506141b889828a0161398f565b979a9699509497949695606090950135949350505050565b600080604083850312156141e357600080fd5b8235915060208301356140f981614d54565b6000806040838503121561420857600080fd5b50508035926020909101359150565b6000806040838503121561422a57600080fd5b505080516020909101519092909150565b600080600080600080600080610100808a8c03121561425957600080fd5b8935985060208a0135975060408a013561427281614d3f565b965060608a01356001600160401b038082111561428e57600080fd5b61429a8d838e01613a5f565b909850965060808c01359150808211156142b357600080fd5b506142c08c828d01613a5f565b9095509350508981018b10156142d557600080fd5b5060a0890190509295985092959890939650565b600080600080606085870312156142ff57600080fd5b843593506020850135925060408501356001600160401b0381111561432357600080fd5b613e648782880161398f565b600080600080600080600060c0888a03121561434a57600080fd5b873596506020880135955060408801356001600160401b0381111561436e57600080fd5b61437a8a828b0161398f565b909650945050606088013592506080880135915060a088013561439c81614d3f565b8091505092959891949750929550565b60008060008060008060008060a0898b0312156143c857600080fd5b883597506020890135965060408901356001600160401b03808211156143ed57600080fd5b6143f98c838d0161398f565b909850965060608b013591508082111561441257600080fd5b61441e8c838d0161398f565b909650945060808b013591508082111561443757600080fd5b506144448b828c0161398f565b999c989b5096995094979396929594505050565b6000806000806080858703121561446e57600080fd5b843593506020850135925060408501359150606085013561448e81614d3f565b939692955090935050565b81835260006001600160fb1b038311156144b257600080fd5b8260051b8083602087013760009401602001938452509192915050565b81835260006020808501808196508560051b810191508460005b878110156145525782840389528135601e1988360301811261450a57600080fd5b870180356001600160401b0381111561452257600080fd5b80360389131561453157600080fd5b61453e868289850161455f565b9a87019a95505050908401906001016144e9565b5091979650505050505050565b81835281816020850137506000828201602090810191909152601f909101601f19169091010190565b600081518084526145a0816020860160208601614c96565b601f01601f19169290920160200192915050565b8183823760009101908152919050565b600082516145d6818460208701614c96565b9190910192915050565b600083516145f2818460208801614c96565b9190910191825250602001919050565b82848237909101908152602001919050565b60018060a01b03841681528260208201526060604082015260006133a06060830184614588565b60018060a01b03851681528360208201526080604082015260006146626080830185614588565b905063ffffffff8316606083015295945050505050565b602081526000610f6d6020830184614588565b6020808252601c908201527f506f7274616c3a73656e646572204e4f5420676f7665726e616e636500000000604082015260600190565b6020808252602c908201527f46756e6374696f6e206d7573742062652063616c6c6564207468726f7567682060408201526b19195b1959d85d1958d85b1b60a21b606082015260800190565b6020808252602c908201527f46756e6374696f6e206d7573742062652063616c6c6564207468726f7567682060408201526b6163746976652070726f787960a01b606082015260800190565b6020808252602b908201527f496e697469616c697a61626c653a20636f6e7472616374206973206e6f74206960408201526a6e697469616c697a696e6760a81b606082015260800190565b87815286602082015260018060a01b038616604082015284606082015260c0608082015260006147da60c08301858761455f565b90508260a083015298975050505050505050565b87815286602082015260a06040820152600061480e60a083018789614499565b8281036060840152614821818688614499565b91505082608083015298975050505050505050565b8381526040602082015260006133a060408301848661455f565b868152856020820152608060408201526000614870608083018688614499565b828103606084015261251d8185876144cf565b88815260006020898184015260a060408401526148a460a08401898b614499565b83810360608501526148b781888a614499565b84810360808601528581529050818101600586811b830184018860005b8981101561494457858303601f190185528135368c9003601e190181126148fa57600080fd5b8b0180356001600160401b0381111561491257600080fd5b80861b36038d131561492357600080fd5b61493085828b8501614499565b9689019694505050908601906001016148d4565b50909f9e505050505050505050505050505050565b84815283602082015260606040820152600061159260608301848661455f565b85815284602082015283604082015260806060820152600061499f6080830184866144cf565b979650505050505050565b60006101408c835260208c818501528b60408501528a606085015260018060a01b038a1660808501528160a08501526149e6828501898b61455f565b915083820360c08501526149fb82878961455f565b925060e0840191508460005b6003811015614a2f578135614a1b81614d54565b151584529282019290820190600101614a07565b505050509b9a5050505050505050505050565b86815285602082015284604082015283606082015260a060808201526000614a6e60a083018486614499565b98975050505050505050565b8a815289602082015288604082015287606082015260e060808201526000614aa660e08301888a6144cf565b82810360a0840152614ab98187896144cf565b905082810360c0840152614ace8185876144cf565b9d9c50505050505050505050505050565b6020815260018060a01b038251166020820152602082015160408201526000604083015160806060840152614b1760a0840182614588565b9050606084015160808401528091505092915050565b60208152614b476020820183516001600160401b03169052565b60006020830151614b6360408401826001600160401b03169052565b5060408301516001600160401b03811660608401525060608301516001600160401b038116608084015250608083015160a083015260a083015160c083015260c083015160e083015260e0830151610100818185015280850151915050610120818185015280850151915050610140808185015250611b11610160840182614588565b604051601f8201601f191681016001600160401b0381118282101715614c0e57614c0e614d29565b604052919050565b60006001600160401b03821115614c2f57614c2f614d29565b50601f01601f191660200190565b60008219821115614c5057614c50614cfd565b500190565b600082614c7257634e487b7160e01b600052601260045260246000fd5b500490565b6000816000190483118215151615614c9157614c91614cfd565b500290565b60005b83811015614cb1578181015183820152602001614c99565b83811115610e3d5750506000910152565b600181811c90821680614cd657607f821691505b60208210811415614cf757634e487b7160e01b600052602260045260246000fd5b50919050565b634e487b7160e01b600052601160045260246000fd5b634e487b7160e01b600052603260045260246000fd5b634e487b7160e01b600052604160045260246000fd5b6001600160a01b03811681146114f657600080fd5b80151581146114f657600080fdfe360894a13ba1a3210667c828492db98dca3e2076cc3735a920a3ca505d382bbc416464726573733a206c6f772d6c6576656c2064656c65676174652063616c6c206661696c6564a2646970667358221220f230254169f662c4d941311a99ba845317f2a5cea162965140f353bd713932ed64736f6c63430008070033",
  "libraries": {
    "GeodeModuleLib": "0xD1c09B76de3a50c0f3d8f97730E87c7203aCE7EE",
    "StakeModuleLib": "0x96a9284ec346031e7c3D80B5C1477b1B2c3feE9f",
    "OracleExtensionLib": "0xC15386C251a6AD7C2e0FEc66B16A398cB0093986"
  },
  "devdoc": {
    "author": "Ice Bear & Crash Bandicoot",
    "details": "TYPE: PACKAGE_PORTALPortal is a special package that is deployed once. Does not utilize IGeodePackage interface.review: GM for The Limited Upgradability through Dual Governance: * Governance is a governance token. * Senate is a multisig, planned to be a contract that allows pool CONTROLLERs to maintain power. * Senate expiry is effective.review: SM for Staking logic.There are 2 functionalities that are implemented here: * Special Governance functions for Portal: * * Pausing gETH, pausing Portal, releasing prisoned operators,and seting a governance fee. * Push end of the version management logic via pull->push. * * approveProposal changes the package version or allows specified middleware. * * pushUpgrade creates a contract upgrade proposal on the package, and requires package owner to approve it.authentication: * GeodeModule has OnlyGovernance, OnlySenate and OnlyController checks with modifiers. * StakeModuleLib has \"authenticate()\" function which checks for Maintainers, Controllers, and TYPE. * OracleModuleLib has OnlyOracle checks with a modifier. * Portal has an OnlyGovernance check on : pause, unpause, pausegETH, unpausegETH, setGovernanceFee, releasePrisoned.",
    "events": {
      "Released(uint256)": {
        "custom:section": "** EVENTS **"
      }
    },
    "kind": "dev",
    "methods": {
      "GeodeParams()": {
        "custom:section": "** GETTER FUNCTIONS **",
        "custom:visibility": "-> view-external"
      },
      "StakeParams()": {
        "custom:section": "** GETTER FUNCTIONS **",
        "custom:visibility": "-> view-external"
      },
      "allIdsByType(uint256,uint256)": {
        "details": "useful for outside reach, shouldn't be used within contracts as a referance",
        "returns": {
          "_0": "allIdsByType is an array of IDs of the given TYPE from Datastore, returns a specific index"
        }
      },
      "approveProposal(uint256)": {
        "details": "OnlySenate is checked inside the GeodeModule"
      },
      "blameOperator(bytes)": {
        "custom:section": "** PRISON **",
        "custom:visibility": "-> external"
      },
      "canStake(bytes)": {
        "custom:visibility": "-> view"
      },
      "changeIdCONTROLLER(uint256,address)": {
        "custom:subsection": "** ONLY CONTROLLER **"
      },
      "changeMaintainer(uint256,address)": {
        "custom:subsection": "** MAINTAINER **"
      },
      "constructor": {
        "custom:oz-upgrades-unsafe-allow": "constructor"
      },
      "delegate(uint256,uint256[],uint256[],uint256)": {
        "custom:section": "** DELEGATION **",
        "custom:visibility": "-> external"
      },
      "deployLiquidityPool(uint256)": {
        "custom:subsection": "** BOUND LIQUIDITY POOL **"
      },
      "deposit(uint256,uint256,bytes32[],uint256,uint256,address)": {
        "custom:section": "** POOLING OPERATIONS **",
        "custom:visibility": "-> external"
      },
      "generateId(string,uint256)": {
        "details": "id is generated by keccak(name, type)"
      },
      "getMaintenanceFee(uint256)": {
        "custom:visibility": "-> view"
      },
      "getValidatorPeriod(uint256)": {
        "custom:visibility": "-> view"
      },
      "increaseWalletBalance(uint256)": {
        "custom:section": "** INTERNAL WALLET **"
      },
      "initiateOperator(uint256,uint256,uint256,address)": {
        "custom:section": "** OPERATOR INITIATORS **",
        "custom:visibility": "-> external"
      },
      "initiatePool(uint256,uint256,address,bytes,bytes,bool[3])": {
        "custom:section": "** STAKING POOL INITIATOR **",
        "custom:visibility": "-> external"
      },
      "isPriceValid(uint256)": {
        "custom:section": "** DEPOSIT GETTERS **",
        "custom:visibility": "-> view-external"
      },
      "isPrisoned(uint256)": {
        "custom:visibility": "-> view"
      },
      "isPrivatePool(uint256)": {
        "custom:visibility": "-> view"
      },
      "isolationMode()": {
        "details": "GeodeModule override",
        "returns": {
          "_0": "isRecovering true if isolationMode is active: * 1. Portal is paused * 2. Portal needs to be upgraded * 3. Senate expired"
        }
      },
      "operatorAllowance(uint256,uint256)": {
        "custom:visibility": "-> view"
      },
      "pause()": {
        "custom:section": "** GOVERNANCE FUNCTIONS **",
        "custom:visibility": "-> external"
      },
      "paused()": {
        "details": "Returns true if the contract is paused, and false otherwise."
      },
      "propose(address,uint256,bytes,uint256)": {
        "custom:subsection": "** ONLY GOVERNANCE **"
      },
      "proposeStake(uint256,uint256,bytes[],bytes[],bytes[])": {
        "custom:section": "** VALIDATOR CREATION **",
        "custom:visibility": "-> external"
      },
      "proxiableUUID()": {
        "details": "Implementation of the ERC1822 {proxiableUUID} function. This returns the storage slot used by the implementation. It is used to validate the implementation's compatibility when performing an upgrade. IMPORTANT: A proxy pointing at a proxiable contract should not be considered proxiable itself, because this risks bricking a proxy that upgrades to it, by delegating to itself until out of gas. Thus it is critical that this function revert if invoked through a proxy. This is guaranteed by the `notDelegated` modifier."
      },
      "readUintArray(uint256,bytes32,uint256)": {
        "custom:section": "** ARRAY GETTER FUNCTIONS **",
        "custom:visibility": "-> view-external"
      },
      "releasePrisoned(uint256)": {
        "details": "in different situations such as a faulty imprisonment or coordinated testing periods * Governance can release the prisonersonlyGovernance SHOULD be checked in Portal"
      },
      "setPoolVisibility(uint256,bool)": {
        "custom:subsection": "** POOL VISIBILITY **"
      },
      "supportsInterface(bytes4)": {
        "details": "See {IERC165-supportsInterface}."
      },
      "switchMaintenanceFee(uint256,uint256)": {
        "custom:subsection": "** FEE **"
      },
      "switchValidatorPeriod(uint256,uint256)": {
        "custom:section": "** OPERATORS PERIOD **",
        "custom:visibility": "-> external"
      },
      "updateVerificationIndex(uint256,bytes[])": {
        "custom:section": "** ORACLE OPERATIONS **",
        "custom:visibility": "-> external"
      },
      "upgradeTo(address)": {
        "details": "Upgrade the implementation of the proxy to `newImplementation`. Calls {_authorizeUpgrade}. Emits an {Upgraded} event."
      },
      "upgradeToAndCall(address,bytes)": {
        "details": "Upgrade the implementation of the proxy to `newImplementation`, and subsequently execute the function call encoded in `data`. Calls {_authorizeUpgrade}. Emits an {Upgraded} event."
      }
    },
    "title": "Geode Portal: Geode Module + Stake Module",
    "version": 1
  },
  "userdoc": {
    "kind": "user",
    "methods": {
      "approveProposal(uint256)": {
        "notice": "approves a specific proposal"
      },
      "generateId(string,uint256)": {
        "notice": "useful function for string inputs - returns same with the DSML.generateId"
      },
      "getKey(uint256,bytes32)": {
        "notice": "useful view function for string inputs - returns same with the DSML.generateId"
      },
      "isolationMode()": {
        "notice": "Isolation Mode is an external view function signaling other contracts * to isolate themselves from Portal. For example, withdrawalContract will not fetch upgrades."
      },
      "releasePrisoned(uint256)": {
        "notice": "releases an imprisoned operator immidately"
      }
    },
    "notice": "Global standard for staking with on chain delegation and customizable staking pools. Management of the state of the protocol governance through dual governance and proposals. Version management and distribution of packages used by the staking pools.",
    "version": 1
  },
  "storageLayout": {
    "storage": [
      {
        "astId": 395,
        "contract": "contracts/Portal/Portal.sol:Portal",
        "label": "_initialized",
        "offset": 0,
        "slot": "0",
        "type": "t_uint8"
      },
      {
        "astId": 398,
        "contract": "contracts/Portal/Portal.sol:Portal",
        "label": "_initializing",
        "offset": 1,
        "slot": "0",
        "type": "t_bool"
      },
      {
        "astId": 9707,
        "contract": "contracts/Portal/Portal.sol:Portal",
        "label": "DATASTORE",
        "offset": 0,
        "slot": "1",
        "type": "t_struct(IsolatedStorage)9947_storage"
      },
      {
        "astId": 1488,
        "contract": "contracts/Portal/Portal.sol:Portal",
        "label": "__gap",
        "offset": 0,
        "slot": "17",
        "type": "t_array(t_uint256)50_storage"
      },
      {
        "astId": 1058,
        "contract": "contracts/Portal/Portal.sol:Portal",
        "label": "__gap",
        "offset": 0,
        "slot": "67",
        "type": "t_array(t_uint256)50_storage"
      },
      {
        "astId": 1004,
        "contract": "contracts/Portal/Portal.sol:Portal",
        "label": "__gap",
        "offset": 0,
        "slot": "117",
        "type": "t_array(t_uint256)50_storage"
      },
      {
        "astId": 1384,
        "contract": "contracts/Portal/Portal.sol:Portal",
        "label": "__gap",
        "offset": 0,
        "slot": "167",
        "type": "t_array(t_uint256)50_storage"
      },
      {
        "astId": 714,
        "contract": "contracts/Portal/Portal.sol:Portal",
        "label": "_paused",
        "offset": 0,
        "slot": "217",
        "type": "t_bool"
      },
      {
        "astId": 819,
        "contract": "contracts/Portal/Portal.sol:Portal",
        "label": "__gap",
        "offset": 0,
        "slot": "218",
        "type": "t_array(t_uint256)49_storage"
      },
      {
        "astId": 834,
        "contract": "contracts/Portal/Portal.sol:Portal",
        "label": "_status",
        "offset": 0,
        "slot": "267",
        "type": "t_uint256"
      },
      {
        "astId": 892,
        "contract": "contracts/Portal/Portal.sol:Portal",
        "label": "__gap",
        "offset": 0,
        "slot": "268",
        "type": "t_array(t_uint256)49_storage"
      },
      {
        "astId": 11665,
        "contract": "contracts/Portal/Portal.sol:Portal",
        "label": "STAKE",
        "offset": 0,
        "slot": "317",
        "type": "t_struct(PooledStaking)13719_storage"
      },
      {
        "astId": 377,
        "contract": "contracts/Portal/Portal.sol:Portal",
        "label": "__gap",
        "offset": 0,
        "slot": "333",
        "type": "t_array(t_uint256)50_storage"
      },
      {
        "astId": 692,
        "contract": "contracts/Portal/Portal.sol:Portal",
        "label": "__gap",
        "offset": 0,
        "slot": "383",
        "type": "t_array(t_uint256)50_storage"
      },
      {
        "astId": 10600,
        "contract": "contracts/Portal/Portal.sol:Portal",
        "label": "GEODE",
        "offset": 0,
        "slot": "433",
        "type": "t_struct(DualGovernance)11082_storage"
      },
      {
        "astId": 8127,
        "contract": "contracts/Portal/Portal.sol:Portal",
        "label": "__gap",
        "offset": 0,
        "slot": "449",
        "type": "t_array(t_uint256)50_storage"
      }
    ],
    "types": {
      "t_address": {
        "encoding": "inplace",
        "label": "address",
        "numberOfBytes": "20"
      },
      "t_array(t_uint256)12_storage": {
        "base": "t_uint256",
        "encoding": "inplace",
        "label": "uint256[12]",
        "numberOfBytes": "384"
      },
      "t_array(t_uint256)2_storage": {
        "base": "t_uint256",
        "encoding": "inplace",
        "label": "uint256[2]",
        "numberOfBytes": "64"
      },
      "t_array(t_uint256)49_storage": {
        "base": "t_uint256",
        "encoding": "inplace",
        "label": "uint256[49]",
        "numberOfBytes": "1568"
      },
      "t_array(t_uint256)50_storage": {
        "base": "t_uint256",
        "encoding": "inplace",
        "label": "uint256[50]",
        "numberOfBytes": "1600"
      },
      "t_array(t_uint256)9_storage": {
        "base": "t_uint256",
        "encoding": "inplace",
        "label": "uint256[9]",
        "numberOfBytes": "288"
      },
      "t_array(t_uint256)dyn_storage": {
        "base": "t_uint256",
        "encoding": "dynamic_array",
        "label": "uint256[]",
        "numberOfBytes": "32"
      },
      "t_bool": {
        "encoding": "inplace",
        "label": "bool",
        "numberOfBytes": "1"
      },
      "t_bytes32": {
        "encoding": "inplace",
        "label": "bytes32",
        "numberOfBytes": "32"
      },
      "t_bytes_memory_ptr": {
        "encoding": "bytes",
        "label": "bytes",
        "numberOfBytes": "32"
      },
      "t_bytes_storage": {
        "encoding": "bytes",
        "label": "bytes",
        "numberOfBytes": "32"
      },
      "t_contract(IgETH)8798": {
        "encoding": "inplace",
        "label": "contract IgETH",
        "numberOfBytes": "20"
      },
      "t_mapping(t_bytes32,t_address)": {
        "encoding": "mapping",
        "key": "t_bytes32",
        "label": "mapping(bytes32 => address)",
        "numberOfBytes": "32",
        "value": "t_address"
      },
      "t_mapping(t_bytes32,t_bytes_storage)": {
        "encoding": "mapping",
        "key": "t_bytes32",
        "label": "mapping(bytes32 => bytes)",
        "numberOfBytes": "32",
        "value": "t_bytes_storage"
      },
      "t_mapping(t_bytes32,t_uint256)": {
        "encoding": "mapping",
        "key": "t_bytes32",
        "label": "mapping(bytes32 => uint256)",
        "numberOfBytes": "32",
        "value": "t_uint256"
      },
      "t_mapping(t_bytes_memory_ptr,t_struct(Validator)13676_storage)": {
        "encoding": "mapping",
        "key": "t_bytes_memory_ptr",
        "label": "mapping(bytes => struct StakeModuleLib.Validator)",
        "numberOfBytes": "32",
        "value": "t_struct(Validator)13676_storage"
      },
      "t_mapping(t_uint256,t_array(t_uint256)dyn_storage)": {
        "encoding": "mapping",
        "key": "t_uint256",
        "label": "mapping(uint256 => uint256[])",
        "numberOfBytes": "32",
        "value": "t_array(t_uint256)dyn_storage"
      },
      "t_mapping(t_uint256,t_bool)": {
        "encoding": "mapping",
        "key": "t_uint256",
        "label": "mapping(uint256 => bool)",
        "numberOfBytes": "32",
        "value": "t_bool"
      },
      "t_mapping(t_uint256,t_mapping(t_uint256,t_bool))": {
        "encoding": "mapping",
        "key": "t_uint256",
        "label": "mapping(uint256 => mapping(uint256 => bool))",
        "numberOfBytes": "32",
        "value": "t_mapping(t_uint256,t_bool)"
      },
      "t_mapping(t_uint256,t_struct(Proposal)11060_storage)": {
        "encoding": "mapping",
        "key": "t_uint256",
        "label": "mapping(uint256 => struct GeodeModuleLib.Proposal)",
        "numberOfBytes": "32",
        "value": "t_struct(Proposal)11060_storage"
      },
      "t_mapping(t_uint256,t_uint256)": {
        "encoding": "mapping",
        "key": "t_uint256",
        "label": "mapping(uint256 => uint256)",
        "numberOfBytes": "32",
        "value": "t_uint256"
      },
      "t_struct(DualGovernance)11082_storage": {
        "encoding": "inplace",
        "label": "struct GeodeModuleLib.DualGovernance",
        "members": [
          {
            "astId": 11062,
            "contract": "contracts/Portal/Portal.sol:Portal",
            "label": "GOVERNANCE",
            "offset": 0,
            "slot": "0",
            "type": "t_address"
          },
          {
            "astId": 11064,
            "contract": "contracts/Portal/Portal.sol:Portal",
            "label": "SENATE",
            "offset": 0,
            "slot": "1",
            "type": "t_address"
          },
          {
            "astId": 11066,
            "contract": "contracts/Portal/Portal.sol:Portal",
            "label": "APPROVED_UPGRADE",
            "offset": 0,
            "slot": "2",
            "type": "t_address"
          },
          {
            "astId": 11068,
            "contract": "contracts/Portal/Portal.sol:Portal",
            "label": "SENATE_EXPIRY",
            "offset": 0,
            "slot": "3",
            "type": "t_uint256"
          },
          {
            "astId": 11070,
            "contract": "contracts/Portal/Portal.sol:Portal",
            "label": "PACKAGE_TYPE",
            "offset": 0,
            "slot": "4",
            "type": "t_uint256"
          },
          {
            "astId": 11072,
            "contract": "contracts/Portal/Portal.sol:Portal",
            "label": "CONTRACT_VERSION",
            "offset": 0,
            "slot": "5",
            "type": "t_uint256"
          },
          {
            "astId": 11077,
            "contract": "contracts/Portal/Portal.sol:Portal",
            "label": "proposals",
            "offset": 0,
            "slot": "6",
            "type": "t_mapping(t_uint256,t_struct(Proposal)11060_storage)"
          },
          {
            "astId": 11081,
            "contract": "contracts/Portal/Portal.sol:Portal",
            "label": "__gap",
            "offset": 0,
            "slot": "7",
            "type": "t_array(t_uint256)9_storage"
          }
        ],
        "numberOfBytes": "512"
      },
      "t_struct(IsolatedStorage)9947_storage": {
        "encoding": "inplace",
        "label": "struct DataStoreModuleLib.IsolatedStorage",
        "members": [
          {
            "astId": 9930,
            "contract": "contracts/Portal/Portal.sol:Portal",
            "label": "allIdsByType",
            "offset": 0,
            "slot": "0",
            "type": "t_mapping(t_uint256,t_array(t_uint256)dyn_storage)"
          },
          {
            "astId": 9934,
            "contract": "contracts/Portal/Portal.sol:Portal",
            "label": "uintData",
            "offset": 0,
            "slot": "1",
            "type": "t_mapping(t_bytes32,t_uint256)"
          },
          {
            "astId": 9938,
            "contract": "contracts/Portal/Portal.sol:Portal",
            "label": "bytesData",
            "offset": 0,
            "slot": "2",
            "type": "t_mapping(t_bytes32,t_bytes_storage)"
          },
          {
            "astId": 9942,
            "contract": "contracts/Portal/Portal.sol:Portal",
            "label": "addressData",
            "offset": 0,
            "slot": "3",
            "type": "t_mapping(t_bytes32,t_address)"
          },
          {
            "astId": 9946,
            "contract": "contracts/Portal/Portal.sol:Portal",
            "label": "__gap",
            "offset": 0,
            "slot": "4",
            "type": "t_array(t_uint256)12_storage"
          }
        ],
        "numberOfBytes": "512"
      },
      "t_struct(PooledStaking)13719_storage": {
        "encoding": "inplace",
        "label": "struct StakeModuleLib.PooledStaking",
        "members": [
          {
            "astId": 13679,
            "contract": "contracts/Portal/Portal.sol:Portal",
            "label": "gETH",
            "offset": 0,
            "slot": "0",
            "type": "t_contract(IgETH)8798"
          },
          {
            "astId": 13681,
            "contract": "contracts/Portal/Portal.sol:Portal",
            "label": "ORACLE_POSITION",
            "offset": 0,
            "slot": "1",
            "type": "t_address"
          },
          {
            "astId": 13683,
            "contract": "contracts/Portal/Portal.sol:Portal",
            "label": "VALIDATORS_INDEX",
            "offset": 0,
            "slot": "2",
            "type": "t_uint256"
          },
          {
            "astId": 13685,
            "contract": "contracts/Portal/Portal.sol:Portal",
            "label": "VERIFICATION_INDEX",
            "offset": 0,
            "slot": "3",
            "type": "t_uint256"
          },
          {
            "astId": 13687,
            "contract": "contracts/Portal/Portal.sol:Portal",
            "label": "MONOPOLY_THRESHOLD",
            "offset": 0,
            "slot": "4",
            "type": "t_uint256"
          },
          {
            "astId": 13689,
            "contract": "contracts/Portal/Portal.sol:Portal",
            "label": "ORACLE_UPDATE_TIMESTAMP",
            "offset": 0,
            "slot": "5",
            "type": "t_uint256"
          },
          {
            "astId": 13691,
            "contract": "contracts/Portal/Portal.sol:Portal",
            "label": "DAILY_PRICE_INCREASE_LIMIT",
            "offset": 0,
            "slot": "6",
            "type": "t_uint256"
          },
          {
            "astId": 13693,
            "contract": "contracts/Portal/Portal.sol:Portal",
            "label": "DAILY_PRICE_DECREASE_LIMIT",
            "offset": 0,
            "slot": "7",
            "type": "t_uint256"
          },
          {
            "astId": 13695,
            "contract": "contracts/Portal/Portal.sol:Portal",
            "label": "GOVERNANCE_FEE",
            "offset": 0,
            "slot": "8",
            "type": "t_uint256"
          },
          {
            "astId": 13697,
            "contract": "contracts/Portal/Portal.sol:Portal",
            "label": "PRICE_MERKLE_ROOT",
            "offset": 0,
            "slot": "9",
            "type": "t_bytes32"
          },
          {
            "astId": 13699,
            "contract": "contracts/Portal/Portal.sol:Portal",
            "label": "BALANCE_MERKLE_ROOT",
            "offset": 0,
            "slot": "10",
            "type": "t_bytes32"
          },
          {
            "astId": 13704,
            "contract": "contracts/Portal/Portal.sol:Portal",
            "label": "validators",
            "offset": 0,
            "slot": "11",
            "type": "t_mapping(t_bytes_memory_ptr,t_struct(Validator)13676_storage)"
          },
          {
            "astId": 13708,
            "contract": "contracts/Portal/Portal.sol:Portal",
            "label": "packages",
            "offset": 0,
            "slot": "12",
            "type": "t_mapping(t_uint256,t_uint256)"
          },
          {
            "astId": 13714,
            "contract": "contracts/Portal/Portal.sol:Portal",
            "label": "middlewares",
            "offset": 0,
            "slot": "13",
            "type": "t_mapping(t_uint256,t_mapping(t_uint256,t_bool))"
          },
          {
            "astId": 13718,
            "contract": "contracts/Portal/Portal.sol:Portal",
            "label": "__gap",
            "offset": 0,
            "slot": "14",
            "type": "t_array(t_uint256)2_storage"
          }
        ],
        "numberOfBytes": "512"
      },
      "t_struct(Proposal)11060_storage": {
        "encoding": "inplace",
        "label": "struct GeodeModuleLib.Proposal",
        "members": [
          {
            "astId": 11053,
            "contract": "contracts/Portal/Portal.sol:Portal",
            "label": "CONTROLLER",
            "offset": 0,
            "slot": "0",
            "type": "t_address"
          },
          {
            "astId": 11055,
            "contract": "contracts/Portal/Portal.sol:Portal",
            "label": "TYPE",
            "offset": 0,
            "slot": "1",
            "type": "t_uint256"
          },
          {
            "astId": 11057,
            "contract": "contracts/Portal/Portal.sol:Portal",
            "label": "NAME",
            "offset": 0,
            "slot": "2",
            "type": "t_bytes_storage"
          },
          {
            "astId": 11059,
            "contract": "contracts/Portal/Portal.sol:Portal",
            "label": "deadline",
            "offset": 0,
            "slot": "3",
            "type": "t_uint256"
          }
        ],
        "numberOfBytes": "128"
      },
      "t_struct(Validator)13676_storage": {
        "encoding": "inplace",
        "label": "struct StakeModuleLib.Validator",
        "members": [
          {
            "astId": 13657,
            "contract": "contracts/Portal/Portal.sol:Portal",
            "label": "state",
            "offset": 0,
            "slot": "0",
            "type": "t_uint64"
          },
          {
            "astId": 13659,
            "contract": "contracts/Portal/Portal.sol:Portal",
            "label": "index",
            "offset": 8,
            "slot": "0",
            "type": "t_uint64"
          },
          {
            "astId": 13661,
            "contract": "contracts/Portal/Portal.sol:Portal",
            "label": "createdAt",
            "offset": 16,
            "slot": "0",
            "type": "t_uint64"
          },
          {
            "astId": 13663,
            "contract": "contracts/Portal/Portal.sol:Portal",
            "label": "period",
            "offset": 24,
            "slot": "0",
            "type": "t_uint64"
          },
          {
            "astId": 13665,
            "contract": "contracts/Portal/Portal.sol:Portal",
            "label": "poolId",
            "offset": 0,
            "slot": "1",
            "type": "t_uint256"
          },
          {
            "astId": 13667,
            "contract": "contracts/Portal/Portal.sol:Portal",
            "label": "operatorId",
            "offset": 0,
            "slot": "2",
            "type": "t_uint256"
          },
          {
            "astId": 13669,
            "contract": "contracts/Portal/Portal.sol:Portal",
            "label": "poolFee",
            "offset": 0,
            "slot": "3",
            "type": "t_uint256"
          },
          {
            "astId": 13671,
            "contract": "contracts/Portal/Portal.sol:Portal",
            "label": "operatorFee",
            "offset": 0,
            "slot": "4",
            "type": "t_uint256"
          },
          {
            "astId": 13673,
            "contract": "contracts/Portal/Portal.sol:Portal",
            "label": "governanceFee",
            "offset": 0,
            "slot": "5",
            "type": "t_uint256"
          },
          {
            "astId": 13675,
            "contract": "contracts/Portal/Portal.sol:Portal",
            "label": "signature31",
            "offset": 0,
            "slot": "6",
            "type": "t_bytes_storage"
          }
        ],
        "numberOfBytes": "224"
      },
      "t_uint256": {
        "encoding": "inplace",
        "label": "uint256",
        "numberOfBytes": "32"
      },
      "t_uint64": {
        "encoding": "inplace",
        "label": "uint64",
        "numberOfBytes": "8"
      },
      "t_uint8": {
        "encoding": "inplace",
        "label": "uint8",
        "numberOfBytes": "1"
      }
    }
  }
}