{
  "address": "0xB0334F08dEC465Ec180F1AF04C6D7d3737407083",
  "abi": [
    {
      "anonymous": false,
      "inputs": [
        {
          "indexed": false,
          "internalType": "address",
          "name": "previousAdmin",
          "type": "address"
        },
        {
          "indexed": false,
          "internalType": "address",
          "name": "newAdmin",
          "type": "address"
        }
      ],
      "name": "AdminChanged",
      "type": "event"
    },
    {
      "anonymous": false,
      "inputs": [
        {
          "indexed": true,
          "internalType": "bytes",
          "name": "pubkey",
          "type": "bytes"
        }
      ],
      "name": "Alienated",
      "type": "event"
    },
    {
      "anonymous": false,
      "inputs": [
        {
          "indexed": false,
          "internalType": "bytes[]",
          "name": "pubkeys",
          "type": "bytes[]"
        }
      ],
      "name": "BeaconStaked",
      "type": "event"
    },
    {
      "anonymous": false,
      "inputs": [
        {
          "indexed": true,
          "internalType": "address",
          "name": "beacon",
          "type": "address"
        }
      ],
      "name": "BeaconUpgraded",
      "type": "event"
    },
    {
      "anonymous": false,
      "inputs": [
        {
          "indexed": false,
          "internalType": "uint256",
          "name": "version",
          "type": "uint256"
        }
      ],
      "name": "ContractVersionSet",
      "type": "event"
    },
    {
      "anonymous": false,
      "inputs": [
        {
          "indexed": true,
          "internalType": "uint256",
          "name": "id",
          "type": "uint256"
        },
        {
          "indexed": false,
          "internalType": "address",
          "name": "newCONTROLLER",
          "type": "address"
        }
      ],
      "name": "ControllerChanged",
      "type": "event"
    },
    {
      "anonymous": false,
      "inputs": [
        {
          "indexed": true,
          "internalType": "uint256",
          "name": "poolId",
          "type": "uint256"
        },
        {
          "indexed": false,
          "internalType": "uint256",
          "name": "boughtgETH",
          "type": "uint256"
        },
        {
          "indexed": false,
          "internalType": "uint256",
          "name": "mintedgETH",
          "type": "uint256"
        }
      ],
      "name": "Deposit",
      "type": "event"
    },
    {
      "anonymous": false,
      "inputs": [
        {
          "indexed": false,
          "internalType": "uint256",
          "name": "TYPE",
          "type": "uint256"
        },
        {
          "indexed": false,
          "internalType": "bool",
          "name": "isElector",
          "type": "bool"
        }
      ],
      "name": "ElectorTypeSet",
      "type": "event"
    },
    {
      "anonymous": false,
      "inputs": [
        {
          "indexed": true,
          "internalType": "uint256",
          "name": "id",
          "type": "uint256"
        },
        {
          "indexed": false,
          "internalType": "uint256",
          "name": "fee",
          "type": "uint256"
        },
        {
          "indexed": false,
          "internalType": "uint256",
          "name": "effectiveAfter",
          "type": "uint256"
        }
      ],
      "name": "FeeSwitched",
      "type": "event"
    },
    {
      "anonymous": false,
      "inputs": [
        {
          "indexed": true,
          "internalType": "uint256",
          "name": "id",
          "type": "uint256"
        },
        {
          "indexed": false,
          "internalType": "bytes",
          "name": "proofs",
          "type": "bytes"
        }
      ],
      "name": "FeeTheft",
      "type": "event"
    },
    {
      "anonymous": false,
      "inputs": [
        {
          "indexed": false,
          "internalType": "uint256",
          "name": "newFee",
          "type": "uint256"
        }
      ],
      "name": "GovernanceFeeUpdated",
      "type": "event"
    },
    {
      "anonymous": false,
      "inputs": [
        {
          "indexed": true,
          "internalType": "uint256",
          "name": "id",
          "type": "uint256"
        },
        {
          "indexed": true,
          "internalType": "uint256",
          "name": "TYPE",
          "type": "uint256"
        }
      ],
      "name": "IdInitiated",
      "type": "event"
    },
    {
      "anonymous": false,
      "inputs": [
        {
          "indexed": false,
          "internalType": "uint8",
          "name": "version",
          "type": "uint8"
        }
      ],
      "name": "Initialized",
      "type": "event"
    },
    {
      "anonymous": false,
      "inputs": [
        {
          "indexed": true,
          "internalType": "uint256",
          "name": "id",
          "type": "uint256"
        },
        {
          "indexed": false,
          "internalType": "address",
          "name": "newMaintainer",
          "type": "address"
        }
      ],
      "name": "MaintainerChanged",
      "type": "event"
    },
    {
      "anonymous": false,
      "inputs": [
        {
          "indexed": false,
          "internalType": "address",
          "name": "senate",
          "type": "address"
        },
        {
          "indexed": false,
          "internalType": "uint256",
          "name": "senateExpiry",
          "type": "uint256"
        }
      ],
      "name": "NewSenate",
      "type": "event"
    },
    {
      "anonymous": false,
      "inputs": [
        {
          "indexed": true,
          "internalType": "uint256",
          "name": "poolId",
          "type": "uint256"
        },
        {
          "indexed": true,
          "internalType": "uint256",
          "name": "operatorId",
          "type": "uint256"
        },
        {
          "indexed": false,
          "internalType": "uint256",
          "name": "allowance",
          "type": "uint256"
        }
      ],
      "name": "OperatorApproval",
      "type": "event"
    },
    {
      "anonymous": false,
      "inputs": [
        {
          "indexed": false,
          "internalType": "bytes32",
          "name": "merkleRoot",
          "type": "bytes32"
        },
        {
          "indexed": false,
          "internalType": "uint256",
          "name": "monopolyThreshold",
          "type": "uint256"
        }
      ],
      "name": "OracleReported",
      "type": "event"
    },
    {
      "anonymous": false,
      "inputs": [
        {
          "indexed": false,
          "internalType": "address",
          "name": "account",
          "type": "address"
        }
      ],
      "name": "Paused",
      "type": "event"
    },
    {
      "anonymous": false,
      "inputs": [
        {
          "indexed": true,
          "internalType": "uint256",
          "name": "id",
          "type": "uint256"
        },
        {
          "indexed": false,
          "internalType": "bytes",
          "name": "proof",
          "type": "bytes"
        },
        {
          "indexed": false,
          "internalType": "uint256",
          "name": "releaseTimestamp",
          "type": "uint256"
        }
      ],
      "name": "Prisoned",
      "type": "event"
    },
    {
      "anonymous": false,
      "inputs": [
        {
          "indexed": false,
          "internalType": "uint256",
          "name": "id",
          "type": "uint256"
        }
      ],
      "name": "ProposalApproved",
      "type": "event"
    },
    {
      "anonymous": false,
      "inputs": [
        {
          "indexed": true,
          "internalType": "uint256",
          "name": "poolId",
          "type": "uint256"
        },
        {
          "indexed": false,
          "internalType": "uint256",
          "name": "operatorId",
          "type": "uint256"
        },
        {
          "indexed": false,
          "internalType": "bytes[]",
          "name": "pubkeys",
          "type": "bytes[]"
        }
      ],
      "name": "ProposalStaked",
      "type": "event"
    },
    {
      "anonymous": false,
      "inputs": [
        {
          "indexed": false,
          "internalType": "uint256",
          "name": "id",
          "type": "uint256"
        },
        {
          "indexed": false,
          "internalType": "address",
          "name": "CONTROLLER",
          "type": "address"
        },
        {
          "indexed": true,
          "internalType": "uint256",
          "name": "TYPE",
          "type": "uint256"
        },
        {
          "indexed": false,
          "internalType": "uint256",
          "name": "deadline",
          "type": "uint256"
        }
      ],
      "name": "Proposed",
      "type": "event"
    },
    {
      "anonymous": false,
      "inputs": [
        {
          "indexed": true,
          "internalType": "uint256",
          "name": "id",
          "type": "uint256"
        }
      ],
      "name": "Released",
      "type": "event"
    },
    {
      "anonymous": false,
      "inputs": [
        {
          "indexed": false,
          "internalType": "address",
          "name": "account",
          "type": "address"
        }
      ],
      "name": "Unpaused",
      "type": "event"
    },
    {
      "anonymous": false,
      "inputs": [
        {
          "indexed": true,
          "internalType": "address",
          "name": "implementation",
          "type": "address"
        }
      ],
      "name": "Upgraded",
      "type": "event"
    },
    {
      "anonymous": false,
      "inputs": [
        {
          "indexed": true,
          "internalType": "uint256",
          "name": "id",
          "type": "uint256"
        },
        {
          "indexed": false,
          "internalType": "uint256",
          "name": "period",
          "type": "uint256"
        },
        {
          "indexed": false,
          "internalType": "uint256",
          "name": "effectiveAfter",
          "type": "uint256"
        }
      ],
      "name": "ValidatorPeriodSwitched",
      "type": "event"
    },
    {
      "anonymous": false,
      "inputs": [
        {
          "indexed": false,
          "internalType": "uint256",
          "name": "validatorVerificationIndex",
          "type": "uint256"
        }
      ],
      "name": "VerificationIndexUpdated",
      "type": "event"
    },
    {
      "anonymous": false,
      "inputs": [
        {
          "indexed": true,
          "internalType": "uint256",
          "name": "proposalId",
          "type": "uint256"
        },
        {
          "indexed": true,
          "internalType": "uint256",
          "name": "voterId",
          "type": "uint256"
        }
      ],
      "name": "Vote",
      "type": "event"
    },
    {
      "stateMutability": "payable",
      "type": "fallback"
    },
    {
      "inputs": [],
      "name": "CONTRACT_VERSION",
      "outputs": [
        {
          "internalType": "uint256",
          "name": "",
          "type": "uint256"
        }
      ],
      "stateMutability": "view",
      "type": "function"
    },
    {
      "inputs": [],
      "name": "Do_we_care",
      "outputs": [
        {
          "internalType": "bool",
          "name": "",
          "type": "bool"
        }
      ],
      "stateMutability": "pure",
      "type": "function"
    },
    {
      "inputs": [],
      "name": "GeodeParams",
      "outputs": [
        {
          "internalType": "address",
          "name": "SENATE",
          "type": "address"
        },
        {
          "internalType": "address",
          "name": "GOVERNANCE",
          "type": "address"
        },
        {
          "internalType": "uint256",
          "name": "SENATE_EXPIRY",
          "type": "uint256"
        },
        {
          "internalType": "uint256",
          "name": "GOVERNANCE_FEE",
          "type": "uint256"
        }
      ],
      "stateMutability": "view",
      "type": "function"
    },
    {
      "inputs": [],
      "name": "StakingParams",
      "outputs": [
        {
          "internalType": "uint256",
          "name": "VALIDATORS_INDEX",
          "type": "uint256"
        },
        {
          "internalType": "uint256",
          "name": "VERIFICATION_INDEX",
          "type": "uint256"
        },
        {
          "internalType": "uint256",
          "name": "MONOPOLY_THRESHOLD",
          "type": "uint256"
        },
        {
          "internalType": "uint256",
          "name": "EARLY_EXIT_FEE",
          "type": "uint256"
        },
        {
          "internalType": "uint256",
          "name": "ORACLE_UPDATE_TIMESTAMP",
          "type": "uint256"
        },
        {
          "internalType": "uint256",
          "name": "DAILY_PRICE_INCREASE_LIMIT",
          "type": "uint256"
        },
        {
          "internalType": "uint256",
          "name": "DAILY_PRICE_DECREASE_LIMIT",
          "type": "uint256"
        },
        {
          "internalType": "bytes32",
          "name": "PRICE_MERKLE_ROOT",
          "type": "bytes32"
        },
        {
          "internalType": "address",
          "name": "ORACLE_POSITION",
          "type": "address"
        }
      ],
      "stateMutability": "view",
      "type": "function"
    },
    {
      "inputs": [
        {
          "internalType": "uint256",
          "name": "_type",
          "type": "uint256"
        },
        {
          "internalType": "uint256",
          "name": "_index",
          "type": "uint256"
        }
      ],
      "name": "allIdsByType",
      "outputs": [
        {
          "internalType": "uint256",
          "name": "",
          "type": "uint256"
        }
      ],
      "stateMutability": "view",
      "type": "function"
    },
    {
      "inputs": [
        {
          "internalType": "uint256",
          "name": "poolId",
          "type": "uint256"
        },
        {
          "internalType": "uint256[]",
          "name": "operatorIds",
          "type": "uint256[]"
        },
        {
          "internalType": "uint256[]",
          "name": "allowances",
          "type": "uint256[]"
        }
      ],
      "name": "approveOperators",
      "outputs": [],
      "stateMutability": "nonpayable",
      "type": "function"
    },
    {
      "inputs": [
        {
          "internalType": "uint256",
          "name": "id",
          "type": "uint256"
        }
      ],
      "name": "approveProposal",
      "outputs": [],
      "stateMutability": "nonpayable",
      "type": "function"
    },
    {
      "inputs": [
        {
          "internalType": "uint256",
          "name": "proposalId",
          "type": "uint256"
        },
        {
          "internalType": "uint256",
          "name": "electorId",
          "type": "uint256"
        }
      ],
      "name": "approveSenate",
      "outputs": [],
      "stateMutability": "nonpayable",
      "type": "function"
    },
    {
      "inputs": [
        {
          "internalType": "uint256",
          "name": "operatorId",
          "type": "uint256"
        },
        {
          "internalType": "bytes[]",
          "name": "pubkeys",
          "type": "bytes[]"
        }
      ],
      "name": "beaconStake",
      "outputs": [],
      "stateMutability": "nonpayable",
      "type": "function"
    },
    {
      "inputs": [
        {
          "internalType": "bytes",
          "name": "pk",
          "type": "bytes"
        }
      ],
      "name": "blameOperator",
      "outputs": [],
      "stateMutability": "nonpayable",
      "type": "function"
    },
    {
      "inputs": [
        {
          "internalType": "bytes",
          "name": "pubkey",
          "type": "bytes"
        }
      ],
      "name": "canStake",
      "outputs": [
        {
          "internalType": "bool",
          "name": "",
          "type": "bool"
        }
      ],
      "stateMutability": "view",
      "type": "function"
    },
    {
      "inputs": [
        {
          "internalType": "uint256",
          "name": "id",
          "type": "uint256"
        },
        {
          "internalType": "address",
          "name": "newCONTROLLER",
          "type": "address"
        }
      ],
      "name": "changeIdCONTROLLER",
      "outputs": [],
      "stateMutability": "nonpayable",
      "type": "function"
    },
    {
      "inputs": [
        {
          "internalType": "uint256",
          "name": "id",
          "type": "uint256"
        },
        {
          "internalType": "address",
          "name": "newMaintainer",
          "type": "address"
        }
      ],
      "name": "changeMaintainer",
      "outputs": [],
      "stateMutability": "nonpayable",
      "type": "function"
    },
    {
      "inputs": [
        {
          "internalType": "address",
          "name": "_newSenate",
          "type": "address"
        }
      ],
      "name": "changeSenate",
      "outputs": [],
      "stateMutability": "nonpayable",
      "type": "function"
    },
    {
      "inputs": [
        {
          "internalType": "uint256",
          "name": "id",
          "type": "uint256"
        },
        {
          "internalType": "uint256",
          "name": "value",
          "type": "uint256"
        }
      ],
      "name": "decreaseWalletBalance",
      "outputs": [
        {
          "internalType": "bool",
          "name": "success",
          "type": "bool"
        }
      ],
      "stateMutability": "nonpayable",
      "type": "function"
    },
    {
      "inputs": [
        {
          "internalType": "uint256",
          "name": "poolId",
          "type": "uint256"
        }
      ],
      "name": "deployLiquidityPool",
      "outputs": [],
      "stateMutability": "nonpayable",
      "type": "function"
    },
    {
      "inputs": [
        {
          "internalType": "uint256",
          "name": "poolId",
          "type": "uint256"
        },
        {
          "internalType": "uint256",
          "name": "mingETH",
          "type": "uint256"
        },
        {
          "internalType": "uint256",
          "name": "deadline",
          "type": "uint256"
        },
        {
          "internalType": "uint256",
          "name": "price",
          "type": "uint256"
        },
        {
          "internalType": "bytes32[]",
          "name": "priceProof",
          "type": "bytes32[]"
        },
        {
          "internalType": "address",
          "name": "receiver",
          "type": "address"
        }
      ],
      "name": "deposit",
      "outputs": [],
      "stateMutability": "payable",
      "type": "function"
    },
    {
      "inputs": [
        {
          "internalType": "uint256",
          "name": "id",
          "type": "uint256"
        }
      ],
      "name": "fetchWithdrawalContractUpgradeProposal",
      "outputs": [
        {
          "internalType": "uint256",
          "name": "withdrawalContractVersion",
          "type": "uint256"
        }
      ],
      "stateMutability": "nonpayable",
      "type": "function"
    },
    {
      "inputs": [],
      "name": "gETH",
      "outputs": [
        {
          "internalType": "address",
          "name": "",
          "type": "address"
        }
      ],
      "stateMutability": "view",
      "type": "function"
    },
    {
      "inputs": [
        {
          "internalType": "uint256",
          "name": "id",
          "type": "uint256"
        },
        {
          "internalType": "uint256",
          "name": "index",
          "type": "uint256"
        }
      ],
      "name": "gETHInterfaces",
      "outputs": [
        {
          "internalType": "address",
          "name": "",
          "type": "address"
        }
      ],
      "stateMutability": "view",
      "type": "function"
    },
    {
      "inputs": [
        {
          "internalType": "string",
          "name": "_name",
          "type": "string"
        },
        {
          "internalType": "uint256",
          "name": "_type",
          "type": "uint256"
        }
      ],
      "name": "generateId",
      "outputs": [
        {
          "internalType": "uint256",
          "name": "id",
          "type": "uint256"
        }
      ],
      "stateMutability": "pure",
      "type": "function"
    },
    {
      "inputs": [],
      "name": "getContractVersion",
      "outputs": [
        {
          "internalType": "uint256",
          "name": "",
          "type": "uint256"
        }
      ],
      "stateMutability": "view",
      "type": "function"
    },
    {
      "inputs": [
        {
          "internalType": "uint256",
          "name": "_type",
          "type": "uint256"
        }
      ],
      "name": "getDefaultModule",
      "outputs": [
        {
          "internalType": "uint256",
          "name": "_version",
          "type": "uint256"
        }
      ],
      "stateMutability": "view",
      "type": "function"
    },
    {
      "inputs": [
        {
          "internalType": "uint256",
          "name": "_id",
          "type": "uint256"
        },
        {
          "internalType": "bytes32",
          "name": "_param",
          "type": "bytes32"
        }
      ],
      "name": "getKey",
      "outputs": [
        {
          "internalType": "bytes32",
          "name": "key",
          "type": "bytes32"
        }
      ],
      "stateMutability": "pure",
      "type": "function"
    },
    {
      "inputs": [
        {
          "internalType": "uint256",
          "name": "id",
          "type": "uint256"
        }
      ],
      "name": "getMaintenanceFee",
      "outputs": [
        {
          "internalType": "uint256",
          "name": "fee",
          "type": "uint256"
        }
      ],
      "stateMutability": "view",
      "type": "function"
    },
    {
      "inputs": [
        {
          "internalType": "uint256",
          "name": "id",
          "type": "uint256"
        }
      ],
      "name": "getProposal",
      "outputs": [
        {
          "components": [
            {
              "internalType": "address",
              "name": "CONTROLLER",
              "type": "address"
            },
            {
              "internalType": "uint256",
              "name": "TYPE",
              "type": "uint256"
            },
            {
              "internalType": "bytes",
              "name": "NAME",
              "type": "bytes"
            },
            {
              "internalType": "uint256",
              "name": "deadline",
              "type": "uint256"
            }
          ],
          "internalType": "struct GeodeUtils.Proposal",
          "name": "proposal",
          "type": "tuple"
        }
      ],
      "stateMutability": "view",
      "type": "function"
    },
    {
      "inputs": [
        {
          "internalType": "bytes",
          "name": "pubkey",
          "type": "bytes"
        }
      ],
      "name": "getValidator",
      "outputs": [
        {
          "components": [
            {
              "internalType": "uint8",
              "name": "state",
              "type": "uint8"
            },
            {
              "internalType": "uint256",
              "name": "index",
              "type": "uint256"
            },
            {
              "internalType": "uint256",
              "name": "poolId",
              "type": "uint256"
            },
            {
              "internalType": "uint256",
              "name": "operatorId",
              "type": "uint256"
            },
            {
              "internalType": "uint256",
              "name": "poolFee",
              "type": "uint256"
            },
            {
              "internalType": "uint256",
              "name": "operatorFee",
              "type": "uint256"
            },
            {
              "internalType": "uint256",
              "name": "earlyExitFee",
              "type": "uint256"
            },
            {
              "internalType": "uint256",
              "name": "createdAt",
              "type": "uint256"
            },
            {
              "internalType": "uint256",
              "name": "expectedExit",
              "type": "uint256"
            },
            {
              "internalType": "bytes",
              "name": "signature31",
              "type": "bytes"
            }
          ],
          "internalType": "struct StakeUtils.Validator",
          "name": "",
          "type": "tuple"
        }
      ],
      "stateMutability": "view",
      "type": "function"
    },
    {
      "inputs": [
        {
          "internalType": "uint256",
          "name": "poolId",
          "type": "uint256"
        },
        {
          "internalType": "uint256",
          "name": "index",
          "type": "uint256"
        }
      ],
      "name": "getValidatorByPool",
      "outputs": [
        {
          "internalType": "bytes",
          "name": "",
          "type": "bytes"
        }
      ],
      "stateMutability": "view",
      "type": "function"
    },
    {
      "inputs": [
        {
          "internalType": "uint256",
          "name": "id",
          "type": "uint256"
        }
      ],
      "name": "increaseWalletBalance",
      "outputs": [
        {
          "internalType": "bool",
          "name": "success",
          "type": "bool"
        }
      ],
      "stateMutability": "payable",
      "type": "function"
    },
    {
      "inputs": [
        {
          "internalType": "address",
          "name": "_GOVERNANCE",
          "type": "address"
        },
        {
          "internalType": "address",
          "name": "_SENATE",
          "type": "address"
        },
        {
          "internalType": "address",
          "name": "_gETH",
          "type": "address"
        },
        {
          "internalType": "address",
          "name": "_ORACLE_POSITION",
          "type": "address"
        },
        {
          "internalType": "address",
          "name": "_DEFAULT_WITHDRAWAL_CONTRACT_MODULE",
          "type": "address"
        },
        {
          "internalType": "address",
          "name": "_DEFAULT_LP_MODULE",
          "type": "address"
        },
        {
          "internalType": "address",
          "name": "_DEFAULT_LP_TOKEN_MODULE",
          "type": "address"
        },
        {
          "internalType": "address[]",
          "name": "_ALLOWED_GETH_INTERFACE_MODULES",
          "type": "address[]"
        },
        {
          "internalType": "bytes[]",
          "name": "_ALLOWED_GETH_INTERFACE_MODULE_NAMES",
          "type": "bytes[]"
        },
        {
          "internalType": "uint256",
          "name": "_GOVERNANCE_FEE",
          "type": "uint256"
        }
      ],
      "name": "initialize",
      "outputs": [],
      "stateMutability": "nonpayable",
      "type": "function"
    },
    {
      "inputs": [
        {
          "internalType": "uint256",
          "name": "id",
          "type": "uint256"
        },
        {
          "internalType": "uint256",
          "name": "fee",
          "type": "uint256"
        },
        {
          "internalType": "uint256",
          "name": "validatorPeriod",
          "type": "uint256"
        },
        {
          "internalType": "address",
          "name": "maintainer",
          "type": "address"
        }
      ],
      "name": "initiateOperator",
      "outputs": [],
      "stateMutability": "payable",
      "type": "function"
    },
    {
      "inputs": [
        {
          "internalType": "uint256",
          "name": "fee",
          "type": "uint256"
        },
        {
          "internalType": "uint256",
          "name": "interfaceVersion",
          "type": "uint256"
        },
        {
          "internalType": "address",
          "name": "maintainer",
          "type": "address"
        },
        {
          "internalType": "bytes",
          "name": "NAME",
          "type": "bytes"
        },
        {
          "internalType": "bytes",
          "name": "interface_data",
          "type": "bytes"
        },
        {
          "internalType": "bool[3]",
          "name": "config",
          "type": "bool[3]"
        }
      ],
      "name": "initiatePool",
      "outputs": [],
      "stateMutability": "payable",
      "type": "function"
    },
    {
      "inputs": [
        {
          "internalType": "uint256",
          "name": "_type",
          "type": "uint256"
        },
        {
          "internalType": "uint256",
          "name": "_id",
          "type": "uint256"
        }
      ],
      "name": "isAllowedModule",
      "outputs": [
        {
          "internalType": "bool",
          "name": "",
          "type": "bool"
        }
      ],
      "stateMutability": "view",
      "type": "function"
    },
    {
      "inputs": [
        {
          "internalType": "uint256",
          "name": "_TYPE",
          "type": "uint256"
        }
      ],
      "name": "isElector",
      "outputs": [
        {
          "internalType": "bool",
          "name": "",
          "type": "bool"
        }
      ],
      "stateMutability": "view",
      "type": "function"
    },
    {
      "inputs": [
        {
          "internalType": "uint256",
          "name": "poolId",
          "type": "uint256"
        }
      ],
      "name": "isMintingAllowed",
      "outputs": [
        {
          "internalType": "bool",
          "name": "",
          "type": "bool"
        }
      ],
      "stateMutability": "view",
      "type": "function"
    },
    {
      "inputs": [
        {
          "internalType": "uint256",
          "name": "poolId",
          "type": "uint256"
        }
      ],
      "name": "isPriceValid",
      "outputs": [
        {
          "internalType": "bool",
          "name": "",
          "type": "bool"
        }
      ],
      "stateMutability": "view",
      "type": "function"
    },
    {
      "inputs": [
        {
          "internalType": "uint256",
          "name": "operatorId",
          "type": "uint256"
        }
      ],
      "name": "isPrisoned",
      "outputs": [
        {
          "internalType": "bool",
          "name": "",
          "type": "bool"
        }
      ],
      "stateMutability": "view",
      "type": "function"
    },
    {
      "inputs": [
        {
          "internalType": "uint256",
          "name": "poolId",
          "type": "uint256"
        }
      ],
      "name": "isPrivatePool",
      "outputs": [
        {
          "internalType": "bool",
          "name": "",
          "type": "bool"
        }
      ],
      "stateMutability": "view",
      "type": "function"
    },
    {
      "inputs": [
        {
          "internalType": "address",
          "name": "proposedImplementation",
          "type": "address"
        }
      ],
      "name": "isUpgradeAllowed",
      "outputs": [
        {
          "internalType": "bool",
          "name": "",
          "type": "bool"
        }
      ],
      "stateMutability": "view",
      "type": "function"
    },
    {
      "inputs": [
        {
          "internalType": "address",
          "name": "_CONTROLLER",
          "type": "address"
        },
        {
          "internalType": "uint256",
          "name": "_TYPE",
          "type": "uint256"
        },
        {
          "internalType": "bytes",
          "name": "_NAME",
          "type": "bytes"
        },
        {
          "internalType": "uint256",
          "name": "duration",
          "type": "uint256"
        }
      ],
      "name": "newProposal",
      "outputs": [],
      "stateMutability": "nonpayable",
      "type": "function"
    },
    {
      "inputs": [
        {
          "internalType": "address",
          "name": "",
          "type": "address"
        },
        {
          "internalType": "address",
          "name": "",
          "type": "address"
        },
        {
          "internalType": "uint256[]",
          "name": "",
          "type": "uint256[]"
        },
        {
          "internalType": "uint256[]",
          "name": "",
          "type": "uint256[]"
        },
        {
          "internalType": "bytes",
          "name": "",
          "type": "bytes"
        }
      ],
      "name": "onERC1155BatchReceived",
      "outputs": [
        {
          "internalType": "bytes4",
          "name": "",
          "type": "bytes4"
        }
      ],
      "stateMutability": "nonpayable",
      "type": "function"
    },
    {
      "inputs": [
        {
          "internalType": "address",
          "name": "",
          "type": "address"
        },
        {
          "internalType": "address",
          "name": "",
          "type": "address"
        },
        {
          "internalType": "uint256",
          "name": "",
          "type": "uint256"
        },
        {
          "internalType": "uint256",
          "name": "",
          "type": "uint256"
        },
        {
          "internalType": "bytes",
          "name": "",
          "type": "bytes"
        }
      ],
      "name": "onERC1155Received",
      "outputs": [
        {
          "internalType": "bytes4",
          "name": "",
          "type": "bytes4"
        }
      ],
      "stateMutability": "nonpayable",
      "type": "function"
    },
    {
      "inputs": [],
      "name": "pause",
      "outputs": [],
      "stateMutability": "nonpayable",
      "type": "function"
    },
    {
      "inputs": [],
      "name": "paused",
      "outputs": [
        {
          "internalType": "bool",
          "name": "",
          "type": "bool"
        }
      ],
      "stateMutability": "view",
      "type": "function"
    },
    {
      "inputs": [],
      "name": "pausegETH",
      "outputs": [],
      "stateMutability": "nonpayable",
      "type": "function"
    },
    {
      "inputs": [
        {
          "internalType": "uint256",
          "name": "poolId",
          "type": "uint256"
        },
        {
          "internalType": "uint256",
          "name": "price",
          "type": "uint256"
        },
        {
          "internalType": "bytes32[]",
          "name": "priceProofs",
          "type": "bytes32[]"
        }
      ],
      "name": "priceSync",
      "outputs": [],
      "stateMutability": "nonpayable",
      "type": "function"
    },
    {
      "inputs": [
        {
          "internalType": "uint256[]",
          "name": "poolIds",
          "type": "uint256[]"
        },
        {
          "internalType": "uint256[]",
          "name": "prices",
          "type": "uint256[]"
        },
        {
          "internalType": "bytes32[][]",
          "name": "priceProofs",
          "type": "bytes32[][]"
        }
      ],
      "name": "priceSyncBatch",
      "outputs": [],
      "stateMutability": "nonpayable",
      "type": "function"
    },
    {
      "inputs": [
        {
          "internalType": "uint256",
          "name": "poolId",
          "type": "uint256"
        },
        {
          "internalType": "uint256",
          "name": "operatorId",
          "type": "uint256"
        },
        {
          "internalType": "bytes[]",
          "name": "pubkeys",
          "type": "bytes[]"
        },
        {
          "internalType": "bytes[]",
          "name": "signatures1",
          "type": "bytes[]"
        },
        {
          "internalType": "bytes[]",
          "name": "signatures31",
          "type": "bytes[]"
        }
      ],
      "name": "proposeStake",
      "outputs": [],
      "stateMutability": "nonpayable",
      "type": "function"
    },
    {
      "inputs": [],
      "name": "proxiableUUID",
      "outputs": [
        {
          "internalType": "bytes32",
          "name": "",
          "type": "bytes32"
        }
      ],
      "stateMutability": "view",
      "type": "function"
    },
    {
      "inputs": [
        {
          "internalType": "uint256",
          "name": "id",
          "type": "uint256"
        },
        {
          "internalType": "bytes32",
          "name": "key",
          "type": "bytes32"
        },
        {
          "internalType": "uint256",
          "name": "index",
          "type": "uint256"
        }
      ],
      "name": "readAddressArrayForId",
      "outputs": [
        {
          "internalType": "address",
          "name": "data",
          "type": "address"
        }
      ],
      "stateMutability": "view",
      "type": "function"
    },
    {
      "inputs": [
        {
          "internalType": "uint256",
          "name": "id",
          "type": "uint256"
        },
        {
          "internalType": "bytes32",
          "name": "key",
          "type": "bytes32"
        }
      ],
      "name": "readAddressForId",
      "outputs": [
        {
          "internalType": "address",
          "name": "data",
          "type": "address"
        }
      ],
      "stateMutability": "view",
      "type": "function"
    },
    {
      "inputs": [
        {
          "internalType": "uint256",
          "name": "id",
          "type": "uint256"
        },
        {
          "internalType": "bytes32",
          "name": "key",
          "type": "bytes32"
        },
        {
          "internalType": "uint256",
          "name": "index",
          "type": "uint256"
        }
      ],
      "name": "readBytesArrayForId",
      "outputs": [
        {
          "internalType": "bytes",
          "name": "data",
          "type": "bytes"
        }
      ],
      "stateMutability": "view",
      "type": "function"
    },
    {
      "inputs": [
        {
          "internalType": "uint256",
          "name": "id",
          "type": "uint256"
        },
        {
          "internalType": "bytes32",
          "name": "key",
          "type": "bytes32"
        }
      ],
      "name": "readBytesForId",
      "outputs": [
        {
          "internalType": "bytes",
          "name": "data",
          "type": "bytes"
        }
      ],
      "stateMutability": "view",
      "type": "function"
    },
    {
      "inputs": [
        {
          "internalType": "uint256",
          "name": "id",
          "type": "uint256"
        },
        {
          "internalType": "bytes32",
          "name": "key",
          "type": "bytes32"
        },
        {
          "internalType": "uint256",
          "name": "index",
          "type": "uint256"
        }
      ],
      "name": "readUintArrayForId",
      "outputs": [
        {
          "internalType": "uint256",
          "name": "data",
          "type": "uint256"
        }
      ],
      "stateMutability": "view",
      "type": "function"
    },
    {
      "inputs": [
        {
          "internalType": "uint256",
          "name": "id",
          "type": "uint256"
        },
        {
          "internalType": "bytes32",
          "name": "key",
          "type": "bytes32"
        }
      ],
      "name": "readUintForId",
      "outputs": [
        {
          "internalType": "uint256",
          "name": "data",
          "type": "uint256"
        }
      ],
      "stateMutability": "view",
      "type": "function"
    },
    {
      "inputs": [
        {
          "internalType": "uint256[]",
          "name": "feeThefts",
          "type": "uint256[]"
        },
        {
          "internalType": "bytes[]",
          "name": "stolenBlocks",
          "type": "bytes[]"
        }
      ],
      "name": "regulateOperators",
      "outputs": [],
      "stateMutability": "nonpayable",
      "type": "function"
    },
    {
      "inputs": [
        {
          "internalType": "uint256",
          "name": "operatorId",
          "type": "uint256"
        }
      ],
      "name": "releasePrisoned",
      "outputs": [],
      "stateMutability": "nonpayable",
      "type": "function"
    },
    {
      "inputs": [
        {
          "internalType": "bytes32",
          "name": "priceMerkleRoot",
          "type": "bytes32"
        },
        {
          "internalType": "uint256",
          "name": "allValidatorsCount",
          "type": "uint256"
        }
      ],
      "name": "reportOracle",
      "outputs": [],
      "stateMutability": "nonpayable",
      "type": "function"
    },
    {
      "inputs": [
        {
          "internalType": "uint256",
          "name": "fee",
          "type": "uint256"
        }
      ],
      "name": "setEarlyExitFee",
      "outputs": [],
      "stateMutability": "nonpayable",
      "type": "function"
    },
    {
      "inputs": [
        {
          "internalType": "uint256",
          "name": "_TYPE",
          "type": "uint256"
        },
        {
          "internalType": "bool",
          "name": "_isElector",
          "type": "bool"
        }
      ],
      "name": "setElectorType",
      "outputs": [],
      "stateMutability": "nonpayable",
      "type": "function"
    },
    {
      "inputs": [
        {
          "internalType": "uint256",
          "name": "newFee",
          "type": "uint256"
        }
      ],
      "name": "setGovernanceFee",
      "outputs": [],
      "stateMutability": "nonpayable",
      "type": "function"
    },
    {
      "inputs": [
        {
          "internalType": "uint256",
          "name": "poolId",
          "type": "uint256"
        },
        {
          "internalType": "bool",
          "name": "isPrivate",
          "type": "bool"
        }
      ],
      "name": "setPoolVisibility",
      "outputs": [],
      "stateMutability": "nonpayable",
      "type": "function"
    },
    {
      "inputs": [
        {
          "internalType": "uint256",
          "name": "poolId",
          "type": "uint256"
        },
        {
          "internalType": "address",
          "name": "whitelist",
          "type": "address"
        }
      ],
      "name": "setWhitelist",
      "outputs": [],
      "stateMutability": "nonpayable",
      "type": "function"
    },
    {
      "inputs": [
        {
          "internalType": "bytes4",
          "name": "interfaceId",
          "type": "bytes4"
        }
      ],
      "name": "supportsInterface",
      "outputs": [
        {
          "internalType": "bool",
          "name": "",
          "type": "bool"
        }
      ],
      "stateMutability": "view",
      "type": "function"
    },
    {
      "inputs": [
        {
          "internalType": "uint256",
          "name": "id",
          "type": "uint256"
        },
        {
          "internalType": "uint256",
          "name": "newFee",
          "type": "uint256"
        }
      ],
      "name": "switchMaintenanceFee",
      "outputs": [],
      "stateMutability": "nonpayable",
      "type": "function"
    },
    {
      "inputs": [
        {
          "internalType": "uint256",
          "name": "id",
          "type": "uint256"
        },
        {
          "internalType": "uint256",
          "name": "newPeriod",
          "type": "uint256"
        }
      ],
      "name": "switchValidatorPeriod",
      "outputs": [],
      "stateMutability": "nonpayable",
      "type": "function"
    },
    {
      "inputs": [],
      "name": "unpause",
      "outputs": [],
      "stateMutability": "nonpayable",
      "type": "function"
    },
    {
      "inputs": [],
      "name": "unpausegETH",
      "outputs": [],
      "stateMutability": "nonpayable",
      "type": "function"
    },
    {
      "inputs": [
        {
          "internalType": "uint256",
          "name": "validatorVerificationIndex",
          "type": "uint256"
        },
        {
          "internalType": "bytes[]",
          "name": "alienatedPubkeys",
          "type": "bytes[]"
        }
      ],
      "name": "updateVerificationIndex",
      "outputs": [],
      "stateMutability": "nonpayable",
      "type": "function"
    },
    {
      "inputs": [
        {
          "internalType": "address",
          "name": "newImplementation",
          "type": "address"
        }
      ],
      "name": "upgradeTo",
      "outputs": [],
      "stateMutability": "nonpayable",
      "type": "function"
    },
    {
      "inputs": [
        {
          "internalType": "address",
          "name": "newImplementation",
          "type": "address"
        },
        {
          "internalType": "bytes",
          "name": "data",
          "type": "bytes"
        }
      ],
      "name": "upgradeToAndCall",
      "outputs": [],
      "stateMutability": "payable",
      "type": "function"
    },
    {
      "stateMutability": "payable",
      "type": "receive"
    }
  ],
  "numDeployments": 1,
  "solcInputHash": "ade6b4939fda34d609e172906ec4e12a",
  "bytecode": "0x60a06040523060601b60805234801561001757600080fd5b5060805160601c61573962000053600039600081816114d901528181611519015281816118d40152818161191401526119fe01526157396000f3fe6080604052600436106103e45760003560e01c80635c975abb11610206578063adfae66011610117578063cdaba274116100a5578063e02a520811610077578063e02a520814610ce5578063e05ec0a314610d05578063e1c0e73714610d1a578063f23a6e6114610d3a578063fdfb8dd914610d6657005b8063cdaba27414610c7f578063d5357a1a14610c92578063d89da28614610ca5578063dd272bf414610cc557005b8063b784c7bb116100e9578063b784c7bb14610bad578063bc197c8114610bcd578063c0390a6614610c12578063c7f758a814610c32578063cb337b4e14610c5f57005b8063adfae66014610b20578063af6561ef14610b40578063b383a04414610b60578063b4891bfd14610b8057005b80638aa1043511610194578063a270fece11610166578063a270fece14610a6c578063a4ff323f14610a8c578063ac7a7eb314610aa0578063ad4ac4c414610ac0578063ad8655cb14610b0057005b80638aa10435146109e557806398951b56146109fb57806398f2bdf314610a1b5780639be5f69a14610a4c57005b80636d07e404116101d85780636d07e4041461093457806375fcb017146109545780637e1ece9f1461097457806381452e73146109945780638456cb59146109d057005b80635c975abb146108bc5780635e2da4ac146108d45780636655f6df146108f45780636c981d491461091457005b8063357823861161030057806348cf50381161028e5780634f62d616116102605780634f62d6161461082757806352d1902d1461084757806353d152cb1461085c5780635a34bb151461087c5780635b50fea61461089c57005b806348cf5038146107a65780634a84f6f5146107c65780634b34cf98146107e65780634f1ef2861461081457005b80633f4ba83a116102d25780633f4ba83a146107125780634119502114610727578063415431bc1461074657806345eca16d1461076657806347f841c81461078657005b8063357823861461069b5780633659cfe6146106bb57806338b90333146106db5780633c6a05ef146106f257005b806318f2ccde1161037d5780631eee47f11161034f5780631eee47f11461060657806326eef2c01461062657806327cd2aa41461064657806332a6933014610666578063341b3c001461068657005b806318f2ccde1461056e5780631b6f23d0146105a65780631bf1e079146105c65780631da71591146105e657005b80630aea8f4d116103b65780630aea8f4d146104d3578063100f72b614610501578063113743cb1461052157806316c164ea1461054157005b806301ffc9a7146103ed578063020892fe14610422578063041bc623146104a0578063060028ea146104b357005b366103eb57005b005b3480156103f957600080fd5b5061040d61040836600461485a565b610d79565b60405190151581526020015b60405180910390f35b34801561042e57600080fd5b506101b2546101b3546101b4546101b5546101b6546101b7546101b8546101b9546101ba5460408051998a5260208a0198909852968801959095526060870193909352608086019190915260a085015260c084015260e08301526001600160a01b031661010082015261012001610419565b6103eb6104ae366004614d24565b610db0565b3480156104bf57600080fd5b5061040d6104ce3660046149dd565b610e47565b3480156104df57600080fd5b506104f36104ee3660046149dd565b610ed6565b604051908152602001610419565b34801561050d57600080fd5b5061040d61051c3660046149dd565b610f64565b34801561052d57600080fd5b506103eb61053c366004614c78565b610faf565b34801561054d57600080fd5b5061056161055c366004614838565b611046565b6040516104199190614f73565b34801561057a57600080fd5b5061058e610589366004614838565b61105c565b6040516001600160a01b039091168152602001610419565b3480156105b257600080fd5b506103eb6105c1366004614b0f565b61106b565b3480156105d257600080fd5b506103eb6105e13660046149dd565b6110eb565b3480156105f257600080fd5b506104f3610601366004614838565b6111dd565b34801561061257600080fd5b506103eb610621366004614838565b6111e9565b34801561063257600080fd5b506103eb610641366004614a4b565b611238565b34801561065257600080fd5b5061040d6106613660046149dd565b6112b8565b34801561067257600080fd5b506103eb6106813660046149dd565b6112fb565b34801561069257600080fd5b506103eb61136a565b3480156106a757600080fd5b506103eb6106b6366004614838565b61147f565b3480156106c757600080fd5b506103eb6106d6366004614404565b6114ce565b3480156106e757600080fd5b506104f36101c15481565b3480156106fe57600080fd5b506103eb61070d3660046149dd565b6115ae565b34801561071e57600080fd5b506103eb6116b1565b34801561073357600080fd5b506101b1546001600160a01b031661058e565b34801561075257600080fd5b506104f3610761366004614838565b61176f565b34801561077257600080fd5b506104f3610781366004614b34565b61177e565b34801561079257600080fd5b506103eb6107a1366004614b0f565b611796565b3480156107b257600080fd5b5061058e6107c1366004614838565b6117e6565b3480156107d257600080fd5b5061040d6107e1366004614404565b61187b565b3480156107f257600080fd5b506104f36108013660046149dd565b60009081526101bb602052604090205490565b6103eb61082236600461464c565b6118c9565b34801561083357600080fd5b506103eb6108423660046149f6565b61199a565b34801561085357600080fd5b506104f36119f1565b34801561086857600080fd5b506103eb61087736600461443e565b611aa4565b34801561088857600080fd5b506104f36108973660046148c5565b61252f565b3480156108a857600080fd5b506103eb6108b7366004614769565b612566565b3480156108c857600080fd5b5060655460ff1661040d565b3480156108e057600080fd5b506103eb6108ef366004614a4b565b6125ef565b34801561090057600080fd5b506103eb61090f366004614838565b612681565b34801561092057600080fd5b5061056161092f366004614838565b6126d0565b34801561094057600080fd5b506103eb61094f3660046149f6565b6126ed565b34801561096057600080fd5b506103eb61096f3660046149dd565b612744565b34801561098057600080fd5b506103eb61098f366004614c32565b612835565b3480156109a057600080fd5b5061040d6109af366004614838565b60009182526101bc6020908152604080842092845291905290205460ff1690565b3480156109dc57600080fd5b506103eb612882565b3480156109f157600080fd5b506101c1546104f3565b348015610a0757600080fd5b506103eb610a163660046149dd565b61293e565b348015610a2757600080fd5b5061040d610a363660046149dd565b60009081526101a7602052604090205460ff1690565b348015610a5857600080fd5b5061058e610a67366004614b34565b612a36565b348015610a7857600080fd5b5061040d610a87366004614838565b612a46565b348015610a9857600080fd5b50600161040d565b348015610aac57600080fd5b506103eb610abb36600461469b565b612af5565b348015610acc57600080fd5b50610ad5612b8c565b604080516001600160a01b039586168152949093166020850152918301526060820152608001610419565b348015610b0c57600080fd5b506103eb610b1b366004614404565b612db6565b348015610b2c57600080fd5b50610561610b3b366004614b34565b612dfe565b348015610b4c57600080fd5b506103eb610b5b3660046146fe565b612e0e565b348015610b6c57600080fd5b506104f3610b7b3660046149dd565b612e5b565b348015610b8c57600080fd5b50610ba0610b9b366004614884565b612fab565b6040516104199190615466565b348015610bb957600080fd5b506103eb610bc8366004614838565b61312d565b348015610bd957600080fd5b50610bf9610be8366004614537565b63bc197c8160e01b95945050505050565b6040516001600160e01b03199091168152602001610419565b348015610c1e57600080fd5b506103eb610c2d366004614a96565b61317c565b348015610c3e57600080fd5b50610c52610c4d3660046149dd565b613217565b6040516104199190615418565b348015610c6b57600080fd5b5061040d610c7a3660046149dd565b6132da565b61040d610c8d3660046149dd565b61331d565b6103eb610ca0366004614b84565b613360565b348015610cb157600080fd5b506103eb610cc03660046149f6565b61347b565b348015610cd157600080fd5b5061040d610ce0366004614884565b6134d2565b348015610cf157600080fd5b506104f3610d00366004614838565b613566565b348015610d1157600080fd5b506103eb61359a565b348015610d2657600080fd5b506103eb610d35366004614884565b613695565b348015610d4657600080fd5b50610bf9610d553660046145e4565b63f23a6e6160e01b95945050505050565b6103eb610d74366004614d65565b6136de565b60006001600160e01b03198216630271189760e51b1480610daa57506301ffc9a760e01b6001600160e01b03198316145b92915050565b610db86138ae565b604051630c23777960e31b815261019160048201526024810185905260448101849052606481018390526001600160a01b038216608482015273__$3203ba5584f3f9d3a0d8e6013dbecad587$__9063611bbbc89060a4015b60006040518083038186803b158015610e2957600080fd5b505af4158015610e3d573d6000803e3d6000fd5b5050505050505050565b604051635e456b4d60e01b81526101b160048201526024810182905260009073__$3203ba5584f3f9d3a0d8e6013dbecad587$__90635e456b4d906044015b60206040518083038186803b158015610e9e57600080fd5b505af4158015610eb2573d6000803e3d6000fd5b505050506040513d601f19601f82011682018060405250810190610daa9190614802565b6040516329b081f560e11b815261019160048201526024810182905260009073__$3203ba5584f3f9d3a0d8e6013dbecad587$__9063536103ea9060440160206040518083038186803b158015610f2c57600080fd5b505af4158015610f40573d6000803e3d6000fd5b505050506040513d601f19601f82011682018060405250810190610daa919061481f565b604051637b32a3c760e11b81526101b1600482015261019160248201526044810182905260009073__$3203ba5584f3f9d3a0d8e6013dbecad587$__9063f665478e90606401610e86565b610fb76138ae565b610fbf6138f4565b60405163db36470d60e01b815273__$3203ba5584f3f9d3a0d8e6013dbecad587$__9063db36470d9061100c906101b190610191908d908d908d908d908d908d908d908d906004016153b3565b60006040518083038186803b15801561102457600080fd5b505af4158015611038573d6000803e3d6000fd5b50505050610e3d6001603355565b60606110556101918484613955565b9392505050565b60006110556101918484613a07565b6110736138ae565b60405163f6be3c9f60e01b8152610191600482015260248101839052811515604482015273__$3203ba5584f3f9d3a0d8e6013dbecad587$__9063f6be3c9f906064015b60006040518083038186803b1580156110cf57600080fd5b505af41580156110e3573d6000803e3d6000fd5b505050505050565b6110f36138ae565b604051630e29024f60e31b81526101a1600482015273__$470c7289acb57212a69b34ceb5289ef95c$__9063714812789060240160206040518083038186803b15801561113f57600080fd5b505af4158015611153573d6000803e3d6000fd5b505050506040513d601f19601f820116820180604052508101906111779190614421565b6001600160a01b0316336001600160a01b0316146111b05760405162461bcd60e51b81526004016111a79061501e565b60405180910390fd5b60646111c26402540be40060056155d9565b6111cc91906155b7565b81106111d757600080fd5b6101b555565b60006110558383613a3b565b6111f16138ae565b604051633c76eb1160e01b81526101b16004820152602481018390526044810182905273__$88e9f91c78a6ae79a6edc42fa4982a1d74$__90633c76eb11906064016110b7565b6112406138ae565b604051630e5bd51d60e41b815273__$88e9f91c78a6ae79a6edc42fa4982a1d74$__9063e5bd51d09061128390610191906101b190889088908890600401615245565b60006040518083038186803b15801561129b57600080fd5b505af41580156112af573d6000803e3d6000fd5b50505050505050565b6040516321f5589960e11b815261019160048201526024810182905260009073__$3203ba5584f3f9d3a0d8e6013dbecad587$__906343eab13290604401610e86565b6040516358d876db60e01b81526101a160048201526024810182905273__$470c7289acb57212a69b34ceb5289ef95c$__906358d876db906044015b60006040518083038186803b15801561134f57600080fd5b505af4158015611363573d6000803e3d6000fd5b5050505050565b604051630e29024f60e31b81526101a1600482015273__$470c7289acb57212a69b34ceb5289ef95c$__9063714812789060240160206040518083038186803b1580156113b657600080fd5b505af41580156113ca573d6000803e3d6000fd5b505050506040513d601f19601f820116820180604052508101906113ee9190614421565b6001600160a01b0316336001600160a01b03161461141e5760405162461bcd60e51b81526004016111a79061501e565b6101b15460408051638456cb5960e01b815290516001600160a01b0390921691638456cb599160048082019260009290919082900301818387803b15801561146557600080fd5b505af1158015611479573d6000803e3d6000fd5b50505050565b6114876138ae565b604051635742e8bb60e11b81526101916004820152602481018390526044810182905273__$3203ba5584f3f9d3a0d8e6013dbecad587$__9063ae85d176906064016110b7565b306001600160a01b037f00000000000000000000000000000000000000000000000000000000000000001614156115175760405162461bcd60e51b81526004016111a790614f86565b7f00000000000000000000000000000000000000000000000000000000000000006001600160a01b03166115606000805160206156bd833981519152546001600160a01b031690565b6001600160a01b0316146115865760405162461bcd60e51b81526004016111a790614fd2565b61158f81613a67565b604080516000808252602082019092526115ab91839190613b66565b50565b6115b66138ae565b604051630e29024f60e31b81526101a1600482015273__$470c7289acb57212a69b34ceb5289ef95c$__9063714812789060240160206040518083038186803b15801561160257600080fd5b505af4158015611616573d6000803e3d6000fd5b505050506040513d601f19601f8201168201806040525081019061163a9190614421565b6001600160a01b0316336001600160a01b03161461166a5760405162461bcd60e51b81526004016111a79061501e565b61168361019182671c995b19585cd95960c21b42613ce0565b60405181907ffb81f9b30d73d830c3544b34d827c08142579ee75710b490bab0b3995468c56590600090a250565b604051630e29024f60e31b81526101a1600482015273__$470c7289acb57212a69b34ceb5289ef95c$__9063714812789060240160206040518083038186803b1580156116fd57600080fd5b505af4158015611711573d6000803e3d6000fd5b505050506040513d601f19601f820116820180604052508101906117359190614421565b6001600160a01b0316336001600160a01b0316146117655760405162461bcd60e51b81526004016111a79061501e565b61176d613d08565b565b60006110556101918484613d5a565b600061178e610191858585613d84565b949350505050565b604051631cc8ff0360e01b81526101a16004820152610191602482015260448101839052811515606482015273__$470c7289acb57212a69b34ceb5289ef95c$__90631cc8ff03906084016110b7565b604051633f391a7760e21b81526101916004820152602481018390526044810182905260009073__$3203ba5584f3f9d3a0d8e6013dbecad587$__9063fce469dc9060640160206040518083038186803b15801561184357600080fd5b505af4158015611857573d6000803e3d6000fd5b505050506040513d601f19601f820116820180604052508101906110559190614421565b60405160016223f63b60e21b031981526101a160048201526001600160a01b038216602482015260009073__$470c7289acb57212a69b34ceb5289ef95c$__9063ff70271490604401610e86565b306001600160a01b037f00000000000000000000000000000000000000000000000000000000000000001614156119125760405162461bcd60e51b81526004016111a790614f86565b7f00000000000000000000000000000000000000000000000000000000000000006001600160a01b031661195b6000805160206156bd833981519152546001600160a01b031690565b6001600160a01b0316146119815760405162461bcd60e51b81526004016111a790614fd2565b61198a82613a67565b61199682826001613b66565b5050565b6119a26138ae565b60405163d5c3bf6960e01b81526101916004820152602481018390526001600160a01b038216604482015273__$3203ba5584f3f9d3a0d8e6013dbecad587$__9063d5c3bf69906064016110b7565b6000306001600160a01b037f00000000000000000000000000000000000000000000000000000000000000001614611a915760405162461bcd60e51b815260206004820152603860248201527f555550535570677261646561626c653a206d757374206e6f742062652063616c60448201527f6c6564207468726f7567682064656c656761746563616c6c000000000000000060648201526084016111a7565b506000805160206156bd83398151915290565b600054610100900460ff1615808015611ac45750600054600160ff909116105b80611ade5750303b158015611ade575060005460ff166001145b611b415760405162461bcd60e51b815260206004820152602e60248201527f496e697469616c697a61626c653a20636f6e747261637420697320616c72656160448201526d191e481a5b9a5d1a585b1a5e995960921b60648201526084016111a7565b6000805460ff191660011790558015611b64576000805461ff0019166101001790555b611b6c613db8565b611b74613de7565b611b7c613e16565b611b84613e16565b6001600160a01b038d16611be55760405162461bcd60e51b815260206004820152602260248201527f504f5254414c3a20474f5645524e414e43452063616e204e4f54206265205a45604482015261524f60f01b60648201526084016111a7565b6001600160a01b038c16611c3b5760405162461bcd60e51b815260206004820152601e60248201527f504f5254414c3a2053454e4154452063616e204e4f54206265205a45524f000060448201526064016111a7565b6001600160a01b038b16611c915760405162461bcd60e51b815260206004820152601c60248201527f504f5254414c3a20674554482063616e204e4f54206265205a45524f0000000060448201526064016111a7565b6001600160a01b038a16611cf75760405162461bcd60e51b815260206004820152602760248201527f504f5254414c3a204f5241434c455f504f534954494f4e2063616e204e4f54206044820152666265205a45524f60c81b60648201526084016111a7565b6001600160a01b038816611d585760405162461bcd60e51b815260206004820152602260248201527f504f5254414c3a2044454641554c545f4c502063616e204e4f54206265205a45604482015261524f60f01b60648201526084016111a7565b6001600160a01b038716611dbf5760405162461bcd60e51b815260206004820152602860248201527f504f5254414c3a2044454641554c545f4c505f544f4b454e2063616e204e4f54604482015267206265205a45524f60c01b60648201526084016111a7565b6001600160a01b038916611e325760405162461bcd60e51b815260206004820152603460248201527f504f5254414c3a205749544844524157414c5f434f4e54524143545f504f534960448201527354494f4e2063616e204e4f54206265205a45524f60601b60648201526084016111a7565b848314611e975760405162461bcd60e51b815260206004820152602d60248201527f504f5254414c3a2077726f6e67205f414c4c4f5745445f474554485f494e544560448201526c52464143455f4d4f44554c455360981b60648201526084016111a7565b6101a18054336001600160a01b0319918216811783556101a280549092161790556000196101a3556040516358d876db60e01b815260048101919091526024810183905273__$470c7289acb57212a69b34ceb5289ef95c$__906358d876db9060440160006040518083038186803b158015611f1257600080fd5b505af4158015611f26573d6000803e3d6000fd5b5050604051631cc8ff0360e01b81526101a160048201526101916024820152600560448201526001606482015273__$470c7289acb57212a69b34ceb5289ef95c$__9250631cc8ff03915060840160006040518083038186803b158015611f8c57600080fd5b505af4158015611fa0573d6000803e3d6000fd5b505050508a6101b160000160006101000a8154816001600160a01b0302191690836001600160a01b031602179055506000196101b160030181905550896101b160090160006101000a8154816001600160a01b0302191690836001600160a01b0316021790555060646402540be400600561201b91906155d9565b61202591906155b7565b6101b755606461203b6402540be40060056155d9565b61204591906155b7565b6101b855604051635bd2b11360e01b815260009073__$470c7289acb57212a69b34ceb5289ef95c$__90635bd2b11390612093906101a190610191908e9060299062015180906004016150e8565b60206040518083038186803b1580156120ab57600080fd5b505af41580156120bf573d6000803e3d6000fd5b505050506040513d601f19601f820116820180604052508101906120e3919061481f565b90506120ee8161293e565b50604051635bd2b11360e01b815260009073__$470c7289acb57212a69b34ceb5289ef95c$__90635bd2b11390612139906101a190610191908d90602a9062015180906004016150e8565b60206040518083038186803b15801561215157600080fd5b505af4158015612165573d6000803e3d6000fd5b505050506040513d601f19601f82011682018060405250810190612189919061481f565b90506121948161293e565b50604051635bd2b11360e01b815260009073__$470c7289acb57212a69b34ceb5289ef95c$__90635bd2b113906121df906101a190610191908f9060159062015180906004016150e8565b60206040518083038186803b1580156121f757600080fd5b505af415801561220b573d6000803e3d6000fd5b505050506040513d601f19601f8201168201806040525081019061222f919061481f565b905061223a8161293e565b506000805b868110156123d357600088888381811061225b5761225b61566d565b90506020020160208101906122709190614404565b6001600160a01b031614156122dd5760405162461bcd60e51b815260206004820152602d60248201527f504f5254414c3a20474554485f494e544552464143455f4d4f44554c4520636160448201526c6e204e4f54206265205a45524f60981b60648201526084016111a7565b73__$470c7289acb57212a69b34ceb5289ef95c$__635bd2b1136101a16101918b8b8681811061230f5761230f61566d565b90506020020160208101906123249190614404565b601f8b8b888181106123385761233861566d565b905060200281019061234a91906154f2565b620151806040518863ffffffff1660e01b815260040161237097969594939291906150a0565b60206040518083038186803b15801561238857600080fd5b505af415801561239c573d6000803e3d6000fd5b505050506040513d601f19601f820116820180604052508101906123c0919061481f565b91506123cb8261293e565b60010161223f565b5050604051635bd2b11360e01b815260009073__$470c7289acb57212a69b34ceb5289ef95c$__90635bd2b1139061241f906101a19061019190309060029062015180906004016150e8565b60206040518083038186803b15801561243757600080fd5b505af415801561244b573d6000803e3d6000fd5b505050506040513d601f19601f8201168201806040525081019061246f919061481f565b905061247a8161293e565b61248381613e3d565b508c6101a160000160006101000a8154816001600160a01b0302191690836001600160a01b031602179055508b6101a160010160006101000a8154816001600160a01b0302191690836001600160a01b031602179055508015612520576000805461ff0019169055604051600181527f7f26b83ff96e1f2b6a682f133852f6798a09c465da95921460cefb38474024989060200160405180910390a15b50505050505050505050505050565b600083838360405160200161254693929190614f29565b60408051601f198184030181529190528051602090910120949350505050565b61256e6138ae565b604051634f5280e760e11b815273__$88e9f91c78a6ae79a6edc42fa4982a1d74$__90639ea501ce906125b790610191906101b1908b908b908b908b908b908b9060040161516f565b60006040518083038186803b1580156125cf57600080fd5b505af41580156125e3573d6000803e3d6000fd5b50505050505050505050565b6125f76138ae565b6125ff6138f4565b60405163431f86f760e01b815273__$3203ba5584f3f9d3a0d8e6013dbecad587$__9063431f86f790612642906101b19061019190889088908890600401615245565b60006040518083038186803b15801561265a57600080fd5b505af415801561266e573d6000803e3d6000fd5b5050505061267c6001603355565b505050565b60405163791150f560e01b81526101a160048201526101916024820152604481018390526064810182905273__$470c7289acb57212a69b34ceb5289ef95c$__9063791150f5906084016110b7565b6060611055610191846976616c696461746f727360b01b85613e8a565b6126f56138ae565b6040516354b5b0fd60e11b81526101916004820152602481018390526001600160a01b038216604482015273__$470c7289acb57212a69b34ceb5289ef95c$__9063a96b61fa906064016110b7565b61274c6138ae565b604051630e29024f60e31b81526101a1600482015273__$3203ba5584f3f9d3a0d8e6013dbecad587$__90637d387c22906101b19061019190859073__$470c7289acb57212a69b34ceb5289ef95c$__9063714812789060240160206040518083038186803b1580156127be57600080fd5b505af41580156127d2573d6000803e3d6000fd5b505050506040513d601f19601f820116820180604052508101906127f69190614421565b6040516001600160e01b031960e087901b1681526004810194909452602484019290925260448301526001600160a01b03166064820152608401611337565b61283d6138ae565b6040516347e3e2cb60e01b815273__$88e9f91c78a6ae79a6edc42fa4982a1d74$__906347e3e2cb90610e1190610191906101b1908990899089908990600401615276565b604051630e29024f60e31b81526101a1600482015273__$470c7289acb57212a69b34ceb5289ef95c$__9063714812789060240160206040518083038186803b1580156128ce57600080fd5b505af41580156128e2573d6000803e3d6000fd5b505050506040513d601f19601f820116820180604052508101906129069190614421565b6001600160a01b0316336001600160a01b0316146129365760405162461bcd60e51b81526004016111a79061501e565b61176d613f41565b60405163d9fc310f60e01b81526101a1600482015261019160248201526044810182905260009073__$470c7289acb57212a69b34ceb5289ef95c$__9063d9fc310f90606401604080518083038186803b15801561299b57600080fd5b505af41580156129af573d6000803e3d6000fd5b505050506040513d601f19601f820116820180604052508101906129d39190614a26565b50905060158114806129e55750602981145b806129f05750602a81145b15612a075760009081526101bb6020526040902055565b601f8114156119965760009081526101bc6020908152604080832093835292905220805460ff19166001179055565b600061178e610191858585613f7e565b6000612a506138ae565b612a586138f4565b60405162ae09bb60e71b81526101916004820152602481018490526044810183905273__$3203ba5584f3f9d3a0d8e6013dbecad587$__90635704dd809060640160206040518083038186803b158015612ab157600080fd5b505af4158015612ac5573d6000803e3d6000fd5b505050506040513d601f19601f82011682018060405250810190612ae99190614802565b9050610daa6001603355565b604051635bd2b11360e01b815273__$470c7289acb57212a69b34ceb5289ef95c$__90635bd2b11390612b3c906101a190610191908a908a908a908a908a906004016150a0565b60206040518083038186803b158015612b5457600080fd5b505af4158015612b68573d6000803e3d6000fd5b505050506040513d601f19601f820116820180604052508101906110e3919061481f565b60405163071a0e5560e21b81526101a1600482015260009081908190819073__$470c7289acb57212a69b34ceb5289ef95c$__90631c6839549060240160206040518083038186803b158015612be157600080fd5b505af4158015612bf5573d6000803e3d6000fd5b505050506040513d601f19601f82011682018060405250810190612c199190614421565b604051630e29024f60e31b81526101a1600482015290945073__$470c7289acb57212a69b34ceb5289ef95c$__9063714812789060240160206040518083038186803b158015612c6857600080fd5b505af4158015612c7c573d6000803e3d6000fd5b505050506040513d601f19601f82011682018060405250810190612ca09190614421565b604051636797415560e01b81526101a1600482015290935073__$470c7289acb57212a69b34ceb5289ef95c$__9063679741559060240160206040518083038186803b158015612cef57600080fd5b505af4158015612d03573d6000803e3d6000fd5b505050506040513d601f19601f82011682018060405250810190612d27919061481f565b6040516376d1ba9d60e01b81526101a1600482015290925073__$470c7289acb57212a69b34ceb5289ef95c$__906376d1ba9d9060240160206040518083038186803b158015612d7657600080fd5b505af4158015612d8a573d6000803e3d6000fd5b505050506040513d601f19601f82011682018060405250810190612dae919061481f565b905090919293565b60405163058ba25360e31b81526101a160048201526001600160a01b038216602482015273__$470c7289acb57212a69b34ceb5289ef95c$__90632c5d129890604401611337565b606061178e610191858585613e8a565b612e166138ae565b604051634875990960e01b815273__$88e9f91c78a6ae79a6edc42fa4982a1d74$__90634875990990610e1190610191906101b190899089908990899060040161512f565b60156000526101bb6020527fe5751c437f312c66256e1a83681c9e2484cc12bbcf10c4abda745269cb461b8754604051639edf974f60e01b815261019160048201526024810183905273__$3203ba5584f3f9d3a0d8e6013dbecad587$__90639edf974f9060440160206040518083038186803b158015612edb57600080fd5b505af4158015612eef573d6000803e3d6000fd5b505050506040513d601f19601f82011682018060405250810190612f139190614421565b6001600160a01b031663ac7a7eb3612f3b610191846921a7a72a2927a62622a960b11b613a07565b6002612f5161019186634e414d4560e01b613955565b6224ea006040518563ffffffff1660e01b8152600401612f749493929190614f3b565b600060405180830381600087803b158015612f8e57600080fd5b505af1158015612fa2573d6000803e3d6000fd5b50505050919050565b613004604051806101400160405280600060ff1681526020016000815260200160008152602001600081526020016000815260200160008152602001600081526020016000815260200160008152602001606081525090565b6040516101bd906130189085908590614efd565b90815260408051918290036020908101832061014084018352805460ff1684526001810154918401919091526002810154918301919091526003810154606083015260048101546080830152600581015460a0830152600681015460c0830152600781015460e08301526008810154610100830152600981018054610120840191906130a390615632565b80601f01602080910402602001604051908101604052809291908181526020018280546130cf90615632565b801561311c5780601f106130f15761010080835404028352916020019161311c565b820191906000526020600020905b8154815290600101906020018083116130ff57829003601f168201915b505050505081525050905092915050565b6131356138ae565b604051633522282b60e21b81526101916004820152602481018390526044810182905273__$3203ba5584f3f9d3a0d8e6013dbecad587$__9063d488a0ac906064016110b7565b6131846138ae565b60405163969bb50960e01b815273__$3203ba5584f3f9d3a0d8e6013dbecad587$__9063969bb509906131c79061019190899089908990899089906004016152ae565b60206040518083038186803b1580156131df57600080fd5b505af41580156131f3573d6000803e3d6000fd5b505050506040513d601f19601f820116820180604052508101906110e39190614802565b61324b604051806080016040528060006001600160a01b031681526020016000815260200160608152602001600081525090565b60405163d0e7d61960e01b81526101a160048201526024810183905273__$470c7289acb57212a69b34ceb5289ef95c$__9063d0e7d6199060440160006040518083038186803b15801561329e57600080fd5b505af41580156132b2573d6000803e3d6000fd5b505050506040513d6000823e601f3d908101601f19168201604052610daa9190810190614910565b60405163816fa8e960e01b815261019160048201526024810182905260009073__$3203ba5584f3f9d3a0d8e6013dbecad587$__9063816fa8e990604401610e86565b604051634ff2f13360e11b815261019160048201526024810182905260009073__$3203ba5584f3f9d3a0d8e6013dbecad587$__90639fe5e26690604401610e86565b6133686138ae565b604051630e29024f60e31b81526101a1600482015273__$3203ba5584f3f9d3a0d8e6013dbecad587$__906325cfdc69906101b190610191908c908c908c9073__$470c7289acb57212a69b34ceb5289ef95c$__9063714812789060240160206040518083038186803b1580156133de57600080fd5b505af41580156133f2573d6000803e3d6000fd5b505050506040513d601f19601f820116820180604052508101906134169190614421565b8c8c8c8c8c6040518c63ffffffff1660e01b81526004016134419b9a9998979695949392919061530b565b60006040518083038186803b15801561345957600080fd5b505af415801561346d573d6000803e3d6000fd5b505050505050505050505050565b6134836138ae565b6040516372bfbbdd60e01b81526101916004820152602481018390526001600160a01b038216604482015273__$3203ba5584f3f9d3a0d8e6013dbecad587$__906372bfbbdd906064016110b7565b6040516322a1b6f560e11b815260009073__$3203ba5584f3f9d3a0d8e6013dbecad587$__906345436dea90613516906101b19061019190889088906004016152e1565b60206040518083038186803b15801561352e57600080fd5b505af4158015613542573d6000803e3d6000fd5b505050506040513d601f19601f820116820180604052508101906110559190614802565b6000828152610191602052604081208054839081106135875761358761566d565b9060005260206000200154905092915050565b604051630e29024f60e31b81526101a1600482015273__$470c7289acb57212a69b34ceb5289ef95c$__9063714812789060240160206040518083038186803b1580156135e657600080fd5b505af41580156135fa573d6000803e3d6000fd5b505050506040513d601f19601f8201168201806040525081019061361e9190614421565b6001600160a01b0316336001600160a01b03161461364e5760405162461bcd60e51b81526004016111a79061501e565b6101b15460408051631fa5d41d60e11b815290516001600160a01b0390921691633f4ba83a9160048082019260009290919082900301818387803b15801561146557600080fd5b61369d6138ae565b60405163428bab7360e11b815273__$3203ba5584f3f9d3a0d8e6013dbecad587$__9063851756e6906110b7906101b19061019190879087906004016152e1565b6136e66138ae565b6136ee6138f4565b604051635e456b4d60e01b81526101b160048201526024810188905273__$3203ba5584f3f9d3a0d8e6013dbecad587$__90635e456b4d9060440160206040518083038186803b15801561374157600080fd5b505af4158015613755573d6000803e3d6000fd5b505050506040513d601f19601f820116820180604052508101906137799190614802565b6137f3576040516347e3e2cb60e01b815273__$88e9f91c78a6ae79a6edc42fa4982a1d74$__906347e3e2cb906137c290610191906101b1908c908a908a908a90600401615276565b60006040518083038186803b1580156137da57600080fd5b505af41580156137ee573d6000803e3d6000fd5b505050505b604051638dfcc45560e01b81526101b1600482015261019160248201526044810188905260648101879052608481018690526001600160a01b03821660a482015273__$3203ba5584f3f9d3a0d8e6013dbecad587$__90638dfcc4559060c401604080518083038186803b15801561386a57600080fd5b505af415801561387e573d6000803e3d6000fd5b505050506040513d601f19601f820116820180604052508101906138a29190614b60565b50506112af6001603355565b60655460ff161561176d5760405162461bcd60e51b815260206004820152601060248201526f14185d5cd8589b194e881c185d5cd95960821b60448201526064016111a7565b600260335414156139475760405162461bcd60e51b815260206004820152601f60248201527f5265656e7472616e637947756172643a207265656e7472616e742063616c6c0060448201526064016111a7565b6002603355565b6001603355565b60608360020160006139678585613a3b565b8152602001908152602001600020805461398090615632565b80601f01602080910402602001604051908101604052809291908181526020018280546139ac90615632565b80156139f95780601f106139ce576101008083540402835291602001916139f9565b820191906000526020600020905b8154815290600101906020018083116139dc57829003601f168201915b505050505090509392505050565b6000836003016000613a198585613a3b565b81526020810191909152604001600020546001600160a01b0316949350505050565b604080516020808201949094528082019290925280518083038201815260609092019052805191012090565b6001600160a01b038116613a7a57600080fd5b60405160016223f63b60e21b031981526101a160048201526001600160a01b038216602482015273__$470c7289acb57212a69b34ceb5289ef95c$__9063ff7027149060440160206040518083038186803b158015613ad857600080fd5b505af4158015613aec573d6000803e3d6000fd5b505050506040513d601f19601f82011682018060405250810190613b109190614802565b6115ab5760405162461bcd60e51b815260206004820152602160248201527f506f7274616c3a206973206e6f7420616c6c6f77656420746f207570677261646044820152606560f81b60648201526084016111a7565b7f4910fdfa16fed3260ed0e7147f7cc6da11a60208b5b9406d12a635614ffd91435460ff1615613b995761267c83613fb7565b826001600160a01b03166352d1902d6040518163ffffffff1660e01b815260040160206040518083038186803b158015613bd257600080fd5b505afa925050508015613c02575060408051601f3d908101601f19168201909252613bff9181019061481f565b60015b613c655760405162461bcd60e51b815260206004820152602e60248201527f45524331393637557067726164653a206e657720696d706c656d656e7461746960448201526d6f6e206973206e6f74205555505360901b60648201526084016111a7565b6000805160206156bd8339815191528114613cd45760405162461bcd60e51b815260206004820152602960248201527f45524331393637557067726164653a20756e737570706f727465642070726f786044820152681a58589b195555525160ba1b60648201526084016111a7565b5061267c838383614053565b80846001016000613cf18686613a3b565b815260208101919091526040016000205550505050565b613d10614078565b6065805460ff191690557f5db9ee0a495bf2e6ff9c91a7834c1ba4fdd244a5e8aa4e537bd38aeae4b073aa335b6040516001600160a01b03909116815260200160405180910390a1565b6000836001016000613d6c8585613a3b565b81526020019081526020016000205490509392505050565b6000846001016000613d9f84613d9a8888613a3b565b613a3b565b8152602001908152602001600020549050949350505050565b600054610100900460ff16613ddf5760405162461bcd60e51b81526004016111a790615055565b61176d6140c1565b600054610100900460ff16613e0e5760405162461bcd60e51b81526004016111a790615055565b61176d6140e8565b600054610100900460ff1661176d5760405162461bcd60e51b81526004016111a790615055565b6101c18190556101a580546001600160a01b03191690557ffddcded6b4f4730c226821172046b48372d3cd963c159701ae1b7c3bcac541bb8160405190815260200160405180910390a150565b6060846002016000613ea084613d9a8888613a3b565b81526020019081526020016000208054613eb990615632565b80601f0160208091040260200160405190810160405280929190818152602001828054613ee590615632565b8015613f325780601f10613f0757610100808354040283529160200191613f32565b820191906000526020600020905b815481529060010190602001808311613f1557829003601f168201915b50505050509050949350505050565b613f496138ae565b6065805460ff191660011790557f62e78cea01bee320cd4e420270b5ea74000d11b0c9f74754ebdbfc544b05a258613d3d3390565b6000846003016000613f9484613d9a8888613a3b565b81526020810191909152604001600020546001600160a01b031695945050505050565b6001600160a01b0381163b6140245760405162461bcd60e51b815260206004820152602d60248201527f455243313936373a206e657720696d706c656d656e746174696f6e206973206e60448201526c1bdd08184818dbdb9d1c9858dd609a1b60648201526084016111a7565b6000805160206156bd83398151915280546001600160a01b0319166001600160a01b0392909216919091179055565b61405c8361411b565b6000825111806140695750805b1561267c57611479838361415b565b60655460ff1661176d5760405162461bcd60e51b815260206004820152601460248201527314185d5cd8589b194e881b9bdd081c185d5cd95960621b60448201526064016111a7565b600054610100900460ff1661394e5760405162461bcd60e51b81526004016111a790615055565b600054610100900460ff1661410f5760405162461bcd60e51b81526004016111a790615055565b6065805460ff19169055565b61412481613fb7565b6040516001600160a01b038216907fbc7cd75a20ee27fd9adebab32041f755214dbc6bffa90cc0225b39da2e5c2d3b90600090a250565b60606001600160a01b0383163b6141c35760405162461bcd60e51b815260206004820152602660248201527f416464726573733a2064656c65676174652063616c6c20746f206e6f6e2d636f6044820152651b9d1c9858dd60d21b60648201526084016111a7565b600080846001600160a01b0316846040516141de9190614f0d565b600060405180830381855af49150503d8060008114614219576040519150601f19603f3d011682016040523d82523d6000602084013e61421e565b606091505b509150915061424682826040518060600160405280602781526020016156dd6027913961424f565b95945050505050565b6060831561425e575081611055565b61105583838151156142735781518083602001fd5b8060405162461bcd60e51b81526004016111a79190614f73565b803561429881615699565b919050565b60008083601f8401126142af57600080fd5b5081356001600160401b038111156142c657600080fd5b6020830191508360208260051b85010111156142e157600080fd5b9250929050565b600082601f8301126142f957600080fd5b813560206001600160401b0382111561431457614314615683565b8160051b614323828201615560565b83815282810190868401838801850189101561433e57600080fd5b600093505b85841015614361578035835260019390930192918401918401614343565b50979650505050505050565b60008083601f84011261437f57600080fd5b5081356001600160401b0381111561439657600080fd5b6020830191508360208285010111156142e157600080fd5b600082601f8301126143bf57600080fd5b81356143d26143cd82615590565b615560565b8181528460208386010111156143e757600080fd5b816020850160208301376000918101602001919091529392505050565b60006020828403121561441657600080fd5b813561105581615699565b60006020828403121561443357600080fd5b815161105581615699565b6000806000806000806000806000806000806101408d8f03121561446157600080fd5b61446a8d61428d565b9b5061447860208e0161428d565b9a5061448660408e0161428d565b995061449460608e0161428d565b98506144a260808e0161428d565b97506144b060a08e0161428d565b96506144be60c08e0161428d565b95506001600160401b0360e08e013511156144d857600080fd5b6144e88e60e08f01358f0161429d565b90955093506001600160401b036101008e0135111561450657600080fd5b6145178e6101008f01358f0161429d565b81945080935050506101208d013590509295989b509295989b509295989b565b600080600080600060a0868803121561454f57600080fd5b853561455a81615699565b9450602086013561456a81615699565b935060408601356001600160401b038082111561458657600080fd5b61459289838a016142e8565b945060608801359150808211156145a857600080fd5b6145b489838a016142e8565b935060808801359150808211156145ca57600080fd5b506145d7888289016143ae565b9150509295509295909350565b600080600080600060a086880312156145fc57600080fd5b853561460781615699565b9450602086013561461781615699565b9350604086013592506060860135915060808601356001600160401b0381111561464057600080fd5b6145d7888289016143ae565b6000806040838503121561465f57600080fd5b823561466a81615699565b915060208301356001600160401b0381111561468557600080fd5b614691858286016143ae565b9150509250929050565b6000806000806000608086880312156146b357600080fd5b85356146be81615699565b94506020860135935060408601356001600160401b038111156146e057600080fd5b6146ec8882890161436d565b96999598509660600135949350505050565b6000806000806040858703121561471457600080fd5b84356001600160401b038082111561472b57600080fd5b6147378883890161429d565b9096509450602087013591508082111561475057600080fd5b5061475d8782880161429d565b95989497509550505050565b6000806000806000806060878903121561478257600080fd5b86356001600160401b038082111561479957600080fd5b6147a58a838b0161429d565b909850965060208901359150808211156147be57600080fd5b6147ca8a838b0161429d565b909650945060408901359150808211156147e357600080fd5b506147f089828a0161429d565b979a9699509497509295939492505050565b60006020828403121561481457600080fd5b8151611055816156ae565b60006020828403121561483157600080fd5b5051919050565b6000806040838503121561484b57600080fd5b50508035926020909101359150565b60006020828403121561486c57600080fd5b81356001600160e01b03198116811461105557600080fd5b6000806020838503121561489757600080fd5b82356001600160401b038111156148ad57600080fd5b6148b98582860161436d565b90969095509350505050565b6000806000604084860312156148da57600080fd5b83356001600160401b038111156148f057600080fd5b6148fc8682870161436d565b909790965060209590950135949350505050565b6000602080838503121561492357600080fd5b82516001600160401b038082111561493a57600080fd5b908401906080828703121561494e57600080fd5b614956615538565b825161496181615699565b8152828401518482015260408301518281111561497d57600080fd5b83019150601f8201871361499057600080fd5b815161499e6143cd82615590565b81815288868386010111156149b257600080fd5b6149c182878301888701615606565b6040830152506060928301519281019290925250949350505050565b6000602082840312156149ef57600080fd5b5035919050565b60008060408385031215614a0957600080fd5b823591506020830135614a1b81615699565b809150509250929050565b60008060408385031215614a3957600080fd5b825191506020830151614a1b81615699565b600080600060408486031215614a6057600080fd5b8335925060208401356001600160401b03811115614a7d57600080fd5b614a898682870161429d565b9497909650939450505050565b600080600080600060608688031215614aae57600080fd5b8535945060208601356001600160401b0380821115614acc57600080fd5b614ad889838a0161429d565b90965094506040880135915080821115614af157600080fd5b50614afe8882890161429d565b969995985093965092949392505050565b60008060408385031215614b2257600080fd5b823591506020830135614a1b816156ae565b600080600060608486031215614b4957600080fd5b505081359360208301359350604090920135919050565b60008060408385031215614b7357600080fd5b505080516020909101519092909150565b600080600080600080600080610100808a8c031215614ba257600080fd5b8935985060208a0135975060408a0135614bbb81615699565b965060608a01356001600160401b0380821115614bd757600080fd5b614be38d838e0161436d565b909850965060808c0135915080821115614bfc57600080fd5b50614c098c828d0161436d565b9095509350508981018b1015614c1e57600080fd5b5060a0890190509295985092959890939650565b60008060008060608587031215614c4857600080fd5b843593506020850135925060408501356001600160401b03811115614c6c57600080fd5b61475d8782880161429d565b60008060008060008060008060a0898b031215614c9457600080fd5b883597506020890135965060408901356001600160401b0380821115614cb957600080fd5b614cc58c838d0161429d565b909850965060608b0135915080821115614cde57600080fd5b614cea8c838d0161429d565b909650945060808b0135915080821115614d0357600080fd5b50614d108b828c0161429d565b999c989b5096995094979396929594505050565b60008060008060808587031215614d3a57600080fd5b8435935060208501359250604085013591506060850135614d5a81615699565b939692955090935050565b600080600080600080600060c0888a031215614d8057600080fd5b8735965060208801359550604088013594506060880135935060808801356001600160401b03811115614db257600080fd5b614dbe8a828b0161429d565b90945092505060a0880135614dd281615699565b8091505092959891949750929550565b81835260006001600160fb1b03831115614dfb57600080fd5b8260051b8083602087013760009401602001938452509192915050565b81835260006020808501808196508560051b810191508460005b87811015614e9b5782840389528135601e19883603018112614e5357600080fd5b870180356001600160401b03811115614e6b57600080fd5b803603891315614e7a57600080fd5b614e878682898501614ea8565b9a87019a9550505090840190600101614e32565b5091979650505050505050565b81835281816020850137506000828201602090810191909152601f909101601f19169091010190565b60008151808452614ee9816020860160208601615606565b601f01601f19169290920160200192915050565b8183823760009101908152919050565b60008251614f1f818460208701615606565b9190910192915050565b82848237909101908152602001919050565b60018060a01b0385168152836020820152608060408201526000614f626080830185614ed1565b905082606083015295945050505050565b6020815260006110556020830184614ed1565b6020808252602c908201527f46756e6374696f6e206d7573742062652063616c6c6564207468726f7567682060408201526b19195b1959d85d1958d85b1b60a21b606082015260800190565b6020808252602c908201527f46756e6374696f6e206d7573742062652063616c6c6564207468726f7567682060408201526b6163746976652070726f787960a01b606082015260800190565b60208082526017908201527f506f7274616c3a204f4e4c5920474f5645524e414e4345000000000000000000604082015260600190565b6020808252602b908201527f496e697469616c697a61626c653a20636f6e7472616374206973206e6f74206960408201526a6e697469616c697a696e6760a81b606082015260800190565b87815286602082015260018060a01b038616604082015284606082015260c0608082015260006150d460c083018587614ea8565b90508260a083015298975050505050505050565b94855260208501939093526001600160a01b03919091166040840152606083015260c06080830181905260029083015261763160f01b60e083015260a08201526101000190565b86815285602082015260806040820152600061514f608083018688614de2565b8281036060840152615162818587614e18565b9998505050505050505050565b88815260006020898184015260a0604084015261519060a08401898b614de2565b83810360608501526151a381888a614de2565b84810360808601528581529050818101600586811b830184018860005b8981101561523057858303601f190185528135368c9003601e190181126151e657600080fd5b8b0180356001600160401b038111156151fe57600080fd5b80861b36038d131561520f57600080fd5b61521c85828b8501614de2565b9689019694505050908601906001016151c0565b50909f9e505050505050505050505050505050565b85815284602082015283604082015260806060820152600061526b608083018486614e18565b979650505050505050565b86815285602082015284604082015283606082015260a0608082015260006152a260a083018486614de2565b98975050505050505050565b8681528560208201526080604082015260006152ce608083018688614de2565b8281036060840152615162818587614de2565b848152836020820152606060408201526000615301606083018486614ea8565b9695505050505050565b8b815260208082018c9052604082018b9052606082018a90526001600160a01b038981166080840152881660a083015261016060c08301819052600091615355848301898b614ea8565b915083820360e085015261536a828789614ea8565b9250610100840191508460005b600381101561539f57813561538b816156ae565b151584529282019290820190600101615377565b505050509c9b505050505050505050505050565b8a815289602082015288604082015287606082015260e0608082015260006153df60e08301888a614e18565b82810360a08401526153f2818789614e18565b905082810360c0840152615407818587614e18565b9d9c50505050505050505050505050565b6020815260018060a01b03825116602082015260208201516040820152600060408301516080606084015261545060a0840182614ed1565b9050606084015160808401528091505092915050565b6020815261547a60208201835160ff169052565b602082015160408201526040820151606082015260608201516080820152608082015160a082015260a082015160c082015260c082015160e0820152600060e083015161010081818501528085015191505061012081818501528085015191505061014080818501525061178e610160840182614ed1565b6000808335601e1984360301811261550957600080fd5b8301803591506001600160401b0382111561552357600080fd5b6020019150368190038213156142e157600080fd5b604051608081016001600160401b038111828210171561555a5761555a615683565b60405290565b604051601f8201601f191681016001600160401b038111828210171561558857615588615683565b604052919050565b60006001600160401b038211156155a9576155a9615683565b50601f01601f191660200190565b6000826155d457634e487b7160e01b600052601260045260246000fd5b500490565b600081600019048311821515161561560157634e487b7160e01b600052601160045260246000fd5b500290565b60005b83811015615621578181015183820152602001615609565b838111156114795750506000910152565b600181811c9082168061564657607f821691505b6020821081141561566757634e487b7160e01b600052602260045260246000fd5b50919050565b634e487b7160e01b600052603260045260246000fd5b634e487b7160e01b600052604160045260246000fd5b6001600160a01b03811681146115ab57600080fd5b80151581146115ab57600080fdfe360894a13ba1a3210667c828492db98dca3e2076cc3735a920a3ca505d382bbc416464726573733a206c6f772d6c6576656c2064656c65676174652063616c6c206661696c6564a26469706673582212207e908cd35440ae1b6f08c79df783f623264e6f232ed3154e41648d36680e5dc264736f6c63430008070033",
  "devdoc": {
    "author": "Icebear & Crash Bandicoot",
    "details": "Portal doesn't have any functionality other than hosting and combining the functionalities of some libraries: Provides a first of its kind trustless implementation on Staking Derivatives: gETH The Portal utilizes an isolated storage which allows storing infinitely many different * types of dynamic structs, easily with ID and KEY pairs. Portal is secured by The Dual Governance and Limited Upgradability. Portal hosts The Staking Library allowing the creation and maintanence of configurable * staking pools and validator creation process. Underlying validator balances for each pool is secured with unique Withdrawal Contracts.TYPE: seperates the proposals and related functionality between different ID types on the Isolated Storage. * Currently RESERVED TYPES are written on globals.sol.authentication: * geodeUtils has OnlyGovernance, OnlySenate and OnlyController checks with modifiers. * stakeUtils has \"authenticate()\" function which checks for Maintainer, Controllers, and TYPE. * oracleutils has OnlyOracle checks with a modifier. * Portal has an OnlyGovernance check on : pause, unpause, pausegETH, unpausegETH, setEarlyExitFee, releasePrisoned.first review DataStoreUtilsthen review GeodeUtilsthen review StakeUtilsthen review OracleUtils note ctrl+k+2 and ctrl+k+1 then scroll while reading the function names and the comments.",
    "events": {
      "Alienated(bytes)": {
        "details": "OracleUtils events"
      },
      "ContractVersionSet(uint256)": {
        "details": "Portal Native events"
      },
      "GovernanceFeeUpdated(uint256)": {
        "details": "GeodeUtils events"
      },
      "IdInitiated(uint256,uint256)": {
        "details": "StakeUtils events"
      }
    },
    "kind": "dev",
    "methods": {
      "GeodeParams()": {
        "details": "->  view"
      },
      "StakingParams()": {
        "details": "->  view"
      },
      "allIdsByType(uint256,uint256)": {
        "details": "useful for outside reach, shouldn't be used within contracts as a referance",
        "returns": {
          "_0": "allIdsByType is an array of IDs of the given TYPE from Datastore, returns a specific index"
        }
      },
      "approveOperators(uint256,uint256[],uint256[])": {
        "details": "OPERATOR APPROVALS"
      },
      "approveProposal(uint256)": {
        "details": "OnlySenate is checked inside the GeodeUtils"
      },
      "changeIdCONTROLLER(uint256,address)": {
        "details": "CONTROLLER Functions"
      },
      "changeMaintainer(uint256,address)": {
        "details": "MAINTAINERS"
      },
      "changeSenate(address)": {
        "details": "OnlySenate is checked inside the GeodeUtils"
      },
      "deposit(uint256,uint256,uint256,uint256,bytes32[],address)": {
        "details": "STAKING"
      },
      "fetchWithdrawalContractUpgradeProposal(uint256)": {
        "details": "MODULES"
      },
      "generateId(string,uint256)": {
        "details": "id is keccak(name, type)"
      },
      "getContractVersion()": {
        "details": "->  view"
      },
      "increaseWalletBalance(uint256)": {
        "details": "INTERNAL WALLET"
      },
      "initiateOperator(uint256,uint256,uint256,address)": {
        "details": "INITIATORS"
      },
      "pause()": {
        "details": "->  external"
      },
      "paused()": {
        "details": "Returns true if the contract is paused, and false otherwise."
      },
      "pausegETH()": {
        "details": "->  external"
      },
      "proxiableUUID()": {
        "details": "Implementation of the ERC1822 {proxiableUUID} function. This returns the storage slot used by the implementation. It is used to validate the implementation's compatibility when performing an upgrade. IMPORTANT: A proxy pointing at a proxiable contract should not be considered proxiable itself, because this risks bricking a proxy that upgrades to it, by delegating to itself until out of gas. Thus it is critical that this function revert if invoked through a proxy. This is guaranteed by the `notDelegated` modifier."
      },
      "releasePrisoned(uint256)": {
        "details": "in different situations such as a faulty imprisonment or coordinated testing periods * Governance can release the prisonersonlyGovernance SHOULD be checked in Portal"
      },
      "supportsInterface(bytes4)": {
        "details": "See {IERC165-supportsInterface}."
      },
      "switchMaintenanceFee(uint256,uint256)": {
        "details": "MAINTENANCE FEE"
      },
      "switchValidatorPeriod(uint256,uint256)": {
        "details": "OPERATORS"
      },
      "updateVerificationIndex(uint256,bytes[])": {
        "details": "->  external"
      },
      "upgradeTo(address)": {
        "details": "Upgrade the implementation of the proxy to `newImplementation`. Calls {_authorizeUpgrade}. Emits an {Upgraded} event."
      },
      "upgradeToAndCall(address,bytes)": {
        "details": "Upgrade the implementation of the proxy to `newImplementation`, and subsequently execute the function call encoded in `data`. Calls {_authorizeUpgrade}. Emits an {Upgraded} event."
      }
    },
    "stateVariables": {
      "CONTRACT_VERSION": {
        "details": "Does NOT increase uniformly like one might expect."
      }
    },
    "title": "Geode Portal : Configurable Trustless Staking Pools *",
    "version": 1
  },
  "userdoc": {
    "kind": "user",
    "methods": {
      "CONTRACT_VERSION()": {
        "notice": "CONTRACT_VERSION always refers to the upgrade proposal' (TYPE2) ID."
      },
      "Do_we_care()": {
        "notice": "fallback functions"
      },
      "approveProposal(uint256)": {
        "notice": "approves a specific proposal"
      },
      "changeSenate(address)": {
        "notice": "changes the Senate's address without extending the expiry"
      },
      "gETH()": {
        "notice": "get the position of ERC1155"
      },
      "gETHInterfaces(uint256,uint256)": {
        "notice": "read the list of interfaces for a gETH ID"
      },
      "generateId(string,uint256)": {
        "notice": "useful view function for string inputs - returns same with the DATASTOREUTILS.generateId"
      },
      "getKey(uint256,bytes32)": {
        "notice": "useful view function for string inputs - returns same with the DATASTOREUTILS.generateId"
      },
      "initialize(address,address,address,address,address,address,address,address[],bytes[],uint256)": {
        "notice": "initializer function that sets initial parameters like, Oracle Address, Governance, fee etc. Then, creates proposals for the Withdrawal Contract, Liquidity Pools and gETHInterfaces. Finally, it creates an Upgrade Proposal for itself and approves it, setting its version."
      },
      "releasePrisoned(uint256)": {
        "notice": "releases an imprisoned operator immidately"
      },
      "setGovernanceFee(uint256)": {
        "notice": "only parameter of GeodeUtils that can be mutated is the fee"
      }
    },
    "version": 1
  },
  "storageLayout": {
    "storage": [
      {
        "astId": 527,
        "contract": "contracts/Portal/Portal.sol:Portal",
        "label": "_initialized",
        "offset": 0,
        "slot": "0",
        "type": "t_uint8"
      },
      {
        "astId": 530,
        "contract": "contracts/Portal/Portal.sol:Portal",
        "label": "_initializing",
        "offset": 1,
        "slot": "0",
        "type": "t_bool"
      },
      {
        "astId": 2331,
        "contract": "contracts/Portal/Portal.sol:Portal",
        "label": "__gap",
        "offset": 0,
        "slot": "1",
        "type": "t_array(t_uint256)50_storage"
      },
      {
        "astId": 966,
        "contract": "contracts/Portal/Portal.sol:Portal",
        "label": "_status",
        "offset": 0,
        "slot": "51",
        "type": "t_uint256"
      },
      {
        "astId": 1024,
        "contract": "contracts/Portal/Portal.sol:Portal",
        "label": "__gap",
        "offset": 0,
        "slot": "52",
        "type": "t_array(t_uint256)49_storage"
      },
      {
        "astId": 846,
        "contract": "contracts/Portal/Portal.sol:Portal",
        "label": "_paused",
        "offset": 0,
        "slot": "101",
        "type": "t_bool"
      },
      {
        "astId": 951,
        "contract": "contracts/Portal/Portal.sol:Portal",
        "label": "__gap",
        "offset": 0,
        "slot": "102",
        "type": "t_array(t_uint256)49_storage"
      },
      {
        "astId": 3198,
        "contract": "contracts/Portal/Portal.sol:Portal",
        "label": "__gap",
        "offset": 0,
        "slot": "151",
        "type": "t_array(t_uint256)50_storage"
      },
      {
        "astId": 1190,
        "contract": "contracts/Portal/Portal.sol:Portal",
        "label": "__gap",
        "offset": 0,
        "slot": "201",
        "type": "t_array(t_uint256)50_storage"
      },
      {
        "astId": 1136,
        "contract": "contracts/Portal/Portal.sol:Portal",
        "label": "__gap",
        "offset": 0,
        "slot": "251",
        "type": "t_array(t_uint256)50_storage"
      },
      {
        "astId": 509,
        "contract": "contracts/Portal/Portal.sol:Portal",
        "label": "__gap",
        "offset": 0,
        "slot": "301",
        "type": "t_array(t_uint256)50_storage"
      },
      {
        "astId": 824,
        "contract": "contracts/Portal/Portal.sol:Portal",
        "label": "__gap",
        "offset": 0,
        "slot": "351",
        "type": "t_array(t_uint256)50_storage"
      },
      {
        "astId": 8781,
        "contract": "contracts/Portal/Portal.sol:Portal",
        "label": "DATASTORE",
        "offset": 0,
        "slot": "401",
        "type": "t_struct(IsolatedStorage)19744_storage"
      },
      {
        "astId": 8784,
        "contract": "contracts/Portal/Portal.sol:Portal",
        "label": "GEODE",
        "offset": 0,
        "slot": "417",
        "type": "t_struct(DualGovernance)20768_storage"
      },
      {
        "astId": 8787,
        "contract": "contracts/Portal/Portal.sol:Portal",
        "label": "STAKER",
        "offset": 0,
        "slot": "433",
        "type": "t_struct(PooledStaking)22340_storage"
      },
      {
        "astId": 8790,
        "contract": "contracts/Portal/Portal.sol:Portal",
        "label": "CONTRACT_VERSION",
        "offset": 0,
        "slot": "449",
        "type": "t_uint256"
      },
      {
        "astId": 10539,
        "contract": "contracts/Portal/Portal.sol:Portal",
        "label": "__gap",
        "offset": 0,
        "slot": "450",
        "type": "t_array(t_uint256)46_storage"
      }
    ],
    "types": {
      "t_address": {
        "encoding": "inplace",
        "label": "address",
        "numberOfBytes": "20"
      },
      "t_array(t_uint256)12_storage": {
        "base": "t_uint256",
        "encoding": "inplace",
        "label": "uint256[12]",
        "numberOfBytes": "384"
      },
      "t_array(t_uint256)3_storage": {
        "base": "t_uint256",
        "encoding": "inplace",
        "label": "uint256[3]",
        "numberOfBytes": "96"
      },
      "t_array(t_uint256)46_storage": {
        "base": "t_uint256",
        "encoding": "inplace",
        "label": "uint256[46]",
        "numberOfBytes": "1472"
      },
      "t_array(t_uint256)49_storage": {
        "base": "t_uint256",
        "encoding": "inplace",
        "label": "uint256[49]",
        "numberOfBytes": "1568"
      },
      "t_array(t_uint256)50_storage": {
        "base": "t_uint256",
        "encoding": "inplace",
        "label": "uint256[50]",
        "numberOfBytes": "1600"
      },
      "t_array(t_uint256)8_storage": {
        "base": "t_uint256",
        "encoding": "inplace",
        "label": "uint256[8]",
        "numberOfBytes": "256"
      },
      "t_array(t_uint256)dyn_storage": {
        "base": "t_uint256",
        "encoding": "dynamic_array",
        "label": "uint256[]",
        "numberOfBytes": "32"
      },
      "t_bool": {
        "encoding": "inplace",
        "label": "bool",
        "numberOfBytes": "1"
      },
      "t_bytes32": {
        "encoding": "inplace",
        "label": "bytes32",
        "numberOfBytes": "32"
      },
      "t_bytes_memory_ptr": {
        "encoding": "bytes",
        "label": "bytes",
        "numberOfBytes": "32"
      },
      "t_bytes_storage": {
        "encoding": "bytes",
        "label": "bytes",
        "numberOfBytes": "32"
      },
      "t_contract(IgETH)26862": {
        "encoding": "inplace",
        "label": "contract IgETH",
        "numberOfBytes": "20"
      },
      "t_mapping(t_bytes32,t_address)": {
        "encoding": "mapping",
        "key": "t_bytes32",
        "label": "mapping(bytes32 => address)",
        "numberOfBytes": "32",
        "value": "t_address"
      },
      "t_mapping(t_bytes32,t_bytes_storage)": {
        "encoding": "mapping",
        "key": "t_bytes32",
        "label": "mapping(bytes32 => bytes)",
        "numberOfBytes": "32",
        "value": "t_bytes_storage"
      },
      "t_mapping(t_bytes32,t_uint256)": {
        "encoding": "mapping",
        "key": "t_bytes32",
        "label": "mapping(bytes32 => uint256)",
        "numberOfBytes": "32",
        "value": "t_uint256"
      },
      "t_mapping(t_bytes_memory_ptr,t_struct(Validator)22299_storage)": {
        "encoding": "mapping",
        "key": "t_bytes_memory_ptr",
        "label": "mapping(bytes => struct StakeUtils.Validator)",
        "numberOfBytes": "32",
        "value": "t_struct(Validator)22299_storage"
      },
      "t_mapping(t_uint256,t_array(t_uint256)dyn_storage)": {
        "encoding": "mapping",
        "key": "t_uint256",
        "label": "mapping(uint256 => uint256[])",
        "numberOfBytes": "32",
        "value": "t_array(t_uint256)dyn_storage"
      },
      "t_mapping(t_uint256,t_bool)": {
        "encoding": "mapping",
        "key": "t_uint256",
        "label": "mapping(uint256 => bool)",
        "numberOfBytes": "32",
        "value": "t_bool"
      },
      "t_mapping(t_uint256,t_mapping(t_uint256,t_bool))": {
        "encoding": "mapping",
        "key": "t_uint256",
        "label": "mapping(uint256 => mapping(uint256 => bool))",
        "numberOfBytes": "32",
        "value": "t_mapping(t_uint256,t_bool)"
      },
      "t_mapping(t_uint256,t_struct(Proposal)20742_storage)": {
        "encoding": "mapping",
        "key": "t_uint256",
        "label": "mapping(uint256 => struct GeodeUtils.Proposal)",
        "numberOfBytes": "32",
        "value": "t_struct(Proposal)20742_storage"
      },
      "t_mapping(t_uint256,t_uint256)": {
        "encoding": "mapping",
        "key": "t_uint256",
        "label": "mapping(uint256 => uint256)",
        "numberOfBytes": "32",
        "value": "t_uint256"
      },
      "t_struct(DualGovernance)20768_storage": {
        "encoding": "inplace",
        "label": "struct GeodeUtils.DualGovernance",
        "members": [
          {
            "astId": 20744,
            "contract": "contracts/Portal/Portal.sol:Portal",
            "label": "GOVERNANCE",
            "offset": 0,
            "slot": "0",
            "type": "t_address"
          },
          {
            "astId": 20746,
            "contract": "contracts/Portal/Portal.sol:Portal",
            "label": "SENATE",
            "offset": 0,
            "slot": "1",
            "type": "t_address"
          },
          {
            "astId": 20748,
            "contract": "contracts/Portal/Portal.sol:Portal",
            "label": "SENATE_EXPIRY",
            "offset": 0,
            "slot": "2",
            "type": "t_uint256"
          },
          {
            "astId": 20750,
            "contract": "contracts/Portal/Portal.sol:Portal",
            "label": "GOVERNANCE_FEE",
            "offset": 0,
            "slot": "3",
            "type": "t_uint256"
          },
          {
            "astId": 20752,
            "contract": "contracts/Portal/Portal.sol:Portal",
            "label": "approvedVersion",
            "offset": 0,
            "slot": "4",
            "type": "t_address"
          },
          {
            "astId": 20754,
            "contract": "contracts/Portal/Portal.sol:Portal",
            "label": "_electorCount",
            "offset": 0,
            "slot": "5",
            "type": "t_uint256"
          },
          {
            "astId": 20758,
            "contract": "contracts/Portal/Portal.sol:Portal",
            "label": "_electorTypes",
            "offset": 0,
            "slot": "6",
            "type": "t_mapping(t_uint256,t_bool)"
          },
          {
            "astId": 20763,
            "contract": "contracts/Portal/Portal.sol:Portal",
            "label": "_proposals",
            "offset": 0,
            "slot": "7",
            "type": "t_mapping(t_uint256,t_struct(Proposal)20742_storage)"
          },
          {
            "astId": 20767,
            "contract": "contracts/Portal/Portal.sol:Portal",
            "label": "__gap",
            "offset": 0,
            "slot": "8",
            "type": "t_array(t_uint256)8_storage"
          }
        ],
        "numberOfBytes": "512"
      },
      "t_struct(IsolatedStorage)19744_storage": {
        "encoding": "inplace",
        "label": "struct DataStoreUtils.IsolatedStorage",
        "members": [
          {
            "astId": 19727,
            "contract": "contracts/Portal/Portal.sol:Portal",
            "label": "allIdsByType",
            "offset": 0,
            "slot": "0",
            "type": "t_mapping(t_uint256,t_array(t_uint256)dyn_storage)"
          },
          {
            "astId": 19731,
            "contract": "contracts/Portal/Portal.sol:Portal",
            "label": "uintData",
            "offset": 0,
            "slot": "1",
            "type": "t_mapping(t_bytes32,t_uint256)"
          },
          {
            "astId": 19735,
            "contract": "contracts/Portal/Portal.sol:Portal",
            "label": "bytesData",
            "offset": 0,
            "slot": "2",
            "type": "t_mapping(t_bytes32,t_bytes_storage)"
          },
          {
            "astId": 19739,
            "contract": "contracts/Portal/Portal.sol:Portal",
            "label": "addressData",
            "offset": 0,
            "slot": "3",
            "type": "t_mapping(t_bytes32,t_address)"
          },
          {
            "astId": 19743,
            "contract": "contracts/Portal/Portal.sol:Portal",
            "label": "__gap",
            "offset": 0,
            "slot": "4",
            "type": "t_array(t_uint256)12_storage"
          }
        ],
        "numberOfBytes": "512"
      },
      "t_struct(PooledStaking)22340_storage": {
        "encoding": "inplace",
        "label": "struct StakeUtils.PooledStaking",
        "members": [
          {
            "astId": 22302,
            "contract": "contracts/Portal/Portal.sol:Portal",
            "label": "gETH",
            "offset": 0,
            "slot": "0",
            "type": "t_contract(IgETH)26862"
          },
          {
            "astId": 22304,
            "contract": "contracts/Portal/Portal.sol:Portal",
            "label": "VALIDATORS_INDEX",
            "offset": 0,
            "slot": "1",
            "type": "t_uint256"
          },
          {
            "astId": 22306,
            "contract": "contracts/Portal/Portal.sol:Portal",
            "label": "VERIFICATION_INDEX",
            "offset": 0,
            "slot": "2",
            "type": "t_uint256"
          },
          {
            "astId": 22308,
            "contract": "contracts/Portal/Portal.sol:Portal",
            "label": "MONOPOLY_THRESHOLD",
            "offset": 0,
            "slot": "3",
            "type": "t_uint256"
          },
          {
            "astId": 22310,
            "contract": "contracts/Portal/Portal.sol:Portal",
            "label": "EARLY_EXIT_FEE",
            "offset": 0,
            "slot": "4",
            "type": "t_uint256"
          },
          {
            "astId": 22312,
            "contract": "contracts/Portal/Portal.sol:Portal",
            "label": "ORACLE_UPDATE_TIMESTAMP",
            "offset": 0,
            "slot": "5",
            "type": "t_uint256"
          },
          {
            "astId": 22314,
            "contract": "contracts/Portal/Portal.sol:Portal",
            "label": "DAILY_PRICE_INCREASE_LIMIT",
            "offset": 0,
            "slot": "6",
            "type": "t_uint256"
          },
          {
            "astId": 22316,
            "contract": "contracts/Portal/Portal.sol:Portal",
            "label": "DAILY_PRICE_DECREASE_LIMIT",
            "offset": 0,
            "slot": "7",
            "type": "t_uint256"
          },
          {
            "astId": 22318,
            "contract": "contracts/Portal/Portal.sol:Portal",
            "label": "PRICE_MERKLE_ROOT",
            "offset": 0,
            "slot": "8",
            "type": "t_bytes32"
          },
          {
            "astId": 22320,
            "contract": "contracts/Portal/Portal.sol:Portal",
            "label": "ORACLE_POSITION",
            "offset": 0,
            "slot": "9",
            "type": "t_address"
          },
          {
            "astId": 22324,
            "contract": "contracts/Portal/Portal.sol:Portal",
            "label": "_defaultModules",
            "offset": 0,
            "slot": "10",
            "type": "t_mapping(t_uint256,t_uint256)"
          },
          {
            "astId": 22330,
            "contract": "contracts/Portal/Portal.sol:Portal",
            "label": "_allowedModules",
            "offset": 0,
            "slot": "11",
            "type": "t_mapping(t_uint256,t_mapping(t_uint256,t_bool))"
          },
          {
            "astId": 22335,
            "contract": "contracts/Portal/Portal.sol:Portal",
            "label": "_validators",
            "offset": 0,
            "slot": "12",
            "type": "t_mapping(t_bytes_memory_ptr,t_struct(Validator)22299_storage)"
          },
          {
            "astId": 22339,
            "contract": "contracts/Portal/Portal.sol:Portal",
            "label": "__gap",
            "offset": 0,
            "slot": "13",
            "type": "t_array(t_uint256)3_storage"
          }
        ],
        "numberOfBytes": "512"
      },
      "t_struct(Proposal)20742_storage": {
        "encoding": "inplace",
        "label": "struct GeodeUtils.Proposal",
        "members": [
          {
            "astId": 20735,
            "contract": "contracts/Portal/Portal.sol:Portal",
            "label": "CONTROLLER",
            "offset": 0,
            "slot": "0",
            "type": "t_address"
          },
          {
            "astId": 20737,
            "contract": "contracts/Portal/Portal.sol:Portal",
            "label": "TYPE",
            "offset": 0,
            "slot": "1",
            "type": "t_uint256"
          },
          {
            "astId": 20739,
            "contract": "contracts/Portal/Portal.sol:Portal",
            "label": "NAME",
            "offset": 0,
            "slot": "2",
            "type": "t_bytes_storage"
          },
          {
            "astId": 20741,
            "contract": "contracts/Portal/Portal.sol:Portal",
            "label": "deadline",
            "offset": 0,
            "slot": "3",
            "type": "t_uint256"
          }
        ],
        "numberOfBytes": "128"
      },
      "t_struct(Validator)22299_storage": {
        "encoding": "inplace",
        "label": "struct StakeUtils.Validator",
        "members": [
          {
            "astId": 22280,
            "contract": "contracts/Portal/Portal.sol:Portal",
            "label": "state",
            "offset": 0,
            "slot": "0",
            "type": "t_uint8"
          },
          {
            "astId": 22282,
            "contract": "contracts/Portal/Portal.sol:Portal",
            "label": "index",
            "offset": 0,
            "slot": "1",
            "type": "t_uint256"
          },
          {
            "astId": 22284,
            "contract": "contracts/Portal/Portal.sol:Portal",
            "label": "poolId",
            "offset": 0,
            "slot": "2",
            "type": "t_uint256"
          },
          {
            "astId": 22286,
            "contract": "contracts/Portal/Portal.sol:Portal",
            "label": "operatorId",
            "offset": 0,
            "slot": "3",
            "type": "t_uint256"
          },
          {
            "astId": 22288,
            "contract": "contracts/Portal/Portal.sol:Portal",
            "label": "poolFee",
            "offset": 0,
            "slot": "4",
            "type": "t_uint256"
          },
          {
            "astId": 22290,
            "contract": "contracts/Portal/Portal.sol:Portal",
            "label": "operatorFee",
            "offset": 0,
            "slot": "5",
            "type": "t_uint256"
          },
          {
            "astId": 22292,
            "contract": "contracts/Portal/Portal.sol:Portal",
            "label": "earlyExitFee",
            "offset": 0,
            "slot": "6",
            "type": "t_uint256"
          },
          {
            "astId": 22294,
            "contract": "contracts/Portal/Portal.sol:Portal",
            "label": "createdAt",
            "offset": 0,
            "slot": "7",
            "type": "t_uint256"
          },
          {
            "astId": 22296,
            "contract": "contracts/Portal/Portal.sol:Portal",
            "label": "expectedExit",
            "offset": 0,
            "slot": "8",
            "type": "t_uint256"
          },
          {
            "astId": 22298,
            "contract": "contracts/Portal/Portal.sol:Portal",
            "label": "signature31",
            "offset": 0,
            "slot": "9",
            "type": "t_bytes_storage"
          }
        ],
        "numberOfBytes": "320"
      },
      "t_uint256": {
        "encoding": "inplace",
        "label": "uint256",
        "numberOfBytes": "32"
      },
      "t_uint8": {
        "encoding": "inplace",
        "label": "uint8",
        "numberOfBytes": "1"
      }
    }
  }
}