{
  "address": "0x47b1849024954966D1E3f2BC156806282fF49c70",
  "abi": [
    {
      "inputs": [],
      "stateMutability": "nonpayable",
      "type": "constructor"
    },
    {
      "anonymous": false,
      "inputs": [
        {
          "indexed": false,
          "internalType": "address",
          "name": "previousAdmin",
          "type": "address"
        },
        {
          "indexed": false,
          "internalType": "address",
          "name": "newAdmin",
          "type": "address"
        }
      ],
      "name": "AdminChanged",
      "type": "event"
    },
    {
      "anonymous": false,
      "inputs": [
        {
          "indexed": false,
          "internalType": "bytes",
          "name": "pubkey",
          "type": "bytes"
        }
      ],
      "name": "Alienated",
      "type": "event"
    },
    {
      "anonymous": false,
      "inputs": [
        {
          "indexed": false,
          "internalType": "uint256",
          "name": "ID",
          "type": "uint256"
        }
      ],
      "name": "Approved",
      "type": "event"
    },
    {
      "anonymous": false,
      "inputs": [
        {
          "indexed": true,
          "internalType": "address",
          "name": "beacon",
          "type": "address"
        }
      ],
      "name": "BeaconUpgraded",
      "type": "event"
    },
    {
      "anonymous": false,
      "inputs": [
        {
          "indexed": false,
          "internalType": "uint256",
          "name": "version",
          "type": "uint256"
        }
      ],
      "name": "ContractVersionSet",
      "type": "event"
    },
    {
      "anonymous": false,
      "inputs": [
        {
          "indexed": true,
          "internalType": "uint256",
          "name": "ID",
          "type": "uint256"
        },
        {
          "indexed": false,
          "internalType": "address",
          "name": "CONTROLLER",
          "type": "address"
        }
      ],
      "name": "ControllerChanged",
      "type": "event"
    },
    {
      "anonymous": false,
      "inputs": [
        {
          "indexed": false,
          "internalType": "uint256",
          "name": "poolId",
          "type": "uint256"
        },
        {
          "indexed": true,
          "internalType": "uint256",
          "name": "operatorId",
          "type": "uint256"
        },
        {
          "indexed": false,
          "internalType": "uint256",
          "name": "allowance",
          "type": "uint256"
        }
      ],
      "name": "Delegation",
      "type": "event"
    },
    {
      "anonymous": false,
      "inputs": [
        {
          "indexed": true,
          "internalType": "uint256",
          "name": "poolId",
          "type": "uint256"
        },
        {
          "indexed": false,
          "internalType": "uint256",
          "name": "boughtgETH",
          "type": "uint256"
        },
        {
          "indexed": false,
          "internalType": "uint256",
          "name": "mintedgETH",
          "type": "uint256"
        }
      ],
      "name": "Deposit",
      "type": "event"
    },
    {
      "anonymous": false,
      "inputs": [
        {
          "indexed": false,
          "internalType": "uint256",
          "name": "poolId",
          "type": "uint256"
        },
        {
          "indexed": true,
          "internalType": "uint256",
          "name": "operatorId",
          "type": "uint256"
        },
        {
          "indexed": false,
          "internalType": "uint256",
          "name": "threshold",
          "type": "uint256"
        }
      ],
      "name": "FallbackOperator",
      "type": "event"
    },
    {
      "anonymous": false,
      "inputs": [
        {
          "indexed": true,
          "internalType": "uint256",
          "name": "id",
          "type": "uint256"
        },
        {
          "indexed": false,
          "internalType": "uint256",
          "name": "fee",
          "type": "uint256"
        },
        {
          "indexed": false,
          "internalType": "uint256",
          "name": "effectiveAfter",
          "type": "uint256"
        }
      ],
      "name": "FeeSwitched",
      "type": "event"
    },
    {
      "anonymous": false,
      "inputs": [
        {
          "indexed": true,
          "internalType": "uint256",
          "name": "id",
          "type": "uint256"
        },
        {
          "indexed": false,
          "internalType": "bytes",
          "name": "proofs",
          "type": "bytes"
        }
      ],
      "name": "FeeTheft",
      "type": "event"
    },
    {
      "anonymous": false,
      "inputs": [
        {
          "indexed": false,
          "internalType": "uint256",
          "name": "fee",
          "type": "uint256"
        }
      ],
      "name": "GovernanceFeeSet",
      "type": "event"
    },
    {
      "anonymous": false,
      "inputs": [
        {
          "indexed": false,
          "internalType": "uint256",
          "name": "id",
          "type": "uint256"
        },
        {
          "indexed": true,
          "internalType": "uint256",
          "name": "TYPE",
          "type": "uint256"
        }
      ],
      "name": "IdInitiated",
      "type": "event"
    },
    {
      "anonymous": false,
      "inputs": [
        {
          "indexed": false,
          "internalType": "uint8",
          "name": "version",
          "type": "uint8"
        }
      ],
      "name": "Initialized",
      "type": "event"
    },
    {
      "anonymous": false,
      "inputs": [
        {
          "indexed": true,
          "internalType": "uint256",
          "name": "id",
          "type": "uint256"
        },
        {
          "indexed": false,
          "internalType": "address",
          "name": "newMaintainer",
          "type": "address"
        }
      ],
      "name": "MaintainerChanged",
      "type": "event"
    },
    {
      "anonymous": false,
      "inputs": [
        {
          "indexed": false,
          "internalType": "uint256",
          "name": "poolId",
          "type": "uint256"
        },
        {
          "indexed": false,
          "internalType": "uint256",
          "name": "version",
          "type": "uint256"
        }
      ],
      "name": "MiddlewareDeployed",
      "type": "event"
    },
    {
      "anonymous": false,
      "inputs": [
        {
          "indexed": false,
          "internalType": "address",
          "name": "senate",
          "type": "address"
        },
        {
          "indexed": false,
          "internalType": "uint256",
          "name": "expiry",
          "type": "uint256"
        }
      ],
      "name": "NewSenate",
      "type": "event"
    },
    {
      "anonymous": false,
      "inputs": [
        {
          "indexed": false,
          "internalType": "bytes32",
          "name": "priceMerkleRoot",
          "type": "bytes32"
        },
        {
          "indexed": false,
          "internalType": "bytes32",
          "name": "balanceMerkleRoot",
          "type": "bytes32"
        },
        {
          "indexed": false,
          "internalType": "uint256",
          "name": "monopolyThreshold",
          "type": "uint256"
        }
      ],
      "name": "OracleReported",
      "type": "event"
    },
    {
      "anonymous": false,
      "inputs": [
        {
          "indexed": false,
          "internalType": "uint256",
          "name": "poolId",
          "type": "uint256"
        },
        {
          "indexed": false,
          "internalType": "uint256",
          "name": "packageType",
          "type": "uint256"
        },
        {
          "indexed": false,
          "internalType": "address",
          "name": "instance",
          "type": "address"
        }
      ],
      "name": "PackageDeployed",
      "type": "event"
    },
    {
      "anonymous": false,
      "inputs": [
        {
          "indexed": false,
          "internalType": "address",
          "name": "account",
          "type": "address"
        }
      ],
      "name": "Paused",
      "type": "event"
    },
    {
      "anonymous": false,
      "inputs": [
        {
          "indexed": true,
          "internalType": "uint256",
          "name": "operatorId",
          "type": "uint256"
        },
        {
          "indexed": false,
          "internalType": "bytes",
          "name": "proof",
          "type": "bytes"
        },
        {
          "indexed": false,
          "internalType": "uint256",
          "name": "releaseTimestamp",
          "type": "uint256"
        }
      ],
      "name": "Prisoned",
      "type": "event"
    },
    {
      "anonymous": false,
      "inputs": [
        {
          "indexed": true,
          "internalType": "uint256",
          "name": "TYPE",
          "type": "uint256"
        },
        {
          "indexed": false,
          "internalType": "uint256",
          "name": "ID",
          "type": "uint256"
        },
        {
          "indexed": false,
          "internalType": "address",
          "name": "CONTROLLER",
          "type": "address"
        },
        {
          "indexed": false,
          "internalType": "uint256",
          "name": "deadline",
          "type": "uint256"
        }
      ],
      "name": "Proposed",
      "type": "event"
    },
    {
      "anonymous": false,
      "inputs": [
        {
          "indexed": false,
          "internalType": "uint256",
          "name": "operatorId",
          "type": "uint256"
        }
      ],
      "name": "Released",
      "type": "event"
    },
    {
      "anonymous": false,
      "inputs": [
        {
          "indexed": false,
          "internalType": "bytes[]",
          "name": "pubkeys",
          "type": "bytes[]"
        }
      ],
      "name": "Stake",
      "type": "event"
    },
    {
      "anonymous": false,
      "inputs": [
        {
          "indexed": false,
          "internalType": "uint256",
          "name": "poolId",
          "type": "uint256"
        },
        {
          "indexed": false,
          "internalType": "uint256",
          "name": "operatorId",
          "type": "uint256"
        },
        {
          "indexed": false,
          "internalType": "bytes[]",
          "name": "pubkeys",
          "type": "bytes[]"
        }
      ],
      "name": "StakeProposal",
      "type": "event"
    },
    {
      "anonymous": false,
      "inputs": [
        {
          "indexed": false,
          "internalType": "address",
          "name": "account",
          "type": "address"
        }
      ],
      "name": "Unpaused",
      "type": "event"
    },
    {
      "anonymous": false,
      "inputs": [
        {
          "indexed": true,
          "internalType": "address",
          "name": "implementation",
          "type": "address"
        }
      ],
      "name": "Upgraded",
      "type": "event"
    },
    {
      "anonymous": false,
      "inputs": [
        {
          "indexed": true,
          "internalType": "uint256",
          "name": "operatorId",
          "type": "uint256"
        },
        {
          "indexed": false,
          "internalType": "uint256",
          "name": "period",
          "type": "uint256"
        },
        {
          "indexed": false,
          "internalType": "uint256",
          "name": "effectiveAfter",
          "type": "uint256"
        }
      ],
      "name": "ValidatorPeriodSwitched",
      "type": "event"
    },
    {
      "anonymous": false,
      "inputs": [
        {
          "indexed": false,
          "internalType": "uint256",
          "name": "validatorVerificationIndex",
          "type": "uint256"
        }
      ],
      "name": "VerificationIndexUpdated",
      "type": "event"
    },
    {
      "anonymous": false,
      "inputs": [
        {
          "indexed": false,
          "internalType": "uint256",
          "name": "id",
          "type": "uint256"
        },
        {
          "indexed": false,
          "internalType": "bool",
          "name": "isPrivate",
          "type": "bool"
        }
      ],
      "name": "VisibilitySet",
      "type": "event"
    },
    {
      "anonymous": false,
      "inputs": [
        {
          "indexed": true,
          "internalType": "uint256",
          "name": "poolId",
          "type": "uint256"
        },
        {
          "indexed": false,
          "internalType": "address",
          "name": "yieldReceiver",
          "type": "address"
        }
      ],
      "name": "YieldReceiverSet",
      "type": "event"
    },
    {
      "inputs": [],
      "name": "GeodeParams",
      "outputs": [
        {
          "internalType": "address",
          "name": "governance",
          "type": "address"
        },
        {
          "internalType": "address",
          "name": "senate",
          "type": "address"
        },
        {
          "internalType": "address",
          "name": "approvedUpgrade",
          "type": "address"
        },
        {
          "internalType": "uint256",
          "name": "senateExpiry",
          "type": "uint256"
        },
        {
          "internalType": "uint256",
          "name": "packageType",
          "type": "uint256"
        }
      ],
      "stateMutability": "view",
      "type": "function"
    },
    {
      "inputs": [],
      "name": "StakeParams",
      "outputs": [
        {
          "internalType": "address",
          "name": "gETH",
          "type": "address"
        },
        {
          "internalType": "address",
          "name": "oraclePosition",
          "type": "address"
        },
        {
          "internalType": "uint256",
          "name": "validatorsIndex",
          "type": "uint256"
        },
        {
          "internalType": "uint256",
          "name": "verificationIndex",
          "type": "uint256"
        },
        {
          "internalType": "uint256",
          "name": "monopolyThreshold",
          "type": "uint256"
        },
        {
          "internalType": "uint256",
          "name": "oracleUpdateTimestamp",
          "type": "uint256"
        },
        {
          "internalType": "uint256",
          "name": "dailyPriceIncreaseLimit",
          "type": "uint256"
        },
        {
          "internalType": "uint256",
          "name": "dailyPriceDecreaseLimit",
          "type": "uint256"
        },
        {
          "internalType": "uint256",
          "name": "governanceFee",
          "type": "uint256"
        },
        {
          "internalType": "bytes32",
          "name": "priceMerkleRoot",
          "type": "bytes32"
        },
        {
          "internalType": "bytes32",
          "name": "balanceMerkleRoot",
          "type": "bytes32"
        }
      ],
      "stateMutability": "view",
      "type": "function"
    },
    {
      "inputs": [
        {
          "internalType": "uint256",
          "name": "_type",
          "type": "uint256"
        },
        {
          "internalType": "uint256",
          "name": "_index",
          "type": "uint256"
        }
      ],
      "name": "allIdsByType",
      "outputs": [
        {
          "internalType": "uint256",
          "name": "",
          "type": "uint256"
        }
      ],
      "stateMutability": "view",
      "type": "function"
    },
    {
      "inputs": [
        {
          "internalType": "uint256",
          "name": "_type",
          "type": "uint256"
        }
      ],
      "name": "allIdsByTypeLength",
      "outputs": [
        {
          "internalType": "uint256",
          "name": "",
          "type": "uint256"
        }
      ],
      "stateMutability": "view",
      "type": "function"
    },
    {
      "inputs": [
        {
          "internalType": "uint256",
          "name": "id",
          "type": "uint256"
        }
      ],
      "name": "approveProposal",
      "outputs": [
        {
          "internalType": "address",
          "name": "_controller",
          "type": "address"
        },
        {
          "internalType": "uint256",
          "name": "_type",
          "type": "uint256"
        },
        {
          "internalType": "bytes",
          "name": "_name",
          "type": "bytes"
        }
      ],
      "stateMutability": "nonpayable",
      "type": "function"
    },
    {
      "inputs": [
        {
          "internalType": "bytes",
          "name": "pk",
          "type": "bytes"
        }
      ],
      "name": "blameOperator",
      "outputs": [],
      "stateMutability": "nonpayable",
      "type": "function"
    },
    {
      "inputs": [
        {
          "internalType": "bytes",
          "name": "pubkey",
          "type": "bytes"
        }
      ],
      "name": "canStake",
      "outputs": [
        {
          "internalType": "bool",
          "name": "",
          "type": "bool"
        }
      ],
      "stateMutability": "view",
      "type": "function"
    },
    {
      "inputs": [
        {
          "internalType": "uint256",
          "name": "id",
          "type": "uint256"
        },
        {
          "internalType": "address",
          "name": "newCONTROLLER",
          "type": "address"
        }
      ],
      "name": "changeIdCONTROLLER",
      "outputs": [],
      "stateMutability": "nonpayable",
      "type": "function"
    },
    {
      "inputs": [
        {
          "internalType": "uint256",
          "name": "poolId",
          "type": "uint256"
        },
        {
          "internalType": "address",
          "name": "newMaintainer",
          "type": "address"
        }
      ],
      "name": "changeMaintainer",
      "outputs": [],
      "stateMutability": "nonpayable",
      "type": "function"
    },
    {
      "inputs": [
        {
          "internalType": "address",
          "name": "_newSenate",
          "type": "address"
        }
      ],
      "name": "changeSenate",
      "outputs": [],
      "stateMutability": "nonpayable",
      "type": "function"
    },
    {
      "inputs": [
        {
          "internalType": "uint256",
          "name": "id",
          "type": "uint256"
        },
        {
          "internalType": "uint256",
          "name": "value",
          "type": "uint256"
        }
      ],
      "name": "decreaseWalletBalance",
      "outputs": [
        {
          "internalType": "bool",
          "name": "",
          "type": "bool"
        }
      ],
      "stateMutability": "nonpayable",
      "type": "function"
    },
    {
      "inputs": [
        {
          "internalType": "uint256",
          "name": "poolId",
          "type": "uint256"
        },
        {
          "internalType": "uint256[]",
          "name": "operatorIds",
          "type": "uint256[]"
        },
        {
          "internalType": "uint256[]",
          "name": "allowances",
          "type": "uint256[]"
        }
      ],
      "name": "delegate",
      "outputs": [],
      "stateMutability": "nonpayable",
      "type": "function"
    },
    {
      "inputs": [
        {
          "internalType": "uint256",
          "name": "poolId",
          "type": "uint256"
        }
      ],
      "name": "deployLiquidityPool",
      "outputs": [],
      "stateMutability": "nonpayable",
      "type": "function"
    },
    {
      "inputs": [
        {
          "internalType": "uint256",
          "name": "poolId",
          "type": "uint256"
        },
        {
          "internalType": "uint256",
          "name": "price",
          "type": "uint256"
        },
        {
          "internalType": "bytes32[]",
          "name": "priceProof",
          "type": "bytes32[]"
        },
        {
          "internalType": "uint256",
          "name": "mingETH",
          "type": "uint256"
        },
        {
          "internalType": "uint256",
          "name": "deadline",
          "type": "uint256"
        },
        {
          "internalType": "address",
          "name": "receiver",
          "type": "address"
        }
      ],
      "name": "deposit",
      "outputs": [
        {
          "internalType": "uint256",
          "name": "boughtgETH",
          "type": "uint256"
        },
        {
          "internalType": "uint256",
          "name": "mintedgETH",
          "type": "uint256"
        }
      ],
      "stateMutability": "payable",
      "type": "function"
    },
    {
      "inputs": [
        {
          "internalType": "string",
          "name": "_name",
          "type": "string"
        },
        {
          "internalType": "uint256",
          "name": "_type",
          "type": "uint256"
        }
      ],
      "name": "generateId",
      "outputs": [
        {
          "internalType": "uint256",
          "name": "id",
          "type": "uint256"
        }
      ],
      "stateMutability": "pure",
      "type": "function"
    },
    {
      "inputs": [],
      "name": "getContractVersion",
      "outputs": [
        {
          "internalType": "uint256",
          "name": "",
          "type": "uint256"
        }
      ],
      "stateMutability": "view",
      "type": "function"
    },
    {
      "inputs": [
        {
          "internalType": "uint256",
          "name": "_id",
          "type": "uint256"
        },
        {
          "internalType": "bytes32",
          "name": "_param",
          "type": "bytes32"
        }
      ],
      "name": "getKey",
      "outputs": [
        {
          "internalType": "bytes32",
          "name": "key",
          "type": "bytes32"
        }
      ],
      "stateMutability": "pure",
      "type": "function"
    },
    {
      "inputs": [
        {
          "internalType": "uint256",
          "name": "id",
          "type": "uint256"
        }
      ],
      "name": "getMaintenanceFee",
      "outputs": [
        {
          "internalType": "uint256",
          "name": "",
          "type": "uint256"
        }
      ],
      "stateMutability": "view",
      "type": "function"
    },
    {
      "inputs": [
        {
          "internalType": "uint256",
          "name": "_type",
          "type": "uint256"
        }
      ],
      "name": "getPackageVersion",
      "outputs": [
        {
          "internalType": "uint256",
          "name": "",
          "type": "uint256"
        }
      ],
      "stateMutability": "view",
      "type": "function"
    },
    {
      "inputs": [
        {
          "internalType": "uint256",
          "name": "id",
          "type": "uint256"
        }
      ],
      "name": "getProposal",
      "outputs": [
        {
          "components": [
            {
              "internalType": "address",
              "name": "CONTROLLER",
              "type": "address"
            },
            {
              "internalType": "uint256",
              "name": "TYPE",
              "type": "uint256"
            },
            {
              "internalType": "bytes",
              "name": "NAME",
              "type": "bytes"
            },
            {
              "internalType": "uint256",
              "name": "deadline",
              "type": "uint256"
            }
          ],
          "internalType": "struct GeodeModuleLib.Proposal",
          "name": "proposal",
          "type": "tuple"
        }
      ],
      "stateMutability": "view",
      "type": "function"
    },
    {
      "inputs": [
        {
          "internalType": "bytes",
          "name": "pubkey",
          "type": "bytes"
        }
      ],
      "name": "getValidator",
      "outputs": [
        {
          "components": [
            {
              "internalType": "uint64",
              "name": "state",
              "type": "uint64"
            },
            {
              "internalType": "uint64",
              "name": "index",
              "type": "uint64"
            },
            {
              "internalType": "uint64",
              "name": "createdAt",
              "type": "uint64"
            },
            {
              "internalType": "uint64",
              "name": "period",
              "type": "uint64"
            },
            {
              "internalType": "uint256",
              "name": "poolId",
              "type": "uint256"
            },
            {
              "internalType": "uint256",
              "name": "operatorId",
              "type": "uint256"
            },
            {
              "internalType": "uint256",
              "name": "poolFee",
              "type": "uint256"
            },
            {
              "internalType": "uint256",
              "name": "operatorFee",
              "type": "uint256"
            },
            {
              "internalType": "uint256",
              "name": "governanceFee",
              "type": "uint256"
            },
            {
              "internalType": "bytes",
              "name": "signature31",
              "type": "bytes"
            }
          ],
          "internalType": "struct StakeModuleLib.Validator",
          "name": "",
          "type": "tuple"
        }
      ],
      "stateMutability": "view",
      "type": "function"
    },
    {
      "inputs": [
        {
          "internalType": "uint256",
          "name": "id",
          "type": "uint256"
        }
      ],
      "name": "getValidatorPeriod",
      "outputs": [
        {
          "internalType": "uint256",
          "name": "",
          "type": "uint256"
        }
      ],
      "stateMutability": "view",
      "type": "function"
    },
    {
      "inputs": [
        {
          "internalType": "uint256",
          "name": "id",
          "type": "uint256"
        }
      ],
      "name": "increaseWalletBalance",
      "outputs": [
        {
          "internalType": "bool",
          "name": "",
          "type": "bool"
        }
      ],
      "stateMutability": "payable",
      "type": "function"
    },
    {
      "inputs": [
        {
          "internalType": "address",
          "name": "_governance",
          "type": "address"
        },
        {
          "internalType": "address",
          "name": "_senate",
          "type": "address"
        },
        {
          "internalType": "address",
          "name": "_gETH",
          "type": "address"
        },
        {
          "internalType": "address",
          "name": "_oracle_position",
          "type": "address"
        },
        {
          "internalType": "bytes",
          "name": "versionName",
          "type": "bytes"
        }
      ],
      "name": "initialize",
      "outputs": [],
      "stateMutability": "nonpayable",
      "type": "function"
    },
    {
      "inputs": [
        {
          "internalType": "uint256",
          "name": "id",
          "type": "uint256"
        },
        {
          "internalType": "uint256",
          "name": "fee",
          "type": "uint256"
        },
        {
          "internalType": "uint256",
          "name": "validatorPeriod",
          "type": "uint256"
        },
        {
          "internalType": "address",
          "name": "maintainer",
          "type": "address"
        }
      ],
      "name": "initiateOperator",
      "outputs": [],
      "stateMutability": "payable",
      "type": "function"
    },
    {
      "inputs": [
        {
          "internalType": "uint256",
          "name": "fee",
          "type": "uint256"
        },
        {
          "internalType": "uint256",
          "name": "middlewareVersion",
          "type": "uint256"
        },
        {
          "internalType": "address",
          "name": "maintainer",
          "type": "address"
        },
        {
          "internalType": "bytes",
          "name": "NAME",
          "type": "bytes"
        },
        {
          "internalType": "bytes",
          "name": "middleware_data",
          "type": "bytes"
        },
        {
          "internalType": "bool[3]",
          "name": "config",
          "type": "bool[3]"
        }
      ],
      "name": "initiatePool",
      "outputs": [
        {
          "internalType": "uint256",
          "name": "poolId",
          "type": "uint256"
        }
      ],
      "stateMutability": "payable",
      "type": "function"
    },
    {
      "inputs": [
        {
          "internalType": "uint256",
          "name": "_type",
          "type": "uint256"
        },
        {
          "internalType": "uint256",
          "name": "_version",
          "type": "uint256"
        }
      ],
      "name": "isMiddleware",
      "outputs": [
        {
          "internalType": "bool",
          "name": "",
          "type": "bool"
        }
      ],
      "stateMutability": "view",
      "type": "function"
    },
    {
      "inputs": [
        {
          "internalType": "uint256",
          "name": "poolId",
          "type": "uint256"
        }
      ],
      "name": "isMintingAllowed",
      "outputs": [
        {
          "internalType": "bool",
          "name": "",
          "type": "bool"
        }
      ],
      "stateMutability": "view",
      "type": "function"
    },
    {
      "inputs": [
        {
          "internalType": "uint256",
          "name": "poolId",
          "type": "uint256"
        }
      ],
      "name": "isPriceValid",
      "outputs": [
        {
          "internalType": "bool",
          "name": "",
          "type": "bool"
        }
      ],
      "stateMutability": "view",
      "type": "function"
    },
    {
      "inputs": [
        {
          "internalType": "uint256",
          "name": "operatorId",
          "type": "uint256"
        }
      ],
      "name": "isPrisoned",
      "outputs": [
        {
          "internalType": "bool",
          "name": "",
          "type": "bool"
        }
      ],
      "stateMutability": "view",
      "type": "function"
    },
    {
      "inputs": [
        {
          "internalType": "uint256",
          "name": "poolId",
          "type": "uint256"
        }
      ],
      "name": "isPrivatePool",
      "outputs": [
        {
          "internalType": "bool",
          "name": "",
          "type": "bool"
        }
      ],
      "stateMutability": "view",
      "type": "function"
    },
    {
      "inputs": [
        {
          "internalType": "uint256",
          "name": "poolId",
          "type": "uint256"
        },
        {
          "internalType": "address",
          "name": "staker",
          "type": "address"
        }
      ],
      "name": "isWhitelisted",
      "outputs": [
        {
          "internalType": "bool",
          "name": "",
          "type": "bool"
        }
      ],
      "stateMutability": "view",
      "type": "function"
    },
    {
      "inputs": [],
      "name": "isolationMode",
      "outputs": [
        {
          "internalType": "bool",
          "name": "",
          "type": "bool"
        }
      ],
      "stateMutability": "view",
      "type": "function"
    },
    {
      "inputs": [
        {
          "internalType": "address",
          "name": "",
          "type": "address"
        },
        {
          "internalType": "address",
          "name": "",
          "type": "address"
        },
        {
          "internalType": "uint256[]",
          "name": "",
          "type": "uint256[]"
        },
        {
          "internalType": "uint256[]",
          "name": "",
          "type": "uint256[]"
        },
        {
          "internalType": "bytes",
          "name": "",
          "type": "bytes"
        }
      ],
      "name": "onERC1155BatchReceived",
      "outputs": [
        {
          "internalType": "bytes4",
          "name": "",
          "type": "bytes4"
        }
      ],
      "stateMutability": "nonpayable",
      "type": "function"
    },
    {
      "inputs": [
        {
          "internalType": "address",
          "name": "",
          "type": "address"
        },
        {
          "internalType": "address",
          "name": "",
          "type": "address"
        },
        {
          "internalType": "uint256",
          "name": "",
          "type": "uint256"
        },
        {
          "internalType": "uint256",
          "name": "",
          "type": "uint256"
        },
        {
          "internalType": "bytes",
          "name": "",
          "type": "bytes"
        }
      ],
      "name": "onERC1155Received",
      "outputs": [
        {
          "internalType": "bytes4",
          "name": "",
          "type": "bytes4"
        }
      ],
      "stateMutability": "nonpayable",
      "type": "function"
    },
    {
      "inputs": [
        {
          "internalType": "uint256",
          "name": "poolId",
          "type": "uint256"
        },
        {
          "internalType": "uint256",
          "name": "operatorId",
          "type": "uint256"
        }
      ],
      "name": "operatorAllowance",
      "outputs": [
        {
          "internalType": "uint256",
          "name": "",
          "type": "uint256"
        }
      ],
      "stateMutability": "view",
      "type": "function"
    },
    {
      "inputs": [],
      "name": "pause",
      "outputs": [],
      "stateMutability": "nonpayable",
      "type": "function"
    },
    {
      "inputs": [],
      "name": "paused",
      "outputs": [
        {
          "internalType": "bool",
          "name": "",
          "type": "bool"
        }
      ],
      "stateMutability": "view",
      "type": "function"
    },
    {
      "inputs": [],
      "name": "pausegETH",
      "outputs": [],
      "stateMutability": "nonpayable",
      "type": "function"
    },
    {
      "inputs": [
        {
          "internalType": "uint256",
          "name": "poolId",
          "type": "uint256"
        },
        {
          "internalType": "uint256",
          "name": "price",
          "type": "uint256"
        },
        {
          "internalType": "bytes32[]",
          "name": "priceProof",
          "type": "bytes32[]"
        }
      ],
      "name": "priceSync",
      "outputs": [],
      "stateMutability": "nonpayable",
      "type": "function"
    },
    {
      "inputs": [
        {
          "internalType": "uint256[]",
          "name": "poolIds",
          "type": "uint256[]"
        },
        {
          "internalType": "uint256[]",
          "name": "prices",
          "type": "uint256[]"
        },
        {
          "internalType": "bytes32[][]",
          "name": "priceProofs",
          "type": "bytes32[][]"
        }
      ],
      "name": "priceSyncBatch",
      "outputs": [],
      "stateMutability": "nonpayable",
      "type": "function"
    },
    {
      "inputs": [
        {
          "internalType": "address",
          "name": "_CONTROLLER",
          "type": "address"
        },
        {
          "internalType": "uint256",
          "name": "_TYPE",
          "type": "uint256"
        },
        {
          "internalType": "bytes",
          "name": "_NAME",
          "type": "bytes"
        },
        {
          "internalType": "uint256",
          "name": "duration",
          "type": "uint256"
        }
      ],
      "name": "propose",
      "outputs": [
        {
          "internalType": "uint256",
          "name": "id",
          "type": "uint256"
        }
      ],
      "stateMutability": "nonpayable",
      "type": "function"
    },
    {
      "inputs": [
        {
          "internalType": "uint256",
          "name": "poolId",
          "type": "uint256"
        },
        {
          "internalType": "uint256",
          "name": "operatorId",
          "type": "uint256"
        },
        {
          "internalType": "bytes[]",
          "name": "pubkeys",
          "type": "bytes[]"
        },
        {
          "internalType": "bytes[]",
          "name": "signatures1",
          "type": "bytes[]"
        },
        {
          "internalType": "bytes[]",
          "name": "signatures31",
          "type": "bytes[]"
        }
      ],
      "name": "proposeStake",
      "outputs": [],
      "stateMutability": "nonpayable",
      "type": "function"
    },
    {
      "inputs": [],
      "name": "proxiableUUID",
      "outputs": [
        {
          "internalType": "bytes32",
          "name": "",
          "type": "bytes32"
        }
      ],
      "stateMutability": "view",
      "type": "function"
    },
    {
      "inputs": [
        {
          "internalType": "uint256",
          "name": "packageType",
          "type": "uint256"
        }
      ],
      "name": "pushUpgrade",
      "outputs": [
        {
          "internalType": "uint256",
          "name": "id",
          "type": "uint256"
        }
      ],
      "stateMutability": "nonpayable",
      "type": "function"
    },
    {
      "inputs": [
        {
          "internalType": "uint256",
          "name": "id",
          "type": "uint256"
        },
        {
          "internalType": "bytes32",
          "name": "key",
          "type": "bytes32"
        }
      ],
      "name": "readAddress",
      "outputs": [
        {
          "internalType": "address",
          "name": "data",
          "type": "address"
        }
      ],
      "stateMutability": "view",
      "type": "function"
    },
    {
      "inputs": [
        {
          "internalType": "uint256",
          "name": "id",
          "type": "uint256"
        },
        {
          "internalType": "bytes32",
          "name": "key",
          "type": "bytes32"
        },
        {
          "internalType": "uint256",
          "name": "index",
          "type": "uint256"
        }
      ],
      "name": "readAddressArray",
      "outputs": [
        {
          "internalType": "address",
          "name": "data",
          "type": "address"
        }
      ],
      "stateMutability": "view",
      "type": "function"
    },
    {
      "inputs": [
        {
          "internalType": "uint256",
          "name": "id",
          "type": "uint256"
        },
        {
          "internalType": "bytes32",
          "name": "key",
          "type": "bytes32"
        }
      ],
      "name": "readBytes",
      "outputs": [
        {
          "internalType": "bytes",
          "name": "data",
          "type": "bytes"
        }
      ],
      "stateMutability": "view",
      "type": "function"
    },
    {
      "inputs": [
        {
          "internalType": "uint256",
          "name": "id",
          "type": "uint256"
        },
        {
          "internalType": "bytes32",
          "name": "key",
          "type": "bytes32"
        },
        {
          "internalType": "uint256",
          "name": "index",
          "type": "uint256"
        }
      ],
      "name": "readBytesArray",
      "outputs": [
        {
          "internalType": "bytes",
          "name": "data",
          "type": "bytes"
        }
      ],
      "stateMutability": "view",
      "type": "function"
    },
    {
      "inputs": [
        {
          "internalType": "uint256",
          "name": "id",
          "type": "uint256"
        },
        {
          "internalType": "bytes32",
          "name": "key",
          "type": "bytes32"
        }
      ],
      "name": "readUint",
      "outputs": [
        {
          "internalType": "uint256",
          "name": "data",
          "type": "uint256"
        }
      ],
      "stateMutability": "view",
      "type": "function"
    },
    {
      "inputs": [
        {
          "internalType": "uint256",
          "name": "id",
          "type": "uint256"
        },
        {
          "internalType": "bytes32",
          "name": "key",
          "type": "bytes32"
        },
        {
          "internalType": "uint256",
          "name": "index",
          "type": "uint256"
        }
      ],
      "name": "readUintArray",
      "outputs": [
        {
          "internalType": "uint256",
          "name": "data",
          "type": "uint256"
        }
      ],
      "stateMutability": "view",
      "type": "function"
    },
    {
      "inputs": [
        {
          "internalType": "uint256[]",
          "name": "feeThefts",
          "type": "uint256[]"
        },
        {
          "internalType": "bytes[]",
          "name": "proofs",
          "type": "bytes[]"
        }
      ],
      "name": "regulateOperators",
      "outputs": [],
      "stateMutability": "nonpayable",
      "type": "function"
    },
    {
      "inputs": [
        {
          "internalType": "uint256",
          "name": "operatorId",
          "type": "uint256"
        }
      ],
      "name": "releasePrisoned",
      "outputs": [],
      "stateMutability": "nonpayable",
      "type": "function"
    },
    {
      "inputs": [
        {
          "internalType": "bytes32",
          "name": "priceMerkleRoot",
          "type": "bytes32"
        },
        {
          "internalType": "bytes32",
          "name": "balanceMerkleRoot",
          "type": "bytes32"
        },
        {
          "internalType": "uint256",
          "name": "allValidatorsCount",
          "type": "uint256"
        }
      ],
      "name": "reportBeacon",
      "outputs": [],
      "stateMutability": "nonpayable",
      "type": "function"
    },
    {
      "inputs": [
        {
          "internalType": "address",
          "name": "_newSenate",
          "type": "address"
        }
      ],
      "name": "rescueSenate",
      "outputs": [],
      "stateMutability": "nonpayable",
      "type": "function"
    },
    {
      "inputs": [
        {
          "internalType": "uint256",
          "name": "poolId",
          "type": "uint256"
        },
        {
          "internalType": "uint256",
          "name": "operatorId",
          "type": "uint256"
        },
        {
          "internalType": "uint256",
          "name": "fallbackThreshold",
          "type": "uint256"
        }
      ],
      "name": "setFallbackOperator",
      "outputs": [],
      "stateMutability": "nonpayable",
      "type": "function"
    },
    {
      "inputs": [
        {
          "internalType": "uint256",
          "name": "newFee",
          "type": "uint256"
        }
      ],
      "name": "setGovernanceFee",
      "outputs": [],
      "stateMutability": "nonpayable",
      "type": "function"
    },
    {
      "inputs": [
        {
          "internalType": "uint256",
          "name": "poolId",
          "type": "uint256"
        },
        {
          "internalType": "bool",
          "name": "makePrivate",
          "type": "bool"
        }
      ],
      "name": "setPoolVisibility",
      "outputs": [],
      "stateMutability": "nonpayable",
      "type": "function"
    },
    {
      "inputs": [
        {
          "internalType": "uint256",
          "name": "poolId",
          "type": "uint256"
        },
        {
          "internalType": "address",
          "name": "whitelist",
          "type": "address"
        }
      ],
      "name": "setWhitelist",
      "outputs": [],
      "stateMutability": "nonpayable",
      "type": "function"
    },
    {
      "inputs": [
        {
          "internalType": "uint256",
          "name": "poolId",
          "type": "uint256"
        },
        {
          "internalType": "address",
          "name": "yieldReceiver",
          "type": "address"
        }
      ],
      "name": "setYieldReceiver",
      "outputs": [],
      "stateMutability": "nonpayable",
      "type": "function"
    },
    {
      "inputs": [
        {
          "internalType": "uint256",
          "name": "operatorId",
          "type": "uint256"
        },
        {
          "internalType": "bytes[]",
          "name": "pubkeys",
          "type": "bytes[]"
        }
      ],
      "name": "stake",
      "outputs": [],
      "stateMutability": "nonpayable",
      "type": "function"
    },
    {
      "inputs": [
        {
          "internalType": "bytes4",
          "name": "interfaceId",
          "type": "bytes4"
        }
      ],
      "name": "supportsInterface",
      "outputs": [
        {
          "internalType": "bool",
          "name": "",
          "type": "bool"
        }
      ],
      "stateMutability": "view",
      "type": "function"
    },
    {
      "inputs": [
        {
          "internalType": "uint256",
          "name": "id",
          "type": "uint256"
        },
        {
          "internalType": "uint256",
          "name": "newFee",
          "type": "uint256"
        }
      ],
      "name": "switchMaintenanceFee",
      "outputs": [],
      "stateMutability": "nonpayable",
      "type": "function"
    },
    {
      "inputs": [
        {
          "internalType": "uint256",
          "name": "operatorId",
          "type": "uint256"
        },
        {
          "internalType": "uint256",
          "name": "newPeriod",
          "type": "uint256"
        }
      ],
      "name": "switchValidatorPeriod",
      "outputs": [],
      "stateMutability": "nonpayable",
      "type": "function"
    },
    {
      "inputs": [],
      "name": "unpause",
      "outputs": [],
      "stateMutability": "nonpayable",
      "type": "function"
    },
    {
      "inputs": [],
      "name": "unpausegETH",
      "outputs": [],
      "stateMutability": "nonpayable",
      "type": "function"
    },
    {
      "inputs": [
        {
          "internalType": "uint256",
          "name": "validatorVerificationIndex",
          "type": "uint256"
        },
        {
          "internalType": "bytes[]",
          "name": "alienatedPubkeys",
          "type": "bytes[]"
        }
      ],
      "name": "updateVerificationIndex",
      "outputs": [],
      "stateMutability": "nonpayable",
      "type": "function"
    },
    {
      "inputs": [
        {
          "internalType": "address",
          "name": "newImplementation",
          "type": "address"
        }
      ],
      "name": "upgradeTo",
      "outputs": [],
      "stateMutability": "nonpayable",
      "type": "function"
    },
    {
      "inputs": [
        {
          "internalType": "address",
          "name": "newImplementation",
          "type": "address"
        },
        {
          "internalType": "bytes",
          "name": "data",
          "type": "bytes"
        }
      ],
      "name": "upgradeToAndCall",
      "outputs": [],
      "stateMutability": "payable",
      "type": "function"
    },
    {
      "stateMutability": "payable",
      "type": "receive"
    }
  ],
  "transactionHash": "0x019f1c220777ca1a90a5b0ebd2eea472722124dad807be7e8e716461cfcbe53a",
  "args": [],
  "numDeployments": 1,
  "solcInputHash": "0d9b4f013ad8b24d94c0978b4d3f3ea8",
  "bytecode": "0x60a06040523060601b6080523480156200001857600080fd5b506200002362000029565b620000eb565b600054610100900460ff1615620000965760405162461bcd60e51b815260206004820152602760248201527f496e697469616c697a61626c653a20636f6e747261637420697320696e697469604482015266616c697a696e6760c81b606482015260840160405180910390fd5b60005460ff9081161015620000e9576000805460ff191660ff9081179091556040519081527f7f26b83ff96e1f2b6a682f133852f6798a09c465da95921460cefb38474024989060200160405180910390a15b565b60805160601c614ead62000126600039600081816114f50152818161153501528181611a2101528181611a610152611b650152614ead6000f3fe6080604052600436106103fe5760003560e01c80636d07e40411610213578063b784c7bb11610123578063de22bc72116100ab578063e1c0e7371161007a578063e1c0e73714610d0e578063e3099e0914610d2e578063e72b1d6d14610d4e578063e768887e14610d6e578063f23a6e6114610d8e57600080fd5b8063de22bc7214610c99578063df1ff92914610cb9578063e02a520814610cd9578063e05ec0a314610cf957600080fd5b8063cdaba274116100f2578063cdaba27414610c13578063d5357a1a14610c26578063d89da28614610c39578063dab840c714610c59578063dd272bf414610c7957600080fd5b8063b784c7bb14610b61578063bc197c8114610b81578063c7f758a814610bc6578063cb337b4e14610bf357600080fd5b80638aa10435116101a6578063a270fece11610175578063a270fece14610a77578063ad4ac4c414610a97578063ad8655cb14610af4578063af6561ef14610b14578063b4891bfd14610b3457600080fd5b80638aa104351461097a578063964ff29c1461099057806398951b5614610a2857806399ac48ba14610a5757600080fd5b80637d22c35c116101e25780637d22c35c146109105780637e1ece9f146109305780638456cb59146109505780638650c0721461096557600080fd5b80636d07e4041461088357806372267954146108a3578063736ed2e3146108d057806375fcb017146108f057600080fd5b80633b8ba8621161030e57806352d1902d116102a15780635a34bb15116102705780635a34bb15146107c25780635b50fea6146107e25780635c975abb146108025780635d9e085d1461081a57806366caab6f1461084757600080fd5b806352d1902d146107355780635329512b1461074a57806356a72dbf14610782578063571ac56f146107a257600080fd5b80634a936417116102dd5780634a936417146106c25780634f1ef286146106e25780634f62d616146106f5578063524cb25b1461071557600080fd5b80633b8ba862146106455780633c6a05ef146106655780633c9e438c146106855780633f4ba83a146106ad57600080fd5b80631d95313a1161039157806328d7d72a1161036057806328d7d72a146105b057806332a69330146105d0578063341b3c00146105f057806335782386146106055780633659cfe61461062557600080fd5b80631d95313a146105225780631da715911461055057806326eef2c01461057057806327cd2aa41461059057600080fd5b80630aea8f4d116103cd5780630aea8f4d146104a2578063100f72b6146104c2578063113743cb146104e25780631b6f23d01461050257600080fd5b806301ffc9a71461040a578063041bc6231461043f578063060028ea146104545780630ab4bc911461047457600080fd5b3661040557005b600080fd5b34801561041657600080fd5b5061042a610425366004614025565b610dba565b60405190151581526020015b60405180910390f35b61045261044d36600461451c565b610df1565b005b34801561046057600080fd5b5061042a61046f366004614187565b610e99565b34801561048057600080fd5b5061049461048f3660046142b9565b610f27565b604051908152602001610436565b3480156104ae57600080fd5b506104946104bd366004614187565b610fca565b3480156104ce57600080fd5b5061042a6104dd366004614187565b611058565b3480156104ee57600080fd5b506104526104fd366004614470565b6110a2565b34801561050e57600080fd5b5061045261051d366004614294565b611130565b34801561052e57600080fd5b5061049461053d366004614187565b6000908152610149602052604090205490565b34801561055c57600080fd5b5061049461056b3660046142b9565b6111a7565b34801561057c57600080fd5b5061045261058b3660046141d0565b6111b3565b34801561059c57600080fd5b5061042a6105ab366004614187565b611232565b3480156105bc57600080fd5b506104526105cb36600461421b565b611274565b3480156105dc57600080fd5b506104526105eb366004614187565b6112f5565b3480156105fc57600080fd5b50610452611416565b34801561061157600080fd5b506104526106203660046142b9565b61149c565b34801561063157600080fd5b50610452610640366004613c07565b6114ea565b34801561065157600080fd5b50610494610660366004613e15565b6115d0565b34801561067157600080fd5b50610452610680366004614187565b611673565b6106986106933660046143f3565b6116e5565b60408051928352602083019190915201610436565b3480156106b957600080fd5b506104526118c5565b3480156106ce57600080fd5b506104526106dd366004613c24565b6118fa565b6104526106f0366004613dc6565b611a16565b34801561070157600080fd5b506104526107103660046141a0565b611ad0565b34801561072157600080fd5b506104526107303660046141a0565b611b14565b34801561074157600080fd5b50610494611b58565b34801561075657600080fd5b5061076a610765366004613ff9565b611c0b565b6040516001600160a01b039091168152602001610436565b34801561078e57600080fd5b5061049461079d3660046142b9565b611c22565b3480156107ae57600080fd5b506104526107bd366004613ff9565b611c30565b3480156107ce57600080fd5b506104946107dd366004614090565b611c85565b3480156107ee57600080fd5b506104526107fd366004613f3c565b611cbc565b34801561080e57600080fd5b5060d95460ff1661042a565b34801561082657600080fd5b50610494610835366004614187565b60009081526001602052604090205490565b34801561085357600080fd5b5061042a6108623660046142b9565b600091825261014a6020908152604080842092845291905290205460ff1690565b34801561088f57600080fd5b5061045261089e3660046141a0565b611d44565b3480156108af57600080fd5b506108c36108be3660046142b9565b611d80565b604051610436919061473d565b3480156108dc57600080fd5b506104526108eb3660046141d0565b611d8e565b3480156108fc57600080fd5b5061045261090b366004614187565b611dd8565b34801561091c57600080fd5b5061042a61092b3660046141a0565b611e56565b34801561093c57600080fd5b5061045261094b3660046143ad565b611ee5565b34801561095c57600080fd5b50610452611f67565b34801561097157600080fd5b5061042a611f9a565b34801561098657600080fd5b506101b654610494565b34801561099c57600080fd5b5061013d5461013e5461013f54610140805461014154610142546101435461014454610145546101465461014754604080516001600160a01b039d8e1681529c909b1660208d0152998b019890985260608a0195909552608089019390935260a088019190915260c087015260e086015261010085015261012084019190915282015261016001610436565b348015610a3457600080fd5b50610a48610a43366004614187565b611fdc565b604051610436939291906146d8565b348015610a6357600080fd5b5061076a610a723660046142b9565b612063565b348015610a8357600080fd5b5061042a610a923660046142b9565b612071565b348015610aa357600080fd5b506101b1546101b2546101b3546101b4546101b554604080516001600160a01b039687168152948616602086015294909216938301939093526060820192909252608081019190915260a001610436565b348015610b0057600080fd5b50610452610b0f366004613c07565b612119565b348015610b2057600080fd5b50610452610b2f366004613ed1565b612161565b348015610b4057600080fd5b50610b54610b4f36600461404f565b6121ad565b6040516104369190614bfb565b348015610b6d57600080fd5b50610452610b7c3660046142b9565b612369565b348015610b8d57600080fd5b50610bad610b9c366004613cb1565b63bc197c8160e01b95945050505050565b6040516001600160e01b03199091168152602001610436565b348015610bd257600080fd5b50610be6610be1366004614187565b6123b7565b6040516104369190614bad565b348015610bff57600080fd5b5061042a610c0e366004614187565b61247a565b61042a610c21366004614187565b6124bc565b610494610c343660046142ff565b61256a565b348015610c4557600080fd5b50610452610c543660046141a0565b61261c565b348015610c6557600080fd5b50610452610c74366004613c07565b612658565b348015610c8557600080fd5b5061042a610c9436600461404f565b6126a0565b348015610ca557600080fd5b50610494610cb4366004614187565b6126e0565b348015610cc557600080fd5b50610452610cd4366004613ff9565b612722565b348015610ce557600080fd5b50610494610cf43660046142b9565b612778565b348015610d0557600080fd5b506104526127ab565b348015610d1a57600080fd5b50610452610d2936600461404f565b61281d565b348015610d3a57600080fd5b50610494610d49366004614187565b612865565b348015610d5a57600080fd5b50610494610d69366004613ff9565b6129eb565b348015610d7a57600080fd5b506108c3610d89366004613ff9565b6129fa565b348015610d9a57600080fd5b50610bad610da9366004613d5e565b63f23a6e6160e01b95945050505050565b60006001600160e01b03198216630271189760e51b1480610deb57506301ffc9a760e01b6001600160e01b03198316145b92915050565b610df9612a09565b610e01612a4f565b604051633aeaeb1f60e01b8152600160048201526024810185905260448101849052606481018390526001600160a01b03821660848201527368d1fA204C4fdfcCC074863Bf7bD71e3b3974b7d90633aeaeb1f9060a40160006040518083038186803b158015610e7057600080fd5b505af4158015610e84573d6000803e3d6000fd5b50505050610e93600161010b55565b50505050565b60405162d7c84f60e31b815261013d6004820152602481018290526000907368d1fA204C4fdfcCC074863Bf7bD71e3b3974b7d906306be4278906044015b60206040518083038186803b158015610eef57600080fd5b505af4158015610f03573d6000803e3d6000fd5b505050506040513d601f19601f82011682018060405250810190610deb9190613fc3565b60405163193e39b760e31b815261013d60048201526001602482015260448101839052606481018290526000907368d1fA204C4fdfcCC074863Bf7bD71e3b3974b7d9063c9f1cdb89060840160206040518083038186803b158015610f8b57600080fd5b505af4158015610f9f573d6000803e3d6000fd5b505050506040513d601f19601f82011682018060405250810190610fc39190613fe0565b9392505050565b60405163a87ef4c560e01b815260016004820152602481018290526000907368d1fA204C4fdfcCC074863Bf7bD71e3b3974b7d9063a87ef4c5906044015b60206040518083038186803b15801561102057600080fd5b505af4158015611034573d6000803e3d6000fd5b505050506040513d601f19601f82011682018060405250810190610deb9190613fe0565b60405163452c42af60e11b815261013d600482015260016024820152604481018290526000907368d1fA204C4fdfcCC074863Bf7bD71e3b3974b7d90638a58855e90606401610ed7565b6110aa612a09565b6040516306a8b7f160e21b81527368d1fA204C4fdfcCC074863Bf7bD71e3b3974b7d90631aa2dfc4906110f69061013d906001908d908d908d908d908d908d908d908d90600401614b48565b60006040518083038186803b15801561110e57600080fd5b505af4158015611122573d6000803e3d6000fd5b505050505050505050505050565b6040516368d1ee2360e01b8152600160048201526024810183905281151560448201527368d1fA204C4fdfcCC074863Bf7bD71e3b3974b7d906368d1ee23906064015b60006040518083038186803b15801561118b57600080fd5b505af415801561119f573d6000803e3d6000fd5b505050505050565b6000610fc38383612ab3565b6111bb612a09565b6040516303b3882160e41b81527350A5a9Fd50e6C630a66Ab3b570C5B079E0567b6090633b388210906111fd9061013d90600190889088908890600401614a47565b60006040518083038186803b15801561121557600080fd5b505af4158015611229573d6000803e3d6000fd5b50505050505050565b60405163ba6825ef60e01b815260016004820152602481018290526000907368d1fA204C4fdfcCC074863Bf7bD71e3b3974b7d9063ba6825ef90604401610ed7565b61127c612a09565b6040516303dc57ff60e61b81527368d1fA204C4fdfcCC074863Bf7bD71e3b3974b7d9063f715ffc0906112be90600190899089908990899089906004016148d1565b60006040518083038186803b1580156112d657600080fd5b505af41580156112ea573d6000803e3d6000fd5b505050505050505050565b6101b1546001600160a01b031633146113295760405162461bcd60e51b8152600401611320906147e8565b60405180910390fd5b606461133b6402540be4006005614d45565b6113459190614d23565b8111156113945760405162461bcd60e51b815260206004820152601b60248201527f504f5254414c3a3e204d41585f474f5645524e414e43455f46454500000000006044820152606401611320565b6366316a1d42116113d95760405162461bcd60e51b815260206004820152600f60248201526e2827a92a20a61d3737ba103cb2ba1760891b6044820152606401611320565b6101458190556040518181527fbcb0f386c91215302d3ebac3621cefd2cb0f069b53450940d8f1715b11e58645906020015b60405180910390a150565b6101b1546001600160a01b031633146114415760405162461bcd60e51b8152600401611320906147e8565b61013d5460408051638456cb5960e01b815290516001600160a01b0390921691638456cb599160048082019260009290919082900301818387803b15801561148857600080fd5b505af1158015610e93573d6000803e3d6000fd5b6114a4612a09565b6040516305ef04c360e21b81526001600482015260248101839052604481018290527368d1fA204C4fdfcCC074863Bf7bD71e3b3974b7d906317bc130c90606401611173565b306001600160a01b037f00000000000000000000000000000000000000000000000000000000000000001614156115335760405162461bcd60e51b815260040161132090614750565b7f00000000000000000000000000000000000000000000000000000000000000006001600160a01b0316611565612adf565b6001600160a01b03161461158b5760405162461bcd60e51b81526004016113209061479c565b61159481612afb565b6115cd8160005b6040519080825280601f01601f1916602001820160405280156115c5576020820181803683370190505b506000612bf2565b50565b6040516334c4fde360e11b8152600090733506980d4d72f056d12216cA7c853000f19e638290636989fbc690611619906101b1906001908b908b908b908b908b9060040161486a565b60206040518083038186803b15801561163157600080fd5b505af4158015611645573d6000803e3d6000fd5b505050506040513d601f19601f820116820180604052508101906116699190613fe0565b9695505050505050565b6101b1546001600160a01b0316331461169e5760405162461bcd60e51b8152600401611320906147e8565b6116b56001826672656c6561736560c81b42612d71565b6040518181527ffb81f9b30d73d830c3544b34d827c08142579ee75710b490bab0b3995468c5659060200161140b565b6000806116f0612a09565b6116f8612a4f565b60405162d7c84f60e31b815261013d6004820152602481018a90527368d1fA204C4fdfcCC074863Bf7bD71e3b3974b7d906306be42789060440160206040518083038186803b15801561174a57600080fd5b505af415801561175e573d6000803e3d6000fd5b505050506040513d601f19601f820116820180604052508101906117829190613fc3565b6117fb57604051638c02d86d60e01b81527350A5a9Fd50e6C630a66Ab3b570C5B079E0567b6090638c02d86d906117ca9061013d906001908e908e908e908e90600401614b10565b60006040518083038186803b1580156117e257600080fd5b505af41580156117f6573d6000803e3d6000fd5b505050505b60405163050dfeaf60e31b815261013d600482015260016024820152604481018a905260648101869052608481018590526001600160a01b03841660a48201527368d1fA204C4fdfcCC074863Bf7bD71e3b3974b7d9063286ff5789060c401604080518083038186803b15801561187157600080fd5b505af4158015611885573d6000803e3d6000fd5b505050506040513d601f19601f820116820180604052508101906118a991906142db565b90925090506118b9600161010b55565b97509795505050505050565b6101b1546001600160a01b031633146118f05760405162461bcd60e51b8152600401611320906147e8565b6118f8612d99565b565b600054610100900460ff161580801561191a5750600054600160ff909116105b806119345750303b158015611934575060005460ff166001145b6119975760405162461bcd60e51b815260206004820152602e60248201527f496e697469616c697a61626c653a20636f6e747261637420697320616c72656160448201526d191e481a5b9a5d1a585b1a5e995960921b6064820152608401611320565b6000805460ff1916600117905580156119ba576000805461ff0019166101001790555b6119c8878787878787612deb565b8015611229576000805461ff0019169055604051600181527f7f26b83ff96e1f2b6a682f133852f6798a09c465da95921460cefb38474024989060200160405180910390a150505050505050565b306001600160a01b037f0000000000000000000000000000000000000000000000000000000000000000161415611a5f5760405162461bcd60e51b815260040161132090614750565b7f00000000000000000000000000000000000000000000000000000000000000006001600160a01b0316611a91612adf565b6001600160a01b031614611ab75760405162461bcd60e51b81526004016113209061479c565b611ac082612afb565b611acc82826001612bf2565b5050565b611ad8612a09565b60405163a1f0cb8360e01b81527368d1fA204C4fdfcCC074863Bf7bD71e3b3974b7d9063a1f0cb839061117390600190869086906004016148b2565b611b1c612a09565b60405163083691f760e41b81527368d1fA204C4fdfcCC074863Bf7bD71e3b3974b7d906383691f709061117390600190869086906004016148b2565b6000306001600160a01b037f00000000000000000000000000000000000000000000000000000000000000001614611bf85760405162461bcd60e51b815260206004820152603860248201527f555550535570677261646561626c653a206d757374206e6f742062652063616c60448201527f6c6564207468726f7567682064656c656761746563616c6c00000000000000006064820152608401611320565b50600080516020614e3183398151915290565b6000611c1a6001858585612e41565b949350505050565b6000610fc360018484612e7f565b611c38612a09565b604051637073703d60e01b8152600160048201526024810184905260448101839052606481018290527368d1fA204C4fdfcCC074863Bf7bD71e3b3974b7d90637073703d906084016111fd565b6000838383604051602001611c9c939291906146c6565b60408051601f198184030181529190528051602090910120949350505050565b611cc4612a09565b60405163171299f160e01b81527350A5a9Fd50e6C630a66Ab3b570C5B079E0567b609063171299f190611d0c9061013d906001908b908b908b908b908b908b90600401614951565b60006040518083038186803b158015611d2457600080fd5b505af4158015611d38573d6000803e3d6000fd5b50505050505050505050565b6040516304ac4a9160e11b8152733506980d4d72f056d12216cA7c853000f19e63829063095895229061117390600190869086906004016148b2565b6060610fc360018484612ea9565b611d96612a09565b604051630527e47960e41b81527368d1fA204C4fdfcCC074863Bf7bD71e3b3974b7d9063527e4790906111fd9061013d90600190889088908890600401614a47565b611de0612a09565b604051634eaaf07b60e11b815261013d600482015260016024820152604481018290527368d1fA204C4fdfcCC074863Bf7bD71e3b3974b7d90639d55e0f6906064015b60006040518083038186803b158015611e3b57600080fd5b505af4158015611e4f573d6000803e3d6000fd5b5050505050565b604051630c6eff3560e31b81526000907368d1fA204C4fdfcCC074863Bf7bD71e3b3974b7d90636377f9a890611e9590600190879087906004016148b2565b60206040518083038186803b158015611ead57600080fd5b505af4158015611ec1573d6000803e3d6000fd5b505050506040513d601f19601f82011682018060405250810190610fc39190613fc3565b611eed612a09565b604051638c02d86d60e01b81527350A5a9Fd50e6C630a66Ab3b570C5B079E0567b6090638c02d86d90611f319061013d906001908990899089908990600401614b10565b60006040518083038186803b158015611f4957600080fd5b505af4158015611f5d573d6000803e3d6000fd5b5050505050505050565b6101b1546001600160a01b03163314611f925760405162461bcd60e51b8152600401611320906147e8565b6118f8612f5b565b6000611fa860d95460ff1690565b80611fca5750611fb6612adf565b6101b3546001600160a01b03908116911614155b80611fd757506101b45442115b905090565b6000806060611fea84612f98565b91945092509050612710821180156120035750614e1f82105b1561201f5760008281526101496020526040902084905561205c565b614e2082118015612031575061752f82105b1561205c57600082815261014a602090815260408083208784529091529020805460ff191660011790555b9193909250565b6000610fc360018484613053565b600061207b612a4f565b604051637cd7c3e560e11b81526001600482015260248101849052604481018390527368d1fA204C4fdfcCC074863Bf7bD71e3b3974b7d9063f9af87ca9060640160206040518083038186803b1580156120d457600080fd5b505af41580156120e8573d6000803e3d6000fd5b505050506040513d601f19601f8201168201806040525081019061210c9190613fc3565b9050610deb600161010b55565b60405163e51d9aa360e01b81526101b160048201526001600160a01b0382166024820152733506980d4d72f056d12216cA7c853000f19e63829063e51d9aa390604401611e23565b612169612a09565b604051630a060fff60e11b81527350A5a9Fd50e6C630a66Ab3b570C5B079E0567b609063140c1ffe90611f319061013d90600190899089908990899060040161491e565b61222760405180610140016040528060006001600160401b0316815260200160006001600160401b0316815260200160006001600160401b0316815260200160006001600160401b031681526020016000815260200160008152602001600081526020016000815260200160008152602001606081525090565b6040516101489061223b9085908590614678565b9081526040805191829003602090810183206101408401835280546001600160401b038082168652680100000000000000008204811693860193909352600160801b8104831693850193909352600160c01b90920416606083015260018101546080830152600281015460a0830152600381015460c0830152600481015460e08301526005810154610100830152600681018054610120840191906122df90614d90565b80601f016020809104026020016040519081016040528092919081815260200182805461230b90614d90565b80156123585780601f1061232d57610100808354040283529160200191612358565b820191906000526020600020905b81548152906001019060200180831161233b57829003601f168201915b505050505081525050905092915050565b612371612a09565b60405163041675ad60e41b81526001600482015260248101839052604481018290527368d1fA204C4fdfcCC074863Bf7bD71e3b3974b7d906341675ad090606401611173565b6123eb604051806080016040528060006001600160a01b031681526020016000815260200160608152602001600081525090565b60405163929fbdfb60e01b81526101b1600482015260248101839052733506980d4d72f056d12216cA7c853000f19e63829063929fbdfb9060440160006040518083038186803b15801561243e57600080fd5b505af4158015612452573d6000803e3d6000fd5b505050506040513d6000823e601f3d908101601f19168201604052610deb91908101906140db565b604051632748bbb560e21b815260016004820152602481018290526000907368d1fA204C4fdfcCC074863Bf7bD71e3b3974b7d90639d22eed490604401610ed7565b60006124c6612a09565b6124ce612a4f565b60405163d53e397160e01b815260016004820152602481018390527368d1fA204C4fdfcCC074863Bf7bD71e3b3974b7d9063d53e39719060440160206040518083038186803b15801561252057600080fd5b505af4158015612534573d6000803e3d6000fd5b505050506040513d601f19601f820116820180604052508101906125589190613fc3565b9050612565600161010b55565b919050565b6000612574612a09565b60405162f093a160e51b81527368d1fA204C4fdfcCC074863Bf7bD71e3b3974b7d90631e127420906125bf9061013d906001908e908e908e908e908e908e908e908e90600401614a78565b60206040518083038186803b1580156125d757600080fd5b505af41580156125eb573d6000803e3d6000fd5b505050506040513d601f19601f8201168201806040525081019061260f9190613fe0565b9998505050505050505050565b60405163f9f185f360e01b81527368d1fA204C4fdfcCC074863Bf7bD71e3b3974b7d9063f9f185f39061117390600190869086906004016148b2565b604051630bde2bc360e01b81526101b160048201526001600160a01b0382166024820152733506980d4d72f056d12216cA7c853000f19e638290630bde2bc390604401611e23565b60405163672bbf9560e01b81526000907368d1fA204C4fdfcCC074863Bf7bD71e3b3974b7d9063672bbf9590611e959061013d9087908790600401614904565b604051633be0f57560e11b815260016004820152602481018290526000907368d1fA204C4fdfcCC074863Bf7bD71e3b3974b7d906377c1eaea90604401611008565b61272a612a09565b604051633cf9d99f60e21b815261013d60048201526024810184905260448101839052606481018290527350A5a9Fd50e6C630a66Ab3b570C5B079E0567b609063f3e7667c906084016111fd565b600082815260016020526040812080548390811061279857612798614de1565b9060005260206000200154905092915050565b6101b1546001600160a01b031633146127d65760405162461bcd60e51b8152600401611320906147e8565b61013d5460408051631fa5d41d60e11b815290516001600160a01b0390921691633f4ba83a9160048082019260009290919082900301818387803b15801561148857600080fd5b612825612a09565b6040516312ed427760e01b81527350A5a9Fd50e6C630a66Ab3b570C5B079E0567b60906312ed4277906111739061013d9060019087908790600401614a27565b600061286f612a09565b612877612a4f565b612710821180156128895750614e1f82105b6128d55760405162461bcd60e51b815260206004820152601b60248201527f504f5254414c3a696e76616c6964207061636b616765207479706500000000006044820152606401611320565b6000828152610149602052604090205433633b8ba8626129046001846921a7a72a2927a62622a960b11b613053565b85612918600186634e414d4560e01b612ea9565b6224ea006040518563ffffffff1660e01b815260040161293b94939291906146ff565b602060405180830381600087803b15801561295557600080fd5b505af1158015612969573d6000803e3d6000fd5b505050506040513d601f19601f8201168201806040525081019061298d9190613fe0565b9150600082116129df5760405162461bcd60e51b815260206004820152601a60248201527f504f5254414c3a63616e6e6f74207075736820757067726164650000000000006044820152606401611320565b50612565600161010b55565b6000611c1a6001858585613087565b6060611c1a60018585856130b6565b60d95460ff16156118f85760405162461bcd60e51b815260206004820152601060248201526f14185d5cd8589b194e881c185d5cd95960821b6044820152606401611320565b600261010b541415612aa35760405162461bcd60e51b815260206004820152601f60248201527f5265656e7472616e637947756172643a207265656e7472616e742063616c6c006044820152606401611320565b600261010b55565b600161010b55565b604080516020808201949094528082019290925280518083038201815260609092019052805191012090565b600080516020614e31833981519152546001600160a01b031690565b733506980d4d72f056d12216cA7c853000f19e6382633f98381a6101b183612b21612adf565b6040516001600160e01b031960e086901b16815260048101939093526001600160a01b03918216602484015216604482015260640160206040518083038186803b158015612b6e57600080fd5b505af4158015612b82573d6000803e3d6000fd5b505050506040513d601f19601f82011682018060405250810190612ba69190613fc3565b6115cd5760405162461bcd60e51b815260206004820152601960248201527f474d3a6e6f7420616c6c6f77656420746f2075706772616465000000000000006044820152606401611320565b7f4910fdfa16fed3260ed0e7147f7cc6da11a60208b5b9406d12a635614ffd91435460ff1615612c2a57612c258361316d565b505050565b826001600160a01b03166352d1902d6040518163ffffffff1660e01b815260040160206040518083038186803b158015612c6357600080fd5b505afa925050508015612c93575060408051601f3d908101601f19168201909252612c9091810190613fe0565b60015b612cf65760405162461bcd60e51b815260206004820152602e60248201527f45524331393637557067726164653a206e657720696d706c656d656e7461746960448201526d6f6e206973206e6f74205555505360901b6064820152608401611320565b600080516020614e318339815191528114612d655760405162461bcd60e51b815260206004820152602960248201527f45524331393637557067726164653a20756e737570706f727465642070726f786044820152681a58589b195555525160ba1b6064820152608401611320565b50612c25838383613209565b80846001016000612d828686612ab3565b815260208101919091526040016000205550505050565b612da161322e565b60d9805460ff191690557f5db9ee0a495bf2e6ff9c91a7834c1ba4fdd244a5e8aa4e537bd38aeae4b073aa335b6040516001600160a01b03909116815260200160405180910390a1565b600054610100900460ff16612e125760405162461bcd60e51b81526004016113209061481f565b612e2f8686612e256301e1338042614d0b565b6127118686613277565b612e3984846132bc565b61119f61330d565b6000846003016000612e5c84612e578888612ab3565b612ab3565b81526020810191909152604001600020546001600160a01b031695945050505050565b6000836001016000612e918585612ab3565b81526020019081526020016000205490509392505050565b6060836002016000612ebb8585612ab3565b81526020019081526020016000208054612ed490614d90565b80601f0160208091040260200160405190810160405280929190818152602001828054612f0090614d90565b8015612f4d5780601f10612f2257610100808354040283529160200191612f4d565b820191906000526020600020905b815481529060010190602001808311612f3057829003601f168201915b505050505090509392505050565b612f63612a09565b60d9805460ff191660011790557f62e78cea01bee320cd4e420270b5ea74000d11b0c9f74754ebdbfc544b05a258612dce3390565b604051639c04df5b60e01b81526101b1600482015260016024820152604481018290526000908190606090733506980d4d72f056d12216cA7c853000f19e638290639c04df5b9060640160006040518083038186803b158015612ffa57600080fd5b505af415801561300e573d6000803e3d6000fd5b505050506040513d6000823e601f3d908101601f191682016040526130369190810190613e78565b6101b554929550909350915082141561205c5761205c8385613334565b60008360030160006130658585612ab3565b81526020810191909152604001600020546001600160a01b0316949350505050565b600084600101600061309d84612e578888612ab3565b8152602001908152602001600020549050949350505050565b60608460020160006130cc84612e578888612ab3565b815260200190815260200160002080546130e590614d90565b80601f016020809104026020016040519081016040528092919081815260200182805461311190614d90565b801561315e5780601f106131335761010080835404028352916020019161315e565b820191906000526020600020905b81548152906001019060200180831161314157829003601f168201915b50505050509050949350505050565b6001600160a01b0381163b6131da5760405162461bcd60e51b815260206004820152602d60248201527f455243313936373a206e657720696d706c656d656e746174696f6e206973206e60448201526c1bdd08184818dbdb9d1c9858dd609a1b6064820152608401611320565b600080516020614e3183398151915280546001600160a01b0319166001600160a01b0392909216919091179055565b61321283613351565b60008251118061321f5750805b15612c2557610e938383613391565b60d95460ff166118f85760405162461bcd60e51b815260206004820152601460248201527314185d5cd8589b194e881b9bdd081c185d5cd95960621b6044820152606401611320565b600054610100900460ff1661329e5760405162461bcd60e51b81526004016113209061481f565b6132a661330d565b6132ae61330d565b61119f868686868686613485565b600054610100900460ff166132e35760405162461bcd60e51b81526004016113209061481f565b6132eb613833565b6132f3613862565b6132fb61330d565b61330361330d565b611acc8282613891565b600054610100900460ff166118f85760405162461bcd60e51b81526004016113209061481f565b61333d82612afb565b61334882600061159b565b611acc81613954565b61335a8161316d565b6040516001600160a01b038216907fbc7cd75a20ee27fd9adebab32041f755214dbc6bffa90cc0225b39da2e5c2d3b90600090a250565b60606001600160a01b0383163b6133f95760405162461bcd60e51b815260206004820152602660248201527f416464726573733a2064656c65676174652063616c6c20746f206e6f6e2d636f6044820152651b9d1c9858dd60d21b6064820152608401611320565b600080846001600160a01b0316846040516134149190614688565b600060405180830381855af49150503d806000811461344f576040519150601f19603f3d011682016040523d82523d6000602084013e613454565b606091505b509150915061347c8282604051806060016040528060278152602001614e516027913961398a565b95945050505050565b600054610100900460ff166134ac5760405162461bcd60e51b81526004016113209061481f565b6001600160a01b0386166135025760405162461bcd60e51b815260206004820152601d60248201527f474d3a676f7665726e616e63652063616e206e6f74206265207a65726f0000006044820152606401611320565b6001600160a01b0385166135585760405162461bcd60e51b815260206004820152601960248201527f474d3a73656e6174652063616e206e6f74206265207a65726f000000000000006044820152606401611320565b42841161359d5760405162461bcd60e51b8152602060048201526013602482015272474d3a6c6f772073656e61746545787069727960681b6044820152606401611320565b826135ea5760405162461bcd60e51b815260206004820152601e60248201527f474d3a7061636b616765547970652063616e206e6f74206265207a65726f00006044820152606401611320565b806136435760405162461bcd60e51b815260206004820152602360248201527f474d3a696e697456657273696f6e4e616d652063616e206e6f7420626520656d60448201526270747960e81b6064820152608401611320565b6101b18054336001600160a01b0319918216811783556101b280549092161790556101b48590556101b5849055600090733506980d4d72f056d12216cA7c853000f19e638290636989fbc6906001613699612adf565b888888620151806040518863ffffffff1660e01b81526004016136c2979695949392919061486a565b60206040518083038186803b1580156136da57600080fd5b505af41580156136ee573d6000803e3d6000fd5b505050506040513d601f19601f820116820180604052508101906137129190613fe0565b604051639c04df5b60e01b81526101b160048201526001602482015260448101829052909150733506980d4d72f056d12216cA7c853000f19e638290639c04df5b9060640160006040518083038186803b15801561376f57600080fd5b505af4158015613783573d6000803e3d6000fd5b505050506040513d6000823e601f3d908101601f191682016040526137ab9190810190613e78565b5050506137fa6137f584848080601f016020809104026020016040519081016040528093929190818152602001838380828437600092019190915250506101b55491506139a39050565b613954565b50506101b180546001600160a01b039687166001600160a01b0319918216179091556101b2805495909616941693909317909355505050565b600054610100900460ff1661385a5760405162461bcd60e51b81526004016113209061481f565b6118f86139d7565b600054610100900460ff166138895760405162461bcd60e51b81526004016113209061481f565b6118f86139fe565b600054610100900460ff166138b85760405162461bcd60e51b81526004016113209061481f565b6001600160a01b0382166138cb57600080fd5b6001600160a01b0381166138de57600080fd5b61013d80546001600160a01b038085166001600160a01b03199283161790925561013e80549284169290911691909117905560646139226402540be4006007614d45565b61392c9190614d23565b6101435560646139426402540be4006007614d45565b61394c9190614d23565b610144555050565b6101b68190556040518181527ffddcded6b4f4730c226821172046b48372d3cd963c159701ae1b7c3bcac541bb9060200161140b565b60608315613999575081610fc3565b610fc38383613a31565b600082826040516020016139b89291906146a4565b60408051601f1981840301815291905280516020909101209392505050565b600054610100900460ff16612aab5760405162461bcd60e51b81526004016113209061481f565b600054610100900460ff16613a255760405162461bcd60e51b81526004016113209061481f565b60d9805460ff19169055565b815115613a415781518083602001fd5b8060405162461bcd60e51b8152600401611320919061473d565b60008083601f840112613a6d57600080fd5b5081356001600160401b03811115613a8457600080fd5b6020830191508360208260051b8501011115613a9f57600080fd5b9250929050565b600082601f830112613ab757600080fd5b813560206001600160401b03821115613ad257613ad2614df7565b8160051b613ae1828201614cb4565b838152828101908684018388018501891015613afc57600080fd5b600093505b85841015613b1f578035835260019390930192918401918401613b01565b50979650505050505050565b60008083601f840112613b3d57600080fd5b5081356001600160401b03811115613b5457600080fd5b602083019150836020828501011115613a9f57600080fd5b600082601f830112613b7d57600080fd5b8135613b90613b8b82614ce4565b614cb4565b818152846020838601011115613ba557600080fd5b816020850160208301376000918101602001919091529392505050565b600082601f830112613bd357600080fd5b8151613be1613b8b82614ce4565b818152846020838601011115613bf657600080fd5b611c1a826020830160208701614d64565b600060208284031215613c1957600080fd5b8135610fc381614e0d565b60008060008060008060a08789031215613c3d57600080fd5b8635613c4881614e0d565b95506020870135613c5881614e0d565b94506040870135613c6881614e0d565b93506060870135613c7881614e0d565b925060808701356001600160401b03811115613c9357600080fd5b613c9f89828a01613b2b565b979a9699509497509295939492505050565b600080600080600060a08688031215613cc957600080fd5b8535613cd481614e0d565b94506020860135613ce481614e0d565b935060408601356001600160401b0380821115613d0057600080fd5b613d0c89838a01613aa6565b94506060880135915080821115613d2257600080fd5b613d2e89838a01613aa6565b93506080880135915080821115613d4457600080fd5b50613d5188828901613b6c565b9150509295509295909350565b600080600080600060a08688031215613d7657600080fd5b8535613d8181614e0d565b94506020860135613d9181614e0d565b9350604086013592506060860135915060808601356001600160401b03811115613dba57600080fd5b613d5188828901613b6c565b60008060408385031215613dd957600080fd5b8235613de481614e0d565b915060208301356001600160401b03811115613dff57600080fd5b613e0b85828601613b6c565b9150509250929050565b600080600080600060808688031215613e2d57600080fd5b8535613e3881614e0d565b94506020860135935060408601356001600160401b03811115613e5a57600080fd5b613e6688828901613b2b565b96999598509660600135949350505050565b600080600060608486031215613e8d57600080fd5b8351613e9881614e0d565b6020850151604086015191945092506001600160401b03811115613ebb57600080fd5b613ec786828701613bc2565b9150509250925092565b60008060008060408587031215613ee757600080fd5b84356001600160401b0380821115613efe57600080fd5b613f0a88838901613a5b565b90965094506020870135915080821115613f2357600080fd5b50613f3087828801613a5b565b95989497509550505050565b60008060008060008060608789031215613f5557600080fd5b86356001600160401b0380821115613f6c57600080fd5b613f788a838b01613a5b565b90985096506020890135915080821115613f9157600080fd5b613f9d8a838b01613a5b565b90965094506040890135915080821115613fb657600080fd5b50613c9f89828a01613a5b565b600060208284031215613fd557600080fd5b8151610fc381614e22565b600060208284031215613ff257600080fd5b5051919050565b60008060006060848603121561400e57600080fd5b505081359360208301359350604090920135919050565b60006020828403121561403757600080fd5b81356001600160e01b031981168114610fc357600080fd5b6000806020838503121561406257600080fd5b82356001600160401b0381111561407857600080fd5b61408485828601613b2b565b90969095509350505050565b6000806000604084860312156140a557600080fd5b83356001600160401b038111156140bb57600080fd5b6140c786828701613b2b565b909790965060209590950135949350505050565b6000602082840312156140ed57600080fd5b81516001600160401b038082111561410457600080fd5b908301906080828603121561411857600080fd5b60405160808101818110838211171561413357614133614df7565b604052825161414181614e0d565b81526020838101519082015260408301518281111561415f57600080fd5b61416b87828601613bc2565b6040830152506060830151606082015280935050505092915050565b60006020828403121561419957600080fd5b5035919050565b600080604083850312156141b357600080fd5b8235915060208301356141c581614e0d565b809150509250929050565b6000806000604084860312156141e557600080fd5b8335925060208401356001600160401b0381111561420257600080fd5b61420e86828701613a5b565b9497909650939450505050565b60008060008060006060868803121561423357600080fd5b8535945060208601356001600160401b038082111561425157600080fd5b61425d89838a01613a5b565b9096509450604088013591508082111561427657600080fd5b5061428388828901613a5b565b969995985093965092949392505050565b600080604083850312156142a757600080fd5b8235915060208301356141c581614e22565b600080604083850312156142cc57600080fd5b50508035926020909101359150565b600080604083850312156142ee57600080fd5b505080516020909101519092909150565b600080600080600080600080610100808a8c03121561431d57600080fd5b8935985060208a0135975060408a013561433681614e0d565b965060608a01356001600160401b038082111561435257600080fd5b61435e8d838e01613b2b565b909850965060808c013591508082111561437757600080fd5b506143848c828d01613b2b565b9095509350508981018b101561439957600080fd5b5060a0890190509295985092959890939650565b600080600080606085870312156143c357600080fd5b843593506020850135925060408501356001600160401b038111156143e757600080fd5b613f3087828801613a5b565b600080600080600080600060c0888a03121561440e57600080fd5b873596506020880135955060408801356001600160401b0381111561443257600080fd5b61443e8a828b01613a5b565b909650945050606088013592506080880135915060a088013561446081614e0d565b8091505092959891949750929550565b60008060008060008060008060a0898b03121561448c57600080fd5b883597506020890135965060408901356001600160401b03808211156144b157600080fd5b6144bd8c838d01613a5b565b909850965060608b01359150808211156144d657600080fd5b6144e28c838d01613a5b565b909650945060808b01359150808211156144fb57600080fd5b506145088b828c01613a5b565b999c989b5096995094979396929594505050565b6000806000806080858703121561453257600080fd5b843593506020850135925060408501359150606085013561455281614e0d565b939692955090935050565b81835260006001600160fb1b0383111561457657600080fd5b8260051b8083602087013760009401602001938452509192915050565b81835260006020808501808196508560051b810191508460005b878110156146165782840389528135601e198836030181126145ce57600080fd5b870180356001600160401b038111156145e657600080fd5b8036038913156145f557600080fd5b6146028682898501614623565b9a87019a95505050908401906001016145ad565b5091979650505050505050565b81835281816020850137506000828201602090810191909152601f909101601f19169091010190565b60008151808452614664816020860160208601614d64565b601f01601f19169290920160200192915050565b8183823760009101908152919050565b6000825161469a818460208701614d64565b9190910192915050565b600083516146b6818460208801614d64565b9190910191825250602001919050565b82848237909101908152602001919050565b60018060a01b038416815282602082015260606040820152600061347c606083018461464c565b60018060a01b0385168152836020820152608060408201526000614726608083018561464c565b905063ffffffff8316606083015295945050505050565b602081526000610fc3602083018461464c565b6020808252602c908201527f46756e6374696f6e206d7573742062652063616c6c6564207468726f7567682060408201526b19195b1959d85d1958d85b1b60a21b606082015260800190565b6020808252602c908201527f46756e6374696f6e206d7573742062652063616c6c6564207468726f7567682060408201526b6163746976652070726f787960a01b606082015260800190565b6020808252601c908201527f504f5254414c3a73656e646572204e4f5420676f7665726e616e636500000000604082015260600190565b6020808252602b908201527f496e697469616c697a61626c653a20636f6e7472616374206973206e6f74206960408201526a6e697469616c697a696e6760a81b606082015260800190565b87815286602082015260018060a01b038616604082015284606082015260c06080820152600061489e60c083018587614623565b90508260a083015298975050505050505050565b92835260208301919091526001600160a01b0316604082015260600190565b8681528560208201526080604082015260006148f160808301868861455d565b828103606084015261260f81858761455d565b83815260406020820152600061347c604083018486614623565b86815285602082015260806040820152600061493e60808301868861455d565b828103606084015261260f818587614593565b88815260006020898184015260a0604084015261497260a08401898b61455d565b838103606085015261498581888a61455d565b84810360808601528581529050818101600586811b830184018860005b89811015614a1257858303601f190185528135368c9003601e190181126149c857600080fd5b8b0180356001600160401b038111156149e057600080fd5b80861b36038d13156149f157600080fd5b6149fe85828b850161455d565b9689019694505050908601906001016149a2565b50909f9e505050505050505050505050505050565b848152836020820152606060408201526000611669606083018486614623565b858152846020820152836040820152608060608201526000614a6d608083018486614593565b979650505050505050565b60006101408c835260208c818501528b60408501528a606085015260018060a01b038a1660808501528160a0850152614ab4828501898b614623565b915083820360c0850152614ac9828789614623565b925060e0840191508460005b6003811015614afd578135614ae981614e22565b151584529282019290820190600101614ad5565b505050509b9a5050505050505050505050565b86815285602082015284604082015283606082015260a060808201526000614b3c60a08301848661455d565b98975050505050505050565b8a815289602082015288604082015287606082015260e060808201526000614b7460e08301888a614593565b82810360a0840152614b87818789614593565b905082810360c0840152614b9c818587614593565b9d9c50505050505050505050505050565b6020815260018060a01b038251166020820152602082015160408201526000604083015160806060840152614be560a084018261464c565b9050606084015160808401528091505092915050565b60208152614c156020820183516001600160401b03169052565b60006020830151614c3160408401826001600160401b03169052565b5060408301516001600160401b03811660608401525060608301516001600160401b038116608084015250608083015160a083015260a083015160c083015260c083015160e083015260e0830151610100818185015280850151915050610120818185015280850151915050610140808185015250611c1a61016084018261464c565b604051601f8201601f191681016001600160401b0381118282101715614cdc57614cdc614df7565b604052919050565b60006001600160401b03821115614cfd57614cfd614df7565b50601f01601f191660200190565b60008219821115614d1e57614d1e614dcb565b500190565b600082614d4057634e487b7160e01b600052601260045260246000fd5b500490565b6000816000190483118215151615614d5f57614d5f614dcb565b500290565b60005b83811015614d7f578181015183820152602001614d67565b83811115610e935750506000910152565b600181811c90821680614da457607f821691505b60208210811415614dc557634e487b7160e01b600052602260045260246000fd5b50919050565b634e487b7160e01b600052601160045260246000fd5b634e487b7160e01b600052603260045260246000fd5b634e487b7160e01b600052604160045260246000fd5b6001600160a01b03811681146115cd57600080fd5b80151581146115cd57600080fdfe360894a13ba1a3210667c828492db98dca3e2076cc3735a920a3ca505d382bbc416464726573733a206c6f772d6c6576656c2064656c65676174652063616c6c206661696c6564a26469706673582212209d37c151346adea9331b0bcdbaf876aa478112b5e0ee54890ee496b13be4517e64736f6c63430008070033",
  "deployedBytecode": "0x6080604052600436106103fe5760003560e01c80636d07e40411610213578063b784c7bb11610123578063de22bc72116100ab578063e1c0e7371161007a578063e1c0e73714610d0e578063e3099e0914610d2e578063e72b1d6d14610d4e578063e768887e14610d6e578063f23a6e6114610d8e57600080fd5b8063de22bc7214610c99578063df1ff92914610cb9578063e02a520814610cd9578063e05ec0a314610cf957600080fd5b8063cdaba274116100f2578063cdaba27414610c13578063d5357a1a14610c26578063d89da28614610c39578063dab840c714610c59578063dd272bf414610c7957600080fd5b8063b784c7bb14610b61578063bc197c8114610b81578063c7f758a814610bc6578063cb337b4e14610bf357600080fd5b80638aa10435116101a6578063a270fece11610175578063a270fece14610a77578063ad4ac4c414610a97578063ad8655cb14610af4578063af6561ef14610b14578063b4891bfd14610b3457600080fd5b80638aa104351461097a578063964ff29c1461099057806398951b5614610a2857806399ac48ba14610a5757600080fd5b80637d22c35c116101e25780637d22c35c146109105780637e1ece9f146109305780638456cb59146109505780638650c0721461096557600080fd5b80636d07e4041461088357806372267954146108a3578063736ed2e3146108d057806375fcb017146108f057600080fd5b80633b8ba8621161030e57806352d1902d116102a15780635a34bb15116102705780635a34bb15146107c25780635b50fea6146107e25780635c975abb146108025780635d9e085d1461081a57806366caab6f1461084757600080fd5b806352d1902d146107355780635329512b1461074a57806356a72dbf14610782578063571ac56f146107a257600080fd5b80634a936417116102dd5780634a936417146106c25780634f1ef286146106e25780634f62d616146106f5578063524cb25b1461071557600080fd5b80633b8ba862146106455780633c6a05ef146106655780633c9e438c146106855780633f4ba83a146106ad57600080fd5b80631d95313a1161039157806328d7d72a1161036057806328d7d72a146105b057806332a69330146105d0578063341b3c00146105f057806335782386146106055780633659cfe61461062557600080fd5b80631d95313a146105225780631da715911461055057806326eef2c01461057057806327cd2aa41461059057600080fd5b80630aea8f4d116103cd5780630aea8f4d146104a2578063100f72b6146104c2578063113743cb146104e25780631b6f23d01461050257600080fd5b806301ffc9a71461040a578063041bc6231461043f578063060028ea146104545780630ab4bc911461047457600080fd5b3661040557005b600080fd5b34801561041657600080fd5b5061042a610425366004614025565b610dba565b60405190151581526020015b60405180910390f35b61045261044d36600461451c565b610df1565b005b34801561046057600080fd5b5061042a61046f366004614187565b610e99565b34801561048057600080fd5b5061049461048f3660046142b9565b610f27565b604051908152602001610436565b3480156104ae57600080fd5b506104946104bd366004614187565b610fca565b3480156104ce57600080fd5b5061042a6104dd366004614187565b611058565b3480156104ee57600080fd5b506104526104fd366004614470565b6110a2565b34801561050e57600080fd5b5061045261051d366004614294565b611130565b34801561052e57600080fd5b5061049461053d366004614187565b6000908152610149602052604090205490565b34801561055c57600080fd5b5061049461056b3660046142b9565b6111a7565b34801561057c57600080fd5b5061045261058b3660046141d0565b6111b3565b34801561059c57600080fd5b5061042a6105ab366004614187565b611232565b3480156105bc57600080fd5b506104526105cb36600461421b565b611274565b3480156105dc57600080fd5b506104526105eb366004614187565b6112f5565b3480156105fc57600080fd5b50610452611416565b34801561061157600080fd5b506104526106203660046142b9565b61149c565b34801561063157600080fd5b50610452610640366004613c07565b6114ea565b34801561065157600080fd5b50610494610660366004613e15565b6115d0565b34801561067157600080fd5b50610452610680366004614187565b611673565b6106986106933660046143f3565b6116e5565b60408051928352602083019190915201610436565b3480156106b957600080fd5b506104526118c5565b3480156106ce57600080fd5b506104526106dd366004613c24565b6118fa565b6104526106f0366004613dc6565b611a16565b34801561070157600080fd5b506104526107103660046141a0565b611ad0565b34801561072157600080fd5b506104526107303660046141a0565b611b14565b34801561074157600080fd5b50610494611b58565b34801561075657600080fd5b5061076a610765366004613ff9565b611c0b565b6040516001600160a01b039091168152602001610436565b34801561078e57600080fd5b5061049461079d3660046142b9565b611c22565b3480156107ae57600080fd5b506104526107bd366004613ff9565b611c30565b3480156107ce57600080fd5b506104946107dd366004614090565b611c85565b3480156107ee57600080fd5b506104526107fd366004613f3c565b611cbc565b34801561080e57600080fd5b5060d95460ff1661042a565b34801561082657600080fd5b50610494610835366004614187565b60009081526001602052604090205490565b34801561085357600080fd5b5061042a6108623660046142b9565b600091825261014a6020908152604080842092845291905290205460ff1690565b34801561088f57600080fd5b5061045261089e3660046141a0565b611d44565b3480156108af57600080fd5b506108c36108be3660046142b9565b611d80565b604051610436919061473d565b3480156108dc57600080fd5b506104526108eb3660046141d0565b611d8e565b3480156108fc57600080fd5b5061045261090b366004614187565b611dd8565b34801561091c57600080fd5b5061042a61092b3660046141a0565b611e56565b34801561093c57600080fd5b5061045261094b3660046143ad565b611ee5565b34801561095c57600080fd5b50610452611f67565b34801561097157600080fd5b5061042a611f9a565b34801561098657600080fd5b506101b654610494565b34801561099c57600080fd5b5061013d5461013e5461013f54610140805461014154610142546101435461014454610145546101465461014754604080516001600160a01b039d8e1681529c909b1660208d0152998b019890985260608a0195909552608089019390935260a088019190915260c087015260e086015261010085015261012084019190915282015261016001610436565b348015610a3457600080fd5b50610a48610a43366004614187565b611fdc565b604051610436939291906146d8565b348015610a6357600080fd5b5061076a610a723660046142b9565b612063565b348015610a8357600080fd5b5061042a610a923660046142b9565b612071565b348015610aa357600080fd5b506101b1546101b2546101b3546101b4546101b554604080516001600160a01b039687168152948616602086015294909216938301939093526060820192909252608081019190915260a001610436565b348015610b0057600080fd5b50610452610b0f366004613c07565b612119565b348015610b2057600080fd5b50610452610b2f366004613ed1565b612161565b348015610b4057600080fd5b50610b54610b4f36600461404f565b6121ad565b6040516104369190614bfb565b348015610b6d57600080fd5b50610452610b7c3660046142b9565b612369565b348015610b8d57600080fd5b50610bad610b9c366004613cb1565b63bc197c8160e01b95945050505050565b6040516001600160e01b03199091168152602001610436565b348015610bd257600080fd5b50610be6610be1366004614187565b6123b7565b6040516104369190614bad565b348015610bff57600080fd5b5061042a610c0e366004614187565b61247a565b61042a610c21366004614187565b6124bc565b610494610c343660046142ff565b61256a565b348015610c4557600080fd5b50610452610c543660046141a0565b61261c565b348015610c6557600080fd5b50610452610c74366004613c07565b612658565b348015610c8557600080fd5b5061042a610c9436600461404f565b6126a0565b348015610ca557600080fd5b50610494610cb4366004614187565b6126e0565b348015610cc557600080fd5b50610452610cd4366004613ff9565b612722565b348015610ce557600080fd5b50610494610cf43660046142b9565b612778565b348015610d0557600080fd5b506104526127ab565b348015610d1a57600080fd5b50610452610d2936600461404f565b61281d565b348015610d3a57600080fd5b50610494610d49366004614187565b612865565b348015610d5a57600080fd5b50610494610d69366004613ff9565b6129eb565b348015610d7a57600080fd5b506108c3610d89366004613ff9565b6129fa565b348015610d9a57600080fd5b50610bad610da9366004613d5e565b63f23a6e6160e01b95945050505050565b60006001600160e01b03198216630271189760e51b1480610deb57506301ffc9a760e01b6001600160e01b03198316145b92915050565b610df9612a09565b610e01612a4f565b604051633aeaeb1f60e01b8152600160048201526024810185905260448101849052606481018390526001600160a01b038216608482015273__$cae5f4f3ea96bff8fffe52a1256c5dec9c$__90633aeaeb1f9060a40160006040518083038186803b158015610e7057600080fd5b505af4158015610e84573d6000803e3d6000fd5b50505050610e93600161010b55565b50505050565b60405162d7c84f60e31b815261013d60048201526024810182905260009073__$cae5f4f3ea96bff8fffe52a1256c5dec9c$__906306be4278906044015b60206040518083038186803b158015610eef57600080fd5b505af4158015610f03573d6000803e3d6000fd5b505050506040513d601f19601f82011682018060405250810190610deb9190613fc3565b60405163193e39b760e31b815261013d600482015260016024820152604481018390526064810182905260009073__$cae5f4f3ea96bff8fffe52a1256c5dec9c$__9063c9f1cdb89060840160206040518083038186803b158015610f8b57600080fd5b505af4158015610f9f573d6000803e3d6000fd5b505050506040513d601f19601f82011682018060405250810190610fc39190613fe0565b9392505050565b60405163a87ef4c560e01b8152600160048201526024810182905260009073__$cae5f4f3ea96bff8fffe52a1256c5dec9c$__9063a87ef4c5906044015b60206040518083038186803b15801561102057600080fd5b505af4158015611034573d6000803e3d6000fd5b505050506040513d601f19601f82011682018060405250810190610deb9190613fe0565b60405163452c42af60e11b815261013d6004820152600160248201526044810182905260009073__$cae5f4f3ea96bff8fffe52a1256c5dec9c$__90638a58855e90606401610ed7565b6110aa612a09565b6040516306a8b7f160e21b815273__$cae5f4f3ea96bff8fffe52a1256c5dec9c$__90631aa2dfc4906110f69061013d906001908d908d908d908d908d908d908d908d90600401614b48565b60006040518083038186803b15801561110e57600080fd5b505af4158015611122573d6000803e3d6000fd5b505050505050505050505050565b6040516368d1ee2360e01b81526001600482015260248101839052811515604482015273__$cae5f4f3ea96bff8fffe52a1256c5dec9c$__906368d1ee23906064015b60006040518083038186803b15801561118b57600080fd5b505af415801561119f573d6000803e3d6000fd5b505050505050565b6000610fc38383612ab3565b6111bb612a09565b6040516303b3882160e41b815273__$2138558653a5cf238eab8ac7693304e430$__90633b388210906111fd9061013d90600190889088908890600401614a47565b60006040518083038186803b15801561121557600080fd5b505af4158015611229573d6000803e3d6000fd5b50505050505050565b60405163ba6825ef60e01b8152600160048201526024810182905260009073__$cae5f4f3ea96bff8fffe52a1256c5dec9c$__9063ba6825ef90604401610ed7565b61127c612a09565b6040516303dc57ff60e61b815273__$cae5f4f3ea96bff8fffe52a1256c5dec9c$__9063f715ffc0906112be90600190899089908990899089906004016148d1565b60006040518083038186803b1580156112d657600080fd5b505af41580156112ea573d6000803e3d6000fd5b505050505050505050565b6101b1546001600160a01b031633146113295760405162461bcd60e51b8152600401611320906147e8565b60405180910390fd5b606461133b6402540be4006005614d45565b6113459190614d23565b8111156113945760405162461bcd60e51b815260206004820152601b60248201527f504f5254414c3a3e204d41585f474f5645524e414e43455f46454500000000006044820152606401611320565b6366316a1d42116113d95760405162461bcd60e51b815260206004820152600f60248201526e2827a92a20a61d3737ba103cb2ba1760891b6044820152606401611320565b6101458190556040518181527fbcb0f386c91215302d3ebac3621cefd2cb0f069b53450940d8f1715b11e58645906020015b60405180910390a150565b6101b1546001600160a01b031633146114415760405162461bcd60e51b8152600401611320906147e8565b61013d5460408051638456cb5960e01b815290516001600160a01b0390921691638456cb599160048082019260009290919082900301818387803b15801561148857600080fd5b505af1158015610e93573d6000803e3d6000fd5b6114a4612a09565b6040516305ef04c360e21b815260016004820152602481018390526044810182905273__$cae5f4f3ea96bff8fffe52a1256c5dec9c$__906317bc130c90606401611173565b306001600160a01b037f00000000000000000000000000000000000000000000000000000000000000001614156115335760405162461bcd60e51b815260040161132090614750565b7f00000000000000000000000000000000000000000000000000000000000000006001600160a01b0316611565612adf565b6001600160a01b03161461158b5760405162461bcd60e51b81526004016113209061479c565b61159481612afb565b6115cd8160005b6040519080825280601f01601f1916602001820160405280156115c5576020820181803683370190505b506000612bf2565b50565b6040516334c4fde360e11b815260009073__$5eb4f00466582f7d4fb62bc47062007858$__90636989fbc690611619906101b1906001908b908b908b908b908b9060040161486a565b60206040518083038186803b15801561163157600080fd5b505af4158015611645573d6000803e3d6000fd5b505050506040513d601f19601f820116820180604052508101906116699190613fe0565b9695505050505050565b6101b1546001600160a01b0316331461169e5760405162461bcd60e51b8152600401611320906147e8565b6116b56001826672656c6561736560c81b42612d71565b6040518181527ffb81f9b30d73d830c3544b34d827c08142579ee75710b490bab0b3995468c5659060200161140b565b6000806116f0612a09565b6116f8612a4f565b60405162d7c84f60e31b815261013d6004820152602481018a905273__$cae5f4f3ea96bff8fffe52a1256c5dec9c$__906306be42789060440160206040518083038186803b15801561174a57600080fd5b505af415801561175e573d6000803e3d6000fd5b505050506040513d601f19601f820116820180604052508101906117829190613fc3565b6117fb57604051638c02d86d60e01b815273__$2138558653a5cf238eab8ac7693304e430$__90638c02d86d906117ca9061013d906001908e908e908e908e90600401614b10565b60006040518083038186803b1580156117e257600080fd5b505af41580156117f6573d6000803e3d6000fd5b505050505b60405163050dfeaf60e31b815261013d600482015260016024820152604481018a905260648101869052608481018590526001600160a01b03841660a482015273__$cae5f4f3ea96bff8fffe52a1256c5dec9c$__9063286ff5789060c401604080518083038186803b15801561187157600080fd5b505af4158015611885573d6000803e3d6000fd5b505050506040513d601f19601f820116820180604052508101906118a991906142db565b90925090506118b9600161010b55565b97509795505050505050565b6101b1546001600160a01b031633146118f05760405162461bcd60e51b8152600401611320906147e8565b6118f8612d99565b565b600054610100900460ff161580801561191a5750600054600160ff909116105b806119345750303b158015611934575060005460ff166001145b6119975760405162461bcd60e51b815260206004820152602e60248201527f496e697469616c697a61626c653a20636f6e747261637420697320616c72656160448201526d191e481a5b9a5d1a585b1a5e995960921b6064820152608401611320565b6000805460ff1916600117905580156119ba576000805461ff0019166101001790555b6119c8878787878787612deb565b8015611229576000805461ff0019169055604051600181527f7f26b83ff96e1f2b6a682f133852f6798a09c465da95921460cefb38474024989060200160405180910390a150505050505050565b306001600160a01b037f0000000000000000000000000000000000000000000000000000000000000000161415611a5f5760405162461bcd60e51b815260040161132090614750565b7f00000000000000000000000000000000000000000000000000000000000000006001600160a01b0316611a91612adf565b6001600160a01b031614611ab75760405162461bcd60e51b81526004016113209061479c565b611ac082612afb565b611acc82826001612bf2565b5050565b611ad8612a09565b60405163a1f0cb8360e01b815273__$cae5f4f3ea96bff8fffe52a1256c5dec9c$__9063a1f0cb839061117390600190869086906004016148b2565b611b1c612a09565b60405163083691f760e41b815273__$cae5f4f3ea96bff8fffe52a1256c5dec9c$__906383691f709061117390600190869086906004016148b2565b6000306001600160a01b037f00000000000000000000000000000000000000000000000000000000000000001614611bf85760405162461bcd60e51b815260206004820152603860248201527f555550535570677261646561626c653a206d757374206e6f742062652063616c60448201527f6c6564207468726f7567682064656c656761746563616c6c00000000000000006064820152608401611320565b50600080516020614e3183398151915290565b6000611c1a6001858585612e41565b949350505050565b6000610fc360018484612e7f565b611c38612a09565b604051637073703d60e01b81526001600482015260248101849052604481018390526064810182905273__$cae5f4f3ea96bff8fffe52a1256c5dec9c$__90637073703d906084016111fd565b6000838383604051602001611c9c939291906146c6565b60408051601f198184030181529190528051602090910120949350505050565b611cc4612a09565b60405163171299f160e01b815273__$2138558653a5cf238eab8ac7693304e430$__9063171299f190611d0c9061013d906001908b908b908b908b908b908b90600401614951565b60006040518083038186803b158015611d2457600080fd5b505af4158015611d38573d6000803e3d6000fd5b50505050505050505050565b6040516304ac4a9160e11b815273__$5eb4f00466582f7d4fb62bc47062007858$__9063095895229061117390600190869086906004016148b2565b6060610fc360018484612ea9565b611d96612a09565b604051630527e47960e41b815273__$cae5f4f3ea96bff8fffe52a1256c5dec9c$__9063527e4790906111fd9061013d90600190889088908890600401614a47565b611de0612a09565b604051634eaaf07b60e11b815261013d6004820152600160248201526044810182905273__$cae5f4f3ea96bff8fffe52a1256c5dec9c$__90639d55e0f6906064015b60006040518083038186803b158015611e3b57600080fd5b505af4158015611e4f573d6000803e3d6000fd5b5050505050565b604051630c6eff3560e31b815260009073__$cae5f4f3ea96bff8fffe52a1256c5dec9c$__90636377f9a890611e9590600190879087906004016148b2565b60206040518083038186803b158015611ead57600080fd5b505af4158015611ec1573d6000803e3d6000fd5b505050506040513d601f19601f82011682018060405250810190610fc39190613fc3565b611eed612a09565b604051638c02d86d60e01b815273__$2138558653a5cf238eab8ac7693304e430$__90638c02d86d90611f319061013d906001908990899089908990600401614b10565b60006040518083038186803b158015611f4957600080fd5b505af4158015611f5d573d6000803e3d6000fd5b5050505050505050565b6101b1546001600160a01b03163314611f925760405162461bcd60e51b8152600401611320906147e8565b6118f8612f5b565b6000611fa860d95460ff1690565b80611fca5750611fb6612adf565b6101b3546001600160a01b03908116911614155b80611fd757506101b45442115b905090565b6000806060611fea84612f98565b91945092509050612710821180156120035750614e1f82105b1561201f5760008281526101496020526040902084905561205c565b614e2082118015612031575061752f82105b1561205c57600082815261014a602090815260408083208784529091529020805460ff191660011790555b9193909250565b6000610fc360018484613053565b600061207b612a4f565b604051637cd7c3e560e11b815260016004820152602481018490526044810183905273__$cae5f4f3ea96bff8fffe52a1256c5dec9c$__9063f9af87ca9060640160206040518083038186803b1580156120d457600080fd5b505af41580156120e8573d6000803e3d6000fd5b505050506040513d601f19601f8201168201806040525081019061210c9190613fc3565b9050610deb600161010b55565b60405163e51d9aa360e01b81526101b160048201526001600160a01b038216602482015273__$5eb4f00466582f7d4fb62bc47062007858$__9063e51d9aa390604401611e23565b612169612a09565b604051630a060fff60e11b815273__$2138558653a5cf238eab8ac7693304e430$__9063140c1ffe90611f319061013d90600190899089908990899060040161491e565b61222760405180610140016040528060006001600160401b0316815260200160006001600160401b0316815260200160006001600160401b0316815260200160006001600160401b031681526020016000815260200160008152602001600081526020016000815260200160008152602001606081525090565b6040516101489061223b9085908590614678565b9081526040805191829003602090810183206101408401835280546001600160401b038082168652680100000000000000008204811693860193909352600160801b8104831693850193909352600160c01b90920416606083015260018101546080830152600281015460a0830152600381015460c0830152600481015460e08301526005810154610100830152600681018054610120840191906122df90614d90565b80601f016020809104026020016040519081016040528092919081815260200182805461230b90614d90565b80156123585780601f1061232d57610100808354040283529160200191612358565b820191906000526020600020905b81548152906001019060200180831161233b57829003601f168201915b505050505081525050905092915050565b612371612a09565b60405163041675ad60e41b815260016004820152602481018390526044810182905273__$cae5f4f3ea96bff8fffe52a1256c5dec9c$__906341675ad090606401611173565b6123eb604051806080016040528060006001600160a01b031681526020016000815260200160608152602001600081525090565b60405163929fbdfb60e01b81526101b160048201526024810183905273__$5eb4f00466582f7d4fb62bc47062007858$__9063929fbdfb9060440160006040518083038186803b15801561243e57600080fd5b505af4158015612452573d6000803e3d6000fd5b505050506040513d6000823e601f3d908101601f19168201604052610deb91908101906140db565b604051632748bbb560e21b8152600160048201526024810182905260009073__$cae5f4f3ea96bff8fffe52a1256c5dec9c$__90639d22eed490604401610ed7565b60006124c6612a09565b6124ce612a4f565b60405163d53e397160e01b8152600160048201526024810183905273__$cae5f4f3ea96bff8fffe52a1256c5dec9c$__9063d53e39719060440160206040518083038186803b15801561252057600080fd5b505af4158015612534573d6000803e3d6000fd5b505050506040513d601f19601f820116820180604052508101906125589190613fc3565b9050612565600161010b55565b919050565b6000612574612a09565b60405162f093a160e51b815273__$cae5f4f3ea96bff8fffe52a1256c5dec9c$__90631e127420906125bf9061013d906001908e908e908e908e908e908e908e908e90600401614a78565b60206040518083038186803b1580156125d757600080fd5b505af41580156125eb573d6000803e3d6000fd5b505050506040513d601f19601f8201168201806040525081019061260f9190613fe0565b9998505050505050505050565b60405163f9f185f360e01b815273__$cae5f4f3ea96bff8fffe52a1256c5dec9c$__9063f9f185f39061117390600190869086906004016148b2565b604051630bde2bc360e01b81526101b160048201526001600160a01b038216602482015273__$5eb4f00466582f7d4fb62bc47062007858$__90630bde2bc390604401611e23565b60405163672bbf9560e01b815260009073__$cae5f4f3ea96bff8fffe52a1256c5dec9c$__9063672bbf9590611e959061013d9087908790600401614904565b604051633be0f57560e11b8152600160048201526024810182905260009073__$cae5f4f3ea96bff8fffe52a1256c5dec9c$__906377c1eaea90604401611008565b61272a612a09565b604051633cf9d99f60e21b815261013d600482015260248101849052604481018390526064810182905273__$2138558653a5cf238eab8ac7693304e430$__9063f3e7667c906084016111fd565b600082815260016020526040812080548390811061279857612798614de1565b9060005260206000200154905092915050565b6101b1546001600160a01b031633146127d65760405162461bcd60e51b8152600401611320906147e8565b61013d5460408051631fa5d41d60e11b815290516001600160a01b0390921691633f4ba83a9160048082019260009290919082900301818387803b15801561148857600080fd5b612825612a09565b6040516312ed427760e01b815273__$2138558653a5cf238eab8ac7693304e430$__906312ed4277906111739061013d9060019087908790600401614a27565b600061286f612a09565b612877612a4f565b612710821180156128895750614e1f82105b6128d55760405162461bcd60e51b815260206004820152601b60248201527f504f5254414c3a696e76616c6964207061636b616765207479706500000000006044820152606401611320565b6000828152610149602052604090205433633b8ba8626129046001846921a7a72a2927a62622a960b11b613053565b85612918600186634e414d4560e01b612ea9565b6224ea006040518563ffffffff1660e01b815260040161293b94939291906146ff565b602060405180830381600087803b15801561295557600080fd5b505af1158015612969573d6000803e3d6000fd5b505050506040513d601f19601f8201168201806040525081019061298d9190613fe0565b9150600082116129df5760405162461bcd60e51b815260206004820152601a60248201527f504f5254414c3a63616e6e6f74207075736820757067726164650000000000006044820152606401611320565b50612565600161010b55565b6000611c1a6001858585613087565b6060611c1a60018585856130b6565b60d95460ff16156118f85760405162461bcd60e51b815260206004820152601060248201526f14185d5cd8589b194e881c185d5cd95960821b6044820152606401611320565b600261010b541415612aa35760405162461bcd60e51b815260206004820152601f60248201527f5265656e7472616e637947756172643a207265656e7472616e742063616c6c006044820152606401611320565b600261010b55565b600161010b55565b604080516020808201949094528082019290925280518083038201815260609092019052805191012090565b600080516020614e31833981519152546001600160a01b031690565b73__$5eb4f00466582f7d4fb62bc47062007858$__633f98381a6101b183612b21612adf565b6040516001600160e01b031960e086901b16815260048101939093526001600160a01b03918216602484015216604482015260640160206040518083038186803b158015612b6e57600080fd5b505af4158015612b82573d6000803e3d6000fd5b505050506040513d601f19601f82011682018060405250810190612ba69190613fc3565b6115cd5760405162461bcd60e51b815260206004820152601960248201527f474d3a6e6f7420616c6c6f77656420746f2075706772616465000000000000006044820152606401611320565b7f4910fdfa16fed3260ed0e7147f7cc6da11a60208b5b9406d12a635614ffd91435460ff1615612c2a57612c258361316d565b505050565b826001600160a01b03166352d1902d6040518163ffffffff1660e01b815260040160206040518083038186803b158015612c6357600080fd5b505afa925050508015612c93575060408051601f3d908101601f19168201909252612c9091810190613fe0565b60015b612cf65760405162461bcd60e51b815260206004820152602e60248201527f45524331393637557067726164653a206e657720696d706c656d656e7461746960448201526d6f6e206973206e6f74205555505360901b6064820152608401611320565b600080516020614e318339815191528114612d655760405162461bcd60e51b815260206004820152602960248201527f45524331393637557067726164653a20756e737570706f727465642070726f786044820152681a58589b195555525160ba1b6064820152608401611320565b50612c25838383613209565b80846001016000612d828686612ab3565b815260208101919091526040016000205550505050565b612da161322e565b60d9805460ff191690557f5db9ee0a495bf2e6ff9c91a7834c1ba4fdd244a5e8aa4e537bd38aeae4b073aa335b6040516001600160a01b03909116815260200160405180910390a1565b600054610100900460ff16612e125760405162461bcd60e51b81526004016113209061481f565b612e2f8686612e256301e1338042614d0b565b6127118686613277565b612e3984846132bc565b61119f61330d565b6000846003016000612e5c84612e578888612ab3565b612ab3565b81526020810191909152604001600020546001600160a01b031695945050505050565b6000836001016000612e918585612ab3565b81526020019081526020016000205490509392505050565b6060836002016000612ebb8585612ab3565b81526020019081526020016000208054612ed490614d90565b80601f0160208091040260200160405190810160405280929190818152602001828054612f0090614d90565b8015612f4d5780601f10612f2257610100808354040283529160200191612f4d565b820191906000526020600020905b815481529060010190602001808311612f3057829003601f168201915b505050505090509392505050565b612f63612a09565b60d9805460ff191660011790557f62e78cea01bee320cd4e420270b5ea74000d11b0c9f74754ebdbfc544b05a258612dce3390565b604051639c04df5b60e01b81526101b160048201526001602482015260448101829052600090819060609073__$5eb4f00466582f7d4fb62bc47062007858$__90639c04df5b9060640160006040518083038186803b158015612ffa57600080fd5b505af415801561300e573d6000803e3d6000fd5b505050506040513d6000823e601f3d908101601f191682016040526130369190810190613e78565b6101b554929550909350915082141561205c5761205c8385613334565b60008360030160006130658585612ab3565b81526020810191909152604001600020546001600160a01b0316949350505050565b600084600101600061309d84612e578888612ab3565b8152602001908152602001600020549050949350505050565b60608460020160006130cc84612e578888612ab3565b815260200190815260200160002080546130e590614d90565b80601f016020809104026020016040519081016040528092919081815260200182805461311190614d90565b801561315e5780601f106131335761010080835404028352916020019161315e565b820191906000526020600020905b81548152906001019060200180831161314157829003601f168201915b50505050509050949350505050565b6001600160a01b0381163b6131da5760405162461bcd60e51b815260206004820152602d60248201527f455243313936373a206e657720696d706c656d656e746174696f6e206973206e60448201526c1bdd08184818dbdb9d1c9858dd609a1b6064820152608401611320565b600080516020614e3183398151915280546001600160a01b0319166001600160a01b0392909216919091179055565b61321283613351565b60008251118061321f5750805b15612c2557610e938383613391565b60d95460ff166118f85760405162461bcd60e51b815260206004820152601460248201527314185d5cd8589b194e881b9bdd081c185d5cd95960621b6044820152606401611320565b600054610100900460ff1661329e5760405162461bcd60e51b81526004016113209061481f565b6132a661330d565b6132ae61330d565b61119f868686868686613485565b600054610100900460ff166132e35760405162461bcd60e51b81526004016113209061481f565b6132eb613833565b6132f3613862565b6132fb61330d565b61330361330d565b611acc8282613891565b600054610100900460ff166118f85760405162461bcd60e51b81526004016113209061481f565b61333d82612afb565b61334882600061159b565b611acc81613954565b61335a8161316d565b6040516001600160a01b038216907fbc7cd75a20ee27fd9adebab32041f755214dbc6bffa90cc0225b39da2e5c2d3b90600090a250565b60606001600160a01b0383163b6133f95760405162461bcd60e51b815260206004820152602660248201527f416464726573733a2064656c65676174652063616c6c20746f206e6f6e2d636f6044820152651b9d1c9858dd60d21b6064820152608401611320565b600080846001600160a01b0316846040516134149190614688565b600060405180830381855af49150503d806000811461344f576040519150601f19603f3d011682016040523d82523d6000602084013e613454565b606091505b509150915061347c8282604051806060016040528060278152602001614e516027913961398a565b95945050505050565b600054610100900460ff166134ac5760405162461bcd60e51b81526004016113209061481f565b6001600160a01b0386166135025760405162461bcd60e51b815260206004820152601d60248201527f474d3a676f7665726e616e63652063616e206e6f74206265207a65726f0000006044820152606401611320565b6001600160a01b0385166135585760405162461bcd60e51b815260206004820152601960248201527f474d3a73656e6174652063616e206e6f74206265207a65726f000000000000006044820152606401611320565b42841161359d5760405162461bcd60e51b8152602060048201526013602482015272474d3a6c6f772073656e61746545787069727960681b6044820152606401611320565b826135ea5760405162461bcd60e51b815260206004820152601e60248201527f474d3a7061636b616765547970652063616e206e6f74206265207a65726f00006044820152606401611320565b806136435760405162461bcd60e51b815260206004820152602360248201527f474d3a696e697456657273696f6e4e616d652063616e206e6f7420626520656d60448201526270747960e81b6064820152608401611320565b6101b18054336001600160a01b0319918216811783556101b280549092161790556101b48590556101b584905560009073__$5eb4f00466582f7d4fb62bc47062007858$__90636989fbc6906001613699612adf565b888888620151806040518863ffffffff1660e01b81526004016136c2979695949392919061486a565b60206040518083038186803b1580156136da57600080fd5b505af41580156136ee573d6000803e3d6000fd5b505050506040513d601f19601f820116820180604052508101906137129190613fe0565b604051639c04df5b60e01b81526101b16004820152600160248201526044810182905290915073__$5eb4f00466582f7d4fb62bc47062007858$__90639c04df5b9060640160006040518083038186803b15801561376f57600080fd5b505af4158015613783573d6000803e3d6000fd5b505050506040513d6000823e601f3d908101601f191682016040526137ab9190810190613e78565b5050506137fa6137f584848080601f016020809104026020016040519081016040528093929190818152602001838380828437600092019190915250506101b55491506139a39050565b613954565b50506101b180546001600160a01b039687166001600160a01b0319918216179091556101b2805495909616941693909317909355505050565b600054610100900460ff1661385a5760405162461bcd60e51b81526004016113209061481f565b6118f86139d7565b600054610100900460ff166138895760405162461bcd60e51b81526004016113209061481f565b6118f86139fe565b600054610100900460ff166138b85760405162461bcd60e51b81526004016113209061481f565b6001600160a01b0382166138cb57600080fd5b6001600160a01b0381166138de57600080fd5b61013d80546001600160a01b038085166001600160a01b03199283161790925561013e80549284169290911691909117905560646139226402540be4006007614d45565b61392c9190614d23565b6101435560646139426402540be4006007614d45565b61394c9190614d23565b610144555050565b6101b68190556040518181527ffddcded6b4f4730c226821172046b48372d3cd963c159701ae1b7c3bcac541bb9060200161140b565b60608315613999575081610fc3565b610fc38383613a31565b600082826040516020016139b89291906146a4565b60408051601f1981840301815291905280516020909101209392505050565b600054610100900460ff16612aab5760405162461bcd60e51b81526004016113209061481f565b600054610100900460ff16613a255760405162461bcd60e51b81526004016113209061481f565b60d9805460ff19169055565b815115613a415781518083602001fd5b8060405162461bcd60e51b8152600401611320919061473d565b60008083601f840112613a6d57600080fd5b5081356001600160401b03811115613a8457600080fd5b6020830191508360208260051b8501011115613a9f57600080fd5b9250929050565b600082601f830112613ab757600080fd5b813560206001600160401b03821115613ad257613ad2614df7565b8160051b613ae1828201614cb4565b838152828101908684018388018501891015613afc57600080fd5b600093505b85841015613b1f578035835260019390930192918401918401613b01565b50979650505050505050565b60008083601f840112613b3d57600080fd5b5081356001600160401b03811115613b5457600080fd5b602083019150836020828501011115613a9f57600080fd5b600082601f830112613b7d57600080fd5b8135613b90613b8b82614ce4565b614cb4565b818152846020838601011115613ba557600080fd5b816020850160208301376000918101602001919091529392505050565b600082601f830112613bd357600080fd5b8151613be1613b8b82614ce4565b818152846020838601011115613bf657600080fd5b611c1a826020830160208701614d64565b600060208284031215613c1957600080fd5b8135610fc381614e0d565b60008060008060008060a08789031215613c3d57600080fd5b8635613c4881614e0d565b95506020870135613c5881614e0d565b94506040870135613c6881614e0d565b93506060870135613c7881614e0d565b925060808701356001600160401b03811115613c9357600080fd5b613c9f89828a01613b2b565b979a9699509497509295939492505050565b600080600080600060a08688031215613cc957600080fd5b8535613cd481614e0d565b94506020860135613ce481614e0d565b935060408601356001600160401b0380821115613d0057600080fd5b613d0c89838a01613aa6565b94506060880135915080821115613d2257600080fd5b613d2e89838a01613aa6565b93506080880135915080821115613d4457600080fd5b50613d5188828901613b6c565b9150509295509295909350565b600080600080600060a08688031215613d7657600080fd5b8535613d8181614e0d565b94506020860135613d9181614e0d565b9350604086013592506060860135915060808601356001600160401b03811115613dba57600080fd5b613d5188828901613b6c565b60008060408385031215613dd957600080fd5b8235613de481614e0d565b915060208301356001600160401b03811115613dff57600080fd5b613e0b85828601613b6c565b9150509250929050565b600080600080600060808688031215613e2d57600080fd5b8535613e3881614e0d565b94506020860135935060408601356001600160401b03811115613e5a57600080fd5b613e6688828901613b2b565b96999598509660600135949350505050565b600080600060608486031215613e8d57600080fd5b8351613e9881614e0d565b6020850151604086015191945092506001600160401b03811115613ebb57600080fd5b613ec786828701613bc2565b9150509250925092565b60008060008060408587031215613ee757600080fd5b84356001600160401b0380821115613efe57600080fd5b613f0a88838901613a5b565b90965094506020870135915080821115613f2357600080fd5b50613f3087828801613a5b565b95989497509550505050565b60008060008060008060608789031215613f5557600080fd5b86356001600160401b0380821115613f6c57600080fd5b613f788a838b01613a5b565b90985096506020890135915080821115613f9157600080fd5b613f9d8a838b01613a5b565b90965094506040890135915080821115613fb657600080fd5b50613c9f89828a01613a5b565b600060208284031215613fd557600080fd5b8151610fc381614e22565b600060208284031215613ff257600080fd5b5051919050565b60008060006060848603121561400e57600080fd5b505081359360208301359350604090920135919050565b60006020828403121561403757600080fd5b81356001600160e01b031981168114610fc357600080fd5b6000806020838503121561406257600080fd5b82356001600160401b0381111561407857600080fd5b61408485828601613b2b565b90969095509350505050565b6000806000604084860312156140a557600080fd5b83356001600160401b038111156140bb57600080fd5b6140c786828701613b2b565b909790965060209590950135949350505050565b6000602082840312156140ed57600080fd5b81516001600160401b038082111561410457600080fd5b908301906080828603121561411857600080fd5b60405160808101818110838211171561413357614133614df7565b604052825161414181614e0d565b81526020838101519082015260408301518281111561415f57600080fd5b61416b87828601613bc2565b6040830152506060830151606082015280935050505092915050565b60006020828403121561419957600080fd5b5035919050565b600080604083850312156141b357600080fd5b8235915060208301356141c581614e0d565b809150509250929050565b6000806000604084860312156141e557600080fd5b8335925060208401356001600160401b0381111561420257600080fd5b61420e86828701613a5b565b9497909650939450505050565b60008060008060006060868803121561423357600080fd5b8535945060208601356001600160401b038082111561425157600080fd5b61425d89838a01613a5b565b9096509450604088013591508082111561427657600080fd5b5061428388828901613a5b565b969995985093965092949392505050565b600080604083850312156142a757600080fd5b8235915060208301356141c581614e22565b600080604083850312156142cc57600080fd5b50508035926020909101359150565b600080604083850312156142ee57600080fd5b505080516020909101519092909150565b600080600080600080600080610100808a8c03121561431d57600080fd5b8935985060208a0135975060408a013561433681614e0d565b965060608a01356001600160401b038082111561435257600080fd5b61435e8d838e01613b2b565b909850965060808c013591508082111561437757600080fd5b506143848c828d01613b2b565b9095509350508981018b101561439957600080fd5b5060a0890190509295985092959890939650565b600080600080606085870312156143c357600080fd5b843593506020850135925060408501356001600160401b038111156143e757600080fd5b613f3087828801613a5b565b600080600080600080600060c0888a03121561440e57600080fd5b873596506020880135955060408801356001600160401b0381111561443257600080fd5b61443e8a828b01613a5b565b909650945050606088013592506080880135915060a088013561446081614e0d565b8091505092959891949750929550565b60008060008060008060008060a0898b03121561448c57600080fd5b883597506020890135965060408901356001600160401b03808211156144b157600080fd5b6144bd8c838d01613a5b565b909850965060608b01359150808211156144d657600080fd5b6144e28c838d01613a5b565b909650945060808b01359150808211156144fb57600080fd5b506145088b828c01613a5b565b999c989b5096995094979396929594505050565b6000806000806080858703121561453257600080fd5b843593506020850135925060408501359150606085013561455281614e0d565b939692955090935050565b81835260006001600160fb1b0383111561457657600080fd5b8260051b8083602087013760009401602001938452509192915050565b81835260006020808501808196508560051b810191508460005b878110156146165782840389528135601e198836030181126145ce57600080fd5b870180356001600160401b038111156145e657600080fd5b8036038913156145f557600080fd5b6146028682898501614623565b9a87019a95505050908401906001016145ad565b5091979650505050505050565b81835281816020850137506000828201602090810191909152601f909101601f19169091010190565b60008151808452614664816020860160208601614d64565b601f01601f19169290920160200192915050565b8183823760009101908152919050565b6000825161469a818460208701614d64565b9190910192915050565b600083516146b6818460208801614d64565b9190910191825250602001919050565b82848237909101908152602001919050565b60018060a01b038416815282602082015260606040820152600061347c606083018461464c565b60018060a01b0385168152836020820152608060408201526000614726608083018561464c565b905063ffffffff8316606083015295945050505050565b602081526000610fc3602083018461464c565b6020808252602c908201527f46756e6374696f6e206d7573742062652063616c6c6564207468726f7567682060408201526b19195b1959d85d1958d85b1b60a21b606082015260800190565b6020808252602c908201527f46756e6374696f6e206d7573742062652063616c6c6564207468726f7567682060408201526b6163746976652070726f787960a01b606082015260800190565b6020808252601c908201527f504f5254414c3a73656e646572204e4f5420676f7665726e616e636500000000604082015260600190565b6020808252602b908201527f496e697469616c697a61626c653a20636f6e7472616374206973206e6f74206960408201526a6e697469616c697a696e6760a81b606082015260800190565b87815286602082015260018060a01b038616604082015284606082015260c06080820152600061489e60c083018587614623565b90508260a083015298975050505050505050565b92835260208301919091526001600160a01b0316604082015260600190565b8681528560208201526080604082015260006148f160808301868861455d565b828103606084015261260f81858761455d565b83815260406020820152600061347c604083018486614623565b86815285602082015260806040820152600061493e60808301868861455d565b828103606084015261260f818587614593565b88815260006020898184015260a0604084015261497260a08401898b61455d565b838103606085015261498581888a61455d565b84810360808601528581529050818101600586811b830184018860005b89811015614a1257858303601f190185528135368c9003601e190181126149c857600080fd5b8b0180356001600160401b038111156149e057600080fd5b80861b36038d13156149f157600080fd5b6149fe85828b850161455d565b9689019694505050908601906001016149a2565b50909f9e505050505050505050505050505050565b848152836020820152606060408201526000611669606083018486614623565b858152846020820152836040820152608060608201526000614a6d608083018486614593565b979650505050505050565b60006101408c835260208c818501528b60408501528a606085015260018060a01b038a1660808501528160a0850152614ab4828501898b614623565b915083820360c0850152614ac9828789614623565b925060e0840191508460005b6003811015614afd578135614ae981614e22565b151584529282019290820190600101614ad5565b505050509b9a5050505050505050505050565b86815285602082015284604082015283606082015260a060808201526000614b3c60a08301848661455d565b98975050505050505050565b8a815289602082015288604082015287606082015260e060808201526000614b7460e08301888a614593565b82810360a0840152614b87818789614593565b905082810360c0840152614b9c818587614593565b9d9c50505050505050505050505050565b6020815260018060a01b038251166020820152602082015160408201526000604083015160806060840152614be560a084018261464c565b9050606084015160808401528091505092915050565b60208152614c156020820183516001600160401b03169052565b60006020830151614c3160408401826001600160401b03169052565b5060408301516001600160401b03811660608401525060608301516001600160401b038116608084015250608083015160a083015260a083015160c083015260c083015160e083015260e0830151610100818185015280850151915050610120818185015280850151915050610140808185015250611c1a61016084018261464c565b604051601f8201601f191681016001600160401b0381118282101715614cdc57614cdc614df7565b604052919050565b60006001600160401b03821115614cfd57614cfd614df7565b50601f01601f191660200190565b60008219821115614d1e57614d1e614dcb565b500190565b600082614d4057634e487b7160e01b600052601260045260246000fd5b500490565b6000816000190483118215151615614d5f57614d5f614dcb565b500290565b60005b83811015614d7f578181015183820152602001614d67565b83811115610e935750506000910152565b600181811c90821680614da457607f821691505b60208210811415614dc557634e487b7160e01b600052602260045260246000fd5b50919050565b634e487b7160e01b600052601160045260246000fd5b634e487b7160e01b600052603260045260246000fd5b634e487b7160e01b600052604160045260246000fd5b6001600160a01b03811681146115cd57600080fd5b80151581146115cd57600080fdfe360894a13ba1a3210667c828492db98dca3e2076cc3735a920a3ca505d382bbc416464726573733a206c6f772d6c6576656c2064656c65676174652063616c6c206661696c6564a26469706673582212209d37c151346adea9331b0bcdbaf876aa478112b5e0ee54890ee496b13be4517e64736f6c63430008070033",
  "libraries": {
    "GeodeModuleLib": "0x3506980d4d72f056d12216cA7c853000f19e6382",
    "StakeModuleLib": "0x68d1fA204C4fdfcCC074863Bf7bD71e3b3974b7d",
    "OracleExtensionLib": "0x50A5a9Fd50e6C630a66Ab3b570C5B079E0567b60"
  },
  "devdoc": {
    "author": "Ice Bear & Crash Bandicoot",
    "details": "TYPE: PACKAGE_PORTALPortal is a special package that is deployed once. Does not utilize IGeodePackage interface.review: GM for The Limited Upgradability through Dual Governance: * Governance is a governance token. * Senate is a multisig, planned to be a contract that allows pool CONTROLLERs to maintain power. * Senate expiry is effective.review: SM for Staking logic.There are 2 functionalities that are implemented here: * Special Governance functions for Portal: * * Pausing gETH, pausing Portal, releasing prisoned operators,and seting a governance fee. * Push end of the version management logic via pull->push. * * approveProposal changes the package version or allows specified middleware. * * pushUpgrade creates a package type proposal on the package to upgrade the contract, and requires package owner to approve it.authentication: * GeodeModule has OnlyGovernance, OnlySenate and OnlyController checks with modifiers. * StakeModuleLib has \"authenticate()\" function which checks for Maintainers, Controllers, and TYPE. * OracleModuleLib has OnlyOracle checks with a modifier. * Portal has an OnlyGovernance check on : pause, unpause, pausegETH, unpausegETH, setGovernanceFee, releasePrisoned.",
    "events": {
      "Released(uint256)": {
        "custom:section": "** EVENTS **"
      }
    },
    "kind": "dev",
    "methods": {
      "GeodeParams()": {
        "custom:section": "** GETTER FUNCTIONS **",
        "custom:visibility": "-> view-external"
      },
      "StakeParams()": {
        "custom:section": "** GETTER FUNCTIONS **",
        "custom:visibility": "-> view-external"
      },
      "allIdsByType(uint256,uint256)": {
        "details": "useful for outside reach, shouldn't be used within contracts as a referance",
        "returns": {
          "_0": "allIdsByType is an array of IDs of the given TYPE from Datastore, returns a specific index"
        }
      },
      "approveProposal(uint256)": {
        "details": "OnlySenate is checked inside the GeodeModule"
      },
      "blameOperator(bytes)": {
        "custom:section": "** PRISON **",
        "custom:visibility": "-> external"
      },
      "canStake(bytes)": {
        "custom:visibility": "-> view"
      },
      "changeIdCONTROLLER(uint256,address)": {
        "custom:subsection": "** ONLY CONTROLLER **"
      },
      "changeMaintainer(uint256,address)": {
        "custom:subsection": "** MAINTAINER **"
      },
      "constructor": {
        "custom:oz-upgrades-unsafe-allow": "constructor"
      },
      "delegate(uint256,uint256[],uint256[])": {
        "custom:section": "** DELEGATION **",
        "custom:visibility": "-> external"
      },
      "deployLiquidityPool(uint256)": {
        "custom:subsection": "** BOUND LIQUIDITY POOL **"
      },
      "deposit(uint256,uint256,bytes32[],uint256,uint256,address)": {
        "custom:section": "** POOLING OPERATIONS **",
        "custom:visibility": "-> external"
      },
      "generateId(string,uint256)": {
        "details": "id is generated by keccak(name, type)"
      },
      "getMaintenanceFee(uint256)": {
        "custom:visibility": "-> view"
      },
      "getValidatorPeriod(uint256)": {
        "custom:visibility": "-> view"
      },
      "increaseWalletBalance(uint256)": {
        "custom:section": "** INTERNAL WALLET **"
      },
      "initiateOperator(uint256,uint256,uint256,address)": {
        "custom:section": "** OPERATOR INITIATOR **",
        "custom:visibility": "-> external"
      },
      "initiatePool(uint256,uint256,address,bytes,bytes,bool[3])": {
        "custom:section": "** STAKING POOL INITIATOR **",
        "custom:visibility": "-> external"
      },
      "isPriceValid(uint256)": {
        "custom:section": "** DEPOSIT GETTERS **",
        "custom:visibility": "-> view-external"
      },
      "isPrisoned(uint256)": {
        "custom:visibility": "-> view"
      },
      "isPrivatePool(uint256)": {
        "custom:visibility": "-> view"
      },
      "isolationMode()": {
        "details": "GeodeModule override",
        "returns": {
          "_0": "isRecovering true if isolationMode is active: * 1. Portal is paused * 2. Portal needs to be upgraded * 3. Senate expired"
        }
      },
      "operatorAllowance(uint256,uint256)": {
        "custom:visibility": "-> view"
      },
      "pause()": {
        "custom:section": "** GOVERNANCE FUNCTIONS **",
        "custom:visibility": "-> external"
      },
      "paused()": {
        "details": "Returns true if the contract is paused, and false otherwise."
      },
      "propose(address,uint256,bytes,uint256)": {
        "custom:subsection": "** ONLY GOVERNANCE **"
      },
      "proposeStake(uint256,uint256,bytes[],bytes[],bytes[])": {
        "custom:section": "** VALIDATOR CREATION **",
        "custom:visibility": "-> external"
      },
      "proxiableUUID()": {
        "details": "Implementation of the ERC1822 {proxiableUUID} function. This returns the storage slot used by the implementation. It is used to validate the implementation's compatibility when performing an upgrade. IMPORTANT: A proxy pointing at a proxiable contract should not be considered proxiable itself, because this risks bricking a proxy that upgrades to it, by delegating to itself until out of gas. Thus it is critical that this function revert if invoked through a proxy. This is guaranteed by the `notDelegated` modifier."
      },
      "readUintArray(uint256,bytes32,uint256)": {
        "custom:section": "** ARRAY GETTER FUNCTIONS **",
        "custom:visibility": "-> view-external"
      },
      "releasePrisoned(uint256)": {
        "details": "in different situations such as a faulty imprisonment or coordinated testing periods * Governance can release the prisonersonlyGovernance SHOULD be checked in Portal"
      },
      "setPoolVisibility(uint256,bool)": {
        "custom:subsection": "** POOL VISIBILITY **"
      },
      "setYieldReceiver(uint256,address)": {
        "custom:subsection": "** YIELD SEPARATION **"
      },
      "supportsInterface(bytes4)": {
        "details": "See {IERC165-supportsInterface}."
      },
      "switchMaintenanceFee(uint256,uint256)": {
        "custom:subsection": "** FEE **"
      },
      "switchValidatorPeriod(uint256,uint256)": {
        "custom:section": "** OPERATORS PERIOD **",
        "custom:visibility": "-> external"
      },
      "updateVerificationIndex(uint256,bytes[])": {
        "custom:section": "** ORACLE OPERATIONS **",
        "custom:visibility": "-> external"
      },
      "upgradeTo(address)": {
        "details": "Upgrade the implementation of the proxy to `newImplementation`. Calls {_authorizeUpgrade}. Emits an {Upgraded} event."
      },
      "upgradeToAndCall(address,bytes)": {
        "details": "Upgrade the implementation of the proxy to `newImplementation`, and subsequently execute the function call encoded in `data`. Calls {_authorizeUpgrade}. Emits an {Upgraded} event."
      }
    },
    "title": "Geode Portal: Geode Module + Stake Module",
    "version": 1
  },
  "userdoc": {
    "kind": "user",
    "methods": {
      "approveProposal(uint256)": {
        "notice": "approves a specific proposal"
      },
      "generateId(string,uint256)": {
        "notice": "useful function for string inputs - returns same with the DSML.generateId"
      },
      "getKey(uint256,bytes32)": {
        "notice": "useful view function for string inputs - returns same with the DSML.generateId"
      },
      "isolationMode()": {
        "notice": "Isolation Mode is an external view function signaling other contracts * to isolate themselves from Portal. For example, withdrawalContract will not fetch upgrades."
      },
      "releasePrisoned(uint256)": {
        "notice": "releases an imprisoned operator immidately"
      }
    },
    "notice": "Global standard for staking with on chain delegation and customizable staking pools. Management of the state of the protocol governance through dual governance and proposals. Version management and distribution of packages used by the staking pools.",
    "version": 1
  },
  "storageLayout": {
    "storage": [
      {
        "astId": 527,
        "contract": "contracts/Portal/Portal.sol:Portal",
        "label": "_initialized",
        "offset": 0,
        "slot": "0",
        "type": "t_uint8"
      },
      {
        "astId": 530,
        "contract": "contracts/Portal/Portal.sol:Portal",
        "label": "_initializing",
        "offset": 1,
        "slot": "0",
        "type": "t_bool"
      },
      {
        "astId": 26252,
        "contract": "contracts/Portal/Portal.sol:Portal",
        "label": "DATASTORE",
        "offset": 0,
        "slot": "1",
        "type": "t_struct(IsolatedStorage)26492_storage"
      },
      {
        "astId": 3198,
        "contract": "contracts/Portal/Portal.sol:Portal",
        "label": "__gap",
        "offset": 0,
        "slot": "17",
        "type": "t_array(t_uint256)50_storage"
      },
      {
        "astId": 1190,
        "contract": "contracts/Portal/Portal.sol:Portal",
        "label": "__gap",
        "offset": 0,
        "slot": "67",
        "type": "t_array(t_uint256)50_storage"
      },
      {
        "astId": 1136,
        "contract": "contracts/Portal/Portal.sol:Portal",
        "label": "__gap",
        "offset": 0,
        "slot": "117",
        "type": "t_array(t_uint256)50_storage"
      },
      {
        "astId": 2331,
        "contract": "contracts/Portal/Portal.sol:Portal",
        "label": "__gap",
        "offset": 0,
        "slot": "167",
        "type": "t_array(t_uint256)50_storage"
      },
      {
        "astId": 846,
        "contract": "contracts/Portal/Portal.sol:Portal",
        "label": "_paused",
        "offset": 0,
        "slot": "217",
        "type": "t_bool"
      },
      {
        "astId": 951,
        "contract": "contracts/Portal/Portal.sol:Portal",
        "label": "__gap",
        "offset": 0,
        "slot": "218",
        "type": "t_array(t_uint256)49_storage"
      },
      {
        "astId": 966,
        "contract": "contracts/Portal/Portal.sol:Portal",
        "label": "_status",
        "offset": 0,
        "slot": "267",
        "type": "t_uint256"
      },
      {
        "astId": 1024,
        "contract": "contracts/Portal/Portal.sol:Portal",
        "label": "__gap",
        "offset": 0,
        "slot": "268",
        "type": "t_array(t_uint256)49_storage"
      },
      {
        "astId": 32425,
        "contract": "contracts/Portal/Portal.sol:Portal",
        "label": "STAKE",
        "offset": 0,
        "slot": "317",
        "type": "t_struct(PooledStaking)34735_storage"
      },
      {
        "astId": 509,
        "contract": "contracts/Portal/Portal.sol:Portal",
        "label": "__gap",
        "offset": 0,
        "slot": "333",
        "type": "t_array(t_uint256)50_storage"
      },
      {
        "astId": 824,
        "contract": "contracts/Portal/Portal.sol:Portal",
        "label": "__gap",
        "offset": 0,
        "slot": "383",
        "type": "t_array(t_uint256)50_storage"
      },
      {
        "astId": 27145,
        "contract": "contracts/Portal/Portal.sol:Portal",
        "label": "GEODE",
        "offset": 0,
        "slot": "433",
        "type": "t_struct(DualGovernance)27622_storage"
      },
      {
        "astId": 19640,
        "contract": "contracts/Portal/Portal.sol:Portal",
        "label": "__gap",
        "offset": 0,
        "slot": "449",
        "type": "t_array(t_uint256)50_storage"
      }
    ],
    "types": {
      "t_address": {
        "encoding": "inplace",
        "label": "address",
        "numberOfBytes": "20"
      },
      "t_array(t_uint256)12_storage": {
        "base": "t_uint256",
        "encoding": "inplace",
        "label": "uint256[12]",
        "numberOfBytes": "384"
      },
      "t_array(t_uint256)2_storage": {
        "base": "t_uint256",
        "encoding": "inplace",
        "label": "uint256[2]",
        "numberOfBytes": "64"
      },
      "t_array(t_uint256)49_storage": {
        "base": "t_uint256",
        "encoding": "inplace",
        "label": "uint256[49]",
        "numberOfBytes": "1568"
      },
      "t_array(t_uint256)50_storage": {
        "base": "t_uint256",
        "encoding": "inplace",
        "label": "uint256[50]",
        "numberOfBytes": "1600"
      },
      "t_array(t_uint256)9_storage": {
        "base": "t_uint256",
        "encoding": "inplace",
        "label": "uint256[9]",
        "numberOfBytes": "288"
      },
      "t_array(t_uint256)dyn_storage": {
        "base": "t_uint256",
        "encoding": "dynamic_array",
        "label": "uint256[]",
        "numberOfBytes": "32"
      },
      "t_bool": {
        "encoding": "inplace",
        "label": "bool",
        "numberOfBytes": "1"
      },
      "t_bytes32": {
        "encoding": "inplace",
        "label": "bytes32",
        "numberOfBytes": "32"
      },
      "t_bytes_memory_ptr": {
        "encoding": "bytes",
        "label": "bytes",
        "numberOfBytes": "32"
      },
      "t_bytes_storage": {
        "encoding": "bytes",
        "label": "bytes",
        "numberOfBytes": "32"
      },
      "t_contract(IgETH)24335": {
        "encoding": "inplace",
        "label": "contract IgETH",
        "numberOfBytes": "20"
      },
      "t_mapping(t_bytes32,t_address)": {
        "encoding": "mapping",
        "key": "t_bytes32",
        "label": "mapping(bytes32 => address)",
        "numberOfBytes": "32",
        "value": "t_address"
      },
      "t_mapping(t_bytes32,t_bytes_storage)": {
        "encoding": "mapping",
        "key": "t_bytes32",
        "label": "mapping(bytes32 => bytes)",
        "numberOfBytes": "32",
        "value": "t_bytes_storage"
      },
      "t_mapping(t_bytes32,t_uint256)": {
        "encoding": "mapping",
        "key": "t_bytes32",
        "label": "mapping(bytes32 => uint256)",
        "numberOfBytes": "32",
        "value": "t_uint256"
      },
      "t_mapping(t_bytes_memory_ptr,t_struct(Validator)34692_storage)": {
        "encoding": "mapping",
        "key": "t_bytes_memory_ptr",
        "label": "mapping(bytes => struct StakeModuleLib.Validator)",
        "numberOfBytes": "32",
        "value": "t_struct(Validator)34692_storage"
      },
      "t_mapping(t_uint256,t_array(t_uint256)dyn_storage)": {
        "encoding": "mapping",
        "key": "t_uint256",
        "label": "mapping(uint256 => uint256[])",
        "numberOfBytes": "32",
        "value": "t_array(t_uint256)dyn_storage"
      },
      "t_mapping(t_uint256,t_bool)": {
        "encoding": "mapping",
        "key": "t_uint256",
        "label": "mapping(uint256 => bool)",
        "numberOfBytes": "32",
        "value": "t_bool"
      },
      "t_mapping(t_uint256,t_mapping(t_uint256,t_bool))": {
        "encoding": "mapping",
        "key": "t_uint256",
        "label": "mapping(uint256 => mapping(uint256 => bool))",
        "numberOfBytes": "32",
        "value": "t_mapping(t_uint256,t_bool)"
      },
      "t_mapping(t_uint256,t_struct(Proposal)27600_storage)": {
        "encoding": "mapping",
        "key": "t_uint256",
        "label": "mapping(uint256 => struct GeodeModuleLib.Proposal)",
        "numberOfBytes": "32",
        "value": "t_struct(Proposal)27600_storage"
      },
      "t_mapping(t_uint256,t_uint256)": {
        "encoding": "mapping",
        "key": "t_uint256",
        "label": "mapping(uint256 => uint256)",
        "numberOfBytes": "32",
        "value": "t_uint256"
      },
      "t_struct(DualGovernance)27622_storage": {
        "encoding": "inplace",
        "label": "struct GeodeModuleLib.DualGovernance",
        "members": [
          {
            "astId": 27602,
            "contract": "contracts/Portal/Portal.sol:Portal",
            "label": "GOVERNANCE",
            "offset": 0,
            "slot": "0",
            "type": "t_address"
          },
          {
            "astId": 27604,
            "contract": "contracts/Portal/Portal.sol:Portal",
            "label": "SENATE",
            "offset": 0,
            "slot": "1",
            "type": "t_address"
          },
          {
            "astId": 27606,
            "contract": "contracts/Portal/Portal.sol:Portal",
            "label": "APPROVED_UPGRADE",
            "offset": 0,
            "slot": "2",
            "type": "t_address"
          },
          {
            "astId": 27608,
            "contract": "contracts/Portal/Portal.sol:Portal",
            "label": "SENATE_EXPIRY",
            "offset": 0,
            "slot": "3",
            "type": "t_uint256"
          },
          {
            "astId": 27610,
            "contract": "contracts/Portal/Portal.sol:Portal",
            "label": "PACKAGE_TYPE",
            "offset": 0,
            "slot": "4",
            "type": "t_uint256"
          },
          {
            "astId": 27612,
            "contract": "contracts/Portal/Portal.sol:Portal",
            "label": "CONTRACT_VERSION",
            "offset": 0,
            "slot": "5",
            "type": "t_uint256"
          },
          {
            "astId": 27617,
            "contract": "contracts/Portal/Portal.sol:Portal",
            "label": "proposals",
            "offset": 0,
            "slot": "6",
            "type": "t_mapping(t_uint256,t_struct(Proposal)27600_storage)"
          },
          {
            "astId": 27621,
            "contract": "contracts/Portal/Portal.sol:Portal",
            "label": "__gap",
            "offset": 0,
            "slot": "7",
            "type": "t_array(t_uint256)9_storage"
          }
        ],
        "numberOfBytes": "512"
      },
      "t_struct(IsolatedStorage)26492_storage": {
        "encoding": "inplace",
        "label": "struct DataStoreModuleLib.IsolatedStorage",
        "members": [
          {
            "astId": 26475,
            "contract": "contracts/Portal/Portal.sol:Portal",
            "label": "allIdsByType",
            "offset": 0,
            "slot": "0",
            "type": "t_mapping(t_uint256,t_array(t_uint256)dyn_storage)"
          },
          {
            "astId": 26479,
            "contract": "contracts/Portal/Portal.sol:Portal",
            "label": "uintData",
            "offset": 0,
            "slot": "1",
            "type": "t_mapping(t_bytes32,t_uint256)"
          },
          {
            "astId": 26483,
            "contract": "contracts/Portal/Portal.sol:Portal",
            "label": "bytesData",
            "offset": 0,
            "slot": "2",
            "type": "t_mapping(t_bytes32,t_bytes_storage)"
          },
          {
            "astId": 26487,
            "contract": "contracts/Portal/Portal.sol:Portal",
            "label": "addressData",
            "offset": 0,
            "slot": "3",
            "type": "t_mapping(t_bytes32,t_address)"
          },
          {
            "astId": 26491,
            "contract": "contracts/Portal/Portal.sol:Portal",
            "label": "__gap",
            "offset": 0,
            "slot": "4",
            "type": "t_array(t_uint256)12_storage"
          }
        ],
        "numberOfBytes": "512"
      },
      "t_struct(PooledStaking)34735_storage": {
        "encoding": "inplace",
        "label": "struct StakeModuleLib.PooledStaking",
        "members": [
          {
            "astId": 34695,
            "contract": "contracts/Portal/Portal.sol:Portal",
            "label": "gETH",
            "offset": 0,
            "slot": "0",
            "type": "t_contract(IgETH)24335"
          },
          {
            "astId": 34697,
            "contract": "contracts/Portal/Portal.sol:Portal",
            "label": "ORACLE_POSITION",
            "offset": 0,
            "slot": "1",
            "type": "t_address"
          },
          {
            "astId": 34699,
            "contract": "contracts/Portal/Portal.sol:Portal",
            "label": "VALIDATORS_INDEX",
            "offset": 0,
            "slot": "2",
            "type": "t_uint256"
          },
          {
            "astId": 34701,
            "contract": "contracts/Portal/Portal.sol:Portal",
            "label": "VERIFICATION_INDEX",
            "offset": 0,
            "slot": "3",
            "type": "t_uint256"
          },
          {
            "astId": 34703,
            "contract": "contracts/Portal/Portal.sol:Portal",
            "label": "MONOPOLY_THRESHOLD",
            "offset": 0,
            "slot": "4",
            "type": "t_uint256"
          },
          {
            "astId": 34705,
            "contract": "contracts/Portal/Portal.sol:Portal",
            "label": "ORACLE_UPDATE_TIMESTAMP",
            "offset": 0,
            "slot": "5",
            "type": "t_uint256"
          },
          {
            "astId": 34707,
            "contract": "contracts/Portal/Portal.sol:Portal",
            "label": "DAILY_PRICE_INCREASE_LIMIT",
            "offset": 0,
            "slot": "6",
            "type": "t_uint256"
          },
          {
            "astId": 34709,
            "contract": "contracts/Portal/Portal.sol:Portal",
            "label": "DAILY_PRICE_DECREASE_LIMIT",
            "offset": 0,
            "slot": "7",
            "type": "t_uint256"
          },
          {
            "astId": 34711,
            "contract": "contracts/Portal/Portal.sol:Portal",
            "label": "GOVERNANCE_FEE",
            "offset": 0,
            "slot": "8",
            "type": "t_uint256"
          },
          {
            "astId": 34713,
            "contract": "contracts/Portal/Portal.sol:Portal",
            "label": "PRICE_MERKLE_ROOT",
            "offset": 0,
            "slot": "9",
            "type": "t_bytes32"
          },
          {
            "astId": 34715,
            "contract": "contracts/Portal/Portal.sol:Portal",
            "label": "BALANCE_MERKLE_ROOT",
            "offset": 0,
            "slot": "10",
            "type": "t_bytes32"
          },
          {
            "astId": 34720,
            "contract": "contracts/Portal/Portal.sol:Portal",
            "label": "validators",
            "offset": 0,
            "slot": "11",
            "type": "t_mapping(t_bytes_memory_ptr,t_struct(Validator)34692_storage)"
          },
          {
            "astId": 34724,
            "contract": "contracts/Portal/Portal.sol:Portal",
            "label": "packages",
            "offset": 0,
            "slot": "12",
            "type": "t_mapping(t_uint256,t_uint256)"
          },
          {
            "astId": 34730,
            "contract": "contracts/Portal/Portal.sol:Portal",
            "label": "middlewares",
            "offset": 0,
            "slot": "13",
            "type": "t_mapping(t_uint256,t_mapping(t_uint256,t_bool))"
          },
          {
            "astId": 34734,
            "contract": "contracts/Portal/Portal.sol:Portal",
            "label": "__gap",
            "offset": 0,
            "slot": "14",
            "type": "t_array(t_uint256)2_storage"
          }
        ],
        "numberOfBytes": "512"
      },
      "t_struct(Proposal)27600_storage": {
        "encoding": "inplace",
        "label": "struct GeodeModuleLib.Proposal",
        "members": [
          {
            "astId": 27593,
            "contract": "contracts/Portal/Portal.sol:Portal",
            "label": "CONTROLLER",
            "offset": 0,
            "slot": "0",
            "type": "t_address"
          },
          {
            "astId": 27595,
            "contract": "contracts/Portal/Portal.sol:Portal",
            "label": "TYPE",
            "offset": 0,
            "slot": "1",
            "type": "t_uint256"
          },
          {
            "astId": 27597,
            "contract": "contracts/Portal/Portal.sol:Portal",
            "label": "NAME",
            "offset": 0,
            "slot": "2",
            "type": "t_bytes_storage"
          },
          {
            "astId": 27599,
            "contract": "contracts/Portal/Portal.sol:Portal",
            "label": "deadline",
            "offset": 0,
            "slot": "3",
            "type": "t_uint256"
          }
        ],
        "numberOfBytes": "128"
      },
      "t_struct(Validator)34692_storage": {
        "encoding": "inplace",
        "label": "struct StakeModuleLib.Validator",
        "members": [
          {
            "astId": 34673,
            "contract": "contracts/Portal/Portal.sol:Portal",
            "label": "state",
            "offset": 0,
            "slot": "0",
            "type": "t_uint64"
          },
          {
            "astId": 34675,
            "contract": "contracts/Portal/Portal.sol:Portal",
            "label": "index",
            "offset": 8,
            "slot": "0",
            "type": "t_uint64"
          },
          {
            "astId": 34677,
            "contract": "contracts/Portal/Portal.sol:Portal",
            "label": "createdAt",
            "offset": 16,
            "slot": "0",
            "type": "t_uint64"
          },
          {
            "astId": 34679,
            "contract": "contracts/Portal/Portal.sol:Portal",
            "label": "period",
            "offset": 24,
            "slot": "0",
            "type": "t_uint64"
          },
          {
            "astId": 34681,
            "contract": "contracts/Portal/Portal.sol:Portal",
            "label": "poolId",
            "offset": 0,
            "slot": "1",
            "type": "t_uint256"
          },
          {
            "astId": 34683,
            "contract": "contracts/Portal/Portal.sol:Portal",
            "label": "operatorId",
            "offset": 0,
            "slot": "2",
            "type": "t_uint256"
          },
          {
            "astId": 34685,
            "contract": "contracts/Portal/Portal.sol:Portal",
            "label": "poolFee",
            "offset": 0,
            "slot": "3",
            "type": "t_uint256"
          },
          {
            "astId": 34687,
            "contract": "contracts/Portal/Portal.sol:Portal",
            "label": "operatorFee",
            "offset": 0,
            "slot": "4",
            "type": "t_uint256"
          },
          {
            "astId": 34689,
            "contract": "contracts/Portal/Portal.sol:Portal",
            "label": "governanceFee",
            "offset": 0,
            "slot": "5",
            "type": "t_uint256"
          },
          {
            "astId": 34691,
            "contract": "contracts/Portal/Portal.sol:Portal",
            "label": "signature31",
            "offset": 0,
            "slot": "6",
            "type": "t_bytes_storage"
          }
        ],
        "numberOfBytes": "224"
      },
      "t_uint256": {
        "encoding": "inplace",
        "label": "uint256",
        "numberOfBytes": "32"
      },
      "t_uint64": {
        "encoding": "inplace",
        "label": "uint64",
        "numberOfBytes": "8"
      },
      "t_uint8": {
        "encoding": "inplace",
        "label": "uint8",
        "numberOfBytes": "1"
      }
    }
  }
}