{
  "address": "0x68d1fA204C4fdfcCC074863Bf7bD71e3b3974b7d",
  "abi": [
    {
      "anonymous": false,
      "inputs": [
        {
          "indexed": false,
          "internalType": "uint256",
          "name": "poolId",
          "type": "uint256"
        },
        {
          "indexed": true,
          "internalType": "uint256",
          "name": "operatorId",
          "type": "uint256"
        },
        {
          "indexed": false,
          "internalType": "uint256",
          "name": "allowance",
          "type": "uint256"
        }
      ],
      "name": "Delegation",
      "type": "event"
    },
    {
      "anonymous": false,
      "inputs": [
        {
          "indexed": true,
          "internalType": "uint256",
          "name": "poolId",
          "type": "uint256"
        },
        {
          "indexed": false,
          "internalType": "uint256",
          "name": "boughtgETH",
          "type": "uint256"
        },
        {
          "indexed": false,
          "internalType": "uint256",
          "name": "mintedgETH",
          "type": "uint256"
        }
      ],
      "name": "Deposit",
      "type": "event"
    },
    {
      "anonymous": false,
      "inputs": [
        {
          "indexed": false,
          "internalType": "uint256",
          "name": "poolId",
          "type": "uint256"
        },
        {
          "indexed": true,
          "internalType": "uint256",
          "name": "operatorId",
          "type": "uint256"
        },
        {
          "indexed": false,
          "internalType": "uint256",
          "name": "threshold",
          "type": "uint256"
        }
      ],
      "name": "FallbackOperator",
      "type": "event"
    },
    {
      "anonymous": false,
      "inputs": [
        {
          "indexed": true,
          "internalType": "uint256",
          "name": "id",
          "type": "uint256"
        },
        {
          "indexed": false,
          "internalType": "uint256",
          "name": "fee",
          "type": "uint256"
        },
        {
          "indexed": false,
          "internalType": "uint256",
          "name": "effectiveAfter",
          "type": "uint256"
        }
      ],
      "name": "FeeSwitched",
      "type": "event"
    },
    {
      "anonymous": false,
      "inputs": [
        {
          "indexed": false,
          "internalType": "uint256",
          "name": "id",
          "type": "uint256"
        },
        {
          "indexed": true,
          "internalType": "uint256",
          "name": "TYPE",
          "type": "uint256"
        }
      ],
      "name": "IdInitiated",
      "type": "event"
    },
    {
      "anonymous": false,
      "inputs": [
        {
          "indexed": true,
          "internalType": "uint256",
          "name": "id",
          "type": "uint256"
        },
        {
          "indexed": false,
          "internalType": "address",
          "name": "newMaintainer",
          "type": "address"
        }
      ],
      "name": "MaintainerChanged",
      "type": "event"
    },
    {
      "anonymous": false,
      "inputs": [
        {
          "indexed": false,
          "internalType": "uint256",
          "name": "poolId",
          "type": "uint256"
        },
        {
          "indexed": false,
          "internalType": "uint256",
          "name": "version",
          "type": "uint256"
        }
      ],
      "name": "MiddlewareDeployed",
      "type": "event"
    },
    {
      "anonymous": false,
      "inputs": [
        {
          "indexed": false,
          "internalType": "uint256",
          "name": "poolId",
          "type": "uint256"
        },
        {
          "indexed": false,
          "internalType": "uint256",
          "name": "packageType",
          "type": "uint256"
        },
        {
          "indexed": false,
          "internalType": "address",
          "name": "instance",
          "type": "address"
        }
      ],
      "name": "PackageDeployed",
      "type": "event"
    },
    {
      "anonymous": false,
      "inputs": [
        {
          "indexed": false,
          "internalType": "bytes[]",
          "name": "pubkeys",
          "type": "bytes[]"
        }
      ],
      "name": "Stake",
      "type": "event"
    },
    {
      "anonymous": false,
      "inputs": [
        {
          "indexed": false,
          "internalType": "uint256",
          "name": "poolId",
          "type": "uint256"
        },
        {
          "indexed": false,
          "internalType": "uint256",
          "name": "operatorId",
          "type": "uint256"
        },
        {
          "indexed": false,
          "internalType": "bytes[]",
          "name": "pubkeys",
          "type": "bytes[]"
        }
      ],
      "name": "StakeProposal",
      "type": "event"
    },
    {
      "anonymous": false,
      "inputs": [
        {
          "indexed": true,
          "internalType": "uint256",
          "name": "operatorId",
          "type": "uint256"
        },
        {
          "indexed": false,
          "internalType": "uint256",
          "name": "period",
          "type": "uint256"
        },
        {
          "indexed": false,
          "internalType": "uint256",
          "name": "effectiveAfter",
          "type": "uint256"
        }
      ],
      "name": "ValidatorPeriodSwitched",
      "type": "event"
    },
    {
      "anonymous": false,
      "inputs": [
        {
          "indexed": false,
          "internalType": "uint256",
          "name": "id",
          "type": "uint256"
        },
        {
          "indexed": false,
          "internalType": "bool",
          "name": "isPrivate",
          "type": "bool"
        }
      ],
      "name": "VisibilitySet",
      "type": "event"
    },
    {
      "anonymous": false,
      "inputs": [
        {
          "indexed": true,
          "internalType": "uint256",
          "name": "poolId",
          "type": "uint256"
        },
        {
          "indexed": false,
          "internalType": "address",
          "name": "yieldReceiver",
          "type": "address"
        }
      ],
      "name": "YieldReceiverSet",
      "type": "event"
    },
    {
      "inputs": [],
      "name": "IGNORABLE_DEBT",
      "outputs": [
        {
          "internalType": "uint256",
          "name": "",
          "type": "uint256"
        }
      ],
      "stateMutability": "view",
      "type": "function"
    },
    {
      "inputs": [],
      "name": "MAX_ALLOWANCE",
      "outputs": [
        {
          "internalType": "uint256",
          "name": "",
          "type": "uint256"
        }
      ],
      "stateMutability": "view",
      "type": "function"
    },
    {
      "inputs": [],
      "name": "MAX_GOVERNANCE_FEE",
      "outputs": [
        {
          "internalType": "uint256",
          "name": "",
          "type": "uint256"
        }
      ],
      "stateMutability": "view",
      "type": "function"
    },
    {
      "inputs": [],
      "name": "MAX_MAINTENANCE_FEE",
      "outputs": [
        {
          "internalType": "uint256",
          "name": "",
          "type": "uint256"
        }
      ],
      "stateMutability": "view",
      "type": "function"
    },
    {
      "inputs": [],
      "name": "MAX_VALIDATOR_PERIOD",
      "outputs": [
        {
          "internalType": "uint256",
          "name": "",
          "type": "uint256"
        }
      ],
      "stateMutability": "view",
      "type": "function"
    },
    {
      "inputs": [],
      "name": "MIN_VALIDATOR_PERIOD",
      "outputs": [
        {
          "internalType": "uint256",
          "name": "",
          "type": "uint256"
        }
      ],
      "stateMutability": "view",
      "type": "function"
    },
    {
      "inputs": [],
      "name": "PRICE_EXPIRY",
      "outputs": [
        {
          "internalType": "uint256",
          "name": "",
          "type": "uint256"
        }
      ],
      "stateMutability": "view",
      "type": "function"
    },
    {
      "inputs": [],
      "name": "SWITCH_LATENCY",
      "outputs": [
        {
          "internalType": "uint256",
          "name": "",
          "type": "uint256"
        }
      ],
      "stateMutability": "view",
      "type": "function"
    }
  ],
  "transactionHash": "0x078b66e573dde0632ce3a8f089dcc585a1eb9cad59699779982710da3f1fac19",
  "args": [],
  "numDeployments": 1,
  "solcInputHash": "0d9b4f013ad8b24d94c0978b4d3f3ea8",
  "bytecode": "0x615f5c6200003b600b82828239805160001a60731461002e57634e487b7160e01b600052600060045260246000fd5b30600052607381538281f3fe73000000000000000000000000000000000000000030146080604052600436106200022e5760003560e01c806383691f70116200013a578063b133028811620000c4578063c9f1cdb8116200008f578063c9f1cdb8146200053f578063d53e39711462000556578063f715ffc0146200057b578063f9af87ca14620005a0578063f9f185f314620005c557600080fd5b8063b13302881462000507578063b55463a41462000512578063b61bf1a5146200051d578063ba6825ef146200052857600080fd5b80639d55e0f611620001055780639d55e0f6146200049b578063a1f0cb8314620004c0578063a87ef4c514620004e5578063addfb0d414620004fc57600080fd5b806383691f70146200043e5780638a58855e1462000463578063980426e9146200047a5780639d22eed4146200048457600080fd5b80634993705611620001bc57806368d1ee23116200018757806368d1ee2314620003cd5780637073703d14620003f257806376b05054146200041757806377c1eaea146200042757600080fd5b806349937056146200036e578063527e4790146200037a5780636377f9a8146200039f578063672bbf9514620003b657600080fd5b80631e12742011620001fd5780631e12742014620002c4578063286ff57814620002e95780633aeaeb1f146200032457806341675ad0146200034957600080fd5b806306be4278146200023357806306d8fb23146200025f57806317bc130c14620002785780631aa2dfc4146200029f575b600080fd5b6200024a6200024436600462004d5b565b620005ea565b60405190151581526020015b60405180910390f35b6200026962000691565b60405190815260200162000256565b8180156200028557600080fd5b506200029d6200029736600462004e7b565b620006b4565b005b818015620002ac57600080fd5b506200029d620002be366004620050a3565b62000805565b818015620002d157600080fd5b5062000269620002e336600462004fda565b62001141565b818015620002f657600080fd5b506200030e620003083660046200516f565b6200156b565b6040805192835260208301919091520162000256565b8180156200033157600080fd5b506200029d6200034336600462004edb565b620017df565b8180156200035657600080fd5b506200029d6200036836600462004e7b565b62001953565b620002696303c2670081565b8180156200038757600080fd5b506200029d6200039936600462004f76565b62001a62565b6200024a620003b036600462004d7e565b6200204d565b6200024a620003c736600462004f27565b6200217c565b818015620003da57600080fd5b506200029d620003ec36600462004e3f565b62002190565b818015620003ff57600080fd5b506200029d6200041136600462004ea8565b6200229d565b62000269670de0b6b3a764000081565b620002696200043836600462004d5b565b620024a5565b8180156200044b57600080fd5b506200029d6200045d36600462004d7e565b62002516565b6200024a6200047436600462004e7b565b62002598565b62000269620025dd565b6200024a6200049536600462004d5b565b620025f1565b818015620004a857600080fd5b506200029d620004ba36600462004e7b565b62002618565b818015620004cd57600080fd5b506200029d620004df36600462004d7e565b62002762565b62000269620004f636600462004d5b565b6200288c565b62000269620f424181565b620002696276a70081565b620002696203f48081565b620002696201518081565b6200024a6200053936600462004d5b565b620028da565b620002696200055036600462004ea8565b620028fc565b8180156200056357600080fd5b506200024a6200057536600462004d5b565b62002adc565b8180156200058857600080fd5b506200029d6200059a36600462004db6565b62002b1c565b818015620005ad57600080fd5b506200024a620005bf36600462004e7b565b62002da6565b818015620005d257600080fd5b506200029d620005e436600462004d7e565b62002f00565b815460405163908d67ed60e01b81526004810183905260009182916001600160a01b039091169063908d67ed9060240160206040518083038186803b1580156200063357600080fd5b505afa15801562000648573d6000803e3d6000fd5b505050506040513d601f19601f820116820180604052508101906200066e919062004d41565b90504262015180820110158062000689575083600501548110155b949350505050565b6064620006a56402540be400600a620055b0565b620006b1919062005599565b81565b604080518082019091526001808252600060208301819052620006dd9286928692909162002fa1565b620006f983836b0e0cae4d2dec8a6eed2e8c6d60a31b62003214565b4211620007475760405162461bcd60e51b8152602060048201526017602482015276534d4c3a63757272656e746c7920737769746368696e6760481b60448201526064015b60405180910390fd5b62000784826a1c1c9a5bdc94195c9a5bd960aa1b6200077a86836e1d985b1a59185d1bdc94195c9a5bd9608a1b62003214565b8692919062003240565b620007a8826b0e0cae4d2dec8a6eed2e8c6d60a31b6200077a6203f4804262005550565b620007b58383836200326a565b817f876113dea338eedc856851b937db5d25520a6013d424528e69b20a166879e35a82620007e76203f4804262005550565b604080519283526020830191909152015b60405180910390a2505050565b6040805180820190915260018082526000602083018190526200082d928c928b929162002fa1565b6040805180820190915260008082526001602083015262000854918b918b91819062002fa1565b620008806200087a8a8a711dda5d1a191c985dd85b10dbdb9d1c9858dd60721b62003335565b6200336b565b15620008da5760405162461bcd60e51b815260206004820152602260248201527f534d4c3a7769746864726177616c436f6e74726163742069732069736f6c6174604482015261195960f21b60648201526084016200073e565b848015801590620008ec575060328111155b620009325760405162461bcd60e51b8152602060048201526015602482015274534d4c3a31202d2035302076616c696461746f727360581b60448201526064016200073e565b80841480156200094157508082145b6200098f5760405162461bcd60e51b815260206004820152601860248201527f534d4c3a696e76616c696420696e707574206c656e677468000000000000000060448201526064016200073e565b806200099e8c8c8c8c620028fc565b1015620009ee5760405162461bcd60e51b815260206004820152601a60248201527f534d4c3a696e73756666696369656e7420616c6c6f77616e636500000000000060448201526064016200073e565b62000a03816801bc16d674ec800000620055b0565b62000a1a8b8b66737572706c757360c81b62003214565b101562000a635760405162461bcd60e51b8152602060048201526016602482015275534d4c3a4e4f5420656e6f75676820737572706c757360501b60448201526064016200073e565b62000a838a8962000a7d670de0b6b3a764000085620055b0565b620033e2565b60005b8181101562000c0c57603088888381811062000aa65762000aa6620057b3565b905060200281019062000aba9190620054d4565b90501462000b0b5760405162461bcd60e51b815260206004820152601760248201527f534d4c3a5055424b45595f4c454e475448204552524f5200000000000000000060448201526064016200073e565b606086868381811062000b225762000b22620057b3565b905060200281019062000b369190620054d4565b90501462000b875760405162461bcd60e51b815260206004820152601a60248201527f534d4c3a5349474e41545552455f4c454e475448204552524f5200000000000060448201526064016200073e565b606084848381811062000b9e5762000b9e620057b3565b905060200281019062000bb29190620054d4565b90501462000c035760405162461bcd60e51b815260206004820152601a60248201527f534d4c3a5349474e41545552455f4c454e475448204552524f5200000000000060448201526064016200073e565b60010162000a86565b5060006040518060c001604052808d60020154600162000c2d919062005550565b6001600160401b0316815260200162000c478d8c620024a5565b6001600160401b0316815260200162000c618d8d6200288c565b815260200162000c728d8c6200288c565b815260088e0154602082015260400162000ca58d8d731dda5d1a191c985dd85b10dc9959195b9d1a585b60621b62003460565b9052905060005b8281101562001001576000600b8e018a8a8481811062000cd05762000cd0620057b3565b905060200281019062000ce49190620054d4565b60405162000cf4929190620052d9565b908152604051908190036020019020546001600160401b03161462000d5c5760405162461bcd60e51b815260206004820152601960248201527f534d4c3a2075736564206f7220616c69656e6174656420706b0000000000000060448201526064016200073e565b604080516101408101909152600181528251602082019062000d809084906200556b565b6001600160401b03168152602001426001600160401b0316815260200183602001516001600160401b031681526020018c81526020018b815260200183604001518152602001836060015181526020018360800151815260200186868481811062000def5762000def620057b3565b905060200281019062000e039190620054d4565b8080601f0160208091040260200160405190810160405280939291908181526020018383808284376000920191909152505050915250600b8e018a8a8481811062000e525762000e52620057b3565b905060200281019062000e669190620054d4565b60405162000e76929190620052d9565b9081526040805191829003602090810190922083518154858501519386015160608701516001600160401b03908116600160c01b026001600160c01b03928216600160801b02929092166fffffffffffffffffffffffffffffffff968216600160401b026fffffffffffffffffffffffffffffffff1990941691909416179190911793909316179190911781556080830151600182015560a0830151600282015560c0830151600382015560e0830151600482015561010083015160058201556101208301518051919262000f549260068501929091019062004ba3565b5090505062000ff889898381811062000f715762000f71620057b3565b905060200281019062000f859190620054d4565b8460a001518a8a8681811062000f9f5762000f9f620057b3565b905060200281019062000fb39190620054d4565b8080601f016020809104026020016040519081016040528093929190818152602001838380828437600092019190915250670de0b6b3a764000092506200351c915050565b60010162000cac565b50620010318a66737572706c757360c81b620010276801bc16d674ec80000086620055b0565b8e929190620035e7565b620010608a661cd958dd5c995960ca1b620010566801bc16d674ec80000086620055b0565b8e92919062003624565b620010908a620010868b7170726f706f73656456616c696461746f727360701b62003656565b8d91908562003624565b620010b98a6976616c696461746f727360b01b620010af8a8c620055ec565b8e92919062003682565b620010d8896976616c696461746f727360b01b620010af8a8c620055ec565b818c6002016000828254620010ee919062005550565b90915550506040517f4fa0073e48dccfe9a97fe60b530f2f680ffb8b7621e547381f187e12306fb2b7906200112b908c908c908c908c90620054a8565b60405180910390a1505050505050505050505050565b60006801bc16d674ec8000003414620011a95760405162461bcd60e51b815260206004820152602360248201527f534d4c3a6e65656420312076616c696461746f7220776f727468206f662066756044820152626e647360e81b60648201526084016200073e565b620011ed86868080601f0160208091040260200160405190810160405280939291908181526020018383808284376000920191909152506005925062003734915050565b9050620012088a82681a5b9a5d1a585d195960ba1b62003214565b156200124f5760405162461bcd60e51b815260206004820152601560248201527414d3530e985b1c9958591e481a5b9a5d1a585d1959605a1b60448201526064016200073e565b633b9aca0081116200129b5760405162461bcd60e51b815260206004820152601460248201527314d3530e95dbddc848131bddc81c1bdbdb081a5960621b60448201526064016200073e565b620012b58a82681a5b9a5d1a585d195960ba1b4262003240565b620012cb8a82635459504560e01b600562003240565b620012e68a826921a7a72a2927a62622a960b11b336200376a565b6200134a81634e414d4560e01b88888080601f016020809104026020016040519081016040528093929190818152602001838380828437600081840152601f19601f820116905080830192505050505050508d620037b5909392919063ffffffff16565b6005600090815260208b8152604082208054600181018255908352912001819055620013788a8289620037eb565b620013858a828b6200389a565b620013928b8b836200391f565b620013a1602083018362004d01565b15620013b557620013b58a82600162002190565b620013c7604083016020840162004d01565b156200141257620014128b8b838b88888080601f01602080910402602001604051908101604052809392919081815260200183838082843760009201919091525062003a3692505050565b62001424606083016040840162004d01565b156200143757620014378b8b8362002618565b8a546040516322af599760e01b8152670de0b6b3a76400006004820152602481018390526001600160a01b03909116906322af599790604401600060405180830381600087803b1580156200148b57600080fd5b505af1158015620014a0573d6000803e3d6000fd5b505050506000620014b48c8c843462003bf4565b8c54604051637921219560e11b81529192506001600160a01b03169063f242432a90620014ec9030903390879087906004016200532b565b600060405180830381600087803b1580156200150757600080fd5b505af11580156200151c573d6000803e3d6000fd5b5050505060057f7b7905d4bbb05d33c55d852740a9c6ad7023620601ab2abb79f1839fc8e0a5fb836040516200155491815260200190565b60405180910390a2509a9950505050505050505050565b604080518082019091526000808252600160208301529081906200159790889088908490819062002fa1565b428411620015df5760405162461bcd60e51b815260206004820152601460248201527314d3530e991958591b1a5b99481b9bdd081b595d60621b60448201526064016200073e565b6001600160a01b038316620016375760405162461bcd60e51b815260206004820152601c60248201527f534d4c3a7265636569766572206973207a65726f20616464726573730000000060448201526064016200073e565b620016438787620025f1565b15620016a457620016568787336200204d565b620016a45760405162461bcd60e51b815260206004820152601a60248201527f534d4c3a73656e646572204e4f542077686974656c697374656400000000000060448201526064016200073e565b34620016b38888838862003e50565b935090508015620016cf57620016cc8989898462003bf4565b91505b85620016dc838562005550565b1015620017245760405162461bcd60e51b8152602060048201526015602482015274534d4c3a6c657373207468616e206d696e696d756d60581b60448201526064016200073e565b88546001600160a01b031663f242432a30868a62001743878962005550565b6040518563ffffffff1660e01b81526004016200176494939291906200532b565b600060405180830381600087803b1580156200177f57600080fd5b505af115801562001794573d6000803e3d6000fd5b505060408051868152602081018690528a93507f33da4f9b82b3e18a281ca2cabbe2f076925692abb593b7ea3f850009e8ec977092500160405180910390a250965096945050505050565b620017f88585681a5b9a5d1a585d195960ba1b62003214565b156200183f5760405162461bcd60e51b815260206004820152601560248201527414d3530e985b1c9958591e481a5b9a5d1a585d1959605a1b60448201526064016200073e565b6004620018558686635459504560e01b62003214565b14620018755760405162461bcd60e51b81526004016200073e90620053cc565b6200188f85856921a7a72a2927a62622a960b11b62003335565b6001600160a01b0316336001600160a01b031614620018c25760405162461bcd60e51b81526004016200073e90620053fa565b620018dc8585681a5b9a5d1a585d195960ba1b4262003240565b620018e98585856200389a565b620018f68585846200326a565b62001903858583620037eb565b6200191085853462003fda565b60047f7b7905d4bbb05d33c55d852740a9c6ad7023620601ab2abb79f1839fc8e0a5fb856040516200194491815260200190565b60405180910390a25050505050565b604080518082019091526001808252602082018190526200197b918591859160009062002fa1565b620019948383680cccacaa6eed2e8c6d60bb1b62003214565b4211620019de5760405162461bcd60e51b8152602060048201526017602482015276534d4c3a63757272656e746c7920737769746368696e6760481b60448201526064016200073e565b62001a0282677072696f7246656560c01b6200077a86836266656560e81b62003214565b62001a2382680cccacaa6eed2e8c6d60bb1b6200077a6203f4804262005550565b62001a308383836200389a565b817f331610f5071297e919aff9d24ba73d5c09c631f7c63a47096d051b7ab429c8bf82620007e76203f4804262005550565b60408051808201909152600180825260006020830181905262001a8a92879287929162002fa1565b801580159062001a9b575060328111155b62001ae15760405162461bcd60e51b8152602060048201526015602482015274534d4c3a31202d2035302076616c696461746f727360581b60448201526064016200073e565b600385015460005b8281101562001c365762001b278785858481811062001b0c5762001b0c620057b3565b905060200281019062001b209190620054d4565b8562003ff1565b62001b7f5760405162461bcd60e51b815260206004820152602160248201527f534d4c3a4e4f5420616c6c207075626b65797320617265207374616b6561626c6044820152606560f81b60648201526084016200073e565b8487600b0185858481811062001b995762001b99620057b3565b905060200281019062001bad9190620054d4565b60405162001bbd929190620052d9565b9081526020016040518091039020600201541462001c2d5760405162461bcd60e51b815260206004820152602660248201527f534d4c3a4e4f5420616c6c207075626b6579732062656c6f6e6720746f206f7060448201526532b930ba37b960d11b60648201526084016200073e565b60010162001ae9565b5050600062001c59846f61637469766556616c696461746f727360801b62003656565b9050600062001c7e857170726f706f73656456616c696461746f727360701b62003656565b9050600087600b018585600081811062001c9c5762001c9c620057b3565b905060200281019062001cb09190620054d4565b60405162001cc0929190620052d9565b908152604051908190036020019020600101549050600062001cfb8883731dda5d1a191c985dd85b10dc9959195b9d1a585b60621b62003460565b90506000805b8681101562001f965760008b600b0189898481811062001d255762001d25620057b3565b905060200281019062001d399190620054d4565b60405162001d49929190620052d9565b908152602001604051809103902060010154905080851462001deb5782820362001d9786661cd958dd5c995960ca1b62001d8d846801bc16d674ec800000620055b0565b8f929190620035e7565b62001da58c878984620035e7565b62001db38c878a8462003624565b82935081955062001de786731dda5d1a191c985dd85b10dc9959195b9d1a585b60621b8e620034609092919063ffffffff16565b9450505b62001f1d89898481811062001e045762001e04620057b3565b905060200281019062001e189190620054d4565b868f600b018d8d8881811062001e325762001e32620057b3565b905060200281019062001e469190620054d4565b60405162001e56929190620052d9565b9081526020016040518091039020600601805462001e749062005705565b80601f016020809104026020016040519081016040528092919081815260200182805462001ea29062005705565b801562001ef35780601f1062001ec75761010080835404028352916020019162001ef3565b820191906000526020600020905b81548152906001019060200180831162001ed557829003601f168201915b5050505050670de0b6b3a76400006801bc16d674ec80000062001f179190620055d2565b6200351c565b6002600b8d018a8a8581811062001f385762001f38620057b3565b905060200281019062001f4c9190620054d4565b60405162001f5c929190620052d9565b90815260405190819003602001902080546001600160401b039290921667ffffffffffffffff199092169190911790555060010162001d01565b5080860362001fc984661cd958dd5c995960ca1b62001fbf846801bc16d674ec800000620055b0565b8d929190620035e7565b62001fd78a858784620035e7565b62001fe58a85888462003624565b506200200689896200200089670de0b6b3a7640000620055b0565b62003fda565b7ff3bc9a49558b2409ef29bf09ea870b1478948cf4a349dfaa48d23cd15fb200a187876040516200203992919062005363565b60405180910390a150505050505050505050565b60006001600160a01b0382166200207385856921a7a72a2927a62622a960b11b62003335565b6001600160a01b031614156200208c5750600162002175565b6000620020a78585681dda1a5d195b1a5cdd60ba1b62003335565b90506001600160a01b038116620020f45760405162461bcd60e51b815260206004820152601060248201526f14d3530e9b9bc81dda1a5d195b1a5cdd60821b60448201526064016200073e565b60405163babcc53960e01b81526001600160a01b03848116600483015282169063babcc5399060240160206040518083038186803b1580156200213657600080fd5b505afa1580156200214b573d6000803e3d6000fd5b505050506040513d601f19601f8201168201806040525081019062002171919062004d21565b9150505b9392505050565b600062000689848484876003015462003ff1565b604080518082019091526000808252600160208301819052620021b892869286929162002fa1565b620021c48383620025f1565b151581151514156200220b5760405162461bcd60e51b815260206004820152600f60248201526e14d3530e985b1c9958591e481cd95d608a1b60448201526064016200073e565b6200223d826a1c1c9a5d985d19541bdbdb60aa1b836200222d57600062002230565b60015b8692919060ff1662003240565b806200225e576200225e8383681dda1a5d195b1a5cdd60ba1b60006200376a565b6040805183815282151560208201527f86ba6fb9ba1b2952b69896940c9d8a35e8daefe421f499e41e43ee0e72330e1a910160405180910390a1505050565b604080518082019091526000808252600160208301819052620022c69287928792909162002fa1565b816200235357620022ee84846f3330b6363130b1b5a7b832b930ba37b960811b600062003240565b6200231184847019985b1b189858dad51a1c995cda1bdb19607a1b600062003240565b60408051848152600060208201819052917fb8af85d3393121aa960f603d794bbf10ccaf134c03d68587b9953b58001bf523910160405180910390a26200249f565b6004620023698584635459504560e01b62003214565b14620023b85760405162461bcd60e51b815260206004820152601960248201527f534d4c3a66616c6c6261636b206e6f74206f70657261746f720000000000000060448201526064016200073e565b6402540be400811115620024205760405162461bcd60e51b815260206004820152602860248201527f534d4c3a7468726573686f6c642063616e6e6f7420626520677265617465722060448201526707468616e203130360c41b60648201526084016200073e565b6200244284847019985b1b189858dad51a1c995cda1bdb19607a1b8462003240565b6200246384846f3330b6363130b1b5a7b832b930ba37b960811b8562003240565b604080518481526020810183905283917fb8af85d3393121aa960f603d794bbf10ccaf134c03d68587b9953b58001bf523910160405180910390a25b50505050565b600042620024c484846b0e0cae4d2dec8a6eed2e8c6d60a31b62003214565b1115620024ee57620024e683836a1c1c9a5bdc94195c9a5bd960aa1b62003214565b905062002510565b6200250d83836e1d985b1a59185d1bdc94195c9a5bd9608a1b62003214565b90505b92915050565b6040805180820190915260008082526001602083018190526200253e92869286929162002fa1565b6200255c83836c3cb4b2b6322932b1b2b4bb32b960991b846200376a565b6040516001600160a01b038216815282907fdca3f474e58df6ac9314862568e9a4c4c1346f518bcb42b631962960a384ca6490602001620007f8565b6000620025a68483620005ea565b8015620006895750620025d46200087a8484711dda5d1a191c985dd85b10dbdb9d1c9858dd60721b62003335565b15949350505050565b6064620006a56402540be4006005620055b0565b60006200260e83836a1c1c9a5d985d19541bdbdb60aa1b62003214565b6001149392505050565b6040805180820190915260008082526001602083018190526200264092859285929162002fa1565b60006200265f83836c1b1a5c5d5a591a5d1e541bdbdb609a1b62003335565b6001600160a01b031614620026ae5760405162461bcd60e51b815260206004820152601460248201527314d3530e985b1c9958591e4819195c1b1bde595960621b60448201526064016200073e565b6000620026d4848484612725620026ce8383634e414d4560e01b62003460565b62004074565b9050620026f483836c1b1a5c5d5a591a5d1e541bdbdb609a1b846200376a565b835460405163a22cb46560e01b81526001600160a01b038381166004830152600160248301529091169063a22cb465906044015b600060405180830381600087803b1580156200274357600080fd5b505af115801562002758573d6000803e3d6000fd5b5050505050505050565b6200277b8383681a5b9a5d1a585d195960ba1b62003214565b620027c95760405162461bcd60e51b815260206004820152601760248201527f534d4c3a4944206973206e6f7420696e6974696174656400000000000000000060448201526064016200073e565b620027e383836921a7a72a2927a62622a960b11b62003335565b6001600160a01b0316336001600160a01b031614620028165760405162461bcd60e51b81526004016200073e90620053fa565b60006200282c8484635459504560e01b62003214565b905060048114806200283e5750600581145b6200287f5760405162461bcd60e51b815260206004820152601060248201526f534d4c3a696e76616c6964205459504560801b60448201526064016200073e565b6200249f848484620037eb565b600042620028a88484680cccacaa6eed2e8c6d60bb1b62003214565b1115620028c757620024e68383677072696f7246656560c01b62003214565b6200250d83836266656560e81b62003214565b6000620028f383836672656c6561736560c81b62003214565b42109392505050565b6000806200291985846976616c696461746f727360b01b62003214565b6004870154909150808210620029355760009250505062000689565b620029418282620055d2565b92505062002966905084846f3330b6363130b1b5a7b832b930ba37b960811b62003214565b82141562002a0a5760006200298a85856976616c696461746f727360b01b62003214565b90506000620029ac86866d746f74616c416c6c6f77616e636560901b62003214565b9050801580620029f95750620029d886867019985b1b189858dad51a1c995cda1bdb19607a1b62003214565b81620029ea6402540be40085620055b0565b620029f6919062005599565b10155b1562002a0757505062000689565b50505b600062002a328462002a298568616c6c6f77616e636560b81b62003656565b87919062003214565b9050600062002a638562002a5a866f61637469766556616c696461746f727360801b62003656565b88919062003214565b62002a928662002a89877170726f706f73656456616c696461746f727360701b62003656565b89919062003214565b62002a9e919062005550565b905081811062002ab45760009250505062000689565b600062002ac28284620055d2565b90508084111562002ad1578093505b505050949350505050565b604080518082019091526001808252602082015260009062002b0690849084908490819062002fa1565b62002b1383833462003fda565b50600192915050565b60408051808201909152600080825260016020830181905262002b459289928992909162002fa1565b82811462002b965760405162461bcd60e51b815260206004820152601b60248201527f534d4c3a616c6c6f77616e6365732073686f756c64206d61746368000000000060448201526064016200073e565b60005b8381101562002c9d57600462002bd686868481811062002bbd5762002bbd620057b3565b8b92602090910201359050635459504560e01b62003214565b1462002c1b5760405162461bcd60e51b815260206004820152601360248201527229a6a61d34b2103737ba1037b832b930ba37b960691b60448201526064016200073e565b620f424183838381811062002c345762002c34620057b3565b905060200201351062002c945760405162461bcd60e51b815260206004820152602160248201527f534d4c3a3e204d41585f414c4c4f57414e43452c207365742066616c6c6261636044820152606b60f81b60648201526084016200073e565b60010162002b99565b5060008060005b8581101562002d335784848281811062002cc25762002cc2620057b3565b905060200201358362002cd6919062005550565b925062002d1c898989898581811062002cf35762002cf3620057b3565b9050602002013588888681811062002d0f5762002d0f620057b3565b90506020020135620041de565b62002d28908362005550565b915060010162002ca4565b508082111562002d705762002d6a876d746f74616c416c6c6f77616e636560901b62002d608486620055d2565b8b92919062003624565b62002758565b80821015620027585762002758876d746f74616c416c6c6f77616e636560901b62002d9c8585620055d2565b8b929190620035e7565b6040805180820190915260018082526020820181905260009162002dd1918691869190859062002fa1565b8147101562002e2d5760405162461bcd60e51b815260206004820152602160248201527f534d4c3a696e73756666696369656e7420636f6e74726163742062616c616e636044820152606560f81b60648201526084016200073e565b62002e3a848484620033e2565b600062002e5685856921a7a72a2927a62622a960b11b62003335565b9050806001600160a01b03168360405160006040518083038185875af1925050503d806000811462002ea5576040519150601f19603f3d011682016040523d82523d6000602084013e62002eaa565b606091505b5050809250508162002ef85760405162461bcd60e51b81526020600482015260166024820152750a69a98748cc2d2d8cac840e8de40e6cadcc8408aa8960531b60448201526064016200073e565b509392505050565b60408051808201909152600080825260016020830181905262002f2892869286929162002fa1565b62002f348383620025f1565b62002f825760405162461bcd60e51b815260206004820152601860248201527f534d4c3a6d757374206265207072697661746520706f6f6c000000000000000060448201526064016200073e565b62002f9c8383681dda1a5d195b1a5cdd60ba1b846200376a565b505050565b62002fba8585681a5b9a5d1a585d195960ba1b62003214565b62002ffc5760405162461bcd60e51b815260206004820152601160248201527014d3530e9b9bdd081a5b9a5d1a585d1959607a1b60448201526064016200073e565b6000620030128686635459504560e01b62003214565b90506004811415620030c35781516200303f5760405162461bcd60e51b81526004016200073e90620053cc565b8380620030495750825b15620030bd576200305b8686620028da565b15620030bd5760405162461bcd60e51b815260206004820152602a60248201527f534d4c3a707269736f6e65642c2067657420696e20746f756368207769746820604482015269676f7665726e616e636560b01b60648201526084016200073e565b6200312d565b6005811415620030f1576020820151620030bd5760405162461bcd60e51b81526004016200073e90620053cc565b60405162461bcd60e51b815260206004820152601060248201526f534d4c3a696e76616c6964205459504560801b60448201526064016200073e565b8215620031b7576200314e86866936b0b4b73a30b4b732b960b11b62003335565b6001600160a01b0316336001600160a01b031614620031b05760405162461bcd60e51b815260206004820152601960248201527f534d4c3a73656e646572204e4f54206d61696e7461696e65720000000000000060448201526064016200073e565b506200320d565b83156200320b57620031d886866921a7a72a2927a62622a960b11b62003335565b6001600160a01b0316336001600160a01b031614620031b05760405162461bcd60e51b81526004016200073e90620053fa565b505b5050505050565b600083600101600062003228858562003656565b81526020019081526020016000205490509392505050565b8084600101600062003253868662003656565b815260208101919091526040016000205550505050565b6276a700811015620032bf5760405162461bcd60e51b815260206004820152601a60248201527f534d4c3a3c204d494e5f56414c494441544f525f504552494f4400000000000060448201526064016200073e565b6303c26700811115620033155760405162461bcd60e51b815260206004820152601a60248201527f534d4c3a3e204d41585f56414c494441544f525f504552494f4400000000000060448201526064016200073e565b62002f9c83836e1d985b1a59185d1bdc94195c9a5bd9608a1b8462003240565b600083600301600062003349858562003656565b81526020810191909152604001600020546001600160a01b0316949350505050565b6000816001600160a01b0316638650c0726040518163ffffffff1660e01b815260040160206040518083038186803b158015620033a757600080fd5b505afa158015620033bc573d6000803e3d6000fd5b505050506040513d601f19601f8201168201806040525081019062002510919062004d21565b80620033f98484651dd85b1b195d60d21b62003214565b1015620034495760405162461bcd60e51b815260206004820152601f60248201527f534d4c3a696e73756666696369656e742077616c6c65742062616c616e63650060448201526064016200073e565b62002f9c8383651dd85b1b195d60d21b84620035e7565b606083600201600062003474858562003656565b815260200190815260200160002080546200348f9062005705565b80601f0160208091040260200160405190810160405280929190818152602001828054620034bd9062005705565b80156200350e5780601f10620034e2576101008083540402835291602001916200350e565b820191906000526020600020905b815481529060010190602001808311620034f057829003601f168201915b505050505090509392505050565b73ff50ed3d0ec03ac01d4c79aad74928bff48a7b2b6001600160a01b0316632289511882878787876200358a8c8c8080601f0160208091040260200160405190810160405280939291908181526020018383808284376000920191909152508e92508d91508c90506200425c565b6040518763ffffffff1660e01b8152600401620035ac95949392919062005379565b6000604051808303818588803b158015620035c657600080fd5b505af1158015620035db573d6000803e3d6000fd5b50505050505050505050565b80846001016000620035fa868662003656565b81526020019081526020016000206000828254620036199190620055d2565b909155505050505050565b8084600101600062003637868662003656565b8152602001908152602001600020600082825462003619919062005550565b604080516020808201949094528082019290925280518083038201815260609092019052805191012090565b600062003690848462003656565b60008181526001870160205260408120549192505b83518110156200371957838181518110620036c457620036c4620057b3565b6020026020010151876002016000620036ec8580620036e3906200573c565b96508762003656565b815260200190815260200160002090805190602001906200370f92919062004ba3565b50600101620036a5565b50600091825260019095016020526040902093909355505050565b600082826040516020016200374b92919062005307565b60408051601f1981840301815291905280516020909101209392505050565b808460030160006200377d868662003656565b815260200190815260200160002060006101000a8154816001600160a01b0302191690836001600160a01b0316021790555050505050565b80846002016000620037c8868662003656565b815260200190815260200160002090805190602001906200320d92919062004ba3565b6001600160a01b038116620038435760405162461bcd60e51b815260206004820152601e60248201527f534d4c3a6d61696e7461696e65722063616e204e4f54206265207a65726f000060448201526064016200073e565b6200385e83836936b0b4b73a30b4b732b960b11b846200376a565b6040516001600160a01b038216815282907f72774bc96991002276ea2f17557bc24e67733a3dcf2e8b390d38921daab1ab3190602001620007f8565b6064620038ae6402540be400600a620055b0565b620038ba919062005599565b8111156200390b5760405162461bcd60e51b815260206004820152601a60248201527f534d4c3a3e204d41585f4d41494e54454e414e43455f4645452000000000000060448201526064016200073e565b62002f9c83836266656560e81b8462003240565b6000620039438383711dda5d1a191c985dd85b10dbdb9d1c9858dd60721b62003335565b6001600160a01b031614620039925760405162461bcd60e51b815260206004820152601460248201527314d3530e985b1c9958591e4819195c1b1bde595960621b60448201526064016200073e565b6000620039b484848461271b6040518060200160405280600081525062004074565b9050620039d98383711dda5d1a191c985dd85b10dbdb9d1c9858dd60721b846200376a565b6200249f82731dda5d1a191c985dd85b10dc9959195b9d1a585b60621b62003a2c84604080516001600160a01b0392909216600160f81b1760208084019190915281518084039091018152918101905290565b86929190620037b5565b6000821162003a4457600080fd5b614e2b6000908152600d86016020908152604080832085845290915290205460ff1662003aab5760405162461bcd60e51b8152602060048201526014602482015273534d4c3a6e6f742061206d6964646c657761726560601b60448201526064016200073e565b600062003ad162003acb86856921a7a72a2927a62622a960b11b62003335565b62004681565b8654604051637104db2360e11b81529192506001600160a01b038084169263e209b6469262003b0a928992911690879060040162005431565b600060405180830381600087803b15801562003b2557600080fd5b505af115801562003b3a573d6000803e3d6000fd5b5050505062003b4c868686846200471d565b8554604051630492f6e160e01b815260048101869052600160248201526001600160a01b0390911690630492f6e190604401600060405180830381600087803b15801562003b9957600080fd5b505af115801562003bae573d6000803e3d6000fd5b505060408051878152602081018790527f49e0747139b3dca64314df382ec23da37e088325f877ecf4539d72357349e5a6935001905060405180910390a1505050505050565b600062003c0385858562002598565b62003c515760405162461bcd60e51b815260206004820152601a60248201527f534d4c3a6d696e74696e67206973206e6f7420616c6c6f77656400000000000060448201526064016200073e565b845460405163f759cc3b60e01b8152600481018590526000916001600160a01b03169063f759cc3b9060240160206040518083038186803b15801562003c9657600080fd5b505afa15801562003cab573d6000803e3d6000fd5b505050506040513d601f19601f8201168201806040525081019062003cd1919062004d41565b90506000811162003d1a5760405162461bcd60e51b8152602060048201526012602482015271534d4c3a7072696365206973207a65726f3f60701b60448201526064016200073e565b8554604080516396ce079560e01b8152905183926001600160a01b0316916396ce0795916004808301926020929190829003018186803b15801562003d5e57600080fd5b505afa15801562003d73573d6000803e3d6000fd5b505050506040513d601f19601f8201168201806040525081019062003d99919062004d41565b62003da59085620055b0565b62003db1919062005599565b865460405163731133e960e01b8152306004820152602481018790526044810183905260806064820152600060848201529193506001600160a01b03169063731133e99060a401600060405180830381600087803b15801562003e1357600080fd5b505af115801562003e28573d6000803e3d6000fd5b5062003e47925087915086905066737572706c757360c81b8662003624565b50949350505050565b600080600062003e61878762004848565b90506001600160a01b0381161562003fcc576000816001600160a01b03166314a6bf0f6040518163ffffffff1660e01b815260040160206040518083038186803b15801562003eaf57600080fd5b505afa15801562003ec4573d6000803e3d6000fd5b505050506040513d601f19601f8201168201806040525081019062003eea919062004d41565b9050670de0b6b3a764000081111562003fc1578086111562003f1a5762003f128187620055d2565b935062003f1d565b50845b6040516348b4aac360e11b815260006004820181905260016024830152604482018390526064820152608481018690526001600160a01b03831690639169558690839060a4016020604051808303818588803b15801562003f7d57600080fd5b505af115801562003f92573d6000803e3d6000fd5b50505050506040513d601f19601f8201168201806040525081019062003fb9919062004d41565b925062003fc5565b8593505b5062003fd0565b8492505b5094509492505050565b62002f9c8383651dd85b1b195d60d21b8462003624565b6000600160ff1685600b0185856040516200400e929190620052d9565b908152604051908190036020019020546001600160401b03161480156200406b57508185600b01858560405162004047929190620052d9565b908152604051908190036020019020546001600160401b03600160401b9091041611155b95945050505050565b6000828152600c86016020526040812054806200409057600080fd5b620040aa86826921a7a72a2927a62622a960b11b62003335565b604051620040b89062004c32565b6001600160a01b039091168152604060208201819052600090820152606001604051809103906000f080158015620040f4573d6000803e3d6000fd5b5091506001600160a01b038216639934b281866200412189826921a7a72a2927a62622a960b11b62003335565b620041358a86634e414d4560e01b62003460565b876040518563ffffffff1660e01b81526004016200415794939291906200545d565b600060405180830381600087803b1580156200417257600080fd5b505af115801562004187573d6000803e3d6000fd5b505060408051888152602081018890526001600160a01b0386168183015290517f89288ba00d4e2e012af872098d4fee07191e810d8c739b7cf1e842e0370888729350908190036060019150a15095945050505050565b600080620041f98468616c6c6f77616e636560b81b62003656565b90506200420886868362003214565b9150620042188686838662003240565b604080518681526020810185905285917f22d413fb5bc865837d8577bccf9aa8b2de36e0481c69792daac701c2edadebe3910160405180910390a250949350505050565b6000670de0b6b3a7640000821015620042c75760405162461bcd60e51b815260206004820152602660248201527f4465706f736974436f6e74726163743a206465706f7369742076616c756520746044820152656f6f206c6f7760d01b60648201526084016200073e565b620042d7633b9aca00836200575a565b15620043425760405162461bcd60e51b815260206004820152603360248201527f4465706f736974436f6e74726163743a206465706f7369742076616c7565206e6044820152726f74206d756c7469706c65206f66206777656960681b60648201526084016200073e565b600062004354633b9aca008462005599565b9050600060026200436588620048a0565b604051620043749190620052e9565b602060405180830381855afa15801562004392573d6000803e3d6000fd5b5050506040513d601f19601f82011682018060405250810190620043b7919062004d41565b90506000600280620043cd88600060406200493c565b604051620043dc9190620052e9565b602060405180830381855afa158015620043fa573d6000803e3d6000fd5b5050506040513d601f19601f820116820180604052508101906200441f919062004d41565b6002620044456200443f8a604062004439816060620055d2565b6200493c565b620048a0565b604051620044549190620052e9565b602060405180830381855afa15801562004472573d6000803e3d6000fd5b5050506040513d601f19601f8201168201806040525081019062004497919062004d41565b60408051602081019390935282015260600160408051601f1981840301815290829052620044c591620052e9565b602060405180830381855afa158015620044e3573d6000803e3d6000fd5b5050506040513d601f19601f8201168201806040525081019062004508919062004d41565b90506000600280848a60405160200162004524929190620052b1565b60408051601f19818403018152908290526200454091620052e9565b602060405180830381855afa1580156200455e573d6000803e3d6000fd5b5050506040513d601f19601f8201168201806040525081019062004583919062004d41565b6002620045908762004a54565b604080516020810192909252810186905260600160408051601f1981840301815290829052620045c091620052e9565b602060405180830381855afa158015620045de573d6000803e3d6000fd5b5050506040513d601f19601f8201168201806040525081019062004603919062004d41565b60408051602081019390935282015260600160408051601f19818403018152908290526200463191620052e9565b602060405180830381855afa1580156200464f573d6000803e3d6000fd5b5050506040513d601f19601f8201168201806040525081019062004674919062004d41565b9998505050505050505050565b6000763d602d80600a3d3981f3363d3d373d3d3d363d730000008260601b60e81c176000526e5af43d82803e903d91602b57fd5bf38260781b17602052603760096000f090506001600160a01b038116620047185760405162461bcd60e51b8152602060048201526016602482015275115490cc4c4d8dce8818dc99585d194819985a5b195960521b60448201526064016200073e565b919050565b8354604051634d280a5560e01b81526001600160a01b0383811660048301526024820185905290911690634d280a559060440160206040518083038186803b1580156200476957600080fd5b505afa1580156200477e573d6000803e3d6000fd5b505050506040513d601f19601f82011682018060405250810190620047a4919062004d21565b15620047ec5760405162461bcd60e51b8152602060048201526016602482015275534d4c3a616c7265616479206d6964646c657761726560501b60448201526064016200073e565b6200480883836a6d6964646c65776172657360a81b8462004aa1565b8354604051632895f3cb60e11b81526001600160a01b03838116600483015260248201859052600160448301529091169063512be7969060640162002728565b6000806200486884846c1b1a5c5d5a591a5d1e541bdbdb609a1b62003335565b90506001600160a01b0381166200488457600091505062002510565b6200488f816200336b565b15620024e657600091505062002510565b60606020825110158015620048b757506040825111155b620048c657620048c662005771565b815160401415620048d5575090565b60408051602080825281830190925260009160208201818036833701905050905060006020820152825160201415620049145762002175838262004b22565b62002175836200493083600087516040620044399190620055d2565b62004b22565b50919050565b6060816200494c81601f62005550565b10156200498d5760405162461bcd60e51b815260206004820152600e60248201526d736c6963655f6f766572666c6f7760901b60448201526064016200073e565b62004999828462005550565b84511015620049df5760405162461bcd60e51b8152602060048201526011602482015270736c6963655f6f75744f66426f756e647360781b60448201526064016200073e565b60608215801562004a00576040519150600082526020820160405262003e47565b6040519150601f8416801560200281840101858101878315602002848b0101015b8183101562004a3b57805183526020928301920162004a21565b5050858452601f01601f19166040525050949350505050565b600081815b600881101562004a8657600892831b60ff831617929190911c9062004a7e816200573c565b905062004a59565b50801562004a985762004a9862005771565b5060c01b919050565b600062004aaf848462003656565b600081815260018701602052604081208054929350849260038901929162004ae991908362004ade836200573c565b919050558562003656565b815260200190815260200160002060006101000a8154816001600160a01b0302191690836001600160a01b031602179055505050505050565b6060806040519050835180825260208201818101602087015b8183101562004b5557805183526020928301920162004b3b565b50855184518101855292509050808201602086015b8183101562004b8457805183526020928301920162004b6a565b508651929092011591909101601f01601f191660405250905092915050565b82805462004bb19062005705565b90600052602060002090601f01602090048101928262004bd5576000855562004c20565b82601f1062004bf057805160ff191683800117855562004c20565b8280016001018555821562004c20579182015b8281111562004c2057825182559160200191906001019062004c03565b5062004c2e92915062004c40565b5090565b61073580620057f283390190565b5b8082111562004c2e576000815560010162004c41565b80356001600160a01b03811681146200471857600080fd5b60008083601f84011262004c8257600080fd5b5081356001600160401b0381111562004c9a57600080fd5b6020830191508360208260051b850101111562004cb657600080fd5b9250929050565b60008083601f84011262004cd057600080fd5b5081356001600160401b0381111562004ce857600080fd5b60208301915083602082850101111562004cb657600080fd5b60006020828403121562004d1457600080fd5b81356200217581620057df565b60006020828403121562004d3457600080fd5b81516200217581620057df565b60006020828403121562004d5457600080fd5b5051919050565b6000806040838503121562004d6f57600080fd5b50508035926020909101359150565b60008060006060848603121562004d9457600080fd5b833592506020840135915062004dad6040850162004c57565b90509250925092565b6000806000806000806080878903121562004dd057600080fd5b863595506020870135945060408701356001600160401b038082111562004df657600080fd5b62004e048a838b0162004c6f565b9096509450606089013591508082111562004e1e57600080fd5b5062004e2d89828a0162004c6f565b979a9699509497509295939492505050565b60008060006060848603121562004e5557600080fd5b8335925060208401359150604084013562004e7081620057df565b809150509250925092565b60008060006060848603121562004e9157600080fd5b505081359360208301359350604090920135919050565b6000806000806080858703121562004ebf57600080fd5b5050823594602084013594506040840135936060013592509050565b600080600080600060a0868803121562004ef457600080fd5b8535945060208601359350604086013592506060860135915062004f1b6080870162004c57565b90509295509295909350565b60008060006040848603121562004f3d57600080fd5b8335925060208401356001600160401b0381111562004f5b57600080fd5b62004f698682870162004cbd565b9497909650939450505050565b60008060008060006080868803121562004f8f57600080fd5b85359450602086013593506040860135925060608601356001600160401b0381111562004fbb57600080fd5b62004fc98882890162004c6f565b969995985093965092949392505050565b6000806000806000806000806000806101408b8d03121562004ffb57600080fd5b8a35995060208b0135985060408b0135975060608b013596506200502260808c0162004c57565b955060a08b01356001600160401b03808211156200503f57600080fd5b6200504d8e838f0162004cbd565b909750955060c08d01359150808211156200506757600080fd5b50620050768d828e0162004cbd565b9094509250506101408b018c10156200508e57600080fd5b60e08b0190509295989b9194979a5092959850565b60008060008060008060008060008060e08b8d031215620050c357600080fd5b8a35995060208b0135985060408b0135975060608b0135965060808b01356001600160401b0380821115620050f757600080fd5b620051058e838f0162004c6f565b909850965060a08d01359150808211156200511f57600080fd5b6200512d8e838f0162004c6f565b909650945060c08d01359150808211156200514757600080fd5b50620051568d828e0162004c6f565b915080935050809150509295989b9194979a5092959850565b60008060008060008060c087890312156200518957600080fd5b8635955060208701359450604087013593506060870135925060808701359150620051b760a0880162004c57565b90509295509295509295565b81835260006020808501808196508560051b810191508460005b878110156200524d5782840389528135601e198836030181126200520057600080fd5b870180356001600160401b038111156200521957600080fd5b8036038913156200522957600080fd5b6200523886828985016200525a565b9a87019a9550505090840190600101620051dd565b5091979650505050505050565b81835281816020850137506000828201602090810191909152601f909101601f19169091010190565b600081518084526200529d816020860160208601620056d6565b601f01601f19169290920160200192915050565b82815260008251620052cb816020850160208701620056d6565b919091016020019392505050565b8183823760009101908152919050565b60008251620052fd818460208701620056d6565b9190910192915050565b600083516200531b818460208801620056d6565b9190910191825250602001919050565b6001600160a01b0394851681529290931660208301526040820152606081019190915260a06080820181905260009082015260c00190565b60208152600062000689602083018486620051c3565b6080815260006200538f6080830187896200525a565b8281036020840152620053a3818762005283565b90508281036040840152620053b9818662005283565b9150508260608301529695505050505050565b60208082526014908201527314d3530e95165411481393d508185b1b1bddd95960621b604082015260600190565b60208082526019908201527f534d4c3a73656e646572204e4f5420434f4e54524f4c4c455200000000000000604082015260600190565b8381526001600160a01b03831660208201526060604082018190526000906200406b9083018462005283565b8481526001600160a01b0384166020820152608060408201819052600090620054899083018562005283565b82810360608401526200549d818562005283565b979650505050505050565b848152836020820152606060408201526000620054ca606083018486620051c3565b9695505050505050565b6000808335601e19843603018112620054ec57600080fd5b8301803591506001600160401b038211156200550757600080fd5b60200191503681900382131562004cb657600080fd5b604051601f8201601f191681016001600160401b0381118282101715620055485762005548620057c9565b604052919050565b6000821982111562005566576200556662005787565b500190565b60006001600160401b0380831681851680830382111562005590576200559062005787565b01949350505050565b600082620055ab57620055ab6200579d565b500490565b6000816000190483118215151615620055cd57620055cd62005787565b500290565b600082821015620055e757620055e762005787565b500390565b60006001600160401b0380841115620056095762005609620057c9565b8360051b60206200561c8183016200551d565b86815281810190863685820111156200563457600080fd5b600094505b88851015620056ca578035868111156200565257600080fd5b8801601f36818301126200566557600080fd5b8135888111156200567a576200567a620057c9565b6200568d818301601f191688016200551d565b91508082523687828501011115620056a457600080fd5b808784018884013760009082018701528452506001949094019391830191830162005639565b50979650505050505050565b60005b83811015620056f3578181015183820152602001620056d9565b838111156200249f5750506000910152565b600181811c908216806200571a57607f821691505b602082108114156200493657634e487b7160e01b600052602260045260246000fd5b600060001982141562005753576200575362005787565b5060010190565b6000826200576c576200576c6200579d565b500690565b634e487b7160e01b600052600160045260246000fd5b634e487b7160e01b600052601160045260246000fd5b634e487b7160e01b600052601260045260246000fd5b634e487b7160e01b600052603260045260246000fd5b634e487b7160e01b600052604160045260246000fd5b8015158114620057ee57600080fd5b5056fe6080604052604051610735380380610735833981016040819052610022916102dc565b61002e82826000610035565b505061043b565b61003e8361006b565b60008251118061004b5750805b156100665761006483836100ab60201b6100291760201c565b505b505050565b610074816100d7565b6040516001600160a01b038216907fbc7cd75a20ee27fd9adebab32041f755214dbc6bffa90cc0225b39da2e5c2d3b90600090a250565b60606100d0838360405180606001604052806027815260200161070e602791396101a9565b9392505050565b6100ea8161022260201b6100551760201c565b6101515760405162461bcd60e51b815260206004820152602d60248201527f455243313936373a206e657720696d706c656d656e746174696f6e206973206e60448201526c1bdd08184818dbdb9d1c9858dd609a1b60648201526084015b60405180910390fd5b806101887f360894a13ba1a3210667c828492db98dca3e2076cc3735a920a3ca505d382bbc60001b61023160201b6100641760201c565b80546001600160a01b0319166001600160a01b039290921691909117905550565b6060600080856001600160a01b0316856040516101c691906103aa565b600060405180830381855af49150503d8060008114610201576040519150601f19603f3d011682016040523d82523d6000602084013e610206565b606091505b50909250905061021886838387610234565b9695505050505050565b6001600160a01b03163b151590565b90565b606083156102a0578251610299576001600160a01b0385163b6102995760405162461bcd60e51b815260206004820152601d60248201527f416464726573733a2063616c6c20746f206e6f6e2d636f6e74726163740000006044820152606401610148565b50816102aa565b6102aa83836102b2565b949350505050565b8151156102c25781518083602001fd5b8060405162461bcd60e51b815260040161014891906103c6565b600080604083850312156102ef57600080fd5b82516001600160a01b038116811461030657600080fd5b60208401519092506001600160401b038082111561032357600080fd5b818501915085601f83011261033757600080fd5b81518181111561034957610349610425565b604051601f8201601f19908116603f0116810190838211818310171561037157610371610425565b8160405282815288602084870101111561038a57600080fd5b61039b8360208301602088016103f9565b80955050505050509250929050565b600082516103bc8184602087016103f9565b9190910192915050565b60208152600082518060208401526103e58160408501602087016103f9565b601f01601f19169190910160400192915050565b60005b838110156104145781810151838201526020016103fc565b838111156100645750506000910152565b634e487b7160e01b600052604160045260246000fd5b6102c48061044a6000396000f3fe60806040523661001357610011610017565b005b6100115b610027610022610067565b61009f565b565b606061004e8383604051806060016040528060278152602001610268602791396100c3565b9392505050565b6001600160a01b03163b151590565b90565b600061009a7f360894a13ba1a3210667c828492db98dca3e2076cc3735a920a3ca505d382bbc546001600160a01b031690565b905090565b3660008037600080366000845af43d6000803e8080156100be573d6000f35b3d6000fd5b6060600080856001600160a01b0316856040516100e091906101e8565b600060405180830381855af49150503d806000811461011b576040519150601f19603f3d011682016040523d82523d6000602084013e610120565b606091505b50915091506101318683838761013b565b9695505050505050565b606083156101ac5782516101a5576001600160a01b0385163b6101a55760405162461bcd60e51b815260206004820152601d60248201527f416464726573733a2063616c6c20746f206e6f6e2d636f6e747261637400000060448201526064015b60405180910390fd5b50816101b6565b6101b683836101be565b949350505050565b8151156101ce5781518083602001fd5b8060405162461bcd60e51b815260040161019c9190610204565b600082516101fa818460208701610237565b9190910192915050565b6020815260008251806020840152610223816040850160208701610237565b601f01601f19169190910160400192915050565b60005b8381101561025257818101518382015260200161023a565b83811115610261576000848401525b5050505056fe416464726573733a206c6f772d6c6576656c2064656c65676174652063616c6c206661696c6564a264697066735822122051cce14dd9337037379bd43ee81331c1b371dbeb3f61c2ba0ccdb3ad0e551a9664736f6c63430008070033416464726573733a206c6f772d6c6576656c2064656c65676174652063616c6c206661696c6564a2646970667358221220153bea9ef044b95790a71ac66c610e34703a7b4bb345d32633cb83678ef02def64736f6c63430008070033",
  "devdoc": {
    "author": "Ice Bear & Crash Bandicoot",
    "details": "review: DataStoreModule for the IsolatedStorage logic.review: OracleExtensionLib for oracle logic.Every pool is isolated and every validator is unique. Segregate all the risk.CONTROLLER and Maintainer: CONTROLLER is the owner of an ID, it manages the pool/operator. Its security is exteremely important. maintainer is the worker, can be used to automate some daily tasks: * distributing validators for Staking Pools or creating validators for Operators. * not so crucial in terms of security.Users: Type 4 : Permissioned Operators * Needs to be onboarded by the Dual Governance (Senate + Governance). * Maintains Beacon Chain Validators on behalf of the Staking Pools. * Can participate in the Operator Marketplace after initiation. * Can utilize maintainers for staking operations. Type 5 : Permissionless Configurable Staking Pools * Permissionless to create. * Can utilize powers of packages and middlewares such as Bound Liquidity Pools, gETHMiddlewares etc. * Can be public or private, can use a whitelist if private. * Can utilize maintainers for validator distribution on Operator Marketplace. * Uses a Withdrawal Contract to be given as withdrawalCredential on validator creation, * accruing rewards and keeping Staked Ether safe and isolated.Packages: An ID can only point to one version of a Package at a time. Built by utilizing the Modules! Can be upgraded by a dual governance, via pullUpgrade. * A Package's dual governance consists of Portal(governance) and the pool owner(senate). Type 10011 : Withdrawal Contract * Mandatory. * CONTROLLER is the implementation contract position (always) * Version Release Requires the approval of Senate * Upgrading to a new version is optional for pool owners. * * Staking Pools are in \"Isolation Mode\" until their Withdrawal Contract is upgraded. * * Meaning, no more Depositing or Validator Proposal can happen. * Custodian of the validator funds after creation, including any type of rewards and fees. Type 10021 : Liquidity Pool implementation * Optional. * CONTROLLER is the implementation contract position (always) * Version Release Requires the approval of Senate * Upgrading to a new version is optional for pool owners. * * Liquidity Pools are in \"Isolation Mode\" until upgraded.Middlewares: Can support many different versions that can be utilized by the Pool Owners. No particular way to build one. Can not be upgraded. Currently only gETHMiddlewares. Type 20011 : gETHMiddleware * Optional. * CONTROLLER is the implementation contract position (always) * Requires the approval of Senate * Currently should be utilized on initiation.Contracts relying on this library must initialize StakeUtils.PooledStakingFunctions are protected with authentication function",
    "events": {
      "IdInitiated(uint256,uint256)": {
        "custom:section": "** EVENTS **"
      }
    },
    "kind": "dev",
    "methods": {
      "changeMaintainer(DataStoreModuleLib.IsolatedStorage storage,uint256,address)": {
        "details": "there can only be 1 maintainer per ID.it is wise to change the maintainer before the CONTROLLER, in case of any migrationwe don't use _authenticate here because malicious maintainers can imprison operators * and prevent them entering here, smh."
      },
      "decreaseWalletBalance(DataStoreModuleLib.IsolatedStorage storage,uint256,uint256)": {
        "details": "only CONTROLLER can decrease the balance externally,",
        "returns": {
          "success": "if the amount was sent and deducted"
        }
      },
      "delegate(DataStoreModuleLib.IsolatedStorage storage,uint256,uint256[],uint256[])": {
        "details": "When decreased the approved validator count below current active+proposed validators, operator can NOT create new validators.",
        "params": {
          "allowances": "the MAX number of validators that can be created by the Operator, for given Pool",
          "operatorIds": "array of Operator IDs to allow them create validators",
          "poolId": "the gETH id of the Pool"
        }
      },
      "deployLiquidityPool(StakeModuleLib.PooledStaking storage,DataStoreModuleLib.IsolatedStorage storage,uint256)": {
        "details": "gives full allowance to the pool (should not be a problem as Portal only temporarily holds gETH)unlike withdrawal Contract, a controller can deploy a liquidity pool after initiation as well_package_data of a liquidity pool is only the staking pool's name."
      },
      "deposit(StakeModuleLib.PooledStaking storage,DataStoreModuleLib.IsolatedStorage storage,uint256,uint256,uint256,address)": {
        "details": "an example for minting + buybacks Buys from DWP if price is low -debt-, mints new tokens if surplus is sent -more than debt- * debt  msgValue * 100   10  => buyback * 100   100 => buyback * 10    100 => buyback + mint * 1     x   => mint * 0.5   x   => mint * 0     x   => mint",
        "params": {
          "deadline": "liquidity pool parameter",
          "mingETH": "liquidity pool parameter",
          "poolId": "id of the staking pool, liquidity pool and gETH to be used."
        }
      },
      "getMaintenanceFee(DataStoreModuleLib.IsolatedStorage storage,uint256)": {
        "details": "respecs to the switching delay.",
        "returns": {
          "fee": "= percentage * PERCENTAGE_DENOMINATOR / 100"
        }
      },
      "getValidatorPeriod(DataStoreModuleLib.IsolatedStorage storage,uint256)": {
        "custom:visibility": "-> view-public"
      },
      "increaseWalletBalance(DataStoreModuleLib.IsolatedStorage storage,uint256)": {
        "details": "anyone can increase the balance directly, useful for withdrawalContracts and fees etc."
      },
      "initiateOperator(DataStoreModuleLib.IsolatedStorage storage,uint256,uint256,uint256,address)": {
        "details": "operators can fund their internal wallet on initiation by simply sending some ether.",
        "params": {
          "fee": "as a percentage limited by MAX_MAINTENANCE_FEE, PERCENTAGE_DENOMINATOR represents 100%",
          "maintainer": "an address that automates daily operations, a script, a contract...",
          "validatorPeriod": "the expected maximum staking interval. This value should between * MIN_VALIDATOR_PERIOD and MAX_VALIDATOR_PERIOD values defined as constants above. Operator can unstake at any given point before this period ends. If operator disobeys this rule, it can be prisoned with blameOperator()"
        }
      },
      "initiatePool(StakeModuleLib.PooledStaking storage,DataStoreModuleLib.IsolatedStorage storage,uint256,uint256,address,bytes,bytes,bool[3])": {
        "details": "checking only initiated is enough to validate that ID is not used. no need to check TYPE, CONTROLLER etc.requires exactly 1 validator worth of funds to be deposited on initiation, prevent sybil attacks.",
        "params": {
          "config": "array(3)= [private(true) or public(false), deploy a middleware(if true), deploy liquidity pool(if true)]",
          "fee": "as a percentage limited by MAX_MAINTENANCE_FEE, PERCENTAGE_DENOMINATOR is 100%",
          "maintainer": "an address that automates daily operations, a script, a contract... not so critical.",
          "middlewareVersion": "Pool creators can choose any allowed version as their gETHMiddleware",
          "middleware_data": "middlewares might require additional data on initialization; like name, symbol, etc.",
          "name": "is utilized while generating an ID for the Pool, similar to any other ID generation."
        }
      },
      "isPriceValid(StakeModuleLib.PooledStaking storage,uint256)": {
        "details": "known bug / feature: if there have been no oracle updates, * this function will return true. lastupdate + PRICE_EXPIRY >= block.timestamp ? true    : lastupdate >= self.ORACLE_UPDATE_TIMESTAMP ? true    : false"
      },
      "isPrisoned(DataStoreModuleLib.IsolatedStorage storage,uint256)": {
        "details": "rks.release key refers to the end of the last imprisonment, when the limitations of operator is lifted"
      },
      "isWhitelisted(DataStoreModuleLib.IsolatedStorage storage,uint256,address)": {
        "details": "Owner of the pool doesn't need whitelistingOtherwise requires a whitelisting address to be set"
      },
      "operatorAllowance(StakeModuleLib.PooledStaking storage,DataStoreModuleLib.IsolatedStorage storage,uint256,uint256)": {
        "details": "an operator can not create new validators if: * 1. operator is a monopoly * 2. allowance is filled * * But if operator is set as a fallback, it can if set fallbackThreshold is reached on all allowances.If operator withdraws a validator, then able to create a new one.prestake checks the approved validator count to make sure the number of validators are not bigger than allowanceallowance doesn't change when new validators created or old ones are unstaked."
      },
      "proposeStake(StakeModuleLib.PooledStaking storage,DataStoreModuleLib.IsolatedStorage storage,uint256,uint256,bytes[],bytes[],bytes[])": {
        "details": "DCL.DEPOSIT_AMOUNT_PRESTAKE = 1 ether, DCL.DEPOSIT_AMOUNT = 32 ether which is the minimum amount to create a validator. 31 Ether will be staked after verification of oracles. 32 in total. 1 ether will be sent back to Node Operator when the finalized deposit is successful.ProposeStake requires enough allowance from Staking Pools to Operators.ProposeStake requires enough funds within Wallet.Max number of validators to propose is per call is MAX_DEPOSITS_PER_CALL (currently 50)",
        "params": {
          "operatorId": "the id of the Operator whose maintainer calling this function",
          "poolId": "the id of the staking pool",
          "pubkeys": "Array of BLS12-381 public keys of the validators that will be proposed",
          "signatures1": "Array of BLS12-381 signatures that will be used to send 1 ETH from the Operator's maintainer balance",
          "signatures31": "Array of BLS12-381 signatures that will be used to send 31 ETH from pool on stake() function call"
        }
      },
      "setFallbackOperator(DataStoreModuleLib.IsolatedStorage storage,uint256,uint256,uint256)": {
        "params": {
          "fallbackThreshold": "the percentage (with PERCENTAGE_DENOMINATOR) that fallback operator * is activated for given Pool. Should not be greater than 100.",
          "operatorId": "Operator ID to allow create validators",
          "poolId": "the gETH id of the Pool"
        }
      },
      "setPoolVisibility(DataStoreModuleLib.IsolatedStorage storage,uint256,bool)": {
        "details": "whitelist is cleared when pool is set to public, to prevent legacy bugs if ever made private again. Note private pools can whitelist addresses with the help of a third party contract.",
        "params": {
          "makePrivate": "true if pool should be private, false for public pools"
        }
      },
      "setWhitelist(DataStoreModuleLib.IsolatedStorage storage,uint256,address)": {
        "details": "Whitelisting contracts should implement IWhitelist interface."
      },
      "setYieldReceiver(DataStoreModuleLib.IsolatedStorage storage,uint256,address)": {
        "details": "Only CONTROLLER of pool can set yield receier.",
        "params": {
          "poolId": "the gETH id of the Pool",
          "yieldReceiver": "address of the yield receiver"
        }
      },
      "stake(StakeModuleLib.PooledStaking storage,DataStoreModuleLib.IsolatedStorage storage,uint256,bytes[])": {
        "details": "To save gas cost, pubkeys should be arranged by poolIds.  ex: [pk1, pk2, pk3, pk4, pk5, pk6, pk7]  pk1, pk2, pk3 from pool1  pk4, pk5 from pool2  pk6 from pool3  seperate them in similar groups as much as possible.Max number of validators to boostrap is MAX_DEPOSITS_PER_CALL (currently 50)A pubkey that is alienated will not get through. Do not frontrun during ProposeStake.",
        "params": {
          "operatorId": "the id of the Operator whose maintainer calling this function",
          "pubkeys": "Array of BLS12-381 public keys of the validators that are already proposed with ProposeStake."
        }
      },
      "switchMaintenanceFee(DataStoreModuleLib.IsolatedStorage storage,uint256,uint256)": {
        "details": "Can NOT be called again while its currently switching.advise that 100% == PERCENTAGE_DENOMINATOR"
      },
      "switchValidatorPeriod(DataStoreModuleLib.IsolatedStorage storage,uint256,uint256)": {
        "details": "limited by MIN_VALIDATOR_PERIOD and MAX_VALIDATOR_PERIOD"
      }
    },
    "title": "SML: Stake Module Library (The Staking Library)",
    "version": 1
  },
  "userdoc": {
    "kind": "user",
    "methods": {
      "IGNORABLE_DEBT()": {
        "notice": "ignoring any buybacks if the Liquidity Pool has a low debt"
      },
      "MAX_ALLOWANCE()": {
        "notice": "effective on allowance per operator, prevents overflow. Exclusive, save gas with +1."
      },
      "MAX_GOVERNANCE_FEE()": {
        "notice": "limiting the GOVERNANCE_FEE to 5%"
      },
      "MAX_MAINTENANCE_FEE()": {
        "notice": "limiting the pool and operator maintenance fee, 10%"
      },
      "MIN_VALIDATOR_PERIOD()": {
        "notice": "limiting the operator.validatorPeriod, between 3 months to 2 years"
      },
      "PRICE_EXPIRY()": {
        "notice": "price of gETH is only valid for 24H, minting is not allowed afterwards."
      },
      "SWITCH_LATENCY()": {
        "notice": "some parameter changes are effective after a delay"
      },
      "canStake(StakeModuleLib.PooledStaking storage,bytes)": {
        "notice": "external function to check if a validator can use the pool funds"
      },
      "changeMaintainer(DataStoreModuleLib.IsolatedStorage storage,uint256,address)": {
        "notice": "CONTROLLER of the ID can change the maintainer to any address other than ZERO_ADDRESS"
      },
      "decreaseWalletBalance(DataStoreModuleLib.IsolatedStorage storage,uint256,uint256)": {
        "notice": "external function to decrease the internal wallet balance"
      },
      "delegate(DataStoreModuleLib.IsolatedStorage storage,uint256,uint256[],uint256[])": {
        "notice": "To allow a Node Operator run validators for your Pool with a given number of validators. * This number can be set again at any given point in the future."
      },
      "deployLiquidityPool(StakeModuleLib.PooledStaking storage,DataStoreModuleLib.IsolatedStorage storage,uint256)": {
        "notice": "deploys a bound liquidity pool for a staking pool, if it does not have one."
      },
      "deposit(StakeModuleLib.PooledStaking storage,DataStoreModuleLib.IsolatedStorage storage,uint256,uint256,uint256,address)": {
        "notice": "Allowing users to deposit into a staking pool.If a pool is not public, only the controller and if there is a whitelist contract, the whitelisted addresses can deposit."
      },
      "getMaintenanceFee(DataStoreModuleLib.IsolatedStorage storage,uint256)": {
        "notice": "Gets fee as a percentage, PERCENTAGE_DENOMINATOR = 100%"
      },
      "increaseWalletBalance(DataStoreModuleLib.IsolatedStorage storage,uint256)": {
        "notice": "external function to increase the internal wallet balance"
      },
      "initiateOperator(DataStoreModuleLib.IsolatedStorage storage,uint256,uint256,uint256,address)": {
        "notice": "initiates ID as a Permissionned Node Operatorrequires ID to be approved as a node operator with a specific CONTROLLER"
      },
      "initiatePool(StakeModuleLib.PooledStaking storage,DataStoreModuleLib.IsolatedStorage storage,uint256,uint256,address,bytes,bytes,bool[3])": {
        "notice": "Creates a Configurable Trustless Staking Pool!"
      },
      "isMintingAllowed(StakeModuleLib.PooledStaking storage,DataStoreModuleLib.IsolatedStorage storage,uint256)": {
        "notice": "checks if staking is allowed in given staking poolstaking is not allowed if: 1. Price is not valid 2. WithdrawalContract is in Isolation Mode, can have many reasons"
      },
      "isPriceValid(StakeModuleLib.PooledStaking storage,uint256)": {
        "notice": "returns true if the price is valid: - last price syncinc happened less than 24h - there has been no oracle reports since the last update"
      },
      "isPrisoned(DataStoreModuleLib.IsolatedStorage storage,uint256)": {
        "notice": "Checks if the given operator is Prisoned"
      },
      "isPrivatePool(DataStoreModuleLib.IsolatedStorage storage,uint256)": {
        "notice": "returns true if the pool is private"
      },
      "isWhitelisted(DataStoreModuleLib.IsolatedStorage storage,uint256,address)": {
        "notice": "checks if the Whitelist allows staker to use given private pool"
      },
      "operatorAllowance(StakeModuleLib.PooledStaking storage,DataStoreModuleLib.IsolatedStorage storage,uint256,uint256)": {
        "notice": "maximum number of remaining operator allowance that the given Operator is allowed to create for given Pool"
      },
      "proposeStake(StakeModuleLib.PooledStaking storage,DataStoreModuleLib.IsolatedStorage storage,uint256,uint256,bytes[],bytes[],bytes[])": {
        "notice": "Validator Credentials Proposal function, first step of crating validators. * Once a pubKey is proposed and not alienated after verificationIndex updated, * it is optimistically allowed to take funds from staking pools."
      },
      "setFallbackOperator(DataStoreModuleLib.IsolatedStorage storage,uint256,uint256,uint256)": {
        "notice": "To allow a Node Operator run validators for your Pool without a limit * after pool reaches a given treshold as percentage. * fallback operator and percentage can be set again at any given point in the future. * cannot set an operator as a fallback operator while it is currently in prison."
      },
      "setPoolVisibility(DataStoreModuleLib.IsolatedStorage storage,uint256,bool)": {
        "notice": "changes the visibility of the pool"
      },
      "setWhitelist(DataStoreModuleLib.IsolatedStorage storage,uint256,address)": {
        "notice": "private pools can whitelist addresses with the help of a third party contract."
      },
      "setYieldReceiver(DataStoreModuleLib.IsolatedStorage storage,uint256,address)": {
        "notice": "Set the yield receiver address to activate or deactivete yield separation logic. * If set other than address(0) separation will be activated, if set back to address(0) * separation will be deactivated again."
      },
      "stake(StakeModuleLib.PooledStaking storage,DataStoreModuleLib.IsolatedStorage storage,uint256,bytes[])": {
        "notice": "Sends 31 Eth from staking pool to validators that are previously created with ProposeStake.  1 Eth per successful validator boostraping is returned back to Wallet."
      },
      "switchMaintenanceFee(DataStoreModuleLib.IsolatedStorage storage,uint256,uint256)": {
        "notice": "Changes the fee that is applied to the newly created validators, with A DELAY OF SWITCH_LATENCY."
      },
      "switchValidatorPeriod(DataStoreModuleLib.IsolatedStorage storage,uint256,uint256)": {
        "notice": "updates validatorPeriod for given operator, with A DELAY OF SWITCH_LATENCY."
      }
    },
    "notice": "Creating a global standard for Staking, allowing anyone to OWN a trustless staking pool, improving the user experience for stakers and removing the \"need\" for centralized or decentralized intermediaries. * Exclusively contains functions related to: * 1. Initiators and Configurable Staking Pools. * 2. Pool and Operator management. * 3. Validator Delegation. * 4. Depositing. * 5. Staking Operations.",
    "version": 1
  },
  "storageLayout": {
    "storage": [],
    "types": null
  }
}