{
  "address": "0x449b0b8d4F68F00196f1Ede76063F83b296a7DC2",
  "abi": [
    {
      "anonymous": false,
      "inputs": [
        {
          "indexed": false,
          "internalType": "bytes[]",
          "name": "pubkeys",
          "type": "bytes[]"
        }
      ],
      "name": "BeaconStaked",
      "type": "event"
    },
    {
      "anonymous": false,
      "inputs": [
        {
          "indexed": true,
          "internalType": "uint256",
          "name": "poolId",
          "type": "uint256"
        },
        {
          "indexed": false,
          "internalType": "uint256",
          "name": "boughtgETH",
          "type": "uint256"
        },
        {
          "indexed": false,
          "internalType": "uint256",
          "name": "mintedgETH",
          "type": "uint256"
        }
      ],
      "name": "Deposit",
      "type": "event"
    },
    {
      "anonymous": false,
      "inputs": [
        {
          "indexed": true,
          "internalType": "uint256",
          "name": "id",
          "type": "uint256"
        },
        {
          "indexed": false,
          "internalType": "uint256",
          "name": "fee",
          "type": "uint256"
        },
        {
          "indexed": false,
          "internalType": "uint256",
          "name": "effectiveAfter",
          "type": "uint256"
        }
      ],
      "name": "FeeSwitched",
      "type": "event"
    },
    {
      "anonymous": false,
      "inputs": [
        {
          "indexed": true,
          "internalType": "uint256",
          "name": "id",
          "type": "uint256"
        },
        {
          "indexed": true,
          "internalType": "uint256",
          "name": "TYPE",
          "type": "uint256"
        }
      ],
      "name": "IdInitiated",
      "type": "event"
    },
    {
      "anonymous": false,
      "inputs": [
        {
          "indexed": true,
          "internalType": "uint256",
          "name": "id",
          "type": "uint256"
        },
        {
          "indexed": false,
          "internalType": "address",
          "name": "newMaintainer",
          "type": "address"
        }
      ],
      "name": "MaintainerChanged",
      "type": "event"
    },
    {
      "anonymous": false,
      "inputs": [
        {
          "indexed": true,
          "internalType": "uint256",
          "name": "poolId",
          "type": "uint256"
        },
        {
          "indexed": true,
          "internalType": "uint256",
          "name": "operatorId",
          "type": "uint256"
        },
        {
          "indexed": false,
          "internalType": "uint256",
          "name": "allowance",
          "type": "uint256"
        }
      ],
      "name": "OperatorApproval",
      "type": "event"
    },
    {
      "anonymous": false,
      "inputs": [
        {
          "indexed": true,
          "internalType": "uint256",
          "name": "id",
          "type": "uint256"
        },
        {
          "indexed": false,
          "internalType": "bytes",
          "name": "proof",
          "type": "bytes"
        },
        {
          "indexed": false,
          "internalType": "uint256",
          "name": "releaseTimestamp",
          "type": "uint256"
        }
      ],
      "name": "Prisoned",
      "type": "event"
    },
    {
      "anonymous": false,
      "inputs": [
        {
          "indexed": true,
          "internalType": "uint256",
          "name": "poolId",
          "type": "uint256"
        },
        {
          "indexed": false,
          "internalType": "uint256",
          "name": "operatorId",
          "type": "uint256"
        },
        {
          "indexed": false,
          "internalType": "bytes[]",
          "name": "pubkeys",
          "type": "bytes[]"
        }
      ],
      "name": "ProposalStaked",
      "type": "event"
    },
    {
      "anonymous": false,
      "inputs": [
        {
          "indexed": true,
          "internalType": "uint256",
          "name": "id",
          "type": "uint256"
        },
        {
          "indexed": false,
          "internalType": "uint256",
          "name": "period",
          "type": "uint256"
        },
        {
          "indexed": false,
          "internalType": "uint256",
          "name": "effectiveAfter",
          "type": "uint256"
        }
      ],
      "name": "ValidatorPeriodSwitched",
      "type": "event"
    },
    {
      "inputs": [],
      "name": "IGNORABLE_DEBT",
      "outputs": [
        {
          "internalType": "uint256",
          "name": "",
          "type": "uint256"
        }
      ],
      "stateMutability": "view",
      "type": "function"
    },
    {
      "inputs": [],
      "name": "MAX_EARLY_EXIT_FEE",
      "outputs": [
        {
          "internalType": "uint256",
          "name": "",
          "type": "uint256"
        }
      ],
      "stateMutability": "view",
      "type": "function"
    },
    {
      "inputs": [],
      "name": "MAX_MAINTENANCE_FEE",
      "outputs": [
        {
          "internalType": "uint256",
          "name": "",
          "type": "uint256"
        }
      ],
      "stateMutability": "view",
      "type": "function"
    },
    {
      "inputs": [],
      "name": "MAX_VALIDATOR_PERIOD",
      "outputs": [
        {
          "internalType": "uint256",
          "name": "",
          "type": "uint256"
        }
      ],
      "stateMutability": "view",
      "type": "function"
    },
    {
      "inputs": [],
      "name": "MIN_VALIDATOR_PERIOD",
      "outputs": [
        {
          "internalType": "uint256",
          "name": "",
          "type": "uint256"
        }
      ],
      "stateMutability": "view",
      "type": "function"
    },
    {
      "inputs": [],
      "name": "PRICE_EXPIRY",
      "outputs": [
        {
          "internalType": "uint256",
          "name": "",
          "type": "uint256"
        }
      ],
      "stateMutability": "view",
      "type": "function"
    },
    {
      "inputs": [],
      "name": "PRISON_SENTENCE",
      "outputs": [
        {
          "internalType": "uint256",
          "name": "",
          "type": "uint256"
        }
      ],
      "stateMutability": "view",
      "type": "function"
    },
    {
      "inputs": [],
      "name": "SWITCH_LATENCY",
      "outputs": [
        {
          "internalType": "uint256",
          "name": "",
          "type": "uint256"
        }
      ],
      "stateMutability": "view",
      "type": "function"
    }
  ],
  "transactionHash": "0xcd605cfc094ee0403a11a80013f0c94787f92c79bbf7e666fb34ecc9c8665bf2",
  "args": [],
  "numDeployments": 1,
  "solcInputHash": "ade6b4939fda34d609e172906ec4e12a",
  "bytecode": "0x615cfb6200003b600b82828239805160001a60731461002e57634e487b7160e01b600052600060045260246000fd5b30600052607381538281f3fe73000000000000000000000000000000000000000030146080604052600436106200023a5760003560e01c80638dfcc455116200013a578063b61bf1a511620000c4578063e28001c6116200008f578063e28001c614620005a3578063ea976d1514620005ba578063f665478e14620005c5578063f6be3c9f14620005dc578063fce469dc146200060157600080fd5b8063b61bf1a51462000529578063d488a0ac1462000534578063d5c3bf691462000559578063db36470d146200057e57600080fd5b80639fe5e26611620001055780639fe5e26614620004c9578063ae85d17614620004ee578063b13302881462000513578063b55463a4146200051e57600080fd5b80638dfcc4551462000448578063969bb50914620004835780639b5bd1b814620004a85780639edf974f14620004b257600080fd5b80635704dd8011620001c857806372bfbbdd116200019357806372bfbbdd14620003b257806376b0505414620003d75780637d387c2214620003e7578063816fa8e9146200040c578063851756e6146200042357600080fd5b80635704dd80146200033a5780635e456b4d146200035f578063611bbbc814620003765780636d2b769b146200039b57600080fd5b806343eab132116200020957806343eab13214620002d857806345436dea1462000300578063499370561462000317578063536103ea146200032357600080fd5b806306d8fb23146200023f57806325cfdc69146200025c57806329aa4b711462000283578063431f86f714620002b3575b600080fd5b6200024962000618565b6040519081526020015b60405180910390f35b8180156200026957600080fd5b50620002816200027b36600462004e32565b6200063b565b005b6200029a6200029436600462004b9b565b62000a63565b6040516001600160a01b03909116815260200162000253565b818015620002c057600080fd5b5062000281620002d236600462004dcd565b62000a8b565b620002ef620002e936600462004b9b565b620010d9565b604051901515815260200162000253565b620002ef6200031136600462004d32565b620010fc565b62000249630966018081565b620002496200033436600462004b9b565b6200111c565b8180156200034757600080fd5b50620002ef6200035936600462004cb5565b62001172565b620002ef6200037036600462004b9b565b620012ce565b8180156200038357600080fd5b50620002816200039536600462004ce2565b62001374565b62000249620003ac36600462004cb5565b62001506565b818015620003bf57600080fd5b5062000281620003d136600462004bbe565b6200152e565b62000249670de0b6b3a764000081565b818015620003f457600080fd5b50620002816200040636600462004d89565b620015cf565b620002ef6200041d36600462004b9b565b620018ed565b8180156200043057600080fd5b50620002816200044236600462004d32565b62001910565b8180156200045557600080fd5b506200046d6200046736600462004fe1565b62001a40565b6040805192835260208301919091520162000253565b8180156200049057600080fd5b50620002ef620004a236600462004bfa565b62001dac565b6200024962001f71565b6200029a620004c336600462004b9b565b62001f85565b818015620004d657600080fd5b50620002ef620004e836600462004b9b565b62001fa9565b818015620004fb57600080fd5b50620002816200050d36600462004cb5565b62001fe0565b620002496276a70081565b620002496203f48081565b620002496201518081565b8180156200054157600080fd5b50620002816200055336600462004cb5565b6200213a565b8180156200056657600080fd5b50620002816200057836600462004bbe565b6200224f565b8180156200058b57600080fd5b50620002816200059d36600462004f14565b62002284565b620002ef620005b436600462004bbe565b62002bf6565b620002496212750081565b620002ef620005d636600462004cb5565b62002d2c565b818015620005e957600080fd5b5062000281620005fb36600462004c84565b62002dcb565b6200029a6200061236600462004cb5565b62002e74565b60646200062c6402540be400600a62005439565b62000638919062005422565b81565b6801bc16d674ec8000003414620006a95760405162461bcd60e51b815260206004820152602760248201527f53553a20726571756972657320312076616c696461746f7220776f727468206f604482015266331022ba3432b960c91b60648201526084015b60405180910390fd5b6000620006ef86868080601f0160208091040260200160405190810160405280939291908181526020018383808284376000920191909152506005925062002e91915050565b9050629896808111620007375760405162461bcd60e51b815260206004820152600f60248201526e14d54e8815dbddc8481b1bddc81a59608a1b6044820152606401620006a0565b620007508b82681a5b9a5d1a585d195960ba1b62002ec7565b15620007975760405162461bcd60e51b815260206004820152601560248201527414d54e88185b1c9958591e481a5b9a5d1a585d1959605a1b6044820152606401620006a0565b620007ad8b82635459504560e01b600562002ef3565b620007c88b826921a7a72a2927a62622a960b11b3362002f1d565b6200082c81634e414d4560e01b88888080601f016020809104026020016040519081016040528093929190818152602001838380828437600081840152601f19601f820116905080830192505050505050508e62002f68909392919063ffffffff16565b620008468b82681a5b9a5d1a585d195960ba1b4262002ef3565b6005600090815260208c8152604082208054600181018255908352912001819055620008748b828a62002fa5565b620008818b828c620030eb565b6200088e8c8c8362003170565b6200089d602083018362004b41565b15620008b157620008b18b82600162002dcb565b620008c3604083016020840162004b41565b156200090e576200090e8c8c838c88888080601f0160208091040260200160405190810160405280939291908181526020018383808284376000920191909152506200337a92505050565b62000920606083016040840162004b41565b156200093457620009348c8c838a620015cf565b8b546040516322af599760e01b8152670de0b6b3a76400006004820152602481018390526001600160a01b03909116906322af599790604401600060405180830381600087803b1580156200098857600080fd5b505af11580156200099d573d6000803e3d6000fd5b505050506000620009ba8d8d846801bc16d674ec800000620034f3565b8d54604051637921219560e11b81529192506001600160a01b03169063f242432a90620009f290309033908790879060040162005200565b600060405180830381600087803b15801562000a0d57600080fd5b505af115801562000a22573d6000803e3d6000fd5b5050604051600592508491507f7b7905d4bbb05d33c55d852740a9c6ad7023620601ab2abb79f1839fc8e0a5fb90600090a350505050505050505050505050565b600062000a8283836c1b1a5c5d5a591a5d1e541bdbdb609a1b620036fd565b90505b92915050565b6040805180820190915260018082526000602083015262000ab29186918691819062003733565b801580159062000ac3575060328111155b62000b045760405162461bcd60e51b815260206004820152601060248201526f53553a204d4158203530206e6f64657360801b6044820152606401620006a0565b600285015460005b8281101562000bac5762000b4b878786868581811062000b305762000b3062005552565b905060200281019062000b449190620053bd565b86620039e7565b62000ba35760405162461bcd60e51b815260206004820152602160248201527f53553a204e4f5420616c6c207075626b65797320617265207374616b6561626c6044820152606560f81b6064820152608401620006a0565b60010162000b0c565b5050600062000bcf846f61637469766556616c696461746f727360801b62003b07565b9050600062000bf4857170726f706f73656456616c696461746f727360701b62003b07565b9050600087600c018585600081811062000c125762000c1262005552565b905060200281019062000c269190620053bd565b60405162000c3692919062005150565b908152604051908190036020019020600201549050600062000c718883731dda5d1a191c985dd85b10dc9959195b9d1a585b60621b62003b33565b90506000805b8681101562000fd3578a600c0188888381811062000c995762000c9962005552565b905060200281019062000cad9190620053bd565b60405162000cbd92919062005150565b908152602001604051809103902060020154841462000da15781810362000d0885661cd958dd5c995960ca1b62000cfe846801bc16d674ec80000062005439565b8e92919062003bef565b62000d168b86898462003c2c565b62000d248b86888462003bef565b8b600c0189898481811062000d3d5762000d3d62005552565b905060200281019062000d519190620053bd565b60405162000d6192919062005150565b90815260405190819003602001902060020154945062000d9a8b86731dda5d1a191c985dd85b10dc9959195b9d1a585b60621b62003b33565b9350819250505b60008b600c0189898481811062000dbc5762000dbc62005552565b905060200281019062000dd09190620053bd565b60405162000de092919062005150565b9081526020016040518091039020600901805462000dfe90620054a4565b80601f016020809104026020016040519081016040528092919081815260200182805462000e2c90620054a4565b801562000e7d5780601f1062000e515761010080835404028352916020019162000e7d565b820191906000526020600020905b81548152906001019060200180831162000e5f57829003601f168201915b5050505050905062000ed689898481811062000e9d5762000e9d62005552565b905060200281019062000eb19190620053bd565b868462000ed0670de0b6b3a76400006801bc16d674ec8000006200545b565b62003c5e565b62000f67856976616c696461746f727360b01b8b8b8681811062000efe5762000efe62005552565b905060200281019062000f129190620053bd565b8080601f016020809104026020016040519081016040528093929190818152602001838380828437600081840152601f19601f820116905080830192505050505050508e62003d29909392919063ffffffff16565b60028c600c018a8a8581811062000f825762000f8262005552565b905060200281019062000f969190620053bd565b60405162000fa692919062005150565b908152604051908190036020019020805460ff9290921660ff199092169190911790555060010162000c77565b508086036200100684661cd958dd5c995960ca1b62000ffc846801bc16d674ec80000062005439565b8d92919062003bef565b620010148a85888462003c2c565b620010228a85878462003bef565b620010488a8a74746f74616c41637469766556616c696461746f727360581b8a62003c2c565b620010708a8a76746f74616c50726f706f73656456616c696461746f727360481b8a62003bef565b620010908a8a6200108a8a670de0b6b3a764000062005439565b62003d94565b50507f7d06a53b1dd9dc1517c82312d3e3bfa100ec87042b4445d6bd11a940678b10c38787604051620010c59291906200525e565b60405180910390a150505050505050505050565b6000620010f38383671c995b19585cd95960c21b62002ec7565b42109392505050565b600062001111858585858960020154620039e7565b90505b949350505050565b600042620011388484680cccacaa6eed2e8c6d60bb1b62002ec7565b11156200115f57620011578383677072696f7246656560c01b62002ec7565b905062000a85565b62000a8283836266656560e81b62002ec7565b604080518082019091526001808252602082018190526000916200119d918691869190859062003733565b81471015620011ef5760405162461bcd60e51b815260206004820181905260248201527f53553a206e6f7420656e6f7567682066756e647320696e20506f7274616c203f6044820152606401620006a0565b6000620011fe85858562003db7565b905060006200121c86866921a7a72a2927a62622a960b11b620036fd565b6001600160a01b03168460405160006040518083038185875af1925050503d806000811462001268576040519150601f19603f3d011682016040523d82523d6000602084013e6200126d565b606091505b505090508180156200127c5750805b620012c35760405162461bcd60e51b81526020600482015260166024820152750a6aa74408cc2d2d8cac840e8de40e6cadcc8408aa8960531b6044820152606401620006a0565b9150505b9392505050565b815460405163908d67ed60e01b81526004810183905260009182916001600160a01b039091169063908d67ed9060240160206040518083038186803b1580156200131757600080fd5b505afa1580156200132c573d6000803e3d6000fd5b505050506040513d601f19601f8201168201806040525081019062001352919062004b81565b9050426201518082011015806200111457508360050154811015949350505050565b6200138d8585681a5b9a5d1a585d195960ba1b62002ec7565b15620013d45760405162461bcd60e51b815260206004820152601560248201527414d54e88185b1c9958591e481a5b9a5d1a585d1959605a1b6044820152606401620006a0565b6004620013ea8686635459504560e01b62002ec7565b146200140a5760405162461bcd60e51b8152600401620006a09062005347565b6200142485856921a7a72a2927a62622a960b11b620036fd565b6001600160a01b0316336001600160a01b031614620014825760405162461bcd60e51b815260206004820152601960248201527829aa9d1039b2b73232b9102727aa1021a7a72a2927a62622a960391b6044820152606401620006a0565b6200148f85858362002fa5565b6200149c858585620030eb565b620014a985858462003e37565b620014b685853462003d94565b50620014d18585681a5b9a5d1a585d195960ba1b4262002ef3565b60405160049085907f7b7905d4bbb05d33c55d852740a9c6ad7023620601ab2abb79f1839fc8e0a5fb90600090a35050505050565b60006200111483620015258468616c6c6f77616e636560b81b62003b07565b86919062002ec7565b6040805180820190915260008082526001602083018190526200155692869286929162003733565b620015628383620018ed565b620015b05760405162461bcd60e51b815260206004820152601860248201527f53553a206d757374206265207072697661746520706f6f6c00000000000000006044820152606401620006a0565b620015ca8383681dda1a5d195b1a5cdd60ba1b8462002f1d565b505050565b604080518082019091526000808252600160208301819052620015f792869286929162003733565b60296000908152600a85016020526040902054806200162f8585733634b8bab4b234ba3ca837b7b62b32b939b4b7b760611b62002ec7565b14156200167f5760405162461bcd60e51b815260206004820152601a60248201527f53553a20616c7265616479206c61746573742076657273696f6e0000000000006044820152606401620006a0565b6000620016a56200169f86846921a7a72a2927a62622a960b11b620036fd565b62003f2c565b90506000620016bd8686634e414d4560e01b62003b33565b87546040519192506000916001600160a01b038581169263820fc5bd929116908990620016ef9087906020016200517e565b60405160208183030381529060405286604051602001620017119190620051b3565b6040516020818303038152906040526200175a8e600a016000602a8152602001908152602001600020546921a7a72a2927a62622a960b11b8f620036fd9092919063ffffffff16565b8b6040518763ffffffff1660e01b81526004016200177e96959493929190620052ed565b602060405180830381600087803b1580156200179957600080fd5b505af1158015620017ae573d6000803e3d6000fd5b505050506040513d601f19601f82011682018060405250810190620017d4919062004b21565b6001600160a01b03161415620018375760405162461bcd60e51b815260206004820152602160248201527f53553a20636f756c64206e6f7420696e6974206c697175696469747920706f6f6044820152601b60fa1b6064820152608401620006a0565b865460405163a22cb46560e01b81526001600160a01b038481166004830152600160248301529091169063a22cb46590604401600060405180830381600087803b1580156200188557600080fd5b505af11580156200189a573d6000803e3d6000fd5b50620018c69250889150879050733634b8bab4b234ba3ca837b7b62b32b939b4b7b760611b8662002ef3565b620018e486866c1b1a5c5d5a591a5d1e541bdbdb609a1b8562002f1d565b50505050505050565b6000620019068383667072697661746560c81b62002ec7565b6001149392505050565b600260ff1684600c0183836040516200192b92919062005150565b9081526040519081900360200190205460ff16146200198d5760405162461bcd60e51b815260206004820181905260248201527f53553a2076616c696461746f72206973206e65766572206163746976617465646044820152606401620006a0565b83600c018282604051620019a392919062005150565b908152602001604051809103902060080154421162001a055760405162461bcd60e51b815260206004820152601d60248201527f53553a2076616c696461746f72206973207374696c6c206163746976650000006044820152606401620006a0565b62001a3a8385600c01848460405162001a2092919062005150565b908152602001604051809103902060030154848462003fc8565b50505050565b6040805180820190915260008082526001602083015290819062001a6c90889088908490819062003733565b42841162001ab45760405162461bcd60e51b815260206004820152601460248201527314d54e88191958591b1a5b99481b9bdd081b595d60621b6044820152606401620006a0565b6001600160a01b03831662001b0c5760405162461bcd60e51b815260206004820152601c60248201527f53553a207265636569766572206973207a65726f2061646472657373000000006044820152606401620006a0565b62001b188787620018ed565b1562001b795762001b2b87873362002bf6565b62001b795760405162461bcd60e51b815260206004820152601a60248201527f53553a2073656e646572204e4f542077686974656c69737465640000000000006044820152606401620006a0565b34600062001b9989896c1b1a5c5d5a591a5d1e541bdbdb609a1b620036fd565b6001600160a01b03161462001c8457600062001bb6898962000a63565b6001600160a01b03166314a6bf0f6040518163ffffffff1660e01b815260040160206040518083038186803b15801562001bef57600080fd5b505afa15801562001c04573d6000803e3d6000fd5b505050506040513d601f19601f8201168201806040525081019062001c2a919062004b81565b9050670de0b6b3a764000081111562001c82578181101562001c6c5762001c5689898360008a6200405e565b935062001c6481836200545b565b915062001c82565b62001c7b8989848a8a6200405e565b9350600091505b505b801562001c9c5762001c9989898984620034f3565b91505b8562001ca9838562005407565b101562001cf15760405162461bcd60e51b815260206004820152601560248201527453553a206c657373207468616e206d696e696d756d60581b6044820152606401620006a0565b88546001600160a01b031663f242432a30868a62001d10878962005407565b6040518563ffffffff1660e01b815260040162001d31949392919062005200565b600060405180830381600087803b15801562001d4c57600080fd5b505af115801562001d61573d6000803e3d6000fd5b505060408051868152602081018690528a93507f33da4f9b82b3e18a281ca2cabbe2f076925692abb593b7ea3f850009e8ec977092500160405180910390a250965096945050505050565b600062001ddc87876001806040518060400160405280600015151515815260200160011515151581525062003733565b83821462001e2d5760405162461bcd60e51b815260206004820152601b60248201527f53553a20616c6c6f77616e6365732073686f756c64206d6174636800000000006044820152606401620006a0565b60005b8481101562001f635762001e828887878481811062001e535762001e5362005552565b905060200201356000806040518060400160405280600115151515815260200160001515151581525062003733565b62001ee88762001eba88888581811062001ea05762001ea062005552565b9050602002013568616c6c6f77616e636560b81b62003b07565b86868581811062001ecf5762001ecf62005552565b905060200201358b62002ef3909392919063ffffffff16565b85858281811062001efd5762001efd62005552565b90506020020135877f06ef86357fa27838732e0c7206341897ec58306010a37af61bdfeaf5617248d186868581811062001f3b5762001f3b62005552565b9050602002013560405162001f5291815260200190565b60405180910390a360010162001e30565b506001979650505050505050565b60646200062c6402540be400600562005439565b600062000a828383711dda5d1a191c985dd85b10dbdb9d1c9858dd60721b620036fd565b604080518082019091526001808252602082015260009062001fd390849084908490819062003733565b62000a8283833462003d94565b60408051808201909152600180825260006020830152620020079185918591819062003733565b6200202383836b0e0cae4d2dec8a6eed2e8c6d60a31b62002ec7565b42116200207d5760405162461bcd60e51b815260206004820152602160248201527f53553a20706572696f642069732063757272656e746c7920737769746368696e6044820152606760f81b6064820152608401620006a0565b620020ba826a1c1c9a5bdc94195c9a5bd960aa1b620020b086836e1d985b1a59185d1bdc94195c9a5bd9608a1b62002ec7565b8692919062002ef3565b620020de826b0e0cae4d2dec8a6eed2e8c6d60a31b620020b06203f4804262005407565b620020eb83838362003e37565b817f876113dea338eedc856851b937db5d25520a6013d424528e69b20a166879e35a826200211d6203f4804262005407565b6040805192835260208301919091520160405180910390a2505050565b6040805180820190915260018082526020820181905262002162918591859160009062003733565b6200217b8383680cccacaa6eed2e8c6d60bb1b62002ec7565b4211620021cb5760405162461bcd60e51b815260206004820152601e60248201527f53553a206665652069732063757272656e746c7920737769746368696e6700006044820152606401620006a0565b620021ef82677072696f7246656560c01b620020b086836266656560e81b62002ec7565b6200221082680cccacaa6eed2e8c6d60bb1b620020b06203f4804262005407565b6200221d838383620030eb565b817f331610f5071297e919aff9d24ba73d5c09c631f7c63a47096d051b7ab429c8bf826200211d6203f4804262005407565b6040805180820190915260018082526020820181905262002277918591859160009062003733565b620015ca83838362002fa5565b60408051808201909152600180825260006020830152620022ab918b918a91819062003733565b60408051808201909152600080825260016020830152620022d2918b918b91819062003733565b848015801590620022e4575060328111155b620023325760405162461bcd60e51b815260206004820152601960248201527f53553a204d4158203530206e6f646573207065722063616c6c000000000000006044820152606401620006a0565b808414620023835760405162461bcd60e51b815260206004820152601e60248201527f53553a20696e76616c6964207369676e61747572657331206c656e67746800006044820152606401620006a0565b808214620023d45760405162461bcd60e51b815260206004820152601f60248201527f53553a20696e76616c6964207369676e6174757265733331206c656e677468006044820152606401620006a0565b60038b015481620024018c8b76746f74616c50726f706f73656456616c696461746f727360481b62002ec7565b620024268d8c74746f74616c41637469766556616c696461746f727360581b62002ec7565b01011115620024845760405162461bcd60e51b8152602060048201526024808201527f53553a204963654265617220646f6573204e4f54206c696b65206d6f6e6f706f6044820152636c69657360e01b6064820152608401620006a0565b620024918a8a8a62001506565b81620024bf8b620024b68c6f61637469766556616c696461746f727360801b62003b07565b8e919062002ec7565b620024ee8c620024e58d7170726f706f73656456616c696461746f727360701b62003b07565b8f919062002ec7565b01011115620025405760405162461bcd60e51b815260206004820152601860248201527f53553a204e4f5420656e6f75676820616c6c6f77616e636500000000000000006044820152606401620006a0565b6801bc16d674ec8000008102620025638b8b66737572706c757360c81b62002ec7565b1015620025ac5760405162461bcd60e51b815260206004820152601660248201527553553a204e4f5420656e6f75676820737572706c757360501b6044820152606401620006a0565b620025cc8a89620025c6670de0b6b3a76400008562005439565b62003db7565b50620025f28966737572706c757360c81b62000ffc6801bc16d674ec8000008562005439565b6200262189661cd958dd5c995960ca1b620026176801bc16d674ec8000008562005439565b8d92919062003c2c565b6200265189620026478a7170726f706f73656456616c696461746f727360701b62003b07565b8c91908462003c2c565b620026798a8976746f74616c50726f706f73656456616c696461746f727360481b8462003c2c565b5060006040518060c001604052808c6001015460016200269a919062005407565b8152602001620026ab8c8c6200111c565b8152602001620026bc8c8b6200111c565b815260048d01546020820152604001620026ea8c8b6e1d985b1a59185d1bdc94195c9a5bd9608a1b62002ec7565b620026f6904262005407565b81526020016200271f8c8c731dda5d1a191c985dd85b10dc9959195b9d1a585b60621b62003b33565b9052905060005b8681101562002b8a576000600c8d018989848181106200274a576200274a62005552565b90506020028101906200275e9190620053bd565b6040516200276e92919062005150565b9081526040519081900360200190205460ff1614620027dc5760405162461bcd60e51b8152602060048201526024808201527f53553a205075626b657920616c72656164792075736564206f7220616c69656e604482015263185d195960e21b6064820152608401620006a0565b6030888883818110620027f357620027f362005552565b9050602002810190620028079190620053bd565b905014620028585760405162461bcd60e51b815260206004820152601760248201527f53553a205055424b45595f4c454e475448204552524f520000000000000000006044820152606401620006a0565b60608686838181106200286f576200286f62005552565b9050602002810190620028839190620053bd565b905014620028d45760405162461bcd60e51b815260206004820152601a60248201527f53553a205349474e41545552455f4c454e475448204552524f520000000000006044820152606401620006a0565b6060848483818110620028eb57620028eb62005552565b9050602002810190620028ff9190620053bd565b905014620029505760405162461bcd60e51b815260206004820152601a60248201527f53553a205349474e41545552455f4c454e475448204552524f520000000000006044820152606401620006a0565b60408051610140810190915260018152825160208201906200297490849062005407565b81526020018b81526020018a815260200183602001518152602001836040015181526020018360600151815260200142815260200183608001518152602001858584818110620029c857620029c862005552565b9050602002810190620029dc9190620053bd565b8080601f0160208091040260200160405190810160405280939291908181526020018383808284376000920191909152505050915250600c8d0189898481811062002a2b5762002a2b62005552565b905060200281019062002a3f9190620053bd565b60405162002a4f92919062005150565b90815260408051602092819003830190208351815460ff191660ff909116178155838301516001820155908301516002820155606083015160038201556080830151600482015560a0830151600582015560c0830151600682015560e0830151600782015561010083015160088201556101208301518051919262002add92600985019290910190620049c7565b5090505062002b8188888381811062002afa5762002afa62005552565b905060200281019062002b0e9190620053bd565b8460a0015189898681811062002b285762002b2862005552565b905060200281019062002b3c9190620053bd565b8080601f016020809104026020016040519081016040528093929190818152602001838380828437600092019190915250670de0b6b3a7640000925062003c5e915050565b60010162002726565b50868690508b600101600082825462002ba4919062005407565b92505081905550887f3b3af42dad5e36d378f55b98e14d4536860ed79ca6170a05693099d10459b1a089898960405162002be193929190620053a1565b60405180910390a25050505050505050505050565b60003362002c1385856921a7a72a2927a62622a960b11b620036fd565b6001600160a01b0316141562002c2c57506001620012c7565b600062002c478585681dda1a5d195b1a5cdd60ba1b620036fd565b90506001600160a01b03811662002caf5760405162461bcd60e51b815260206004820152602560248201527f53553a207468697320706f6f6c20646f6573206e6f7420686176652077686974604482015264195b1a5cdd60da1b6064820152608401620006a0565b60405163babcc53960e01b81526001600160a01b03848116600483015282169063babcc5399060240160206040518083038186803b15801562002cf157600080fd5b505afa15801562002d06573d6000803e3d6000fd5b505050506040513d601f19601f82011682018060405250810190620012c3919062004b61565b600062002d3a8483620012ce565b801562001114575062002d4e838362001f85565b6001600160a01b03166307a00b1f6040518163ffffffff1660e01b815260040160206040518083038186803b15801562002d8757600080fd5b505afa15801562002d9c573d6000803e3d6000fd5b505050506040513d601f19601f8201168201806040525081019062002dc2919062004b61565b15949350505050565b60408051808201909152600080825260016020830181905262002df392869286929162003733565b62002dff8383620018ed565b1515811515141562002e465760405162461bcd60e51b815260206004820152600f60248201526e14d54e88185b1c9958591e481cd95d608a1b6044820152606401620006a0565b620015ca82667072697661746560c81b8362002e6457600062002e67565b60015b8692919060ff1662002ef3565b600062001114848469696e746572666163657360b01b856200410a565b6000828260405160200162002ea8929190620051dc565b60408051601f1981840301815291905280516020909101209392505050565b600083600101600062002edb858562003b07565b81526020019081526020016000205490509392505050565b8084600101600062002f06868662003b07565b815260208101919091526040016000205550505050565b8084600301600062002f30868662003b07565b815260200190815260200160002060006101000a8154816001600160a01b0302191690836001600160a01b0316021790555050505050565b8084600201600062002f7b868662003b07565b8152602001908152602001600020908051906020019062002f9e929190620049c7565b5050505050565b6001600160a01b03811662002ffd5760405162461bcd60e51b815260206004820152601e60248201527f53553a206d61696e7461696e65722063616e204e4f54206265207a65726f00006044820152606401620006a0565b60006200301984846936b0b4b73a30b4b732b960b11b620036fd565b9050816001600160a01b0316816001600160a01b031614156200308b5760405162461bcd60e51b815260206004820152602360248201527f53553a2070726f7669646564207468652063757272656e74206d61696e7461696044820152623732b960e91b6064820152608401620006a0565b620030a684846936b0b4b73a30b4b732b960b11b8562002f1d565b6040516001600160a01b038316815283907f72774bc96991002276ea2f17557bc24e67733a3dcf2e8b390d38921daab1ab31906020015b60405180910390a250505050565b6064620030ff6402540be400600a62005439565b6200310b919062005422565b8111156200315c5760405162461bcd60e51b815260206004820152601a60248201527f53553a203e204d41585f4d41494e54454e414e43455f464545200000000000006044820152606401620006a0565b620015ca83836266656560e81b8462002ef3565b6000620031948383711dda5d1a191c985dd85b10dbdb9d1c9858dd60721b620036fd565b6001600160a01b031614620031fa5760405162461bcd60e51b815260206004820152602560248201527f53553a20616c7265616479206861732061207769746864726177616c20636f6e6044820152641d1c9858dd60da1b6064820152608401620006a0565b60156000908152600a84016020526040812054906200322884836921a7a72a2927a62622a960b11b620036fd565b8554633fbfd4df60e01b90849086906001600160a01b0316306200325b8a846921a7a72a2927a62622a960b11b620036fd565b604051602481019590955260448501939093526001600160a01b039182166064850152811660848401521660a482015260c40160408051601f198184030181529181526020820180516001600160e01b03166001600160e01b0319909416939093179092529051620032cd9062004a56565b620032da92919062005238565b604051809103906000f080158015620032f7573d6000803e3d6000fd5b5090506200331d8484711dda5d1a191c985dd85b10dbdb9d1c9858dd60721b8462002f1d565b62002f9e83731dda5d1a191c985dd85b10dc9959195b9d1a585b60621b6200337084604080516001600160a01b0392909216600160f81b1760208084019190915281518084039091018152918101905290565b8792919062002f68565b601f6000908152600b86016020908152604080832085845290915290205460ff16620033e05760405162461bcd60e51b815260206004820152601460248201527353553a206e6f7420616e20696e7465726661636560601b6044820152606401620006a0565b6000620034006200169f86856921a7a72a2927a62622a960b11b620036fd565b8654604051637104db2360e11b81529192506001600160a01b038084169263e209b6469262003439928992911690879060040162005375565b602060405180830381600087803b1580156200345457600080fd5b505af115801562003469573d6000803e3d6000fd5b505050506040513d601f19601f820116820180604052508101906200348f919062004b61565b620034dd5760405162461bcd60e51b815260206004820152601c60248201527f53553a20636f756c64206e6f7420696e697420696e74657266616365000000006044820152606401620006a0565b620034eb868686846200414c565b505050505050565b60006200350285858562002d2c565b620035505760405162461bcd60e51b815260206004820152601a60248201527f53553a206d696e74696e67206973206e6f7420616c6c6f7765640000000000006044820152606401620006a0565b845460405163f759cc3b60e01b8152600481018590526001600160a01b039091169063f759cc3b9060240160206040518083038186803b1580156200359457600080fd5b505afa158015620035a9573d6000803e3d6000fd5b505050506040513d601f19601f82011682018060405250810190620035cf919062004b81565b8554604080516396ce079560e01b815290516001600160a01b03909216916396ce079591600480820192602092909190829003018186803b1580156200361457600080fd5b505afa15801562003629573d6000803e3d6000fd5b505050506040513d601f19601f820116820180604052508101906200364f919062004b81565b6200365b908462005439565b62003667919062005422565b855460405163731133e960e01b8152306004820152602481018690526044810183905260806064820152600060848201529192506001600160a01b03169063731133e99060a401600060405180830381600087803b158015620036c957600080fd5b505af1158015620036de573d6000803e3d6000fd5b5062001114925086915085905066737572706c757360c81b8562003c2c565b600083600301600062003711858562003b07565b81526020810191909152604001600020546001600160a01b0316949350505050565b6200374c8585681a5b9a5d1a585d195960ba1b62002ec7565b6200379a5760405162461bcd60e51b815260206004820152601760248201527f53553a204944206973206e6f7420696e697469617465640000000000000000006044820152606401620006a0565b6000620037b08686635459504560e01b62002ec7565b9050600481141562003874578151620037dd5760405162461bcd60e51b8152600401620006a09062005347565b8380620037e75750825b156200386e57620037f98686620010d9565b156200386e5760405162461bcd60e51b815260206004820152603760248201527f53553a206f70657261746f7220697320696e20707269736f6e2c20676574206960448201527f6e20746f756368207769746820676f7665726e616e63650000000000000000006064820152608401620006a0565b620038de565b6005811415620038a25760208201516200386e5760405162461bcd60e51b8152600401620006a09062005347565b60405162461bcd60e51b815260206004820152601060248201526f53553a20696e76616c6964205459504560801b6044820152606401620006a0565b82156200396857620038ff86866936b0b4b73a30b4b732b960b11b620036fd565b6001600160a01b0316336001600160a01b031614620039615760405162461bcd60e51b815260206004820152601960248201527f53553a2073656e646572204e4f54206d61696e7461696e6572000000000000006044820152606401620006a0565b5062002f9e565b8315620034eb576200398986866921a7a72a2927a62622a960b11b620036fd565b6001600160a01b0316336001600160a01b031614620039615760405162461bcd60e51b815260206004820152601960248201527829aa9d1039b2b73232b9102727aa1021a7a72a2927a62622a960391b6044820152606401620006a0565b6000600160ff1686600c01858560405162003a0492919062005150565b9081526040519081900360200190205460ff1614801562003a4c57508186600c01858560405162003a3792919062005150565b90815260200160405180910390206001015411155b801562003afd575062003a878587600c01868660405162003a6f92919062005150565b90815260200160405180910390206002015462001f85565b6001600160a01b03166307a00b1f6040518163ffffffff1660e01b815260040160206040518083038186803b15801562003ac057600080fd5b505afa15801562003ad5573d6000803e3d6000fd5b505050506040513d601f19601f8201168201806040525081019062003afb919062004b61565b155b9695505050505050565b604080516020808201949094528082019290925280518083038201815260609092019052805191012090565b606083600201600062003b47858562003b07565b8152602001908152602001600020805462003b6290620054a4565b80601f016020809104026020016040519081016040528092919081815260200182805462003b9090620054a4565b801562003be15780601f1062003bb55761010080835404028352916020019162003be1565b820191906000526020600020905b81548152906001019060200180831162003bc357829003601f168201915b505050505090509392505050565b8084600101600062003c02868662003b07565b8152602001908152602001600020600082825462003c2191906200545b565b909155505050505050565b8084600101600062003c3f868662003b07565b8152602001908152602001600020600082825462003c21919062005407565b73ff50ed3d0ec03ac01d4c79aad74928bff48a7b2b6001600160a01b03166322895118828787878762003ccc8c8c8080601f0160208091040260200160405190810160405280939291908181526020018383808284376000920191909152508e92508d91508c9050620042a9565b6040518763ffffffff1660e01b815260040162003cee95949392919062005274565b6000604051808303818588803b15801562003d0857600080fd5b505af115801562003d1d573d6000803e3d6000fd5b50505050505050505050565b600062003d37848462003b07565b600081815260018701602052604081208054929350849260028901929162003d7191908362003d6683620054db565b919050558562003b07565b81526020019081526020016000209080519060200190620034eb929190620049c7565b600062003dad8484651dd85b1b195d60d21b8562003c2c565b5060019392505050565b60008162003dd08585651dd85b1b195d60d21b62002ec7565b101562003e205760405162461bcd60e51b815260206004820152601e60248201527f53553a204e4f5420656e6f7567682066756e647320696e2077616c6c657400006044820152606401620006a0565b62003dad8484651dd85b1b195d60d21b8562003bef565b6276a70081101562003ea15760405162461bcd60e51b815260206004820152602c60248201527f53553a2073686f756c64206265206d6f7265207468616e204d494e5f56414c4960448201526b11105513d497d411549253d160a21b6064820152608401620006a0565b630966018081111562003f0c5760405162461bcd60e51b815260206004820152602c60248201527f53553a2073686f756c64206265206c657373207468616e204d41585f56414c4960448201526b11105513d497d411549253d160a21b6064820152608401620006a0565b620015ca83836e1d985b1a59185d1bdc94195c9a5bd9608a1b8462002ef3565b6000763d602d80600a3d3981f3363d3d373d3d3d363d730000008260601b60e81c176000526e5af43d82803e903d91602b57fd5bf38260781b17602052603760096000f090506001600160a01b03811662003fc35760405162461bcd60e51b8152602060048201526016602482015275115490cc4c4d8dce8818dc99585d194819985a5b195960521b6044820152606401620006a0565b919050565b604080518082019091526001815260006020820181905262003ff09186918691819062003733565b6200401a83671c995b19585cd95960c21b62004010621275004262005407565b8792919062002ef3565b827f6cc873968ba5c560db266aea333bf3b836de0031c3be1d57c3ab7618880a045283836200404d621275004262005407565b604051620030dd93929190620052c7565b60006200406c868662000a63565b6040516348b4aac360e11b815260006004820152600160248201526044810186905260648101859052608481018490526001600160a01b039190911690639169558690869060a4016020604051808303818588803b158015620040ce57600080fd5b505af1158015620040e3573d6000803e3d6000fd5b50505050506040513d601f19601f8201168201806040525081019062003afd919062004b81565b6000846003016000620041298462004123888862003b07565b62003b07565b81526020810191909152604001600020546001600160a01b031695945050505050565b835460405163fcd295e360e01b81526001600160a01b038381166004830152602482018590529091169063fcd295e39060440160206040518083038186803b1580156200419857600080fd5b505afa158015620041ad573d6000803e3d6000fd5b505050506040513d601f19601f82011682018060405250810190620041d3919062004b61565b156200421a5760405162461bcd60e51b815260206004820152601560248201527453553a20616c726561647920696e7465726661636560581b6044820152606401620006a0565b62004235838369696e746572666163657360b01b84620046ce565b83546040516327b03e0160e21b81526001600160a01b038381166004830152602482018590526001604483015290911690639ec0f80490606401600060405180830381600087803b1580156200428a57600080fd5b505af11580156200429f573d6000803e3d6000fd5b5050505050505050565b6000670de0b6b3a7640000821015620043145760405162461bcd60e51b815260206004820152602660248201527f4465706f736974436f6e74726163743a206465706f7369742076616c756520746044820152656f6f206c6f7760d01b6064820152608401620006a0565b62004324633b9aca0083620054f9565b156200438f5760405162461bcd60e51b815260206004820152603360248201527f4465706f736974436f6e74726163743a206465706f7369742076616c7565206e6044820152726f74206d756c7469706c65206f66206777656960681b6064820152608401620006a0565b6000620043a1633b9aca008462005422565b905060006002620043b28862004744565b604051620043c1919062005160565b602060405180830381855afa158015620043df573d6000803e3d6000fd5b5050506040513d601f19601f8201168201806040525081019062004404919062004b81565b905060006002806200441a8860006040620047e0565b60405162004429919062005160565b602060405180830381855afa15801562004447573d6000803e3d6000fd5b5050506040513d601f19601f820116820180604052508101906200446c919062004b81565b6002620044926200448c8a6040620044868160606200545b565b620047e0565b62004744565b604051620044a1919062005160565b602060405180830381855afa158015620044bf573d6000803e3d6000fd5b5050506040513d601f19601f82011682018060405250810190620044e4919062004b81565b60408051602081019390935282015260600160408051601f1981840301815290829052620045129162005160565b602060405180830381855afa15801562004530573d6000803e3d6000fd5b5050506040513d601f19601f8201168201806040525081019062004555919062004b81565b90506000600280848a6040516020016200457192919062005128565b60408051601f19818403018152908290526200458d9162005160565b602060405180830381855afa158015620045ab573d6000803e3d6000fd5b5050506040513d601f19601f82011682018060405250810190620045d0919062004b81565b6002620045dd87620048f9565b604080516020810192909252810186905260600160408051601f19818403018152908290526200460d9162005160565b602060405180830381855afa1580156200462b573d6000803e3d6000fd5b5050506040513d601f19601f8201168201806040525081019062004650919062004b81565b60408051602081019390935282015260600160408051601f19818403018152908290526200467e9162005160565b602060405180830381855afa1580156200469c573d6000803e3d6000fd5b5050506040513d601f19601f82011682018060405250810190620046c1919062004b81565b9998505050505050505050565b6000620046dc848462003b07565b60008181526001870160205260408120805492935084926003890192916200470b91908362003d6683620054db565b815260200190815260200160002060006101000a8154816001600160a01b0302191690836001600160a01b031602179055505050505050565b606060208251101580156200475b57506040825111155b6200476a576200476a62005510565b81516040141562004779575090565b60408051602080825281830190925260009160208201818036833701905050905060006020820152825160201415620047b857620012c7838262004946565b620012c783620047d4836000875160406200448691906200545b565b62004946565b50919050565b606081620047f081601f62005407565b1015620048315760405162461bcd60e51b815260206004820152600e60248201526d736c6963655f6f766572666c6f7760901b6044820152606401620006a0565b6200483d828462005407565b84511015620048835760405162461bcd60e51b8152602060048201526011602482015270736c6963655f6f75744f66426f756e647360781b6044820152606401620006a0565b606082158015620048a45760405191506000825260208201604052620048f0565b6040519150601f8416801560200281840101858101878315602002848b0101015b81831015620048df578051835260209283019201620048c5565b5050858452601f01601f1916604052505b50949350505050565b600081815b60088110156200492b57600892831b60ff831617929190911c906200492381620054db565b9050620048fe565b5080156200493d576200493d62005510565b5060c01b919050565b6060806040519050835180825260208201818101602087015b81831015620049795780518352602092830192016200495f565b50855184518101855292509050808201602086015b81831015620049a85780518352602092830192016200498e565b508651929092011591909101601f01601f191660405250905092915050565b828054620049d590620054a4565b90600052602060002090601f016020900481019282620049f9576000855562004a44565b82601f1062004a1457805160ff191683800117855562004a44565b8280016001018555821562004a44579182015b8281111562004a4457825182559160200191906001019062004a27565b5062004a5292915062004a64565b5090565b610735806200559183390190565b5b8082111562004a52576000815560010162004a65565b806060810183101562000a8557600080fd5b60008083601f84011262004aa057600080fd5b50813567ffffffffffffffff81111562004ab957600080fd5b6020830191508360208260051b850101111562004ad557600080fd5b9250929050565b60008083601f84011262004aef57600080fd5b50813567ffffffffffffffff81111562004b0857600080fd5b60208301915083602082850101111562004ad557600080fd5b60006020828403121562004b3457600080fd5b8151620012c78162005568565b60006020828403121562004b5457600080fd5b8135620012c78162005581565b60006020828403121562004b7457600080fd5b8151620012c78162005581565b60006020828403121562004b9457600080fd5b5051919050565b6000806040838503121562004baf57600080fd5b50508035926020909101359150565b60008060006060848603121562004bd457600080fd5b8335925060208401359150604084013562004bef8162005568565b809150509250925092565b6000806000806000806080878903121562004c1457600080fd5b8635955060208701359450604087013567ffffffffffffffff8082111562004c3b57600080fd5b62004c498a838b0162004a8d565b9096509450606089013591508082111562004c6357600080fd5b5062004c7289828a0162004a8d565b979a9699509497509295939492505050565b60008060006060848603121562004c9a57600080fd5b8335925060208401359150604084013562004bef8162005581565b60008060006060848603121562004ccb57600080fd5b505081359360208301359350604090920135919050565b600080600080600060a0868803121562004cfb57600080fd5b85359450602086013593506040860135925060608601359150608086013562004d248162005568565b809150509295509295909350565b6000806000806060858703121562004d4957600080fd5b8435935060208501359250604085013567ffffffffffffffff81111562004d6f57600080fd5b62004d7d8782880162004adc565b95989497509550505050565b6000806000806080858703121562004da057600080fd5b843593506020850135925060408501359150606085013562004dc28162005568565b939692955090935050565b60008060008060006080868803121562004de657600080fd5b853594506020860135935060408601359250606086013567ffffffffffffffff81111562004e1357600080fd5b62004e218882890162004a8d565b969995985093965092949392505050565b60008060008060008060008060008060006101608c8e03121562004e5557600080fd5b8b359a5060208c0135995060408c0135985060608c0135975060808c013562004e7e8162005568565b965062004e8f60a08d013562005568565b60a08c0135955067ffffffffffffffff8060c08e0135111562004eb157600080fd5b62004ec38e60c08f01358f0162004adc565b909650945060e08d013581101562004eda57600080fd5b5062004eed8d60e08e01358e0162004adc565b909350915062004f028d6101008e0162004a7b565b90509295989b509295989b9093969950565b60008060008060008060008060008060e08b8d03121562004f3457600080fd5b8a35995060208b0135985060408b0135975060608b0135965060808b013567ffffffffffffffff8082111562004f6957600080fd5b62004f778e838f0162004a8d565b909850965060a08d013591508082111562004f9157600080fd5b62004f9f8e838f0162004a8d565b909650945060c08d013591508082111562004fb957600080fd5b5062004fc88d828e0162004a8d565b915080935050809150509295989b9194979a5092959850565b60008060008060008060c0878903121562004ffb57600080fd5b863595506020870135945060408701359350606087013592506080870135915060a08701356200502b8162005568565b809150509295509295509295565b81835260006020808501808196508560051b810191508460005b87811015620050c45782840389528135601e198836030181126200507657600080fd5b8701803567ffffffffffffffff8111156200509057600080fd5b803603891315620050a057600080fd5b620050af8682898501620050d1565b9a87019a955050509084019060010162005053565b5091979650505050505050565b81835281816020850137506000828201602090810191909152601f909101601f19169091010190565b600081518084526200511481602086016020860162005475565b601f01601f19169290920160200192915050565b828152600082516200514281602085016020870162005475565b919091016020019392505050565b8183823760009101908152919050565b600082516200517481846020870162005475565b9190910192915050565b600082516200519281846020870162005475565b6e16a3b2b7b232902628102a37b5b2b760891b920191825250600f01919050565b60008251620051c781846020870162005475565b6202d4c560ec1b920191825250600301919050565b60008351620051f081846020880162005475565b9190910191825250602001919050565b6001600160a01b0394851681529290931660208301526040820152606081019190915260a06080820181905260009082015260c00190565b6001600160a01b03831681526040602082018190526000906200111490830184620050fa565b6020815260006200111460208301848662005039565b6080815260006200528a608083018789620050d1565b82810360208401526200529e8187620050fa565b90508281036040840152620052b48186620050fa565b9150508260608301529695505050505050565b604081526000620052dd604083018587620050d1565b9050826020830152949350505050565b600060018060a01b03808916835287602084015260c060408401526200531760c0840188620050fa565b83810360608501526200532b8188620050fa565b9582166080850152509290921660a09091015250949350505050565b60208082526014908201527314d54e8815165411481393d508185b1b1bddd95960621b604082015260600190565b8381526001600160a01b03831660208201526060604082018190526000906200111190830184620050fa565b8381526040602082015260006200111160408301848662005039565b6000808335601e19843603018112620053d557600080fd5b83018035915067ffffffffffffffff821115620053f157600080fd5b60200191503681900382131562004ad557600080fd5b600082198211156200541d576200541d62005526565b500190565b6000826200543457620054346200553c565b500490565b600081600019048311821515161562005456576200545662005526565b500290565b60008282101562005470576200547062005526565b500390565b60005b838110156200549257818101518382015260200162005478565b8381111562001a3a5750506000910152565b600181811c90821680620054b957607f821691505b60208210811415620047da57634e487b7160e01b600052602260045260246000fd5b6000600019821415620054f257620054f262005526565b5060010190565b6000826200550b576200550b6200553c565b500690565b634e487b7160e01b600052600160045260246000fd5b634e487b7160e01b600052601160045260246000fd5b634e487b7160e01b600052601260045260246000fd5b634e487b7160e01b600052603260045260246000fd5b6001600160a01b03811681146200557e57600080fd5b50565b80151581146200557e57600080fdfe6080604052604051610735380380610735833981016040819052610022916102dc565b61002e82826000610035565b505061043b565b61003e8361006b565b60008251118061004b5750805b156100665761006483836100ab60201b6100291760201c565b505b505050565b610074816100d7565b6040516001600160a01b038216907fbc7cd75a20ee27fd9adebab32041f755214dbc6bffa90cc0225b39da2e5c2d3b90600090a250565b60606100d0838360405180606001604052806027815260200161070e602791396101a9565b9392505050565b6100ea8161022260201b6100551760201c565b6101515760405162461bcd60e51b815260206004820152602d60248201527f455243313936373a206e657720696d706c656d656e746174696f6e206973206e60448201526c1bdd08184818dbdb9d1c9858dd609a1b60648201526084015b60405180910390fd5b806101887f360894a13ba1a3210667c828492db98dca3e2076cc3735a920a3ca505d382bbc60001b61023160201b6100641760201c565b80546001600160a01b0319166001600160a01b039290921691909117905550565b6060600080856001600160a01b0316856040516101c691906103aa565b600060405180830381855af49150503d8060008114610201576040519150601f19603f3d011682016040523d82523d6000602084013e610206565b606091505b50909250905061021886838387610234565b9695505050505050565b6001600160a01b03163b151590565b90565b606083156102a0578251610299576001600160a01b0385163b6102995760405162461bcd60e51b815260206004820152601d60248201527f416464726573733a2063616c6c20746f206e6f6e2d636f6e74726163740000006044820152606401610148565b50816102aa565b6102aa83836102b2565b949350505050565b8151156102c25781518083602001fd5b8060405162461bcd60e51b815260040161014891906103c6565b600080604083850312156102ef57600080fd5b82516001600160a01b038116811461030657600080fd5b60208401519092506001600160401b038082111561032357600080fd5b818501915085601f83011261033757600080fd5b81518181111561034957610349610425565b604051601f8201601f19908116603f0116810190838211818310171561037157610371610425565b8160405282815288602084870101111561038a57600080fd5b61039b8360208301602088016103f9565b80955050505050509250929050565b600082516103bc8184602087016103f9565b9190910192915050565b60208152600082518060208401526103e58160408501602087016103f9565b601f01601f19169190910160400192915050565b60005b838110156104145781810151838201526020016103fc565b838111156100645750506000910152565b634e487b7160e01b600052604160045260246000fd5b6102c48061044a6000396000f3fe60806040523661001357610011610017565b005b6100115b610027610022610067565b61009f565b565b606061004e8383604051806060016040528060278152602001610268602791396100c3565b9392505050565b6001600160a01b03163b151590565b90565b600061009a7f360894a13ba1a3210667c828492db98dca3e2076cc3735a920a3ca505d382bbc546001600160a01b031690565b905090565b3660008037600080366000845af43d6000803e8080156100be573d6000f35b3d6000fd5b6060600080856001600160a01b0316856040516100e091906101e8565b600060405180830381855af49150503d806000811461011b576040519150601f19603f3d011682016040523d82523d6000602084013e610120565b606091505b50915091506101318683838761013b565b9695505050505050565b606083156101ac5782516101a5576001600160a01b0385163b6101a55760405162461bcd60e51b815260206004820152601d60248201527f416464726573733a2063616c6c20746f206e6f6e2d636f6e747261637400000060448201526064015b60405180910390fd5b50816101b6565b6101b683836101be565b949350505050565b8151156101ce5781518083602001fd5b8060405162461bcd60e51b815260040161019c9190610204565b600082516101fa818460208701610237565b9190910192915050565b6020815260008251806020840152610223816040850160208701610237565b601f01601f19169190910160400192915050565b60005b8381101561025257818101518382015260200161023a565b83811115610261576000848401525b5050505056fe416464726573733a206c6f772d6c6576656c2064656c65676174652063616c6c206661696c6564a264697066735822122051cce14dd9337037379bd43ee81331c1b371dbeb3f61c2ba0ccdb3ad0e551a9664736f6c63430008070033416464726573733a206c6f772d6c6576656c2064656c65676174652063616c6c206661696c6564a264697066735822122016b8fe79fe5d4d863c2dc7fc32acd13d9774941730bcfee93ecdbdcfee81955964736f6c63430008070033",
  "devdoc": {
    "author": "Icebear & Crash Bandicoot",
    "details": "It is important to keep every pool isolated and remember that every validator is unique.Controllers and Maintainers: * CONTROLLER is the owner of an ID, it manages the pool or the operator and its security is exteremely important. * maintainer is the worker, can be used to automate some daily tasks * * like distributing validators for Staking Pools or creating validators for Operators, * * not so crucial in terms of security.Reserved ID_TYPE: USERS: * Type 4 : Permissioned Operators * * Needs to be onboarded by the Dual Governance (Senate + Governance). * * Maintains Beacon Chain Validators on behalf of the Staking Pools. * * Can participate in the Operator Marketplace after initiation. * * Can utilize maintainers for staking operations. * Type 5 : Configurable Staking Pools * * Permissionless to create. * * Can utilize powers of modules such as Bound Liquidity Pools, Interfaces etc. * * Can be public or private, can use a whitelist if private. * * Can utilize maintainers for validator distribution on Operator Marketplace. * * Uses a Withdrawal Contract to be given as withdrawalCredential on validator creation, * * accruing rewards and keeping Staked Ether safe and isolated. DEFAULT MODULES: * Some Modules has only 1 version that can be used by the Pool Owners. * Type 21 : Withdrawal Contract implementation version * * Mandatory. * * CONTROLLER is the implementation contract position (like always) * * Requires the approval of Senate * * Pools are in \"Recovery Mode\" until their Withdrawal Contract is upgraded. * * * Meaning, no more Depositing or Staking can happen. * Type 41 : Liquidity Pool version * * Optional. * * CONTROLLER is the implementation contract position (like always) * * Requires the approval of Senate. * * Pools can simply deploy the new version of this Module and start using it, if ever changed. * * Liquidity Providers however, need to migrate. * Type 42 : Liquidity Pool Token version * * Optional, dependant to Liquidity Pool Module. * * CONTROLLER is the implementation contract position (like always) * * Requires the approval of Senate * * Crucial to have the same name with the LP version ALLOWED MODULES: * Some Modules can support many different versions that can be used by the Pool Owners. * Type 31 : gETH interface version * * Optional. * * CONTROLLER is the implementation contract position (like always) * * Requires the approval of Senate * * Currently should be utilized on initiation.Contracts relying on this library must initialize StakeUtils.PooledStakingFunctions are already protected with authenticationfirst review DataStoreUtilsthen review GeodeUtils",
    "kind": "dev",
    "methods": {
      "batchApproveOperators(DataStoreUtils.IsolatedStorage storage,uint256,uint256[],uint256[])": {
        "details": "When decreased the approved validator count below current active+proposed validators, operator can NOT create new validators.",
        "params": {
          "allowances": "the MAX number of validators that can be created by the Operator, for given Pool",
          "operatorIds": "array of Operator IDs to allow them create validators",
          "poolId": "the gETH id of the Pool"
        }
      },
      "beaconStake(StakeUtils.PooledStaking storage,DataStoreUtils.IsolatedStorage storage,uint256,bytes[])": {
        "details": "To save gas cost, pubkeys should be arranged by poolIds.  ex: [pk1, pk2, pk3, pk4, pk5, pk6, pk7]  pk1, pk2, pk3 from pool1  pk4, pk5 from pool2  pk6 from pool3  seperate them in similar groups as much as possible.Max number of validators to boostrap is MAX_DEPOSITS_PER_CALL (currently 64)A pubkey that is alienated will not get through. Do not frontrun during ProposeStake.",
        "params": {
          "operatorId": "the id of the Operator whose maintainer calling this function",
          "pubkeys": "Array of BLS12-381 public keys of the validators that are already proposed with ProposeStake."
        }
      },
      "blameOperator(StakeUtils.PooledStaking storage,DataStoreUtils.IsolatedStorage storage,bytes)": {
        "details": "anyone can call this functionif operator has given enough allowance, they SHOULD rotate the validators to avoid being prisoned"
      },
      "changeMaintainer(DataStoreUtils.IsolatedStorage storage,uint256,address)": {
        "details": "there can only be 1 maintainer per ID.it is wise to change the maintainer before the CONTROLLER, in case of any migration"
      },
      "decreaseWalletBalance(DataStoreUtils.IsolatedStorage storage,uint256,uint256)": {
        "details": "only CONTROLLER can decrease the balance externally,",
        "returns": {
          "success": "if the amount was sent and deducted"
        }
      },
      "deployLiquidityPool(StakeUtils.PooledStaking storage,DataStoreUtils.IsolatedStorage storage,uint256,address)": {
        "details": "sets the liquidity pool, LP token and liquidityPoolVersiongives full allowance to the pool, should not be a problem as portal does not hold any tokensa controller can deploy a liquidity pool after initiationa controller can deploy a new version of this module, but LPs would need to migrate",
        "params": {
          "_GOVERNANCE": "governance address will be the owner of the created pool."
        }
      },
      "deposit(StakeUtils.PooledStaking storage,DataStoreUtils.IsolatedStorage storage,uint256,uint256,uint256,address)": {
        "details": "an example for minting + buybacks * Buys from DWP if price is low -debt-, mints new tokens if surplus is sent -more than debt- // debt  msgValue // 100   10  => buyback // 100   100 => buyback // 10    100 => buyback + mint // 1     x   => mint // 0.5   x   => mint // 0     x   => mint",
        "params": {
          "deadline": "liquidity pool parameter",
          "mingETH": "liquidity pool parameter",
          "poolId": "id of the staking pool, liquidity pool and gETH to be used."
        }
      },
      "gETHInterfaces(DataStoreUtils.IsolatedStorage storage,uint256,uint256)": {
        "details": "for future referance: unsetted interfaces SHOULD return address(0)"
      },
      "getMaintenanceFee(DataStoreUtils.IsolatedStorage storage,uint256)": {
        "returns": {
          "fee": "= percentage * PERCENTAGE_DENOMINATOR / 100"
        }
      },
      "increaseWalletBalance(DataStoreUtils.IsolatedStorage storage,uint256)": {
        "details": "anyone can increase the balance directly, useful for withdrawalContracts and fees etc."
      },
      "initiateOperator(DataStoreUtils.IsolatedStorage storage,uint256,uint256,uint256,address)": {
        "details": "operators can fund their internal wallet on initiation by simply sending some ether.",
        "params": {
          "fee": "as a percentage limited by MAX_MAINTENANCE_FEE, PERCENTAGE_DENOMINATOR is 100%",
          "maintainer": "an address that automates daily operations, a script, a contract...",
          "validatorPeriod": "the expected maximum staking interval. This value should between * MIN_VALIDATOR_PERIOD and MAX_VALIDATOR_PERIOD values defined as constants above. Operator can unstake at any given point before this period ends. If operator disobeys this rule, it can be prisoned with blameOperator()"
        }
      },
      "initiatePool(StakeUtils.PooledStaking storage,DataStoreUtils.IsolatedStorage storage,uint256,uint256,address,address,bytes,bytes,bool[3])": {
        "details": "checking only initiated is enough to validate that ID is not used. no need to check TYPE, CONTROLLER etc.requires exactly 1 validator worth of funds to be deposited on initiation - to prevent sybil attacks",
        "params": {
          "NAME": "used to generate an ID for the Pool",
          "_GOVERNANCE": "needed in case the Pool is configured with a Bound Liquidity Pool",
          "config": "[private(true) or public(false), deploying an interface with given version, deploying liquidity pool with latest version]",
          "fee": "as a percentage limited by MAX_MAINTENANCE_FEE, PERCENTAGE_DENOMINATOR is 100%",
          "interfaceVersion": "Pool creators can choose any allowed version as their gETHInterface",
          "interface_data": "interfaces might require additional data on initialization; like name, symbol, etc.",
          "maintainer": "an address that automates daily operations, a script, a contract... not really powerful."
        }
      },
      "isPriceValid(StakeUtils.PooledStaking storage,uint256)": {
        "details": "known bug / feature: if there have been no oracle updates, * this function will return true. lastupdate + PRICE_EXPIRY >= block.timestamp ? true    : lastupdate >= self.ORACLE_UPDATE_TIMESTAMP ? true    : false"
      },
      "isPrisoned(DataStoreUtils.IsolatedStorage storage,uint256)": {
        "details": "\"released\" key refers to the end of the last imprisonment, when the limitations of operator is lifted"
      },
      "isWhitelisted(DataStoreUtils.IsolatedStorage storage,uint256,address)": {
        "details": "Owner of the pool doesn't need whitelistingOtherwise requires a whitelisting address to be set todo: add to portal"
      },
      "operatorAllowance(DataStoreUtils.IsolatedStorage storage,uint256,uint256)": {
        "details": "an operator can not create new validators if: * 1. allowance is 0 (zero) * 2. lower than the current (proposed + active) number of validators * But if operator withdraws a validator, then able to create a new one.prestake checks the approved validator count to make sure the number of validators are not bigger than allowanceallowance doesn't change when new validators created or old ones are unstaked."
      },
      "proposeStake(StakeUtils.PooledStaking storage,DataStoreUtils.IsolatedStorage storage,uint256,uint256,bytes[],bytes[],bytes[])": {
        "details": "DCU.DEPOSIT_AMOUNT_PRESTAKE = 1 ether, DCU.DEPOSIT_AMOUNT = 32 ether which is the minimum amount to create a validator. 31 Ether will be staked after verification of oracles. 32 in total. 1 ether will be sent back to Node Operator when the finalized deposit is successful.ProposeStake requires enough allowance from Staking Pools to Operators.ProposeStake requires enough funds within Wallet.Max number of validators to propose is per call is MAX_DEPOSITS_PER_CALL (currently 64)",
        "params": {
          "operatorId": "the id of the Operator whose maintainer calling this function",
          "poolId": "the id of the staking pool",
          "pubkeys": "Array of BLS12-381 public keys of the validators that will be proposed",
          "signatures1": "Array of BLS12-381 signatures that will be used to send 1 ETH from the Operator's maintainer balance",
          "signatures31": "Array of BLS12-381 signatures that will be used to send 31 ETH from pool on beaconStake"
        }
      },
      "setPoolVisibility(DataStoreUtils.IsolatedStorage storage,uint256,bool)": {
        "params": {
          "isPrivate": "true if pool should be private, false for public pools Note private pools can whitelist addresses with the help of a third party contract."
        }
      },
      "setWhitelist(DataStoreUtils.IsolatedStorage storage,uint256,address)": {
        "details": "Whitelisting contracts should implement IWhitelist interface."
      },
      "switchMaintenanceFee(DataStoreUtils.IsolatedStorage storage,uint256,uint256)": {
        "details": "advise that 100% == PERCENTAGE_DENOMINATOR"
      },
      "switchValidatorPeriod(DataStoreUtils.IsolatedStorage storage,uint256,uint256)": {
        "details": "limited by MIN_VALIDATOR_PERIOD and MAX_VALIDATOR_PERIOD"
      }
    },
    "title": "The Staking Library",
    "version": 1
  },
  "userdoc": {
    "events": {
      "IdInitiated(uint256,uint256)": {
        "notice": "EVENTS"
      }
    },
    "kind": "user",
    "methods": {
      "IGNORABLE_DEBT()": {
        "notice": "ignoring any buybacks if the Liquidity Pools has a low debt"
      },
      "MAX_EARLY_EXIT_FEE()": {
        "notice": "limiting EARLY_EXIT_FEE, 5%"
      },
      "MAX_MAINTENANCE_FEE()": {
        "notice": "limiting the pool and operator maintenance fee, 10%"
      },
      "MIN_VALIDATOR_PERIOD()": {
        "notice": "limiting the operator.validatorPeriod, between 3 months to 5 years"
      },
      "PRICE_EXPIRY()": {
        "notice": "price of gETH is only valid for 24H, after that minting is not allowed."
      },
      "PRISON_SENTENCE()": {
        "notice": "limiting the access for Operators in case of bad/malicious/faulty behaviour"
      },
      "SWITCH_LATENCY()": {
        "notice": "some parameter changes are effective after a delay"
      },
      "batchApproveOperators(DataStoreUtils.IsolatedStorage storage,uint256,uint256[],uint256[])": {
        "notice": "To allow a Node Operator run validators for your Pool with a given number of validators. * This number can be set again at any given point in the future."
      },
      "beaconStake(StakeUtils.PooledStaking storage,DataStoreUtils.IsolatedStorage storage,uint256,bytes[])": {
        "notice": "Sends 31 Eth from staking pool to validators that are previously created with ProposeStake.  1 Eth per successful validator boostraping is returned back to Wallet."
      },
      "blameOperator(StakeUtils.PooledStaking storage,DataStoreUtils.IsolatedStorage storage,bytes)": {
        "notice": "allows imprisoning an Operator if the validator have not been exited until expectedExit"
      },
      "canStake(StakeUtils.PooledStaking storage,DataStoreUtils.IsolatedStorage storage,bytes)": {
        "notice": "external function to check if a validator can use the pool funds"
      },
      "changeMaintainer(DataStoreUtils.IsolatedStorage storage,uint256,address)": {
        "notice": "CONTROLLER of the ID can change the maintainer to any address other than ZERO_ADDRESS"
      },
      "decreaseWalletBalance(DataStoreUtils.IsolatedStorage storage,uint256,uint256)": {
        "notice": "external function to decrease the internal wallet balance"
      },
      "deployLiquidityPool(StakeUtils.PooledStaking storage,DataStoreUtils.IsolatedStorage storage,uint256,address)": {
        "notice": "deploys a new liquidity pool using the latest version of MODULE_LIQUDITY_POOL"
      },
      "deposit(StakeUtils.PooledStaking storage,DataStoreUtils.IsolatedStorage storage,uint256,uint256,uint256,address)": {
        "notice": "Allowing users to deposit into a staking pool.If a pool is not public only the maintainer can deposit."
      },
      "gETHInterfaces(DataStoreUtils.IsolatedStorage storage,uint256,uint256)": {
        "notice": "access all interfaces of a given ID."
      },
      "getMaintenanceFee(DataStoreUtils.IsolatedStorage storage,uint256)": {
        "notice": "Gets fee as a percentage, PERCENTAGE_DENOMINATOR = 100%"
      },
      "increaseWalletBalance(DataStoreUtils.IsolatedStorage storage,uint256)": {
        "notice": "external function to increase the internal wallet balance"
      },
      "initiateOperator(DataStoreUtils.IsolatedStorage storage,uint256,uint256,uint256,address)": {
        "notice": "initiates ID as a Permissionned Node Operatorrequires ID to be approved as a node operator with a specific CONTROLLER"
      },
      "initiatePool(StakeUtils.PooledStaking storage,DataStoreUtils.IsolatedStorage storage,uint256,uint256,address,address,bytes,bytes,bool[3])": {
        "notice": "Creates a Configurable Trustless Staking Pool!"
      },
      "isMintingAllowed(StakeUtils.PooledStaking storage,DataStoreUtils.IsolatedStorage storage,uint256)": {
        "notice": "checks if staking is allowed in given staking poolstaking is not allowed if: 1. Price is not valid 2. WithdrawalContract is in Recovery Mode, can have many reasons"
      },
      "isPriceValid(StakeUtils.PooledStaking storage,uint256)": {
        "notice": "returns true if the price is valid: - last price syncinc happened less than 24h - there has been no oracle reports since the last update"
      },
      "isPrisoned(DataStoreUtils.IsolatedStorage storage,uint256)": {
        "notice": "Checks if the given operator is Prisoned"
      },
      "isPrivatePool(DataStoreUtils.IsolatedStorage storage,uint256)": {
        "notice": "returns true if the pool is private"
      },
      "isWhitelisted(DataStoreUtils.IsolatedStorage storage,uint256,address)": {
        "notice": "checks if the Whitelist allows staker to use given private pool"
      },
      "liquidityPoolById(DataStoreUtils.IsolatedStorage storage,uint256)": {
        "notice": "returns liquidityPool as a contract"
      },
      "operatorAllowance(DataStoreUtils.IsolatedStorage storage,uint256,uint256)": {
        "notice": "*operatorAllowance is the maximum number of validators that the given Operator is allowed to create on behalf of the Pool"
      },
      "proposeStake(StakeUtils.PooledStaking storage,DataStoreUtils.IsolatedStorage storage,uint256,uint256,bytes[],bytes[],bytes[])": {
        "notice": "Validator Credentials Proposal function, first step of crating validators. * Once a pubKey is proposed and not alienated after verificationIndex updated, * it is optimistically allowed to take funds from staking pools."
      },
      "setPoolVisibility(DataStoreUtils.IsolatedStorage storage,uint256,bool)": {
        "notice": "changes the visibility of the pool"
      },
      "setWhitelist(DataStoreUtils.IsolatedStorage storage,uint256,address)": {
        "notice": "private pools can whitelist addresses with the help of a third party contract"
      },
      "switchMaintenanceFee(DataStoreUtils.IsolatedStorage storage,uint256,uint256)": {
        "notice": "Changes the fee that is applied to the newly created validators, with A DELAY OF SWITCH_LATENCY. Note Can NOT be called again while its currently switching."
      },
      "switchValidatorPeriod(DataStoreUtils.IsolatedStorage storage,uint256,uint256)": {
        "notice": "updates validatorPeriod for given operator, with A DELAY OF SWITCH_LATENCY."
      },
      "withdrawalContractById(DataStoreUtils.IsolatedStorage storage,uint256)": {
        "notice": "returns WithdrawalContract as a contract"
      }
    },
    "notice": "Creating a global standard for Staking, allowing anyone to create a trustless staking pool, improving the user experience for stakers and removing the need for intermediaries. * Exclusively contains functions related to: * 1. Modular Architecture of Configurable Staking Pools * 2. Operator Marketplace and Staking Operations.",
    "version": 1
  },
  "storageLayout": {
    "storage": [],
    "types": null
  }
}