{
  "address": "0x8C9Cc17DFEEDcF94E3D7E2F23A1533BEa45Ea5db",
  "abi": [
    {
      "anonymous": false,
      "inputs": [
        {
          "indexed": true,
          "internalType": "address",
          "name": "provider",
          "type": "address"
        },
        {
          "indexed": false,
          "internalType": "uint256[2]",
          "name": "tokenAmounts",
          "type": "uint256[2]"
        },
        {
          "indexed": false,
          "internalType": "uint256[2]",
          "name": "fees",
          "type": "uint256[2]"
        },
        {
          "indexed": false,
          "internalType": "uint256",
          "name": "invariant",
          "type": "uint256"
        },
        {
          "indexed": false,
          "internalType": "uint256",
          "name": "lpTokenSupply",
          "type": "uint256"
        }
      ],
      "name": "AddLiquidity",
      "type": "event"
    },
    {
      "anonymous": false,
      "inputs": [
        {
          "indexed": false,
          "internalType": "uint8",
          "name": "version",
          "type": "uint8"
        }
      ],
      "name": "Initialized",
      "type": "event"
    },
    {
      "anonymous": false,
      "inputs": [
        {
          "indexed": false,
          "internalType": "uint256",
          "name": "newAdminFee",
          "type": "uint256"
        }
      ],
      "name": "NewAdminFee",
      "type": "event"
    },
    {
      "anonymous": false,
      "inputs": [
        {
          "indexed": false,
          "internalType": "uint256",
          "name": "newSwapFee",
          "type": "uint256"
        }
      ],
      "name": "NewSwapFee",
      "type": "event"
    },
    {
      "anonymous": false,
      "inputs": [
        {
          "indexed": false,
          "internalType": "uint256",
          "name": "newWithdrawFee",
          "type": "uint256"
        }
      ],
      "name": "NewWithdrawFee",
      "type": "event"
    },
    {
      "anonymous": false,
      "inputs": [
        {
          "indexed": true,
          "internalType": "address",
          "name": "previousOwner",
          "type": "address"
        },
        {
          "indexed": true,
          "internalType": "address",
          "name": "newOwner",
          "type": "address"
        }
      ],
      "name": "OwnershipTransferred",
      "type": "event"
    },
    {
      "anonymous": false,
      "inputs": [
        {
          "indexed": false,
          "internalType": "address",
          "name": "account",
          "type": "address"
        }
      ],
      "name": "Paused",
      "type": "event"
    },
    {
      "anonymous": false,
      "inputs": [
        {
          "indexed": false,
          "internalType": "uint256",
          "name": "oldA",
          "type": "uint256"
        },
        {
          "indexed": false,
          "internalType": "uint256",
          "name": "newA",
          "type": "uint256"
        },
        {
          "indexed": false,
          "internalType": "uint256",
          "name": "initialTime",
          "type": "uint256"
        },
        {
          "indexed": false,
          "internalType": "uint256",
          "name": "futureTime",
          "type": "uint256"
        }
      ],
      "name": "RampA",
      "type": "event"
    },
    {
      "anonymous": false,
      "inputs": [
        {
          "indexed": true,
          "internalType": "address",
          "name": "provider",
          "type": "address"
        },
        {
          "indexed": false,
          "internalType": "uint256[2]",
          "name": "tokenAmounts",
          "type": "uint256[2]"
        },
        {
          "indexed": false,
          "internalType": "uint256",
          "name": "lpTokenSupply",
          "type": "uint256"
        }
      ],
      "name": "RemoveLiquidity",
      "type": "event"
    },
    {
      "anonymous": false,
      "inputs": [
        {
          "indexed": true,
          "internalType": "address",
          "name": "provider",
          "type": "address"
        },
        {
          "indexed": false,
          "internalType": "uint256[2]",
          "name": "tokenAmounts",
          "type": "uint256[2]"
        },
        {
          "indexed": false,
          "internalType": "uint256[2]",
          "name": "fees",
          "type": "uint256[2]"
        },
        {
          "indexed": false,
          "internalType": "uint256",
          "name": "invariant",
          "type": "uint256"
        },
        {
          "indexed": false,
          "internalType": "uint256",
          "name": "lpTokenSupply",
          "type": "uint256"
        }
      ],
      "name": "RemoveLiquidityImbalance",
      "type": "event"
    },
    {
      "anonymous": false,
      "inputs": [
        {
          "indexed": true,
          "internalType": "address",
          "name": "provider",
          "type": "address"
        },
        {
          "indexed": false,
          "internalType": "uint256",
          "name": "lpTokenAmount",
          "type": "uint256"
        },
        {
          "indexed": false,
          "internalType": "uint256",
          "name": "lpTokenSupply",
          "type": "uint256"
        },
        {
          "indexed": false,
          "internalType": "uint256",
          "name": "boughtId",
          "type": "uint256"
        },
        {
          "indexed": false,
          "internalType": "uint256",
          "name": "tokensBought",
          "type": "uint256"
        }
      ],
      "name": "RemoveLiquidityOne",
      "type": "event"
    },
    {
      "anonymous": false,
      "inputs": [
        {
          "indexed": false,
          "internalType": "uint256",
          "name": "currentA",
          "type": "uint256"
        },
        {
          "indexed": false,
          "internalType": "uint256",
          "name": "time",
          "type": "uint256"
        }
      ],
      "name": "StopRampA",
      "type": "event"
    },
    {
      "anonymous": false,
      "inputs": [
        {
          "indexed": true,
          "internalType": "address",
          "name": "buyer",
          "type": "address"
        },
        {
          "indexed": false,
          "internalType": "uint256",
          "name": "tokensSold",
          "type": "uint256"
        },
        {
          "indexed": false,
          "internalType": "uint256",
          "name": "tokensBought",
          "type": "uint256"
        },
        {
          "indexed": false,
          "internalType": "uint128",
          "name": "soldId",
          "type": "uint128"
        },
        {
          "indexed": false,
          "internalType": "uint128",
          "name": "boughtId",
          "type": "uint128"
        }
      ],
      "name": "TokenSwap",
      "type": "event"
    },
    {
      "anonymous": false,
      "inputs": [
        {
          "indexed": false,
          "internalType": "address",
          "name": "account",
          "type": "address"
        }
      ],
      "name": "Unpaused",
      "type": "event"
    },
    {
      "inputs": [
        {
          "internalType": "uint256[2]",
          "name": "amounts",
          "type": "uint256[2]"
        },
        {
          "internalType": "uint256",
          "name": "minToMint",
          "type": "uint256"
        },
        {
          "internalType": "uint256",
          "name": "deadline",
          "type": "uint256"
        }
      ],
      "name": "addLiquidity",
      "outputs": [
        {
          "internalType": "uint256",
          "name": "",
          "type": "uint256"
        }
      ],
      "stateMutability": "payable",
      "type": "function"
    },
    {
      "inputs": [
        {
          "internalType": "uint256",
          "name": "amount",
          "type": "uint256"
        }
      ],
      "name": "calculateRemoveLiquidity",
      "outputs": [
        {
          "internalType": "uint256[2]",
          "name": "",
          "type": "uint256[2]"
        }
      ],
      "stateMutability": "view",
      "type": "function"
    },
    {
      "inputs": [
        {
          "internalType": "uint256",
          "name": "tokenAmount",
          "type": "uint256"
        },
        {
          "internalType": "uint8",
          "name": "tokenIndex",
          "type": "uint8"
        }
      ],
      "name": "calculateRemoveLiquidityOneToken",
      "outputs": [
        {
          "internalType": "uint256",
          "name": "availableTokenAmount",
          "type": "uint256"
        }
      ],
      "stateMutability": "view",
      "type": "function"
    },
    {
      "inputs": [
        {
          "internalType": "uint8",
          "name": "tokenIndexFrom",
          "type": "uint8"
        },
        {
          "internalType": "uint8",
          "name": "tokenIndexTo",
          "type": "uint8"
        },
        {
          "internalType": "uint256",
          "name": "dx",
          "type": "uint256"
        }
      ],
      "name": "calculateSwap",
      "outputs": [
        {
          "internalType": "uint256",
          "name": "",
          "type": "uint256"
        }
      ],
      "stateMutability": "view",
      "type": "function"
    },
    {
      "inputs": [
        {
          "internalType": "uint256[2]",
          "name": "amounts",
          "type": "uint256[2]"
        },
        {
          "internalType": "bool",
          "name": "deposit",
          "type": "bool"
        }
      ],
      "name": "calculateTokenAmount",
      "outputs": [
        {
          "internalType": "uint256",
          "name": "",
          "type": "uint256"
        }
      ],
      "stateMutability": "view",
      "type": "function"
    },
    {
      "inputs": [],
      "name": "getA",
      "outputs": [
        {
          "internalType": "uint256",
          "name": "",
          "type": "uint256"
        }
      ],
      "stateMutability": "view",
      "type": "function"
    },
    {
      "inputs": [],
      "name": "getAPrecise",
      "outputs": [
        {
          "internalType": "uint256",
          "name": "",
          "type": "uint256"
        }
      ],
      "stateMutability": "view",
      "type": "function"
    },
    {
      "inputs": [
        {
          "internalType": "uint256",
          "name": "index",
          "type": "uint256"
        }
      ],
      "name": "getAdminBalance",
      "outputs": [
        {
          "internalType": "uint256",
          "name": "",
          "type": "uint256"
        }
      ],
      "stateMutability": "view",
      "type": "function"
    },
    {
      "inputs": [],
      "name": "getDebt",
      "outputs": [
        {
          "internalType": "uint256",
          "name": "",
          "type": "uint256"
        }
      ],
      "stateMutability": "view",
      "type": "function"
    },
    {
      "inputs": [],
      "name": "getERC1155",
      "outputs": [
        {
          "internalType": "address",
          "name": "",
          "type": "address"
        }
      ],
      "stateMutability": "view",
      "type": "function"
    },
    {
      "inputs": [],
      "name": "getSwapFee",
      "outputs": [
        {
          "internalType": "uint256",
          "name": "",
          "type": "uint256"
        }
      ],
      "stateMutability": "view",
      "type": "function"
    },
    {
      "inputs": [],
      "name": "getToken",
      "outputs": [
        {
          "internalType": "uint256",
          "name": "",
          "type": "uint256"
        }
      ],
      "stateMutability": "view",
      "type": "function"
    },
    {
      "inputs": [
        {
          "internalType": "uint8",
          "name": "index",
          "type": "uint8"
        }
      ],
      "name": "getTokenBalance",
      "outputs": [
        {
          "internalType": "uint256",
          "name": "",
          "type": "uint256"
        }
      ],
      "stateMutability": "view",
      "type": "function"
    },
    {
      "inputs": [],
      "name": "getVirtualPrice",
      "outputs": [
        {
          "internalType": "uint256",
          "name": "",
          "type": "uint256"
        }
      ],
      "stateMutability": "view",
      "type": "function"
    },
    {
      "inputs": [
        {
          "internalType": "contract IgETH",
          "name": "_gETH",
          "type": "address"
        },
        {
          "internalType": "uint256",
          "name": "_pooledTokenId",
          "type": "uint256"
        },
        {
          "internalType": "string",
          "name": "lpTokenName",
          "type": "string"
        },
        {
          "internalType": "string",
          "name": "lpTokenSymbol",
          "type": "string"
        },
        {
          "internalType": "address",
          "name": "lpTokenTargetAddress",
          "type": "address"
        },
        {
          "internalType": "address",
          "name": "owner",
          "type": "address"
        }
      ],
      "name": "initialize",
      "outputs": [
        {
          "internalType": "address",
          "name": "",
          "type": "address"
        }
      ],
      "stateMutability": "nonpayable",
      "type": "function"
    },
    {
      "inputs": [
        {
          "internalType": "address",
          "name": "",
          "type": "address"
        },
        {
          "internalType": "address",
          "name": "",
          "type": "address"
        },
        {
          "internalType": "uint256[]",
          "name": "",
          "type": "uint256[]"
        },
        {
          "internalType": "uint256[]",
          "name": "",
          "type": "uint256[]"
        },
        {
          "internalType": "bytes",
          "name": "",
          "type": "bytes"
        }
      ],
      "name": "onERC1155BatchReceived",
      "outputs": [
        {
          "internalType": "bytes4",
          "name": "",
          "type": "bytes4"
        }
      ],
      "stateMutability": "nonpayable",
      "type": "function"
    },
    {
      "inputs": [
        {
          "internalType": "address",
          "name": "",
          "type": "address"
        },
        {
          "internalType": "address",
          "name": "",
          "type": "address"
        },
        {
          "internalType": "uint256",
          "name": "",
          "type": "uint256"
        },
        {
          "internalType": "uint256",
          "name": "",
          "type": "uint256"
        },
        {
          "internalType": "bytes",
          "name": "",
          "type": "bytes"
        }
      ],
      "name": "onERC1155Received",
      "outputs": [
        {
          "internalType": "bytes4",
          "name": "",
          "type": "bytes4"
        }
      ],
      "stateMutability": "nonpayable",
      "type": "function"
    },
    {
      "inputs": [],
      "name": "owner",
      "outputs": [
        {
          "internalType": "address",
          "name": "",
          "type": "address"
        }
      ],
      "stateMutability": "view",
      "type": "function"
    },
    {
      "inputs": [],
      "name": "pause",
      "outputs": [],
      "stateMutability": "nonpayable",
      "type": "function"
    },
    {
      "inputs": [],
      "name": "paused",
      "outputs": [
        {
          "internalType": "bool",
          "name": "",
          "type": "bool"
        }
      ],
      "stateMutability": "view",
      "type": "function"
    },
    {
      "inputs": [
        {
          "internalType": "uint256",
          "name": "futureA",
          "type": "uint256"
        },
        {
          "internalType": "uint256",
          "name": "futureTime",
          "type": "uint256"
        }
      ],
      "name": "rampA",
      "outputs": [],
      "stateMutability": "nonpayable",
      "type": "function"
    },
    {
      "inputs": [
        {
          "internalType": "uint256",
          "name": "amount",
          "type": "uint256"
        },
        {
          "internalType": "uint256[2]",
          "name": "minAmounts",
          "type": "uint256[2]"
        },
        {
          "internalType": "uint256",
          "name": "deadline",
          "type": "uint256"
        }
      ],
      "name": "removeLiquidity",
      "outputs": [
        {
          "internalType": "uint256[2]",
          "name": "",
          "type": "uint256[2]"
        }
      ],
      "stateMutability": "nonpayable",
      "type": "function"
    },
    {
      "inputs": [
        {
          "internalType": "uint256[2]",
          "name": "amounts",
          "type": "uint256[2]"
        },
        {
          "internalType": "uint256",
          "name": "maxBurnAmount",
          "type": "uint256"
        },
        {
          "internalType": "uint256",
          "name": "deadline",
          "type": "uint256"
        }
      ],
      "name": "removeLiquidityImbalance",
      "outputs": [
        {
          "internalType": "uint256",
          "name": "",
          "type": "uint256"
        }
      ],
      "stateMutability": "nonpayable",
      "type": "function"
    },
    {
      "inputs": [
        {
          "internalType": "uint256",
          "name": "tokenAmount",
          "type": "uint256"
        },
        {
          "internalType": "uint8",
          "name": "tokenIndex",
          "type": "uint8"
        },
        {
          "internalType": "uint256",
          "name": "minAmount",
          "type": "uint256"
        },
        {
          "internalType": "uint256",
          "name": "deadline",
          "type": "uint256"
        }
      ],
      "name": "removeLiquidityOneToken",
      "outputs": [
        {
          "internalType": "uint256",
          "name": "",
          "type": "uint256"
        }
      ],
      "stateMutability": "nonpayable",
      "type": "function"
    },
    {
      "inputs": [],
      "name": "renounceOwnership",
      "outputs": [],
      "stateMutability": "nonpayable",
      "type": "function"
    },
    {
      "inputs": [
        {
          "internalType": "uint256",
          "name": "newAdminFee",
          "type": "uint256"
        }
      ],
      "name": "setAdminFee",
      "outputs": [],
      "stateMutability": "nonpayable",
      "type": "function"
    },
    {
      "inputs": [
        {
          "internalType": "uint256",
          "name": "newSwapFee",
          "type": "uint256"
        }
      ],
      "name": "setSwapFee",
      "outputs": [],
      "stateMutability": "nonpayable",
      "type": "function"
    },
    {
      "inputs": [],
      "name": "stopRampA",
      "outputs": [],
      "stateMutability": "nonpayable",
      "type": "function"
    },
    {
      "inputs": [
        {
          "internalType": "bytes4",
          "name": "interfaceId",
          "type": "bytes4"
        }
      ],
      "name": "supportsInterface",
      "outputs": [
        {
          "internalType": "bool",
          "name": "",
          "type": "bool"
        }
      ],
      "stateMutability": "view",
      "type": "function"
    },
    {
      "inputs": [
        {
          "internalType": "uint8",
          "name": "tokenIndexFrom",
          "type": "uint8"
        },
        {
          "internalType": "uint8",
          "name": "tokenIndexTo",
          "type": "uint8"
        },
        {
          "internalType": "uint256",
          "name": "dx",
          "type": "uint256"
        },
        {
          "internalType": "uint256",
          "name": "minDy",
          "type": "uint256"
        },
        {
          "internalType": "uint256",
          "name": "deadline",
          "type": "uint256"
        }
      ],
      "name": "swap",
      "outputs": [
        {
          "internalType": "uint256",
          "name": "",
          "type": "uint256"
        }
      ],
      "stateMutability": "payable",
      "type": "function"
    },
    {
      "inputs": [],
      "name": "swapStorage",
      "outputs": [
        {
          "internalType": "contract IgETH",
          "name": "gETH",
          "type": "address"
        },
        {
          "internalType": "contract ILPToken",
          "name": "lpToken",
          "type": "address"
        },
        {
          "internalType": "uint256",
          "name": "pooledTokenId",
          "type": "uint256"
        },
        {
          "internalType": "uint256",
          "name": "initialA",
          "type": "uint256"
        },
        {
          "internalType": "uint256",
          "name": "futureA",
          "type": "uint256"
        },
        {
          "internalType": "uint256",
          "name": "initialATime",
          "type": "uint256"
        },
        {
          "internalType": "uint256",
          "name": "futureATime",
          "type": "uint256"
        },
        {
          "internalType": "uint256",
          "name": "swapFee",
          "type": "uint256"
        },
        {
          "internalType": "uint256",
          "name": "adminFee",
          "type": "uint256"
        }
      ],
      "stateMutability": "view",
      "type": "function"
    },
    {
      "inputs": [
        {
          "internalType": "address",
          "name": "newOwner",
          "type": "address"
        }
      ],
      "name": "transferOwnership",
      "outputs": [],
      "stateMutability": "nonpayable",
      "type": "function"
    },
    {
      "inputs": [],
      "name": "unpause",
      "outputs": [],
      "stateMutability": "nonpayable",
      "type": "function"
    },
    {
      "inputs": [],
      "name": "withdrawAdminFees",
      "outputs": [],
      "stateMutability": "nonpayable",
      "type": "function"
    }
  ],
  "transactionHash": "0xa537c056624f94d1c6dd1dc5b67a2c3b8479631c700d3b6c46c8fb30f0b65d0a",
  "args": [],
  "numDeployments": 1,
  "solcInputHash": "ade6b4939fda34d609e172906ec4e12a",
  "bytecode": "0x608060405234801561001057600080fd5b5061252d806100206000396000f3fe6080604052600436106101f95760003560e01c80638456cb591161010d578063c4db7fa0116100a0578063e25aa5fa1161006f578063e25aa5fa146105f3578063ef0a712f14610608578063f23a6e6114610628578063f2fad2b614610654578063f2fde38b1461067457600080fd5b8063c4db7fa014610586578063d46300fd1461059b578063d4cadf68146105b0578063d6f0df62146105c657600080fd5b806391ceb3eb116100dc57806391ceb3eb146104e1578063a95b089f14610501578063bc197c8114610521578063bfc65c9b1461056657600080fd5b80638456cb591461047b5780638beb60b6146104905780638da5cb5b146104b057806391695586146104ce57600080fd5b80633e3a1560116101905780635c975abb1161015f5780635c975abb146103735780635fd65f0f1461038b578063715018a6146104265780637e0ccbff1461043b578063820fc5bd1461045b57600080fd5b80633e3a15601461030b5780633f4ba83a1461032b57806346eda74914610340578063593d132c1461035357600080fd5b806314a6bf0f116101cc57806314a6bf0f146102a057806321df0da7146102b5578063342a87a1146102cb57806334e19907146102eb57600080fd5b806301ffc9a7146101fe5780630419b45a146102335780630526930c1461024a5780630ba819591461027d575b600080fd5b34801561020a57600080fd5b5061021e61021936600461200f565b610694565b60405190151581526020015b60405180910390f35b34801561023f57600080fd5b506102486106cb565b005b34801561025657600080fd5b5061015f546001600160a01b03165b6040516001600160a01b03909116815260200161022a565b34801561028957600080fd5b50610292610773565b60405190815260200161022a565b3480156102ac57600080fd5b50610292610785565b3480156102c157600080fd5b5061016154610292565b3480156102d757600080fd5b506102926102e6366004612169565b61080d565b3480156102f757600080fd5b506102486103063660046120df565b6108ac565b34801561031757600080fd5b50610292610326366004612195565b610923565b34801561033757600080fd5b50610248610a0f565b61029261034e366004611f36565b610a1f565b34801561035f57600080fd5b5061024861036e366004612147565b610aec565b34801561037f57600080fd5b5060655460ff1661021e565b34801561039757600080fd5b5061015f5461016054610161546101625461016354610164546101655461016654610167546103d7986001600160a01b0390811698169695949392919089565b604080516001600160a01b039a8b1681529990981660208a0152968801959095526060870193909352608086019190915260a085015260c084015260e08301526101008201526101200161022a565b34801561043257600080fd5b50610248610b05565b34801561044757600080fd5b50610292610456366004611efe565b610b17565b34801561046757600080fd5b50610265610476366004612039565b610b57565b34801561048757600080fd5b50610248610f5e565b34801561049c57600080fd5b506102486104ab3660046120df565b610f6e565b3480156104bc57600080fd5b506033546001600160a01b0316610265565b6102926104dc366004612227565b610fb6565b3480156104ed57600080fd5b506102926104fc3660046121d0565b6110a2565b34801561050d57600080fd5b5061029261051c3660046121eb565b611116565b34801561052d57600080fd5b5061054d61053c366004611de7565b63bc197c8160e01b95945050505050565b6040516001600160e01b0319909116815260200161022a565b34801561057257600080fd5b50610292610581366004611f36565b6111b5565b34801561059257600080fd5b50610248611225565b3480156105a757600080fd5b50610292611238565b3480156105bc57600080fd5b5061016654610292565b3480156105d257600080fd5b506105e66105e1366004612111565b611245565b60405161022a91906122c1565b3480156105ff57600080fd5b50610292611302565b34801561061457600080fd5b506102926106233660046120df565b61133e565b34801561063457600080fd5b5061054d610643366004611e95565b63f23a6e6160e01b95945050505050565b34801561066057600080fd5b506105e661066f3660046120df565b6113cc565b34801561068057600080fd5b5061024861068f366004611dca565b61145e565b60006001600160e01b03198216630271189760e51b14806106c557506301ffc9a760e01b6001600160e01b03198316145b92915050565b6106d36114d7565b6106db611531565b7309a50EBa3B933bDc5ab83b519dA81c3A41a98e8e6324c5c75161015f61070a6033546001600160a01b031690565b6040516001600160e01b031960e085901b16815260048101929092526001600160a01b0316602482015260440160006040518083038186803b15801561074f57600080fd5b505af4158015610763573d6000803e3d6000fd5b505050506107716001609755565b565b600061078061015f611592565b905090565b60405163550670c360e11b815261015f60048201526000907309a50EBa3B933bDc5ab83b519dA81c3A41a98e8e9063aa0ce186906024015b60206040518083038186803b1580156107d557600080fd5b505af41580156107e9573d6000803e3d6000fd5b505050506040513d601f19601f8201168201806040525081019061078091906120f8565b60405163703493a160e11b815261015f60048201526024810183905260ff821660448201526000907309a50EBa3B933bDc5ab83b519dA81c3A41a98e8e9063e0692742906064015b60206040518083038186803b15801561086d57600080fd5b505af4158015610881573d6000803e3d6000fd5b505050506040513d601f19601f820116820180604052508101906108a591906120f8565b9392505050565b6108b46114d7565b60405163119f861b60e21b815261015f6004820152602481018290527309a50EBa3B933bDc5ab83b519dA81c3A41a98e8e9063467e186c906044015b60006040518083038186803b15801561090857600080fd5b505af415801561091c573d6000803e3d6000fd5b5050505050565b600061092d611531565b61093561159d565b818042111561095f5760405162461bcd60e51b815260040161095690612362565b60405180910390fd5b60405163e7a4db8160e01b815261015f60048201526024810187905260ff86166044820152606481018590527309a50EBa3B933bDc5ab83b519dA81c3A41a98e8e9063e7a4db819060840160206040518083038186803b1580156109c257600080fd5b505af41580156109d6573d6000803e3d6000fd5b505050506040513d601f19601f820116820180604052508101906109fa91906120f8565b915050610a076001609755565b949350505050565b610a176114d7565b6107716115e3565b6000610a29611531565b610a3161159d565b8180421115610a525760405162461bcd60e51b815260040161095690612362565b60405163a596460760e01b81527309a50EBa3B933bDc5ab83b519dA81c3A41a98e8e9063a596460790610a8f9061015f90899089906004016123b1565b60206040518083038186803b158015610aa757600080fd5b505af4158015610abb573d6000803e3d6000fd5b505050506040513d601f19601f82011682018060405250810190610adf91906120f8565b9150506108a56001609755565b610af46114d7565b610b0161015f8383611635565b5050565b610b0d6114d7565b6107716000611881565b6040516337b8b34360e01b81526000907309a50EBa3B933bDc5ab83b519dA81c3A41a98e8e906337b8b343906108559061015f9087908790600401612392565b60008054610100900460ff1615808015610b785750600054600160ff909116105b80610b925750303b158015610b92575060005460ff166001145b610bf55760405162461bcd60e51b815260206004820152602e60248201527f496e697469616c697a61626c653a20636f6e747261637420697320616c72656160448201526d191e481a5b9a5d1a585b1a5e995960921b6064820152608401610956565b6000805460ff191660011790558015610c18576000805461ff0019166101001790555b610c206118d3565b610c28611912565b610c30611941565b6001600160a01b038416610c995760405162461bcd60e51b815260206004820152602a60248201527f537761703a206c70546f6b656e546172676574416464726573732063616e206e6044820152696f74206265207a65726f60b01b6064820152608401610956565b6001600160a01b038316610cef5760405162461bcd60e51b815260206004820152601b60248201527f537761703a206f776e65722063616e206e6f74206265207a65726f00000000006044820152606401610956565b6001600160a01b038816610d455760405162461bcd60e51b815260206004820152601b60248201527f537761703a205f674554482063616e206e6f74206265207a65726f00000000006044820152606401610956565b86610d9e5760405162461bcd60e51b8152602060048201526024808201527f537761703a205f706f6f6c6564546f6b656e49642063616e206e6f74206265206044820152637a65726f60e01b6064820152608401610956565b6000610da985611968565b60405163266c45bb60e11b81529091506001600160a01b03821690634cd88b7690610dda908a908a906004016122f2565b602060405180830381600087803b158015610df457600080fd5b505af1158015610e08573d6000803e3d6000fd5b505050506040513d601f19601f82011682018060405250810190610e2c9190611ff2565b610e835760405162461bcd60e51b815260206004820152602260248201527f537761703a20636f756c64206e6f7420696e6974206c70546f6b656e20636c6f6044820152616e6560f01b6064820152608401610956565b61015f80546001600160a01b03808c166001600160a01b031992831617909255610160805492841692909116919091179055610161889055610ec76064603c61245c565b61016255610ed76064603c61245c565b61016355612710610eee6402540be400600461245c565b610ef8919061243a565b61016655600061016755610f0b8461145e565b91508015610f53576000805461ff0019169055604051600181527f7f26b83ff96e1f2b6a682f133852f6798a09c465da95921460cefb38474024989060200160405180910390a15b509695505050505050565b610f666114d7565b610771611a02565b610f766114d7565b604051633823393b60e11b815261015f6004820152602481018290527309a50EBa3B933bDc5ab83b519dA81c3A41a98e8e906370467276906044016108f0565b6000610fc0611531565b610fc861159d565b8180421115610fe95760405162461bcd60e51b815260040161095690612362565b60405163529cbd9160e11b815261015f600482015260ff80891660248301528716604482015260648101869052608481018590527309a50EBa3B933bDc5ab83b519dA81c3A41a98e8e9063a5397b229060a40160206040518083038186803b15801561105457600080fd5b505af4158015611068573d6000803e3d6000fd5b505050506040513d601f19601f8201168201806040525081019061108c91906120f8565b9150506110996001609755565b95945050505050565b600060028260ff16106110f75760405162461bcd60e51b815260206004820152601860248201527f537761703a20496e646578206f7574206f662072616e676500000000000000006044820152606401610956565b61016860ff83166002811061110e5761110e6124a8565b015492915050565b6040516312c8d80f60e21b815261015f600482015260ff808516602483015283166044820152606481018290526000907309a50EBa3B933bDc5ab83b519dA81c3A41a98e8e90634b23603c9060840160206040518083038186803b15801561117d57600080fd5b505af4158015611191573d6000803e3d6000fd5b505050506040513d601f19601f82011682018060405250810190610a0791906120f8565b60006111bf611531565b6111c761159d565b81804211156111e85760405162461bcd60e51b815260040161095690612362565b60405163c36b87e960e01b81527309a50EBa3B933bDc5ab83b519dA81c3A41a98e8e9063c36b87e990610a8f9061015f90899089906004016123b1565b61122d6114d7565b61077161015f611a3f565b600061078061015f611b00565b61124d611c94565b611255611531565b81804211156112765760405162461bcd60e51b815260040161095690612362565b604051630503c75f60e21b81527309a50EBa3B933bDc5ab83b519dA81c3A41a98e8e9063140f1d7c906112b39061015f90899089906004016123d0565b604080518083038186803b1580156112ca57600080fd5b505af41580156112de573d6000803e3d6000fd5b505050506040513d601f19601f82011682018060405250810190610adf9190611f6a565b604051631c641b0b60e21b815261015f60048201526000907309a50EBa3B933bDc5ab83b519dA81c3A41a98e8e906371906c2c906024016107bd565b6040516303e8240b60e51b815261015f6004820152602481018290526000907309a50EBa3B933bDc5ab83b519dA81c3A41a98e8e90637d0481609060440160206040518083038186803b15801561139457600080fd5b505af41580156113a8573d6000803e3d6000fd5b505050506040513d601f19601f820116820180604052508101906106c591906120f8565b6113d4611c94565b6040516338381f2560e11b815261015f6004820152602481018390527309a50EBa3B933bDc5ab83b519dA81c3A41a98e8e906370703e4a90604401604080518083038186803b15801561142657600080fd5b505af415801561143a573d6000803e3d6000fd5b505050506040513d601f19601f820116820180604052508101906106c59190611f6a565b6114666114d7565b6001600160a01b0381166114cb5760405162461bcd60e51b815260206004820152602660248201527f4f776e61626c653a206e6577206f776e657220697320746865207a65726f206160448201526564647265737360d01b6064820152608401610956565b6114d481611881565b50565b6033546001600160a01b031633146107715760405162461bcd60e51b815260206004820181905260248201527f4f776e61626c653a2063616c6c6572206973206e6f7420746865206f776e65726044820152606401610956565b600260975414156115845760405162461bcd60e51b815260206004820152601f60248201527f5265656e7472616e637947756172643a207265656e7472616e742063616c6c006044820152606401610956565b6002609755565b6001609755565b60006106c582611b17565b60655460ff16156107715760405162461bcd60e51b815260206004820152601060248201526f14185d5cd8589b194e881c185d5cd95960821b6044820152606401610956565b6115eb611bc1565b6065805460ff191690557f5db9ee0a495bf2e6ff9c91a7834c1ba4fdd244a5e8aa4e537bd38aeae4b073aa335b6040516001600160a01b03909116815260200160405180910390a1565b60058301546116479062015180612422565b4210156116965760405162461bcd60e51b815260206004820152601f60248201527f57616974203120646179206265666f7265207374617274696e672072616d70006044820152606401610956565b6116a36212750042612422565b8110156116eb5760405162461bcd60e51b8152602060048201526016602482015275496e73756666696369656e742072616d702074696d6560501b6044820152606401610956565b6000821180156116fd5750620f424082105b6117495760405162461bcd60e51b815260206004820181905260248201527f667574757265415f206d757374206265203e203020616e64203c204d41585f416044820152606401610956565b600061175484611b17565b9050600061176360648561245c565b9050818110156117c4578161177960028361245c565b10156117bf5760405162461bcd60e51b8152602060048201526015602482015274199d5d1d5c995057c81a5cc81d1bdbc81cdb585b1b605a1b6044820152606401610956565b611816565b6117cf60028361245c565b8111156118165760405162461bcd60e51b8152602060048201526015602482015274667574757265415f20697320746f6f206c6172676560581b6044820152606401610956565b600385018290556004850181905542600586018190556006860184905560408051848152602081018490528082019290925260608201859052517fa2b71ec6df949300b59aab36b55e189697b750119dd349fcfa8c0f779e83c2549181900360800190a15050505050565b603380546001600160a01b038381166001600160a01b0319831681179093556040519116919082907f8be0079c531659141344cd1fd0a4f28419497f9722a3daafe3b4186f6b6457e090600090a35050565b600054610100900460ff166118fa5760405162461bcd60e51b815260040161095690612317565b611902611941565b61190a611c0a565b610771611c3a565b600054610100900460ff166119395760405162461bcd60e51b815260040161095690612317565b610771611c6d565b600054610100900460ff166107715760405162461bcd60e51b815260040161095690612317565b6000763d602d80600a3d3981f3363d3d373d3d3d363d730000008260601b60e81c176000526e5af43d82803e903d91602b57fd5bf38260781b17602052603760096000f090506001600160a01b0381166119fd5760405162461bcd60e51b8152602060048201526016602482015275115490cc4c4d8dce8818dc99585d194819985a5b195960521b6044820152606401610956565b919050565b611a0a61159d565b6065805460ff191660011790557f62e78cea01bee320cd4e420270b5ea74000d11b0c9f74754ebdbfc544b05a2586116183390565b42816006015411611a925760405162461bcd60e51b815260206004820152601760248201527f52616d7020697320616c72656164792073746f707065640000000000000000006044820152606401610956565b6000611a9d82611b17565b60038301819055600483018190554260058401819055600684018190556040519192507f46e22fb3709ad289f62ce63d469248536dbc78d82b84a3d7e74ad606dc20193891611af491848252602082015260400190565b60405180910390a15050565b60006064611b0d83611b17565b6106c5919061243a565b6006810154600482015460009190428211156108a5576005840154600385015480831115611b8557611b49828561247b565b611b53834261247b565b611b5d838661247b565b611b67919061245c565b611b71919061243a565b611b7b9082612422565b9695505050505050565b611b8f828561247b565b611b99834261247b565b611ba3858461247b565b611bad919061245c565b611bb7919061243a565b611b7b908261247b565b60655460ff166107715760405162461bcd60e51b815260206004820152601460248201527314185d5cd8589b194e881b9bdd081c185d5cd95960621b6044820152606401610956565b600054610100900460ff16611c315760405162461bcd60e51b815260040161095690612317565b61077133611881565b600054610100900460ff16611c615760405162461bcd60e51b815260040161095690612317565b6065805460ff19169055565b600054610100900460ff1661158b5760405162461bcd60e51b815260040161095690612317565b60405180604001604052806002906020820280368337509192915050565b80604081018310156106c557600080fd5b600082601f830112611cd457600080fd5b8135602067ffffffffffffffff821115611cf057611cf06124be565b8160051b611cff8282016123f1565b838152828101908684018388018501891015611d1a57600080fd5b600093505b85841015611d3d578035835260019390930192918401918401611d1f565b50979650505050505050565b600082601f830112611d5a57600080fd5b813567ffffffffffffffff811115611d7457611d746124be565b611d87601f8201601f19166020016123f1565b818152846020838601011115611d9c57600080fd5b816020850160208301376000918101602001919091529392505050565b803560ff811681146119fd57600080fd5b600060208284031215611ddc57600080fd5b81356108a5816124d4565b600080600080600060a08688031215611dff57600080fd5b8535611e0a816124d4565b94506020860135611e1a816124d4565b9350604086013567ffffffffffffffff80821115611e3757600080fd5b611e4389838a01611cc3565b94506060880135915080821115611e5957600080fd5b611e6589838a01611cc3565b93506080880135915080821115611e7b57600080fd5b50611e8888828901611d49565b9150509295509295909350565b600080600080600060a08688031215611ead57600080fd5b8535611eb8816124d4565b94506020860135611ec8816124d4565b93506040860135925060608601359150608086013567ffffffffffffffff811115611ef257600080fd5b611e8888828901611d49565b60008060608385031215611f1157600080fd5b611f1b8484611cb2565b91506040830135611f2b816124e9565b809150509250929050565b600080600060808486031215611f4b57600080fd5b611f558585611cb2565b95604085013595506060909401359392505050565b600060408284031215611f7c57600080fd5b82601f830112611f8b57600080fd5b6040516040810181811067ffffffffffffffff82111715611fae57611fae6124be565b8060405250808385604086011115611fc557600080fd5b60005b6002811015611fe7578151835260209283019290910190600101611fc8565b509195945050505050565b60006020828403121561200457600080fd5b81516108a5816124e9565b60006020828403121561202157600080fd5b81356001600160e01b0319811681146108a557600080fd5b60008060008060008060c0878903121561205257600080fd5b863561205d816124d4565b955060208701359450604087013567ffffffffffffffff8082111561208157600080fd5b61208d8a838b01611d49565b955060608901359150808211156120a357600080fd5b506120b089828a01611d49565b93505060808701356120c1816124d4565b915060a08701356120d1816124d4565b809150509295509295509295565b6000602082840312156120f157600080fd5b5035919050565b60006020828403121561210a57600080fd5b5051919050565b60008060006080848603121561212657600080fd5b833592506121378560208601611cb2565b9150606084013590509250925092565b6000806040838503121561215a57600080fd5b50508035926020909101359150565b6000806040838503121561217c57600080fd5b8235915061218c60208401611db9565b90509250929050565b600080600080608085870312156121ab57600080fd5b843593506121bb60208601611db9565b93969395505050506040820135916060013590565b6000602082840312156121e257600080fd5b6108a582611db9565b60008060006060848603121561220057600080fd5b61220984611db9565b925061221760208501611db9565b9150604084013590509250925092565b600080600080600060a0868803121561223f57600080fd5b61224886611db9565b945061225660208701611db9565b94979496505050506040830135926060810135926080909101359150565b6000815180845260005b8181101561229a5760208185018101518683018201520161227e565b818111156122ac576000602083870101525b50601f01601f19169290920160200192915050565b60408101818360005b60028110156122e95781518352602092830192909101906001016122ca565b50505092915050565b6040815260006123056040830185612274565b82810360208401526110998185612274565b6020808252602b908201527f496e697469616c697a61626c653a20636f6e7472616374206973206e6f74206960408201526a6e697469616c697a696e6760a81b606082015260800190565b60208082526016908201527514ddd85c0e88111958591b1a5b99481b9bdd081b595d60521b604082015260600190565b8381526080810160408460208401379115156060919091015292915050565b8381526080810160408460208401376060919091019190915292915050565b83815260208101839052608081016040838184013760008152949350505050565b604051601f8201601f1916810167ffffffffffffffff8111828210171561241a5761241a6124be565b604052919050565b6000821982111561243557612435612492565b500190565b60008261245757634e487b7160e01b600052601260045260246000fd5b500490565b600081600019048311821515161561247657612476612492565b500290565b60008282101561248d5761248d612492565b500390565b634e487b7160e01b600052601160045260246000fd5b634e487b7160e01b600052603260045260246000fd5b634e487b7160e01b600052604160045260246000fd5b6001600160a01b03811681146114d457600080fd5b80151581146114d457600080fdfea26469706673582212204a6536d57de9c08570942a7cc08efb0e203bf19235a317d6d21f2d3dc211155464736f6c63430008070033",
  "deployedBytecode": "0x6080604052600436106101f95760003560e01c80638456cb591161010d578063c4db7fa0116100a0578063e25aa5fa1161006f578063e25aa5fa146105f3578063ef0a712f14610608578063f23a6e6114610628578063f2fad2b614610654578063f2fde38b1461067457600080fd5b8063c4db7fa014610586578063d46300fd1461059b578063d4cadf68146105b0578063d6f0df62146105c657600080fd5b806391ceb3eb116100dc57806391ceb3eb146104e1578063a95b089f14610501578063bc197c8114610521578063bfc65c9b1461056657600080fd5b80638456cb591461047b5780638beb60b6146104905780638da5cb5b146104b057806391695586146104ce57600080fd5b80633e3a1560116101905780635c975abb1161015f5780635c975abb146103735780635fd65f0f1461038b578063715018a6146104265780637e0ccbff1461043b578063820fc5bd1461045b57600080fd5b80633e3a15601461030b5780633f4ba83a1461032b57806346eda74914610340578063593d132c1461035357600080fd5b806314a6bf0f116101cc57806314a6bf0f146102a057806321df0da7146102b5578063342a87a1146102cb57806334e19907146102eb57600080fd5b806301ffc9a7146101fe5780630419b45a146102335780630526930c1461024a5780630ba819591461027d575b600080fd5b34801561020a57600080fd5b5061021e61021936600461200f565b610694565b60405190151581526020015b60405180910390f35b34801561023f57600080fd5b506102486106cb565b005b34801561025657600080fd5b5061015f546001600160a01b03165b6040516001600160a01b03909116815260200161022a565b34801561028957600080fd5b50610292610773565b60405190815260200161022a565b3480156102ac57600080fd5b50610292610785565b3480156102c157600080fd5b5061016154610292565b3480156102d757600080fd5b506102926102e6366004612169565b61080d565b3480156102f757600080fd5b506102486103063660046120df565b6108ac565b34801561031757600080fd5b50610292610326366004612195565b610923565b34801561033757600080fd5b50610248610a0f565b61029261034e366004611f36565b610a1f565b34801561035f57600080fd5b5061024861036e366004612147565b610aec565b34801561037f57600080fd5b5060655460ff1661021e565b34801561039757600080fd5b5061015f5461016054610161546101625461016354610164546101655461016654610167546103d7986001600160a01b0390811698169695949392919089565b604080516001600160a01b039a8b1681529990981660208a0152968801959095526060870193909352608086019190915260a085015260c084015260e08301526101008201526101200161022a565b34801561043257600080fd5b50610248610b05565b34801561044757600080fd5b50610292610456366004611efe565b610b17565b34801561046757600080fd5b50610265610476366004612039565b610b57565b34801561048757600080fd5b50610248610f5e565b34801561049c57600080fd5b506102486104ab3660046120df565b610f6e565b3480156104bc57600080fd5b506033546001600160a01b0316610265565b6102926104dc366004612227565b610fb6565b3480156104ed57600080fd5b506102926104fc3660046121d0565b6110a2565b34801561050d57600080fd5b5061029261051c3660046121eb565b611116565b34801561052d57600080fd5b5061054d61053c366004611de7565b63bc197c8160e01b95945050505050565b6040516001600160e01b0319909116815260200161022a565b34801561057257600080fd5b50610292610581366004611f36565b6111b5565b34801561059257600080fd5b50610248611225565b3480156105a757600080fd5b50610292611238565b3480156105bc57600080fd5b5061016654610292565b3480156105d257600080fd5b506105e66105e1366004612111565b611245565b60405161022a91906122c1565b3480156105ff57600080fd5b50610292611302565b34801561061457600080fd5b506102926106233660046120df565b61133e565b34801561063457600080fd5b5061054d610643366004611e95565b63f23a6e6160e01b95945050505050565b34801561066057600080fd5b506105e661066f3660046120df565b6113cc565b34801561068057600080fd5b5061024861068f366004611dca565b61145e565b60006001600160e01b03198216630271189760e51b14806106c557506301ffc9a760e01b6001600160e01b03198316145b92915050565b6106d36114d7565b6106db611531565b73__$6fb038c7747560c9c1f610b0835b44650b$__6324c5c75161015f61070a6033546001600160a01b031690565b6040516001600160e01b031960e085901b16815260048101929092526001600160a01b0316602482015260440160006040518083038186803b15801561074f57600080fd5b505af4158015610763573d6000803e3d6000fd5b505050506107716001609755565b565b600061078061015f611592565b905090565b60405163550670c360e11b815261015f600482015260009073__$6fb038c7747560c9c1f610b0835b44650b$__9063aa0ce186906024015b60206040518083038186803b1580156107d557600080fd5b505af41580156107e9573d6000803e3d6000fd5b505050506040513d601f19601f8201168201806040525081019061078091906120f8565b60405163703493a160e11b815261015f60048201526024810183905260ff8216604482015260009073__$6fb038c7747560c9c1f610b0835b44650b$__9063e0692742906064015b60206040518083038186803b15801561086d57600080fd5b505af4158015610881573d6000803e3d6000fd5b505050506040513d601f19601f820116820180604052508101906108a591906120f8565b9392505050565b6108b46114d7565b60405163119f861b60e21b815261015f60048201526024810182905273__$6fb038c7747560c9c1f610b0835b44650b$__9063467e186c906044015b60006040518083038186803b15801561090857600080fd5b505af415801561091c573d6000803e3d6000fd5b5050505050565b600061092d611531565b61093561159d565b818042111561095f5760405162461bcd60e51b815260040161095690612362565b60405180910390fd5b60405163e7a4db8160e01b815261015f60048201526024810187905260ff861660448201526064810185905273__$6fb038c7747560c9c1f610b0835b44650b$__9063e7a4db819060840160206040518083038186803b1580156109c257600080fd5b505af41580156109d6573d6000803e3d6000fd5b505050506040513d601f19601f820116820180604052508101906109fa91906120f8565b915050610a076001609755565b949350505050565b610a176114d7565b6107716115e3565b6000610a29611531565b610a3161159d565b8180421115610a525760405162461bcd60e51b815260040161095690612362565b60405163a596460760e01b815273__$6fb038c7747560c9c1f610b0835b44650b$__9063a596460790610a8f9061015f90899089906004016123b1565b60206040518083038186803b158015610aa757600080fd5b505af4158015610abb573d6000803e3d6000fd5b505050506040513d601f19601f82011682018060405250810190610adf91906120f8565b9150506108a56001609755565b610af46114d7565b610b0161015f8383611635565b5050565b610b0d6114d7565b6107716000611881565b6040516337b8b34360e01b815260009073__$6fb038c7747560c9c1f610b0835b44650b$__906337b8b343906108559061015f9087908790600401612392565b60008054610100900460ff1615808015610b785750600054600160ff909116105b80610b925750303b158015610b92575060005460ff166001145b610bf55760405162461bcd60e51b815260206004820152602e60248201527f496e697469616c697a61626c653a20636f6e747261637420697320616c72656160448201526d191e481a5b9a5d1a585b1a5e995960921b6064820152608401610956565b6000805460ff191660011790558015610c18576000805461ff0019166101001790555b610c206118d3565b610c28611912565b610c30611941565b6001600160a01b038416610c995760405162461bcd60e51b815260206004820152602a60248201527f537761703a206c70546f6b656e546172676574416464726573732063616e206e6044820152696f74206265207a65726f60b01b6064820152608401610956565b6001600160a01b038316610cef5760405162461bcd60e51b815260206004820152601b60248201527f537761703a206f776e65722063616e206e6f74206265207a65726f00000000006044820152606401610956565b6001600160a01b038816610d455760405162461bcd60e51b815260206004820152601b60248201527f537761703a205f674554482063616e206e6f74206265207a65726f00000000006044820152606401610956565b86610d9e5760405162461bcd60e51b8152602060048201526024808201527f537761703a205f706f6f6c6564546f6b656e49642063616e206e6f74206265206044820152637a65726f60e01b6064820152608401610956565b6000610da985611968565b60405163266c45bb60e11b81529091506001600160a01b03821690634cd88b7690610dda908a908a906004016122f2565b602060405180830381600087803b158015610df457600080fd5b505af1158015610e08573d6000803e3d6000fd5b505050506040513d601f19601f82011682018060405250810190610e2c9190611ff2565b610e835760405162461bcd60e51b815260206004820152602260248201527f537761703a20636f756c64206e6f7420696e6974206c70546f6b656e20636c6f6044820152616e6560f01b6064820152608401610956565b61015f80546001600160a01b03808c166001600160a01b031992831617909255610160805492841692909116919091179055610161889055610ec76064603c61245c565b61016255610ed76064603c61245c565b61016355612710610eee6402540be400600461245c565b610ef8919061243a565b61016655600061016755610f0b8461145e565b91508015610f53576000805461ff0019169055604051600181527f7f26b83ff96e1f2b6a682f133852f6798a09c465da95921460cefb38474024989060200160405180910390a15b509695505050505050565b610f666114d7565b610771611a02565b610f766114d7565b604051633823393b60e11b815261015f60048201526024810182905273__$6fb038c7747560c9c1f610b0835b44650b$__906370467276906044016108f0565b6000610fc0611531565b610fc861159d565b8180421115610fe95760405162461bcd60e51b815260040161095690612362565b60405163529cbd9160e11b815261015f600482015260ff808916602483015287166044820152606481018690526084810185905273__$6fb038c7747560c9c1f610b0835b44650b$__9063a5397b229060a40160206040518083038186803b15801561105457600080fd5b505af4158015611068573d6000803e3d6000fd5b505050506040513d601f19601f8201168201806040525081019061108c91906120f8565b9150506110996001609755565b95945050505050565b600060028260ff16106110f75760405162461bcd60e51b815260206004820152601860248201527f537761703a20496e646578206f7574206f662072616e676500000000000000006044820152606401610956565b61016860ff83166002811061110e5761110e6124a8565b015492915050565b6040516312c8d80f60e21b815261015f600482015260ff8085166024830152831660448201526064810182905260009073__$6fb038c7747560c9c1f610b0835b44650b$__90634b23603c9060840160206040518083038186803b15801561117d57600080fd5b505af4158015611191573d6000803e3d6000fd5b505050506040513d601f19601f82011682018060405250810190610a0791906120f8565b60006111bf611531565b6111c761159d565b81804211156111e85760405162461bcd60e51b815260040161095690612362565b60405163c36b87e960e01b815273__$6fb038c7747560c9c1f610b0835b44650b$__9063c36b87e990610a8f9061015f90899089906004016123b1565b61122d6114d7565b61077161015f611a3f565b600061078061015f611b00565b61124d611c94565b611255611531565b81804211156112765760405162461bcd60e51b815260040161095690612362565b604051630503c75f60e21b815273__$6fb038c7747560c9c1f610b0835b44650b$__9063140f1d7c906112b39061015f90899089906004016123d0565b604080518083038186803b1580156112ca57600080fd5b505af41580156112de573d6000803e3d6000fd5b505050506040513d601f19601f82011682018060405250810190610adf9190611f6a565b604051631c641b0b60e21b815261015f600482015260009073__$6fb038c7747560c9c1f610b0835b44650b$__906371906c2c906024016107bd565b6040516303e8240b60e51b815261015f60048201526024810182905260009073__$6fb038c7747560c9c1f610b0835b44650b$__90637d0481609060440160206040518083038186803b15801561139457600080fd5b505af41580156113a8573d6000803e3d6000fd5b505050506040513d601f19601f820116820180604052508101906106c591906120f8565b6113d4611c94565b6040516338381f2560e11b815261015f60048201526024810183905273__$6fb038c7747560c9c1f610b0835b44650b$__906370703e4a90604401604080518083038186803b15801561142657600080fd5b505af415801561143a573d6000803e3d6000fd5b505050506040513d601f19601f820116820180604052508101906106c59190611f6a565b6114666114d7565b6001600160a01b0381166114cb5760405162461bcd60e51b815260206004820152602660248201527f4f776e61626c653a206e6577206f776e657220697320746865207a65726f206160448201526564647265737360d01b6064820152608401610956565b6114d481611881565b50565b6033546001600160a01b031633146107715760405162461bcd60e51b815260206004820181905260248201527f4f776e61626c653a2063616c6c6572206973206e6f7420746865206f776e65726044820152606401610956565b600260975414156115845760405162461bcd60e51b815260206004820152601f60248201527f5265656e7472616e637947756172643a207265656e7472616e742063616c6c006044820152606401610956565b6002609755565b6001609755565b60006106c582611b17565b60655460ff16156107715760405162461bcd60e51b815260206004820152601060248201526f14185d5cd8589b194e881c185d5cd95960821b6044820152606401610956565b6115eb611bc1565b6065805460ff191690557f5db9ee0a495bf2e6ff9c91a7834c1ba4fdd244a5e8aa4e537bd38aeae4b073aa335b6040516001600160a01b03909116815260200160405180910390a1565b60058301546116479062015180612422565b4210156116965760405162461bcd60e51b815260206004820152601f60248201527f57616974203120646179206265666f7265207374617274696e672072616d70006044820152606401610956565b6116a36212750042612422565b8110156116eb5760405162461bcd60e51b8152602060048201526016602482015275496e73756666696369656e742072616d702074696d6560501b6044820152606401610956565b6000821180156116fd5750620f424082105b6117495760405162461bcd60e51b815260206004820181905260248201527f667574757265415f206d757374206265203e203020616e64203c204d41585f416044820152606401610956565b600061175484611b17565b9050600061176360648561245c565b9050818110156117c4578161177960028361245c565b10156117bf5760405162461bcd60e51b8152602060048201526015602482015274199d5d1d5c995057c81a5cc81d1bdbc81cdb585b1b605a1b6044820152606401610956565b611816565b6117cf60028361245c565b8111156118165760405162461bcd60e51b8152602060048201526015602482015274667574757265415f20697320746f6f206c6172676560581b6044820152606401610956565b600385018290556004850181905542600586018190556006860184905560408051848152602081018490528082019290925260608201859052517fa2b71ec6df949300b59aab36b55e189697b750119dd349fcfa8c0f779e83c2549181900360800190a15050505050565b603380546001600160a01b038381166001600160a01b0319831681179093556040519116919082907f8be0079c531659141344cd1fd0a4f28419497f9722a3daafe3b4186f6b6457e090600090a35050565b600054610100900460ff166118fa5760405162461bcd60e51b815260040161095690612317565b611902611941565b61190a611c0a565b610771611c3a565b600054610100900460ff166119395760405162461bcd60e51b815260040161095690612317565b610771611c6d565b600054610100900460ff166107715760405162461bcd60e51b815260040161095690612317565b6000763d602d80600a3d3981f3363d3d373d3d3d363d730000008260601b60e81c176000526e5af43d82803e903d91602b57fd5bf38260781b17602052603760096000f090506001600160a01b0381166119fd5760405162461bcd60e51b8152602060048201526016602482015275115490cc4c4d8dce8818dc99585d194819985a5b195960521b6044820152606401610956565b919050565b611a0a61159d565b6065805460ff191660011790557f62e78cea01bee320cd4e420270b5ea74000d11b0c9f74754ebdbfc544b05a2586116183390565b42816006015411611a925760405162461bcd60e51b815260206004820152601760248201527f52616d7020697320616c72656164792073746f707065640000000000000000006044820152606401610956565b6000611a9d82611b17565b60038301819055600483018190554260058401819055600684018190556040519192507f46e22fb3709ad289f62ce63d469248536dbc78d82b84a3d7e74ad606dc20193891611af491848252602082015260400190565b60405180910390a15050565b60006064611b0d83611b17565b6106c5919061243a565b6006810154600482015460009190428211156108a5576005840154600385015480831115611b8557611b49828561247b565b611b53834261247b565b611b5d838661247b565b611b67919061245c565b611b71919061243a565b611b7b9082612422565b9695505050505050565b611b8f828561247b565b611b99834261247b565b611ba3858461247b565b611bad919061245c565b611bb7919061243a565b611b7b908261247b565b60655460ff166107715760405162461bcd60e51b815260206004820152601460248201527314185d5cd8589b194e881b9bdd081c185d5cd95960621b6044820152606401610956565b600054610100900460ff16611c315760405162461bcd60e51b815260040161095690612317565b61077133611881565b600054610100900460ff16611c615760405162461bcd60e51b815260040161095690612317565b6065805460ff19169055565b600054610100900460ff1661158b5760405162461bcd60e51b815260040161095690612317565b60405180604001604052806002906020820280368337509192915050565b80604081018310156106c557600080fd5b600082601f830112611cd457600080fd5b8135602067ffffffffffffffff821115611cf057611cf06124be565b8160051b611cff8282016123f1565b838152828101908684018388018501891015611d1a57600080fd5b600093505b85841015611d3d578035835260019390930192918401918401611d1f565b50979650505050505050565b600082601f830112611d5a57600080fd5b813567ffffffffffffffff811115611d7457611d746124be565b611d87601f8201601f19166020016123f1565b818152846020838601011115611d9c57600080fd5b816020850160208301376000918101602001919091529392505050565b803560ff811681146119fd57600080fd5b600060208284031215611ddc57600080fd5b81356108a5816124d4565b600080600080600060a08688031215611dff57600080fd5b8535611e0a816124d4565b94506020860135611e1a816124d4565b9350604086013567ffffffffffffffff80821115611e3757600080fd5b611e4389838a01611cc3565b94506060880135915080821115611e5957600080fd5b611e6589838a01611cc3565b93506080880135915080821115611e7b57600080fd5b50611e8888828901611d49565b9150509295509295909350565b600080600080600060a08688031215611ead57600080fd5b8535611eb8816124d4565b94506020860135611ec8816124d4565b93506040860135925060608601359150608086013567ffffffffffffffff811115611ef257600080fd5b611e8888828901611d49565b60008060608385031215611f1157600080fd5b611f1b8484611cb2565b91506040830135611f2b816124e9565b809150509250929050565b600080600060808486031215611f4b57600080fd5b611f558585611cb2565b95604085013595506060909401359392505050565b600060408284031215611f7c57600080fd5b82601f830112611f8b57600080fd5b6040516040810181811067ffffffffffffffff82111715611fae57611fae6124be565b8060405250808385604086011115611fc557600080fd5b60005b6002811015611fe7578151835260209283019290910190600101611fc8565b509195945050505050565b60006020828403121561200457600080fd5b81516108a5816124e9565b60006020828403121561202157600080fd5b81356001600160e01b0319811681146108a557600080fd5b60008060008060008060c0878903121561205257600080fd5b863561205d816124d4565b955060208701359450604087013567ffffffffffffffff8082111561208157600080fd5b61208d8a838b01611d49565b955060608901359150808211156120a357600080fd5b506120b089828a01611d49565b93505060808701356120c1816124d4565b915060a08701356120d1816124d4565b809150509295509295509295565b6000602082840312156120f157600080fd5b5035919050565b60006020828403121561210a57600080fd5b5051919050565b60008060006080848603121561212657600080fd5b833592506121378560208601611cb2565b9150606084013590509250925092565b6000806040838503121561215a57600080fd5b50508035926020909101359150565b6000806040838503121561217c57600080fd5b8235915061218c60208401611db9565b90509250929050565b600080600080608085870312156121ab57600080fd5b843593506121bb60208601611db9565b93969395505050506040820135916060013590565b6000602082840312156121e257600080fd5b6108a582611db9565b60008060006060848603121561220057600080fd5b61220984611db9565b925061221760208501611db9565b9150604084013590509250925092565b600080600080600060a0868803121561223f57600080fd5b61224886611db9565b945061225660208701611db9565b94979496505050506040830135926060810135926080909101359150565b6000815180845260005b8181101561229a5760208185018101518683018201520161227e565b818111156122ac576000602083870101525b50601f01601f19169290920160200192915050565b60408101818360005b60028110156122e95781518352602092830192909101906001016122ca565b50505092915050565b6040815260006123056040830185612274565b82810360208401526110998185612274565b6020808252602b908201527f496e697469616c697a61626c653a20636f6e7472616374206973206e6f74206960408201526a6e697469616c697a696e6760a81b606082015260800190565b60208082526016908201527514ddd85c0e88111958591b1a5b99481b9bdd081b595d60521b604082015260600190565b8381526080810160408460208401379115156060919091015292915050565b8381526080810160408460208401376060919091019190915292915050565b83815260208101839052608081016040838184013760008152949350505050565b604051601f8201601f1916810167ffffffffffffffff8111828210171561241a5761241a6124be565b604052919050565b6000821982111561243557612435612492565b500190565b60008261245757634e487b7160e01b600052601260045260246000fd5b500490565b600081600019048311821515161561247657612476612492565b500290565b60008282101561248d5761248d612492565b500390565b634e487b7160e01b600052601160045260246000fd5b634e487b7160e01b600052603260045260246000fd5b634e487b7160e01b600052604160045260246000fd5b6001600160a01b03811681146114d457600080fd5b80151581146114d457600080fdfea26469706673582212204a6536d57de9c08570942a7cc08efb0e203bf19235a317d6d21f2d3dc211155464736f6c63430008070033",
  "libraries": {
    "SwapUtils": "0x09a50EBa3B933bDc5ab83b519dA81c3A41a98e8e"
  },
  "devdoc": {
    "details": "Most of the logic is stored as a library `SwapUtils` for the sake of reducing contract's deployment size.The main functionality of Withdrawal Pools is allowing the depositors to have instant withdrawals relying on the Oracle Price, with the help of Liquidity Providers. It is important to change the focus point (1-1) of the pricing algorithm with PriceIn and PriceOut functions. Because the underlying price of the staked assets are expected to raise in time. One can see this similar to accomplishing a \"rebasing\" logic, with the help of a trusted price source.",
    "kind": "dev",
    "methods": {
      "addLiquidity(uint256[2],uint256,uint256)": {
        "params": {
          "amounts": "the amounts of each token to add, in their native precision",
          "deadline": "latest timestamp to accept this transaction",
          "minToMint": "the minimum LP tokens adding this amount of liquidity should mint, otherwise revert. Handy for front-running mitigation"
        },
        "returns": {
          "_0": "amount of LP token user minted and received"
        }
      },
      "calculateRemoveLiquidity(uint256)": {
        "params": {
          "amount": "the amount of LP tokens that would be burned on withdrawal"
        },
        "returns": {
          "_0": "array of token balances that the user will receive"
        }
      },
      "calculateRemoveLiquidityOneToken(uint256,uint8)": {
        "params": {
          "tokenAmount": "the amount of LP token to burn",
          "tokenIndex": "index of which token will be withdrawn"
        },
        "returns": {
          "availableTokenAmount": "calculated amount of underlying token available to withdraw"
        }
      },
      "calculateSwap(uint8,uint8,uint256)": {
        "params": {
          "dx": "the amount of tokens the user wants to sell. If the token charges a fee on transfers, use the amount that gets transferred after the fee.",
          "tokenIndexFrom": "the token the user wants to sell",
          "tokenIndexTo": "the token the user wants to buy"
        },
        "returns": {
          "_0": "amount of tokens the user will receive"
        }
      },
      "calculateTokenAmount(uint256[2],bool)": {
        "details": "This shouldn't be used outside frontends for user estimates.",
        "params": {
          "amounts": "an array of token amounts to deposit or withdrawal, corresponding to pooledTokens. The amount should be in each pooled token's native precision. If a token charges a fee on transfers, use the amount that gets transferred after the fee.",
          "deposit": "whether this is a deposit or a withdrawal"
        },
        "returns": {
          "_0": "token amount the user will receive"
        }
      },
      "getA()": {
        "details": "See the StableSwap paper for details",
        "returns": {
          "_0": "A parameter"
        }
      },
      "getAPrecise()": {
        "details": "See the StableSwap paper for details",
        "returns": {
          "_0": "A parameter in its raw precision form"
        }
      },
      "getAdminBalance(uint256)": {
        "params": {
          "index": "Index of the pooled token"
        },
        "returns": {
          "_0": "admin's token balance in the token's precision"
        }
      },
      "getDebt()": {
        "returns": {
          "_0": "debt the half of the D StableSwap invariant when debt is needed to be payed."
        }
      },
      "getSwapFee()": {
        "returns": {
          "_0": "id of the pooled gEther token"
        }
      },
      "getTokenBalance(uint8)": {
        "params": {
          "index": "the index of the token"
        },
        "returns": {
          "_0": "current balance of the pooled token at given index with token's native precision"
        }
      },
      "getVirtualPrice()": {
        "returns": {
          "_0": "the virtual price"
        }
      },
      "initialize(address,uint256,string,string,address,address)": {
        "params": {
          "_gETH": "reference of the ERC1155 contract",
          "_pooledTokenId": "gEther ID that the Pool is operating with",
          "lpTokenName": "the long-form name of the token to be deployed",
          "lpTokenSymbol": "the short symbol for the token to be deployed",
          "lpTokenTargetAddress": "the address of an existing LPToken contract to use as a target"
        }
      },
      "owner()": {
        "details": "Returns the address of the current owner."
      },
      "paused()": {
        "details": "Returns true if the contract is paused, and false otherwise."
      },
      "rampA(uint256,uint256)": {
        "params": {
          "futureA": "the new A to ramp towards",
          "futureTime": "timestamp when the new A should be reached"
        }
      },
      "removeLiquidity(uint256,uint256[2],uint256)": {
        "details": "Liquidity can always be removed, even when the pool is paused.",
        "params": {
          "amount": "the amount of LP tokens to burn",
          "deadline": "latest timestamp to accept this transaction",
          "minAmounts": "the minimum amounts of each token in the pool        acceptable for this burn. Useful as a front-running mitigation"
        },
        "returns": {
          "_0": "amounts of tokens user received"
        }
      },
      "removeLiquidityImbalance(uint256[2],uint256,uint256)": {
        "params": {
          "amounts": "how much of each token to withdraw",
          "deadline": "latest timestamp to accept this transaction",
          "maxBurnAmount": "the max LP token provider is willing to pay to remove liquidity. Useful as a front-running mitigation."
        },
        "returns": {
          "_0": "amount of LP tokens burned"
        }
      },
      "removeLiquidityOneToken(uint256,uint8,uint256,uint256)": {
        "params": {
          "deadline": "latest timestamp to accept this transaction",
          "minAmount": "the minimum amount to withdraw, otherwise revert",
          "tokenAmount": "the amount of the token you want to receive",
          "tokenIndex": "the index of the token you want to receive"
        },
        "returns": {
          "_0": "amount of chosen token user received"
        }
      },
      "renounceOwnership()": {
        "details": "Leaves the contract without owner. It will not be possible to call `onlyOwner` functions anymore. Can only be called by the current owner. NOTE: Renouncing ownership will leave the contract without an owner, thereby removing any functionality that is only available to the owner."
      },
      "setAdminFee(uint256)": {
        "params": {
          "newAdminFee": "new admin fee to be applied on future transactions"
        }
      },
      "setSwapFee(uint256)": {
        "params": {
          "newSwapFee": "new swap fee to be applied on future transactions"
        }
      },
      "supportsInterface(bytes4)": {
        "details": "See {IERC165-supportsInterface}."
      },
      "swap(uint8,uint8,uint256,uint256,uint256)": {
        "params": {
          "deadline": "latest timestamp to accept this transaction",
          "dx": "the amount of tokens the user wants to swap from",
          "minDy": "the min amount the user would like to receive, or revert.",
          "tokenIndexFrom": "the token the user wants to swap from",
          "tokenIndexTo": "the token the user wants to swap to"
        }
      },
      "transferOwnership(address)": {
        "details": "Transfers ownership of the contract to a new account (`newOwner`). Can only be called by the current owner."
      }
    },
    "title": "Swap - A StableSwap implementation in solidity.",
    "version": 1
  },
  "userdoc": {
    "kind": "user",
    "methods": {
      "addLiquidity(uint256[2],uint256,uint256)": {
        "notice": "Add liquidity to the pool with the given amounts of tokens"
      },
      "calculateRemoveLiquidity(uint256)": {
        "notice": "A simple method to calculate amount of each underlying tokens that is returned upon burning given amount of LP tokens"
      },
      "calculateRemoveLiquidityOneToken(uint256,uint8)": {
        "notice": "Calculate the amount of underlying token available to withdraw when withdrawing via only single token"
      },
      "calculateSwap(uint8,uint8,uint256)": {
        "notice": "Calculate amount of tokens you receive on swap"
      },
      "calculateTokenAmount(uint256[2],bool)": {
        "notice": "A simple method to calculate prices from deposits or withdrawals, excluding fees but including slippage. This is helpful as an input into the various \"min\" parameters on calls to fight front-running"
      },
      "getA()": {
        "notice": "Return A, the amplification coefficient * n * (n - 1)"
      },
      "getAPrecise()": {
        "notice": "Return A in its raw precision form"
      },
      "getAdminBalance(uint256)": {
        "notice": "This function reads the accumulated amount of admin fees of the token with given index"
      },
      "getDebt()": {
        "notice": "Debt, The amount of buyback for stable pricing (1=1)."
      },
      "getSwapFee()": {
        "notice": "Return id of the pooled token"
      },
      "getTokenBalance(uint8)": {
        "notice": "Return current balance of the pooled token at given index"
      },
      "getVirtualPrice()": {
        "notice": "Get the virtual price, to help calculate profit"
      },
      "initialize(address,uint256,string,string,address,address)": {
        "notice": "Initializes this Swap contract with the given parameters. This will also clone a LPToken contract that represents users' LP positions. The owner of LPToken will be this contract - which means only this contract is allowed to mint/burn tokens."
      },
      "pause()": {
        "notice": "Pause the contract. Revert if already paused."
      },
      "rampA(uint256,uint256)": {
        "notice": "Start ramping up or down A parameter towards given futureA and futureTime Checks if the change is too rapid, and commits the new A value only when it falls under the limit range."
      },
      "removeLiquidity(uint256,uint256[2],uint256)": {
        "notice": "Burn LP tokens to remove liquidity from the pool."
      },
      "removeLiquidityImbalance(uint256[2],uint256,uint256)": {
        "notice": "Remove liquidity from the pool, weighted differently than the pool's current balances."
      },
      "removeLiquidityOneToken(uint256,uint8,uint256,uint256)": {
        "notice": "Remove liquidity from the pool all in one token."
      },
      "setAdminFee(uint256)": {
        "notice": "Update the admin fee. Admin fee takes portion of the swap fee."
      },
      "setSwapFee(uint256)": {
        "notice": "Update the swap fee to be applied on swaps"
      },
      "stopRampA()": {
        "notice": "Stop ramping A immediately. Reverts if ramp A is already stopped."
      },
      "swap(uint8,uint8,uint256,uint256,uint256)": {
        "notice": "Swap two tokens using this pool"
      },
      "unpause()": {
        "notice": "Unpause the contract. Revert if already unpaused."
      },
      "withdrawAdminFees()": {
        "notice": "Withdraw all admin fees to the contract owner"
      }
    },
    "notice": "This contract is responsible for custody of closely pegged assets (eg. group of stablecoins) and automatic market making system. Users become an LP (Liquidity Provider) by depositing their tokens in desired ratios for an exchange of the pool token that represents their share of the pool. Users can burn pool tokens and withdraw their share of token(s). Each time a swap between the pooled tokens happens, a set fee incurs which effectively gets distributed to the LPs. In case of emergencies, admin can pause additional deposits, swaps, or single-asset withdraws - which stops the ratio of the tokens in the pool from changing. Users can always withdraw their tokens via multi-asset withdraws.",
    "version": 1
  },
  "storageLayout": {
    "storage": [
      {
        "astId": 527,
        "contract": "contracts/Portal/liquidityPool/Swap.sol:Swap",
        "label": "_initialized",
        "offset": 0,
        "slot": "0",
        "type": "t_uint8"
      },
      {
        "astId": 530,
        "contract": "contracts/Portal/liquidityPool/Swap.sol:Swap",
        "label": "_initializing",
        "offset": 1,
        "slot": "0",
        "type": "t_bool"
      },
      {
        "astId": 2331,
        "contract": "contracts/Portal/liquidityPool/Swap.sol:Swap",
        "label": "__gap",
        "offset": 0,
        "slot": "1",
        "type": "t_array(t_uint256)50_storage"
      },
      {
        "astId": 10,
        "contract": "contracts/Portal/liquidityPool/Swap.sol:Swap",
        "label": "_owner",
        "offset": 0,
        "slot": "51",
        "type": "t_address"
      },
      {
        "astId": 130,
        "contract": "contracts/Portal/liquidityPool/Swap.sol:Swap",
        "label": "__gap",
        "offset": 0,
        "slot": "52",
        "type": "t_array(t_uint256)49_storage"
      },
      {
        "astId": 846,
        "contract": "contracts/Portal/liquidityPool/Swap.sol:Swap",
        "label": "_paused",
        "offset": 0,
        "slot": "101",
        "type": "t_bool"
      },
      {
        "astId": 951,
        "contract": "contracts/Portal/liquidityPool/Swap.sol:Swap",
        "label": "__gap",
        "offset": 0,
        "slot": "102",
        "type": "t_array(t_uint256)49_storage"
      },
      {
        "astId": 966,
        "contract": "contracts/Portal/liquidityPool/Swap.sol:Swap",
        "label": "_status",
        "offset": 0,
        "slot": "151",
        "type": "t_uint256"
      },
      {
        "astId": 1024,
        "contract": "contracts/Portal/liquidityPool/Swap.sol:Swap",
        "label": "__gap",
        "offset": 0,
        "slot": "152",
        "type": "t_array(t_uint256)49_storage"
      },
      {
        "astId": 3198,
        "contract": "contracts/Portal/liquidityPool/Swap.sol:Swap",
        "label": "__gap",
        "offset": 0,
        "slot": "201",
        "type": "t_array(t_uint256)50_storage"
      },
      {
        "astId": 1190,
        "contract": "contracts/Portal/liquidityPool/Swap.sol:Swap",
        "label": "__gap",
        "offset": 0,
        "slot": "251",
        "type": "t_array(t_uint256)50_storage"
      },
      {
        "astId": 1136,
        "contract": "contracts/Portal/liquidityPool/Swap.sol:Swap",
        "label": "__gap",
        "offset": 0,
        "slot": "301",
        "type": "t_array(t_uint256)50_storage"
      },
      {
        "astId": 14941,
        "contract": "contracts/Portal/liquidityPool/Swap.sol:Swap",
        "label": "swapStorage",
        "offset": 0,
        "slot": "351",
        "type": "t_struct(Swap)16765_storage"
      }
    ],
    "types": {
      "t_address": {
        "encoding": "inplace",
        "label": "address",
        "numberOfBytes": "20"
      },
      "t_array(t_uint256)2_storage": {
        "base": "t_uint256",
        "encoding": "inplace",
        "label": "uint256[2]",
        "numberOfBytes": "64"
      },
      "t_array(t_uint256)49_storage": {
        "base": "t_uint256",
        "encoding": "inplace",
        "label": "uint256[49]",
        "numberOfBytes": "1568"
      },
      "t_array(t_uint256)50_storage": {
        "base": "t_uint256",
        "encoding": "inplace",
        "label": "uint256[50]",
        "numberOfBytes": "1600"
      },
      "t_array(t_uint256)8_storage": {
        "base": "t_uint256",
        "encoding": "inplace",
        "label": "uint256[8]",
        "numberOfBytes": "256"
      },
      "t_bool": {
        "encoding": "inplace",
        "label": "bool",
        "numberOfBytes": "1"
      },
      "t_contract(ILPToken)25812": {
        "encoding": "inplace",
        "label": "contract ILPToken",
        "numberOfBytes": "20"
      },
      "t_contract(IgETH)26862": {
        "encoding": "inplace",
        "label": "contract IgETH",
        "numberOfBytes": "20"
      },
      "t_struct(Swap)16765_storage": {
        "encoding": "inplace",
        "label": "struct SwapUtils.Swap",
        "members": [
          {
            "astId": 16739,
            "contract": "contracts/Portal/liquidityPool/Swap.sol:Swap",
            "label": "gETH",
            "offset": 0,
            "slot": "0",
            "type": "t_contract(IgETH)26862"
          },
          {
            "astId": 16742,
            "contract": "contracts/Portal/liquidityPool/Swap.sol:Swap",
            "label": "lpToken",
            "offset": 0,
            "slot": "1",
            "type": "t_contract(ILPToken)25812"
          },
          {
            "astId": 16744,
            "contract": "contracts/Portal/liquidityPool/Swap.sol:Swap",
            "label": "pooledTokenId",
            "offset": 0,
            "slot": "2",
            "type": "t_uint256"
          },
          {
            "astId": 16746,
            "contract": "contracts/Portal/liquidityPool/Swap.sol:Swap",
            "label": "initialA",
            "offset": 0,
            "slot": "3",
            "type": "t_uint256"
          },
          {
            "astId": 16748,
            "contract": "contracts/Portal/liquidityPool/Swap.sol:Swap",
            "label": "futureA",
            "offset": 0,
            "slot": "4",
            "type": "t_uint256"
          },
          {
            "astId": 16750,
            "contract": "contracts/Portal/liquidityPool/Swap.sol:Swap",
            "label": "initialATime",
            "offset": 0,
            "slot": "5",
            "type": "t_uint256"
          },
          {
            "astId": 16752,
            "contract": "contracts/Portal/liquidityPool/Swap.sol:Swap",
            "label": "futureATime",
            "offset": 0,
            "slot": "6",
            "type": "t_uint256"
          },
          {
            "astId": 16754,
            "contract": "contracts/Portal/liquidityPool/Swap.sol:Swap",
            "label": "swapFee",
            "offset": 0,
            "slot": "7",
            "type": "t_uint256"
          },
          {
            "astId": 16756,
            "contract": "contracts/Portal/liquidityPool/Swap.sol:Swap",
            "label": "adminFee",
            "offset": 0,
            "slot": "8",
            "type": "t_uint256"
          },
          {
            "astId": 16760,
            "contract": "contracts/Portal/liquidityPool/Swap.sol:Swap",
            "label": "balances",
            "offset": 0,
            "slot": "9",
            "type": "t_array(t_uint256)2_storage"
          },
          {
            "astId": 16764,
            "contract": "contracts/Portal/liquidityPool/Swap.sol:Swap",
            "label": "__gap",
            "offset": 0,
            "slot": "11",
            "type": "t_array(t_uint256)8_storage"
          }
        ],
        "numberOfBytes": "608"
      },
      "t_uint256": {
        "encoding": "inplace",
        "label": "uint256",
        "numberOfBytes": "32"
      },
      "t_uint8": {
        "encoding": "inplace",
        "label": "uint8",
        "numberOfBytes": "1"
      }
    }
  }
}