{
  "address": "0xabc595dE6CcEcCA5Af2f8262Bc55A34E05Cc7Dde",
  "abi": [
    {
      "anonymous": false,
      "inputs": [
        {
          "indexed": false,
          "internalType": "address",
          "name": "previousAdmin",
          "type": "address"
        },
        {
          "indexed": false,
          "internalType": "address",
          "name": "newAdmin",
          "type": "address"
        }
      ],
      "name": "AdminChanged",
      "type": "event"
    },
    {
      "anonymous": false,
      "inputs": [
        {
          "indexed": true,
          "internalType": "address",
          "name": "beacon",
          "type": "address"
        }
      ],
      "name": "BeaconUpgraded",
      "type": "event"
    },
    {
      "anonymous": false,
      "inputs": [
        {
          "indexed": false,
          "internalType": "uint256",
          "name": "version",
          "type": "uint256"
        }
      ],
      "name": "ContractVersionSet",
      "type": "event"
    },
    {
      "anonymous": false,
      "inputs": [
        {
          "indexed": false,
          "internalType": "uint256",
          "name": "id",
          "type": "uint256"
        },
        {
          "indexed": false,
          "internalType": "address",
          "name": "newCONTROLLER",
          "type": "address"
        }
      ],
      "name": "ControllerChanged",
      "type": "event"
    },
    {
      "anonymous": false,
      "inputs": [
        {
          "indexed": false,
          "internalType": "uint8",
          "name": "version",
          "type": "uint8"
        }
      ],
      "name": "Initialized",
      "type": "event"
    },
    {
      "anonymous": false,
      "inputs": [
        {
          "indexed": false,
          "internalType": "address",
          "name": "senate",
          "type": "address"
        },
        {
          "indexed": false,
          "internalType": "uint256",
          "name": "senateExpiry",
          "type": "uint256"
        }
      ],
      "name": "NewSenate",
      "type": "event"
    },
    {
      "anonymous": false,
      "inputs": [
        {
          "indexed": false,
          "internalType": "address",
          "name": "account",
          "type": "address"
        }
      ],
      "name": "Paused",
      "type": "event"
    },
    {
      "anonymous": false,
      "inputs": [
        {
          "indexed": false,
          "internalType": "uint256",
          "name": "id",
          "type": "uint256"
        }
      ],
      "name": "ProposalApproved",
      "type": "event"
    },
    {
      "anonymous": false,
      "inputs": [
        {
          "indexed": false,
          "internalType": "uint256",
          "name": "id",
          "type": "uint256"
        },
        {
          "indexed": false,
          "internalType": "address",
          "name": "CONTROLLER",
          "type": "address"
        },
        {
          "indexed": false,
          "internalType": "uint256",
          "name": "TYPE",
          "type": "uint256"
        },
        {
          "indexed": false,
          "internalType": "uint256",
          "name": "deadline",
          "type": "uint256"
        }
      ],
      "name": "Proposed",
      "type": "event"
    },
    {
      "anonymous": false,
      "inputs": [
        {
          "indexed": false,
          "internalType": "address",
          "name": "account",
          "type": "address"
        }
      ],
      "name": "Unpaused",
      "type": "event"
    },
    {
      "anonymous": false,
      "inputs": [
        {
          "indexed": true,
          "internalType": "address",
          "name": "implementation",
          "type": "address"
        }
      ],
      "name": "Upgraded",
      "type": "event"
    },
    {
      "stateMutability": "payable",
      "type": "fallback"
    },
    {
      "inputs": [
        {
          "internalType": "uint256",
          "name": "id",
          "type": "uint256"
        }
      ],
      "name": "approveProposal",
      "outputs": [
        {
          "internalType": "uint256",
          "name": "_type",
          "type": "uint256"
        },
        {
          "internalType": "address",
          "name": "_controller",
          "type": "address"
        }
      ],
      "stateMutability": "nonpayable",
      "type": "function"
    },
    {
      "inputs": [
        {
          "internalType": "address",
          "name": "_newSenate",
          "type": "address"
        }
      ],
      "name": "changeController",
      "outputs": [],
      "stateMutability": "nonpayable",
      "type": "function"
    },
    {
      "inputs": [],
      "name": "fetchUpgradeProposal",
      "outputs": [],
      "stateMutability": "nonpayable",
      "type": "function"
    },
    {
      "inputs": [],
      "name": "getContractVersion",
      "outputs": [
        {
          "internalType": "uint256",
          "name": "",
          "type": "uint256"
        }
      ],
      "stateMutability": "view",
      "type": "function"
    },
    {
      "inputs": [],
      "name": "getPoolId",
      "outputs": [
        {
          "internalType": "uint256",
          "name": "",
          "type": "uint256"
        }
      ],
      "stateMutability": "view",
      "type": "function"
    },
    {
      "inputs": [],
      "name": "getPortal",
      "outputs": [
        {
          "internalType": "contract IPortal",
          "name": "",
          "type": "address"
        }
      ],
      "stateMutability": "view",
      "type": "function"
    },
    {
      "inputs": [],
      "name": "getProposedVersion",
      "outputs": [
        {
          "internalType": "uint256",
          "name": "",
          "type": "uint256"
        }
      ],
      "stateMutability": "view",
      "type": "function"
    },
    {
      "inputs": [],
      "name": "getgETH",
      "outputs": [
        {
          "internalType": "contract IgETH",
          "name": "",
          "type": "address"
        }
      ],
      "stateMutability": "view",
      "type": "function"
    },
    {
      "inputs": [
        {
          "internalType": "uint256",
          "name": "_VERSION",
          "type": "uint256"
        },
        {
          "internalType": "uint256",
          "name": "_ID",
          "type": "uint256"
        },
        {
          "internalType": "address",
          "name": "_gETH",
          "type": "address"
        },
        {
          "internalType": "address",
          "name": "_PORTAL",
          "type": "address"
        },
        {
          "internalType": "address",
          "name": "_OWNER",
          "type": "address"
        }
      ],
      "name": "initialize",
      "outputs": [
        {
          "internalType": "bool",
          "name": "",
          "type": "bool"
        }
      ],
      "stateMutability": "nonpayable",
      "type": "function"
    },
    {
      "inputs": [
        {
          "internalType": "address",
          "name": "_CONTROLLER",
          "type": "address"
        },
        {
          "internalType": "uint256",
          "name": "_TYPE",
          "type": "uint256"
        },
        {
          "internalType": "bytes",
          "name": "_NAME",
          "type": "bytes"
        },
        {
          "internalType": "uint256",
          "name": "duration",
          "type": "uint256"
        }
      ],
      "name": "newProposal",
      "outputs": [],
      "stateMutability": "nonpayable",
      "type": "function"
    },
    {
      "inputs": [],
      "name": "pause",
      "outputs": [],
      "stateMutability": "nonpayable",
      "type": "function"
    },
    {
      "inputs": [],
      "name": "paused",
      "outputs": [
        {
          "internalType": "bool",
          "name": "",
          "type": "bool"
        }
      ],
      "stateMutability": "view",
      "type": "function"
    },
    {
      "inputs": [],
      "name": "proxiableUUID",
      "outputs": [
        {
          "internalType": "bytes32",
          "name": "",
          "type": "bytes32"
        }
      ],
      "stateMutability": "view",
      "type": "function"
    },
    {
      "inputs": [],
      "name": "recoveryMode",
      "outputs": [
        {
          "internalType": "bool",
          "name": "isRecovering",
          "type": "bool"
        }
      ],
      "stateMutability": "view",
      "type": "function"
    },
    {
      "inputs": [],
      "name": "unpause",
      "outputs": [],
      "stateMutability": "nonpayable",
      "type": "function"
    },
    {
      "inputs": [
        {
          "internalType": "address",
          "name": "newImplementation",
          "type": "address"
        }
      ],
      "name": "upgradeTo",
      "outputs": [],
      "stateMutability": "nonpayable",
      "type": "function"
    },
    {
      "inputs": [
        {
          "internalType": "address",
          "name": "newImplementation",
          "type": "address"
        },
        {
          "internalType": "bytes",
          "name": "data",
          "type": "bytes"
        }
      ],
      "name": "upgradeToAndCall",
      "outputs": [],
      "stateMutability": "payable",
      "type": "function"
    },
    {
      "stateMutability": "payable",
      "type": "receive"
    }
  ],
  "transactionHash": "0x8cc69d177219b8252530d9bf70d7b24a8d98cc1321aa1b13d87439a2eb22a8b4",
  "args": [],
  "numDeployments": 1,
  "solcInputHash": "ade6b4939fda34d609e172906ec4e12a",
  "bytecode": "0x60a06040523060601b60805234801561001757600080fd5b5060805160601c611bdf6100526000396000818161071f0152818161075f01528181610ad201528181610b120152610ba50152611bdf6000f3fe6080604052600436106100f65760003560e01c806352d1902d1161008f5780637d65a7ab116100615780637d65a7ab1461025b5780638456cb59146102705780638aa104351461028557806398951b561461029b578063ac7a7eb3146102d857005b806352d1902d146101e65780635c975abb146101fb57806366f788c614610213578063745653de1461024657005b80633cebb823116100c85780633cebb8231461017e5780633f4ba83a1461019e5780633fbfd4df146101b35780634f1ef286146101d357005b806307a00b1f146100ff57806317c6ebd5146101295780633659cfe61461013e57806338fff2d01461015e57005b366100fd57005b005b34801561010b57600080fd5b506101146102f8565b60405190151581526020015b60405180910390f35b34801561013557600080fd5b506100fd6104e8565b34801561014a57600080fd5b506100fd6101593660046116c6565b610714565b34801561016a57600080fd5b5061011c545b604051908152602001610120565b34801561018a57600080fd5b506100fd6101993660046116c6565b6107e0565b3480156101aa57600080fd5b506100fd610856565b3480156101bf57600080fd5b506101146101ce3660046118d9565b610914565b6100fd6101e1366004611700565b610ac7565b3480156101f257600080fd5b50610170610b98565b34801561020757600080fd5b5060655460ff16610114565b34801561021f57600080fd5b5061011b546001600160a01b03165b6040516001600160a01b039091168152602001610120565b34801561025257600080fd5b50610170610c4b565b34801561026757600080fd5b5061022e610ccf565b34801561027c57600080fd5b506100fd610d56565b34801561029157600080fd5b5061011d54610170565b3480156102a757600080fd5b506102bb6102b6366004611890565b610e12565b604080519283526001600160a01b03909116602083015201610120565b3480156102e457600080fd5b506100fd6102f33660046117c4565b610eb8565b6000610302610c4b565b61011d54141580610315575060655460ff165b80610455575060405163071a0e5560e21b815261010b600482015273d07A36C1d111A978f0626d19175E0453900d1F4D90631c6839549060240160206040518083038186803b15801561036757600080fd5b505af415801561037b573d6000803e3d6000fd5b505050506040513d601f19601f8201168201806040525081019061039f91906116e3565b6001600160a01b03166103b0610ccf565b6001600160a01b03166318f2ccde6103c861011c5490565b6040518263ffffffff1660e01b81526004016103f99181526921a7a72a2927a62622a960b11b602082015260400190565b60206040518083038186803b15801561041157600080fd5b505afa158015610425573d6000803e3d6000fd5b505050506040513d601f19601f8201168201806040525081019061044991906116e3565b6001600160a01b031614155b806104e35750604051636797415560e01b815261010b600482015273d07A36C1d111A978f0626d19175E0453900d1F4D9063679741559060240160206040518083038186803b1580156104a757600080fd5b505af41580156104bb573d6000803e3d6000fd5b505050506040513d601f19601f820116820180604052508101906104df9190611877565b4210155b905090565b60405163071a0e5560e21b815261010b600482015273d07A36C1d111A978f0626d19175E0453900d1F4D90631c6839549060240160206040518083038186803b15801561053457600080fd5b505af4158015610548573d6000803e3d6000fd5b505050506040513d601f19601f8201168201806040525081019061056c91906116e3565b6001600160a01b0316336001600160a01b0316146105a55760405162461bcd60e51b815260040161059c90611a6a565b60405180910390fd5b60006105af610ccf565b6001600160a01b031663b383a04461011c546040518263ffffffff1660e01b81526004016105df91815260200190565b602060405180830381600087803b1580156105f957600080fd5b505af115801561060d573d6000803e3d6000fd5b505050506040513d601f19601f820116820180604052508101906106319190611877565b905061063d61011d5490565b811415801561064b57508015155b6106aa5760405162461bcd60e51b815260206004820152602a60248201527f5769746864726177616c436f6e74726163743a2050524f504f5345445f56455260448201526929a4a7a71022a92927a960b11b606482015260840161059c565b6106b381610e12565b505061010f546106cb906001600160a01b0316610f56565b61010f54610711906001600160a01b031660005b6040519080825280601f01601f191660200182016040528015610709576020820181803683370190505b5060006110ff565b50565b306001600160a01b037f000000000000000000000000000000000000000000000000000000000000000016141561075d5760405162461bcd60e51b815260040161059c90611987565b7f00000000000000000000000000000000000000000000000000000000000000006001600160a01b03166107a6600080516020611b63833981519152546001600160a01b031690565b6001600160a01b0316146107cc5760405162461bcd60e51b815260040161059c906119d3565b6107d581610f56565b6107118160006106df565b60405163058ba25360e31b815261010b60048201526001600160a01b038216602482015273d07A36C1d111A978f0626d19175E0453900d1F4D90632c5d12989060440160006040518083038186803b15801561083b57600080fd5b505af415801561084f573d6000803e3d6000fd5b5050505050565b60405163071a0e5560e21b815261010b600482015273d07A36C1d111A978f0626d19175E0453900d1F4D90631c6839549060240160206040518083038186803b1580156108a257600080fd5b505af41580156108b6573d6000803e3d6000fd5b505050506040513d601f19601f820116820180604052508101906108da91906116e3565b6001600160a01b0316336001600160a01b03161461090a5760405162461bcd60e51b815260040161059c90611a6a565b61091261127e565b565b60008054610100900460ff16158080156109355750600054600160ff909116105b8061094f5750303b15801561094f575060005460ff166001145b6109b25760405162461bcd60e51b815260206004820152602e60248201527f496e697469616c697a61626c653a20636f6e747261637420697320616c72656160448201526d191e481a5b9a5d1a585b1a5e995960921b606482015260840161059c565b6000805460ff1916600117905580156109d5576000805461ff0019166101001790555b6109dd6112d0565b6109e56112ff565b6109ed61132e565b61011b80546001600160a01b038781166001600160a01b03199283161790925561011c88905561010b805487841690831617905561010c80549286169290911691909117905560001961010d5561011d8790556040518781527ffddcded6b4f4730c226821172046b48372d3cd963c159701ae1b7c3bcac541bb9060200160405180910390a1600191508015610abd576000805461ff0019169055604051600181527f7f26b83ff96e1f2b6a682f133852f6798a09c465da95921460cefb38474024989060200160405180910390a15b5095945050505050565b306001600160a01b037f0000000000000000000000000000000000000000000000000000000000000000161415610b105760405162461bcd60e51b815260040161059c90611987565b7f00000000000000000000000000000000000000000000000000000000000000006001600160a01b0316610b59600080516020611b63833981519152546001600160a01b031690565b6001600160a01b031614610b7f5760405162461bcd60e51b815260040161059c906119d3565b610b8882610f56565b610b94828260016110ff565b5050565b6000306001600160a01b037f00000000000000000000000000000000000000000000000000000000000000001614610c385760405162461bcd60e51b815260206004820152603860248201527f555550535570677261646561626c653a206d757374206e6f742062652063616c60448201527f6c6564207468726f7567682064656c656761746563616c6c0000000000000000606482015260840161059c565b50600080516020611b6383398151915290565b6000610c55610ccf565b60405163096699f360e31b8152601560048201526001600160a01b039190911690634b34cf989060240160206040518083038186803b158015610c9757600080fd5b505afa158015610cab573d6000803e3d6000fd5b505050506040513d601f19601f820116820180604052508101906104e39190611877565b604051630e29024f60e31b815261010b600482015260009073d07A36C1d111A978f0626d19175E0453900d1F4D9063714812789060240160206040518083038186803b158015610d1e57600080fd5b505af4158015610d32573d6000803e3d6000fd5b505050506040513d601f19601f820116820180604052508101906104e391906116e3565b60405163071a0e5560e21b815261010b600482015273d07A36C1d111A978f0626d19175E0453900d1F4D90631c6839549060240160206040518083038186803b158015610da257600080fd5b505af4158015610db6573d6000803e3d6000fd5b505050506040513d601f19601f82011682018060405250810190610dda91906116e3565b6001600160a01b0316336001600160a01b031614610e0a5760405162461bcd60e51b815260040161059c90611a6a565b610912611355565b600080610e1d611392565b60405163d9fc310f60e01b815261010b600482015260fb60248201526044810184905273d07A36C1d111A978f0626d19175E0453900d1F4D9063d9fc310f90606401604080518083038186803b158015610e7657600080fd5b505af4158015610e8a573d6000803e3d6000fd5b505050506040513d601f19601f82011682018060405250810190610eae91906118a9565b9094909350915050565b604051635bd2b11360e01b815273d07A36C1d111A978f0626d19175E0453900d1F4D90635bd2b11390610efe9061010b9060fb908a908a908a908a908a90600401611aae565b60206040518083038186803b158015610f1657600080fd5b505af4158015610f2a573d6000803e3d6000fd5b505050506040513d601f19601f82011682018060405250810190610f4e9190611877565b505050505050565b60405163071a0e5560e21b815261010b600482015273d07A36C1d111A978f0626d19175E0453900d1F4D90631c6839549060240160206040518083038186803b158015610fa257600080fd5b505af4158015610fb6573d6000803e3d6000fd5b505050506040513d601f19601f82011682018060405250810190610fda91906116e3565b6001600160a01b0316336001600160a01b03161461100a5760405162461bcd60e51b815260040161059c90611a6a565b60405160016223f63b60e21b0319815261010b60048201526001600160a01b038216602482015273d07A36C1d111A978f0626d19175E0453900d1F4D9063ff7027149060440160206040518083038186803b15801561106857600080fd5b505af415801561107c573d6000803e3d6000fd5b505050506040513d601f19601f820116820180604052508101906110a09190611855565b6107115760405162461bcd60e51b815260206004820152602a60248201527f5769746864726177616c436f6e74726163743a204e4f5420616c6c6f77656420604482015269746f207570677261646560b01b606482015260840161059c565b7f4910fdfa16fed3260ed0e7147f7cc6da11a60208b5b9406d12a635614ffd91435460ff161561113757611132836113d8565b505050565b826001600160a01b03166352d1902d6040518163ffffffff1660e01b815260040160206040518083038186803b15801561117057600080fd5b505afa9250505080156111a0575060408051601f3d908101601f1916820190925261119d91810190611877565b60015b6112035760405162461bcd60e51b815260206004820152602e60248201527f45524331393637557067726164653a206e657720696d706c656d656e7461746960448201526d6f6e206973206e6f74205555505360901b606482015260840161059c565b600080516020611b6383398151915281146112725760405162461bcd60e51b815260206004820152602960248201527f45524331393637557067726164653a20756e737570706f727465642070726f786044820152681a58589b195555525160ba1b606482015260840161059c565b50611132838383611474565b61128661149f565b6065805460ff191690557f5db9ee0a495bf2e6ff9c91a7834c1ba4fdd244a5e8aa4e537bd38aeae4b073aa335b6040516001600160a01b03909116815260200160405180910390a1565b600054610100900460ff166112f75760405162461bcd60e51b815260040161059c90611a1f565b6109126114e8565b600054610100900460ff166113265760405162461bcd60e51b815260040161059c90611a1f565b610912611515565b600054610100900460ff166109125760405162461bcd60e51b815260040161059c90611a1f565b61135d611392565b6065805460ff191660011790557f62e78cea01bee320cd4e420270b5ea74000d11b0c9f74754ebdbfc544b05a2586112b33390565b60655460ff16156109125760405162461bcd60e51b815260206004820152601060248201526f14185d5cd8589b194e881c185d5cd95960821b604482015260640161059c565b6001600160a01b0381163b6114455760405162461bcd60e51b815260206004820152602d60248201527f455243313936373a206e657720696d706c656d656e746174696f6e206973206e60448201526c1bdd08184818dbdb9d1c9858dd609a1b606482015260840161059c565b600080516020611b6383398151915280546001600160a01b0319166001600160a01b0392909216919091179055565b61147d83611548565b60008251118061148a5750805b15611132576114998383611588565b50505050565b60655460ff166109125760405162461bcd60e51b815260206004820152601460248201527314185d5cd8589b194e881b9bdd081c185d5cd95960621b604482015260640161059c565b600054610100900460ff1661150f5760405162461bcd60e51b815260040161059c90611a1f565b60018055565b600054610100900460ff1661153c5760405162461bcd60e51b815260040161059c90611a1f565b6065805460ff19169055565b611551816113d8565b6040516001600160a01b038216907fbc7cd75a20ee27fd9adebab32041f755214dbc6bffa90cc0225b39da2e5c2d3b90600090a250565b60606001600160a01b0383163b6115f05760405162461bcd60e51b815260206004820152602660248201527f416464726573733a2064656c65676174652063616c6c20746f206e6f6e2d636f6044820152651b9d1c9858dd60d21b606482015260840161059c565b600080846001600160a01b03168460405161160b9190611938565b600060405180830381855af49150503d8060008114611646576040519150601f19603f3d011682016040523d82523d6000602084013e61164b565b606091505b50915091506116738282604051806060016040528060278152602001611b836027913961167c565b95945050505050565b6060831561168b575081611695565b611695838361169c565b9392505050565b8151156116ac5781518083602001fd5b8060405162461bcd60e51b815260040161059c9190611954565b6000602082840312156116d857600080fd5b813561169581611b4d565b6000602082840312156116f557600080fd5b815161169581611b4d565b6000806040838503121561171357600080fd5b823561171e81611b4d565b9150602083013567ffffffffffffffff8082111561173b57600080fd5b818501915085601f83011261174f57600080fd5b81358181111561176157611761611b37565b604051601f8201601f19908116603f0116810190838211818310171561178957611789611b37565b816040528281528860208487010111156117a257600080fd5b8260208601602083013760006020848301015280955050505050509250929050565b6000806000806000608086880312156117dc57600080fd5b85356117e781611b4d565b945060208601359350604086013567ffffffffffffffff8082111561180b57600080fd5b818801915088601f83011261181f57600080fd5b81358181111561182e57600080fd5b89602082850101111561184057600080fd5b96999598505060200195606001359392505050565b60006020828403121561186757600080fd5b8151801515811461169557600080fd5b60006020828403121561188957600080fd5b5051919050565b6000602082840312156118a257600080fd5b5035919050565b600080604083850312156118bc57600080fd5b8251915060208301516118ce81611b4d565b809150509250929050565b600080600080600060a086880312156118f157600080fd5b8535945060208601359350604086013561190a81611b4d565b9250606086013561191a81611b4d565b9150608086013561192a81611b4d565b809150509295509295909350565b6000825161194a818460208701611b0b565b9190910192915050565b6020815260008251806020840152611973816040850160208701611b0b565b601f01601f19169190910160400192915050565b6020808252602c908201527f46756e6374696f6e206d7573742062652063616c6c6564207468726f7567682060408201526b19195b1959d85d1958d85b1b60a21b606082015260800190565b6020808252602c908201527f46756e6374696f6e206d7573742062652063616c6c6564207468726f7567682060408201526b6163746976652070726f787960a01b606082015260800190565b6020808252602b908201527f496e697469616c697a61626c653a20636f6e7472616374206973206e6f74206960408201526a6e697469616c697a696e6760a81b606082015260800190565b60208082526024908201527f5769746864726177616c436f6e74726163743a2073656e646572204e4f54204f6040820152632ba722a960e11b606082015260800190565b87815286602082015260018060a01b038616604082015284606082015260c060808201528260c0820152828460e0830137600060e08483010152600060e0601f19601f86011683010190508260a083015298975050505050505050565b60005b83811015611b26578181015183820152602001611b0e565b838111156114995750506000910152565b634e487b7160e01b600052604160045260246000fd5b6001600160a01b038116811461071157600080fdfe360894a13ba1a3210667c828492db98dca3e2076cc3735a920a3ca505d382bbc416464726573733a206c6f772d6c6576656c2064656c65676174652063616c6c206661696c6564a2646970667358221220fdd1c8a9a0a042dde9d4360783a890c1f4b48f0ef6e8e42529131e562cabb31f64736f6c63430008070033",
  "deployedBytecode": "0x6080604052600436106100f65760003560e01c806352d1902d1161008f5780637d65a7ab116100615780637d65a7ab1461025b5780638456cb59146102705780638aa104351461028557806398951b561461029b578063ac7a7eb3146102d857005b806352d1902d146101e65780635c975abb146101fb57806366f788c614610213578063745653de1461024657005b80633cebb823116100c85780633cebb8231461017e5780633f4ba83a1461019e5780633fbfd4df146101b35780634f1ef286146101d357005b806307a00b1f146100ff57806317c6ebd5146101295780633659cfe61461013e57806338fff2d01461015e57005b366100fd57005b005b34801561010b57600080fd5b506101146102f8565b60405190151581526020015b60405180910390f35b34801561013557600080fd5b506100fd6104e8565b34801561014a57600080fd5b506100fd6101593660046116c6565b610714565b34801561016a57600080fd5b5061011c545b604051908152602001610120565b34801561018a57600080fd5b506100fd6101993660046116c6565b6107e0565b3480156101aa57600080fd5b506100fd610856565b3480156101bf57600080fd5b506101146101ce3660046118d9565b610914565b6100fd6101e1366004611700565b610ac7565b3480156101f257600080fd5b50610170610b98565b34801561020757600080fd5b5060655460ff16610114565b34801561021f57600080fd5b5061011b546001600160a01b03165b6040516001600160a01b039091168152602001610120565b34801561025257600080fd5b50610170610c4b565b34801561026757600080fd5b5061022e610ccf565b34801561027c57600080fd5b506100fd610d56565b34801561029157600080fd5b5061011d54610170565b3480156102a757600080fd5b506102bb6102b6366004611890565b610e12565b604080519283526001600160a01b03909116602083015201610120565b3480156102e457600080fd5b506100fd6102f33660046117c4565b610eb8565b6000610302610c4b565b61011d54141580610315575060655460ff165b80610455575060405163071a0e5560e21b815261010b600482015273__$470c7289acb57212a69b34ceb5289ef95c$__90631c6839549060240160206040518083038186803b15801561036757600080fd5b505af415801561037b573d6000803e3d6000fd5b505050506040513d601f19601f8201168201806040525081019061039f91906116e3565b6001600160a01b03166103b0610ccf565b6001600160a01b03166318f2ccde6103c861011c5490565b6040518263ffffffff1660e01b81526004016103f99181526921a7a72a2927a62622a960b11b602082015260400190565b60206040518083038186803b15801561041157600080fd5b505afa158015610425573d6000803e3d6000fd5b505050506040513d601f19601f8201168201806040525081019061044991906116e3565b6001600160a01b031614155b806104e35750604051636797415560e01b815261010b600482015273__$470c7289acb57212a69b34ceb5289ef95c$__9063679741559060240160206040518083038186803b1580156104a757600080fd5b505af41580156104bb573d6000803e3d6000fd5b505050506040513d601f19601f820116820180604052508101906104df9190611877565b4210155b905090565b60405163071a0e5560e21b815261010b600482015273__$470c7289acb57212a69b34ceb5289ef95c$__90631c6839549060240160206040518083038186803b15801561053457600080fd5b505af4158015610548573d6000803e3d6000fd5b505050506040513d601f19601f8201168201806040525081019061056c91906116e3565b6001600160a01b0316336001600160a01b0316146105a55760405162461bcd60e51b815260040161059c90611a6a565b60405180910390fd5b60006105af610ccf565b6001600160a01b031663b383a04461011c546040518263ffffffff1660e01b81526004016105df91815260200190565b602060405180830381600087803b1580156105f957600080fd5b505af115801561060d573d6000803e3d6000fd5b505050506040513d601f19601f820116820180604052508101906106319190611877565b905061063d61011d5490565b811415801561064b57508015155b6106aa5760405162461bcd60e51b815260206004820152602a60248201527f5769746864726177616c436f6e74726163743a2050524f504f5345445f56455260448201526929a4a7a71022a92927a960b11b606482015260840161059c565b6106b381610e12565b505061010f546106cb906001600160a01b0316610f56565b61010f54610711906001600160a01b031660005b6040519080825280601f01601f191660200182016040528015610709576020820181803683370190505b5060006110ff565b50565b306001600160a01b037f000000000000000000000000000000000000000000000000000000000000000016141561075d5760405162461bcd60e51b815260040161059c90611987565b7f00000000000000000000000000000000000000000000000000000000000000006001600160a01b03166107a6600080516020611b63833981519152546001600160a01b031690565b6001600160a01b0316146107cc5760405162461bcd60e51b815260040161059c906119d3565b6107d581610f56565b6107118160006106df565b60405163058ba25360e31b815261010b60048201526001600160a01b038216602482015273__$470c7289acb57212a69b34ceb5289ef95c$__90632c5d12989060440160006040518083038186803b15801561083b57600080fd5b505af415801561084f573d6000803e3d6000fd5b5050505050565b60405163071a0e5560e21b815261010b600482015273__$470c7289acb57212a69b34ceb5289ef95c$__90631c6839549060240160206040518083038186803b1580156108a257600080fd5b505af41580156108b6573d6000803e3d6000fd5b505050506040513d601f19601f820116820180604052508101906108da91906116e3565b6001600160a01b0316336001600160a01b03161461090a5760405162461bcd60e51b815260040161059c90611a6a565b61091261127e565b565b60008054610100900460ff16158080156109355750600054600160ff909116105b8061094f5750303b15801561094f575060005460ff166001145b6109b25760405162461bcd60e51b815260206004820152602e60248201527f496e697469616c697a61626c653a20636f6e747261637420697320616c72656160448201526d191e481a5b9a5d1a585b1a5e995960921b606482015260840161059c565b6000805460ff1916600117905580156109d5576000805461ff0019166101001790555b6109dd6112d0565b6109e56112ff565b6109ed61132e565b61011b80546001600160a01b038781166001600160a01b03199283161790925561011c88905561010b805487841690831617905561010c80549286169290911691909117905560001961010d5561011d8790556040518781527ffddcded6b4f4730c226821172046b48372d3cd963c159701ae1b7c3bcac541bb9060200160405180910390a1600191508015610abd576000805461ff0019169055604051600181527f7f26b83ff96e1f2b6a682f133852f6798a09c465da95921460cefb38474024989060200160405180910390a15b5095945050505050565b306001600160a01b037f0000000000000000000000000000000000000000000000000000000000000000161415610b105760405162461bcd60e51b815260040161059c90611987565b7f00000000000000000000000000000000000000000000000000000000000000006001600160a01b0316610b59600080516020611b63833981519152546001600160a01b031690565b6001600160a01b031614610b7f5760405162461bcd60e51b815260040161059c906119d3565b610b8882610f56565b610b94828260016110ff565b5050565b6000306001600160a01b037f00000000000000000000000000000000000000000000000000000000000000001614610c385760405162461bcd60e51b815260206004820152603860248201527f555550535570677261646561626c653a206d757374206e6f742062652063616c60448201527f6c6564207468726f7567682064656c656761746563616c6c0000000000000000606482015260840161059c565b50600080516020611b6383398151915290565b6000610c55610ccf565b60405163096699f360e31b8152601560048201526001600160a01b039190911690634b34cf989060240160206040518083038186803b158015610c9757600080fd5b505afa158015610cab573d6000803e3d6000fd5b505050506040513d601f19601f820116820180604052508101906104e39190611877565b604051630e29024f60e31b815261010b600482015260009073__$470c7289acb57212a69b34ceb5289ef95c$__9063714812789060240160206040518083038186803b158015610d1e57600080fd5b505af4158015610d32573d6000803e3d6000fd5b505050506040513d601f19601f820116820180604052508101906104e391906116e3565b60405163071a0e5560e21b815261010b600482015273__$470c7289acb57212a69b34ceb5289ef95c$__90631c6839549060240160206040518083038186803b158015610da257600080fd5b505af4158015610db6573d6000803e3d6000fd5b505050506040513d601f19601f82011682018060405250810190610dda91906116e3565b6001600160a01b0316336001600160a01b031614610e0a5760405162461bcd60e51b815260040161059c90611a6a565b610912611355565b600080610e1d611392565b60405163d9fc310f60e01b815261010b600482015260fb60248201526044810184905273__$470c7289acb57212a69b34ceb5289ef95c$__9063d9fc310f90606401604080518083038186803b158015610e7657600080fd5b505af4158015610e8a573d6000803e3d6000fd5b505050506040513d601f19601f82011682018060405250810190610eae91906118a9565b9094909350915050565b604051635bd2b11360e01b815273__$470c7289acb57212a69b34ceb5289ef95c$__90635bd2b11390610efe9061010b9060fb908a908a908a908a908a90600401611aae565b60206040518083038186803b158015610f1657600080fd5b505af4158015610f2a573d6000803e3d6000fd5b505050506040513d601f19601f82011682018060405250810190610f4e9190611877565b505050505050565b60405163071a0e5560e21b815261010b600482015273__$470c7289acb57212a69b34ceb5289ef95c$__90631c6839549060240160206040518083038186803b158015610fa257600080fd5b505af4158015610fb6573d6000803e3d6000fd5b505050506040513d601f19601f82011682018060405250810190610fda91906116e3565b6001600160a01b0316336001600160a01b03161461100a5760405162461bcd60e51b815260040161059c90611a6a565b60405160016223f63b60e21b0319815261010b60048201526001600160a01b038216602482015273__$470c7289acb57212a69b34ceb5289ef95c$__9063ff7027149060440160206040518083038186803b15801561106857600080fd5b505af415801561107c573d6000803e3d6000fd5b505050506040513d601f19601f820116820180604052508101906110a09190611855565b6107115760405162461bcd60e51b815260206004820152602a60248201527f5769746864726177616c436f6e74726163743a204e4f5420616c6c6f77656420604482015269746f207570677261646560b01b606482015260840161059c565b7f4910fdfa16fed3260ed0e7147f7cc6da11a60208b5b9406d12a635614ffd91435460ff161561113757611132836113d8565b505050565b826001600160a01b03166352d1902d6040518163ffffffff1660e01b815260040160206040518083038186803b15801561117057600080fd5b505afa9250505080156111a0575060408051601f3d908101601f1916820190925261119d91810190611877565b60015b6112035760405162461bcd60e51b815260206004820152602e60248201527f45524331393637557067726164653a206e657720696d706c656d656e7461746960448201526d6f6e206973206e6f74205555505360901b606482015260840161059c565b600080516020611b6383398151915281146112725760405162461bcd60e51b815260206004820152602960248201527f45524331393637557067726164653a20756e737570706f727465642070726f786044820152681a58589b195555525160ba1b606482015260840161059c565b50611132838383611474565b61128661149f565b6065805460ff191690557f5db9ee0a495bf2e6ff9c91a7834c1ba4fdd244a5e8aa4e537bd38aeae4b073aa335b6040516001600160a01b03909116815260200160405180910390a1565b600054610100900460ff166112f75760405162461bcd60e51b815260040161059c90611a1f565b6109126114e8565b600054610100900460ff166113265760405162461bcd60e51b815260040161059c90611a1f565b610912611515565b600054610100900460ff166109125760405162461bcd60e51b815260040161059c90611a1f565b61135d611392565b6065805460ff191660011790557f62e78cea01bee320cd4e420270b5ea74000d11b0c9f74754ebdbfc544b05a2586112b33390565b60655460ff16156109125760405162461bcd60e51b815260206004820152601060248201526f14185d5cd8589b194e881c185d5cd95960821b604482015260640161059c565b6001600160a01b0381163b6114455760405162461bcd60e51b815260206004820152602d60248201527f455243313936373a206e657720696d706c656d656e746174696f6e206973206e60448201526c1bdd08184818dbdb9d1c9858dd609a1b606482015260840161059c565b600080516020611b6383398151915280546001600160a01b0319166001600160a01b0392909216919091179055565b61147d83611548565b60008251118061148a5750805b15611132576114998383611588565b50505050565b60655460ff166109125760405162461bcd60e51b815260206004820152601460248201527314185d5cd8589b194e881b9bdd081c185d5cd95960621b604482015260640161059c565b600054610100900460ff1661150f5760405162461bcd60e51b815260040161059c90611a1f565b60018055565b600054610100900460ff1661153c5760405162461bcd60e51b815260040161059c90611a1f565b6065805460ff19169055565b611551816113d8565b6040516001600160a01b038216907fbc7cd75a20ee27fd9adebab32041f755214dbc6bffa90cc0225b39da2e5c2d3b90600090a250565b60606001600160a01b0383163b6115f05760405162461bcd60e51b815260206004820152602660248201527f416464726573733a2064656c65676174652063616c6c20746f206e6f6e2d636f6044820152651b9d1c9858dd60d21b606482015260840161059c565b600080846001600160a01b03168460405161160b9190611938565b600060405180830381855af49150503d8060008114611646576040519150601f19603f3d011682016040523d82523d6000602084013e61164b565b606091505b50915091506116738282604051806060016040528060278152602001611b836027913961167c565b95945050505050565b6060831561168b575081611695565b611695838361169c565b9392505050565b8151156116ac5781518083602001fd5b8060405162461bcd60e51b815260040161059c9190611954565b6000602082840312156116d857600080fd5b813561169581611b4d565b6000602082840312156116f557600080fd5b815161169581611b4d565b6000806040838503121561171357600080fd5b823561171e81611b4d565b9150602083013567ffffffffffffffff8082111561173b57600080fd5b818501915085601f83011261174f57600080fd5b81358181111561176157611761611b37565b604051601f8201601f19908116603f0116810190838211818310171561178957611789611b37565b816040528281528860208487010111156117a257600080fd5b8260208601602083013760006020848301015280955050505050509250929050565b6000806000806000608086880312156117dc57600080fd5b85356117e781611b4d565b945060208601359350604086013567ffffffffffffffff8082111561180b57600080fd5b818801915088601f83011261181f57600080fd5b81358181111561182e57600080fd5b89602082850101111561184057600080fd5b96999598505060200195606001359392505050565b60006020828403121561186757600080fd5b8151801515811461169557600080fd5b60006020828403121561188957600080fd5b5051919050565b6000602082840312156118a257600080fd5b5035919050565b600080604083850312156118bc57600080fd5b8251915060208301516118ce81611b4d565b809150509250929050565b600080600080600060a086880312156118f157600080fd5b8535945060208601359350604086013561190a81611b4d565b9250606086013561191a81611b4d565b9150608086013561192a81611b4d565b809150509295509295909350565b6000825161194a818460208701611b0b565b9190910192915050565b6020815260008251806020840152611973816040850160208701611b0b565b601f01601f19169190910160400192915050565b6020808252602c908201527f46756e6374696f6e206d7573742062652063616c6c6564207468726f7567682060408201526b19195b1959d85d1958d85b1b60a21b606082015260800190565b6020808252602c908201527f46756e6374696f6e206d7573742062652063616c6c6564207468726f7567682060408201526b6163746976652070726f787960a01b606082015260800190565b6020808252602b908201527f496e697469616c697a61626c653a20636f6e7472616374206973206e6f74206960408201526a6e697469616c697a696e6760a81b606082015260800190565b60208082526024908201527f5769746864726177616c436f6e74726163743a2073656e646572204e4f54204f6040820152632ba722a960e11b606082015260800190565b87815286602082015260018060a01b038616604082015284606082015260c060808201528260c0820152828460e0830137600060e08483010152600060e0601f19601f86011683010190508260a083015298975050505050505050565b60005b83811015611b26578181015183820152602001611b0e565b838111156114995750506000910152565b634e487b7160e01b600052604160045260246000fd5b6001600160a01b038116811461071157600080fdfe360894a13ba1a3210667c828492db98dca3e2076cc3735a920a3ca505d382bbc416464726573733a206c6f772d6c6576656c2064656c65676174652063616c6c206661696c6564a2646970667358221220fdd1c8a9a0a042dde9d4360783a890c1f4b48f0ef6e8e42529131e562cabb31f64736f6c63430008070033",
  "libraries": {
    "GeodeUtils": "0xd07A36C1d111A978f0626d19175E0453900d1F4D"
  },
  "devdoc": {
    "author": "Icebear & Crash Bandicoot",
    "details": "This contract utilizes Dual Governance between Portal (GOVERNANCE) and  the Pool Owner (SENATE) to empower the Limited Upgradability.Recovery Mode stops pool operations while allowing withdrawal queue to operate as usualtodo: Withdrawal Queue",
    "kind": "dev",
    "methods": {
      "changeController(address)": {
        "details": "OnlySenate is checked inside the GeodeUtils"
      },
      "fetchUpgradeProposal()": {
        "details": "remaining code is basically taken from upgradeTo of UUPS since it is still not public, but external"
      },
      "newProposal(address,uint256,bytes,uint256)": {
        "details": "only Governance check is inside, note Governance is Portal."
      },
      "paused()": {
        "details": "Returns true if the contract is paused, and false otherwise."
      },
      "proxiableUUID()": {
        "details": "Implementation of the ERC1822 {proxiableUUID} function. This returns the storage slot used by the implementation. It is used to validate the implementation's compatibility when performing an upgrade. IMPORTANT: A proxy pointing at a proxiable contract should not be considered proxiable itself, because this risks bricking a proxy that upgrades to it, by delegating to itself until out of gas. Thus it is critical that this function revert if invoked through a proxy. This is guaranteed by the `notDelegated` modifier."
      },
      "recoveryMode()": {
        "returns": {
          "isRecovering": "true if recoveryMode is active"
        }
      },
      "upgradeTo(address)": {
        "details": "Upgrade the implementation of the proxy to `newImplementation`. Calls {_authorizeUpgrade}. Emits an {Upgraded} event."
      },
      "upgradeToAndCall(address,bytes)": {
        "details": "Upgrade the implementation of the proxy to `newImplementation`, and subsequently execute the function call encoded in `data`. Calls {_authorizeUpgrade}. Emits an {Upgraded} event."
      }
    },
    "title": "WithdrawalContract: Saviour of Trustless Staking Derivatives",
    "version": 1
  },
  "userdoc": {
    "events": {
      "ControllerChanged(uint256,address)": {
        "notice": "Events"
      }
    },
    "kind": "user",
    "methods": {
      "changeController(address)": {
        "notice": "changes the Senate's address without extending the expiry"
      },
      "fetchUpgradeProposal()": {
        "notice": "Fetching an upgradeProposal from Portal creates an upgrade proposalapproving the version changes the approvedVersion on GeodeUtils"
      },
      "getContractVersion()": {
        "notice": "get the current version of the contract"
      },
      "getPoolId()": {
        "notice": "get the gETH ID of the corresponding staking pool"
      },
      "getPortal()": {
        "notice": "get Portal as a contract"
      },
      "getProposedVersion()": {
        "notice": "get the latest version of the withdrawal contract module from Portal"
      },
      "getgETH()": {
        "notice": "get gETH as a contract"
      },
      "newProposal(address,uint256,bytes,uint256)": {
        "notice": "Creates a new Proposal within Withdrawal Contract, used by Portal"
      },
      "pause()": {
        "notice": "pausing the contract activates the recoveryMode"
      },
      "recoveryMode()": {
        "notice": "Recovery Mode allows Withdrawal Contract to isolate itself from Portal and continue handling the withdrawals."
      },
      "unpause()": {
        "notice": "unpausing the contract deactivates the recoveryMode"
      }
    },
    "notice": "This is a simple contract: - used as the withdrawal credential of the validators. - accrues fees and rewards from validators over time. - handles the withdrawal queue for stakers. - manages its own versioning without trusting Portal.",
    "version": 1
  },
  "storageLayout": {
    "storage": [
      {
        "astId": 527,
        "contract": "contracts/Portal/withdrawalContract/WithdrawalContract.sol:WithdrawalContract",
        "label": "_initialized",
        "offset": 0,
        "slot": "0",
        "type": "t_uint8"
      },
      {
        "astId": 530,
        "contract": "contracts/Portal/withdrawalContract/WithdrawalContract.sol:WithdrawalContract",
        "label": "_initializing",
        "offset": 1,
        "slot": "0",
        "type": "t_bool"
      },
      {
        "astId": 966,
        "contract": "contracts/Portal/withdrawalContract/WithdrawalContract.sol:WithdrawalContract",
        "label": "_status",
        "offset": 0,
        "slot": "1",
        "type": "t_uint256"
      },
      {
        "astId": 1024,
        "contract": "contracts/Portal/withdrawalContract/WithdrawalContract.sol:WithdrawalContract",
        "label": "__gap",
        "offset": 0,
        "slot": "2",
        "type": "t_array(t_uint256)49_storage"
      },
      {
        "astId": 2331,
        "contract": "contracts/Portal/withdrawalContract/WithdrawalContract.sol:WithdrawalContract",
        "label": "__gap",
        "offset": 0,
        "slot": "51",
        "type": "t_array(t_uint256)50_storage"
      },
      {
        "astId": 846,
        "contract": "contracts/Portal/withdrawalContract/WithdrawalContract.sol:WithdrawalContract",
        "label": "_paused",
        "offset": 0,
        "slot": "101",
        "type": "t_bool"
      },
      {
        "astId": 951,
        "contract": "contracts/Portal/withdrawalContract/WithdrawalContract.sol:WithdrawalContract",
        "label": "__gap",
        "offset": 0,
        "slot": "102",
        "type": "t_array(t_uint256)49_storage"
      },
      {
        "astId": 509,
        "contract": "contracts/Portal/withdrawalContract/WithdrawalContract.sol:WithdrawalContract",
        "label": "__gap",
        "offset": 0,
        "slot": "151",
        "type": "t_array(t_uint256)50_storage"
      },
      {
        "astId": 824,
        "contract": "contracts/Portal/withdrawalContract/WithdrawalContract.sol:WithdrawalContract",
        "label": "__gap",
        "offset": 0,
        "slot": "201",
        "type": "t_array(t_uint256)50_storage"
      },
      {
        "astId": 25276,
        "contract": "contracts/Portal/withdrawalContract/WithdrawalContract.sol:WithdrawalContract",
        "label": "DATASTORE",
        "offset": 0,
        "slot": "251",
        "type": "t_struct(IsolatedStorage)19744_storage"
      },
      {
        "astId": 25279,
        "contract": "contracts/Portal/withdrawalContract/WithdrawalContract.sol:WithdrawalContract",
        "label": "GEM",
        "offset": 0,
        "slot": "267",
        "type": "t_struct(DualGovernance)20768_storage"
      },
      {
        "astId": 25281,
        "contract": "contracts/Portal/withdrawalContract/WithdrawalContract.sol:WithdrawalContract",
        "label": "gETH",
        "offset": 0,
        "slot": "283",
        "type": "t_address"
      },
      {
        "astId": 25283,
        "contract": "contracts/Portal/withdrawalContract/WithdrawalContract.sol:WithdrawalContract",
        "label": "POOL_ID",
        "offset": 0,
        "slot": "284",
        "type": "t_uint256"
      },
      {
        "astId": 25285,
        "contract": "contracts/Portal/withdrawalContract/WithdrawalContract.sol:WithdrawalContract",
        "label": "CONTRACT_VERSION",
        "offset": 0,
        "slot": "285",
        "type": "t_uint256"
      },
      {
        "astId": 25643,
        "contract": "contracts/Portal/withdrawalContract/WithdrawalContract.sol:WithdrawalContract",
        "label": "__gap",
        "offset": 0,
        "slot": "286",
        "type": "t_array(t_uint256)45_storage"
      }
    ],
    "types": {
      "t_address": {
        "encoding": "inplace",
        "label": "address",
        "numberOfBytes": "20"
      },
      "t_array(t_uint256)12_storage": {
        "base": "t_uint256",
        "encoding": "inplace",
        "label": "uint256[12]",
        "numberOfBytes": "384"
      },
      "t_array(t_uint256)45_storage": {
        "base": "t_uint256",
        "encoding": "inplace",
        "label": "uint256[45]",
        "numberOfBytes": "1440"
      },
      "t_array(t_uint256)49_storage": {
        "base": "t_uint256",
        "encoding": "inplace",
        "label": "uint256[49]",
        "numberOfBytes": "1568"
      },
      "t_array(t_uint256)50_storage": {
        "base": "t_uint256",
        "encoding": "inplace",
        "label": "uint256[50]",
        "numberOfBytes": "1600"
      },
      "t_array(t_uint256)8_storage": {
        "base": "t_uint256",
        "encoding": "inplace",
        "label": "uint256[8]",
        "numberOfBytes": "256"
      },
      "t_array(t_uint256)dyn_storage": {
        "base": "t_uint256",
        "encoding": "dynamic_array",
        "label": "uint256[]",
        "numberOfBytes": "32"
      },
      "t_bool": {
        "encoding": "inplace",
        "label": "bool",
        "numberOfBytes": "1"
      },
      "t_bytes32": {
        "encoding": "inplace",
        "label": "bytes32",
        "numberOfBytes": "32"
      },
      "t_bytes_storage": {
        "encoding": "bytes",
        "label": "bytes",
        "numberOfBytes": "32"
      },
      "t_mapping(t_bytes32,t_address)": {
        "encoding": "mapping",
        "key": "t_bytes32",
        "label": "mapping(bytes32 => address)",
        "numberOfBytes": "32",
        "value": "t_address"
      },
      "t_mapping(t_bytes32,t_bytes_storage)": {
        "encoding": "mapping",
        "key": "t_bytes32",
        "label": "mapping(bytes32 => bytes)",
        "numberOfBytes": "32",
        "value": "t_bytes_storage"
      },
      "t_mapping(t_bytes32,t_uint256)": {
        "encoding": "mapping",
        "key": "t_bytes32",
        "label": "mapping(bytes32 => uint256)",
        "numberOfBytes": "32",
        "value": "t_uint256"
      },
      "t_mapping(t_uint256,t_array(t_uint256)dyn_storage)": {
        "encoding": "mapping",
        "key": "t_uint256",
        "label": "mapping(uint256 => uint256[])",
        "numberOfBytes": "32",
        "value": "t_array(t_uint256)dyn_storage"
      },
      "t_mapping(t_uint256,t_bool)": {
        "encoding": "mapping",
        "key": "t_uint256",
        "label": "mapping(uint256 => bool)",
        "numberOfBytes": "32",
        "value": "t_bool"
      },
      "t_mapping(t_uint256,t_struct(Proposal)20742_storage)": {
        "encoding": "mapping",
        "key": "t_uint256",
        "label": "mapping(uint256 => struct GeodeUtils.Proposal)",
        "numberOfBytes": "32",
        "value": "t_struct(Proposal)20742_storage"
      },
      "t_struct(DualGovernance)20768_storage": {
        "encoding": "inplace",
        "label": "struct GeodeUtils.DualGovernance",
        "members": [
          {
            "astId": 20744,
            "contract": "contracts/Portal/withdrawalContract/WithdrawalContract.sol:WithdrawalContract",
            "label": "GOVERNANCE",
            "offset": 0,
            "slot": "0",
            "type": "t_address"
          },
          {
            "astId": 20746,
            "contract": "contracts/Portal/withdrawalContract/WithdrawalContract.sol:WithdrawalContract",
            "label": "SENATE",
            "offset": 0,
            "slot": "1",
            "type": "t_address"
          },
          {
            "astId": 20748,
            "contract": "contracts/Portal/withdrawalContract/WithdrawalContract.sol:WithdrawalContract",
            "label": "SENATE_EXPIRY",
            "offset": 0,
            "slot": "2",
            "type": "t_uint256"
          },
          {
            "astId": 20750,
            "contract": "contracts/Portal/withdrawalContract/WithdrawalContract.sol:WithdrawalContract",
            "label": "GOVERNANCE_FEE",
            "offset": 0,
            "slot": "3",
            "type": "t_uint256"
          },
          {
            "astId": 20752,
            "contract": "contracts/Portal/withdrawalContract/WithdrawalContract.sol:WithdrawalContract",
            "label": "approvedVersion",
            "offset": 0,
            "slot": "4",
            "type": "t_address"
          },
          {
            "astId": 20754,
            "contract": "contracts/Portal/withdrawalContract/WithdrawalContract.sol:WithdrawalContract",
            "label": "_electorCount",
            "offset": 0,
            "slot": "5",
            "type": "t_uint256"
          },
          {
            "astId": 20758,
            "contract": "contracts/Portal/withdrawalContract/WithdrawalContract.sol:WithdrawalContract",
            "label": "_electorTypes",
            "offset": 0,
            "slot": "6",
            "type": "t_mapping(t_uint256,t_bool)"
          },
          {
            "astId": 20763,
            "contract": "contracts/Portal/withdrawalContract/WithdrawalContract.sol:WithdrawalContract",
            "label": "_proposals",
            "offset": 0,
            "slot": "7",
            "type": "t_mapping(t_uint256,t_struct(Proposal)20742_storage)"
          },
          {
            "astId": 20767,
            "contract": "contracts/Portal/withdrawalContract/WithdrawalContract.sol:WithdrawalContract",
            "label": "__gap",
            "offset": 0,
            "slot": "8",
            "type": "t_array(t_uint256)8_storage"
          }
        ],
        "numberOfBytes": "512"
      },
      "t_struct(IsolatedStorage)19744_storage": {
        "encoding": "inplace",
        "label": "struct DataStoreUtils.IsolatedStorage",
        "members": [
          {
            "astId": 19727,
            "contract": "contracts/Portal/withdrawalContract/WithdrawalContract.sol:WithdrawalContract",
            "label": "allIdsByType",
            "offset": 0,
            "slot": "0",
            "type": "t_mapping(t_uint256,t_array(t_uint256)dyn_storage)"
          },
          {
            "astId": 19731,
            "contract": "contracts/Portal/withdrawalContract/WithdrawalContract.sol:WithdrawalContract",
            "label": "uintData",
            "offset": 0,
            "slot": "1",
            "type": "t_mapping(t_bytes32,t_uint256)"
          },
          {
            "astId": 19735,
            "contract": "contracts/Portal/withdrawalContract/WithdrawalContract.sol:WithdrawalContract",
            "label": "bytesData",
            "offset": 0,
            "slot": "2",
            "type": "t_mapping(t_bytes32,t_bytes_storage)"
          },
          {
            "astId": 19739,
            "contract": "contracts/Portal/withdrawalContract/WithdrawalContract.sol:WithdrawalContract",
            "label": "addressData",
            "offset": 0,
            "slot": "3",
            "type": "t_mapping(t_bytes32,t_address)"
          },
          {
            "astId": 19743,
            "contract": "contracts/Portal/withdrawalContract/WithdrawalContract.sol:WithdrawalContract",
            "label": "__gap",
            "offset": 0,
            "slot": "4",
            "type": "t_array(t_uint256)12_storage"
          }
        ],
        "numberOfBytes": "512"
      },
      "t_struct(Proposal)20742_storage": {
        "encoding": "inplace",
        "label": "struct GeodeUtils.Proposal",
        "members": [
          {
            "astId": 20735,
            "contract": "contracts/Portal/withdrawalContract/WithdrawalContract.sol:WithdrawalContract",
            "label": "CONTROLLER",
            "offset": 0,
            "slot": "0",
            "type": "t_address"
          },
          {
            "astId": 20737,
            "contract": "contracts/Portal/withdrawalContract/WithdrawalContract.sol:WithdrawalContract",
            "label": "TYPE",
            "offset": 0,
            "slot": "1",
            "type": "t_uint256"
          },
          {
            "astId": 20739,
            "contract": "contracts/Portal/withdrawalContract/WithdrawalContract.sol:WithdrawalContract",
            "label": "NAME",
            "offset": 0,
            "slot": "2",
            "type": "t_bytes_storage"
          },
          {
            "astId": 20741,
            "contract": "contracts/Portal/withdrawalContract/WithdrawalContract.sol:WithdrawalContract",
            "label": "deadline",
            "offset": 0,
            "slot": "3",
            "type": "t_uint256"
          }
        ],
        "numberOfBytes": "128"
      },
      "t_uint256": {
        "encoding": "inplace",
        "label": "uint256",
        "numberOfBytes": "32"
      },
      "t_uint8": {
        "encoding": "inplace",
        "label": "uint8",
        "numberOfBytes": "1"
      }
    }
  }
}