{
  "address": "0x139CC0A1DE0658a274fD0A6cF2672709ecdA2b02",
  "abi": [
    {
      "inputs": [
        {
          "internalType": "address",
          "name": "_gETHPos",
          "type": "address"
        },
        {
          "internalType": "address",
          "name": "_portalPos",
          "type": "address"
        }
      ],
      "stateMutability": "nonpayable",
      "type": "constructor"
    },
    {
      "anonymous": false,
      "inputs": [
        {
          "indexed": false,
          "internalType": "address",
          "name": "previousAdmin",
          "type": "address"
        },
        {
          "indexed": false,
          "internalType": "address",
          "name": "newAdmin",
          "type": "address"
        }
      ],
      "name": "AdminChanged",
      "type": "event"
    },
    {
      "anonymous": false,
      "inputs": [
        {
          "indexed": false,
          "internalType": "uint256",
          "name": "ID",
          "type": "uint256"
        }
      ],
      "name": "Approved",
      "type": "event"
    },
    {
      "anonymous": false,
      "inputs": [
        {
          "indexed": true,
          "internalType": "address",
          "name": "beacon",
          "type": "address"
        }
      ],
      "name": "BeaconUpgraded",
      "type": "event"
    },
    {
      "anonymous": false,
      "inputs": [
        {
          "indexed": false,
          "internalType": "uint256",
          "name": "version",
          "type": "uint256"
        }
      ],
      "name": "ContractVersionSet",
      "type": "event"
    },
    {
      "anonymous": false,
      "inputs": [
        {
          "indexed": true,
          "internalType": "uint256",
          "name": "ID",
          "type": "uint256"
        },
        {
          "indexed": false,
          "internalType": "address",
          "name": "CONTROLLER",
          "type": "address"
        }
      ],
      "name": "ControllerChanged",
      "type": "event"
    },
    {
      "anonymous": false,
      "inputs": [
        {
          "indexed": false,
          "internalType": "uint8",
          "name": "version",
          "type": "uint8"
        }
      ],
      "name": "Initialized",
      "type": "event"
    },
    {
      "anonymous": false,
      "inputs": [
        {
          "indexed": false,
          "internalType": "address",
          "name": "senate",
          "type": "address"
        },
        {
          "indexed": false,
          "internalType": "uint256",
          "name": "expiry",
          "type": "uint256"
        }
      ],
      "name": "NewSenate",
      "type": "event"
    },
    {
      "anonymous": false,
      "inputs": [
        {
          "indexed": false,
          "internalType": "address",
          "name": "account",
          "type": "address"
        }
      ],
      "name": "Paused",
      "type": "event"
    },
    {
      "anonymous": false,
      "inputs": [
        {
          "indexed": true,
          "internalType": "uint256",
          "name": "TYPE",
          "type": "uint256"
        },
        {
          "indexed": false,
          "internalType": "uint256",
          "name": "ID",
          "type": "uint256"
        },
        {
          "indexed": false,
          "internalType": "address",
          "name": "CONTROLLER",
          "type": "address"
        },
        {
          "indexed": false,
          "internalType": "uint256",
          "name": "deadline",
          "type": "uint256"
        }
      ],
      "name": "Proposed",
      "type": "event"
    },
    {
      "anonymous": false,
      "inputs": [
        {
          "indexed": false,
          "internalType": "address",
          "name": "account",
          "type": "address"
        }
      ],
      "name": "Unpaused",
      "type": "event"
    },
    {
      "anonymous": false,
      "inputs": [
        {
          "indexed": true,
          "internalType": "address",
          "name": "implementation",
          "type": "address"
        }
      ],
      "name": "Upgraded",
      "type": "event"
    },
    {
      "inputs": [],
      "name": "GeodeParams",
      "outputs": [
        {
          "internalType": "address",
          "name": "governance",
          "type": "address"
        },
        {
          "internalType": "address",
          "name": "senate",
          "type": "address"
        },
        {
          "internalType": "address",
          "name": "approvedUpgrade",
          "type": "address"
        },
        {
          "internalType": "uint256",
          "name": "senateExpiry",
          "type": "uint256"
        },
        {
          "internalType": "uint256",
          "name": "packageType",
          "type": "uint256"
        }
      ],
      "stateMutability": "view",
      "type": "function"
    },
    {
      "inputs": [
        {
          "internalType": "uint256",
          "name": "_type",
          "type": "uint256"
        },
        {
          "internalType": "uint256",
          "name": "_index",
          "type": "uint256"
        }
      ],
      "name": "allIdsByType",
      "outputs": [
        {
          "internalType": "uint256",
          "name": "",
          "type": "uint256"
        }
      ],
      "stateMutability": "view",
      "type": "function"
    },
    {
      "inputs": [
        {
          "internalType": "uint256",
          "name": "_type",
          "type": "uint256"
        }
      ],
      "name": "allIdsByTypeLength",
      "outputs": [
        {
          "internalType": "uint256",
          "name": "",
          "type": "uint256"
        }
      ],
      "stateMutability": "view",
      "type": "function"
    },
    {
      "inputs": [
        {
          "internalType": "uint256",
          "name": "id",
          "type": "uint256"
        }
      ],
      "name": "approveProposal",
      "outputs": [
        {
          "internalType": "address",
          "name": "_controller",
          "type": "address"
        },
        {
          "internalType": "uint256",
          "name": "_type",
          "type": "uint256"
        },
        {
          "internalType": "bytes",
          "name": "_name",
          "type": "bytes"
        }
      ],
      "stateMutability": "nonpayable",
      "type": "function"
    },
    {
      "inputs": [
        {
          "internalType": "uint256",
          "name": "id",
          "type": "uint256"
        },
        {
          "internalType": "address",
          "name": "newCONTROLLER",
          "type": "address"
        }
      ],
      "name": "changeIdCONTROLLER",
      "outputs": [],
      "stateMutability": "nonpayable",
      "type": "function"
    },
    {
      "inputs": [
        {
          "internalType": "address",
          "name": "_newSenate",
          "type": "address"
        }
      ],
      "name": "changeSenate",
      "outputs": [],
      "stateMutability": "nonpayable",
      "type": "function"
    },
    {
      "inputs": [
        {
          "internalType": "string",
          "name": "_name",
          "type": "string"
        },
        {
          "internalType": "uint256",
          "name": "_type",
          "type": "uint256"
        }
      ],
      "name": "generateId",
      "outputs": [
        {
          "internalType": "uint256",
          "name": "id",
          "type": "uint256"
        }
      ],
      "stateMutability": "pure",
      "type": "function"
    },
    {
      "inputs": [],
      "name": "getContractVersion",
      "outputs": [
        {
          "internalType": "uint256",
          "name": "",
          "type": "uint256"
        }
      ],
      "stateMutability": "view",
      "type": "function"
    },
    {
      "inputs": [
        {
          "internalType": "uint256",
          "name": "_id",
          "type": "uint256"
        },
        {
          "internalType": "bytes32",
          "name": "_param",
          "type": "bytes32"
        }
      ],
      "name": "getKey",
      "outputs": [
        {
          "internalType": "bytes32",
          "name": "key",
          "type": "bytes32"
        }
      ],
      "stateMutability": "pure",
      "type": "function"
    },
    {
      "inputs": [],
      "name": "getPoolId",
      "outputs": [
        {
          "internalType": "uint256",
          "name": "",
          "type": "uint256"
        }
      ],
      "stateMutability": "view",
      "type": "function"
    },
    {
      "inputs": [],
      "name": "getPortal",
      "outputs": [
        {
          "internalType": "contract IPortal",
          "name": "",
          "type": "address"
        }
      ],
      "stateMutability": "view",
      "type": "function"
    },
    {
      "inputs": [
        {
          "internalType": "uint256",
          "name": "id",
          "type": "uint256"
        }
      ],
      "name": "getProposal",
      "outputs": [
        {
          "components": [
            {
              "internalType": "address",
              "name": "CONTROLLER",
              "type": "address"
            },
            {
              "internalType": "uint256",
              "name": "TYPE",
              "type": "uint256"
            },
            {
              "internalType": "bytes",
              "name": "NAME",
              "type": "bytes"
            },
            {
              "internalType": "uint256",
              "name": "deadline",
              "type": "uint256"
            }
          ],
          "internalType": "struct GeodeModuleLib.Proposal",
          "name": "proposal",
          "type": "tuple"
        }
      ],
      "stateMutability": "view",
      "type": "function"
    },
    {
      "inputs": [],
      "name": "getProposedVersion",
      "outputs": [
        {
          "internalType": "uint256",
          "name": "",
          "type": "uint256"
        }
      ],
      "stateMutability": "view",
      "type": "function"
    },
    {
      "inputs": [
        {
          "internalType": "uint256",
          "name": "pooledTokenId",
          "type": "uint256"
        },
        {
          "internalType": "address",
          "name": "poolOwner",
          "type": "address"
        },
        {
          "internalType": "bytes",
          "name": "versionName",
          "type": "bytes"
        },
        {
          "internalType": "bytes",
          "name": "data",
          "type": "bytes"
        }
      ],
      "name": "initialize",
      "outputs": [],
      "stateMutability": "nonpayable",
      "type": "function"
    },
    {
      "inputs": [],
      "name": "isolationMode",
      "outputs": [
        {
          "internalType": "bool",
          "name": "",
          "type": "bool"
        }
      ],
      "stateMutability": "view",
      "type": "function"
    },
    {
      "inputs": [
        {
          "internalType": "address",
          "name": "",
          "type": "address"
        },
        {
          "internalType": "address",
          "name": "",
          "type": "address"
        },
        {
          "internalType": "uint256[]",
          "name": "",
          "type": "uint256[]"
        },
        {
          "internalType": "uint256[]",
          "name": "",
          "type": "uint256[]"
        },
        {
          "internalType": "bytes",
          "name": "",
          "type": "bytes"
        }
      ],
      "name": "onERC1155BatchReceived",
      "outputs": [
        {
          "internalType": "bytes4",
          "name": "",
          "type": "bytes4"
        }
      ],
      "stateMutability": "nonpayable",
      "type": "function"
    },
    {
      "inputs": [
        {
          "internalType": "address",
          "name": "",
          "type": "address"
        },
        {
          "internalType": "address",
          "name": "",
          "type": "address"
        },
        {
          "internalType": "uint256",
          "name": "",
          "type": "uint256"
        },
        {
          "internalType": "uint256",
          "name": "",
          "type": "uint256"
        },
        {
          "internalType": "bytes",
          "name": "",
          "type": "bytes"
        }
      ],
      "name": "onERC1155Received",
      "outputs": [
        {
          "internalType": "bytes4",
          "name": "",
          "type": "bytes4"
        }
      ],
      "stateMutability": "nonpayable",
      "type": "function"
    },
    {
      "inputs": [],
      "name": "paused",
      "outputs": [
        {
          "internalType": "bool",
          "name": "",
          "type": "bool"
        }
      ],
      "stateMutability": "view",
      "type": "function"
    },
    {
      "inputs": [
        {
          "internalType": "address",
          "name": "_CONTROLLER",
          "type": "address"
        },
        {
          "internalType": "uint256",
          "name": "_TYPE",
          "type": "uint256"
        },
        {
          "internalType": "bytes",
          "name": "_NAME",
          "type": "bytes"
        },
        {
          "internalType": "uint256",
          "name": "duration",
          "type": "uint256"
        }
      ],
      "name": "propose",
      "outputs": [
        {
          "internalType": "uint256",
          "name": "id",
          "type": "uint256"
        }
      ],
      "stateMutability": "nonpayable",
      "type": "function"
    },
    {
      "inputs": [],
      "name": "proxiableUUID",
      "outputs": [
        {
          "internalType": "bytes32",
          "name": "",
          "type": "bytes32"
        }
      ],
      "stateMutability": "view",
      "type": "function"
    },
    {
      "inputs": [],
      "name": "pullUpgrade",
      "outputs": [],
      "stateMutability": "nonpayable",
      "type": "function"
    },
    {
      "inputs": [
        {
          "internalType": "uint256",
          "name": "id",
          "type": "uint256"
        },
        {
          "internalType": "bytes32",
          "name": "key",
          "type": "bytes32"
        }
      ],
      "name": "readAddress",
      "outputs": [
        {
          "internalType": "address",
          "name": "data",
          "type": "address"
        }
      ],
      "stateMutability": "view",
      "type": "function"
    },
    {
      "inputs": [
        {
          "internalType": "uint256",
          "name": "id",
          "type": "uint256"
        },
        {
          "internalType": "bytes32",
          "name": "key",
          "type": "bytes32"
        },
        {
          "internalType": "uint256",
          "name": "index",
          "type": "uint256"
        }
      ],
      "name": "readAddressArray",
      "outputs": [
        {
          "internalType": "address",
          "name": "data",
          "type": "address"
        }
      ],
      "stateMutability": "view",
      "type": "function"
    },
    {
      "inputs": [
        {
          "internalType": "uint256",
          "name": "id",
          "type": "uint256"
        },
        {
          "internalType": "bytes32",
          "name": "key",
          "type": "bytes32"
        }
      ],
      "name": "readBytes",
      "outputs": [
        {
          "internalType": "bytes",
          "name": "data",
          "type": "bytes"
        }
      ],
      "stateMutability": "view",
      "type": "function"
    },
    {
      "inputs": [
        {
          "internalType": "uint256",
          "name": "id",
          "type": "uint256"
        },
        {
          "internalType": "bytes32",
          "name": "key",
          "type": "bytes32"
        },
        {
          "internalType": "uint256",
          "name": "index",
          "type": "uint256"
        }
      ],
      "name": "readBytesArray",
      "outputs": [
        {
          "internalType": "bytes",
          "name": "data",
          "type": "bytes"
        }
      ],
      "stateMutability": "view",
      "type": "function"
    },
    {
      "inputs": [
        {
          "internalType": "uint256",
          "name": "id",
          "type": "uint256"
        },
        {
          "internalType": "bytes32",
          "name": "key",
          "type": "bytes32"
        }
      ],
      "name": "readUint",
      "outputs": [
        {
          "internalType": "uint256",
          "name": "data",
          "type": "uint256"
        }
      ],
      "stateMutability": "view",
      "type": "function"
    },
    {
      "inputs": [
        {
          "internalType": "uint256",
          "name": "id",
          "type": "uint256"
        },
        {
          "internalType": "bytes32",
          "name": "key",
          "type": "bytes32"
        },
        {
          "internalType": "uint256",
          "name": "index",
          "type": "uint256"
        }
      ],
      "name": "readUintArray",
      "outputs": [
        {
          "internalType": "uint256",
          "name": "data",
          "type": "uint256"
        }
      ],
      "stateMutability": "view",
      "type": "function"
    },
    {
      "inputs": [
        {
          "internalType": "address",
          "name": "_newSenate",
          "type": "address"
        }
      ],
      "name": "rescueSenate",
      "outputs": [],
      "stateMutability": "nonpayable",
      "type": "function"
    },
    {
      "inputs": [
        {
          "internalType": "bytes4",
          "name": "interfaceId",
          "type": "bytes4"
        }
      ],
      "name": "supportsInterface",
      "outputs": [
        {
          "internalType": "bool",
          "name": "",
          "type": "bool"
        }
      ],
      "stateMutability": "view",
      "type": "function"
    },
    {
      "inputs": [
        {
          "internalType": "address",
          "name": "newImplementation",
          "type": "address"
        }
      ],
      "name": "upgradeTo",
      "outputs": [],
      "stateMutability": "nonpayable",
      "type": "function"
    },
    {
      "inputs": [
        {
          "internalType": "address",
          "name": "newImplementation",
          "type": "address"
        },
        {
          "internalType": "bytes",
          "name": "data",
          "type": "bytes"
        }
      ],
      "name": "upgradeToAndCall",
      "outputs": [],
      "stateMutability": "payable",
      "type": "function"
    }
  ],
  "transactionHash": "0xc5b80dded41c867f1282b8acc59b5d32ce3a57342223e0a6fe40655faeb20d15",
  "args": [
    "0x3f911696044d000CcF7D085e35b060e846b95f56",
    "0xFAF3b3eE96Fa210Cf196CDa9015384dE049Fa2a8"
  ],
  "numDeployments": 1,
  "solcInputHash": "0d9b4f013ad8b24d94c0978b4d3f3ea8",
  "bytecode": "0x60e06040523060601b6080523480156200001857600080fd5b5060405162002b5538038062002b558339810160408190526200003b91620001f7565b6001600160a01b038216620000975760405162461bcd60e51b815260206004820152601c60248201527f4c50503a5f67455448506f732063616e206e6f74206265207a65726f0000000060448201526064015b60405180910390fd5b6001600160a01b038116620000ef5760405162461bcd60e51b815260206004820152601e60248201527f4c50503a5f706f7274616c506f732063616e206e6f74206265207a65726f000060448201526064016200008e565b6001600160601b0319606083811b821660a05282901b1660c052620001136200011b565b50506200022f565b600054610100900460ff1615620001855760405162461bcd60e51b815260206004820152602760248201527f496e697469616c697a61626c653a20636f6e747261637420697320696e697469604482015266616c697a696e6760c81b60648201526084016200008e565b60005460ff9081161015620001d8576000805460ff191660ff9081179091556040519081527f7f26b83ff96e1f2b6a682f133852f6798a09c465da95921460cefb38474024989060200160405180910390a15b565b80516001600160a01b0381168114620001f257600080fd5b919050565b600080604083850312156200020b57600080fd5b6200021683620001da565b91506200022660208401620001da565b90509250929050565b60805160601c60a05160601c60c05160601c6128d46200028160003960006116130152600050506000818161069d015281816106e60152818161082f0152818161086f01526108eb01526128d46000f3fe6080604052600436106101d85760003560e01c80637d65a7ab11610102578063aec9886311610095578063e02a520811610064578063e02a5208146105bc578063e72b1d6d146105dc578063e768887e146105fc578063f23a6e611461061c57600080fd5b8063aec9886314610515578063bc197c811461052a578063c7f758a81461056f578063dab840c71461059c57600080fd5b80639934b281116100d15780639934b2811461045857806399ac48ba14610478578063ad4ac4c414610498578063ad8655cb146104f557600080fd5b80637d65a7ab146103df5780638650c072146103fe5780638aa104351461041357806398951b561461042957600080fd5b80635329512b1161017a5780635d9e085d116101495780635d9e085d146103505780636d07e4041461037d578063722679541461039d578063745653de146103ca57600080fd5b80635329512b146102c057806356a72dbf146102f85780635a34bb15146103185780635c975abb1461033857600080fd5b806338fff2d0116101b657806338fff2d0146102625780633b8ba862146102785780634f1ef2861461029857806352d1902d146102ab57600080fd5b806301ffc9a7146101dd5780631da71591146102125780633659cfe614610240575b600080fd5b3480156101e957600080fd5b506101fd6101f83660046122b8565b610648565b60405190151581526020015b60405180910390f35b34801561021e57600080fd5b5061023261022d3660046124b0565b61067f565b604051908152602001610209565b34801561024c57600080fd5b5061026061025b36600461201e565b610692565b005b34801561026e57600080fd5b5061013d54610232565b34801561028457600080fd5b506102326102933660046121bf565b610781565b6102606102a636600461216f565b610824565b3480156102b757600080fd5b506102326108de565b3480156102cc57600080fd5b506102e06102db3660046124d2565b610991565b6040516001600160a01b039091168152602001610209565b34801561030457600080fd5b506102326103133660046124b0565b6109a8565b34801561032457600080fd5b506102326103333660046122e2565b6109b6565b34801561034457600080fd5b5060d95460ff166101fd565b34801561035c57600080fd5b5061023261036b3660046123db565b60009081526001602052604090205490565b34801561038957600080fd5b506102606103983660046123f4565b6109ed565b3480156103a957600080fd5b506103bd6103b83660046124b0565b610a6a565b60405161020991906125ca565b3480156103d657600080fd5b50610232610a78565b3480156103eb57600080fd5b506101b1546001600160a01b03166102e0565b34801561040a57600080fd5b506101fd610b16565b34801561041f57600080fd5b506101b654610232565b34801561043557600080fd5b506104496104443660046123db565b610c27565b604051610209939291906125a3565b34801561046457600080fd5b50610260610473366004612424565b610ce9565b34801561048457600080fd5b506102e06104933660046124b0565b610e04565b3480156104a457600080fd5b506101b1546101b2546101b3546101b4546101b554604080516001600160a01b039687168152948616602086015294909216938301939093526060820192909252608081019190915260a001610209565b34801561050157600080fd5b5061026061051036600461201e565b610e12565b34801561052157600080fd5b50610260610e89565b34801561053657600080fd5b50610556610545366004612058565b63bc197c8160e01b95945050505050565b6040516001600160e01b03199091168152602001610209565b34801561057b57600080fd5b5061058f61058a3660046123db565b611096565b6040516102099190612708565b3480156105a857600080fd5b506102606105b736600461201e565b611159565b3480156105c857600080fd5b506102326105d73660046124b0565b6111a1565b3480156105e857600080fd5b506102326105f73660046124d2565b6111d4565b34801561060857600080fd5b506103bd6106173660046124d2565b6111e3565b34801561062857600080fd5b50610556610637366004612106565b63f23a6e6160e01b95945050505050565b60006001600160e01b03198216630271189760e51b148061067957506301ffc9a760e01b6001600160e01b03198316145b92915050565b600061068b83836111f2565b9392505050565b306001600160a01b037f00000000000000000000000000000000000000000000000000000000000000001614156106e45760405162461bcd60e51b81526004016106db906125dd565b60405180910390fd5b7f00000000000000000000000000000000000000000000000000000000000000006001600160a01b031661071661121e565b6001600160a01b03161461073c5760405162461bcd60e51b81526004016106db90612629565b6107458161123a565b61077e8160005b6040519080825280601f01601f191660200182016040528015610776576020820181803683370190505b506000611331565b50565b6040516334c4fde360e11b8152600090733506980d4d72f056d12216cA7c853000f19e638290636989fbc6906107ca906101b1906001908b908b908b908b908b906004016126c0565b60206040518083038186803b1580156107e257600080fd5b505af41580156107f6573d6000803e3d6000fd5b505050506040513d601f19601f8201168201806040525081019061081a919061229f565b9695505050505050565b306001600160a01b037f000000000000000000000000000000000000000000000000000000000000000016141561086d5760405162461bcd60e51b81526004016106db906125dd565b7f00000000000000000000000000000000000000000000000000000000000000006001600160a01b031661089f61121e565b6001600160a01b0316146108c55760405162461bcd60e51b81526004016106db90612629565b6108ce8261123a565b6108da82826001611331565b5050565b6000306001600160a01b037f0000000000000000000000000000000000000000000000000000000000000000161461097e5760405162461bcd60e51b815260206004820152603860248201527f555550535570677261646561626c653a206d757374206e6f742062652063616c60448201527f6c6564207468726f7567682064656c656761746563616c6c000000000000000060648201526084016106db565b5060008051602061285883398151915290565b60006109a060018585856114b0565b949350505050565b600061068b600184846114ee565b60008383836040516020016109cd93929190612591565b60408051601f198184030181529190528051602090910120949350505050565b6040516304ac4a9160e11b815260016004820152602481018390526001600160a01b0382166044820152733506980d4d72f056d12216cA7c853000f19e63829063095895229060640160006040518083038186803b158015610a4e57600080fd5b505af4158015610a62573d6000803e3d6000fd5b505050505050565b606061068b60018484611518565b6000610a8d6101b1546001600160a01b031690565b6101b554604051630eca989d60e11b81526001600160a01b039290921691631d95313a91610ac19160040190815260200190565b60206040518083038186803b158015610ad957600080fd5b505afa158015610aed573d6000803e3d6000fd5b505050506040513d601f19601f82011682018060405250810190610b11919061229f565b905090565b6000610b20610a78565b6101b65414610b2f5750600190565b610b3761121e565b6101b3546001600160a01b03908116911614610b535750600190565b6101b2546001600160a01b0316610b736101b1546001600160a01b031690565b6001600160a01b03166399ac48ba610b8b61013d5490565b6040516001600160e01b031960e084901b16815260048101919091526921a7a72a2927a62622a960b11b602482015260440160206040518083038186803b158015610bd557600080fd5b505afa158015610be9573d6000803e3d6000fd5b505050506040513d601f19601f82011682018060405250810190610c0d919061203b565b6001600160a01b031614610c215750600190565b50600090565b604051639c04df5b60e01b81526101b1600482015260016024820152604481018290526000908190606090733506980d4d72f056d12216cA7c853000f19e638290639c04df5b9060640160006040518083038186803b158015610c8957600080fd5b505af4158015610c9d573d6000803e3d6000fd5b505050506040513d6000823e601f3d908101601f19168201604052610cc59190810190612223565b6101b5549295509093509150821415610ce257610ce283856115ca565b9193909250565b600054610100900460ff1615808015610d095750600054600160ff909116105b80610d235750303b158015610d23575060005460ff166001145b610d865760405162461bcd60e51b815260206004820152602e60248201527f496e697469616c697a61626c653a20636f6e747261637420697320616c72656160448201526d191e481a5b9a5d1a585b1a5e995960921b60648201526084016106db565b6000805460ff191660011790558015610da9576000805461ff0019166101001790555b610db5878787876115e7565b8015610dfb576000805461ff0019169055604051600181527f7f26b83ff96e1f2b6a682f133852f6798a09c465da95921460cefb38474024989060200160405180910390a15b50505050505050565b600061068b60018484611649565b60405163e51d9aa360e01b81526101b160048201526001600160a01b0382166024820152733506980d4d72f056d12216cA7c853000f19e63829063e51d9aa3906044015b60006040518083038186803b158015610e6e57600080fd5b505af4158015610e82573d6000803e3d6000fd5b5050505050565b6101b2546001600160a01b03163314610edb5760405162461bcd60e51b81526020600482015260146024820152732628281d39b2b73232b9102727aa1037bbb732b960611b60448201526064016106db565b6101b1546001600160a01b03166001600160a01b0316638650c0726040518163ffffffff1660e01b815260040160206040518083038186803b158015610f2057600080fd5b505afa158015610f34573d6000803e3d6000fd5b505050506040513d601f19601f82011682018060405250810190610f58919061227d565b15610f9e5760405162461bcd60e51b81526020600482015260166024820152751314140e941bdc9d185b081a5cc81a5cdbdb185d195960521b60448201526064016106db565b6101b654610faa610a78565b1415610fea5760405162461bcd60e51b815260206004820152600f60248201526e4c50503a6e6f20757067726164657360881b60448201526064016106db565b6000610fff6101b1546001600160a01b031690565b6101b55460405163e3099e0960e01b81526001600160a01b03929092169163e3099e09916110339160040190815260200190565b602060405180830381600087803b15801561104d57600080fd5b505af1158015611061573d6000803e3d6000fd5b505050506040513d601f19601f82011682018060405250810190611085919061229f565b905061109081610c27565b50505050565b6110ca604051806080016040528060006001600160a01b031681526020016000815260200160608152602001600081525090565b60405163929fbdfb60e01b81526101b1600482015260248101839052733506980d4d72f056d12216cA7c853000f19e63829063929fbdfb9060440160006040518083038186803b15801561111d57600080fd5b505af4158015611131573d6000803e3d6000fd5b505050506040513d6000823e601f3d908101601f19168201604052610679919081019061232e565b604051630bde2bc360e01b81526101b160048201526001600160a01b0382166024820152733506980d4d72f056d12216cA7c853000f19e638290630bde2bc390604401610e56565b60008281526001602052604081208054839081106111c1576111c1612816565b9060005260206000200154905092915050565b60006109a0600185858561167d565b60606109a060018585856116ac565b604080516020808201949094528082019290925280518083038201815260609092019052805191012090565b600080516020612858833981519152546001600160a01b031690565b733506980d4d72f056d12216cA7c853000f19e6382633f98381a6101b18361126061121e565b6040516001600160e01b031960e086901b16815260048101939093526001600160a01b03918216602484015216604482015260640160206040518083038186803b1580156112ad57600080fd5b505af41580156112c1573d6000803e3d6000fd5b505050506040513d601f19601f820116820180604052508101906112e5919061227d565b61077e5760405162461bcd60e51b815260206004820152601960248201527f474d3a6e6f7420616c6c6f77656420746f20757067726164650000000000000060448201526064016106db565b7f4910fdfa16fed3260ed0e7147f7cc6da11a60208b5b9406d12a635614ffd91435460ff16156113695761136483611763565b505050565b826001600160a01b03166352d1902d6040518163ffffffff1660e01b815260040160206040518083038186803b1580156113a257600080fd5b505afa9250505080156113d2575060408051601f3d908101601f191682019092526113cf9181019061229f565b60015b6114355760405162461bcd60e51b815260206004820152602e60248201527f45524331393637557067726164653a206e657720696d706c656d656e7461746960448201526d6f6e206973206e6f74205555505360901b60648201526084016106db565b60008051602061285883398151915281146114a45760405162461bcd60e51b815260206004820152602960248201527f45524331393637557067726164653a20756e737570706f727465642070726f786044820152681a58589b195555525160ba1b60648201526084016106db565b506113648383836117ff565b60008460030160006114cb846114c688886111f2565b6111f2565b81526020810191909152604001600020546001600160a01b031695945050505050565b600083600101600061150085856111f2565b81526020019081526020016000205490509392505050565b606083600201600061152a85856111f2565b81526020019081526020016000208054611543906127db565b80601f016020809104026020016040519081016040528092919081815260200182805461156f906127db565b80156115bc5780601f10611591576101008083540402835291602001916115bc565b820191906000526020600020905b81548152906001019060200180831161159f57829003601f168201915b505050505090509392505050565b6115d38261123a565b6115de82600061074c565b6108da81611824565b600054610100900460ff1661160e5760405162461bcd60e51b81526004016106db90612675565b6116407f00000000000000000000000000000000000000000000000000000000000000008460001961271b8686611860565b611090846118a5565b600083600301600061165b85856111f2565b81526020810191909152604001600020546001600160a01b0316949350505050565b6000846001016000611693846114c688886111f2565b8152602001908152602001600020549050949350505050565b60608460020160006116c2846114c688886111f2565b815260200190815260200160002080546116db906127db565b80601f0160208091040260200160405190810160405280929190818152602001828054611707906127db565b80156117545780601f1061172957610100808354040283529160200191611754565b820191906000526020600020905b81548152906001019060200180831161173757829003601f168201915b50505050509050949350505050565b6001600160a01b0381163b6117d05760405162461bcd60e51b815260206004820152602d60248201527f455243313936373a206e657720696d706c656d656e746174696f6e206973206e60448201526c1bdd08184818dbdb9d1c9858dd609a1b60648201526084016106db565b60008051602061285883398151915280546001600160a01b0319166001600160a01b0392909216919091179055565b611808836118d5565b6000825111806118155750805b15611364576110908383611915565b6101b68190556040518181527ffddcded6b4f4730c226821172046b48372d3cd963c159701ae1b7c3bcac541bb9060200160405180910390a150565b600054610100900460ff166118875760405162461bcd60e51b81526004016106db90612675565b61188f611a09565b611897611a09565b610a62868686868686611a32565b600054610100900460ff166118cc5760405162461bcd60e51b81526004016106db90612675565b61077e81611de0565b6118de81611763565b6040516001600160a01b038216907fbc7cd75a20ee27fd9adebab32041f755214dbc6bffa90cc0225b39da2e5c2d3b90600090a250565b60606001600160a01b0383163b61197d5760405162461bcd60e51b815260206004820152602660248201527f416464726573733a2064656c65676174652063616c6c20746f206e6f6e2d636f6044820152651b9d1c9858dd60d21b60648201526084016106db565b600080846001600160a01b0316846040516119989190612553565b600060405180830381855af49150503d80600081146119d3576040519150601f19603f3d011682016040523d82523d6000602084013e6119d8565b606091505b5091509150611a00828260405180606001604052806027815260200161287860279139611e10565b95945050505050565b600054610100900460ff16611a305760405162461bcd60e51b81526004016106db90612675565b565b600054610100900460ff16611a595760405162461bcd60e51b81526004016106db90612675565b6001600160a01b038616611aaf5760405162461bcd60e51b815260206004820152601d60248201527f474d3a676f7665726e616e63652063616e206e6f74206265207a65726f00000060448201526064016106db565b6001600160a01b038516611b055760405162461bcd60e51b815260206004820152601960248201527f474d3a73656e6174652063616e206e6f74206265207a65726f0000000000000060448201526064016106db565b428411611b4a5760405162461bcd60e51b8152602060048201526013602482015272474d3a6c6f772073656e61746545787069727960681b60448201526064016106db565b82611b975760405162461bcd60e51b815260206004820152601e60248201527f474d3a7061636b616765547970652063616e206e6f74206265207a65726f000060448201526064016106db565b80611bf05760405162461bcd60e51b815260206004820152602360248201527f474d3a696e697456657273696f6e4e616d652063616e206e6f7420626520656d60448201526270747960e81b60648201526084016106db565b6101b18054336001600160a01b0319918216811783556101b280549092161790556101b48590556101b5849055600090733506980d4d72f056d12216cA7c853000f19e638290636989fbc6906001611c4661121e565b888888620151806040518863ffffffff1660e01b8152600401611c6f97969594939291906126c0565b60206040518083038186803b158015611c8757600080fd5b505af4158015611c9b573d6000803e3d6000fd5b505050506040513d601f19601f82011682018060405250810190611cbf919061229f565b604051639c04df5b60e01b81526101b160048201526001602482015260448101829052909150733506980d4d72f056d12216cA7c853000f19e638290639c04df5b9060640160006040518083038186803b158015611d1c57600080fd5b505af4158015611d30573d6000803e3d6000fd5b505050506040513d6000823e601f3d908101601f19168201604052611d589190810190612223565b505050611da7611da284848080601f016020809104026020016040519081016040528093929190818152602001838380828437600092019190915250506101b5549150611e299050565b611824565b50506101b180546001600160a01b039687166001600160a01b0319918216179091556101b2805495909616941693909317909355505050565b600054610100900460ff16611e075760405162461bcd60e51b81526004016106db90612675565b61077e81611e5d565b60608315611e1f57508161068b565b61068b8383611e8a565b60008282604051602001611e3e92919061256f565b60408051601f1981840301815291905280516020909101209392505050565b600054610100900460ff16611e845760405162461bcd60e51b81526004016106db90612675565b61013d55565b815115611e9a5781518083602001fd5b8060405162461bcd60e51b81526004016106db91906125ca565b600082601f830112611ec557600080fd5b8135602067ffffffffffffffff821115611ee157611ee161282c565b8160051b611ef0828201612756565b838152828101908684018388018501891015611f0b57600080fd5b600093505b85841015611f2e578035835260019390930192918401918401611f10565b50979650505050505050565b60008083601f840112611f4c57600080fd5b50813567ffffffffffffffff811115611f6457600080fd5b602083019150836020828501011115611f7c57600080fd5b9250929050565b600082601f830112611f9457600080fd5b8135611fa7611fa282612787565b612756565b818152846020838601011115611fbc57600080fd5b816020850160208301376000918101602001919091529392505050565b600082601f830112611fea57600080fd5b8151611ff8611fa282612787565b81815284602083860101111561200d57600080fd5b6109a08260208301602087016127af565b60006020828403121561203057600080fd5b813561068b81612842565b60006020828403121561204d57600080fd5b815161068b81612842565b600080600080600060a0868803121561207057600080fd5b853561207b81612842565b9450602086013561208b81612842565b9350604086013567ffffffffffffffff808211156120a857600080fd5b6120b489838a01611eb4565b945060608801359150808211156120ca57600080fd5b6120d689838a01611eb4565b935060808801359150808211156120ec57600080fd5b506120f988828901611f83565b9150509295509295909350565b600080600080600060a0868803121561211e57600080fd5b853561212981612842565b9450602086013561213981612842565b93506040860135925060608601359150608086013567ffffffffffffffff81111561216357600080fd5b6120f988828901611f83565b6000806040838503121561218257600080fd5b823561218d81612842565b9150602083013567ffffffffffffffff8111156121a957600080fd5b6121b585828601611f83565b9150509250929050565b6000806000806000608086880312156121d757600080fd5b85356121e281612842565b945060208601359350604086013567ffffffffffffffff81111561220557600080fd5b61221188828901611f3a565b96999598509660600135949350505050565b60008060006060848603121561223857600080fd5b835161224381612842565b60208501516040860151919450925067ffffffffffffffff81111561226757600080fd5b61227386828701611fd9565b9150509250925092565b60006020828403121561228f57600080fd5b8151801515811461068b57600080fd5b6000602082840312156122b157600080fd5b5051919050565b6000602082840312156122ca57600080fd5b81356001600160e01b03198116811461068b57600080fd5b6000806000604084860312156122f757600080fd5b833567ffffffffffffffff81111561230e57600080fd5b61231a86828701611f3a565b909790965060209590950135949350505050565b60006020828403121561234057600080fd5b815167ffffffffffffffff8082111561235857600080fd5b908301906080828603121561236c57600080fd5b6040516080810181811083821117156123875761238761282c565b604052825161239581612842565b8152602083810151908201526040830151828111156123b357600080fd5b6123bf87828601611fd9565b6040830152506060830151606082015280935050505092915050565b6000602082840312156123ed57600080fd5b5035919050565b6000806040838503121561240757600080fd5b82359150602083013561241981612842565b809150509250929050565b6000806000806000806080878903121561243d57600080fd5b86359550602087013561244f81612842565b9450604087013567ffffffffffffffff8082111561246c57600080fd5b6124788a838b01611f3a565b9096509450606089013591508082111561249157600080fd5b5061249e89828a01611f3a565b979a9699509497509295939492505050565b600080604083850312156124c357600080fd5b50508035926020909101359150565b6000806000606084860312156124e757600080fd5b505081359360208301359350604090920135919050565b81835281816020850137506000828201602090810191909152601f909101601f19169091010190565b6000815180845261253f8160208601602086016127af565b601f01601f19169290920160200192915050565b600082516125658184602087016127af565b9190910192915050565b600083516125818184602088016127af565b9190910191825250602001919050565b82848237909101908152602001919050565b60018060a01b0384168152826020820152606060408201526000611a006060830184612527565b60208152600061068b6020830184612527565b6020808252602c908201527f46756e6374696f6e206d7573742062652063616c6c6564207468726f7567682060408201526b19195b1959d85d1958d85b1b60a21b606082015260800190565b6020808252602c908201527f46756e6374696f6e206d7573742062652063616c6c6564207468726f7567682060408201526b6163746976652070726f787960a01b606082015260800190565b6020808252602b908201527f496e697469616c697a61626c653a20636f6e7472616374206973206e6f74206960408201526a6e697469616c697a696e6760a81b606082015260800190565b87815286602082015260018060a01b038616604082015284606082015260c0608082015260006126f460c0830185876124fe565b90508260a083015298975050505050505050565b6020815260018060a01b03825116602082015260208201516040820152600060408301516080606084015261274060a0840182612527565b9050606084015160808401528091505092915050565b604051601f8201601f1916810167ffffffffffffffff8111828210171561277f5761277f61282c565b604052919050565b600067ffffffffffffffff8211156127a1576127a161282c565b50601f01601f191660200190565b60005b838110156127ca5781810151838201526020016127b2565b838111156110905750506000910152565b600181811c908216806127ef57607f821691505b6020821081141561281057634e487b7160e01b600052602260045260246000fd5b50919050565b634e487b7160e01b600052603260045260246000fd5b634e487b7160e01b600052604160045260246000fd5b6001600160a01b038116811461077e57600080fdfe360894a13ba1a3210667c828492db98dca3e2076cc3735a920a3ca505d382bbc416464726573733a206c6f772d6c6576656c2064656c65676174652063616c6c206661696c6564a2646970667358221220eeabfdf1e20d2c552a886d10a5bf60a42dfa0537f6c2a087b85ece6324ad9d9664736f6c63430008070033",
  "deployedBytecode": "0x6080604052600436106101d85760003560e01c80637d65a7ab11610102578063aec9886311610095578063e02a520811610064578063e02a5208146105bc578063e72b1d6d146105dc578063e768887e146105fc578063f23a6e611461061c57600080fd5b8063aec9886314610515578063bc197c811461052a578063c7f758a81461056f578063dab840c71461059c57600080fd5b80639934b281116100d15780639934b2811461045857806399ac48ba14610478578063ad4ac4c414610498578063ad8655cb146104f557600080fd5b80637d65a7ab146103df5780638650c072146103fe5780638aa104351461041357806398951b561461042957600080fd5b80635329512b1161017a5780635d9e085d116101495780635d9e085d146103505780636d07e4041461037d578063722679541461039d578063745653de146103ca57600080fd5b80635329512b146102c057806356a72dbf146102f85780635a34bb15146103185780635c975abb1461033857600080fd5b806338fff2d0116101b657806338fff2d0146102625780633b8ba862146102785780634f1ef2861461029857806352d1902d146102ab57600080fd5b806301ffc9a7146101dd5780631da71591146102125780633659cfe614610240575b600080fd5b3480156101e957600080fd5b506101fd6101f83660046122b8565b610648565b60405190151581526020015b60405180910390f35b34801561021e57600080fd5b5061023261022d3660046124b0565b61067f565b604051908152602001610209565b34801561024c57600080fd5b5061026061025b36600461201e565b610692565b005b34801561026e57600080fd5b5061013d54610232565b34801561028457600080fd5b506102326102933660046121bf565b610781565b6102606102a636600461216f565b610824565b3480156102b757600080fd5b506102326108de565b3480156102cc57600080fd5b506102e06102db3660046124d2565b610991565b6040516001600160a01b039091168152602001610209565b34801561030457600080fd5b506102326103133660046124b0565b6109a8565b34801561032457600080fd5b506102326103333660046122e2565b6109b6565b34801561034457600080fd5b5060d95460ff166101fd565b34801561035c57600080fd5b5061023261036b3660046123db565b60009081526001602052604090205490565b34801561038957600080fd5b506102606103983660046123f4565b6109ed565b3480156103a957600080fd5b506103bd6103b83660046124b0565b610a6a565b60405161020991906125ca565b3480156103d657600080fd5b50610232610a78565b3480156103eb57600080fd5b506101b1546001600160a01b03166102e0565b34801561040a57600080fd5b506101fd610b16565b34801561041f57600080fd5b506101b654610232565b34801561043557600080fd5b506104496104443660046123db565b610c27565b604051610209939291906125a3565b34801561046457600080fd5b50610260610473366004612424565b610ce9565b34801561048457600080fd5b506102e06104933660046124b0565b610e04565b3480156104a457600080fd5b506101b1546101b2546101b3546101b4546101b554604080516001600160a01b039687168152948616602086015294909216938301939093526060820192909252608081019190915260a001610209565b34801561050157600080fd5b5061026061051036600461201e565b610e12565b34801561052157600080fd5b50610260610e89565b34801561053657600080fd5b50610556610545366004612058565b63bc197c8160e01b95945050505050565b6040516001600160e01b03199091168152602001610209565b34801561057b57600080fd5b5061058f61058a3660046123db565b611096565b6040516102099190612708565b3480156105a857600080fd5b506102606105b736600461201e565b611159565b3480156105c857600080fd5b506102326105d73660046124b0565b6111a1565b3480156105e857600080fd5b506102326105f73660046124d2565b6111d4565b34801561060857600080fd5b506103bd6106173660046124d2565b6111e3565b34801561062857600080fd5b50610556610637366004612106565b63f23a6e6160e01b95945050505050565b60006001600160e01b03198216630271189760e51b148061067957506301ffc9a760e01b6001600160e01b03198316145b92915050565b600061068b83836111f2565b9392505050565b306001600160a01b037f00000000000000000000000000000000000000000000000000000000000000001614156106e45760405162461bcd60e51b81526004016106db906125dd565b60405180910390fd5b7f00000000000000000000000000000000000000000000000000000000000000006001600160a01b031661071661121e565b6001600160a01b03161461073c5760405162461bcd60e51b81526004016106db90612629565b6107458161123a565b61077e8160005b6040519080825280601f01601f191660200182016040528015610776576020820181803683370190505b506000611331565b50565b6040516334c4fde360e11b815260009073__$5eb4f00466582f7d4fb62bc47062007858$__90636989fbc6906107ca906101b1906001908b908b908b908b908b906004016126c0565b60206040518083038186803b1580156107e257600080fd5b505af41580156107f6573d6000803e3d6000fd5b505050506040513d601f19601f8201168201806040525081019061081a919061229f565b9695505050505050565b306001600160a01b037f000000000000000000000000000000000000000000000000000000000000000016141561086d5760405162461bcd60e51b81526004016106db906125dd565b7f00000000000000000000000000000000000000000000000000000000000000006001600160a01b031661089f61121e565b6001600160a01b0316146108c55760405162461bcd60e51b81526004016106db90612629565b6108ce8261123a565b6108da82826001611331565b5050565b6000306001600160a01b037f0000000000000000000000000000000000000000000000000000000000000000161461097e5760405162461bcd60e51b815260206004820152603860248201527f555550535570677261646561626c653a206d757374206e6f742062652063616c60448201527f6c6564207468726f7567682064656c656761746563616c6c000000000000000060648201526084016106db565b5060008051602061285883398151915290565b60006109a060018585856114b0565b949350505050565b600061068b600184846114ee565b60008383836040516020016109cd93929190612591565b60408051601f198184030181529190528051602090910120949350505050565b6040516304ac4a9160e11b815260016004820152602481018390526001600160a01b038216604482015273__$5eb4f00466582f7d4fb62bc47062007858$__9063095895229060640160006040518083038186803b158015610a4e57600080fd5b505af4158015610a62573d6000803e3d6000fd5b505050505050565b606061068b60018484611518565b6000610a8d6101b1546001600160a01b031690565b6101b554604051630eca989d60e11b81526001600160a01b039290921691631d95313a91610ac19160040190815260200190565b60206040518083038186803b158015610ad957600080fd5b505afa158015610aed573d6000803e3d6000fd5b505050506040513d601f19601f82011682018060405250810190610b11919061229f565b905090565b6000610b20610a78565b6101b65414610b2f5750600190565b610b3761121e565b6101b3546001600160a01b03908116911614610b535750600190565b6101b2546001600160a01b0316610b736101b1546001600160a01b031690565b6001600160a01b03166399ac48ba610b8b61013d5490565b6040516001600160e01b031960e084901b16815260048101919091526921a7a72a2927a62622a960b11b602482015260440160206040518083038186803b158015610bd557600080fd5b505afa158015610be9573d6000803e3d6000fd5b505050506040513d601f19601f82011682018060405250810190610c0d919061203b565b6001600160a01b031614610c215750600190565b50600090565b604051639c04df5b60e01b81526101b160048201526001602482015260448101829052600090819060609073__$5eb4f00466582f7d4fb62bc47062007858$__90639c04df5b9060640160006040518083038186803b158015610c8957600080fd5b505af4158015610c9d573d6000803e3d6000fd5b505050506040513d6000823e601f3d908101601f19168201604052610cc59190810190612223565b6101b5549295509093509150821415610ce257610ce283856115ca565b9193909250565b600054610100900460ff1615808015610d095750600054600160ff909116105b80610d235750303b158015610d23575060005460ff166001145b610d865760405162461bcd60e51b815260206004820152602e60248201527f496e697469616c697a61626c653a20636f6e747261637420697320616c72656160448201526d191e481a5b9a5d1a585b1a5e995960921b60648201526084016106db565b6000805460ff191660011790558015610da9576000805461ff0019166101001790555b610db5878787876115e7565b8015610dfb576000805461ff0019169055604051600181527f7f26b83ff96e1f2b6a682f133852f6798a09c465da95921460cefb38474024989060200160405180910390a15b50505050505050565b600061068b60018484611649565b60405163e51d9aa360e01b81526101b160048201526001600160a01b038216602482015273__$5eb4f00466582f7d4fb62bc47062007858$__9063e51d9aa3906044015b60006040518083038186803b158015610e6e57600080fd5b505af4158015610e82573d6000803e3d6000fd5b5050505050565b6101b2546001600160a01b03163314610edb5760405162461bcd60e51b81526020600482015260146024820152732628281d39b2b73232b9102727aa1037bbb732b960611b60448201526064016106db565b6101b1546001600160a01b03166001600160a01b0316638650c0726040518163ffffffff1660e01b815260040160206040518083038186803b158015610f2057600080fd5b505afa158015610f34573d6000803e3d6000fd5b505050506040513d601f19601f82011682018060405250810190610f58919061227d565b15610f9e5760405162461bcd60e51b81526020600482015260166024820152751314140e941bdc9d185b081a5cc81a5cdbdb185d195960521b60448201526064016106db565b6101b654610faa610a78565b1415610fea5760405162461bcd60e51b815260206004820152600f60248201526e4c50503a6e6f20757067726164657360881b60448201526064016106db565b6000610fff6101b1546001600160a01b031690565b6101b55460405163e3099e0960e01b81526001600160a01b03929092169163e3099e09916110339160040190815260200190565b602060405180830381600087803b15801561104d57600080fd5b505af1158015611061573d6000803e3d6000fd5b505050506040513d601f19601f82011682018060405250810190611085919061229f565b905061109081610c27565b50505050565b6110ca604051806080016040528060006001600160a01b031681526020016000815260200160608152602001600081525090565b60405163929fbdfb60e01b81526101b160048201526024810183905273__$5eb4f00466582f7d4fb62bc47062007858$__9063929fbdfb9060440160006040518083038186803b15801561111d57600080fd5b505af4158015611131573d6000803e3d6000fd5b505050506040513d6000823e601f3d908101601f19168201604052610679919081019061232e565b604051630bde2bc360e01b81526101b160048201526001600160a01b038216602482015273__$5eb4f00466582f7d4fb62bc47062007858$__90630bde2bc390604401610e56565b60008281526001602052604081208054839081106111c1576111c1612816565b9060005260206000200154905092915050565b60006109a0600185858561167d565b60606109a060018585856116ac565b604080516020808201949094528082019290925280518083038201815260609092019052805191012090565b600080516020612858833981519152546001600160a01b031690565b73__$5eb4f00466582f7d4fb62bc47062007858$__633f98381a6101b18361126061121e565b6040516001600160e01b031960e086901b16815260048101939093526001600160a01b03918216602484015216604482015260640160206040518083038186803b1580156112ad57600080fd5b505af41580156112c1573d6000803e3d6000fd5b505050506040513d601f19601f820116820180604052508101906112e5919061227d565b61077e5760405162461bcd60e51b815260206004820152601960248201527f474d3a6e6f7420616c6c6f77656420746f20757067726164650000000000000060448201526064016106db565b7f4910fdfa16fed3260ed0e7147f7cc6da11a60208b5b9406d12a635614ffd91435460ff16156113695761136483611763565b505050565b826001600160a01b03166352d1902d6040518163ffffffff1660e01b815260040160206040518083038186803b1580156113a257600080fd5b505afa9250505080156113d2575060408051601f3d908101601f191682019092526113cf9181019061229f565b60015b6114355760405162461bcd60e51b815260206004820152602e60248201527f45524331393637557067726164653a206e657720696d706c656d656e7461746960448201526d6f6e206973206e6f74205555505360901b60648201526084016106db565b60008051602061285883398151915281146114a45760405162461bcd60e51b815260206004820152602960248201527f45524331393637557067726164653a20756e737570706f727465642070726f786044820152681a58589b195555525160ba1b60648201526084016106db565b506113648383836117ff565b60008460030160006114cb846114c688886111f2565b6111f2565b81526020810191909152604001600020546001600160a01b031695945050505050565b600083600101600061150085856111f2565b81526020019081526020016000205490509392505050565b606083600201600061152a85856111f2565b81526020019081526020016000208054611543906127db565b80601f016020809104026020016040519081016040528092919081815260200182805461156f906127db565b80156115bc5780601f10611591576101008083540402835291602001916115bc565b820191906000526020600020905b81548152906001019060200180831161159f57829003601f168201915b505050505090509392505050565b6115d38261123a565b6115de82600061074c565b6108da81611824565b600054610100900460ff1661160e5760405162461bcd60e51b81526004016106db90612675565b6116407f00000000000000000000000000000000000000000000000000000000000000008460001961271b8686611860565b611090846118a5565b600083600301600061165b85856111f2565b81526020810191909152604001600020546001600160a01b0316949350505050565b6000846001016000611693846114c688886111f2565b8152602001908152602001600020549050949350505050565b60608460020160006116c2846114c688886111f2565b815260200190815260200160002080546116db906127db565b80601f0160208091040260200160405190810160405280929190818152602001828054611707906127db565b80156117545780601f1061172957610100808354040283529160200191611754565b820191906000526020600020905b81548152906001019060200180831161173757829003601f168201915b50505050509050949350505050565b6001600160a01b0381163b6117d05760405162461bcd60e51b815260206004820152602d60248201527f455243313936373a206e657720696d706c656d656e746174696f6e206973206e60448201526c1bdd08184818dbdb9d1c9858dd609a1b60648201526084016106db565b60008051602061285883398151915280546001600160a01b0319166001600160a01b0392909216919091179055565b611808836118d5565b6000825111806118155750805b15611364576110908383611915565b6101b68190556040518181527ffddcded6b4f4730c226821172046b48372d3cd963c159701ae1b7c3bcac541bb9060200160405180910390a150565b600054610100900460ff166118875760405162461bcd60e51b81526004016106db90612675565b61188f611a09565b611897611a09565b610a62868686868686611a32565b600054610100900460ff166118cc5760405162461bcd60e51b81526004016106db90612675565b61077e81611de0565b6118de81611763565b6040516001600160a01b038216907fbc7cd75a20ee27fd9adebab32041f755214dbc6bffa90cc0225b39da2e5c2d3b90600090a250565b60606001600160a01b0383163b61197d5760405162461bcd60e51b815260206004820152602660248201527f416464726573733a2064656c65676174652063616c6c20746f206e6f6e2d636f6044820152651b9d1c9858dd60d21b60648201526084016106db565b600080846001600160a01b0316846040516119989190612553565b600060405180830381855af49150503d80600081146119d3576040519150601f19603f3d011682016040523d82523d6000602084013e6119d8565b606091505b5091509150611a00828260405180606001604052806027815260200161287860279139611e10565b95945050505050565b600054610100900460ff16611a305760405162461bcd60e51b81526004016106db90612675565b565b600054610100900460ff16611a595760405162461bcd60e51b81526004016106db90612675565b6001600160a01b038616611aaf5760405162461bcd60e51b815260206004820152601d60248201527f474d3a676f7665726e616e63652063616e206e6f74206265207a65726f00000060448201526064016106db565b6001600160a01b038516611b055760405162461bcd60e51b815260206004820152601960248201527f474d3a73656e6174652063616e206e6f74206265207a65726f0000000000000060448201526064016106db565b428411611b4a5760405162461bcd60e51b8152602060048201526013602482015272474d3a6c6f772073656e61746545787069727960681b60448201526064016106db565b82611b975760405162461bcd60e51b815260206004820152601e60248201527f474d3a7061636b616765547970652063616e206e6f74206265207a65726f000060448201526064016106db565b80611bf05760405162461bcd60e51b815260206004820152602360248201527f474d3a696e697456657273696f6e4e616d652063616e206e6f7420626520656d60448201526270747960e81b60648201526084016106db565b6101b18054336001600160a01b0319918216811783556101b280549092161790556101b48590556101b584905560009073__$5eb4f00466582f7d4fb62bc47062007858$__90636989fbc6906001611c4661121e565b888888620151806040518863ffffffff1660e01b8152600401611c6f97969594939291906126c0565b60206040518083038186803b158015611c8757600080fd5b505af4158015611c9b573d6000803e3d6000fd5b505050506040513d601f19601f82011682018060405250810190611cbf919061229f565b604051639c04df5b60e01b81526101b16004820152600160248201526044810182905290915073__$5eb4f00466582f7d4fb62bc47062007858$__90639c04df5b9060640160006040518083038186803b158015611d1c57600080fd5b505af4158015611d30573d6000803e3d6000fd5b505050506040513d6000823e601f3d908101601f19168201604052611d589190810190612223565b505050611da7611da284848080601f016020809104026020016040519081016040528093929190818152602001838380828437600092019190915250506101b5549150611e299050565b611824565b50506101b180546001600160a01b039687166001600160a01b0319918216179091556101b2805495909616941693909317909355505050565b600054610100900460ff16611e075760405162461bcd60e51b81526004016106db90612675565b61077e81611e5d565b60608315611e1f57508161068b565b61068b8383611e8a565b60008282604051602001611e3e92919061256f565b60408051601f1981840301815291905280516020909101209392505050565b600054610100900460ff16611e845760405162461bcd60e51b81526004016106db90612675565b61013d55565b815115611e9a5781518083602001fd5b8060405162461bcd60e51b81526004016106db91906125ca565b600082601f830112611ec557600080fd5b8135602067ffffffffffffffff821115611ee157611ee161282c565b8160051b611ef0828201612756565b838152828101908684018388018501891015611f0b57600080fd5b600093505b85841015611f2e578035835260019390930192918401918401611f10565b50979650505050505050565b60008083601f840112611f4c57600080fd5b50813567ffffffffffffffff811115611f6457600080fd5b602083019150836020828501011115611f7c57600080fd5b9250929050565b600082601f830112611f9457600080fd5b8135611fa7611fa282612787565b612756565b818152846020838601011115611fbc57600080fd5b816020850160208301376000918101602001919091529392505050565b600082601f830112611fea57600080fd5b8151611ff8611fa282612787565b81815284602083860101111561200d57600080fd5b6109a08260208301602087016127af565b60006020828403121561203057600080fd5b813561068b81612842565b60006020828403121561204d57600080fd5b815161068b81612842565b600080600080600060a0868803121561207057600080fd5b853561207b81612842565b9450602086013561208b81612842565b9350604086013567ffffffffffffffff808211156120a857600080fd5b6120b489838a01611eb4565b945060608801359150808211156120ca57600080fd5b6120d689838a01611eb4565b935060808801359150808211156120ec57600080fd5b506120f988828901611f83565b9150509295509295909350565b600080600080600060a0868803121561211e57600080fd5b853561212981612842565b9450602086013561213981612842565b93506040860135925060608601359150608086013567ffffffffffffffff81111561216357600080fd5b6120f988828901611f83565b6000806040838503121561218257600080fd5b823561218d81612842565b9150602083013567ffffffffffffffff8111156121a957600080fd5b6121b585828601611f83565b9150509250929050565b6000806000806000608086880312156121d757600080fd5b85356121e281612842565b945060208601359350604086013567ffffffffffffffff81111561220557600080fd5b61221188828901611f3a565b96999598509660600135949350505050565b60008060006060848603121561223857600080fd5b835161224381612842565b60208501516040860151919450925067ffffffffffffffff81111561226757600080fd5b61227386828701611fd9565b9150509250925092565b60006020828403121561228f57600080fd5b8151801515811461068b57600080fd5b6000602082840312156122b157600080fd5b5051919050565b6000602082840312156122ca57600080fd5b81356001600160e01b03198116811461068b57600080fd5b6000806000604084860312156122f757600080fd5b833567ffffffffffffffff81111561230e57600080fd5b61231a86828701611f3a565b909790965060209590950135949350505050565b60006020828403121561234057600080fd5b815167ffffffffffffffff8082111561235857600080fd5b908301906080828603121561236c57600080fd5b6040516080810181811083821117156123875761238761282c565b604052825161239581612842565b8152602083810151908201526040830151828111156123b357600080fd5b6123bf87828601611fd9565b6040830152506060830151606082015280935050505092915050565b6000602082840312156123ed57600080fd5b5035919050565b6000806040838503121561240757600080fd5b82359150602083013561241981612842565b809150509250929050565b6000806000806000806080878903121561243d57600080fd5b86359550602087013561244f81612842565b9450604087013567ffffffffffffffff8082111561246c57600080fd5b6124788a838b01611f3a565b9096509450606089013591508082111561249157600080fd5b5061249e89828a01611f3a565b979a9699509497509295939492505050565b600080604083850312156124c357600080fd5b50508035926020909101359150565b6000806000606084860312156124e757600080fd5b505081359360208301359350604090920135919050565b81835281816020850137506000828201602090810191909152601f909101601f19169091010190565b6000815180845261253f8160208601602086016127af565b601f01601f19169290920160200192915050565b600082516125658184602087016127af565b9190910192915050565b600083516125818184602088016127af565b9190910191825250602001919050565b82848237909101908152602001919050565b60018060a01b0384168152826020820152606060408201526000611a006060830184612527565b60208152600061068b6020830184612527565b6020808252602c908201527f46756e6374696f6e206d7573742062652063616c6c6564207468726f7567682060408201526b19195b1959d85d1958d85b1b60a21b606082015260800190565b6020808252602c908201527f46756e6374696f6e206d7573742062652063616c6c6564207468726f7567682060408201526b6163746976652070726f787960a01b606082015260800190565b6020808252602b908201527f496e697469616c697a61626c653a20636f6e7472616374206973206e6f74206960408201526a6e697469616c697a696e6760a81b606082015260800190565b87815286602082015260018060a01b038616604082015284606082015260c0608082015260006126f460c0830185876124fe565b90508260a083015298975050505050505050565b6020815260018060a01b03825116602082015260208201516040820152600060408301516080606084015261274060a0840182612527565b9050606084015160808401528091505092915050565b604051601f8201601f1916810167ffffffffffffffff8111828210171561277f5761277f61282c565b604052919050565b600067ffffffffffffffff8211156127a1576127a161282c565b50601f01601f191660200190565b60005b838110156127ca5781810151838201526020016127b2565b838111156110905750506000910152565b600181811c908216806127ef57607f821691505b6020821081141561281057634e487b7160e01b600052602260045260246000fd5b50919050565b634e487b7160e01b600052603260045260246000fd5b634e487b7160e01b600052604160045260246000fd5b6001600160a01b038116811461077e57600080fdfe360894a13ba1a3210667c828492db98dca3e2076cc3735a920a3ca505d382bbc416464726573733a206c6f772d6c6576656c2064656c65676174652063616c6c206661696c6564a2646970667358221220eeabfdf1e20d2c552a886d10a5bf60a42dfa0537f6c2a087b85ece6324ad9d9664736f6c63430008070033",
  "libraries": {
    "GeodeModuleLib": "0x3506980d4d72f056d12216cA7c853000f19e6382"
  },
  "devdoc": {
    "kind": "dev",
    "methods": {
      "GeodeParams()": {
        "custom:section": "** GETTER FUNCTIONS **",
        "custom:visibility": "-> view-external"
      },
      "allIdsByType(uint256,uint256)": {
        "details": "useful for outside reach, shouldn't be used within contracts as a referance",
        "returns": {
          "_0": "allIdsByType is an array of IDs of the given TYPE from Datastore, returns a specific index"
        }
      },
      "approveProposal(uint256)": {
        "details": "handles PACKAGE_TYPE proposals by upgrading the contract immediately."
      },
      "changeIdCONTROLLER(uint256,address)": {
        "custom:subsection": "** ONLY CONTROLLER **"
      },
      "constructor": {
        "custom:oz-upgrades-unsafe-allow": "constructor",
        "details": "we don't want to provide these package-specific not-changing parameters accross all instances of the packages. So we will store them in the ref implementation contract of the package, and fetch when needed on initialization."
      },
      "generateId(string,uint256)": {
        "details": "id is generated by keccak(name, type)"
      },
      "getProposedVersion()": {
        "details": "GeodeModule override"
      },
      "isolationMode()": {
        "details": "GeodeModule override"
      },
      "paused()": {
        "details": "Returns true if the contract is paused, and false otherwise."
      },
      "propose(address,uint256,bytes,uint256)": {
        "custom:subsection": "** ONLY GOVERNANCE **"
      },
      "proxiableUUID()": {
        "details": "Implementation of the ERC1822 {proxiableUUID} function. This returns the storage slot used by the implementation. It is used to validate the implementation's compatibility when performing an upgrade. IMPORTANT: A proxy pointing at a proxiable contract should not be considered proxiable itself, because this risks bricking a proxy that upgrades to it, by delegating to itself until out of gas. Thus it is critical that this function revert if invoked through a proxy. This is guaranteed by the `notDelegated` modifier."
      },
      "readUintArray(uint256,bytes32,uint256)": {
        "custom:section": "** ARRAY GETTER FUNCTIONS **",
        "custom:visibility": "-> view-external"
      },
      "supportsInterface(bytes4)": {
        "details": "See {IERC165-supportsInterface}."
      },
      "upgradeTo(address)": {
        "details": "Upgrade the implementation of the proxy to `newImplementation`. Calls {_authorizeUpgrade}. Emits an {Upgraded} event."
      },
      "upgradeToAndCall(address,bytes)": {
        "details": "Upgrade the implementation of the proxy to `newImplementation`, and subsequently execute the function call encoded in `data`. Calls {_authorizeUpgrade}. Emits an {Upgraded} event."
      }
    },
    "version": 1
  },
  "userdoc": {
    "kind": "user",
    "methods": {
      "generateId(string,uint256)": {
        "notice": "useful function for string inputs - returns same with the DSML.generateId"
      },
      "getKey(uint256,bytes32)": {
        "notice": "useful view function for string inputs - returns same with the DSML.generateId"
      },
      "getPortal()": {
        "notice": "get Portal as a contract"
      }
    },
    "version": 1
  },
  "storageLayout": {
    "storage": [
      {
        "astId": 527,
        "contract": "contracts/Portal/packages/WithdrawalContract.sol:WithdrawalContract",
        "label": "_initialized",
        "offset": 0,
        "slot": "0",
        "type": "t_uint8"
      },
      {
        "astId": 530,
        "contract": "contracts/Portal/packages/WithdrawalContract.sol:WithdrawalContract",
        "label": "_initializing",
        "offset": 1,
        "slot": "0",
        "type": "t_bool"
      },
      {
        "astId": 26252,
        "contract": "contracts/Portal/packages/WithdrawalContract.sol:WithdrawalContract",
        "label": "DATASTORE",
        "offset": 0,
        "slot": "1",
        "type": "t_struct(IsolatedStorage)26492_storage"
      },
      {
        "astId": 3198,
        "contract": "contracts/Portal/packages/WithdrawalContract.sol:WithdrawalContract",
        "label": "__gap",
        "offset": 0,
        "slot": "17",
        "type": "t_array(t_uint256)50_storage"
      },
      {
        "astId": 1190,
        "contract": "contracts/Portal/packages/WithdrawalContract.sol:WithdrawalContract",
        "label": "__gap",
        "offset": 0,
        "slot": "67",
        "type": "t_array(t_uint256)50_storage"
      },
      {
        "astId": 1136,
        "contract": "contracts/Portal/packages/WithdrawalContract.sol:WithdrawalContract",
        "label": "__gap",
        "offset": 0,
        "slot": "117",
        "type": "t_array(t_uint256)50_storage"
      },
      {
        "astId": 2331,
        "contract": "contracts/Portal/packages/WithdrawalContract.sol:WithdrawalContract",
        "label": "__gap",
        "offset": 0,
        "slot": "167",
        "type": "t_array(t_uint256)50_storage"
      },
      {
        "astId": 846,
        "contract": "contracts/Portal/packages/WithdrawalContract.sol:WithdrawalContract",
        "label": "_paused",
        "offset": 0,
        "slot": "217",
        "type": "t_bool"
      },
      {
        "astId": 951,
        "contract": "contracts/Portal/packages/WithdrawalContract.sol:WithdrawalContract",
        "label": "__gap",
        "offset": 0,
        "slot": "218",
        "type": "t_array(t_uint256)49_storage"
      },
      {
        "astId": 966,
        "contract": "contracts/Portal/packages/WithdrawalContract.sol:WithdrawalContract",
        "label": "_status",
        "offset": 0,
        "slot": "267",
        "type": "t_uint256"
      },
      {
        "astId": 1024,
        "contract": "contracts/Portal/packages/WithdrawalContract.sol:WithdrawalContract",
        "label": "__gap",
        "offset": 0,
        "slot": "268",
        "type": "t_array(t_uint256)49_storage"
      },
      {
        "astId": 38045,
        "contract": "contracts/Portal/packages/WithdrawalContract.sol:WithdrawalContract",
        "label": "WITHDRAWAL",
        "offset": 0,
        "slot": "317",
        "type": "t_struct(PooledWithdrawal)38087_storage"
      },
      {
        "astId": 509,
        "contract": "contracts/Portal/packages/WithdrawalContract.sol:WithdrawalContract",
        "label": "__gap",
        "offset": 0,
        "slot": "333",
        "type": "t_array(t_uint256)50_storage"
      },
      {
        "astId": 824,
        "contract": "contracts/Portal/packages/WithdrawalContract.sol:WithdrawalContract",
        "label": "__gap",
        "offset": 0,
        "slot": "383",
        "type": "t_array(t_uint256)50_storage"
      },
      {
        "astId": 27145,
        "contract": "contracts/Portal/packages/WithdrawalContract.sol:WithdrawalContract",
        "label": "GEODE",
        "offset": 0,
        "slot": "433",
        "type": "t_struct(DualGovernance)27622_storage"
      },
      {
        "astId": 38824,
        "contract": "contracts/Portal/packages/WithdrawalContract.sol:WithdrawalContract",
        "label": "__gap",
        "offset": 0,
        "slot": "449",
        "type": "t_array(t_uint256)48_storage"
      }
    ],
    "types": {
      "t_address": {
        "encoding": "inplace",
        "label": "address",
        "numberOfBytes": "20"
      },
      "t_array(t_uint256)12_storage": {
        "base": "t_uint256",
        "encoding": "inplace",
        "label": "uint256[12]",
        "numberOfBytes": "384"
      },
      "t_array(t_uint256)15_storage": {
        "base": "t_uint256",
        "encoding": "inplace",
        "label": "uint256[15]",
        "numberOfBytes": "480"
      },
      "t_array(t_uint256)48_storage": {
        "base": "t_uint256",
        "encoding": "inplace",
        "label": "uint256[48]",
        "numberOfBytes": "1536"
      },
      "t_array(t_uint256)49_storage": {
        "base": "t_uint256",
        "encoding": "inplace",
        "label": "uint256[49]",
        "numberOfBytes": "1568"
      },
      "t_array(t_uint256)50_storage": {
        "base": "t_uint256",
        "encoding": "inplace",
        "label": "uint256[50]",
        "numberOfBytes": "1600"
      },
      "t_array(t_uint256)9_storage": {
        "base": "t_uint256",
        "encoding": "inplace",
        "label": "uint256[9]",
        "numberOfBytes": "288"
      },
      "t_array(t_uint256)dyn_storage": {
        "base": "t_uint256",
        "encoding": "dynamic_array",
        "label": "uint256[]",
        "numberOfBytes": "32"
      },
      "t_bool": {
        "encoding": "inplace",
        "label": "bool",
        "numberOfBytes": "1"
      },
      "t_bytes32": {
        "encoding": "inplace",
        "label": "bytes32",
        "numberOfBytes": "32"
      },
      "t_bytes_storage": {
        "encoding": "bytes",
        "label": "bytes",
        "numberOfBytes": "32"
      },
      "t_mapping(t_bytes32,t_address)": {
        "encoding": "mapping",
        "key": "t_bytes32",
        "label": "mapping(bytes32 => address)",
        "numberOfBytes": "32",
        "value": "t_address"
      },
      "t_mapping(t_bytes32,t_bytes_storage)": {
        "encoding": "mapping",
        "key": "t_bytes32",
        "label": "mapping(bytes32 => bytes)",
        "numberOfBytes": "32",
        "value": "t_bytes_storage"
      },
      "t_mapping(t_bytes32,t_uint256)": {
        "encoding": "mapping",
        "key": "t_bytes32",
        "label": "mapping(bytes32 => uint256)",
        "numberOfBytes": "32",
        "value": "t_uint256"
      },
      "t_mapping(t_uint256,t_array(t_uint256)dyn_storage)": {
        "encoding": "mapping",
        "key": "t_uint256",
        "label": "mapping(uint256 => uint256[])",
        "numberOfBytes": "32",
        "value": "t_array(t_uint256)dyn_storage"
      },
      "t_mapping(t_uint256,t_struct(Proposal)27600_storage)": {
        "encoding": "mapping",
        "key": "t_uint256",
        "label": "mapping(uint256 => struct GeodeModuleLib.Proposal)",
        "numberOfBytes": "32",
        "value": "t_struct(Proposal)27600_storage"
      },
      "t_struct(DualGovernance)27622_storage": {
        "encoding": "inplace",
        "label": "struct GeodeModuleLib.DualGovernance",
        "members": [
          {
            "astId": 27602,
            "contract": "contracts/Portal/packages/WithdrawalContract.sol:WithdrawalContract",
            "label": "GOVERNANCE",
            "offset": 0,
            "slot": "0",
            "type": "t_address"
          },
          {
            "astId": 27604,
            "contract": "contracts/Portal/packages/WithdrawalContract.sol:WithdrawalContract",
            "label": "SENATE",
            "offset": 0,
            "slot": "1",
            "type": "t_address"
          },
          {
            "astId": 27606,
            "contract": "contracts/Portal/packages/WithdrawalContract.sol:WithdrawalContract",
            "label": "APPROVED_UPGRADE",
            "offset": 0,
            "slot": "2",
            "type": "t_address"
          },
          {
            "astId": 27608,
            "contract": "contracts/Portal/packages/WithdrawalContract.sol:WithdrawalContract",
            "label": "SENATE_EXPIRY",
            "offset": 0,
            "slot": "3",
            "type": "t_uint256"
          },
          {
            "astId": 27610,
            "contract": "contracts/Portal/packages/WithdrawalContract.sol:WithdrawalContract",
            "label": "PACKAGE_TYPE",
            "offset": 0,
            "slot": "4",
            "type": "t_uint256"
          },
          {
            "astId": 27612,
            "contract": "contracts/Portal/packages/WithdrawalContract.sol:WithdrawalContract",
            "label": "CONTRACT_VERSION",
            "offset": 0,
            "slot": "5",
            "type": "t_uint256"
          },
          {
            "astId": 27617,
            "contract": "contracts/Portal/packages/WithdrawalContract.sol:WithdrawalContract",
            "label": "proposals",
            "offset": 0,
            "slot": "6",
            "type": "t_mapping(t_uint256,t_struct(Proposal)27600_storage)"
          },
          {
            "astId": 27621,
            "contract": "contracts/Portal/packages/WithdrawalContract.sol:WithdrawalContract",
            "label": "__gap",
            "offset": 0,
            "slot": "7",
            "type": "t_array(t_uint256)9_storage"
          }
        ],
        "numberOfBytes": "512"
      },
      "t_struct(IsolatedStorage)26492_storage": {
        "encoding": "inplace",
        "label": "struct DataStoreModuleLib.IsolatedStorage",
        "members": [
          {
            "astId": 26475,
            "contract": "contracts/Portal/packages/WithdrawalContract.sol:WithdrawalContract",
            "label": "allIdsByType",
            "offset": 0,
            "slot": "0",
            "type": "t_mapping(t_uint256,t_array(t_uint256)dyn_storage)"
          },
          {
            "astId": 26479,
            "contract": "contracts/Portal/packages/WithdrawalContract.sol:WithdrawalContract",
            "label": "uintData",
            "offset": 0,
            "slot": "1",
            "type": "t_mapping(t_bytes32,t_uint256)"
          },
          {
            "astId": 26483,
            "contract": "contracts/Portal/packages/WithdrawalContract.sol:WithdrawalContract",
            "label": "bytesData",
            "offset": 0,
            "slot": "2",
            "type": "t_mapping(t_bytes32,t_bytes_storage)"
          },
          {
            "astId": 26487,
            "contract": "contracts/Portal/packages/WithdrawalContract.sol:WithdrawalContract",
            "label": "addressData",
            "offset": 0,
            "slot": "3",
            "type": "t_mapping(t_bytes32,t_address)"
          },
          {
            "astId": 26491,
            "contract": "contracts/Portal/packages/WithdrawalContract.sol:WithdrawalContract",
            "label": "__gap",
            "offset": 0,
            "slot": "4",
            "type": "t_array(t_uint256)12_storage"
          }
        ],
        "numberOfBytes": "512"
      },
      "t_struct(PooledWithdrawal)38087_storage": {
        "encoding": "inplace",
        "label": "struct WithdrawalModuleLib.PooledWithdrawal",
        "members": [
          {
            "astId": 38082,
            "contract": "contracts/Portal/packages/WithdrawalContract.sol:WithdrawalContract",
            "label": "pooledTokenId",
            "offset": 0,
            "slot": "0",
            "type": "t_uint256"
          },
          {
            "astId": 38086,
            "contract": "contracts/Portal/packages/WithdrawalContract.sol:WithdrawalContract",
            "label": "__gap",
            "offset": 0,
            "slot": "1",
            "type": "t_array(t_uint256)15_storage"
          }
        ],
        "numberOfBytes": "512"
      },
      "t_struct(Proposal)27600_storage": {
        "encoding": "inplace",
        "label": "struct GeodeModuleLib.Proposal",
        "members": [
          {
            "astId": 27593,
            "contract": "contracts/Portal/packages/WithdrawalContract.sol:WithdrawalContract",
            "label": "CONTROLLER",
            "offset": 0,
            "slot": "0",
            "type": "t_address"
          },
          {
            "astId": 27595,
            "contract": "contracts/Portal/packages/WithdrawalContract.sol:WithdrawalContract",
            "label": "TYPE",
            "offset": 0,
            "slot": "1",
            "type": "t_uint256"
          },
          {
            "astId": 27597,
            "contract": "contracts/Portal/packages/WithdrawalContract.sol:WithdrawalContract",
            "label": "NAME",
            "offset": 0,
            "slot": "2",
            "type": "t_bytes_storage"
          },
          {
            "astId": 27599,
            "contract": "contracts/Portal/packages/WithdrawalContract.sol:WithdrawalContract",
            "label": "deadline",
            "offset": 0,
            "slot": "3",
            "type": "t_uint256"
          }
        ],
        "numberOfBytes": "128"
      },
      "t_uint256": {
        "encoding": "inplace",
        "label": "uint256",
        "numberOfBytes": "32"
      },
      "t_uint8": {
        "encoding": "inplace",
        "label": "uint8",
        "numberOfBytes": "1"
      }
    }
  }
}